{
	"contracts/v2/tTikTrixGameEscrow.sol": {
		"tTikTrixGameEscrow": {
			"abi": [
				{
					"inputs": [
						{
							"internalType": "address",
							"name": "entTokenAddress",
							"type": "address"
						},
						{
							"internalType": "address",
							"name": "rptTokenAddress",
							"type": "address"
						}
					],
					"stateMutability": "nonpayable",
					"type": "constructor"
				},
				{
					"anonymous": false,
					"inputs": [
						{
							"indexed": true,
							"internalType": "uint256",
							"name": "yyyymmdd",
							"type": "uint256"
						},
						{
							"indexed": true,
							"internalType": "uint256",
							"name": "gameSeq",
							"type": "uint256"
						},
						{
							"indexed": true,
							"internalType": "uint256",
							"name": "memberSeq",
							"type": "uint256"
						},
						{
							"indexed": false,
							"internalType": "uint256",
							"name": "tokenAmount",
							"type": "uint256"
						}
					],
					"name": "ChallengeRegistred",
					"type": "event"
				},
				{
					"anonymous": false,
					"inputs": [
						{
							"indexed": true,
							"internalType": "uint256",
							"name": "gameSeq",
							"type": "uint256"
						}
					],
					"name": "GameDeleted",
					"type": "event"
				},
				{
					"anonymous": false,
					"inputs": [
						{
							"indexed": true,
							"internalType": "uint256",
							"name": "gameSeq",
							"type": "uint256"
						},
						{
							"indexed": true,
							"internalType": "uint256",
							"name": "memberSeq",
							"type": "uint256"
						}
					],
					"name": "GameEnded",
					"type": "event"
				},
				{
					"anonymous": false,
					"inputs": [
						{
							"indexed": true,
							"internalType": "uint256",
							"name": "gameSeq",
							"type": "uint256"
						},
						{
							"indexed": true,
							"internalType": "uint256",
							"name": "memberSeq",
							"type": "uint256"
						}
					],
					"name": "GameLiked",
					"type": "event"
				},
				{
					"anonymous": false,
					"inputs": [
						{
							"indexed": true,
							"internalType": "uint256",
							"name": "gameSeq",
							"type": "uint256"
						},
						{
							"indexed": true,
							"internalType": "uint256",
							"name": "memberSeq",
							"type": "uint256"
						}
					],
					"name": "GamePlayed",
					"type": "event"
				},
				{
					"anonymous": false,
					"inputs": [
						{
							"indexed": false,
							"internalType": "uint256",
							"name": "developerSeq",
							"type": "uint256"
						},
						{
							"indexed": false,
							"internalType": "uint256",
							"name": "gameSeq",
							"type": "uint256"
						},
						{
							"indexed": false,
							"internalType": "string",
							"name": "title",
							"type": "string"
						}
					],
					"name": "GameRegistered",
					"type": "event"
				},
				{
					"anonymous": false,
					"inputs": [
						{
							"indexed": false,
							"internalType": "uint256",
							"name": "developerSeq",
							"type": "uint256"
						},
						{
							"indexed": false,
							"internalType": "uint256",
							"name": "gameSeq",
							"type": "uint256"
						},
						{
							"indexed": false,
							"internalType": "string",
							"name": "title",
							"type": "string"
						}
					],
					"name": "GameUpdated",
					"type": "event"
				},
				{
					"anonymous": false,
					"inputs": [
						{
							"indexed": false,
							"internalType": "uint256",
							"name": "memberSeq",
							"type": "uint256"
						},
						{
							"indexed": false,
							"internalType": "uint256",
							"name": "tokenAmount",
							"type": "uint256"
						}
					],
					"name": "MemberRegistered",
					"type": "event"
				},
				{
					"anonymous": false,
					"inputs": [
						{
							"indexed": false,
							"internalType": "address[]",
							"name": "recipients",
							"type": "address[]"
						},
						{
							"indexed": false,
							"internalType": "uint256[]",
							"name": "tokenAmounts",
							"type": "uint256[]"
						}
					],
					"name": "PrizesDistributed",
					"type": "event"
				},
				{
					"anonymous": false,
					"inputs": [
						{
							"indexed": true,
							"internalType": "uint256",
							"name": "yyyymmdd",
							"type": "uint256"
						},
						{
							"indexed": true,
							"internalType": "uint256",
							"name": "gameSeq",
							"type": "uint256"
						},
						{
							"indexed": true,
							"internalType": "uint256",
							"name": "memberSeq",
							"type": "uint256"
						},
						{
							"indexed": false,
							"internalType": "uint256",
							"name": "newScore",
							"type": "uint256"
						}
					],
					"name": "RankScoreUpdateChallenge",
					"type": "event"
				},
				{
					"anonymous": false,
					"inputs": [
						{
							"indexed": true,
							"internalType": "uint256",
							"name": "yyyymmdd",
							"type": "uint256"
						},
						{
							"indexed": true,
							"internalType": "uint256",
							"name": "gameSeq",
							"type": "uint256"
						},
						{
							"indexed": true,
							"internalType": "uint256",
							"name": "memberSeq",
							"type": "uint256"
						},
						{
							"indexed": false,
							"internalType": "uint256",
							"name": "newScore",
							"type": "uint256"
						}
					],
					"name": "RankScoreUpdateNoraml",
					"type": "event"
				},
				{
					"anonymous": false,
					"inputs": [
						{
							"indexed": true,
							"internalType": "bytes32",
							"name": "role",
							"type": "bytes32"
						},
						{
							"indexed": true,
							"internalType": "bytes32",
							"name": "previousAdminRole",
							"type": "bytes32"
						},
						{
							"indexed": true,
							"internalType": "bytes32",
							"name": "newAdminRole",
							"type": "bytes32"
						}
					],
					"name": "RoleAdminChanged",
					"type": "event"
				},
				{
					"anonymous": false,
					"inputs": [
						{
							"indexed": true,
							"internalType": "bytes32",
							"name": "role",
							"type": "bytes32"
						},
						{
							"indexed": true,
							"internalType": "address",
							"name": "account",
							"type": "address"
						},
						{
							"indexed": true,
							"internalType": "address",
							"name": "sender",
							"type": "address"
						}
					],
					"name": "RoleGranted",
					"type": "event"
				},
				{
					"anonymous": false,
					"inputs": [
						{
							"indexed": true,
							"internalType": "bytes32",
							"name": "role",
							"type": "bytes32"
						},
						{
							"indexed": true,
							"internalType": "address",
							"name": "account",
							"type": "address"
						},
						{
							"indexed": true,
							"internalType": "address",
							"name": "sender",
							"type": "address"
						}
					],
					"name": "RoleRevoked",
					"type": "event"
				},
				{
					"inputs": [],
					"name": "ADMIN_ROLE",
					"outputs": [
						{
							"internalType": "bytes32",
							"name": "",
							"type": "bytes32"
						}
					],
					"stateMutability": "view",
					"type": "function"
				},
				{
					"inputs": [],
					"name": "DEFAULT_ADMIN_ROLE",
					"outputs": [
						{
							"internalType": "bytes32",
							"name": "",
							"type": "bytes32"
						}
					],
					"stateMutability": "view",
					"type": "function"
				},
				{
					"inputs": [
						{
							"internalType": "uint256",
							"name": "yyyymmdd",
							"type": "uint256"
						},
						{
							"internalType": "uint256",
							"name": "gameSeq",
							"type": "uint256"
						},
						{
							"internalType": "uint256",
							"name": "memberSeq",
							"type": "uint256"
						},
						{
							"internalType": "uint256",
							"name": "tokenAmount",
							"type": "uint256"
						}
					],
					"name": "challengeRegister",
					"outputs": [],
					"stateMutability": "nonpayable",
					"type": "function"
				},
				{
					"inputs": [
						{
							"internalType": "uint256",
							"name": "",
							"type": "uint256"
						},
						{
							"internalType": "uint256",
							"name": "",
							"type": "uint256"
						},
						{
							"internalType": "uint256",
							"name": "",
							"type": "uint256"
						}
					],
					"name": "challenges",
					"outputs": [
						{
							"internalType": "uint256",
							"name": "gameSeq",
							"type": "uint256"
						},
						{
							"internalType": "uint256",
							"name": "memberSeq",
							"type": "uint256"
						},
						{
							"internalType": "uint256",
							"name": "tokenAmount",
							"type": "uint256"
						},
						{
							"internalType": "uint256",
							"name": "score",
							"type": "uint256"
						},
						{
							"internalType": "bool",
							"name": "exists",
							"type": "bool"
						}
					],
					"stateMutability": "view",
					"type": "function"
				},
				{
					"inputs": [
						{
							"internalType": "address[]",
							"name": "recipients",
							"type": "address[]"
						},
						{
							"internalType": "uint256[]",
							"name": "tokenAmounts",
							"type": "uint256[]"
						}
					],
					"name": "distributePrizes",
					"outputs": [],
					"stateMutability": "nonpayable",
					"type": "function"
				},
				{
					"inputs": [],
					"name": "entToken",
					"outputs": [
						{
							"internalType": "contract IERC20",
							"name": "",
							"type": "address"
						}
					],
					"stateMutability": "view",
					"type": "function"
				},
				{
					"inputs": [
						{
							"internalType": "uint256",
							"name": "gameSeq",
							"type": "uint256"
						}
					],
					"name": "gameDelete",
					"outputs": [],
					"stateMutability": "nonpayable",
					"type": "function"
				},
				{
					"inputs": [
						{
							"internalType": "uint256",
							"name": "gameSeq",
							"type": "uint256"
						},
						{
							"internalType": "uint256",
							"name": "memberSeq",
							"type": "uint256"
						}
					],
					"name": "gameEnd",
					"outputs": [],
					"stateMutability": "nonpayable",
					"type": "function"
				},
				{
					"inputs": [
						{
							"internalType": "uint256",
							"name": "",
							"type": "uint256"
						}
					],
					"name": "gameInfos",
					"outputs": [
						{
							"internalType": "uint256",
							"name": "developerSeq",
							"type": "uint256"
						},
						{
							"internalType": "uint256",
							"name": "gameSeq",
							"type": "uint256"
						},
						{
							"internalType": "string",
							"name": "title",
							"type": "string"
						},
						{
							"internalType": "bool",
							"name": "exists",
							"type": "bool"
						}
					],
					"stateMutability": "view",
					"type": "function"
				},
				{
					"inputs": [
						{
							"internalType": "uint256",
							"name": "gameSeq",
							"type": "uint256"
						},
						{
							"internalType": "uint256",
							"name": "memberSeq",
							"type": "uint256"
						}
					],
					"name": "gameLike",
					"outputs": [],
					"stateMutability": "nonpayable",
					"type": "function"
				},
				{
					"inputs": [
						{
							"internalType": "uint256",
							"name": "gameSeq",
							"type": "uint256"
						},
						{
							"internalType": "uint256",
							"name": "memberSeq",
							"type": "uint256"
						}
					],
					"name": "gamePlay",
					"outputs": [],
					"stateMutability": "nonpayable",
					"type": "function"
				},
				{
					"inputs": [
						{
							"internalType": "uint256",
							"name": "developerSeq",
							"type": "uint256"
						},
						{
							"internalType": "uint256",
							"name": "gameSeq",
							"type": "uint256"
						},
						{
							"internalType": "string",
							"name": "title",
							"type": "string"
						}
					],
					"name": "gameRegister",
					"outputs": [],
					"stateMutability": "nonpayable",
					"type": "function"
				},
				{
					"inputs": [
						{
							"internalType": "uint256",
							"name": "developerSeq",
							"type": "uint256"
						},
						{
							"internalType": "uint256",
							"name": "gameSeq",
							"type": "uint256"
						},
						{
							"internalType": "string",
							"name": "title",
							"type": "string"
						}
					],
					"name": "gameUpdate",
					"outputs": [],
					"stateMutability": "nonpayable",
					"type": "function"
				},
				{
					"inputs": [
						{
							"internalType": "uint256",
							"name": "gameSeq",
							"type": "uint256"
						}
					],
					"name": "getGameInfo",
					"outputs": [
						{
							"components": [
								{
									"internalType": "uint256",
									"name": "developerSeq",
									"type": "uint256"
								},
								{
									"internalType": "uint256",
									"name": "gameSeq",
									"type": "uint256"
								},
								{
									"internalType": "string",
									"name": "title",
									"type": "string"
								},
								{
									"internalType": "bool",
									"name": "exists",
									"type": "bool"
								}
							],
							"internalType": "struct tTikTrixGameEscrow.GameInfo",
							"name": "",
							"type": "tuple"
						}
					],
					"stateMutability": "view",
					"type": "function"
				},
				{
					"inputs": [
						{
							"internalType": "uint256",
							"name": "memberSeq",
							"type": "uint256"
						}
					],
					"name": "getMemberInfo",
					"outputs": [
						{
							"components": [
								{
									"internalType": "uint256",
									"name": "memberSeq",
									"type": "uint256"
								}
							],
							"internalType": "struct tTikTrixGameEscrow.MemberInfo",
							"name": "",
							"type": "tuple"
						}
					],
					"stateMutability": "view",
					"type": "function"
				},
				{
					"inputs": [
						{
							"internalType": "bytes32",
							"name": "role",
							"type": "bytes32"
						}
					],
					"name": "getRoleAdmin",
					"outputs": [
						{
							"internalType": "bytes32",
							"name": "",
							"type": "bytes32"
						}
					],
					"stateMutability": "view",
					"type": "function"
				},
				{
					"inputs": [
						{
							"internalType": "address",
							"name": "account",
							"type": "address"
						}
					],
					"name": "grantAdminRole",
					"outputs": [],
					"stateMutability": "nonpayable",
					"type": "function"
				},
				{
					"inputs": [
						{
							"internalType": "bytes32",
							"name": "role",
							"type": "bytes32"
						},
						{
							"internalType": "address",
							"name": "account",
							"type": "address"
						}
					],
					"name": "grantRole",
					"outputs": [],
					"stateMutability": "nonpayable",
					"type": "function"
				},
				{
					"inputs": [
						{
							"internalType": "bytes32",
							"name": "role",
							"type": "bytes32"
						},
						{
							"internalType": "address",
							"name": "account",
							"type": "address"
						}
					],
					"name": "hasRole",
					"outputs": [
						{
							"internalType": "bool",
							"name": "",
							"type": "bool"
						}
					],
					"stateMutability": "view",
					"type": "function"
				},
				{
					"inputs": [
						{
							"internalType": "uint256",
							"name": "",
							"type": "uint256"
						}
					],
					"name": "memberInfos",
					"outputs": [
						{
							"internalType": "uint256",
							"name": "memberSeq",
							"type": "uint256"
						}
					],
					"stateMutability": "view",
					"type": "function"
				},
				{
					"inputs": [
						{
							"internalType": "uint256",
							"name": "yyyymmdd",
							"type": "uint256"
						},
						{
							"internalType": "uint256",
							"name": "gameSeq",
							"type": "uint256"
						},
						{
							"internalType": "uint256",
							"name": "memberSeq",
							"type": "uint256"
						},
						{
							"internalType": "uint256",
							"name": "newScore",
							"type": "uint256"
						}
					],
					"name": "rankScoreUpdateChallenge",
					"outputs": [],
					"stateMutability": "nonpayable",
					"type": "function"
				},
				{
					"inputs": [
						{
							"internalType": "uint256",
							"name": "yyyymmdd",
							"type": "uint256"
						},
						{
							"internalType": "uint256",
							"name": "gameSeq",
							"type": "uint256"
						},
						{
							"internalType": "uint256",
							"name": "memberSeq",
							"type": "uint256"
						},
						{
							"internalType": "uint256",
							"name": "newScore",
							"type": "uint256"
						}
					],
					"name": "rankScoreUpdateNormal",
					"outputs": [],
					"stateMutability": "nonpayable",
					"type": "function"
				},
				{
					"inputs": [
						{
							"internalType": "uint256",
							"name": "memberSeq",
							"type": "uint256"
						},
						{
							"internalType": "address",
							"name": "mintAddress",
							"type": "address"
						},
						{
							"internalType": "uint256",
							"name": "tokenAmount",
							"type": "uint256"
						}
					],
					"name": "registerMember",
					"outputs": [],
					"stateMutability": "nonpayable",
					"type": "function"
				},
				{
					"inputs": [
						{
							"internalType": "bytes32",
							"name": "role",
							"type": "bytes32"
						},
						{
							"internalType": "address",
							"name": "account",
							"type": "address"
						}
					],
					"name": "renounceRole",
					"outputs": [],
					"stateMutability": "nonpayable",
					"type": "function"
				},
				{
					"inputs": [
						{
							"internalType": "address",
							"name": "account",
							"type": "address"
						}
					],
					"name": "revokeAdminRole",
					"outputs": [],
					"stateMutability": "nonpayable",
					"type": "function"
				},
				{
					"inputs": [
						{
							"internalType": "bytes32",
							"name": "role",
							"type": "bytes32"
						},
						{
							"internalType": "address",
							"name": "account",
							"type": "address"
						}
					],
					"name": "revokeRole",
					"outputs": [],
					"stateMutability": "nonpayable",
					"type": "function"
				},
				{
					"inputs": [],
					"name": "rptToken",
					"outputs": [
						{
							"internalType": "contract IERC20",
							"name": "",
							"type": "address"
						}
					],
					"stateMutability": "view",
					"type": "function"
				},
				{
					"inputs": [
						{
							"internalType": "address",
							"name": "entTokenAddress",
							"type": "address"
						},
						{
							"internalType": "address",
							"name": "rptTokenAddress",
							"type": "address"
						}
					],
					"name": "setTokens",
					"outputs": [],
					"stateMutability": "nonpayable",
					"type": "function"
				},
				{
					"inputs": [
						{
							"internalType": "bytes4",
							"name": "interfaceId",
							"type": "bytes4"
						}
					],
					"name": "supportsInterface",
					"outputs": [
						{
							"internalType": "bool",
							"name": "",
							"type": "bool"
						}
					],
					"stateMutability": "view",
					"type": "function"
				}
			],
			"devdoc": {
				"events": {
					"RoleAdminChanged(bytes32,bytes32,bytes32)": {
						"details": "Emitted when `newAdminRole` is set as ``role``'s admin role, replacing `previousAdminRole` `DEFAULT_ADMIN_ROLE` is the starting admin for all roles, despite {RoleAdminChanged} not being emitted signaling this. _Available since v3.1._"
					},
					"RoleGranted(bytes32,address,address)": {
						"details": "Emitted when `account` is granted `role`. `sender` is the account that originated the contract call, an admin role bearer except when using {AccessControl-_setupRole}."
					},
					"RoleRevoked(bytes32,address,address)": {
						"details": "Emitted when `account` is revoked `role`. `sender` is the account that originated the contract call:   - if using `revokeRole`, it is the admin role bearer   - if using `renounceRole`, it is the role bearer (i.e. `account`)"
					}
				},
				"kind": "dev",
				"methods": {
					"getRoleAdmin(bytes32)": {
						"details": "Returns the admin role that controls `role`. See {grantRole} and {revokeRole}. To change a role's admin, use {_setRoleAdmin}."
					},
					"grantRole(bytes32,address)": {
						"details": "Grants `role` to `account`. If `account` had not been already granted `role`, emits a {RoleGranted} event. Requirements: - the caller must have ``role``'s admin role. May emit a {RoleGranted} event."
					},
					"hasRole(bytes32,address)": {
						"details": "Returns `true` if `account` has been granted `role`."
					},
					"renounceRole(bytes32,address)": {
						"details": "Revokes `role` from the calling account. Roles are often managed via {grantRole} and {revokeRole}: this function's purpose is to provide a mechanism for accounts to lose their privileges if they are compromised (such as when a trusted device is misplaced). If the calling account had been revoked `role`, emits a {RoleRevoked} event. Requirements: - the caller must be `account`. May emit a {RoleRevoked} event."
					},
					"revokeRole(bytes32,address)": {
						"details": "Revokes `role` from `account`. If `account` had been granted `role`, emits a {RoleRevoked} event. Requirements: - the caller must have ``role``'s admin role. May emit a {RoleRevoked} event."
					},
					"supportsInterface(bytes4)": {
						"details": "See {IERC165-supportsInterface}."
					}
				},
				"version": 1
			},
			"evm": {
				"assembly": "    /* \"contracts/v2/tTikTrixGameEscrow.sol\":281:7318  contract tTikTrixGameEscrow is AccessControl {... */\n  mstore(0x40, 0x80)\n    /* \"contracts/v2/tTikTrixGameEscrow.sol\":1965:2218  constructor(address entTokenAddress, address rptTokenAddress) {... */\n  callvalue\n  dup1\n  iszero\n  tag_1\n  jumpi\n  0x00\n  dup1\n  revert\ntag_1:\n  pop\n  mload(0x40)\n  sub(codesize, bytecodeSize)\n  dup1\n  bytecodeSize\n  dup4\n  codecopy\n  dup2\n  dup2\n  add\n  0x40\n  mstore\n  dup2\n  add\n  swap1\n  tag_2\n  swap2\n  swap1\n  tag_3\n  jump\t// in\ntag_2:\n    /* \"contracts/v2/tTikTrixGameEscrow.sol\":2055:2070  entTokenAddress */\n  dup2\n    /* \"contracts/v2/tTikTrixGameEscrow.sol\":2037:2045  entToken */\n  0x01\n  0x00\n    /* \"contracts/v2/tTikTrixGameEscrow.sol\":2037:2071  entToken = IERC20(entTokenAddress) */\n  0x0100\n  exp\n  dup2\n  sload\n  dup2\n  0xffffffffffffffffffffffffffffffffffffffff\n  mul\n  not\n  and\n  swap1\n  dup4\n  0xffffffffffffffffffffffffffffffffffffffff\n  and\n  mul\n  or\n  swap1\n  sstore\n  pop\n    /* \"contracts/v2/tTikTrixGameEscrow.sol\":2099:2114  rptTokenAddress */\n  dup1\n    /* \"contracts/v2/tTikTrixGameEscrow.sol\":2081:2089  rptToken */\n  0x02\n  0x00\n    /* \"contracts/v2/tTikTrixGameEscrow.sol\":2081:2115  rptToken = IERC20(rptTokenAddress) */\n  0x0100\n  exp\n  dup2\n  sload\n  dup2\n  0xffffffffffffffffffffffffffffffffffffffff\n  mul\n  not\n  and\n  swap1\n  dup4\n  0xffffffffffffffffffffffffffffffffffffffff\n  and\n  mul\n  or\n  swap1\n  sstore\n  pop\n    /* \"contracts/v2/tTikTrixGameEscrow.sol\":2125:2167  _setupRole(DEFAULT_ADMIN_ROLE, msg.sender) */\n  tag_6\n    /* \"https://github.com/OpenZeppelin/openzeppelin-contracts/blob/v4.8.0/contracts/access/AccessControl.sol\":2072:2076  0x00 */\n  0x00\n    /* \"contracts/v2/tTikTrixGameEscrow.sol\":2136:2154  DEFAULT_ADMIN_ROLE */\n  dup1\n  shl\n    /* \"contracts/v2/tTikTrixGameEscrow.sol\":2156:2166  msg.sender */\n  caller\n    /* \"contracts/v2/tTikTrixGameEscrow.sol\":2125:2135  _setupRole */\n  shl(0x20, tag_7)\n    /* \"contracts/v2/tTikTrixGameEscrow.sol\":2125:2167  _setupRole(DEFAULT_ADMIN_ROLE, msg.sender) */\n  0x20\n  shr\n  jump\t// in\ntag_6:\n    /* \"contracts/v2/tTikTrixGameEscrow.sol\":2177:2211  _setupRole(ADMIN_ROLE, msg.sender) */\n  tag_8\n    /* \"contracts/v2/tTikTrixGameEscrow.sol\":369:392  keccak256(\"ADMIN_ROLE\") */\n  0xa49807205ce4d355092ef5a8a18f56e8913cf4a201fbe287825b095693c21775\n    /* \"contracts/v2/tTikTrixGameEscrow.sol\":2200:2210  msg.sender */\n  caller\n    /* \"contracts/v2/tTikTrixGameEscrow.sol\":2177:2187  _setupRole */\n  shl(0x20, tag_7)\n    /* \"contracts/v2/tTikTrixGameEscrow.sol\":2177:2211  _setupRole(ADMIN_ROLE, msg.sender) */\n  0x20\n  shr\n  jump\t// in\ntag_8:\n    /* \"contracts/v2/tTikTrixGameEscrow.sol\":1965:2218  constructor(address entTokenAddress, address rptTokenAddress) {... */\n  pop\n  pop\n    /* \"contracts/v2/tTikTrixGameEscrow.sol\":281:7318  contract tTikTrixGameEscrow is AccessControl {... */\n  jump(tag_9)\n    /* \"https://github.com/OpenZeppelin/openzeppelin-contracts/blob/v4.8.0/contracts/access/AccessControl.sol\":6811:6921  function _setupRole(bytes32 role, address account) internal virtual {... */\ntag_7:\n    /* \"https://github.com/OpenZeppelin/openzeppelin-contracts/blob/v4.8.0/contracts/access/AccessControl.sol\":6889:6914  _grantRole(role, account) */\n  tag_11\n    /* \"https://github.com/OpenZeppelin/openzeppelin-contracts/blob/v4.8.0/contracts/access/AccessControl.sol\":6900:6904  role */\n  dup3\n    /* \"https://github.com/OpenZeppelin/openzeppelin-contracts/blob/v4.8.0/contracts/access/AccessControl.sol\":6906:6913  account */\n  dup3\n    /* \"https://github.com/OpenZeppelin/openzeppelin-contracts/blob/v4.8.0/contracts/access/AccessControl.sol\":6889:6899  _grantRole */\n  shl(0x20, tag_12)\n    /* \"https://github.com/OpenZeppelin/openzeppelin-contracts/blob/v4.8.0/contracts/access/AccessControl.sol\":6889:6914  _grantRole(role, account) */\n  0x20\n  shr\n  jump\t// in\ntag_11:\n    /* \"https://github.com/OpenZeppelin/openzeppelin-contracts/blob/v4.8.0/contracts/access/AccessControl.sol\":6811:6921  function _setupRole(bytes32 role, address account) internal virtual {... */\n  pop\n  pop\n  jump\t// out\n    /* \"https://github.com/OpenZeppelin/openzeppelin-contracts/blob/v4.8.0/contracts/access/AccessControl.sol\":7461:7694  function _grantRole(bytes32 role, address account) internal virtual {... */\ntag_12:\n    /* \"https://github.com/OpenZeppelin/openzeppelin-contracts/blob/v4.8.0/contracts/access/AccessControl.sol\":7544:7566  hasRole(role, account) */\n  tag_14\n    /* \"https://github.com/OpenZeppelin/openzeppelin-contracts/blob/v4.8.0/contracts/access/AccessControl.sol\":7552:7556  role */\n  dup3\n    /* \"https://github.com/OpenZeppelin/openzeppelin-contracts/blob/v4.8.0/contracts/access/AccessControl.sol\":7558:7565  account */\n  dup3\n    /* \"https://github.com/OpenZeppelin/openzeppelin-contracts/blob/v4.8.0/contracts/access/AccessControl.sol\":7544:7551  hasRole */\n  shl(0x20, tag_15)\n    /* \"https://github.com/OpenZeppelin/openzeppelin-contracts/blob/v4.8.0/contracts/access/AccessControl.sol\":7544:7566  hasRole(role, account) */\n  0x20\n  shr\n  jump\t// in\ntag_14:\n    /* \"https://github.com/OpenZeppelin/openzeppelin-contracts/blob/v4.8.0/contracts/access/AccessControl.sol\":7539:7688  if (!hasRole(role, account)) {... */\n  tag_16\n  jumpi\n    /* \"https://github.com/OpenZeppelin/openzeppelin-contracts/blob/v4.8.0/contracts/access/AccessControl.sol\":7614:7618  true */\n  0x01\n    /* \"https://github.com/OpenZeppelin/openzeppelin-contracts/blob/v4.8.0/contracts/access/AccessControl.sol\":7582:7588  _roles */\n  0x00\n    /* \"https://github.com/OpenZeppelin/openzeppelin-contracts/blob/v4.8.0/contracts/access/AccessControl.sol\":7582:7594  _roles[role] */\n  dup1\n    /* \"https://github.com/OpenZeppelin/openzeppelin-contracts/blob/v4.8.0/contracts/access/AccessControl.sol\":7589:7593  role */\n  dup5\n    /* \"https://github.com/OpenZeppelin/openzeppelin-contracts/blob/v4.8.0/contracts/access/AccessControl.sol\":7582:7594  _roles[role] */\n  dup2\n  mstore\n  0x20\n  add\n  swap1\n  dup2\n  mstore\n  0x20\n  add\n  0x00\n  keccak256\n    /* \"https://github.com/OpenZeppelin/openzeppelin-contracts/blob/v4.8.0/contracts/access/AccessControl.sol\":7582:7602  _roles[role].members */\n  0x00\n  add\n    /* \"https://github.com/OpenZeppelin/openzeppelin-contracts/blob/v4.8.0/contracts/access/AccessControl.sol\":7582:7611  _roles[role].members[account] */\n  0x00\n    /* \"https://github.com/OpenZeppelin/openzeppelin-contracts/blob/v4.8.0/contracts/access/AccessControl.sol\":7603:7610  account */\n  dup4\n    /* \"https://github.com/OpenZeppelin/openzeppelin-contracts/blob/v4.8.0/contracts/access/AccessControl.sol\":7582:7611  _roles[role].members[account] */\n  0xffffffffffffffffffffffffffffffffffffffff\n  and\n  0xffffffffffffffffffffffffffffffffffffffff\n  and\n  dup2\n  mstore\n  0x20\n  add\n  swap1\n  dup2\n  mstore\n  0x20\n  add\n  0x00\n  keccak256\n  0x00\n    /* \"https://github.com/OpenZeppelin/openzeppelin-contracts/blob/v4.8.0/contracts/access/AccessControl.sol\":7582:7618  _roles[role].members[account] = true */\n  0x0100\n  exp\n  dup2\n  sload\n  dup2\n  0xff\n  mul\n  not\n  and\n  swap1\n  dup4\n  iszero\n  iszero\n  mul\n  or\n  swap1\n  sstore\n  pop\n    /* \"https://github.com/OpenZeppelin/openzeppelin-contracts/blob/v4.8.0/contracts/access/AccessControl.sol\":7664:7676  _msgSender() */\n  tag_17\n    /* \"https://github.com/OpenZeppelin/openzeppelin-contracts/blob/v4.8.0/contracts/access/AccessControl.sol\":7664:7674  _msgSender */\n  shl(0x20, tag_18)\n    /* \"https://github.com/OpenZeppelin/openzeppelin-contracts/blob/v4.8.0/contracts/access/AccessControl.sol\":7664:7676  _msgSender() */\n  0x20\n  shr\n  jump\t// in\ntag_17:\n    /* \"https://github.com/OpenZeppelin/openzeppelin-contracts/blob/v4.8.0/contracts/access/AccessControl.sol\":7637:7677  RoleGranted(role, account, _msgSender()) */\n  0xffffffffffffffffffffffffffffffffffffffff\n  and\n    /* \"https://github.com/OpenZeppelin/openzeppelin-contracts/blob/v4.8.0/contracts/access/AccessControl.sol\":7655:7662  account */\n  dup2\n    /* \"https://github.com/OpenZeppelin/openzeppelin-contracts/blob/v4.8.0/contracts/access/AccessControl.sol\":7637:7677  RoleGranted(role, account, _msgSender()) */\n  0xffffffffffffffffffffffffffffffffffffffff\n  and\n    /* \"https://github.com/OpenZeppelin/openzeppelin-contracts/blob/v4.8.0/contracts/access/AccessControl.sol\":7649:7653  role */\n  dup4\n    /* \"https://github.com/OpenZeppelin/openzeppelin-contracts/blob/v4.8.0/contracts/access/AccessControl.sol\":7637:7677  RoleGranted(role, account, _msgSender()) */\n  0x2f8788117e7eff1d82e926ec794901d17c78024a50270940304540a733656f0d\n  mload(0x40)\n  mload(0x40)\n  dup1\n  swap2\n  sub\n  swap1\n  log4\n    /* \"https://github.com/OpenZeppelin/openzeppelin-contracts/blob/v4.8.0/contracts/access/AccessControl.sol\":7539:7688  if (!hasRole(role, account)) {... */\ntag_16:\n    /* \"https://github.com/OpenZeppelin/openzeppelin-contracts/blob/v4.8.0/contracts/access/AccessControl.sol\":7461:7694  function _grantRole(bytes32 role, address account) internal virtual {... */\n  pop\n  pop\n  jump\t// out\n    /* \"https://github.com/OpenZeppelin/openzeppelin-contracts/blob/v4.8.0/contracts/access/AccessControl.sol\":2895:3040  function hasRole(bytes32 role, address account) public view virtual override returns (bool) {... */\ntag_15:\n    /* \"https://github.com/OpenZeppelin/openzeppelin-contracts/blob/v4.8.0/contracts/access/AccessControl.sol\":2981:2985  bool */\n  0x00\n    /* \"https://github.com/OpenZeppelin/openzeppelin-contracts/blob/v4.8.0/contracts/access/AccessControl.sol\":3004:3010  _roles */\n  dup1\n    /* \"https://github.com/OpenZeppelin/openzeppelin-contracts/blob/v4.8.0/contracts/access/AccessControl.sol\":3004:3016  _roles[role] */\n  0x00\n    /* \"https://github.com/OpenZeppelin/openzeppelin-contracts/blob/v4.8.0/contracts/access/AccessControl.sol\":3011:3015  role */\n  dup5\n    /* \"https://github.com/OpenZeppelin/openzeppelin-contracts/blob/v4.8.0/contracts/access/AccessControl.sol\":3004:3016  _roles[role] */\n  dup2\n  mstore\n  0x20\n  add\n  swap1\n  dup2\n  mstore\n  0x20\n  add\n  0x00\n  keccak256\n    /* \"https://github.com/OpenZeppelin/openzeppelin-contracts/blob/v4.8.0/contracts/access/AccessControl.sol\":3004:3024  _roles[role].members */\n  0x00\n  add\n    /* \"https://github.com/OpenZeppelin/openzeppelin-contracts/blob/v4.8.0/contracts/access/AccessControl.sol\":3004:3033  _roles[role].members[account] */\n  0x00\n    /* \"https://github.com/OpenZeppelin/openzeppelin-contracts/blob/v4.8.0/contracts/access/AccessControl.sol\":3025:3032  account */\n  dup4\n    /* \"https://github.com/OpenZeppelin/openzeppelin-contracts/blob/v4.8.0/contracts/access/AccessControl.sol\":3004:3033  _roles[role].members[account] */\n  0xffffffffffffffffffffffffffffffffffffffff\n  and\n  0xffffffffffffffffffffffffffffffffffffffff\n  and\n  dup2\n  mstore\n  0x20\n  add\n  swap1\n  dup2\n  mstore\n  0x20\n  add\n  0x00\n  keccak256\n  0x00\n  swap1\n  sload\n  swap1\n  0x0100\n  exp\n  swap1\n  div\n  0xff\n  and\n    /* \"https://github.com/OpenZeppelin/openzeppelin-contracts/blob/v4.8.0/contracts/access/AccessControl.sol\":2997:3033  return _roles[role].members[account] */\n  swap1\n  pop\n    /* \"https://github.com/OpenZeppelin/openzeppelin-contracts/blob/v4.8.0/contracts/access/AccessControl.sol\":2895:3040  function hasRole(bytes32 role, address account) public view virtual override returns (bool) {... */\n  swap3\n  swap2\n  pop\n  pop\n  jump\t// out\n    /* \"https://github.com/OpenZeppelin/openzeppelin-contracts/blob/v4.8.0/contracts/utils/Context.sol\":640:736  function _msgSender() internal view virtual returns (address) {... */\ntag_18:\n    /* \"https://github.com/OpenZeppelin/openzeppelin-contracts/blob/v4.8.0/contracts/utils/Context.sol\":693:700  address */\n  0x00\n    /* \"https://github.com/OpenZeppelin/openzeppelin-contracts/blob/v4.8.0/contracts/utils/Context.sol\":719:729  msg.sender */\n  caller\n    /* \"https://github.com/OpenZeppelin/openzeppelin-contracts/blob/v4.8.0/contracts/utils/Context.sol\":712:729  return msg.sender */\n  swap1\n  pop\n    /* \"https://github.com/OpenZeppelin/openzeppelin-contracts/blob/v4.8.0/contracts/utils/Context.sol\":640:736  function _msgSender() internal view virtual returns (address) {... */\n  swap1\n  jump\t// out\n    /* \"#utility.yul\":88:205   */\ntag_22:\n    /* \"#utility.yul\":197:198   */\n  0x00\n    /* \"#utility.yul\":194:195   */\n  dup1\n    /* \"#utility.yul\":187:199   */\n  revert\n    /* \"#utility.yul\":334:460   */\ntag_24:\n    /* \"#utility.yul\":371:378   */\n  0x00\n    /* \"#utility.yul\":411:453   */\n  0xffffffffffffffffffffffffffffffffffffffff\n    /* \"#utility.yul\":404:409   */\n  dup3\n    /* \"#utility.yul\":400:454   */\n  and\n    /* \"#utility.yul\":389:454   */\n  swap1\n  pop\n    /* \"#utility.yul\":334:460   */\n  swap2\n  swap1\n  pop\n  jump\t// out\n    /* \"#utility.yul\":466:562   */\ntag_25:\n    /* \"#utility.yul\":503:510   */\n  0x00\n    /* \"#utility.yul\":532:556   */\n  tag_34\n    /* \"#utility.yul\":550:555   */\n  dup3\n    /* \"#utility.yul\":532:556   */\n  tag_24\n  jump\t// in\ntag_34:\n    /* \"#utility.yul\":521:556   */\n  swap1\n  pop\n    /* \"#utility.yul\":466:562   */\n  swap2\n  swap1\n  pop\n  jump\t// out\n    /* \"#utility.yul\":568:690   */\ntag_26:\n    /* \"#utility.yul\":641:665   */\n  tag_36\n    /* \"#utility.yul\":659:664   */\n  dup2\n    /* \"#utility.yul\":641:665   */\n  tag_25\n  jump\t// in\ntag_36:\n    /* \"#utility.yul\":634:639   */\n  dup2\n    /* \"#utility.yul\":631:666   */\n  eq\n    /* \"#utility.yul\":621:684   */\n  tag_37\n  jumpi\n    /* \"#utility.yul\":680:681   */\n  0x00\n    /* \"#utility.yul\":677:678   */\n  dup1\n    /* \"#utility.yul\":670:682   */\n  revert\n    /* \"#utility.yul\":621:684   */\ntag_37:\n    /* \"#utility.yul\":568:690   */\n  pop\n  jump\t// out\n    /* \"#utility.yul\":696:839   */\ntag_27:\n    /* \"#utility.yul\":753:758   */\n  0x00\n    /* \"#utility.yul\":784:790   */\n  dup2\n    /* \"#utility.yul\":778:791   */\n  mload\n    /* \"#utility.yul\":769:791   */\n  swap1\n  pop\n    /* \"#utility.yul\":800:833   */\n  tag_39\n    /* \"#utility.yul\":827:832   */\n  dup2\n    /* \"#utility.yul\":800:833   */\n  tag_26\n  jump\t// in\ntag_39:\n    /* \"#utility.yul\":696:839   */\n  swap3\n  swap2\n  pop\n  pop\n  jump\t// out\n    /* \"#utility.yul\":845:1352   */\ntag_3:\n    /* \"#utility.yul\":924:930   */\n  0x00\n    /* \"#utility.yul\":932:938   */\n  dup1\n    /* \"#utility.yul\":981:983   */\n  0x40\n    /* \"#utility.yul\":969:978   */\n  dup4\n    /* \"#utility.yul\":960:967   */\n  dup6\n    /* \"#utility.yul\":956:979   */\n  sub\n    /* \"#utility.yul\":952:984   */\n  slt\n    /* \"#utility.yul\":949:1068   */\n  iszero\n  tag_41\n  jumpi\n    /* \"#utility.yul\":987:1066   */\n  tag_42\n  tag_22\n  jump\t// in\ntag_42:\n    /* \"#utility.yul\":949:1068   */\ntag_41:\n    /* \"#utility.yul\":1107:1108   */\n  0x00\n    /* \"#utility.yul\":1132:1196   */\n  tag_43\n    /* \"#utility.yul\":1188:1195   */\n  dup6\n    /* \"#utility.yul\":1179:1185   */\n  dup3\n    /* \"#utility.yul\":1168:1177   */\n  dup7\n    /* \"#utility.yul\":1164:1186   */\n  add\n    /* \"#utility.yul\":1132:1196   */\n  tag_27\n  jump\t// in\ntag_43:\n    /* \"#utility.yul\":1122:1196   */\n  swap3\n  pop\n    /* \"#utility.yul\":1078:1206   */\n  pop\n    /* \"#utility.yul\":1245:1247   */\n  0x20\n    /* \"#utility.yul\":1271:1335   */\n  tag_44\n    /* \"#utility.yul\":1327:1334   */\n  dup6\n    /* \"#utility.yul\":1318:1324   */\n  dup3\n    /* \"#utility.yul\":1307:1316   */\n  dup7\n    /* \"#utility.yul\":1303:1325   */\n  add\n    /* \"#utility.yul\":1271:1335   */\n  tag_27\n  jump\t// in\ntag_44:\n    /* \"#utility.yul\":1261:1335   */\n  swap2\n  pop\n    /* \"#utility.yul\":1216:1345   */\n  pop\n    /* \"#utility.yul\":845:1352   */\n  swap3\n  pop\n  swap3\n  swap1\n  pop\n  jump\t// out\n    /* \"contracts/v2/tTikTrixGameEscrow.sol\":281:7318  contract tTikTrixGameEscrow is AccessControl {... */\ntag_9:\n  dataSize(sub_0)\n  dup1\n  dataOffset(sub_0)\n  0x00\n  codecopy\n  0x00\n  return\nstop\n\nsub_0: assembly {\n        /* \"contracts/v2/tTikTrixGameEscrow.sol\":281:7318  contract tTikTrixGameEscrow is AccessControl {... */\n      mstore(0x40, 0x80)\n      callvalue\n      dup1\n      iszero\n      tag_1\n      jumpi\n      0x00\n      dup1\n      revert\n    tag_1:\n      pop\n      jumpi(tag_2, lt(calldatasize, 0x04))\n      shr(0xe0, calldataload(0x00))\n      dup1\n      0x9a19c7b0\n      gt\n      tag_32\n      jumpi\n      dup1\n      0xc02725f0\n      gt\n      tag_33\n      jumpi\n      dup1\n      0xd547741f\n      gt\n      tag_34\n      jumpi\n      dup1\n      0xd547741f\n      eq\n      tag_28\n      jumpi\n      dup1\n      0xdd0c8082\n      eq\n      tag_29\n      jumpi\n      dup1\n      0xdd7d2b9f\n      eq\n      tag_30\n      jumpi\n      dup1\n      0xf58ee354\n      eq\n      tag_31\n      jumpi\n      jump(tag_2)\n    tag_34:\n      dup1\n      0xc02725f0\n      eq\n      tag_24\n      jumpi\n      dup1\n      0xc634b78e\n      eq\n      tag_25\n      jumpi\n      dup1\n      0xca1c996f\n      eq\n      tag_26\n      jumpi\n      dup1\n      0xcbc7854e\n      eq\n      tag_27\n      jumpi\n      jump(tag_2)\n    tag_33:\n      dup1\n      0xaac2094a\n      gt\n      tag_35\n      jumpi\n      dup1\n      0xaac2094a\n      eq\n      tag_20\n      jumpi\n      dup1\n      0xae99aa3c\n      eq\n      tag_21\n      jumpi\n      dup1\n      0xb3558075\n      eq\n      tag_22\n      jumpi\n      dup1\n      0xbb10ab0f\n      eq\n      tag_23\n      jumpi\n      jump(tag_2)\n    tag_35:\n      dup1\n      0x9a19c7b0\n      eq\n      tag_17\n      jumpi\n      dup1\n      0x9b882bb0\n      eq\n      tag_18\n      jumpi\n      dup1\n      0xa217fddf\n      eq\n      tag_19\n      jumpi\n      jump(tag_2)\n    tag_32:\n      dup1\n      0x47e1d550\n      gt\n      tag_36\n      jumpi\n      dup1\n      0x8164586e\n      gt\n      tag_37\n      jumpi\n      dup1\n      0x8164586e\n      eq\n      tag_13\n      jumpi\n      dup1\n      0x8525ea16\n      eq\n      tag_14\n      jumpi\n      dup1\n      0x89b2c8e7\n      eq\n      tag_15\n      jumpi\n      dup1\n      0x91d14854\n      eq\n      tag_16\n      jumpi\n      jump(tag_2)\n    tag_37:\n      dup1\n      0x47e1d550\n      eq\n      tag_10\n      jumpi\n      dup1\n      0x75b238fc\n      eq\n      tag_11\n      jumpi\n      dup1\n      0x7d1b4687\n      eq\n      tag_12\n      jumpi\n      jump(tag_2)\n    tag_36:\n      dup1\n      0x28b69262\n      gt\n      tag_38\n      jumpi\n      dup1\n      0x28b69262\n      eq\n      tag_6\n      jumpi\n      dup1\n      0x2f2ff15d\n      eq\n      tag_7\n      jumpi\n      dup1\n      0x36568abe\n      eq\n      tag_8\n      jumpi\n      dup1\n      0x406a378a\n      eq\n      tag_9\n      jumpi\n      jump(tag_2)\n    tag_38:\n      dup1\n      0x01ffc9a7\n      eq\n      tag_3\n      jumpi\n      dup1\n      0x1b72fa3a\n      eq\n      tag_4\n      jumpi\n      dup1\n      0x248a9ca3\n      eq\n      tag_5\n      jumpi\n    tag_2:\n      0x00\n      dup1\n      revert\n        /* \"https://github.com/OpenZeppelin/openzeppelin-contracts/blob/v4.8.0/contracts/access/AccessControl.sol\":2606:2808  function supportsInterface(bytes4 interfaceId) public view virtual override returns (bool) {... */\n    tag_3:\n      tag_39\n      0x04\n      dup1\n      calldatasize\n      sub\n      dup2\n      add\n      swap1\n      tag_40\n      swap2\n      swap1\n      tag_41\n      jump\t// in\n    tag_40:\n      tag_42\n      jump\t// in\n    tag_39:\n      mload(0x40)\n      tag_43\n      swap2\n      swap1\n      tag_44\n      jump\t// in\n    tag_43:\n      mload(0x40)\n      dup1\n      swap2\n      sub\n      swap1\n      return\n        /* \"contracts/v2/tTikTrixGameEscrow.sol\":427:449  IERC20 public rptToken */\n    tag_4:\n      tag_45\n      tag_46\n      jump\t// in\n    tag_45:\n      mload(0x40)\n      tag_47\n      swap2\n      swap1\n      tag_48\n      jump\t// in\n    tag_47:\n      mload(0x40)\n      dup1\n      swap2\n      sub\n      swap1\n      return\n        /* \"https://github.com/OpenZeppelin/openzeppelin-contracts/blob/v4.8.0/contracts/access/AccessControl.sol\":4378:4507  function getRoleAdmin(bytes32 role) public view virtual override returns (bytes32) {... */\n    tag_5:\n      tag_49\n      0x04\n      dup1\n      calldatasize\n      sub\n      dup2\n      add\n      swap1\n      tag_50\n      swap2\n      swap1\n      tag_51\n      jump\t// in\n    tag_50:\n      tag_52\n      jump\t// in\n    tag_49:\n      mload(0x40)\n      tag_53\n      swap2\n      swap1\n      tag_54\n      jump\t// in\n    tag_53:\n      mload(0x40)\n      dup1\n      swap2\n      sub\n      swap1\n      return\n        /* \"contracts/v2/tTikTrixGameEscrow.sol\":801:893  mapping(uint256 => mapping(uint256 => mapping(uint256 => ChallengeScore))) public challenges */\n    tag_6:\n      tag_55\n      0x04\n      dup1\n      calldatasize\n      sub\n      dup2\n      add\n      swap1\n      tag_56\n      swap2\n      swap1\n      tag_57\n      jump\t// in\n    tag_56:\n      tag_58\n      jump\t// in\n    tag_55:\n      mload(0x40)\n      tag_59\n      swap6\n      swap5\n      swap4\n      swap3\n      swap2\n      swap1\n      tag_60\n      jump\t// in\n    tag_59:\n      mload(0x40)\n      dup1\n      swap2\n      sub\n      swap1\n      return\n        /* \"https://github.com/OpenZeppelin/openzeppelin-contracts/blob/v4.8.0/contracts/access/AccessControl.sol\":4803:4948  function grantRole(bytes32 role, address account) public virtual override onlyRole(getRoleAdmin(role)) {... */\n    tag_7:\n      tag_61\n      0x04\n      dup1\n      calldatasize\n      sub\n      dup2\n      add\n      swap1\n      tag_62\n      swap2\n      swap1\n      tag_63\n      jump\t// in\n    tag_62:\n      tag_64\n      jump\t// in\n    tag_61:\n      stop\n        /* \"https://github.com/OpenZeppelin/openzeppelin-contracts/blob/v4.8.0/contracts/access/AccessControl.sol\":5912:6126  function renounceRole(bytes32 role, address account) public virtual override {... */\n    tag_8:\n      tag_65\n      0x04\n      dup1\n      calldatasize\n      sub\n      dup2\n      add\n      swap1\n      tag_66\n      swap2\n      swap1\n      tag_63\n      jump\t// in\n    tag_66:\n      tag_67\n      jump\t// in\n    tag_65:\n      stop\n        /* \"contracts/v2/tTikTrixGameEscrow.sol\":5687:6146  function distributePrizes(address[] calldata recipients, uint256[] calldata tokenAmounts) external onlyRole(ADMIN_ROLE) {... */\n    tag_9:\n      tag_68\n      0x04\n      dup1\n      calldatasize\n      sub\n      dup2\n      add\n      swap1\n      tag_69\n      swap2\n      swap1\n      tag_70\n      jump\t// in\n    tag_69:\n      tag_71\n      jump\t// in\n    tag_68:\n      stop\n        /* \"contracts/v2/tTikTrixGameEscrow.sol\":6913:7100  function getGameInfo(uint256 gameSeq) external view returns (GameInfo memory) {... */\n    tag_10:\n      tag_72\n      0x04\n      dup1\n      calldatasize\n      sub\n      dup2\n      add\n      swap1\n      tag_73\n      swap2\n      swap1\n      tag_74\n      jump\t// in\n    tag_73:\n      tag_75\n      jump\t// in\n    tag_72:\n      mload(0x40)\n      tag_76\n      swap2\n      swap1\n      tag_77\n      jump\t// in\n    tag_76:\n      mload(0x40)\n      dup1\n      swap2\n      sub\n      swap1\n      return\n        /* \"contracts/v2/tTikTrixGameEscrow.sol\":332:392  bytes32 public constant ADMIN_ROLE = keccak256(\"ADMIN_ROLE\") */\n    tag_11:\n      tag_78\n      tag_79\n      jump\t// in\n    tag_78:\n      mload(0x40)\n      tag_80\n      swap2\n      swap1\n      tag_54\n      jump\t// in\n    tag_80:\n      mload(0x40)\n      dup1\n      swap2\n      sub\n      swap1\n      return\n        /* \"contracts/v2/tTikTrixGameEscrow.sol\":899:944  mapping(uint256 => GameInfo) public gameInfos */\n    tag_12:\n      tag_81\n      0x04\n      dup1\n      calldatasize\n      sub\n      dup2\n      add\n      swap1\n      tag_82\n      swap2\n      swap1\n      tag_74\n      jump\t// in\n    tag_82:\n      tag_83\n      jump\t// in\n    tag_81:\n      mload(0x40)\n      tag_84\n      swap5\n      swap4\n      swap3\n      swap2\n      swap1\n      tag_85\n      jump\t// in\n    tag_84:\n      mload(0x40)\n      dup1\n      swap2\n      sub\n      swap1\n      return\n        /* \"contracts/v2/tTikTrixGameEscrow.sol\":2486:2838  function gameRegister(uint256 developerSeq, uint256 gameSeq, string memory title) external onlyRole(ADMIN_ROLE) {... */\n    tag_13:\n      tag_86\n      0x04\n      dup1\n      calldatasize\n      sub\n      dup2\n      add\n      swap1\n      tag_87\n      swap2\n      swap1\n      tag_88\n      jump\t// in\n    tag_87:\n      tag_89\n      jump\t// in\n    tag_86:\n      stop\n        /* \"contracts/v2/tTikTrixGameEscrow.sol\":4911:5165  function rankScoreUpdateNormal(... */\n    tag_14:\n      tag_90\n      0x04\n      dup1\n      calldatasize\n      sub\n      dup2\n      add\n      swap1\n      tag_91\n      swap2\n      swap1\n      tag_92\n      jump\t// in\n    tag_91:\n      tag_93\n      jump\t// in\n    tag_90:\n      stop\n        /* \"contracts/v2/tTikTrixGameEscrow.sol\":3262:3473  function gameDelete(uint256 gameSeq) external onlyRole(ADMIN_ROLE) {... */\n    tag_15:\n      tag_94\n      0x04\n      dup1\n      calldatasize\n      sub\n      dup2\n      add\n      swap1\n      tag_95\n      swap2\n      swap1\n      tag_74\n      jump\t// in\n    tag_95:\n      tag_96\n      jump\t// in\n    tag_94:\n      stop\n        /* \"https://github.com/OpenZeppelin/openzeppelin-contracts/blob/v4.8.0/contracts/access/AccessControl.sol\":2895:3040  function hasRole(bytes32 role, address account) public view virtual override returns (bool) {... */\n    tag_16:\n      tag_97\n      0x04\n      dup1\n      calldatasize\n      sub\n      dup2\n      add\n      swap1\n      tag_98\n      swap2\n      swap1\n      tag_63\n      jump\t// in\n    tag_98:\n      tag_99\n      jump\t// in\n    tag_97:\n      mload(0x40)\n      tag_100\n      swap2\n      swap1\n      tag_44\n      jump\t// in\n    tag_100:\n      mload(0x40)\n      dup1\n      swap2\n      sub\n      swap1\n      return\n        /* \"contracts/v2/tTikTrixGameEscrow.sol\":2354:2480  function revokeAdminRole(address account) public onlyRole(DEFAULT_ADMIN_ROLE) {... */\n    tag_17:\n      tag_101\n      0x04\n      dup1\n      calldatasize\n      sub\n      dup2\n      add\n      swap1\n      tag_102\n      swap2\n      swap1\n      tag_103\n      jump\t// in\n    tag_102:\n      tag_104\n      jump\t// in\n    tag_101:\n      stop\n        /* \"contracts/v2/tTikTrixGameEscrow.sol\":3479:3922  function registerMember(uint256 memberSeq, address mintAddress, uint256 tokenAmount) external onlyRole(ADMIN_ROLE) {... */\n    tag_18:\n      tag_105\n      0x04\n      dup1\n      calldatasize\n      sub\n      dup2\n      add\n      swap1\n      tag_106\n      swap2\n      swap1\n      tag_107\n      jump\t// in\n    tag_106:\n      tag_108\n      jump\t// in\n    tag_105:\n      stop\n        /* \"https://github.com/OpenZeppelin/openzeppelin-contracts/blob/v4.8.0/contracts/access/AccessControl.sol\":2027:2076  bytes32 public constant DEFAULT_ADMIN_ROLE = 0x00 */\n    tag_19:\n      tag_109\n      tag_110\n      jump\t// in\n    tag_109:\n      mload(0x40)\n      tag_111\n      swap2\n      swap1\n      tag_54\n      jump\t// in\n    tag_111:\n      mload(0x40)\n      dup1\n      swap2\n      sub\n      swap1\n      return\n        /* \"contracts/v2/tTikTrixGameEscrow.sol\":6540:6720  function gameEnd(uint256 gameSeq, uint256 memberSeq) external {... */\n    tag_20:\n      tag_112\n      0x04\n      dup1\n      calldatasize\n      sub\n      dup2\n      add\n      swap1\n      tag_113\n      swap2\n      swap1\n      tag_114\n      jump\t// in\n    tag_113:\n      tag_115\n      jump\t// in\n    tag_112:\n      stop\n        /* \"contracts/v2/tTikTrixGameEscrow.sol\":7106:7316  function getMemberInfo(uint256 memberSeq) external view returns (MemberInfo memory) {... */\n    tag_21:\n      tag_116\n      0x04\n      dup1\n      calldatasize\n      sub\n      dup2\n      add\n      swap1\n      tag_117\n      swap2\n      swap1\n      tag_74\n      jump\t// in\n    tag_117:\n      tag_118\n      jump\t// in\n    tag_116:\n      mload(0x40)\n      tag_119\n      swap2\n      swap1\n      tag_120\n      jump\t// in\n    tag_119:\n      mload(0x40)\n      dup1\n      swap2\n      sub\n      swap1\n      return\n        /* \"contracts/v2/tTikTrixGameEscrow.sol\":2844:3256  function gameUpdate(uint256 developerSeq, uint256 gameSeq, string memory title) external onlyRole(ADMIN_ROLE) {... */\n    tag_22:\n      tag_121\n      0x04\n      dup1\n      calldatasize\n      sub\n      dup2\n      add\n      swap1\n      tag_122\n      swap2\n      swap1\n      tag_88\n      jump\t// in\n    tag_122:\n      tag_123\n      jump\t// in\n    tag_121:\n      stop\n        /* \"contracts/v2/tTikTrixGameEscrow.sol\":950:999  mapping(uint256 => MemberInfo) public memberInfos */\n    tag_23:\n      tag_124\n      0x04\n      dup1\n      calldatasize\n      sub\n      dup2\n      add\n      swap1\n      tag_125\n      swap2\n      swap1\n      tag_74\n      jump\t// in\n    tag_125:\n      tag_126\n      jump\t// in\n    tag_124:\n      mload(0x40)\n      tag_127\n      swap2\n      swap1\n      tag_128\n      jump\t// in\n    tag_127:\n      mload(0x40)\n      dup1\n      swap2\n      sub\n      swap1\n      return\n        /* \"contracts/v2/tTikTrixGameEscrow.sol\":6352:6534  function gamePlay(uint256 gameSeq, uint256 memberSeq) external {... */\n    tag_24:\n      tag_129\n      0x04\n      dup1\n      calldatasize\n      sub\n      dup2\n      add\n      swap1\n      tag_130\n      swap2\n      swap1\n      tag_114\n      jump\t// in\n    tag_130:\n      tag_131\n      jump\t// in\n    tag_129:\n      stop\n        /* \"contracts/v2/tTikTrixGameEscrow.sol\":2224:2348  function grantAdminRole(address account) public onlyRole(DEFAULT_ADMIN_ROLE) {... */\n    tag_25:\n      tag_132\n      0x04\n      dup1\n      calldatasize\n      sub\n      dup2\n      add\n      swap1\n      tag_133\n      swap2\n      swap1\n      tag_103\n      jump\t// in\n    tag_133:\n      tag_134\n      jump\t// in\n    tag_132:\n      stop\n        /* \"contracts/v2/tTikTrixGameEscrow.sol\":3928:4905  function challengeRegister(... */\n    tag_26:\n      tag_135\n      0x04\n      dup1\n      calldatasize\n      sub\n      dup2\n      add\n      swap1\n      tag_136\n      swap2\n      swap1\n      tag_92\n      jump\t// in\n    tag_136:\n      tag_137\n      jump\t// in\n    tag_135:\n      stop\n        /* \"contracts/v2/tTikTrixGameEscrow.sol\":6152:6346  function setTokens(address entTokenAddress, address rptTokenAddress) external onlyRole(ADMIN_ROLE) {... */\n    tag_27:\n      tag_138\n      0x04\n      dup1\n      calldatasize\n      sub\n      dup2\n      add\n      swap1\n      tag_139\n      swap2\n      swap1\n      tag_140\n      jump\t// in\n    tag_139:\n      tag_141\n      jump\t// in\n    tag_138:\n      stop\n        /* \"https://github.com/OpenZeppelin/openzeppelin-contracts/blob/v4.8.0/contracts/access/AccessControl.sol\":5228:5375  function revokeRole(bytes32 role, address account) public virtual override onlyRole(getRoleAdmin(role)) {... */\n    tag_28:\n      tag_142\n      0x04\n      dup1\n      calldatasize\n      sub\n      dup2\n      add\n      swap1\n      tag_143\n      swap2\n      swap1\n      tag_63\n      jump\t// in\n    tag_143:\n      tag_144\n      jump\t// in\n    tag_142:\n      stop\n        /* \"contracts/v2/tTikTrixGameEscrow.sol\":399:421  IERC20 public entToken */\n    tag_29:\n      tag_145\n      tag_146\n      jump\t// in\n    tag_145:\n      mload(0x40)\n      tag_147\n      swap2\n      swap1\n      tag_48\n      jump\t// in\n    tag_147:\n      mload(0x40)\n      dup1\n      swap2\n      sub\n      swap1\n      return\n        /* \"contracts/v2/tTikTrixGameEscrow.sol\":5171:5681  function rankScoreUpdateChallenge(... */\n    tag_30:\n      tag_148\n      0x04\n      dup1\n      calldatasize\n      sub\n      dup2\n      add\n      swap1\n      tag_149\n      swap2\n      swap1\n      tag_92\n      jump\t// in\n    tag_149:\n      tag_150\n      jump\t// in\n    tag_148:\n      stop\n        /* \"contracts/v2/tTikTrixGameEscrow.sol\":6726:6907  function gameLike(uint256 gameSeq, uint256 memberSeq) external {... */\n    tag_31:\n      tag_151\n      0x04\n      dup1\n      calldatasize\n      sub\n      dup2\n      add\n      swap1\n      tag_152\n      swap2\n      swap1\n      tag_114\n      jump\t// in\n    tag_152:\n      tag_153\n      jump\t// in\n    tag_151:\n      stop\n        /* \"https://github.com/OpenZeppelin/openzeppelin-contracts/blob/v4.8.0/contracts/access/AccessControl.sol\":2606:2808  function supportsInterface(bytes4 interfaceId) public view virtual override returns (bool) {... */\n    tag_42:\n        /* \"https://github.com/OpenZeppelin/openzeppelin-contracts/blob/v4.8.0/contracts/access/AccessControl.sol\":2691:2695  bool */\n      0x00\n        /* \"https://github.com/OpenZeppelin/openzeppelin-contracts/blob/v4.8.0/contracts/access/AccessControl.sol\":2729:2761  type(IAccessControl).interfaceId */\n      0x7965db0b00000000000000000000000000000000000000000000000000000000\n        /* \"https://github.com/OpenZeppelin/openzeppelin-contracts/blob/v4.8.0/contracts/access/AccessControl.sol\":2714:2761  interfaceId == type(IAccessControl).interfaceId */\n      not(0xffffffffffffffffffffffffffffffffffffffffffffffffffffffff)\n      and\n        /* \"https://github.com/OpenZeppelin/openzeppelin-contracts/blob/v4.8.0/contracts/access/AccessControl.sol\":2714:2725  interfaceId */\n      dup3\n        /* \"https://github.com/OpenZeppelin/openzeppelin-contracts/blob/v4.8.0/contracts/access/AccessControl.sol\":2714:2761  interfaceId == type(IAccessControl).interfaceId */\n      not(0xffffffffffffffffffffffffffffffffffffffffffffffffffffffff)\n      and\n      eq\n        /* \"https://github.com/OpenZeppelin/openzeppelin-contracts/blob/v4.8.0/contracts/access/AccessControl.sol\":2714:2801  interfaceId == type(IAccessControl).interfaceId || super.supportsInterface(interfaceId) */\n      dup1\n      tag_155\n      jumpi\n      pop\n        /* \"https://github.com/OpenZeppelin/openzeppelin-contracts/blob/v4.8.0/contracts/access/AccessControl.sol\":2765:2801  super.supportsInterface(interfaceId) */\n      tag_156\n        /* \"https://github.com/OpenZeppelin/openzeppelin-contracts/blob/v4.8.0/contracts/access/AccessControl.sol\":2789:2800  interfaceId */\n      dup3\n        /* \"https://github.com/OpenZeppelin/openzeppelin-contracts/blob/v4.8.0/contracts/access/AccessControl.sol\":2765:2788  super.supportsInterface */\n      tag_157\n        /* \"https://github.com/OpenZeppelin/openzeppelin-contracts/blob/v4.8.0/contracts/access/AccessControl.sol\":2765:2801  super.supportsInterface(interfaceId) */\n      jump\t// in\n    tag_156:\n        /* \"https://github.com/OpenZeppelin/openzeppelin-contracts/blob/v4.8.0/contracts/access/AccessControl.sol\":2714:2801  interfaceId == type(IAccessControl).interfaceId || super.supportsInterface(interfaceId) */\n    tag_155:\n        /* \"https://github.com/OpenZeppelin/openzeppelin-contracts/blob/v4.8.0/contracts/access/AccessControl.sol\":2707:2801  return interfaceId == type(IAccessControl).interfaceId || super.supportsInterface(interfaceId) */\n      swap1\n      pop\n        /* \"https://github.com/OpenZeppelin/openzeppelin-contracts/blob/v4.8.0/contracts/access/AccessControl.sol\":2606:2808  function supportsInterface(bytes4 interfaceId) public view virtual override returns (bool) {... */\n      swap2\n      swap1\n      pop\n      jump\t// out\n        /* \"contracts/v2/tTikTrixGameEscrow.sol\":427:449  IERC20 public rptToken */\n    tag_46:\n      0x02\n      0x00\n      swap1\n      sload\n      swap1\n      0x0100\n      exp\n      swap1\n      div\n      0xffffffffffffffffffffffffffffffffffffffff\n      and\n      dup2\n      jump\t// out\n        /* \"https://github.com/OpenZeppelin/openzeppelin-contracts/blob/v4.8.0/contracts/access/AccessControl.sol\":4378:4507  function getRoleAdmin(bytes32 role) public view virtual override returns (bytes32) {... */\n    tag_52:\n        /* \"https://github.com/OpenZeppelin/openzeppelin-contracts/blob/v4.8.0/contracts/access/AccessControl.sol\":4452:4459  bytes32 */\n      0x00\n        /* \"https://github.com/OpenZeppelin/openzeppelin-contracts/blob/v4.8.0/contracts/access/AccessControl.sol\":4478:4484  _roles */\n      dup1\n        /* \"https://github.com/OpenZeppelin/openzeppelin-contracts/blob/v4.8.0/contracts/access/AccessControl.sol\":4478:4490  _roles[role] */\n      0x00\n        /* \"https://github.com/OpenZeppelin/openzeppelin-contracts/blob/v4.8.0/contracts/access/AccessControl.sol\":4485:4489  role */\n      dup4\n        /* \"https://github.com/OpenZeppelin/openzeppelin-contracts/blob/v4.8.0/contracts/access/AccessControl.sol\":4478:4490  _roles[role] */\n      dup2\n      mstore\n      0x20\n      add\n      swap1\n      dup2\n      mstore\n      0x20\n      add\n      0x00\n      keccak256\n        /* \"https://github.com/OpenZeppelin/openzeppelin-contracts/blob/v4.8.0/contracts/access/AccessControl.sol\":4478:4500  _roles[role].adminRole */\n      0x01\n      add\n      sload\n        /* \"https://github.com/OpenZeppelin/openzeppelin-contracts/blob/v4.8.0/contracts/access/AccessControl.sol\":4471:4500  return _roles[role].adminRole */\n      swap1\n      pop\n        /* \"https://github.com/OpenZeppelin/openzeppelin-contracts/blob/v4.8.0/contracts/access/AccessControl.sol\":4378:4507  function getRoleAdmin(bytes32 role) public view virtual override returns (bytes32) {... */\n      swap2\n      swap1\n      pop\n      jump\t// out\n        /* \"contracts/v2/tTikTrixGameEscrow.sol\":801:893  mapping(uint256 => mapping(uint256 => mapping(uint256 => ChallengeScore))) public challenges */\n    tag_58:\n      mstore(0x20, 0x03)\n      dup3\n      0x00\n      mstore\n      mstore(0x20, keccak256(0x00, 0x40))\n      dup2\n      0x00\n      mstore\n      mstore(0x20, keccak256(0x00, 0x40))\n      dup1\n      0x00\n      mstore\n      keccak256(0x00, 0x40)\n      0x00\n      swap3\n      pop\n      swap3\n      pop\n      pop\n      pop\n      dup1\n      0x00\n      add\n      sload\n      swap1\n      dup1\n      0x01\n      add\n      sload\n      swap1\n      dup1\n      0x02\n      add\n      sload\n      swap1\n      dup1\n      0x03\n      add\n      sload\n      swap1\n      dup1\n      0x04\n      add\n      0x00\n      swap1\n      sload\n      swap1\n      0x0100\n      exp\n      swap1\n      div\n      0xff\n      and\n      swap1\n      pop\n      dup6\n      jump\t// out\n        /* \"https://github.com/OpenZeppelin/openzeppelin-contracts/blob/v4.8.0/contracts/access/AccessControl.sol\":4803:4948  function grantRole(bytes32 role, address account) public virtual override onlyRole(getRoleAdmin(role)) {... */\n    tag_64:\n        /* \"https://github.com/OpenZeppelin/openzeppelin-contracts/blob/v4.8.0/contracts/access/AccessControl.sol\":4886:4904  getRoleAdmin(role) */\n      tag_159\n        /* \"https://github.com/OpenZeppelin/openzeppelin-contracts/blob/v4.8.0/contracts/access/AccessControl.sol\":4899:4903  role */\n      dup3\n        /* \"https://github.com/OpenZeppelin/openzeppelin-contracts/blob/v4.8.0/contracts/access/AccessControl.sol\":4886:4898  getRoleAdmin */\n      tag_52\n        /* \"https://github.com/OpenZeppelin/openzeppelin-contracts/blob/v4.8.0/contracts/access/AccessControl.sol\":4886:4904  getRoleAdmin(role) */\n      jump\t// in\n    tag_159:\n        /* \"https://github.com/OpenZeppelin/openzeppelin-contracts/blob/v4.8.0/contracts/access/AccessControl.sol\":2505:2521  _checkRole(role) */\n      tag_161\n        /* \"https://github.com/OpenZeppelin/openzeppelin-contracts/blob/v4.8.0/contracts/access/AccessControl.sol\":2516:2520  role */\n      dup2\n        /* \"https://github.com/OpenZeppelin/openzeppelin-contracts/blob/v4.8.0/contracts/access/AccessControl.sol\":2505:2515  _checkRole */\n      tag_162\n        /* \"https://github.com/OpenZeppelin/openzeppelin-contracts/blob/v4.8.0/contracts/access/AccessControl.sol\":2505:2521  _checkRole(role) */\n      jump\t// in\n    tag_161:\n        /* \"https://github.com/OpenZeppelin/openzeppelin-contracts/blob/v4.8.0/contracts/access/AccessControl.sol\":4916:4941  _grantRole(role, account) */\n      tag_164\n        /* \"https://github.com/OpenZeppelin/openzeppelin-contracts/blob/v4.8.0/contracts/access/AccessControl.sol\":4927:4931  role */\n      dup4\n        /* \"https://github.com/OpenZeppelin/openzeppelin-contracts/blob/v4.8.0/contracts/access/AccessControl.sol\":4933:4940  account */\n      dup4\n        /* \"https://github.com/OpenZeppelin/openzeppelin-contracts/blob/v4.8.0/contracts/access/AccessControl.sol\":4916:4926  _grantRole */\n      tag_165\n        /* \"https://github.com/OpenZeppelin/openzeppelin-contracts/blob/v4.8.0/contracts/access/AccessControl.sol\":4916:4941  _grantRole(role, account) */\n      jump\t// in\n    tag_164:\n        /* \"https://github.com/OpenZeppelin/openzeppelin-contracts/blob/v4.8.0/contracts/access/AccessControl.sol\":4803:4948  function grantRole(bytes32 role, address account) public virtual override onlyRole(getRoleAdmin(role)) {... */\n      pop\n      pop\n      pop\n      jump\t// out\n        /* \"https://github.com/OpenZeppelin/openzeppelin-contracts/blob/v4.8.0/contracts/access/AccessControl.sol\":5912:6126  function renounceRole(bytes32 role, address account) public virtual override {... */\n    tag_67:\n        /* \"https://github.com/OpenZeppelin/openzeppelin-contracts/blob/v4.8.0/contracts/access/AccessControl.sol\":6018:6030  _msgSender() */\n      tag_167\n        /* \"https://github.com/OpenZeppelin/openzeppelin-contracts/blob/v4.8.0/contracts/access/AccessControl.sol\":6018:6028  _msgSender */\n      tag_168\n        /* \"https://github.com/OpenZeppelin/openzeppelin-contracts/blob/v4.8.0/contracts/access/AccessControl.sol\":6018:6030  _msgSender() */\n      jump\t// in\n    tag_167:\n        /* \"https://github.com/OpenZeppelin/openzeppelin-contracts/blob/v4.8.0/contracts/access/AccessControl.sol\":6007:6030  account == _msgSender() */\n      0xffffffffffffffffffffffffffffffffffffffff\n      and\n        /* \"https://github.com/OpenZeppelin/openzeppelin-contracts/blob/v4.8.0/contracts/access/AccessControl.sol\":6007:6014  account */\n      dup2\n        /* \"https://github.com/OpenZeppelin/openzeppelin-contracts/blob/v4.8.0/contracts/access/AccessControl.sol\":6007:6030  account == _msgSender() */\n      0xffffffffffffffffffffffffffffffffffffffff\n      and\n      eq\n        /* \"https://github.com/OpenZeppelin/openzeppelin-contracts/blob/v4.8.0/contracts/access/AccessControl.sol\":5999:6082  require(account == _msgSender(), \"AccessControl: can only renounce roles for self\") */\n      tag_169\n      jumpi\n      mload(0x40)\n      0x08c379a000000000000000000000000000000000000000000000000000000000\n      dup2\n      mstore\n      0x04\n      add\n      tag_170\n      swap1\n      tag_171\n      jump\t// in\n    tag_170:\n      mload(0x40)\n      dup1\n      swap2\n      sub\n      swap1\n      revert\n    tag_169:\n        /* \"https://github.com/OpenZeppelin/openzeppelin-contracts/blob/v4.8.0/contracts/access/AccessControl.sol\":6093:6119  _revokeRole(role, account) */\n      tag_172\n        /* \"https://github.com/OpenZeppelin/openzeppelin-contracts/blob/v4.8.0/contracts/access/AccessControl.sol\":6105:6109  role */\n      dup3\n        /* \"https://github.com/OpenZeppelin/openzeppelin-contracts/blob/v4.8.0/contracts/access/AccessControl.sol\":6111:6118  account */\n      dup3\n        /* \"https://github.com/OpenZeppelin/openzeppelin-contracts/blob/v4.8.0/contracts/access/AccessControl.sol\":6093:6104  _revokeRole */\n      tag_173\n        /* \"https://github.com/OpenZeppelin/openzeppelin-contracts/blob/v4.8.0/contracts/access/AccessControl.sol\":6093:6119  _revokeRole(role, account) */\n      jump\t// in\n    tag_172:\n        /* \"https://github.com/OpenZeppelin/openzeppelin-contracts/blob/v4.8.0/contracts/access/AccessControl.sol\":5912:6126  function renounceRole(bytes32 role, address account) public virtual override {... */\n      pop\n      pop\n      jump\t// out\n        /* \"contracts/v2/tTikTrixGameEscrow.sol\":5687:6146  function distributePrizes(address[] calldata recipients, uint256[] calldata tokenAmounts) external onlyRole(ADMIN_ROLE) {... */\n    tag_71:\n        /* \"contracts/v2/tTikTrixGameEscrow.sol\":369:392  keccak256(\"ADMIN_ROLE\") */\n      0xa49807205ce4d355092ef5a8a18f56e8913cf4a201fbe287825b095693c21775\n        /* \"https://github.com/OpenZeppelin/openzeppelin-contracts/blob/v4.8.0/contracts/access/AccessControl.sol\":2505:2521  _checkRole(role) */\n      tag_175\n        /* \"https://github.com/OpenZeppelin/openzeppelin-contracts/blob/v4.8.0/contracts/access/AccessControl.sol\":2516:2520  role */\n      dup2\n        /* \"https://github.com/OpenZeppelin/openzeppelin-contracts/blob/v4.8.0/contracts/access/AccessControl.sol\":2505:2515  _checkRole */\n      tag_162\n        /* \"https://github.com/OpenZeppelin/openzeppelin-contracts/blob/v4.8.0/contracts/access/AccessControl.sol\":2505:2521  _checkRole(role) */\n      jump\t// in\n    tag_175:\n        /* \"contracts/v2/tTikTrixGameEscrow.sol\":5846:5858  tokenAmounts */\n      dup3\n      dup3\n        /* \"contracts/v2/tTikTrixGameEscrow.sol\":5846:5865  tokenAmounts.length */\n      swap1\n      pop\n        /* \"contracts/v2/tTikTrixGameEscrow.sol\":5825:5835  recipients */\n      dup6\n      dup6\n        /* \"contracts/v2/tTikTrixGameEscrow.sol\":5825:5842  recipients.length */\n      swap1\n      pop\n        /* \"contracts/v2/tTikTrixGameEscrow.sol\":5825:5865  recipients.length == tokenAmounts.length */\n      eq\n        /* \"contracts/v2/tTikTrixGameEscrow.sol\":5817:5914  require(recipients.length == tokenAmounts.length, \"Recipients and token amounts length mismatch\") */\n      tag_177\n      jumpi\n      mload(0x40)\n      0x08c379a000000000000000000000000000000000000000000000000000000000\n      dup2\n      mstore\n      0x04\n      add\n      tag_178\n      swap1\n      tag_179\n      jump\t// in\n    tag_178:\n      mload(0x40)\n      dup1\n      swap2\n      sub\n      swap1\n      revert\n    tag_177:\n        /* \"contracts/v2/tTikTrixGameEscrow.sol\":5930:5939  uint256 i */\n      0x00\n        /* \"contracts/v2/tTikTrixGameEscrow.sol\":5925:6081  for (uint256 i = 0; i < recipients.length; i++) {... */\n    tag_180:\n        /* \"contracts/v2/tTikTrixGameEscrow.sol\":5949:5959  recipients */\n      dup6\n      dup6\n        /* \"contracts/v2/tTikTrixGameEscrow.sol\":5949:5966  recipients.length */\n      swap1\n      pop\n        /* \"contracts/v2/tTikTrixGameEscrow.sol\":5945:5946  i */\n      dup2\n        /* \"contracts/v2/tTikTrixGameEscrow.sol\":5945:5966  i < recipients.length */\n      lt\n        /* \"contracts/v2/tTikTrixGameEscrow.sol\":5925:6081  for (uint256 i = 0; i < recipients.length; i++) {... */\n      iszero\n      tag_181\n      jumpi\n        /* \"contracts/v2/tTikTrixGameEscrow.sol\":5995:6003  rptToken */\n      0x02\n      0x00\n      swap1\n      sload\n      swap1\n      0x0100\n      exp\n      swap1\n      div\n      0xffffffffffffffffffffffffffffffffffffffff\n      and\n        /* \"contracts/v2/tTikTrixGameEscrow.sol\":5995:6012  rptToken.transfer */\n      0xffffffffffffffffffffffffffffffffffffffff\n      and\n      0xa9059cbb\n        /* \"contracts/v2/tTikTrixGameEscrow.sol\":6013:6023  recipients */\n      dup8\n      dup8\n        /* \"contracts/v2/tTikTrixGameEscrow.sol\":6024:6025  i */\n      dup5\n        /* \"contracts/v2/tTikTrixGameEscrow.sol\":6013:6026  recipients[i] */\n      dup2\n      dup2\n      lt\n      tag_183\n      jumpi\n      tag_184\n      tag_185\n      jump\t// in\n    tag_184:\n    tag_183:\n      swap1\n      pop\n      0x20\n      mul\n      add\n      0x20\n      dup2\n      add\n      swap1\n      tag_186\n      swap2\n      swap1\n      tag_103\n      jump\t// in\n    tag_186:\n        /* \"contracts/v2/tTikTrixGameEscrow.sol\":6028:6040  tokenAmounts */\n      dup7\n      dup7\n        /* \"contracts/v2/tTikTrixGameEscrow.sol\":6041:6042  i */\n      dup6\n        /* \"contracts/v2/tTikTrixGameEscrow.sol\":6028:6043  tokenAmounts[i] */\n      dup2\n      dup2\n      lt\n      tag_187\n      jumpi\n      tag_188\n      tag_185\n      jump\t// in\n    tag_188:\n    tag_187:\n      swap1\n      pop\n      0x20\n      mul\n      add\n      calldataload\n        /* \"contracts/v2/tTikTrixGameEscrow.sol\":5995:6044  rptToken.transfer(recipients[i], tokenAmounts[i]) */\n      mload(0x40)\n      dup4\n      0xffffffff\n      and\n      0xe0\n      shl\n      dup2\n      mstore\n      0x04\n      add\n      tag_189\n      swap3\n      swap2\n      swap1\n      tag_190\n      jump\t// in\n    tag_189:\n      0x20\n      mload(0x40)\n      dup1\n      dup4\n      sub\n      dup2\n      0x00\n      dup8\n      gas\n      call\n      iszero\n      dup1\n      iszero\n      tag_192\n      jumpi\n      returndatasize\n      0x00\n      dup1\n      returndatacopy\n      revert(0x00, returndatasize)\n    tag_192:\n      pop\n      pop\n      pop\n      pop\n      mload(0x40)\n      returndatasize\n      not(0x1f)\n      0x1f\n      dup3\n      add\n      and\n      dup3\n      add\n      dup1\n      0x40\n      mstore\n      pop\n      dup2\n      add\n      swap1\n      tag_193\n      swap2\n      swap1\n      tag_194\n      jump\t// in\n    tag_193:\n        /* \"contracts/v2/tTikTrixGameEscrow.sol\":5987:6070  require(rptToken.transfer(recipients[i], tokenAmounts[i]), \"Token transfer failed\") */\n      tag_195\n      jumpi\n      mload(0x40)\n      0x08c379a000000000000000000000000000000000000000000000000000000000\n      dup2\n      mstore\n      0x04\n      add\n      tag_196\n      swap1\n      tag_197\n      jump\t// in\n    tag_196:\n      mload(0x40)\n      dup1\n      swap2\n      sub\n      swap1\n      revert\n    tag_195:\n        /* \"contracts/v2/tTikTrixGameEscrow.sol\":5968:5971  i++ */\n      dup1\n      dup1\n      0x01\n      add\n      swap2\n      pop\n      pop\n        /* \"contracts/v2/tTikTrixGameEscrow.sol\":5925:6081  for (uint256 i = 0; i < recipients.length; i++) {... */\n      jump(tag_180)\n    tag_181:\n      pop\n        /* \"contracts/v2/tTikTrixGameEscrow.sol\":6096:6139  PrizesDistributed(recipients, tokenAmounts) */\n      0xfa3b7284ecb3a03e8f238b69b61f5645294c15019ea509bd4aaee604d60fdc34\n        /* \"contracts/v2/tTikTrixGameEscrow.sol\":6114:6124  recipients */\n      dup6\n      dup6\n        /* \"contracts/v2/tTikTrixGameEscrow.sol\":6126:6138  tokenAmounts */\n      dup6\n      dup6\n        /* \"contracts/v2/tTikTrixGameEscrow.sol\":6096:6139  PrizesDistributed(recipients, tokenAmounts) */\n      mload(0x40)\n      tag_198\n      swap5\n      swap4\n      swap3\n      swap2\n      swap1\n      tag_199\n      jump\t// in\n    tag_198:\n      mload(0x40)\n      dup1\n      swap2\n      sub\n      swap1\n      log1\n        /* \"contracts/v2/tTikTrixGameEscrow.sol\":5687:6146  function distributePrizes(address[] calldata recipients, uint256[] calldata tokenAmounts) external onlyRole(ADMIN_ROLE) {... */\n      pop\n      pop\n      pop\n      pop\n      pop\n      jump\t// out\n        /* \"contracts/v2/tTikTrixGameEscrow.sol\":6913:7100  function getGameInfo(uint256 gameSeq) external view returns (GameInfo memory) {... */\n    tag_75:\n        /* \"contracts/v2/tTikTrixGameEscrow.sol\":6974:6989  GameInfo memory */\n      tag_200\n      tag_201\n      jump\t// in\n    tag_200:\n        /* \"contracts/v2/tTikTrixGameEscrow.sol\":7009:7018  gameInfos */\n      0x04\n        /* \"contracts/v2/tTikTrixGameEscrow.sol\":7009:7027  gameInfos[gameSeq] */\n      0x00\n        /* \"contracts/v2/tTikTrixGameEscrow.sol\":7019:7026  gameSeq */\n      dup4\n        /* \"contracts/v2/tTikTrixGameEscrow.sol\":7009:7027  gameInfos[gameSeq] */\n      dup2\n      mstore\n      0x20\n      add\n      swap1\n      dup2\n      mstore\n      0x20\n      add\n      0x00\n      keccak256\n        /* \"contracts/v2/tTikTrixGameEscrow.sol\":7009:7034  gameInfos[gameSeq].exists */\n      0x03\n      add\n      0x00\n      swap1\n      sload\n      swap1\n      0x0100\n      exp\n      swap1\n      div\n      0xff\n      and\n        /* \"contracts/v2/tTikTrixGameEscrow.sol\":7001:7058  require(gameInfos[gameSeq].exists, \"Game does not exist\") */\n      tag_203\n      jumpi\n      mload(0x40)\n      0x08c379a000000000000000000000000000000000000000000000000000000000\n      dup2\n      mstore\n      0x04\n      add\n      tag_204\n      swap1\n      tag_205\n      jump\t// in\n    tag_204:\n      mload(0x40)\n      dup1\n      swap2\n      sub\n      swap1\n      revert\n    tag_203:\n        /* \"contracts/v2/tTikTrixGameEscrow.sol\":7075:7084  gameInfos */\n      0x04\n        /* \"contracts/v2/tTikTrixGameEscrow.sol\":7075:7093  gameInfos[gameSeq] */\n      0x00\n        /* \"contracts/v2/tTikTrixGameEscrow.sol\":7085:7092  gameSeq */\n      dup4\n        /* \"contracts/v2/tTikTrixGameEscrow.sol\":7075:7093  gameInfos[gameSeq] */\n      dup2\n      mstore\n      0x20\n      add\n      swap1\n      dup2\n      mstore\n      0x20\n      add\n      0x00\n      keccak256\n        /* \"contracts/v2/tTikTrixGameEscrow.sol\":7068:7093  return gameInfos[gameSeq] */\n      mload(0x40)\n      dup1\n      0x80\n      add\n      0x40\n      mstore\n      swap1\n      dup2\n      0x00\n      dup3\n      add\n      sload\n      dup2\n      mstore\n      0x20\n      add\n      0x01\n      dup3\n      add\n      sload\n      dup2\n      mstore\n      0x20\n      add\n      0x02\n      dup3\n      add\n      dup1\n      sload\n      tag_206\n      swap1\n      tag_207\n      jump\t// in\n    tag_206:\n      dup1\n      0x1f\n      add\n      0x20\n      dup1\n      swap2\n      div\n      mul\n      0x20\n      add\n      mload(0x40)\n      swap1\n      dup2\n      add\n      0x40\n      mstore\n      dup1\n      swap3\n      swap2\n      swap1\n      dup2\n      dup2\n      mstore\n      0x20\n      add\n      dup3\n      dup1\n      sload\n      tag_208\n      swap1\n      tag_207\n      jump\t// in\n    tag_208:\n      dup1\n      iszero\n      tag_209\n      jumpi\n      dup1\n      0x1f\n      lt\n      tag_210\n      jumpi\n      0x0100\n      dup1\n      dup4\n      sload\n      div\n      mul\n      dup4\n      mstore\n      swap2\n      0x20\n      add\n      swap2\n      jump(tag_209)\n    tag_210:\n      dup3\n      add\n      swap2\n      swap1\n      0x00\n      mstore\n      keccak256(0x00, 0x20)\n      swap1\n    tag_211:\n      dup2\n      sload\n      dup2\n      mstore\n      swap1\n      0x01\n      add\n      swap1\n      0x20\n      add\n      dup1\n      dup4\n      gt\n      tag_211\n      jumpi\n      dup3\n      swap1\n      sub\n      0x1f\n      and\n      dup3\n      add\n      swap2\n    tag_209:\n      pop\n      pop\n      pop\n      pop\n      pop\n      dup2\n      mstore\n      0x20\n      add\n      0x03\n      dup3\n      add\n      0x00\n      swap1\n      sload\n      swap1\n      0x0100\n      exp\n      swap1\n      div\n      0xff\n      and\n      iszero\n      iszero\n      iszero\n      iszero\n      dup2\n      mstore\n      pop\n      pop\n      swap1\n      pop\n        /* \"contracts/v2/tTikTrixGameEscrow.sol\":6913:7100  function getGameInfo(uint256 gameSeq) external view returns (GameInfo memory) {... */\n      swap2\n      swap1\n      pop\n      jump\t// out\n        /* \"contracts/v2/tTikTrixGameEscrow.sol\":332:392  bytes32 public constant ADMIN_ROLE = keccak256(\"ADMIN_ROLE\") */\n    tag_79:\n        /* \"contracts/v2/tTikTrixGameEscrow.sol\":369:392  keccak256(\"ADMIN_ROLE\") */\n      0xa49807205ce4d355092ef5a8a18f56e8913cf4a201fbe287825b095693c21775\n        /* \"contracts/v2/tTikTrixGameEscrow.sol\":332:392  bytes32 public constant ADMIN_ROLE = keccak256(\"ADMIN_ROLE\") */\n      dup2\n      jump\t// out\n        /* \"contracts/v2/tTikTrixGameEscrow.sol\":899:944  mapping(uint256 => GameInfo) public gameInfos */\n    tag_83:\n      mstore(0x20, 0x04)\n      dup1\n      0x00\n      mstore\n      keccak256(0x00, 0x40)\n      0x00\n      swap2\n      pop\n      swap1\n      pop\n      dup1\n      0x00\n      add\n      sload\n      swap1\n      dup1\n      0x01\n      add\n      sload\n      swap1\n      dup1\n      0x02\n      add\n      dup1\n      sload\n      tag_212\n      swap1\n      tag_207\n      jump\t// in\n    tag_212:\n      dup1\n      0x1f\n      add\n      0x20\n      dup1\n      swap2\n      div\n      mul\n      0x20\n      add\n      mload(0x40)\n      swap1\n      dup2\n      add\n      0x40\n      mstore\n      dup1\n      swap3\n      swap2\n      swap1\n      dup2\n      dup2\n      mstore\n      0x20\n      add\n      dup3\n      dup1\n      sload\n      tag_213\n      swap1\n      tag_207\n      jump\t// in\n    tag_213:\n      dup1\n      iszero\n      tag_214\n      jumpi\n      dup1\n      0x1f\n      lt\n      tag_215\n      jumpi\n      0x0100\n      dup1\n      dup4\n      sload\n      div\n      mul\n      dup4\n      mstore\n      swap2\n      0x20\n      add\n      swap2\n      jump(tag_214)\n    tag_215:\n      dup3\n      add\n      swap2\n      swap1\n      0x00\n      mstore\n      keccak256(0x00, 0x20)\n      swap1\n    tag_216:\n      dup2\n      sload\n      dup2\n      mstore\n      swap1\n      0x01\n      add\n      swap1\n      0x20\n      add\n      dup1\n      dup4\n      gt\n      tag_216\n      jumpi\n      dup3\n      swap1\n      sub\n      0x1f\n      and\n      dup3\n      add\n      swap2\n    tag_214:\n      pop\n      pop\n      pop\n      pop\n      pop\n      swap1\n      dup1\n      0x03\n      add\n      0x00\n      swap1\n      sload\n      swap1\n      0x0100\n      exp\n      swap1\n      div\n      0xff\n      and\n      swap1\n      pop\n      dup5\n      jump\t// out\n        /* \"contracts/v2/tTikTrixGameEscrow.sol\":2486:2838  function gameRegister(uint256 developerSeq, uint256 gameSeq, string memory title) external onlyRole(ADMIN_ROLE) {... */\n    tag_89:\n        /* \"contracts/v2/tTikTrixGameEscrow.sol\":369:392  keccak256(\"ADMIN_ROLE\") */\n      0xa49807205ce4d355092ef5a8a18f56e8913cf4a201fbe287825b095693c21775\n        /* \"https://github.com/OpenZeppelin/openzeppelin-contracts/blob/v4.8.0/contracts/access/AccessControl.sol\":2505:2521  _checkRole(role) */\n      tag_218\n        /* \"https://github.com/OpenZeppelin/openzeppelin-contracts/blob/v4.8.0/contracts/access/AccessControl.sol\":2516:2520  role */\n      dup2\n        /* \"https://github.com/OpenZeppelin/openzeppelin-contracts/blob/v4.8.0/contracts/access/AccessControl.sol\":2505:2515  _checkRole */\n      tag_162\n        /* \"https://github.com/OpenZeppelin/openzeppelin-contracts/blob/v4.8.0/contracts/access/AccessControl.sol\":2505:2521  _checkRole(role) */\n      jump\t// in\n    tag_218:\n        /* \"contracts/v2/tTikTrixGameEscrow.sol\":2629:2771  GameInfo({... */\n      mload(0x40)\n      dup1\n      0x80\n      add\n      0x40\n      mstore\n      dup1\n        /* \"contracts/v2/tTikTrixGameEscrow.sol\":2666:2678  developerSeq */\n      dup6\n        /* \"contracts/v2/tTikTrixGameEscrow.sol\":2629:2771  GameInfo({... */\n      dup2\n      mstore\n      0x20\n      add\n        /* \"contracts/v2/tTikTrixGameEscrow.sol\":2701:2708  gameSeq */\n      dup5\n        /* \"contracts/v2/tTikTrixGameEscrow.sol\":2629:2771  GameInfo({... */\n      dup2\n      mstore\n      0x20\n      add\n        /* \"contracts/v2/tTikTrixGameEscrow.sol\":2729:2734  title */\n      dup4\n        /* \"contracts/v2/tTikTrixGameEscrow.sol\":2629:2771  GameInfo({... */\n      dup2\n      mstore\n      0x20\n      add\n        /* \"contracts/v2/tTikTrixGameEscrow.sol\":2756:2760  true */\n      0x01\n        /* \"contracts/v2/tTikTrixGameEscrow.sol\":2629:2771  GameInfo({... */\n      iszero\n      iszero\n      dup2\n      mstore\n      pop\n        /* \"contracts/v2/tTikTrixGameEscrow.sol\":2608:2617  gameInfos */\n      0x04\n        /* \"contracts/v2/tTikTrixGameEscrow.sol\":2608:2626  gameInfos[gameSeq] */\n      0x00\n        /* \"contracts/v2/tTikTrixGameEscrow.sol\":2618:2625  gameSeq */\n      dup6\n        /* \"contracts/v2/tTikTrixGameEscrow.sol\":2608:2626  gameInfos[gameSeq] */\n      dup2\n      mstore\n      0x20\n      add\n      swap1\n      dup2\n      mstore\n      0x20\n      add\n      0x00\n      keccak256\n        /* \"contracts/v2/tTikTrixGameEscrow.sol\":2608:2771  gameInfos[gameSeq] = GameInfo({... */\n      0x00\n      dup3\n      add\n      mload\n      dup2\n      0x00\n      add\n      sstore\n      0x20\n      dup3\n      add\n      mload\n      dup2\n      0x01\n      add\n      sstore\n      0x40\n      dup3\n      add\n      mload\n      dup2\n      0x02\n      add\n      swap1\n      dup2\n      tag_220\n      swap2\n      swap1\n      tag_221\n      jump\t// in\n    tag_220:\n      pop\n      0x60\n      dup3\n      add\n      mload\n      dup2\n      0x03\n      add\n      exp(0x0100, 0x00)\n      dup2\n      sload\n      dup2\n      0xff\n      mul\n      not\n      and\n      swap1\n      dup4\n      iszero\n      iszero\n      mul\n      or\n      swap1\n      sstore\n      pop\n      swap1\n      pop\n      pop\n        /* \"contracts/v2/tTikTrixGameEscrow.sol\":2787:2831  GameRegistered(developerSeq, gameSeq, title) */\n      0xd8e2cd0473b83461e66f336b5655c077dbd1203e041ad68b1d6f2c4c5ec2593d\n        /* \"contracts/v2/tTikTrixGameEscrow.sol\":2802:2814  developerSeq */\n      dup5\n        /* \"contracts/v2/tTikTrixGameEscrow.sol\":2816:2823  gameSeq */\n      dup5\n        /* \"contracts/v2/tTikTrixGameEscrow.sol\":2825:2830  title */\n      dup5\n        /* \"contracts/v2/tTikTrixGameEscrow.sol\":2787:2831  GameRegistered(developerSeq, gameSeq, title) */\n      mload(0x40)\n      tag_222\n      swap4\n      swap3\n      swap2\n      swap1\n      tag_223\n      jump\t// in\n    tag_222:\n      mload(0x40)\n      dup1\n      swap2\n      sub\n      swap1\n      log1\n        /* \"contracts/v2/tTikTrixGameEscrow.sol\":2486:2838  function gameRegister(uint256 developerSeq, uint256 gameSeq, string memory title) external onlyRole(ADMIN_ROLE) {... */\n      pop\n      pop\n      pop\n      pop\n      jump\t// out\n        /* \"contracts/v2/tTikTrixGameEscrow.sol\":4911:5165  function rankScoreUpdateNormal(... */\n    tag_93:\n        /* \"contracts/v2/tTikTrixGameEscrow.sol\":369:392  keccak256(\"ADMIN_ROLE\") */\n      0xa49807205ce4d355092ef5a8a18f56e8913cf4a201fbe287825b095693c21775\n        /* \"https://github.com/OpenZeppelin/openzeppelin-contracts/blob/v4.8.0/contracts/access/AccessControl.sol\":2505:2521  _checkRole(role) */\n      tag_225\n        /* \"https://github.com/OpenZeppelin/openzeppelin-contracts/blob/v4.8.0/contracts/access/AccessControl.sol\":2516:2520  role */\n      dup2\n        /* \"https://github.com/OpenZeppelin/openzeppelin-contracts/blob/v4.8.0/contracts/access/AccessControl.sol\":2505:2515  _checkRole */\n      tag_162\n        /* \"https://github.com/OpenZeppelin/openzeppelin-contracts/blob/v4.8.0/contracts/access/AccessControl.sol\":2505:2521  _checkRole(role) */\n      jump\t// in\n    tag_225:\n        /* \"contracts/v2/tTikTrixGameEscrow.sol\":5138:5147  memberSeq */\n      dup3\n        /* \"contracts/v2/tTikTrixGameEscrow.sol\":5129:5136  gameSeq */\n      dup5\n        /* \"contracts/v2/tTikTrixGameEscrow.sol\":5119:5127  yyyymmdd */\n      dup7\n        /* \"contracts/v2/tTikTrixGameEscrow.sol\":5097:5158  RankScoreUpdateNoraml(yyyymmdd, gameSeq, memberSeq, newScore) */\n      0xa8f9cf476e5bcc627f5ed22b5ba54bd7fff333cd851bc754d924fe3eb28752fb\n        /* \"contracts/v2/tTikTrixGameEscrow.sol\":5149:5157  newScore */\n      dup6\n        /* \"contracts/v2/tTikTrixGameEscrow.sol\":5097:5158  RankScoreUpdateNoraml(yyyymmdd, gameSeq, memberSeq, newScore) */\n      mload(0x40)\n      tag_227\n      swap2\n      swap1\n      tag_128\n      jump\t// in\n    tag_227:\n      mload(0x40)\n      dup1\n      swap2\n      sub\n      swap1\n      log4\n        /* \"contracts/v2/tTikTrixGameEscrow.sol\":4911:5165  function rankScoreUpdateNormal(... */\n      pop\n      pop\n      pop\n      pop\n      pop\n      jump\t// out\n        /* \"contracts/v2/tTikTrixGameEscrow.sol\":3262:3473  function gameDelete(uint256 gameSeq) external onlyRole(ADMIN_ROLE) {... */\n    tag_96:\n        /* \"contracts/v2/tTikTrixGameEscrow.sol\":369:392  keccak256(\"ADMIN_ROLE\") */\n      0xa49807205ce4d355092ef5a8a18f56e8913cf4a201fbe287825b095693c21775\n        /* \"https://github.com/OpenZeppelin/openzeppelin-contracts/blob/v4.8.0/contracts/access/AccessControl.sol\":2505:2521  _checkRole(role) */\n      tag_229\n        /* \"https://github.com/OpenZeppelin/openzeppelin-contracts/blob/v4.8.0/contracts/access/AccessControl.sol\":2516:2520  role */\n      dup2\n        /* \"https://github.com/OpenZeppelin/openzeppelin-contracts/blob/v4.8.0/contracts/access/AccessControl.sol\":2505:2515  _checkRole */\n      tag_162\n        /* \"https://github.com/OpenZeppelin/openzeppelin-contracts/blob/v4.8.0/contracts/access/AccessControl.sol\":2505:2521  _checkRole(role) */\n      jump\t// in\n    tag_229:\n        /* \"contracts/v2/tTikTrixGameEscrow.sol\":3347:3356  gameInfos */\n      0x04\n        /* \"contracts/v2/tTikTrixGameEscrow.sol\":3347:3365  gameInfos[gameSeq] */\n      0x00\n        /* \"contracts/v2/tTikTrixGameEscrow.sol\":3357:3364  gameSeq */\n      dup4\n        /* \"contracts/v2/tTikTrixGameEscrow.sol\":3347:3365  gameInfos[gameSeq] */\n      dup2\n      mstore\n      0x20\n      add\n      swap1\n      dup2\n      mstore\n      0x20\n      add\n      0x00\n      keccak256\n        /* \"contracts/v2/tTikTrixGameEscrow.sol\":3347:3372  gameInfos[gameSeq].exists */\n      0x03\n      add\n      0x00\n      swap1\n      sload\n      swap1\n      0x0100\n      exp\n      swap1\n      div\n      0xff\n      and\n        /* \"contracts/v2/tTikTrixGameEscrow.sol\":3339:3396  require(gameInfos[gameSeq].exists, \"Game does not exist\") */\n      tag_231\n      jumpi\n      mload(0x40)\n      0x08c379a000000000000000000000000000000000000000000000000000000000\n      dup2\n      mstore\n      0x04\n      add\n      tag_232\n      swap1\n      tag_205\n      jump\t// in\n    tag_232:\n      mload(0x40)\n      dup1\n      swap2\n      sub\n      swap1\n      revert\n    tag_231:\n        /* \"contracts/v2/tTikTrixGameEscrow.sol\":3413:3422  gameInfos */\n      0x04\n        /* \"contracts/v2/tTikTrixGameEscrow.sol\":3413:3431  gameInfos[gameSeq] */\n      0x00\n        /* \"contracts/v2/tTikTrixGameEscrow.sol\":3423:3430  gameSeq */\n      dup4\n        /* \"contracts/v2/tTikTrixGameEscrow.sol\":3413:3431  gameInfos[gameSeq] */\n      dup2\n      mstore\n      0x20\n      add\n      swap1\n      dup2\n      mstore\n      0x20\n      add\n      0x00\n      keccak256\n      0x00\n        /* \"contracts/v2/tTikTrixGameEscrow.sol\":3406:3431  delete gameInfos[gameSeq] */\n      dup1\n      dup3\n      add\n      0x00\n      swap1\n      sstore\n      0x01\n      dup3\n      add\n      0x00\n      swap1\n      sstore\n      0x02\n      dup3\n      add\n      0x00\n      tag_233\n      swap2\n      swap1\n      tag_234\n      jump\t// in\n    tag_233:\n      0x03\n      dup3\n      add\n      exp(0x0100, 0x00)\n      dup2\n      sload\n      swap1\n      0xff\n      mul\n      not\n      and\n      swap1\n      sstore\n      pop\n      pop\n        /* \"contracts/v2/tTikTrixGameEscrow.sol\":3458:3465  gameSeq */\n      dup2\n        /* \"contracts/v2/tTikTrixGameEscrow.sol\":3446:3466  GameDeleted(gameSeq) */\n      0x5ef6221cc1c069a8c723210c08d526c7ca88540ee8d66470cf01844efaae0b94\n      mload(0x40)\n      mload(0x40)\n      dup1\n      swap2\n      sub\n      swap1\n      log2\n        /* \"contracts/v2/tTikTrixGameEscrow.sol\":3262:3473  function gameDelete(uint256 gameSeq) external onlyRole(ADMIN_ROLE) {... */\n      pop\n      pop\n      jump\t// out\n        /* \"https://github.com/OpenZeppelin/openzeppelin-contracts/blob/v4.8.0/contracts/access/AccessControl.sol\":2895:3040  function hasRole(bytes32 role, address account) public view virtual override returns (bool) {... */\n    tag_99:\n        /* \"https://github.com/OpenZeppelin/openzeppelin-contracts/blob/v4.8.0/contracts/access/AccessControl.sol\":2981:2985  bool */\n      0x00\n        /* \"https://github.com/OpenZeppelin/openzeppelin-contracts/blob/v4.8.0/contracts/access/AccessControl.sol\":3004:3010  _roles */\n      dup1\n        /* \"https://github.com/OpenZeppelin/openzeppelin-contracts/blob/v4.8.0/contracts/access/AccessControl.sol\":3004:3016  _roles[role] */\n      0x00\n        /* \"https://github.com/OpenZeppelin/openzeppelin-contracts/blob/v4.8.0/contracts/access/AccessControl.sol\":3011:3015  role */\n      dup5\n        /* \"https://github.com/OpenZeppelin/openzeppelin-contracts/blob/v4.8.0/contracts/access/AccessControl.sol\":3004:3016  _roles[role] */\n      dup2\n      mstore\n      0x20\n      add\n      swap1\n      dup2\n      mstore\n      0x20\n      add\n      0x00\n      keccak256\n        /* \"https://github.com/OpenZeppelin/openzeppelin-contracts/blob/v4.8.0/contracts/access/AccessControl.sol\":3004:3024  _roles[role].members */\n      0x00\n      add\n        /* \"https://github.com/OpenZeppelin/openzeppelin-contracts/blob/v4.8.0/contracts/access/AccessControl.sol\":3004:3033  _roles[role].members[account] */\n      0x00\n        /* \"https://github.com/OpenZeppelin/openzeppelin-contracts/blob/v4.8.0/contracts/access/AccessControl.sol\":3025:3032  account */\n      dup4\n        /* \"https://github.com/OpenZeppelin/openzeppelin-contracts/blob/v4.8.0/contracts/access/AccessControl.sol\":3004:3033  _roles[role].members[account] */\n      0xffffffffffffffffffffffffffffffffffffffff\n      and\n      0xffffffffffffffffffffffffffffffffffffffff\n      and\n      dup2\n      mstore\n      0x20\n      add\n      swap1\n      dup2\n      mstore\n      0x20\n      add\n      0x00\n      keccak256\n      0x00\n      swap1\n      sload\n      swap1\n      0x0100\n      exp\n      swap1\n      div\n      0xff\n      and\n        /* \"https://github.com/OpenZeppelin/openzeppelin-contracts/blob/v4.8.0/contracts/access/AccessControl.sol\":2997:3033  return _roles[role].members[account] */\n      swap1\n      pop\n        /* \"https://github.com/OpenZeppelin/openzeppelin-contracts/blob/v4.8.0/contracts/access/AccessControl.sol\":2895:3040  function hasRole(bytes32 role, address account) public view virtual override returns (bool) {... */\n      swap3\n      swap2\n      pop\n      pop\n      jump\t// out\n        /* \"contracts/v2/tTikTrixGameEscrow.sol\":2354:2480  function revokeAdminRole(address account) public onlyRole(DEFAULT_ADMIN_ROLE) {... */\n    tag_104:\n        /* \"https://github.com/OpenZeppelin/openzeppelin-contracts/blob/v4.8.0/contracts/access/AccessControl.sol\":2072:2076  0x00 */\n      0x00\n        /* \"contracts/v2/tTikTrixGameEscrow.sol\":2412:2430  DEFAULT_ADMIN_ROLE */\n      dup1\n      shl\n        /* \"https://github.com/OpenZeppelin/openzeppelin-contracts/blob/v4.8.0/contracts/access/AccessControl.sol\":2505:2521  _checkRole(role) */\n      tag_237\n        /* \"https://github.com/OpenZeppelin/openzeppelin-contracts/blob/v4.8.0/contracts/access/AccessControl.sol\":2516:2520  role */\n      dup2\n        /* \"https://github.com/OpenZeppelin/openzeppelin-contracts/blob/v4.8.0/contracts/access/AccessControl.sol\":2505:2515  _checkRole */\n      tag_162\n        /* \"https://github.com/OpenZeppelin/openzeppelin-contracts/blob/v4.8.0/contracts/access/AccessControl.sol\":2505:2521  _checkRole(role) */\n      jump\t// in\n    tag_237:\n        /* \"contracts/v2/tTikTrixGameEscrow.sol\":2442:2473  revokeRole(ADMIN_ROLE, account) */\n      tag_239\n        /* \"contracts/v2/tTikTrixGameEscrow.sol\":369:392  keccak256(\"ADMIN_ROLE\") */\n      0xa49807205ce4d355092ef5a8a18f56e8913cf4a201fbe287825b095693c21775\n        /* \"contracts/v2/tTikTrixGameEscrow.sol\":2465:2472  account */\n      dup4\n        /* \"contracts/v2/tTikTrixGameEscrow.sol\":2442:2452  revokeRole */\n      tag_144\n        /* \"contracts/v2/tTikTrixGameEscrow.sol\":2442:2473  revokeRole(ADMIN_ROLE, account) */\n      jump\t// in\n    tag_239:\n        /* \"contracts/v2/tTikTrixGameEscrow.sol\":2354:2480  function revokeAdminRole(address account) public onlyRole(DEFAULT_ADMIN_ROLE) {... */\n      pop\n      pop\n      jump\t// out\n        /* \"contracts/v2/tTikTrixGameEscrow.sol\":3479:3922  function registerMember(uint256 memberSeq, address mintAddress, uint256 tokenAmount) external onlyRole(ADMIN_ROLE) {... */\n    tag_108:\n        /* \"contracts/v2/tTikTrixGameEscrow.sol\":369:392  keccak256(\"ADMIN_ROLE\") */\n      0xa49807205ce4d355092ef5a8a18f56e8913cf4a201fbe287825b095693c21775\n        /* \"https://github.com/OpenZeppelin/openzeppelin-contracts/blob/v4.8.0/contracts/access/AccessControl.sol\":2505:2521  _checkRole(role) */\n      tag_241\n        /* \"https://github.com/OpenZeppelin/openzeppelin-contracts/blob/v4.8.0/contracts/access/AccessControl.sol\":2516:2520  role */\n      dup2\n        /* \"https://github.com/OpenZeppelin/openzeppelin-contracts/blob/v4.8.0/contracts/access/AccessControl.sol\":2505:2515  _checkRole */\n      tag_162\n        /* \"https://github.com/OpenZeppelin/openzeppelin-contracts/blob/v4.8.0/contracts/access/AccessControl.sol\":2505:2521  _checkRole(role) */\n      jump\t// in\n    tag_241:\n        /* \"contracts/v2/tTikTrixGameEscrow.sol\":3648:3649  0 */\n      0x00\n        /* \"contracts/v2/tTikTrixGameEscrow.sol\":3612:3623  memberInfos */\n      0x05\n        /* \"contracts/v2/tTikTrixGameEscrow.sol\":3612:3634  memberInfos[memberSeq] */\n      0x00\n        /* \"contracts/v2/tTikTrixGameEscrow.sol\":3624:3633  memberSeq */\n      dup7\n        /* \"contracts/v2/tTikTrixGameEscrow.sol\":3612:3634  memberInfos[memberSeq] */\n      dup2\n      mstore\n      0x20\n      add\n      swap1\n      dup2\n      mstore\n      0x20\n      add\n      0x00\n      keccak256\n        /* \"contracts/v2/tTikTrixGameEscrow.sol\":3612:3644  memberInfos[memberSeq].memberSeq */\n      0x00\n      add\n      sload\n        /* \"contracts/v2/tTikTrixGameEscrow.sol\":3612:3649  memberInfos[memberSeq].memberSeq == 0 */\n      eq\n        /* \"contracts/v2/tTikTrixGameEscrow.sol\":3604:3679  require(memberInfos[memberSeq].memberSeq == 0, \"Member already registered\") */\n      tag_243\n      jumpi\n      mload(0x40)\n      0x08c379a000000000000000000000000000000000000000000000000000000000\n      dup2\n      mstore\n      0x04\n      add\n      tag_244\n      swap1\n      tag_245\n      jump\t// in\n    tag_244:\n      mload(0x40)\n      dup1\n      swap2\n      sub\n      swap1\n      revert\n    tag_243:\n        /* \"contracts/v2/tTikTrixGameEscrow.sol\":3715:3771  MemberInfo({... */\n      mload(0x40)\n      dup1\n      0x20\n      add\n      0x40\n      mstore\n      dup1\n        /* \"contracts/v2/tTikTrixGameEscrow.sol\":3751:3760  memberSeq */\n      dup6\n        /* \"contracts/v2/tTikTrixGameEscrow.sol\":3715:3771  MemberInfo({... */\n      dup2\n      mstore\n      pop\n        /* \"contracts/v2/tTikTrixGameEscrow.sol\":3690:3701  memberInfos */\n      0x05\n        /* \"contracts/v2/tTikTrixGameEscrow.sol\":3690:3712  memberInfos[memberSeq] */\n      0x00\n        /* \"contracts/v2/tTikTrixGameEscrow.sol\":3702:3711  memberSeq */\n      dup7\n        /* \"contracts/v2/tTikTrixGameEscrow.sol\":3690:3712  memberInfos[memberSeq] */\n      dup2\n      mstore\n      0x20\n      add\n      swap1\n      dup2\n      mstore\n      0x20\n      add\n      0x00\n      keccak256\n        /* \"contracts/v2/tTikTrixGameEscrow.sol\":3690:3771  memberInfos[memberSeq] = MemberInfo({... */\n      0x00\n      dup3\n      add\n      mload\n      dup2\n      0x00\n      add\n      sstore\n      swap1\n      pop\n      pop\n        /* \"contracts/v2/tTikTrixGameEscrow.sol\":3790:3798  entToken */\n      0x01\n      0x00\n      swap1\n      sload\n      swap1\n      0x0100\n      exp\n      swap1\n      div\n      0xffffffffffffffffffffffffffffffffffffffff\n      and\n        /* \"contracts/v2/tTikTrixGameEscrow.sol\":3790:3807  entToken.transfer */\n      0xffffffffffffffffffffffffffffffffffffffff\n      and\n      0xa9059cbb\n        /* \"contracts/v2/tTikTrixGameEscrow.sol\":3808:3819  mintAddress */\n      dup5\n        /* \"contracts/v2/tTikTrixGameEscrow.sol\":3821:3832  tokenAmount */\n      dup5\n        /* \"contracts/v2/tTikTrixGameEscrow.sol\":3790:3833  entToken.transfer(mintAddress, tokenAmount) */\n      mload(0x40)\n      dup4\n      0xffffffff\n      and\n      0xe0\n      shl\n      dup2\n      mstore\n      0x04\n      add\n      tag_246\n      swap3\n      swap2\n      swap1\n      tag_190\n      jump\t// in\n    tag_246:\n      0x20\n      mload(0x40)\n      dup1\n      dup4\n      sub\n      dup2\n      0x00\n      dup8\n      gas\n      call\n      iszero\n      dup1\n      iszero\n      tag_248\n      jumpi\n      returndatasize\n      0x00\n      dup1\n      returndatacopy\n      revert(0x00, returndatasize)\n    tag_248:\n      pop\n      pop\n      pop\n      pop\n      mload(0x40)\n      returndatasize\n      not(0x1f)\n      0x1f\n      dup3\n      add\n      and\n      dup3\n      add\n      dup1\n      0x40\n      mstore\n      pop\n      dup2\n      add\n      swap1\n      tag_249\n      swap2\n      swap1\n      tag_194\n      jump\t// in\n    tag_249:\n        /* \"contracts/v2/tTikTrixGameEscrow.sol\":3782:3859  require(entToken.transfer(mintAddress, tokenAmount), \"Token transfer failed\") */\n      tag_250\n      jumpi\n      mload(0x40)\n      0x08c379a000000000000000000000000000000000000000000000000000000000\n      dup2\n      mstore\n      0x04\n      add\n      tag_251\n      swap1\n      tag_197\n      jump\t// in\n    tag_251:\n      mload(0x40)\n      dup1\n      swap2\n      sub\n      swap1\n      revert\n    tag_250:\n        /* \"contracts/v2/tTikTrixGameEscrow.sol\":3875:3915  MemberRegistered(memberSeq, tokenAmount) */\n      0x5a92c2530f207992057b9c3e544108ffce3beda4a63719f316967c49bf6159d2\n        /* \"contracts/v2/tTikTrixGameEscrow.sol\":3892:3901  memberSeq */\n      dup5\n        /* \"contracts/v2/tTikTrixGameEscrow.sol\":3903:3914  tokenAmount */\n      dup4\n        /* \"contracts/v2/tTikTrixGameEscrow.sol\":3875:3915  MemberRegistered(memberSeq, tokenAmount) */\n      mload(0x40)\n      tag_252\n      swap3\n      swap2\n      swap1\n      tag_253\n      jump\t// in\n    tag_252:\n      mload(0x40)\n      dup1\n      swap2\n      sub\n      swap1\n      log1\n        /* \"contracts/v2/tTikTrixGameEscrow.sol\":3479:3922  function registerMember(uint256 memberSeq, address mintAddress, uint256 tokenAmount) external onlyRole(ADMIN_ROLE) {... */\n      pop\n      pop\n      pop\n      pop\n      jump\t// out\n        /* \"https://github.com/OpenZeppelin/openzeppelin-contracts/blob/v4.8.0/contracts/access/AccessControl.sol\":2027:2076  bytes32 public constant DEFAULT_ADMIN_ROLE = 0x00 */\n    tag_110:\n        /* \"https://github.com/OpenZeppelin/openzeppelin-contracts/blob/v4.8.0/contracts/access/AccessControl.sol\":2072:2076  0x00 */\n      0x00\n        /* \"https://github.com/OpenZeppelin/openzeppelin-contracts/blob/v4.8.0/contracts/access/AccessControl.sol\":2027:2076  bytes32 public constant DEFAULT_ADMIN_ROLE = 0x00 */\n      dup1\n      shl\n      dup2\n      jump\t// out\n        /* \"contracts/v2/tTikTrixGameEscrow.sol\":6540:6720  function gameEnd(uint256 gameSeq, uint256 memberSeq) external {... */\n    tag_115:\n        /* \"contracts/v2/tTikTrixGameEscrow.sol\":6620:6629  gameInfos */\n      0x04\n        /* \"contracts/v2/tTikTrixGameEscrow.sol\":6620:6638  gameInfos[gameSeq] */\n      0x00\n        /* \"contracts/v2/tTikTrixGameEscrow.sol\":6630:6637  gameSeq */\n      dup4\n        /* \"contracts/v2/tTikTrixGameEscrow.sol\":6620:6638  gameInfos[gameSeq] */\n      dup2\n      mstore\n      0x20\n      add\n      swap1\n      dup2\n      mstore\n      0x20\n      add\n      0x00\n      keccak256\n        /* \"contracts/v2/tTikTrixGameEscrow.sol\":6620:6645  gameInfos[gameSeq].exists */\n      0x03\n      add\n      0x00\n      swap1\n      sload\n      swap1\n      0x0100\n      exp\n      swap1\n      div\n      0xff\n      and\n        /* \"contracts/v2/tTikTrixGameEscrow.sol\":6612:6669  require(gameInfos[gameSeq].exists, \"Game does not exist\") */\n      tag_255\n      jumpi\n      mload(0x40)\n      0x08c379a000000000000000000000000000000000000000000000000000000000\n      dup2\n      mstore\n      0x04\n      add\n      tag_256\n      swap1\n      tag_205\n      jump\t// in\n    tag_256:\n      mload(0x40)\n      dup1\n      swap2\n      sub\n      swap1\n      revert\n    tag_255:\n        /* \"contracts/v2/tTikTrixGameEscrow.sol\":6703:6712  memberSeq */\n      dup1\n        /* \"contracts/v2/tTikTrixGameEscrow.sol\":6694:6701  gameSeq */\n      dup3\n        /* \"contracts/v2/tTikTrixGameEscrow.sol\":6684:6713  GameEnded(gameSeq, memberSeq) */\n      0x4c4660db760944215f41e957066d756ad5fd0eed1b4640632322eb06f77b034d\n      mload(0x40)\n      mload(0x40)\n      dup1\n      swap2\n      sub\n      swap1\n      log3\n        /* \"contracts/v2/tTikTrixGameEscrow.sol\":6540:6720  function gameEnd(uint256 gameSeq, uint256 memberSeq) external {... */\n      pop\n      pop\n      jump\t// out\n        /* \"contracts/v2/tTikTrixGameEscrow.sol\":7106:7316  function getMemberInfo(uint256 memberSeq) external view returns (MemberInfo memory) {... */\n    tag_118:\n        /* \"contracts/v2/tTikTrixGameEscrow.sol\":7171:7188  MemberInfo memory */\n      tag_257\n      tag_258\n      jump\t// in\n    tag_257:\n        /* \"contracts/v2/tTikTrixGameEscrow.sol\":7243:7244  0 */\n      0x00\n        /* \"contracts/v2/tTikTrixGameEscrow.sol\":7208:7219  memberInfos */\n      0x05\n        /* \"contracts/v2/tTikTrixGameEscrow.sol\":7208:7230  memberInfos[memberSeq] */\n      0x00\n        /* \"contracts/v2/tTikTrixGameEscrow.sol\":7220:7229  memberSeq */\n      dup5\n        /* \"contracts/v2/tTikTrixGameEscrow.sol\":7208:7230  memberInfos[memberSeq] */\n      dup2\n      mstore\n      0x20\n      add\n      swap1\n      dup2\n      mstore\n      0x20\n      add\n      0x00\n      keccak256\n        /* \"contracts/v2/tTikTrixGameEscrow.sol\":7208:7240  memberInfos[memberSeq].memberSeq */\n      0x00\n      add\n      sload\n        /* \"contracts/v2/tTikTrixGameEscrow.sol\":7208:7244  memberInfos[memberSeq].memberSeq > 0 */\n      gt\n        /* \"contracts/v2/tTikTrixGameEscrow.sol\":7200:7270  require(memberInfos[memberSeq].memberSeq > 0, \"Member does not exist\") */\n      tag_260\n      jumpi\n      mload(0x40)\n      0x08c379a000000000000000000000000000000000000000000000000000000000\n      dup2\n      mstore\n      0x04\n      add\n      tag_261\n      swap1\n      tag_262\n      jump\t// in\n    tag_261:\n      mload(0x40)\n      dup1\n      swap2\n      sub\n      swap1\n      revert\n    tag_260:\n        /* \"contracts/v2/tTikTrixGameEscrow.sol\":7287:7298  memberInfos */\n      0x05\n        /* \"contracts/v2/tTikTrixGameEscrow.sol\":7287:7309  memberInfos[memberSeq] */\n      0x00\n        /* \"contracts/v2/tTikTrixGameEscrow.sol\":7299:7308  memberSeq */\n      dup4\n        /* \"contracts/v2/tTikTrixGameEscrow.sol\":7287:7309  memberInfos[memberSeq] */\n      dup2\n      mstore\n      0x20\n      add\n      swap1\n      dup2\n      mstore\n      0x20\n      add\n      0x00\n      keccak256\n        /* \"contracts/v2/tTikTrixGameEscrow.sol\":7280:7309  return memberInfos[memberSeq] */\n      mload(0x40)\n      dup1\n      0x20\n      add\n      0x40\n      mstore\n      swap1\n      dup2\n      0x00\n      dup3\n      add\n      sload\n      dup2\n      mstore\n      pop\n      pop\n      swap1\n      pop\n        /* \"contracts/v2/tTikTrixGameEscrow.sol\":7106:7316  function getMemberInfo(uint256 memberSeq) external view returns (MemberInfo memory) {... */\n      swap2\n      swap1\n      pop\n      jump\t// out\n        /* \"contracts/v2/tTikTrixGameEscrow.sol\":2844:3256  function gameUpdate(uint256 developerSeq, uint256 gameSeq, string memory title) external onlyRole(ADMIN_ROLE) {... */\n    tag_123:\n        /* \"contracts/v2/tTikTrixGameEscrow.sol\":369:392  keccak256(\"ADMIN_ROLE\") */\n      0xa49807205ce4d355092ef5a8a18f56e8913cf4a201fbe287825b095693c21775\n        /* \"https://github.com/OpenZeppelin/openzeppelin-contracts/blob/v4.8.0/contracts/access/AccessControl.sol\":2505:2521  _checkRole(role) */\n      tag_264\n        /* \"https://github.com/OpenZeppelin/openzeppelin-contracts/blob/v4.8.0/contracts/access/AccessControl.sol\":2516:2520  role */\n      dup2\n        /* \"https://github.com/OpenZeppelin/openzeppelin-contracts/blob/v4.8.0/contracts/access/AccessControl.sol\":2505:2515  _checkRole */\n      tag_162\n        /* \"https://github.com/OpenZeppelin/openzeppelin-contracts/blob/v4.8.0/contracts/access/AccessControl.sol\":2505:2521  _checkRole(role) */\n      jump\t// in\n    tag_264:\n        /* \"contracts/v2/tTikTrixGameEscrow.sol\":2972:2981  gameInfos */\n      0x04\n        /* \"contracts/v2/tTikTrixGameEscrow.sol\":2972:2990  gameInfos[gameSeq] */\n      0x00\n        /* \"contracts/v2/tTikTrixGameEscrow.sol\":2982:2989  gameSeq */\n      dup5\n        /* \"contracts/v2/tTikTrixGameEscrow.sol\":2972:2990  gameInfos[gameSeq] */\n      dup2\n      mstore\n      0x20\n      add\n      swap1\n      dup2\n      mstore\n      0x20\n      add\n      0x00\n      keccak256\n        /* \"contracts/v2/tTikTrixGameEscrow.sol\":2972:2997  gameInfos[gameSeq].exists */\n      0x03\n      add\n      0x00\n      swap1\n      sload\n      swap1\n      0x0100\n      exp\n      swap1\n      div\n      0xff\n      and\n        /* \"contracts/v2/tTikTrixGameEscrow.sol\":2964:3021  require(gameInfos[gameSeq].exists, \"Game does not exist\") */\n      tag_266\n      jumpi\n      mload(0x40)\n      0x08c379a000000000000000000000000000000000000000000000000000000000\n      dup2\n      mstore\n      0x04\n      add\n      tag_267\n      swap1\n      tag_205\n      jump\t// in\n    tag_267:\n      mload(0x40)\n      dup1\n      swap2\n      sub\n      swap1\n      revert\n    tag_266:\n        /* \"contracts/v2/tTikTrixGameEscrow.sol\":3032:3057  GameInfo storage gameInfo */\n      0x00\n        /* \"contracts/v2/tTikTrixGameEscrow.sol\":3060:3069  gameInfos */\n      0x04\n        /* \"contracts/v2/tTikTrixGameEscrow.sol\":3060:3078  gameInfos[gameSeq] */\n      0x00\n        /* \"contracts/v2/tTikTrixGameEscrow.sol\":3070:3077  gameSeq */\n      dup6\n        /* \"contracts/v2/tTikTrixGameEscrow.sol\":3060:3078  gameInfos[gameSeq] */\n      dup2\n      mstore\n      0x20\n      add\n      swap1\n      dup2\n      mstore\n      0x20\n      add\n      0x00\n      keccak256\n        /* \"contracts/v2/tTikTrixGameEscrow.sol\":3032:3078  GameInfo storage gameInfo = gameInfos[gameSeq] */\n      swap1\n      pop\n        /* \"contracts/v2/tTikTrixGameEscrow.sol\":3112:3124  developerSeq */\n      dup5\n        /* \"contracts/v2/tTikTrixGameEscrow.sol\":3088:3096  gameInfo */\n      dup2\n        /* \"contracts/v2/tTikTrixGameEscrow.sol\":3088:3109  gameInfo.developerSeq */\n      0x00\n      add\n        /* \"contracts/v2/tTikTrixGameEscrow.sol\":3088:3124  gameInfo.developerSeq = developerSeq */\n      dup2\n      swap1\n      sstore\n      pop\n        /* \"contracts/v2/tTikTrixGameEscrow.sol\":3153:3160  gameSeq */\n      dup4\n        /* \"contracts/v2/tTikTrixGameEscrow.sol\":3134:3142  gameInfo */\n      dup2\n        /* \"contracts/v2/tTikTrixGameEscrow.sol\":3134:3150  gameInfo.gameSeq */\n      0x01\n      add\n        /* \"contracts/v2/tTikTrixGameEscrow.sol\":3134:3160  gameInfo.gameSeq = gameSeq */\n      dup2\n      swap1\n      sstore\n      pop\n        /* \"contracts/v2/tTikTrixGameEscrow.sol\":3187:3192  title */\n      dup3\n        /* \"contracts/v2/tTikTrixGameEscrow.sol\":3170:3178  gameInfo */\n      dup2\n        /* \"contracts/v2/tTikTrixGameEscrow.sol\":3170:3184  gameInfo.title */\n      0x02\n      add\n        /* \"contracts/v2/tTikTrixGameEscrow.sol\":3170:3192  gameInfo.title = title */\n      swap1\n      dup2\n      tag_268\n      swap2\n      swap1\n      tag_221\n      jump\t// in\n    tag_268:\n      pop\n        /* \"contracts/v2/tTikTrixGameEscrow.sol\":3208:3249  GameUpdated(developerSeq, gameSeq, title) */\n      0x279760c089dcaf505489fffb102c4bf947fb1847e8a7febd514bd92ffe977bc2\n        /* \"contracts/v2/tTikTrixGameEscrow.sol\":3220:3232  developerSeq */\n      dup6\n        /* \"contracts/v2/tTikTrixGameEscrow.sol\":3234:3241  gameSeq */\n      dup6\n        /* \"contracts/v2/tTikTrixGameEscrow.sol\":3243:3248  title */\n      dup6\n        /* \"contracts/v2/tTikTrixGameEscrow.sol\":3208:3249  GameUpdated(developerSeq, gameSeq, title) */\n      mload(0x40)\n      tag_269\n      swap4\n      swap3\n      swap2\n      swap1\n      tag_223\n      jump\t// in\n    tag_269:\n      mload(0x40)\n      dup1\n      swap2\n      sub\n      swap1\n      log1\n        /* \"contracts/v2/tTikTrixGameEscrow.sol\":2954:3256  {... */\n      pop\n        /* \"contracts/v2/tTikTrixGameEscrow.sol\":2844:3256  function gameUpdate(uint256 developerSeq, uint256 gameSeq, string memory title) external onlyRole(ADMIN_ROLE) {... */\n      pop\n      pop\n      pop\n      pop\n      jump\t// out\n        /* \"contracts/v2/tTikTrixGameEscrow.sol\":950:999  mapping(uint256 => MemberInfo) public memberInfos */\n    tag_126:\n      mstore(0x20, 0x05)\n      dup1\n      0x00\n      mstore\n      keccak256(0x00, 0x40)\n      0x00\n      swap2\n      pop\n      swap1\n      pop\n      dup1\n      0x00\n      add\n      sload\n      swap1\n      pop\n      dup2\n      jump\t// out\n        /* \"contracts/v2/tTikTrixGameEscrow.sol\":6352:6534  function gamePlay(uint256 gameSeq, uint256 memberSeq) external {... */\n    tag_131:\n        /* \"contracts/v2/tTikTrixGameEscrow.sol\":6433:6442  gameInfos */\n      0x04\n        /* \"contracts/v2/tTikTrixGameEscrow.sol\":6433:6451  gameInfos[gameSeq] */\n      0x00\n        /* \"contracts/v2/tTikTrixGameEscrow.sol\":6443:6450  gameSeq */\n      dup4\n        /* \"contracts/v2/tTikTrixGameEscrow.sol\":6433:6451  gameInfos[gameSeq] */\n      dup2\n      mstore\n      0x20\n      add\n      swap1\n      dup2\n      mstore\n      0x20\n      add\n      0x00\n      keccak256\n        /* \"contracts/v2/tTikTrixGameEscrow.sol\":6433:6458  gameInfos[gameSeq].exists */\n      0x03\n      add\n      0x00\n      swap1\n      sload\n      swap1\n      0x0100\n      exp\n      swap1\n      div\n      0xff\n      and\n        /* \"contracts/v2/tTikTrixGameEscrow.sol\":6425:6482  require(gameInfos[gameSeq].exists, \"Game does not exist\") */\n      tag_271\n      jumpi\n      mload(0x40)\n      0x08c379a000000000000000000000000000000000000000000000000000000000\n      dup2\n      mstore\n      0x04\n      add\n      tag_272\n      swap1\n      tag_205\n      jump\t// in\n    tag_272:\n      mload(0x40)\n      dup1\n      swap2\n      sub\n      swap1\n      revert\n    tag_271:\n        /* \"contracts/v2/tTikTrixGameEscrow.sol\":6517:6526  memberSeq */\n      dup1\n        /* \"contracts/v2/tTikTrixGameEscrow.sol\":6508:6515  gameSeq */\n      dup3\n        /* \"contracts/v2/tTikTrixGameEscrow.sol\":6497:6527  GamePlayed(gameSeq, memberSeq) */\n      0xcccca5c37cd734d94742d46e24d5fcdc3e6ef8dd90dda510dae0e35530add4a2\n      mload(0x40)\n      mload(0x40)\n      dup1\n      swap2\n      sub\n      swap1\n      log3\n        /* \"contracts/v2/tTikTrixGameEscrow.sol\":6352:6534  function gamePlay(uint256 gameSeq, uint256 memberSeq) external {... */\n      pop\n      pop\n      jump\t// out\n        /* \"contracts/v2/tTikTrixGameEscrow.sol\":2224:2348  function grantAdminRole(address account) public onlyRole(DEFAULT_ADMIN_ROLE) {... */\n    tag_134:\n        /* \"https://github.com/OpenZeppelin/openzeppelin-contracts/blob/v4.8.0/contracts/access/AccessControl.sol\":2072:2076  0x00 */\n      0x00\n        /* \"contracts/v2/tTikTrixGameEscrow.sol\":2281:2299  DEFAULT_ADMIN_ROLE */\n      dup1\n      shl\n        /* \"https://github.com/OpenZeppelin/openzeppelin-contracts/blob/v4.8.0/contracts/access/AccessControl.sol\":2505:2521  _checkRole(role) */\n      tag_274\n        /* \"https://github.com/OpenZeppelin/openzeppelin-contracts/blob/v4.8.0/contracts/access/AccessControl.sol\":2516:2520  role */\n      dup2\n        /* \"https://github.com/OpenZeppelin/openzeppelin-contracts/blob/v4.8.0/contracts/access/AccessControl.sol\":2505:2515  _checkRole */\n      tag_162\n        /* \"https://github.com/OpenZeppelin/openzeppelin-contracts/blob/v4.8.0/contracts/access/AccessControl.sol\":2505:2521  _checkRole(role) */\n      jump\t// in\n    tag_274:\n        /* \"contracts/v2/tTikTrixGameEscrow.sol\":2311:2341  grantRole(ADMIN_ROLE, account) */\n      tag_276\n        /* \"contracts/v2/tTikTrixGameEscrow.sol\":369:392  keccak256(\"ADMIN_ROLE\") */\n      0xa49807205ce4d355092ef5a8a18f56e8913cf4a201fbe287825b095693c21775\n        /* \"contracts/v2/tTikTrixGameEscrow.sol\":2333:2340  account */\n      dup4\n        /* \"contracts/v2/tTikTrixGameEscrow.sol\":2311:2320  grantRole */\n      tag_64\n        /* \"contracts/v2/tTikTrixGameEscrow.sol\":2311:2341  grantRole(ADMIN_ROLE, account) */\n      jump\t// in\n    tag_276:\n        /* \"contracts/v2/tTikTrixGameEscrow.sol\":2224:2348  function grantAdminRole(address account) public onlyRole(DEFAULT_ADMIN_ROLE) {... */\n      pop\n      pop\n      jump\t// out\n        /* \"contracts/v2/tTikTrixGameEscrow.sol\":3928:4905  function challengeRegister(... */\n    tag_137:\n        /* \"contracts/v2/tTikTrixGameEscrow.sol\":4096:4106  challenges */\n      0x03\n        /* \"contracts/v2/tTikTrixGameEscrow.sol\":4096:4116  challenges[yyyymmdd] */\n      0x00\n        /* \"contracts/v2/tTikTrixGameEscrow.sol\":4107:4115  yyyymmdd */\n      dup6\n        /* \"contracts/v2/tTikTrixGameEscrow.sol\":4096:4116  challenges[yyyymmdd] */\n      dup2\n      mstore\n      0x20\n      add\n      swap1\n      dup2\n      mstore\n      0x20\n      add\n      0x00\n      keccak256\n        /* \"contracts/v2/tTikTrixGameEscrow.sol\":4096:4125  challenges[yyyymmdd][gameSeq] */\n      0x00\n        /* \"contracts/v2/tTikTrixGameEscrow.sol\":4117:4124  gameSeq */\n      dup5\n        /* \"contracts/v2/tTikTrixGameEscrow.sol\":4096:4125  challenges[yyyymmdd][gameSeq] */\n      dup2\n      mstore\n      0x20\n      add\n      swap1\n      dup2\n      mstore\n      0x20\n      add\n      0x00\n      keccak256\n        /* \"contracts/v2/tTikTrixGameEscrow.sol\":4096:4136  challenges[yyyymmdd][gameSeq][memberSeq] */\n      0x00\n        /* \"contracts/v2/tTikTrixGameEscrow.sol\":4126:4135  memberSeq */\n      dup4\n        /* \"contracts/v2/tTikTrixGameEscrow.sol\":4096:4136  challenges[yyyymmdd][gameSeq][memberSeq] */\n      dup2\n      mstore\n      0x20\n      add\n      swap1\n      dup2\n      mstore\n      0x20\n      add\n      0x00\n      keccak256\n        /* \"contracts/v2/tTikTrixGameEscrow.sol\":4096:4143  challenges[yyyymmdd][gameSeq][memberSeq].exists */\n      0x04\n      add\n      0x00\n      swap1\n      sload\n      swap1\n      0x0100\n      exp\n      swap1\n      div\n      0xff\n      and\n        /* \"contracts/v2/tTikTrixGameEscrow.sol\":4095:4143  !challenges[yyyymmdd][gameSeq][memberSeq].exists */\n      iszero\n        /* \"contracts/v2/tTikTrixGameEscrow.sol\":4087:4204  require(!challenges[yyyymmdd][gameSeq][memberSeq].exists, \"Challenge already exists for this member, date, and game\") */\n      tag_278\n      jumpi\n      mload(0x40)\n      0x08c379a000000000000000000000000000000000000000000000000000000000\n      dup2\n      mstore\n      0x04\n      add\n      tag_279\n      swap1\n      tag_280\n      jump\t// in\n    tag_279:\n      mload(0x40)\n      dup1\n      swap2\n      sub\n      swap1\n      revert\n    tag_278:\n        /* \"contracts/v2/tTikTrixGameEscrow.sol\":4215:4232  uint256 allowance */\n      0x00\n        /* \"contracts/v2/tTikTrixGameEscrow.sol\":4235:4243  entToken */\n      0x01\n      0x00\n      swap1\n      sload\n      swap1\n      0x0100\n      exp\n      swap1\n      div\n      0xffffffffffffffffffffffffffffffffffffffff\n      and\n        /* \"contracts/v2/tTikTrixGameEscrow.sol\":4235:4253  entToken.allowance */\n      0xffffffffffffffffffffffffffffffffffffffff\n      and\n      0xdd62ed3e\n        /* \"contracts/v2/tTikTrixGameEscrow.sol\":4254:4264  msg.sender */\n      caller\n        /* \"contracts/v2/tTikTrixGameEscrow.sol\":4274:4278  this */\n      address\n        /* \"contracts/v2/tTikTrixGameEscrow.sol\":4235:4280  entToken.allowance(msg.sender, address(this)) */\n      mload(0x40)\n      dup4\n      0xffffffff\n      and\n      0xe0\n      shl\n      dup2\n      mstore\n      0x04\n      add\n      tag_281\n      swap3\n      swap2\n      swap1\n      tag_282\n      jump\t// in\n    tag_281:\n      0x20\n      mload(0x40)\n      dup1\n      dup4\n      sub\n      dup2\n      dup7\n      gas\n      staticcall\n      iszero\n      dup1\n      iszero\n      tag_284\n      jumpi\n      returndatasize\n      0x00\n      dup1\n      returndatacopy\n      revert(0x00, returndatasize)\n    tag_284:\n      pop\n      pop\n      pop\n      pop\n      mload(0x40)\n      returndatasize\n      not(0x1f)\n      0x1f\n      dup3\n      add\n      and\n      dup3\n      add\n      dup1\n      0x40\n      mstore\n      pop\n      dup2\n      add\n      swap1\n      tag_285\n      swap2\n      swap1\n      tag_286\n      jump\t// in\n    tag_285:\n        /* \"contracts/v2/tTikTrixGameEscrow.sol\":4215:4280  uint256 allowance = entToken.allowance(msg.sender, address(this)) */\n      swap1\n      pop\n        /* \"contracts/v2/tTikTrixGameEscrow.sol\":4311:4322  tokenAmount */\n      dup2\n        /* \"contracts/v2/tTikTrixGameEscrow.sol\":4298:4307  allowance */\n      dup2\n        /* \"contracts/v2/tTikTrixGameEscrow.sol\":4298:4322  allowance >= tokenAmount */\n      lt\n      iszero\n        /* \"contracts/v2/tTikTrixGameEscrow.sol\":4290:4355  require(allowance >= tokenAmount, \"Insufficient token allowance\") */\n      tag_287\n      jumpi\n      mload(0x40)\n      0x08c379a000000000000000000000000000000000000000000000000000000000\n      dup2\n      mstore\n      0x04\n      add\n      tag_288\n      swap1\n      tag_289\n      jump\t// in\n    tag_288:\n      mload(0x40)\n      dup1\n      swap2\n      sub\n      swap1\n      revert\n    tag_287:\n        /* \"contracts/v2/tTikTrixGameEscrow.sol\":4366:4381  uint256 balance */\n      0x00\n        /* \"contracts/v2/tTikTrixGameEscrow.sol\":4384:4392  entToken */\n      0x01\n      0x00\n      swap1\n      sload\n      swap1\n      0x0100\n      exp\n      swap1\n      div\n      0xffffffffffffffffffffffffffffffffffffffff\n      and\n        /* \"contracts/v2/tTikTrixGameEscrow.sol\":4384:4402  entToken.balanceOf */\n      0xffffffffffffffffffffffffffffffffffffffff\n      and\n      0x70a08231\n        /* \"contracts/v2/tTikTrixGameEscrow.sol\":4403:4413  msg.sender */\n      caller\n        /* \"contracts/v2/tTikTrixGameEscrow.sol\":4384:4414  entToken.balanceOf(msg.sender) */\n      mload(0x40)\n      dup3\n      0xffffffff\n      and\n      0xe0\n      shl\n      dup2\n      mstore\n      0x04\n      add\n      tag_290\n      swap2\n      swap1\n      tag_291\n      jump\t// in\n    tag_290:\n      0x20\n      mload(0x40)\n      dup1\n      dup4\n      sub\n      dup2\n      dup7\n      gas\n      staticcall\n      iszero\n      dup1\n      iszero\n      tag_293\n      jumpi\n      returndatasize\n      0x00\n      dup1\n      returndatacopy\n      revert(0x00, returndatasize)\n    tag_293:\n      pop\n      pop\n      pop\n      pop\n      mload(0x40)\n      returndatasize\n      not(0x1f)\n      0x1f\n      dup3\n      add\n      and\n      dup3\n      add\n      dup1\n      0x40\n      mstore\n      pop\n      dup2\n      add\n      swap1\n      tag_294\n      swap2\n      swap1\n      tag_286\n      jump\t// in\n    tag_294:\n        /* \"contracts/v2/tTikTrixGameEscrow.sol\":4366:4414  uint256 balance = entToken.balanceOf(msg.sender) */\n      swap1\n      pop\n        /* \"contracts/v2/tTikTrixGameEscrow.sol\":4443:4454  tokenAmount */\n      dup3\n        /* \"contracts/v2/tTikTrixGameEscrow.sol\":4432:4439  balance */\n      dup2\n        /* \"contracts/v2/tTikTrixGameEscrow.sol\":4432:4454  balance >= tokenAmount */\n      lt\n      iszero\n        /* \"contracts/v2/tTikTrixGameEscrow.sol\":4424:4485  require(balance >= tokenAmount, \"Insufficient token balance\") */\n      tag_295\n      jumpi\n      mload(0x40)\n      0x08c379a000000000000000000000000000000000000000000000000000000000\n      dup2\n      mstore\n      0x04\n      add\n      tag_296\n      swap1\n      tag_297\n      jump\t// in\n    tag_296:\n      mload(0x40)\n      dup1\n      swap2\n      sub\n      swap1\n      revert\n    tag_295:\n        /* \"contracts/v2/tTikTrixGameEscrow.sol\":4504:4512  entToken */\n      0x01\n      0x00\n      swap1\n      sload\n      swap1\n      0x0100\n      exp\n      swap1\n      div\n      0xffffffffffffffffffffffffffffffffffffffff\n      and\n        /* \"contracts/v2/tTikTrixGameEscrow.sol\":4504:4525  entToken.transferFrom */\n      0xffffffffffffffffffffffffffffffffffffffff\n      and\n      0x23b872dd\n        /* \"contracts/v2/tTikTrixGameEscrow.sol\":4526:4536  msg.sender */\n      caller\n        /* \"contracts/v2/tTikTrixGameEscrow.sol\":4546:4550  this */\n      address\n        /* \"contracts/v2/tTikTrixGameEscrow.sol\":4553:4564  tokenAmount */\n      dup7\n        /* \"contracts/v2/tTikTrixGameEscrow.sol\":4504:4565  entToken.transferFrom(msg.sender, address(this), tokenAmount) */\n      mload(0x40)\n      dup5\n      0xffffffff\n      and\n      0xe0\n      shl\n      dup2\n      mstore\n      0x04\n      add\n      tag_298\n      swap4\n      swap3\n      swap2\n      swap1\n      tag_299\n      jump\t// in\n    tag_298:\n      0x20\n      mload(0x40)\n      dup1\n      dup4\n      sub\n      dup2\n      0x00\n      dup8\n      gas\n      call\n      iszero\n      dup1\n      iszero\n      tag_301\n      jumpi\n      returndatasize\n      0x00\n      dup1\n      returndatacopy\n      revert(0x00, returndatasize)\n    tag_301:\n      pop\n      pop\n      pop\n      pop\n      mload(0x40)\n      returndatasize\n      not(0x1f)\n      0x1f\n      dup3\n      add\n      and\n      dup3\n      add\n      dup1\n      0x40\n      mstore\n      pop\n      dup2\n      add\n      swap1\n      tag_302\n      swap2\n      swap1\n      tag_194\n      jump\t// in\n    tag_302:\n        /* \"contracts/v2/tTikTrixGameEscrow.sol\":4496:4591  require(entToken.transferFrom(msg.sender, address(this), tokenAmount), \"Token transfer failed\") */\n      tag_303\n      jumpi\n      mload(0x40)\n      0x08c379a000000000000000000000000000000000000000000000000000000000\n      dup2\n      mstore\n      0x04\n      add\n      tag_304\n      swap1\n      tag_197\n      jump\t// in\n    tag_304:\n      mload(0x40)\n      dup1\n      swap2\n      sub\n      swap1\n      revert\n    tag_303:\n        /* \"contracts/v2/tTikTrixGameEscrow.sol\":4645:4821  ChallengeScore({... */\n      mload(0x40)\n      dup1\n      0xa0\n      add\n      0x40\n      mstore\n      dup1\n        /* \"contracts/v2/tTikTrixGameEscrow.sol\":4683:4690  gameSeq */\n      dup7\n        /* \"contracts/v2/tTikTrixGameEscrow.sol\":4645:4821  ChallengeScore({... */\n      dup2\n      mstore\n      0x20\n      add\n        /* \"contracts/v2/tTikTrixGameEscrow.sol\":4715:4724  memberSeq */\n      dup6\n        /* \"contracts/v2/tTikTrixGameEscrow.sol\":4645:4821  ChallengeScore({... */\n      dup2\n      mstore\n      0x20\n      add\n        /* \"contracts/v2/tTikTrixGameEscrow.sol\":4751:4762  tokenAmount */\n      dup5\n        /* \"contracts/v2/tTikTrixGameEscrow.sol\":4645:4821  ChallengeScore({... */\n      dup2\n      mstore\n      0x20\n      add\n        /* \"contracts/v2/tTikTrixGameEscrow.sol\":4783:4784  0 */\n      0x00\n        /* \"contracts/v2/tTikTrixGameEscrow.sol\":4645:4821  ChallengeScore({... */\n      dup2\n      mstore\n      0x20\n      add\n        /* \"contracts/v2/tTikTrixGameEscrow.sol\":4806:4810  true */\n      0x01\n        /* \"contracts/v2/tTikTrixGameEscrow.sol\":4645:4821  ChallengeScore({... */\n      iszero\n      iszero\n      dup2\n      mstore\n      pop\n        /* \"contracts/v2/tTikTrixGameEscrow.sol\":4602:4612  challenges */\n      0x03\n        /* \"contracts/v2/tTikTrixGameEscrow.sol\":4602:4622  challenges[yyyymmdd] */\n      0x00\n        /* \"contracts/v2/tTikTrixGameEscrow.sol\":4613:4621  yyyymmdd */\n      dup9\n        /* \"contracts/v2/tTikTrixGameEscrow.sol\":4602:4622  challenges[yyyymmdd] */\n      dup2\n      mstore\n      0x20\n      add\n      swap1\n      dup2\n      mstore\n      0x20\n      add\n      0x00\n      keccak256\n        /* \"contracts/v2/tTikTrixGameEscrow.sol\":4602:4631  challenges[yyyymmdd][gameSeq] */\n      0x00\n        /* \"contracts/v2/tTikTrixGameEscrow.sol\":4623:4630  gameSeq */\n      dup8\n        /* \"contracts/v2/tTikTrixGameEscrow.sol\":4602:4631  challenges[yyyymmdd][gameSeq] */\n      dup2\n      mstore\n      0x20\n      add\n      swap1\n      dup2\n      mstore\n      0x20\n      add\n      0x00\n      keccak256\n        /* \"contracts/v2/tTikTrixGameEscrow.sol\":4602:4642  challenges[yyyymmdd][gameSeq][memberSeq] */\n      0x00\n        /* \"contracts/v2/tTikTrixGameEscrow.sol\":4632:4641  memberSeq */\n      dup7\n        /* \"contracts/v2/tTikTrixGameEscrow.sol\":4602:4642  challenges[yyyymmdd][gameSeq][memberSeq] */\n      dup2\n      mstore\n      0x20\n      add\n      swap1\n      dup2\n      mstore\n      0x20\n      add\n      0x00\n      keccak256\n        /* \"contracts/v2/tTikTrixGameEscrow.sol\":4602:4821  challenges[yyyymmdd][gameSeq][memberSeq] = ChallengeScore({... */\n      0x00\n      dup3\n      add\n      mload\n      dup2\n      0x00\n      add\n      sstore\n      0x20\n      dup3\n      add\n      mload\n      dup2\n      0x01\n      add\n      sstore\n      0x40\n      dup3\n      add\n      mload\n      dup2\n      0x02\n      add\n      sstore\n      0x60\n      dup3\n      add\n      mload\n      dup2\n      0x03\n      add\n      sstore\n      0x80\n      dup3\n      add\n      mload\n      dup2\n      0x04\n      add\n      exp(0x0100, 0x00)\n      dup2\n      sload\n      dup2\n      0xff\n      mul\n      not\n      and\n      swap1\n      dup4\n      iszero\n      iszero\n      mul\n      or\n      swap1\n      sstore\n      pop\n      swap1\n      pop\n      pop\n        /* \"contracts/v2/tTikTrixGameEscrow.sol\":4875:4884  memberSeq */\n      dup4\n        /* \"contracts/v2/tTikTrixGameEscrow.sol\":4866:4873  gameSeq */\n      dup6\n        /* \"contracts/v2/tTikTrixGameEscrow.sol\":4856:4864  yyyymmdd */\n      dup8\n        /* \"contracts/v2/tTikTrixGameEscrow.sol\":4837:4898  ChallengeRegistred(yyyymmdd, gameSeq, memberSeq, tokenAmount) */\n      0x7bbca5efeebbed029b1684066d1a6e0ade8efe8c578ab0890d4b223e6ec5e50e\n        /* \"contracts/v2/tTikTrixGameEscrow.sol\":4886:4897  tokenAmount */\n      dup7\n        /* \"contracts/v2/tTikTrixGameEscrow.sol\":4837:4898  ChallengeRegistred(yyyymmdd, gameSeq, memberSeq, tokenAmount) */\n      mload(0x40)\n      tag_305\n      swap2\n      swap1\n      tag_128\n      jump\t// in\n    tag_305:\n      mload(0x40)\n      dup1\n      swap2\n      sub\n      swap1\n      log4\n        /* \"contracts/v2/tTikTrixGameEscrow.sol\":4077:4905  {... */\n      pop\n      pop\n        /* \"contracts/v2/tTikTrixGameEscrow.sol\":3928:4905  function challengeRegister(... */\n      pop\n      pop\n      pop\n      pop\n      jump\t// out\n        /* \"contracts/v2/tTikTrixGameEscrow.sol\":6152:6346  function setTokens(address entTokenAddress, address rptTokenAddress) external onlyRole(ADMIN_ROLE) {... */\n    tag_141:\n        /* \"contracts/v2/tTikTrixGameEscrow.sol\":369:392  keccak256(\"ADMIN_ROLE\") */\n      0xa49807205ce4d355092ef5a8a18f56e8913cf4a201fbe287825b095693c21775\n        /* \"https://github.com/OpenZeppelin/openzeppelin-contracts/blob/v4.8.0/contracts/access/AccessControl.sol\":2505:2521  _checkRole(role) */\n      tag_307\n        /* \"https://github.com/OpenZeppelin/openzeppelin-contracts/blob/v4.8.0/contracts/access/AccessControl.sol\":2516:2520  role */\n      dup2\n        /* \"https://github.com/OpenZeppelin/openzeppelin-contracts/blob/v4.8.0/contracts/access/AccessControl.sol\":2505:2515  _checkRole */\n      tag_162\n        /* \"https://github.com/OpenZeppelin/openzeppelin-contracts/blob/v4.8.0/contracts/access/AccessControl.sol\":2505:2521  _checkRole(role) */\n      jump\t// in\n    tag_307:\n        /* \"contracts/v2/tTikTrixGameEscrow.sol\":6279:6294  entTokenAddress */\n      dup3\n        /* \"contracts/v2/tTikTrixGameEscrow.sol\":6261:6269  entToken */\n      0x01\n      0x00\n        /* \"contracts/v2/tTikTrixGameEscrow.sol\":6261:6295  entToken = IERC20(entTokenAddress) */\n      0x0100\n      exp\n      dup2\n      sload\n      dup2\n      0xffffffffffffffffffffffffffffffffffffffff\n      mul\n      not\n      and\n      swap1\n      dup4\n      0xffffffffffffffffffffffffffffffffffffffff\n      and\n      mul\n      or\n      swap1\n      sstore\n      pop\n        /* \"contracts/v2/tTikTrixGameEscrow.sol\":6323:6338  rptTokenAddress */\n      dup2\n        /* \"contracts/v2/tTikTrixGameEscrow.sol\":6305:6313  rptToken */\n      0x02\n      0x00\n        /* \"contracts/v2/tTikTrixGameEscrow.sol\":6305:6339  rptToken = IERC20(rptTokenAddress) */\n      0x0100\n      exp\n      dup2\n      sload\n      dup2\n      0xffffffffffffffffffffffffffffffffffffffff\n      mul\n      not\n      and\n      swap1\n      dup4\n      0xffffffffffffffffffffffffffffffffffffffff\n      and\n      mul\n      or\n      swap1\n      sstore\n      pop\n        /* \"contracts/v2/tTikTrixGameEscrow.sol\":6152:6346  function setTokens(address entTokenAddress, address rptTokenAddress) external onlyRole(ADMIN_ROLE) {... */\n      pop\n      pop\n      pop\n      jump\t// out\n        /* \"https://github.com/OpenZeppelin/openzeppelin-contracts/blob/v4.8.0/contracts/access/AccessControl.sol\":5228:5375  function revokeRole(bytes32 role, address account) public virtual override onlyRole(getRoleAdmin(role)) {... */\n    tag_144:\n        /* \"https://github.com/OpenZeppelin/openzeppelin-contracts/blob/v4.8.0/contracts/access/AccessControl.sol\":5312:5330  getRoleAdmin(role) */\n      tag_309\n        /* \"https://github.com/OpenZeppelin/openzeppelin-contracts/blob/v4.8.0/contracts/access/AccessControl.sol\":5325:5329  role */\n      dup3\n        /* \"https://github.com/OpenZeppelin/openzeppelin-contracts/blob/v4.8.0/contracts/access/AccessControl.sol\":5312:5324  getRoleAdmin */\n      tag_52\n        /* \"https://github.com/OpenZeppelin/openzeppelin-contracts/blob/v4.8.0/contracts/access/AccessControl.sol\":5312:5330  getRoleAdmin(role) */\n      jump\t// in\n    tag_309:\n        /* \"https://github.com/OpenZeppelin/openzeppelin-contracts/blob/v4.8.0/contracts/access/AccessControl.sol\":2505:2521  _checkRole(role) */\n      tag_311\n        /* \"https://github.com/OpenZeppelin/openzeppelin-contracts/blob/v4.8.0/contracts/access/AccessControl.sol\":2516:2520  role */\n      dup2\n        /* \"https://github.com/OpenZeppelin/openzeppelin-contracts/blob/v4.8.0/contracts/access/AccessControl.sol\":2505:2515  _checkRole */\n      tag_162\n        /* \"https://github.com/OpenZeppelin/openzeppelin-contracts/blob/v4.8.0/contracts/access/AccessControl.sol\":2505:2521  _checkRole(role) */\n      jump\t// in\n    tag_311:\n        /* \"https://github.com/OpenZeppelin/openzeppelin-contracts/blob/v4.8.0/contracts/access/AccessControl.sol\":5342:5368  _revokeRole(role, account) */\n      tag_313\n        /* \"https://github.com/OpenZeppelin/openzeppelin-contracts/blob/v4.8.0/contracts/access/AccessControl.sol\":5354:5358  role */\n      dup4\n        /* \"https://github.com/OpenZeppelin/openzeppelin-contracts/blob/v4.8.0/contracts/access/AccessControl.sol\":5360:5367  account */\n      dup4\n        /* \"https://github.com/OpenZeppelin/openzeppelin-contracts/blob/v4.8.0/contracts/access/AccessControl.sol\":5342:5353  _revokeRole */\n      tag_173\n        /* \"https://github.com/OpenZeppelin/openzeppelin-contracts/blob/v4.8.0/contracts/access/AccessControl.sol\":5342:5368  _revokeRole(role, account) */\n      jump\t// in\n    tag_313:\n        /* \"https://github.com/OpenZeppelin/openzeppelin-contracts/blob/v4.8.0/contracts/access/AccessControl.sol\":5228:5375  function revokeRole(bytes32 role, address account) public virtual override onlyRole(getRoleAdmin(role)) {... */\n      pop\n      pop\n      pop\n      jump\t// out\n        /* \"contracts/v2/tTikTrixGameEscrow.sol\":399:421  IERC20 public entToken */\n    tag_146:\n      0x01\n      0x00\n      swap1\n      sload\n      swap1\n      0x0100\n      exp\n      swap1\n      div\n      0xffffffffffffffffffffffffffffffffffffffff\n      and\n      dup2\n      jump\t// out\n        /* \"contracts/v2/tTikTrixGameEscrow.sol\":5171:5681  function rankScoreUpdateChallenge(... */\n    tag_150:\n        /* \"contracts/v2/tTikTrixGameEscrow.sol\":369:392  keccak256(\"ADMIN_ROLE\") */\n      0xa49807205ce4d355092ef5a8a18f56e8913cf4a201fbe287825b095693c21775\n        /* \"https://github.com/OpenZeppelin/openzeppelin-contracts/blob/v4.8.0/contracts/access/AccessControl.sol\":2505:2521  _checkRole(role) */\n      tag_315\n        /* \"https://github.com/OpenZeppelin/openzeppelin-contracts/blob/v4.8.0/contracts/access/AccessControl.sol\":2516:2520  role */\n      dup2\n        /* \"https://github.com/OpenZeppelin/openzeppelin-contracts/blob/v4.8.0/contracts/access/AccessControl.sol\":2505:2515  _checkRole */\n      tag_162\n        /* \"https://github.com/OpenZeppelin/openzeppelin-contracts/blob/v4.8.0/contracts/access/AccessControl.sol\":2505:2521  _checkRole(role) */\n      jump\t// in\n    tag_315:\n        /* \"contracts/v2/tTikTrixGameEscrow.sol\":5363:5373  challenges */\n      0x03\n        /* \"contracts/v2/tTikTrixGameEscrow.sol\":5363:5383  challenges[yyyymmdd] */\n      0x00\n        /* \"contracts/v2/tTikTrixGameEscrow.sol\":5374:5382  yyyymmdd */\n      dup7\n        /* \"contracts/v2/tTikTrixGameEscrow.sol\":5363:5383  challenges[yyyymmdd] */\n      dup2\n      mstore\n      0x20\n      add\n      swap1\n      dup2\n      mstore\n      0x20\n      add\n      0x00\n      keccak256\n        /* \"contracts/v2/tTikTrixGameEscrow.sol\":5363:5392  challenges[yyyymmdd][gameSeq] */\n      0x00\n        /* \"contracts/v2/tTikTrixGameEscrow.sol\":5384:5391  gameSeq */\n      dup6\n        /* \"contracts/v2/tTikTrixGameEscrow.sol\":5363:5392  challenges[yyyymmdd][gameSeq] */\n      dup2\n      mstore\n      0x20\n      add\n      swap1\n      dup2\n      mstore\n      0x20\n      add\n      0x00\n      keccak256\n        /* \"contracts/v2/tTikTrixGameEscrow.sol\":5363:5403  challenges[yyyymmdd][gameSeq][memberSeq] */\n      0x00\n        /* \"contracts/v2/tTikTrixGameEscrow.sol\":5393:5402  memberSeq */\n      dup5\n        /* \"contracts/v2/tTikTrixGameEscrow.sol\":5363:5403  challenges[yyyymmdd][gameSeq][memberSeq] */\n      dup2\n      mstore\n      0x20\n      add\n      swap1\n      dup2\n      mstore\n      0x20\n      add\n      0x00\n      keccak256\n        /* \"contracts/v2/tTikTrixGameEscrow.sol\":5363:5410  challenges[yyyymmdd][gameSeq][memberSeq].exists */\n      0x04\n      add\n      0x00\n      swap1\n      sload\n      swap1\n      0x0100\n      exp\n      swap1\n      div\n      0xff\n      and\n        /* \"contracts/v2/tTikTrixGameEscrow.sol\":5355:5439  require(challenges[yyyymmdd][gameSeq][memberSeq].exists, \"Challenge does not exist\") */\n      tag_317\n      jumpi\n      mload(0x40)\n      0x08c379a000000000000000000000000000000000000000000000000000000000\n      dup2\n      mstore\n      0x04\n      add\n      tag_318\n      swap1\n      tag_319\n      jump\t// in\n    tag_318:\n      mload(0x40)\n      dup1\n      swap2\n      sub\n      swap1\n      revert\n    tag_317:\n        /* \"contracts/v2/tTikTrixGameEscrow.sol\":5465:5475  challenges */\n      0x03\n        /* \"contracts/v2/tTikTrixGameEscrow.sol\":5465:5485  challenges[yyyymmdd] */\n      0x00\n        /* \"contracts/v2/tTikTrixGameEscrow.sol\":5476:5484  yyyymmdd */\n      dup7\n        /* \"contracts/v2/tTikTrixGameEscrow.sol\":5465:5485  challenges[yyyymmdd] */\n      dup2\n      mstore\n      0x20\n      add\n      swap1\n      dup2\n      mstore\n      0x20\n      add\n      0x00\n      keccak256\n        /* \"contracts/v2/tTikTrixGameEscrow.sol\":5465:5494  challenges[yyyymmdd][gameSeq] */\n      0x00\n        /* \"contracts/v2/tTikTrixGameEscrow.sol\":5486:5493  gameSeq */\n      dup6\n        /* \"contracts/v2/tTikTrixGameEscrow.sol\":5465:5494  challenges[yyyymmdd][gameSeq] */\n      dup2\n      mstore\n      0x20\n      add\n      swap1\n      dup2\n      mstore\n      0x20\n      add\n      0x00\n      keccak256\n        /* \"contracts/v2/tTikTrixGameEscrow.sol\":5465:5505  challenges[yyyymmdd][gameSeq][memberSeq] */\n      0x00\n        /* \"contracts/v2/tTikTrixGameEscrow.sol\":5495:5504  memberSeq */\n      dup5\n        /* \"contracts/v2/tTikTrixGameEscrow.sol\":5465:5505  challenges[yyyymmdd][gameSeq][memberSeq] */\n      dup2\n      mstore\n      0x20\n      add\n      swap1\n      dup2\n      mstore\n      0x20\n      add\n      0x00\n      keccak256\n        /* \"contracts/v2/tTikTrixGameEscrow.sol\":5465:5511  challenges[yyyymmdd][gameSeq][memberSeq].score */\n      0x03\n      add\n      sload\n        /* \"contracts/v2/tTikTrixGameEscrow.sol\":5454:5462  newScore */\n      dup3\n        /* \"contracts/v2/tTikTrixGameEscrow.sol\":5454:5511  newScore > challenges[yyyymmdd][gameSeq][memberSeq].score */\n      gt\n        /* \"contracts/v2/tTikTrixGameEscrow.sol\":5450:5595  if (newScore > challenges[yyyymmdd][gameSeq][memberSeq].score) {... */\n      iszero\n      tag_320\n      jumpi\n        /* \"contracts/v2/tTikTrixGameEscrow.sol\":5576:5584  newScore */\n      dup2\n        /* \"contracts/v2/tTikTrixGameEscrow.sol\":5527:5537  challenges */\n      0x03\n        /* \"contracts/v2/tTikTrixGameEscrow.sol\":5527:5547  challenges[yyyymmdd] */\n      0x00\n        /* \"contracts/v2/tTikTrixGameEscrow.sol\":5538:5546  yyyymmdd */\n      dup8\n        /* \"contracts/v2/tTikTrixGameEscrow.sol\":5527:5547  challenges[yyyymmdd] */\n      dup2\n      mstore\n      0x20\n      add\n      swap1\n      dup2\n      mstore\n      0x20\n      add\n      0x00\n      keccak256\n        /* \"contracts/v2/tTikTrixGameEscrow.sol\":5527:5556  challenges[yyyymmdd][gameSeq] */\n      0x00\n        /* \"contracts/v2/tTikTrixGameEscrow.sol\":5548:5555  gameSeq */\n      dup7\n        /* \"contracts/v2/tTikTrixGameEscrow.sol\":5527:5556  challenges[yyyymmdd][gameSeq] */\n      dup2\n      mstore\n      0x20\n      add\n      swap1\n      dup2\n      mstore\n      0x20\n      add\n      0x00\n      keccak256\n        /* \"contracts/v2/tTikTrixGameEscrow.sol\":5527:5567  challenges[yyyymmdd][gameSeq][memberSeq] */\n      0x00\n        /* \"contracts/v2/tTikTrixGameEscrow.sol\":5557:5566  memberSeq */\n      dup6\n        /* \"contracts/v2/tTikTrixGameEscrow.sol\":5527:5567  challenges[yyyymmdd][gameSeq][memberSeq] */\n      dup2\n      mstore\n      0x20\n      add\n      swap1\n      dup2\n      mstore\n      0x20\n      add\n      0x00\n      keccak256\n        /* \"contracts/v2/tTikTrixGameEscrow.sol\":5527:5573  challenges[yyyymmdd][gameSeq][memberSeq].score */\n      0x03\n      add\n        /* \"contracts/v2/tTikTrixGameEscrow.sol\":5527:5584  challenges[yyyymmdd][gameSeq][memberSeq].score = newScore */\n      dup2\n      swap1\n      sstore\n      pop\n        /* \"contracts/v2/tTikTrixGameEscrow.sol\":5450:5595  if (newScore > challenges[yyyymmdd][gameSeq][memberSeq].score) {... */\n    tag_320:\n        /* \"contracts/v2/tTikTrixGameEscrow.sol\":5654:5663  memberSeq */\n      dup3\n        /* \"contracts/v2/tTikTrixGameEscrow.sol\":5645:5652  gameSeq */\n      dup5\n        /* \"contracts/v2/tTikTrixGameEscrow.sol\":5635:5643  yyyymmdd */\n      dup7\n        /* \"contracts/v2/tTikTrixGameEscrow.sol\":5610:5674  RankScoreUpdateChallenge(yyyymmdd, gameSeq, memberSeq, newScore) */\n      0x2bbc9ad1871f4b99168aa3febe254b9069558ff96ed7746d1677869afa38243f\n        /* \"contracts/v2/tTikTrixGameEscrow.sol\":5665:5673  newScore */\n      dup6\n        /* \"contracts/v2/tTikTrixGameEscrow.sol\":5610:5674  RankScoreUpdateChallenge(yyyymmdd, gameSeq, memberSeq, newScore) */\n      mload(0x40)\n      tag_321\n      swap2\n      swap1\n      tag_128\n      jump\t// in\n    tag_321:\n      mload(0x40)\n      dup1\n      swap2\n      sub\n      swap1\n      log4\n        /* \"contracts/v2/tTikTrixGameEscrow.sol\":5171:5681  function rankScoreUpdateChallenge(... */\n      pop\n      pop\n      pop\n      pop\n      pop\n      jump\t// out\n        /* \"contracts/v2/tTikTrixGameEscrow.sol\":6726:6907  function gameLike(uint256 gameSeq, uint256 memberSeq) external {... */\n    tag_153:\n        /* \"contracts/v2/tTikTrixGameEscrow.sol\":6807:6816  gameInfos */\n      0x04\n        /* \"contracts/v2/tTikTrixGameEscrow.sol\":6807:6825  gameInfos[gameSeq] */\n      0x00\n        /* \"contracts/v2/tTikTrixGameEscrow.sol\":6817:6824  gameSeq */\n      dup4\n        /* \"contracts/v2/tTikTrixGameEscrow.sol\":6807:6825  gameInfos[gameSeq] */\n      dup2\n      mstore\n      0x20\n      add\n      swap1\n      dup2\n      mstore\n      0x20\n      add\n      0x00\n      keccak256\n        /* \"contracts/v2/tTikTrixGameEscrow.sol\":6807:6832  gameInfos[gameSeq].exists */\n      0x03\n      add\n      0x00\n      swap1\n      sload\n      swap1\n      0x0100\n      exp\n      swap1\n      div\n      0xff\n      and\n        /* \"contracts/v2/tTikTrixGameEscrow.sol\":6799:6856  require(gameInfos[gameSeq].exists, \"Game does not exist\") */\n      tag_323\n      jumpi\n      mload(0x40)\n      0x08c379a000000000000000000000000000000000000000000000000000000000\n      dup2\n      mstore\n      0x04\n      add\n      tag_324\n      swap1\n      tag_205\n      jump\t// in\n    tag_324:\n      mload(0x40)\n      dup1\n      swap2\n      sub\n      swap1\n      revert\n    tag_323:\n        /* \"contracts/v2/tTikTrixGameEscrow.sol\":6890:6899  memberSeq */\n      dup1\n        /* \"contracts/v2/tTikTrixGameEscrow.sol\":6881:6888  gameSeq */\n      dup3\n        /* \"contracts/v2/tTikTrixGameEscrow.sol\":6871:6900  GameLiked(gameSeq, memberSeq) */\n      0x51dbb46f6f6d290ac0b2b3fb0b015e2065756f1b9ec382651fe728757bf362fe\n      mload(0x40)\n      mload(0x40)\n      dup1\n      swap2\n      sub\n      swap1\n      log3\n        /* \"contracts/v2/tTikTrixGameEscrow.sol\":6726:6907  function gameLike(uint256 gameSeq, uint256 memberSeq) external {... */\n      pop\n      pop\n      jump\t// out\n        /* \"https://github.com/OpenZeppelin/openzeppelin-contracts/blob/v4.8.0/contracts/utils/introspection/ERC165.sol\":829:984  function supportsInterface(bytes4 interfaceId) public view virtual override returns (bool) {... */\n    tag_157:\n        /* \"https://github.com/OpenZeppelin/openzeppelin-contracts/blob/v4.8.0/contracts/utils/introspection/ERC165.sol\":914:918  bool */\n      0x00\n        /* \"https://github.com/OpenZeppelin/openzeppelin-contracts/blob/v4.8.0/contracts/utils/introspection/ERC165.sol\":952:977  type(IERC165).interfaceId */\n      0x01ffc9a700000000000000000000000000000000000000000000000000000000\n        /* \"https://github.com/OpenZeppelin/openzeppelin-contracts/blob/v4.8.0/contracts/utils/introspection/ERC165.sol\":937:977  interfaceId == type(IERC165).interfaceId */\n      not(0xffffffffffffffffffffffffffffffffffffffffffffffffffffffff)\n      and\n        /* \"https://github.com/OpenZeppelin/openzeppelin-contracts/blob/v4.8.0/contracts/utils/introspection/ERC165.sol\":937:948  interfaceId */\n      dup3\n        /* \"https://github.com/OpenZeppelin/openzeppelin-contracts/blob/v4.8.0/contracts/utils/introspection/ERC165.sol\":937:977  interfaceId == type(IERC165).interfaceId */\n      not(0xffffffffffffffffffffffffffffffffffffffffffffffffffffffff)\n      and\n      eq\n        /* \"https://github.com/OpenZeppelin/openzeppelin-contracts/blob/v4.8.0/contracts/utils/introspection/ERC165.sol\":930:977  return interfaceId == type(IERC165).interfaceId */\n      swap1\n      pop\n        /* \"https://github.com/OpenZeppelin/openzeppelin-contracts/blob/v4.8.0/contracts/utils/introspection/ERC165.sol\":829:984  function supportsInterface(bytes4 interfaceId) public view virtual override returns (bool) {... */\n      swap2\n      swap1\n      pop\n      jump\t// out\n        /* \"https://github.com/OpenZeppelin/openzeppelin-contracts/blob/v4.8.0/contracts/access/AccessControl.sol\":3334:3437  function _checkRole(bytes32 role) internal view virtual {... */\n    tag_162:\n        /* \"https://github.com/OpenZeppelin/openzeppelin-contracts/blob/v4.8.0/contracts/access/AccessControl.sol\":3400:3430  _checkRole(role, _msgSender()) */\n      tag_327\n        /* \"https://github.com/OpenZeppelin/openzeppelin-contracts/blob/v4.8.0/contracts/access/AccessControl.sol\":3411:3415  role */\n      dup2\n        /* \"https://github.com/OpenZeppelin/openzeppelin-contracts/blob/v4.8.0/contracts/access/AccessControl.sol\":3417:3429  _msgSender() */\n      tag_328\n        /* \"https://github.com/OpenZeppelin/openzeppelin-contracts/blob/v4.8.0/contracts/access/AccessControl.sol\":3417:3427  _msgSender */\n      tag_168\n        /* \"https://github.com/OpenZeppelin/openzeppelin-contracts/blob/v4.8.0/contracts/access/AccessControl.sol\":3417:3429  _msgSender() */\n      jump\t// in\n    tag_328:\n        /* \"https://github.com/OpenZeppelin/openzeppelin-contracts/blob/v4.8.0/contracts/access/AccessControl.sol\":3400:3410  _checkRole */\n      tag_329\n        /* \"https://github.com/OpenZeppelin/openzeppelin-contracts/blob/v4.8.0/contracts/access/AccessControl.sol\":3400:3430  _checkRole(role, _msgSender()) */\n      jump\t// in\n    tag_327:\n        /* \"https://github.com/OpenZeppelin/openzeppelin-contracts/blob/v4.8.0/contracts/access/AccessControl.sol\":3334:3437  function _checkRole(bytes32 role) internal view virtual {... */\n      pop\n      jump\t// out\n        /* \"https://github.com/OpenZeppelin/openzeppelin-contracts/blob/v4.8.0/contracts/access/AccessControl.sol\":7461:7694  function _grantRole(bytes32 role, address account) internal virtual {... */\n    tag_165:\n        /* \"https://github.com/OpenZeppelin/openzeppelin-contracts/blob/v4.8.0/contracts/access/AccessControl.sol\":7544:7566  hasRole(role, account) */\n      tag_331\n        /* \"https://github.com/OpenZeppelin/openzeppelin-contracts/blob/v4.8.0/contracts/access/AccessControl.sol\":7552:7556  role */\n      dup3\n        /* \"https://github.com/OpenZeppelin/openzeppelin-contracts/blob/v4.8.0/contracts/access/AccessControl.sol\":7558:7565  account */\n      dup3\n        /* \"https://github.com/OpenZeppelin/openzeppelin-contracts/blob/v4.8.0/contracts/access/AccessControl.sol\":7544:7551  hasRole */\n      tag_99\n        /* \"https://github.com/OpenZeppelin/openzeppelin-contracts/blob/v4.8.0/contracts/access/AccessControl.sol\":7544:7566  hasRole(role, account) */\n      jump\t// in\n    tag_331:\n        /* \"https://github.com/OpenZeppelin/openzeppelin-contracts/blob/v4.8.0/contracts/access/AccessControl.sol\":7539:7688  if (!hasRole(role, account)) {... */\n      tag_332\n      jumpi\n        /* \"https://github.com/OpenZeppelin/openzeppelin-contracts/blob/v4.8.0/contracts/access/AccessControl.sol\":7614:7618  true */\n      0x01\n        /* \"https://github.com/OpenZeppelin/openzeppelin-contracts/blob/v4.8.0/contracts/access/AccessControl.sol\":7582:7588  _roles */\n      0x00\n        /* \"https://github.com/OpenZeppelin/openzeppelin-contracts/blob/v4.8.0/contracts/access/AccessControl.sol\":7582:7594  _roles[role] */\n      dup1\n        /* \"https://github.com/OpenZeppelin/openzeppelin-contracts/blob/v4.8.0/contracts/access/AccessControl.sol\":7589:7593  role */\n      dup5\n        /* \"https://github.com/OpenZeppelin/openzeppelin-contracts/blob/v4.8.0/contracts/access/AccessControl.sol\":7582:7594  _roles[role] */\n      dup2\n      mstore\n      0x20\n      add\n      swap1\n      dup2\n      mstore\n      0x20\n      add\n      0x00\n      keccak256\n        /* \"https://github.com/OpenZeppelin/openzeppelin-contracts/blob/v4.8.0/contracts/access/AccessControl.sol\":7582:7602  _roles[role].members */\n      0x00\n      add\n        /* \"https://github.com/OpenZeppelin/openzeppelin-contracts/blob/v4.8.0/contracts/access/AccessControl.sol\":7582:7611  _roles[role].members[account] */\n      0x00\n        /* \"https://github.com/OpenZeppelin/openzeppelin-contracts/blob/v4.8.0/contracts/access/AccessControl.sol\":7603:7610  account */\n      dup4\n        /* \"https://github.com/OpenZeppelin/openzeppelin-contracts/blob/v4.8.0/contracts/access/AccessControl.sol\":7582:7611  _roles[role].members[account] */\n      0xffffffffffffffffffffffffffffffffffffffff\n      and\n      0xffffffffffffffffffffffffffffffffffffffff\n      and\n      dup2\n      mstore\n      0x20\n      add\n      swap1\n      dup2\n      mstore\n      0x20\n      add\n      0x00\n      keccak256\n      0x00\n        /* \"https://github.com/OpenZeppelin/openzeppelin-contracts/blob/v4.8.0/contracts/access/AccessControl.sol\":7582:7618  _roles[role].members[account] = true */\n      0x0100\n      exp\n      dup2\n      sload\n      dup2\n      0xff\n      mul\n      not\n      and\n      swap1\n      dup4\n      iszero\n      iszero\n      mul\n      or\n      swap1\n      sstore\n      pop\n        /* \"https://github.com/OpenZeppelin/openzeppelin-contracts/blob/v4.8.0/contracts/access/AccessControl.sol\":7664:7676  _msgSender() */\n      tag_333\n        /* \"https://github.com/OpenZeppelin/openzeppelin-contracts/blob/v4.8.0/contracts/access/AccessControl.sol\":7664:7674  _msgSender */\n      tag_168\n        /* \"https://github.com/OpenZeppelin/openzeppelin-contracts/blob/v4.8.0/contracts/access/AccessControl.sol\":7664:7676  _msgSender() */\n      jump\t// in\n    tag_333:\n        /* \"https://github.com/OpenZeppelin/openzeppelin-contracts/blob/v4.8.0/contracts/access/AccessControl.sol\":7637:7677  RoleGranted(role, account, _msgSender()) */\n      0xffffffffffffffffffffffffffffffffffffffff\n      and\n        /* \"https://github.com/OpenZeppelin/openzeppelin-contracts/blob/v4.8.0/contracts/access/AccessControl.sol\":7655:7662  account */\n      dup2\n        /* \"https://github.com/OpenZeppelin/openzeppelin-contracts/blob/v4.8.0/contracts/access/AccessControl.sol\":7637:7677  RoleGranted(role, account, _msgSender()) */\n      0xffffffffffffffffffffffffffffffffffffffff\n      and\n        /* \"https://github.com/OpenZeppelin/openzeppelin-contracts/blob/v4.8.0/contracts/access/AccessControl.sol\":7649:7653  role */\n      dup4\n        /* \"https://github.com/OpenZeppelin/openzeppelin-contracts/blob/v4.8.0/contracts/access/AccessControl.sol\":7637:7677  RoleGranted(role, account, _msgSender()) */\n      0x2f8788117e7eff1d82e926ec794901d17c78024a50270940304540a733656f0d\n      mload(0x40)\n      mload(0x40)\n      dup1\n      swap2\n      sub\n      swap1\n      log4\n        /* \"https://github.com/OpenZeppelin/openzeppelin-contracts/blob/v4.8.0/contracts/access/AccessControl.sol\":7539:7688  if (!hasRole(role, account)) {... */\n    tag_332:\n        /* \"https://github.com/OpenZeppelin/openzeppelin-contracts/blob/v4.8.0/contracts/access/AccessControl.sol\":7461:7694  function _grantRole(bytes32 role, address account) internal virtual {... */\n      pop\n      pop\n      jump\t// out\n        /* \"https://github.com/OpenZeppelin/openzeppelin-contracts/blob/v4.8.0/contracts/utils/Context.sol\":640:736  function _msgSender() internal view virtual returns (address) {... */\n    tag_168:\n        /* \"https://github.com/OpenZeppelin/openzeppelin-contracts/blob/v4.8.0/contracts/utils/Context.sol\":693:700  address */\n      0x00\n        /* \"https://github.com/OpenZeppelin/openzeppelin-contracts/blob/v4.8.0/contracts/utils/Context.sol\":719:729  msg.sender */\n      caller\n        /* \"https://github.com/OpenZeppelin/openzeppelin-contracts/blob/v4.8.0/contracts/utils/Context.sol\":712:729  return msg.sender */\n      swap1\n      pop\n        /* \"https://github.com/OpenZeppelin/openzeppelin-contracts/blob/v4.8.0/contracts/utils/Context.sol\":640:736  function _msgSender() internal view virtual returns (address) {... */\n      swap1\n      jump\t// out\n        /* \"https://github.com/OpenZeppelin/openzeppelin-contracts/blob/v4.8.0/contracts/access/AccessControl.sol\":7865:8099  function _revokeRole(bytes32 role, address account) internal virtual {... */\n    tag_173:\n        /* \"https://github.com/OpenZeppelin/openzeppelin-contracts/blob/v4.8.0/contracts/access/AccessControl.sol\":7948:7970  hasRole(role, account) */\n      tag_336\n        /* \"https://github.com/OpenZeppelin/openzeppelin-contracts/blob/v4.8.0/contracts/access/AccessControl.sol\":7956:7960  role */\n      dup3\n        /* \"https://github.com/OpenZeppelin/openzeppelin-contracts/blob/v4.8.0/contracts/access/AccessControl.sol\":7962:7969  account */\n      dup3\n        /* \"https://github.com/OpenZeppelin/openzeppelin-contracts/blob/v4.8.0/contracts/access/AccessControl.sol\":7948:7955  hasRole */\n      tag_99\n        /* \"https://github.com/OpenZeppelin/openzeppelin-contracts/blob/v4.8.0/contracts/access/AccessControl.sol\":7948:7970  hasRole(role, account) */\n      jump\t// in\n    tag_336:\n        /* \"https://github.com/OpenZeppelin/openzeppelin-contracts/blob/v4.8.0/contracts/access/AccessControl.sol\":7944:8093  if (hasRole(role, account)) {... */\n      iszero\n      tag_337\n      jumpi\n        /* \"https://github.com/OpenZeppelin/openzeppelin-contracts/blob/v4.8.0/contracts/access/AccessControl.sol\":8018:8023  false */\n      0x00\n        /* \"https://github.com/OpenZeppelin/openzeppelin-contracts/blob/v4.8.0/contracts/access/AccessControl.sol\":7986:7992  _roles */\n      dup1\n        /* \"https://github.com/OpenZeppelin/openzeppelin-contracts/blob/v4.8.0/contracts/access/AccessControl.sol\":7986:7998  _roles[role] */\n      0x00\n        /* \"https://github.com/OpenZeppelin/openzeppelin-contracts/blob/v4.8.0/contracts/access/AccessControl.sol\":7993:7997  role */\n      dup5\n        /* \"https://github.com/OpenZeppelin/openzeppelin-contracts/blob/v4.8.0/contracts/access/AccessControl.sol\":7986:7998  _roles[role] */\n      dup2\n      mstore\n      0x20\n      add\n      swap1\n      dup2\n      mstore\n      0x20\n      add\n      0x00\n      keccak256\n        /* \"https://github.com/OpenZeppelin/openzeppelin-contracts/blob/v4.8.0/contracts/access/AccessControl.sol\":7986:8006  _roles[role].members */\n      0x00\n      add\n        /* \"https://github.com/OpenZeppelin/openzeppelin-contracts/blob/v4.8.0/contracts/access/AccessControl.sol\":7986:8015  _roles[role].members[account] */\n      0x00\n        /* \"https://github.com/OpenZeppelin/openzeppelin-contracts/blob/v4.8.0/contracts/access/AccessControl.sol\":8007:8014  account */\n      dup4\n        /* \"https://github.com/OpenZeppelin/openzeppelin-contracts/blob/v4.8.0/contracts/access/AccessControl.sol\":7986:8015  _roles[role].members[account] */\n      0xffffffffffffffffffffffffffffffffffffffff\n      and\n      0xffffffffffffffffffffffffffffffffffffffff\n      and\n      dup2\n      mstore\n      0x20\n      add\n      swap1\n      dup2\n      mstore\n      0x20\n      add\n      0x00\n      keccak256\n      0x00\n        /* \"https://github.com/OpenZeppelin/openzeppelin-contracts/blob/v4.8.0/contracts/access/AccessControl.sol\":7986:8023  _roles[role].members[account] = false */\n      0x0100\n      exp\n      dup2\n      sload\n      dup2\n      0xff\n      mul\n      not\n      and\n      swap1\n      dup4\n      iszero\n      iszero\n      mul\n      or\n      swap1\n      sstore\n      pop\n        /* \"https://github.com/OpenZeppelin/openzeppelin-contracts/blob/v4.8.0/contracts/access/AccessControl.sol\":8069:8081  _msgSender() */\n      tag_338\n        /* \"https://github.com/OpenZeppelin/openzeppelin-contracts/blob/v4.8.0/contracts/access/AccessControl.sol\":8069:8079  _msgSender */\n      tag_168\n        /* \"https://github.com/OpenZeppelin/openzeppelin-contracts/blob/v4.8.0/contracts/access/AccessControl.sol\":8069:8081  _msgSender() */\n      jump\t// in\n    tag_338:\n        /* \"https://github.com/OpenZeppelin/openzeppelin-contracts/blob/v4.8.0/contracts/access/AccessControl.sol\":8042:8082  RoleRevoked(role, account, _msgSender()) */\n      0xffffffffffffffffffffffffffffffffffffffff\n      and\n        /* \"https://github.com/OpenZeppelin/openzeppelin-contracts/blob/v4.8.0/contracts/access/AccessControl.sol\":8060:8067  account */\n      dup2\n        /* \"https://github.com/OpenZeppelin/openzeppelin-contracts/blob/v4.8.0/contracts/access/AccessControl.sol\":8042:8082  RoleRevoked(role, account, _msgSender()) */\n      0xffffffffffffffffffffffffffffffffffffffff\n      and\n        /* \"https://github.com/OpenZeppelin/openzeppelin-contracts/blob/v4.8.0/contracts/access/AccessControl.sol\":8054:8058  role */\n      dup4\n        /* \"https://github.com/OpenZeppelin/openzeppelin-contracts/blob/v4.8.0/contracts/access/AccessControl.sol\":8042:8082  RoleRevoked(role, account, _msgSender()) */\n      0xf6391f5c32d9c69d2a47ea670b442974b53935d1edc7fd64eb21e047a839171b\n      mload(0x40)\n      mload(0x40)\n      dup1\n      swap2\n      sub\n      swap1\n      log4\n        /* \"https://github.com/OpenZeppelin/openzeppelin-contracts/blob/v4.8.0/contracts/access/AccessControl.sol\":7944:8093  if (hasRole(role, account)) {... */\n    tag_337:\n        /* \"https://github.com/OpenZeppelin/openzeppelin-contracts/blob/v4.8.0/contracts/access/AccessControl.sol\":7865:8099  function _revokeRole(bytes32 role, address account) internal virtual {... */\n      pop\n      pop\n      jump\t// out\n        /* \"https://github.com/OpenZeppelin/openzeppelin-contracts/blob/v4.8.0/contracts/access/AccessControl.sol\":3718:4197  function _checkRole(bytes32 role, address account) internal view virtual {... */\n    tag_329:\n        /* \"https://github.com/OpenZeppelin/openzeppelin-contracts/blob/v4.8.0/contracts/access/AccessControl.sol\":3806:3828  hasRole(role, account) */\n      tag_340\n        /* \"https://github.com/OpenZeppelin/openzeppelin-contracts/blob/v4.8.0/contracts/access/AccessControl.sol\":3814:3818  role */\n      dup3\n        /* \"https://github.com/OpenZeppelin/openzeppelin-contracts/blob/v4.8.0/contracts/access/AccessControl.sol\":3820:3827  account */\n      dup3\n        /* \"https://github.com/OpenZeppelin/openzeppelin-contracts/blob/v4.8.0/contracts/access/AccessControl.sol\":3806:3813  hasRole */\n      tag_99\n        /* \"https://github.com/OpenZeppelin/openzeppelin-contracts/blob/v4.8.0/contracts/access/AccessControl.sol\":3806:3828  hasRole(role, account) */\n      jump\t// in\n    tag_340:\n        /* \"https://github.com/OpenZeppelin/openzeppelin-contracts/blob/v4.8.0/contracts/access/AccessControl.sol\":3801:4191  if (!hasRole(role, account)) {... */\n      tag_341\n      jumpi\n        /* \"https://github.com/OpenZeppelin/openzeppelin-contracts/blob/v4.8.0/contracts/access/AccessControl.sol\":3989:4017  Strings.toHexString(account) */\n      tag_342\n        /* \"https://github.com/OpenZeppelin/openzeppelin-contracts/blob/v4.8.0/contracts/access/AccessControl.sol\":4009:4016  account */\n      dup2\n        /* \"https://github.com/OpenZeppelin/openzeppelin-contracts/blob/v4.8.0/contracts/access/AccessControl.sol\":3989:4008  Strings.toHexString */\n      tag_343\n        /* \"https://github.com/OpenZeppelin/openzeppelin-contracts/blob/v4.8.0/contracts/access/AccessControl.sol\":3989:4017  Strings.toHexString(account) */\n      jump\t// in\n    tag_342:\n        /* \"https://github.com/OpenZeppelin/openzeppelin-contracts/blob/v4.8.0/contracts/access/AccessControl.sol\":4088:4126  Strings.toHexString(uint256(role), 32) */\n      tag_344\n        /* \"https://github.com/OpenZeppelin/openzeppelin-contracts/blob/v4.8.0/contracts/access/AccessControl.sol\":4116:4120  role */\n      dup4\n        /* \"https://github.com/OpenZeppelin/openzeppelin-contracts/blob/v4.8.0/contracts/access/AccessControl.sol\":4108:4121  uint256(role) */\n      0x00\n      shr\n        /* \"https://github.com/OpenZeppelin/openzeppelin-contracts/blob/v4.8.0/contracts/access/AccessControl.sol\":4123:4125  32 */\n      0x20\n        /* \"https://github.com/OpenZeppelin/openzeppelin-contracts/blob/v4.8.0/contracts/access/AccessControl.sol\":4088:4107  Strings.toHexString */\n      tag_345\n        /* \"https://github.com/OpenZeppelin/openzeppelin-contracts/blob/v4.8.0/contracts/access/AccessControl.sol\":4088:4126  Strings.toHexString(uint256(role), 32) */\n      jump\t// in\n    tag_344:\n        /* \"https://github.com/OpenZeppelin/openzeppelin-contracts/blob/v4.8.0/contracts/access/AccessControl.sol\":3896:4148  abi.encodePacked(... */\n      add(0x20, mload(0x40))\n      tag_346\n      swap3\n      swap2\n      swap1\n      tag_347\n      jump\t// in\n    tag_346:\n      mload(0x40)\n      0x20\n      dup2\n      dup4\n      sub\n      sub\n      dup2\n      mstore\n      swap1\n      0x40\n      mstore\n        /* \"https://github.com/OpenZeppelin/openzeppelin-contracts/blob/v4.8.0/contracts/access/AccessControl.sol\":3844:4180  revert(... */\n      mload(0x40)\n      0x08c379a000000000000000000000000000000000000000000000000000000000\n      dup2\n      mstore\n      0x04\n      add\n      tag_348\n      swap2\n      swap1\n      tag_349\n      jump\t// in\n    tag_348:\n      mload(0x40)\n      dup1\n      swap2\n      sub\n      swap1\n      revert\n        /* \"https://github.com/OpenZeppelin/openzeppelin-contracts/blob/v4.8.0/contracts/access/AccessControl.sol\":3801:4191  if (!hasRole(role, account)) {... */\n    tag_341:\n        /* \"https://github.com/OpenZeppelin/openzeppelin-contracts/blob/v4.8.0/contracts/access/AccessControl.sol\":3718:4197  function _checkRole(bytes32 role, address account) internal view virtual {... */\n      pop\n      pop\n      jump\t// out\n        /* \"https://github.com/OpenZeppelin/openzeppelin-contracts/blob/v4.8.0/contracts/utils/Strings.sol\":2102:2251  function toHexString(address addr) internal pure returns (string memory) {... */\n    tag_343:\n        /* \"https://github.com/OpenZeppelin/openzeppelin-contracts/blob/v4.8.0/contracts/utils/Strings.sol\":2160:2173  string memory */\n      0x60\n        /* \"https://github.com/OpenZeppelin/openzeppelin-contracts/blob/v4.8.0/contracts/utils/Strings.sol\":2192:2244  toHexString(uint256(uint160(addr)), _ADDRESS_LENGTH) */\n      tag_351\n        /* \"https://github.com/OpenZeppelin/openzeppelin-contracts/blob/v4.8.0/contracts/utils/Strings.sol\":2220:2224  addr */\n      dup3\n        /* \"https://github.com/OpenZeppelin/openzeppelin-contracts/blob/v4.8.0/contracts/utils/Strings.sol\":2204:2226  uint256(uint160(addr)) */\n      0xffffffffffffffffffffffffffffffffffffffff\n      and\n        /* \"https://github.com/OpenZeppelin/openzeppelin-contracts/blob/v4.8.0/contracts/utils/Strings.sol\":311:313  20 */\n      0x14\n        /* \"https://github.com/OpenZeppelin/openzeppelin-contracts/blob/v4.8.0/contracts/utils/Strings.sol\":2192:2244  toHexString(uint256(uint160(addr)), _ADDRESS_LENGTH) */\n      0xff\n      and\n        /* \"https://github.com/OpenZeppelin/openzeppelin-contracts/blob/v4.8.0/contracts/utils/Strings.sol\":2192:2203  toHexString */\n      tag_345\n        /* \"https://github.com/OpenZeppelin/openzeppelin-contracts/blob/v4.8.0/contracts/utils/Strings.sol\":2192:2244  toHexString(uint256(uint160(addr)), _ADDRESS_LENGTH) */\n      jump\t// in\n    tag_351:\n        /* \"https://github.com/OpenZeppelin/openzeppelin-contracts/blob/v4.8.0/contracts/utils/Strings.sol\":2185:2244  return toHexString(uint256(uint160(addr)), _ADDRESS_LENGTH) */\n      swap1\n      pop\n        /* \"https://github.com/OpenZeppelin/openzeppelin-contracts/blob/v4.8.0/contracts/utils/Strings.sol\":2102:2251  function toHexString(address addr) internal pure returns (string memory) {... */\n      swap2\n      swap1\n      pop\n      jump\t// out\n        /* \"https://github.com/OpenZeppelin/openzeppelin-contracts/blob/v4.8.0/contracts/utils/Strings.sol\":1513:1950  function toHexString(uint256 value, uint256 length) internal pure returns (string memory) {... */\n    tag_345:\n        /* \"https://github.com/OpenZeppelin/openzeppelin-contracts/blob/v4.8.0/contracts/utils/Strings.sol\":1588:1601  string memory */\n      0x60\n        /* \"https://github.com/OpenZeppelin/openzeppelin-contracts/blob/v4.8.0/contracts/utils/Strings.sol\":1613:1632  bytes memory buffer */\n      0x00\n        /* \"https://github.com/OpenZeppelin/openzeppelin-contracts/blob/v4.8.0/contracts/utils/Strings.sol\":1658:1659  2 */\n      0x02\n        /* \"https://github.com/OpenZeppelin/openzeppelin-contracts/blob/v4.8.0/contracts/utils/Strings.sol\":1649:1655  length */\n      dup4\n        /* \"https://github.com/OpenZeppelin/openzeppelin-contracts/blob/v4.8.0/contracts/utils/Strings.sol\":1645:1646  2 */\n      0x02\n        /* \"https://github.com/OpenZeppelin/openzeppelin-contracts/blob/v4.8.0/contracts/utils/Strings.sol\":1645:1655  2 * length */\n      tag_353\n      swap2\n      swap1\n      tag_354\n      jump\t// in\n    tag_353:\n        /* \"https://github.com/OpenZeppelin/openzeppelin-contracts/blob/v4.8.0/contracts/utils/Strings.sol\":1645:1659  2 * length + 2 */\n      tag_355\n      swap2\n      swap1\n      tag_356\n      jump\t// in\n    tag_355:\n        /* \"https://github.com/OpenZeppelin/openzeppelin-contracts/blob/v4.8.0/contracts/utils/Strings.sol\":1635:1660  new bytes(2 * length + 2) */\n      0xffffffffffffffff\n      dup2\n      gt\n      iszero\n      tag_357\n      jumpi\n      tag_358\n      tag_359\n      jump\t// in\n    tag_358:\n    tag_357:\n      mload(0x40)\n      swap1\n      dup1\n      dup3\n      mstore\n      dup1\n      0x1f\n      add\n      not(0x1f)\n      and\n      0x20\n      add\n      dup3\n      add\n      0x40\n      mstore\n      dup1\n      iszero\n      tag_360\n      jumpi\n      dup2\n      0x20\n      add\n      0x01\n      dup3\n      mul\n      dup1\n      calldatasize\n      dup4\n      calldatacopy\n      dup1\n      dup3\n      add\n      swap2\n      pop\n      pop\n      swap1\n      pop\n    tag_360:\n      pop\n        /* \"https://github.com/OpenZeppelin/openzeppelin-contracts/blob/v4.8.0/contracts/utils/Strings.sol\":1613:1660  bytes memory buffer = new bytes(2 * length + 2) */\n      swap1\n      pop\n        /* \"https://github.com/OpenZeppelin/openzeppelin-contracts/blob/v4.8.0/contracts/utils/Strings.sol\":1670:1685  buffer[0] = \"0\" */\n      0x3000000000000000000000000000000000000000000000000000000000000000\n        /* \"https://github.com/OpenZeppelin/openzeppelin-contracts/blob/v4.8.0/contracts/utils/Strings.sol\":1670:1676  buffer */\n      dup2\n        /* \"https://github.com/OpenZeppelin/openzeppelin-contracts/blob/v4.8.0/contracts/utils/Strings.sol\":1677:1678  0 */\n      0x00\n        /* \"https://github.com/OpenZeppelin/openzeppelin-contracts/blob/v4.8.0/contracts/utils/Strings.sol\":1670:1679  buffer[0] */\n      dup2\n      mload\n      dup2\n      lt\n      tag_361\n      jumpi\n      tag_362\n      tag_185\n      jump\t// in\n    tag_362:\n    tag_361:\n      0x20\n      add\n      add\n        /* \"https://github.com/OpenZeppelin/openzeppelin-contracts/blob/v4.8.0/contracts/utils/Strings.sol\":1670:1685  buffer[0] = \"0\" */\n      swap1\n      not(0xffffffffffffffffffffffffffffffffffffffffffffffffffffffffffffff)\n      and\n      swap1\n      dup2\n      0x00\n      byte\n      swap1\n      mstore8\n      pop\n        /* \"https://github.com/OpenZeppelin/openzeppelin-contracts/blob/v4.8.0/contracts/utils/Strings.sol\":1695:1710  buffer[1] = \"x\" */\n      0x7800000000000000000000000000000000000000000000000000000000000000\n        /* \"https://github.com/OpenZeppelin/openzeppelin-contracts/blob/v4.8.0/contracts/utils/Strings.sol\":1695:1701  buffer */\n      dup2\n        /* \"https://github.com/OpenZeppelin/openzeppelin-contracts/blob/v4.8.0/contracts/utils/Strings.sol\":1702:1703  1 */\n      0x01\n        /* \"https://github.com/OpenZeppelin/openzeppelin-contracts/blob/v4.8.0/contracts/utils/Strings.sol\":1695:1704  buffer[1] */\n      dup2\n      mload\n      dup2\n      lt\n      tag_363\n      jumpi\n      tag_364\n      tag_185\n      jump\t// in\n    tag_364:\n    tag_363:\n      0x20\n      add\n      add\n        /* \"https://github.com/OpenZeppelin/openzeppelin-contracts/blob/v4.8.0/contracts/utils/Strings.sol\":1695:1710  buffer[1] = \"x\" */\n      swap1\n      not(0xffffffffffffffffffffffffffffffffffffffffffffffffffffffffffffff)\n      and\n      swap1\n      dup2\n      0x00\n      byte\n      swap1\n      mstore8\n      pop\n        /* \"https://github.com/OpenZeppelin/openzeppelin-contracts/blob/v4.8.0/contracts/utils/Strings.sol\":1725:1734  uint256 i */\n      0x00\n        /* \"https://github.com/OpenZeppelin/openzeppelin-contracts/blob/v4.8.0/contracts/utils/Strings.sol\":1750:1751  1 */\n      0x01\n        /* \"https://github.com/OpenZeppelin/openzeppelin-contracts/blob/v4.8.0/contracts/utils/Strings.sol\":1741:1747  length */\n      dup5\n        /* \"https://github.com/OpenZeppelin/openzeppelin-contracts/blob/v4.8.0/contracts/utils/Strings.sol\":1737:1738  2 */\n      0x02\n        /* \"https://github.com/OpenZeppelin/openzeppelin-contracts/blob/v4.8.0/contracts/utils/Strings.sol\":1737:1747  2 * length */\n      tag_368\n      swap2\n      swap1\n      tag_354\n      jump\t// in\n    tag_368:\n        /* \"https://github.com/OpenZeppelin/openzeppelin-contracts/blob/v4.8.0/contracts/utils/Strings.sol\":1737:1751  2 * length + 1 */\n      tag_369\n      swap2\n      swap1\n      tag_356\n      jump\t// in\n    tag_369:\n        /* \"https://github.com/OpenZeppelin/openzeppelin-contracts/blob/v4.8.0/contracts/utils/Strings.sol\":1725:1751  uint256 i = 2 * length + 1 */\n      swap1\n      pop\n        /* \"https://github.com/OpenZeppelin/openzeppelin-contracts/blob/v4.8.0/contracts/utils/Strings.sol\":1720:1848  for (uint256 i = 2 * length + 1; i > 1; --i) {... */\n    tag_365:\n        /* \"https://github.com/OpenZeppelin/openzeppelin-contracts/blob/v4.8.0/contracts/utils/Strings.sol\":1757:1758  1 */\n      0x01\n        /* \"https://github.com/OpenZeppelin/openzeppelin-contracts/blob/v4.8.0/contracts/utils/Strings.sol\":1753:1754  i */\n      dup2\n        /* \"https://github.com/OpenZeppelin/openzeppelin-contracts/blob/v4.8.0/contracts/utils/Strings.sol\":1753:1758  i > 1 */\n      gt\n        /* \"https://github.com/OpenZeppelin/openzeppelin-contracts/blob/v4.8.0/contracts/utils/Strings.sol\":1720:1848  for (uint256 i = 2 * length + 1; i > 1; --i) {... */\n      iszero\n      tag_366\n      jumpi\n        /* \"https://github.com/OpenZeppelin/openzeppelin-contracts/blob/v4.8.0/contracts/utils/Strings.sol\":1791:1799  _SYMBOLS */\n      0x3031323334353637383961626364656600000000000000000000000000000000\n        /* \"https://github.com/OpenZeppelin/openzeppelin-contracts/blob/v4.8.0/contracts/utils/Strings.sol\":1808:1811  0xf */\n      0x0f\n        /* \"https://github.com/OpenZeppelin/openzeppelin-contracts/blob/v4.8.0/contracts/utils/Strings.sol\":1800:1805  value */\n      dup7\n        /* \"https://github.com/OpenZeppelin/openzeppelin-contracts/blob/v4.8.0/contracts/utils/Strings.sol\":1800:1811  value & 0xf */\n      and\n        /* \"https://github.com/OpenZeppelin/openzeppelin-contracts/blob/v4.8.0/contracts/utils/Strings.sol\":1791:1812  _SYMBOLS[value & 0xf] */\n      0x10\n      dup2\n      lt\n      tag_370\n      jumpi\n      tag_371\n      tag_185\n      jump\t// in\n    tag_371:\n    tag_370:\n      byte\n      0xf8\n      shl\n        /* \"https://github.com/OpenZeppelin/openzeppelin-contracts/blob/v4.8.0/contracts/utils/Strings.sol\":1779:1785  buffer */\n      dup3\n        /* \"https://github.com/OpenZeppelin/openzeppelin-contracts/blob/v4.8.0/contracts/utils/Strings.sol\":1786:1787  i */\n      dup3\n        /* \"https://github.com/OpenZeppelin/openzeppelin-contracts/blob/v4.8.0/contracts/utils/Strings.sol\":1779:1788  buffer[i] */\n      dup2\n      mload\n      dup2\n      lt\n      tag_372\n      jumpi\n      tag_373\n      tag_185\n      jump\t// in\n    tag_373:\n    tag_372:\n      0x20\n      add\n      add\n        /* \"https://github.com/OpenZeppelin/openzeppelin-contracts/blob/v4.8.0/contracts/utils/Strings.sol\":1779:1812  buffer[i] = _SYMBOLS[value & 0xf] */\n      swap1\n      not(0xffffffffffffffffffffffffffffffffffffffffffffffffffffffffffffff)\n      and\n      swap1\n      dup2\n      0x00\n      byte\n      swap1\n      mstore8\n      pop\n        /* \"https://github.com/OpenZeppelin/openzeppelin-contracts/blob/v4.8.0/contracts/utils/Strings.sol\":1836:1837  4 */\n      0x04\n        /* \"https://github.com/OpenZeppelin/openzeppelin-contracts/blob/v4.8.0/contracts/utils/Strings.sol\":1826:1837  value >>= 4 */\n      dup6\n      swap1\n      shr\n      swap5\n      pop\n        /* \"https://github.com/OpenZeppelin/openzeppelin-contracts/blob/v4.8.0/contracts/utils/Strings.sol\":1760:1763  --i */\n      dup1\n      tag_374\n      swap1\n      tag_375\n      jump\t// in\n    tag_374:\n      swap1\n      pop\n        /* \"https://github.com/OpenZeppelin/openzeppelin-contracts/blob/v4.8.0/contracts/utils/Strings.sol\":1720:1848  for (uint256 i = 2 * length + 1; i > 1; --i) {... */\n      jump(tag_365)\n    tag_366:\n      pop\n        /* \"https://github.com/OpenZeppelin/openzeppelin-contracts/blob/v4.8.0/contracts/utils/Strings.sol\":1874:1875  0 */\n      0x00\n        /* \"https://github.com/OpenZeppelin/openzeppelin-contracts/blob/v4.8.0/contracts/utils/Strings.sol\":1865:1870  value */\n      dup5\n        /* \"https://github.com/OpenZeppelin/openzeppelin-contracts/blob/v4.8.0/contracts/utils/Strings.sol\":1865:1875  value == 0 */\n      eq\n        /* \"https://github.com/OpenZeppelin/openzeppelin-contracts/blob/v4.8.0/contracts/utils/Strings.sol\":1857:1912  require(value == 0, \"Strings: hex length insufficient\") */\n      tag_376\n      jumpi\n      mload(0x40)\n      0x08c379a000000000000000000000000000000000000000000000000000000000\n      dup2\n      mstore\n      0x04\n      add\n      tag_377\n      swap1\n      tag_378\n      jump\t// in\n    tag_377:\n      mload(0x40)\n      dup1\n      swap2\n      sub\n      swap1\n      revert\n    tag_376:\n        /* \"https://github.com/OpenZeppelin/openzeppelin-contracts/blob/v4.8.0/contracts/utils/Strings.sol\":1936:1942  buffer */\n      dup1\n        /* \"https://github.com/OpenZeppelin/openzeppelin-contracts/blob/v4.8.0/contracts/utils/Strings.sol\":1922:1943  return string(buffer) */\n      swap2\n      pop\n      pop\n        /* \"https://github.com/OpenZeppelin/openzeppelin-contracts/blob/v4.8.0/contracts/utils/Strings.sol\":1513:1950  function toHexString(uint256 value, uint256 length) internal pure returns (string memory) {... */\n      swap3\n      swap2\n      pop\n      pop\n      jump\t// out\n    tag_201:\n      mload(0x40)\n      dup1\n      0x80\n      add\n      0x40\n      mstore\n      dup1\n      0x00\n      dup2\n      mstore\n      0x20\n      add\n      0x00\n      dup2\n      mstore\n      0x20\n      add\n      0x60\n      dup2\n      mstore\n      0x20\n      add\n      iszero(iszero(0x00))\n      dup2\n      mstore\n      pop\n      swap1\n      jump\t// out\n    tag_234:\n      pop\n      dup1\n      sload\n      tag_379\n      swap1\n      tag_207\n      jump\t// in\n    tag_379:\n      0x00\n      dup3\n      sstore\n      dup1\n      0x1f\n      lt\n      tag_381\n      jumpi\n      pop\n      jump(tag_380)\n    tag_381:\n      0x1f\n      add\n      0x20\n      swap1\n      div\n      swap1\n      0x00\n      mstore\n      keccak256(0x00, 0x20)\n      swap1\n      dup2\n      add\n      swap1\n      tag_382\n      swap2\n      swap1\n      tag_383\n      jump\t// in\n    tag_382:\n    tag_380:\n      pop\n      jump\t// out\n    tag_258:\n      mload(0x40)\n      dup1\n      0x20\n      add\n      0x40\n      mstore\n      dup1\n      0x00\n      dup2\n      mstore\n      pop\n      swap1\n      jump\t// out\n    tag_383:\n    tag_384:\n      dup1\n      dup3\n      gt\n      iszero\n      tag_385\n      jumpi\n      0x00\n      dup2\n      0x00\n      swap1\n      sstore\n      pop\n      0x01\n      add\n      jump(tag_384)\n    tag_385:\n      pop\n      swap1\n      jump\t// out\n        /* \"#utility.yul\":7:82   */\n    tag_386:\n        /* \"#utility.yul\":40:46   */\n      0x00\n        /* \"#utility.yul\":73:75   */\n      0x40\n        /* \"#utility.yul\":67:76   */\n      mload\n        /* \"#utility.yul\":57:76   */\n      swap1\n      pop\n        /* \"#utility.yul\":7:82   */\n      swap1\n      jump\t// out\n        /* \"#utility.yul\":88:205   */\n    tag_387:\n        /* \"#utility.yul\":197:198   */\n      0x00\n        /* \"#utility.yul\":194:195   */\n      dup1\n        /* \"#utility.yul\":187:199   */\n      revert\n        /* \"#utility.yul\":211:328   */\n    tag_388:\n        /* \"#utility.yul\":320:321   */\n      0x00\n        /* \"#utility.yul\":317:318   */\n      dup1\n        /* \"#utility.yul\":310:322   */\n      revert\n        /* \"#utility.yul\":334:483   */\n    tag_389:\n        /* \"#utility.yul\":370:377   */\n      0x00\n        /* \"#utility.yul\":410:476   */\n      0xffffffff00000000000000000000000000000000000000000000000000000000\n        /* \"#utility.yul\":403:408   */\n      dup3\n        /* \"#utility.yul\":399:477   */\n      and\n        /* \"#utility.yul\":388:477   */\n      swap1\n      pop\n        /* \"#utility.yul\":334:483   */\n      swap2\n      swap1\n      pop\n      jump\t// out\n        /* \"#utility.yul\":489:609   */\n    tag_390:\n        /* \"#utility.yul\":561:584   */\n      tag_499\n        /* \"#utility.yul\":578:583   */\n      dup2\n        /* \"#utility.yul\":561:584   */\n      tag_389\n      jump\t// in\n    tag_499:\n        /* \"#utility.yul\":554:559   */\n      dup2\n        /* \"#utility.yul\":551:585   */\n      eq\n        /* \"#utility.yul\":541:603   */\n      tag_500\n      jumpi\n        /* \"#utility.yul\":599:600   */\n      0x00\n        /* \"#utility.yul\":596:597   */\n      dup1\n        /* \"#utility.yul\":589:601   */\n      revert\n        /* \"#utility.yul\":541:603   */\n    tag_500:\n        /* \"#utility.yul\":489:609   */\n      pop\n      jump\t// out\n        /* \"#utility.yul\":615:752   */\n    tag_391:\n        /* \"#utility.yul\":660:665   */\n      0x00\n        /* \"#utility.yul\":698:704   */\n      dup2\n        /* \"#utility.yul\":685:705   */\n      calldataload\n        /* \"#utility.yul\":676:705   */\n      swap1\n      pop\n        /* \"#utility.yul\":714:746   */\n      tag_502\n        /* \"#utility.yul\":740:745   */\n      dup2\n        /* \"#utility.yul\":714:746   */\n      tag_390\n      jump\t// in\n    tag_502:\n        /* \"#utility.yul\":615:752   */\n      swap3\n      swap2\n      pop\n      pop\n      jump\t// out\n        /* \"#utility.yul\":758:1085   */\n    tag_41:\n        /* \"#utility.yul\":816:822   */\n      0x00\n        /* \"#utility.yul\":865:867   */\n      0x20\n        /* \"#utility.yul\":853:862   */\n      dup3\n        /* \"#utility.yul\":844:851   */\n      dup5\n        /* \"#utility.yul\":840:863   */\n      sub\n        /* \"#utility.yul\":836:868   */\n      slt\n        /* \"#utility.yul\":833:952   */\n      iszero\n      tag_504\n      jumpi\n        /* \"#utility.yul\":871:950   */\n      tag_505\n      tag_387\n      jump\t// in\n    tag_505:\n        /* \"#utility.yul\":833:952   */\n    tag_504:\n        /* \"#utility.yul\":991:992   */\n      0x00\n        /* \"#utility.yul\":1016:1068   */\n      tag_506\n        /* \"#utility.yul\":1060:1067   */\n      dup5\n        /* \"#utility.yul\":1051:1057   */\n      dup3\n        /* \"#utility.yul\":1040:1049   */\n      dup6\n        /* \"#utility.yul\":1036:1058   */\n      add\n        /* \"#utility.yul\":1016:1068   */\n      tag_391\n      jump\t// in\n    tag_506:\n        /* \"#utility.yul\":1006:1068   */\n      swap2\n      pop\n        /* \"#utility.yul\":962:1078   */\n      pop\n        /* \"#utility.yul\":758:1085   */\n      swap3\n      swap2\n      pop\n      pop\n      jump\t// out\n        /* \"#utility.yul\":1091:1181   */\n    tag_392:\n        /* \"#utility.yul\":1125:1132   */\n      0x00\n        /* \"#utility.yul\":1168:1173   */\n      dup2\n        /* \"#utility.yul\":1161:1174   */\n      iszero\n        /* \"#utility.yul\":1154:1175   */\n      iszero\n        /* \"#utility.yul\":1143:1175   */\n      swap1\n      pop\n        /* \"#utility.yul\":1091:1181   */\n      swap2\n      swap1\n      pop\n      jump\t// out\n        /* \"#utility.yul\":1187:1296   */\n    tag_393:\n        /* \"#utility.yul\":1268:1289   */\n      tag_509\n        /* \"#utility.yul\":1283:1288   */\n      dup2\n        /* \"#utility.yul\":1268:1289   */\n      tag_392\n      jump\t// in\n    tag_509:\n        /* \"#utility.yul\":1263:1266   */\n      dup3\n        /* \"#utility.yul\":1256:1290   */\n      mstore\n        /* \"#utility.yul\":1187:1296   */\n      pop\n      pop\n      jump\t// out\n        /* \"#utility.yul\":1302:1512   */\n    tag_44:\n        /* \"#utility.yul\":1389:1393   */\n      0x00\n        /* \"#utility.yul\":1427:1429   */\n      0x20\n        /* \"#utility.yul\":1416:1425   */\n      dup3\n        /* \"#utility.yul\":1412:1430   */\n      add\n        /* \"#utility.yul\":1404:1430   */\n      swap1\n      pop\n        /* \"#utility.yul\":1440:1505   */\n      tag_511\n        /* \"#utility.yul\":1502:1503   */\n      0x00\n        /* \"#utility.yul\":1491:1500   */\n      dup4\n        /* \"#utility.yul\":1487:1504   */\n      add\n        /* \"#utility.yul\":1478:1484   */\n      dup5\n        /* \"#utility.yul\":1440:1505   */\n      tag_393\n      jump\t// in\n    tag_511:\n        /* \"#utility.yul\":1302:1512   */\n      swap3\n      swap2\n      pop\n      pop\n      jump\t// out\n        /* \"#utility.yul\":1518:1644   */\n    tag_394:\n        /* \"#utility.yul\":1555:1562   */\n      0x00\n        /* \"#utility.yul\":1595:1637   */\n      0xffffffffffffffffffffffffffffffffffffffff\n        /* \"#utility.yul\":1588:1593   */\n      dup3\n        /* \"#utility.yul\":1584:1638   */\n      and\n        /* \"#utility.yul\":1573:1638   */\n      swap1\n      pop\n        /* \"#utility.yul\":1518:1644   */\n      swap2\n      swap1\n      pop\n      jump\t// out\n        /* \"#utility.yul\":1650:1710   */\n    tag_395:\n        /* \"#utility.yul\":1678:1681   */\n      0x00\n        /* \"#utility.yul\":1699:1704   */\n      dup2\n        /* \"#utility.yul\":1692:1704   */\n      swap1\n      pop\n        /* \"#utility.yul\":1650:1710   */\n      swap2\n      swap1\n      pop\n      jump\t// out\n        /* \"#utility.yul\":1716:1858   */\n    tag_396:\n        /* \"#utility.yul\":1766:1775   */\n      0x00\n        /* \"#utility.yul\":1799:1852   */\n      tag_515\n        /* \"#utility.yul\":1817:1851   */\n      tag_516\n        /* \"#utility.yul\":1826:1850   */\n      tag_517\n        /* \"#utility.yul\":1844:1849   */\n      dup5\n        /* \"#utility.yul\":1826:1850   */\n      tag_394\n      jump\t// in\n    tag_517:\n        /* \"#utility.yul\":1817:1851   */\n      tag_395\n      jump\t// in\n    tag_516:\n        /* \"#utility.yul\":1799:1852   */\n      tag_394\n      jump\t// in\n    tag_515:\n        /* \"#utility.yul\":1786:1852   */\n      swap1\n      pop\n        /* \"#utility.yul\":1716:1858   */\n      swap2\n      swap1\n      pop\n      jump\t// out\n        /* \"#utility.yul\":1864:1990   */\n    tag_397:\n        /* \"#utility.yul\":1914:1923   */\n      0x00\n        /* \"#utility.yul\":1947:1984   */\n      tag_519\n        /* \"#utility.yul\":1978:1983   */\n      dup3\n        /* \"#utility.yul\":1947:1984   */\n      tag_396\n      jump\t// in\n    tag_519:\n        /* \"#utility.yul\":1934:1984   */\n      swap1\n      pop\n        /* \"#utility.yul\":1864:1990   */\n      swap2\n      swap1\n      pop\n      jump\t// out\n        /* \"#utility.yul\":1996:2137   */\n    tag_398:\n        /* \"#utility.yul\":2061:2070   */\n      0x00\n        /* \"#utility.yul\":2094:2131   */\n      tag_521\n        /* \"#utility.yul\":2125:2130   */\n      dup3\n        /* \"#utility.yul\":2094:2131   */\n      tag_397\n      jump\t// in\n    tag_521:\n        /* \"#utility.yul\":2081:2131   */\n      swap1\n      pop\n        /* \"#utility.yul\":1996:2137   */\n      swap2\n      swap1\n      pop\n      jump\t// out\n        /* \"#utility.yul\":2143:2304   */\n    tag_399:\n        /* \"#utility.yul\":2245:2297   */\n      tag_523\n        /* \"#utility.yul\":2291:2296   */\n      dup2\n        /* \"#utility.yul\":2245:2297   */\n      tag_398\n      jump\t// in\n    tag_523:\n        /* \"#utility.yul\":2240:2243   */\n      dup3\n        /* \"#utility.yul\":2233:2298   */\n      mstore\n        /* \"#utility.yul\":2143:2304   */\n      pop\n      pop\n      jump\t// out\n        /* \"#utility.yul\":2310:2562   */\n    tag_48:\n        /* \"#utility.yul\":2418:2422   */\n      0x00\n        /* \"#utility.yul\":2456:2458   */\n      0x20\n        /* \"#utility.yul\":2445:2454   */\n      dup3\n        /* \"#utility.yul\":2441:2459   */\n      add\n        /* \"#utility.yul\":2433:2459   */\n      swap1\n      pop\n        /* \"#utility.yul\":2469:2555   */\n      tag_525\n        /* \"#utility.yul\":2552:2553   */\n      0x00\n        /* \"#utility.yul\":2541:2550   */\n      dup4\n        /* \"#utility.yul\":2537:2554   */\n      add\n        /* \"#utility.yul\":2528:2534   */\n      dup5\n        /* \"#utility.yul\":2469:2555   */\n      tag_399\n      jump\t// in\n    tag_525:\n        /* \"#utility.yul\":2310:2562   */\n      swap3\n      swap2\n      pop\n      pop\n      jump\t// out\n        /* \"#utility.yul\":2568:2645   */\n    tag_400:\n        /* \"#utility.yul\":2605:2612   */\n      0x00\n        /* \"#utility.yul\":2634:2639   */\n      dup2\n        /* \"#utility.yul\":2623:2639   */\n      swap1\n      pop\n        /* \"#utility.yul\":2568:2645   */\n      swap2\n      swap1\n      pop\n      jump\t// out\n        /* \"#utility.yul\":2651:2773   */\n    tag_401:\n        /* \"#utility.yul\":2724:2748   */\n      tag_528\n        /* \"#utility.yul\":2742:2747   */\n      dup2\n        /* \"#utility.yul\":2724:2748   */\n      tag_400\n      jump\t// in\n    tag_528:\n        /* \"#utility.yul\":2717:2722   */\n      dup2\n        /* \"#utility.yul\":2714:2749   */\n      eq\n        /* \"#utility.yul\":2704:2767   */\n      tag_529\n      jumpi\n        /* \"#utility.yul\":2763:2764   */\n      0x00\n        /* \"#utility.yul\":2760:2761   */\n      dup1\n        /* \"#utility.yul\":2753:2765   */\n      revert\n        /* \"#utility.yul\":2704:2767   */\n    tag_529:\n        /* \"#utility.yul\":2651:2773   */\n      pop\n      jump\t// out\n        /* \"#utility.yul\":2779:2918   */\n    tag_402:\n        /* \"#utility.yul\":2825:2830   */\n      0x00\n        /* \"#utility.yul\":2863:2869   */\n      dup2\n        /* \"#utility.yul\":2850:2870   */\n      calldataload\n        /* \"#utility.yul\":2841:2870   */\n      swap1\n      pop\n        /* \"#utility.yul\":2879:2912   */\n      tag_531\n        /* \"#utility.yul\":2906:2911   */\n      dup2\n        /* \"#utility.yul\":2879:2912   */\n      tag_401\n      jump\t// in\n    tag_531:\n        /* \"#utility.yul\":2779:2918   */\n      swap3\n      swap2\n      pop\n      pop\n      jump\t// out\n        /* \"#utility.yul\":2924:3253   */\n    tag_51:\n        /* \"#utility.yul\":2983:2989   */\n      0x00\n        /* \"#utility.yul\":3032:3034   */\n      0x20\n        /* \"#utility.yul\":3020:3029   */\n      dup3\n        /* \"#utility.yul\":3011:3018   */\n      dup5\n        /* \"#utility.yul\":3007:3030   */\n      sub\n        /* \"#utility.yul\":3003:3035   */\n      slt\n        /* \"#utility.yul\":3000:3119   */\n      iszero\n      tag_533\n      jumpi\n        /* \"#utility.yul\":3038:3117   */\n      tag_534\n      tag_387\n      jump\t// in\n    tag_534:\n        /* \"#utility.yul\":3000:3119   */\n    tag_533:\n        /* \"#utility.yul\":3158:3159   */\n      0x00\n        /* \"#utility.yul\":3183:3236   */\n      tag_535\n        /* \"#utility.yul\":3228:3235   */\n      dup5\n        /* \"#utility.yul\":3219:3225   */\n      dup3\n        /* \"#utility.yul\":3208:3217   */\n      dup6\n        /* \"#utility.yul\":3204:3226   */\n      add\n        /* \"#utility.yul\":3183:3236   */\n      tag_402\n      jump\t// in\n    tag_535:\n        /* \"#utility.yul\":3173:3236   */\n      swap2\n      pop\n        /* \"#utility.yul\":3129:3246   */\n      pop\n        /* \"#utility.yul\":2924:3253   */\n      swap3\n      swap2\n      pop\n      pop\n      jump\t// out\n        /* \"#utility.yul\":3259:3377   */\n    tag_403:\n        /* \"#utility.yul\":3346:3370   */\n      tag_537\n        /* \"#utility.yul\":3364:3369   */\n      dup2\n        /* \"#utility.yul\":3346:3370   */\n      tag_400\n      jump\t// in\n    tag_537:\n        /* \"#utility.yul\":3341:3344   */\n      dup3\n        /* \"#utility.yul\":3334:3371   */\n      mstore\n        /* \"#utility.yul\":3259:3377   */\n      pop\n      pop\n      jump\t// out\n        /* \"#utility.yul\":3383:3605   */\n    tag_54:\n        /* \"#utility.yul\":3476:3480   */\n      0x00\n        /* \"#utility.yul\":3514:3516   */\n      0x20\n        /* \"#utility.yul\":3503:3512   */\n      dup3\n        /* \"#utility.yul\":3499:3517   */\n      add\n        /* \"#utility.yul\":3491:3517   */\n      swap1\n      pop\n        /* \"#utility.yul\":3527:3598   */\n      tag_539\n        /* \"#utility.yul\":3595:3596   */\n      0x00\n        /* \"#utility.yul\":3584:3593   */\n      dup4\n        /* \"#utility.yul\":3580:3597   */\n      add\n        /* \"#utility.yul\":3571:3577   */\n      dup5\n        /* \"#utility.yul\":3527:3598   */\n      tag_403\n      jump\t// in\n    tag_539:\n        /* \"#utility.yul\":3383:3605   */\n      swap3\n      swap2\n      pop\n      pop\n      jump\t// out\n        /* \"#utility.yul\":3611:3688   */\n    tag_404:\n        /* \"#utility.yul\":3648:3655   */\n      0x00\n        /* \"#utility.yul\":3677:3682   */\n      dup2\n        /* \"#utility.yul\":3666:3682   */\n      swap1\n      pop\n        /* \"#utility.yul\":3611:3688   */\n      swap2\n      swap1\n      pop\n      jump\t// out\n        /* \"#utility.yul\":3694:3816   */\n    tag_405:\n        /* \"#utility.yul\":3767:3791   */\n      tag_542\n        /* \"#utility.yul\":3785:3790   */\n      dup2\n        /* \"#utility.yul\":3767:3791   */\n      tag_404\n      jump\t// in\n    tag_542:\n        /* \"#utility.yul\":3760:3765   */\n      dup2\n        /* \"#utility.yul\":3757:3792   */\n      eq\n        /* \"#utility.yul\":3747:3810   */\n      tag_543\n      jumpi\n        /* \"#utility.yul\":3806:3807   */\n      0x00\n        /* \"#utility.yul\":3803:3804   */\n      dup1\n        /* \"#utility.yul\":3796:3808   */\n      revert\n        /* \"#utility.yul\":3747:3810   */\n    tag_543:\n        /* \"#utility.yul\":3694:3816   */\n      pop\n      jump\t// out\n        /* \"#utility.yul\":3822:3961   */\n    tag_406:\n        /* \"#utility.yul\":3868:3873   */\n      0x00\n        /* \"#utility.yul\":3906:3912   */\n      dup2\n        /* \"#utility.yul\":3893:3913   */\n      calldataload\n        /* \"#utility.yul\":3884:3913   */\n      swap1\n      pop\n        /* \"#utility.yul\":3922:3955   */\n      tag_545\n        /* \"#utility.yul\":3949:3954   */\n      dup2\n        /* \"#utility.yul\":3922:3955   */\n      tag_405\n      jump\t// in\n    tag_545:\n        /* \"#utility.yul\":3822:3961   */\n      swap3\n      swap2\n      pop\n      pop\n      jump\t// out\n        /* \"#utility.yul\":3967:4586   */\n    tag_57:\n        /* \"#utility.yul\":4044:4050   */\n      0x00\n        /* \"#utility.yul\":4052:4058   */\n      dup1\n        /* \"#utility.yul\":4060:4066   */\n      0x00\n        /* \"#utility.yul\":4109:4111   */\n      0x60\n        /* \"#utility.yul\":4097:4106   */\n      dup5\n        /* \"#utility.yul\":4088:4095   */\n      dup7\n        /* \"#utility.yul\":4084:4107   */\n      sub\n        /* \"#utility.yul\":4080:4112   */\n      slt\n        /* \"#utility.yul\":4077:4196   */\n      iszero\n      tag_547\n      jumpi\n        /* \"#utility.yul\":4115:4194   */\n      tag_548\n      tag_387\n      jump\t// in\n    tag_548:\n        /* \"#utility.yul\":4077:4196   */\n    tag_547:\n        /* \"#utility.yul\":4235:4236   */\n      0x00\n        /* \"#utility.yul\":4260:4313   */\n      tag_549\n        /* \"#utility.yul\":4305:4312   */\n      dup7\n        /* \"#utility.yul\":4296:4302   */\n      dup3\n        /* \"#utility.yul\":4285:4294   */\n      dup8\n        /* \"#utility.yul\":4281:4303   */\n      add\n        /* \"#utility.yul\":4260:4313   */\n      tag_406\n      jump\t// in\n    tag_549:\n        /* \"#utility.yul\":4250:4313   */\n      swap4\n      pop\n        /* \"#utility.yul\":4206:4323   */\n      pop\n        /* \"#utility.yul\":4362:4364   */\n      0x20\n        /* \"#utility.yul\":4388:4441   */\n      tag_550\n        /* \"#utility.yul\":4433:4440   */\n      dup7\n        /* \"#utility.yul\":4424:4430   */\n      dup3\n        /* \"#utility.yul\":4413:4422   */\n      dup8\n        /* \"#utility.yul\":4409:4431   */\n      add\n        /* \"#utility.yul\":4388:4441   */\n      tag_406\n      jump\t// in\n    tag_550:\n        /* \"#utility.yul\":4378:4441   */\n      swap3\n      pop\n        /* \"#utility.yul\":4333:4451   */\n      pop\n        /* \"#utility.yul\":4490:4492   */\n      0x40\n        /* \"#utility.yul\":4516:4569   */\n      tag_551\n        /* \"#utility.yul\":4561:4568   */\n      dup7\n        /* \"#utility.yul\":4552:4558   */\n      dup3\n        /* \"#utility.yul\":4541:4550   */\n      dup8\n        /* \"#utility.yul\":4537:4559   */\n      add\n        /* \"#utility.yul\":4516:4569   */\n      tag_406\n      jump\t// in\n    tag_551:\n        /* \"#utility.yul\":4506:4569   */\n      swap2\n      pop\n        /* \"#utility.yul\":4461:4579   */\n      pop\n        /* \"#utility.yul\":3967:4586   */\n      swap3\n      pop\n      swap3\n      pop\n      swap3\n      jump\t// out\n        /* \"#utility.yul\":4592:4710   */\n    tag_407:\n        /* \"#utility.yul\":4679:4703   */\n      tag_553\n        /* \"#utility.yul\":4697:4702   */\n      dup2\n        /* \"#utility.yul\":4679:4703   */\n      tag_404\n      jump\t// in\n    tag_553:\n        /* \"#utility.yul\":4674:4677   */\n      dup3\n        /* \"#utility.yul\":4667:4704   */\n      mstore\n        /* \"#utility.yul\":4592:4710   */\n      pop\n      pop\n      jump\t// out\n        /* \"#utility.yul\":4716:5368   */\n    tag_60:\n        /* \"#utility.yul\":4915:4919   */\n      0x00\n        /* \"#utility.yul\":4953:4956   */\n      0xa0\n        /* \"#utility.yul\":4942:4951   */\n      dup3\n        /* \"#utility.yul\":4938:4957   */\n      add\n        /* \"#utility.yul\":4930:4957   */\n      swap1\n      pop\n        /* \"#utility.yul\":4967:5038   */\n      tag_555\n        /* \"#utility.yul\":5035:5036   */\n      0x00\n        /* \"#utility.yul\":5024:5033   */\n      dup4\n        /* \"#utility.yul\":5020:5037   */\n      add\n        /* \"#utility.yul\":5011:5017   */\n      dup9\n        /* \"#utility.yul\":4967:5038   */\n      tag_407\n      jump\t// in\n    tag_555:\n        /* \"#utility.yul\":5048:5120   */\n      tag_556\n        /* \"#utility.yul\":5116:5118   */\n      0x20\n        /* \"#utility.yul\":5105:5114   */\n      dup4\n        /* \"#utility.yul\":5101:5119   */\n      add\n        /* \"#utility.yul\":5092:5098   */\n      dup8\n        /* \"#utility.yul\":5048:5120   */\n      tag_407\n      jump\t// in\n    tag_556:\n        /* \"#utility.yul\":5130:5202   */\n      tag_557\n        /* \"#utility.yul\":5198:5200   */\n      0x40\n        /* \"#utility.yul\":5187:5196   */\n      dup4\n        /* \"#utility.yul\":5183:5201   */\n      add\n        /* \"#utility.yul\":5174:5180   */\n      dup7\n        /* \"#utility.yul\":5130:5202   */\n      tag_407\n      jump\t// in\n    tag_557:\n        /* \"#utility.yul\":5212:5284   */\n      tag_558\n        /* \"#utility.yul\":5280:5282   */\n      0x60\n        /* \"#utility.yul\":5269:5278   */\n      dup4\n        /* \"#utility.yul\":5265:5283   */\n      add\n        /* \"#utility.yul\":5256:5262   */\n      dup6\n        /* \"#utility.yul\":5212:5284   */\n      tag_407\n      jump\t// in\n    tag_558:\n        /* \"#utility.yul\":5294:5361   */\n      tag_559\n        /* \"#utility.yul\":5356:5359   */\n      0x80\n        /* \"#utility.yul\":5345:5354   */\n      dup4\n        /* \"#utility.yul\":5341:5360   */\n      add\n        /* \"#utility.yul\":5332:5338   */\n      dup5\n        /* \"#utility.yul\":5294:5361   */\n      tag_393\n      jump\t// in\n    tag_559:\n        /* \"#utility.yul\":4716:5368   */\n      swap7\n      swap6\n      pop\n      pop\n      pop\n      pop\n      pop\n      pop\n      jump\t// out\n        /* \"#utility.yul\":5374:5470   */\n    tag_408:\n        /* \"#utility.yul\":5411:5418   */\n      0x00\n        /* \"#utility.yul\":5440:5464   */\n      tag_561\n        /* \"#utility.yul\":5458:5463   */\n      dup3\n        /* \"#utility.yul\":5440:5464   */\n      tag_394\n      jump\t// in\n    tag_561:\n        /* \"#utility.yul\":5429:5464   */\n      swap1\n      pop\n        /* \"#utility.yul\":5374:5470   */\n      swap2\n      swap1\n      pop\n      jump\t// out\n        /* \"#utility.yul\":5476:5598   */\n    tag_409:\n        /* \"#utility.yul\":5549:5573   */\n      tag_563\n        /* \"#utility.yul\":5567:5572   */\n      dup2\n        /* \"#utility.yul\":5549:5573   */\n      tag_408\n      jump\t// in\n    tag_563:\n        /* \"#utility.yul\":5542:5547   */\n      dup2\n        /* \"#utility.yul\":5539:5574   */\n      eq\n        /* \"#utility.yul\":5529:5592   */\n      tag_564\n      jumpi\n        /* \"#utility.yul\":5588:5589   */\n      0x00\n        /* \"#utility.yul\":5585:5586   */\n      dup1\n        /* \"#utility.yul\":5578:5590   */\n      revert\n        /* \"#utility.yul\":5529:5592   */\n    tag_564:\n        /* \"#utility.yul\":5476:5598   */\n      pop\n      jump\t// out\n        /* \"#utility.yul\":5604:5743   */\n    tag_410:\n        /* \"#utility.yul\":5650:5655   */\n      0x00\n        /* \"#utility.yul\":5688:5694   */\n      dup2\n        /* \"#utility.yul\":5675:5695   */\n      calldataload\n        /* \"#utility.yul\":5666:5695   */\n      swap1\n      pop\n        /* \"#utility.yul\":5704:5737   */\n      tag_566\n        /* \"#utility.yul\":5731:5736   */\n      dup2\n        /* \"#utility.yul\":5704:5737   */\n      tag_409\n      jump\t// in\n    tag_566:\n        /* \"#utility.yul\":5604:5743   */\n      swap3\n      swap2\n      pop\n      pop\n      jump\t// out\n        /* \"#utility.yul\":5749:6223   */\n    tag_63:\n        /* \"#utility.yul\":5817:5823   */\n      0x00\n        /* \"#utility.yul\":5825:5831   */\n      dup1\n        /* \"#utility.yul\":5874:5876   */\n      0x40\n        /* \"#utility.yul\":5862:5871   */\n      dup4\n        /* \"#utility.yul\":5853:5860   */\n      dup6\n        /* \"#utility.yul\":5849:5872   */\n      sub\n        /* \"#utility.yul\":5845:5877   */\n      slt\n        /* \"#utility.yul\":5842:5961   */\n      iszero\n      tag_568\n      jumpi\n        /* \"#utility.yul\":5880:5959   */\n      tag_569\n      tag_387\n      jump\t// in\n    tag_569:\n        /* \"#utility.yul\":5842:5961   */\n    tag_568:\n        /* \"#utility.yul\":6000:6001   */\n      0x00\n        /* \"#utility.yul\":6025:6078   */\n      tag_570\n        /* \"#utility.yul\":6070:6077   */\n      dup6\n        /* \"#utility.yul\":6061:6067   */\n      dup3\n        /* \"#utility.yul\":6050:6059   */\n      dup7\n        /* \"#utility.yul\":6046:6068   */\n      add\n        /* \"#utility.yul\":6025:6078   */\n      tag_402\n      jump\t// in\n    tag_570:\n        /* \"#utility.yul\":6015:6078   */\n      swap3\n      pop\n        /* \"#utility.yul\":5971:6088   */\n      pop\n        /* \"#utility.yul\":6127:6129   */\n      0x20\n        /* \"#utility.yul\":6153:6206   */\n      tag_571\n        /* \"#utility.yul\":6198:6205   */\n      dup6\n        /* \"#utility.yul\":6189:6195   */\n      dup3\n        /* \"#utility.yul\":6178:6187   */\n      dup7\n        /* \"#utility.yul\":6174:6196   */\n      add\n        /* \"#utility.yul\":6153:6206   */\n      tag_410\n      jump\t// in\n    tag_571:\n        /* \"#utility.yul\":6143:6206   */\n      swap2\n      pop\n        /* \"#utility.yul\":6098:6216   */\n      pop\n        /* \"#utility.yul\":5749:6223   */\n      swap3\n      pop\n      swap3\n      swap1\n      pop\n      jump\t// out\n        /* \"#utility.yul\":6229:6346   */\n    tag_411:\n        /* \"#utility.yul\":6338:6339   */\n      0x00\n        /* \"#utility.yul\":6335:6336   */\n      dup1\n        /* \"#utility.yul\":6328:6340   */\n      revert\n        /* \"#utility.yul\":6352:6469   */\n    tag_412:\n        /* \"#utility.yul\":6461:6462   */\n      0x00\n        /* \"#utility.yul\":6458:6459   */\n      dup1\n        /* \"#utility.yul\":6451:6463   */\n      revert\n        /* \"#utility.yul\":6475:6592   */\n    tag_413:\n        /* \"#utility.yul\":6584:6585   */\n      0x00\n        /* \"#utility.yul\":6581:6582   */\n      dup1\n        /* \"#utility.yul\":6574:6586   */\n      revert\n        /* \"#utility.yul\":6615:7183   */\n    tag_414:\n        /* \"#utility.yul\":6688:6696   */\n      0x00\n        /* \"#utility.yul\":6698:6704   */\n      dup1\n        /* \"#utility.yul\":6748:6751   */\n      dup4\n        /* \"#utility.yul\":6741:6745   */\n      0x1f\n        /* \"#utility.yul\":6733:6739   */\n      dup5\n        /* \"#utility.yul\":6729:6746   */\n      add\n        /* \"#utility.yul\":6725:6752   */\n      slt\n        /* \"#utility.yul\":6715:6837   */\n      tag_576\n      jumpi\n        /* \"#utility.yul\":6756:6835   */\n      tag_577\n      tag_411\n      jump\t// in\n    tag_577:\n        /* \"#utility.yul\":6715:6837   */\n    tag_576:\n        /* \"#utility.yul\":6869:6875   */\n      dup3\n        /* \"#utility.yul\":6856:6876   */\n      calldataload\n        /* \"#utility.yul\":6846:6876   */\n      swap1\n      pop\n        /* \"#utility.yul\":6899:6917   */\n      0xffffffffffffffff\n        /* \"#utility.yul\":6891:6897   */\n      dup2\n        /* \"#utility.yul\":6888:6918   */\n      gt\n        /* \"#utility.yul\":6885:7002   */\n      iszero\n      tag_578\n      jumpi\n        /* \"#utility.yul\":6921:7000   */\n      tag_579\n      tag_412\n      jump\t// in\n    tag_579:\n        /* \"#utility.yul\":6885:7002   */\n    tag_578:\n        /* \"#utility.yul\":7035:7039   */\n      0x20\n        /* \"#utility.yul\":7027:7033   */\n      dup4\n        /* \"#utility.yul\":7023:7040   */\n      add\n        /* \"#utility.yul\":7011:7040   */\n      swap2\n      pop\n        /* \"#utility.yul\":7089:7092   */\n      dup4\n        /* \"#utility.yul\":7081:7085   */\n      0x20\n        /* \"#utility.yul\":7073:7079   */\n      dup3\n        /* \"#utility.yul\":7069:7086   */\n      mul\n        /* \"#utility.yul\":7059:7067   */\n      dup4\n        /* \"#utility.yul\":7055:7087   */\n      add\n        /* \"#utility.yul\":7052:7093   */\n      gt\n        /* \"#utility.yul\":7049:7177   */\n      iszero\n      tag_580\n      jumpi\n        /* \"#utility.yul\":7096:7175   */\n      tag_581\n      tag_413\n      jump\t// in\n    tag_581:\n        /* \"#utility.yul\":7049:7177   */\n    tag_580:\n        /* \"#utility.yul\":6615:7183   */\n      swap3\n      pop\n      swap3\n      swap1\n      pop\n      jump\t// out\n        /* \"#utility.yul\":7206:7774   */\n    tag_415:\n        /* \"#utility.yul\":7279:7287   */\n      0x00\n        /* \"#utility.yul\":7289:7295   */\n      dup1\n        /* \"#utility.yul\":7339:7342   */\n      dup4\n        /* \"#utility.yul\":7332:7336   */\n      0x1f\n        /* \"#utility.yul\":7324:7330   */\n      dup5\n        /* \"#utility.yul\":7320:7337   */\n      add\n        /* \"#utility.yul\":7316:7343   */\n      slt\n        /* \"#utility.yul\":7306:7428   */\n      tag_583\n      jumpi\n        /* \"#utility.yul\":7347:7426   */\n      tag_584\n      tag_411\n      jump\t// in\n    tag_584:\n        /* \"#utility.yul\":7306:7428   */\n    tag_583:\n        /* \"#utility.yul\":7460:7466   */\n      dup3\n        /* \"#utility.yul\":7447:7467   */\n      calldataload\n        /* \"#utility.yul\":7437:7467   */\n      swap1\n      pop\n        /* \"#utility.yul\":7490:7508   */\n      0xffffffffffffffff\n        /* \"#utility.yul\":7482:7488   */\n      dup2\n        /* \"#utility.yul\":7479:7509   */\n      gt\n        /* \"#utility.yul\":7476:7593   */\n      iszero\n      tag_585\n      jumpi\n        /* \"#utility.yul\":7512:7591   */\n      tag_586\n      tag_412\n      jump\t// in\n    tag_586:\n        /* \"#utility.yul\":7476:7593   */\n    tag_585:\n        /* \"#utility.yul\":7626:7630   */\n      0x20\n        /* \"#utility.yul\":7618:7624   */\n      dup4\n        /* \"#utility.yul\":7614:7631   */\n      add\n        /* \"#utility.yul\":7602:7631   */\n      swap2\n      pop\n        /* \"#utility.yul\":7680:7683   */\n      dup4\n        /* \"#utility.yul\":7672:7676   */\n      0x20\n        /* \"#utility.yul\":7664:7670   */\n      dup3\n        /* \"#utility.yul\":7660:7677   */\n      mul\n        /* \"#utility.yul\":7650:7658   */\n      dup4\n        /* \"#utility.yul\":7646:7678   */\n      add\n        /* \"#utility.yul\":7643:7684   */\n      gt\n        /* \"#utility.yul\":7640:7768   */\n      iszero\n      tag_587\n      jumpi\n        /* \"#utility.yul\":7687:7766   */\n      tag_588\n      tag_413\n      jump\t// in\n    tag_588:\n        /* \"#utility.yul\":7640:7768   */\n    tag_587:\n        /* \"#utility.yul\":7206:7774   */\n      swap3\n      pop\n      swap3\n      swap1\n      pop\n      jump\t// out\n        /* \"#utility.yul\":7780:8714   */\n    tag_70:\n        /* \"#utility.yul\":7902:7908   */\n      0x00\n        /* \"#utility.yul\":7910:7916   */\n      dup1\n        /* \"#utility.yul\":7918:7924   */\n      0x00\n        /* \"#utility.yul\":7926:7932   */\n      dup1\n        /* \"#utility.yul\":7975:7977   */\n      0x40\n        /* \"#utility.yul\":7963:7972   */\n      dup6\n        /* \"#utility.yul\":7954:7961   */\n      dup8\n        /* \"#utility.yul\":7950:7973   */\n      sub\n        /* \"#utility.yul\":7946:7978   */\n      slt\n        /* \"#utility.yul\":7943:8062   */\n      iszero\n      tag_590\n      jumpi\n        /* \"#utility.yul\":7981:8060   */\n      tag_591\n      tag_387\n      jump\t// in\n    tag_591:\n        /* \"#utility.yul\":7943:8062   */\n    tag_590:\n        /* \"#utility.yul\":8129:8130   */\n      0x00\n        /* \"#utility.yul\":8118:8127   */\n      dup6\n        /* \"#utility.yul\":8114:8131   */\n      add\n        /* \"#utility.yul\":8101:8132   */\n      calldataload\n        /* \"#utility.yul\":8159:8177   */\n      0xffffffffffffffff\n        /* \"#utility.yul\":8151:8157   */\n      dup2\n        /* \"#utility.yul\":8148:8178   */\n      gt\n        /* \"#utility.yul\":8145:8262   */\n      iszero\n      tag_592\n      jumpi\n        /* \"#utility.yul\":8181:8260   */\n      tag_593\n      tag_388\n      jump\t// in\n    tag_593:\n        /* \"#utility.yul\":8145:8262   */\n    tag_592:\n        /* \"#utility.yul\":8294:8374   */\n      tag_594\n        /* \"#utility.yul\":8366:8373   */\n      dup8\n        /* \"#utility.yul\":8357:8363   */\n      dup3\n        /* \"#utility.yul\":8346:8355   */\n      dup9\n        /* \"#utility.yul\":8342:8364   */\n      add\n        /* \"#utility.yul\":8294:8374   */\n      tag_414\n      jump\t// in\n    tag_594:\n        /* \"#utility.yul\":8276:8374   */\n      swap5\n      pop\n      swap5\n      pop\n        /* \"#utility.yul\":8072:8384   */\n      pop\n        /* \"#utility.yul\":8451:8453   */\n      0x20\n        /* \"#utility.yul\":8440:8449   */\n      dup6\n        /* \"#utility.yul\":8436:8454   */\n      add\n        /* \"#utility.yul\":8423:8455   */\n      calldataload\n        /* \"#utility.yul\":8482:8500   */\n      0xffffffffffffffff\n        /* \"#utility.yul\":8474:8480   */\n      dup2\n        /* \"#utility.yul\":8471:8501   */\n      gt\n        /* \"#utility.yul\":8468:8585   */\n      iszero\n      tag_595\n      jumpi\n        /* \"#utility.yul\":8504:8583   */\n      tag_596\n      tag_388\n      jump\t// in\n    tag_596:\n        /* \"#utility.yul\":8468:8585   */\n    tag_595:\n        /* \"#utility.yul\":8617:8697   */\n      tag_597\n        /* \"#utility.yul\":8689:8696   */\n      dup8\n        /* \"#utility.yul\":8680:8686   */\n      dup3\n        /* \"#utility.yul\":8669:8678   */\n      dup9\n        /* \"#utility.yul\":8665:8687   */\n      add\n        /* \"#utility.yul\":8617:8697   */\n      tag_415\n      jump\t// in\n    tag_597:\n        /* \"#utility.yul\":8599:8697   */\n      swap3\n      pop\n      swap3\n      pop\n        /* \"#utility.yul\":8394:8707   */\n      pop\n        /* \"#utility.yul\":7780:8714   */\n      swap3\n      swap6\n      swap2\n      swap5\n      pop\n      swap3\n      pop\n      jump\t// out\n        /* \"#utility.yul\":8720:9049   */\n    tag_74:\n        /* \"#utility.yul\":8779:8785   */\n      0x00\n        /* \"#utility.yul\":8828:8830   */\n      0x20\n        /* \"#utility.yul\":8816:8825   */\n      dup3\n        /* \"#utility.yul\":8807:8814   */\n      dup5\n        /* \"#utility.yul\":8803:8826   */\n      sub\n        /* \"#utility.yul\":8799:8831   */\n      slt\n        /* \"#utility.yul\":8796:8915   */\n      iszero\n      tag_599\n      jumpi\n        /* \"#utility.yul\":8834:8913   */\n      tag_600\n      tag_387\n      jump\t// in\n    tag_600:\n        /* \"#utility.yul\":8796:8915   */\n    tag_599:\n        /* \"#utility.yul\":8954:8955   */\n      0x00\n        /* \"#utility.yul\":8979:9032   */\n      tag_601\n        /* \"#utility.yul\":9024:9031   */\n      dup5\n        /* \"#utility.yul\":9015:9021   */\n      dup3\n        /* \"#utility.yul\":9004:9013   */\n      dup6\n        /* \"#utility.yul\":9000:9022   */\n      add\n        /* \"#utility.yul\":8979:9032   */\n      tag_406\n      jump\t// in\n    tag_601:\n        /* \"#utility.yul\":8969:9032   */\n      swap2\n      pop\n        /* \"#utility.yul\":8925:9042   */\n      pop\n        /* \"#utility.yul\":8720:9049   */\n      swap3\n      swap2\n      pop\n      pop\n      jump\t// out\n        /* \"#utility.yul\":9055:9163   */\n    tag_416:\n        /* \"#utility.yul\":9132:9156   */\n      tag_603\n        /* \"#utility.yul\":9150:9155   */\n      dup2\n        /* \"#utility.yul\":9132:9156   */\n      tag_404\n      jump\t// in\n    tag_603:\n        /* \"#utility.yul\":9127:9130   */\n      dup3\n        /* \"#utility.yul\":9120:9157   */\n      mstore\n        /* \"#utility.yul\":9055:9163   */\n      pop\n      pop\n      jump\t// out\n        /* \"#utility.yul\":9169:9268   */\n    tag_417:\n        /* \"#utility.yul\":9221:9227   */\n      0x00\n        /* \"#utility.yul\":9255:9260   */\n      dup2\n        /* \"#utility.yul\":9249:9261   */\n      mload\n        /* \"#utility.yul\":9239:9261   */\n      swap1\n      pop\n        /* \"#utility.yul\":9169:9268   */\n      swap2\n      swap1\n      pop\n      jump\t// out\n        /* \"#utility.yul\":9274:9433   */\n    tag_418:\n        /* \"#utility.yul\":9348:9359   */\n      0x00\n        /* \"#utility.yul\":9382:9388   */\n      dup3\n        /* \"#utility.yul\":9377:9380   */\n      dup3\n        /* \"#utility.yul\":9370:9389   */\n      mstore\n        /* \"#utility.yul\":9422:9426   */\n      0x20\n        /* \"#utility.yul\":9417:9420   */\n      dup3\n        /* \"#utility.yul\":9413:9427   */\n      add\n        /* \"#utility.yul\":9398:9427   */\n      swap1\n      pop\n        /* \"#utility.yul\":9274:9433   */\n      swap3\n      swap2\n      pop\n      pop\n      jump\t// out\n        /* \"#utility.yul\":9439:9578   */\n    tag_419:\n        /* \"#utility.yul\":9528:9534   */\n      dup3\n        /* \"#utility.yul\":9523:9526   */\n      dup2\n        /* \"#utility.yul\":9518:9521   */\n      dup4\n        /* \"#utility.yul\":9512:9535   */\n      mcopy\n        /* \"#utility.yul\":9569:9570   */\n      0x00\n        /* \"#utility.yul\":9560:9566   */\n      dup4\n        /* \"#utility.yul\":9555:9558   */\n      dup4\n        /* \"#utility.yul\":9551:9567   */\n      add\n        /* \"#utility.yul\":9544:9571   */\n      mstore\n        /* \"#utility.yul\":9439:9578   */\n      pop\n      pop\n      pop\n      jump\t// out\n        /* \"#utility.yul\":9584:9686   */\n    tag_420:\n        /* \"#utility.yul\":9625:9631   */\n      0x00\n        /* \"#utility.yul\":9676:9678   */\n      0x1f\n        /* \"#utility.yul\":9672:9679   */\n      not\n        /* \"#utility.yul\":9667:9669   */\n      0x1f\n        /* \"#utility.yul\":9660:9665   */\n      dup4\n        /* \"#utility.yul\":9656:9670   */\n      add\n        /* \"#utility.yul\":9652:9680   */\n      and\n        /* \"#utility.yul\":9642:9680   */\n      swap1\n      pop\n        /* \"#utility.yul\":9584:9686   */\n      swap2\n      swap1\n      pop\n      jump\t// out\n        /* \"#utility.yul\":9692:10049   */\n    tag_421:\n        /* \"#utility.yul\":9770:9773   */\n      0x00\n        /* \"#utility.yul\":9798:9837   */\n      tag_609\n        /* \"#utility.yul\":9831:9836   */\n      dup3\n        /* \"#utility.yul\":9798:9837   */\n      tag_417\n      jump\t// in\n    tag_609:\n        /* \"#utility.yul\":9853:9914   */\n      tag_610\n        /* \"#utility.yul\":9907:9913   */\n      dup2\n        /* \"#utility.yul\":9902:9905   */\n      dup6\n        /* \"#utility.yul\":9853:9914   */\n      tag_418\n      jump\t// in\n    tag_610:\n        /* \"#utility.yul\":9846:9914   */\n      swap4\n      pop\n        /* \"#utility.yul\":9923:9988   */\n      tag_611\n        /* \"#utility.yul\":9981:9987   */\n      dup2\n        /* \"#utility.yul\":9976:9979   */\n      dup6\n        /* \"#utility.yul\":9969:9973   */\n      0x20\n        /* \"#utility.yul\":9962:9967   */\n      dup7\n        /* \"#utility.yul\":9958:9974   */\n      add\n        /* \"#utility.yul\":9923:9988   */\n      tag_419\n      jump\t// in\n    tag_611:\n        /* \"#utility.yul\":10013:10042   */\n      tag_612\n        /* \"#utility.yul\":10035:10041   */\n      dup2\n        /* \"#utility.yul\":10013:10042   */\n      tag_420\n      jump\t// in\n    tag_612:\n        /* \"#utility.yul\":10008:10011   */\n      dup5\n        /* \"#utility.yul\":10004:10043   */\n      add\n        /* \"#utility.yul\":9997:10043   */\n      swap2\n      pop\n        /* \"#utility.yul\":9774:10049   */\n      pop\n        /* \"#utility.yul\":9692:10049   */\n      swap3\n      swap2\n      pop\n      pop\n      jump\t// out\n        /* \"#utility.yul\":10055:10154   */\n    tag_422:\n        /* \"#utility.yul\":10126:10147   */\n      tag_614\n        /* \"#utility.yul\":10141:10146   */\n      dup2\n        /* \"#utility.yul\":10126:10147   */\n      tag_392\n      jump\t// in\n    tag_614:\n        /* \"#utility.yul\":10121:10124   */\n      dup3\n        /* \"#utility.yul\":10114:10148   */\n      mstore\n        /* \"#utility.yul\":10055:10154   */\n      pop\n      pop\n      jump\t// out\n        /* \"#utility.yul\":10240:11200   */\n    tag_423:\n        /* \"#utility.yul\":10357:10360   */\n      0x00\n        /* \"#utility.yul\":10393:10397   */\n      0x80\n        /* \"#utility.yul\":10388:10391   */\n      dup4\n        /* \"#utility.yul\":10384:10398   */\n      add\n        /* \"#utility.yul\":10488:10492   */\n      0x00\n        /* \"#utility.yul\":10481:10486   */\n      dup4\n        /* \"#utility.yul\":10477:10493   */\n      add\n        /* \"#utility.yul\":10471:10494   */\n      mload\n        /* \"#utility.yul\":10507:10570   */\n      tag_616\n        /* \"#utility.yul\":10564:10568   */\n      0x00\n        /* \"#utility.yul\":10559:10562   */\n      dup7\n        /* \"#utility.yul\":10555:10569   */\n      add\n        /* \"#utility.yul\":10541:10553   */\n      dup3\n        /* \"#utility.yul\":10507:10570   */\n      tag_416\n      jump\t// in\n    tag_616:\n        /* \"#utility.yul\":10408:10580   */\n      pop\n        /* \"#utility.yul\":10665:10669   */\n      0x20\n        /* \"#utility.yul\":10658:10663   */\n      dup4\n        /* \"#utility.yul\":10654:10670   */\n      add\n        /* \"#utility.yul\":10648:10671   */\n      mload\n        /* \"#utility.yul\":10684:10747   */\n      tag_617\n        /* \"#utility.yul\":10741:10745   */\n      0x20\n        /* \"#utility.yul\":10736:10739   */\n      dup7\n        /* \"#utility.yul\":10732:10746   */\n      add\n        /* \"#utility.yul\":10718:10730   */\n      dup3\n        /* \"#utility.yul\":10684:10747   */\n      tag_416\n      jump\t// in\n    tag_617:\n        /* \"#utility.yul\":10590:10757   */\n      pop\n        /* \"#utility.yul\":10840:10844   */\n      0x40\n        /* \"#utility.yul\":10833:10838   */\n      dup4\n        /* \"#utility.yul\":10829:10845   */\n      add\n        /* \"#utility.yul\":10823:10846   */\n      mload\n        /* \"#utility.yul\":10893:10896   */\n      dup5\n        /* \"#utility.yul\":10887:10891   */\n      dup3\n        /* \"#utility.yul\":10883:10897   */\n      sub\n        /* \"#utility.yul\":10876:10880   */\n      0x40\n        /* \"#utility.yul\":10871:10874   */\n      dup7\n        /* \"#utility.yul\":10867:10881   */\n      add\n        /* \"#utility.yul\":10860:10898   */\n      mstore\n        /* \"#utility.yul\":10919:10992   */\n      tag_618\n        /* \"#utility.yul\":10987:10991   */\n      dup3\n        /* \"#utility.yul\":10973:10985   */\n      dup3\n        /* \"#utility.yul\":10919:10992   */\n      tag_421\n      jump\t// in\n    tag_618:\n        /* \"#utility.yul\":10911:10992   */\n      swap2\n      pop\n        /* \"#utility.yul\":10767:11003   */\n      pop\n        /* \"#utility.yul\":11087:11091   */\n      0x60\n        /* \"#utility.yul\":11080:11085   */\n      dup4\n        /* \"#utility.yul\":11076:11092   */\n      add\n        /* \"#utility.yul\":11070:11093   */\n      mload\n        /* \"#utility.yul\":11106:11163   */\n      tag_619\n        /* \"#utility.yul\":11157:11161   */\n      0x60\n        /* \"#utility.yul\":11152:11155   */\n      dup7\n        /* \"#utility.yul\":11148:11162   */\n      add\n        /* \"#utility.yul\":11134:11146   */\n      dup3\n        /* \"#utility.yul\":11106:11163   */\n      tag_422\n      jump\t// in\n    tag_619:\n        /* \"#utility.yul\":11013:11173   */\n      pop\n        /* \"#utility.yul\":11190:11194   */\n      dup1\n        /* \"#utility.yul\":11183:11194   */\n      swap2\n      pop\n        /* \"#utility.yul\":10362:11200   */\n      pop\n        /* \"#utility.yul\":10240:11200   */\n      swap3\n      swap2\n      pop\n      pop\n      jump\t// out\n        /* \"#utility.yul\":11206:11575   */\n    tag_77:\n        /* \"#utility.yul\":11347:11351   */\n      0x00\n        /* \"#utility.yul\":11385:11387   */\n      0x20\n        /* \"#utility.yul\":11374:11383   */\n      dup3\n        /* \"#utility.yul\":11370:11388   */\n      add\n        /* \"#utility.yul\":11362:11388   */\n      swap1\n      pop\n        /* \"#utility.yul\":11434:11443   */\n      dup2\n        /* \"#utility.yul\":11428:11432   */\n      dup2\n        /* \"#utility.yul\":11424:11444   */\n      sub\n        /* \"#utility.yul\":11420:11421   */\n      0x00\n        /* \"#utility.yul\":11409:11418   */\n      dup4\n        /* \"#utility.yul\":11405:11422   */\n      add\n        /* \"#utility.yul\":11398:11445   */\n      mstore\n        /* \"#utility.yul\":11462:11568   */\n      tag_621\n        /* \"#utility.yul\":11563:11567   */\n      dup2\n        /* \"#utility.yul\":11554:11560   */\n      dup5\n        /* \"#utility.yul\":11462:11568   */\n      tag_423\n      jump\t// in\n    tag_621:\n        /* \"#utility.yul\":11454:11568   */\n      swap1\n      pop\n        /* \"#utility.yul\":11206:11575   */\n      swap3\n      swap2\n      pop\n      pop\n      jump\t// out\n        /* \"#utility.yul\":11581:11750   */\n    tag_424:\n        /* \"#utility.yul\":11665:11676   */\n      0x00\n        /* \"#utility.yul\":11699:11705   */\n      dup3\n        /* \"#utility.yul\":11694:11697   */\n      dup3\n        /* \"#utility.yul\":11687:11706   */\n      mstore\n        /* \"#utility.yul\":11739:11743   */\n      0x20\n        /* \"#utility.yul\":11734:11737   */\n      dup3\n        /* \"#utility.yul\":11730:11744   */\n      add\n        /* \"#utility.yul\":11715:11744   */\n      swap1\n      pop\n        /* \"#utility.yul\":11581:11750   */\n      swap3\n      swap2\n      pop\n      pop\n      jump\t// out\n        /* \"#utility.yul\":11756:12133   */\n    tag_425:\n        /* \"#utility.yul\":11844:11847   */\n      0x00\n        /* \"#utility.yul\":11872:11911   */\n      tag_624\n        /* \"#utility.yul\":11905:11910   */\n      dup3\n        /* \"#utility.yul\":11872:11911   */\n      tag_417\n      jump\t// in\n    tag_624:\n        /* \"#utility.yul\":11927:11998   */\n      tag_625\n        /* \"#utility.yul\":11991:11997   */\n      dup2\n        /* \"#utility.yul\":11986:11989   */\n      dup6\n        /* \"#utility.yul\":11927:11998   */\n      tag_424\n      jump\t// in\n    tag_625:\n        /* \"#utility.yul\":11920:11998   */\n      swap4\n      pop\n        /* \"#utility.yul\":12007:12072   */\n      tag_626\n        /* \"#utility.yul\":12065:12071   */\n      dup2\n        /* \"#utility.yul\":12060:12063   */\n      dup6\n        /* \"#utility.yul\":12053:12057   */\n      0x20\n        /* \"#utility.yul\":12046:12051   */\n      dup7\n        /* \"#utility.yul\":12042:12058   */\n      add\n        /* \"#utility.yul\":12007:12072   */\n      tag_419\n      jump\t// in\n    tag_626:\n        /* \"#utility.yul\":12097:12126   */\n      tag_627\n        /* \"#utility.yul\":12119:12125   */\n      dup2\n        /* \"#utility.yul\":12097:12126   */\n      tag_420\n      jump\t// in\n    tag_627:\n        /* \"#utility.yul\":12092:12095   */\n      dup5\n        /* \"#utility.yul\":12088:12127   */\n      add\n        /* \"#utility.yul\":12081:12127   */\n      swap2\n      pop\n        /* \"#utility.yul\":11848:12133   */\n      pop\n        /* \"#utility.yul\":11756:12133   */\n      swap3\n      swap2\n      pop\n      pop\n      jump\t// out\n        /* \"#utility.yul\":12139:12771   */\n    tag_85:\n        /* \"#utility.yul\":12330:12334   */\n      0x00\n        /* \"#utility.yul\":12368:12371   */\n      0x80\n        /* \"#utility.yul\":12357:12366   */\n      dup3\n        /* \"#utility.yul\":12353:12372   */\n      add\n        /* \"#utility.yul\":12345:12372   */\n      swap1\n      pop\n        /* \"#utility.yul\":12382:12453   */\n      tag_629\n        /* \"#utility.yul\":12450:12451   */\n      0x00\n        /* \"#utility.yul\":12439:12448   */\n      dup4\n        /* \"#utility.yul\":12435:12452   */\n      add\n        /* \"#utility.yul\":12426:12432   */\n      dup8\n        /* \"#utility.yul\":12382:12453   */\n      tag_407\n      jump\t// in\n    tag_629:\n        /* \"#utility.yul\":12463:12535   */\n      tag_630\n        /* \"#utility.yul\":12531:12533   */\n      0x20\n        /* \"#utility.yul\":12520:12529   */\n      dup4\n        /* \"#utility.yul\":12516:12534   */\n      add\n        /* \"#utility.yul\":12507:12513   */\n      dup7\n        /* \"#utility.yul\":12463:12535   */\n      tag_407\n      jump\t// in\n    tag_630:\n        /* \"#utility.yul\":12582:12591   */\n      dup2\n        /* \"#utility.yul\":12576:12580   */\n      dup2\n        /* \"#utility.yul\":12572:12592   */\n      sub\n        /* \"#utility.yul\":12567:12569   */\n      0x40\n        /* \"#utility.yul\":12556:12565   */\n      dup4\n        /* \"#utility.yul\":12552:12570   */\n      add\n        /* \"#utility.yul\":12545:12593   */\n      mstore\n        /* \"#utility.yul\":12610:12688   */\n      tag_631\n        /* \"#utility.yul\":12683:12687   */\n      dup2\n        /* \"#utility.yul\":12674:12680   */\n      dup6\n        /* \"#utility.yul\":12610:12688   */\n      tag_425\n      jump\t// in\n    tag_631:\n        /* \"#utility.yul\":12602:12688   */\n      swap1\n      pop\n        /* \"#utility.yul\":12698:12764   */\n      tag_632\n        /* \"#utility.yul\":12760:12762   */\n      0x60\n        /* \"#utility.yul\":12749:12758   */\n      dup4\n        /* \"#utility.yul\":12745:12763   */\n      add\n        /* \"#utility.yul\":12736:12742   */\n      dup5\n        /* \"#utility.yul\":12698:12764   */\n      tag_393\n      jump\t// in\n    tag_632:\n        /* \"#utility.yul\":12139:12771   */\n      swap6\n      swap5\n      pop\n      pop\n      pop\n      pop\n      pop\n      jump\t// out\n        /* \"#utility.yul\":12777:12894   */\n    tag_426:\n        /* \"#utility.yul\":12886:12887   */\n      0x00\n        /* \"#utility.yul\":12883:12884   */\n      dup1\n        /* \"#utility.yul\":12876:12888   */\n      revert\n        /* \"#utility.yul\":12900:13080   */\n    tag_359:\n        /* \"#utility.yul\":12948:13025   */\n      0x4e487b7100000000000000000000000000000000000000000000000000000000\n        /* \"#utility.yul\":12945:12946   */\n      0x00\n        /* \"#utility.yul\":12938:13026   */\n      mstore\n        /* \"#utility.yul\":13045:13049   */\n      0x41\n        /* \"#utility.yul\":13042:13043   */\n      0x04\n        /* \"#utility.yul\":13035:13050   */\n      mstore\n        /* \"#utility.yul\":13069:13073   */\n      0x24\n        /* \"#utility.yul\":13066:13067   */\n      0x00\n        /* \"#utility.yul\":13059:13074   */\n      revert\n        /* \"#utility.yul\":13086:13367   */\n    tag_427:\n        /* \"#utility.yul\":13169:13196   */\n      tag_636\n        /* \"#utility.yul\":13191:13195   */\n      dup3\n        /* \"#utility.yul\":13169:13196   */\n      tag_420\n      jump\t// in\n    tag_636:\n        /* \"#utility.yul\":13161:13167   */\n      dup2\n        /* \"#utility.yul\":13157:13197   */\n      add\n        /* \"#utility.yul\":13299:13305   */\n      dup2\n        /* \"#utility.yul\":13287:13297   */\n      dup2\n        /* \"#utility.yul\":13284:13306   */\n      lt\n        /* \"#utility.yul\":13263:13281   */\n      0xffffffffffffffff\n        /* \"#utility.yul\":13251:13261   */\n      dup3\n        /* \"#utility.yul\":13248:13282   */\n      gt\n        /* \"#utility.yul\":13245:13307   */\n      or\n        /* \"#utility.yul\":13242:13330   */\n      iszero\n      tag_637\n      jumpi\n        /* \"#utility.yul\":13310:13328   */\n      tag_638\n      tag_359\n      jump\t// in\n    tag_638:\n        /* \"#utility.yul\":13242:13330   */\n    tag_637:\n        /* \"#utility.yul\":13350:13360   */\n      dup1\n        /* \"#utility.yul\":13346:13348   */\n      0x40\n        /* \"#utility.yul\":13339:13361   */\n      mstore\n        /* \"#utility.yul\":13129:13367   */\n      pop\n        /* \"#utility.yul\":13086:13367   */\n      pop\n      pop\n      jump\t// out\n        /* \"#utility.yul\":13373:13502   */\n    tag_428:\n        /* \"#utility.yul\":13407:13413   */\n      0x00\n        /* \"#utility.yul\":13434:13454   */\n      tag_640\n      tag_386\n      jump\t// in\n    tag_640:\n        /* \"#utility.yul\":13424:13454   */\n      swap1\n      pop\n        /* \"#utility.yul\":13463:13496   */\n      tag_641\n        /* \"#utility.yul\":13491:13495   */\n      dup3\n        /* \"#utility.yul\":13483:13489   */\n      dup3\n        /* \"#utility.yul\":13463:13496   */\n      tag_427\n      jump\t// in\n    tag_641:\n        /* \"#utility.yul\":13373:13502   */\n      swap2\n      swap1\n      pop\n      jump\t// out\n        /* \"#utility.yul\":13508:13816   */\n    tag_429:\n        /* \"#utility.yul\":13570:13574   */\n      0x00\n        /* \"#utility.yul\":13660:13678   */\n      0xffffffffffffffff\n        /* \"#utility.yul\":13652:13658   */\n      dup3\n        /* \"#utility.yul\":13649:13679   */\n      gt\n        /* \"#utility.yul\":13646:13702   */\n      iszero\n      tag_643\n      jumpi\n        /* \"#utility.yul\":13682:13700   */\n      tag_644\n      tag_359\n      jump\t// in\n    tag_644:\n        /* \"#utility.yul\":13646:13702   */\n    tag_643:\n        /* \"#utility.yul\":13720:13749   */\n      tag_645\n        /* \"#utility.yul\":13742:13748   */\n      dup3\n        /* \"#utility.yul\":13720:13749   */\n      tag_420\n      jump\t// in\n    tag_645:\n        /* \"#utility.yul\":13712:13749   */\n      swap1\n      pop\n        /* \"#utility.yul\":13804:13808   */\n      0x20\n        /* \"#utility.yul\":13798:13802   */\n      dup2\n        /* \"#utility.yul\":13794:13809   */\n      add\n        /* \"#utility.yul\":13786:13809   */\n      swap1\n      pop\n        /* \"#utility.yul\":13508:13816   */\n      swap2\n      swap1\n      pop\n      jump\t// out\n        /* \"#utility.yul\":13822:13970   */\n    tag_430:\n        /* \"#utility.yul\":13920:13926   */\n      dup3\n        /* \"#utility.yul\":13915:13918   */\n      dup2\n        /* \"#utility.yul\":13910:13913   */\n      dup4\n        /* \"#utility.yul\":13897:13927   */\n      calldatacopy\n        /* \"#utility.yul\":13961:13962   */\n      0x00\n        /* \"#utility.yul\":13952:13958   */\n      dup4\n        /* \"#utility.yul\":13947:13950   */\n      dup4\n        /* \"#utility.yul\":13943:13959   */\n      add\n        /* \"#utility.yul\":13936:13963   */\n      mstore\n        /* \"#utility.yul\":13822:13970   */\n      pop\n      pop\n      pop\n      jump\t// out\n        /* \"#utility.yul\":13976:14401   */\n    tag_431:\n        /* \"#utility.yul\":14054:14059   */\n      0x00\n        /* \"#utility.yul\":14079:14145   */\n      tag_648\n        /* \"#utility.yul\":14095:14144   */\n      tag_649\n        /* \"#utility.yul\":14137:14143   */\n      dup5\n        /* \"#utility.yul\":14095:14144   */\n      tag_429\n      jump\t// in\n    tag_649:\n        /* \"#utility.yul\":14079:14145   */\n      tag_428\n      jump\t// in\n    tag_648:\n        /* \"#utility.yul\":14070:14145   */\n      swap1\n      pop\n        /* \"#utility.yul\":14168:14174   */\n      dup3\n        /* \"#utility.yul\":14161:14166   */\n      dup2\n        /* \"#utility.yul\":14154:14175   */\n      mstore\n        /* \"#utility.yul\":14206:14210   */\n      0x20\n        /* \"#utility.yul\":14199:14204   */\n      dup2\n        /* \"#utility.yul\":14195:14211   */\n      add\n        /* \"#utility.yul\":14244:14247   */\n      dup5\n        /* \"#utility.yul\":14235:14241   */\n      dup5\n        /* \"#utility.yul\":14230:14233   */\n      dup5\n        /* \"#utility.yul\":14226:14242   */\n      add\n        /* \"#utility.yul\":14223:14248   */\n      gt\n        /* \"#utility.yul\":14220:14332   */\n      iszero\n      tag_650\n      jumpi\n        /* \"#utility.yul\":14251:14330   */\n      tag_651\n      tag_426\n      jump\t// in\n    tag_651:\n        /* \"#utility.yul\":14220:14332   */\n    tag_650:\n        /* \"#utility.yul\":14341:14395   */\n      tag_652\n        /* \"#utility.yul\":14388:14394   */\n      dup5\n        /* \"#utility.yul\":14383:14386   */\n      dup3\n        /* \"#utility.yul\":14378:14381   */\n      dup6\n        /* \"#utility.yul\":14341:14395   */\n      tag_430\n      jump\t// in\n    tag_652:\n        /* \"#utility.yul\":14060:14401   */\n      pop\n        /* \"#utility.yul\":13976:14401   */\n      swap4\n      swap3\n      pop\n      pop\n      pop\n      jump\t// out\n        /* \"#utility.yul\":14421:14761   */\n    tag_432:\n        /* \"#utility.yul\":14477:14482   */\n      0x00\n        /* \"#utility.yul\":14526:14529   */\n      dup3\n        /* \"#utility.yul\":14519:14523   */\n      0x1f\n        /* \"#utility.yul\":14511:14517   */\n      dup4\n        /* \"#utility.yul\":14507:14524   */\n      add\n        /* \"#utility.yul\":14503:14530   */\n      slt\n        /* \"#utility.yul\":14493:14615   */\n      tag_654\n      jumpi\n        /* \"#utility.yul\":14534:14613   */\n      tag_655\n      tag_411\n      jump\t// in\n    tag_655:\n        /* \"#utility.yul\":14493:14615   */\n    tag_654:\n        /* \"#utility.yul\":14651:14657   */\n      dup2\n        /* \"#utility.yul\":14638:14658   */\n      calldataload\n        /* \"#utility.yul\":14676:14755   */\n      tag_656\n        /* \"#utility.yul\":14751:14754   */\n      dup5\n        /* \"#utility.yul\":14743:14749   */\n      dup3\n        /* \"#utility.yul\":14736:14740   */\n      0x20\n        /* \"#utility.yul\":14728:14734   */\n      dup7\n        /* \"#utility.yul\":14724:14741   */\n      add\n        /* \"#utility.yul\":14676:14755   */\n      tag_431\n      jump\t// in\n    tag_656:\n        /* \"#utility.yul\":14667:14755   */\n      swap2\n      pop\n        /* \"#utility.yul\":14483:14761   */\n      pop\n        /* \"#utility.yul\":14421:14761   */\n      swap3\n      swap2\n      pop\n      pop\n      jump\t// out\n        /* \"#utility.yul\":14767:15566   */\n    tag_88:\n        /* \"#utility.yul\":14854:14860   */\n      0x00\n        /* \"#utility.yul\":14862:14868   */\n      dup1\n        /* \"#utility.yul\":14870:14876   */\n      0x00\n        /* \"#utility.yul\":14919:14921   */\n      0x60\n        /* \"#utility.yul\":14907:14916   */\n      dup5\n        /* \"#utility.yul\":14898:14905   */\n      dup7\n        /* \"#utility.yul\":14894:14917   */\n      sub\n        /* \"#utility.yul\":14890:14922   */\n      slt\n        /* \"#utility.yul\":14887:15006   */\n      iszero\n      tag_658\n      jumpi\n        /* \"#utility.yul\":14925:15004   */\n      tag_659\n      tag_387\n      jump\t// in\n    tag_659:\n        /* \"#utility.yul\":14887:15006   */\n    tag_658:\n        /* \"#utility.yul\":15045:15046   */\n      0x00\n        /* \"#utility.yul\":15070:15123   */\n      tag_660\n        /* \"#utility.yul\":15115:15122   */\n      dup7\n        /* \"#utility.yul\":15106:15112   */\n      dup3\n        /* \"#utility.yul\":15095:15104   */\n      dup8\n        /* \"#utility.yul\":15091:15113   */\n      add\n        /* \"#utility.yul\":15070:15123   */\n      tag_406\n      jump\t// in\n    tag_660:\n        /* \"#utility.yul\":15060:15123   */\n      swap4\n      pop\n        /* \"#utility.yul\":15016:15133   */\n      pop\n        /* \"#utility.yul\":15172:15174   */\n      0x20\n        /* \"#utility.yul\":15198:15251   */\n      tag_661\n        /* \"#utility.yul\":15243:15250   */\n      dup7\n        /* \"#utility.yul\":15234:15240   */\n      dup3\n        /* \"#utility.yul\":15223:15232   */\n      dup8\n        /* \"#utility.yul\":15219:15241   */\n      add\n        /* \"#utility.yul\":15198:15251   */\n      tag_406\n      jump\t// in\n    tag_661:\n        /* \"#utility.yul\":15188:15251   */\n      swap3\n      pop\n        /* \"#utility.yul\":15143:15261   */\n      pop\n        /* \"#utility.yul\":15328:15330   */\n      0x40\n        /* \"#utility.yul\":15317:15326   */\n      dup5\n        /* \"#utility.yul\":15313:15331   */\n      add\n        /* \"#utility.yul\":15300:15332   */\n      calldataload\n        /* \"#utility.yul\":15359:15377   */\n      0xffffffffffffffff\n        /* \"#utility.yul\":15351:15357   */\n      dup2\n        /* \"#utility.yul\":15348:15378   */\n      gt\n        /* \"#utility.yul\":15345:15462   */\n      iszero\n      tag_662\n      jumpi\n        /* \"#utility.yul\":15381:15460   */\n      tag_663\n      tag_388\n      jump\t// in\n    tag_663:\n        /* \"#utility.yul\":15345:15462   */\n    tag_662:\n        /* \"#utility.yul\":15486:15549   */\n      tag_664\n        /* \"#utility.yul\":15541:15548   */\n      dup7\n        /* \"#utility.yul\":15532:15538   */\n      dup3\n        /* \"#utility.yul\":15521:15530   */\n      dup8\n        /* \"#utility.yul\":15517:15539   */\n      add\n        /* \"#utility.yul\":15486:15549   */\n      tag_432\n      jump\t// in\n    tag_664:\n        /* \"#utility.yul\":15476:15549   */\n      swap2\n      pop\n        /* \"#utility.yul\":15271:15559   */\n      pop\n        /* \"#utility.yul\":14767:15566   */\n      swap3\n      pop\n      swap3\n      pop\n      swap3\n      jump\t// out\n        /* \"#utility.yul\":15572:16337   */\n    tag_92:\n        /* \"#utility.yul\":15658:15664   */\n      0x00\n        /* \"#utility.yul\":15666:15672   */\n      dup1\n        /* \"#utility.yul\":15674:15680   */\n      0x00\n        /* \"#utility.yul\":15682:15688   */\n      dup1\n        /* \"#utility.yul\":15731:15734   */\n      0x80\n        /* \"#utility.yul\":15719:15728   */\n      dup6\n        /* \"#utility.yul\":15710:15717   */\n      dup8\n        /* \"#utility.yul\":15706:15729   */\n      sub\n        /* \"#utility.yul\":15702:15735   */\n      slt\n        /* \"#utility.yul\":15699:15819   */\n      iszero\n      tag_666\n      jumpi\n        /* \"#utility.yul\":15738:15817   */\n      tag_667\n      tag_387\n      jump\t// in\n    tag_667:\n        /* \"#utility.yul\":15699:15819   */\n    tag_666:\n        /* \"#utility.yul\":15858:15859   */\n      0x00\n        /* \"#utility.yul\":15883:15936   */\n      tag_668\n        /* \"#utility.yul\":15928:15935   */\n      dup8\n        /* \"#utility.yul\":15919:15925   */\n      dup3\n        /* \"#utility.yul\":15908:15917   */\n      dup9\n        /* \"#utility.yul\":15904:15926   */\n      add\n        /* \"#utility.yul\":15883:15936   */\n      tag_406\n      jump\t// in\n    tag_668:\n        /* \"#utility.yul\":15873:15936   */\n      swap5\n      pop\n        /* \"#utility.yul\":15829:15946   */\n      pop\n        /* \"#utility.yul\":15985:15987   */\n      0x20\n        /* \"#utility.yul\":16011:16064   */\n      tag_669\n        /* \"#utility.yul\":16056:16063   */\n      dup8\n        /* \"#utility.yul\":16047:16053   */\n      dup3\n        /* \"#utility.yul\":16036:16045   */\n      dup9\n        /* \"#utility.yul\":16032:16054   */\n      add\n        /* \"#utility.yul\":16011:16064   */\n      tag_406\n      jump\t// in\n    tag_669:\n        /* \"#utility.yul\":16001:16064   */\n      swap4\n      pop\n        /* \"#utility.yul\":15956:16074   */\n      pop\n        /* \"#utility.yul\":16113:16115   */\n      0x40\n        /* \"#utility.yul\":16139:16192   */\n      tag_670\n        /* \"#utility.yul\":16184:16191   */\n      dup8\n        /* \"#utility.yul\":16175:16181   */\n      dup3\n        /* \"#utility.yul\":16164:16173   */\n      dup9\n        /* \"#utility.yul\":16160:16182   */\n      add\n        /* \"#utility.yul\":16139:16192   */\n      tag_406\n      jump\t// in\n    tag_670:\n        /* \"#utility.yul\":16129:16192   */\n      swap3\n      pop\n        /* \"#utility.yul\":16084:16202   */\n      pop\n        /* \"#utility.yul\":16241:16243   */\n      0x60\n        /* \"#utility.yul\":16267:16320   */\n      tag_671\n        /* \"#utility.yul\":16312:16319   */\n      dup8\n        /* \"#utility.yul\":16303:16309   */\n      dup3\n        /* \"#utility.yul\":16292:16301   */\n      dup9\n        /* \"#utility.yul\":16288:16310   */\n      add\n        /* \"#utility.yul\":16267:16320   */\n      tag_406\n      jump\t// in\n    tag_671:\n        /* \"#utility.yul\":16257:16320   */\n      swap2\n      pop\n        /* \"#utility.yul\":16212:16330   */\n      pop\n        /* \"#utility.yul\":15572:16337   */\n      swap3\n      swap6\n      swap2\n      swap5\n      pop\n      swap3\n      pop\n      jump\t// out\n        /* \"#utility.yul\":16343:16672   */\n    tag_103:\n        /* \"#utility.yul\":16402:16408   */\n      0x00\n        /* \"#utility.yul\":16451:16453   */\n      0x20\n        /* \"#utility.yul\":16439:16448   */\n      dup3\n        /* \"#utility.yul\":16430:16437   */\n      dup5\n        /* \"#utility.yul\":16426:16449   */\n      sub\n        /* \"#utility.yul\":16422:16454   */\n      slt\n        /* \"#utility.yul\":16419:16538   */\n      iszero\n      tag_673\n      jumpi\n        /* \"#utility.yul\":16457:16536   */\n      tag_674\n      tag_387\n      jump\t// in\n    tag_674:\n        /* \"#utility.yul\":16419:16538   */\n    tag_673:\n        /* \"#utility.yul\":16577:16578   */\n      0x00\n        /* \"#utility.yul\":16602:16655   */\n      tag_675\n        /* \"#utility.yul\":16647:16654   */\n      dup5\n        /* \"#utility.yul\":16638:16644   */\n      dup3\n        /* \"#utility.yul\":16627:16636   */\n      dup6\n        /* \"#utility.yul\":16623:16645   */\n      add\n        /* \"#utility.yul\":16602:16655   */\n      tag_410\n      jump\t// in\n    tag_675:\n        /* \"#utility.yul\":16592:16655   */\n      swap2\n      pop\n        /* \"#utility.yul\":16548:16665   */\n      pop\n        /* \"#utility.yul\":16343:16672   */\n      swap3\n      swap2\n      pop\n      pop\n      jump\t// out\n        /* \"#utility.yul\":16678:17297   */\n    tag_107:\n        /* \"#utility.yul\":16755:16761   */\n      0x00\n        /* \"#utility.yul\":16763:16769   */\n      dup1\n        /* \"#utility.yul\":16771:16777   */\n      0x00\n        /* \"#utility.yul\":16820:16822   */\n      0x60\n        /* \"#utility.yul\":16808:16817   */\n      dup5\n        /* \"#utility.yul\":16799:16806   */\n      dup7\n        /* \"#utility.yul\":16795:16818   */\n      sub\n        /* \"#utility.yul\":16791:16823   */\n      slt\n        /* \"#utility.yul\":16788:16907   */\n      iszero\n      tag_677\n      jumpi\n        /* \"#utility.yul\":16826:16905   */\n      tag_678\n      tag_387\n      jump\t// in\n    tag_678:\n        /* \"#utility.yul\":16788:16907   */\n    tag_677:\n        /* \"#utility.yul\":16946:16947   */\n      0x00\n        /* \"#utility.yul\":16971:17024   */\n      tag_679\n        /* \"#utility.yul\":17016:17023   */\n      dup7\n        /* \"#utility.yul\":17007:17013   */\n      dup3\n        /* \"#utility.yul\":16996:17005   */\n      dup8\n        /* \"#utility.yul\":16992:17014   */\n      add\n        /* \"#utility.yul\":16971:17024   */\n      tag_406\n      jump\t// in\n    tag_679:\n        /* \"#utility.yul\":16961:17024   */\n      swap4\n      pop\n        /* \"#utility.yul\":16917:17034   */\n      pop\n        /* \"#utility.yul\":17073:17075   */\n      0x20\n        /* \"#utility.yul\":17099:17152   */\n      tag_680\n        /* \"#utility.yul\":17144:17151   */\n      dup7\n        /* \"#utility.yul\":17135:17141   */\n      dup3\n        /* \"#utility.yul\":17124:17133   */\n      dup8\n        /* \"#utility.yul\":17120:17142   */\n      add\n        /* \"#utility.yul\":17099:17152   */\n      tag_410\n      jump\t// in\n    tag_680:\n        /* \"#utility.yul\":17089:17152   */\n      swap3\n      pop\n        /* \"#utility.yul\":17044:17162   */\n      pop\n        /* \"#utility.yul\":17201:17203   */\n      0x40\n        /* \"#utility.yul\":17227:17280   */\n      tag_681\n        /* \"#utility.yul\":17272:17279   */\n      dup7\n        /* \"#utility.yul\":17263:17269   */\n      dup3\n        /* \"#utility.yul\":17252:17261   */\n      dup8\n        /* \"#utility.yul\":17248:17270   */\n      add\n        /* \"#utility.yul\":17227:17280   */\n      tag_406\n      jump\t// in\n    tag_681:\n        /* \"#utility.yul\":17217:17280   */\n      swap2\n      pop\n        /* \"#utility.yul\":17172:17290   */\n      pop\n        /* \"#utility.yul\":16678:17297   */\n      swap3\n      pop\n      swap3\n      pop\n      swap3\n      jump\t// out\n        /* \"#utility.yul\":17303:17777   */\n    tag_114:\n        /* \"#utility.yul\":17371:17377   */\n      0x00\n        /* \"#utility.yul\":17379:17385   */\n      dup1\n        /* \"#utility.yul\":17428:17430   */\n      0x40\n        /* \"#utility.yul\":17416:17425   */\n      dup4\n        /* \"#utility.yul\":17407:17414   */\n      dup6\n        /* \"#utility.yul\":17403:17426   */\n      sub\n        /* \"#utility.yul\":17399:17431   */\n      slt\n        /* \"#utility.yul\":17396:17515   */\n      iszero\n      tag_683\n      jumpi\n        /* \"#utility.yul\":17434:17513   */\n      tag_684\n      tag_387\n      jump\t// in\n    tag_684:\n        /* \"#utility.yul\":17396:17515   */\n    tag_683:\n        /* \"#utility.yul\":17554:17555   */\n      0x00\n        /* \"#utility.yul\":17579:17632   */\n      tag_685\n        /* \"#utility.yul\":17624:17631   */\n      dup6\n        /* \"#utility.yul\":17615:17621   */\n      dup3\n        /* \"#utility.yul\":17604:17613   */\n      dup7\n        /* \"#utility.yul\":17600:17622   */\n      add\n        /* \"#utility.yul\":17579:17632   */\n      tag_406\n      jump\t// in\n    tag_685:\n        /* \"#utility.yul\":17569:17632   */\n      swap3\n      pop\n        /* \"#utility.yul\":17525:17642   */\n      pop\n        /* \"#utility.yul\":17681:17683   */\n      0x20\n        /* \"#utility.yul\":17707:17760   */\n      tag_686\n        /* \"#utility.yul\":17752:17759   */\n      dup6\n        /* \"#utility.yul\":17743:17749   */\n      dup3\n        /* \"#utility.yul\":17732:17741   */\n      dup7\n        /* \"#utility.yul\":17728:17750   */\n      add\n        /* \"#utility.yul\":17707:17760   */\n      tag_406\n      jump\t// in\n    tag_686:\n        /* \"#utility.yul\":17697:17760   */\n      swap2\n      pop\n        /* \"#utility.yul\":17652:17770   */\n      pop\n        /* \"#utility.yul\":17303:17777   */\n      swap3\n      pop\n      swap3\n      swap1\n      pop\n      jump\t// out\n        /* \"#utility.yul\":17867:18207   */\n    tag_433:\n        /* \"#utility.yul\":18016:18020   */\n      0x20\n        /* \"#utility.yul\":18011:18014   */\n      dup3\n        /* \"#utility.yul\":18007:18021   */\n      add\n        /* \"#utility.yul\":18108:18112   */\n      0x00\n        /* \"#utility.yul\":18101:18106   */\n      dup3\n        /* \"#utility.yul\":18097:18113   */\n      add\n        /* \"#utility.yul\":18091:18114   */\n      mload\n        /* \"#utility.yul\":18127:18190   */\n      tag_688\n        /* \"#utility.yul\":18184:18188   */\n      0x00\n        /* \"#utility.yul\":18179:18182   */\n      dup6\n        /* \"#utility.yul\":18175:18189   */\n      add\n        /* \"#utility.yul\":18161:18173   */\n      dup3\n        /* \"#utility.yul\":18127:18190   */\n      tag_416\n      jump\t// in\n    tag_688:\n        /* \"#utility.yul\":18031:18200   */\n      pop\n        /* \"#utility.yul\":17985:18207   */\n      pop\n        /* \"#utility.yul\":17867:18207   */\n      pop\n      pop\n      jump\t// out\n        /* \"#utility.yul\":18213:18539   */\n    tag_120:\n        /* \"#utility.yul\":18358:18362   */\n      0x00\n        /* \"#utility.yul\":18396:18398   */\n      0x20\n        /* \"#utility.yul\":18385:18394   */\n      dup3\n        /* \"#utility.yul\":18381:18399   */\n      add\n        /* \"#utility.yul\":18373:18399   */\n      swap1\n      pop\n        /* \"#utility.yul\":18409:18532   */\n      tag_690\n        /* \"#utility.yul\":18529:18530   */\n      0x00\n        /* \"#utility.yul\":18518:18527   */\n      dup4\n        /* \"#utility.yul\":18514:18531   */\n      add\n        /* \"#utility.yul\":18505:18511   */\n      dup5\n        /* \"#utility.yul\":18409:18532   */\n      tag_433\n      jump\t// in\n    tag_690:\n        /* \"#utility.yul\":18213:18539   */\n      swap3\n      swap2\n      pop\n      pop\n      jump\t// out\n        /* \"#utility.yul\":18545:18767   */\n    tag_128:\n        /* \"#utility.yul\":18638:18642   */\n      0x00\n        /* \"#utility.yul\":18676:18678   */\n      0x20\n        /* \"#utility.yul\":18665:18674   */\n      dup3\n        /* \"#utility.yul\":18661:18679   */\n      add\n        /* \"#utility.yul\":18653:18679   */\n      swap1\n      pop\n        /* \"#utility.yul\":18689:18760   */\n      tag_692\n        /* \"#utility.yul\":18757:18758   */\n      0x00\n        /* \"#utility.yul\":18746:18755   */\n      dup4\n        /* \"#utility.yul\":18742:18759   */\n      add\n        /* \"#utility.yul\":18733:18739   */\n      dup5\n        /* \"#utility.yul\":18689:18760   */\n      tag_407\n      jump\t// in\n    tag_692:\n        /* \"#utility.yul\":18545:18767   */\n      swap3\n      swap2\n      pop\n      pop\n      jump\t// out\n        /* \"#utility.yul\":18773:19247   */\n    tag_140:\n        /* \"#utility.yul\":18841:18847   */\n      0x00\n        /* \"#utility.yul\":18849:18855   */\n      dup1\n        /* \"#utility.yul\":18898:18900   */\n      0x40\n        /* \"#utility.yul\":18886:18895   */\n      dup4\n        /* \"#utility.yul\":18877:18884   */\n      dup6\n        /* \"#utility.yul\":18873:18896   */\n      sub\n        /* \"#utility.yul\":18869:18901   */\n      slt\n        /* \"#utility.yul\":18866:18985   */\n      iszero\n      tag_694\n      jumpi\n        /* \"#utility.yul\":18904:18983   */\n      tag_695\n      tag_387\n      jump\t// in\n    tag_695:\n        /* \"#utility.yul\":18866:18985   */\n    tag_694:\n        /* \"#utility.yul\":19024:19025   */\n      0x00\n        /* \"#utility.yul\":19049:19102   */\n      tag_696\n        /* \"#utility.yul\":19094:19101   */\n      dup6\n        /* \"#utility.yul\":19085:19091   */\n      dup3\n        /* \"#utility.yul\":19074:19083   */\n      dup7\n        /* \"#utility.yul\":19070:19092   */\n      add\n        /* \"#utility.yul\":19049:19102   */\n      tag_410\n      jump\t// in\n    tag_696:\n        /* \"#utility.yul\":19039:19102   */\n      swap3\n      pop\n        /* \"#utility.yul\":18995:19112   */\n      pop\n        /* \"#utility.yul\":19151:19153   */\n      0x20\n        /* \"#utility.yul\":19177:19230   */\n      tag_697\n        /* \"#utility.yul\":19222:19229   */\n      dup6\n        /* \"#utility.yul\":19213:19219   */\n      dup3\n        /* \"#utility.yul\":19202:19211   */\n      dup7\n        /* \"#utility.yul\":19198:19220   */\n      add\n        /* \"#utility.yul\":19177:19230   */\n      tag_410\n      jump\t// in\n    tag_697:\n        /* \"#utility.yul\":19167:19230   */\n      swap2\n      pop\n        /* \"#utility.yul\":19122:19240   */\n      pop\n        /* \"#utility.yul\":18773:19247   */\n      swap3\n      pop\n      swap3\n      swap1\n      pop\n      jump\t// out\n        /* \"#utility.yul\":19253:19487   */\n    tag_434:\n        /* \"#utility.yul\":19393:19427   */\n      0x416363657373436f6e74726f6c3a2063616e206f6e6c792072656e6f756e6365\n        /* \"#utility.yul\":19389:19390   */\n      0x00\n        /* \"#utility.yul\":19381:19387   */\n      dup3\n        /* \"#utility.yul\":19377:19391   */\n      add\n        /* \"#utility.yul\":19370:19428   */\n      mstore\n        /* \"#utility.yul\":19462:19479   */\n      0x20726f6c657320666f722073656c660000000000000000000000000000000000\n        /* \"#utility.yul\":19457:19459   */\n      0x20\n        /* \"#utility.yul\":19449:19455   */\n      dup3\n        /* \"#utility.yul\":19445:19460   */\n      add\n        /* \"#utility.yul\":19438:19480   */\n      mstore\n        /* \"#utility.yul\":19253:19487   */\n      pop\n      jump\t// out\n        /* \"#utility.yul\":19493:19859   */\n    tag_435:\n        /* \"#utility.yul\":19635:19638   */\n      0x00\n        /* \"#utility.yul\":19656:19723   */\n      tag_700\n        /* \"#utility.yul\":19720:19722   */\n      0x2f\n        /* \"#utility.yul\":19715:19718   */\n      dup4\n        /* \"#utility.yul\":19656:19723   */\n      tag_424\n      jump\t// in\n    tag_700:\n        /* \"#utility.yul\":19649:19723   */\n      swap2\n      pop\n        /* \"#utility.yul\":19732:19825   */\n      tag_701\n        /* \"#utility.yul\":19821:19824   */\n      dup3\n        /* \"#utility.yul\":19732:19825   */\n      tag_434\n      jump\t// in\n    tag_701:\n        /* \"#utility.yul\":19850:19852   */\n      0x40\n        /* \"#utility.yul\":19845:19848   */\n      dup3\n        /* \"#utility.yul\":19841:19853   */\n      add\n        /* \"#utility.yul\":19834:19853   */\n      swap1\n      pop\n        /* \"#utility.yul\":19493:19859   */\n      swap2\n      swap1\n      pop\n      jump\t// out\n        /* \"#utility.yul\":19865:20284   */\n    tag_171:\n        /* \"#utility.yul\":20031:20035   */\n      0x00\n        /* \"#utility.yul\":20069:20071   */\n      0x20\n        /* \"#utility.yul\":20058:20067   */\n      dup3\n        /* \"#utility.yul\":20054:20072   */\n      add\n        /* \"#utility.yul\":20046:20072   */\n      swap1\n      pop\n        /* \"#utility.yul\":20118:20127   */\n      dup2\n        /* \"#utility.yul\":20112:20116   */\n      dup2\n        /* \"#utility.yul\":20108:20128   */\n      sub\n        /* \"#utility.yul\":20104:20105   */\n      0x00\n        /* \"#utility.yul\":20093:20102   */\n      dup4\n        /* \"#utility.yul\":20089:20106   */\n      add\n        /* \"#utility.yul\":20082:20129   */\n      mstore\n        /* \"#utility.yul\":20146:20277   */\n      tag_703\n        /* \"#utility.yul\":20272:20276   */\n      dup2\n        /* \"#utility.yul\":20146:20277   */\n      tag_435\n      jump\t// in\n    tag_703:\n        /* \"#utility.yul\":20138:20277   */\n      swap1\n      pop\n        /* \"#utility.yul\":19865:20284   */\n      swap2\n      swap1\n      pop\n      jump\t// out\n        /* \"#utility.yul\":20290:20521   */\n    tag_436:\n        /* \"#utility.yul\":20430:20464   */\n      0x526563697069656e747320616e6420746f6b656e20616d6f756e7473206c656e\n        /* \"#utility.yul\":20426:20427   */\n      0x00\n        /* \"#utility.yul\":20418:20424   */\n      dup3\n        /* \"#utility.yul\":20414:20428   */\n      add\n        /* \"#utility.yul\":20407:20465   */\n      mstore\n        /* \"#utility.yul\":20499:20513   */\n      0x677468206d69736d617463680000000000000000000000000000000000000000\n        /* \"#utility.yul\":20494:20496   */\n      0x20\n        /* \"#utility.yul\":20486:20492   */\n      dup3\n        /* \"#utility.yul\":20482:20497   */\n      add\n        /* \"#utility.yul\":20475:20514   */\n      mstore\n        /* \"#utility.yul\":20290:20521   */\n      pop\n      jump\t// out\n        /* \"#utility.yul\":20527:20893   */\n    tag_437:\n        /* \"#utility.yul\":20669:20672   */\n      0x00\n        /* \"#utility.yul\":20690:20757   */\n      tag_706\n        /* \"#utility.yul\":20754:20756   */\n      0x2c\n        /* \"#utility.yul\":20749:20752   */\n      dup4\n        /* \"#utility.yul\":20690:20757   */\n      tag_424\n      jump\t// in\n    tag_706:\n        /* \"#utility.yul\":20683:20757   */\n      swap2\n      pop\n        /* \"#utility.yul\":20766:20859   */\n      tag_707\n        /* \"#utility.yul\":20855:20858   */\n      dup3\n        /* \"#utility.yul\":20766:20859   */\n      tag_436\n      jump\t// in\n    tag_707:\n        /* \"#utility.yul\":20884:20886   */\n      0x40\n        /* \"#utility.yul\":20879:20882   */\n      dup3\n        /* \"#utility.yul\":20875:20887   */\n      add\n        /* \"#utility.yul\":20868:20887   */\n      swap1\n      pop\n        /* \"#utility.yul\":20527:20893   */\n      swap2\n      swap1\n      pop\n      jump\t// out\n        /* \"#utility.yul\":20899:21318   */\n    tag_179:\n        /* \"#utility.yul\":21065:21069   */\n      0x00\n        /* \"#utility.yul\":21103:21105   */\n      0x20\n        /* \"#utility.yul\":21092:21101   */\n      dup3\n        /* \"#utility.yul\":21088:21106   */\n      add\n        /* \"#utility.yul\":21080:21106   */\n      swap1\n      pop\n        /* \"#utility.yul\":21152:21161   */\n      dup2\n        /* \"#utility.yul\":21146:21150   */\n      dup2\n        /* \"#utility.yul\":21142:21162   */\n      sub\n        /* \"#utility.yul\":21138:21139   */\n      0x00\n        /* \"#utility.yul\":21127:21136   */\n      dup4\n        /* \"#utility.yul\":21123:21140   */\n      add\n        /* \"#utility.yul\":21116:21163   */\n      mstore\n        /* \"#utility.yul\":21180:21311   */\n      tag_709\n        /* \"#utility.yul\":21306:21310   */\n      dup2\n        /* \"#utility.yul\":21180:21311   */\n      tag_437\n      jump\t// in\n    tag_709:\n        /* \"#utility.yul\":21172:21311   */\n      swap1\n      pop\n        /* \"#utility.yul\":20899:21318   */\n      swap2\n      swap1\n      pop\n      jump\t// out\n        /* \"#utility.yul\":21324:21504   */\n    tag_185:\n        /* \"#utility.yul\":21372:21449   */\n      0x4e487b7100000000000000000000000000000000000000000000000000000000\n        /* \"#utility.yul\":21369:21370   */\n      0x00\n        /* \"#utility.yul\":21362:21450   */\n      mstore\n        /* \"#utility.yul\":21469:21473   */\n      0x32\n        /* \"#utility.yul\":21466:21467   */\n      0x04\n        /* \"#utility.yul\":21459:21474   */\n      mstore\n        /* \"#utility.yul\":21493:21497   */\n      0x24\n        /* \"#utility.yul\":21490:21491   */\n      0x00\n        /* \"#utility.yul\":21483:21498   */\n      revert\n        /* \"#utility.yul\":21510:21628   */\n    tag_438:\n        /* \"#utility.yul\":21597:21621   */\n      tag_712\n        /* \"#utility.yul\":21615:21620   */\n      dup2\n        /* \"#utility.yul\":21597:21621   */\n      tag_408\n      jump\t// in\n    tag_712:\n        /* \"#utility.yul\":21592:21595   */\n      dup3\n        /* \"#utility.yul\":21585:21622   */\n      mstore\n        /* \"#utility.yul\":21510:21628   */\n      pop\n      pop\n      jump\t// out\n        /* \"#utility.yul\":21634:21966   */\n    tag_190:\n        /* \"#utility.yul\":21755:21759   */\n      0x00\n        /* \"#utility.yul\":21793:21795   */\n      0x40\n        /* \"#utility.yul\":21782:21791   */\n      dup3\n        /* \"#utility.yul\":21778:21796   */\n      add\n        /* \"#utility.yul\":21770:21796   */\n      swap1\n      pop\n        /* \"#utility.yul\":21806:21877   */\n      tag_714\n        /* \"#utility.yul\":21874:21875   */\n      0x00\n        /* \"#utility.yul\":21863:21872   */\n      dup4\n        /* \"#utility.yul\":21859:21876   */\n      add\n        /* \"#utility.yul\":21850:21856   */\n      dup6\n        /* \"#utility.yul\":21806:21877   */\n      tag_438\n      jump\t// in\n    tag_714:\n        /* \"#utility.yul\":21887:21959   */\n      tag_715\n        /* \"#utility.yul\":21955:21957   */\n      0x20\n        /* \"#utility.yul\":21944:21953   */\n      dup4\n        /* \"#utility.yul\":21940:21958   */\n      add\n        /* \"#utility.yul\":21931:21937   */\n      dup5\n        /* \"#utility.yul\":21887:21959   */\n      tag_407\n      jump\t// in\n    tag_715:\n        /* \"#utility.yul\":21634:21966   */\n      swap4\n      swap3\n      pop\n      pop\n      pop\n      jump\t// out\n        /* \"#utility.yul\":21972:22088   */\n    tag_439:\n        /* \"#utility.yul\":22042:22063   */\n      tag_717\n        /* \"#utility.yul\":22057:22062   */\n      dup2\n        /* \"#utility.yul\":22042:22063   */\n      tag_392\n      jump\t// in\n    tag_717:\n        /* \"#utility.yul\":22035:22040   */\n      dup2\n        /* \"#utility.yul\":22032:22064   */\n      eq\n        /* \"#utility.yul\":22022:22082   */\n      tag_718\n      jumpi\n        /* \"#utility.yul\":22078:22079   */\n      0x00\n        /* \"#utility.yul\":22075:22076   */\n      dup1\n        /* \"#utility.yul\":22068:22080   */\n      revert\n        /* \"#utility.yul\":22022:22082   */\n    tag_718:\n        /* \"#utility.yul\":21972:22088   */\n      pop\n      jump\t// out\n        /* \"#utility.yul\":22094:22231   */\n    tag_440:\n        /* \"#utility.yul\":22148:22153   */\n      0x00\n        /* \"#utility.yul\":22179:22185   */\n      dup2\n        /* \"#utility.yul\":22173:22186   */\n      mload\n        /* \"#utility.yul\":22164:22186   */\n      swap1\n      pop\n        /* \"#utility.yul\":22195:22225   */\n      tag_720\n        /* \"#utility.yul\":22219:22224   */\n      dup2\n        /* \"#utility.yul\":22195:22225   */\n      tag_439\n      jump\t// in\n    tag_720:\n        /* \"#utility.yul\":22094:22231   */\n      swap3\n      swap2\n      pop\n      pop\n      jump\t// out\n        /* \"#utility.yul\":22237:22582   */\n    tag_194:\n        /* \"#utility.yul\":22304:22310   */\n      0x00\n        /* \"#utility.yul\":22353:22355   */\n      0x20\n        /* \"#utility.yul\":22341:22350   */\n      dup3\n        /* \"#utility.yul\":22332:22339   */\n      dup5\n        /* \"#utility.yul\":22328:22351   */\n      sub\n        /* \"#utility.yul\":22324:22356   */\n      slt\n        /* \"#utility.yul\":22321:22440   */\n      iszero\n      tag_722\n      jumpi\n        /* \"#utility.yul\":22359:22438   */\n      tag_723\n      tag_387\n      jump\t// in\n    tag_723:\n        /* \"#utility.yul\":22321:22440   */\n    tag_722:\n        /* \"#utility.yul\":22479:22480   */\n      0x00\n        /* \"#utility.yul\":22504:22565   */\n      tag_724\n        /* \"#utility.yul\":22557:22564   */\n      dup5\n        /* \"#utility.yul\":22548:22554   */\n      dup3\n        /* \"#utility.yul\":22537:22546   */\n      dup6\n        /* \"#utility.yul\":22533:22555   */\n      add\n        /* \"#utility.yul\":22504:22565   */\n      tag_440\n      jump\t// in\n    tag_724:\n        /* \"#utility.yul\":22494:22565   */\n      swap2\n      pop\n        /* \"#utility.yul\":22450:22575   */\n      pop\n        /* \"#utility.yul\":22237:22582   */\n      swap3\n      swap2\n      pop\n      pop\n      jump\t// out\n        /* \"#utility.yul\":22588:22759   */\n    tag_441:\n        /* \"#utility.yul\":22728:22751   */\n      0x546f6b656e207472616e73666572206661696c65640000000000000000000000\n        /* \"#utility.yul\":22724:22725   */\n      0x00\n        /* \"#utility.yul\":22716:22722   */\n      dup3\n        /* \"#utility.yul\":22712:22726   */\n      add\n        /* \"#utility.yul\":22705:22752   */\n      mstore\n        /* \"#utility.yul\":22588:22759   */\n      pop\n      jump\t// out\n        /* \"#utility.yul\":22765:23131   */\n    tag_442:\n        /* \"#utility.yul\":22907:22910   */\n      0x00\n        /* \"#utility.yul\":22928:22995   */\n      tag_727\n        /* \"#utility.yul\":22992:22994   */\n      0x15\n        /* \"#utility.yul\":22987:22990   */\n      dup4\n        /* \"#utility.yul\":22928:22995   */\n      tag_424\n      jump\t// in\n    tag_727:\n        /* \"#utility.yul\":22921:22995   */\n      swap2\n      pop\n        /* \"#utility.yul\":23004:23097   */\n      tag_728\n        /* \"#utility.yul\":23093:23096   */\n      dup3\n        /* \"#utility.yul\":23004:23097   */\n      tag_441\n      jump\t// in\n    tag_728:\n        /* \"#utility.yul\":23122:23124   */\n      0x20\n        /* \"#utility.yul\":23117:23120   */\n      dup3\n        /* \"#utility.yul\":23113:23125   */\n      add\n        /* \"#utility.yul\":23106:23125   */\n      swap1\n      pop\n        /* \"#utility.yul\":22765:23131   */\n      swap2\n      swap1\n      pop\n      jump\t// out\n        /* \"#utility.yul\":23137:23556   */\n    tag_197:\n        /* \"#utility.yul\":23303:23307   */\n      0x00\n        /* \"#utility.yul\":23341:23343   */\n      0x20\n        /* \"#utility.yul\":23330:23339   */\n      dup3\n        /* \"#utility.yul\":23326:23344   */\n      add\n        /* \"#utility.yul\":23318:23344   */\n      swap1\n      pop\n        /* \"#utility.yul\":23390:23399   */\n      dup2\n        /* \"#utility.yul\":23384:23388   */\n      dup2\n        /* \"#utility.yul\":23380:23400   */\n      sub\n        /* \"#utility.yul\":23376:23377   */\n      0x00\n        /* \"#utility.yul\":23365:23374   */\n      dup4\n        /* \"#utility.yul\":23361:23378   */\n      add\n        /* \"#utility.yul\":23354:23401   */\n      mstore\n        /* \"#utility.yul\":23418:23549   */\n      tag_730\n        /* \"#utility.yul\":23544:23548   */\n      dup2\n        /* \"#utility.yul\":23418:23549   */\n      tag_442\n      jump\t// in\n    tag_730:\n        /* \"#utility.yul\":23410:23549   */\n      swap1\n      pop\n        /* \"#utility.yul\":23137:23556   */\n      swap2\n      swap1\n      pop\n      jump\t// out\n        /* \"#utility.yul\":23562:23746   */\n    tag_443:\n        /* \"#utility.yul\":23661:23672   */\n      0x00\n        /* \"#utility.yul\":23695:23701   */\n      dup3\n        /* \"#utility.yul\":23690:23693   */\n      dup3\n        /* \"#utility.yul\":23683:23702   */\n      mstore\n        /* \"#utility.yul\":23735:23739   */\n      0x20\n        /* \"#utility.yul\":23730:23733   */\n      dup3\n        /* \"#utility.yul\":23726:23740   */\n      add\n        /* \"#utility.yul\":23711:23740   */\n      swap1\n      pop\n        /* \"#utility.yul\":23562:23746   */\n      swap3\n      swap2\n      pop\n      pop\n      jump\t// out\n        /* \"#utility.yul\":23752:23854   */\n    tag_444:\n        /* \"#utility.yul\":23821:23825   */\n      0x00\n        /* \"#utility.yul\":23844:23847   */\n      dup2\n        /* \"#utility.yul\":23836:23847   */\n      swap1\n      pop\n        /* \"#utility.yul\":23752:23854   */\n      swap2\n      swap1\n      pop\n      jump\t// out\n        /* \"#utility.yul\":23860:23968   */\n    tag_445:\n        /* \"#utility.yul\":23937:23961   */\n      tag_734\n        /* \"#utility.yul\":23955:23960   */\n      dup2\n        /* \"#utility.yul\":23937:23961   */\n      tag_408\n      jump\t// in\n    tag_734:\n        /* \"#utility.yul\":23932:23935   */\n      dup3\n        /* \"#utility.yul\":23925:23962   */\n      mstore\n        /* \"#utility.yul\":23860:23968   */\n      pop\n      pop\n      jump\t// out\n        /* \"#utility.yul\":23974:24153   */\n    tag_446:\n        /* \"#utility.yul\":24043:24053   */\n      0x00\n        /* \"#utility.yul\":24064:24110   */\n      tag_736\n        /* \"#utility.yul\":24106:24109   */\n      dup4\n        /* \"#utility.yul\":24098:24104   */\n      dup4\n        /* \"#utility.yul\":24064:24110   */\n      tag_445\n      jump\t// in\n    tag_736:\n        /* \"#utility.yul\":24142:24146   */\n      0x20\n        /* \"#utility.yul\":24137:24140   */\n      dup4\n        /* \"#utility.yul\":24133:24147   */\n      add\n        /* \"#utility.yul\":24119:24147   */\n      swap1\n      pop\n        /* \"#utility.yul\":23974:24153   */\n      swap3\n      swap2\n      pop\n      pop\n      jump\t// out\n        /* \"#utility.yul\":24159:24281   */\n    tag_447:\n        /* \"#utility.yul\":24211:24216   */\n      0x00\n        /* \"#utility.yul\":24236:24275   */\n      tag_738\n        /* \"#utility.yul\":24271:24273   */\n      0x20\n        /* \"#utility.yul\":24266:24269   */\n      dup5\n        /* \"#utility.yul\":24262:24274   */\n      add\n        /* \"#utility.yul\":24257:24260   */\n      dup5\n        /* \"#utility.yul\":24236:24275   */\n      tag_410\n      jump\t// in\n    tag_738:\n        /* \"#utility.yul\":24227:24275   */\n      swap1\n      pop\n        /* \"#utility.yul\":24159:24281   */\n      swap3\n      swap2\n      pop\n      pop\n      jump\t// out\n        /* \"#utility.yul\":24287:24402   */\n    tag_448:\n        /* \"#utility.yul\":24359:24363   */\n      0x00\n        /* \"#utility.yul\":24391:24395   */\n      0x20\n        /* \"#utility.yul\":24386:24389   */\n      dup3\n        /* \"#utility.yul\":24382:24396   */\n      add\n        /* \"#utility.yul\":24374:24396   */\n      swap1\n      pop\n        /* \"#utility.yul\":24287:24402   */\n      swap2\n      swap1\n      pop\n      jump\t// out\n        /* \"#utility.yul\":24438:25137   */\n    tag_449:\n        /* \"#utility.yul\":24567:24570   */\n      0x00\n        /* \"#utility.yul\":24590:24676   */\n      tag_741\n        /* \"#utility.yul\":24669:24675   */\n      dup4\n        /* \"#utility.yul\":24664:24667   */\n      dup6\n        /* \"#utility.yul\":24590:24676   */\n      tag_443\n      jump\t// in\n    tag_741:\n        /* \"#utility.yul\":24583:24676   */\n      swap4\n      pop\n        /* \"#utility.yul\":24700:24758   */\n      tag_742\n        /* \"#utility.yul\":24752:24757   */\n      dup3\n        /* \"#utility.yul\":24700:24758   */\n      tag_444\n      jump\t// in\n    tag_742:\n        /* \"#utility.yul\":24781:24788   */\n      dup1\n        /* \"#utility.yul\":24812:24813   */\n      0x00\n        /* \"#utility.yul\":24797:25112   */\n    tag_743:\n        /* \"#utility.yul\":24822:24828   */\n      dup6\n        /* \"#utility.yul\":24819:24820   */\n      dup2\n        /* \"#utility.yul\":24816:24829   */\n      lt\n        /* \"#utility.yul\":24797:25112   */\n      iszero\n      tag_745\n      jumpi\n        /* \"#utility.yul\":24892:24934   */\n      tag_746\n        /* \"#utility.yul\":24927:24933   */\n      dup3\n        /* \"#utility.yul\":24918:24925   */\n      dup5\n        /* \"#utility.yul\":24892:24934   */\n      tag_447\n      jump\t// in\n    tag_746:\n        /* \"#utility.yul\":24954:25017   */\n      tag_747\n        /* \"#utility.yul\":25013:25016   */\n      dup9\n        /* \"#utility.yul\":24998:25011   */\n      dup3\n        /* \"#utility.yul\":24954:25017   */\n      tag_446\n      jump\t// in\n    tag_747:\n        /* \"#utility.yul\":24947:25017   */\n      swap8\n      pop\n        /* \"#utility.yul\":25040:25102   */\n      tag_748\n        /* \"#utility.yul\":25095:25101   */\n      dup4\n        /* \"#utility.yul\":25040:25102   */\n      tag_448\n      jump\t// in\n    tag_748:\n        /* \"#utility.yul\":25030:25102   */\n      swap3\n      pop\n        /* \"#utility.yul\":24857:25112   */\n      pop\n        /* \"#utility.yul\":24844:24845   */\n      0x01\n        /* \"#utility.yul\":24841:24842   */\n      dup2\n        /* \"#utility.yul\":24837:24846   */\n      add\n        /* \"#utility.yul\":24832:24846   */\n      swap1\n      pop\n        /* \"#utility.yul\":24797:25112   */\n      jump(tag_743)\n    tag_745:\n        /* \"#utility.yul\":24801:24815   */\n      pop\n        /* \"#utility.yul\":25128:25131   */\n      dup6\n        /* \"#utility.yul\":25121:25131   */\n      swap3\n      pop\n        /* \"#utility.yul\":24572:25137   */\n      pop\n      pop\n        /* \"#utility.yul\":24438:25137   */\n      swap4\n      swap3\n      pop\n      pop\n      pop\n      jump\t// out\n        /* \"#utility.yul\":25143:25327   */\n    tag_450:\n        /* \"#utility.yul\":25242:25253   */\n      0x00\n        /* \"#utility.yul\":25276:25282   */\n      dup3\n        /* \"#utility.yul\":25271:25274   */\n      dup3\n        /* \"#utility.yul\":25264:25283   */\n      mstore\n        /* \"#utility.yul\":25316:25320   */\n      0x20\n        /* \"#utility.yul\":25311:25314   */\n      dup3\n        /* \"#utility.yul\":25307:25321   */\n      add\n        /* \"#utility.yul\":25292:25321   */\n      swap1\n      pop\n        /* \"#utility.yul\":25143:25327   */\n      swap3\n      swap2\n      pop\n      pop\n      jump\t// out\n        /* \"#utility.yul\":25333:25450   */\n    tag_451:\n        /* \"#utility.yul\":25442:25443   */\n      0x00\n        /* \"#utility.yul\":25439:25440   */\n      dup1\n        /* \"#utility.yul\":25432:25444   */\n      revert\n        /* \"#utility.yul\":25456:25555   */\n    tag_452:\n        /* \"#utility.yul\":25541:25547   */\n      dup3\n        /* \"#utility.yul\":25536:25539   */\n      dup2\n        /* \"#utility.yul\":25531:25534   */\n      dup4\n        /* \"#utility.yul\":25518:25548   */\n      calldatacopy\n        /* \"#utility.yul\":25456:25555   */\n      pop\n      pop\n      pop\n      jump\t// out\n        /* \"#utility.yul\":25591:26128   */\n    tag_453:\n        /* \"#utility.yul\":25719:25722   */\n      0x00\n        /* \"#utility.yul\":25740:25826   */\n      tag_753\n        /* \"#utility.yul\":25819:25825   */\n      dup4\n        /* \"#utility.yul\":25814:25817   */\n      dup6\n        /* \"#utility.yul\":25740:25826   */\n      tag_450\n      jump\t// in\n    tag_753:\n        /* \"#utility.yul\":25733:25826   */\n      swap4\n      pop\n        /* \"#utility.yul\":25850:25916   */\n      0x07ffffffffffffffffffffffffffffffffffffffffffffffffffffffffffffff\n        /* \"#utility.yul\":25842:25848   */\n      dup4\n        /* \"#utility.yul\":25839:25917   */\n      gt\n        /* \"#utility.yul\":25836:26001   */\n      iszero\n      tag_754\n      jumpi\n        /* \"#utility.yul\":25920:25999   */\n      tag_755\n      tag_451\n      jump\t// in\n    tag_755:\n        /* \"#utility.yul\":25836:26001   */\n    tag_754:\n        /* \"#utility.yul\":26032:26036   */\n      0x20\n        /* \"#utility.yul\":26024:26030   */\n      dup4\n        /* \"#utility.yul\":26020:26037   */\n      mul\n        /* \"#utility.yul\":26010:26037   */\n      swap3\n      pop\n        /* \"#utility.yul\":26047:26090   */\n      tag_756\n        /* \"#utility.yul\":26083:26089   */\n      dup4\n        /* \"#utility.yul\":26078:26081   */\n      dup6\n        /* \"#utility.yul\":26071:26076   */\n      dup5\n        /* \"#utility.yul\":26047:26090   */\n      tag_452\n      jump\t// in\n    tag_756:\n        /* \"#utility.yul\":26115:26121   */\n      dup3\n        /* \"#utility.yul\":26110:26113   */\n      dup5\n        /* \"#utility.yul\":26106:26122   */\n      add\n        /* \"#utility.yul\":26099:26122   */\n      swap1\n      pop\n        /* \"#utility.yul\":25591:26128   */\n      swap4\n      swap3\n      pop\n      pop\n      pop\n      jump\t// out\n        /* \"#utility.yul\":26134:26808   */\n    tag_199:\n        /* \"#utility.yul\":26375:26379   */\n      0x00\n        /* \"#utility.yul\":26413:26415   */\n      0x40\n        /* \"#utility.yul\":26402:26411   */\n      dup3\n        /* \"#utility.yul\":26398:26416   */\n      add\n        /* \"#utility.yul\":26390:26416   */\n      swap1\n      pop\n        /* \"#utility.yul\":26462:26471   */\n      dup2\n        /* \"#utility.yul\":26456:26460   */\n      dup2\n        /* \"#utility.yul\":26452:26472   */\n      sub\n        /* \"#utility.yul\":26448:26449   */\n      0x00\n        /* \"#utility.yul\":26437:26446   */\n      dup4\n        /* \"#utility.yul\":26433:26450   */\n      add\n        /* \"#utility.yul\":26426:26473   */\n      mstore\n        /* \"#utility.yul\":26490:26608   */\n      tag_758\n        /* \"#utility.yul\":26603:26607   */\n      dup2\n        /* \"#utility.yul\":26594:26600   */\n      dup7\n        /* \"#utility.yul\":26586:26592   */\n      dup9\n        /* \"#utility.yul\":26490:26608   */\n      tag_449\n      jump\t// in\n    tag_758:\n        /* \"#utility.yul\":26482:26608   */\n      swap1\n      pop\n        /* \"#utility.yul\":26655:26664   */\n      dup2\n        /* \"#utility.yul\":26649:26653   */\n      dup2\n        /* \"#utility.yul\":26645:26665   */\n      sub\n        /* \"#utility.yul\":26640:26642   */\n      0x20\n        /* \"#utility.yul\":26629:26638   */\n      dup4\n        /* \"#utility.yul\":26625:26643   */\n      add\n        /* \"#utility.yul\":26618:26666   */\n      mstore\n        /* \"#utility.yul\":26683:26801   */\n      tag_759\n        /* \"#utility.yul\":26796:26800   */\n      dup2\n        /* \"#utility.yul\":26787:26793   */\n      dup5\n        /* \"#utility.yul\":26779:26785   */\n      dup7\n        /* \"#utility.yul\":26683:26801   */\n      tag_453\n      jump\t// in\n    tag_759:\n        /* \"#utility.yul\":26675:26801   */\n      swap1\n      pop\n        /* \"#utility.yul\":26134:26808   */\n      swap6\n      swap5\n      pop\n      pop\n      pop\n      pop\n      pop\n      jump\t// out\n        /* \"#utility.yul\":26814:26983   */\n    tag_454:\n        /* \"#utility.yul\":26954:26975   */\n      0x47616d6520646f6573206e6f7420657869737400000000000000000000000000\n        /* \"#utility.yul\":26950:26951   */\n      0x00\n        /* \"#utility.yul\":26942:26948   */\n      dup3\n        /* \"#utility.yul\":26938:26952   */\n      add\n        /* \"#utility.yul\":26931:26976   */\n      mstore\n        /* \"#utility.yul\":26814:26983   */\n      pop\n      jump\t// out\n        /* \"#utility.yul\":26989:27355   */\n    tag_455:\n        /* \"#utility.yul\":27131:27134   */\n      0x00\n        /* \"#utility.yul\":27152:27219   */\n      tag_762\n        /* \"#utility.yul\":27216:27218   */\n      0x13\n        /* \"#utility.yul\":27211:27214   */\n      dup4\n        /* \"#utility.yul\":27152:27219   */\n      tag_424\n      jump\t// in\n    tag_762:\n        /* \"#utility.yul\":27145:27219   */\n      swap2\n      pop\n        /* \"#utility.yul\":27228:27321   */\n      tag_763\n        /* \"#utility.yul\":27317:27320   */\n      dup3\n        /* \"#utility.yul\":27228:27321   */\n      tag_454\n      jump\t// in\n    tag_763:\n        /* \"#utility.yul\":27346:27348   */\n      0x20\n        /* \"#utility.yul\":27341:27344   */\n      dup3\n        /* \"#utility.yul\":27337:27349   */\n      add\n        /* \"#utility.yul\":27330:27349   */\n      swap1\n      pop\n        /* \"#utility.yul\":26989:27355   */\n      swap2\n      swap1\n      pop\n      jump\t// out\n        /* \"#utility.yul\":27361:27780   */\n    tag_205:\n        /* \"#utility.yul\":27527:27531   */\n      0x00\n        /* \"#utility.yul\":27565:27567   */\n      0x20\n        /* \"#utility.yul\":27554:27563   */\n      dup3\n        /* \"#utility.yul\":27550:27568   */\n      add\n        /* \"#utility.yul\":27542:27568   */\n      swap1\n      pop\n        /* \"#utility.yul\":27614:27623   */\n      dup2\n        /* \"#utility.yul\":27608:27612   */\n      dup2\n        /* \"#utility.yul\":27604:27624   */\n      sub\n        /* \"#utility.yul\":27600:27601   */\n      0x00\n        /* \"#utility.yul\":27589:27598   */\n      dup4\n        /* \"#utility.yul\":27585:27602   */\n      add\n        /* \"#utility.yul\":27578:27625   */\n      mstore\n        /* \"#utility.yul\":27642:27773   */\n      tag_765\n        /* \"#utility.yul\":27768:27772   */\n      dup2\n        /* \"#utility.yul\":27642:27773   */\n      tag_455\n      jump\t// in\n    tag_765:\n        /* \"#utility.yul\":27634:27773   */\n      swap1\n      pop\n        /* \"#utility.yul\":27361:27780   */\n      swap2\n      swap1\n      pop\n      jump\t// out\n        /* \"#utility.yul\":27786:27966   */\n    tag_456:\n        /* \"#utility.yul\":27834:27911   */\n      0x4e487b7100000000000000000000000000000000000000000000000000000000\n        /* \"#utility.yul\":27831:27832   */\n      0x00\n        /* \"#utility.yul\":27824:27912   */\n      mstore\n        /* \"#utility.yul\":27931:27935   */\n      0x22\n        /* \"#utility.yul\":27928:27929   */\n      0x04\n        /* \"#utility.yul\":27921:27936   */\n      mstore\n        /* \"#utility.yul\":27955:27959   */\n      0x24\n        /* \"#utility.yul\":27952:27953   */\n      0x00\n        /* \"#utility.yul\":27945:27960   */\n      revert\n        /* \"#utility.yul\":27972:28292   */\n    tag_207:\n        /* \"#utility.yul\":28016:28022   */\n      0x00\n        /* \"#utility.yul\":28053:28054   */\n      0x02\n        /* \"#utility.yul\":28047:28051   */\n      dup3\n        /* \"#utility.yul\":28043:28055   */\n      div\n        /* \"#utility.yul\":28033:28055   */\n      swap1\n      pop\n        /* \"#utility.yul\":28100:28101   */\n      0x01\n        /* \"#utility.yul\":28094:28098   */\n      dup3\n        /* \"#utility.yul\":28090:28102   */\n      and\n        /* \"#utility.yul\":28121:28139   */\n      dup1\n        /* \"#utility.yul\":28111:28192   */\n      tag_768\n      jumpi\n        /* \"#utility.yul\":28177:28181   */\n      0x7f\n        /* \"#utility.yul\":28169:28175   */\n      dup3\n        /* \"#utility.yul\":28165:28182   */\n      and\n        /* \"#utility.yul\":28155:28182   */\n      swap2\n      pop\n        /* \"#utility.yul\":28111:28192   */\n    tag_768:\n        /* \"#utility.yul\":28239:28241   */\n      0x20\n        /* \"#utility.yul\":28231:28237   */\n      dup3\n        /* \"#utility.yul\":28228:28242   */\n      lt\n        /* \"#utility.yul\":28208:28226   */\n      dup2\n        /* \"#utility.yul\":28205:28243   */\n      sub\n        /* \"#utility.yul\":28202:28286   */\n      tag_769\n      jumpi\n        /* \"#utility.yul\":28258:28276   */\n      tag_770\n      tag_456\n      jump\t// in\n    tag_770:\n        /* \"#utility.yul\":28202:28286   */\n    tag_769:\n        /* \"#utility.yul\":28023:28292   */\n      pop\n        /* \"#utility.yul\":27972:28292   */\n      swap2\n      swap1\n      pop\n      jump\t// out\n        /* \"#utility.yul\":28298:28439   */\n    tag_457:\n        /* \"#utility.yul\":28347:28351   */\n      0x00\n        /* \"#utility.yul\":28370:28373   */\n      dup2\n        /* \"#utility.yul\":28362:28373   */\n      swap1\n      pop\n        /* \"#utility.yul\":28393:28396   */\n      dup2\n        /* \"#utility.yul\":28390:28391   */\n      0x00\n        /* \"#utility.yul\":28383:28397   */\n      mstore\n        /* \"#utility.yul\":28427:28431   */\n      0x20\n        /* \"#utility.yul\":28424:28425   */\n      0x00\n        /* \"#utility.yul\":28414:28432   */\n      keccak256\n        /* \"#utility.yul\":28406:28432   */\n      swap1\n      pop\n        /* \"#utility.yul\":28298:28439   */\n      swap2\n      swap1\n      pop\n      jump\t// out\n        /* \"#utility.yul\":28445:28538   */\n    tag_458:\n        /* \"#utility.yul\":28482:28488   */\n      0x00\n        /* \"#utility.yul\":28529:28531   */\n      0x20\n        /* \"#utility.yul\":28524:28526   */\n      0x1f\n        /* \"#utility.yul\":28517:28522   */\n      dup4\n        /* \"#utility.yul\":28513:28527   */\n      add\n        /* \"#utility.yul\":28509:28532   */\n      div\n        /* \"#utility.yul\":28499:28532   */\n      swap1\n      pop\n        /* \"#utility.yul\":28445:28538   */\n      swap2\n      swap1\n      pop\n      jump\t// out\n        /* \"#utility.yul\":28544:28651   */\n    tag_459:\n        /* \"#utility.yul\":28588:28596   */\n      0x00\n        /* \"#utility.yul\":28638:28643   */\n      dup3\n        /* \"#utility.yul\":28632:28636   */\n      dup3\n        /* \"#utility.yul\":28628:28644   */\n      shl\n        /* \"#utility.yul\":28607:28644   */\n      swap1\n      pop\n        /* \"#utility.yul\":28544:28651   */\n      swap3\n      swap2\n      pop\n      pop\n      jump\t// out\n        /* \"#utility.yul\":28657:29050   */\n    tag_460:\n        /* \"#utility.yul\":28726:28732   */\n      0x00\n        /* \"#utility.yul\":28776:28777   */\n      0x08\n        /* \"#utility.yul\":28764:28774   */\n      dup4\n        /* \"#utility.yul\":28760:28778   */\n      mul\n        /* \"#utility.yul\":28799:28896   */\n      tag_775\n        /* \"#utility.yul\":28829:28895   */\n      0xffffffffffffffffffffffffffffffffffffffffffffffffffffffffffffffff\n        /* \"#utility.yul\":28818:28827   */\n      dup3\n        /* \"#utility.yul\":28799:28896   */\n      tag_459\n      jump\t// in\n    tag_775:\n        /* \"#utility.yul\":28917:28956   */\n      tag_776\n        /* \"#utility.yul\":28947:28955   */\n      dup7\n        /* \"#utility.yul\":28936:28945   */\n      dup4\n        /* \"#utility.yul\":28917:28956   */\n      tag_459\n      jump\t// in\n    tag_776:\n        /* \"#utility.yul\":28905:28956   */\n      swap6\n      pop\n        /* \"#utility.yul\":28989:28993   */\n      dup1\n        /* \"#utility.yul\":28985:28994   */\n      not\n        /* \"#utility.yul\":28978:28983   */\n      dup5\n        /* \"#utility.yul\":28974:28995   */\n      and\n        /* \"#utility.yul\":28965:28995   */\n      swap4\n      pop\n        /* \"#utility.yul\":29038:29042   */\n      dup1\n        /* \"#utility.yul\":29028:29036   */\n      dup7\n        /* \"#utility.yul\":29024:29043   */\n      and\n        /* \"#utility.yul\":29017:29022   */\n      dup5\n        /* \"#utility.yul\":29014:29044   */\n      or\n        /* \"#utility.yul\":29004:29044   */\n      swap3\n      pop\n        /* \"#utility.yul\":28733:29050   */\n      pop\n      pop\n        /* \"#utility.yul\":28657:29050   */\n      swap4\n      swap3\n      pop\n      pop\n      pop\n      jump\t// out\n        /* \"#utility.yul\":29056:29198   */\n    tag_461:\n        /* \"#utility.yul\":29106:29115   */\n      0x00\n        /* \"#utility.yul\":29139:29192   */\n      tag_778\n        /* \"#utility.yul\":29157:29191   */\n      tag_779\n        /* \"#utility.yul\":29166:29190   */\n      tag_780\n        /* \"#utility.yul\":29184:29189   */\n      dup5\n        /* \"#utility.yul\":29166:29190   */\n      tag_404\n      jump\t// in\n    tag_780:\n        /* \"#utility.yul\":29157:29191   */\n      tag_395\n      jump\t// in\n    tag_779:\n        /* \"#utility.yul\":29139:29192   */\n      tag_404\n      jump\t// in\n    tag_778:\n        /* \"#utility.yul\":29126:29192   */\n      swap1\n      pop\n        /* \"#utility.yul\":29056:29198   */\n      swap2\n      swap1\n      pop\n      jump\t// out\n        /* \"#utility.yul\":29204:29279   */\n    tag_462:\n        /* \"#utility.yul\":29247:29250   */\n      0x00\n        /* \"#utility.yul\":29268:29273   */\n      dup2\n        /* \"#utility.yul\":29261:29273   */\n      swap1\n      pop\n        /* \"#utility.yul\":29204:29279   */\n      swap2\n      swap1\n      pop\n      jump\t// out\n        /* \"#utility.yul\":29285:29554   */\n    tag_463:\n        /* \"#utility.yul\":29395:29434   */\n      tag_783\n        /* \"#utility.yul\":29426:29433   */\n      dup4\n        /* \"#utility.yul\":29395:29434   */\n      tag_461\n      jump\t// in\n    tag_783:\n        /* \"#utility.yul\":29456:29547   */\n      tag_784\n        /* \"#utility.yul\":29505:29546   */\n      tag_785\n        /* \"#utility.yul\":29529:29545   */\n      dup3\n        /* \"#utility.yul\":29505:29546   */\n      tag_462\n      jump\t// in\n    tag_785:\n        /* \"#utility.yul\":29497:29503   */\n      dup5\n        /* \"#utility.yul\":29490:29494   */\n      dup5\n        /* \"#utility.yul\":29484:29495   */\n      sload\n        /* \"#utility.yul\":29456:29547   */\n      tag_460\n      jump\t// in\n    tag_784:\n        /* \"#utility.yul\":29450:29454   */\n      dup3\n        /* \"#utility.yul\":29443:29548   */\n      sstore\n        /* \"#utility.yul\":29361:29554   */\n      pop\n        /* \"#utility.yul\":29285:29554   */\n      pop\n      pop\n      pop\n      jump\t// out\n        /* \"#utility.yul\":29560:29633   */\n    tag_464:\n        /* \"#utility.yul\":29605:29608   */\n      0x00\n        /* \"#utility.yul\":29560:29633   */\n      swap1\n      jump\t// out\n        /* \"#utility.yul\":29639:29828   */\n    tag_465:\n        /* \"#utility.yul\":29716:29748   */\n      tag_788\n      tag_464\n      jump\t// in\n    tag_788:\n        /* \"#utility.yul\":29757:29822   */\n      tag_789\n        /* \"#utility.yul\":29815:29821   */\n      dup2\n        /* \"#utility.yul\":29807:29813   */\n      dup5\n        /* \"#utility.yul\":29801:29805   */\n      dup5\n        /* \"#utility.yul\":29757:29822   */\n      tag_463\n      jump\t// in\n    tag_789:\n        /* \"#utility.yul\":29692:29828   */\n      pop\n        /* \"#utility.yul\":29639:29828   */\n      pop\n      pop\n      jump\t// out\n        /* \"#utility.yul\":29834:30020   */\n    tag_466:\n        /* \"#utility.yul\":29894:30014   */\n    tag_791:\n        /* \"#utility.yul\":29911:29914   */\n      dup2\n        /* \"#utility.yul\":29904:29909   */\n      dup2\n        /* \"#utility.yul\":29901:29915   */\n      lt\n        /* \"#utility.yul\":29894:30014   */\n      iszero\n      tag_793\n      jumpi\n        /* \"#utility.yul\":29965:30004   */\n      tag_794\n        /* \"#utility.yul\":30002:30003   */\n      0x00\n        /* \"#utility.yul\":29995:30000   */\n      dup3\n        /* \"#utility.yul\":29965:30004   */\n      tag_465\n      jump\t// in\n    tag_794:\n        /* \"#utility.yul\":29938:29939   */\n      0x01\n        /* \"#utility.yul\":29931:29936   */\n      dup2\n        /* \"#utility.yul\":29927:29940   */\n      add\n        /* \"#utility.yul\":29918:29940   */\n      swap1\n      pop\n        /* \"#utility.yul\":29894:30014   */\n      jump(tag_791)\n    tag_793:\n        /* \"#utility.yul\":29834:30020   */\n      pop\n      pop\n      jump\t// out\n        /* \"#utility.yul\":30026:30569   */\n    tag_467:\n        /* \"#utility.yul\":30127:30129   */\n      0x1f\n        /* \"#utility.yul\":30122:30125   */\n      dup3\n        /* \"#utility.yul\":30119:30130   */\n      gt\n        /* \"#utility.yul\":30116:30562   */\n      iszero\n      tag_796\n      jumpi\n        /* \"#utility.yul\":30161:30199   */\n      tag_797\n        /* \"#utility.yul\":30193:30198   */\n      dup2\n        /* \"#utility.yul\":30161:30199   */\n      tag_457\n      jump\t// in\n    tag_797:\n        /* \"#utility.yul\":30245:30274   */\n      tag_798\n        /* \"#utility.yul\":30263:30273   */\n      dup5\n        /* \"#utility.yul\":30245:30274   */\n      tag_458\n      jump\t// in\n    tag_798:\n        /* \"#utility.yul\":30235:30243   */\n      dup2\n        /* \"#utility.yul\":30231:30275   */\n      add\n        /* \"#utility.yul\":30428:30430   */\n      0x20\n        /* \"#utility.yul\":30416:30426   */\n      dup6\n        /* \"#utility.yul\":30413:30431   */\n      lt\n        /* \"#utility.yul\":30410:30459   */\n      iszero\n      tag_799\n      jumpi\n        /* \"#utility.yul\":30449:30457   */\n      dup2\n        /* \"#utility.yul\":30434:30457   */\n      swap1\n      pop\n        /* \"#utility.yul\":30410:30459   */\n    tag_799:\n        /* \"#utility.yul\":30472:30552   */\n      tag_800\n        /* \"#utility.yul\":30528:30550   */\n      tag_801\n        /* \"#utility.yul\":30546:30549   */\n      dup6\n        /* \"#utility.yul\":30528:30550   */\n      tag_458\n      jump\t// in\n    tag_801:\n        /* \"#utility.yul\":30518:30526   */\n      dup4\n        /* \"#utility.yul\":30514:30551   */\n      add\n        /* \"#utility.yul\":30501:30512   */\n      dup3\n        /* \"#utility.yul\":30472:30552   */\n      tag_466\n      jump\t// in\n    tag_800:\n        /* \"#utility.yul\":30131:30562   */\n      pop\n      pop\n        /* \"#utility.yul\":30116:30562   */\n    tag_796:\n        /* \"#utility.yul\":30026:30569   */\n      pop\n      pop\n      pop\n      jump\t// out\n        /* \"#utility.yul\":30575:30692   */\n    tag_468:\n        /* \"#utility.yul\":30629:30637   */\n      0x00\n        /* \"#utility.yul\":30679:30684   */\n      dup3\n        /* \"#utility.yul\":30673:30677   */\n      dup3\n        /* \"#utility.yul\":30669:30685   */\n      shr\n        /* \"#utility.yul\":30648:30685   */\n      swap1\n      pop\n        /* \"#utility.yul\":30575:30692   */\n      swap3\n      swap2\n      pop\n      pop\n      jump\t// out\n        /* \"#utility.yul\":30698:30867   */\n    tag_469:\n        /* \"#utility.yul\":30742:30748   */\n      0x00\n        /* \"#utility.yul\":30775:30826   */\n      tag_804\n        /* \"#utility.yul\":30823:30824   */\n      0x00\n        /* \"#utility.yul\":30819:30825   */\n      not\n        /* \"#utility.yul\":30811:30816   */\n      dup5\n        /* \"#utility.yul\":30808:30809   */\n      0x08\n        /* \"#utility.yul\":30804:30817   */\n      mul\n        /* \"#utility.yul\":30775:30826   */\n      tag_468\n      jump\t// in\n    tag_804:\n        /* \"#utility.yul\":30771:30827   */\n      not\n        /* \"#utility.yul\":30856:30860   */\n      dup1\n        /* \"#utility.yul\":30850:30854   */\n      dup4\n        /* \"#utility.yul\":30846:30861   */\n      and\n        /* \"#utility.yul\":30836:30861   */\n      swap2\n      pop\n        /* \"#utility.yul\":30749:30867   */\n      pop\n        /* \"#utility.yul\":30698:30867   */\n      swap3\n      swap2\n      pop\n      pop\n      jump\t// out\n        /* \"#utility.yul\":30872:31167   */\n    tag_470:\n        /* \"#utility.yul\":30948:30952   */\n      0x00\n        /* \"#utility.yul\":31094:31123   */\n      tag_806\n        /* \"#utility.yul\":31119:31122   */\n      dup4\n        /* \"#utility.yul\":31113:31117   */\n      dup4\n        /* \"#utility.yul\":31094:31123   */\n      tag_469\n      jump\t// in\n    tag_806:\n        /* \"#utility.yul\":31086:31123   */\n      swap2\n      pop\n        /* \"#utility.yul\":31156:31159   */\n      dup3\n        /* \"#utility.yul\":31153:31154   */\n      0x02\n        /* \"#utility.yul\":31149:31160   */\n      mul\n        /* \"#utility.yul\":31143:31147   */\n      dup3\n        /* \"#utility.yul\":31140:31161   */\n      or\n        /* \"#utility.yul\":31132:31161   */\n      swap1\n      pop\n        /* \"#utility.yul\":30872:31167   */\n      swap3\n      swap2\n      pop\n      pop\n      jump\t// out\n        /* \"#utility.yul\":31172:32567   */\n    tag_221:\n        /* \"#utility.yul\":31289:31326   */\n      tag_808\n        /* \"#utility.yul\":31322:31325   */\n      dup3\n        /* \"#utility.yul\":31289:31326   */\n      tag_417\n      jump\t// in\n    tag_808:\n        /* \"#utility.yul\":31391:31409   */\n      0xffffffffffffffff\n        /* \"#utility.yul\":31383:31389   */\n      dup2\n        /* \"#utility.yul\":31380:31410   */\n      gt\n        /* \"#utility.yul\":31377:31433   */\n      iszero\n      tag_809\n      jumpi\n        /* \"#utility.yul\":31413:31431   */\n      tag_810\n      tag_359\n      jump\t// in\n    tag_810:\n        /* \"#utility.yul\":31377:31433   */\n    tag_809:\n        /* \"#utility.yul\":31457:31495   */\n      tag_811\n        /* \"#utility.yul\":31489:31493   */\n      dup3\n        /* \"#utility.yul\":31483:31494   */\n      sload\n        /* \"#utility.yul\":31457:31495   */\n      tag_207\n      jump\t// in\n    tag_811:\n        /* \"#utility.yul\":31542:31609   */\n      tag_812\n        /* \"#utility.yul\":31602:31608   */\n      dup3\n        /* \"#utility.yul\":31594:31600   */\n      dup3\n        /* \"#utility.yul\":31588:31592   */\n      dup6\n        /* \"#utility.yul\":31542:31609   */\n      tag_467\n      jump\t// in\n    tag_812:\n        /* \"#utility.yul\":31636:31637   */\n      0x00\n        /* \"#utility.yul\":31660:31664   */\n      0x20\n        /* \"#utility.yul\":31647:31664   */\n      swap1\n      pop\n        /* \"#utility.yul\":31692:31694   */\n      0x1f\n        /* \"#utility.yul\":31684:31690   */\n      dup4\n        /* \"#utility.yul\":31681:31695   */\n      gt\n        /* \"#utility.yul\":31709:31710   */\n      0x01\n        /* \"#utility.yul\":31704:32322   */\n      dup2\n      eq\n      tag_814\n      jumpi\n        /* \"#utility.yul\":32366:32367   */\n      0x00\n        /* \"#utility.yul\":32383:32389   */\n      dup5\n        /* \"#utility.yul\":32380:32457   */\n      iszero\n      tag_815\n      jumpi\n        /* \"#utility.yul\":32432:32441   */\n      dup3\n        /* \"#utility.yul\":32427:32430   */\n      dup8\n        /* \"#utility.yul\":32423:32442   */\n      add\n        /* \"#utility.yul\":32417:32443   */\n      mload\n        /* \"#utility.yul\":32408:32443   */\n      swap1\n      pop\n        /* \"#utility.yul\":32380:32457   */\n    tag_815:\n        /* \"#utility.yul\":32483:32550   */\n      tag_816\n        /* \"#utility.yul\":32543:32549   */\n      dup6\n        /* \"#utility.yul\":32536:32541   */\n      dup3\n        /* \"#utility.yul\":32483:32550   */\n      tag_470\n      jump\t// in\n    tag_816:\n        /* \"#utility.yul\":32477:32481   */\n      dup7\n        /* \"#utility.yul\":32470:32551   */\n      sstore\n        /* \"#utility.yul\":32339:32561   */\n      pop\n        /* \"#utility.yul\":31674:32561   */\n      jump(tag_813)\n        /* \"#utility.yul\":31704:32322   */\n    tag_814:\n        /* \"#utility.yul\":31756:31760   */\n      0x1f\n        /* \"#utility.yul\":31752:31761   */\n      not\n        /* \"#utility.yul\":31744:31750   */\n      dup5\n        /* \"#utility.yul\":31740:31762   */\n      and\n        /* \"#utility.yul\":31790:31827   */\n      tag_817\n        /* \"#utility.yul\":31822:31826   */\n      dup7\n        /* \"#utility.yul\":31790:31827   */\n      tag_457\n      jump\t// in\n    tag_817:\n        /* \"#utility.yul\":31849:31850   */\n      0x00\n        /* \"#utility.yul\":31863:32071   */\n    tag_818:\n        /* \"#utility.yul\":31877:31884   */\n      dup3\n        /* \"#utility.yul\":31874:31875   */\n      dup2\n        /* \"#utility.yul\":31871:31885   */\n      lt\n        /* \"#utility.yul\":31863:32071   */\n      iszero\n      tag_820\n      jumpi\n        /* \"#utility.yul\":31956:31965   */\n      dup5\n        /* \"#utility.yul\":31951:31954   */\n      dup10\n        /* \"#utility.yul\":31947:31966   */\n      add\n        /* \"#utility.yul\":31941:31967   */\n      mload\n        /* \"#utility.yul\":31933:31939   */\n      dup3\n        /* \"#utility.yul\":31926:31968   */\n      sstore\n        /* \"#utility.yul\":32007:32008   */\n      0x01\n        /* \"#utility.yul\":31999:32005   */\n      dup3\n        /* \"#utility.yul\":31995:32009   */\n      add\n        /* \"#utility.yul\":31985:32009   */\n      swap2\n      pop\n        /* \"#utility.yul\":32054:32056   */\n      0x20\n        /* \"#utility.yul\":32043:32052   */\n      dup6\n        /* \"#utility.yul\":32039:32057   */\n      add\n        /* \"#utility.yul\":32026:32057   */\n      swap5\n      pop\n        /* \"#utility.yul\":31900:31904   */\n      0x20\n        /* \"#utility.yul\":31897:31898   */\n      dup2\n        /* \"#utility.yul\":31893:31905   */\n      add\n        /* \"#utility.yul\":31888:31905   */\n      swap1\n      pop\n        /* \"#utility.yul\":31863:32071   */\n      jump(tag_818)\n    tag_820:\n        /* \"#utility.yul\":32099:32105   */\n      dup7\n        /* \"#utility.yul\":32090:32097   */\n      dup4\n        /* \"#utility.yul\":32087:32106   */\n      lt\n        /* \"#utility.yul\":32084:32263   */\n      iszero\n      tag_821\n      jumpi\n        /* \"#utility.yul\":32157:32166   */\n      dup5\n        /* \"#utility.yul\":32152:32155   */\n      dup10\n        /* \"#utility.yul\":32148:32167   */\n      add\n        /* \"#utility.yul\":32142:32168   */\n      mload\n        /* \"#utility.yul\":32200:32248   */\n      tag_822\n        /* \"#utility.yul\":32242:32246   */\n      0x1f\n        /* \"#utility.yul\":32234:32240   */\n      dup10\n        /* \"#utility.yul\":32230:32247   */\n      and\n        /* \"#utility.yul\":32219:32228   */\n      dup3\n        /* \"#utility.yul\":32200:32248   */\n      tag_469\n      jump\t// in\n    tag_822:\n        /* \"#utility.yul\":32192:32198   */\n      dup4\n        /* \"#utility.yul\":32185:32249   */\n      sstore\n        /* \"#utility.yul\":32107:32263   */\n      pop\n        /* \"#utility.yul\":32084:32263   */\n    tag_821:\n        /* \"#utility.yul\":32309:32310   */\n      0x01\n        /* \"#utility.yul\":32305:32306   */\n      0x02\n        /* \"#utility.yul\":32297:32303   */\n      dup9\n        /* \"#utility.yul\":32293:32307   */\n      mul\n        /* \"#utility.yul\":32289:32311   */\n      add\n        /* \"#utility.yul\":32283:32287   */\n      dup9\n        /* \"#utility.yul\":32276:32312   */\n      sstore\n        /* \"#utility.yul\":31711:32322   */\n      pop\n      pop\n      pop\n        /* \"#utility.yul\":31674:32561   */\n    tag_813:\n      pop\n        /* \"#utility.yul\":31264:32567   */\n      pop\n      pop\n      pop\n        /* \"#utility.yul\":31172:32567   */\n      pop\n      pop\n      jump\t// out\n        /* \"#utility.yul\":32573:33106   */\n    tag_223:\n        /* \"#utility.yul\":32742:32746   */\n      0x00\n        /* \"#utility.yul\":32780:32782   */\n      0x60\n        /* \"#utility.yul\":32769:32778   */\n      dup3\n        /* \"#utility.yul\":32765:32783   */\n      add\n        /* \"#utility.yul\":32757:32783   */\n      swap1\n      pop\n        /* \"#utility.yul\":32793:32864   */\n      tag_824\n        /* \"#utility.yul\":32861:32862   */\n      0x00\n        /* \"#utility.yul\":32850:32859   */\n      dup4\n        /* \"#utility.yul\":32846:32863   */\n      add\n        /* \"#utility.yul\":32837:32843   */\n      dup7\n        /* \"#utility.yul\":32793:32864   */\n      tag_407\n      jump\t// in\n    tag_824:\n        /* \"#utility.yul\":32874:32946   */\n      tag_825\n        /* \"#utility.yul\":32942:32944   */\n      0x20\n        /* \"#utility.yul\":32931:32940   */\n      dup4\n        /* \"#utility.yul\":32927:32945   */\n      add\n        /* \"#utility.yul\":32918:32924   */\n      dup6\n        /* \"#utility.yul\":32874:32946   */\n      tag_407\n      jump\t// in\n    tag_825:\n        /* \"#utility.yul\":32993:33002   */\n      dup2\n        /* \"#utility.yul\":32987:32991   */\n      dup2\n        /* \"#utility.yul\":32983:33003   */\n      sub\n        /* \"#utility.yul\":32978:32980   */\n      0x40\n        /* \"#utility.yul\":32967:32976   */\n      dup4\n        /* \"#utility.yul\":32963:32981   */\n      add\n        /* \"#utility.yul\":32956:33004   */\n      mstore\n        /* \"#utility.yul\":33021:33099   */\n      tag_826\n        /* \"#utility.yul\":33094:33098   */\n      dup2\n        /* \"#utility.yul\":33085:33091   */\n      dup5\n        /* \"#utility.yul\":33021:33099   */\n      tag_425\n      jump\t// in\n    tag_826:\n        /* \"#utility.yul\":33013:33099   */\n      swap1\n      pop\n        /* \"#utility.yul\":32573:33106   */\n      swap5\n      swap4\n      pop\n      pop\n      pop\n      pop\n      jump\t// out\n        /* \"#utility.yul\":33112:33287   */\n    tag_471:\n        /* \"#utility.yul\":33252:33279   */\n      0x4d656d62657220616c7265616479207265676973746572656400000000000000\n        /* \"#utility.yul\":33248:33249   */\n      0x00\n        /* \"#utility.yul\":33240:33246   */\n      dup3\n        /* \"#utility.yul\":33236:33250   */\n      add\n        /* \"#utility.yul\":33229:33280   */\n      mstore\n        /* \"#utility.yul\":33112:33287   */\n      pop\n      jump\t// out\n        /* \"#utility.yul\":33293:33659   */\n    tag_472:\n        /* \"#utility.yul\":33435:33438   */\n      0x00\n        /* \"#utility.yul\":33456:33523   */\n      tag_829\n        /* \"#utility.yul\":33520:33522   */\n      0x19\n        /* \"#utility.yul\":33515:33518   */\n      dup4\n        /* \"#utility.yul\":33456:33523   */\n      tag_424\n      jump\t// in\n    tag_829:\n        /* \"#utility.yul\":33449:33523   */\n      swap2\n      pop\n        /* \"#utility.yul\":33532:33625   */\n      tag_830\n        /* \"#utility.yul\":33621:33624   */\n      dup3\n        /* \"#utility.yul\":33532:33625   */\n      tag_471\n      jump\t// in\n    tag_830:\n        /* \"#utility.yul\":33650:33652   */\n      0x20\n        /* \"#utility.yul\":33645:33648   */\n      dup3\n        /* \"#utility.yul\":33641:33653   */\n      add\n        /* \"#utility.yul\":33634:33653   */\n      swap1\n      pop\n        /* \"#utility.yul\":33293:33659   */\n      swap2\n      swap1\n      pop\n      jump\t// out\n        /* \"#utility.yul\":33665:34084   */\n    tag_245:\n        /* \"#utility.yul\":33831:33835   */\n      0x00\n        /* \"#utility.yul\":33869:33871   */\n      0x20\n        /* \"#utility.yul\":33858:33867   */\n      dup3\n        /* \"#utility.yul\":33854:33872   */\n      add\n        /* \"#utility.yul\":33846:33872   */\n      swap1\n      pop\n        /* \"#utility.yul\":33918:33927   */\n      dup2\n        /* \"#utility.yul\":33912:33916   */\n      dup2\n        /* \"#utility.yul\":33908:33928   */\n      sub\n        /* \"#utility.yul\":33904:33905   */\n      0x00\n        /* \"#utility.yul\":33893:33902   */\n      dup4\n        /* \"#utility.yul\":33889:33906   */\n      add\n        /* \"#utility.yul\":33882:33929   */\n      mstore\n        /* \"#utility.yul\":33946:34077   */\n      tag_832\n        /* \"#utility.yul\":34072:34076   */\n      dup2\n        /* \"#utility.yul\":33946:34077   */\n      tag_472\n      jump\t// in\n    tag_832:\n        /* \"#utility.yul\":33938:34077   */\n      swap1\n      pop\n        /* \"#utility.yul\":33665:34084   */\n      swap2\n      swap1\n      pop\n      jump\t// out\n        /* \"#utility.yul\":34090:34422   */\n    tag_253:\n        /* \"#utility.yul\":34211:34215   */\n      0x00\n        /* \"#utility.yul\":34249:34251   */\n      0x40\n        /* \"#utility.yul\":34238:34247   */\n      dup3\n        /* \"#utility.yul\":34234:34252   */\n      add\n        /* \"#utility.yul\":34226:34252   */\n      swap1\n      pop\n        /* \"#utility.yul\":34262:34333   */\n      tag_834\n        /* \"#utility.yul\":34330:34331   */\n      0x00\n        /* \"#utility.yul\":34319:34328   */\n      dup4\n        /* \"#utility.yul\":34315:34332   */\n      add\n        /* \"#utility.yul\":34306:34312   */\n      dup6\n        /* \"#utility.yul\":34262:34333   */\n      tag_407\n      jump\t// in\n    tag_834:\n        /* \"#utility.yul\":34343:34415   */\n      tag_835\n        /* \"#utility.yul\":34411:34413   */\n      0x20\n        /* \"#utility.yul\":34400:34409   */\n      dup4\n        /* \"#utility.yul\":34396:34414   */\n      add\n        /* \"#utility.yul\":34387:34393   */\n      dup5\n        /* \"#utility.yul\":34343:34415   */\n      tag_407\n      jump\t// in\n    tag_835:\n        /* \"#utility.yul\":34090:34422   */\n      swap4\n      swap3\n      pop\n      pop\n      pop\n      jump\t// out\n        /* \"#utility.yul\":34428:34599   */\n    tag_473:\n        /* \"#utility.yul\":34568:34591   */\n      0x4d656d62657220646f6573206e6f742065786973740000000000000000000000\n        /* \"#utility.yul\":34564:34565   */\n      0x00\n        /* \"#utility.yul\":34556:34562   */\n      dup3\n        /* \"#utility.yul\":34552:34566   */\n      add\n        /* \"#utility.yul\":34545:34592   */\n      mstore\n        /* \"#utility.yul\":34428:34599   */\n      pop\n      jump\t// out\n        /* \"#utility.yul\":34605:34971   */\n    tag_474:\n        /* \"#utility.yul\":34747:34750   */\n      0x00\n        /* \"#utility.yul\":34768:34835   */\n      tag_838\n        /* \"#utility.yul\":34832:34834   */\n      0x15\n        /* \"#utility.yul\":34827:34830   */\n      dup4\n        /* \"#utility.yul\":34768:34835   */\n      tag_424\n      jump\t// in\n    tag_838:\n        /* \"#utility.yul\":34761:34835   */\n      swap2\n      pop\n        /* \"#utility.yul\":34844:34937   */\n      tag_839\n        /* \"#utility.yul\":34933:34936   */\n      dup3\n        /* \"#utility.yul\":34844:34937   */\n      tag_473\n      jump\t// in\n    tag_839:\n        /* \"#utility.yul\":34962:34964   */\n      0x20\n        /* \"#utility.yul\":34957:34960   */\n      dup3\n        /* \"#utility.yul\":34953:34965   */\n      add\n        /* \"#utility.yul\":34946:34965   */\n      swap1\n      pop\n        /* \"#utility.yul\":34605:34971   */\n      swap2\n      swap1\n      pop\n      jump\t// out\n        /* \"#utility.yul\":34977:35396   */\n    tag_262:\n        /* \"#utility.yul\":35143:35147   */\n      0x00\n        /* \"#utility.yul\":35181:35183   */\n      0x20\n        /* \"#utility.yul\":35170:35179   */\n      dup3\n        /* \"#utility.yul\":35166:35184   */\n      add\n        /* \"#utility.yul\":35158:35184   */\n      swap1\n      pop\n        /* \"#utility.yul\":35230:35239   */\n      dup2\n        /* \"#utility.yul\":35224:35228   */\n      dup2\n        /* \"#utility.yul\":35220:35240   */\n      sub\n        /* \"#utility.yul\":35216:35217   */\n      0x00\n        /* \"#utility.yul\":35205:35214   */\n      dup4\n        /* \"#utility.yul\":35201:35218   */\n      add\n        /* \"#utility.yul\":35194:35241   */\n      mstore\n        /* \"#utility.yul\":35258:35389   */\n      tag_841\n        /* \"#utility.yul\":35384:35388   */\n      dup2\n        /* \"#utility.yul\":35258:35389   */\n      tag_474\n      jump\t// in\n    tag_841:\n        /* \"#utility.yul\":35250:35389   */\n      swap1\n      pop\n        /* \"#utility.yul\":34977:35396   */\n      swap2\n      swap1\n      pop\n      jump\t// out\n        /* \"#utility.yul\":35402:35645   */\n    tag_475:\n        /* \"#utility.yul\":35542:35576   */\n      0x4368616c6c656e676520616c72656164792065786973747320666f7220746869\n        /* \"#utility.yul\":35538:35539   */\n      0x00\n        /* \"#utility.yul\":35530:35536   */\n      dup3\n        /* \"#utility.yul\":35526:35540   */\n      add\n        /* \"#utility.yul\":35519:35577   */\n      mstore\n        /* \"#utility.yul\":35611:35637   */\n      0x73206d656d6265722c20646174652c20616e642067616d650000000000000000\n        /* \"#utility.yul\":35606:35608   */\n      0x20\n        /* \"#utility.yul\":35598:35604   */\n      dup3\n        /* \"#utility.yul\":35594:35609   */\n      add\n        /* \"#utility.yul\":35587:35638   */\n      mstore\n        /* \"#utility.yul\":35402:35645   */\n      pop\n      jump\t// out\n        /* \"#utility.yul\":35651:36017   */\n    tag_476:\n        /* \"#utility.yul\":35793:35796   */\n      0x00\n        /* \"#utility.yul\":35814:35881   */\n      tag_844\n        /* \"#utility.yul\":35878:35880   */\n      0x38\n        /* \"#utility.yul\":35873:35876   */\n      dup4\n        /* \"#utility.yul\":35814:35881   */\n      tag_424\n      jump\t// in\n    tag_844:\n        /* \"#utility.yul\":35807:35881   */\n      swap2\n      pop\n        /* \"#utility.yul\":35890:35983   */\n      tag_845\n        /* \"#utility.yul\":35979:35982   */\n      dup3\n        /* \"#utility.yul\":35890:35983   */\n      tag_475\n      jump\t// in\n    tag_845:\n        /* \"#utility.yul\":36008:36010   */\n      0x40\n        /* \"#utility.yul\":36003:36006   */\n      dup3\n        /* \"#utility.yul\":35999:36011   */\n      add\n        /* \"#utility.yul\":35992:36011   */\n      swap1\n      pop\n        /* \"#utility.yul\":35651:36017   */\n      swap2\n      swap1\n      pop\n      jump\t// out\n        /* \"#utility.yul\":36023:36442   */\n    tag_280:\n        /* \"#utility.yul\":36189:36193   */\n      0x00\n        /* \"#utility.yul\":36227:36229   */\n      0x20\n        /* \"#utility.yul\":36216:36225   */\n      dup3\n        /* \"#utility.yul\":36212:36230   */\n      add\n        /* \"#utility.yul\":36204:36230   */\n      swap1\n      pop\n        /* \"#utility.yul\":36276:36285   */\n      dup2\n        /* \"#utility.yul\":36270:36274   */\n      dup2\n        /* \"#utility.yul\":36266:36286   */\n      sub\n        /* \"#utility.yul\":36262:36263   */\n      0x00\n        /* \"#utility.yul\":36251:36260   */\n      dup4\n        /* \"#utility.yul\":36247:36264   */\n      add\n        /* \"#utility.yul\":36240:36287   */\n      mstore\n        /* \"#utility.yul\":36304:36435   */\n      tag_847\n        /* \"#utility.yul\":36430:36434   */\n      dup2\n        /* \"#utility.yul\":36304:36435   */\n      tag_476\n      jump\t// in\n    tag_847:\n        /* \"#utility.yul\":36296:36435   */\n      swap1\n      pop\n        /* \"#utility.yul\":36023:36442   */\n      swap2\n      swap1\n      pop\n      jump\t// out\n        /* \"#utility.yul\":36448:36780   */\n    tag_282:\n        /* \"#utility.yul\":36569:36573   */\n      0x00\n        /* \"#utility.yul\":36607:36609   */\n      0x40\n        /* \"#utility.yul\":36596:36605   */\n      dup3\n        /* \"#utility.yul\":36592:36610   */\n      add\n        /* \"#utility.yul\":36584:36610   */\n      swap1\n      pop\n        /* \"#utility.yul\":36620:36691   */\n      tag_849\n        /* \"#utility.yul\":36688:36689   */\n      0x00\n        /* \"#utility.yul\":36677:36686   */\n      dup4\n        /* \"#utility.yul\":36673:36690   */\n      add\n        /* \"#utility.yul\":36664:36670   */\n      dup6\n        /* \"#utility.yul\":36620:36691   */\n      tag_438\n      jump\t// in\n    tag_849:\n        /* \"#utility.yul\":36701:36773   */\n      tag_850\n        /* \"#utility.yul\":36769:36771   */\n      0x20\n        /* \"#utility.yul\":36758:36767   */\n      dup4\n        /* \"#utility.yul\":36754:36772   */\n      add\n        /* \"#utility.yul\":36745:36751   */\n      dup5\n        /* \"#utility.yul\":36701:36773   */\n      tag_438\n      jump\t// in\n    tag_850:\n        /* \"#utility.yul\":36448:36780   */\n      swap4\n      swap3\n      pop\n      pop\n      pop\n      jump\t// out\n        /* \"#utility.yul\":36786:36929   */\n    tag_477:\n        /* \"#utility.yul\":36843:36848   */\n      0x00\n        /* \"#utility.yul\":36874:36880   */\n      dup2\n        /* \"#utility.yul\":36868:36881   */\n      mload\n        /* \"#utility.yul\":36859:36881   */\n      swap1\n      pop\n        /* \"#utility.yul\":36890:36923   */\n      tag_852\n        /* \"#utility.yul\":36917:36922   */\n      dup2\n        /* \"#utility.yul\":36890:36923   */\n      tag_405\n      jump\t// in\n    tag_852:\n        /* \"#utility.yul\":36786:36929   */\n      swap3\n      swap2\n      pop\n      pop\n      jump\t// out\n        /* \"#utility.yul\":36935:37286   */\n    tag_286:\n        /* \"#utility.yul\":37005:37011   */\n      0x00\n        /* \"#utility.yul\":37054:37056   */\n      0x20\n        /* \"#utility.yul\":37042:37051   */\n      dup3\n        /* \"#utility.yul\":37033:37040   */\n      dup5\n        /* \"#utility.yul\":37029:37052   */\n      sub\n        /* \"#utility.yul\":37025:37057   */\n      slt\n        /* \"#utility.yul\":37022:37141   */\n      iszero\n      tag_854\n      jumpi\n        /* \"#utility.yul\":37060:37139   */\n      tag_855\n      tag_387\n      jump\t// in\n    tag_855:\n        /* \"#utility.yul\":37022:37141   */\n    tag_854:\n        /* \"#utility.yul\":37180:37181   */\n      0x00\n        /* \"#utility.yul\":37205:37269   */\n      tag_856\n        /* \"#utility.yul\":37261:37268   */\n      dup5\n        /* \"#utility.yul\":37252:37258   */\n      dup3\n        /* \"#utility.yul\":37241:37250   */\n      dup6\n        /* \"#utility.yul\":37237:37259   */\n      add\n        /* \"#utility.yul\":37205:37269   */\n      tag_477\n      jump\t// in\n    tag_856:\n        /* \"#utility.yul\":37195:37269   */\n      swap2\n      pop\n        /* \"#utility.yul\":37151:37279   */\n      pop\n        /* \"#utility.yul\":36935:37286   */\n      swap3\n      swap2\n      pop\n      pop\n      jump\t// out\n        /* \"#utility.yul\":37292:37470   */\n    tag_478:\n        /* \"#utility.yul\":37432:37462   */\n      0x496e73756666696369656e7420746f6b656e20616c6c6f77616e636500000000\n        /* \"#utility.yul\":37428:37429   */\n      0x00\n        /* \"#utility.yul\":37420:37426   */\n      dup3\n        /* \"#utility.yul\":37416:37430   */\n      add\n        /* \"#utility.yul\":37409:37463   */\n      mstore\n        /* \"#utility.yul\":37292:37470   */\n      pop\n      jump\t// out\n        /* \"#utility.yul\":37476:37842   */\n    tag_479:\n        /* \"#utility.yul\":37618:37621   */\n      0x00\n        /* \"#utility.yul\":37639:37706   */\n      tag_859\n        /* \"#utility.yul\":37703:37705   */\n      0x1c\n        /* \"#utility.yul\":37698:37701   */\n      dup4\n        /* \"#utility.yul\":37639:37706   */\n      tag_424\n      jump\t// in\n    tag_859:\n        /* \"#utility.yul\":37632:37706   */\n      swap2\n      pop\n        /* \"#utility.yul\":37715:37808   */\n      tag_860\n        /* \"#utility.yul\":37804:37807   */\n      dup3\n        /* \"#utility.yul\":37715:37808   */\n      tag_478\n      jump\t// in\n    tag_860:\n        /* \"#utility.yul\":37833:37835   */\n      0x20\n        /* \"#utility.yul\":37828:37831   */\n      dup3\n        /* \"#utility.yul\":37824:37836   */\n      add\n        /* \"#utility.yul\":37817:37836   */\n      swap1\n      pop\n        /* \"#utility.yul\":37476:37842   */\n      swap2\n      swap1\n      pop\n      jump\t// out\n        /* \"#utility.yul\":37848:38267   */\n    tag_289:\n        /* \"#utility.yul\":38014:38018   */\n      0x00\n        /* \"#utility.yul\":38052:38054   */\n      0x20\n        /* \"#utility.yul\":38041:38050   */\n      dup3\n        /* \"#utility.yul\":38037:38055   */\n      add\n        /* \"#utility.yul\":38029:38055   */\n      swap1\n      pop\n        /* \"#utility.yul\":38101:38110   */\n      dup2\n        /* \"#utility.yul\":38095:38099   */\n      dup2\n        /* \"#utility.yul\":38091:38111   */\n      sub\n        /* \"#utility.yul\":38087:38088   */\n      0x00\n        /* \"#utility.yul\":38076:38085   */\n      dup4\n        /* \"#utility.yul\":38072:38089   */\n      add\n        /* \"#utility.yul\":38065:38112   */\n      mstore\n        /* \"#utility.yul\":38129:38260   */\n      tag_862\n        /* \"#utility.yul\":38255:38259   */\n      dup2\n        /* \"#utility.yul\":38129:38260   */\n      tag_479\n      jump\t// in\n    tag_862:\n        /* \"#utility.yul\":38121:38260   */\n      swap1\n      pop\n        /* \"#utility.yul\":37848:38267   */\n      swap2\n      swap1\n      pop\n      jump\t// out\n        /* \"#utility.yul\":38273:38495   */\n    tag_291:\n        /* \"#utility.yul\":38366:38370   */\n      0x00\n        /* \"#utility.yul\":38404:38406   */\n      0x20\n        /* \"#utility.yul\":38393:38402   */\n      dup3\n        /* \"#utility.yul\":38389:38407   */\n      add\n        /* \"#utility.yul\":38381:38407   */\n      swap1\n      pop\n        /* \"#utility.yul\":38417:38488   */\n      tag_864\n        /* \"#utility.yul\":38485:38486   */\n      0x00\n        /* \"#utility.yul\":38474:38483   */\n      dup4\n        /* \"#utility.yul\":38470:38487   */\n      add\n        /* \"#utility.yul\":38461:38467   */\n      dup5\n        /* \"#utility.yul\":38417:38488   */\n      tag_438\n      jump\t// in\n    tag_864:\n        /* \"#utility.yul\":38273:38495   */\n      swap3\n      swap2\n      pop\n      pop\n      jump\t// out\n        /* \"#utility.yul\":38501:38677   */\n    tag_480:\n        /* \"#utility.yul\":38641:38669   */\n      0x496e73756666696369656e7420746f6b656e2062616c616e6365000000000000\n        /* \"#utility.yul\":38637:38638   */\n      0x00\n        /* \"#utility.yul\":38629:38635   */\n      dup3\n        /* \"#utility.yul\":38625:38639   */\n      add\n        /* \"#utility.yul\":38618:38670   */\n      mstore\n        /* \"#utility.yul\":38501:38677   */\n      pop\n      jump\t// out\n        /* \"#utility.yul\":38683:39049   */\n    tag_481:\n        /* \"#utility.yul\":38825:38828   */\n      0x00\n        /* \"#utility.yul\":38846:38913   */\n      tag_867\n        /* \"#utility.yul\":38910:38912   */\n      0x1a\n        /* \"#utility.yul\":38905:38908   */\n      dup4\n        /* \"#utility.yul\":38846:38913   */\n      tag_424\n      jump\t// in\n    tag_867:\n        /* \"#utility.yul\":38839:38913   */\n      swap2\n      pop\n        /* \"#utility.yul\":38922:39015   */\n      tag_868\n        /* \"#utility.yul\":39011:39014   */\n      dup3\n        /* \"#utility.yul\":38922:39015   */\n      tag_480\n      jump\t// in\n    tag_868:\n        /* \"#utility.yul\":39040:39042   */\n      0x20\n        /* \"#utility.yul\":39035:39038   */\n      dup3\n        /* \"#utility.yul\":39031:39043   */\n      add\n        /* \"#utility.yul\":39024:39043   */\n      swap1\n      pop\n        /* \"#utility.yul\":38683:39049   */\n      swap2\n      swap1\n      pop\n      jump\t// out\n        /* \"#utility.yul\":39055:39474   */\n    tag_297:\n        /* \"#utility.yul\":39221:39225   */\n      0x00\n        /* \"#utility.yul\":39259:39261   */\n      0x20\n        /* \"#utility.yul\":39248:39257   */\n      dup3\n        /* \"#utility.yul\":39244:39262   */\n      add\n        /* \"#utility.yul\":39236:39262   */\n      swap1\n      pop\n        /* \"#utility.yul\":39308:39317   */\n      dup2\n        /* \"#utility.yul\":39302:39306   */\n      dup2\n        /* \"#utility.yul\":39298:39318   */\n      sub\n        /* \"#utility.yul\":39294:39295   */\n      0x00\n        /* \"#utility.yul\":39283:39292   */\n      dup4\n        /* \"#utility.yul\":39279:39296   */\n      add\n        /* \"#utility.yul\":39272:39319   */\n      mstore\n        /* \"#utility.yul\":39336:39467   */\n      tag_870\n        /* \"#utility.yul\":39462:39466   */\n      dup2\n        /* \"#utility.yul\":39336:39467   */\n      tag_481\n      jump\t// in\n    tag_870:\n        /* \"#utility.yul\":39328:39467   */\n      swap1\n      pop\n        /* \"#utility.yul\":39055:39474   */\n      swap2\n      swap1\n      pop\n      jump\t// out\n        /* \"#utility.yul\":39480:39922   */\n    tag_299:\n        /* \"#utility.yul\":39629:39633   */\n      0x00\n        /* \"#utility.yul\":39667:39669   */\n      0x60\n        /* \"#utility.yul\":39656:39665   */\n      dup3\n        /* \"#utility.yul\":39652:39670   */\n      add\n        /* \"#utility.yul\":39644:39670   */\n      swap1\n      pop\n        /* \"#utility.yul\":39680:39751   */\n      tag_872\n        /* \"#utility.yul\":39748:39749   */\n      0x00\n        /* \"#utility.yul\":39737:39746   */\n      dup4\n        /* \"#utility.yul\":39733:39750   */\n      add\n        /* \"#utility.yul\":39724:39730   */\n      dup7\n        /* \"#utility.yul\":39680:39751   */\n      tag_438\n      jump\t// in\n    tag_872:\n        /* \"#utility.yul\":39761:39833   */\n      tag_873\n        /* \"#utility.yul\":39829:39831   */\n      0x20\n        /* \"#utility.yul\":39818:39827   */\n      dup4\n        /* \"#utility.yul\":39814:39832   */\n      add\n        /* \"#utility.yul\":39805:39811   */\n      dup6\n        /* \"#utility.yul\":39761:39833   */\n      tag_438\n      jump\t// in\n    tag_873:\n        /* \"#utility.yul\":39843:39915   */\n      tag_874\n        /* \"#utility.yul\":39911:39913   */\n      0x40\n        /* \"#utility.yul\":39900:39909   */\n      dup4\n        /* \"#utility.yul\":39896:39914   */\n      add\n        /* \"#utility.yul\":39887:39893   */\n      dup5\n        /* \"#utility.yul\":39843:39915   */\n      tag_407\n      jump\t// in\n    tag_874:\n        /* \"#utility.yul\":39480:39922   */\n      swap5\n      swap4\n      pop\n      pop\n      pop\n      pop\n      jump\t// out\n        /* \"#utility.yul\":39928:40102   */\n    tag_482:\n        /* \"#utility.yul\":40068:40094   */\n      0x4368616c6c656e676520646f6573206e6f742065786973740000000000000000\n        /* \"#utility.yul\":40064:40065   */\n      0x00\n        /* \"#utility.yul\":40056:40062   */\n      dup3\n        /* \"#utility.yul\":40052:40066   */\n      add\n        /* \"#utility.yul\":40045:40095   */\n      mstore\n        /* \"#utility.yul\":39928:40102   */\n      pop\n      jump\t// out\n        /* \"#utility.yul\":40108:40474   */\n    tag_483:\n        /* \"#utility.yul\":40250:40253   */\n      0x00\n        /* \"#utility.yul\":40271:40338   */\n      tag_877\n        /* \"#utility.yul\":40335:40337   */\n      0x18\n        /* \"#utility.yul\":40330:40333   */\n      dup4\n        /* \"#utility.yul\":40271:40338   */\n      tag_424\n      jump\t// in\n    tag_877:\n        /* \"#utility.yul\":40264:40338   */\n      swap2\n      pop\n        /* \"#utility.yul\":40347:40440   */\n      tag_878\n        /* \"#utility.yul\":40436:40439   */\n      dup3\n        /* \"#utility.yul\":40347:40440   */\n      tag_482\n      jump\t// in\n    tag_878:\n        /* \"#utility.yul\":40465:40467   */\n      0x20\n        /* \"#utility.yul\":40460:40463   */\n      dup3\n        /* \"#utility.yul\":40456:40468   */\n      add\n        /* \"#utility.yul\":40449:40468   */\n      swap1\n      pop\n        /* \"#utility.yul\":40108:40474   */\n      swap2\n      swap1\n      pop\n      jump\t// out\n        /* \"#utility.yul\":40480:40899   */\n    tag_319:\n        /* \"#utility.yul\":40646:40650   */\n      0x00\n        /* \"#utility.yul\":40684:40686   */\n      0x20\n        /* \"#utility.yul\":40673:40682   */\n      dup3\n        /* \"#utility.yul\":40669:40687   */\n      add\n        /* \"#utility.yul\":40661:40687   */\n      swap1\n      pop\n        /* \"#utility.yul\":40733:40742   */\n      dup2\n        /* \"#utility.yul\":40727:40731   */\n      dup2\n        /* \"#utility.yul\":40723:40743   */\n      sub\n        /* \"#utility.yul\":40719:40720   */\n      0x00\n        /* \"#utility.yul\":40708:40717   */\n      dup4\n        /* \"#utility.yul\":40704:40721   */\n      add\n        /* \"#utility.yul\":40697:40744   */\n      mstore\n        /* \"#utility.yul\":40761:40892   */\n      tag_880\n        /* \"#utility.yul\":40887:40891   */\n      dup2\n        /* \"#utility.yul\":40761:40892   */\n      tag_483\n      jump\t// in\n    tag_880:\n        /* \"#utility.yul\":40753:40892   */\n      swap1\n      pop\n        /* \"#utility.yul\":40480:40899   */\n      swap2\n      swap1\n      pop\n      jump\t// out\n        /* \"#utility.yul\":40905:41053   */\n    tag_484:\n        /* \"#utility.yul\":41007:41018   */\n      0x00\n        /* \"#utility.yul\":41044:41047   */\n      dup2\n        /* \"#utility.yul\":41029:41047   */\n      swap1\n      pop\n        /* \"#utility.yul\":40905:41053   */\n      swap3\n      swap2\n      pop\n      pop\n      jump\t// out\n        /* \"#utility.yul\":41059:41232   */\n    tag_485:\n        /* \"#utility.yul\":41199:41224   */\n      0x416363657373436f6e74726f6c3a206163636f756e7420000000000000000000\n        /* \"#utility.yul\":41195:41196   */\n      0x00\n        /* \"#utility.yul\":41187:41193   */\n      dup3\n        /* \"#utility.yul\":41183:41197   */\n      add\n        /* \"#utility.yul\":41176:41225   */\n      mstore\n        /* \"#utility.yul\":41059:41232   */\n      pop\n      jump\t// out\n        /* \"#utility.yul\":41238:41640   */\n    tag_486:\n        /* \"#utility.yul\":41398:41401   */\n      0x00\n        /* \"#utility.yul\":41419:41504   */\n      tag_884\n        /* \"#utility.yul\":41501:41503   */\n      0x17\n        /* \"#utility.yul\":41496:41499   */\n      dup4\n        /* \"#utility.yul\":41419:41504   */\n      tag_484\n      jump\t// in\n    tag_884:\n        /* \"#utility.yul\":41412:41504   */\n      swap2\n      pop\n        /* \"#utility.yul\":41513:41606   */\n      tag_885\n        /* \"#utility.yul\":41602:41605   */\n      dup3\n        /* \"#utility.yul\":41513:41606   */\n      tag_485\n      jump\t// in\n    tag_885:\n        /* \"#utility.yul\":41631:41633   */\n      0x17\n        /* \"#utility.yul\":41626:41629   */\n      dup3\n        /* \"#utility.yul\":41622:41634   */\n      add\n        /* \"#utility.yul\":41615:41634   */\n      swap1\n      pop\n        /* \"#utility.yul\":41238:41640   */\n      swap2\n      swap1\n      pop\n      jump\t// out\n        /* \"#utility.yul\":41646:42036   */\n    tag_487:\n        /* \"#utility.yul\":41752:41755   */\n      0x00\n        /* \"#utility.yul\":41780:41819   */\n      tag_887\n        /* \"#utility.yul\":41813:41818   */\n      dup3\n        /* \"#utility.yul\":41780:41819   */\n      tag_417\n      jump\t// in\n    tag_887:\n        /* \"#utility.yul\":41835:41924   */\n      tag_888\n        /* \"#utility.yul\":41917:41923   */\n      dup2\n        /* \"#utility.yul\":41912:41915   */\n      dup6\n        /* \"#utility.yul\":41835:41924   */\n      tag_484\n      jump\t// in\n    tag_888:\n        /* \"#utility.yul\":41828:41924   */\n      swap4\n      pop\n        /* \"#utility.yul\":41933:41998   */\n      tag_889\n        /* \"#utility.yul\":41991:41997   */\n      dup2\n        /* \"#utility.yul\":41986:41989   */\n      dup6\n        /* \"#utility.yul\":41979:41983   */\n      0x20\n        /* \"#utility.yul\":41972:41977   */\n      dup7\n        /* \"#utility.yul\":41968:41984   */\n      add\n        /* \"#utility.yul\":41933:41998   */\n      tag_419\n      jump\t// in\n    tag_889:\n        /* \"#utility.yul\":42023:42029   */\n      dup1\n        /* \"#utility.yul\":42018:42021   */\n      dup5\n        /* \"#utility.yul\":42014:42030   */\n      add\n        /* \"#utility.yul\":42007:42030   */\n      swap2\n      pop\n        /* \"#utility.yul\":41756:42036   */\n      pop\n        /* \"#utility.yul\":41646:42036   */\n      swap3\n      swap2\n      pop\n      pop\n      jump\t// out\n        /* \"#utility.yul\":42042:42209   */\n    tag_488:\n        /* \"#utility.yul\":42182:42201   */\n      0x206973206d697373696e6720726f6c6520000000000000000000000000000000\n        /* \"#utility.yul\":42178:42179   */\n      0x00\n        /* \"#utility.yul\":42170:42176   */\n      dup3\n        /* \"#utility.yul\":42166:42180   */\n      add\n        /* \"#utility.yul\":42159:42202   */\n      mstore\n        /* \"#utility.yul\":42042:42209   */\n      pop\n      jump\t// out\n        /* \"#utility.yul\":42215:42617   */\n    tag_489:\n        /* \"#utility.yul\":42375:42378   */\n      0x00\n        /* \"#utility.yul\":42396:42481   */\n      tag_892\n        /* \"#utility.yul\":42478:42480   */\n      0x11\n        /* \"#utility.yul\":42473:42476   */\n      dup4\n        /* \"#utility.yul\":42396:42481   */\n      tag_484\n      jump\t// in\n    tag_892:\n        /* \"#utility.yul\":42389:42481   */\n      swap2\n      pop\n        /* \"#utility.yul\":42490:42583   */\n      tag_893\n        /* \"#utility.yul\":42579:42582   */\n      dup3\n        /* \"#utility.yul\":42490:42583   */\n      tag_488\n      jump\t// in\n    tag_893:\n        /* \"#utility.yul\":42608:42610   */\n      0x11\n        /* \"#utility.yul\":42603:42606   */\n      dup3\n        /* \"#utility.yul\":42599:42611   */\n      add\n        /* \"#utility.yul\":42592:42611   */\n      swap1\n      pop\n        /* \"#utility.yul\":42215:42617   */\n      swap2\n      swap1\n      pop\n      jump\t// out\n        /* \"#utility.yul\":42623:43590   */\n    tag_347:\n        /* \"#utility.yul\":43005:43008   */\n      0x00\n        /* \"#utility.yul\":43027:43175   */\n      tag_895\n        /* \"#utility.yul\":43171:43174   */\n      dup3\n        /* \"#utility.yul\":43027:43175   */\n      tag_486\n      jump\t// in\n    tag_895:\n        /* \"#utility.yul\":43020:43175   */\n      swap2\n      pop\n        /* \"#utility.yul\":43192:43287   */\n      tag_896\n        /* \"#utility.yul\":43283:43286   */\n      dup3\n        /* \"#utility.yul\":43274:43280   */\n      dup6\n        /* \"#utility.yul\":43192:43287   */\n      tag_487\n      jump\t// in\n    tag_896:\n        /* \"#utility.yul\":43185:43287   */\n      swap2\n      pop\n        /* \"#utility.yul\":43304:43452   */\n      tag_897\n        /* \"#utility.yul\":43448:43451   */\n      dup3\n        /* \"#utility.yul\":43304:43452   */\n      tag_489\n      jump\t// in\n    tag_897:\n        /* \"#utility.yul\":43297:43452   */\n      swap2\n      pop\n        /* \"#utility.yul\":43469:43564   */\n      tag_898\n        /* \"#utility.yul\":43560:43563   */\n      dup3\n        /* \"#utility.yul\":43551:43557   */\n      dup5\n        /* \"#utility.yul\":43469:43564   */\n      tag_487\n      jump\t// in\n    tag_898:\n        /* \"#utility.yul\":43462:43564   */\n      swap2\n      pop\n        /* \"#utility.yul\":43581:43584   */\n      dup2\n        /* \"#utility.yul\":43574:43584   */\n      swap1\n      pop\n        /* \"#utility.yul\":42623:43590   */\n      swap4\n      swap3\n      pop\n      pop\n      pop\n      jump\t// out\n        /* \"#utility.yul\":43596:43909   */\n    tag_349:\n        /* \"#utility.yul\":43709:43713   */\n      0x00\n        /* \"#utility.yul\":43747:43749   */\n      0x20\n        /* \"#utility.yul\":43736:43745   */\n      dup3\n        /* \"#utility.yul\":43732:43750   */\n      add\n        /* \"#utility.yul\":43724:43750   */\n      swap1\n      pop\n        /* \"#utility.yul\":43796:43805   */\n      dup2\n        /* \"#utility.yul\":43790:43794   */\n      dup2\n        /* \"#utility.yul\":43786:43806   */\n      sub\n        /* \"#utility.yul\":43782:43783   */\n      0x00\n        /* \"#utility.yul\":43771:43780   */\n      dup4\n        /* \"#utility.yul\":43767:43784   */\n      add\n        /* \"#utility.yul\":43760:43807   */\n      mstore\n        /* \"#utility.yul\":43824:43902   */\n      tag_900\n        /* \"#utility.yul\":43897:43901   */\n      dup2\n        /* \"#utility.yul\":43888:43894   */\n      dup5\n        /* \"#utility.yul\":43824:43902   */\n      tag_425\n      jump\t// in\n    tag_900:\n        /* \"#utility.yul\":43816:43902   */\n      swap1\n      pop\n        /* \"#utility.yul\":43596:43909   */\n      swap3\n      swap2\n      pop\n      pop\n      jump\t// out\n        /* \"#utility.yul\":43915:44095   */\n    tag_490:\n        /* \"#utility.yul\":43963:44040   */\n      0x4e487b7100000000000000000000000000000000000000000000000000000000\n        /* \"#utility.yul\":43960:43961   */\n      0x00\n        /* \"#utility.yul\":43953:44041   */\n      mstore\n        /* \"#utility.yul\":44060:44064   */\n      0x11\n        /* \"#utility.yul\":44057:44058   */\n      0x04\n        /* \"#utility.yul\":44050:44065   */\n      mstore\n        /* \"#utility.yul\":44084:44088   */\n      0x24\n        /* \"#utility.yul\":44081:44082   */\n      0x00\n        /* \"#utility.yul\":44074:44089   */\n      revert\n        /* \"#utility.yul\":44101:44511   */\n    tag_354:\n        /* \"#utility.yul\":44141:44148   */\n      0x00\n        /* \"#utility.yul\":44164:44184   */\n      tag_903\n        /* \"#utility.yul\":44182:44183   */\n      dup3\n        /* \"#utility.yul\":44164:44184   */\n      tag_404\n      jump\t// in\n    tag_903:\n        /* \"#utility.yul\":44159:44184   */\n      swap2\n      pop\n        /* \"#utility.yul\":44198:44218   */\n      tag_904\n        /* \"#utility.yul\":44216:44217   */\n      dup4\n        /* \"#utility.yul\":44198:44218   */\n      tag_404\n      jump\t// in\n    tag_904:\n        /* \"#utility.yul\":44193:44218   */\n      swap3\n      pop\n        /* \"#utility.yul\":44253:44254   */\n      dup3\n        /* \"#utility.yul\":44250:44251   */\n      dup3\n        /* \"#utility.yul\":44246:44255   */\n      mul\n        /* \"#utility.yul\":44275:44305   */\n      tag_905\n        /* \"#utility.yul\":44293:44304   */\n      dup2\n        /* \"#utility.yul\":44275:44305   */\n      tag_404\n      jump\t// in\n    tag_905:\n        /* \"#utility.yul\":44264:44305   */\n      swap2\n      pop\n        /* \"#utility.yul\":44454:44455   */\n      dup3\n        /* \"#utility.yul\":44445:44452   */\n      dup3\n        /* \"#utility.yul\":44441:44456   */\n      div\n        /* \"#utility.yul\":44438:44439   */\n      dup5\n        /* \"#utility.yul\":44435:44457   */\n      eq\n        /* \"#utility.yul\":44415:44416   */\n      dup4\n        /* \"#utility.yul\":44408:44417   */\n      iszero\n        /* \"#utility.yul\":44388:44471   */\n      or\n        /* \"#utility.yul\":44365:44504   */\n      tag_906\n      jumpi\n        /* \"#utility.yul\":44484:44502   */\n      tag_907\n      tag_490\n      jump\t// in\n    tag_907:\n        /* \"#utility.yul\":44365:44504   */\n    tag_906:\n        /* \"#utility.yul\":44149:44511   */\n      pop\n        /* \"#utility.yul\":44101:44511   */\n      swap3\n      swap2\n      pop\n      pop\n      jump\t// out\n        /* \"#utility.yul\":44517:44708   */\n    tag_356:\n        /* \"#utility.yul\":44557:44560   */\n      0x00\n        /* \"#utility.yul\":44576:44596   */\n      tag_909\n        /* \"#utility.yul\":44594:44595   */\n      dup3\n        /* \"#utility.yul\":44576:44596   */\n      tag_404\n      jump\t// in\n    tag_909:\n        /* \"#utility.yul\":44571:44596   */\n      swap2\n      pop\n        /* \"#utility.yul\":44610:44630   */\n      tag_910\n        /* \"#utility.yul\":44628:44629   */\n      dup4\n        /* \"#utility.yul\":44610:44630   */\n      tag_404\n      jump\t// in\n    tag_910:\n        /* \"#utility.yul\":44605:44630   */\n      swap3\n      pop\n        /* \"#utility.yul\":44653:44654   */\n      dup3\n        /* \"#utility.yul\":44650:44651   */\n      dup3\n        /* \"#utility.yul\":44646:44655   */\n      add\n        /* \"#utility.yul\":44639:44655   */\n      swap1\n      pop\n        /* \"#utility.yul\":44674:44677   */\n      dup1\n        /* \"#utility.yul\":44671:44672   */\n      dup3\n        /* \"#utility.yul\":44668:44678   */\n      gt\n        /* \"#utility.yul\":44665:44701   */\n      iszero\n      tag_911\n      jumpi\n        /* \"#utility.yul\":44681:44699   */\n      tag_912\n      tag_490\n      jump\t// in\n    tag_912:\n        /* \"#utility.yul\":44665:44701   */\n    tag_911:\n        /* \"#utility.yul\":44517:44708   */\n      swap3\n      swap2\n      pop\n      pop\n      jump\t// out\n        /* \"#utility.yul\":44714:44885   */\n    tag_375:\n        /* \"#utility.yul\":44753:44756   */\n      0x00\n        /* \"#utility.yul\":44776:44800   */\n      tag_914\n        /* \"#utility.yul\":44794:44799   */\n      dup3\n        /* \"#utility.yul\":44776:44800   */\n      tag_404\n      jump\t// in\n    tag_914:\n        /* \"#utility.yul\":44767:44800   */\n      swap2\n      pop\n        /* \"#utility.yul\":44822:44826   */\n      0x00\n        /* \"#utility.yul\":44815:44820   */\n      dup3\n        /* \"#utility.yul\":44812:44827   */\n      sub\n        /* \"#utility.yul\":44809:44850   */\n      tag_915\n      jumpi\n        /* \"#utility.yul\":44830:44848   */\n      tag_916\n      tag_490\n      jump\t// in\n    tag_916:\n        /* \"#utility.yul\":44809:44850   */\n    tag_915:\n        /* \"#utility.yul\":44877:44878   */\n      0x01\n        /* \"#utility.yul\":44870:44875   */\n      dup3\n        /* \"#utility.yul\":44866:44879   */\n      sub\n        /* \"#utility.yul\":44859:44879   */\n      swap1\n      pop\n        /* \"#utility.yul\":44714:44885   */\n      swap2\n      swap1\n      pop\n      jump\t// out\n        /* \"#utility.yul\":44891:45073   */\n    tag_491:\n        /* \"#utility.yul\":45031:45065   */\n      0x537472696e67733a20686578206c656e67746820696e73756666696369656e74\n        /* \"#utility.yul\":45027:45028   */\n      0x00\n        /* \"#utility.yul\":45019:45025   */\n      dup3\n        /* \"#utility.yul\":45015:45029   */\n      add\n        /* \"#utility.yul\":45008:45066   */\n      mstore\n        /* \"#utility.yul\":44891:45073   */\n      pop\n      jump\t// out\n        /* \"#utility.yul\":45079:45445   */\n    tag_492:\n        /* \"#utility.yul\":45221:45224   */\n      0x00\n        /* \"#utility.yul\":45242:45309   */\n      tag_919\n        /* \"#utility.yul\":45306:45308   */\n      0x20\n        /* \"#utility.yul\":45301:45304   */\n      dup4\n        /* \"#utility.yul\":45242:45309   */\n      tag_424\n      jump\t// in\n    tag_919:\n        /* \"#utility.yul\":45235:45309   */\n      swap2\n      pop\n        /* \"#utility.yul\":45318:45411   */\n      tag_920\n        /* \"#utility.yul\":45407:45410   */\n      dup3\n        /* \"#utility.yul\":45318:45411   */\n      tag_491\n      jump\t// in\n    tag_920:\n        /* \"#utility.yul\":45436:45438   */\n      0x20\n        /* \"#utility.yul\":45431:45434   */\n      dup3\n        /* \"#utility.yul\":45427:45439   */\n      add\n        /* \"#utility.yul\":45420:45439   */\n      swap1\n      pop\n        /* \"#utility.yul\":45079:45445   */\n      swap2\n      swap1\n      pop\n      jump\t// out\n        /* \"#utility.yul\":45451:45870   */\n    tag_378:\n        /* \"#utility.yul\":45617:45621   */\n      0x00\n        /* \"#utility.yul\":45655:45657   */\n      0x20\n        /* \"#utility.yul\":45644:45653   */\n      dup3\n        /* \"#utility.yul\":45640:45658   */\n      add\n        /* \"#utility.yul\":45632:45658   */\n      swap1\n      pop\n        /* \"#utility.yul\":45704:45713   */\n      dup2\n        /* \"#utility.yul\":45698:45702   */\n      dup2\n        /* \"#utility.yul\":45694:45714   */\n      sub\n        /* \"#utility.yul\":45690:45691   */\n      0x00\n        /* \"#utility.yul\":45679:45688   */\n      dup4\n        /* \"#utility.yul\":45675:45692   */\n      add\n        /* \"#utility.yul\":45668:45715   */\n      mstore\n        /* \"#utility.yul\":45732:45863   */\n      tag_922\n        /* \"#utility.yul\":45858:45862   */\n      dup2\n        /* \"#utility.yul\":45732:45863   */\n      tag_492\n      jump\t// in\n    tag_922:\n        /* \"#utility.yul\":45724:45863   */\n      swap1\n      pop\n        /* \"#utility.yul\":45451:45870   */\n      swap2\n      swap1\n      pop\n      jump\t// out\n\n    auxdata: 0xa2646970667358221220286bb5a183763629bda4efd4ccd10414fbcdb38dd3148d9b03d0708fbcb6bcd464736f6c634300081a0033\n}\n",
				"bytecode": {
					"linkReferences": {},
					"object": "608060405234801561000f575f80fd5b50604051613947380380613947833981810160405281019061003191906102bc565b8160015f6101000a81548173ffffffffffffffffffffffffffffffffffffffff021916908373ffffffffffffffffffffffffffffffffffffffff1602179055508060025f6101000a81548173ffffffffffffffffffffffffffffffffffffffff021916908373ffffffffffffffffffffffffffffffffffffffff1602179055506100c35f801b336100fa60201b60201c565b6100f37fa49807205ce4d355092ef5a8a18f56e8913cf4a201fbe287825b095693c21775336100fa60201b60201c565b50506102fa565b61010a828261010e60201b60201c565b5050565b61011e82826101f460201b60201c565b6101f05760015f808481526020019081526020015f205f015f8373ffffffffffffffffffffffffffffffffffffffff1673ffffffffffffffffffffffffffffffffffffffff1681526020019081526020015f205f6101000a81548160ff02191690831515021790555061019561025760201b60201c565b73ffffffffffffffffffffffffffffffffffffffff168173ffffffffffffffffffffffffffffffffffffffff16837f2f8788117e7eff1d82e926ec794901d17c78024a50270940304540a733656f0d60405160405180910390a45b5050565b5f805f8481526020019081526020015f205f015f8373ffffffffffffffffffffffffffffffffffffffff1673ffffffffffffffffffffffffffffffffffffffff1681526020019081526020015f205f9054906101000a900460ff16905092915050565b5f33905090565b5f80fd5b5f73ffffffffffffffffffffffffffffffffffffffff82169050919050565b5f61028b82610262565b9050919050565b61029b81610281565b81146102a5575f80fd5b50565b5f815190506102b681610292565b92915050565b5f80604083850312156102d2576102d161025e565b5b5f6102df858286016102a8565b92505060206102f0858286016102a8565b9150509250929050565b613640806103075f395ff3fe608060405234801561000f575f80fd5b50600436106101cd575f3560e01c80639a19c7b011610102578063c02725f0116100a0578063d547741f1161006f578063d547741f1461053a578063dd0c808214610556578063dd7d2b9f14610574578063f58ee35414610590576101cd565b8063c02725f0146104ca578063c634b78e146104e6578063ca1c996f14610502578063cbc7854e1461051e576101cd565b8063aac2094a116100dc578063aac2094a14610432578063ae99aa3c1461044e578063b35580751461047e578063bb10ab0f1461049a576101cd565b80639a19c7b0146103dc5780639b882bb0146103f8578063a217fddf14610414576101cd565b806347e1d5501161016f5780638164586e116101495780638164586e146103585780638525ea161461037457806389b2c8e71461039057806391d14854146103ac576101cd565b806347e1d550146102d757806375b238fc146103075780637d1b468714610325576101cd565b806328b69262116101ab57806328b692621461024f5780632f2ff15d1461028357806336568abe1461029f578063406a378a146102bb576101cd565b806301ffc9a7146101d15780631b72fa3a14610201578063248a9ca31461021f575b5f80fd5b6101eb60048036038101906101e69190612028565b6105ac565b6040516101f8919061206d565b60405180910390f35b610209610625565b6040516102169190612100565b60405180910390f35b6102396004803603810190610234919061214c565b61064a565b6040516102469190612186565b60405180910390f35b610269600480360381019061026491906121d2565b610666565b60405161027a959493929190612231565b60405180910390f35b61029d600480360381019061029891906122bd565b6106ba565b005b6102b960048036038101906102b491906122bd565b6106db565b005b6102d560048036038101906102d091906123b1565b61075e565b005b6102f160048036038101906102ec919061242f565b61094a565b6040516102fe9190612548565b60405180910390f35b61030f610a92565b60405161031c9190612186565b60405180910390f35b61033f600480360381019061033a919061242f565b610ab6565b60405161034f94939291906125b0565b60405180910390f35b610372600480360381019061036d9190612722565b610b74565b005b61038e6004803603810190610389919061278e565b610c5e565b005b6103aa60048036038101906103a5919061242f565b610cc9565b005b6103c660048036038101906103c191906122bd565b610dc7565b6040516103d3919061206d565b60405180910390f35b6103f660048036038101906103f191906127f2565b610e2a565b005b610412600480360381019061040d919061281d565b610e64565b005b61041c611028565b6040516104299190612186565b60405180910390f35b61044c6004803603810190610447919061286d565b61102e565b005b6104686004803603810190610463919061242f565b6110c0565b60405161047591906128c5565b60405180910390f35b61049860048036038101906104939190612722565b611149565b005b6104b460048036038101906104af919061242f565b61124c565b6040516104c191906128de565b60405180910390f35b6104e460048036038101906104df919061286d565b611266565b005b61050060048036038101906104fb91906127f2565b6112f8565b005b61051c6004803603810190610517919061278e565b611332565b005b610538600480360381019061053391906128f7565b611731565b005b610554600480360381019061054f91906122bd565b6117e0565b005b61055e611801565b60405161056b9190612100565b60405180910390f35b61058e6004803603810190610589919061278e565b611826565b005b6105aa60048036038101906105a5919061286d565b611981565b005b5f7f7965db0b000000000000000000000000000000000000000000000000000000007bffffffffffffffffffffffffffffffffffffffffffffffffffffffff1916827bffffffffffffffffffffffffffffffffffffffffffffffffffffffff1916148061061e575061061d82611a13565b5b9050919050565b60025f9054906101000a900473ffffffffffffffffffffffffffffffffffffffff1681565b5f805f8381526020019081526020015f20600101549050919050565b6003602052825f5260405f20602052815f5260405f20602052805f5260405f205f925092505050805f015490806001015490806002015490806003015490806004015f9054906101000a900460ff16905085565b6106c38261064a565b6106cc81611a7c565b6106d68383611a90565b505050565b6106e3611b6a565b73ffffffffffffffffffffffffffffffffffffffff168173ffffffffffffffffffffffffffffffffffffffff1614610750576040517f08c379a0000000000000000000000000000000000000000000000000000000008152600401610747906129a5565b60405180910390fd5b61075a8282611b71565b5050565b7fa49807205ce4d355092ef5a8a18f56e8913cf4a201fbe287825b095693c2177561078881611a7c565b8282905085859050146107d0576040517f08c379a00000000000000000000000000000000000000000000000000000000081526004016107c790612a33565b60405180910390fd5b5f5b858590508110156109055760025f9054906101000a900473ffffffffffffffffffffffffffffffffffffffff1673ffffffffffffffffffffffffffffffffffffffff1663a9059cbb87878481811061082d5761082c612a51565b5b905060200201602081019061084291906127f2565b86868581811061085557610854612a51565b5b905060200201356040518363ffffffff1660e01b8152600401610879929190612a8d565b6020604051808303815f875af1158015610895573d5f803e3d5ffd5b505050506040513d601f19601f820116820180604052508101906108b99190612ade565b6108f8576040517f08c379a00000000000000000000000000000000000000000000000000000000081526004016108ef90612b53565b60405180910390fd5b80806001019150506107d2565b507ffa3b7284ecb3a03e8f238b69b61f5645294c15019ea509bd4aaee604d60fdc348585858560405161093b9493929190612ca5565b60405180910390a15050505050565b610952611f31565b60045f8381526020019081526020015f206003015f9054906101000a900460ff166109b2576040517f08c379a00000000000000000000000000000000000000000000000000000000081526004016109a990612d28565b60405180910390fd5b60045f8381526020019081526020015f206040518060800160405290815f8201548152602001600182015481526020016002820180546109f190612d73565b80601f0160208091040260200160405190810160405280929190818152602001828054610a1d90612d73565b8015610a685780601f10610a3f57610100808354040283529160200191610a68565b820191905f5260205f20905b815481529060010190602001808311610a4b57829003601f168201915b50505050508152602001600382015f9054906101000a900460ff1615151515815250509050919050565b7fa49807205ce4d355092ef5a8a18f56e8913cf4a201fbe287825b095693c2177581565b6004602052805f5260405f205f91509050805f015490806001015490806002018054610ae190612d73565b80601f0160208091040260200160405190810160405280929190818152602001828054610b0d90612d73565b8015610b585780601f10610b2f57610100808354040283529160200191610b58565b820191905f5260205f20905b815481529060010190602001808311610b3b57829003601f168201915b505050505090806003015f9054906101000a900460ff16905084565b7fa49807205ce4d355092ef5a8a18f56e8913cf4a201fbe287825b095693c21775610b9e81611a7c565b60405180608001604052808581526020018481526020018381526020016001151581525060045f8581526020019081526020015f205f820151815f0155602082015181600101556040820151816002019081610bfa9190612f37565b506060820151816003015f6101000a81548160ff0219169083151502179055509050507fd8e2cd0473b83461e66f336b5655c077dbd1203e041ad68b1d6f2c4c5ec2593d848484604051610c5093929190613006565b60405180910390a150505050565b7fa49807205ce4d355092ef5a8a18f56e8913cf4a201fbe287825b095693c21775610c8881611a7c565b8284867fa8f9cf476e5bcc627f5ed22b5ba54bd7fff333cd851bc754d924fe3eb28752fb85604051610cba91906128de565b60405180910390a45050505050565b7fa49807205ce4d355092ef5a8a18f56e8913cf4a201fbe287825b095693c21775610cf381611a7c565b60045f8381526020019081526020015f206003015f9054906101000a900460ff16610d53576040517f08c379a0000000000000000000000000000000000000000000000000000000008152600401610d4a90612d28565b60405180910390fd5b60045f8381526020019081526020015f205f8082015f9055600182015f9055600282015f610d819190611f58565b600382015f6101000a81549060ff02191690555050817f5ef6221cc1c069a8c723210c08d526c7ca88540ee8d66470cf01844efaae0b9460405160405180910390a25050565b5f805f8481526020019081526020015f205f015f8373ffffffffffffffffffffffffffffffffffffffff1673ffffffffffffffffffffffffffffffffffffffff1681526020019081526020015f205f9054906101000a900460ff16905092915050565b5f801b610e3681611a7c565b610e607fa49807205ce4d355092ef5a8a18f56e8913cf4a201fbe287825b095693c21775836117e0565b5050565b7fa49807205ce4d355092ef5a8a18f56e8913cf4a201fbe287825b095693c21775610e8e81611a7c565b5f60055f8681526020019081526020015f205f015414610ee3576040517f08c379a0000000000000000000000000000000000000000000000000000000008152600401610eda9061308c565b60405180910390fd5b60405180602001604052808581525060055f8681526020019081526020015f205f820151815f015590505060015f9054906101000a900473ffffffffffffffffffffffffffffffffffffffff1673ffffffffffffffffffffffffffffffffffffffff1663a9059cbb84846040518363ffffffff1660e01b8152600401610f6a929190612a8d565b6020604051808303815f875af1158015610f86573d5f803e3d5ffd5b505050506040513d601f19601f82011682018060405250810190610faa9190612ade565b610fe9576040517f08c379a0000000000000000000000000000000000000000000000000000000008152600401610fe090612b53565b60405180910390fd5b7f5a92c2530f207992057b9c3e544108ffce3beda4a63719f316967c49bf6159d2848360405161101a9291906130aa565b60405180910390a150505050565b5f801b81565b60045f8381526020019081526020015f206003015f9054906101000a900460ff1661108e576040517f08c379a000000000000000000000000000000000000000000000000000000000815260040161108590612d28565b60405180910390fd5b80827f4c4660db760944215f41e957066d756ad5fd0eed1b4640632322eb06f77b034d60405160405180910390a35050565b6110c8611f95565b5f60055f8481526020019081526020015f205f01541161111d576040517f08c379a00000000000000000000000000000000000000000000000000000000081526004016111149061311b565b60405180910390fd5b60055f8381526020019081526020015f206040518060200160405290815f820154815250509050919050565b7fa49807205ce4d355092ef5a8a18f56e8913cf4a201fbe287825b095693c2177561117381611a7c565b60045f8481526020019081526020015f206003015f9054906101000a900460ff166111d3576040517f08c379a00000000000000000000000000000000000000000000000000000000081526004016111ca90612d28565b60405180910390fd5b5f60045f8581526020019081526020015f20905084815f0181905550838160010181905550828160020190816112099190612f37565b507f279760c089dcaf505489fffb102c4bf947fb1847e8a7febd514bd92ffe977bc285858560405161123d93929190613006565b60405180910390a15050505050565b6005602052805f5260405f205f91509050805f0154905081565b60045f8381526020019081526020015f206003015f9054906101000a900460ff166112c6576040517f08c379a00000000000000000000000000000000000000000000000000000000081526004016112bd90612d28565b60405180910390fd5b80827fcccca5c37cd734d94742d46e24d5fcdc3e6ef8dd90dda510dae0e35530add4a260405160405180910390a35050565b5f801b61130481611a7c565b61132e7fa49807205ce4d355092ef5a8a18f56e8913cf4a201fbe287825b095693c21775836106ba565b5050565b60035f8581526020019081526020015f205f8481526020019081526020015f205f8381526020019081526020015f206004015f9054906101000a900460ff16156113b1576040517f08c379a00000000000000000000000000000000000000000000000000000000081526004016113a8906131a9565b60405180910390fd5b5f60015f9054906101000a900473ffffffffffffffffffffffffffffffffffffffff1673ffffffffffffffffffffffffffffffffffffffff1663dd62ed3e33306040518363ffffffff1660e01b815260040161140e9291906131c7565b602060405180830381865afa158015611429573d5f803e3d5ffd5b505050506040513d601f19601f8201168201806040525081019061144d9190613202565b905081811015611492576040517f08c379a000000000000000000000000000000000000000000000000000000000815260040161148990613277565b60405180910390fd5b5f60015f9054906101000a900473ffffffffffffffffffffffffffffffffffffffff1673ffffffffffffffffffffffffffffffffffffffff166370a08231336040518263ffffffff1660e01b81526004016114ed9190613295565b602060405180830381865afa158015611508573d5f803e3d5ffd5b505050506040513d601f19601f8201168201806040525081019061152c9190613202565b905082811015611571576040517f08c379a0000000000000000000000000000000000000000000000000000000008152600401611568906132f8565b60405180910390fd5b60015f9054906101000a900473ffffffffffffffffffffffffffffffffffffffff1673ffffffffffffffffffffffffffffffffffffffff166323b872dd3330866040518463ffffffff1660e01b81526004016115cf93929190613316565b6020604051808303815f875af11580156115eb573d5f803e3d5ffd5b505050506040513d601f19601f8201168201806040525081019061160f9190612ade565b61164e576040517f08c379a000000000000000000000000000000000000000000000000000000000815260040161164590612b53565b60405180910390fd5b6040518060a001604052808681526020018581526020018481526020015f81526020016001151581525060035f8881526020019081526020015f205f8781526020019081526020015f205f8681526020019081526020015f205f820151815f01556020820151816001015560408201518160020155606082015181600301556080820151816004015f6101000a81548160ff0219169083151502179055509050508385877f7bbca5efeebbed029b1684066d1a6e0ade8efe8c578ab0890d4b223e6ec5e50e8660405161172191906128de565b60405180910390a4505050505050565b7fa49807205ce4d355092ef5a8a18f56e8913cf4a201fbe287825b095693c2177561175b81611a7c565b8260015f6101000a81548173ffffffffffffffffffffffffffffffffffffffff021916908373ffffffffffffffffffffffffffffffffffffffff1602179055508160025f6101000a81548173ffffffffffffffffffffffffffffffffffffffff021916908373ffffffffffffffffffffffffffffffffffffffff160217905550505050565b6117e98261064a565b6117f281611a7c565b6117fc8383611b71565b505050565b60015f9054906101000a900473ffffffffffffffffffffffffffffffffffffffff1681565b7fa49807205ce4d355092ef5a8a18f56e8913cf4a201fbe287825b095693c2177561185081611a7c565b60035f8681526020019081526020015f205f8581526020019081526020015f205f8481526020019081526020015f206004015f9054906101000a900460ff166118ce576040517f08c379a00000000000000000000000000000000000000000000000000000000081526004016118c590613395565b60405180910390fd5b60035f8681526020019081526020015f205f8581526020019081526020015f205f8481526020019081526020015f2060030154821115611940578160035f8781526020019081526020015f205f8681526020019081526020015f205f8581526020019081526020015f20600301819055505b8284867f2bbc9ad1871f4b99168aa3febe254b9069558ff96ed7746d1677869afa38243f8560405161197291906128de565b60405180910390a45050505050565b60045f8381526020019081526020015f206003015f9054906101000a900460ff166119e1576040517f08c379a00000000000000000000000000000000000000000000000000000000081526004016119d890612d28565b60405180910390fd5b80827f51dbb46f6f6d290ac0b2b3fb0b015e2065756f1b9ec382651fe728757bf362fe60405160405180910390a35050565b5f7f01ffc9a7000000000000000000000000000000000000000000000000000000007bffffffffffffffffffffffffffffffffffffffffffffffffffffffff1916827bffffffffffffffffffffffffffffffffffffffffffffffffffffffff1916149050919050565b611a8d81611a88611b6a565b611c4b565b50565b611a9a8282610dc7565b611b665760015f808481526020019081526020015f205f015f8373ffffffffffffffffffffffffffffffffffffffff1673ffffffffffffffffffffffffffffffffffffffff1681526020019081526020015f205f6101000a81548160ff021916908315150217905550611b0b611b6a565b73ffffffffffffffffffffffffffffffffffffffff168173ffffffffffffffffffffffffffffffffffffffff16837f2f8788117e7eff1d82e926ec794901d17c78024a50270940304540a733656f0d60405160405180910390a45b5050565b5f33905090565b611b7b8282610dc7565b15611c47575f805f8481526020019081526020015f205f015f8373ffffffffffffffffffffffffffffffffffffffff1673ffffffffffffffffffffffffffffffffffffffff1681526020019081526020015f205f6101000a81548160ff021916908315150217905550611bec611b6a565b73ffffffffffffffffffffffffffffffffffffffff168173ffffffffffffffffffffffffffffffffffffffff16837ff6391f5c32d9c69d2a47ea670b442974b53935d1edc7fd64eb21e047a839171b60405160405180910390a45b5050565b611c558282610dc7565b611ccb57611c6281611ccf565b611c6f835f1c6020611cfc565b604051602001611c80929190613481565b6040516020818303038152906040526040517f08c379a0000000000000000000000000000000000000000000000000000000008152600401611cc291906134ba565b60405180910390fd5b5050565b6060611cf58273ffffffffffffffffffffffffffffffffffffffff16601460ff16611cfc565b9050919050565b60605f6002836002611d0e9190613507565b611d189190613548565b67ffffffffffffffff811115611d3157611d306125fe565b5b6040519080825280601f01601f191660200182016040528015611d635781602001600182028036833780820191505090505b5090507f3000000000000000000000000000000000000000000000000000000000000000815f81518110611d9a57611d99612a51565b5b60200101907effffffffffffffffffffffffffffffffffffffffffffffffffffffffffffff191690815f1a9053507f780000000000000000000000000000000000000000000000000000000000000081600181518110611dfd57611dfc612a51565b5b60200101907effffffffffffffffffffffffffffffffffffffffffffffffffffffffffffff191690815f1a9053505f6001846002611e3b9190613507565b611e459190613548565b90505b6001811115611ee4577f3031323334353637383961626364656600000000000000000000000000000000600f861660108110611e8757611e86612a51565b5b1a60f81b828281518110611e9e57611e9d612a51565b5b60200101907effffffffffffffffffffffffffffffffffffffffffffffffffffffffffffff191690815f1a905350600485901c945080611edd9061357b565b9050611e48565b505f8414611f27576040517f08c379a0000000000000000000000000000000000000000000000000000000008152600401611f1e906135ec565b60405180910390fd5b8091505092915050565b60405180608001604052805f81526020015f8152602001606081526020015f151581525090565b508054611f6490612d73565b5f825580601f10611f755750611f92565b601f0160209004905f5260205f2090810190611f919190611fa7565b5b50565b60405180602001604052805f81525090565b5b80821115611fbe575f815f905550600101611fa8565b5090565b5f604051905090565b5f80fd5b5f80fd5b5f7fffffffff0000000000000000000000000000000000000000000000000000000082169050919050565b61200781611fd3565b8114612011575f80fd5b50565b5f8135905061202281611ffe565b92915050565b5f6020828403121561203d5761203c611fcb565b5b5f61204a84828501612014565b91505092915050565b5f8115159050919050565b61206781612053565b82525050565b5f6020820190506120805f83018461205e565b92915050565b5f73ffffffffffffffffffffffffffffffffffffffff82169050919050565b5f819050919050565b5f6120c86120c36120be84612086565b6120a5565b612086565b9050919050565b5f6120d9826120ae565b9050919050565b5f6120ea826120cf565b9050919050565b6120fa816120e0565b82525050565b5f6020820190506121135f8301846120f1565b92915050565b5f819050919050565b61212b81612119565b8114612135575f80fd5b50565b5f8135905061214681612122565b92915050565b5f6020828403121561216157612160611fcb565b5b5f61216e84828501612138565b91505092915050565b61218081612119565b82525050565b5f6020820190506121995f830184612177565b92915050565b5f819050919050565b6121b18161219f565b81146121bb575f80fd5b50565b5f813590506121cc816121a8565b92915050565b5f805f606084860312156121e9576121e8611fcb565b5b5f6121f6868287016121be565b9350506020612207868287016121be565b9250506040612218868287016121be565b9150509250925092565b61222b8161219f565b82525050565b5f60a0820190506122445f830188612222565b6122516020830187612222565b61225e6040830186612222565b61226b6060830185612222565b612278608083018461205e565b9695505050505050565b5f61228c82612086565b9050919050565b61229c81612282565b81146122a6575f80fd5b50565b5f813590506122b781612293565b92915050565b5f80604083850312156122d3576122d2611fcb565b5b5f6122e085828601612138565b92505060206122f1858286016122a9565b9150509250929050565b5f80fd5b5f80fd5b5f80fd5b5f8083601f84011261231c5761231b6122fb565b5b8235905067ffffffffffffffff811115612339576123386122ff565b5b60208301915083602082028301111561235557612354612303565b5b9250929050565b5f8083601f840112612371576123706122fb565b5b8235905067ffffffffffffffff81111561238e5761238d6122ff565b5b6020830191508360208202830111156123aa576123a9612303565b5b9250929050565b5f805f80604085870312156123c9576123c8611fcb565b5b5f85013567ffffffffffffffff8111156123e6576123e5611fcf565b5b6123f287828801612307565b9450945050602085013567ffffffffffffffff81111561241557612414611fcf565b5b6124218782880161235c565b925092505092959194509250565b5f6020828403121561244457612443611fcb565b5b5f612451848285016121be565b91505092915050565b6124638161219f565b82525050565b5f81519050919050565b5f82825260208201905092915050565b8281835e5f83830152505050565b5f601f19601f8301169050919050565b5f6124ab82612469565b6124b58185612473565b93506124c5818560208601612483565b6124ce81612491565b840191505092915050565b6124e281612053565b82525050565b5f608083015f8301516124fd5f86018261245a565b506020830151612510602086018261245a565b506040830151848203604086015261252882826124a1565b915050606083015161253d60608601826124d9565b508091505092915050565b5f6020820190508181035f83015261256081846124e8565b905092915050565b5f82825260208201905092915050565b5f61258282612469565b61258c8185612568565b935061259c818560208601612483565b6125a581612491565b840191505092915050565b5f6080820190506125c35f830187612222565b6125d06020830186612222565b81810360408301526125e28185612578565b90506125f1606083018461205e565b95945050505050565b5f80fd5b7f4e487b71000000000000000000000000000000000000000000000000000000005f52604160045260245ffd5b61263482612491565b810181811067ffffffffffffffff82111715612653576126526125fe565b5b80604052505050565b5f612665611fc2565b9050612671828261262b565b919050565b5f67ffffffffffffffff8211156126905761268f6125fe565b5b61269982612491565b9050602081019050919050565b828183375f83830152505050565b5f6126c66126c184612676565b61265c565b9050828152602081018484840111156126e2576126e16125fa565b5b6126ed8482856126a6565b509392505050565b5f82601f830112612709576127086122fb565b5b81356127198482602086016126b4565b91505092915050565b5f805f6060848603121561273957612738611fcb565b5b5f612746868287016121be565b9350506020612757868287016121be565b925050604084013567ffffffffffffffff81111561277857612777611fcf565b5b612784868287016126f5565b9150509250925092565b5f805f80608085870312156127a6576127a5611fcb565b5b5f6127b3878288016121be565b94505060206127c4878288016121be565b93505060406127d5878288016121be565b92505060606127e6878288016121be565b91505092959194509250565b5f6020828403121561280757612806611fcb565b5b5f612814848285016122a9565b91505092915050565b5f805f6060848603121561283457612833611fcb565b5b5f612841868287016121be565b9350506020612852868287016122a9565b9250506040612863868287016121be565b9150509250925092565b5f806040838503121561288357612882611fcb565b5b5f612890858286016121be565b92505060206128a1858286016121be565b9150509250929050565b602082015f8201516128bf5f85018261245a565b50505050565b5f6020820190506128d85f8301846128ab565b92915050565b5f6020820190506128f15f830184612222565b92915050565b5f806040838503121561290d5761290c611fcb565b5b5f61291a858286016122a9565b925050602061292b858286016122a9565b9150509250929050565b7f416363657373436f6e74726f6c3a2063616e206f6e6c792072656e6f756e63655f8201527f20726f6c657320666f722073656c660000000000000000000000000000000000602082015250565b5f61298f602f83612568565b915061299a82612935565b604082019050919050565b5f6020820190508181035f8301526129bc81612983565b9050919050565b7f526563697069656e747320616e6420746f6b656e20616d6f756e7473206c656e5f8201527f677468206d69736d617463680000000000000000000000000000000000000000602082015250565b5f612a1d602c83612568565b9150612a28826129c3565b604082019050919050565b5f6020820190508181035f830152612a4a81612a11565b9050919050565b7f4e487b71000000000000000000000000000000000000000000000000000000005f52603260045260245ffd5b612a8781612282565b82525050565b5f604082019050612aa05f830185612a7e565b612aad6020830184612222565b9392505050565b612abd81612053565b8114612ac7575f80fd5b50565b5f81519050612ad881612ab4565b92915050565b5f60208284031215612af357612af2611fcb565b5b5f612b0084828501612aca565b91505092915050565b7f546f6b656e207472616e73666572206661696c656400000000000000000000005f82015250565b5f612b3d601583612568565b9150612b4882612b09565b602082019050919050565b5f6020820190508181035f830152612b6a81612b31565b9050919050565b5f82825260208201905092915050565b5f819050919050565b612b9381612282565b82525050565b5f612ba48383612b8a565b60208301905092915050565b5f612bbe60208401846122a9565b905092915050565b5f602082019050919050565b5f612bdd8385612b71565b9350612be882612b81565b805f5b85811015612c2057612bfd8284612bb0565b612c078882612b99565b9750612c1283612bc6565b925050600181019050612beb565b5085925050509392505050565b5f82825260208201905092915050565b5f80fd5b82818337505050565b5f612c558385612c2d565b93507f07ffffffffffffffffffffffffffffffffffffffffffffffffffffffffffffff831115612c8857612c87612c3d565b5b602083029250612c99838584612c41565b82840190509392505050565b5f6040820190508181035f830152612cbe818688612bd2565b90508181036020830152612cd3818486612c4a565b905095945050505050565b7f47616d6520646f6573206e6f74206578697374000000000000000000000000005f82015250565b5f612d12601383612568565b9150612d1d82612cde565b602082019050919050565b5f6020820190508181035f830152612d3f81612d06565b9050919050565b7f4e487b71000000000000000000000000000000000000000000000000000000005f52602260045260245ffd5b5f6002820490506001821680612d8a57607f821691505b602082108103612d9d57612d9c612d46565b5b50919050565b5f819050815f5260205f209050919050565b5f6020601f8301049050919050565b5f82821b905092915050565b5f60088302612dff7fffffffffffffffffffffffffffffffffffffffffffffffffffffffffffffffff82612dc4565b612e098683612dc4565b95508019841693508086168417925050509392505050565b5f612e3b612e36612e318461219f565b6120a5565b61219f565b9050919050565b5f819050919050565b612e5483612e21565b612e68612e6082612e42565b848454612dd0565b825550505050565b5f90565b612e7c612e70565b612e87818484612e4b565b505050565b5b81811015612eaa57612e9f5f82612e74565b600181019050612e8d565b5050565b601f821115612eef57612ec081612da3565b612ec984612db5565b81016020851015612ed8578190505b612eec612ee485612db5565b830182612e8c565b50505b505050565b5f82821c905092915050565b5f612f0f5f1984600802612ef4565b1980831691505092915050565b5f612f278383612f00565b9150826002028217905092915050565b612f4082612469565b67ffffffffffffffff811115612f5957612f586125fe565b5b612f638254612d73565b612f6e828285612eae565b5f60209050601f831160018114612f9f575f8415612f8d578287015190505b612f978582612f1c565b865550612ffe565b601f198416612fad86612da3565b5f5b82811015612fd457848901518255600182019150602085019450602081019050612faf565b86831015612ff15784890151612fed601f891682612f00565b8355505b6001600288020188555050505b505050505050565b5f6060820190506130195f830186612222565b6130266020830185612222565b81810360408301526130388184612578565b9050949350505050565b7f4d656d62657220616c72656164792072656769737465726564000000000000005f82015250565b5f613076601983612568565b915061308182613042565b602082019050919050565b5f6020820190508181035f8301526130a38161306a565b9050919050565b5f6040820190506130bd5f830185612222565b6130ca6020830184612222565b9392505050565b7f4d656d62657220646f6573206e6f7420657869737400000000000000000000005f82015250565b5f613105601583612568565b9150613110826130d1565b602082019050919050565b5f6020820190508181035f830152613132816130f9565b9050919050565b7f4368616c6c656e676520616c72656164792065786973747320666f72207468695f8201527f73206d656d6265722c20646174652c20616e642067616d650000000000000000602082015250565b5f613193603883612568565b915061319e82613139565b604082019050919050565b5f6020820190508181035f8301526131c081613187565b9050919050565b5f6040820190506131da5f830185612a7e565b6131e76020830184612a7e565b9392505050565b5f815190506131fc816121a8565b92915050565b5f6020828403121561321757613216611fcb565b5b5f613224848285016131ee565b91505092915050565b7f496e73756666696369656e7420746f6b656e20616c6c6f77616e6365000000005f82015250565b5f613261601c83612568565b915061326c8261322d565b602082019050919050565b5f6020820190508181035f83015261328e81613255565b9050919050565b5f6020820190506132a85f830184612a7e565b92915050565b7f496e73756666696369656e7420746f6b656e2062616c616e63650000000000005f82015250565b5f6132e2601a83612568565b91506132ed826132ae565b602082019050919050565b5f6020820190508181035f83015261330f816132d6565b9050919050565b5f6060820190506133295f830186612a7e565b6133366020830185612a7e565b6133436040830184612222565b949350505050565b7f4368616c6c656e676520646f6573206e6f7420657869737400000000000000005f82015250565b5f61337f601883612568565b915061338a8261334b565b602082019050919050565b5f6020820190508181035f8301526133ac81613373565b9050919050565b5f81905092915050565b7f416363657373436f6e74726f6c3a206163636f756e74200000000000000000005f82015250565b5f6133f16017836133b3565b91506133fc826133bd565b601782019050919050565b5f61341182612469565b61341b81856133b3565b935061342b818560208601612483565b80840191505092915050565b7f206973206d697373696e6720726f6c65200000000000000000000000000000005f82015250565b5f61346b6011836133b3565b915061347682613437565b601182019050919050565b5f61348b826133e5565b91506134978285613407565b91506134a28261345f565b91506134ae8284613407565b91508190509392505050565b5f6020820190508181035f8301526134d28184612578565b905092915050565b7f4e487b71000000000000000000000000000000000000000000000000000000005f52601160045260245ffd5b5f6135118261219f565b915061351c8361219f565b925082820261352a8161219f565b91508282048414831517613541576135406134da565b5b5092915050565b5f6135528261219f565b915061355d8361219f565b9250828201905080821115613575576135746134da565b5b92915050565b5f6135858261219f565b91505f8203613597576135966134da565b5b600182039050919050565b7f537472696e67733a20686578206c656e67746820696e73756666696369656e745f82015250565b5f6135d6602083612568565b91506135e1826135a2565b602082019050919050565b5f6020820190508181035f830152613603816135ca565b905091905056fea2646970667358221220286bb5a183763629bda4efd4ccd10414fbcdb38dd3148d9b03d0708fbcb6bcd464736f6c634300081a0033",
					"opcodes": "PUSH1 0x80 PUSH1 0x40 MSTORE CALLVALUE DUP1 ISZERO PUSH2 0xF JUMPI PUSH0 DUP1 REVERT JUMPDEST POP PUSH1 0x40 MLOAD PUSH2 0x3947 CODESIZE SUB DUP1 PUSH2 0x3947 DUP4 CODECOPY DUP2 DUP2 ADD PUSH1 0x40 MSTORE DUP2 ADD SWAP1 PUSH2 0x31 SWAP2 SWAP1 PUSH2 0x2BC JUMP JUMPDEST DUP2 PUSH1 0x1 PUSH0 PUSH2 0x100 EXP DUP2 SLOAD DUP2 PUSH20 0xFFFFFFFFFFFFFFFFFFFFFFFFFFFFFFFFFFFFFFFF MUL NOT AND SWAP1 DUP4 PUSH20 0xFFFFFFFFFFFFFFFFFFFFFFFFFFFFFFFFFFFFFFFF AND MUL OR SWAP1 SSTORE POP DUP1 PUSH1 0x2 PUSH0 PUSH2 0x100 EXP DUP2 SLOAD DUP2 PUSH20 0xFFFFFFFFFFFFFFFFFFFFFFFFFFFFFFFFFFFFFFFF MUL NOT AND SWAP1 DUP4 PUSH20 0xFFFFFFFFFFFFFFFFFFFFFFFFFFFFFFFFFFFFFFFF AND MUL OR SWAP1 SSTORE POP PUSH2 0xC3 PUSH0 DUP1 SHL CALLER PUSH2 0xFA PUSH1 0x20 SHL PUSH1 0x20 SHR JUMP JUMPDEST PUSH2 0xF3 PUSH32 0xA49807205CE4D355092EF5A8A18F56E8913CF4A201FBE287825B095693C21775 CALLER PUSH2 0xFA PUSH1 0x20 SHL PUSH1 0x20 SHR JUMP JUMPDEST POP POP PUSH2 0x2FA JUMP JUMPDEST PUSH2 0x10A DUP3 DUP3 PUSH2 0x10E PUSH1 0x20 SHL PUSH1 0x20 SHR JUMP JUMPDEST POP POP JUMP JUMPDEST PUSH2 0x11E DUP3 DUP3 PUSH2 0x1F4 PUSH1 0x20 SHL PUSH1 0x20 SHR JUMP JUMPDEST PUSH2 0x1F0 JUMPI PUSH1 0x1 PUSH0 DUP1 DUP5 DUP2 MSTORE PUSH1 0x20 ADD SWAP1 DUP2 MSTORE PUSH1 0x20 ADD PUSH0 KECCAK256 PUSH0 ADD PUSH0 DUP4 PUSH20 0xFFFFFFFFFFFFFFFFFFFFFFFFFFFFFFFFFFFFFFFF AND PUSH20 0xFFFFFFFFFFFFFFFFFFFFFFFFFFFFFFFFFFFFFFFF AND DUP2 MSTORE PUSH1 0x20 ADD SWAP1 DUP2 MSTORE PUSH1 0x20 ADD PUSH0 KECCAK256 PUSH0 PUSH2 0x100 EXP DUP2 SLOAD DUP2 PUSH1 0xFF MUL NOT AND SWAP1 DUP4 ISZERO ISZERO MUL OR SWAP1 SSTORE POP PUSH2 0x195 PUSH2 0x257 PUSH1 0x20 SHL PUSH1 0x20 SHR JUMP JUMPDEST PUSH20 0xFFFFFFFFFFFFFFFFFFFFFFFFFFFFFFFFFFFFFFFF AND DUP2 PUSH20 0xFFFFFFFFFFFFFFFFFFFFFFFFFFFFFFFFFFFFFFFF AND DUP4 PUSH32 0x2F8788117E7EFF1D82E926EC794901D17C78024A50270940304540A733656F0D PUSH1 0x40 MLOAD PUSH1 0x40 MLOAD DUP1 SWAP2 SUB SWAP1 LOG4 JUMPDEST POP POP JUMP JUMPDEST PUSH0 DUP1 PUSH0 DUP5 DUP2 MSTORE PUSH1 0x20 ADD SWAP1 DUP2 MSTORE PUSH1 0x20 ADD PUSH0 KECCAK256 PUSH0 ADD PUSH0 DUP4 PUSH20 0xFFFFFFFFFFFFFFFFFFFFFFFFFFFFFFFFFFFFFFFF AND PUSH20 0xFFFFFFFFFFFFFFFFFFFFFFFFFFFFFFFFFFFFFFFF AND DUP2 MSTORE PUSH1 0x20 ADD SWAP1 DUP2 MSTORE PUSH1 0x20 ADD PUSH0 KECCAK256 PUSH0 SWAP1 SLOAD SWAP1 PUSH2 0x100 EXP SWAP1 DIV PUSH1 0xFF AND SWAP1 POP SWAP3 SWAP2 POP POP JUMP JUMPDEST PUSH0 CALLER SWAP1 POP SWAP1 JUMP JUMPDEST PUSH0 DUP1 REVERT JUMPDEST PUSH0 PUSH20 0xFFFFFFFFFFFFFFFFFFFFFFFFFFFFFFFFFFFFFFFF DUP3 AND SWAP1 POP SWAP2 SWAP1 POP JUMP JUMPDEST PUSH0 PUSH2 0x28B DUP3 PUSH2 0x262 JUMP JUMPDEST SWAP1 POP SWAP2 SWAP1 POP JUMP JUMPDEST PUSH2 0x29B DUP2 PUSH2 0x281 JUMP JUMPDEST DUP2 EQ PUSH2 0x2A5 JUMPI PUSH0 DUP1 REVERT JUMPDEST POP JUMP JUMPDEST PUSH0 DUP2 MLOAD SWAP1 POP PUSH2 0x2B6 DUP2 PUSH2 0x292 JUMP JUMPDEST SWAP3 SWAP2 POP POP JUMP JUMPDEST PUSH0 DUP1 PUSH1 0x40 DUP4 DUP6 SUB SLT ISZERO PUSH2 0x2D2 JUMPI PUSH2 0x2D1 PUSH2 0x25E JUMP JUMPDEST JUMPDEST PUSH0 PUSH2 0x2DF DUP6 DUP3 DUP7 ADD PUSH2 0x2A8 JUMP JUMPDEST SWAP3 POP POP PUSH1 0x20 PUSH2 0x2F0 DUP6 DUP3 DUP7 ADD PUSH2 0x2A8 JUMP JUMPDEST SWAP2 POP POP SWAP3 POP SWAP3 SWAP1 POP JUMP JUMPDEST PUSH2 0x3640 DUP1 PUSH2 0x307 PUSH0 CODECOPY PUSH0 RETURN INVALID PUSH1 0x80 PUSH1 0x40 MSTORE CALLVALUE DUP1 ISZERO PUSH2 0xF JUMPI PUSH0 DUP1 REVERT JUMPDEST POP PUSH1 0x4 CALLDATASIZE LT PUSH2 0x1CD JUMPI PUSH0 CALLDATALOAD PUSH1 0xE0 SHR DUP1 PUSH4 0x9A19C7B0 GT PUSH2 0x102 JUMPI DUP1 PUSH4 0xC02725F0 GT PUSH2 0xA0 JUMPI DUP1 PUSH4 0xD547741F GT PUSH2 0x6F JUMPI DUP1 PUSH4 0xD547741F EQ PUSH2 0x53A JUMPI DUP1 PUSH4 0xDD0C8082 EQ PUSH2 0x556 JUMPI DUP1 PUSH4 0xDD7D2B9F EQ PUSH2 0x574 JUMPI DUP1 PUSH4 0xF58EE354 EQ PUSH2 0x590 JUMPI PUSH2 0x1CD JUMP JUMPDEST DUP1 PUSH4 0xC02725F0 EQ PUSH2 0x4CA JUMPI DUP1 PUSH4 0xC634B78E EQ PUSH2 0x4E6 JUMPI DUP1 PUSH4 0xCA1C996F EQ PUSH2 0x502 JUMPI DUP1 PUSH4 0xCBC7854E EQ PUSH2 0x51E JUMPI PUSH2 0x1CD JUMP JUMPDEST DUP1 PUSH4 0xAAC2094A GT PUSH2 0xDC JUMPI DUP1 PUSH4 0xAAC2094A EQ PUSH2 0x432 JUMPI DUP1 PUSH4 0xAE99AA3C EQ PUSH2 0x44E JUMPI DUP1 PUSH4 0xB3558075 EQ PUSH2 0x47E JUMPI DUP1 PUSH4 0xBB10AB0F EQ PUSH2 0x49A JUMPI PUSH2 0x1CD JUMP JUMPDEST DUP1 PUSH4 0x9A19C7B0 EQ PUSH2 0x3DC JUMPI DUP1 PUSH4 0x9B882BB0 EQ PUSH2 0x3F8 JUMPI DUP1 PUSH4 0xA217FDDF EQ PUSH2 0x414 JUMPI PUSH2 0x1CD JUMP JUMPDEST DUP1 PUSH4 0x47E1D550 GT PUSH2 0x16F JUMPI DUP1 PUSH4 0x8164586E GT PUSH2 0x149 JUMPI DUP1 PUSH4 0x8164586E EQ PUSH2 0x358 JUMPI DUP1 PUSH4 0x8525EA16 EQ PUSH2 0x374 JUMPI DUP1 PUSH4 0x89B2C8E7 EQ PUSH2 0x390 JUMPI DUP1 PUSH4 0x91D14854 EQ PUSH2 0x3AC JUMPI PUSH2 0x1CD JUMP JUMPDEST DUP1 PUSH4 0x47E1D550 EQ PUSH2 0x2D7 JUMPI DUP1 PUSH4 0x75B238FC EQ PUSH2 0x307 JUMPI DUP1 PUSH4 0x7D1B4687 EQ PUSH2 0x325 JUMPI PUSH2 0x1CD JUMP JUMPDEST DUP1 PUSH4 0x28B69262 GT PUSH2 0x1AB JUMPI DUP1 PUSH4 0x28B69262 EQ PUSH2 0x24F JUMPI DUP1 PUSH4 0x2F2FF15D EQ PUSH2 0x283 JUMPI DUP1 PUSH4 0x36568ABE EQ PUSH2 0x29F JUMPI DUP1 PUSH4 0x406A378A EQ PUSH2 0x2BB JUMPI PUSH2 0x1CD JUMP JUMPDEST DUP1 PUSH4 0x1FFC9A7 EQ PUSH2 0x1D1 JUMPI DUP1 PUSH4 0x1B72FA3A EQ PUSH2 0x201 JUMPI DUP1 PUSH4 0x248A9CA3 EQ PUSH2 0x21F JUMPI JUMPDEST PUSH0 DUP1 REVERT JUMPDEST PUSH2 0x1EB PUSH1 0x4 DUP1 CALLDATASIZE SUB DUP2 ADD SWAP1 PUSH2 0x1E6 SWAP2 SWAP1 PUSH2 0x2028 JUMP JUMPDEST PUSH2 0x5AC JUMP JUMPDEST PUSH1 0x40 MLOAD PUSH2 0x1F8 SWAP2 SWAP1 PUSH2 0x206D JUMP JUMPDEST PUSH1 0x40 MLOAD DUP1 SWAP2 SUB SWAP1 RETURN JUMPDEST PUSH2 0x209 PUSH2 0x625 JUMP JUMPDEST PUSH1 0x40 MLOAD PUSH2 0x216 SWAP2 SWAP1 PUSH2 0x2100 JUMP JUMPDEST PUSH1 0x40 MLOAD DUP1 SWAP2 SUB SWAP1 RETURN JUMPDEST PUSH2 0x239 PUSH1 0x4 DUP1 CALLDATASIZE SUB DUP2 ADD SWAP1 PUSH2 0x234 SWAP2 SWAP1 PUSH2 0x214C JUMP JUMPDEST PUSH2 0x64A JUMP JUMPDEST PUSH1 0x40 MLOAD PUSH2 0x246 SWAP2 SWAP1 PUSH2 0x2186 JUMP JUMPDEST PUSH1 0x40 MLOAD DUP1 SWAP2 SUB SWAP1 RETURN JUMPDEST PUSH2 0x269 PUSH1 0x4 DUP1 CALLDATASIZE SUB DUP2 ADD SWAP1 PUSH2 0x264 SWAP2 SWAP1 PUSH2 0x21D2 JUMP JUMPDEST PUSH2 0x666 JUMP JUMPDEST PUSH1 0x40 MLOAD PUSH2 0x27A SWAP6 SWAP5 SWAP4 SWAP3 SWAP2 SWAP1 PUSH2 0x2231 JUMP JUMPDEST PUSH1 0x40 MLOAD DUP1 SWAP2 SUB SWAP1 RETURN JUMPDEST PUSH2 0x29D PUSH1 0x4 DUP1 CALLDATASIZE SUB DUP2 ADD SWAP1 PUSH2 0x298 SWAP2 SWAP1 PUSH2 0x22BD JUMP JUMPDEST PUSH2 0x6BA JUMP JUMPDEST STOP JUMPDEST PUSH2 0x2B9 PUSH1 0x4 DUP1 CALLDATASIZE SUB DUP2 ADD SWAP1 PUSH2 0x2B4 SWAP2 SWAP1 PUSH2 0x22BD JUMP JUMPDEST PUSH2 0x6DB JUMP JUMPDEST STOP JUMPDEST PUSH2 0x2D5 PUSH1 0x4 DUP1 CALLDATASIZE SUB DUP2 ADD SWAP1 PUSH2 0x2D0 SWAP2 SWAP1 PUSH2 0x23B1 JUMP JUMPDEST PUSH2 0x75E JUMP JUMPDEST STOP JUMPDEST PUSH2 0x2F1 PUSH1 0x4 DUP1 CALLDATASIZE SUB DUP2 ADD SWAP1 PUSH2 0x2EC SWAP2 SWAP1 PUSH2 0x242F JUMP JUMPDEST PUSH2 0x94A JUMP JUMPDEST PUSH1 0x40 MLOAD PUSH2 0x2FE SWAP2 SWAP1 PUSH2 0x2548 JUMP JUMPDEST PUSH1 0x40 MLOAD DUP1 SWAP2 SUB SWAP1 RETURN JUMPDEST PUSH2 0x30F PUSH2 0xA92 JUMP JUMPDEST PUSH1 0x40 MLOAD PUSH2 0x31C SWAP2 SWAP1 PUSH2 0x2186 JUMP JUMPDEST PUSH1 0x40 MLOAD DUP1 SWAP2 SUB SWAP1 RETURN JUMPDEST PUSH2 0x33F PUSH1 0x4 DUP1 CALLDATASIZE SUB DUP2 ADD SWAP1 PUSH2 0x33A SWAP2 SWAP1 PUSH2 0x242F JUMP JUMPDEST PUSH2 0xAB6 JUMP JUMPDEST PUSH1 0x40 MLOAD PUSH2 0x34F SWAP5 SWAP4 SWAP3 SWAP2 SWAP1 PUSH2 0x25B0 JUMP JUMPDEST PUSH1 0x40 MLOAD DUP1 SWAP2 SUB SWAP1 RETURN JUMPDEST PUSH2 0x372 PUSH1 0x4 DUP1 CALLDATASIZE SUB DUP2 ADD SWAP1 PUSH2 0x36D SWAP2 SWAP1 PUSH2 0x2722 JUMP JUMPDEST PUSH2 0xB74 JUMP JUMPDEST STOP JUMPDEST PUSH2 0x38E PUSH1 0x4 DUP1 CALLDATASIZE SUB DUP2 ADD SWAP1 PUSH2 0x389 SWAP2 SWAP1 PUSH2 0x278E JUMP JUMPDEST PUSH2 0xC5E JUMP JUMPDEST STOP JUMPDEST PUSH2 0x3AA PUSH1 0x4 DUP1 CALLDATASIZE SUB DUP2 ADD SWAP1 PUSH2 0x3A5 SWAP2 SWAP1 PUSH2 0x242F JUMP JUMPDEST PUSH2 0xCC9 JUMP JUMPDEST STOP JUMPDEST PUSH2 0x3C6 PUSH1 0x4 DUP1 CALLDATASIZE SUB DUP2 ADD SWAP1 PUSH2 0x3C1 SWAP2 SWAP1 PUSH2 0x22BD JUMP JUMPDEST PUSH2 0xDC7 JUMP JUMPDEST PUSH1 0x40 MLOAD PUSH2 0x3D3 SWAP2 SWAP1 PUSH2 0x206D JUMP JUMPDEST PUSH1 0x40 MLOAD DUP1 SWAP2 SUB SWAP1 RETURN JUMPDEST PUSH2 0x3F6 PUSH1 0x4 DUP1 CALLDATASIZE SUB DUP2 ADD SWAP1 PUSH2 0x3F1 SWAP2 SWAP1 PUSH2 0x27F2 JUMP JUMPDEST PUSH2 0xE2A JUMP JUMPDEST STOP JUMPDEST PUSH2 0x412 PUSH1 0x4 DUP1 CALLDATASIZE SUB DUP2 ADD SWAP1 PUSH2 0x40D SWAP2 SWAP1 PUSH2 0x281D JUMP JUMPDEST PUSH2 0xE64 JUMP JUMPDEST STOP JUMPDEST PUSH2 0x41C PUSH2 0x1028 JUMP JUMPDEST PUSH1 0x40 MLOAD PUSH2 0x429 SWAP2 SWAP1 PUSH2 0x2186 JUMP JUMPDEST PUSH1 0x40 MLOAD DUP1 SWAP2 SUB SWAP1 RETURN JUMPDEST PUSH2 0x44C PUSH1 0x4 DUP1 CALLDATASIZE SUB DUP2 ADD SWAP1 PUSH2 0x447 SWAP2 SWAP1 PUSH2 0x286D JUMP JUMPDEST PUSH2 0x102E JUMP JUMPDEST STOP JUMPDEST PUSH2 0x468 PUSH1 0x4 DUP1 CALLDATASIZE SUB DUP2 ADD SWAP1 PUSH2 0x463 SWAP2 SWAP1 PUSH2 0x242F JUMP JUMPDEST PUSH2 0x10C0 JUMP JUMPDEST PUSH1 0x40 MLOAD PUSH2 0x475 SWAP2 SWAP1 PUSH2 0x28C5 JUMP JUMPDEST PUSH1 0x40 MLOAD DUP1 SWAP2 SUB SWAP1 RETURN JUMPDEST PUSH2 0x498 PUSH1 0x4 DUP1 CALLDATASIZE SUB DUP2 ADD SWAP1 PUSH2 0x493 SWAP2 SWAP1 PUSH2 0x2722 JUMP JUMPDEST PUSH2 0x1149 JUMP JUMPDEST STOP JUMPDEST PUSH2 0x4B4 PUSH1 0x4 DUP1 CALLDATASIZE SUB DUP2 ADD SWAP1 PUSH2 0x4AF SWAP2 SWAP1 PUSH2 0x242F JUMP JUMPDEST PUSH2 0x124C JUMP JUMPDEST PUSH1 0x40 MLOAD PUSH2 0x4C1 SWAP2 SWAP1 PUSH2 0x28DE JUMP JUMPDEST PUSH1 0x40 MLOAD DUP1 SWAP2 SUB SWAP1 RETURN JUMPDEST PUSH2 0x4E4 PUSH1 0x4 DUP1 CALLDATASIZE SUB DUP2 ADD SWAP1 PUSH2 0x4DF SWAP2 SWAP1 PUSH2 0x286D JUMP JUMPDEST PUSH2 0x1266 JUMP JUMPDEST STOP JUMPDEST PUSH2 0x500 PUSH1 0x4 DUP1 CALLDATASIZE SUB DUP2 ADD SWAP1 PUSH2 0x4FB SWAP2 SWAP1 PUSH2 0x27F2 JUMP JUMPDEST PUSH2 0x12F8 JUMP JUMPDEST STOP JUMPDEST PUSH2 0x51C PUSH1 0x4 DUP1 CALLDATASIZE SUB DUP2 ADD SWAP1 PUSH2 0x517 SWAP2 SWAP1 PUSH2 0x278E JUMP JUMPDEST PUSH2 0x1332 JUMP JUMPDEST STOP JUMPDEST PUSH2 0x538 PUSH1 0x4 DUP1 CALLDATASIZE SUB DUP2 ADD SWAP1 PUSH2 0x533 SWAP2 SWAP1 PUSH2 0x28F7 JUMP JUMPDEST PUSH2 0x1731 JUMP JUMPDEST STOP JUMPDEST PUSH2 0x554 PUSH1 0x4 DUP1 CALLDATASIZE SUB DUP2 ADD SWAP1 PUSH2 0x54F SWAP2 SWAP1 PUSH2 0x22BD JUMP JUMPDEST PUSH2 0x17E0 JUMP JUMPDEST STOP JUMPDEST PUSH2 0x55E PUSH2 0x1801 JUMP JUMPDEST PUSH1 0x40 MLOAD PUSH2 0x56B SWAP2 SWAP1 PUSH2 0x2100 JUMP JUMPDEST PUSH1 0x40 MLOAD DUP1 SWAP2 SUB SWAP1 RETURN JUMPDEST PUSH2 0x58E PUSH1 0x4 DUP1 CALLDATASIZE SUB DUP2 ADD SWAP1 PUSH2 0x589 SWAP2 SWAP1 PUSH2 0x278E JUMP JUMPDEST PUSH2 0x1826 JUMP JUMPDEST STOP JUMPDEST PUSH2 0x5AA PUSH1 0x4 DUP1 CALLDATASIZE SUB DUP2 ADD SWAP1 PUSH2 0x5A5 SWAP2 SWAP1 PUSH2 0x286D JUMP JUMPDEST PUSH2 0x1981 JUMP JUMPDEST STOP JUMPDEST PUSH0 PUSH32 0x7965DB0B00000000000000000000000000000000000000000000000000000000 PUSH28 0xFFFFFFFFFFFFFFFFFFFFFFFFFFFFFFFFFFFFFFFFFFFFFFFFFFFFFFFF NOT AND DUP3 PUSH28 0xFFFFFFFFFFFFFFFFFFFFFFFFFFFFFFFFFFFFFFFFFFFFFFFFFFFFFFFF NOT AND EQ DUP1 PUSH2 0x61E JUMPI POP PUSH2 0x61D DUP3 PUSH2 0x1A13 JUMP JUMPDEST JUMPDEST SWAP1 POP SWAP2 SWAP1 POP JUMP JUMPDEST PUSH1 0x2 PUSH0 SWAP1 SLOAD SWAP1 PUSH2 0x100 EXP SWAP1 DIV PUSH20 0xFFFFFFFFFFFFFFFFFFFFFFFFFFFFFFFFFFFFFFFF AND DUP2 JUMP JUMPDEST PUSH0 DUP1 PUSH0 DUP4 DUP2 MSTORE PUSH1 0x20 ADD SWAP1 DUP2 MSTORE PUSH1 0x20 ADD PUSH0 KECCAK256 PUSH1 0x1 ADD SLOAD SWAP1 POP SWAP2 SWAP1 POP JUMP JUMPDEST PUSH1 0x3 PUSH1 0x20 MSTORE DUP3 PUSH0 MSTORE PUSH1 0x40 PUSH0 KECCAK256 PUSH1 0x20 MSTORE DUP2 PUSH0 MSTORE PUSH1 0x40 PUSH0 KECCAK256 PUSH1 0x20 MSTORE DUP1 PUSH0 MSTORE PUSH1 0x40 PUSH0 KECCAK256 PUSH0 SWAP3 POP SWAP3 POP POP POP DUP1 PUSH0 ADD SLOAD SWAP1 DUP1 PUSH1 0x1 ADD SLOAD SWAP1 DUP1 PUSH1 0x2 ADD SLOAD SWAP1 DUP1 PUSH1 0x3 ADD SLOAD SWAP1 DUP1 PUSH1 0x4 ADD PUSH0 SWAP1 SLOAD SWAP1 PUSH2 0x100 EXP SWAP1 DIV PUSH1 0xFF AND SWAP1 POP DUP6 JUMP JUMPDEST PUSH2 0x6C3 DUP3 PUSH2 0x64A JUMP JUMPDEST PUSH2 0x6CC DUP2 PUSH2 0x1A7C JUMP JUMPDEST PUSH2 0x6D6 DUP4 DUP4 PUSH2 0x1A90 JUMP JUMPDEST POP POP POP JUMP JUMPDEST PUSH2 0x6E3 PUSH2 0x1B6A JUMP JUMPDEST PUSH20 0xFFFFFFFFFFFFFFFFFFFFFFFFFFFFFFFFFFFFFFFF AND DUP2 PUSH20 0xFFFFFFFFFFFFFFFFFFFFFFFFFFFFFFFFFFFFFFFF AND EQ PUSH2 0x750 JUMPI PUSH1 0x40 MLOAD PUSH32 0x8C379A000000000000000000000000000000000000000000000000000000000 DUP2 MSTORE PUSH1 0x4 ADD PUSH2 0x747 SWAP1 PUSH2 0x29A5 JUMP JUMPDEST PUSH1 0x40 MLOAD DUP1 SWAP2 SUB SWAP1 REVERT JUMPDEST PUSH2 0x75A DUP3 DUP3 PUSH2 0x1B71 JUMP JUMPDEST POP POP JUMP JUMPDEST PUSH32 0xA49807205CE4D355092EF5A8A18F56E8913CF4A201FBE287825B095693C21775 PUSH2 0x788 DUP2 PUSH2 0x1A7C JUMP JUMPDEST DUP3 DUP3 SWAP1 POP DUP6 DUP6 SWAP1 POP EQ PUSH2 0x7D0 JUMPI PUSH1 0x40 MLOAD PUSH32 0x8C379A000000000000000000000000000000000000000000000000000000000 DUP2 MSTORE PUSH1 0x4 ADD PUSH2 0x7C7 SWAP1 PUSH2 0x2A33 JUMP JUMPDEST PUSH1 0x40 MLOAD DUP1 SWAP2 SUB SWAP1 REVERT JUMPDEST PUSH0 JUMPDEST DUP6 DUP6 SWAP1 POP DUP2 LT ISZERO PUSH2 0x905 JUMPI PUSH1 0x2 PUSH0 SWAP1 SLOAD SWAP1 PUSH2 0x100 EXP SWAP1 DIV PUSH20 0xFFFFFFFFFFFFFFFFFFFFFFFFFFFFFFFFFFFFFFFF AND PUSH20 0xFFFFFFFFFFFFFFFFFFFFFFFFFFFFFFFFFFFFFFFF AND PUSH4 0xA9059CBB DUP8 DUP8 DUP5 DUP2 DUP2 LT PUSH2 0x82D JUMPI PUSH2 0x82C PUSH2 0x2A51 JUMP JUMPDEST JUMPDEST SWAP1 POP PUSH1 0x20 MUL ADD PUSH1 0x20 DUP2 ADD SWAP1 PUSH2 0x842 SWAP2 SWAP1 PUSH2 0x27F2 JUMP JUMPDEST DUP7 DUP7 DUP6 DUP2 DUP2 LT PUSH2 0x855 JUMPI PUSH2 0x854 PUSH2 0x2A51 JUMP JUMPDEST JUMPDEST SWAP1 POP PUSH1 0x20 MUL ADD CALLDATALOAD PUSH1 0x40 MLOAD DUP4 PUSH4 0xFFFFFFFF AND PUSH1 0xE0 SHL DUP2 MSTORE PUSH1 0x4 ADD PUSH2 0x879 SWAP3 SWAP2 SWAP1 PUSH2 0x2A8D JUMP JUMPDEST PUSH1 0x20 PUSH1 0x40 MLOAD DUP1 DUP4 SUB DUP2 PUSH0 DUP8 GAS CALL ISZERO DUP1 ISZERO PUSH2 0x895 JUMPI RETURNDATASIZE PUSH0 DUP1 RETURNDATACOPY RETURNDATASIZE PUSH0 REVERT JUMPDEST POP POP POP POP PUSH1 0x40 MLOAD RETURNDATASIZE PUSH1 0x1F NOT PUSH1 0x1F DUP3 ADD AND DUP3 ADD DUP1 PUSH1 0x40 MSTORE POP DUP2 ADD SWAP1 PUSH2 0x8B9 SWAP2 SWAP1 PUSH2 0x2ADE JUMP JUMPDEST PUSH2 0x8F8 JUMPI PUSH1 0x40 MLOAD PUSH32 0x8C379A000000000000000000000000000000000000000000000000000000000 DUP2 MSTORE PUSH1 0x4 ADD PUSH2 0x8EF SWAP1 PUSH2 0x2B53 JUMP JUMPDEST PUSH1 0x40 MLOAD DUP1 SWAP2 SUB SWAP1 REVERT JUMPDEST DUP1 DUP1 PUSH1 0x1 ADD SWAP2 POP POP PUSH2 0x7D2 JUMP JUMPDEST POP PUSH32 0xFA3B7284ECB3A03E8F238B69B61F5645294C15019EA509BD4AAEE604D60FDC34 DUP6 DUP6 DUP6 DUP6 PUSH1 0x40 MLOAD PUSH2 0x93B SWAP5 SWAP4 SWAP3 SWAP2 SWAP1 PUSH2 0x2CA5 JUMP JUMPDEST PUSH1 0x40 MLOAD DUP1 SWAP2 SUB SWAP1 LOG1 POP POP POP POP POP JUMP JUMPDEST PUSH2 0x952 PUSH2 0x1F31 JUMP JUMPDEST PUSH1 0x4 PUSH0 DUP4 DUP2 MSTORE PUSH1 0x20 ADD SWAP1 DUP2 MSTORE PUSH1 0x20 ADD PUSH0 KECCAK256 PUSH1 0x3 ADD PUSH0 SWAP1 SLOAD SWAP1 PUSH2 0x100 EXP SWAP1 DIV PUSH1 0xFF AND PUSH2 0x9B2 JUMPI PUSH1 0x40 MLOAD PUSH32 0x8C379A000000000000000000000000000000000000000000000000000000000 DUP2 MSTORE PUSH1 0x4 ADD PUSH2 0x9A9 SWAP1 PUSH2 0x2D28 JUMP JUMPDEST PUSH1 0x40 MLOAD DUP1 SWAP2 SUB SWAP1 REVERT JUMPDEST PUSH1 0x4 PUSH0 DUP4 DUP2 MSTORE PUSH1 0x20 ADD SWAP1 DUP2 MSTORE PUSH1 0x20 ADD PUSH0 KECCAK256 PUSH1 0x40 MLOAD DUP1 PUSH1 0x80 ADD PUSH1 0x40 MSTORE SWAP1 DUP2 PUSH0 DUP3 ADD SLOAD DUP2 MSTORE PUSH1 0x20 ADD PUSH1 0x1 DUP3 ADD SLOAD DUP2 MSTORE PUSH1 0x20 ADD PUSH1 0x2 DUP3 ADD DUP1 SLOAD PUSH2 0x9F1 SWAP1 PUSH2 0x2D73 JUMP JUMPDEST DUP1 PUSH1 0x1F ADD PUSH1 0x20 DUP1 SWAP2 DIV MUL PUSH1 0x20 ADD PUSH1 0x40 MLOAD SWAP1 DUP2 ADD PUSH1 0x40 MSTORE DUP1 SWAP3 SWAP2 SWAP1 DUP2 DUP2 MSTORE PUSH1 0x20 ADD DUP3 DUP1 SLOAD PUSH2 0xA1D SWAP1 PUSH2 0x2D73 JUMP JUMPDEST DUP1 ISZERO PUSH2 0xA68 JUMPI DUP1 PUSH1 0x1F LT PUSH2 0xA3F JUMPI PUSH2 0x100 DUP1 DUP4 SLOAD DIV MUL DUP4 MSTORE SWAP2 PUSH1 0x20 ADD SWAP2 PUSH2 0xA68 JUMP JUMPDEST DUP3 ADD SWAP2 SWAP1 PUSH0 MSTORE PUSH1 0x20 PUSH0 KECCAK256 SWAP1 JUMPDEST DUP2 SLOAD DUP2 MSTORE SWAP1 PUSH1 0x1 ADD SWAP1 PUSH1 0x20 ADD DUP1 DUP4 GT PUSH2 0xA4B JUMPI DUP3 SWAP1 SUB PUSH1 0x1F AND DUP3 ADD SWAP2 JUMPDEST POP POP POP POP POP DUP2 MSTORE PUSH1 0x20 ADD PUSH1 0x3 DUP3 ADD PUSH0 SWAP1 SLOAD SWAP1 PUSH2 0x100 EXP SWAP1 DIV PUSH1 0xFF AND ISZERO ISZERO ISZERO ISZERO DUP2 MSTORE POP POP SWAP1 POP SWAP2 SWAP1 POP JUMP JUMPDEST PUSH32 0xA49807205CE4D355092EF5A8A18F56E8913CF4A201FBE287825B095693C21775 DUP2 JUMP JUMPDEST PUSH1 0x4 PUSH1 0x20 MSTORE DUP1 PUSH0 MSTORE PUSH1 0x40 PUSH0 KECCAK256 PUSH0 SWAP2 POP SWAP1 POP DUP1 PUSH0 ADD SLOAD SWAP1 DUP1 PUSH1 0x1 ADD SLOAD SWAP1 DUP1 PUSH1 0x2 ADD DUP1 SLOAD PUSH2 0xAE1 SWAP1 PUSH2 0x2D73 JUMP JUMPDEST DUP1 PUSH1 0x1F ADD PUSH1 0x20 DUP1 SWAP2 DIV MUL PUSH1 0x20 ADD PUSH1 0x40 MLOAD SWAP1 DUP2 ADD PUSH1 0x40 MSTORE DUP1 SWAP3 SWAP2 SWAP1 DUP2 DUP2 MSTORE PUSH1 0x20 ADD DUP3 DUP1 SLOAD PUSH2 0xB0D SWAP1 PUSH2 0x2D73 JUMP JUMPDEST DUP1 ISZERO PUSH2 0xB58 JUMPI DUP1 PUSH1 0x1F LT PUSH2 0xB2F JUMPI PUSH2 0x100 DUP1 DUP4 SLOAD DIV MUL DUP4 MSTORE SWAP2 PUSH1 0x20 ADD SWAP2 PUSH2 0xB58 JUMP JUMPDEST DUP3 ADD SWAP2 SWAP1 PUSH0 MSTORE PUSH1 0x20 PUSH0 KECCAK256 SWAP1 JUMPDEST DUP2 SLOAD DUP2 MSTORE SWAP1 PUSH1 0x1 ADD SWAP1 PUSH1 0x20 ADD DUP1 DUP4 GT PUSH2 0xB3B JUMPI DUP3 SWAP1 SUB PUSH1 0x1F AND DUP3 ADD SWAP2 JUMPDEST POP POP POP POP POP SWAP1 DUP1 PUSH1 0x3 ADD PUSH0 SWAP1 SLOAD SWAP1 PUSH2 0x100 EXP SWAP1 DIV PUSH1 0xFF AND SWAP1 POP DUP5 JUMP JUMPDEST PUSH32 0xA49807205CE4D355092EF5A8A18F56E8913CF4A201FBE287825B095693C21775 PUSH2 0xB9E DUP2 PUSH2 0x1A7C JUMP JUMPDEST PUSH1 0x40 MLOAD DUP1 PUSH1 0x80 ADD PUSH1 0x40 MSTORE DUP1 DUP6 DUP2 MSTORE PUSH1 0x20 ADD DUP5 DUP2 MSTORE PUSH1 0x20 ADD DUP4 DUP2 MSTORE PUSH1 0x20 ADD PUSH1 0x1 ISZERO ISZERO DUP2 MSTORE POP PUSH1 0x4 PUSH0 DUP6 DUP2 MSTORE PUSH1 0x20 ADD SWAP1 DUP2 MSTORE PUSH1 0x20 ADD PUSH0 KECCAK256 PUSH0 DUP3 ADD MLOAD DUP2 PUSH0 ADD SSTORE PUSH1 0x20 DUP3 ADD MLOAD DUP2 PUSH1 0x1 ADD SSTORE PUSH1 0x40 DUP3 ADD MLOAD DUP2 PUSH1 0x2 ADD SWAP1 DUP2 PUSH2 0xBFA SWAP2 SWAP1 PUSH2 0x2F37 JUMP JUMPDEST POP PUSH1 0x60 DUP3 ADD MLOAD DUP2 PUSH1 0x3 ADD PUSH0 PUSH2 0x100 EXP DUP2 SLOAD DUP2 PUSH1 0xFF MUL NOT AND SWAP1 DUP4 ISZERO ISZERO MUL OR SWAP1 SSTORE POP SWAP1 POP POP PUSH32 0xD8E2CD0473B83461E66F336B5655C077DBD1203E041AD68B1D6F2C4C5EC2593D DUP5 DUP5 DUP5 PUSH1 0x40 MLOAD PUSH2 0xC50 SWAP4 SWAP3 SWAP2 SWAP1 PUSH2 0x3006 JUMP JUMPDEST PUSH1 0x40 MLOAD DUP1 SWAP2 SUB SWAP1 LOG1 POP POP POP POP JUMP JUMPDEST PUSH32 0xA49807205CE4D355092EF5A8A18F56E8913CF4A201FBE287825B095693C21775 PUSH2 0xC88 DUP2 PUSH2 0x1A7C JUMP JUMPDEST DUP3 DUP5 DUP7 PUSH32 0xA8F9CF476E5BCC627F5ED22B5BA54BD7FFF333CD851BC754D924FE3EB28752FB DUP6 PUSH1 0x40 MLOAD PUSH2 0xCBA SWAP2 SWAP1 PUSH2 0x28DE JUMP JUMPDEST PUSH1 0x40 MLOAD DUP1 SWAP2 SUB SWAP1 LOG4 POP POP POP POP POP JUMP JUMPDEST PUSH32 0xA49807205CE4D355092EF5A8A18F56E8913CF4A201FBE287825B095693C21775 PUSH2 0xCF3 DUP2 PUSH2 0x1A7C JUMP JUMPDEST PUSH1 0x4 PUSH0 DUP4 DUP2 MSTORE PUSH1 0x20 ADD SWAP1 DUP2 MSTORE PUSH1 0x20 ADD PUSH0 KECCAK256 PUSH1 0x3 ADD PUSH0 SWAP1 SLOAD SWAP1 PUSH2 0x100 EXP SWAP1 DIV PUSH1 0xFF AND PUSH2 0xD53 JUMPI PUSH1 0x40 MLOAD PUSH32 0x8C379A000000000000000000000000000000000000000000000000000000000 DUP2 MSTORE PUSH1 0x4 ADD PUSH2 0xD4A SWAP1 PUSH2 0x2D28 JUMP JUMPDEST PUSH1 0x40 MLOAD DUP1 SWAP2 SUB SWAP1 REVERT JUMPDEST PUSH1 0x4 PUSH0 DUP4 DUP2 MSTORE PUSH1 0x20 ADD SWAP1 DUP2 MSTORE PUSH1 0x20 ADD PUSH0 KECCAK256 PUSH0 DUP1 DUP3 ADD PUSH0 SWAP1 SSTORE PUSH1 0x1 DUP3 ADD PUSH0 SWAP1 SSTORE PUSH1 0x2 DUP3 ADD PUSH0 PUSH2 0xD81 SWAP2 SWAP1 PUSH2 0x1F58 JUMP JUMPDEST PUSH1 0x3 DUP3 ADD PUSH0 PUSH2 0x100 EXP DUP2 SLOAD SWAP1 PUSH1 0xFF MUL NOT AND SWAP1 SSTORE POP POP DUP2 PUSH32 0x5EF6221CC1C069A8C723210C08D526C7CA88540EE8D66470CF01844EFAAE0B94 PUSH1 0x40 MLOAD PUSH1 0x40 MLOAD DUP1 SWAP2 SUB SWAP1 LOG2 POP POP JUMP JUMPDEST PUSH0 DUP1 PUSH0 DUP5 DUP2 MSTORE PUSH1 0x20 ADD SWAP1 DUP2 MSTORE PUSH1 0x20 ADD PUSH0 KECCAK256 PUSH0 ADD PUSH0 DUP4 PUSH20 0xFFFFFFFFFFFFFFFFFFFFFFFFFFFFFFFFFFFFFFFF AND PUSH20 0xFFFFFFFFFFFFFFFFFFFFFFFFFFFFFFFFFFFFFFFF AND DUP2 MSTORE PUSH1 0x20 ADD SWAP1 DUP2 MSTORE PUSH1 0x20 ADD PUSH0 KECCAK256 PUSH0 SWAP1 SLOAD SWAP1 PUSH2 0x100 EXP SWAP1 DIV PUSH1 0xFF AND SWAP1 POP SWAP3 SWAP2 POP POP JUMP JUMPDEST PUSH0 DUP1 SHL PUSH2 0xE36 DUP2 PUSH2 0x1A7C JUMP JUMPDEST PUSH2 0xE60 PUSH32 0xA49807205CE4D355092EF5A8A18F56E8913CF4A201FBE287825B095693C21775 DUP4 PUSH2 0x17E0 JUMP JUMPDEST POP POP JUMP JUMPDEST PUSH32 0xA49807205CE4D355092EF5A8A18F56E8913CF4A201FBE287825B095693C21775 PUSH2 0xE8E DUP2 PUSH2 0x1A7C JUMP JUMPDEST PUSH0 PUSH1 0x5 PUSH0 DUP7 DUP2 MSTORE PUSH1 0x20 ADD SWAP1 DUP2 MSTORE PUSH1 0x20 ADD PUSH0 KECCAK256 PUSH0 ADD SLOAD EQ PUSH2 0xEE3 JUMPI PUSH1 0x40 MLOAD PUSH32 0x8C379A000000000000000000000000000000000000000000000000000000000 DUP2 MSTORE PUSH1 0x4 ADD PUSH2 0xEDA SWAP1 PUSH2 0x308C JUMP JUMPDEST PUSH1 0x40 MLOAD DUP1 SWAP2 SUB SWAP1 REVERT JUMPDEST PUSH1 0x40 MLOAD DUP1 PUSH1 0x20 ADD PUSH1 0x40 MSTORE DUP1 DUP6 DUP2 MSTORE POP PUSH1 0x5 PUSH0 DUP7 DUP2 MSTORE PUSH1 0x20 ADD SWAP1 DUP2 MSTORE PUSH1 0x20 ADD PUSH0 KECCAK256 PUSH0 DUP3 ADD MLOAD DUP2 PUSH0 ADD SSTORE SWAP1 POP POP PUSH1 0x1 PUSH0 SWAP1 SLOAD SWAP1 PUSH2 0x100 EXP SWAP1 DIV PUSH20 0xFFFFFFFFFFFFFFFFFFFFFFFFFFFFFFFFFFFFFFFF AND PUSH20 0xFFFFFFFFFFFFFFFFFFFFFFFFFFFFFFFFFFFFFFFF AND PUSH4 0xA9059CBB DUP5 DUP5 PUSH1 0x40 MLOAD DUP4 PUSH4 0xFFFFFFFF AND PUSH1 0xE0 SHL DUP2 MSTORE PUSH1 0x4 ADD PUSH2 0xF6A SWAP3 SWAP2 SWAP1 PUSH2 0x2A8D JUMP JUMPDEST PUSH1 0x20 PUSH1 0x40 MLOAD DUP1 DUP4 SUB DUP2 PUSH0 DUP8 GAS CALL ISZERO DUP1 ISZERO PUSH2 0xF86 JUMPI RETURNDATASIZE PUSH0 DUP1 RETURNDATACOPY RETURNDATASIZE PUSH0 REVERT JUMPDEST POP POP POP POP PUSH1 0x40 MLOAD RETURNDATASIZE PUSH1 0x1F NOT PUSH1 0x1F DUP3 ADD AND DUP3 ADD DUP1 PUSH1 0x40 MSTORE POP DUP2 ADD SWAP1 PUSH2 0xFAA SWAP2 SWAP1 PUSH2 0x2ADE JUMP JUMPDEST PUSH2 0xFE9 JUMPI PUSH1 0x40 MLOAD PUSH32 0x8C379A000000000000000000000000000000000000000000000000000000000 DUP2 MSTORE PUSH1 0x4 ADD PUSH2 0xFE0 SWAP1 PUSH2 0x2B53 JUMP JUMPDEST PUSH1 0x40 MLOAD DUP1 SWAP2 SUB SWAP1 REVERT JUMPDEST PUSH32 0x5A92C2530F207992057B9C3E544108FFCE3BEDA4A63719F316967C49BF6159D2 DUP5 DUP4 PUSH1 0x40 MLOAD PUSH2 0x101A SWAP3 SWAP2 SWAP1 PUSH2 0x30AA JUMP JUMPDEST PUSH1 0x40 MLOAD DUP1 SWAP2 SUB SWAP1 LOG1 POP POP POP POP JUMP JUMPDEST PUSH0 DUP1 SHL DUP2 JUMP JUMPDEST PUSH1 0x4 PUSH0 DUP4 DUP2 MSTORE PUSH1 0x20 ADD SWAP1 DUP2 MSTORE PUSH1 0x20 ADD PUSH0 KECCAK256 PUSH1 0x3 ADD PUSH0 SWAP1 SLOAD SWAP1 PUSH2 0x100 EXP SWAP1 DIV PUSH1 0xFF AND PUSH2 0x108E JUMPI PUSH1 0x40 MLOAD PUSH32 0x8C379A000000000000000000000000000000000000000000000000000000000 DUP2 MSTORE PUSH1 0x4 ADD PUSH2 0x1085 SWAP1 PUSH2 0x2D28 JUMP JUMPDEST PUSH1 0x40 MLOAD DUP1 SWAP2 SUB SWAP1 REVERT JUMPDEST DUP1 DUP3 PUSH32 0x4C4660DB760944215F41E957066D756AD5FD0EED1B4640632322EB06F77B034D PUSH1 0x40 MLOAD PUSH1 0x40 MLOAD DUP1 SWAP2 SUB SWAP1 LOG3 POP POP JUMP JUMPDEST PUSH2 0x10C8 PUSH2 0x1F95 JUMP JUMPDEST PUSH0 PUSH1 0x5 PUSH0 DUP5 DUP2 MSTORE PUSH1 0x20 ADD SWAP1 DUP2 MSTORE PUSH1 0x20 ADD PUSH0 KECCAK256 PUSH0 ADD SLOAD GT PUSH2 0x111D JUMPI PUSH1 0x40 MLOAD PUSH32 0x8C379A000000000000000000000000000000000000000000000000000000000 DUP2 MSTORE PUSH1 0x4 ADD PUSH2 0x1114 SWAP1 PUSH2 0x311B JUMP JUMPDEST PUSH1 0x40 MLOAD DUP1 SWAP2 SUB SWAP1 REVERT JUMPDEST PUSH1 0x5 PUSH0 DUP4 DUP2 MSTORE PUSH1 0x20 ADD SWAP1 DUP2 MSTORE PUSH1 0x20 ADD PUSH0 KECCAK256 PUSH1 0x40 MLOAD DUP1 PUSH1 0x20 ADD PUSH1 0x40 MSTORE SWAP1 DUP2 PUSH0 DUP3 ADD SLOAD DUP2 MSTORE POP POP SWAP1 POP SWAP2 SWAP1 POP JUMP JUMPDEST PUSH32 0xA49807205CE4D355092EF5A8A18F56E8913CF4A201FBE287825B095693C21775 PUSH2 0x1173 DUP2 PUSH2 0x1A7C JUMP JUMPDEST PUSH1 0x4 PUSH0 DUP5 DUP2 MSTORE PUSH1 0x20 ADD SWAP1 DUP2 MSTORE PUSH1 0x20 ADD PUSH0 KECCAK256 PUSH1 0x3 ADD PUSH0 SWAP1 SLOAD SWAP1 PUSH2 0x100 EXP SWAP1 DIV PUSH1 0xFF AND PUSH2 0x11D3 JUMPI PUSH1 0x40 MLOAD PUSH32 0x8C379A000000000000000000000000000000000000000000000000000000000 DUP2 MSTORE PUSH1 0x4 ADD PUSH2 0x11CA SWAP1 PUSH2 0x2D28 JUMP JUMPDEST PUSH1 0x40 MLOAD DUP1 SWAP2 SUB SWAP1 REVERT JUMPDEST PUSH0 PUSH1 0x4 PUSH0 DUP6 DUP2 MSTORE PUSH1 0x20 ADD SWAP1 DUP2 MSTORE PUSH1 0x20 ADD PUSH0 KECCAK256 SWAP1 POP DUP5 DUP2 PUSH0 ADD DUP2 SWAP1 SSTORE POP DUP4 DUP2 PUSH1 0x1 ADD DUP2 SWAP1 SSTORE POP DUP3 DUP2 PUSH1 0x2 ADD SWAP1 DUP2 PUSH2 0x1209 SWAP2 SWAP1 PUSH2 0x2F37 JUMP JUMPDEST POP PUSH32 0x279760C089DCAF505489FFFB102C4BF947FB1847E8A7FEBD514BD92FFE977BC2 DUP6 DUP6 DUP6 PUSH1 0x40 MLOAD PUSH2 0x123D SWAP4 SWAP3 SWAP2 SWAP1 PUSH2 0x3006 JUMP JUMPDEST PUSH1 0x40 MLOAD DUP1 SWAP2 SUB SWAP1 LOG1 POP POP POP POP POP JUMP JUMPDEST PUSH1 0x5 PUSH1 0x20 MSTORE DUP1 PUSH0 MSTORE PUSH1 0x40 PUSH0 KECCAK256 PUSH0 SWAP2 POP SWAP1 POP DUP1 PUSH0 ADD SLOAD SWAP1 POP DUP2 JUMP JUMPDEST PUSH1 0x4 PUSH0 DUP4 DUP2 MSTORE PUSH1 0x20 ADD SWAP1 DUP2 MSTORE PUSH1 0x20 ADD PUSH0 KECCAK256 PUSH1 0x3 ADD PUSH0 SWAP1 SLOAD SWAP1 PUSH2 0x100 EXP SWAP1 DIV PUSH1 0xFF AND PUSH2 0x12C6 JUMPI PUSH1 0x40 MLOAD PUSH32 0x8C379A000000000000000000000000000000000000000000000000000000000 DUP2 MSTORE PUSH1 0x4 ADD PUSH2 0x12BD SWAP1 PUSH2 0x2D28 JUMP JUMPDEST PUSH1 0x40 MLOAD DUP1 SWAP2 SUB SWAP1 REVERT JUMPDEST DUP1 DUP3 PUSH32 0xCCCCA5C37CD734D94742D46E24D5FCDC3E6EF8DD90DDA510DAE0E35530ADD4A2 PUSH1 0x40 MLOAD PUSH1 0x40 MLOAD DUP1 SWAP2 SUB SWAP1 LOG3 POP POP JUMP JUMPDEST PUSH0 DUP1 SHL PUSH2 0x1304 DUP2 PUSH2 0x1A7C JUMP JUMPDEST PUSH2 0x132E PUSH32 0xA49807205CE4D355092EF5A8A18F56E8913CF4A201FBE287825B095693C21775 DUP4 PUSH2 0x6BA JUMP JUMPDEST POP POP JUMP JUMPDEST PUSH1 0x3 PUSH0 DUP6 DUP2 MSTORE PUSH1 0x20 ADD SWAP1 DUP2 MSTORE PUSH1 0x20 ADD PUSH0 KECCAK256 PUSH0 DUP5 DUP2 MSTORE PUSH1 0x20 ADD SWAP1 DUP2 MSTORE PUSH1 0x20 ADD PUSH0 KECCAK256 PUSH0 DUP4 DUP2 MSTORE PUSH1 0x20 ADD SWAP1 DUP2 MSTORE PUSH1 0x20 ADD PUSH0 KECCAK256 PUSH1 0x4 ADD PUSH0 SWAP1 SLOAD SWAP1 PUSH2 0x100 EXP SWAP1 DIV PUSH1 0xFF AND ISZERO PUSH2 0x13B1 JUMPI PUSH1 0x40 MLOAD PUSH32 0x8C379A000000000000000000000000000000000000000000000000000000000 DUP2 MSTORE PUSH1 0x4 ADD PUSH2 0x13A8 SWAP1 PUSH2 0x31A9 JUMP JUMPDEST PUSH1 0x40 MLOAD DUP1 SWAP2 SUB SWAP1 REVERT JUMPDEST PUSH0 PUSH1 0x1 PUSH0 SWAP1 SLOAD SWAP1 PUSH2 0x100 EXP SWAP1 DIV PUSH20 0xFFFFFFFFFFFFFFFFFFFFFFFFFFFFFFFFFFFFFFFF AND PUSH20 0xFFFFFFFFFFFFFFFFFFFFFFFFFFFFFFFFFFFFFFFF AND PUSH4 0xDD62ED3E CALLER ADDRESS PUSH1 0x40 MLOAD DUP4 PUSH4 0xFFFFFFFF AND PUSH1 0xE0 SHL DUP2 MSTORE PUSH1 0x4 ADD PUSH2 0x140E SWAP3 SWAP2 SWAP1 PUSH2 0x31C7 JUMP JUMPDEST PUSH1 0x20 PUSH1 0x40 MLOAD DUP1 DUP4 SUB DUP2 DUP7 GAS STATICCALL ISZERO DUP1 ISZERO PUSH2 0x1429 JUMPI RETURNDATASIZE PUSH0 DUP1 RETURNDATACOPY RETURNDATASIZE PUSH0 REVERT JUMPDEST POP POP POP POP PUSH1 0x40 MLOAD RETURNDATASIZE PUSH1 0x1F NOT PUSH1 0x1F DUP3 ADD AND DUP3 ADD DUP1 PUSH1 0x40 MSTORE POP DUP2 ADD SWAP1 PUSH2 0x144D SWAP2 SWAP1 PUSH2 0x3202 JUMP JUMPDEST SWAP1 POP DUP2 DUP2 LT ISZERO PUSH2 0x1492 JUMPI PUSH1 0x40 MLOAD PUSH32 0x8C379A000000000000000000000000000000000000000000000000000000000 DUP2 MSTORE PUSH1 0x4 ADD PUSH2 0x1489 SWAP1 PUSH2 0x3277 JUMP JUMPDEST PUSH1 0x40 MLOAD DUP1 SWAP2 SUB SWAP1 REVERT JUMPDEST PUSH0 PUSH1 0x1 PUSH0 SWAP1 SLOAD SWAP1 PUSH2 0x100 EXP SWAP1 DIV PUSH20 0xFFFFFFFFFFFFFFFFFFFFFFFFFFFFFFFFFFFFFFFF AND PUSH20 0xFFFFFFFFFFFFFFFFFFFFFFFFFFFFFFFFFFFFFFFF AND PUSH4 0x70A08231 CALLER PUSH1 0x40 MLOAD DUP3 PUSH4 0xFFFFFFFF AND PUSH1 0xE0 SHL DUP2 MSTORE PUSH1 0x4 ADD PUSH2 0x14ED SWAP2 SWAP1 PUSH2 0x3295 JUMP JUMPDEST PUSH1 0x20 PUSH1 0x40 MLOAD DUP1 DUP4 SUB DUP2 DUP7 GAS STATICCALL ISZERO DUP1 ISZERO PUSH2 0x1508 JUMPI RETURNDATASIZE PUSH0 DUP1 RETURNDATACOPY RETURNDATASIZE PUSH0 REVERT JUMPDEST POP POP POP POP PUSH1 0x40 MLOAD RETURNDATASIZE PUSH1 0x1F NOT PUSH1 0x1F DUP3 ADD AND DUP3 ADD DUP1 PUSH1 0x40 MSTORE POP DUP2 ADD SWAP1 PUSH2 0x152C SWAP2 SWAP1 PUSH2 0x3202 JUMP JUMPDEST SWAP1 POP DUP3 DUP2 LT ISZERO PUSH2 0x1571 JUMPI PUSH1 0x40 MLOAD PUSH32 0x8C379A000000000000000000000000000000000000000000000000000000000 DUP2 MSTORE PUSH1 0x4 ADD PUSH2 0x1568 SWAP1 PUSH2 0x32F8 JUMP JUMPDEST PUSH1 0x40 MLOAD DUP1 SWAP2 SUB SWAP1 REVERT JUMPDEST PUSH1 0x1 PUSH0 SWAP1 SLOAD SWAP1 PUSH2 0x100 EXP SWAP1 DIV PUSH20 0xFFFFFFFFFFFFFFFFFFFFFFFFFFFFFFFFFFFFFFFF AND PUSH20 0xFFFFFFFFFFFFFFFFFFFFFFFFFFFFFFFFFFFFFFFF AND PUSH4 0x23B872DD CALLER ADDRESS DUP7 PUSH1 0x40 MLOAD DUP5 PUSH4 0xFFFFFFFF AND PUSH1 0xE0 SHL DUP2 MSTORE PUSH1 0x4 ADD PUSH2 0x15CF SWAP4 SWAP3 SWAP2 SWAP1 PUSH2 0x3316 JUMP JUMPDEST PUSH1 0x20 PUSH1 0x40 MLOAD DUP1 DUP4 SUB DUP2 PUSH0 DUP8 GAS CALL ISZERO DUP1 ISZERO PUSH2 0x15EB JUMPI RETURNDATASIZE PUSH0 DUP1 RETURNDATACOPY RETURNDATASIZE PUSH0 REVERT JUMPDEST POP POP POP POP PUSH1 0x40 MLOAD RETURNDATASIZE PUSH1 0x1F NOT PUSH1 0x1F DUP3 ADD AND DUP3 ADD DUP1 PUSH1 0x40 MSTORE POP DUP2 ADD SWAP1 PUSH2 0x160F SWAP2 SWAP1 PUSH2 0x2ADE JUMP JUMPDEST PUSH2 0x164E JUMPI PUSH1 0x40 MLOAD PUSH32 0x8C379A000000000000000000000000000000000000000000000000000000000 DUP2 MSTORE PUSH1 0x4 ADD PUSH2 0x1645 SWAP1 PUSH2 0x2B53 JUMP JUMPDEST PUSH1 0x40 MLOAD DUP1 SWAP2 SUB SWAP1 REVERT JUMPDEST PUSH1 0x40 MLOAD DUP1 PUSH1 0xA0 ADD PUSH1 0x40 MSTORE DUP1 DUP7 DUP2 MSTORE PUSH1 0x20 ADD DUP6 DUP2 MSTORE PUSH1 0x20 ADD DUP5 DUP2 MSTORE PUSH1 0x20 ADD PUSH0 DUP2 MSTORE PUSH1 0x20 ADD PUSH1 0x1 ISZERO ISZERO DUP2 MSTORE POP PUSH1 0x3 PUSH0 DUP9 DUP2 MSTORE PUSH1 0x20 ADD SWAP1 DUP2 MSTORE PUSH1 0x20 ADD PUSH0 KECCAK256 PUSH0 DUP8 DUP2 MSTORE PUSH1 0x20 ADD SWAP1 DUP2 MSTORE PUSH1 0x20 ADD PUSH0 KECCAK256 PUSH0 DUP7 DUP2 MSTORE PUSH1 0x20 ADD SWAP1 DUP2 MSTORE PUSH1 0x20 ADD PUSH0 KECCAK256 PUSH0 DUP3 ADD MLOAD DUP2 PUSH0 ADD SSTORE PUSH1 0x20 DUP3 ADD MLOAD DUP2 PUSH1 0x1 ADD SSTORE PUSH1 0x40 DUP3 ADD MLOAD DUP2 PUSH1 0x2 ADD SSTORE PUSH1 0x60 DUP3 ADD MLOAD DUP2 PUSH1 0x3 ADD SSTORE PUSH1 0x80 DUP3 ADD MLOAD DUP2 PUSH1 0x4 ADD PUSH0 PUSH2 0x100 EXP DUP2 SLOAD DUP2 PUSH1 0xFF MUL NOT AND SWAP1 DUP4 ISZERO ISZERO MUL OR SWAP1 SSTORE POP SWAP1 POP POP DUP4 DUP6 DUP8 PUSH32 0x7BBCA5EFEEBBED029B1684066D1A6E0ADE8EFE8C578AB0890D4B223E6EC5E50E DUP7 PUSH1 0x40 MLOAD PUSH2 0x1721 SWAP2 SWAP1 PUSH2 0x28DE JUMP JUMPDEST PUSH1 0x40 MLOAD DUP1 SWAP2 SUB SWAP1 LOG4 POP POP POP POP POP POP JUMP JUMPDEST PUSH32 0xA49807205CE4D355092EF5A8A18F56E8913CF4A201FBE287825B095693C21775 PUSH2 0x175B DUP2 PUSH2 0x1A7C JUMP JUMPDEST DUP3 PUSH1 0x1 PUSH0 PUSH2 0x100 EXP DUP2 SLOAD DUP2 PUSH20 0xFFFFFFFFFFFFFFFFFFFFFFFFFFFFFFFFFFFFFFFF MUL NOT AND SWAP1 DUP4 PUSH20 0xFFFFFFFFFFFFFFFFFFFFFFFFFFFFFFFFFFFFFFFF AND MUL OR SWAP1 SSTORE POP DUP2 PUSH1 0x2 PUSH0 PUSH2 0x100 EXP DUP2 SLOAD DUP2 PUSH20 0xFFFFFFFFFFFFFFFFFFFFFFFFFFFFFFFFFFFFFFFF MUL NOT AND SWAP1 DUP4 PUSH20 0xFFFFFFFFFFFFFFFFFFFFFFFFFFFFFFFFFFFFFFFF AND MUL OR SWAP1 SSTORE POP POP POP POP JUMP JUMPDEST PUSH2 0x17E9 DUP3 PUSH2 0x64A JUMP JUMPDEST PUSH2 0x17F2 DUP2 PUSH2 0x1A7C JUMP JUMPDEST PUSH2 0x17FC DUP4 DUP4 PUSH2 0x1B71 JUMP JUMPDEST POP POP POP JUMP JUMPDEST PUSH1 0x1 PUSH0 SWAP1 SLOAD SWAP1 PUSH2 0x100 EXP SWAP1 DIV PUSH20 0xFFFFFFFFFFFFFFFFFFFFFFFFFFFFFFFFFFFFFFFF AND DUP2 JUMP JUMPDEST PUSH32 0xA49807205CE4D355092EF5A8A18F56E8913CF4A201FBE287825B095693C21775 PUSH2 0x1850 DUP2 PUSH2 0x1A7C JUMP JUMPDEST PUSH1 0x3 PUSH0 DUP7 DUP2 MSTORE PUSH1 0x20 ADD SWAP1 DUP2 MSTORE PUSH1 0x20 ADD PUSH0 KECCAK256 PUSH0 DUP6 DUP2 MSTORE PUSH1 0x20 ADD SWAP1 DUP2 MSTORE PUSH1 0x20 ADD PUSH0 KECCAK256 PUSH0 DUP5 DUP2 MSTORE PUSH1 0x20 ADD SWAP1 DUP2 MSTORE PUSH1 0x20 ADD PUSH0 KECCAK256 PUSH1 0x4 ADD PUSH0 SWAP1 SLOAD SWAP1 PUSH2 0x100 EXP SWAP1 DIV PUSH1 0xFF AND PUSH2 0x18CE JUMPI PUSH1 0x40 MLOAD PUSH32 0x8C379A000000000000000000000000000000000000000000000000000000000 DUP2 MSTORE PUSH1 0x4 ADD PUSH2 0x18C5 SWAP1 PUSH2 0x3395 JUMP JUMPDEST PUSH1 0x40 MLOAD DUP1 SWAP2 SUB SWAP1 REVERT JUMPDEST PUSH1 0x3 PUSH0 DUP7 DUP2 MSTORE PUSH1 0x20 ADD SWAP1 DUP2 MSTORE PUSH1 0x20 ADD PUSH0 KECCAK256 PUSH0 DUP6 DUP2 MSTORE PUSH1 0x20 ADD SWAP1 DUP2 MSTORE PUSH1 0x20 ADD PUSH0 KECCAK256 PUSH0 DUP5 DUP2 MSTORE PUSH1 0x20 ADD SWAP1 DUP2 MSTORE PUSH1 0x20 ADD PUSH0 KECCAK256 PUSH1 0x3 ADD SLOAD DUP3 GT ISZERO PUSH2 0x1940 JUMPI DUP2 PUSH1 0x3 PUSH0 DUP8 DUP2 MSTORE PUSH1 0x20 ADD SWAP1 DUP2 MSTORE PUSH1 0x20 ADD PUSH0 KECCAK256 PUSH0 DUP7 DUP2 MSTORE PUSH1 0x20 ADD SWAP1 DUP2 MSTORE PUSH1 0x20 ADD PUSH0 KECCAK256 PUSH0 DUP6 DUP2 MSTORE PUSH1 0x20 ADD SWAP1 DUP2 MSTORE PUSH1 0x20 ADD PUSH0 KECCAK256 PUSH1 0x3 ADD DUP2 SWAP1 SSTORE POP JUMPDEST DUP3 DUP5 DUP7 PUSH32 0x2BBC9AD1871F4B99168AA3FEBE254B9069558FF96ED7746D1677869AFA38243F DUP6 PUSH1 0x40 MLOAD PUSH2 0x1972 SWAP2 SWAP1 PUSH2 0x28DE JUMP JUMPDEST PUSH1 0x40 MLOAD DUP1 SWAP2 SUB SWAP1 LOG4 POP POP POP POP POP JUMP JUMPDEST PUSH1 0x4 PUSH0 DUP4 DUP2 MSTORE PUSH1 0x20 ADD SWAP1 DUP2 MSTORE PUSH1 0x20 ADD PUSH0 KECCAK256 PUSH1 0x3 ADD PUSH0 SWAP1 SLOAD SWAP1 PUSH2 0x100 EXP SWAP1 DIV PUSH1 0xFF AND PUSH2 0x19E1 JUMPI PUSH1 0x40 MLOAD PUSH32 0x8C379A000000000000000000000000000000000000000000000000000000000 DUP2 MSTORE PUSH1 0x4 ADD PUSH2 0x19D8 SWAP1 PUSH2 0x2D28 JUMP JUMPDEST PUSH1 0x40 MLOAD DUP1 SWAP2 SUB SWAP1 REVERT JUMPDEST DUP1 DUP3 PUSH32 0x51DBB46F6F6D290AC0B2B3FB0B015E2065756F1B9EC382651FE728757BF362FE PUSH1 0x40 MLOAD PUSH1 0x40 MLOAD DUP1 SWAP2 SUB SWAP1 LOG3 POP POP JUMP JUMPDEST PUSH0 PUSH32 0x1FFC9A700000000000000000000000000000000000000000000000000000000 PUSH28 0xFFFFFFFFFFFFFFFFFFFFFFFFFFFFFFFFFFFFFFFFFFFFFFFFFFFFFFFF NOT AND DUP3 PUSH28 0xFFFFFFFFFFFFFFFFFFFFFFFFFFFFFFFFFFFFFFFFFFFFFFFFFFFFFFFF NOT AND EQ SWAP1 POP SWAP2 SWAP1 POP JUMP JUMPDEST PUSH2 0x1A8D DUP2 PUSH2 0x1A88 PUSH2 0x1B6A JUMP JUMPDEST PUSH2 0x1C4B JUMP JUMPDEST POP JUMP JUMPDEST PUSH2 0x1A9A DUP3 DUP3 PUSH2 0xDC7 JUMP JUMPDEST PUSH2 0x1B66 JUMPI PUSH1 0x1 PUSH0 DUP1 DUP5 DUP2 MSTORE PUSH1 0x20 ADD SWAP1 DUP2 MSTORE PUSH1 0x20 ADD PUSH0 KECCAK256 PUSH0 ADD PUSH0 DUP4 PUSH20 0xFFFFFFFFFFFFFFFFFFFFFFFFFFFFFFFFFFFFFFFF AND PUSH20 0xFFFFFFFFFFFFFFFFFFFFFFFFFFFFFFFFFFFFFFFF AND DUP2 MSTORE PUSH1 0x20 ADD SWAP1 DUP2 MSTORE PUSH1 0x20 ADD PUSH0 KECCAK256 PUSH0 PUSH2 0x100 EXP DUP2 SLOAD DUP2 PUSH1 0xFF MUL NOT AND SWAP1 DUP4 ISZERO ISZERO MUL OR SWAP1 SSTORE POP PUSH2 0x1B0B PUSH2 0x1B6A JUMP JUMPDEST PUSH20 0xFFFFFFFFFFFFFFFFFFFFFFFFFFFFFFFFFFFFFFFF AND DUP2 PUSH20 0xFFFFFFFFFFFFFFFFFFFFFFFFFFFFFFFFFFFFFFFF AND DUP4 PUSH32 0x2F8788117E7EFF1D82E926EC794901D17C78024A50270940304540A733656F0D PUSH1 0x40 MLOAD PUSH1 0x40 MLOAD DUP1 SWAP2 SUB SWAP1 LOG4 JUMPDEST POP POP JUMP JUMPDEST PUSH0 CALLER SWAP1 POP SWAP1 JUMP JUMPDEST PUSH2 0x1B7B DUP3 DUP3 PUSH2 0xDC7 JUMP JUMPDEST ISZERO PUSH2 0x1C47 JUMPI PUSH0 DUP1 PUSH0 DUP5 DUP2 MSTORE PUSH1 0x20 ADD SWAP1 DUP2 MSTORE PUSH1 0x20 ADD PUSH0 KECCAK256 PUSH0 ADD PUSH0 DUP4 PUSH20 0xFFFFFFFFFFFFFFFFFFFFFFFFFFFFFFFFFFFFFFFF AND PUSH20 0xFFFFFFFFFFFFFFFFFFFFFFFFFFFFFFFFFFFFFFFF AND DUP2 MSTORE PUSH1 0x20 ADD SWAP1 DUP2 MSTORE PUSH1 0x20 ADD PUSH0 KECCAK256 PUSH0 PUSH2 0x100 EXP DUP2 SLOAD DUP2 PUSH1 0xFF MUL NOT AND SWAP1 DUP4 ISZERO ISZERO MUL OR SWAP1 SSTORE POP PUSH2 0x1BEC PUSH2 0x1B6A JUMP JUMPDEST PUSH20 0xFFFFFFFFFFFFFFFFFFFFFFFFFFFFFFFFFFFFFFFF AND DUP2 PUSH20 0xFFFFFFFFFFFFFFFFFFFFFFFFFFFFFFFFFFFFFFFF AND DUP4 PUSH32 0xF6391F5C32D9C69D2A47EA670B442974B53935D1EDC7FD64EB21E047A839171B PUSH1 0x40 MLOAD PUSH1 0x40 MLOAD DUP1 SWAP2 SUB SWAP1 LOG4 JUMPDEST POP POP JUMP JUMPDEST PUSH2 0x1C55 DUP3 DUP3 PUSH2 0xDC7 JUMP JUMPDEST PUSH2 0x1CCB JUMPI PUSH2 0x1C62 DUP2 PUSH2 0x1CCF JUMP JUMPDEST PUSH2 0x1C6F DUP4 PUSH0 SHR PUSH1 0x20 PUSH2 0x1CFC JUMP JUMPDEST PUSH1 0x40 MLOAD PUSH1 0x20 ADD PUSH2 0x1C80 SWAP3 SWAP2 SWAP1 PUSH2 0x3481 JUMP JUMPDEST PUSH1 0x40 MLOAD PUSH1 0x20 DUP2 DUP4 SUB SUB DUP2 MSTORE SWAP1 PUSH1 0x40 MSTORE PUSH1 0x40 MLOAD PUSH32 0x8C379A000000000000000000000000000000000000000000000000000000000 DUP2 MSTORE PUSH1 0x4 ADD PUSH2 0x1CC2 SWAP2 SWAP1 PUSH2 0x34BA JUMP JUMPDEST PUSH1 0x40 MLOAD DUP1 SWAP2 SUB SWAP1 REVERT JUMPDEST POP POP JUMP JUMPDEST PUSH1 0x60 PUSH2 0x1CF5 DUP3 PUSH20 0xFFFFFFFFFFFFFFFFFFFFFFFFFFFFFFFFFFFFFFFF AND PUSH1 0x14 PUSH1 0xFF AND PUSH2 0x1CFC JUMP JUMPDEST SWAP1 POP SWAP2 SWAP1 POP JUMP JUMPDEST PUSH1 0x60 PUSH0 PUSH1 0x2 DUP4 PUSH1 0x2 PUSH2 0x1D0E SWAP2 SWAP1 PUSH2 0x3507 JUMP JUMPDEST PUSH2 0x1D18 SWAP2 SWAP1 PUSH2 0x3548 JUMP JUMPDEST PUSH8 0xFFFFFFFFFFFFFFFF DUP2 GT ISZERO PUSH2 0x1D31 JUMPI PUSH2 0x1D30 PUSH2 0x25FE JUMP JUMPDEST JUMPDEST PUSH1 0x40 MLOAD SWAP1 DUP1 DUP3 MSTORE DUP1 PUSH1 0x1F ADD PUSH1 0x1F NOT AND PUSH1 0x20 ADD DUP3 ADD PUSH1 0x40 MSTORE DUP1 ISZERO PUSH2 0x1D63 JUMPI DUP2 PUSH1 0x20 ADD PUSH1 0x1 DUP3 MUL DUP1 CALLDATASIZE DUP4 CALLDATACOPY DUP1 DUP3 ADD SWAP2 POP POP SWAP1 POP JUMPDEST POP SWAP1 POP PUSH32 0x3000000000000000000000000000000000000000000000000000000000000000 DUP2 PUSH0 DUP2 MLOAD DUP2 LT PUSH2 0x1D9A JUMPI PUSH2 0x1D99 PUSH2 0x2A51 JUMP JUMPDEST JUMPDEST PUSH1 0x20 ADD ADD SWAP1 PUSH31 0xFFFFFFFFFFFFFFFFFFFFFFFFFFFFFFFFFFFFFFFFFFFFFFFFFFFFFFFFFFFFFF NOT AND SWAP1 DUP2 PUSH0 BYTE SWAP1 MSTORE8 POP PUSH32 0x7800000000000000000000000000000000000000000000000000000000000000 DUP2 PUSH1 0x1 DUP2 MLOAD DUP2 LT PUSH2 0x1DFD JUMPI PUSH2 0x1DFC PUSH2 0x2A51 JUMP JUMPDEST JUMPDEST PUSH1 0x20 ADD ADD SWAP1 PUSH31 0xFFFFFFFFFFFFFFFFFFFFFFFFFFFFFFFFFFFFFFFFFFFFFFFFFFFFFFFFFFFFFF NOT AND SWAP1 DUP2 PUSH0 BYTE SWAP1 MSTORE8 POP PUSH0 PUSH1 0x1 DUP5 PUSH1 0x2 PUSH2 0x1E3B SWAP2 SWAP1 PUSH2 0x3507 JUMP JUMPDEST PUSH2 0x1E45 SWAP2 SWAP1 PUSH2 0x3548 JUMP JUMPDEST SWAP1 POP JUMPDEST PUSH1 0x1 DUP2 GT ISZERO PUSH2 0x1EE4 JUMPI PUSH32 0x3031323334353637383961626364656600000000000000000000000000000000 PUSH1 0xF DUP7 AND PUSH1 0x10 DUP2 LT PUSH2 0x1E87 JUMPI PUSH2 0x1E86 PUSH2 0x2A51 JUMP JUMPDEST JUMPDEST BYTE PUSH1 0xF8 SHL DUP3 DUP3 DUP2 MLOAD DUP2 LT PUSH2 0x1E9E JUMPI PUSH2 0x1E9D PUSH2 0x2A51 JUMP JUMPDEST JUMPDEST PUSH1 0x20 ADD ADD SWAP1 PUSH31 0xFFFFFFFFFFFFFFFFFFFFFFFFFFFFFFFFFFFFFFFFFFFFFFFFFFFFFFFFFFFFFF NOT AND SWAP1 DUP2 PUSH0 BYTE SWAP1 MSTORE8 POP PUSH1 0x4 DUP6 SWAP1 SHR SWAP5 POP DUP1 PUSH2 0x1EDD SWAP1 PUSH2 0x357B JUMP JUMPDEST SWAP1 POP PUSH2 0x1E48 JUMP JUMPDEST POP PUSH0 DUP5 EQ PUSH2 0x1F27 JUMPI PUSH1 0x40 MLOAD PUSH32 0x8C379A000000000000000000000000000000000000000000000000000000000 DUP2 MSTORE PUSH1 0x4 ADD PUSH2 0x1F1E SWAP1 PUSH2 0x35EC JUMP JUMPDEST PUSH1 0x40 MLOAD DUP1 SWAP2 SUB SWAP1 REVERT JUMPDEST DUP1 SWAP2 POP POP SWAP3 SWAP2 POP POP JUMP JUMPDEST PUSH1 0x40 MLOAD DUP1 PUSH1 0x80 ADD PUSH1 0x40 MSTORE DUP1 PUSH0 DUP2 MSTORE PUSH1 0x20 ADD PUSH0 DUP2 MSTORE PUSH1 0x20 ADD PUSH1 0x60 DUP2 MSTORE PUSH1 0x20 ADD PUSH0 ISZERO ISZERO DUP2 MSTORE POP SWAP1 JUMP JUMPDEST POP DUP1 SLOAD PUSH2 0x1F64 SWAP1 PUSH2 0x2D73 JUMP JUMPDEST PUSH0 DUP3 SSTORE DUP1 PUSH1 0x1F LT PUSH2 0x1F75 JUMPI POP PUSH2 0x1F92 JUMP JUMPDEST PUSH1 0x1F ADD PUSH1 0x20 SWAP1 DIV SWAP1 PUSH0 MSTORE PUSH1 0x20 PUSH0 KECCAK256 SWAP1 DUP2 ADD SWAP1 PUSH2 0x1F91 SWAP2 SWAP1 PUSH2 0x1FA7 JUMP JUMPDEST JUMPDEST POP JUMP JUMPDEST PUSH1 0x40 MLOAD DUP1 PUSH1 0x20 ADD PUSH1 0x40 MSTORE DUP1 PUSH0 DUP2 MSTORE POP SWAP1 JUMP JUMPDEST JUMPDEST DUP1 DUP3 GT ISZERO PUSH2 0x1FBE JUMPI PUSH0 DUP2 PUSH0 SWAP1 SSTORE POP PUSH1 0x1 ADD PUSH2 0x1FA8 JUMP JUMPDEST POP SWAP1 JUMP JUMPDEST PUSH0 PUSH1 0x40 MLOAD SWAP1 POP SWAP1 JUMP JUMPDEST PUSH0 DUP1 REVERT JUMPDEST PUSH0 DUP1 REVERT JUMPDEST PUSH0 PUSH32 0xFFFFFFFF00000000000000000000000000000000000000000000000000000000 DUP3 AND SWAP1 POP SWAP2 SWAP1 POP JUMP JUMPDEST PUSH2 0x2007 DUP2 PUSH2 0x1FD3 JUMP JUMPDEST DUP2 EQ PUSH2 0x2011 JUMPI PUSH0 DUP1 REVERT JUMPDEST POP JUMP JUMPDEST PUSH0 DUP2 CALLDATALOAD SWAP1 POP PUSH2 0x2022 DUP2 PUSH2 0x1FFE JUMP JUMPDEST SWAP3 SWAP2 POP POP JUMP JUMPDEST PUSH0 PUSH1 0x20 DUP3 DUP5 SUB SLT ISZERO PUSH2 0x203D JUMPI PUSH2 0x203C PUSH2 0x1FCB JUMP JUMPDEST JUMPDEST PUSH0 PUSH2 0x204A DUP5 DUP3 DUP6 ADD PUSH2 0x2014 JUMP JUMPDEST SWAP2 POP POP SWAP3 SWAP2 POP POP JUMP JUMPDEST PUSH0 DUP2 ISZERO ISZERO SWAP1 POP SWAP2 SWAP1 POP JUMP JUMPDEST PUSH2 0x2067 DUP2 PUSH2 0x2053 JUMP JUMPDEST DUP3 MSTORE POP POP JUMP JUMPDEST PUSH0 PUSH1 0x20 DUP3 ADD SWAP1 POP PUSH2 0x2080 PUSH0 DUP4 ADD DUP5 PUSH2 0x205E JUMP JUMPDEST SWAP3 SWAP2 POP POP JUMP JUMPDEST PUSH0 PUSH20 0xFFFFFFFFFFFFFFFFFFFFFFFFFFFFFFFFFFFFFFFF DUP3 AND SWAP1 POP SWAP2 SWAP1 POP JUMP JUMPDEST PUSH0 DUP2 SWAP1 POP SWAP2 SWAP1 POP JUMP JUMPDEST PUSH0 PUSH2 0x20C8 PUSH2 0x20C3 PUSH2 0x20BE DUP5 PUSH2 0x2086 JUMP JUMPDEST PUSH2 0x20A5 JUMP JUMPDEST PUSH2 0x2086 JUMP JUMPDEST SWAP1 POP SWAP2 SWAP1 POP JUMP JUMPDEST PUSH0 PUSH2 0x20D9 DUP3 PUSH2 0x20AE JUMP JUMPDEST SWAP1 POP SWAP2 SWAP1 POP JUMP JUMPDEST PUSH0 PUSH2 0x20EA DUP3 PUSH2 0x20CF JUMP JUMPDEST SWAP1 POP SWAP2 SWAP1 POP JUMP JUMPDEST PUSH2 0x20FA DUP2 PUSH2 0x20E0 JUMP JUMPDEST DUP3 MSTORE POP POP JUMP JUMPDEST PUSH0 PUSH1 0x20 DUP3 ADD SWAP1 POP PUSH2 0x2113 PUSH0 DUP4 ADD DUP5 PUSH2 0x20F1 JUMP JUMPDEST SWAP3 SWAP2 POP POP JUMP JUMPDEST PUSH0 DUP2 SWAP1 POP SWAP2 SWAP1 POP JUMP JUMPDEST PUSH2 0x212B DUP2 PUSH2 0x2119 JUMP JUMPDEST DUP2 EQ PUSH2 0x2135 JUMPI PUSH0 DUP1 REVERT JUMPDEST POP JUMP JUMPDEST PUSH0 DUP2 CALLDATALOAD SWAP1 POP PUSH2 0x2146 DUP2 PUSH2 0x2122 JUMP JUMPDEST SWAP3 SWAP2 POP POP JUMP JUMPDEST PUSH0 PUSH1 0x20 DUP3 DUP5 SUB SLT ISZERO PUSH2 0x2161 JUMPI PUSH2 0x2160 PUSH2 0x1FCB JUMP JUMPDEST JUMPDEST PUSH0 PUSH2 0x216E DUP5 DUP3 DUP6 ADD PUSH2 0x2138 JUMP JUMPDEST SWAP2 POP POP SWAP3 SWAP2 POP POP JUMP JUMPDEST PUSH2 0x2180 DUP2 PUSH2 0x2119 JUMP JUMPDEST DUP3 MSTORE POP POP JUMP JUMPDEST PUSH0 PUSH1 0x20 DUP3 ADD SWAP1 POP PUSH2 0x2199 PUSH0 DUP4 ADD DUP5 PUSH2 0x2177 JUMP JUMPDEST SWAP3 SWAP2 POP POP JUMP JUMPDEST PUSH0 DUP2 SWAP1 POP SWAP2 SWAP1 POP JUMP JUMPDEST PUSH2 0x21B1 DUP2 PUSH2 0x219F JUMP JUMPDEST DUP2 EQ PUSH2 0x21BB JUMPI PUSH0 DUP1 REVERT JUMPDEST POP JUMP JUMPDEST PUSH0 DUP2 CALLDATALOAD SWAP1 POP PUSH2 0x21CC DUP2 PUSH2 0x21A8 JUMP JUMPDEST SWAP3 SWAP2 POP POP JUMP JUMPDEST PUSH0 DUP1 PUSH0 PUSH1 0x60 DUP5 DUP7 SUB SLT ISZERO PUSH2 0x21E9 JUMPI PUSH2 0x21E8 PUSH2 0x1FCB JUMP JUMPDEST JUMPDEST PUSH0 PUSH2 0x21F6 DUP7 DUP3 DUP8 ADD PUSH2 0x21BE JUMP JUMPDEST SWAP4 POP POP PUSH1 0x20 PUSH2 0x2207 DUP7 DUP3 DUP8 ADD PUSH2 0x21BE JUMP JUMPDEST SWAP3 POP POP PUSH1 0x40 PUSH2 0x2218 DUP7 DUP3 DUP8 ADD PUSH2 0x21BE JUMP JUMPDEST SWAP2 POP POP SWAP3 POP SWAP3 POP SWAP3 JUMP JUMPDEST PUSH2 0x222B DUP2 PUSH2 0x219F JUMP JUMPDEST DUP3 MSTORE POP POP JUMP JUMPDEST PUSH0 PUSH1 0xA0 DUP3 ADD SWAP1 POP PUSH2 0x2244 PUSH0 DUP4 ADD DUP9 PUSH2 0x2222 JUMP JUMPDEST PUSH2 0x2251 PUSH1 0x20 DUP4 ADD DUP8 PUSH2 0x2222 JUMP JUMPDEST PUSH2 0x225E PUSH1 0x40 DUP4 ADD DUP7 PUSH2 0x2222 JUMP JUMPDEST PUSH2 0x226B PUSH1 0x60 DUP4 ADD DUP6 PUSH2 0x2222 JUMP JUMPDEST PUSH2 0x2278 PUSH1 0x80 DUP4 ADD DUP5 PUSH2 0x205E JUMP JUMPDEST SWAP7 SWAP6 POP POP POP POP POP POP JUMP JUMPDEST PUSH0 PUSH2 0x228C DUP3 PUSH2 0x2086 JUMP JUMPDEST SWAP1 POP SWAP2 SWAP1 POP JUMP JUMPDEST PUSH2 0x229C DUP2 PUSH2 0x2282 JUMP JUMPDEST DUP2 EQ PUSH2 0x22A6 JUMPI PUSH0 DUP1 REVERT JUMPDEST POP JUMP JUMPDEST PUSH0 DUP2 CALLDATALOAD SWAP1 POP PUSH2 0x22B7 DUP2 PUSH2 0x2293 JUMP JUMPDEST SWAP3 SWAP2 POP POP JUMP JUMPDEST PUSH0 DUP1 PUSH1 0x40 DUP4 DUP6 SUB SLT ISZERO PUSH2 0x22D3 JUMPI PUSH2 0x22D2 PUSH2 0x1FCB JUMP JUMPDEST JUMPDEST PUSH0 PUSH2 0x22E0 DUP6 DUP3 DUP7 ADD PUSH2 0x2138 JUMP JUMPDEST SWAP3 POP POP PUSH1 0x20 PUSH2 0x22F1 DUP6 DUP3 DUP7 ADD PUSH2 0x22A9 JUMP JUMPDEST SWAP2 POP POP SWAP3 POP SWAP3 SWAP1 POP JUMP JUMPDEST PUSH0 DUP1 REVERT JUMPDEST PUSH0 DUP1 REVERT JUMPDEST PUSH0 DUP1 REVERT JUMPDEST PUSH0 DUP1 DUP4 PUSH1 0x1F DUP5 ADD SLT PUSH2 0x231C JUMPI PUSH2 0x231B PUSH2 0x22FB JUMP JUMPDEST JUMPDEST DUP3 CALLDATALOAD SWAP1 POP PUSH8 0xFFFFFFFFFFFFFFFF DUP2 GT ISZERO PUSH2 0x2339 JUMPI PUSH2 0x2338 PUSH2 0x22FF JUMP JUMPDEST JUMPDEST PUSH1 0x20 DUP4 ADD SWAP2 POP DUP4 PUSH1 0x20 DUP3 MUL DUP4 ADD GT ISZERO PUSH2 0x2355 JUMPI PUSH2 0x2354 PUSH2 0x2303 JUMP JUMPDEST JUMPDEST SWAP3 POP SWAP3 SWAP1 POP JUMP JUMPDEST PUSH0 DUP1 DUP4 PUSH1 0x1F DUP5 ADD SLT PUSH2 0x2371 JUMPI PUSH2 0x2370 PUSH2 0x22FB JUMP JUMPDEST JUMPDEST DUP3 CALLDATALOAD SWAP1 POP PUSH8 0xFFFFFFFFFFFFFFFF DUP2 GT ISZERO PUSH2 0x238E JUMPI PUSH2 0x238D PUSH2 0x22FF JUMP JUMPDEST JUMPDEST PUSH1 0x20 DUP4 ADD SWAP2 POP DUP4 PUSH1 0x20 DUP3 MUL DUP4 ADD GT ISZERO PUSH2 0x23AA JUMPI PUSH2 0x23A9 PUSH2 0x2303 JUMP JUMPDEST JUMPDEST SWAP3 POP SWAP3 SWAP1 POP JUMP JUMPDEST PUSH0 DUP1 PUSH0 DUP1 PUSH1 0x40 DUP6 DUP8 SUB SLT ISZERO PUSH2 0x23C9 JUMPI PUSH2 0x23C8 PUSH2 0x1FCB JUMP JUMPDEST JUMPDEST PUSH0 DUP6 ADD CALLDATALOAD PUSH8 0xFFFFFFFFFFFFFFFF DUP2 GT ISZERO PUSH2 0x23E6 JUMPI PUSH2 0x23E5 PUSH2 0x1FCF JUMP JUMPDEST JUMPDEST PUSH2 0x23F2 DUP8 DUP3 DUP9 ADD PUSH2 0x2307 JUMP JUMPDEST SWAP5 POP SWAP5 POP POP PUSH1 0x20 DUP6 ADD CALLDATALOAD PUSH8 0xFFFFFFFFFFFFFFFF DUP2 GT ISZERO PUSH2 0x2415 JUMPI PUSH2 0x2414 PUSH2 0x1FCF JUMP JUMPDEST JUMPDEST PUSH2 0x2421 DUP8 DUP3 DUP9 ADD PUSH2 0x235C JUMP JUMPDEST SWAP3 POP SWAP3 POP POP SWAP3 SWAP6 SWAP2 SWAP5 POP SWAP3 POP JUMP JUMPDEST PUSH0 PUSH1 0x20 DUP3 DUP5 SUB SLT ISZERO PUSH2 0x2444 JUMPI PUSH2 0x2443 PUSH2 0x1FCB JUMP JUMPDEST JUMPDEST PUSH0 PUSH2 0x2451 DUP5 DUP3 DUP6 ADD PUSH2 0x21BE JUMP JUMPDEST SWAP2 POP POP SWAP3 SWAP2 POP POP JUMP JUMPDEST PUSH2 0x2463 DUP2 PUSH2 0x219F JUMP JUMPDEST DUP3 MSTORE POP POP JUMP JUMPDEST PUSH0 DUP2 MLOAD SWAP1 POP SWAP2 SWAP1 POP JUMP JUMPDEST PUSH0 DUP3 DUP3 MSTORE PUSH1 0x20 DUP3 ADD SWAP1 POP SWAP3 SWAP2 POP POP JUMP JUMPDEST DUP3 DUP2 DUP4 MCOPY PUSH0 DUP4 DUP4 ADD MSTORE POP POP POP JUMP JUMPDEST PUSH0 PUSH1 0x1F NOT PUSH1 0x1F DUP4 ADD AND SWAP1 POP SWAP2 SWAP1 POP JUMP JUMPDEST PUSH0 PUSH2 0x24AB DUP3 PUSH2 0x2469 JUMP JUMPDEST PUSH2 0x24B5 DUP2 DUP6 PUSH2 0x2473 JUMP JUMPDEST SWAP4 POP PUSH2 0x24C5 DUP2 DUP6 PUSH1 0x20 DUP7 ADD PUSH2 0x2483 JUMP JUMPDEST PUSH2 0x24CE DUP2 PUSH2 0x2491 JUMP JUMPDEST DUP5 ADD SWAP2 POP POP SWAP3 SWAP2 POP POP JUMP JUMPDEST PUSH2 0x24E2 DUP2 PUSH2 0x2053 JUMP JUMPDEST DUP3 MSTORE POP POP JUMP JUMPDEST PUSH0 PUSH1 0x80 DUP4 ADD PUSH0 DUP4 ADD MLOAD PUSH2 0x24FD PUSH0 DUP7 ADD DUP3 PUSH2 0x245A JUMP JUMPDEST POP PUSH1 0x20 DUP4 ADD MLOAD PUSH2 0x2510 PUSH1 0x20 DUP7 ADD DUP3 PUSH2 0x245A JUMP JUMPDEST POP PUSH1 0x40 DUP4 ADD MLOAD DUP5 DUP3 SUB PUSH1 0x40 DUP7 ADD MSTORE PUSH2 0x2528 DUP3 DUP3 PUSH2 0x24A1 JUMP JUMPDEST SWAP2 POP POP PUSH1 0x60 DUP4 ADD MLOAD PUSH2 0x253D PUSH1 0x60 DUP7 ADD DUP3 PUSH2 0x24D9 JUMP JUMPDEST POP DUP1 SWAP2 POP POP SWAP3 SWAP2 POP POP JUMP JUMPDEST PUSH0 PUSH1 0x20 DUP3 ADD SWAP1 POP DUP2 DUP2 SUB PUSH0 DUP4 ADD MSTORE PUSH2 0x2560 DUP2 DUP5 PUSH2 0x24E8 JUMP JUMPDEST SWAP1 POP SWAP3 SWAP2 POP POP JUMP JUMPDEST PUSH0 DUP3 DUP3 MSTORE PUSH1 0x20 DUP3 ADD SWAP1 POP SWAP3 SWAP2 POP POP JUMP JUMPDEST PUSH0 PUSH2 0x2582 DUP3 PUSH2 0x2469 JUMP JUMPDEST PUSH2 0x258C DUP2 DUP6 PUSH2 0x2568 JUMP JUMPDEST SWAP4 POP PUSH2 0x259C DUP2 DUP6 PUSH1 0x20 DUP7 ADD PUSH2 0x2483 JUMP JUMPDEST PUSH2 0x25A5 DUP2 PUSH2 0x2491 JUMP JUMPDEST DUP5 ADD SWAP2 POP POP SWAP3 SWAP2 POP POP JUMP JUMPDEST PUSH0 PUSH1 0x80 DUP3 ADD SWAP1 POP PUSH2 0x25C3 PUSH0 DUP4 ADD DUP8 PUSH2 0x2222 JUMP JUMPDEST PUSH2 0x25D0 PUSH1 0x20 DUP4 ADD DUP7 PUSH2 0x2222 JUMP JUMPDEST DUP2 DUP2 SUB PUSH1 0x40 DUP4 ADD MSTORE PUSH2 0x25E2 DUP2 DUP6 PUSH2 0x2578 JUMP JUMPDEST SWAP1 POP PUSH2 0x25F1 PUSH1 0x60 DUP4 ADD DUP5 PUSH2 0x205E JUMP JUMPDEST SWAP6 SWAP5 POP POP POP POP POP JUMP JUMPDEST PUSH0 DUP1 REVERT JUMPDEST PUSH32 0x4E487B7100000000000000000000000000000000000000000000000000000000 PUSH0 MSTORE PUSH1 0x41 PUSH1 0x4 MSTORE PUSH1 0x24 PUSH0 REVERT JUMPDEST PUSH2 0x2634 DUP3 PUSH2 0x2491 JUMP JUMPDEST DUP2 ADD DUP2 DUP2 LT PUSH8 0xFFFFFFFFFFFFFFFF DUP3 GT OR ISZERO PUSH2 0x2653 JUMPI PUSH2 0x2652 PUSH2 0x25FE JUMP JUMPDEST JUMPDEST DUP1 PUSH1 0x40 MSTORE POP POP POP JUMP JUMPDEST PUSH0 PUSH2 0x2665 PUSH2 0x1FC2 JUMP JUMPDEST SWAP1 POP PUSH2 0x2671 DUP3 DUP3 PUSH2 0x262B JUMP JUMPDEST SWAP2 SWAP1 POP JUMP JUMPDEST PUSH0 PUSH8 0xFFFFFFFFFFFFFFFF DUP3 GT ISZERO PUSH2 0x2690 JUMPI PUSH2 0x268F PUSH2 0x25FE JUMP JUMPDEST JUMPDEST PUSH2 0x2699 DUP3 PUSH2 0x2491 JUMP JUMPDEST SWAP1 POP PUSH1 0x20 DUP2 ADD SWAP1 POP SWAP2 SWAP1 POP JUMP JUMPDEST DUP3 DUP2 DUP4 CALLDATACOPY PUSH0 DUP4 DUP4 ADD MSTORE POP POP POP JUMP JUMPDEST PUSH0 PUSH2 0x26C6 PUSH2 0x26C1 DUP5 PUSH2 0x2676 JUMP JUMPDEST PUSH2 0x265C JUMP JUMPDEST SWAP1 POP DUP3 DUP2 MSTORE PUSH1 0x20 DUP2 ADD DUP5 DUP5 DUP5 ADD GT ISZERO PUSH2 0x26E2 JUMPI PUSH2 0x26E1 PUSH2 0x25FA JUMP JUMPDEST JUMPDEST PUSH2 0x26ED DUP5 DUP3 DUP6 PUSH2 0x26A6 JUMP JUMPDEST POP SWAP4 SWAP3 POP POP POP JUMP JUMPDEST PUSH0 DUP3 PUSH1 0x1F DUP4 ADD SLT PUSH2 0x2709 JUMPI PUSH2 0x2708 PUSH2 0x22FB JUMP JUMPDEST JUMPDEST DUP2 CALLDATALOAD PUSH2 0x2719 DUP5 DUP3 PUSH1 0x20 DUP7 ADD PUSH2 0x26B4 JUMP JUMPDEST SWAP2 POP POP SWAP3 SWAP2 POP POP JUMP JUMPDEST PUSH0 DUP1 PUSH0 PUSH1 0x60 DUP5 DUP7 SUB SLT ISZERO PUSH2 0x2739 JUMPI PUSH2 0x2738 PUSH2 0x1FCB JUMP JUMPDEST JUMPDEST PUSH0 PUSH2 0x2746 DUP7 DUP3 DUP8 ADD PUSH2 0x21BE JUMP JUMPDEST SWAP4 POP POP PUSH1 0x20 PUSH2 0x2757 DUP7 DUP3 DUP8 ADD PUSH2 0x21BE JUMP JUMPDEST SWAP3 POP POP PUSH1 0x40 DUP5 ADD CALLDATALOAD PUSH8 0xFFFFFFFFFFFFFFFF DUP2 GT ISZERO PUSH2 0x2778 JUMPI PUSH2 0x2777 PUSH2 0x1FCF JUMP JUMPDEST JUMPDEST PUSH2 0x2784 DUP7 DUP3 DUP8 ADD PUSH2 0x26F5 JUMP JUMPDEST SWAP2 POP POP SWAP3 POP SWAP3 POP SWAP3 JUMP JUMPDEST PUSH0 DUP1 PUSH0 DUP1 PUSH1 0x80 DUP6 DUP8 SUB SLT ISZERO PUSH2 0x27A6 JUMPI PUSH2 0x27A5 PUSH2 0x1FCB JUMP JUMPDEST JUMPDEST PUSH0 PUSH2 0x27B3 DUP8 DUP3 DUP9 ADD PUSH2 0x21BE JUMP JUMPDEST SWAP5 POP POP PUSH1 0x20 PUSH2 0x27C4 DUP8 DUP3 DUP9 ADD PUSH2 0x21BE JUMP JUMPDEST SWAP4 POP POP PUSH1 0x40 PUSH2 0x27D5 DUP8 DUP3 DUP9 ADD PUSH2 0x21BE JUMP JUMPDEST SWAP3 POP POP PUSH1 0x60 PUSH2 0x27E6 DUP8 DUP3 DUP9 ADD PUSH2 0x21BE JUMP JUMPDEST SWAP2 POP POP SWAP3 SWAP6 SWAP2 SWAP5 POP SWAP3 POP JUMP JUMPDEST PUSH0 PUSH1 0x20 DUP3 DUP5 SUB SLT ISZERO PUSH2 0x2807 JUMPI PUSH2 0x2806 PUSH2 0x1FCB JUMP JUMPDEST JUMPDEST PUSH0 PUSH2 0x2814 DUP5 DUP3 DUP6 ADD PUSH2 0x22A9 JUMP JUMPDEST SWAP2 POP POP SWAP3 SWAP2 POP POP JUMP JUMPDEST PUSH0 DUP1 PUSH0 PUSH1 0x60 DUP5 DUP7 SUB SLT ISZERO PUSH2 0x2834 JUMPI PUSH2 0x2833 PUSH2 0x1FCB JUMP JUMPDEST JUMPDEST PUSH0 PUSH2 0x2841 DUP7 DUP3 DUP8 ADD PUSH2 0x21BE JUMP JUMPDEST SWAP4 POP POP PUSH1 0x20 PUSH2 0x2852 DUP7 DUP3 DUP8 ADD PUSH2 0x22A9 JUMP JUMPDEST SWAP3 POP POP PUSH1 0x40 PUSH2 0x2863 DUP7 DUP3 DUP8 ADD PUSH2 0x21BE JUMP JUMPDEST SWAP2 POP POP SWAP3 POP SWAP3 POP SWAP3 JUMP JUMPDEST PUSH0 DUP1 PUSH1 0x40 DUP4 DUP6 SUB SLT ISZERO PUSH2 0x2883 JUMPI PUSH2 0x2882 PUSH2 0x1FCB JUMP JUMPDEST JUMPDEST PUSH0 PUSH2 0x2890 DUP6 DUP3 DUP7 ADD PUSH2 0x21BE JUMP JUMPDEST SWAP3 POP POP PUSH1 0x20 PUSH2 0x28A1 DUP6 DUP3 DUP7 ADD PUSH2 0x21BE JUMP JUMPDEST SWAP2 POP POP SWAP3 POP SWAP3 SWAP1 POP JUMP JUMPDEST PUSH1 0x20 DUP3 ADD PUSH0 DUP3 ADD MLOAD PUSH2 0x28BF PUSH0 DUP6 ADD DUP3 PUSH2 0x245A JUMP JUMPDEST POP POP POP POP JUMP JUMPDEST PUSH0 PUSH1 0x20 DUP3 ADD SWAP1 POP PUSH2 0x28D8 PUSH0 DUP4 ADD DUP5 PUSH2 0x28AB JUMP JUMPDEST SWAP3 SWAP2 POP POP JUMP JUMPDEST PUSH0 PUSH1 0x20 DUP3 ADD SWAP1 POP PUSH2 0x28F1 PUSH0 DUP4 ADD DUP5 PUSH2 0x2222 JUMP JUMPDEST SWAP3 SWAP2 POP POP JUMP JUMPDEST PUSH0 DUP1 PUSH1 0x40 DUP4 DUP6 SUB SLT ISZERO PUSH2 0x290D JUMPI PUSH2 0x290C PUSH2 0x1FCB JUMP JUMPDEST JUMPDEST PUSH0 PUSH2 0x291A DUP6 DUP3 DUP7 ADD PUSH2 0x22A9 JUMP JUMPDEST SWAP3 POP POP PUSH1 0x20 PUSH2 0x292B DUP6 DUP3 DUP7 ADD PUSH2 0x22A9 JUMP JUMPDEST SWAP2 POP POP SWAP3 POP SWAP3 SWAP1 POP JUMP JUMPDEST PUSH32 0x416363657373436F6E74726F6C3A2063616E206F6E6C792072656E6F756E6365 PUSH0 DUP3 ADD MSTORE PUSH32 0x20726F6C657320666F722073656C660000000000000000000000000000000000 PUSH1 0x20 DUP3 ADD MSTORE POP JUMP JUMPDEST PUSH0 PUSH2 0x298F PUSH1 0x2F DUP4 PUSH2 0x2568 JUMP JUMPDEST SWAP2 POP PUSH2 0x299A DUP3 PUSH2 0x2935 JUMP JUMPDEST PUSH1 0x40 DUP3 ADD SWAP1 POP SWAP2 SWAP1 POP JUMP JUMPDEST PUSH0 PUSH1 0x20 DUP3 ADD SWAP1 POP DUP2 DUP2 SUB PUSH0 DUP4 ADD MSTORE PUSH2 0x29BC DUP2 PUSH2 0x2983 JUMP JUMPDEST SWAP1 POP SWAP2 SWAP1 POP JUMP JUMPDEST PUSH32 0x526563697069656E747320616E6420746F6B656E20616D6F756E7473206C656E PUSH0 DUP3 ADD MSTORE PUSH32 0x677468206D69736D617463680000000000000000000000000000000000000000 PUSH1 0x20 DUP3 ADD MSTORE POP JUMP JUMPDEST PUSH0 PUSH2 0x2A1D PUSH1 0x2C DUP4 PUSH2 0x2568 JUMP JUMPDEST SWAP2 POP PUSH2 0x2A28 DUP3 PUSH2 0x29C3 JUMP JUMPDEST PUSH1 0x40 DUP3 ADD SWAP1 POP SWAP2 SWAP1 POP JUMP JUMPDEST PUSH0 PUSH1 0x20 DUP3 ADD SWAP1 POP DUP2 DUP2 SUB PUSH0 DUP4 ADD MSTORE PUSH2 0x2A4A DUP2 PUSH2 0x2A11 JUMP JUMPDEST SWAP1 POP SWAP2 SWAP1 POP JUMP JUMPDEST PUSH32 0x4E487B7100000000000000000000000000000000000000000000000000000000 PUSH0 MSTORE PUSH1 0x32 PUSH1 0x4 MSTORE PUSH1 0x24 PUSH0 REVERT JUMPDEST PUSH2 0x2A87 DUP2 PUSH2 0x2282 JUMP JUMPDEST DUP3 MSTORE POP POP JUMP JUMPDEST PUSH0 PUSH1 0x40 DUP3 ADD SWAP1 POP PUSH2 0x2AA0 PUSH0 DUP4 ADD DUP6 PUSH2 0x2A7E JUMP JUMPDEST PUSH2 0x2AAD PUSH1 0x20 DUP4 ADD DUP5 PUSH2 0x2222 JUMP JUMPDEST SWAP4 SWAP3 POP POP POP JUMP JUMPDEST PUSH2 0x2ABD DUP2 PUSH2 0x2053 JUMP JUMPDEST DUP2 EQ PUSH2 0x2AC7 JUMPI PUSH0 DUP1 REVERT JUMPDEST POP JUMP JUMPDEST PUSH0 DUP2 MLOAD SWAP1 POP PUSH2 0x2AD8 DUP2 PUSH2 0x2AB4 JUMP JUMPDEST SWAP3 SWAP2 POP POP JUMP JUMPDEST PUSH0 PUSH1 0x20 DUP3 DUP5 SUB SLT ISZERO PUSH2 0x2AF3 JUMPI PUSH2 0x2AF2 PUSH2 0x1FCB JUMP JUMPDEST JUMPDEST PUSH0 PUSH2 0x2B00 DUP5 DUP3 DUP6 ADD PUSH2 0x2ACA JUMP JUMPDEST SWAP2 POP POP SWAP3 SWAP2 POP POP JUMP JUMPDEST PUSH32 0x546F6B656E207472616E73666572206661696C65640000000000000000000000 PUSH0 DUP3 ADD MSTORE POP JUMP JUMPDEST PUSH0 PUSH2 0x2B3D PUSH1 0x15 DUP4 PUSH2 0x2568 JUMP JUMPDEST SWAP2 POP PUSH2 0x2B48 DUP3 PUSH2 0x2B09 JUMP JUMPDEST PUSH1 0x20 DUP3 ADD SWAP1 POP SWAP2 SWAP1 POP JUMP JUMPDEST PUSH0 PUSH1 0x20 DUP3 ADD SWAP1 POP DUP2 DUP2 SUB PUSH0 DUP4 ADD MSTORE PUSH2 0x2B6A DUP2 PUSH2 0x2B31 JUMP JUMPDEST SWAP1 POP SWAP2 SWAP1 POP JUMP JUMPDEST PUSH0 DUP3 DUP3 MSTORE PUSH1 0x20 DUP3 ADD SWAP1 POP SWAP3 SWAP2 POP POP JUMP JUMPDEST PUSH0 DUP2 SWAP1 POP SWAP2 SWAP1 POP JUMP JUMPDEST PUSH2 0x2B93 DUP2 PUSH2 0x2282 JUMP JUMPDEST DUP3 MSTORE POP POP JUMP JUMPDEST PUSH0 PUSH2 0x2BA4 DUP4 DUP4 PUSH2 0x2B8A JUMP JUMPDEST PUSH1 0x20 DUP4 ADD SWAP1 POP SWAP3 SWAP2 POP POP JUMP JUMPDEST PUSH0 PUSH2 0x2BBE PUSH1 0x20 DUP5 ADD DUP5 PUSH2 0x22A9 JUMP JUMPDEST SWAP1 POP SWAP3 SWAP2 POP POP JUMP JUMPDEST PUSH0 PUSH1 0x20 DUP3 ADD SWAP1 POP SWAP2 SWAP1 POP JUMP JUMPDEST PUSH0 PUSH2 0x2BDD DUP4 DUP6 PUSH2 0x2B71 JUMP JUMPDEST SWAP4 POP PUSH2 0x2BE8 DUP3 PUSH2 0x2B81 JUMP JUMPDEST DUP1 PUSH0 JUMPDEST DUP6 DUP2 LT ISZERO PUSH2 0x2C20 JUMPI PUSH2 0x2BFD DUP3 DUP5 PUSH2 0x2BB0 JUMP JUMPDEST PUSH2 0x2C07 DUP9 DUP3 PUSH2 0x2B99 JUMP JUMPDEST SWAP8 POP PUSH2 0x2C12 DUP4 PUSH2 0x2BC6 JUMP JUMPDEST SWAP3 POP POP PUSH1 0x1 DUP2 ADD SWAP1 POP PUSH2 0x2BEB JUMP JUMPDEST POP DUP6 SWAP3 POP POP POP SWAP4 SWAP3 POP POP POP JUMP JUMPDEST PUSH0 DUP3 DUP3 MSTORE PUSH1 0x20 DUP3 ADD SWAP1 POP SWAP3 SWAP2 POP POP JUMP JUMPDEST PUSH0 DUP1 REVERT JUMPDEST DUP3 DUP2 DUP4 CALLDATACOPY POP POP POP JUMP JUMPDEST PUSH0 PUSH2 0x2C55 DUP4 DUP6 PUSH2 0x2C2D JUMP JUMPDEST SWAP4 POP PUSH32 0x7FFFFFFFFFFFFFFFFFFFFFFFFFFFFFFFFFFFFFFFFFFFFFFFFFFFFFFFFFFFFFF DUP4 GT ISZERO PUSH2 0x2C88 JUMPI PUSH2 0x2C87 PUSH2 0x2C3D JUMP JUMPDEST JUMPDEST PUSH1 0x20 DUP4 MUL SWAP3 POP PUSH2 0x2C99 DUP4 DUP6 DUP5 PUSH2 0x2C41 JUMP JUMPDEST DUP3 DUP5 ADD SWAP1 POP SWAP4 SWAP3 POP POP POP JUMP JUMPDEST PUSH0 PUSH1 0x40 DUP3 ADD SWAP1 POP DUP2 DUP2 SUB PUSH0 DUP4 ADD MSTORE PUSH2 0x2CBE DUP2 DUP7 DUP9 PUSH2 0x2BD2 JUMP JUMPDEST SWAP1 POP DUP2 DUP2 SUB PUSH1 0x20 DUP4 ADD MSTORE PUSH2 0x2CD3 DUP2 DUP5 DUP7 PUSH2 0x2C4A JUMP JUMPDEST SWAP1 POP SWAP6 SWAP5 POP POP POP POP POP JUMP JUMPDEST PUSH32 0x47616D6520646F6573206E6F7420657869737400000000000000000000000000 PUSH0 DUP3 ADD MSTORE POP JUMP JUMPDEST PUSH0 PUSH2 0x2D12 PUSH1 0x13 DUP4 PUSH2 0x2568 JUMP JUMPDEST SWAP2 POP PUSH2 0x2D1D DUP3 PUSH2 0x2CDE JUMP JUMPDEST PUSH1 0x20 DUP3 ADD SWAP1 POP SWAP2 SWAP1 POP JUMP JUMPDEST PUSH0 PUSH1 0x20 DUP3 ADD SWAP1 POP DUP2 DUP2 SUB PUSH0 DUP4 ADD MSTORE PUSH2 0x2D3F DUP2 PUSH2 0x2D06 JUMP JUMPDEST SWAP1 POP SWAP2 SWAP1 POP JUMP JUMPDEST PUSH32 0x4E487B7100000000000000000000000000000000000000000000000000000000 PUSH0 MSTORE PUSH1 0x22 PUSH1 0x4 MSTORE PUSH1 0x24 PUSH0 REVERT JUMPDEST PUSH0 PUSH1 0x2 DUP3 DIV SWAP1 POP PUSH1 0x1 DUP3 AND DUP1 PUSH2 0x2D8A JUMPI PUSH1 0x7F DUP3 AND SWAP2 POP JUMPDEST PUSH1 0x20 DUP3 LT DUP2 SUB PUSH2 0x2D9D JUMPI PUSH2 0x2D9C PUSH2 0x2D46 JUMP JUMPDEST JUMPDEST POP SWAP2 SWAP1 POP JUMP JUMPDEST PUSH0 DUP2 SWAP1 POP DUP2 PUSH0 MSTORE PUSH1 0x20 PUSH0 KECCAK256 SWAP1 POP SWAP2 SWAP1 POP JUMP JUMPDEST PUSH0 PUSH1 0x20 PUSH1 0x1F DUP4 ADD DIV SWAP1 POP SWAP2 SWAP1 POP JUMP JUMPDEST PUSH0 DUP3 DUP3 SHL SWAP1 POP SWAP3 SWAP2 POP POP JUMP JUMPDEST PUSH0 PUSH1 0x8 DUP4 MUL PUSH2 0x2DFF PUSH32 0xFFFFFFFFFFFFFFFFFFFFFFFFFFFFFFFFFFFFFFFFFFFFFFFFFFFFFFFFFFFFFFFF DUP3 PUSH2 0x2DC4 JUMP JUMPDEST PUSH2 0x2E09 DUP7 DUP4 PUSH2 0x2DC4 JUMP JUMPDEST SWAP6 POP DUP1 NOT DUP5 AND SWAP4 POP DUP1 DUP7 AND DUP5 OR SWAP3 POP POP POP SWAP4 SWAP3 POP POP POP JUMP JUMPDEST PUSH0 PUSH2 0x2E3B PUSH2 0x2E36 PUSH2 0x2E31 DUP5 PUSH2 0x219F JUMP JUMPDEST PUSH2 0x20A5 JUMP JUMPDEST PUSH2 0x219F JUMP JUMPDEST SWAP1 POP SWAP2 SWAP1 POP JUMP JUMPDEST PUSH0 DUP2 SWAP1 POP SWAP2 SWAP1 POP JUMP JUMPDEST PUSH2 0x2E54 DUP4 PUSH2 0x2E21 JUMP JUMPDEST PUSH2 0x2E68 PUSH2 0x2E60 DUP3 PUSH2 0x2E42 JUMP JUMPDEST DUP5 DUP5 SLOAD PUSH2 0x2DD0 JUMP JUMPDEST DUP3 SSTORE POP POP POP POP JUMP JUMPDEST PUSH0 SWAP1 JUMP JUMPDEST PUSH2 0x2E7C PUSH2 0x2E70 JUMP JUMPDEST PUSH2 0x2E87 DUP2 DUP5 DUP5 PUSH2 0x2E4B JUMP JUMPDEST POP POP POP JUMP JUMPDEST JUMPDEST DUP2 DUP2 LT ISZERO PUSH2 0x2EAA JUMPI PUSH2 0x2E9F PUSH0 DUP3 PUSH2 0x2E74 JUMP JUMPDEST PUSH1 0x1 DUP2 ADD SWAP1 POP PUSH2 0x2E8D JUMP JUMPDEST POP POP JUMP JUMPDEST PUSH1 0x1F DUP3 GT ISZERO PUSH2 0x2EEF JUMPI PUSH2 0x2EC0 DUP2 PUSH2 0x2DA3 JUMP JUMPDEST PUSH2 0x2EC9 DUP5 PUSH2 0x2DB5 JUMP JUMPDEST DUP2 ADD PUSH1 0x20 DUP6 LT ISZERO PUSH2 0x2ED8 JUMPI DUP2 SWAP1 POP JUMPDEST PUSH2 0x2EEC PUSH2 0x2EE4 DUP6 PUSH2 0x2DB5 JUMP JUMPDEST DUP4 ADD DUP3 PUSH2 0x2E8C JUMP JUMPDEST POP POP JUMPDEST POP POP POP JUMP JUMPDEST PUSH0 DUP3 DUP3 SHR SWAP1 POP SWAP3 SWAP2 POP POP JUMP JUMPDEST PUSH0 PUSH2 0x2F0F PUSH0 NOT DUP5 PUSH1 0x8 MUL PUSH2 0x2EF4 JUMP JUMPDEST NOT DUP1 DUP4 AND SWAP2 POP POP SWAP3 SWAP2 POP POP JUMP JUMPDEST PUSH0 PUSH2 0x2F27 DUP4 DUP4 PUSH2 0x2F00 JUMP JUMPDEST SWAP2 POP DUP3 PUSH1 0x2 MUL DUP3 OR SWAP1 POP SWAP3 SWAP2 POP POP JUMP JUMPDEST PUSH2 0x2F40 DUP3 PUSH2 0x2469 JUMP JUMPDEST PUSH8 0xFFFFFFFFFFFFFFFF DUP2 GT ISZERO PUSH2 0x2F59 JUMPI PUSH2 0x2F58 PUSH2 0x25FE JUMP JUMPDEST JUMPDEST PUSH2 0x2F63 DUP3 SLOAD PUSH2 0x2D73 JUMP JUMPDEST PUSH2 0x2F6E DUP3 DUP3 DUP6 PUSH2 0x2EAE JUMP JUMPDEST PUSH0 PUSH1 0x20 SWAP1 POP PUSH1 0x1F DUP4 GT PUSH1 0x1 DUP2 EQ PUSH2 0x2F9F JUMPI PUSH0 DUP5 ISZERO PUSH2 0x2F8D JUMPI DUP3 DUP8 ADD MLOAD SWAP1 POP JUMPDEST PUSH2 0x2F97 DUP6 DUP3 PUSH2 0x2F1C JUMP JUMPDEST DUP7 SSTORE POP PUSH2 0x2FFE JUMP JUMPDEST PUSH1 0x1F NOT DUP5 AND PUSH2 0x2FAD DUP7 PUSH2 0x2DA3 JUMP JUMPDEST PUSH0 JUMPDEST DUP3 DUP2 LT ISZERO PUSH2 0x2FD4 JUMPI DUP5 DUP10 ADD MLOAD DUP3 SSTORE PUSH1 0x1 DUP3 ADD SWAP2 POP PUSH1 0x20 DUP6 ADD SWAP5 POP PUSH1 0x20 DUP2 ADD SWAP1 POP PUSH2 0x2FAF JUMP JUMPDEST DUP7 DUP4 LT ISZERO PUSH2 0x2FF1 JUMPI DUP5 DUP10 ADD MLOAD PUSH2 0x2FED PUSH1 0x1F DUP10 AND DUP3 PUSH2 0x2F00 JUMP JUMPDEST DUP4 SSTORE POP JUMPDEST PUSH1 0x1 PUSH1 0x2 DUP9 MUL ADD DUP9 SSTORE POP POP POP JUMPDEST POP POP POP POP POP POP JUMP JUMPDEST PUSH0 PUSH1 0x60 DUP3 ADD SWAP1 POP PUSH2 0x3019 PUSH0 DUP4 ADD DUP7 PUSH2 0x2222 JUMP JUMPDEST PUSH2 0x3026 PUSH1 0x20 DUP4 ADD DUP6 PUSH2 0x2222 JUMP JUMPDEST DUP2 DUP2 SUB PUSH1 0x40 DUP4 ADD MSTORE PUSH2 0x3038 DUP2 DUP5 PUSH2 0x2578 JUMP JUMPDEST SWAP1 POP SWAP5 SWAP4 POP POP POP POP JUMP JUMPDEST PUSH32 0x4D656D62657220616C7265616479207265676973746572656400000000000000 PUSH0 DUP3 ADD MSTORE POP JUMP JUMPDEST PUSH0 PUSH2 0x3076 PUSH1 0x19 DUP4 PUSH2 0x2568 JUMP JUMPDEST SWAP2 POP PUSH2 0x3081 DUP3 PUSH2 0x3042 JUMP JUMPDEST PUSH1 0x20 DUP3 ADD SWAP1 POP SWAP2 SWAP1 POP JUMP JUMPDEST PUSH0 PUSH1 0x20 DUP3 ADD SWAP1 POP DUP2 DUP2 SUB PUSH0 DUP4 ADD MSTORE PUSH2 0x30A3 DUP2 PUSH2 0x306A JUMP JUMPDEST SWAP1 POP SWAP2 SWAP1 POP JUMP JUMPDEST PUSH0 PUSH1 0x40 DUP3 ADD SWAP1 POP PUSH2 0x30BD PUSH0 DUP4 ADD DUP6 PUSH2 0x2222 JUMP JUMPDEST PUSH2 0x30CA PUSH1 0x20 DUP4 ADD DUP5 PUSH2 0x2222 JUMP JUMPDEST SWAP4 SWAP3 POP POP POP JUMP JUMPDEST PUSH32 0x4D656D62657220646F6573206E6F742065786973740000000000000000000000 PUSH0 DUP3 ADD MSTORE POP JUMP JUMPDEST PUSH0 PUSH2 0x3105 PUSH1 0x15 DUP4 PUSH2 0x2568 JUMP JUMPDEST SWAP2 POP PUSH2 0x3110 DUP3 PUSH2 0x30D1 JUMP JUMPDEST PUSH1 0x20 DUP3 ADD SWAP1 POP SWAP2 SWAP1 POP JUMP JUMPDEST PUSH0 PUSH1 0x20 DUP3 ADD SWAP1 POP DUP2 DUP2 SUB PUSH0 DUP4 ADD MSTORE PUSH2 0x3132 DUP2 PUSH2 0x30F9 JUMP JUMPDEST SWAP1 POP SWAP2 SWAP1 POP JUMP JUMPDEST PUSH32 0x4368616C6C656E676520616C72656164792065786973747320666F7220746869 PUSH0 DUP3 ADD MSTORE PUSH32 0x73206D656D6265722C20646174652C20616E642067616D650000000000000000 PUSH1 0x20 DUP3 ADD MSTORE POP JUMP JUMPDEST PUSH0 PUSH2 0x3193 PUSH1 0x38 DUP4 PUSH2 0x2568 JUMP JUMPDEST SWAP2 POP PUSH2 0x319E DUP3 PUSH2 0x3139 JUMP JUMPDEST PUSH1 0x40 DUP3 ADD SWAP1 POP SWAP2 SWAP1 POP JUMP JUMPDEST PUSH0 PUSH1 0x20 DUP3 ADD SWAP1 POP DUP2 DUP2 SUB PUSH0 DUP4 ADD MSTORE PUSH2 0x31C0 DUP2 PUSH2 0x3187 JUMP JUMPDEST SWAP1 POP SWAP2 SWAP1 POP JUMP JUMPDEST PUSH0 PUSH1 0x40 DUP3 ADD SWAP1 POP PUSH2 0x31DA PUSH0 DUP4 ADD DUP6 PUSH2 0x2A7E JUMP JUMPDEST PUSH2 0x31E7 PUSH1 0x20 DUP4 ADD DUP5 PUSH2 0x2A7E JUMP JUMPDEST SWAP4 SWAP3 POP POP POP JUMP JUMPDEST PUSH0 DUP2 MLOAD SWAP1 POP PUSH2 0x31FC DUP2 PUSH2 0x21A8 JUMP JUMPDEST SWAP3 SWAP2 POP POP JUMP JUMPDEST PUSH0 PUSH1 0x20 DUP3 DUP5 SUB SLT ISZERO PUSH2 0x3217 JUMPI PUSH2 0x3216 PUSH2 0x1FCB JUMP JUMPDEST JUMPDEST PUSH0 PUSH2 0x3224 DUP5 DUP3 DUP6 ADD PUSH2 0x31EE JUMP JUMPDEST SWAP2 POP POP SWAP3 SWAP2 POP POP JUMP JUMPDEST PUSH32 0x496E73756666696369656E7420746F6B656E20616C6C6F77616E636500000000 PUSH0 DUP3 ADD MSTORE POP JUMP JUMPDEST PUSH0 PUSH2 0x3261 PUSH1 0x1C DUP4 PUSH2 0x2568 JUMP JUMPDEST SWAP2 POP PUSH2 0x326C DUP3 PUSH2 0x322D JUMP JUMPDEST PUSH1 0x20 DUP3 ADD SWAP1 POP SWAP2 SWAP1 POP JUMP JUMPDEST PUSH0 PUSH1 0x20 DUP3 ADD SWAP1 POP DUP2 DUP2 SUB PUSH0 DUP4 ADD MSTORE PUSH2 0x328E DUP2 PUSH2 0x3255 JUMP JUMPDEST SWAP1 POP SWAP2 SWAP1 POP JUMP JUMPDEST PUSH0 PUSH1 0x20 DUP3 ADD SWAP1 POP PUSH2 0x32A8 PUSH0 DUP4 ADD DUP5 PUSH2 0x2A7E JUMP JUMPDEST SWAP3 SWAP2 POP POP JUMP JUMPDEST PUSH32 0x496E73756666696369656E7420746F6B656E2062616C616E6365000000000000 PUSH0 DUP3 ADD MSTORE POP JUMP JUMPDEST PUSH0 PUSH2 0x32E2 PUSH1 0x1A DUP4 PUSH2 0x2568 JUMP JUMPDEST SWAP2 POP PUSH2 0x32ED DUP3 PUSH2 0x32AE JUMP JUMPDEST PUSH1 0x20 DUP3 ADD SWAP1 POP SWAP2 SWAP1 POP JUMP JUMPDEST PUSH0 PUSH1 0x20 DUP3 ADD SWAP1 POP DUP2 DUP2 SUB PUSH0 DUP4 ADD MSTORE PUSH2 0x330F DUP2 PUSH2 0x32D6 JUMP JUMPDEST SWAP1 POP SWAP2 SWAP1 POP JUMP JUMPDEST PUSH0 PUSH1 0x60 DUP3 ADD SWAP1 POP PUSH2 0x3329 PUSH0 DUP4 ADD DUP7 PUSH2 0x2A7E JUMP JUMPDEST PUSH2 0x3336 PUSH1 0x20 DUP4 ADD DUP6 PUSH2 0x2A7E JUMP JUMPDEST PUSH2 0x3343 PUSH1 0x40 DUP4 ADD DUP5 PUSH2 0x2222 JUMP JUMPDEST SWAP5 SWAP4 POP POP POP POP JUMP JUMPDEST PUSH32 0x4368616C6C656E676520646F6573206E6F742065786973740000000000000000 PUSH0 DUP3 ADD MSTORE POP JUMP JUMPDEST PUSH0 PUSH2 0x337F PUSH1 0x18 DUP4 PUSH2 0x2568 JUMP JUMPDEST SWAP2 POP PUSH2 0x338A DUP3 PUSH2 0x334B JUMP JUMPDEST PUSH1 0x20 DUP3 ADD SWAP1 POP SWAP2 SWAP1 POP JUMP JUMPDEST PUSH0 PUSH1 0x20 DUP3 ADD SWAP1 POP DUP2 DUP2 SUB PUSH0 DUP4 ADD MSTORE PUSH2 0x33AC DUP2 PUSH2 0x3373 JUMP JUMPDEST SWAP1 POP SWAP2 SWAP1 POP JUMP JUMPDEST PUSH0 DUP2 SWAP1 POP SWAP3 SWAP2 POP POP JUMP JUMPDEST PUSH32 0x416363657373436F6E74726F6C3A206163636F756E7420000000000000000000 PUSH0 DUP3 ADD MSTORE POP JUMP JUMPDEST PUSH0 PUSH2 0x33F1 PUSH1 0x17 DUP4 PUSH2 0x33B3 JUMP JUMPDEST SWAP2 POP PUSH2 0x33FC DUP3 PUSH2 0x33BD JUMP JUMPDEST PUSH1 0x17 DUP3 ADD SWAP1 POP SWAP2 SWAP1 POP JUMP JUMPDEST PUSH0 PUSH2 0x3411 DUP3 PUSH2 0x2469 JUMP JUMPDEST PUSH2 0x341B DUP2 DUP6 PUSH2 0x33B3 JUMP JUMPDEST SWAP4 POP PUSH2 0x342B DUP2 DUP6 PUSH1 0x20 DUP7 ADD PUSH2 0x2483 JUMP JUMPDEST DUP1 DUP5 ADD SWAP2 POP POP SWAP3 SWAP2 POP POP JUMP JUMPDEST PUSH32 0x206973206D697373696E6720726F6C6520000000000000000000000000000000 PUSH0 DUP3 ADD MSTORE POP JUMP JUMPDEST PUSH0 PUSH2 0x346B PUSH1 0x11 DUP4 PUSH2 0x33B3 JUMP JUMPDEST SWAP2 POP PUSH2 0x3476 DUP3 PUSH2 0x3437 JUMP JUMPDEST PUSH1 0x11 DUP3 ADD SWAP1 POP SWAP2 SWAP1 POP JUMP JUMPDEST PUSH0 PUSH2 0x348B DUP3 PUSH2 0x33E5 JUMP JUMPDEST SWAP2 POP PUSH2 0x3497 DUP3 DUP6 PUSH2 0x3407 JUMP JUMPDEST SWAP2 POP PUSH2 0x34A2 DUP3 PUSH2 0x345F JUMP JUMPDEST SWAP2 POP PUSH2 0x34AE DUP3 DUP5 PUSH2 0x3407 JUMP JUMPDEST SWAP2 POP DUP2 SWAP1 POP SWAP4 SWAP3 POP POP POP JUMP JUMPDEST PUSH0 PUSH1 0x20 DUP3 ADD SWAP1 POP DUP2 DUP2 SUB PUSH0 DUP4 ADD MSTORE PUSH2 0x34D2 DUP2 DUP5 PUSH2 0x2578 JUMP JUMPDEST SWAP1 POP SWAP3 SWAP2 POP POP JUMP JUMPDEST PUSH32 0x4E487B7100000000000000000000000000000000000000000000000000000000 PUSH0 MSTORE PUSH1 0x11 PUSH1 0x4 MSTORE PUSH1 0x24 PUSH0 REVERT JUMPDEST PUSH0 PUSH2 0x3511 DUP3 PUSH2 0x219F JUMP JUMPDEST SWAP2 POP PUSH2 0x351C DUP4 PUSH2 0x219F JUMP JUMPDEST SWAP3 POP DUP3 DUP3 MUL PUSH2 0x352A DUP2 PUSH2 0x219F JUMP JUMPDEST SWAP2 POP DUP3 DUP3 DIV DUP5 EQ DUP4 ISZERO OR PUSH2 0x3541 JUMPI PUSH2 0x3540 PUSH2 0x34DA JUMP JUMPDEST JUMPDEST POP SWAP3 SWAP2 POP POP JUMP JUMPDEST PUSH0 PUSH2 0x3552 DUP3 PUSH2 0x219F JUMP JUMPDEST SWAP2 POP PUSH2 0x355D DUP4 PUSH2 0x219F JUMP JUMPDEST SWAP3 POP DUP3 DUP3 ADD SWAP1 POP DUP1 DUP3 GT ISZERO PUSH2 0x3575 JUMPI PUSH2 0x3574 PUSH2 0x34DA JUMP JUMPDEST JUMPDEST SWAP3 SWAP2 POP POP JUMP JUMPDEST PUSH0 PUSH2 0x3585 DUP3 PUSH2 0x219F JUMP JUMPDEST SWAP2 POP PUSH0 DUP3 SUB PUSH2 0x3597 JUMPI PUSH2 0x3596 PUSH2 0x34DA JUMP JUMPDEST JUMPDEST PUSH1 0x1 DUP3 SUB SWAP1 POP SWAP2 SWAP1 POP JUMP JUMPDEST PUSH32 0x537472696E67733A20686578206C656E67746820696E73756666696369656E74 PUSH0 DUP3 ADD MSTORE POP JUMP JUMPDEST PUSH0 PUSH2 0x35D6 PUSH1 0x20 DUP4 PUSH2 0x2568 JUMP JUMPDEST SWAP2 POP PUSH2 0x35E1 DUP3 PUSH2 0x35A2 JUMP JUMPDEST PUSH1 0x20 DUP3 ADD SWAP1 POP SWAP2 SWAP1 POP JUMP JUMPDEST PUSH0 PUSH1 0x20 DUP3 ADD SWAP1 POP DUP2 DUP2 SUB PUSH0 DUP4 ADD MSTORE PUSH2 0x3603 DUP2 PUSH2 0x35CA JUMP JUMPDEST SWAP1 POP SWAP2 SWAP1 POP JUMP INVALID LOG2 PUSH5 0x6970667358 0x22 SLT KECCAK256 0x28 PUSH12 0xB5A183763629BDA4EFD4CCD1 DIV EQ 0xFB 0xCD 0xB3 DUP14 0xD3 EQ DUP14 SWAP12 SUB 0xD0 PUSH17 0x8FBCB6BCD464736F6C634300081A003300 "
				},
				"gasEstimates": {
					"creation": {
						"codeDepositCost": "2777600",
						"executionCost": "infinite",
						"totalCost": "infinite"
					},
					"external": {
						"ADMIN_ROLE()": "393",
						"DEFAULT_ADMIN_ROLE()": "420",
						"challengeRegister(uint256,uint256,uint256,uint256)": "infinite",
						"challenges(uint256,uint256,uint256)": "infinite",
						"distributePrizes(address[],uint256[])": "infinite",
						"entToken()": "infinite",
						"gameDelete(uint256)": "infinite",
						"gameEnd(uint256,uint256)": "infinite",
						"gameInfos(uint256)": "infinite",
						"gameLike(uint256,uint256)": "infinite",
						"gamePlay(uint256,uint256)": "infinite",
						"gameRegister(uint256,uint256,string)": "infinite",
						"gameUpdate(uint256,uint256,string)": "infinite",
						"getGameInfo(uint256)": "infinite",
						"getMemberInfo(uint256)": "infinite",
						"getRoleAdmin(bytes32)": "infinite",
						"grantAdminRole(address)": "infinite",
						"grantRole(bytes32,address)": "infinite",
						"hasRole(bytes32,address)": "3233",
						"memberInfos(uint256)": "infinite",
						"rankScoreUpdateChallenge(uint256,uint256,uint256,uint256)": "infinite",
						"rankScoreUpdateNormal(uint256,uint256,uint256,uint256)": "infinite",
						"registerMember(uint256,address,uint256)": "infinite",
						"renounceRole(bytes32,address)": "infinite",
						"revokeAdminRole(address)": "infinite",
						"revokeRole(bytes32,address)": "infinite",
						"rptToken()": "infinite",
						"setTokens(address,address)": "infinite",
						"supportsInterface(bytes4)": "764"
					}
				},
				"methodIdentifiers": {
					"ADMIN_ROLE()": "75b238fc",
					"DEFAULT_ADMIN_ROLE()": "a217fddf",
					"challengeRegister(uint256,uint256,uint256,uint256)": "ca1c996f",
					"challenges(uint256,uint256,uint256)": "28b69262",
					"distributePrizes(address[],uint256[])": "406a378a",
					"entToken()": "dd0c8082",
					"gameDelete(uint256)": "89b2c8e7",
					"gameEnd(uint256,uint256)": "aac2094a",
					"gameInfos(uint256)": "7d1b4687",
					"gameLike(uint256,uint256)": "f58ee354",
					"gamePlay(uint256,uint256)": "c02725f0",
					"gameRegister(uint256,uint256,string)": "8164586e",
					"gameUpdate(uint256,uint256,string)": "b3558075",
					"getGameInfo(uint256)": "47e1d550",
					"getMemberInfo(uint256)": "ae99aa3c",
					"getRoleAdmin(bytes32)": "248a9ca3",
					"grantAdminRole(address)": "c634b78e",
					"grantRole(bytes32,address)": "2f2ff15d",
					"hasRole(bytes32,address)": "91d14854",
					"memberInfos(uint256)": "bb10ab0f",
					"rankScoreUpdateChallenge(uint256,uint256,uint256,uint256)": "dd7d2b9f",
					"rankScoreUpdateNormal(uint256,uint256,uint256,uint256)": "8525ea16",
					"registerMember(uint256,address,uint256)": "9b882bb0",
					"renounceRole(bytes32,address)": "36568abe",
					"revokeAdminRole(address)": "9a19c7b0",
					"revokeRole(bytes32,address)": "d547741f",
					"rptToken()": "1b72fa3a",
					"setTokens(address,address)": "cbc7854e",
					"supportsInterface(bytes4)": "01ffc9a7"
				}
			},
			"storageLayout": {
				"storage": [
					{
						"astId": 737,
						"contract": "contracts/v2/tTikTrixGameEscrow.sol:tTikTrixGameEscrow",
						"label": "_roles",
						"offset": 0,
						"slot": "0",
						"type": "t_mapping(t_bytes32,t_struct(RoleData)732_storage)"
					},
					{
						"astId": 13,
						"contract": "contracts/v2/tTikTrixGameEscrow.sol:tTikTrixGameEscrow",
						"label": "entToken",
						"offset": 0,
						"slot": "1",
						"type": "t_contract(IERC20)1179"
					},
					{
						"astId": 16,
						"contract": "contracts/v2/tTikTrixGameEscrow.sol:tTikTrixGameEscrow",
						"label": "rptToken",
						"offset": 0,
						"slot": "2",
						"type": "t_contract(IERC20)1179"
					},
					{
						"astId": 48,
						"contract": "contracts/v2/tTikTrixGameEscrow.sol:tTikTrixGameEscrow",
						"label": "challenges",
						"offset": 0,
						"slot": "3",
						"type": "t_mapping(t_uint256,t_mapping(t_uint256,t_mapping(t_uint256,t_struct(ChallengeScore)36_storage)))"
					},
					{
						"astId": 53,
						"contract": "contracts/v2/tTikTrixGameEscrow.sol:tTikTrixGameEscrow",
						"label": "gameInfos",
						"offset": 0,
						"slot": "4",
						"type": "t_mapping(t_uint256,t_struct(GameInfo)25_storage)"
					},
					{
						"astId": 58,
						"contract": "contracts/v2/tTikTrixGameEscrow.sol:tTikTrixGameEscrow",
						"label": "memberInfos",
						"offset": 0,
						"slot": "5",
						"type": "t_mapping(t_uint256,t_struct(MemberInfo)39_storage)"
					}
				],
				"types": {
					"t_address": {
						"encoding": "inplace",
						"label": "address",
						"numberOfBytes": "20"
					},
					"t_bool": {
						"encoding": "inplace",
						"label": "bool",
						"numberOfBytes": "1"
					},
					"t_bytes32": {
						"encoding": "inplace",
						"label": "bytes32",
						"numberOfBytes": "32"
					},
					"t_contract(IERC20)1179": {
						"encoding": "inplace",
						"label": "contract IERC20",
						"numberOfBytes": "20"
					},
					"t_mapping(t_address,t_bool)": {
						"encoding": "mapping",
						"key": "t_address",
						"label": "mapping(address => bool)",
						"numberOfBytes": "32",
						"value": "t_bool"
					},
					"t_mapping(t_bytes32,t_struct(RoleData)732_storage)": {
						"encoding": "mapping",
						"key": "t_bytes32",
						"label": "mapping(bytes32 => struct AccessControl.RoleData)",
						"numberOfBytes": "32",
						"value": "t_struct(RoleData)732_storage"
					},
					"t_mapping(t_uint256,t_mapping(t_uint256,t_mapping(t_uint256,t_struct(ChallengeScore)36_storage)))": {
						"encoding": "mapping",
						"key": "t_uint256",
						"label": "mapping(uint256 => mapping(uint256 => mapping(uint256 => struct tTikTrixGameEscrow.ChallengeScore)))",
						"numberOfBytes": "32",
						"value": "t_mapping(t_uint256,t_mapping(t_uint256,t_struct(ChallengeScore)36_storage))"
					},
					"t_mapping(t_uint256,t_mapping(t_uint256,t_struct(ChallengeScore)36_storage))": {
						"encoding": "mapping",
						"key": "t_uint256",
						"label": "mapping(uint256 => mapping(uint256 => struct tTikTrixGameEscrow.ChallengeScore))",
						"numberOfBytes": "32",
						"value": "t_mapping(t_uint256,t_struct(ChallengeScore)36_storage)"
					},
					"t_mapping(t_uint256,t_struct(ChallengeScore)36_storage)": {
						"encoding": "mapping",
						"key": "t_uint256",
						"label": "mapping(uint256 => struct tTikTrixGameEscrow.ChallengeScore)",
						"numberOfBytes": "32",
						"value": "t_struct(ChallengeScore)36_storage"
					},
					"t_mapping(t_uint256,t_struct(GameInfo)25_storage)": {
						"encoding": "mapping",
						"key": "t_uint256",
						"label": "mapping(uint256 => struct tTikTrixGameEscrow.GameInfo)",
						"numberOfBytes": "32",
						"value": "t_struct(GameInfo)25_storage"
					},
					"t_mapping(t_uint256,t_struct(MemberInfo)39_storage)": {
						"encoding": "mapping",
						"key": "t_uint256",
						"label": "mapping(uint256 => struct tTikTrixGameEscrow.MemberInfo)",
						"numberOfBytes": "32",
						"value": "t_struct(MemberInfo)39_storage"
					},
					"t_string_storage": {
						"encoding": "bytes",
						"label": "string",
						"numberOfBytes": "32"
					},
					"t_struct(ChallengeScore)36_storage": {
						"encoding": "inplace",
						"label": "struct tTikTrixGameEscrow.ChallengeScore",
						"members": [
							{
								"astId": 27,
								"contract": "contracts/v2/tTikTrixGameEscrow.sol:tTikTrixGameEscrow",
								"label": "gameSeq",
								"offset": 0,
								"slot": "0",
								"type": "t_uint256"
							},
							{
								"astId": 29,
								"contract": "contracts/v2/tTikTrixGameEscrow.sol:tTikTrixGameEscrow",
								"label": "memberSeq",
								"offset": 0,
								"slot": "1",
								"type": "t_uint256"
							},
							{
								"astId": 31,
								"contract": "contracts/v2/tTikTrixGameEscrow.sol:tTikTrixGameEscrow",
								"label": "tokenAmount",
								"offset": 0,
								"slot": "2",
								"type": "t_uint256"
							},
							{
								"astId": 33,
								"contract": "contracts/v2/tTikTrixGameEscrow.sol:tTikTrixGameEscrow",
								"label": "score",
								"offset": 0,
								"slot": "3",
								"type": "t_uint256"
							},
							{
								"astId": 35,
								"contract": "contracts/v2/tTikTrixGameEscrow.sol:tTikTrixGameEscrow",
								"label": "exists",
								"offset": 0,
								"slot": "4",
								"type": "t_bool"
							}
						],
						"numberOfBytes": "160"
					},
					"t_struct(GameInfo)25_storage": {
						"encoding": "inplace",
						"label": "struct tTikTrixGameEscrow.GameInfo",
						"members": [
							{
								"astId": 18,
								"contract": "contracts/v2/tTikTrixGameEscrow.sol:tTikTrixGameEscrow",
								"label": "developerSeq",
								"offset": 0,
								"slot": "0",
								"type": "t_uint256"
							},
							{
								"astId": 20,
								"contract": "contracts/v2/tTikTrixGameEscrow.sol:tTikTrixGameEscrow",
								"label": "gameSeq",
								"offset": 0,
								"slot": "1",
								"type": "t_uint256"
							},
							{
								"astId": 22,
								"contract": "contracts/v2/tTikTrixGameEscrow.sol:tTikTrixGameEscrow",
								"label": "title",
								"offset": 0,
								"slot": "2",
								"type": "t_string_storage"
							},
							{
								"astId": 24,
								"contract": "contracts/v2/tTikTrixGameEscrow.sol:tTikTrixGameEscrow",
								"label": "exists",
								"offset": 0,
								"slot": "3",
								"type": "t_bool"
							}
						],
						"numberOfBytes": "128"
					},
					"t_struct(MemberInfo)39_storage": {
						"encoding": "inplace",
						"label": "struct tTikTrixGameEscrow.MemberInfo",
						"members": [
							{
								"astId": 38,
								"contract": "contracts/v2/tTikTrixGameEscrow.sol:tTikTrixGameEscrow",
								"label": "memberSeq",
								"offset": 0,
								"slot": "0",
								"type": "t_uint256"
							}
						],
						"numberOfBytes": "32"
					},
					"t_struct(RoleData)732_storage": {
						"encoding": "inplace",
						"label": "struct AccessControl.RoleData",
						"members": [
							{
								"astId": 729,
								"contract": "contracts/v2/tTikTrixGameEscrow.sol:tTikTrixGameEscrow",
								"label": "members",
								"offset": 0,
								"slot": "0",
								"type": "t_mapping(t_address,t_bool)"
							},
							{
								"astId": 731,
								"contract": "contracts/v2/tTikTrixGameEscrow.sol:tTikTrixGameEscrow",
								"label": "adminRole",
								"offset": 0,
								"slot": "1",
								"type": "t_bytes32"
							}
						],
						"numberOfBytes": "64"
					},
					"t_uint256": {
						"encoding": "inplace",
						"label": "uint256",
						"numberOfBytes": "32"
					}
				}
			},
			"userdoc": {
				"kind": "user",
				"methods": {},
				"version": 1
			}
		}
	}
}