{
	"contracts/v2/TikTrixEscrow.sol": {
		"TikTrixEscrow": {
			"abi": [
				{
					"inputs": [
						{
							"internalType": "address",
							"name": "entTokenAddress",
							"type": "address"
						},
						{
							"internalType": "address",
							"name": "rptTokenAddress",
							"type": "address"
						}
					],
					"stateMutability": "nonpayable",
					"type": "constructor"
				},
				{
					"anonymous": false,
					"inputs": [
						{
							"indexed": true,
							"internalType": "uint256",
							"name": "yyyymmdd",
							"type": "uint256"
						},
						{
							"indexed": true,
							"internalType": "uint256",
							"name": "gameSeq",
							"type": "uint256"
						},
						{
							"indexed": true,
							"internalType": "uint256",
							"name": "memberSeq",
							"type": "uint256"
						},
						{
							"indexed": false,
							"internalType": "uint256",
							"name": "tokenAmount",
							"type": "uint256"
						}
					],
					"name": "ChallengeRegistred",
					"type": "event"
				},
				{
					"anonymous": false,
					"inputs": [
						{
							"indexed": false,
							"internalType": "uint256",
							"name": "memberSeq",
							"type": "uint256"
						},
						{
							"indexed": false,
							"internalType": "uint256",
							"name": "tokenAmount",
							"type": "uint256"
						}
					],
					"name": "MemberRegistered",
					"type": "event"
				},
				{
					"anonymous": false,
					"inputs": [
						{
							"indexed": false,
							"internalType": "address[]",
							"name": "recipients",
							"type": "address[]"
						},
						{
							"indexed": false,
							"internalType": "uint256[]",
							"name": "tokenAmounts",
							"type": "uint256[]"
						}
					],
					"name": "PrizesDistributed",
					"type": "event"
				},
				{
					"anonymous": false,
					"inputs": [
						{
							"indexed": true,
							"internalType": "uint256",
							"name": "yyyymmdd",
							"type": "uint256"
						},
						{
							"indexed": true,
							"internalType": "uint256",
							"name": "gameSeq",
							"type": "uint256"
						},
						{
							"indexed": true,
							"internalType": "uint256",
							"name": "memberSeq",
							"type": "uint256"
						},
						{
							"indexed": false,
							"internalType": "uint256",
							"name": "newScore",
							"type": "uint256"
						}
					],
					"name": "RankScoreUpdateChallenge",
					"type": "event"
				},
				{
					"anonymous": false,
					"inputs": [
						{
							"indexed": true,
							"internalType": "uint256",
							"name": "yyyymmdd",
							"type": "uint256"
						},
						{
							"indexed": true,
							"internalType": "uint256",
							"name": "gameSeq",
							"type": "uint256"
						},
						{
							"indexed": true,
							"internalType": "uint256",
							"name": "memberSeq",
							"type": "uint256"
						},
						{
							"indexed": false,
							"internalType": "uint256",
							"name": "newScore",
							"type": "uint256"
						}
					],
					"name": "RankScoreUpdateNoraml",
					"type": "event"
				},
				{
					"anonymous": false,
					"inputs": [
						{
							"indexed": true,
							"internalType": "bytes32",
							"name": "role",
							"type": "bytes32"
						},
						{
							"indexed": true,
							"internalType": "bytes32",
							"name": "previousAdminRole",
							"type": "bytes32"
						},
						{
							"indexed": true,
							"internalType": "bytes32",
							"name": "newAdminRole",
							"type": "bytes32"
						}
					],
					"name": "RoleAdminChanged",
					"type": "event"
				},
				{
					"anonymous": false,
					"inputs": [
						{
							"indexed": true,
							"internalType": "bytes32",
							"name": "role",
							"type": "bytes32"
						},
						{
							"indexed": true,
							"internalType": "address",
							"name": "account",
							"type": "address"
						},
						{
							"indexed": true,
							"internalType": "address",
							"name": "sender",
							"type": "address"
						}
					],
					"name": "RoleGranted",
					"type": "event"
				},
				{
					"anonymous": false,
					"inputs": [
						{
							"indexed": true,
							"internalType": "bytes32",
							"name": "role",
							"type": "bytes32"
						},
						{
							"indexed": true,
							"internalType": "address",
							"name": "account",
							"type": "address"
						},
						{
							"indexed": true,
							"internalType": "address",
							"name": "sender",
							"type": "address"
						}
					],
					"name": "RoleRevoked",
					"type": "event"
				},
				{
					"inputs": [],
					"name": "ADMIN_ROLE",
					"outputs": [
						{
							"internalType": "bytes32",
							"name": "",
							"type": "bytes32"
						}
					],
					"stateMutability": "view",
					"type": "function"
				},
				{
					"inputs": [],
					"name": "DEFAULT_ADMIN_ROLE",
					"outputs": [
						{
							"internalType": "bytes32",
							"name": "",
							"type": "bytes32"
						}
					],
					"stateMutability": "view",
					"type": "function"
				},
				{
					"inputs": [
						{
							"internalType": "uint256",
							"name": "yyyymmdd",
							"type": "uint256"
						},
						{
							"internalType": "uint256",
							"name": "gameSeq",
							"type": "uint256"
						},
						{
							"internalType": "uint256",
							"name": "memberSeq",
							"type": "uint256"
						},
						{
							"internalType": "uint256",
							"name": "tokenAmount",
							"type": "uint256"
						}
					],
					"name": "challengeRegister",
					"outputs": [],
					"stateMutability": "nonpayable",
					"type": "function"
				},
				{
					"inputs": [
						{
							"internalType": "uint256",
							"name": "",
							"type": "uint256"
						},
						{
							"internalType": "uint256",
							"name": "",
							"type": "uint256"
						},
						{
							"internalType": "uint256",
							"name": "",
							"type": "uint256"
						}
					],
					"name": "challengeScores",
					"outputs": [
						{
							"internalType": "uint256",
							"name": "gameSeq",
							"type": "uint256"
						},
						{
							"internalType": "uint256",
							"name": "memberSeq",
							"type": "uint256"
						},
						{
							"internalType": "uint256",
							"name": "tokenAmount",
							"type": "uint256"
						},
						{
							"internalType": "uint256",
							"name": "score",
							"type": "uint256"
						},
						{
							"internalType": "bool",
							"name": "exists",
							"type": "bool"
						}
					],
					"stateMutability": "view",
					"type": "function"
				},
				{
					"inputs": [
						{
							"internalType": "address[]",
							"name": "recipients",
							"type": "address[]"
						},
						{
							"internalType": "uint256[]",
							"name": "tokenAmounts",
							"type": "uint256[]"
						}
					],
					"name": "distributePrizes",
					"outputs": [],
					"stateMutability": "nonpayable",
					"type": "function"
				},
				{
					"inputs": [],
					"name": "entToken",
					"outputs": [
						{
							"internalType": "contract IERC20Mintable",
							"name": "",
							"type": "address"
						}
					],
					"stateMutability": "view",
					"type": "function"
				},
				{
					"inputs": [
						{
							"internalType": "uint256",
							"name": "yyyymmdd",
							"type": "uint256"
						},
						{
							"internalType": "uint256",
							"name": "gameSeq",
							"type": "uint256"
						},
						{
							"internalType": "uint256",
							"name": "memberSeq",
							"type": "uint256"
						}
					],
					"name": "getChallengeScore",
					"outputs": [
						{
							"components": [
								{
									"internalType": "uint256",
									"name": "gameSeq",
									"type": "uint256"
								},
								{
									"internalType": "uint256",
									"name": "memberSeq",
									"type": "uint256"
								},
								{
									"internalType": "uint256",
									"name": "tokenAmount",
									"type": "uint256"
								},
								{
									"internalType": "uint256",
									"name": "score",
									"type": "uint256"
								},
								{
									"internalType": "bool",
									"name": "exists",
									"type": "bool"
								}
							],
							"internalType": "struct TikTrixEscrow.ChallengeScore",
							"name": "",
							"type": "tuple"
						}
					],
					"stateMutability": "view",
					"type": "function"
				},
				{
					"inputs": [
						{
							"internalType": "uint256",
							"name": "memberSeq",
							"type": "uint256"
						}
					],
					"name": "getMemberInfo",
					"outputs": [
						{
							"components": [
								{
									"internalType": "uint256",
									"name": "memberSeq",
									"type": "uint256"
								}
							],
							"internalType": "struct TikTrixEscrow.MemberInfo",
							"name": "",
							"type": "tuple"
						}
					],
					"stateMutability": "view",
					"type": "function"
				},
				{
					"inputs": [
						{
							"internalType": "bytes32",
							"name": "role",
							"type": "bytes32"
						}
					],
					"name": "getRoleAdmin",
					"outputs": [
						{
							"internalType": "bytes32",
							"name": "",
							"type": "bytes32"
						}
					],
					"stateMutability": "view",
					"type": "function"
				},
				{
					"inputs": [
						{
							"internalType": "address",
							"name": "account",
							"type": "address"
						}
					],
					"name": "grantAdminRole",
					"outputs": [],
					"stateMutability": "nonpayable",
					"type": "function"
				},
				{
					"inputs": [
						{
							"internalType": "bytes32",
							"name": "role",
							"type": "bytes32"
						},
						{
							"internalType": "address",
							"name": "account",
							"type": "address"
						}
					],
					"name": "grantRole",
					"outputs": [],
					"stateMutability": "nonpayable",
					"type": "function"
				},
				{
					"inputs": [
						{
							"internalType": "bytes32",
							"name": "role",
							"type": "bytes32"
						},
						{
							"internalType": "address",
							"name": "account",
							"type": "address"
						}
					],
					"name": "hasRole",
					"outputs": [
						{
							"internalType": "bool",
							"name": "",
							"type": "bool"
						}
					],
					"stateMutability": "view",
					"type": "function"
				},
				{
					"inputs": [
						{
							"internalType": "uint256",
							"name": "",
							"type": "uint256"
						}
					],
					"name": "memberIds",
					"outputs": [
						{
							"internalType": "uint256",
							"name": "",
							"type": "uint256"
						}
					],
					"stateMutability": "view",
					"type": "function"
				},
				{
					"inputs": [
						{
							"internalType": "uint256",
							"name": "",
							"type": "uint256"
						}
					],
					"name": "memberInfos",
					"outputs": [
						{
							"internalType": "uint256",
							"name": "memberSeq",
							"type": "uint256"
						}
					],
					"stateMutability": "view",
					"type": "function"
				},
				{
					"inputs": [
						{
							"internalType": "uint256",
							"name": "memberSeq",
							"type": "uint256"
						},
						{
							"internalType": "address",
							"name": "mintAddress",
							"type": "address"
						},
						{
							"internalType": "uint256",
							"name": "tokenAmount",
							"type": "uint256"
						}
					],
					"name": "memberRegister",
					"outputs": [],
					"stateMutability": "nonpayable",
					"type": "function"
				},
				{
					"inputs": [
						{
							"internalType": "uint256",
							"name": "yyyymmdd",
							"type": "uint256"
						},
						{
							"internalType": "uint256",
							"name": "gameSeq",
							"type": "uint256"
						},
						{
							"internalType": "uint256",
							"name": "memberSeq",
							"type": "uint256"
						},
						{
							"internalType": "uint256",
							"name": "newScore",
							"type": "uint256"
						}
					],
					"name": "rankScoreUpdateChallenge",
					"outputs": [],
					"stateMutability": "nonpayable",
					"type": "function"
				},
				{
					"inputs": [
						{
							"internalType": "uint256",
							"name": "yyyymmdd",
							"type": "uint256"
						},
						{
							"internalType": "uint256",
							"name": "gameSeq",
							"type": "uint256"
						},
						{
							"internalType": "uint256",
							"name": "memberSeq",
							"type": "uint256"
						},
						{
							"internalType": "uint256",
							"name": "newScore",
							"type": "uint256"
						}
					],
					"name": "rankScoreUpdateNormal",
					"outputs": [],
					"stateMutability": "nonpayable",
					"type": "function"
				},
				{
					"inputs": [
						{
							"internalType": "bytes32",
							"name": "role",
							"type": "bytes32"
						},
						{
							"internalType": "address",
							"name": "account",
							"type": "address"
						}
					],
					"name": "renounceRole",
					"outputs": [],
					"stateMutability": "nonpayable",
					"type": "function"
				},
				{
					"inputs": [
						{
							"internalType": "address",
							"name": "account",
							"type": "address"
						}
					],
					"name": "revokeAdminRole",
					"outputs": [],
					"stateMutability": "nonpayable",
					"type": "function"
				},
				{
					"inputs": [
						{
							"internalType": "bytes32",
							"name": "role",
							"type": "bytes32"
						},
						{
							"internalType": "address",
							"name": "account",
							"type": "address"
						}
					],
					"name": "revokeRole",
					"outputs": [],
					"stateMutability": "nonpayable",
					"type": "function"
				},
				{
					"inputs": [],
					"name": "rptToken",
					"outputs": [
						{
							"internalType": "contract IERC20Mintable",
							"name": "",
							"type": "address"
						}
					],
					"stateMutability": "view",
					"type": "function"
				},
				{
					"inputs": [
						{
							"internalType": "address",
							"name": "entTokenAddress",
							"type": "address"
						},
						{
							"internalType": "address",
							"name": "rptTokenAddress",
							"type": "address"
						}
					],
					"name": "setTokens",
					"outputs": [],
					"stateMutability": "nonpayable",
					"type": "function"
				},
				{
					"inputs": [
						{
							"internalType": "bytes4",
							"name": "interfaceId",
							"type": "bytes4"
						}
					],
					"name": "supportsInterface",
					"outputs": [
						{
							"internalType": "bool",
							"name": "",
							"type": "bool"
						}
					],
					"stateMutability": "view",
					"type": "function"
				}
			],
			"devdoc": {
				"events": {
					"RoleAdminChanged(bytes32,bytes32,bytes32)": {
						"details": "Emitted when `newAdminRole` is set as ``role``'s admin role, replacing `previousAdminRole` `DEFAULT_ADMIN_ROLE` is the starting admin for all roles, despite {RoleAdminChanged} not being emitted signaling this. _Available since v3.1._"
					},
					"RoleGranted(bytes32,address,address)": {
						"details": "Emitted when `account` is granted `role`. `sender` is the account that originated the contract call, an admin role bearer except when using {AccessControl-_setupRole}."
					},
					"RoleRevoked(bytes32,address,address)": {
						"details": "Emitted when `account` is revoked `role`. `sender` is the account that originated the contract call:   - if using `revokeRole`, it is the admin role bearer   - if using `renounceRole`, it is the role bearer (i.e. `account`)"
					}
				},
				"kind": "dev",
				"methods": {
					"getRoleAdmin(bytes32)": {
						"details": "Returns the admin role that controls `role`. See {grantRole} and {revokeRole}. To change a role's admin, use {_setRoleAdmin}."
					},
					"grantRole(bytes32,address)": {
						"details": "Grants `role` to `account`. If `account` had not been already granted `role`, emits a {RoleGranted} event. Requirements: - the caller must have ``role``'s admin role. May emit a {RoleGranted} event."
					},
					"hasRole(bytes32,address)": {
						"details": "Returns `true` if `account` has been granted `role`."
					},
					"renounceRole(bytes32,address)": {
						"details": "Revokes `role` from the calling account. Roles are often managed via {grantRole} and {revokeRole}: this function's purpose is to provide a mechanism for accounts to lose their privileges if they are compromised (such as when a trusted device is misplaced). If the calling account had been revoked `role`, emits a {RoleRevoked} event. Requirements: - the caller must be `account`. May emit a {RoleRevoked} event."
					},
					"revokeRole(bytes32,address)": {
						"details": "Revokes `role` from `account`. If `account` had been granted `role`, emits a {RoleRevoked} event. Requirements: - the caller must have ``role``'s admin role. May emit a {RoleRevoked} event."
					},
					"supportsInterface(bytes4)": {
						"details": "See {IERC165-supportsInterface}."
					}
				},
				"version": 1
			},
			"evm": {
				"assembly": "    /* \"contracts/v2/TikTrixEscrow.sol\":428:5574  contract TikTrixEscrow is AccessControl {... */\n  mstore(0x40, 0x80)\n    /* \"contracts/v2/TikTrixEscrow.sol\":1598:1867  constructor(address entTokenAddress, address rptTokenAddress) {... */\n  callvalue\n  dup1\n  iszero\n  tag_1\n  jumpi\n  0x00\n  dup1\n  revert\ntag_1:\n  pop\n  mload(0x40)\n  sub(codesize, bytecodeSize)\n  dup1\n  bytecodeSize\n  dup4\n  codecopy\n  dup2\n  dup2\n  add\n  0x40\n  mstore\n  dup2\n  add\n  swap1\n  tag_2\n  swap2\n  swap1\n  tag_3\n  jump\t// in\ntag_2:\n    /* \"contracts/v2/TikTrixEscrow.sol\":1696:1711  entTokenAddress */\n  dup2\n    /* \"contracts/v2/TikTrixEscrow.sol\":1670:1678  entToken */\n  0x01\n  0x00\n    /* \"contracts/v2/TikTrixEscrow.sol\":1670:1712  entToken = IERC20Mintable(entTokenAddress) */\n  0x0100\n  exp\n  dup2\n  sload\n  dup2\n  0xffffffffffffffffffffffffffffffffffffffff\n  mul\n  not\n  and\n  swap1\n  dup4\n  0xffffffffffffffffffffffffffffffffffffffff\n  and\n  mul\n  or\n  swap1\n  sstore\n  pop\n    /* \"contracts/v2/TikTrixEscrow.sol\":1748:1763  rptTokenAddress */\n  dup1\n    /* \"contracts/v2/TikTrixEscrow.sol\":1722:1730  rptToken */\n  0x02\n  0x00\n    /* \"contracts/v2/TikTrixEscrow.sol\":1722:1764  rptToken = IERC20Mintable(rptTokenAddress) */\n  0x0100\n  exp\n  dup2\n  sload\n  dup2\n  0xffffffffffffffffffffffffffffffffffffffff\n  mul\n  not\n  and\n  swap1\n  dup4\n  0xffffffffffffffffffffffffffffffffffffffff\n  and\n  mul\n  or\n  swap1\n  sstore\n  pop\n    /* \"contracts/v2/TikTrixEscrow.sol\":1774:1816  _setupRole(DEFAULT_ADMIN_ROLE, msg.sender) */\n  tag_6\n    /* \"https://github.com/OpenZeppelin/openzeppelin-contracts/blob/v4.8.0/contracts/access/AccessControl.sol\":2072:2076  0x00 */\n  0x00\n    /* \"contracts/v2/TikTrixEscrow.sol\":1785:1803  DEFAULT_ADMIN_ROLE */\n  dup1\n  shl\n    /* \"contracts/v2/TikTrixEscrow.sol\":1805:1815  msg.sender */\n  caller\n    /* \"contracts/v2/TikTrixEscrow.sol\":1774:1784  _setupRole */\n  shl(0x20, tag_7)\n    /* \"contracts/v2/TikTrixEscrow.sol\":1774:1816  _setupRole(DEFAULT_ADMIN_ROLE, msg.sender) */\n  0x20\n  shr\n  jump\t// in\ntag_6:\n    /* \"contracts/v2/TikTrixEscrow.sol\":1826:1860  _setupRole(ADMIN_ROLE, msg.sender) */\n  tag_8\n    /* \"contracts/v2/TikTrixEscrow.sol\":511:534  keccak256(\"ADMIN_ROLE\") */\n  0xa49807205ce4d355092ef5a8a18f56e8913cf4a201fbe287825b095693c21775\n    /* \"contracts/v2/TikTrixEscrow.sol\":1849:1859  msg.sender */\n  caller\n    /* \"contracts/v2/TikTrixEscrow.sol\":1826:1836  _setupRole */\n  shl(0x20, tag_7)\n    /* \"contracts/v2/TikTrixEscrow.sol\":1826:1860  _setupRole(ADMIN_ROLE, msg.sender) */\n  0x20\n  shr\n  jump\t// in\ntag_8:\n    /* \"contracts/v2/TikTrixEscrow.sol\":1598:1867  constructor(address entTokenAddress, address rptTokenAddress) {... */\n  pop\n  pop\n    /* \"contracts/v2/TikTrixEscrow.sol\":428:5574  contract TikTrixEscrow is AccessControl {... */\n  jump(tag_9)\n    /* \"https://github.com/OpenZeppelin/openzeppelin-contracts/blob/v4.8.0/contracts/access/AccessControl.sol\":6811:6921  function _setupRole(bytes32 role, address account) internal virtual {... */\ntag_7:\n    /* \"https://github.com/OpenZeppelin/openzeppelin-contracts/blob/v4.8.0/contracts/access/AccessControl.sol\":6889:6914  _grantRole(role, account) */\n  tag_11\n    /* \"https://github.com/OpenZeppelin/openzeppelin-contracts/blob/v4.8.0/contracts/access/AccessControl.sol\":6900:6904  role */\n  dup3\n    /* \"https://github.com/OpenZeppelin/openzeppelin-contracts/blob/v4.8.0/contracts/access/AccessControl.sol\":6906:6913  account */\n  dup3\n    /* \"https://github.com/OpenZeppelin/openzeppelin-contracts/blob/v4.8.0/contracts/access/AccessControl.sol\":6889:6899  _grantRole */\n  shl(0x20, tag_12)\n    /* \"https://github.com/OpenZeppelin/openzeppelin-contracts/blob/v4.8.0/contracts/access/AccessControl.sol\":6889:6914  _grantRole(role, account) */\n  0x20\n  shr\n  jump\t// in\ntag_11:\n    /* \"https://github.com/OpenZeppelin/openzeppelin-contracts/blob/v4.8.0/contracts/access/AccessControl.sol\":6811:6921  function _setupRole(bytes32 role, address account) internal virtual {... */\n  pop\n  pop\n  jump\t// out\n    /* \"https://github.com/OpenZeppelin/openzeppelin-contracts/blob/v4.8.0/contracts/access/AccessControl.sol\":7461:7694  function _grantRole(bytes32 role, address account) internal virtual {... */\ntag_12:\n    /* \"https://github.com/OpenZeppelin/openzeppelin-contracts/blob/v4.8.0/contracts/access/AccessControl.sol\":7544:7566  hasRole(role, account) */\n  tag_14\n    /* \"https://github.com/OpenZeppelin/openzeppelin-contracts/blob/v4.8.0/contracts/access/AccessControl.sol\":7552:7556  role */\n  dup3\n    /* \"https://github.com/OpenZeppelin/openzeppelin-contracts/blob/v4.8.0/contracts/access/AccessControl.sol\":7558:7565  account */\n  dup3\n    /* \"https://github.com/OpenZeppelin/openzeppelin-contracts/blob/v4.8.0/contracts/access/AccessControl.sol\":7544:7551  hasRole */\n  shl(0x20, tag_15)\n    /* \"https://github.com/OpenZeppelin/openzeppelin-contracts/blob/v4.8.0/contracts/access/AccessControl.sol\":7544:7566  hasRole(role, account) */\n  0x20\n  shr\n  jump\t// in\ntag_14:\n    /* \"https://github.com/OpenZeppelin/openzeppelin-contracts/blob/v4.8.0/contracts/access/AccessControl.sol\":7539:7688  if (!hasRole(role, account)) {... */\n  tag_16\n  jumpi\n    /* \"https://github.com/OpenZeppelin/openzeppelin-contracts/blob/v4.8.0/contracts/access/AccessControl.sol\":7614:7618  true */\n  0x01\n    /* \"https://github.com/OpenZeppelin/openzeppelin-contracts/blob/v4.8.0/contracts/access/AccessControl.sol\":7582:7588  _roles */\n  0x00\n    /* \"https://github.com/OpenZeppelin/openzeppelin-contracts/blob/v4.8.0/contracts/access/AccessControl.sol\":7582:7594  _roles[role] */\n  dup1\n    /* \"https://github.com/OpenZeppelin/openzeppelin-contracts/blob/v4.8.0/contracts/access/AccessControl.sol\":7589:7593  role */\n  dup5\n    /* \"https://github.com/OpenZeppelin/openzeppelin-contracts/blob/v4.8.0/contracts/access/AccessControl.sol\":7582:7594  _roles[role] */\n  dup2\n  mstore\n  0x20\n  add\n  swap1\n  dup2\n  mstore\n  0x20\n  add\n  0x00\n  keccak256\n    /* \"https://github.com/OpenZeppelin/openzeppelin-contracts/blob/v4.8.0/contracts/access/AccessControl.sol\":7582:7602  _roles[role].members */\n  0x00\n  add\n    /* \"https://github.com/OpenZeppelin/openzeppelin-contracts/blob/v4.8.0/contracts/access/AccessControl.sol\":7582:7611  _roles[role].members[account] */\n  0x00\n    /* \"https://github.com/OpenZeppelin/openzeppelin-contracts/blob/v4.8.0/contracts/access/AccessControl.sol\":7603:7610  account */\n  dup4\n    /* \"https://github.com/OpenZeppelin/openzeppelin-contracts/blob/v4.8.0/contracts/access/AccessControl.sol\":7582:7611  _roles[role].members[account] */\n  0xffffffffffffffffffffffffffffffffffffffff\n  and\n  0xffffffffffffffffffffffffffffffffffffffff\n  and\n  dup2\n  mstore\n  0x20\n  add\n  swap1\n  dup2\n  mstore\n  0x20\n  add\n  0x00\n  keccak256\n  0x00\n    /* \"https://github.com/OpenZeppelin/openzeppelin-contracts/blob/v4.8.0/contracts/access/AccessControl.sol\":7582:7618  _roles[role].members[account] = true */\n  0x0100\n  exp\n  dup2\n  sload\n  dup2\n  0xff\n  mul\n  not\n  and\n  swap1\n  dup4\n  iszero\n  iszero\n  mul\n  or\n  swap1\n  sstore\n  pop\n    /* \"https://github.com/OpenZeppelin/openzeppelin-contracts/blob/v4.8.0/contracts/access/AccessControl.sol\":7664:7676  _msgSender() */\n  tag_17\n    /* \"https://github.com/OpenZeppelin/openzeppelin-contracts/blob/v4.8.0/contracts/access/AccessControl.sol\":7664:7674  _msgSender */\n  shl(0x20, tag_18)\n    /* \"https://github.com/OpenZeppelin/openzeppelin-contracts/blob/v4.8.0/contracts/access/AccessControl.sol\":7664:7676  _msgSender() */\n  0x20\n  shr\n  jump\t// in\ntag_17:\n    /* \"https://github.com/OpenZeppelin/openzeppelin-contracts/blob/v4.8.0/contracts/access/AccessControl.sol\":7637:7677  RoleGranted(role, account, _msgSender()) */\n  0xffffffffffffffffffffffffffffffffffffffff\n  and\n    /* \"https://github.com/OpenZeppelin/openzeppelin-contracts/blob/v4.8.0/contracts/access/AccessControl.sol\":7655:7662  account */\n  dup2\n    /* \"https://github.com/OpenZeppelin/openzeppelin-contracts/blob/v4.8.0/contracts/access/AccessControl.sol\":7637:7677  RoleGranted(role, account, _msgSender()) */\n  0xffffffffffffffffffffffffffffffffffffffff\n  and\n    /* \"https://github.com/OpenZeppelin/openzeppelin-contracts/blob/v4.8.0/contracts/access/AccessControl.sol\":7649:7653  role */\n  dup4\n    /* \"https://github.com/OpenZeppelin/openzeppelin-contracts/blob/v4.8.0/contracts/access/AccessControl.sol\":7637:7677  RoleGranted(role, account, _msgSender()) */\n  0x2f8788117e7eff1d82e926ec794901d17c78024a50270940304540a733656f0d\n  mload(0x40)\n  mload(0x40)\n  dup1\n  swap2\n  sub\n  swap1\n  log4\n    /* \"https://github.com/OpenZeppelin/openzeppelin-contracts/blob/v4.8.0/contracts/access/AccessControl.sol\":7539:7688  if (!hasRole(role, account)) {... */\ntag_16:\n    /* \"https://github.com/OpenZeppelin/openzeppelin-contracts/blob/v4.8.0/contracts/access/AccessControl.sol\":7461:7694  function _grantRole(bytes32 role, address account) internal virtual {... */\n  pop\n  pop\n  jump\t// out\n    /* \"https://github.com/OpenZeppelin/openzeppelin-contracts/blob/v4.8.0/contracts/access/AccessControl.sol\":2895:3040  function hasRole(bytes32 role, address account) public view virtual override returns (bool) {... */\ntag_15:\n    /* \"https://github.com/OpenZeppelin/openzeppelin-contracts/blob/v4.8.0/contracts/access/AccessControl.sol\":2981:2985  bool */\n  0x00\n    /* \"https://github.com/OpenZeppelin/openzeppelin-contracts/blob/v4.8.0/contracts/access/AccessControl.sol\":3004:3010  _roles */\n  dup1\n    /* \"https://github.com/OpenZeppelin/openzeppelin-contracts/blob/v4.8.0/contracts/access/AccessControl.sol\":3004:3016  _roles[role] */\n  0x00\n    /* \"https://github.com/OpenZeppelin/openzeppelin-contracts/blob/v4.8.0/contracts/access/AccessControl.sol\":3011:3015  role */\n  dup5\n    /* \"https://github.com/OpenZeppelin/openzeppelin-contracts/blob/v4.8.0/contracts/access/AccessControl.sol\":3004:3016  _roles[role] */\n  dup2\n  mstore\n  0x20\n  add\n  swap1\n  dup2\n  mstore\n  0x20\n  add\n  0x00\n  keccak256\n    /* \"https://github.com/OpenZeppelin/openzeppelin-contracts/blob/v4.8.0/contracts/access/AccessControl.sol\":3004:3024  _roles[role].members */\n  0x00\n  add\n    /* \"https://github.com/OpenZeppelin/openzeppelin-contracts/blob/v4.8.0/contracts/access/AccessControl.sol\":3004:3033  _roles[role].members[account] */\n  0x00\n    /* \"https://github.com/OpenZeppelin/openzeppelin-contracts/blob/v4.8.0/contracts/access/AccessControl.sol\":3025:3032  account */\n  dup4\n    /* \"https://github.com/OpenZeppelin/openzeppelin-contracts/blob/v4.8.0/contracts/access/AccessControl.sol\":3004:3033  _roles[role].members[account] */\n  0xffffffffffffffffffffffffffffffffffffffff\n  and\n  0xffffffffffffffffffffffffffffffffffffffff\n  and\n  dup2\n  mstore\n  0x20\n  add\n  swap1\n  dup2\n  mstore\n  0x20\n  add\n  0x00\n  keccak256\n  0x00\n  swap1\n  sload\n  swap1\n  0x0100\n  exp\n  swap1\n  div\n  0xff\n  and\n    /* \"https://github.com/OpenZeppelin/openzeppelin-contracts/blob/v4.8.0/contracts/access/AccessControl.sol\":2997:3033  return _roles[role].members[account] */\n  swap1\n  pop\n    /* \"https://github.com/OpenZeppelin/openzeppelin-contracts/blob/v4.8.0/contracts/access/AccessControl.sol\":2895:3040  function hasRole(bytes32 role, address account) public view virtual override returns (bool) {... */\n  swap3\n  swap2\n  pop\n  pop\n  jump\t// out\n    /* \"https://github.com/OpenZeppelin/openzeppelin-contracts/blob/v4.8.0/contracts/utils/Context.sol\":640:736  function _msgSender() internal view virtual returns (address) {... */\ntag_18:\n    /* \"https://github.com/OpenZeppelin/openzeppelin-contracts/blob/v4.8.0/contracts/utils/Context.sol\":693:700  address */\n  0x00\n    /* \"https://github.com/OpenZeppelin/openzeppelin-contracts/blob/v4.8.0/contracts/utils/Context.sol\":719:729  msg.sender */\n  caller\n    /* \"https://github.com/OpenZeppelin/openzeppelin-contracts/blob/v4.8.0/contracts/utils/Context.sol\":712:729  return msg.sender */\n  swap1\n  pop\n    /* \"https://github.com/OpenZeppelin/openzeppelin-contracts/blob/v4.8.0/contracts/utils/Context.sol\":640:736  function _msgSender() internal view virtual returns (address) {... */\n  swap1\n  jump\t// out\n    /* \"#utility.yul\":88:205   */\ntag_22:\n    /* \"#utility.yul\":197:198   */\n  0x00\n    /* \"#utility.yul\":194:195   */\n  dup1\n    /* \"#utility.yul\":187:199   */\n  revert\n    /* \"#utility.yul\":334:460   */\ntag_24:\n    /* \"#utility.yul\":371:378   */\n  0x00\n    /* \"#utility.yul\":411:453   */\n  0xffffffffffffffffffffffffffffffffffffffff\n    /* \"#utility.yul\":404:409   */\n  dup3\n    /* \"#utility.yul\":400:454   */\n  and\n    /* \"#utility.yul\":389:454   */\n  swap1\n  pop\n    /* \"#utility.yul\":334:460   */\n  swap2\n  swap1\n  pop\n  jump\t// out\n    /* \"#utility.yul\":466:562   */\ntag_25:\n    /* \"#utility.yul\":503:510   */\n  0x00\n    /* \"#utility.yul\":532:556   */\n  tag_34\n    /* \"#utility.yul\":550:555   */\n  dup3\n    /* \"#utility.yul\":532:556   */\n  tag_24\n  jump\t// in\ntag_34:\n    /* \"#utility.yul\":521:556   */\n  swap1\n  pop\n    /* \"#utility.yul\":466:562   */\n  swap2\n  swap1\n  pop\n  jump\t// out\n    /* \"#utility.yul\":568:690   */\ntag_26:\n    /* \"#utility.yul\":641:665   */\n  tag_36\n    /* \"#utility.yul\":659:664   */\n  dup2\n    /* \"#utility.yul\":641:665   */\n  tag_25\n  jump\t// in\ntag_36:\n    /* \"#utility.yul\":634:639   */\n  dup2\n    /* \"#utility.yul\":631:666   */\n  eq\n    /* \"#utility.yul\":621:684   */\n  tag_37\n  jumpi\n    /* \"#utility.yul\":680:681   */\n  0x00\n    /* \"#utility.yul\":677:678   */\n  dup1\n    /* \"#utility.yul\":670:682   */\n  revert\n    /* \"#utility.yul\":621:684   */\ntag_37:\n    /* \"#utility.yul\":568:690   */\n  pop\n  jump\t// out\n    /* \"#utility.yul\":696:839   */\ntag_27:\n    /* \"#utility.yul\":753:758   */\n  0x00\n    /* \"#utility.yul\":784:790   */\n  dup2\n    /* \"#utility.yul\":778:791   */\n  mload\n    /* \"#utility.yul\":769:791   */\n  swap1\n  pop\n    /* \"#utility.yul\":800:833   */\n  tag_39\n    /* \"#utility.yul\":827:832   */\n  dup2\n    /* \"#utility.yul\":800:833   */\n  tag_26\n  jump\t// in\ntag_39:\n    /* \"#utility.yul\":696:839   */\n  swap3\n  swap2\n  pop\n  pop\n  jump\t// out\n    /* \"#utility.yul\":845:1352   */\ntag_3:\n    /* \"#utility.yul\":924:930   */\n  0x00\n    /* \"#utility.yul\":932:938   */\n  dup1\n    /* \"#utility.yul\":981:983   */\n  0x40\n    /* \"#utility.yul\":969:978   */\n  dup4\n    /* \"#utility.yul\":960:967   */\n  dup6\n    /* \"#utility.yul\":956:979   */\n  sub\n    /* \"#utility.yul\":952:984   */\n  slt\n    /* \"#utility.yul\":949:1068   */\n  iszero\n  tag_41\n  jumpi\n    /* \"#utility.yul\":987:1066   */\n  tag_42\n  tag_22\n  jump\t// in\ntag_42:\n    /* \"#utility.yul\":949:1068   */\ntag_41:\n    /* \"#utility.yul\":1107:1108   */\n  0x00\n    /* \"#utility.yul\":1132:1196   */\n  tag_43\n    /* \"#utility.yul\":1188:1195   */\n  dup6\n    /* \"#utility.yul\":1179:1185   */\n  dup3\n    /* \"#utility.yul\":1168:1177   */\n  dup7\n    /* \"#utility.yul\":1164:1186   */\n  add\n    /* \"#utility.yul\":1132:1196   */\n  tag_27\n  jump\t// in\ntag_43:\n    /* \"#utility.yul\":1122:1196   */\n  swap3\n  pop\n    /* \"#utility.yul\":1078:1206   */\n  pop\n    /* \"#utility.yul\":1245:1247   */\n  0x20\n    /* \"#utility.yul\":1271:1335   */\n  tag_44\n    /* \"#utility.yul\":1327:1334   */\n  dup6\n    /* \"#utility.yul\":1318:1324   */\n  dup3\n    /* \"#utility.yul\":1307:1316   */\n  dup7\n    /* \"#utility.yul\":1303:1325   */\n  add\n    /* \"#utility.yul\":1271:1335   */\n  tag_27\n  jump\t// in\ntag_44:\n    /* \"#utility.yul\":1261:1335   */\n  swap2\n  pop\n    /* \"#utility.yul\":1216:1345   */\n  pop\n    /* \"#utility.yul\":845:1352   */\n  swap3\n  pop\n  swap3\n  swap1\n  pop\n  jump\t// out\n    /* \"contracts/v2/TikTrixEscrow.sol\":428:5574  contract TikTrixEscrow is AccessControl {... */\ntag_9:\n  dataSize(sub_0)\n  dup1\n  dataOffset(sub_0)\n  0x00\n  codecopy\n  0x00\n  return\nstop\n\nsub_0: assembly {\n        /* \"contracts/v2/TikTrixEscrow.sol\":428:5574  contract TikTrixEscrow is AccessControl {... */\n      mstore(0x40, 0x80)\n      callvalue\n      dup1\n      iszero\n      tag_1\n      jumpi\n      0x00\n      dup1\n      revert\n    tag_1:\n      pop\n      jumpi(tag_2, lt(calldatasize, 0x04))\n      shr(0xe0, calldataload(0x00))\n      dup1\n      0x9a19c7b0\n      gt\n      tag_26\n      jumpi\n      dup1\n      0xc634b78e\n      gt\n      tag_27\n      jumpi\n      dup1\n      0xc634b78e\n      eq\n      tag_20\n      jumpi\n      dup1\n      0xca1c996f\n      eq\n      tag_21\n      jumpi\n      dup1\n      0xcbc7854e\n      eq\n      tag_22\n      jumpi\n      dup1\n      0xd547741f\n      eq\n      tag_23\n      jumpi\n      dup1\n      0xdd0c8082\n      eq\n      tag_24\n      jumpi\n      dup1\n      0xdd7d2b9f\n      eq\n      tag_25\n      jumpi\n      jump(tag_2)\n    tag_27:\n      dup1\n      0x9a19c7b0\n      eq\n      tag_14\n      jumpi\n      dup1\n      0xa217fddf\n      eq\n      tag_15\n      jumpi\n      dup1\n      0xae99aa3c\n      eq\n      tag_16\n      jumpi\n      dup1\n      0xaea08734\n      eq\n      tag_17\n      jumpi\n      dup1\n      0xb5b0e48a\n      eq\n      tag_18\n      jumpi\n      dup1\n      0xbb10ab0f\n      eq\n      tag_19\n      jumpi\n      jump(tag_2)\n    tag_26:\n      dup1\n      0x355b9d3f\n      gt\n      tag_28\n      jumpi\n      dup1\n      0x355b9d3f\n      eq\n      tag_8\n      jumpi\n      dup1\n      0x36568abe\n      eq\n      tag_9\n      jumpi\n      dup1\n      0x406a378a\n      eq\n      tag_10\n      jumpi\n      dup1\n      0x75b238fc\n      eq\n      tag_11\n      jumpi\n      dup1\n      0x8525ea16\n      eq\n      tag_12\n      jumpi\n      dup1\n      0x91d14854\n      eq\n      tag_13\n      jumpi\n      jump(tag_2)\n    tag_28:\n      dup1\n      0x01ffc9a7\n      eq\n      tag_3\n      jumpi\n      dup1\n      0x1b72fa3a\n      eq\n      tag_4\n      jumpi\n      dup1\n      0x1fd3c85b\n      eq\n      tag_5\n      jumpi\n      dup1\n      0x248a9ca3\n      eq\n      tag_6\n      jumpi\n      dup1\n      0x2f2ff15d\n      eq\n      tag_7\n      jumpi\n    tag_2:\n      0x00\n      dup1\n      revert\n        /* \"https://github.com/OpenZeppelin/openzeppelin-contracts/blob/v4.8.0/contracts/access/AccessControl.sol\":2606:2808  function supportsInterface(bytes4 interfaceId) public view virtual override returns (bool) {... */\n    tag_3:\n      tag_29\n      0x04\n      dup1\n      calldatasize\n      sub\n      dup2\n      add\n      swap1\n      tag_30\n      swap2\n      swap1\n      tag_31\n      jump\t// in\n    tag_30:\n      tag_32\n      jump\t// in\n    tag_29:\n      mload(0x40)\n      tag_33\n      swap2\n      swap1\n      tag_34\n      jump\t// in\n    tag_33:\n      mload(0x40)\n      dup1\n      swap2\n      sub\n      swap1\n      return\n        /* \"contracts/v2/TikTrixEscrow.sol\":577:607  IERC20Mintable public rptToken */\n    tag_4:\n      tag_35\n      tag_36\n      jump\t// in\n    tag_35:\n      mload(0x40)\n      tag_37\n      swap2\n      swap1\n      tag_38\n      jump\t// in\n    tag_37:\n      mload(0x40)\n      dup1\n      swap2\n      sub\n      swap1\n      return\n        /* \"contracts/v2/TikTrixEscrow.sol\":887:913  uint256[] public memberIds */\n    tag_5:\n      tag_39\n      0x04\n      dup1\n      calldatasize\n      sub\n      dup2\n      add\n      swap1\n      tag_40\n      swap2\n      swap1\n      tag_41\n      jump\t// in\n    tag_40:\n      tag_42\n      jump\t// in\n    tag_39:\n      mload(0x40)\n      tag_43\n      swap2\n      swap1\n      tag_44\n      jump\t// in\n    tag_43:\n      mload(0x40)\n      dup1\n      swap2\n      sub\n      swap1\n      return\n        /* \"https://github.com/OpenZeppelin/openzeppelin-contracts/blob/v4.8.0/contracts/access/AccessControl.sol\":4378:4507  function getRoleAdmin(bytes32 role) public view virtual override returns (bytes32) {... */\n    tag_6:\n      tag_45\n      0x04\n      dup1\n      calldatasize\n      sub\n      dup2\n      add\n      swap1\n      tag_46\n      swap2\n      swap1\n      tag_47\n      jump\t// in\n    tag_46:\n      tag_48\n      jump\t// in\n    tag_45:\n      mload(0x40)\n      tag_49\n      swap2\n      swap1\n      tag_50\n      jump\t// in\n    tag_49:\n      mload(0x40)\n      dup1\n      swap2\n      sub\n      swap1\n      return\n        /* \"https://github.com/OpenZeppelin/openzeppelin-contracts/blob/v4.8.0/contracts/access/AccessControl.sol\":4803:4948  function grantRole(bytes32 role, address account) public virtual override onlyRole(getRoleAdmin(role)) {... */\n    tag_7:\n      tag_51\n      0x04\n      dup1\n      calldatasize\n      sub\n      dup2\n      add\n      swap1\n      tag_52\n      swap2\n      swap1\n      tag_53\n      jump\t// in\n    tag_52:\n      tag_54\n      jump\t// in\n    tag_51:\n      stop\n        /* \"contracts/v2/TikTrixEscrow.sol\":960:1057  mapping(uint256 => mapping(uint256 => mapping(uint256 => ChallengeScore))) public challengeScores */\n    tag_8:\n      tag_55\n      0x04\n      dup1\n      calldatasize\n      sub\n      dup2\n      add\n      swap1\n      tag_56\n      swap2\n      swap1\n      tag_57\n      jump\t// in\n    tag_56:\n      tag_58\n      jump\t// in\n    tag_55:\n      mload(0x40)\n      tag_59\n      swap6\n      swap5\n      swap4\n      swap3\n      swap2\n      swap1\n      tag_60\n      jump\t// in\n    tag_59:\n      mload(0x40)\n      dup1\n      swap2\n      sub\n      swap1\n      return\n        /* \"https://github.com/OpenZeppelin/openzeppelin-contracts/blob/v4.8.0/contracts/access/AccessControl.sol\":5912:6126  function renounceRole(bytes32 role, address account) public virtual override {... */\n    tag_9:\n      tag_61\n      0x04\n      dup1\n      calldatasize\n      sub\n      dup2\n      add\n      swap1\n      tag_62\n      swap2\n      swap1\n      tag_53\n      jump\t// in\n    tag_62:\n      tag_63\n      jump\t// in\n    tag_61:\n      stop\n        /* \"contracts/v2/TikTrixEscrow.sol\":4589:5048  function distributePrizes(address[] calldata recipients, uint256[] calldata tokenAmounts) external onlyRole(ADMIN_ROLE) {... */\n    tag_10:\n      tag_64\n      0x04\n      dup1\n      calldatasize\n      sub\n      dup2\n      add\n      swap1\n      tag_65\n      swap2\n      swap1\n      tag_66\n      jump\t// in\n    tag_65:\n      tag_67\n      jump\t// in\n    tag_64:\n      stop\n        /* \"contracts/v2/TikTrixEscrow.sol\":474:534  bytes32 public constant ADMIN_ROLE = keccak256(\"ADMIN_ROLE\") */\n    tag_11:\n      tag_68\n      tag_69\n      jump\t// in\n    tag_68:\n      mload(0x40)\n      tag_70\n      swap2\n      swap1\n      tag_50\n      jump\t// in\n    tag_70:\n      mload(0x40)\n      dup1\n      swap2\n      sub\n      swap1\n      return\n        /* \"contracts/v2/TikTrixEscrow.sol\":3790:4052  function rankScoreUpdateNormal(... */\n    tag_12:\n      tag_71\n      0x04\n      dup1\n      calldatasize\n      sub\n      dup2\n      add\n      swap1\n      tag_72\n      swap2\n      swap1\n      tag_73\n      jump\t// in\n    tag_72:\n      tag_74\n      jump\t// in\n    tag_71:\n      stop\n        /* \"https://github.com/OpenZeppelin/openzeppelin-contracts/blob/v4.8.0/contracts/access/AccessControl.sol\":2895:3040  function hasRole(bytes32 role, address account) public view virtual override returns (bool) {... */\n    tag_13:\n      tag_75\n      0x04\n      dup1\n      calldatasize\n      sub\n      dup2\n      add\n      swap1\n      tag_76\n      swap2\n      swap1\n      tag_53\n      jump\t// in\n    tag_76:\n      tag_77\n      jump\t// in\n    tag_75:\n      mload(0x40)\n      tag_78\n      swap2\n      swap1\n      tag_34\n      jump\t// in\n    tag_78:\n      mload(0x40)\n      dup1\n      swap2\n      sub\n      swap1\n      return\n        /* \"contracts/v2/TikTrixEscrow.sol\":2003:2129  function revokeAdminRole(address account) public onlyRole(DEFAULT_ADMIN_ROLE) {... */\n    tag_14:\n      tag_79\n      0x04\n      dup1\n      calldatasize\n      sub\n      dup2\n      add\n      swap1\n      tag_80\n      swap2\n      swap1\n      tag_81\n      jump\t// in\n    tag_80:\n      tag_82\n      jump\t// in\n    tag_79:\n      stop\n        /* \"https://github.com/OpenZeppelin/openzeppelin-contracts/blob/v4.8.0/contracts/access/AccessControl.sol\":2027:2076  bytes32 public constant DEFAULT_ADMIN_ROLE = 0x00 */\n    tag_15:\n      tag_83\n      tag_84\n      jump\t// in\n    tag_83:\n      mload(0x40)\n      tag_85\n      swap2\n      swap1\n      tag_50\n      jump\t// in\n    tag_85:\n      mload(0x40)\n      dup1\n      swap2\n      sub\n      swap1\n      return\n        /* \"contracts/v2/TikTrixEscrow.sol\":5054:5264  function getMemberInfo(uint256 memberSeq) external view returns (MemberInfo memory) {... */\n    tag_16:\n      tag_86\n      0x04\n      dup1\n      calldatasize\n      sub\n      dup2\n      add\n      swap1\n      tag_87\n      swap2\n      swap1\n      tag_41\n      jump\t// in\n    tag_87:\n      tag_88\n      jump\t// in\n    tag_86:\n      mload(0x40)\n      tag_89\n      swap2\n      swap1\n      tag_90\n      jump\t// in\n    tag_89:\n      mload(0x40)\n      dup1\n      swap2\n      sub\n      swap1\n      return\n        /* \"contracts/v2/TikTrixEscrow.sol\":2351:2791  function memberRegister(uint256 memberSeq, address mintAddress, uint256 tokenAmount) external onlyRole(ADMIN_ROLE) {... */\n    tag_17:\n      tag_91\n      0x04\n      dup1\n      calldatasize\n      sub\n      dup2\n      add\n      swap1\n      tag_92\n      swap2\n      swap1\n      tag_93\n      jump\t// in\n    tag_92:\n      tag_94\n      jump\t// in\n    tag_91:\n      stop\n        /* \"contracts/v2/TikTrixEscrow.sol\":5270:5571  function getChallengeScore(uint256 yyyymmdd, uint256 gameSeq, uint256 memberSeq) external view returns (ChallengeScore memory) {... */\n    tag_18:\n      tag_95\n      0x04\n      dup1\n      calldatasize\n      sub\n      dup2\n      add\n      swap1\n      tag_96\n      swap2\n      swap1\n      tag_57\n      jump\t// in\n    tag_96:\n      tag_97\n      jump\t// in\n    tag_95:\n      mload(0x40)\n      tag_98\n      swap2\n      swap1\n      tag_99\n      jump\t// in\n    tag_98:\n      mload(0x40)\n      dup1\n      swap2\n      sub\n      swap1\n      return\n        /* \"contracts/v2/TikTrixEscrow.sol\":832:881  mapping(uint256 => MemberInfo) public memberInfos */\n    tag_19:\n      tag_100\n      0x04\n      dup1\n      calldatasize\n      sub\n      dup2\n      add\n      swap1\n      tag_101\n      swap2\n      swap1\n      tag_41\n      jump\t// in\n    tag_101:\n      tag_102\n      jump\t// in\n    tag_100:\n      mload(0x40)\n      tag_103\n      swap2\n      swap1\n      tag_44\n      jump\t// in\n    tag_103:\n      mload(0x40)\n      dup1\n      swap2\n      sub\n      swap1\n      return\n        /* \"contracts/v2/TikTrixEscrow.sol\":1873:1997  function grantAdminRole(address account) public onlyRole(DEFAULT_ADMIN_ROLE) {... */\n    tag_20:\n      tag_104\n      0x04\n      dup1\n      calldatasize\n      sub\n      dup2\n      add\n      swap1\n      tag_105\n      swap2\n      swap1\n      tag_81\n      jump\t// in\n    tag_105:\n      tag_106\n      jump\t// in\n    tag_104:\n      stop\n        /* \"contracts/v2/TikTrixEscrow.sol\":2797:3784  function challengeRegister(... */\n    tag_21:\n      tag_107\n      0x04\n      dup1\n      calldatasize\n      sub\n      dup2\n      add\n      swap1\n      tag_108\n      swap2\n      swap1\n      tag_73\n      jump\t// in\n    tag_108:\n      tag_109\n      jump\t// in\n    tag_107:\n      stop\n        /* \"contracts/v2/TikTrixEscrow.sol\":2135:2345  function setTokens(address entTokenAddress, address rptTokenAddress) external onlyRole(ADMIN_ROLE) {... */\n    tag_22:\n      tag_110\n      0x04\n      dup1\n      calldatasize\n      sub\n      dup2\n      add\n      swap1\n      tag_111\n      swap2\n      swap1\n      tag_112\n      jump\t// in\n    tag_111:\n      tag_113\n      jump\t// in\n    tag_110:\n      stop\n        /* \"https://github.com/OpenZeppelin/openzeppelin-contracts/blob/v4.8.0/contracts/access/AccessControl.sol\":5228:5375  function revokeRole(bytes32 role, address account) public virtual override onlyRole(getRoleAdmin(role)) {... */\n    tag_23:\n      tag_114\n      0x04\n      dup1\n      calldatasize\n      sub\n      dup2\n      add\n      swap1\n      tag_115\n      swap2\n      swap1\n      tag_53\n      jump\t// in\n    tag_115:\n      tag_116\n      jump\t// in\n    tag_114:\n      stop\n        /* \"contracts/v2/TikTrixEscrow.sol\":541:571  IERC20Mintable public entToken */\n    tag_24:\n      tag_117\n      tag_118\n      jump\t// in\n    tag_117:\n      mload(0x40)\n      tag_119\n      swap2\n      swap1\n      tag_38\n      jump\t// in\n    tag_119:\n      mload(0x40)\n      dup1\n      swap2\n      sub\n      swap1\n      return\n        /* \"contracts/v2/TikTrixEscrow.sol\":4058:4583  function rankScoreUpdateChallenge(... */\n    tag_25:\n      tag_120\n      0x04\n      dup1\n      calldatasize\n      sub\n      dup2\n      add\n      swap1\n      tag_121\n      swap2\n      swap1\n      tag_73\n      jump\t// in\n    tag_121:\n      tag_122\n      jump\t// in\n    tag_120:\n      stop\n        /* \"https://github.com/OpenZeppelin/openzeppelin-contracts/blob/v4.8.0/contracts/access/AccessControl.sol\":2606:2808  function supportsInterface(bytes4 interfaceId) public view virtual override returns (bool) {... */\n    tag_32:\n        /* \"https://github.com/OpenZeppelin/openzeppelin-contracts/blob/v4.8.0/contracts/access/AccessControl.sol\":2691:2695  bool */\n      0x00\n        /* \"https://github.com/OpenZeppelin/openzeppelin-contracts/blob/v4.8.0/contracts/access/AccessControl.sol\":2729:2761  type(IAccessControl).interfaceId */\n      0x7965db0b00000000000000000000000000000000000000000000000000000000\n        /* \"https://github.com/OpenZeppelin/openzeppelin-contracts/blob/v4.8.0/contracts/access/AccessControl.sol\":2714:2761  interfaceId == type(IAccessControl).interfaceId */\n      not(0xffffffffffffffffffffffffffffffffffffffffffffffffffffffff)\n      and\n        /* \"https://github.com/OpenZeppelin/openzeppelin-contracts/blob/v4.8.0/contracts/access/AccessControl.sol\":2714:2725  interfaceId */\n      dup3\n        /* \"https://github.com/OpenZeppelin/openzeppelin-contracts/blob/v4.8.0/contracts/access/AccessControl.sol\":2714:2761  interfaceId == type(IAccessControl).interfaceId */\n      not(0xffffffffffffffffffffffffffffffffffffffffffffffffffffffff)\n      and\n      eq\n        /* \"https://github.com/OpenZeppelin/openzeppelin-contracts/blob/v4.8.0/contracts/access/AccessControl.sol\":2714:2801  interfaceId == type(IAccessControl).interfaceId || super.supportsInterface(interfaceId) */\n      dup1\n      tag_124\n      jumpi\n      pop\n        /* \"https://github.com/OpenZeppelin/openzeppelin-contracts/blob/v4.8.0/contracts/access/AccessControl.sol\":2765:2801  super.supportsInterface(interfaceId) */\n      tag_125\n        /* \"https://github.com/OpenZeppelin/openzeppelin-contracts/blob/v4.8.0/contracts/access/AccessControl.sol\":2789:2800  interfaceId */\n      dup3\n        /* \"https://github.com/OpenZeppelin/openzeppelin-contracts/blob/v4.8.0/contracts/access/AccessControl.sol\":2765:2788  super.supportsInterface */\n      tag_126\n        /* \"https://github.com/OpenZeppelin/openzeppelin-contracts/blob/v4.8.0/contracts/access/AccessControl.sol\":2765:2801  super.supportsInterface(interfaceId) */\n      jump\t// in\n    tag_125:\n        /* \"https://github.com/OpenZeppelin/openzeppelin-contracts/blob/v4.8.0/contracts/access/AccessControl.sol\":2714:2801  interfaceId == type(IAccessControl).interfaceId || super.supportsInterface(interfaceId) */\n    tag_124:\n        /* \"https://github.com/OpenZeppelin/openzeppelin-contracts/blob/v4.8.0/contracts/access/AccessControl.sol\":2707:2801  return interfaceId == type(IAccessControl).interfaceId || super.supportsInterface(interfaceId) */\n      swap1\n      pop\n        /* \"https://github.com/OpenZeppelin/openzeppelin-contracts/blob/v4.8.0/contracts/access/AccessControl.sol\":2606:2808  function supportsInterface(bytes4 interfaceId) public view virtual override returns (bool) {... */\n      swap2\n      swap1\n      pop\n      jump\t// out\n        /* \"contracts/v2/TikTrixEscrow.sol\":577:607  IERC20Mintable public rptToken */\n    tag_36:\n      0x02\n      0x00\n      swap1\n      sload\n      swap1\n      0x0100\n      exp\n      swap1\n      div\n      0xffffffffffffffffffffffffffffffffffffffff\n      and\n      dup2\n      jump\t// out\n        /* \"contracts/v2/TikTrixEscrow.sol\":887:913  uint256[] public memberIds */\n    tag_42:\n      0x04\n      dup2\n      dup2\n      sload\n      dup2\n      lt\n      tag_127\n      jumpi\n      0x00\n      dup1\n      revert\n    tag_127:\n      swap1\n      0x00\n      mstore\n      keccak256(0x00, 0x20)\n      add\n      0x00\n      swap2\n      pop\n      swap1\n      pop\n      sload\n      dup2\n      jump\t// out\n        /* \"https://github.com/OpenZeppelin/openzeppelin-contracts/blob/v4.8.0/contracts/access/AccessControl.sol\":4378:4507  function getRoleAdmin(bytes32 role) public view virtual override returns (bytes32) {... */\n    tag_48:\n        /* \"https://github.com/OpenZeppelin/openzeppelin-contracts/blob/v4.8.0/contracts/access/AccessControl.sol\":4452:4459  bytes32 */\n      0x00\n        /* \"https://github.com/OpenZeppelin/openzeppelin-contracts/blob/v4.8.0/contracts/access/AccessControl.sol\":4478:4484  _roles */\n      dup1\n        /* \"https://github.com/OpenZeppelin/openzeppelin-contracts/blob/v4.8.0/contracts/access/AccessControl.sol\":4478:4490  _roles[role] */\n      0x00\n        /* \"https://github.com/OpenZeppelin/openzeppelin-contracts/blob/v4.8.0/contracts/access/AccessControl.sol\":4485:4489  role */\n      dup4\n        /* \"https://github.com/OpenZeppelin/openzeppelin-contracts/blob/v4.8.0/contracts/access/AccessControl.sol\":4478:4490  _roles[role] */\n      dup2\n      mstore\n      0x20\n      add\n      swap1\n      dup2\n      mstore\n      0x20\n      add\n      0x00\n      keccak256\n        /* \"https://github.com/OpenZeppelin/openzeppelin-contracts/blob/v4.8.0/contracts/access/AccessControl.sol\":4478:4500  _roles[role].adminRole */\n      0x01\n      add\n      sload\n        /* \"https://github.com/OpenZeppelin/openzeppelin-contracts/blob/v4.8.0/contracts/access/AccessControl.sol\":4471:4500  return _roles[role].adminRole */\n      swap1\n      pop\n        /* \"https://github.com/OpenZeppelin/openzeppelin-contracts/blob/v4.8.0/contracts/access/AccessControl.sol\":4378:4507  function getRoleAdmin(bytes32 role) public view virtual override returns (bytes32) {... */\n      swap2\n      swap1\n      pop\n      jump\t// out\n        /* \"https://github.com/OpenZeppelin/openzeppelin-contracts/blob/v4.8.0/contracts/access/AccessControl.sol\":4803:4948  function grantRole(bytes32 role, address account) public virtual override onlyRole(getRoleAdmin(role)) {... */\n    tag_54:\n        /* \"https://github.com/OpenZeppelin/openzeppelin-contracts/blob/v4.8.0/contracts/access/AccessControl.sol\":4886:4904  getRoleAdmin(role) */\n      tag_130\n        /* \"https://github.com/OpenZeppelin/openzeppelin-contracts/blob/v4.8.0/contracts/access/AccessControl.sol\":4899:4903  role */\n      dup3\n        /* \"https://github.com/OpenZeppelin/openzeppelin-contracts/blob/v4.8.0/contracts/access/AccessControl.sol\":4886:4898  getRoleAdmin */\n      tag_48\n        /* \"https://github.com/OpenZeppelin/openzeppelin-contracts/blob/v4.8.0/contracts/access/AccessControl.sol\":4886:4904  getRoleAdmin(role) */\n      jump\t// in\n    tag_130:\n        /* \"https://github.com/OpenZeppelin/openzeppelin-contracts/blob/v4.8.0/contracts/access/AccessControl.sol\":2505:2521  _checkRole(role) */\n      tag_132\n        /* \"https://github.com/OpenZeppelin/openzeppelin-contracts/blob/v4.8.0/contracts/access/AccessControl.sol\":2516:2520  role */\n      dup2\n        /* \"https://github.com/OpenZeppelin/openzeppelin-contracts/blob/v4.8.0/contracts/access/AccessControl.sol\":2505:2515  _checkRole */\n      tag_133\n        /* \"https://github.com/OpenZeppelin/openzeppelin-contracts/blob/v4.8.0/contracts/access/AccessControl.sol\":2505:2521  _checkRole(role) */\n      jump\t// in\n    tag_132:\n        /* \"https://github.com/OpenZeppelin/openzeppelin-contracts/blob/v4.8.0/contracts/access/AccessControl.sol\":4916:4941  _grantRole(role, account) */\n      tag_135\n        /* \"https://github.com/OpenZeppelin/openzeppelin-contracts/blob/v4.8.0/contracts/access/AccessControl.sol\":4927:4931  role */\n      dup4\n        /* \"https://github.com/OpenZeppelin/openzeppelin-contracts/blob/v4.8.0/contracts/access/AccessControl.sol\":4933:4940  account */\n      dup4\n        /* \"https://github.com/OpenZeppelin/openzeppelin-contracts/blob/v4.8.0/contracts/access/AccessControl.sol\":4916:4926  _grantRole */\n      tag_136\n        /* \"https://github.com/OpenZeppelin/openzeppelin-contracts/blob/v4.8.0/contracts/access/AccessControl.sol\":4916:4941  _grantRole(role, account) */\n      jump\t// in\n    tag_135:\n        /* \"https://github.com/OpenZeppelin/openzeppelin-contracts/blob/v4.8.0/contracts/access/AccessControl.sol\":4803:4948  function grantRole(bytes32 role, address account) public virtual override onlyRole(getRoleAdmin(role)) {... */\n      pop\n      pop\n      pop\n      jump\t// out\n        /* \"contracts/v2/TikTrixEscrow.sol\":960:1057  mapping(uint256 => mapping(uint256 => mapping(uint256 => ChallengeScore))) public challengeScores */\n    tag_58:\n      mstore(0x20, 0x05)\n      dup3\n      0x00\n      mstore\n      mstore(0x20, keccak256(0x00, 0x40))\n      dup2\n      0x00\n      mstore\n      mstore(0x20, keccak256(0x00, 0x40))\n      dup1\n      0x00\n      mstore\n      keccak256(0x00, 0x40)\n      0x00\n      swap3\n      pop\n      swap3\n      pop\n      pop\n      pop\n      dup1\n      0x00\n      add\n      sload\n      swap1\n      dup1\n      0x01\n      add\n      sload\n      swap1\n      dup1\n      0x02\n      add\n      sload\n      swap1\n      dup1\n      0x03\n      add\n      sload\n      swap1\n      dup1\n      0x04\n      add\n      0x00\n      swap1\n      sload\n      swap1\n      0x0100\n      exp\n      swap1\n      div\n      0xff\n      and\n      swap1\n      pop\n      dup6\n      jump\t// out\n        /* \"https://github.com/OpenZeppelin/openzeppelin-contracts/blob/v4.8.0/contracts/access/AccessControl.sol\":5912:6126  function renounceRole(bytes32 role, address account) public virtual override {... */\n    tag_63:\n        /* \"https://github.com/OpenZeppelin/openzeppelin-contracts/blob/v4.8.0/contracts/access/AccessControl.sol\":6018:6030  _msgSender() */\n      tag_138\n        /* \"https://github.com/OpenZeppelin/openzeppelin-contracts/blob/v4.8.0/contracts/access/AccessControl.sol\":6018:6028  _msgSender */\n      tag_139\n        /* \"https://github.com/OpenZeppelin/openzeppelin-contracts/blob/v4.8.0/contracts/access/AccessControl.sol\":6018:6030  _msgSender() */\n      jump\t// in\n    tag_138:\n        /* \"https://github.com/OpenZeppelin/openzeppelin-contracts/blob/v4.8.0/contracts/access/AccessControl.sol\":6007:6030  account == _msgSender() */\n      0xffffffffffffffffffffffffffffffffffffffff\n      and\n        /* \"https://github.com/OpenZeppelin/openzeppelin-contracts/blob/v4.8.0/contracts/access/AccessControl.sol\":6007:6014  account */\n      dup2\n        /* \"https://github.com/OpenZeppelin/openzeppelin-contracts/blob/v4.8.0/contracts/access/AccessControl.sol\":6007:6030  account == _msgSender() */\n      0xffffffffffffffffffffffffffffffffffffffff\n      and\n      eq\n        /* \"https://github.com/OpenZeppelin/openzeppelin-contracts/blob/v4.8.0/contracts/access/AccessControl.sol\":5999:6082  require(account == _msgSender(), \"AccessControl: can only renounce roles for self\") */\n      tag_140\n      jumpi\n      mload(0x40)\n      0x08c379a000000000000000000000000000000000000000000000000000000000\n      dup2\n      mstore\n      0x04\n      add\n      tag_141\n      swap1\n      tag_142\n      jump\t// in\n    tag_141:\n      mload(0x40)\n      dup1\n      swap2\n      sub\n      swap1\n      revert\n    tag_140:\n        /* \"https://github.com/OpenZeppelin/openzeppelin-contracts/blob/v4.8.0/contracts/access/AccessControl.sol\":6093:6119  _revokeRole(role, account) */\n      tag_143\n        /* \"https://github.com/OpenZeppelin/openzeppelin-contracts/blob/v4.8.0/contracts/access/AccessControl.sol\":6105:6109  role */\n      dup3\n        /* \"https://github.com/OpenZeppelin/openzeppelin-contracts/blob/v4.8.0/contracts/access/AccessControl.sol\":6111:6118  account */\n      dup3\n        /* \"https://github.com/OpenZeppelin/openzeppelin-contracts/blob/v4.8.0/contracts/access/AccessControl.sol\":6093:6104  _revokeRole */\n      tag_144\n        /* \"https://github.com/OpenZeppelin/openzeppelin-contracts/blob/v4.8.0/contracts/access/AccessControl.sol\":6093:6119  _revokeRole(role, account) */\n      jump\t// in\n    tag_143:\n        /* \"https://github.com/OpenZeppelin/openzeppelin-contracts/blob/v4.8.0/contracts/access/AccessControl.sol\":5912:6126  function renounceRole(bytes32 role, address account) public virtual override {... */\n      pop\n      pop\n      jump\t// out\n        /* \"contracts/v2/TikTrixEscrow.sol\":4589:5048  function distributePrizes(address[] calldata recipients, uint256[] calldata tokenAmounts) external onlyRole(ADMIN_ROLE) {... */\n    tag_67:\n        /* \"contracts/v2/TikTrixEscrow.sol\":511:534  keccak256(\"ADMIN_ROLE\") */\n      0xa49807205ce4d355092ef5a8a18f56e8913cf4a201fbe287825b095693c21775\n        /* \"https://github.com/OpenZeppelin/openzeppelin-contracts/blob/v4.8.0/contracts/access/AccessControl.sol\":2505:2521  _checkRole(role) */\n      tag_146\n        /* \"https://github.com/OpenZeppelin/openzeppelin-contracts/blob/v4.8.0/contracts/access/AccessControl.sol\":2516:2520  role */\n      dup2\n        /* \"https://github.com/OpenZeppelin/openzeppelin-contracts/blob/v4.8.0/contracts/access/AccessControl.sol\":2505:2515  _checkRole */\n      tag_133\n        /* \"https://github.com/OpenZeppelin/openzeppelin-contracts/blob/v4.8.0/contracts/access/AccessControl.sol\":2505:2521  _checkRole(role) */\n      jump\t// in\n    tag_146:\n        /* \"contracts/v2/TikTrixEscrow.sol\":4748:4760  tokenAmounts */\n      dup3\n      dup3\n        /* \"contracts/v2/TikTrixEscrow.sol\":4748:4767  tokenAmounts.length */\n      swap1\n      pop\n        /* \"contracts/v2/TikTrixEscrow.sol\":4727:4737  recipients */\n      dup6\n      dup6\n        /* \"contracts/v2/TikTrixEscrow.sol\":4727:4744  recipients.length */\n      swap1\n      pop\n        /* \"contracts/v2/TikTrixEscrow.sol\":4727:4767  recipients.length == tokenAmounts.length */\n      eq\n        /* \"contracts/v2/TikTrixEscrow.sol\":4719:4816  require(recipients.length == tokenAmounts.length, \"Recipients and token amounts length mismatch\") */\n      tag_148\n      jumpi\n      mload(0x40)\n      0x08c379a000000000000000000000000000000000000000000000000000000000\n      dup2\n      mstore\n      0x04\n      add\n      tag_149\n      swap1\n      tag_150\n      jump\t// in\n    tag_149:\n      mload(0x40)\n      dup1\n      swap2\n      sub\n      swap1\n      revert\n    tag_148:\n        /* \"contracts/v2/TikTrixEscrow.sol\":4832:4841  uint256 i */\n      0x00\n        /* \"contracts/v2/TikTrixEscrow.sol\":4827:4983  for (uint256 i = 0; i < recipients.length; i++) {... */\n    tag_151:\n        /* \"contracts/v2/TikTrixEscrow.sol\":4851:4861  recipients */\n      dup6\n      dup6\n        /* \"contracts/v2/TikTrixEscrow.sol\":4851:4868  recipients.length */\n      swap1\n      pop\n        /* \"contracts/v2/TikTrixEscrow.sol\":4847:4848  i */\n      dup2\n        /* \"contracts/v2/TikTrixEscrow.sol\":4847:4868  i < recipients.length */\n      lt\n        /* \"contracts/v2/TikTrixEscrow.sol\":4827:4983  for (uint256 i = 0; i < recipients.length; i++) {... */\n      iszero\n      tag_152\n      jumpi\n        /* \"contracts/v2/TikTrixEscrow.sol\":4897:4905  rptToken */\n      0x02\n      0x00\n      swap1\n      sload\n      swap1\n      0x0100\n      exp\n      swap1\n      div\n      0xffffffffffffffffffffffffffffffffffffffff\n      and\n        /* \"contracts/v2/TikTrixEscrow.sol\":4897:4914  rptToken.transfer */\n      0xffffffffffffffffffffffffffffffffffffffff\n      and\n      0xa9059cbb\n        /* \"contracts/v2/TikTrixEscrow.sol\":4915:4925  recipients */\n      dup8\n      dup8\n        /* \"contracts/v2/TikTrixEscrow.sol\":4926:4927  i */\n      dup5\n        /* \"contracts/v2/TikTrixEscrow.sol\":4915:4928  recipients[i] */\n      dup2\n      dup2\n      lt\n      tag_154\n      jumpi\n      tag_155\n      tag_156\n      jump\t// in\n    tag_155:\n    tag_154:\n      swap1\n      pop\n      0x20\n      mul\n      add\n      0x20\n      dup2\n      add\n      swap1\n      tag_157\n      swap2\n      swap1\n      tag_81\n      jump\t// in\n    tag_157:\n        /* \"contracts/v2/TikTrixEscrow.sol\":4930:4942  tokenAmounts */\n      dup7\n      dup7\n        /* \"contracts/v2/TikTrixEscrow.sol\":4943:4944  i */\n      dup6\n        /* \"contracts/v2/TikTrixEscrow.sol\":4930:4945  tokenAmounts[i] */\n      dup2\n      dup2\n      lt\n      tag_158\n      jumpi\n      tag_159\n      tag_156\n      jump\t// in\n    tag_159:\n    tag_158:\n      swap1\n      pop\n      0x20\n      mul\n      add\n      calldataload\n        /* \"contracts/v2/TikTrixEscrow.sol\":4897:4946  rptToken.transfer(recipients[i], tokenAmounts[i]) */\n      mload(0x40)\n      dup4\n      0xffffffff\n      and\n      0xe0\n      shl\n      dup2\n      mstore\n      0x04\n      add\n      tag_160\n      swap3\n      swap2\n      swap1\n      tag_161\n      jump\t// in\n    tag_160:\n      0x20\n      mload(0x40)\n      dup1\n      dup4\n      sub\n      dup2\n      0x00\n      dup8\n      gas\n      call\n      iszero\n      dup1\n      iszero\n      tag_163\n      jumpi\n      returndatasize\n      0x00\n      dup1\n      returndatacopy\n      revert(0x00, returndatasize)\n    tag_163:\n      pop\n      pop\n      pop\n      pop\n      mload(0x40)\n      returndatasize\n      not(0x1f)\n      0x1f\n      dup3\n      add\n      and\n      dup3\n      add\n      dup1\n      0x40\n      mstore\n      pop\n      dup2\n      add\n      swap1\n      tag_164\n      swap2\n      swap1\n      tag_165\n      jump\t// in\n    tag_164:\n        /* \"contracts/v2/TikTrixEscrow.sol\":4889:4972  require(rptToken.transfer(recipients[i], tokenAmounts[i]), \"Token transfer failed\") */\n      tag_166\n      jumpi\n      mload(0x40)\n      0x08c379a000000000000000000000000000000000000000000000000000000000\n      dup2\n      mstore\n      0x04\n      add\n      tag_167\n      swap1\n      tag_168\n      jump\t// in\n    tag_167:\n      mload(0x40)\n      dup1\n      swap2\n      sub\n      swap1\n      revert\n    tag_166:\n        /* \"contracts/v2/TikTrixEscrow.sol\":4870:4873  i++ */\n      dup1\n      dup1\n      0x01\n      add\n      swap2\n      pop\n      pop\n        /* \"contracts/v2/TikTrixEscrow.sol\":4827:4983  for (uint256 i = 0; i < recipients.length; i++) {... */\n      jump(tag_151)\n    tag_152:\n      pop\n        /* \"contracts/v2/TikTrixEscrow.sol\":4998:5041  PrizesDistributed(recipients, tokenAmounts) */\n      0xfa3b7284ecb3a03e8f238b69b61f5645294c15019ea509bd4aaee604d60fdc34\n        /* \"contracts/v2/TikTrixEscrow.sol\":5016:5026  recipients */\n      dup6\n      dup6\n        /* \"contracts/v2/TikTrixEscrow.sol\":5028:5040  tokenAmounts */\n      dup6\n      dup6\n        /* \"contracts/v2/TikTrixEscrow.sol\":4998:5041  PrizesDistributed(recipients, tokenAmounts) */\n      mload(0x40)\n      tag_169\n      swap5\n      swap4\n      swap3\n      swap2\n      swap1\n      tag_170\n      jump\t// in\n    tag_169:\n      mload(0x40)\n      dup1\n      swap2\n      sub\n      swap1\n      log1\n        /* \"contracts/v2/TikTrixEscrow.sol\":4589:5048  function distributePrizes(address[] calldata recipients, uint256[] calldata tokenAmounts) external onlyRole(ADMIN_ROLE) {... */\n      pop\n      pop\n      pop\n      pop\n      pop\n      jump\t// out\n        /* \"contracts/v2/TikTrixEscrow.sol\":474:534  bytes32 public constant ADMIN_ROLE = keccak256(\"ADMIN_ROLE\") */\n    tag_69:\n        /* \"contracts/v2/TikTrixEscrow.sol\":511:534  keccak256(\"ADMIN_ROLE\") */\n      0xa49807205ce4d355092ef5a8a18f56e8913cf4a201fbe287825b095693c21775\n        /* \"contracts/v2/TikTrixEscrow.sol\":474:534  bytes32 public constant ADMIN_ROLE = keccak256(\"ADMIN_ROLE\") */\n      dup2\n      jump\t// out\n        /* \"contracts/v2/TikTrixEscrow.sol\":3790:4052  function rankScoreUpdateNormal(... */\n    tag_74:\n        /* \"contracts/v2/TikTrixEscrow.sol\":511:534  keccak256(\"ADMIN_ROLE\") */\n      0xa49807205ce4d355092ef5a8a18f56e8913cf4a201fbe287825b095693c21775\n        /* \"https://github.com/OpenZeppelin/openzeppelin-contracts/blob/v4.8.0/contracts/access/AccessControl.sol\":2505:2521  _checkRole(role) */\n      tag_172\n        /* \"https://github.com/OpenZeppelin/openzeppelin-contracts/blob/v4.8.0/contracts/access/AccessControl.sol\":2516:2520  role */\n      dup2\n        /* \"https://github.com/OpenZeppelin/openzeppelin-contracts/blob/v4.8.0/contracts/access/AccessControl.sol\":2505:2515  _checkRole */\n      tag_133\n        /* \"https://github.com/OpenZeppelin/openzeppelin-contracts/blob/v4.8.0/contracts/access/AccessControl.sol\":2505:2521  _checkRole(role) */\n      jump\t// in\n    tag_172:\n        /* \"contracts/v2/TikTrixEscrow.sol\":4025:4034  memberSeq */\n      dup3\n        /* \"contracts/v2/TikTrixEscrow.sol\":4016:4023  gameSeq */\n      dup5\n        /* \"contracts/v2/TikTrixEscrow.sol\":4006:4014  yyyymmdd */\n      dup7\n        /* \"contracts/v2/TikTrixEscrow.sol\":3984:4045  RankScoreUpdateNoraml(yyyymmdd, gameSeq, memberSeq, newScore) */\n      0xa8f9cf476e5bcc627f5ed22b5ba54bd7fff333cd851bc754d924fe3eb28752fb\n        /* \"contracts/v2/TikTrixEscrow.sol\":4036:4044  newScore */\n      dup6\n        /* \"contracts/v2/TikTrixEscrow.sol\":3984:4045  RankScoreUpdateNoraml(yyyymmdd, gameSeq, memberSeq, newScore) */\n      mload(0x40)\n      tag_174\n      swap2\n      swap1\n      tag_44\n      jump\t// in\n    tag_174:\n      mload(0x40)\n      dup1\n      swap2\n      sub\n      swap1\n      log4\n        /* \"contracts/v2/TikTrixEscrow.sol\":3790:4052  function rankScoreUpdateNormal(... */\n      pop\n      pop\n      pop\n      pop\n      pop\n      jump\t// out\n        /* \"https://github.com/OpenZeppelin/openzeppelin-contracts/blob/v4.8.0/contracts/access/AccessControl.sol\":2895:3040  function hasRole(bytes32 role, address account) public view virtual override returns (bool) {... */\n    tag_77:\n        /* \"https://github.com/OpenZeppelin/openzeppelin-contracts/blob/v4.8.0/contracts/access/AccessControl.sol\":2981:2985  bool */\n      0x00\n        /* \"https://github.com/OpenZeppelin/openzeppelin-contracts/blob/v4.8.0/contracts/access/AccessControl.sol\":3004:3010  _roles */\n      dup1\n        /* \"https://github.com/OpenZeppelin/openzeppelin-contracts/blob/v4.8.0/contracts/access/AccessControl.sol\":3004:3016  _roles[role] */\n      0x00\n        /* \"https://github.com/OpenZeppelin/openzeppelin-contracts/blob/v4.8.0/contracts/access/AccessControl.sol\":3011:3015  role */\n      dup5\n        /* \"https://github.com/OpenZeppelin/openzeppelin-contracts/blob/v4.8.0/contracts/access/AccessControl.sol\":3004:3016  _roles[role] */\n      dup2\n      mstore\n      0x20\n      add\n      swap1\n      dup2\n      mstore\n      0x20\n      add\n      0x00\n      keccak256\n        /* \"https://github.com/OpenZeppelin/openzeppelin-contracts/blob/v4.8.0/contracts/access/AccessControl.sol\":3004:3024  _roles[role].members */\n      0x00\n      add\n        /* \"https://github.com/OpenZeppelin/openzeppelin-contracts/blob/v4.8.0/contracts/access/AccessControl.sol\":3004:3033  _roles[role].members[account] */\n      0x00\n        /* \"https://github.com/OpenZeppelin/openzeppelin-contracts/blob/v4.8.0/contracts/access/AccessControl.sol\":3025:3032  account */\n      dup4\n        /* \"https://github.com/OpenZeppelin/openzeppelin-contracts/blob/v4.8.0/contracts/access/AccessControl.sol\":3004:3033  _roles[role].members[account] */\n      0xffffffffffffffffffffffffffffffffffffffff\n      and\n      0xffffffffffffffffffffffffffffffffffffffff\n      and\n      dup2\n      mstore\n      0x20\n      add\n      swap1\n      dup2\n      mstore\n      0x20\n      add\n      0x00\n      keccak256\n      0x00\n      swap1\n      sload\n      swap1\n      0x0100\n      exp\n      swap1\n      div\n      0xff\n      and\n        /* \"https://github.com/OpenZeppelin/openzeppelin-contracts/blob/v4.8.0/contracts/access/AccessControl.sol\":2997:3033  return _roles[role].members[account] */\n      swap1\n      pop\n        /* \"https://github.com/OpenZeppelin/openzeppelin-contracts/blob/v4.8.0/contracts/access/AccessControl.sol\":2895:3040  function hasRole(bytes32 role, address account) public view virtual override returns (bool) {... */\n      swap3\n      swap2\n      pop\n      pop\n      jump\t// out\n        /* \"contracts/v2/TikTrixEscrow.sol\":2003:2129  function revokeAdminRole(address account) public onlyRole(DEFAULT_ADMIN_ROLE) {... */\n    tag_82:\n        /* \"https://github.com/OpenZeppelin/openzeppelin-contracts/blob/v4.8.0/contracts/access/AccessControl.sol\":2072:2076  0x00 */\n      0x00\n        /* \"contracts/v2/TikTrixEscrow.sol\":2061:2079  DEFAULT_ADMIN_ROLE */\n      dup1\n      shl\n        /* \"https://github.com/OpenZeppelin/openzeppelin-contracts/blob/v4.8.0/contracts/access/AccessControl.sol\":2505:2521  _checkRole(role) */\n      tag_177\n        /* \"https://github.com/OpenZeppelin/openzeppelin-contracts/blob/v4.8.0/contracts/access/AccessControl.sol\":2516:2520  role */\n      dup2\n        /* \"https://github.com/OpenZeppelin/openzeppelin-contracts/blob/v4.8.0/contracts/access/AccessControl.sol\":2505:2515  _checkRole */\n      tag_133\n        /* \"https://github.com/OpenZeppelin/openzeppelin-contracts/blob/v4.8.0/contracts/access/AccessControl.sol\":2505:2521  _checkRole(role) */\n      jump\t// in\n    tag_177:\n        /* \"contracts/v2/TikTrixEscrow.sol\":2091:2122  revokeRole(ADMIN_ROLE, account) */\n      tag_179\n        /* \"contracts/v2/TikTrixEscrow.sol\":511:534  keccak256(\"ADMIN_ROLE\") */\n      0xa49807205ce4d355092ef5a8a18f56e8913cf4a201fbe287825b095693c21775\n        /* \"contracts/v2/TikTrixEscrow.sol\":2114:2121  account */\n      dup4\n        /* \"contracts/v2/TikTrixEscrow.sol\":2091:2101  revokeRole */\n      tag_116\n        /* \"contracts/v2/TikTrixEscrow.sol\":2091:2122  revokeRole(ADMIN_ROLE, account) */\n      jump\t// in\n    tag_179:\n        /* \"contracts/v2/TikTrixEscrow.sol\":2003:2129  function revokeAdminRole(address account) public onlyRole(DEFAULT_ADMIN_ROLE) {... */\n      pop\n      pop\n      jump\t// out\n        /* \"https://github.com/OpenZeppelin/openzeppelin-contracts/blob/v4.8.0/contracts/access/AccessControl.sol\":2027:2076  bytes32 public constant DEFAULT_ADMIN_ROLE = 0x00 */\n    tag_84:\n        /* \"https://github.com/OpenZeppelin/openzeppelin-contracts/blob/v4.8.0/contracts/access/AccessControl.sol\":2072:2076  0x00 */\n      0x00\n        /* \"https://github.com/OpenZeppelin/openzeppelin-contracts/blob/v4.8.0/contracts/access/AccessControl.sol\":2027:2076  bytes32 public constant DEFAULT_ADMIN_ROLE = 0x00 */\n      dup1\n      shl\n      dup2\n      jump\t// out\n        /* \"contracts/v2/TikTrixEscrow.sol\":5054:5264  function getMemberInfo(uint256 memberSeq) external view returns (MemberInfo memory) {... */\n    tag_88:\n        /* \"contracts/v2/TikTrixEscrow.sol\":5119:5136  MemberInfo memory */\n      tag_180\n      tag_181\n      jump\t// in\n    tag_180:\n        /* \"contracts/v2/TikTrixEscrow.sol\":5191:5192  0 */\n      0x00\n        /* \"contracts/v2/TikTrixEscrow.sol\":5156:5167  memberInfos */\n      0x03\n        /* \"contracts/v2/TikTrixEscrow.sol\":5156:5178  memberInfos[memberSeq] */\n      0x00\n        /* \"contracts/v2/TikTrixEscrow.sol\":5168:5177  memberSeq */\n      dup5\n        /* \"contracts/v2/TikTrixEscrow.sol\":5156:5178  memberInfos[memberSeq] */\n      dup2\n      mstore\n      0x20\n      add\n      swap1\n      dup2\n      mstore\n      0x20\n      add\n      0x00\n      keccak256\n        /* \"contracts/v2/TikTrixEscrow.sol\":5156:5188  memberInfos[memberSeq].memberSeq */\n      0x00\n      add\n      sload\n        /* \"contracts/v2/TikTrixEscrow.sol\":5156:5192  memberInfos[memberSeq].memberSeq > 0 */\n      gt\n        /* \"contracts/v2/TikTrixEscrow.sol\":5148:5218  require(memberInfos[memberSeq].memberSeq > 0, \"Member does not exist\") */\n      tag_183\n      jumpi\n      mload(0x40)\n      0x08c379a000000000000000000000000000000000000000000000000000000000\n      dup2\n      mstore\n      0x04\n      add\n      tag_184\n      swap1\n      tag_185\n      jump\t// in\n    tag_184:\n      mload(0x40)\n      dup1\n      swap2\n      sub\n      swap1\n      revert\n    tag_183:\n        /* \"contracts/v2/TikTrixEscrow.sol\":5235:5246  memberInfos */\n      0x03\n        /* \"contracts/v2/TikTrixEscrow.sol\":5235:5257  memberInfos[memberSeq] */\n      0x00\n        /* \"contracts/v2/TikTrixEscrow.sol\":5247:5256  memberSeq */\n      dup4\n        /* \"contracts/v2/TikTrixEscrow.sol\":5235:5257  memberInfos[memberSeq] */\n      dup2\n      mstore\n      0x20\n      add\n      swap1\n      dup2\n      mstore\n      0x20\n      add\n      0x00\n      keccak256\n        /* \"contracts/v2/TikTrixEscrow.sol\":5228:5257  return memberInfos[memberSeq] */\n      mload(0x40)\n      dup1\n      0x20\n      add\n      0x40\n      mstore\n      swap1\n      dup2\n      0x00\n      dup3\n      add\n      sload\n      dup2\n      mstore\n      pop\n      pop\n      swap1\n      pop\n        /* \"contracts/v2/TikTrixEscrow.sol\":5054:5264  function getMemberInfo(uint256 memberSeq) external view returns (MemberInfo memory) {... */\n      swap2\n      swap1\n      pop\n      jump\t// out\n        /* \"contracts/v2/TikTrixEscrow.sol\":2351:2791  function memberRegister(uint256 memberSeq, address mintAddress, uint256 tokenAmount) external onlyRole(ADMIN_ROLE) {... */\n    tag_94:\n        /* \"contracts/v2/TikTrixEscrow.sol\":511:534  keccak256(\"ADMIN_ROLE\") */\n      0xa49807205ce4d355092ef5a8a18f56e8913cf4a201fbe287825b095693c21775\n        /* \"https://github.com/OpenZeppelin/openzeppelin-contracts/blob/v4.8.0/contracts/access/AccessControl.sol\":2505:2521  _checkRole(role) */\n      tag_187\n        /* \"https://github.com/OpenZeppelin/openzeppelin-contracts/blob/v4.8.0/contracts/access/AccessControl.sol\":2516:2520  role */\n      dup2\n        /* \"https://github.com/OpenZeppelin/openzeppelin-contracts/blob/v4.8.0/contracts/access/AccessControl.sol\":2505:2515  _checkRole */\n      tag_133\n        /* \"https://github.com/OpenZeppelin/openzeppelin-contracts/blob/v4.8.0/contracts/access/AccessControl.sol\":2505:2521  _checkRole(role) */\n      jump\t// in\n    tag_187:\n        /* \"contracts/v2/TikTrixEscrow.sol\":2520:2521  0 */\n      0x00\n        /* \"contracts/v2/TikTrixEscrow.sol\":2484:2495  memberInfos */\n      0x03\n        /* \"contracts/v2/TikTrixEscrow.sol\":2484:2506  memberInfos[memberSeq] */\n      0x00\n        /* \"contracts/v2/TikTrixEscrow.sol\":2496:2505  memberSeq */\n      dup7\n        /* \"contracts/v2/TikTrixEscrow.sol\":2484:2506  memberInfos[memberSeq] */\n      dup2\n      mstore\n      0x20\n      add\n      swap1\n      dup2\n      mstore\n      0x20\n      add\n      0x00\n      keccak256\n        /* \"contracts/v2/TikTrixEscrow.sol\":2484:2516  memberInfos[memberSeq].memberSeq */\n      0x00\n      add\n      sload\n        /* \"contracts/v2/TikTrixEscrow.sol\":2484:2521  memberInfos[memberSeq].memberSeq == 0 */\n      eq\n        /* \"contracts/v2/TikTrixEscrow.sol\":2476:2551  require(memberInfos[memberSeq].memberSeq == 0, \"Member already registered\") */\n      tag_189\n      jumpi\n      mload(0x40)\n      0x08c379a000000000000000000000000000000000000000000000000000000000\n      dup2\n      mstore\n      0x04\n      add\n      tag_190\n      swap1\n      tag_191\n      jump\t// in\n    tag_190:\n      mload(0x40)\n      dup1\n      swap2\n      sub\n      swap1\n      revert\n    tag_189:\n        /* \"contracts/v2/TikTrixEscrow.sol\":2587:2643  MemberInfo({... */\n      mload(0x40)\n      dup1\n      0x20\n      add\n      0x40\n      mstore\n      dup1\n        /* \"contracts/v2/TikTrixEscrow.sol\":2623:2632  memberSeq */\n      dup6\n        /* \"contracts/v2/TikTrixEscrow.sol\":2587:2643  MemberInfo({... */\n      dup2\n      mstore\n      pop\n        /* \"contracts/v2/TikTrixEscrow.sol\":2562:2573  memberInfos */\n      0x03\n        /* \"contracts/v2/TikTrixEscrow.sol\":2562:2584  memberInfos[memberSeq] */\n      0x00\n        /* \"contracts/v2/TikTrixEscrow.sol\":2574:2583  memberSeq */\n      dup7\n        /* \"contracts/v2/TikTrixEscrow.sol\":2562:2584  memberInfos[memberSeq] */\n      dup2\n      mstore\n      0x20\n      add\n      swap1\n      dup2\n      mstore\n      0x20\n      add\n      0x00\n      keccak256\n        /* \"contracts/v2/TikTrixEscrow.sol\":2562:2643  memberInfos[memberSeq] = MemberInfo({... */\n      0x00\n      dup3\n      add\n      mload\n      dup2\n      0x00\n      add\n      sstore\n      swap1\n      pop\n      pop\n        /* \"contracts/v2/TikTrixEscrow.sol\":2653:2662  memberIds */\n      0x04\n        /* \"contracts/v2/TikTrixEscrow.sol\":2668:2677  memberSeq */\n      dup5\n        /* \"contracts/v2/TikTrixEscrow.sol\":2653:2678  memberIds.push(memberSeq) */\n      swap1\n      dup1\n      0x01\n      dup2\n      sload\n      add\n      dup1\n      dup3\n      sstore\n      dup1\n      swap2\n      pop\n      pop\n      0x01\n      swap1\n      sub\n      swap1\n      0x00\n      mstore\n      keccak256(0x00, 0x20)\n      add\n      0x00\n      swap1\n      swap2\n      swap1\n      swap2\n      swap1\n      swap2\n      pop\n      sstore\n        /* \"contracts/v2/TikTrixEscrow.sol\":2689:2697  entToken */\n      0x01\n      0x00\n      swap1\n      sload\n      swap1\n      0x0100\n      exp\n      swap1\n      div\n      0xffffffffffffffffffffffffffffffffffffffff\n      and\n        /* \"contracts/v2/TikTrixEscrow.sol\":2689:2702  entToken.mint */\n      0xffffffffffffffffffffffffffffffffffffffff\n      and\n      0x40c10f19\n        /* \"contracts/v2/TikTrixEscrow.sol\":2703:2714  mintAddress */\n      dup5\n        /* \"contracts/v2/TikTrixEscrow.sol\":2716:2727  tokenAmount */\n      dup5\n        /* \"contracts/v2/TikTrixEscrow.sol\":2689:2728  entToken.mint(mintAddress, tokenAmount) */\n      mload(0x40)\n      dup4\n      0xffffffff\n      and\n      0xe0\n      shl\n      dup2\n      mstore\n      0x04\n      add\n      tag_193\n      swap3\n      swap2\n      swap1\n      tag_161\n      jump\t// in\n    tag_193:\n      0x00\n      mload(0x40)\n      dup1\n      dup4\n      sub\n      dup2\n      0x00\n      dup8\n      dup1\n      extcodesize\n      iszero\n      dup1\n      iszero\n      tag_194\n      jumpi\n      0x00\n      dup1\n      revert\n    tag_194:\n      pop\n      gas\n      call\n      iszero\n      dup1\n      iszero\n      tag_196\n      jumpi\n      returndatasize\n      0x00\n      dup1\n      returndatacopy\n      revert(0x00, returndatasize)\n    tag_196:\n      pop\n      pop\n      pop\n      pop\n        /* \"contracts/v2/TikTrixEscrow.sol\":2744:2784  MemberRegistered(memberSeq, tokenAmount) */\n      0x5a92c2530f207992057b9c3e544108ffce3beda4a63719f316967c49bf6159d2\n        /* \"contracts/v2/TikTrixEscrow.sol\":2761:2770  memberSeq */\n      dup5\n        /* \"contracts/v2/TikTrixEscrow.sol\":2772:2783  tokenAmount */\n      dup4\n        /* \"contracts/v2/TikTrixEscrow.sol\":2744:2784  MemberRegistered(memberSeq, tokenAmount) */\n      mload(0x40)\n      tag_197\n      swap3\n      swap2\n      swap1\n      tag_198\n      jump\t// in\n    tag_197:\n      mload(0x40)\n      dup1\n      swap2\n      sub\n      swap1\n      log1\n        /* \"contracts/v2/TikTrixEscrow.sol\":2351:2791  function memberRegister(uint256 memberSeq, address mintAddress, uint256 tokenAmount) external onlyRole(ADMIN_ROLE) {... */\n      pop\n      pop\n      pop\n      pop\n      jump\t// out\n        /* \"contracts/v2/TikTrixEscrow.sol\":5270:5571  function getChallengeScore(uint256 yyyymmdd, uint256 gameSeq, uint256 memberSeq) external view returns (ChallengeScore memory) {... */\n    tag_97:\n        /* \"contracts/v2/TikTrixEscrow.sol\":5374:5395  ChallengeScore memory */\n      tag_199\n      tag_200\n      jump\t// in\n    tag_199:\n        /* \"contracts/v2/TikTrixEscrow.sol\":5415:5430  challengeScores */\n      0x05\n        /* \"contracts/v2/TikTrixEscrow.sol\":5415:5440  challengeScores[yyyymmdd] */\n      0x00\n        /* \"contracts/v2/TikTrixEscrow.sol\":5431:5439  yyyymmdd */\n      dup6\n        /* \"contracts/v2/TikTrixEscrow.sol\":5415:5440  challengeScores[yyyymmdd] */\n      dup2\n      mstore\n      0x20\n      add\n      swap1\n      dup2\n      mstore\n      0x20\n      add\n      0x00\n      keccak256\n        /* \"contracts/v2/TikTrixEscrow.sol\":5415:5449  challengeScores[yyyymmdd][gameSeq] */\n      0x00\n        /* \"contracts/v2/TikTrixEscrow.sol\":5441:5448  gameSeq */\n      dup5\n        /* \"contracts/v2/TikTrixEscrow.sol\":5415:5449  challengeScores[yyyymmdd][gameSeq] */\n      dup2\n      mstore\n      0x20\n      add\n      swap1\n      dup2\n      mstore\n      0x20\n      add\n      0x00\n      keccak256\n        /* \"contracts/v2/TikTrixEscrow.sol\":5415:5460  challengeScores[yyyymmdd][gameSeq][memberSeq] */\n      0x00\n        /* \"contracts/v2/TikTrixEscrow.sol\":5450:5459  memberSeq */\n      dup4\n        /* \"contracts/v2/TikTrixEscrow.sol\":5415:5460  challengeScores[yyyymmdd][gameSeq][memberSeq] */\n      dup2\n      mstore\n      0x20\n      add\n      swap1\n      dup2\n      mstore\n      0x20\n      add\n      0x00\n      keccak256\n        /* \"contracts/v2/TikTrixEscrow.sol\":5415:5467  challengeScores[yyyymmdd][gameSeq][memberSeq].exists */\n      0x04\n      add\n      0x00\n      swap1\n      sload\n      swap1\n      0x0100\n      exp\n      swap1\n      div\n      0xff\n      and\n        /* \"contracts/v2/TikTrixEscrow.sol\":5407:5502  require(challengeScores[yyyymmdd][gameSeq][memberSeq].exists, \"Challenge score does not exist\") */\n      tag_202\n      jumpi\n      mload(0x40)\n      0x08c379a000000000000000000000000000000000000000000000000000000000\n      dup2\n      mstore\n      0x04\n      add\n      tag_203\n      swap1\n      tag_204\n      jump\t// in\n    tag_203:\n      mload(0x40)\n      dup1\n      swap2\n      sub\n      swap1\n      revert\n    tag_202:\n        /* \"contracts/v2/TikTrixEscrow.sol\":5519:5534  challengeScores */\n      0x05\n        /* \"contracts/v2/TikTrixEscrow.sol\":5519:5544  challengeScores[yyyymmdd] */\n      0x00\n        /* \"contracts/v2/TikTrixEscrow.sol\":5535:5543  yyyymmdd */\n      dup6\n        /* \"contracts/v2/TikTrixEscrow.sol\":5519:5544  challengeScores[yyyymmdd] */\n      dup2\n      mstore\n      0x20\n      add\n      swap1\n      dup2\n      mstore\n      0x20\n      add\n      0x00\n      keccak256\n        /* \"contracts/v2/TikTrixEscrow.sol\":5519:5553  challengeScores[yyyymmdd][gameSeq] */\n      0x00\n        /* \"contracts/v2/TikTrixEscrow.sol\":5545:5552  gameSeq */\n      dup5\n        /* \"contracts/v2/TikTrixEscrow.sol\":5519:5553  challengeScores[yyyymmdd][gameSeq] */\n      dup2\n      mstore\n      0x20\n      add\n      swap1\n      dup2\n      mstore\n      0x20\n      add\n      0x00\n      keccak256\n        /* \"contracts/v2/TikTrixEscrow.sol\":5519:5564  challengeScores[yyyymmdd][gameSeq][memberSeq] */\n      0x00\n        /* \"contracts/v2/TikTrixEscrow.sol\":5554:5563  memberSeq */\n      dup4\n        /* \"contracts/v2/TikTrixEscrow.sol\":5519:5564  challengeScores[yyyymmdd][gameSeq][memberSeq] */\n      dup2\n      mstore\n      0x20\n      add\n      swap1\n      dup2\n      mstore\n      0x20\n      add\n      0x00\n      keccak256\n        /* \"contracts/v2/TikTrixEscrow.sol\":5512:5564  return challengeScores[yyyymmdd][gameSeq][memberSeq] */\n      mload(0x40)\n      dup1\n      0xa0\n      add\n      0x40\n      mstore\n      swap1\n      dup2\n      0x00\n      dup3\n      add\n      sload\n      dup2\n      mstore\n      0x20\n      add\n      0x01\n      dup3\n      add\n      sload\n      dup2\n      mstore\n      0x20\n      add\n      0x02\n      dup3\n      add\n      sload\n      dup2\n      mstore\n      0x20\n      add\n      0x03\n      dup3\n      add\n      sload\n      dup2\n      mstore\n      0x20\n      add\n      0x04\n      dup3\n      add\n      0x00\n      swap1\n      sload\n      swap1\n      0x0100\n      exp\n      swap1\n      div\n      0xff\n      and\n      iszero\n      iszero\n      iszero\n      iszero\n      dup2\n      mstore\n      pop\n      pop\n      swap1\n      pop\n        /* \"contracts/v2/TikTrixEscrow.sol\":5270:5571  function getChallengeScore(uint256 yyyymmdd, uint256 gameSeq, uint256 memberSeq) external view returns (ChallengeScore memory) {... */\n      swap4\n      swap3\n      pop\n      pop\n      pop\n      jump\t// out\n        /* \"contracts/v2/TikTrixEscrow.sol\":832:881  mapping(uint256 => MemberInfo) public memberInfos */\n    tag_102:\n      mstore(0x20, 0x03)\n      dup1\n      0x00\n      mstore\n      keccak256(0x00, 0x40)\n      0x00\n      swap2\n      pop\n      swap1\n      pop\n      dup1\n      0x00\n      add\n      sload\n      swap1\n      pop\n      dup2\n      jump\t// out\n        /* \"contracts/v2/TikTrixEscrow.sol\":1873:1997  function grantAdminRole(address account) public onlyRole(DEFAULT_ADMIN_ROLE) {... */\n    tag_106:\n        /* \"https://github.com/OpenZeppelin/openzeppelin-contracts/blob/v4.8.0/contracts/access/AccessControl.sol\":2072:2076  0x00 */\n      0x00\n        /* \"contracts/v2/TikTrixEscrow.sol\":1930:1948  DEFAULT_ADMIN_ROLE */\n      dup1\n      shl\n        /* \"https://github.com/OpenZeppelin/openzeppelin-contracts/blob/v4.8.0/contracts/access/AccessControl.sol\":2505:2521  _checkRole(role) */\n      tag_206\n        /* \"https://github.com/OpenZeppelin/openzeppelin-contracts/blob/v4.8.0/contracts/access/AccessControl.sol\":2516:2520  role */\n      dup2\n        /* \"https://github.com/OpenZeppelin/openzeppelin-contracts/blob/v4.8.0/contracts/access/AccessControl.sol\":2505:2515  _checkRole */\n      tag_133\n        /* \"https://github.com/OpenZeppelin/openzeppelin-contracts/blob/v4.8.0/contracts/access/AccessControl.sol\":2505:2521  _checkRole(role) */\n      jump\t// in\n    tag_206:\n        /* \"contracts/v2/TikTrixEscrow.sol\":1960:1990  grantRole(ADMIN_ROLE, account) */\n      tag_208\n        /* \"contracts/v2/TikTrixEscrow.sol\":511:534  keccak256(\"ADMIN_ROLE\") */\n      0xa49807205ce4d355092ef5a8a18f56e8913cf4a201fbe287825b095693c21775\n        /* \"contracts/v2/TikTrixEscrow.sol\":1982:1989  account */\n      dup4\n        /* \"contracts/v2/TikTrixEscrow.sol\":1960:1969  grantRole */\n      tag_54\n        /* \"contracts/v2/TikTrixEscrow.sol\":1960:1990  grantRole(ADMIN_ROLE, account) */\n      jump\t// in\n    tag_208:\n        /* \"contracts/v2/TikTrixEscrow.sol\":1873:1997  function grantAdminRole(address account) public onlyRole(DEFAULT_ADMIN_ROLE) {... */\n      pop\n      pop\n      jump\t// out\n        /* \"contracts/v2/TikTrixEscrow.sol\":2797:3784  function challengeRegister(... */\n    tag_109:\n        /* \"contracts/v2/TikTrixEscrow.sol\":2965:2980  challengeScores */\n      0x05\n        /* \"contracts/v2/TikTrixEscrow.sol\":2965:2990  challengeScores[yyyymmdd] */\n      0x00\n        /* \"contracts/v2/TikTrixEscrow.sol\":2981:2989  yyyymmdd */\n      dup6\n        /* \"contracts/v2/TikTrixEscrow.sol\":2965:2990  challengeScores[yyyymmdd] */\n      dup2\n      mstore\n      0x20\n      add\n      swap1\n      dup2\n      mstore\n      0x20\n      add\n      0x00\n      keccak256\n        /* \"contracts/v2/TikTrixEscrow.sol\":2965:2999  challengeScores[yyyymmdd][gameSeq] */\n      0x00\n        /* \"contracts/v2/TikTrixEscrow.sol\":2991:2998  gameSeq */\n      dup5\n        /* \"contracts/v2/TikTrixEscrow.sol\":2965:2999  challengeScores[yyyymmdd][gameSeq] */\n      dup2\n      mstore\n      0x20\n      add\n      swap1\n      dup2\n      mstore\n      0x20\n      add\n      0x00\n      keccak256\n        /* \"contracts/v2/TikTrixEscrow.sol\":2965:3010  challengeScores[yyyymmdd][gameSeq][memberSeq] */\n      0x00\n        /* \"contracts/v2/TikTrixEscrow.sol\":3000:3009  memberSeq */\n      dup4\n        /* \"contracts/v2/TikTrixEscrow.sol\":2965:3010  challengeScores[yyyymmdd][gameSeq][memberSeq] */\n      dup2\n      mstore\n      0x20\n      add\n      swap1\n      dup2\n      mstore\n      0x20\n      add\n      0x00\n      keccak256\n        /* \"contracts/v2/TikTrixEscrow.sol\":2965:3017  challengeScores[yyyymmdd][gameSeq][memberSeq].exists */\n      0x04\n      add\n      0x00\n      swap1\n      sload\n      swap1\n      0x0100\n      exp\n      swap1\n      div\n      0xff\n      and\n        /* \"contracts/v2/TikTrixEscrow.sol\":2964:3017  !challengeScores[yyyymmdd][gameSeq][memberSeq].exists */\n      iszero\n        /* \"contracts/v2/TikTrixEscrow.sol\":2956:3078  require(!challengeScores[yyyymmdd][gameSeq][memberSeq].exists, \"Challenge already exists for this member, date, and game\") */\n      tag_210\n      jumpi\n      mload(0x40)\n      0x08c379a000000000000000000000000000000000000000000000000000000000\n      dup2\n      mstore\n      0x04\n      add\n      tag_211\n      swap1\n      tag_212\n      jump\t// in\n    tag_211:\n      mload(0x40)\n      dup1\n      swap2\n      sub\n      swap1\n      revert\n    tag_210:\n        /* \"contracts/v2/TikTrixEscrow.sol\":3089:3106  uint256 allowance */\n      0x00\n        /* \"contracts/v2/TikTrixEscrow.sol\":3109:3117  entToken */\n      0x01\n      0x00\n      swap1\n      sload\n      swap1\n      0x0100\n      exp\n      swap1\n      div\n      0xffffffffffffffffffffffffffffffffffffffff\n      and\n        /* \"contracts/v2/TikTrixEscrow.sol\":3109:3127  entToken.allowance */\n      0xffffffffffffffffffffffffffffffffffffffff\n      and\n      0xdd62ed3e\n        /* \"contracts/v2/TikTrixEscrow.sol\":3128:3138  msg.sender */\n      caller\n        /* \"contracts/v2/TikTrixEscrow.sol\":3148:3152  this */\n      address\n        /* \"contracts/v2/TikTrixEscrow.sol\":3109:3154  entToken.allowance(msg.sender, address(this)) */\n      mload(0x40)\n      dup4\n      0xffffffff\n      and\n      0xe0\n      shl\n      dup2\n      mstore\n      0x04\n      add\n      tag_213\n      swap3\n      swap2\n      swap1\n      tag_214\n      jump\t// in\n    tag_213:\n      0x20\n      mload(0x40)\n      dup1\n      dup4\n      sub\n      dup2\n      dup7\n      gas\n      staticcall\n      iszero\n      dup1\n      iszero\n      tag_216\n      jumpi\n      returndatasize\n      0x00\n      dup1\n      returndatacopy\n      revert(0x00, returndatasize)\n    tag_216:\n      pop\n      pop\n      pop\n      pop\n      mload(0x40)\n      returndatasize\n      not(0x1f)\n      0x1f\n      dup3\n      add\n      and\n      dup3\n      add\n      dup1\n      0x40\n      mstore\n      pop\n      dup2\n      add\n      swap1\n      tag_217\n      swap2\n      swap1\n      tag_218\n      jump\t// in\n    tag_217:\n        /* \"contracts/v2/TikTrixEscrow.sol\":3089:3154  uint256 allowance = entToken.allowance(msg.sender, address(this)) */\n      swap1\n      pop\n        /* \"contracts/v2/TikTrixEscrow.sol\":3185:3196  tokenAmount */\n      dup2\n        /* \"contracts/v2/TikTrixEscrow.sol\":3172:3181  allowance */\n      dup2\n        /* \"contracts/v2/TikTrixEscrow.sol\":3172:3196  allowance >= tokenAmount */\n      lt\n      iszero\n        /* \"contracts/v2/TikTrixEscrow.sol\":3164:3229  require(allowance >= tokenAmount, \"Insufficient token allowance\") */\n      tag_219\n      jumpi\n      mload(0x40)\n      0x08c379a000000000000000000000000000000000000000000000000000000000\n      dup2\n      mstore\n      0x04\n      add\n      tag_220\n      swap1\n      tag_221\n      jump\t// in\n    tag_220:\n      mload(0x40)\n      dup1\n      swap2\n      sub\n      swap1\n      revert\n    tag_219:\n        /* \"contracts/v2/TikTrixEscrow.sol\":3240:3255  uint256 balance */\n      0x00\n        /* \"contracts/v2/TikTrixEscrow.sol\":3258:3266  entToken */\n      0x01\n      0x00\n      swap1\n      sload\n      swap1\n      0x0100\n      exp\n      swap1\n      div\n      0xffffffffffffffffffffffffffffffffffffffff\n      and\n        /* \"contracts/v2/TikTrixEscrow.sol\":3258:3276  entToken.balanceOf */\n      0xffffffffffffffffffffffffffffffffffffffff\n      and\n      0x70a08231\n        /* \"contracts/v2/TikTrixEscrow.sol\":3277:3287  msg.sender */\n      caller\n        /* \"contracts/v2/TikTrixEscrow.sol\":3258:3288  entToken.balanceOf(msg.sender) */\n      mload(0x40)\n      dup3\n      0xffffffff\n      and\n      0xe0\n      shl\n      dup2\n      mstore\n      0x04\n      add\n      tag_222\n      swap2\n      swap1\n      tag_223\n      jump\t// in\n    tag_222:\n      0x20\n      mload(0x40)\n      dup1\n      dup4\n      sub\n      dup2\n      dup7\n      gas\n      staticcall\n      iszero\n      dup1\n      iszero\n      tag_225\n      jumpi\n      returndatasize\n      0x00\n      dup1\n      returndatacopy\n      revert(0x00, returndatasize)\n    tag_225:\n      pop\n      pop\n      pop\n      pop\n      mload(0x40)\n      returndatasize\n      not(0x1f)\n      0x1f\n      dup3\n      add\n      and\n      dup3\n      add\n      dup1\n      0x40\n      mstore\n      pop\n      dup2\n      add\n      swap1\n      tag_226\n      swap2\n      swap1\n      tag_218\n      jump\t// in\n    tag_226:\n        /* \"contracts/v2/TikTrixEscrow.sol\":3240:3288  uint256 balance = entToken.balanceOf(msg.sender) */\n      swap1\n      pop\n        /* \"contracts/v2/TikTrixEscrow.sol\":3317:3328  tokenAmount */\n      dup3\n        /* \"contracts/v2/TikTrixEscrow.sol\":3306:3313  balance */\n      dup2\n        /* \"contracts/v2/TikTrixEscrow.sol\":3306:3328  balance >= tokenAmount */\n      lt\n      iszero\n        /* \"contracts/v2/TikTrixEscrow.sol\":3298:3359  require(balance >= tokenAmount, \"Insufficient token balance\") */\n      tag_227\n      jumpi\n      mload(0x40)\n      0x08c379a000000000000000000000000000000000000000000000000000000000\n      dup2\n      mstore\n      0x04\n      add\n      tag_228\n      swap1\n      tag_229\n      jump\t// in\n    tag_228:\n      mload(0x40)\n      dup1\n      swap2\n      sub\n      swap1\n      revert\n    tag_227:\n        /* \"contracts/v2/TikTrixEscrow.sol\":3378:3386  entToken */\n      0x01\n      0x00\n      swap1\n      sload\n      swap1\n      0x0100\n      exp\n      swap1\n      div\n      0xffffffffffffffffffffffffffffffffffffffff\n      and\n        /* \"contracts/v2/TikTrixEscrow.sol\":3378:3399  entToken.transferFrom */\n      0xffffffffffffffffffffffffffffffffffffffff\n      and\n      0x23b872dd\n        /* \"contracts/v2/TikTrixEscrow.sol\":3400:3410  msg.sender */\n      caller\n        /* \"contracts/v2/TikTrixEscrow.sol\":3420:3424  this */\n      address\n        /* \"contracts/v2/TikTrixEscrow.sol\":3427:3438  tokenAmount */\n      dup7\n        /* \"contracts/v2/TikTrixEscrow.sol\":3378:3439  entToken.transferFrom(msg.sender, address(this), tokenAmount) */\n      mload(0x40)\n      dup5\n      0xffffffff\n      and\n      0xe0\n      shl\n      dup2\n      mstore\n      0x04\n      add\n      tag_230\n      swap4\n      swap3\n      swap2\n      swap1\n      tag_231\n      jump\t// in\n    tag_230:\n      0x20\n      mload(0x40)\n      dup1\n      dup4\n      sub\n      dup2\n      0x00\n      dup8\n      gas\n      call\n      iszero\n      dup1\n      iszero\n      tag_233\n      jumpi\n      returndatasize\n      0x00\n      dup1\n      returndatacopy\n      revert(0x00, returndatasize)\n    tag_233:\n      pop\n      pop\n      pop\n      pop\n      mload(0x40)\n      returndatasize\n      not(0x1f)\n      0x1f\n      dup3\n      add\n      and\n      dup3\n      add\n      dup1\n      0x40\n      mstore\n      pop\n      dup2\n      add\n      swap1\n      tag_234\n      swap2\n      swap1\n      tag_165\n      jump\t// in\n    tag_234:\n        /* \"contracts/v2/TikTrixEscrow.sol\":3370:3465  require(entToken.transferFrom(msg.sender, address(this), tokenAmount), \"Token transfer failed\") */\n      tag_235\n      jumpi\n      mload(0x40)\n      0x08c379a000000000000000000000000000000000000000000000000000000000\n      dup2\n      mstore\n      0x04\n      add\n      tag_236\n      swap1\n      tag_168\n      jump\t// in\n    tag_236:\n      mload(0x40)\n      dup1\n      swap2\n      sub\n      swap1\n      revert\n    tag_235:\n        /* \"contracts/v2/TikTrixEscrow.sol\":3524:3700  ChallengeScore({... */\n      mload(0x40)\n      dup1\n      0xa0\n      add\n      0x40\n      mstore\n      dup1\n        /* \"contracts/v2/TikTrixEscrow.sol\":3562:3569  gameSeq */\n      dup7\n        /* \"contracts/v2/TikTrixEscrow.sol\":3524:3700  ChallengeScore({... */\n      dup2\n      mstore\n      0x20\n      add\n        /* \"contracts/v2/TikTrixEscrow.sol\":3594:3603  memberSeq */\n      dup6\n        /* \"contracts/v2/TikTrixEscrow.sol\":3524:3700  ChallengeScore({... */\n      dup2\n      mstore\n      0x20\n      add\n        /* \"contracts/v2/TikTrixEscrow.sol\":3630:3641  tokenAmount */\n      dup5\n        /* \"contracts/v2/TikTrixEscrow.sol\":3524:3700  ChallengeScore({... */\n      dup2\n      mstore\n      0x20\n      add\n        /* \"contracts/v2/TikTrixEscrow.sol\":3662:3663  0 */\n      0x00\n        /* \"contracts/v2/TikTrixEscrow.sol\":3524:3700  ChallengeScore({... */\n      dup2\n      mstore\n      0x20\n      add\n        /* \"contracts/v2/TikTrixEscrow.sol\":3685:3689  true */\n      0x01\n        /* \"contracts/v2/TikTrixEscrow.sol\":3524:3700  ChallengeScore({... */\n      iszero\n      iszero\n      dup2\n      mstore\n      pop\n        /* \"contracts/v2/TikTrixEscrow.sol\":3476:3491  challengeScores */\n      0x05\n        /* \"contracts/v2/TikTrixEscrow.sol\":3476:3501  challengeScores[yyyymmdd] */\n      0x00\n        /* \"contracts/v2/TikTrixEscrow.sol\":3492:3500  yyyymmdd */\n      dup9\n        /* \"contracts/v2/TikTrixEscrow.sol\":3476:3501  challengeScores[yyyymmdd] */\n      dup2\n      mstore\n      0x20\n      add\n      swap1\n      dup2\n      mstore\n      0x20\n      add\n      0x00\n      keccak256\n        /* \"contracts/v2/TikTrixEscrow.sol\":3476:3510  challengeScores[yyyymmdd][gameSeq] */\n      0x00\n        /* \"contracts/v2/TikTrixEscrow.sol\":3502:3509  gameSeq */\n      dup8\n        /* \"contracts/v2/TikTrixEscrow.sol\":3476:3510  challengeScores[yyyymmdd][gameSeq] */\n      dup2\n      mstore\n      0x20\n      add\n      swap1\n      dup2\n      mstore\n      0x20\n      add\n      0x00\n      keccak256\n        /* \"contracts/v2/TikTrixEscrow.sol\":3476:3521  challengeScores[yyyymmdd][gameSeq][memberSeq] */\n      0x00\n        /* \"contracts/v2/TikTrixEscrow.sol\":3511:3520  memberSeq */\n      dup7\n        /* \"contracts/v2/TikTrixEscrow.sol\":3476:3521  challengeScores[yyyymmdd][gameSeq][memberSeq] */\n      dup2\n      mstore\n      0x20\n      add\n      swap1\n      dup2\n      mstore\n      0x20\n      add\n      0x00\n      keccak256\n        /* \"contracts/v2/TikTrixEscrow.sol\":3476:3700  challengeScores[yyyymmdd][gameSeq][memberSeq] = ChallengeScore({... */\n      0x00\n      dup3\n      add\n      mload\n      dup2\n      0x00\n      add\n      sstore\n      0x20\n      dup3\n      add\n      mload\n      dup2\n      0x01\n      add\n      sstore\n      0x40\n      dup3\n      add\n      mload\n      dup2\n      0x02\n      add\n      sstore\n      0x60\n      dup3\n      add\n      mload\n      dup2\n      0x03\n      add\n      sstore\n      0x80\n      dup3\n      add\n      mload\n      dup2\n      0x04\n      add\n      exp(0x0100, 0x00)\n      dup2\n      sload\n      dup2\n      0xff\n      mul\n      not\n      and\n      swap1\n      dup4\n      iszero\n      iszero\n      mul\n      or\n      swap1\n      sstore\n      pop\n      swap1\n      pop\n      pop\n        /* \"contracts/v2/TikTrixEscrow.sol\":3754:3763  memberSeq */\n      dup4\n        /* \"contracts/v2/TikTrixEscrow.sol\":3745:3752  gameSeq */\n      dup6\n        /* \"contracts/v2/TikTrixEscrow.sol\":3735:3743  yyyymmdd */\n      dup8\n        /* \"contracts/v2/TikTrixEscrow.sol\":3716:3777  ChallengeRegistred(yyyymmdd, gameSeq, memberSeq, tokenAmount) */\n      0x7bbca5efeebbed029b1684066d1a6e0ade8efe8c578ab0890d4b223e6ec5e50e\n        /* \"contracts/v2/TikTrixEscrow.sol\":3765:3776  tokenAmount */\n      dup7\n        /* \"contracts/v2/TikTrixEscrow.sol\":3716:3777  ChallengeRegistred(yyyymmdd, gameSeq, memberSeq, tokenAmount) */\n      mload(0x40)\n      tag_237\n      swap2\n      swap1\n      tag_44\n      jump\t// in\n    tag_237:\n      mload(0x40)\n      dup1\n      swap2\n      sub\n      swap1\n      log4\n        /* \"contracts/v2/TikTrixEscrow.sol\":2946:3784  {... */\n      pop\n      pop\n        /* \"contracts/v2/TikTrixEscrow.sol\":2797:3784  function challengeRegister(... */\n      pop\n      pop\n      pop\n      pop\n      jump\t// out\n        /* \"contracts/v2/TikTrixEscrow.sol\":2135:2345  function setTokens(address entTokenAddress, address rptTokenAddress) external onlyRole(ADMIN_ROLE) {... */\n    tag_113:\n        /* \"contracts/v2/TikTrixEscrow.sol\":511:534  keccak256(\"ADMIN_ROLE\") */\n      0xa49807205ce4d355092ef5a8a18f56e8913cf4a201fbe287825b095693c21775\n        /* \"https://github.com/OpenZeppelin/openzeppelin-contracts/blob/v4.8.0/contracts/access/AccessControl.sol\":2505:2521  _checkRole(role) */\n      tag_239\n        /* \"https://github.com/OpenZeppelin/openzeppelin-contracts/blob/v4.8.0/contracts/access/AccessControl.sol\":2516:2520  role */\n      dup2\n        /* \"https://github.com/OpenZeppelin/openzeppelin-contracts/blob/v4.8.0/contracts/access/AccessControl.sol\":2505:2515  _checkRole */\n      tag_133\n        /* \"https://github.com/OpenZeppelin/openzeppelin-contracts/blob/v4.8.0/contracts/access/AccessControl.sol\":2505:2521  _checkRole(role) */\n      jump\t// in\n    tag_239:\n        /* \"contracts/v2/TikTrixEscrow.sol\":2270:2285  entTokenAddress */\n      dup3\n        /* \"contracts/v2/TikTrixEscrow.sol\":2244:2252  entToken */\n      0x01\n      0x00\n        /* \"contracts/v2/TikTrixEscrow.sol\":2244:2286  entToken = IERC20Mintable(entTokenAddress) */\n      0x0100\n      exp\n      dup2\n      sload\n      dup2\n      0xffffffffffffffffffffffffffffffffffffffff\n      mul\n      not\n      and\n      swap1\n      dup4\n      0xffffffffffffffffffffffffffffffffffffffff\n      and\n      mul\n      or\n      swap1\n      sstore\n      pop\n        /* \"contracts/v2/TikTrixEscrow.sol\":2322:2337  rptTokenAddress */\n      dup2\n        /* \"contracts/v2/TikTrixEscrow.sol\":2296:2304  rptToken */\n      0x02\n      0x00\n        /* \"contracts/v2/TikTrixEscrow.sol\":2296:2338  rptToken = IERC20Mintable(rptTokenAddress) */\n      0x0100\n      exp\n      dup2\n      sload\n      dup2\n      0xffffffffffffffffffffffffffffffffffffffff\n      mul\n      not\n      and\n      swap1\n      dup4\n      0xffffffffffffffffffffffffffffffffffffffff\n      and\n      mul\n      or\n      swap1\n      sstore\n      pop\n        /* \"contracts/v2/TikTrixEscrow.sol\":2135:2345  function setTokens(address entTokenAddress, address rptTokenAddress) external onlyRole(ADMIN_ROLE) {... */\n      pop\n      pop\n      pop\n      jump\t// out\n        /* \"https://github.com/OpenZeppelin/openzeppelin-contracts/blob/v4.8.0/contracts/access/AccessControl.sol\":5228:5375  function revokeRole(bytes32 role, address account) public virtual override onlyRole(getRoleAdmin(role)) {... */\n    tag_116:\n        /* \"https://github.com/OpenZeppelin/openzeppelin-contracts/blob/v4.8.0/contracts/access/AccessControl.sol\":5312:5330  getRoleAdmin(role) */\n      tag_241\n        /* \"https://github.com/OpenZeppelin/openzeppelin-contracts/blob/v4.8.0/contracts/access/AccessControl.sol\":5325:5329  role */\n      dup3\n        /* \"https://github.com/OpenZeppelin/openzeppelin-contracts/blob/v4.8.0/contracts/access/AccessControl.sol\":5312:5324  getRoleAdmin */\n      tag_48\n        /* \"https://github.com/OpenZeppelin/openzeppelin-contracts/blob/v4.8.0/contracts/access/AccessControl.sol\":5312:5330  getRoleAdmin(role) */\n      jump\t// in\n    tag_241:\n        /* \"https://github.com/OpenZeppelin/openzeppelin-contracts/blob/v4.8.0/contracts/access/AccessControl.sol\":2505:2521  _checkRole(role) */\n      tag_243\n        /* \"https://github.com/OpenZeppelin/openzeppelin-contracts/blob/v4.8.0/contracts/access/AccessControl.sol\":2516:2520  role */\n      dup2\n        /* \"https://github.com/OpenZeppelin/openzeppelin-contracts/blob/v4.8.0/contracts/access/AccessControl.sol\":2505:2515  _checkRole */\n      tag_133\n        /* \"https://github.com/OpenZeppelin/openzeppelin-contracts/blob/v4.8.0/contracts/access/AccessControl.sol\":2505:2521  _checkRole(role) */\n      jump\t// in\n    tag_243:\n        /* \"https://github.com/OpenZeppelin/openzeppelin-contracts/blob/v4.8.0/contracts/access/AccessControl.sol\":5342:5368  _revokeRole(role, account) */\n      tag_245\n        /* \"https://github.com/OpenZeppelin/openzeppelin-contracts/blob/v4.8.0/contracts/access/AccessControl.sol\":5354:5358  role */\n      dup4\n        /* \"https://github.com/OpenZeppelin/openzeppelin-contracts/blob/v4.8.0/contracts/access/AccessControl.sol\":5360:5367  account */\n      dup4\n        /* \"https://github.com/OpenZeppelin/openzeppelin-contracts/blob/v4.8.0/contracts/access/AccessControl.sol\":5342:5353  _revokeRole */\n      tag_144\n        /* \"https://github.com/OpenZeppelin/openzeppelin-contracts/blob/v4.8.0/contracts/access/AccessControl.sol\":5342:5368  _revokeRole(role, account) */\n      jump\t// in\n    tag_245:\n        /* \"https://github.com/OpenZeppelin/openzeppelin-contracts/blob/v4.8.0/contracts/access/AccessControl.sol\":5228:5375  function revokeRole(bytes32 role, address account) public virtual override onlyRole(getRoleAdmin(role)) {... */\n      pop\n      pop\n      pop\n      jump\t// out\n        /* \"contracts/v2/TikTrixEscrow.sol\":541:571  IERC20Mintable public entToken */\n    tag_118:\n      0x01\n      0x00\n      swap1\n      sload\n      swap1\n      0x0100\n      exp\n      swap1\n      div\n      0xffffffffffffffffffffffffffffffffffffffff\n      and\n      dup2\n      jump\t// out\n        /* \"contracts/v2/TikTrixEscrow.sol\":4058:4583  function rankScoreUpdateChallenge(... */\n    tag_122:\n        /* \"contracts/v2/TikTrixEscrow.sol\":511:534  keccak256(\"ADMIN_ROLE\") */\n      0xa49807205ce4d355092ef5a8a18f56e8913cf4a201fbe287825b095693c21775\n        /* \"https://github.com/OpenZeppelin/openzeppelin-contracts/blob/v4.8.0/contracts/access/AccessControl.sol\":2505:2521  _checkRole(role) */\n      tag_247\n        /* \"https://github.com/OpenZeppelin/openzeppelin-contracts/blob/v4.8.0/contracts/access/AccessControl.sol\":2516:2520  role */\n      dup2\n        /* \"https://github.com/OpenZeppelin/openzeppelin-contracts/blob/v4.8.0/contracts/access/AccessControl.sol\":2505:2515  _checkRole */\n      tag_133\n        /* \"https://github.com/OpenZeppelin/openzeppelin-contracts/blob/v4.8.0/contracts/access/AccessControl.sol\":2505:2521  _checkRole(role) */\n      jump\t// in\n    tag_247:\n        /* \"contracts/v2/TikTrixEscrow.sol\":4250:4265  challengeScores */\n      0x05\n        /* \"contracts/v2/TikTrixEscrow.sol\":4250:4275  challengeScores[yyyymmdd] */\n      0x00\n        /* \"contracts/v2/TikTrixEscrow.sol\":4266:4274  yyyymmdd */\n      dup7\n        /* \"contracts/v2/TikTrixEscrow.sol\":4250:4275  challengeScores[yyyymmdd] */\n      dup2\n      mstore\n      0x20\n      add\n      swap1\n      dup2\n      mstore\n      0x20\n      add\n      0x00\n      keccak256\n        /* \"contracts/v2/TikTrixEscrow.sol\":4250:4284  challengeScores[yyyymmdd][gameSeq] */\n      0x00\n        /* \"contracts/v2/TikTrixEscrow.sol\":4276:4283  gameSeq */\n      dup6\n        /* \"contracts/v2/TikTrixEscrow.sol\":4250:4284  challengeScores[yyyymmdd][gameSeq] */\n      dup2\n      mstore\n      0x20\n      add\n      swap1\n      dup2\n      mstore\n      0x20\n      add\n      0x00\n      keccak256\n        /* \"contracts/v2/TikTrixEscrow.sol\":4250:4295  challengeScores[yyyymmdd][gameSeq][memberSeq] */\n      0x00\n        /* \"contracts/v2/TikTrixEscrow.sol\":4285:4294  memberSeq */\n      dup5\n        /* \"contracts/v2/TikTrixEscrow.sol\":4250:4295  challengeScores[yyyymmdd][gameSeq][memberSeq] */\n      dup2\n      mstore\n      0x20\n      add\n      swap1\n      dup2\n      mstore\n      0x20\n      add\n      0x00\n      keccak256\n        /* \"contracts/v2/TikTrixEscrow.sol\":4250:4302  challengeScores[yyyymmdd][gameSeq][memberSeq].exists */\n      0x04\n      add\n      0x00\n      swap1\n      sload\n      swap1\n      0x0100\n      exp\n      swap1\n      div\n      0xff\n      and\n        /* \"contracts/v2/TikTrixEscrow.sol\":4242:4331  require(challengeScores[yyyymmdd][gameSeq][memberSeq].exists, \"Challenge does not exist\") */\n      tag_249\n      jumpi\n      mload(0x40)\n      0x08c379a000000000000000000000000000000000000000000000000000000000\n      dup2\n      mstore\n      0x04\n      add\n      tag_250\n      swap1\n      tag_251\n      jump\t// in\n    tag_250:\n      mload(0x40)\n      dup1\n      swap2\n      sub\n      swap1\n      revert\n    tag_249:\n        /* \"contracts/v2/TikTrixEscrow.sol\":4357:4372  challengeScores */\n      0x05\n        /* \"contracts/v2/TikTrixEscrow.sol\":4357:4382  challengeScores[yyyymmdd] */\n      0x00\n        /* \"contracts/v2/TikTrixEscrow.sol\":4373:4381  yyyymmdd */\n      dup7\n        /* \"contracts/v2/TikTrixEscrow.sol\":4357:4382  challengeScores[yyyymmdd] */\n      dup2\n      mstore\n      0x20\n      add\n      swap1\n      dup2\n      mstore\n      0x20\n      add\n      0x00\n      keccak256\n        /* \"contracts/v2/TikTrixEscrow.sol\":4357:4391  challengeScores[yyyymmdd][gameSeq] */\n      0x00\n        /* \"contracts/v2/TikTrixEscrow.sol\":4383:4390  gameSeq */\n      dup6\n        /* \"contracts/v2/TikTrixEscrow.sol\":4357:4391  challengeScores[yyyymmdd][gameSeq] */\n      dup2\n      mstore\n      0x20\n      add\n      swap1\n      dup2\n      mstore\n      0x20\n      add\n      0x00\n      keccak256\n        /* \"contracts/v2/TikTrixEscrow.sol\":4357:4402  challengeScores[yyyymmdd][gameSeq][memberSeq] */\n      0x00\n        /* \"contracts/v2/TikTrixEscrow.sol\":4392:4401  memberSeq */\n      dup5\n        /* \"contracts/v2/TikTrixEscrow.sol\":4357:4402  challengeScores[yyyymmdd][gameSeq][memberSeq] */\n      dup2\n      mstore\n      0x20\n      add\n      swap1\n      dup2\n      mstore\n      0x20\n      add\n      0x00\n      keccak256\n        /* \"contracts/v2/TikTrixEscrow.sol\":4357:4408  challengeScores[yyyymmdd][gameSeq][memberSeq].score */\n      0x03\n      add\n      sload\n        /* \"contracts/v2/TikTrixEscrow.sol\":4346:4354  newScore */\n      dup3\n        /* \"contracts/v2/TikTrixEscrow.sol\":4346:4408  newScore > challengeScores[yyyymmdd][gameSeq][memberSeq].score */\n      gt\n        /* \"contracts/v2/TikTrixEscrow.sol\":4342:4497  if (newScore > challengeScores[yyyymmdd][gameSeq][memberSeq].score) {... */\n      iszero\n      tag_252\n      jumpi\n        /* \"contracts/v2/TikTrixEscrow.sol\":4478:4486  newScore */\n      dup2\n        /* \"contracts/v2/TikTrixEscrow.sol\":4424:4439  challengeScores */\n      0x05\n        /* \"contracts/v2/TikTrixEscrow.sol\":4424:4449  challengeScores[yyyymmdd] */\n      0x00\n        /* \"contracts/v2/TikTrixEscrow.sol\":4440:4448  yyyymmdd */\n      dup8\n        /* \"contracts/v2/TikTrixEscrow.sol\":4424:4449  challengeScores[yyyymmdd] */\n      dup2\n      mstore\n      0x20\n      add\n      swap1\n      dup2\n      mstore\n      0x20\n      add\n      0x00\n      keccak256\n        /* \"contracts/v2/TikTrixEscrow.sol\":4424:4458  challengeScores[yyyymmdd][gameSeq] */\n      0x00\n        /* \"contracts/v2/TikTrixEscrow.sol\":4450:4457  gameSeq */\n      dup7\n        /* \"contracts/v2/TikTrixEscrow.sol\":4424:4458  challengeScores[yyyymmdd][gameSeq] */\n      dup2\n      mstore\n      0x20\n      add\n      swap1\n      dup2\n      mstore\n      0x20\n      add\n      0x00\n      keccak256\n        /* \"contracts/v2/TikTrixEscrow.sol\":4424:4469  challengeScores[yyyymmdd][gameSeq][memberSeq] */\n      0x00\n        /* \"contracts/v2/TikTrixEscrow.sol\":4459:4468  memberSeq */\n      dup6\n        /* \"contracts/v2/TikTrixEscrow.sol\":4424:4469  challengeScores[yyyymmdd][gameSeq][memberSeq] */\n      dup2\n      mstore\n      0x20\n      add\n      swap1\n      dup2\n      mstore\n      0x20\n      add\n      0x00\n      keccak256\n        /* \"contracts/v2/TikTrixEscrow.sol\":4424:4475  challengeScores[yyyymmdd][gameSeq][memberSeq].score */\n      0x03\n      add\n        /* \"contracts/v2/TikTrixEscrow.sol\":4424:4486  challengeScores[yyyymmdd][gameSeq][memberSeq].score = newScore */\n      dup2\n      swap1\n      sstore\n      pop\n        /* \"contracts/v2/TikTrixEscrow.sol\":4342:4497  if (newScore > challengeScores[yyyymmdd][gameSeq][memberSeq].score) {... */\n    tag_252:\n        /* \"contracts/v2/TikTrixEscrow.sol\":4556:4565  memberSeq */\n      dup3\n        /* \"contracts/v2/TikTrixEscrow.sol\":4547:4554  gameSeq */\n      dup5\n        /* \"contracts/v2/TikTrixEscrow.sol\":4537:4545  yyyymmdd */\n      dup7\n        /* \"contracts/v2/TikTrixEscrow.sol\":4512:4576  RankScoreUpdateChallenge(yyyymmdd, gameSeq, memberSeq, newScore) */\n      0x2bbc9ad1871f4b99168aa3febe254b9069558ff96ed7746d1677869afa38243f\n        /* \"contracts/v2/TikTrixEscrow.sol\":4567:4575  newScore */\n      dup6\n        /* \"contracts/v2/TikTrixEscrow.sol\":4512:4576  RankScoreUpdateChallenge(yyyymmdd, gameSeq, memberSeq, newScore) */\n      mload(0x40)\n      tag_253\n      swap2\n      swap1\n      tag_44\n      jump\t// in\n    tag_253:\n      mload(0x40)\n      dup1\n      swap2\n      sub\n      swap1\n      log4\n        /* \"contracts/v2/TikTrixEscrow.sol\":4058:4583  function rankScoreUpdateChallenge(... */\n      pop\n      pop\n      pop\n      pop\n      pop\n      jump\t// out\n        /* \"https://github.com/OpenZeppelin/openzeppelin-contracts/blob/v4.8.0/contracts/utils/introspection/ERC165.sol\":829:984  function supportsInterface(bytes4 interfaceId) public view virtual override returns (bool) {... */\n    tag_126:\n        /* \"https://github.com/OpenZeppelin/openzeppelin-contracts/blob/v4.8.0/contracts/utils/introspection/ERC165.sol\":914:918  bool */\n      0x00\n        /* \"https://github.com/OpenZeppelin/openzeppelin-contracts/blob/v4.8.0/contracts/utils/introspection/ERC165.sol\":952:977  type(IERC165).interfaceId */\n      0x01ffc9a700000000000000000000000000000000000000000000000000000000\n        /* \"https://github.com/OpenZeppelin/openzeppelin-contracts/blob/v4.8.0/contracts/utils/introspection/ERC165.sol\":937:977  interfaceId == type(IERC165).interfaceId */\n      not(0xffffffffffffffffffffffffffffffffffffffffffffffffffffffff)\n      and\n        /* \"https://github.com/OpenZeppelin/openzeppelin-contracts/blob/v4.8.0/contracts/utils/introspection/ERC165.sol\":937:948  interfaceId */\n      dup3\n        /* \"https://github.com/OpenZeppelin/openzeppelin-contracts/blob/v4.8.0/contracts/utils/introspection/ERC165.sol\":937:977  interfaceId == type(IERC165).interfaceId */\n      not(0xffffffffffffffffffffffffffffffffffffffffffffffffffffffff)\n      and\n      eq\n        /* \"https://github.com/OpenZeppelin/openzeppelin-contracts/blob/v4.8.0/contracts/utils/introspection/ERC165.sol\":930:977  return interfaceId == type(IERC165).interfaceId */\n      swap1\n      pop\n        /* \"https://github.com/OpenZeppelin/openzeppelin-contracts/blob/v4.8.0/contracts/utils/introspection/ERC165.sol\":829:984  function supportsInterface(bytes4 interfaceId) public view virtual override returns (bool) {... */\n      swap2\n      swap1\n      pop\n      jump\t// out\n        /* \"https://github.com/OpenZeppelin/openzeppelin-contracts/blob/v4.8.0/contracts/access/AccessControl.sol\":3334:3437  function _checkRole(bytes32 role) internal view virtual {... */\n    tag_133:\n        /* \"https://github.com/OpenZeppelin/openzeppelin-contracts/blob/v4.8.0/contracts/access/AccessControl.sol\":3400:3430  _checkRole(role, _msgSender()) */\n      tag_256\n        /* \"https://github.com/OpenZeppelin/openzeppelin-contracts/blob/v4.8.0/contracts/access/AccessControl.sol\":3411:3415  role */\n      dup2\n        /* \"https://github.com/OpenZeppelin/openzeppelin-contracts/blob/v4.8.0/contracts/access/AccessControl.sol\":3417:3429  _msgSender() */\n      tag_257\n        /* \"https://github.com/OpenZeppelin/openzeppelin-contracts/blob/v4.8.0/contracts/access/AccessControl.sol\":3417:3427  _msgSender */\n      tag_139\n        /* \"https://github.com/OpenZeppelin/openzeppelin-contracts/blob/v4.8.0/contracts/access/AccessControl.sol\":3417:3429  _msgSender() */\n      jump\t// in\n    tag_257:\n        /* \"https://github.com/OpenZeppelin/openzeppelin-contracts/blob/v4.8.0/contracts/access/AccessControl.sol\":3400:3410  _checkRole */\n      tag_258\n        /* \"https://github.com/OpenZeppelin/openzeppelin-contracts/blob/v4.8.0/contracts/access/AccessControl.sol\":3400:3430  _checkRole(role, _msgSender()) */\n      jump\t// in\n    tag_256:\n        /* \"https://github.com/OpenZeppelin/openzeppelin-contracts/blob/v4.8.0/contracts/access/AccessControl.sol\":3334:3437  function _checkRole(bytes32 role) internal view virtual {... */\n      pop\n      jump\t// out\n        /* \"https://github.com/OpenZeppelin/openzeppelin-contracts/blob/v4.8.0/contracts/access/AccessControl.sol\":7461:7694  function _grantRole(bytes32 role, address account) internal virtual {... */\n    tag_136:\n        /* \"https://github.com/OpenZeppelin/openzeppelin-contracts/blob/v4.8.0/contracts/access/AccessControl.sol\":7544:7566  hasRole(role, account) */\n      tag_260\n        /* \"https://github.com/OpenZeppelin/openzeppelin-contracts/blob/v4.8.0/contracts/access/AccessControl.sol\":7552:7556  role */\n      dup3\n        /* \"https://github.com/OpenZeppelin/openzeppelin-contracts/blob/v4.8.0/contracts/access/AccessControl.sol\":7558:7565  account */\n      dup3\n        /* \"https://github.com/OpenZeppelin/openzeppelin-contracts/blob/v4.8.0/contracts/access/AccessControl.sol\":7544:7551  hasRole */\n      tag_77\n        /* \"https://github.com/OpenZeppelin/openzeppelin-contracts/blob/v4.8.0/contracts/access/AccessControl.sol\":7544:7566  hasRole(role, account) */\n      jump\t// in\n    tag_260:\n        /* \"https://github.com/OpenZeppelin/openzeppelin-contracts/blob/v4.8.0/contracts/access/AccessControl.sol\":7539:7688  if (!hasRole(role, account)) {... */\n      tag_261\n      jumpi\n        /* \"https://github.com/OpenZeppelin/openzeppelin-contracts/blob/v4.8.0/contracts/access/AccessControl.sol\":7614:7618  true */\n      0x01\n        /* \"https://github.com/OpenZeppelin/openzeppelin-contracts/blob/v4.8.0/contracts/access/AccessControl.sol\":7582:7588  _roles */\n      0x00\n        /* \"https://github.com/OpenZeppelin/openzeppelin-contracts/blob/v4.8.0/contracts/access/AccessControl.sol\":7582:7594  _roles[role] */\n      dup1\n        /* \"https://github.com/OpenZeppelin/openzeppelin-contracts/blob/v4.8.0/contracts/access/AccessControl.sol\":7589:7593  role */\n      dup5\n        /* \"https://github.com/OpenZeppelin/openzeppelin-contracts/blob/v4.8.0/contracts/access/AccessControl.sol\":7582:7594  _roles[role] */\n      dup2\n      mstore\n      0x20\n      add\n      swap1\n      dup2\n      mstore\n      0x20\n      add\n      0x00\n      keccak256\n        /* \"https://github.com/OpenZeppelin/openzeppelin-contracts/blob/v4.8.0/contracts/access/AccessControl.sol\":7582:7602  _roles[role].members */\n      0x00\n      add\n        /* \"https://github.com/OpenZeppelin/openzeppelin-contracts/blob/v4.8.0/contracts/access/AccessControl.sol\":7582:7611  _roles[role].members[account] */\n      0x00\n        /* \"https://github.com/OpenZeppelin/openzeppelin-contracts/blob/v4.8.0/contracts/access/AccessControl.sol\":7603:7610  account */\n      dup4\n        /* \"https://github.com/OpenZeppelin/openzeppelin-contracts/blob/v4.8.0/contracts/access/AccessControl.sol\":7582:7611  _roles[role].members[account] */\n      0xffffffffffffffffffffffffffffffffffffffff\n      and\n      0xffffffffffffffffffffffffffffffffffffffff\n      and\n      dup2\n      mstore\n      0x20\n      add\n      swap1\n      dup2\n      mstore\n      0x20\n      add\n      0x00\n      keccak256\n      0x00\n        /* \"https://github.com/OpenZeppelin/openzeppelin-contracts/blob/v4.8.0/contracts/access/AccessControl.sol\":7582:7618  _roles[role].members[account] = true */\n      0x0100\n      exp\n      dup2\n      sload\n      dup2\n      0xff\n      mul\n      not\n      and\n      swap1\n      dup4\n      iszero\n      iszero\n      mul\n      or\n      swap1\n      sstore\n      pop\n        /* \"https://github.com/OpenZeppelin/openzeppelin-contracts/blob/v4.8.0/contracts/access/AccessControl.sol\":7664:7676  _msgSender() */\n      tag_262\n        /* \"https://github.com/OpenZeppelin/openzeppelin-contracts/blob/v4.8.0/contracts/access/AccessControl.sol\":7664:7674  _msgSender */\n      tag_139\n        /* \"https://github.com/OpenZeppelin/openzeppelin-contracts/blob/v4.8.0/contracts/access/AccessControl.sol\":7664:7676  _msgSender() */\n      jump\t// in\n    tag_262:\n        /* \"https://github.com/OpenZeppelin/openzeppelin-contracts/blob/v4.8.0/contracts/access/AccessControl.sol\":7637:7677  RoleGranted(role, account, _msgSender()) */\n      0xffffffffffffffffffffffffffffffffffffffff\n      and\n        /* \"https://github.com/OpenZeppelin/openzeppelin-contracts/blob/v4.8.0/contracts/access/AccessControl.sol\":7655:7662  account */\n      dup2\n        /* \"https://github.com/OpenZeppelin/openzeppelin-contracts/blob/v4.8.0/contracts/access/AccessControl.sol\":7637:7677  RoleGranted(role, account, _msgSender()) */\n      0xffffffffffffffffffffffffffffffffffffffff\n      and\n        /* \"https://github.com/OpenZeppelin/openzeppelin-contracts/blob/v4.8.0/contracts/access/AccessControl.sol\":7649:7653  role */\n      dup4\n        /* \"https://github.com/OpenZeppelin/openzeppelin-contracts/blob/v4.8.0/contracts/access/AccessControl.sol\":7637:7677  RoleGranted(role, account, _msgSender()) */\n      0x2f8788117e7eff1d82e926ec794901d17c78024a50270940304540a733656f0d\n      mload(0x40)\n      mload(0x40)\n      dup1\n      swap2\n      sub\n      swap1\n      log4\n        /* \"https://github.com/OpenZeppelin/openzeppelin-contracts/blob/v4.8.0/contracts/access/AccessControl.sol\":7539:7688  if (!hasRole(role, account)) {... */\n    tag_261:\n        /* \"https://github.com/OpenZeppelin/openzeppelin-contracts/blob/v4.8.0/contracts/access/AccessControl.sol\":7461:7694  function _grantRole(bytes32 role, address account) internal virtual {... */\n      pop\n      pop\n      jump\t// out\n        /* \"https://github.com/OpenZeppelin/openzeppelin-contracts/blob/v4.8.0/contracts/utils/Context.sol\":640:736  function _msgSender() internal view virtual returns (address) {... */\n    tag_139:\n        /* \"https://github.com/OpenZeppelin/openzeppelin-contracts/blob/v4.8.0/contracts/utils/Context.sol\":693:700  address */\n      0x00\n        /* \"https://github.com/OpenZeppelin/openzeppelin-contracts/blob/v4.8.0/contracts/utils/Context.sol\":719:729  msg.sender */\n      caller\n        /* \"https://github.com/OpenZeppelin/openzeppelin-contracts/blob/v4.8.0/contracts/utils/Context.sol\":712:729  return msg.sender */\n      swap1\n      pop\n        /* \"https://github.com/OpenZeppelin/openzeppelin-contracts/blob/v4.8.0/contracts/utils/Context.sol\":640:736  function _msgSender() internal view virtual returns (address) {... */\n      swap1\n      jump\t// out\n        /* \"https://github.com/OpenZeppelin/openzeppelin-contracts/blob/v4.8.0/contracts/access/AccessControl.sol\":7865:8099  function _revokeRole(bytes32 role, address account) internal virtual {... */\n    tag_144:\n        /* \"https://github.com/OpenZeppelin/openzeppelin-contracts/blob/v4.8.0/contracts/access/AccessControl.sol\":7948:7970  hasRole(role, account) */\n      tag_265\n        /* \"https://github.com/OpenZeppelin/openzeppelin-contracts/blob/v4.8.0/contracts/access/AccessControl.sol\":7956:7960  role */\n      dup3\n        /* \"https://github.com/OpenZeppelin/openzeppelin-contracts/blob/v4.8.0/contracts/access/AccessControl.sol\":7962:7969  account */\n      dup3\n        /* \"https://github.com/OpenZeppelin/openzeppelin-contracts/blob/v4.8.0/contracts/access/AccessControl.sol\":7948:7955  hasRole */\n      tag_77\n        /* \"https://github.com/OpenZeppelin/openzeppelin-contracts/blob/v4.8.0/contracts/access/AccessControl.sol\":7948:7970  hasRole(role, account) */\n      jump\t// in\n    tag_265:\n        /* \"https://github.com/OpenZeppelin/openzeppelin-contracts/blob/v4.8.0/contracts/access/AccessControl.sol\":7944:8093  if (hasRole(role, account)) {... */\n      iszero\n      tag_266\n      jumpi\n        /* \"https://github.com/OpenZeppelin/openzeppelin-contracts/blob/v4.8.0/contracts/access/AccessControl.sol\":8018:8023  false */\n      0x00\n        /* \"https://github.com/OpenZeppelin/openzeppelin-contracts/blob/v4.8.0/contracts/access/AccessControl.sol\":7986:7992  _roles */\n      dup1\n        /* \"https://github.com/OpenZeppelin/openzeppelin-contracts/blob/v4.8.0/contracts/access/AccessControl.sol\":7986:7998  _roles[role] */\n      0x00\n        /* \"https://github.com/OpenZeppelin/openzeppelin-contracts/blob/v4.8.0/contracts/access/AccessControl.sol\":7993:7997  role */\n      dup5\n        /* \"https://github.com/OpenZeppelin/openzeppelin-contracts/blob/v4.8.0/contracts/access/AccessControl.sol\":7986:7998  _roles[role] */\n      dup2\n      mstore\n      0x20\n      add\n      swap1\n      dup2\n      mstore\n      0x20\n      add\n      0x00\n      keccak256\n        /* \"https://github.com/OpenZeppelin/openzeppelin-contracts/blob/v4.8.0/contracts/access/AccessControl.sol\":7986:8006  _roles[role].members */\n      0x00\n      add\n        /* \"https://github.com/OpenZeppelin/openzeppelin-contracts/blob/v4.8.0/contracts/access/AccessControl.sol\":7986:8015  _roles[role].members[account] */\n      0x00\n        /* \"https://github.com/OpenZeppelin/openzeppelin-contracts/blob/v4.8.0/contracts/access/AccessControl.sol\":8007:8014  account */\n      dup4\n        /* \"https://github.com/OpenZeppelin/openzeppelin-contracts/blob/v4.8.0/contracts/access/AccessControl.sol\":7986:8015  _roles[role].members[account] */\n      0xffffffffffffffffffffffffffffffffffffffff\n      and\n      0xffffffffffffffffffffffffffffffffffffffff\n      and\n      dup2\n      mstore\n      0x20\n      add\n      swap1\n      dup2\n      mstore\n      0x20\n      add\n      0x00\n      keccak256\n      0x00\n        /* \"https://github.com/OpenZeppelin/openzeppelin-contracts/blob/v4.8.0/contracts/access/AccessControl.sol\":7986:8023  _roles[role].members[account] = false */\n      0x0100\n      exp\n      dup2\n      sload\n      dup2\n      0xff\n      mul\n      not\n      and\n      swap1\n      dup4\n      iszero\n      iszero\n      mul\n      or\n      swap1\n      sstore\n      pop\n        /* \"https://github.com/OpenZeppelin/openzeppelin-contracts/blob/v4.8.0/contracts/access/AccessControl.sol\":8069:8081  _msgSender() */\n      tag_267\n        /* \"https://github.com/OpenZeppelin/openzeppelin-contracts/blob/v4.8.0/contracts/access/AccessControl.sol\":8069:8079  _msgSender */\n      tag_139\n        /* \"https://github.com/OpenZeppelin/openzeppelin-contracts/blob/v4.8.0/contracts/access/AccessControl.sol\":8069:8081  _msgSender() */\n      jump\t// in\n    tag_267:\n        /* \"https://github.com/OpenZeppelin/openzeppelin-contracts/blob/v4.8.0/contracts/access/AccessControl.sol\":8042:8082  RoleRevoked(role, account, _msgSender()) */\n      0xffffffffffffffffffffffffffffffffffffffff\n      and\n        /* \"https://github.com/OpenZeppelin/openzeppelin-contracts/blob/v4.8.0/contracts/access/AccessControl.sol\":8060:8067  account */\n      dup2\n        /* \"https://github.com/OpenZeppelin/openzeppelin-contracts/blob/v4.8.0/contracts/access/AccessControl.sol\":8042:8082  RoleRevoked(role, account, _msgSender()) */\n      0xffffffffffffffffffffffffffffffffffffffff\n      and\n        /* \"https://github.com/OpenZeppelin/openzeppelin-contracts/blob/v4.8.0/contracts/access/AccessControl.sol\":8054:8058  role */\n      dup4\n        /* \"https://github.com/OpenZeppelin/openzeppelin-contracts/blob/v4.8.0/contracts/access/AccessControl.sol\":8042:8082  RoleRevoked(role, account, _msgSender()) */\n      0xf6391f5c32d9c69d2a47ea670b442974b53935d1edc7fd64eb21e047a839171b\n      mload(0x40)\n      mload(0x40)\n      dup1\n      swap2\n      sub\n      swap1\n      log4\n        /* \"https://github.com/OpenZeppelin/openzeppelin-contracts/blob/v4.8.0/contracts/access/AccessControl.sol\":7944:8093  if (hasRole(role, account)) {... */\n    tag_266:\n        /* \"https://github.com/OpenZeppelin/openzeppelin-contracts/blob/v4.8.0/contracts/access/AccessControl.sol\":7865:8099  function _revokeRole(bytes32 role, address account) internal virtual {... */\n      pop\n      pop\n      jump\t// out\n        /* \"https://github.com/OpenZeppelin/openzeppelin-contracts/blob/v4.8.0/contracts/access/AccessControl.sol\":3718:4197  function _checkRole(bytes32 role, address account) internal view virtual {... */\n    tag_258:\n        /* \"https://github.com/OpenZeppelin/openzeppelin-contracts/blob/v4.8.0/contracts/access/AccessControl.sol\":3806:3828  hasRole(role, account) */\n      tag_269\n        /* \"https://github.com/OpenZeppelin/openzeppelin-contracts/blob/v4.8.0/contracts/access/AccessControl.sol\":3814:3818  role */\n      dup3\n        /* \"https://github.com/OpenZeppelin/openzeppelin-contracts/blob/v4.8.0/contracts/access/AccessControl.sol\":3820:3827  account */\n      dup3\n        /* \"https://github.com/OpenZeppelin/openzeppelin-contracts/blob/v4.8.0/contracts/access/AccessControl.sol\":3806:3813  hasRole */\n      tag_77\n        /* \"https://github.com/OpenZeppelin/openzeppelin-contracts/blob/v4.8.0/contracts/access/AccessControl.sol\":3806:3828  hasRole(role, account) */\n      jump\t// in\n    tag_269:\n        /* \"https://github.com/OpenZeppelin/openzeppelin-contracts/blob/v4.8.0/contracts/access/AccessControl.sol\":3801:4191  if (!hasRole(role, account)) {... */\n      tag_270\n      jumpi\n        /* \"https://github.com/OpenZeppelin/openzeppelin-contracts/blob/v4.8.0/contracts/access/AccessControl.sol\":3989:4017  Strings.toHexString(account) */\n      tag_271\n        /* \"https://github.com/OpenZeppelin/openzeppelin-contracts/blob/v4.8.0/contracts/access/AccessControl.sol\":4009:4016  account */\n      dup2\n        /* \"https://github.com/OpenZeppelin/openzeppelin-contracts/blob/v4.8.0/contracts/access/AccessControl.sol\":3989:4008  Strings.toHexString */\n      tag_272\n        /* \"https://github.com/OpenZeppelin/openzeppelin-contracts/blob/v4.8.0/contracts/access/AccessControl.sol\":3989:4017  Strings.toHexString(account) */\n      jump\t// in\n    tag_271:\n        /* \"https://github.com/OpenZeppelin/openzeppelin-contracts/blob/v4.8.0/contracts/access/AccessControl.sol\":4088:4126  Strings.toHexString(uint256(role), 32) */\n      tag_273\n        /* \"https://github.com/OpenZeppelin/openzeppelin-contracts/blob/v4.8.0/contracts/access/AccessControl.sol\":4116:4120  role */\n      dup4\n        /* \"https://github.com/OpenZeppelin/openzeppelin-contracts/blob/v4.8.0/contracts/access/AccessControl.sol\":4108:4121  uint256(role) */\n      0x00\n      shr\n        /* \"https://github.com/OpenZeppelin/openzeppelin-contracts/blob/v4.8.0/contracts/access/AccessControl.sol\":4123:4125  32 */\n      0x20\n        /* \"https://github.com/OpenZeppelin/openzeppelin-contracts/blob/v4.8.0/contracts/access/AccessControl.sol\":4088:4107  Strings.toHexString */\n      tag_274\n        /* \"https://github.com/OpenZeppelin/openzeppelin-contracts/blob/v4.8.0/contracts/access/AccessControl.sol\":4088:4126  Strings.toHexString(uint256(role), 32) */\n      jump\t// in\n    tag_273:\n        /* \"https://github.com/OpenZeppelin/openzeppelin-contracts/blob/v4.8.0/contracts/access/AccessControl.sol\":3896:4148  abi.encodePacked(... */\n      add(0x20, mload(0x40))\n      tag_275\n      swap3\n      swap2\n      swap1\n      tag_276\n      jump\t// in\n    tag_275:\n      mload(0x40)\n      0x20\n      dup2\n      dup4\n      sub\n      sub\n      dup2\n      mstore\n      swap1\n      0x40\n      mstore\n        /* \"https://github.com/OpenZeppelin/openzeppelin-contracts/blob/v4.8.0/contracts/access/AccessControl.sol\":3844:4180  revert(... */\n      mload(0x40)\n      0x08c379a000000000000000000000000000000000000000000000000000000000\n      dup2\n      mstore\n      0x04\n      add\n      tag_277\n      swap2\n      swap1\n      tag_278\n      jump\t// in\n    tag_277:\n      mload(0x40)\n      dup1\n      swap2\n      sub\n      swap1\n      revert\n        /* \"https://github.com/OpenZeppelin/openzeppelin-contracts/blob/v4.8.0/contracts/access/AccessControl.sol\":3801:4191  if (!hasRole(role, account)) {... */\n    tag_270:\n        /* \"https://github.com/OpenZeppelin/openzeppelin-contracts/blob/v4.8.0/contracts/access/AccessControl.sol\":3718:4197  function _checkRole(bytes32 role, address account) internal view virtual {... */\n      pop\n      pop\n      jump\t// out\n        /* \"https://github.com/OpenZeppelin/openzeppelin-contracts/blob/v4.8.0/contracts/utils/Strings.sol\":2102:2251  function toHexString(address addr) internal pure returns (string memory) {... */\n    tag_272:\n        /* \"https://github.com/OpenZeppelin/openzeppelin-contracts/blob/v4.8.0/contracts/utils/Strings.sol\":2160:2173  string memory */\n      0x60\n        /* \"https://github.com/OpenZeppelin/openzeppelin-contracts/blob/v4.8.0/contracts/utils/Strings.sol\":2192:2244  toHexString(uint256(uint160(addr)), _ADDRESS_LENGTH) */\n      tag_280\n        /* \"https://github.com/OpenZeppelin/openzeppelin-contracts/blob/v4.8.0/contracts/utils/Strings.sol\":2220:2224  addr */\n      dup3\n        /* \"https://github.com/OpenZeppelin/openzeppelin-contracts/blob/v4.8.0/contracts/utils/Strings.sol\":2204:2226  uint256(uint160(addr)) */\n      0xffffffffffffffffffffffffffffffffffffffff\n      and\n        /* \"https://github.com/OpenZeppelin/openzeppelin-contracts/blob/v4.8.0/contracts/utils/Strings.sol\":311:313  20 */\n      0x14\n        /* \"https://github.com/OpenZeppelin/openzeppelin-contracts/blob/v4.8.0/contracts/utils/Strings.sol\":2192:2244  toHexString(uint256(uint160(addr)), _ADDRESS_LENGTH) */\n      0xff\n      and\n        /* \"https://github.com/OpenZeppelin/openzeppelin-contracts/blob/v4.8.0/contracts/utils/Strings.sol\":2192:2203  toHexString */\n      tag_274\n        /* \"https://github.com/OpenZeppelin/openzeppelin-contracts/blob/v4.8.0/contracts/utils/Strings.sol\":2192:2244  toHexString(uint256(uint160(addr)), _ADDRESS_LENGTH) */\n      jump\t// in\n    tag_280:\n        /* \"https://github.com/OpenZeppelin/openzeppelin-contracts/blob/v4.8.0/contracts/utils/Strings.sol\":2185:2244  return toHexString(uint256(uint160(addr)), _ADDRESS_LENGTH) */\n      swap1\n      pop\n        /* \"https://github.com/OpenZeppelin/openzeppelin-contracts/blob/v4.8.0/contracts/utils/Strings.sol\":2102:2251  function toHexString(address addr) internal pure returns (string memory) {... */\n      swap2\n      swap1\n      pop\n      jump\t// out\n        /* \"https://github.com/OpenZeppelin/openzeppelin-contracts/blob/v4.8.0/contracts/utils/Strings.sol\":1513:1950  function toHexString(uint256 value, uint256 length) internal pure returns (string memory) {... */\n    tag_274:\n        /* \"https://github.com/OpenZeppelin/openzeppelin-contracts/blob/v4.8.0/contracts/utils/Strings.sol\":1588:1601  string memory */\n      0x60\n        /* \"https://github.com/OpenZeppelin/openzeppelin-contracts/blob/v4.8.0/contracts/utils/Strings.sol\":1613:1632  bytes memory buffer */\n      0x00\n        /* \"https://github.com/OpenZeppelin/openzeppelin-contracts/blob/v4.8.0/contracts/utils/Strings.sol\":1658:1659  2 */\n      0x02\n        /* \"https://github.com/OpenZeppelin/openzeppelin-contracts/blob/v4.8.0/contracts/utils/Strings.sol\":1649:1655  length */\n      dup4\n        /* \"https://github.com/OpenZeppelin/openzeppelin-contracts/blob/v4.8.0/contracts/utils/Strings.sol\":1645:1646  2 */\n      0x02\n        /* \"https://github.com/OpenZeppelin/openzeppelin-contracts/blob/v4.8.0/contracts/utils/Strings.sol\":1645:1655  2 * length */\n      tag_282\n      swap2\n      swap1\n      tag_283\n      jump\t// in\n    tag_282:\n        /* \"https://github.com/OpenZeppelin/openzeppelin-contracts/blob/v4.8.0/contracts/utils/Strings.sol\":1645:1659  2 * length + 2 */\n      tag_284\n      swap2\n      swap1\n      tag_285\n      jump\t// in\n    tag_284:\n        /* \"https://github.com/OpenZeppelin/openzeppelin-contracts/blob/v4.8.0/contracts/utils/Strings.sol\":1635:1660  new bytes(2 * length + 2) */\n      0xffffffffffffffff\n      dup2\n      gt\n      iszero\n      tag_286\n      jumpi\n      tag_287\n      tag_288\n      jump\t// in\n    tag_287:\n    tag_286:\n      mload(0x40)\n      swap1\n      dup1\n      dup3\n      mstore\n      dup1\n      0x1f\n      add\n      not(0x1f)\n      and\n      0x20\n      add\n      dup3\n      add\n      0x40\n      mstore\n      dup1\n      iszero\n      tag_289\n      jumpi\n      dup2\n      0x20\n      add\n      0x01\n      dup3\n      mul\n      dup1\n      calldatasize\n      dup4\n      calldatacopy\n      dup1\n      dup3\n      add\n      swap2\n      pop\n      pop\n      swap1\n      pop\n    tag_289:\n      pop\n        /* \"https://github.com/OpenZeppelin/openzeppelin-contracts/blob/v4.8.0/contracts/utils/Strings.sol\":1613:1660  bytes memory buffer = new bytes(2 * length + 2) */\n      swap1\n      pop\n        /* \"https://github.com/OpenZeppelin/openzeppelin-contracts/blob/v4.8.0/contracts/utils/Strings.sol\":1670:1685  buffer[0] = \"0\" */\n      0x3000000000000000000000000000000000000000000000000000000000000000\n        /* \"https://github.com/OpenZeppelin/openzeppelin-contracts/blob/v4.8.0/contracts/utils/Strings.sol\":1670:1676  buffer */\n      dup2\n        /* \"https://github.com/OpenZeppelin/openzeppelin-contracts/blob/v4.8.0/contracts/utils/Strings.sol\":1677:1678  0 */\n      0x00\n        /* \"https://github.com/OpenZeppelin/openzeppelin-contracts/blob/v4.8.0/contracts/utils/Strings.sol\":1670:1679  buffer[0] */\n      dup2\n      mload\n      dup2\n      lt\n      tag_290\n      jumpi\n      tag_291\n      tag_156\n      jump\t// in\n    tag_291:\n    tag_290:\n      0x20\n      add\n      add\n        /* \"https://github.com/OpenZeppelin/openzeppelin-contracts/blob/v4.8.0/contracts/utils/Strings.sol\":1670:1685  buffer[0] = \"0\" */\n      swap1\n      not(0xffffffffffffffffffffffffffffffffffffffffffffffffffffffffffffff)\n      and\n      swap1\n      dup2\n      0x00\n      byte\n      swap1\n      mstore8\n      pop\n        /* \"https://github.com/OpenZeppelin/openzeppelin-contracts/blob/v4.8.0/contracts/utils/Strings.sol\":1695:1710  buffer[1] = \"x\" */\n      0x7800000000000000000000000000000000000000000000000000000000000000\n        /* \"https://github.com/OpenZeppelin/openzeppelin-contracts/blob/v4.8.0/contracts/utils/Strings.sol\":1695:1701  buffer */\n      dup2\n        /* \"https://github.com/OpenZeppelin/openzeppelin-contracts/blob/v4.8.0/contracts/utils/Strings.sol\":1702:1703  1 */\n      0x01\n        /* \"https://github.com/OpenZeppelin/openzeppelin-contracts/blob/v4.8.0/contracts/utils/Strings.sol\":1695:1704  buffer[1] */\n      dup2\n      mload\n      dup2\n      lt\n      tag_292\n      jumpi\n      tag_293\n      tag_156\n      jump\t// in\n    tag_293:\n    tag_292:\n      0x20\n      add\n      add\n        /* \"https://github.com/OpenZeppelin/openzeppelin-contracts/blob/v4.8.0/contracts/utils/Strings.sol\":1695:1710  buffer[1] = \"x\" */\n      swap1\n      not(0xffffffffffffffffffffffffffffffffffffffffffffffffffffffffffffff)\n      and\n      swap1\n      dup2\n      0x00\n      byte\n      swap1\n      mstore8\n      pop\n        /* \"https://github.com/OpenZeppelin/openzeppelin-contracts/blob/v4.8.0/contracts/utils/Strings.sol\":1725:1734  uint256 i */\n      0x00\n        /* \"https://github.com/OpenZeppelin/openzeppelin-contracts/blob/v4.8.0/contracts/utils/Strings.sol\":1750:1751  1 */\n      0x01\n        /* \"https://github.com/OpenZeppelin/openzeppelin-contracts/blob/v4.8.0/contracts/utils/Strings.sol\":1741:1747  length */\n      dup5\n        /* \"https://github.com/OpenZeppelin/openzeppelin-contracts/blob/v4.8.0/contracts/utils/Strings.sol\":1737:1738  2 */\n      0x02\n        /* \"https://github.com/OpenZeppelin/openzeppelin-contracts/blob/v4.8.0/contracts/utils/Strings.sol\":1737:1747  2 * length */\n      tag_297\n      swap2\n      swap1\n      tag_283\n      jump\t// in\n    tag_297:\n        /* \"https://github.com/OpenZeppelin/openzeppelin-contracts/blob/v4.8.0/contracts/utils/Strings.sol\":1737:1751  2 * length + 1 */\n      tag_298\n      swap2\n      swap1\n      tag_285\n      jump\t// in\n    tag_298:\n        /* \"https://github.com/OpenZeppelin/openzeppelin-contracts/blob/v4.8.0/contracts/utils/Strings.sol\":1725:1751  uint256 i = 2 * length + 1 */\n      swap1\n      pop\n        /* \"https://github.com/OpenZeppelin/openzeppelin-contracts/blob/v4.8.0/contracts/utils/Strings.sol\":1720:1848  for (uint256 i = 2 * length + 1; i > 1; --i) {... */\n    tag_294:\n        /* \"https://github.com/OpenZeppelin/openzeppelin-contracts/blob/v4.8.0/contracts/utils/Strings.sol\":1757:1758  1 */\n      0x01\n        /* \"https://github.com/OpenZeppelin/openzeppelin-contracts/blob/v4.8.0/contracts/utils/Strings.sol\":1753:1754  i */\n      dup2\n        /* \"https://github.com/OpenZeppelin/openzeppelin-contracts/blob/v4.8.0/contracts/utils/Strings.sol\":1753:1758  i > 1 */\n      gt\n        /* \"https://github.com/OpenZeppelin/openzeppelin-contracts/blob/v4.8.0/contracts/utils/Strings.sol\":1720:1848  for (uint256 i = 2 * length + 1; i > 1; --i) {... */\n      iszero\n      tag_295\n      jumpi\n        /* \"https://github.com/OpenZeppelin/openzeppelin-contracts/blob/v4.8.0/contracts/utils/Strings.sol\":1791:1799  _SYMBOLS */\n      0x3031323334353637383961626364656600000000000000000000000000000000\n        /* \"https://github.com/OpenZeppelin/openzeppelin-contracts/blob/v4.8.0/contracts/utils/Strings.sol\":1808:1811  0xf */\n      0x0f\n        /* \"https://github.com/OpenZeppelin/openzeppelin-contracts/blob/v4.8.0/contracts/utils/Strings.sol\":1800:1805  value */\n      dup7\n        /* \"https://github.com/OpenZeppelin/openzeppelin-contracts/blob/v4.8.0/contracts/utils/Strings.sol\":1800:1811  value & 0xf */\n      and\n        /* \"https://github.com/OpenZeppelin/openzeppelin-contracts/blob/v4.8.0/contracts/utils/Strings.sol\":1791:1812  _SYMBOLS[value & 0xf] */\n      0x10\n      dup2\n      lt\n      tag_299\n      jumpi\n      tag_300\n      tag_156\n      jump\t// in\n    tag_300:\n    tag_299:\n      byte\n      0xf8\n      shl\n        /* \"https://github.com/OpenZeppelin/openzeppelin-contracts/blob/v4.8.0/contracts/utils/Strings.sol\":1779:1785  buffer */\n      dup3\n        /* \"https://github.com/OpenZeppelin/openzeppelin-contracts/blob/v4.8.0/contracts/utils/Strings.sol\":1786:1787  i */\n      dup3\n        /* \"https://github.com/OpenZeppelin/openzeppelin-contracts/blob/v4.8.0/contracts/utils/Strings.sol\":1779:1788  buffer[i] */\n      dup2\n      mload\n      dup2\n      lt\n      tag_301\n      jumpi\n      tag_302\n      tag_156\n      jump\t// in\n    tag_302:\n    tag_301:\n      0x20\n      add\n      add\n        /* \"https://github.com/OpenZeppelin/openzeppelin-contracts/blob/v4.8.0/contracts/utils/Strings.sol\":1779:1812  buffer[i] = _SYMBOLS[value & 0xf] */\n      swap1\n      not(0xffffffffffffffffffffffffffffffffffffffffffffffffffffffffffffff)\n      and\n      swap1\n      dup2\n      0x00\n      byte\n      swap1\n      mstore8\n      pop\n        /* \"https://github.com/OpenZeppelin/openzeppelin-contracts/blob/v4.8.0/contracts/utils/Strings.sol\":1836:1837  4 */\n      0x04\n        /* \"https://github.com/OpenZeppelin/openzeppelin-contracts/blob/v4.8.0/contracts/utils/Strings.sol\":1826:1837  value >>= 4 */\n      dup6\n      swap1\n      shr\n      swap5\n      pop\n        /* \"https://github.com/OpenZeppelin/openzeppelin-contracts/blob/v4.8.0/contracts/utils/Strings.sol\":1760:1763  --i */\n      dup1\n      tag_303\n      swap1\n      tag_304\n      jump\t// in\n    tag_303:\n      swap1\n      pop\n        /* \"https://github.com/OpenZeppelin/openzeppelin-contracts/blob/v4.8.0/contracts/utils/Strings.sol\":1720:1848  for (uint256 i = 2 * length + 1; i > 1; --i) {... */\n      jump(tag_294)\n    tag_295:\n      pop\n        /* \"https://github.com/OpenZeppelin/openzeppelin-contracts/blob/v4.8.0/contracts/utils/Strings.sol\":1874:1875  0 */\n      0x00\n        /* \"https://github.com/OpenZeppelin/openzeppelin-contracts/blob/v4.8.0/contracts/utils/Strings.sol\":1865:1870  value */\n      dup5\n        /* \"https://github.com/OpenZeppelin/openzeppelin-contracts/blob/v4.8.0/contracts/utils/Strings.sol\":1865:1875  value == 0 */\n      eq\n        /* \"https://github.com/OpenZeppelin/openzeppelin-contracts/blob/v4.8.0/contracts/utils/Strings.sol\":1857:1912  require(value == 0, \"Strings: hex length insufficient\") */\n      tag_305\n      jumpi\n      mload(0x40)\n      0x08c379a000000000000000000000000000000000000000000000000000000000\n      dup2\n      mstore\n      0x04\n      add\n      tag_306\n      swap1\n      tag_307\n      jump\t// in\n    tag_306:\n      mload(0x40)\n      dup1\n      swap2\n      sub\n      swap1\n      revert\n    tag_305:\n        /* \"https://github.com/OpenZeppelin/openzeppelin-contracts/blob/v4.8.0/contracts/utils/Strings.sol\":1936:1942  buffer */\n      dup1\n        /* \"https://github.com/OpenZeppelin/openzeppelin-contracts/blob/v4.8.0/contracts/utils/Strings.sol\":1922:1943  return string(buffer) */\n      swap2\n      pop\n      pop\n        /* \"https://github.com/OpenZeppelin/openzeppelin-contracts/blob/v4.8.0/contracts/utils/Strings.sol\":1513:1950  function toHexString(uint256 value, uint256 length) internal pure returns (string memory) {... */\n      swap3\n      swap2\n      pop\n      pop\n      jump\t// out\n    tag_181:\n      mload(0x40)\n      dup1\n      0x20\n      add\n      0x40\n      mstore\n      dup1\n      0x00\n      dup2\n      mstore\n      pop\n      swap1\n      jump\t// out\n    tag_200:\n      mload(0x40)\n      dup1\n      0xa0\n      add\n      0x40\n      mstore\n      dup1\n      0x00\n      dup2\n      mstore\n      0x20\n      add\n      0x00\n      dup2\n      mstore\n      0x20\n      add\n      0x00\n      dup2\n      mstore\n      0x20\n      add\n      0x00\n      dup2\n      mstore\n      0x20\n      add\n      iszero(iszero(0x00))\n      dup2\n      mstore\n      pop\n      swap1\n      jump\t// out\n        /* \"#utility.yul\":88:205   */\n    tag_309:\n        /* \"#utility.yul\":197:198   */\n      0x00\n        /* \"#utility.yul\":194:195   */\n      dup1\n        /* \"#utility.yul\":187:199   */\n      revert\n        /* \"#utility.yul\":211:328   */\n    tag_310:\n        /* \"#utility.yul\":320:321   */\n      0x00\n        /* \"#utility.yul\":317:318   */\n      dup1\n        /* \"#utility.yul\":310:322   */\n      revert\n        /* \"#utility.yul\":334:483   */\n    tag_311:\n        /* \"#utility.yul\":370:377   */\n      0x00\n        /* \"#utility.yul\":410:476   */\n      0xffffffff00000000000000000000000000000000000000000000000000000000\n        /* \"#utility.yul\":403:408   */\n      dup3\n        /* \"#utility.yul\":399:477   */\n      and\n        /* \"#utility.yul\":388:477   */\n      swap1\n      pop\n        /* \"#utility.yul\":334:483   */\n      swap2\n      swap1\n      pop\n      jump\t// out\n        /* \"#utility.yul\":489:609   */\n    tag_312:\n        /* \"#utility.yul\":561:584   */\n      tag_397\n        /* \"#utility.yul\":578:583   */\n      dup2\n        /* \"#utility.yul\":561:584   */\n      tag_311\n      jump\t// in\n    tag_397:\n        /* \"#utility.yul\":554:559   */\n      dup2\n        /* \"#utility.yul\":551:585   */\n      eq\n        /* \"#utility.yul\":541:603   */\n      tag_398\n      jumpi\n        /* \"#utility.yul\":599:600   */\n      0x00\n        /* \"#utility.yul\":596:597   */\n      dup1\n        /* \"#utility.yul\":589:601   */\n      revert\n        /* \"#utility.yul\":541:603   */\n    tag_398:\n        /* \"#utility.yul\":489:609   */\n      pop\n      jump\t// out\n        /* \"#utility.yul\":615:752   */\n    tag_313:\n        /* \"#utility.yul\":660:665   */\n      0x00\n        /* \"#utility.yul\":698:704   */\n      dup2\n        /* \"#utility.yul\":685:705   */\n      calldataload\n        /* \"#utility.yul\":676:705   */\n      swap1\n      pop\n        /* \"#utility.yul\":714:746   */\n      tag_400\n        /* \"#utility.yul\":740:745   */\n      dup2\n        /* \"#utility.yul\":714:746   */\n      tag_312\n      jump\t// in\n    tag_400:\n        /* \"#utility.yul\":615:752   */\n      swap3\n      swap2\n      pop\n      pop\n      jump\t// out\n        /* \"#utility.yul\":758:1085   */\n    tag_31:\n        /* \"#utility.yul\":816:822   */\n      0x00\n        /* \"#utility.yul\":865:867   */\n      0x20\n        /* \"#utility.yul\":853:862   */\n      dup3\n        /* \"#utility.yul\":844:851   */\n      dup5\n        /* \"#utility.yul\":840:863   */\n      sub\n        /* \"#utility.yul\":836:868   */\n      slt\n        /* \"#utility.yul\":833:952   */\n      iszero\n      tag_402\n      jumpi\n        /* \"#utility.yul\":871:950   */\n      tag_403\n      tag_309\n      jump\t// in\n    tag_403:\n        /* \"#utility.yul\":833:952   */\n    tag_402:\n        /* \"#utility.yul\":991:992   */\n      0x00\n        /* \"#utility.yul\":1016:1068   */\n      tag_404\n        /* \"#utility.yul\":1060:1067   */\n      dup5\n        /* \"#utility.yul\":1051:1057   */\n      dup3\n        /* \"#utility.yul\":1040:1049   */\n      dup6\n        /* \"#utility.yul\":1036:1058   */\n      add\n        /* \"#utility.yul\":1016:1068   */\n      tag_313\n      jump\t// in\n    tag_404:\n        /* \"#utility.yul\":1006:1068   */\n      swap2\n      pop\n        /* \"#utility.yul\":962:1078   */\n      pop\n        /* \"#utility.yul\":758:1085   */\n      swap3\n      swap2\n      pop\n      pop\n      jump\t// out\n        /* \"#utility.yul\":1091:1181   */\n    tag_314:\n        /* \"#utility.yul\":1125:1132   */\n      0x00\n        /* \"#utility.yul\":1168:1173   */\n      dup2\n        /* \"#utility.yul\":1161:1174   */\n      iszero\n        /* \"#utility.yul\":1154:1175   */\n      iszero\n        /* \"#utility.yul\":1143:1175   */\n      swap1\n      pop\n        /* \"#utility.yul\":1091:1181   */\n      swap2\n      swap1\n      pop\n      jump\t// out\n        /* \"#utility.yul\":1187:1296   */\n    tag_315:\n        /* \"#utility.yul\":1268:1289   */\n      tag_407\n        /* \"#utility.yul\":1283:1288   */\n      dup2\n        /* \"#utility.yul\":1268:1289   */\n      tag_314\n      jump\t// in\n    tag_407:\n        /* \"#utility.yul\":1263:1266   */\n      dup3\n        /* \"#utility.yul\":1256:1290   */\n      mstore\n        /* \"#utility.yul\":1187:1296   */\n      pop\n      pop\n      jump\t// out\n        /* \"#utility.yul\":1302:1512   */\n    tag_34:\n        /* \"#utility.yul\":1389:1393   */\n      0x00\n        /* \"#utility.yul\":1427:1429   */\n      0x20\n        /* \"#utility.yul\":1416:1425   */\n      dup3\n        /* \"#utility.yul\":1412:1430   */\n      add\n        /* \"#utility.yul\":1404:1430   */\n      swap1\n      pop\n        /* \"#utility.yul\":1440:1505   */\n      tag_409\n        /* \"#utility.yul\":1502:1503   */\n      0x00\n        /* \"#utility.yul\":1491:1500   */\n      dup4\n        /* \"#utility.yul\":1487:1504   */\n      add\n        /* \"#utility.yul\":1478:1484   */\n      dup5\n        /* \"#utility.yul\":1440:1505   */\n      tag_315\n      jump\t// in\n    tag_409:\n        /* \"#utility.yul\":1302:1512   */\n      swap3\n      swap2\n      pop\n      pop\n      jump\t// out\n        /* \"#utility.yul\":1518:1644   */\n    tag_316:\n        /* \"#utility.yul\":1555:1562   */\n      0x00\n        /* \"#utility.yul\":1595:1637   */\n      0xffffffffffffffffffffffffffffffffffffffff\n        /* \"#utility.yul\":1588:1593   */\n      dup3\n        /* \"#utility.yul\":1584:1638   */\n      and\n        /* \"#utility.yul\":1573:1638   */\n      swap1\n      pop\n        /* \"#utility.yul\":1518:1644   */\n      swap2\n      swap1\n      pop\n      jump\t// out\n        /* \"#utility.yul\":1650:1710   */\n    tag_317:\n        /* \"#utility.yul\":1678:1681   */\n      0x00\n        /* \"#utility.yul\":1699:1704   */\n      dup2\n        /* \"#utility.yul\":1692:1704   */\n      swap1\n      pop\n        /* \"#utility.yul\":1650:1710   */\n      swap2\n      swap1\n      pop\n      jump\t// out\n        /* \"#utility.yul\":1716:1858   */\n    tag_318:\n        /* \"#utility.yul\":1766:1775   */\n      0x00\n        /* \"#utility.yul\":1799:1852   */\n      tag_413\n        /* \"#utility.yul\":1817:1851   */\n      tag_414\n        /* \"#utility.yul\":1826:1850   */\n      tag_415\n        /* \"#utility.yul\":1844:1849   */\n      dup5\n        /* \"#utility.yul\":1826:1850   */\n      tag_316\n      jump\t// in\n    tag_415:\n        /* \"#utility.yul\":1817:1851   */\n      tag_317\n      jump\t// in\n    tag_414:\n        /* \"#utility.yul\":1799:1852   */\n      tag_316\n      jump\t// in\n    tag_413:\n        /* \"#utility.yul\":1786:1852   */\n      swap1\n      pop\n        /* \"#utility.yul\":1716:1858   */\n      swap2\n      swap1\n      pop\n      jump\t// out\n        /* \"#utility.yul\":1864:1990   */\n    tag_319:\n        /* \"#utility.yul\":1914:1923   */\n      0x00\n        /* \"#utility.yul\":1947:1984   */\n      tag_417\n        /* \"#utility.yul\":1978:1983   */\n      dup3\n        /* \"#utility.yul\":1947:1984   */\n      tag_318\n      jump\t// in\n    tag_417:\n        /* \"#utility.yul\":1934:1984   */\n      swap1\n      pop\n        /* \"#utility.yul\":1864:1990   */\n      swap2\n      swap1\n      pop\n      jump\t// out\n        /* \"#utility.yul\":1996:2143   */\n    tag_320:\n        /* \"#utility.yul\":2067:2076   */\n      0x00\n        /* \"#utility.yul\":2100:2137   */\n      tag_419\n        /* \"#utility.yul\":2131:2136   */\n      dup3\n        /* \"#utility.yul\":2100:2137   */\n      tag_319\n      jump\t// in\n    tag_419:\n        /* \"#utility.yul\":2087:2137   */\n      swap1\n      pop\n        /* \"#utility.yul\":1996:2143   */\n      swap2\n      swap1\n      pop\n      jump\t// out\n        /* \"#utility.yul\":2149:2322   */\n    tag_321:\n        /* \"#utility.yul\":2257:2315   */\n      tag_421\n        /* \"#utility.yul\":2309:2314   */\n      dup2\n        /* \"#utility.yul\":2257:2315   */\n      tag_320\n      jump\t// in\n    tag_421:\n        /* \"#utility.yul\":2252:2255   */\n      dup3\n        /* \"#utility.yul\":2245:2316   */\n      mstore\n        /* \"#utility.yul\":2149:2322   */\n      pop\n      pop\n      jump\t// out\n        /* \"#utility.yul\":2328:2592   */\n    tag_38:\n        /* \"#utility.yul\":2442:2446   */\n      0x00\n        /* \"#utility.yul\":2480:2482   */\n      0x20\n        /* \"#utility.yul\":2469:2478   */\n      dup3\n        /* \"#utility.yul\":2465:2483   */\n      add\n        /* \"#utility.yul\":2457:2483   */\n      swap1\n      pop\n        /* \"#utility.yul\":2493:2585   */\n      tag_423\n        /* \"#utility.yul\":2582:2583   */\n      0x00\n        /* \"#utility.yul\":2571:2580   */\n      dup4\n        /* \"#utility.yul\":2567:2584   */\n      add\n        /* \"#utility.yul\":2558:2564   */\n      dup5\n        /* \"#utility.yul\":2493:2585   */\n      tag_321\n      jump\t// in\n    tag_423:\n        /* \"#utility.yul\":2328:2592   */\n      swap3\n      swap2\n      pop\n      pop\n      jump\t// out\n        /* \"#utility.yul\":2598:2675   */\n    tag_322:\n        /* \"#utility.yul\":2635:2642   */\n      0x00\n        /* \"#utility.yul\":2664:2669   */\n      dup2\n        /* \"#utility.yul\":2653:2669   */\n      swap1\n      pop\n        /* \"#utility.yul\":2598:2675   */\n      swap2\n      swap1\n      pop\n      jump\t// out\n        /* \"#utility.yul\":2681:2803   */\n    tag_323:\n        /* \"#utility.yul\":2754:2778   */\n      tag_426\n        /* \"#utility.yul\":2772:2777   */\n      dup2\n        /* \"#utility.yul\":2754:2778   */\n      tag_322\n      jump\t// in\n    tag_426:\n        /* \"#utility.yul\":2747:2752   */\n      dup2\n        /* \"#utility.yul\":2744:2779   */\n      eq\n        /* \"#utility.yul\":2734:2797   */\n      tag_427\n      jumpi\n        /* \"#utility.yul\":2793:2794   */\n      0x00\n        /* \"#utility.yul\":2790:2791   */\n      dup1\n        /* \"#utility.yul\":2783:2795   */\n      revert\n        /* \"#utility.yul\":2734:2797   */\n    tag_427:\n        /* \"#utility.yul\":2681:2803   */\n      pop\n      jump\t// out\n        /* \"#utility.yul\":2809:2948   */\n    tag_324:\n        /* \"#utility.yul\":2855:2860   */\n      0x00\n        /* \"#utility.yul\":2893:2899   */\n      dup2\n        /* \"#utility.yul\":2880:2900   */\n      calldataload\n        /* \"#utility.yul\":2871:2900   */\n      swap1\n      pop\n        /* \"#utility.yul\":2909:2942   */\n      tag_429\n        /* \"#utility.yul\":2936:2941   */\n      dup2\n        /* \"#utility.yul\":2909:2942   */\n      tag_323\n      jump\t// in\n    tag_429:\n        /* \"#utility.yul\":2809:2948   */\n      swap3\n      swap2\n      pop\n      pop\n      jump\t// out\n        /* \"#utility.yul\":2954:3283   */\n    tag_41:\n        /* \"#utility.yul\":3013:3019   */\n      0x00\n        /* \"#utility.yul\":3062:3064   */\n      0x20\n        /* \"#utility.yul\":3050:3059   */\n      dup3\n        /* \"#utility.yul\":3041:3048   */\n      dup5\n        /* \"#utility.yul\":3037:3060   */\n      sub\n        /* \"#utility.yul\":3033:3065   */\n      slt\n        /* \"#utility.yul\":3030:3149   */\n      iszero\n      tag_431\n      jumpi\n        /* \"#utility.yul\":3068:3147   */\n      tag_432\n      tag_309\n      jump\t// in\n    tag_432:\n        /* \"#utility.yul\":3030:3149   */\n    tag_431:\n        /* \"#utility.yul\":3188:3189   */\n      0x00\n        /* \"#utility.yul\":3213:3266   */\n      tag_433\n        /* \"#utility.yul\":3258:3265   */\n      dup5\n        /* \"#utility.yul\":3249:3255   */\n      dup3\n        /* \"#utility.yul\":3238:3247   */\n      dup6\n        /* \"#utility.yul\":3234:3256   */\n      add\n        /* \"#utility.yul\":3213:3266   */\n      tag_324\n      jump\t// in\n    tag_433:\n        /* \"#utility.yul\":3203:3266   */\n      swap2\n      pop\n        /* \"#utility.yul\":3159:3276   */\n      pop\n        /* \"#utility.yul\":2954:3283   */\n      swap3\n      swap2\n      pop\n      pop\n      jump\t// out\n        /* \"#utility.yul\":3289:3407   */\n    tag_325:\n        /* \"#utility.yul\":3376:3400   */\n      tag_435\n        /* \"#utility.yul\":3394:3399   */\n      dup2\n        /* \"#utility.yul\":3376:3400   */\n      tag_322\n      jump\t// in\n    tag_435:\n        /* \"#utility.yul\":3371:3374   */\n      dup3\n        /* \"#utility.yul\":3364:3401   */\n      mstore\n        /* \"#utility.yul\":3289:3407   */\n      pop\n      pop\n      jump\t// out\n        /* \"#utility.yul\":3413:3635   */\n    tag_44:\n        /* \"#utility.yul\":3506:3510   */\n      0x00\n        /* \"#utility.yul\":3544:3546   */\n      0x20\n        /* \"#utility.yul\":3533:3542   */\n      dup3\n        /* \"#utility.yul\":3529:3547   */\n      add\n        /* \"#utility.yul\":3521:3547   */\n      swap1\n      pop\n        /* \"#utility.yul\":3557:3628   */\n      tag_437\n        /* \"#utility.yul\":3625:3626   */\n      0x00\n        /* \"#utility.yul\":3614:3623   */\n      dup4\n        /* \"#utility.yul\":3610:3627   */\n      add\n        /* \"#utility.yul\":3601:3607   */\n      dup5\n        /* \"#utility.yul\":3557:3628   */\n      tag_325\n      jump\t// in\n    tag_437:\n        /* \"#utility.yul\":3413:3635   */\n      swap3\n      swap2\n      pop\n      pop\n      jump\t// out\n        /* \"#utility.yul\":3641:3718   */\n    tag_326:\n        /* \"#utility.yul\":3678:3685   */\n      0x00\n        /* \"#utility.yul\":3707:3712   */\n      dup2\n        /* \"#utility.yul\":3696:3712   */\n      swap1\n      pop\n        /* \"#utility.yul\":3641:3718   */\n      swap2\n      swap1\n      pop\n      jump\t// out\n        /* \"#utility.yul\":3724:3846   */\n    tag_327:\n        /* \"#utility.yul\":3797:3821   */\n      tag_440\n        /* \"#utility.yul\":3815:3820   */\n      dup2\n        /* \"#utility.yul\":3797:3821   */\n      tag_326\n      jump\t// in\n    tag_440:\n        /* \"#utility.yul\":3790:3795   */\n      dup2\n        /* \"#utility.yul\":3787:3822   */\n      eq\n        /* \"#utility.yul\":3777:3840   */\n      tag_441\n      jumpi\n        /* \"#utility.yul\":3836:3837   */\n      0x00\n        /* \"#utility.yul\":3833:3834   */\n      dup1\n        /* \"#utility.yul\":3826:3838   */\n      revert\n        /* \"#utility.yul\":3777:3840   */\n    tag_441:\n        /* \"#utility.yul\":3724:3846   */\n      pop\n      jump\t// out\n        /* \"#utility.yul\":3852:3991   */\n    tag_328:\n        /* \"#utility.yul\":3898:3903   */\n      0x00\n        /* \"#utility.yul\":3936:3942   */\n      dup2\n        /* \"#utility.yul\":3923:3943   */\n      calldataload\n        /* \"#utility.yul\":3914:3943   */\n      swap1\n      pop\n        /* \"#utility.yul\":3952:3985   */\n      tag_443\n        /* \"#utility.yul\":3979:3984   */\n      dup2\n        /* \"#utility.yul\":3952:3985   */\n      tag_327\n      jump\t// in\n    tag_443:\n        /* \"#utility.yul\":3852:3991   */\n      swap3\n      swap2\n      pop\n      pop\n      jump\t// out\n        /* \"#utility.yul\":3997:4326   */\n    tag_47:\n        /* \"#utility.yul\":4056:4062   */\n      0x00\n        /* \"#utility.yul\":4105:4107   */\n      0x20\n        /* \"#utility.yul\":4093:4102   */\n      dup3\n        /* \"#utility.yul\":4084:4091   */\n      dup5\n        /* \"#utility.yul\":4080:4103   */\n      sub\n        /* \"#utility.yul\":4076:4108   */\n      slt\n        /* \"#utility.yul\":4073:4192   */\n      iszero\n      tag_445\n      jumpi\n        /* \"#utility.yul\":4111:4190   */\n      tag_446\n      tag_309\n      jump\t// in\n    tag_446:\n        /* \"#utility.yul\":4073:4192   */\n    tag_445:\n        /* \"#utility.yul\":4231:4232   */\n      0x00\n        /* \"#utility.yul\":4256:4309   */\n      tag_447\n        /* \"#utility.yul\":4301:4308   */\n      dup5\n        /* \"#utility.yul\":4292:4298   */\n      dup3\n        /* \"#utility.yul\":4281:4290   */\n      dup6\n        /* \"#utility.yul\":4277:4299   */\n      add\n        /* \"#utility.yul\":4256:4309   */\n      tag_328\n      jump\t// in\n    tag_447:\n        /* \"#utility.yul\":4246:4309   */\n      swap2\n      pop\n        /* \"#utility.yul\":4202:4319   */\n      pop\n        /* \"#utility.yul\":3997:4326   */\n      swap3\n      swap2\n      pop\n      pop\n      jump\t// out\n        /* \"#utility.yul\":4332:4450   */\n    tag_329:\n        /* \"#utility.yul\":4419:4443   */\n      tag_449\n        /* \"#utility.yul\":4437:4442   */\n      dup2\n        /* \"#utility.yul\":4419:4443   */\n      tag_326\n      jump\t// in\n    tag_449:\n        /* \"#utility.yul\":4414:4417   */\n      dup3\n        /* \"#utility.yul\":4407:4444   */\n      mstore\n        /* \"#utility.yul\":4332:4450   */\n      pop\n      pop\n      jump\t// out\n        /* \"#utility.yul\":4456:4678   */\n    tag_50:\n        /* \"#utility.yul\":4549:4553   */\n      0x00\n        /* \"#utility.yul\":4587:4589   */\n      0x20\n        /* \"#utility.yul\":4576:4585   */\n      dup3\n        /* \"#utility.yul\":4572:4590   */\n      add\n        /* \"#utility.yul\":4564:4590   */\n      swap1\n      pop\n        /* \"#utility.yul\":4600:4671   */\n      tag_451\n        /* \"#utility.yul\":4668:4669   */\n      0x00\n        /* \"#utility.yul\":4657:4666   */\n      dup4\n        /* \"#utility.yul\":4653:4670   */\n      add\n        /* \"#utility.yul\":4644:4650   */\n      dup5\n        /* \"#utility.yul\":4600:4671   */\n      tag_329\n      jump\t// in\n    tag_451:\n        /* \"#utility.yul\":4456:4678   */\n      swap3\n      swap2\n      pop\n      pop\n      jump\t// out\n        /* \"#utility.yul\":4684:4780   */\n    tag_330:\n        /* \"#utility.yul\":4721:4728   */\n      0x00\n        /* \"#utility.yul\":4750:4774   */\n      tag_453\n        /* \"#utility.yul\":4768:4773   */\n      dup3\n        /* \"#utility.yul\":4750:4774   */\n      tag_316\n      jump\t// in\n    tag_453:\n        /* \"#utility.yul\":4739:4774   */\n      swap1\n      pop\n        /* \"#utility.yul\":4684:4780   */\n      swap2\n      swap1\n      pop\n      jump\t// out\n        /* \"#utility.yul\":4786:4908   */\n    tag_331:\n        /* \"#utility.yul\":4859:4883   */\n      tag_455\n        /* \"#utility.yul\":4877:4882   */\n      dup2\n        /* \"#utility.yul\":4859:4883   */\n      tag_330\n      jump\t// in\n    tag_455:\n        /* \"#utility.yul\":4852:4857   */\n      dup2\n        /* \"#utility.yul\":4849:4884   */\n      eq\n        /* \"#utility.yul\":4839:4902   */\n      tag_456\n      jumpi\n        /* \"#utility.yul\":4898:4899   */\n      0x00\n        /* \"#utility.yul\":4895:4896   */\n      dup1\n        /* \"#utility.yul\":4888:4900   */\n      revert\n        /* \"#utility.yul\":4839:4902   */\n    tag_456:\n        /* \"#utility.yul\":4786:4908   */\n      pop\n      jump\t// out\n        /* \"#utility.yul\":4914:5053   */\n    tag_332:\n        /* \"#utility.yul\":4960:4965   */\n      0x00\n        /* \"#utility.yul\":4998:5004   */\n      dup2\n        /* \"#utility.yul\":4985:5005   */\n      calldataload\n        /* \"#utility.yul\":4976:5005   */\n      swap1\n      pop\n        /* \"#utility.yul\":5014:5047   */\n      tag_458\n        /* \"#utility.yul\":5041:5046   */\n      dup2\n        /* \"#utility.yul\":5014:5047   */\n      tag_331\n      jump\t// in\n    tag_458:\n        /* \"#utility.yul\":4914:5053   */\n      swap3\n      swap2\n      pop\n      pop\n      jump\t// out\n        /* \"#utility.yul\":5059:5533   */\n    tag_53:\n        /* \"#utility.yul\":5127:5133   */\n      0x00\n        /* \"#utility.yul\":5135:5141   */\n      dup1\n        /* \"#utility.yul\":5184:5186   */\n      0x40\n        /* \"#utility.yul\":5172:5181   */\n      dup4\n        /* \"#utility.yul\":5163:5170   */\n      dup6\n        /* \"#utility.yul\":5159:5182   */\n      sub\n        /* \"#utility.yul\":5155:5187   */\n      slt\n        /* \"#utility.yul\":5152:5271   */\n      iszero\n      tag_460\n      jumpi\n        /* \"#utility.yul\":5190:5269   */\n      tag_461\n      tag_309\n      jump\t// in\n    tag_461:\n        /* \"#utility.yul\":5152:5271   */\n    tag_460:\n        /* \"#utility.yul\":5310:5311   */\n      0x00\n        /* \"#utility.yul\":5335:5388   */\n      tag_462\n        /* \"#utility.yul\":5380:5387   */\n      dup6\n        /* \"#utility.yul\":5371:5377   */\n      dup3\n        /* \"#utility.yul\":5360:5369   */\n      dup7\n        /* \"#utility.yul\":5356:5378   */\n      add\n        /* \"#utility.yul\":5335:5388   */\n      tag_328\n      jump\t// in\n    tag_462:\n        /* \"#utility.yul\":5325:5388   */\n      swap3\n      pop\n        /* \"#utility.yul\":5281:5398   */\n      pop\n        /* \"#utility.yul\":5437:5439   */\n      0x20\n        /* \"#utility.yul\":5463:5516   */\n      tag_463\n        /* \"#utility.yul\":5508:5515   */\n      dup6\n        /* \"#utility.yul\":5499:5505   */\n      dup3\n        /* \"#utility.yul\":5488:5497   */\n      dup7\n        /* \"#utility.yul\":5484:5506   */\n      add\n        /* \"#utility.yul\":5463:5516   */\n      tag_332\n      jump\t// in\n    tag_463:\n        /* \"#utility.yul\":5453:5516   */\n      swap2\n      pop\n        /* \"#utility.yul\":5408:5526   */\n      pop\n        /* \"#utility.yul\":5059:5533   */\n      swap3\n      pop\n      swap3\n      swap1\n      pop\n      jump\t// out\n        /* \"#utility.yul\":5539:6158   */\n    tag_57:\n        /* \"#utility.yul\":5616:5622   */\n      0x00\n        /* \"#utility.yul\":5624:5630   */\n      dup1\n        /* \"#utility.yul\":5632:5638   */\n      0x00\n        /* \"#utility.yul\":5681:5683   */\n      0x60\n        /* \"#utility.yul\":5669:5678   */\n      dup5\n        /* \"#utility.yul\":5660:5667   */\n      dup7\n        /* \"#utility.yul\":5656:5679   */\n      sub\n        /* \"#utility.yul\":5652:5684   */\n      slt\n        /* \"#utility.yul\":5649:5768   */\n      iszero\n      tag_465\n      jumpi\n        /* \"#utility.yul\":5687:5766   */\n      tag_466\n      tag_309\n      jump\t// in\n    tag_466:\n        /* \"#utility.yul\":5649:5768   */\n    tag_465:\n        /* \"#utility.yul\":5807:5808   */\n      0x00\n        /* \"#utility.yul\":5832:5885   */\n      tag_467\n        /* \"#utility.yul\":5877:5884   */\n      dup7\n        /* \"#utility.yul\":5868:5874   */\n      dup3\n        /* \"#utility.yul\":5857:5866   */\n      dup8\n        /* \"#utility.yul\":5853:5875   */\n      add\n        /* \"#utility.yul\":5832:5885   */\n      tag_324\n      jump\t// in\n    tag_467:\n        /* \"#utility.yul\":5822:5885   */\n      swap4\n      pop\n        /* \"#utility.yul\":5778:5895   */\n      pop\n        /* \"#utility.yul\":5934:5936   */\n      0x20\n        /* \"#utility.yul\":5960:6013   */\n      tag_468\n        /* \"#utility.yul\":6005:6012   */\n      dup7\n        /* \"#utility.yul\":5996:6002   */\n      dup3\n        /* \"#utility.yul\":5985:5994   */\n      dup8\n        /* \"#utility.yul\":5981:6003   */\n      add\n        /* \"#utility.yul\":5960:6013   */\n      tag_324\n      jump\t// in\n    tag_468:\n        /* \"#utility.yul\":5950:6013   */\n      swap3\n      pop\n        /* \"#utility.yul\":5905:6023   */\n      pop\n        /* \"#utility.yul\":6062:6064   */\n      0x40\n        /* \"#utility.yul\":6088:6141   */\n      tag_469\n        /* \"#utility.yul\":6133:6140   */\n      dup7\n        /* \"#utility.yul\":6124:6130   */\n      dup3\n        /* \"#utility.yul\":6113:6122   */\n      dup8\n        /* \"#utility.yul\":6109:6131   */\n      add\n        /* \"#utility.yul\":6088:6141   */\n      tag_324\n      jump\t// in\n    tag_469:\n        /* \"#utility.yul\":6078:6141   */\n      swap2\n      pop\n        /* \"#utility.yul\":6033:6151   */\n      pop\n        /* \"#utility.yul\":5539:6158   */\n      swap3\n      pop\n      swap3\n      pop\n      swap3\n      jump\t// out\n        /* \"#utility.yul\":6164:6816   */\n    tag_60:\n        /* \"#utility.yul\":6363:6367   */\n      0x00\n        /* \"#utility.yul\":6401:6404   */\n      0xa0\n        /* \"#utility.yul\":6390:6399   */\n      dup3\n        /* \"#utility.yul\":6386:6405   */\n      add\n        /* \"#utility.yul\":6378:6405   */\n      swap1\n      pop\n        /* \"#utility.yul\":6415:6486   */\n      tag_471\n        /* \"#utility.yul\":6483:6484   */\n      0x00\n        /* \"#utility.yul\":6472:6481   */\n      dup4\n        /* \"#utility.yul\":6468:6485   */\n      add\n        /* \"#utility.yul\":6459:6465   */\n      dup9\n        /* \"#utility.yul\":6415:6486   */\n      tag_325\n      jump\t// in\n    tag_471:\n        /* \"#utility.yul\":6496:6568   */\n      tag_472\n        /* \"#utility.yul\":6564:6566   */\n      0x20\n        /* \"#utility.yul\":6553:6562   */\n      dup4\n        /* \"#utility.yul\":6549:6567   */\n      add\n        /* \"#utility.yul\":6540:6546   */\n      dup8\n        /* \"#utility.yul\":6496:6568   */\n      tag_325\n      jump\t// in\n    tag_472:\n        /* \"#utility.yul\":6578:6650   */\n      tag_473\n        /* \"#utility.yul\":6646:6648   */\n      0x40\n        /* \"#utility.yul\":6635:6644   */\n      dup4\n        /* \"#utility.yul\":6631:6649   */\n      add\n        /* \"#utility.yul\":6622:6628   */\n      dup7\n        /* \"#utility.yul\":6578:6650   */\n      tag_325\n      jump\t// in\n    tag_473:\n        /* \"#utility.yul\":6660:6732   */\n      tag_474\n        /* \"#utility.yul\":6728:6730   */\n      0x60\n        /* \"#utility.yul\":6717:6726   */\n      dup4\n        /* \"#utility.yul\":6713:6731   */\n      add\n        /* \"#utility.yul\":6704:6710   */\n      dup6\n        /* \"#utility.yul\":6660:6732   */\n      tag_325\n      jump\t// in\n    tag_474:\n        /* \"#utility.yul\":6742:6809   */\n      tag_475\n        /* \"#utility.yul\":6804:6807   */\n      0x80\n        /* \"#utility.yul\":6793:6802   */\n      dup4\n        /* \"#utility.yul\":6789:6808   */\n      add\n        /* \"#utility.yul\":6780:6786   */\n      dup5\n        /* \"#utility.yul\":6742:6809   */\n      tag_315\n      jump\t// in\n    tag_475:\n        /* \"#utility.yul\":6164:6816   */\n      swap7\n      swap6\n      pop\n      pop\n      pop\n      pop\n      pop\n      pop\n      jump\t// out\n        /* \"#utility.yul\":6822:6939   */\n    tag_333:\n        /* \"#utility.yul\":6931:6932   */\n      0x00\n        /* \"#utility.yul\":6928:6929   */\n      dup1\n        /* \"#utility.yul\":6921:6933   */\n      revert\n        /* \"#utility.yul\":6945:7062   */\n    tag_334:\n        /* \"#utility.yul\":7054:7055   */\n      0x00\n        /* \"#utility.yul\":7051:7052   */\n      dup1\n        /* \"#utility.yul\":7044:7056   */\n      revert\n        /* \"#utility.yul\":7068:7185   */\n    tag_335:\n        /* \"#utility.yul\":7177:7178   */\n      0x00\n        /* \"#utility.yul\":7174:7175   */\n      dup1\n        /* \"#utility.yul\":7167:7179   */\n      revert\n        /* \"#utility.yul\":7208:7776   */\n    tag_336:\n        /* \"#utility.yul\":7281:7289   */\n      0x00\n        /* \"#utility.yul\":7291:7297   */\n      dup1\n        /* \"#utility.yul\":7341:7344   */\n      dup4\n        /* \"#utility.yul\":7334:7338   */\n      0x1f\n        /* \"#utility.yul\":7326:7332   */\n      dup5\n        /* \"#utility.yul\":7322:7339   */\n      add\n        /* \"#utility.yul\":7318:7345   */\n      slt\n        /* \"#utility.yul\":7308:7430   */\n      tag_480\n      jumpi\n        /* \"#utility.yul\":7349:7428   */\n      tag_481\n      tag_333\n      jump\t// in\n    tag_481:\n        /* \"#utility.yul\":7308:7430   */\n    tag_480:\n        /* \"#utility.yul\":7462:7468   */\n      dup3\n        /* \"#utility.yul\":7449:7469   */\n      calldataload\n        /* \"#utility.yul\":7439:7469   */\n      swap1\n      pop\n        /* \"#utility.yul\":7492:7510   */\n      0xffffffffffffffff\n        /* \"#utility.yul\":7484:7490   */\n      dup2\n        /* \"#utility.yul\":7481:7511   */\n      gt\n        /* \"#utility.yul\":7478:7595   */\n      iszero\n      tag_482\n      jumpi\n        /* \"#utility.yul\":7514:7593   */\n      tag_483\n      tag_334\n      jump\t// in\n    tag_483:\n        /* \"#utility.yul\":7478:7595   */\n    tag_482:\n        /* \"#utility.yul\":7628:7632   */\n      0x20\n        /* \"#utility.yul\":7620:7626   */\n      dup4\n        /* \"#utility.yul\":7616:7633   */\n      add\n        /* \"#utility.yul\":7604:7633   */\n      swap2\n      pop\n        /* \"#utility.yul\":7682:7685   */\n      dup4\n        /* \"#utility.yul\":7674:7678   */\n      0x20\n        /* \"#utility.yul\":7666:7672   */\n      dup3\n        /* \"#utility.yul\":7662:7679   */\n      mul\n        /* \"#utility.yul\":7652:7660   */\n      dup4\n        /* \"#utility.yul\":7648:7680   */\n      add\n        /* \"#utility.yul\":7645:7686   */\n      gt\n        /* \"#utility.yul\":7642:7770   */\n      iszero\n      tag_484\n      jumpi\n        /* \"#utility.yul\":7689:7768   */\n      tag_485\n      tag_335\n      jump\t// in\n    tag_485:\n        /* \"#utility.yul\":7642:7770   */\n    tag_484:\n        /* \"#utility.yul\":7208:7776   */\n      swap3\n      pop\n      swap3\n      swap1\n      pop\n      jump\t// out\n        /* \"#utility.yul\":7799:8367   */\n    tag_337:\n        /* \"#utility.yul\":7872:7880   */\n      0x00\n        /* \"#utility.yul\":7882:7888   */\n      dup1\n        /* \"#utility.yul\":7932:7935   */\n      dup4\n        /* \"#utility.yul\":7925:7929   */\n      0x1f\n        /* \"#utility.yul\":7917:7923   */\n      dup5\n        /* \"#utility.yul\":7913:7930   */\n      add\n        /* \"#utility.yul\":7909:7936   */\n      slt\n        /* \"#utility.yul\":7899:8021   */\n      tag_487\n      jumpi\n        /* \"#utility.yul\":7940:8019   */\n      tag_488\n      tag_333\n      jump\t// in\n    tag_488:\n        /* \"#utility.yul\":7899:8021   */\n    tag_487:\n        /* \"#utility.yul\":8053:8059   */\n      dup3\n        /* \"#utility.yul\":8040:8060   */\n      calldataload\n        /* \"#utility.yul\":8030:8060   */\n      swap1\n      pop\n        /* \"#utility.yul\":8083:8101   */\n      0xffffffffffffffff\n        /* \"#utility.yul\":8075:8081   */\n      dup2\n        /* \"#utility.yul\":8072:8102   */\n      gt\n        /* \"#utility.yul\":8069:8186   */\n      iszero\n      tag_489\n      jumpi\n        /* \"#utility.yul\":8105:8184   */\n      tag_490\n      tag_334\n      jump\t// in\n    tag_490:\n        /* \"#utility.yul\":8069:8186   */\n    tag_489:\n        /* \"#utility.yul\":8219:8223   */\n      0x20\n        /* \"#utility.yul\":8211:8217   */\n      dup4\n        /* \"#utility.yul\":8207:8224   */\n      add\n        /* \"#utility.yul\":8195:8224   */\n      swap2\n      pop\n        /* \"#utility.yul\":8273:8276   */\n      dup4\n        /* \"#utility.yul\":8265:8269   */\n      0x20\n        /* \"#utility.yul\":8257:8263   */\n      dup3\n        /* \"#utility.yul\":8253:8270   */\n      mul\n        /* \"#utility.yul\":8243:8251   */\n      dup4\n        /* \"#utility.yul\":8239:8271   */\n      add\n        /* \"#utility.yul\":8236:8277   */\n      gt\n        /* \"#utility.yul\":8233:8361   */\n      iszero\n      tag_491\n      jumpi\n        /* \"#utility.yul\":8280:8359   */\n      tag_492\n      tag_335\n      jump\t// in\n    tag_492:\n        /* \"#utility.yul\":8233:8361   */\n    tag_491:\n        /* \"#utility.yul\":7799:8367   */\n      swap3\n      pop\n      swap3\n      swap1\n      pop\n      jump\t// out\n        /* \"#utility.yul\":8373:9307   */\n    tag_66:\n        /* \"#utility.yul\":8495:8501   */\n      0x00\n        /* \"#utility.yul\":8503:8509   */\n      dup1\n        /* \"#utility.yul\":8511:8517   */\n      0x00\n        /* \"#utility.yul\":8519:8525   */\n      dup1\n        /* \"#utility.yul\":8568:8570   */\n      0x40\n        /* \"#utility.yul\":8556:8565   */\n      dup6\n        /* \"#utility.yul\":8547:8554   */\n      dup8\n        /* \"#utility.yul\":8543:8566   */\n      sub\n        /* \"#utility.yul\":8539:8571   */\n      slt\n        /* \"#utility.yul\":8536:8655   */\n      iszero\n      tag_494\n      jumpi\n        /* \"#utility.yul\":8574:8653   */\n      tag_495\n      tag_309\n      jump\t// in\n    tag_495:\n        /* \"#utility.yul\":8536:8655   */\n    tag_494:\n        /* \"#utility.yul\":8722:8723   */\n      0x00\n        /* \"#utility.yul\":8711:8720   */\n      dup6\n        /* \"#utility.yul\":8707:8724   */\n      add\n        /* \"#utility.yul\":8694:8725   */\n      calldataload\n        /* \"#utility.yul\":8752:8770   */\n      0xffffffffffffffff\n        /* \"#utility.yul\":8744:8750   */\n      dup2\n        /* \"#utility.yul\":8741:8771   */\n      gt\n        /* \"#utility.yul\":8738:8855   */\n      iszero\n      tag_496\n      jumpi\n        /* \"#utility.yul\":8774:8853   */\n      tag_497\n      tag_310\n      jump\t// in\n    tag_497:\n        /* \"#utility.yul\":8738:8855   */\n    tag_496:\n        /* \"#utility.yul\":8887:8967   */\n      tag_498\n        /* \"#utility.yul\":8959:8966   */\n      dup8\n        /* \"#utility.yul\":8950:8956   */\n      dup3\n        /* \"#utility.yul\":8939:8948   */\n      dup9\n        /* \"#utility.yul\":8935:8957   */\n      add\n        /* \"#utility.yul\":8887:8967   */\n      tag_336\n      jump\t// in\n    tag_498:\n        /* \"#utility.yul\":8869:8967   */\n      swap5\n      pop\n      swap5\n      pop\n        /* \"#utility.yul\":8665:8977   */\n      pop\n        /* \"#utility.yul\":9044:9046   */\n      0x20\n        /* \"#utility.yul\":9033:9042   */\n      dup6\n        /* \"#utility.yul\":9029:9047   */\n      add\n        /* \"#utility.yul\":9016:9048   */\n      calldataload\n        /* \"#utility.yul\":9075:9093   */\n      0xffffffffffffffff\n        /* \"#utility.yul\":9067:9073   */\n      dup2\n        /* \"#utility.yul\":9064:9094   */\n      gt\n        /* \"#utility.yul\":9061:9178   */\n      iszero\n      tag_499\n      jumpi\n        /* \"#utility.yul\":9097:9176   */\n      tag_500\n      tag_310\n      jump\t// in\n    tag_500:\n        /* \"#utility.yul\":9061:9178   */\n    tag_499:\n        /* \"#utility.yul\":9210:9290   */\n      tag_501\n        /* \"#utility.yul\":9282:9289   */\n      dup8\n        /* \"#utility.yul\":9273:9279   */\n      dup3\n        /* \"#utility.yul\":9262:9271   */\n      dup9\n        /* \"#utility.yul\":9258:9280   */\n      add\n        /* \"#utility.yul\":9210:9290   */\n      tag_337\n      jump\t// in\n    tag_501:\n        /* \"#utility.yul\":9192:9290   */\n      swap3\n      pop\n      swap3\n      pop\n        /* \"#utility.yul\":8987:9300   */\n      pop\n        /* \"#utility.yul\":8373:9307   */\n      swap3\n      swap6\n      swap2\n      swap5\n      pop\n      swap3\n      pop\n      jump\t// out\n        /* \"#utility.yul\":9313:10078   */\n    tag_73:\n        /* \"#utility.yul\":9399:9405   */\n      0x00\n        /* \"#utility.yul\":9407:9413   */\n      dup1\n        /* \"#utility.yul\":9415:9421   */\n      0x00\n        /* \"#utility.yul\":9423:9429   */\n      dup1\n        /* \"#utility.yul\":9472:9475   */\n      0x80\n        /* \"#utility.yul\":9460:9469   */\n      dup6\n        /* \"#utility.yul\":9451:9458   */\n      dup8\n        /* \"#utility.yul\":9447:9470   */\n      sub\n        /* \"#utility.yul\":9443:9476   */\n      slt\n        /* \"#utility.yul\":9440:9560   */\n      iszero\n      tag_503\n      jumpi\n        /* \"#utility.yul\":9479:9558   */\n      tag_504\n      tag_309\n      jump\t// in\n    tag_504:\n        /* \"#utility.yul\":9440:9560   */\n    tag_503:\n        /* \"#utility.yul\":9599:9600   */\n      0x00\n        /* \"#utility.yul\":9624:9677   */\n      tag_505\n        /* \"#utility.yul\":9669:9676   */\n      dup8\n        /* \"#utility.yul\":9660:9666   */\n      dup3\n        /* \"#utility.yul\":9649:9658   */\n      dup9\n        /* \"#utility.yul\":9645:9667   */\n      add\n        /* \"#utility.yul\":9624:9677   */\n      tag_324\n      jump\t// in\n    tag_505:\n        /* \"#utility.yul\":9614:9677   */\n      swap5\n      pop\n        /* \"#utility.yul\":9570:9687   */\n      pop\n        /* \"#utility.yul\":9726:9728   */\n      0x20\n        /* \"#utility.yul\":9752:9805   */\n      tag_506\n        /* \"#utility.yul\":9797:9804   */\n      dup8\n        /* \"#utility.yul\":9788:9794   */\n      dup3\n        /* \"#utility.yul\":9777:9786   */\n      dup9\n        /* \"#utility.yul\":9773:9795   */\n      add\n        /* \"#utility.yul\":9752:9805   */\n      tag_324\n      jump\t// in\n    tag_506:\n        /* \"#utility.yul\":9742:9805   */\n      swap4\n      pop\n        /* \"#utility.yul\":9697:9815   */\n      pop\n        /* \"#utility.yul\":9854:9856   */\n      0x40\n        /* \"#utility.yul\":9880:9933   */\n      tag_507\n        /* \"#utility.yul\":9925:9932   */\n      dup8\n        /* \"#utility.yul\":9916:9922   */\n      dup3\n        /* \"#utility.yul\":9905:9914   */\n      dup9\n        /* \"#utility.yul\":9901:9923   */\n      add\n        /* \"#utility.yul\":9880:9933   */\n      tag_324\n      jump\t// in\n    tag_507:\n        /* \"#utility.yul\":9870:9933   */\n      swap3\n      pop\n        /* \"#utility.yul\":9825:9943   */\n      pop\n        /* \"#utility.yul\":9982:9984   */\n      0x60\n        /* \"#utility.yul\":10008:10061   */\n      tag_508\n        /* \"#utility.yul\":10053:10060   */\n      dup8\n        /* \"#utility.yul\":10044:10050   */\n      dup3\n        /* \"#utility.yul\":10033:10042   */\n      dup9\n        /* \"#utility.yul\":10029:10051   */\n      add\n        /* \"#utility.yul\":10008:10061   */\n      tag_324\n      jump\t// in\n    tag_508:\n        /* \"#utility.yul\":9998:10061   */\n      swap2\n      pop\n        /* \"#utility.yul\":9953:10071   */\n      pop\n        /* \"#utility.yul\":9313:10078   */\n      swap3\n      swap6\n      swap2\n      swap5\n      pop\n      swap3\n      pop\n      jump\t// out\n        /* \"#utility.yul\":10084:10413   */\n    tag_81:\n        /* \"#utility.yul\":10143:10149   */\n      0x00\n        /* \"#utility.yul\":10192:10194   */\n      0x20\n        /* \"#utility.yul\":10180:10189   */\n      dup3\n        /* \"#utility.yul\":10171:10178   */\n      dup5\n        /* \"#utility.yul\":10167:10190   */\n      sub\n        /* \"#utility.yul\":10163:10195   */\n      slt\n        /* \"#utility.yul\":10160:10279   */\n      iszero\n      tag_510\n      jumpi\n        /* \"#utility.yul\":10198:10277   */\n      tag_511\n      tag_309\n      jump\t// in\n    tag_511:\n        /* \"#utility.yul\":10160:10279   */\n    tag_510:\n        /* \"#utility.yul\":10318:10319   */\n      0x00\n        /* \"#utility.yul\":10343:10396   */\n      tag_512\n        /* \"#utility.yul\":10388:10395   */\n      dup5\n        /* \"#utility.yul\":10379:10385   */\n      dup3\n        /* \"#utility.yul\":10368:10377   */\n      dup6\n        /* \"#utility.yul\":10364:10386   */\n      add\n        /* \"#utility.yul\":10343:10396   */\n      tag_332\n      jump\t// in\n    tag_512:\n        /* \"#utility.yul\":10333:10396   */\n      swap2\n      pop\n        /* \"#utility.yul\":10289:10406   */\n      pop\n        /* \"#utility.yul\":10084:10413   */\n      swap3\n      swap2\n      pop\n      pop\n      jump\t// out\n        /* \"#utility.yul\":10419:10527   */\n    tag_338:\n        /* \"#utility.yul\":10496:10520   */\n      tag_514\n        /* \"#utility.yul\":10514:10519   */\n      dup2\n        /* \"#utility.yul\":10496:10520   */\n      tag_322\n      jump\t// in\n    tag_514:\n        /* \"#utility.yul\":10491:10494   */\n      dup3\n        /* \"#utility.yul\":10484:10521   */\n      mstore\n        /* \"#utility.yul\":10419:10527   */\n      pop\n      pop\n      jump\t// out\n        /* \"#utility.yul\":10607:10947   */\n    tag_339:\n        /* \"#utility.yul\":10756:10760   */\n      0x20\n        /* \"#utility.yul\":10751:10754   */\n      dup3\n        /* \"#utility.yul\":10747:10761   */\n      add\n        /* \"#utility.yul\":10848:10852   */\n      0x00\n        /* \"#utility.yul\":10841:10846   */\n      dup3\n        /* \"#utility.yul\":10837:10853   */\n      add\n        /* \"#utility.yul\":10831:10854   */\n      mload\n        /* \"#utility.yul\":10867:10930   */\n      tag_516\n        /* \"#utility.yul\":10924:10928   */\n      0x00\n        /* \"#utility.yul\":10919:10922   */\n      dup6\n        /* \"#utility.yul\":10915:10929   */\n      add\n        /* \"#utility.yul\":10901:10913   */\n      dup3\n        /* \"#utility.yul\":10867:10930   */\n      tag_338\n      jump\t// in\n    tag_516:\n        /* \"#utility.yul\":10771:10940   */\n      pop\n        /* \"#utility.yul\":10725:10947   */\n      pop\n        /* \"#utility.yul\":10607:10947   */\n      pop\n      pop\n      jump\t// out\n        /* \"#utility.yul\":10953:11279   */\n    tag_90:\n        /* \"#utility.yul\":11098:11102   */\n      0x00\n        /* \"#utility.yul\":11136:11138   */\n      0x20\n        /* \"#utility.yul\":11125:11134   */\n      dup3\n        /* \"#utility.yul\":11121:11139   */\n      add\n        /* \"#utility.yul\":11113:11139   */\n      swap1\n      pop\n        /* \"#utility.yul\":11149:11272   */\n      tag_518\n        /* \"#utility.yul\":11269:11270   */\n      0x00\n        /* \"#utility.yul\":11258:11267   */\n      dup4\n        /* \"#utility.yul\":11254:11271   */\n      add\n        /* \"#utility.yul\":11245:11251   */\n      dup5\n        /* \"#utility.yul\":11149:11272   */\n      tag_339\n      jump\t// in\n    tag_518:\n        /* \"#utility.yul\":10953:11279   */\n      swap3\n      swap2\n      pop\n      pop\n      jump\t// out\n        /* \"#utility.yul\":11285:11904   */\n    tag_93:\n        /* \"#utility.yul\":11362:11368   */\n      0x00\n        /* \"#utility.yul\":11370:11376   */\n      dup1\n        /* \"#utility.yul\":11378:11384   */\n      0x00\n        /* \"#utility.yul\":11427:11429   */\n      0x60\n        /* \"#utility.yul\":11415:11424   */\n      dup5\n        /* \"#utility.yul\":11406:11413   */\n      dup7\n        /* \"#utility.yul\":11402:11425   */\n      sub\n        /* \"#utility.yul\":11398:11430   */\n      slt\n        /* \"#utility.yul\":11395:11514   */\n      iszero\n      tag_520\n      jumpi\n        /* \"#utility.yul\":11433:11512   */\n      tag_521\n      tag_309\n      jump\t// in\n    tag_521:\n        /* \"#utility.yul\":11395:11514   */\n    tag_520:\n        /* \"#utility.yul\":11553:11554   */\n      0x00\n        /* \"#utility.yul\":11578:11631   */\n      tag_522\n        /* \"#utility.yul\":11623:11630   */\n      dup7\n        /* \"#utility.yul\":11614:11620   */\n      dup3\n        /* \"#utility.yul\":11603:11612   */\n      dup8\n        /* \"#utility.yul\":11599:11621   */\n      add\n        /* \"#utility.yul\":11578:11631   */\n      tag_324\n      jump\t// in\n    tag_522:\n        /* \"#utility.yul\":11568:11631   */\n      swap4\n      pop\n        /* \"#utility.yul\":11524:11641   */\n      pop\n        /* \"#utility.yul\":11680:11682   */\n      0x20\n        /* \"#utility.yul\":11706:11759   */\n      tag_523\n        /* \"#utility.yul\":11751:11758   */\n      dup7\n        /* \"#utility.yul\":11742:11748   */\n      dup3\n        /* \"#utility.yul\":11731:11740   */\n      dup8\n        /* \"#utility.yul\":11727:11749   */\n      add\n        /* \"#utility.yul\":11706:11759   */\n      tag_332\n      jump\t// in\n    tag_523:\n        /* \"#utility.yul\":11696:11759   */\n      swap3\n      pop\n        /* \"#utility.yul\":11651:11769   */\n      pop\n        /* \"#utility.yul\":11808:11810   */\n      0x40\n        /* \"#utility.yul\":11834:11887   */\n      tag_524\n        /* \"#utility.yul\":11879:11886   */\n      dup7\n        /* \"#utility.yul\":11870:11876   */\n      dup3\n        /* \"#utility.yul\":11859:11868   */\n      dup8\n        /* \"#utility.yul\":11855:11877   */\n      add\n        /* \"#utility.yul\":11834:11887   */\n      tag_324\n      jump\t// in\n    tag_524:\n        /* \"#utility.yul\":11824:11887   */\n      swap2\n      pop\n        /* \"#utility.yul\":11779:11897   */\n      pop\n        /* \"#utility.yul\":11285:11904   */\n      swap3\n      pop\n      swap3\n      pop\n      swap3\n      jump\t// out\n        /* \"#utility.yul\":11910:12009   */\n    tag_340:\n        /* \"#utility.yul\":11981:12002   */\n      tag_526\n        /* \"#utility.yul\":11996:12001   */\n      dup2\n        /* \"#utility.yul\":11981:12002   */\n      tag_314\n      jump\t// in\n    tag_526:\n        /* \"#utility.yul\":11976:11979   */\n      dup3\n        /* \"#utility.yul\":11969:12003   */\n      mstore\n        /* \"#utility.yul\":11910:12009   */\n      pop\n      pop\n      jump\t// out\n        /* \"#utility.yul\":12097:13148   */\n    tag_341:\n        /* \"#utility.yul\":12254:12258   */\n      0xa0\n        /* \"#utility.yul\":12249:12252   */\n      dup3\n        /* \"#utility.yul\":12245:12259   */\n      add\n        /* \"#utility.yul\":12344:12348   */\n      0x00\n        /* \"#utility.yul\":12337:12342   */\n      dup3\n        /* \"#utility.yul\":12333:12349   */\n      add\n        /* \"#utility.yul\":12327:12350   */\n      mload\n        /* \"#utility.yul\":12363:12426   */\n      tag_528\n        /* \"#utility.yul\":12420:12424   */\n      0x00\n        /* \"#utility.yul\":12415:12418   */\n      dup6\n        /* \"#utility.yul\":12411:12425   */\n      add\n        /* \"#utility.yul\":12397:12409   */\n      dup3\n        /* \"#utility.yul\":12363:12426   */\n      tag_338\n      jump\t// in\n    tag_528:\n        /* \"#utility.yul\":12269:12436   */\n      pop\n        /* \"#utility.yul\":12523:12527   */\n      0x20\n        /* \"#utility.yul\":12516:12521   */\n      dup3\n        /* \"#utility.yul\":12512:12528   */\n      add\n        /* \"#utility.yul\":12506:12529   */\n      mload\n        /* \"#utility.yul\":12542:12605   */\n      tag_529\n        /* \"#utility.yul\":12599:12603   */\n      0x20\n        /* \"#utility.yul\":12594:12597   */\n      dup6\n        /* \"#utility.yul\":12590:12604   */\n      add\n        /* \"#utility.yul\":12576:12588   */\n      dup3\n        /* \"#utility.yul\":12542:12605   */\n      tag_338\n      jump\t// in\n    tag_529:\n        /* \"#utility.yul\":12446:12615   */\n      pop\n        /* \"#utility.yul\":12704:12708   */\n      0x40\n        /* \"#utility.yul\":12697:12702   */\n      dup3\n        /* \"#utility.yul\":12693:12709   */\n      add\n        /* \"#utility.yul\":12687:12710   */\n      mload\n        /* \"#utility.yul\":12723:12786   */\n      tag_530\n        /* \"#utility.yul\":12780:12784   */\n      0x40\n        /* \"#utility.yul\":12775:12778   */\n      dup6\n        /* \"#utility.yul\":12771:12785   */\n      add\n        /* \"#utility.yul\":12757:12769   */\n      dup3\n        /* \"#utility.yul\":12723:12786   */\n      tag_338\n      jump\t// in\n    tag_530:\n        /* \"#utility.yul\":12625:12796   */\n      pop\n        /* \"#utility.yul\":12879:12883   */\n      0x60\n        /* \"#utility.yul\":12872:12877   */\n      dup3\n        /* \"#utility.yul\":12868:12884   */\n      add\n        /* \"#utility.yul\":12862:12885   */\n      mload\n        /* \"#utility.yul\":12898:12961   */\n      tag_531\n        /* \"#utility.yul\":12955:12959   */\n      0x60\n        /* \"#utility.yul\":12950:12953   */\n      dup6\n        /* \"#utility.yul\":12946:12960   */\n      add\n        /* \"#utility.yul\":12932:12944   */\n      dup3\n        /* \"#utility.yul\":12898:12961   */\n      tag_338\n      jump\t// in\n    tag_531:\n        /* \"#utility.yul\":12806:12971   */\n      pop\n        /* \"#utility.yul\":13055:13059   */\n      0x80\n        /* \"#utility.yul\":13048:13053   */\n      dup3\n        /* \"#utility.yul\":13044:13060   */\n      add\n        /* \"#utility.yul\":13038:13061   */\n      mload\n        /* \"#utility.yul\":13074:13131   */\n      tag_532\n        /* \"#utility.yul\":13125:13129   */\n      0x80\n        /* \"#utility.yul\":13120:13123   */\n      dup6\n        /* \"#utility.yul\":13116:13130   */\n      add\n        /* \"#utility.yul\":13102:13114   */\n      dup3\n        /* \"#utility.yul\":13074:13131   */\n      tag_340\n      jump\t// in\n    tag_532:\n        /* \"#utility.yul\":12981:13141   */\n      pop\n        /* \"#utility.yul\":12223:13148   */\n      pop\n        /* \"#utility.yul\":12097:13148   */\n      pop\n      pop\n      jump\t// out\n        /* \"#utility.yul\":13154:13497   */\n    tag_99:\n        /* \"#utility.yul\":13307:13311   */\n      0x00\n        /* \"#utility.yul\":13345:13348   */\n      0xa0\n        /* \"#utility.yul\":13334:13343   */\n      dup3\n        /* \"#utility.yul\":13330:13349   */\n      add\n        /* \"#utility.yul\":13322:13349   */\n      swap1\n      pop\n        /* \"#utility.yul\":13359:13490   */\n      tag_534\n        /* \"#utility.yul\":13487:13488   */\n      0x00\n        /* \"#utility.yul\":13476:13485   */\n      dup4\n        /* \"#utility.yul\":13472:13489   */\n      add\n        /* \"#utility.yul\":13463:13469   */\n      dup5\n        /* \"#utility.yul\":13359:13490   */\n      tag_341\n      jump\t// in\n    tag_534:\n        /* \"#utility.yul\":13154:13497   */\n      swap3\n      swap2\n      pop\n      pop\n      jump\t// out\n        /* \"#utility.yul\":13503:13977   */\n    tag_112:\n        /* \"#utility.yul\":13571:13577   */\n      0x00\n        /* \"#utility.yul\":13579:13585   */\n      dup1\n        /* \"#utility.yul\":13628:13630   */\n      0x40\n        /* \"#utility.yul\":13616:13625   */\n      dup4\n        /* \"#utility.yul\":13607:13614   */\n      dup6\n        /* \"#utility.yul\":13603:13626   */\n      sub\n        /* \"#utility.yul\":13599:13631   */\n      slt\n        /* \"#utility.yul\":13596:13715   */\n      iszero\n      tag_536\n      jumpi\n        /* \"#utility.yul\":13634:13713   */\n      tag_537\n      tag_309\n      jump\t// in\n    tag_537:\n        /* \"#utility.yul\":13596:13715   */\n    tag_536:\n        /* \"#utility.yul\":13754:13755   */\n      0x00\n        /* \"#utility.yul\":13779:13832   */\n      tag_538\n        /* \"#utility.yul\":13824:13831   */\n      dup6\n        /* \"#utility.yul\":13815:13821   */\n      dup3\n        /* \"#utility.yul\":13804:13813   */\n      dup7\n        /* \"#utility.yul\":13800:13822   */\n      add\n        /* \"#utility.yul\":13779:13832   */\n      tag_332\n      jump\t// in\n    tag_538:\n        /* \"#utility.yul\":13769:13832   */\n      swap3\n      pop\n        /* \"#utility.yul\":13725:13842   */\n      pop\n        /* \"#utility.yul\":13881:13883   */\n      0x20\n        /* \"#utility.yul\":13907:13960   */\n      tag_539\n        /* \"#utility.yul\":13952:13959   */\n      dup6\n        /* \"#utility.yul\":13943:13949   */\n      dup3\n        /* \"#utility.yul\":13932:13941   */\n      dup7\n        /* \"#utility.yul\":13928:13950   */\n      add\n        /* \"#utility.yul\":13907:13960   */\n      tag_332\n      jump\t// in\n    tag_539:\n        /* \"#utility.yul\":13897:13960   */\n      swap2\n      pop\n        /* \"#utility.yul\":13852:13970   */\n      pop\n        /* \"#utility.yul\":13503:13977   */\n      swap3\n      pop\n      swap3\n      swap1\n      pop\n      jump\t// out\n        /* \"#utility.yul\":13983:14152   */\n    tag_342:\n        /* \"#utility.yul\":14067:14078   */\n      0x00\n        /* \"#utility.yul\":14101:14107   */\n      dup3\n        /* \"#utility.yul\":14096:14099   */\n      dup3\n        /* \"#utility.yul\":14089:14108   */\n      mstore\n        /* \"#utility.yul\":14141:14145   */\n      0x20\n        /* \"#utility.yul\":14136:14139   */\n      dup3\n        /* \"#utility.yul\":14132:14146   */\n      add\n        /* \"#utility.yul\":14117:14146   */\n      swap1\n      pop\n        /* \"#utility.yul\":13983:14152   */\n      swap3\n      swap2\n      pop\n      pop\n      jump\t// out\n        /* \"#utility.yul\":14158:14392   */\n    tag_343:\n        /* \"#utility.yul\":14298:14332   */\n      0x416363657373436f6e74726f6c3a2063616e206f6e6c792072656e6f756e6365\n        /* \"#utility.yul\":14294:14295   */\n      0x00\n        /* \"#utility.yul\":14286:14292   */\n      dup3\n        /* \"#utility.yul\":14282:14296   */\n      add\n        /* \"#utility.yul\":14275:14333   */\n      mstore\n        /* \"#utility.yul\":14367:14384   */\n      0x20726f6c657320666f722073656c660000000000000000000000000000000000\n        /* \"#utility.yul\":14362:14364   */\n      0x20\n        /* \"#utility.yul\":14354:14360   */\n      dup3\n        /* \"#utility.yul\":14350:14365   */\n      add\n        /* \"#utility.yul\":14343:14385   */\n      mstore\n        /* \"#utility.yul\":14158:14392   */\n      pop\n      jump\t// out\n        /* \"#utility.yul\":14398:14764   */\n    tag_344:\n        /* \"#utility.yul\":14540:14543   */\n      0x00\n        /* \"#utility.yul\":14561:14628   */\n      tag_543\n        /* \"#utility.yul\":14625:14627   */\n      0x2f\n        /* \"#utility.yul\":14620:14623   */\n      dup4\n        /* \"#utility.yul\":14561:14628   */\n      tag_342\n      jump\t// in\n    tag_543:\n        /* \"#utility.yul\":14554:14628   */\n      swap2\n      pop\n        /* \"#utility.yul\":14637:14730   */\n      tag_544\n        /* \"#utility.yul\":14726:14729   */\n      dup3\n        /* \"#utility.yul\":14637:14730   */\n      tag_343\n      jump\t// in\n    tag_544:\n        /* \"#utility.yul\":14755:14757   */\n      0x40\n        /* \"#utility.yul\":14750:14753   */\n      dup3\n        /* \"#utility.yul\":14746:14758   */\n      add\n        /* \"#utility.yul\":14739:14758   */\n      swap1\n      pop\n        /* \"#utility.yul\":14398:14764   */\n      swap2\n      swap1\n      pop\n      jump\t// out\n        /* \"#utility.yul\":14770:15189   */\n    tag_142:\n        /* \"#utility.yul\":14936:14940   */\n      0x00\n        /* \"#utility.yul\":14974:14976   */\n      0x20\n        /* \"#utility.yul\":14963:14972   */\n      dup3\n        /* \"#utility.yul\":14959:14977   */\n      add\n        /* \"#utility.yul\":14951:14977   */\n      swap1\n      pop\n        /* \"#utility.yul\":15023:15032   */\n      dup2\n        /* \"#utility.yul\":15017:15021   */\n      dup2\n        /* \"#utility.yul\":15013:15033   */\n      sub\n        /* \"#utility.yul\":15009:15010   */\n      0x00\n        /* \"#utility.yul\":14998:15007   */\n      dup4\n        /* \"#utility.yul\":14994:15011   */\n      add\n        /* \"#utility.yul\":14987:15034   */\n      mstore\n        /* \"#utility.yul\":15051:15182   */\n      tag_546\n        /* \"#utility.yul\":15177:15181   */\n      dup2\n        /* \"#utility.yul\":15051:15182   */\n      tag_344\n      jump\t// in\n    tag_546:\n        /* \"#utility.yul\":15043:15182   */\n      swap1\n      pop\n        /* \"#utility.yul\":14770:15189   */\n      swap2\n      swap1\n      pop\n      jump\t// out\n        /* \"#utility.yul\":15195:15426   */\n    tag_345:\n        /* \"#utility.yul\":15335:15369   */\n      0x526563697069656e747320616e6420746f6b656e20616d6f756e7473206c656e\n        /* \"#utility.yul\":15331:15332   */\n      0x00\n        /* \"#utility.yul\":15323:15329   */\n      dup3\n        /* \"#utility.yul\":15319:15333   */\n      add\n        /* \"#utility.yul\":15312:15370   */\n      mstore\n        /* \"#utility.yul\":15404:15418   */\n      0x677468206d69736d617463680000000000000000000000000000000000000000\n        /* \"#utility.yul\":15399:15401   */\n      0x20\n        /* \"#utility.yul\":15391:15397   */\n      dup3\n        /* \"#utility.yul\":15387:15402   */\n      add\n        /* \"#utility.yul\":15380:15419   */\n      mstore\n        /* \"#utility.yul\":15195:15426   */\n      pop\n      jump\t// out\n        /* \"#utility.yul\":15432:15798   */\n    tag_346:\n        /* \"#utility.yul\":15574:15577   */\n      0x00\n        /* \"#utility.yul\":15595:15662   */\n      tag_549\n        /* \"#utility.yul\":15659:15661   */\n      0x2c\n        /* \"#utility.yul\":15654:15657   */\n      dup4\n        /* \"#utility.yul\":15595:15662   */\n      tag_342\n      jump\t// in\n    tag_549:\n        /* \"#utility.yul\":15588:15662   */\n      swap2\n      pop\n        /* \"#utility.yul\":15671:15764   */\n      tag_550\n        /* \"#utility.yul\":15760:15763   */\n      dup3\n        /* \"#utility.yul\":15671:15764   */\n      tag_345\n      jump\t// in\n    tag_550:\n        /* \"#utility.yul\":15789:15791   */\n      0x40\n        /* \"#utility.yul\":15784:15787   */\n      dup3\n        /* \"#utility.yul\":15780:15792   */\n      add\n        /* \"#utility.yul\":15773:15792   */\n      swap1\n      pop\n        /* \"#utility.yul\":15432:15798   */\n      swap2\n      swap1\n      pop\n      jump\t// out\n        /* \"#utility.yul\":15804:16223   */\n    tag_150:\n        /* \"#utility.yul\":15970:15974   */\n      0x00\n        /* \"#utility.yul\":16008:16010   */\n      0x20\n        /* \"#utility.yul\":15997:16006   */\n      dup3\n        /* \"#utility.yul\":15993:16011   */\n      add\n        /* \"#utility.yul\":15985:16011   */\n      swap1\n      pop\n        /* \"#utility.yul\":16057:16066   */\n      dup2\n        /* \"#utility.yul\":16051:16055   */\n      dup2\n        /* \"#utility.yul\":16047:16067   */\n      sub\n        /* \"#utility.yul\":16043:16044   */\n      0x00\n        /* \"#utility.yul\":16032:16041   */\n      dup4\n        /* \"#utility.yul\":16028:16045   */\n      add\n        /* \"#utility.yul\":16021:16068   */\n      mstore\n        /* \"#utility.yul\":16085:16216   */\n      tag_552\n        /* \"#utility.yul\":16211:16215   */\n      dup2\n        /* \"#utility.yul\":16085:16216   */\n      tag_346\n      jump\t// in\n    tag_552:\n        /* \"#utility.yul\":16077:16216   */\n      swap1\n      pop\n        /* \"#utility.yul\":15804:16223   */\n      swap2\n      swap1\n      pop\n      jump\t// out\n        /* \"#utility.yul\":16229:16409   */\n    tag_156:\n        /* \"#utility.yul\":16277:16354   */\n      0x4e487b7100000000000000000000000000000000000000000000000000000000\n        /* \"#utility.yul\":16274:16275   */\n      0x00\n        /* \"#utility.yul\":16267:16355   */\n      mstore\n        /* \"#utility.yul\":16374:16378   */\n      0x32\n        /* \"#utility.yul\":16371:16372   */\n      0x04\n        /* \"#utility.yul\":16364:16379   */\n      mstore\n        /* \"#utility.yul\":16398:16402   */\n      0x24\n        /* \"#utility.yul\":16395:16396   */\n      0x00\n        /* \"#utility.yul\":16388:16403   */\n      revert\n        /* \"#utility.yul\":16415:16533   */\n    tag_347:\n        /* \"#utility.yul\":16502:16526   */\n      tag_555\n        /* \"#utility.yul\":16520:16525   */\n      dup2\n        /* \"#utility.yul\":16502:16526   */\n      tag_330\n      jump\t// in\n    tag_555:\n        /* \"#utility.yul\":16497:16500   */\n      dup3\n        /* \"#utility.yul\":16490:16527   */\n      mstore\n        /* \"#utility.yul\":16415:16533   */\n      pop\n      pop\n      jump\t// out\n        /* \"#utility.yul\":16539:16871   */\n    tag_161:\n        /* \"#utility.yul\":16660:16664   */\n      0x00\n        /* \"#utility.yul\":16698:16700   */\n      0x40\n        /* \"#utility.yul\":16687:16696   */\n      dup3\n        /* \"#utility.yul\":16683:16701   */\n      add\n        /* \"#utility.yul\":16675:16701   */\n      swap1\n      pop\n        /* \"#utility.yul\":16711:16782   */\n      tag_557\n        /* \"#utility.yul\":16779:16780   */\n      0x00\n        /* \"#utility.yul\":16768:16777   */\n      dup4\n        /* \"#utility.yul\":16764:16781   */\n      add\n        /* \"#utility.yul\":16755:16761   */\n      dup6\n        /* \"#utility.yul\":16711:16782   */\n      tag_347\n      jump\t// in\n    tag_557:\n        /* \"#utility.yul\":16792:16864   */\n      tag_558\n        /* \"#utility.yul\":16860:16862   */\n      0x20\n        /* \"#utility.yul\":16849:16858   */\n      dup4\n        /* \"#utility.yul\":16845:16863   */\n      add\n        /* \"#utility.yul\":16836:16842   */\n      dup5\n        /* \"#utility.yul\":16792:16864   */\n      tag_325\n      jump\t// in\n    tag_558:\n        /* \"#utility.yul\":16539:16871   */\n      swap4\n      swap3\n      pop\n      pop\n      pop\n      jump\t// out\n        /* \"#utility.yul\":16877:16993   */\n    tag_348:\n        /* \"#utility.yul\":16947:16968   */\n      tag_560\n        /* \"#utility.yul\":16962:16967   */\n      dup2\n        /* \"#utility.yul\":16947:16968   */\n      tag_314\n      jump\t// in\n    tag_560:\n        /* \"#utility.yul\":16940:16945   */\n      dup2\n        /* \"#utility.yul\":16937:16969   */\n      eq\n        /* \"#utility.yul\":16927:16987   */\n      tag_561\n      jumpi\n        /* \"#utility.yul\":16983:16984   */\n      0x00\n        /* \"#utility.yul\":16980:16981   */\n      dup1\n        /* \"#utility.yul\":16973:16985   */\n      revert\n        /* \"#utility.yul\":16927:16987   */\n    tag_561:\n        /* \"#utility.yul\":16877:16993   */\n      pop\n      jump\t// out\n        /* \"#utility.yul\":16999:17136   */\n    tag_349:\n        /* \"#utility.yul\":17053:17058   */\n      0x00\n        /* \"#utility.yul\":17084:17090   */\n      dup2\n        /* \"#utility.yul\":17078:17091   */\n      mload\n        /* \"#utility.yul\":17069:17091   */\n      swap1\n      pop\n        /* \"#utility.yul\":17100:17130   */\n      tag_563\n        /* \"#utility.yul\":17124:17129   */\n      dup2\n        /* \"#utility.yul\":17100:17130   */\n      tag_348\n      jump\t// in\n    tag_563:\n        /* \"#utility.yul\":16999:17136   */\n      swap3\n      swap2\n      pop\n      pop\n      jump\t// out\n        /* \"#utility.yul\":17142:17487   */\n    tag_165:\n        /* \"#utility.yul\":17209:17215   */\n      0x00\n        /* \"#utility.yul\":17258:17260   */\n      0x20\n        /* \"#utility.yul\":17246:17255   */\n      dup3\n        /* \"#utility.yul\":17237:17244   */\n      dup5\n        /* \"#utility.yul\":17233:17256   */\n      sub\n        /* \"#utility.yul\":17229:17261   */\n      slt\n        /* \"#utility.yul\":17226:17345   */\n      iszero\n      tag_565\n      jumpi\n        /* \"#utility.yul\":17264:17343   */\n      tag_566\n      tag_309\n      jump\t// in\n    tag_566:\n        /* \"#utility.yul\":17226:17345   */\n    tag_565:\n        /* \"#utility.yul\":17384:17385   */\n      0x00\n        /* \"#utility.yul\":17409:17470   */\n      tag_567\n        /* \"#utility.yul\":17462:17469   */\n      dup5\n        /* \"#utility.yul\":17453:17459   */\n      dup3\n        /* \"#utility.yul\":17442:17451   */\n      dup6\n        /* \"#utility.yul\":17438:17460   */\n      add\n        /* \"#utility.yul\":17409:17470   */\n      tag_349\n      jump\t// in\n    tag_567:\n        /* \"#utility.yul\":17399:17470   */\n      swap2\n      pop\n        /* \"#utility.yul\":17355:17480   */\n      pop\n        /* \"#utility.yul\":17142:17487   */\n      swap3\n      swap2\n      pop\n      pop\n      jump\t// out\n        /* \"#utility.yul\":17493:17664   */\n    tag_350:\n        /* \"#utility.yul\":17633:17656   */\n      0x546f6b656e207472616e73666572206661696c65640000000000000000000000\n        /* \"#utility.yul\":17629:17630   */\n      0x00\n        /* \"#utility.yul\":17621:17627   */\n      dup3\n        /* \"#utility.yul\":17617:17631   */\n      add\n        /* \"#utility.yul\":17610:17657   */\n      mstore\n        /* \"#utility.yul\":17493:17664   */\n      pop\n      jump\t// out\n        /* \"#utility.yul\":17670:18036   */\n    tag_351:\n        /* \"#utility.yul\":17812:17815   */\n      0x00\n        /* \"#utility.yul\":17833:17900   */\n      tag_570\n        /* \"#utility.yul\":17897:17899   */\n      0x15\n        /* \"#utility.yul\":17892:17895   */\n      dup4\n        /* \"#utility.yul\":17833:17900   */\n      tag_342\n      jump\t// in\n    tag_570:\n        /* \"#utility.yul\":17826:17900   */\n      swap2\n      pop\n        /* \"#utility.yul\":17909:18002   */\n      tag_571\n        /* \"#utility.yul\":17998:18001   */\n      dup3\n        /* \"#utility.yul\":17909:18002   */\n      tag_350\n      jump\t// in\n    tag_571:\n        /* \"#utility.yul\":18027:18029   */\n      0x20\n        /* \"#utility.yul\":18022:18025   */\n      dup3\n        /* \"#utility.yul\":18018:18030   */\n      add\n        /* \"#utility.yul\":18011:18030   */\n      swap1\n      pop\n        /* \"#utility.yul\":17670:18036   */\n      swap2\n      swap1\n      pop\n      jump\t// out\n        /* \"#utility.yul\":18042:18461   */\n    tag_168:\n        /* \"#utility.yul\":18208:18212   */\n      0x00\n        /* \"#utility.yul\":18246:18248   */\n      0x20\n        /* \"#utility.yul\":18235:18244   */\n      dup3\n        /* \"#utility.yul\":18231:18249   */\n      add\n        /* \"#utility.yul\":18223:18249   */\n      swap1\n      pop\n        /* \"#utility.yul\":18295:18304   */\n      dup2\n        /* \"#utility.yul\":18289:18293   */\n      dup2\n        /* \"#utility.yul\":18285:18305   */\n      sub\n        /* \"#utility.yul\":18281:18282   */\n      0x00\n        /* \"#utility.yul\":18270:18279   */\n      dup4\n        /* \"#utility.yul\":18266:18283   */\n      add\n        /* \"#utility.yul\":18259:18306   */\n      mstore\n        /* \"#utility.yul\":18323:18454   */\n      tag_573\n        /* \"#utility.yul\":18449:18453   */\n      dup2\n        /* \"#utility.yul\":18323:18454   */\n      tag_351\n      jump\t// in\n    tag_573:\n        /* \"#utility.yul\":18315:18454   */\n      swap1\n      pop\n        /* \"#utility.yul\":18042:18461   */\n      swap2\n      swap1\n      pop\n      jump\t// out\n        /* \"#utility.yul\":18467:18651   */\n    tag_352:\n        /* \"#utility.yul\":18566:18577   */\n      0x00\n        /* \"#utility.yul\":18600:18606   */\n      dup3\n        /* \"#utility.yul\":18595:18598   */\n      dup3\n        /* \"#utility.yul\":18588:18607   */\n      mstore\n        /* \"#utility.yul\":18640:18644   */\n      0x20\n        /* \"#utility.yul\":18635:18638   */\n      dup3\n        /* \"#utility.yul\":18631:18645   */\n      add\n        /* \"#utility.yul\":18616:18645   */\n      swap1\n      pop\n        /* \"#utility.yul\":18467:18651   */\n      swap3\n      swap2\n      pop\n      pop\n      jump\t// out\n        /* \"#utility.yul\":18657:18759   */\n    tag_353:\n        /* \"#utility.yul\":18726:18730   */\n      0x00\n        /* \"#utility.yul\":18749:18752   */\n      dup2\n        /* \"#utility.yul\":18741:18752   */\n      swap1\n      pop\n        /* \"#utility.yul\":18657:18759   */\n      swap2\n      swap1\n      pop\n      jump\t// out\n        /* \"#utility.yul\":18765:18873   */\n    tag_354:\n        /* \"#utility.yul\":18842:18866   */\n      tag_577\n        /* \"#utility.yul\":18860:18865   */\n      dup2\n        /* \"#utility.yul\":18842:18866   */\n      tag_330\n      jump\t// in\n    tag_577:\n        /* \"#utility.yul\":18837:18840   */\n      dup3\n        /* \"#utility.yul\":18830:18867   */\n      mstore\n        /* \"#utility.yul\":18765:18873   */\n      pop\n      pop\n      jump\t// out\n        /* \"#utility.yul\":18879:19058   */\n    tag_355:\n        /* \"#utility.yul\":18948:18958   */\n      0x00\n        /* \"#utility.yul\":18969:19015   */\n      tag_579\n        /* \"#utility.yul\":19011:19014   */\n      dup4\n        /* \"#utility.yul\":19003:19009   */\n      dup4\n        /* \"#utility.yul\":18969:19015   */\n      tag_354\n      jump\t// in\n    tag_579:\n        /* \"#utility.yul\":19047:19051   */\n      0x20\n        /* \"#utility.yul\":19042:19045   */\n      dup4\n        /* \"#utility.yul\":19038:19052   */\n      add\n        /* \"#utility.yul\":19024:19052   */\n      swap1\n      pop\n        /* \"#utility.yul\":18879:19058   */\n      swap3\n      swap2\n      pop\n      pop\n      jump\t// out\n        /* \"#utility.yul\":19064:19186   */\n    tag_356:\n        /* \"#utility.yul\":19116:19121   */\n      0x00\n        /* \"#utility.yul\":19141:19180   */\n      tag_581\n        /* \"#utility.yul\":19176:19178   */\n      0x20\n        /* \"#utility.yul\":19171:19174   */\n      dup5\n        /* \"#utility.yul\":19167:19179   */\n      add\n        /* \"#utility.yul\":19162:19165   */\n      dup5\n        /* \"#utility.yul\":19141:19180   */\n      tag_332\n      jump\t// in\n    tag_581:\n        /* \"#utility.yul\":19132:19180   */\n      swap1\n      pop\n        /* \"#utility.yul\":19064:19186   */\n      swap3\n      swap2\n      pop\n      pop\n      jump\t// out\n        /* \"#utility.yul\":19192:19307   */\n    tag_357:\n        /* \"#utility.yul\":19264:19268   */\n      0x00\n        /* \"#utility.yul\":19296:19300   */\n      0x20\n        /* \"#utility.yul\":19291:19294   */\n      dup3\n        /* \"#utility.yul\":19287:19301   */\n      add\n        /* \"#utility.yul\":19279:19301   */\n      swap1\n      pop\n        /* \"#utility.yul\":19192:19307   */\n      swap2\n      swap1\n      pop\n      jump\t// out\n        /* \"#utility.yul\":19343:20042   */\n    tag_358:\n        /* \"#utility.yul\":19472:19475   */\n      0x00\n        /* \"#utility.yul\":19495:19581   */\n      tag_584\n        /* \"#utility.yul\":19574:19580   */\n      dup4\n        /* \"#utility.yul\":19569:19572   */\n      dup6\n        /* \"#utility.yul\":19495:19581   */\n      tag_352\n      jump\t// in\n    tag_584:\n        /* \"#utility.yul\":19488:19581   */\n      swap4\n      pop\n        /* \"#utility.yul\":19605:19663   */\n      tag_585\n        /* \"#utility.yul\":19657:19662   */\n      dup3\n        /* \"#utility.yul\":19605:19663   */\n      tag_353\n      jump\t// in\n    tag_585:\n        /* \"#utility.yul\":19686:19693   */\n      dup1\n        /* \"#utility.yul\":19717:19718   */\n      0x00\n        /* \"#utility.yul\":19702:20017   */\n    tag_586:\n        /* \"#utility.yul\":19727:19733   */\n      dup6\n        /* \"#utility.yul\":19724:19725   */\n      dup2\n        /* \"#utility.yul\":19721:19734   */\n      lt\n        /* \"#utility.yul\":19702:20017   */\n      iszero\n      tag_588\n      jumpi\n        /* \"#utility.yul\":19797:19839   */\n      tag_589\n        /* \"#utility.yul\":19832:19838   */\n      dup3\n        /* \"#utility.yul\":19823:19830   */\n      dup5\n        /* \"#utility.yul\":19797:19839   */\n      tag_356\n      jump\t// in\n    tag_589:\n        /* \"#utility.yul\":19859:19922   */\n      tag_590\n        /* \"#utility.yul\":19918:19921   */\n      dup9\n        /* \"#utility.yul\":19903:19916   */\n      dup3\n        /* \"#utility.yul\":19859:19922   */\n      tag_355\n      jump\t// in\n    tag_590:\n        /* \"#utility.yul\":19852:19922   */\n      swap8\n      pop\n        /* \"#utility.yul\":19945:20007   */\n      tag_591\n        /* \"#utility.yul\":20000:20006   */\n      dup4\n        /* \"#utility.yul\":19945:20007   */\n      tag_357\n      jump\t// in\n    tag_591:\n        /* \"#utility.yul\":19935:20007   */\n      swap3\n      pop\n        /* \"#utility.yul\":19762:20017   */\n      pop\n        /* \"#utility.yul\":19749:19750   */\n      0x01\n        /* \"#utility.yul\":19746:19747   */\n      dup2\n        /* \"#utility.yul\":19742:19751   */\n      add\n        /* \"#utility.yul\":19737:19751   */\n      swap1\n      pop\n        /* \"#utility.yul\":19702:20017   */\n      jump(tag_586)\n    tag_588:\n        /* \"#utility.yul\":19706:19720   */\n      pop\n        /* \"#utility.yul\":20033:20036   */\n      dup6\n        /* \"#utility.yul\":20026:20036   */\n      swap3\n      pop\n        /* \"#utility.yul\":19477:20042   */\n      pop\n      pop\n        /* \"#utility.yul\":19343:20042   */\n      swap4\n      swap3\n      pop\n      pop\n      pop\n      jump\t// out\n        /* \"#utility.yul\":20048:20232   */\n    tag_359:\n        /* \"#utility.yul\":20147:20158   */\n      0x00\n        /* \"#utility.yul\":20181:20187   */\n      dup3\n        /* \"#utility.yul\":20176:20179   */\n      dup3\n        /* \"#utility.yul\":20169:20188   */\n      mstore\n        /* \"#utility.yul\":20221:20225   */\n      0x20\n        /* \"#utility.yul\":20216:20219   */\n      dup3\n        /* \"#utility.yul\":20212:20226   */\n      add\n        /* \"#utility.yul\":20197:20226   */\n      swap1\n      pop\n        /* \"#utility.yul\":20048:20232   */\n      swap3\n      swap2\n      pop\n      pop\n      jump\t// out\n        /* \"#utility.yul\":20238:20355   */\n    tag_360:\n        /* \"#utility.yul\":20347:20348   */\n      0x00\n        /* \"#utility.yul\":20344:20345   */\n      dup1\n        /* \"#utility.yul\":20337:20349   */\n      revert\n        /* \"#utility.yul\":20361:20460   */\n    tag_361:\n        /* \"#utility.yul\":20446:20452   */\n      dup3\n        /* \"#utility.yul\":20441:20444   */\n      dup2\n        /* \"#utility.yul\":20436:20439   */\n      dup4\n        /* \"#utility.yul\":20423:20453   */\n      calldatacopy\n        /* \"#utility.yul\":20361:20460   */\n      pop\n      pop\n      pop\n      jump\t// out\n        /* \"#utility.yul\":20496:21033   */\n    tag_362:\n        /* \"#utility.yul\":20624:20627   */\n      0x00\n        /* \"#utility.yul\":20645:20731   */\n      tag_596\n        /* \"#utility.yul\":20724:20730   */\n      dup4\n        /* \"#utility.yul\":20719:20722   */\n      dup6\n        /* \"#utility.yul\":20645:20731   */\n      tag_359\n      jump\t// in\n    tag_596:\n        /* \"#utility.yul\":20638:20731   */\n      swap4\n      pop\n        /* \"#utility.yul\":20755:20821   */\n      0x07ffffffffffffffffffffffffffffffffffffffffffffffffffffffffffffff\n        /* \"#utility.yul\":20747:20753   */\n      dup4\n        /* \"#utility.yul\":20744:20822   */\n      gt\n        /* \"#utility.yul\":20741:20906   */\n      iszero\n      tag_597\n      jumpi\n        /* \"#utility.yul\":20825:20904   */\n      tag_598\n      tag_360\n      jump\t// in\n    tag_598:\n        /* \"#utility.yul\":20741:20906   */\n    tag_597:\n        /* \"#utility.yul\":20937:20941   */\n      0x20\n        /* \"#utility.yul\":20929:20935   */\n      dup4\n        /* \"#utility.yul\":20925:20942   */\n      mul\n        /* \"#utility.yul\":20915:20942   */\n      swap3\n      pop\n        /* \"#utility.yul\":20952:20995   */\n      tag_599\n        /* \"#utility.yul\":20988:20994   */\n      dup4\n        /* \"#utility.yul\":20983:20986   */\n      dup6\n        /* \"#utility.yul\":20976:20981   */\n      dup5\n        /* \"#utility.yul\":20952:20995   */\n      tag_361\n      jump\t// in\n    tag_599:\n        /* \"#utility.yul\":21020:21026   */\n      dup3\n        /* \"#utility.yul\":21015:21018   */\n      dup5\n        /* \"#utility.yul\":21011:21027   */\n      add\n        /* \"#utility.yul\":21004:21027   */\n      swap1\n      pop\n        /* \"#utility.yul\":20496:21033   */\n      swap4\n      swap3\n      pop\n      pop\n      pop\n      jump\t// out\n        /* \"#utility.yul\":21039:21713   */\n    tag_170:\n        /* \"#utility.yul\":21280:21284   */\n      0x00\n        /* \"#utility.yul\":21318:21320   */\n      0x40\n        /* \"#utility.yul\":21307:21316   */\n      dup3\n        /* \"#utility.yul\":21303:21321   */\n      add\n        /* \"#utility.yul\":21295:21321   */\n      swap1\n      pop\n        /* \"#utility.yul\":21367:21376   */\n      dup2\n        /* \"#utility.yul\":21361:21365   */\n      dup2\n        /* \"#utility.yul\":21357:21377   */\n      sub\n        /* \"#utility.yul\":21353:21354   */\n      0x00\n        /* \"#utility.yul\":21342:21351   */\n      dup4\n        /* \"#utility.yul\":21338:21355   */\n      add\n        /* \"#utility.yul\":21331:21378   */\n      mstore\n        /* \"#utility.yul\":21395:21513   */\n      tag_601\n        /* \"#utility.yul\":21508:21512   */\n      dup2\n        /* \"#utility.yul\":21499:21505   */\n      dup7\n        /* \"#utility.yul\":21491:21497   */\n      dup9\n        /* \"#utility.yul\":21395:21513   */\n      tag_358\n      jump\t// in\n    tag_601:\n        /* \"#utility.yul\":21387:21513   */\n      swap1\n      pop\n        /* \"#utility.yul\":21560:21569   */\n      dup2\n        /* \"#utility.yul\":21554:21558   */\n      dup2\n        /* \"#utility.yul\":21550:21570   */\n      sub\n        /* \"#utility.yul\":21545:21547   */\n      0x20\n        /* \"#utility.yul\":21534:21543   */\n      dup4\n        /* \"#utility.yul\":21530:21548   */\n      add\n        /* \"#utility.yul\":21523:21571   */\n      mstore\n        /* \"#utility.yul\":21588:21706   */\n      tag_602\n        /* \"#utility.yul\":21701:21705   */\n      dup2\n        /* \"#utility.yul\":21692:21698   */\n      dup5\n        /* \"#utility.yul\":21684:21690   */\n      dup7\n        /* \"#utility.yul\":21588:21706   */\n      tag_362\n      jump\t// in\n    tag_602:\n        /* \"#utility.yul\":21580:21706   */\n      swap1\n      pop\n        /* \"#utility.yul\":21039:21713   */\n      swap6\n      swap5\n      pop\n      pop\n      pop\n      pop\n      pop\n      jump\t// out\n        /* \"#utility.yul\":21719:21890   */\n    tag_363:\n        /* \"#utility.yul\":21859:21882   */\n      0x4d656d62657220646f6573206e6f742065786973740000000000000000000000\n        /* \"#utility.yul\":21855:21856   */\n      0x00\n        /* \"#utility.yul\":21847:21853   */\n      dup3\n        /* \"#utility.yul\":21843:21857   */\n      add\n        /* \"#utility.yul\":21836:21883   */\n      mstore\n        /* \"#utility.yul\":21719:21890   */\n      pop\n      jump\t// out\n        /* \"#utility.yul\":21896:22262   */\n    tag_364:\n        /* \"#utility.yul\":22038:22041   */\n      0x00\n        /* \"#utility.yul\":22059:22126   */\n      tag_605\n        /* \"#utility.yul\":22123:22125   */\n      0x15\n        /* \"#utility.yul\":22118:22121   */\n      dup4\n        /* \"#utility.yul\":22059:22126   */\n      tag_342\n      jump\t// in\n    tag_605:\n        /* \"#utility.yul\":22052:22126   */\n      swap2\n      pop\n        /* \"#utility.yul\":22135:22228   */\n      tag_606\n        /* \"#utility.yul\":22224:22227   */\n      dup3\n        /* \"#utility.yul\":22135:22228   */\n      tag_363\n      jump\t// in\n    tag_606:\n        /* \"#utility.yul\":22253:22255   */\n      0x20\n        /* \"#utility.yul\":22248:22251   */\n      dup3\n        /* \"#utility.yul\":22244:22256   */\n      add\n        /* \"#utility.yul\":22237:22256   */\n      swap1\n      pop\n        /* \"#utility.yul\":21896:22262   */\n      swap2\n      swap1\n      pop\n      jump\t// out\n        /* \"#utility.yul\":22268:22687   */\n    tag_185:\n        /* \"#utility.yul\":22434:22438   */\n      0x00\n        /* \"#utility.yul\":22472:22474   */\n      0x20\n        /* \"#utility.yul\":22461:22470   */\n      dup3\n        /* \"#utility.yul\":22457:22475   */\n      add\n        /* \"#utility.yul\":22449:22475   */\n      swap1\n      pop\n        /* \"#utility.yul\":22521:22530   */\n      dup2\n        /* \"#utility.yul\":22515:22519   */\n      dup2\n        /* \"#utility.yul\":22511:22531   */\n      sub\n        /* \"#utility.yul\":22507:22508   */\n      0x00\n        /* \"#utility.yul\":22496:22505   */\n      dup4\n        /* \"#utility.yul\":22492:22509   */\n      add\n        /* \"#utility.yul\":22485:22532   */\n      mstore\n        /* \"#utility.yul\":22549:22680   */\n      tag_608\n        /* \"#utility.yul\":22675:22679   */\n      dup2\n        /* \"#utility.yul\":22549:22680   */\n      tag_364\n      jump\t// in\n    tag_608:\n        /* \"#utility.yul\":22541:22680   */\n      swap1\n      pop\n        /* \"#utility.yul\":22268:22687   */\n      swap2\n      swap1\n      pop\n      jump\t// out\n        /* \"#utility.yul\":22693:22868   */\n    tag_365:\n        /* \"#utility.yul\":22833:22860   */\n      0x4d656d62657220616c7265616479207265676973746572656400000000000000\n        /* \"#utility.yul\":22829:22830   */\n      0x00\n        /* \"#utility.yul\":22821:22827   */\n      dup3\n        /* \"#utility.yul\":22817:22831   */\n      add\n        /* \"#utility.yul\":22810:22861   */\n      mstore\n        /* \"#utility.yul\":22693:22868   */\n      pop\n      jump\t// out\n        /* \"#utility.yul\":22874:23240   */\n    tag_366:\n        /* \"#utility.yul\":23016:23019   */\n      0x00\n        /* \"#utility.yul\":23037:23104   */\n      tag_611\n        /* \"#utility.yul\":23101:23103   */\n      0x19\n        /* \"#utility.yul\":23096:23099   */\n      dup4\n        /* \"#utility.yul\":23037:23104   */\n      tag_342\n      jump\t// in\n    tag_611:\n        /* \"#utility.yul\":23030:23104   */\n      swap2\n      pop\n        /* \"#utility.yul\":23113:23206   */\n      tag_612\n        /* \"#utility.yul\":23202:23205   */\n      dup3\n        /* \"#utility.yul\":23113:23206   */\n      tag_365\n      jump\t// in\n    tag_612:\n        /* \"#utility.yul\":23231:23233   */\n      0x20\n        /* \"#utility.yul\":23226:23229   */\n      dup3\n        /* \"#utility.yul\":23222:23234   */\n      add\n        /* \"#utility.yul\":23215:23234   */\n      swap1\n      pop\n        /* \"#utility.yul\":22874:23240   */\n      swap2\n      swap1\n      pop\n      jump\t// out\n        /* \"#utility.yul\":23246:23665   */\n    tag_191:\n        /* \"#utility.yul\":23412:23416   */\n      0x00\n        /* \"#utility.yul\":23450:23452   */\n      0x20\n        /* \"#utility.yul\":23439:23448   */\n      dup3\n        /* \"#utility.yul\":23435:23453   */\n      add\n        /* \"#utility.yul\":23427:23453   */\n      swap1\n      pop\n        /* \"#utility.yul\":23499:23508   */\n      dup2\n        /* \"#utility.yul\":23493:23497   */\n      dup2\n        /* \"#utility.yul\":23489:23509   */\n      sub\n        /* \"#utility.yul\":23485:23486   */\n      0x00\n        /* \"#utility.yul\":23474:23483   */\n      dup4\n        /* \"#utility.yul\":23470:23487   */\n      add\n        /* \"#utility.yul\":23463:23510   */\n      mstore\n        /* \"#utility.yul\":23527:23658   */\n      tag_614\n        /* \"#utility.yul\":23653:23657   */\n      dup2\n        /* \"#utility.yul\":23527:23658   */\n      tag_366\n      jump\t// in\n    tag_614:\n        /* \"#utility.yul\":23519:23658   */\n      swap1\n      pop\n        /* \"#utility.yul\":23246:23665   */\n      swap2\n      swap1\n      pop\n      jump\t// out\n        /* \"#utility.yul\":23671:24003   */\n    tag_198:\n        /* \"#utility.yul\":23792:23796   */\n      0x00\n        /* \"#utility.yul\":23830:23832   */\n      0x40\n        /* \"#utility.yul\":23819:23828   */\n      dup3\n        /* \"#utility.yul\":23815:23833   */\n      add\n        /* \"#utility.yul\":23807:23833   */\n      swap1\n      pop\n        /* \"#utility.yul\":23843:23914   */\n      tag_616\n        /* \"#utility.yul\":23911:23912   */\n      0x00\n        /* \"#utility.yul\":23900:23909   */\n      dup4\n        /* \"#utility.yul\":23896:23913   */\n      add\n        /* \"#utility.yul\":23887:23893   */\n      dup6\n        /* \"#utility.yul\":23843:23914   */\n      tag_325\n      jump\t// in\n    tag_616:\n        /* \"#utility.yul\":23924:23996   */\n      tag_617\n        /* \"#utility.yul\":23992:23994   */\n      0x20\n        /* \"#utility.yul\":23981:23990   */\n      dup4\n        /* \"#utility.yul\":23977:23995   */\n      add\n        /* \"#utility.yul\":23968:23974   */\n      dup5\n        /* \"#utility.yul\":23924:23996   */\n      tag_325\n      jump\t// in\n    tag_617:\n        /* \"#utility.yul\":23671:24003   */\n      swap4\n      swap3\n      pop\n      pop\n      pop\n      jump\t// out\n        /* \"#utility.yul\":24009:24189   */\n    tag_367:\n        /* \"#utility.yul\":24149:24181   */\n      0x4368616c6c656e67652073636f726520646f6573206e6f742065786973740000\n        /* \"#utility.yul\":24145:24146   */\n      0x00\n        /* \"#utility.yul\":24137:24143   */\n      dup3\n        /* \"#utility.yul\":24133:24147   */\n      add\n        /* \"#utility.yul\":24126:24182   */\n      mstore\n        /* \"#utility.yul\":24009:24189   */\n      pop\n      jump\t// out\n        /* \"#utility.yul\":24195:24561   */\n    tag_368:\n        /* \"#utility.yul\":24337:24340   */\n      0x00\n        /* \"#utility.yul\":24358:24425   */\n      tag_620\n        /* \"#utility.yul\":24422:24424   */\n      0x1e\n        /* \"#utility.yul\":24417:24420   */\n      dup4\n        /* \"#utility.yul\":24358:24425   */\n      tag_342\n      jump\t// in\n    tag_620:\n        /* \"#utility.yul\":24351:24425   */\n      swap2\n      pop\n        /* \"#utility.yul\":24434:24527   */\n      tag_621\n        /* \"#utility.yul\":24523:24526   */\n      dup3\n        /* \"#utility.yul\":24434:24527   */\n      tag_367\n      jump\t// in\n    tag_621:\n        /* \"#utility.yul\":24552:24554   */\n      0x20\n        /* \"#utility.yul\":24547:24550   */\n      dup3\n        /* \"#utility.yul\":24543:24555   */\n      add\n        /* \"#utility.yul\":24536:24555   */\n      swap1\n      pop\n        /* \"#utility.yul\":24195:24561   */\n      swap2\n      swap1\n      pop\n      jump\t// out\n        /* \"#utility.yul\":24567:24986   */\n    tag_204:\n        /* \"#utility.yul\":24733:24737   */\n      0x00\n        /* \"#utility.yul\":24771:24773   */\n      0x20\n        /* \"#utility.yul\":24760:24769   */\n      dup3\n        /* \"#utility.yul\":24756:24774   */\n      add\n        /* \"#utility.yul\":24748:24774   */\n      swap1\n      pop\n        /* \"#utility.yul\":24820:24829   */\n      dup2\n        /* \"#utility.yul\":24814:24818   */\n      dup2\n        /* \"#utility.yul\":24810:24830   */\n      sub\n        /* \"#utility.yul\":24806:24807   */\n      0x00\n        /* \"#utility.yul\":24795:24804   */\n      dup4\n        /* \"#utility.yul\":24791:24808   */\n      add\n        /* \"#utility.yul\":24784:24831   */\n      mstore\n        /* \"#utility.yul\":24848:24979   */\n      tag_623\n        /* \"#utility.yul\":24974:24978   */\n      dup2\n        /* \"#utility.yul\":24848:24979   */\n      tag_368\n      jump\t// in\n    tag_623:\n        /* \"#utility.yul\":24840:24979   */\n      swap1\n      pop\n        /* \"#utility.yul\":24567:24986   */\n      swap2\n      swap1\n      pop\n      jump\t// out\n        /* \"#utility.yul\":24992:25235   */\n    tag_369:\n        /* \"#utility.yul\":25132:25166   */\n      0x4368616c6c656e676520616c72656164792065786973747320666f7220746869\n        /* \"#utility.yul\":25128:25129   */\n      0x00\n        /* \"#utility.yul\":25120:25126   */\n      dup3\n        /* \"#utility.yul\":25116:25130   */\n      add\n        /* \"#utility.yul\":25109:25167   */\n      mstore\n        /* \"#utility.yul\":25201:25227   */\n      0x73206d656d6265722c20646174652c20616e642067616d650000000000000000\n        /* \"#utility.yul\":25196:25198   */\n      0x20\n        /* \"#utility.yul\":25188:25194   */\n      dup3\n        /* \"#utility.yul\":25184:25199   */\n      add\n        /* \"#utility.yul\":25177:25228   */\n      mstore\n        /* \"#utility.yul\":24992:25235   */\n      pop\n      jump\t// out\n        /* \"#utility.yul\":25241:25607   */\n    tag_370:\n        /* \"#utility.yul\":25383:25386   */\n      0x00\n        /* \"#utility.yul\":25404:25471   */\n      tag_626\n        /* \"#utility.yul\":25468:25470   */\n      0x38\n        /* \"#utility.yul\":25463:25466   */\n      dup4\n        /* \"#utility.yul\":25404:25471   */\n      tag_342\n      jump\t// in\n    tag_626:\n        /* \"#utility.yul\":25397:25471   */\n      swap2\n      pop\n        /* \"#utility.yul\":25480:25573   */\n      tag_627\n        /* \"#utility.yul\":25569:25572   */\n      dup3\n        /* \"#utility.yul\":25480:25573   */\n      tag_369\n      jump\t// in\n    tag_627:\n        /* \"#utility.yul\":25598:25600   */\n      0x40\n        /* \"#utility.yul\":25593:25596   */\n      dup3\n        /* \"#utility.yul\":25589:25601   */\n      add\n        /* \"#utility.yul\":25582:25601   */\n      swap1\n      pop\n        /* \"#utility.yul\":25241:25607   */\n      swap2\n      swap1\n      pop\n      jump\t// out\n        /* \"#utility.yul\":25613:26032   */\n    tag_212:\n        /* \"#utility.yul\":25779:25783   */\n      0x00\n        /* \"#utility.yul\":25817:25819   */\n      0x20\n        /* \"#utility.yul\":25806:25815   */\n      dup3\n        /* \"#utility.yul\":25802:25820   */\n      add\n        /* \"#utility.yul\":25794:25820   */\n      swap1\n      pop\n        /* \"#utility.yul\":25866:25875   */\n      dup2\n        /* \"#utility.yul\":25860:25864   */\n      dup2\n        /* \"#utility.yul\":25856:25876   */\n      sub\n        /* \"#utility.yul\":25852:25853   */\n      0x00\n        /* \"#utility.yul\":25841:25850   */\n      dup4\n        /* \"#utility.yul\":25837:25854   */\n      add\n        /* \"#utility.yul\":25830:25877   */\n      mstore\n        /* \"#utility.yul\":25894:26025   */\n      tag_629\n        /* \"#utility.yul\":26020:26024   */\n      dup2\n        /* \"#utility.yul\":25894:26025   */\n      tag_370\n      jump\t// in\n    tag_629:\n        /* \"#utility.yul\":25886:26025   */\n      swap1\n      pop\n        /* \"#utility.yul\":25613:26032   */\n      swap2\n      swap1\n      pop\n      jump\t// out\n        /* \"#utility.yul\":26038:26370   */\n    tag_214:\n        /* \"#utility.yul\":26159:26163   */\n      0x00\n        /* \"#utility.yul\":26197:26199   */\n      0x40\n        /* \"#utility.yul\":26186:26195   */\n      dup3\n        /* \"#utility.yul\":26182:26200   */\n      add\n        /* \"#utility.yul\":26174:26200   */\n      swap1\n      pop\n        /* \"#utility.yul\":26210:26281   */\n      tag_631\n        /* \"#utility.yul\":26278:26279   */\n      0x00\n        /* \"#utility.yul\":26267:26276   */\n      dup4\n        /* \"#utility.yul\":26263:26280   */\n      add\n        /* \"#utility.yul\":26254:26260   */\n      dup6\n        /* \"#utility.yul\":26210:26281   */\n      tag_347\n      jump\t// in\n    tag_631:\n        /* \"#utility.yul\":26291:26363   */\n      tag_632\n        /* \"#utility.yul\":26359:26361   */\n      0x20\n        /* \"#utility.yul\":26348:26357   */\n      dup4\n        /* \"#utility.yul\":26344:26362   */\n      add\n        /* \"#utility.yul\":26335:26341   */\n      dup5\n        /* \"#utility.yul\":26291:26363   */\n      tag_347\n      jump\t// in\n    tag_632:\n        /* \"#utility.yul\":26038:26370   */\n      swap4\n      swap3\n      pop\n      pop\n      pop\n      jump\t// out\n        /* \"#utility.yul\":26376:26519   */\n    tag_371:\n        /* \"#utility.yul\":26433:26438   */\n      0x00\n        /* \"#utility.yul\":26464:26470   */\n      dup2\n        /* \"#utility.yul\":26458:26471   */\n      mload\n        /* \"#utility.yul\":26449:26471   */\n      swap1\n      pop\n        /* \"#utility.yul\":26480:26513   */\n      tag_634\n        /* \"#utility.yul\":26507:26512   */\n      dup2\n        /* \"#utility.yul\":26480:26513   */\n      tag_323\n      jump\t// in\n    tag_634:\n        /* \"#utility.yul\":26376:26519   */\n      swap3\n      swap2\n      pop\n      pop\n      jump\t// out\n        /* \"#utility.yul\":26525:26876   */\n    tag_218:\n        /* \"#utility.yul\":26595:26601   */\n      0x00\n        /* \"#utility.yul\":26644:26646   */\n      0x20\n        /* \"#utility.yul\":26632:26641   */\n      dup3\n        /* \"#utility.yul\":26623:26630   */\n      dup5\n        /* \"#utility.yul\":26619:26642   */\n      sub\n        /* \"#utility.yul\":26615:26647   */\n      slt\n        /* \"#utility.yul\":26612:26731   */\n      iszero\n      tag_636\n      jumpi\n        /* \"#utility.yul\":26650:26729   */\n      tag_637\n      tag_309\n      jump\t// in\n    tag_637:\n        /* \"#utility.yul\":26612:26731   */\n    tag_636:\n        /* \"#utility.yul\":26770:26771   */\n      0x00\n        /* \"#utility.yul\":26795:26859   */\n      tag_638\n        /* \"#utility.yul\":26851:26858   */\n      dup5\n        /* \"#utility.yul\":26842:26848   */\n      dup3\n        /* \"#utility.yul\":26831:26840   */\n      dup6\n        /* \"#utility.yul\":26827:26849   */\n      add\n        /* \"#utility.yul\":26795:26859   */\n      tag_371\n      jump\t// in\n    tag_638:\n        /* \"#utility.yul\":26785:26859   */\n      swap2\n      pop\n        /* \"#utility.yul\":26741:26869   */\n      pop\n        /* \"#utility.yul\":26525:26876   */\n      swap3\n      swap2\n      pop\n      pop\n      jump\t// out\n        /* \"#utility.yul\":26882:27060   */\n    tag_372:\n        /* \"#utility.yul\":27022:27052   */\n      0x496e73756666696369656e7420746f6b656e20616c6c6f77616e636500000000\n        /* \"#utility.yul\":27018:27019   */\n      0x00\n        /* \"#utility.yul\":27010:27016   */\n      dup3\n        /* \"#utility.yul\":27006:27020   */\n      add\n        /* \"#utility.yul\":26999:27053   */\n      mstore\n        /* \"#utility.yul\":26882:27060   */\n      pop\n      jump\t// out\n        /* \"#utility.yul\":27066:27432   */\n    tag_373:\n        /* \"#utility.yul\":27208:27211   */\n      0x00\n        /* \"#utility.yul\":27229:27296   */\n      tag_641\n        /* \"#utility.yul\":27293:27295   */\n      0x1c\n        /* \"#utility.yul\":27288:27291   */\n      dup4\n        /* \"#utility.yul\":27229:27296   */\n      tag_342\n      jump\t// in\n    tag_641:\n        /* \"#utility.yul\":27222:27296   */\n      swap2\n      pop\n        /* \"#utility.yul\":27305:27398   */\n      tag_642\n        /* \"#utility.yul\":27394:27397   */\n      dup3\n        /* \"#utility.yul\":27305:27398   */\n      tag_372\n      jump\t// in\n    tag_642:\n        /* \"#utility.yul\":27423:27425   */\n      0x20\n        /* \"#utility.yul\":27418:27421   */\n      dup3\n        /* \"#utility.yul\":27414:27426   */\n      add\n        /* \"#utility.yul\":27407:27426   */\n      swap1\n      pop\n        /* \"#utility.yul\":27066:27432   */\n      swap2\n      swap1\n      pop\n      jump\t// out\n        /* \"#utility.yul\":27438:27857   */\n    tag_221:\n        /* \"#utility.yul\":27604:27608   */\n      0x00\n        /* \"#utility.yul\":27642:27644   */\n      0x20\n        /* \"#utility.yul\":27631:27640   */\n      dup3\n        /* \"#utility.yul\":27627:27645   */\n      add\n        /* \"#utility.yul\":27619:27645   */\n      swap1\n      pop\n        /* \"#utility.yul\":27691:27700   */\n      dup2\n        /* \"#utility.yul\":27685:27689   */\n      dup2\n        /* \"#utility.yul\":27681:27701   */\n      sub\n        /* \"#utility.yul\":27677:27678   */\n      0x00\n        /* \"#utility.yul\":27666:27675   */\n      dup4\n        /* \"#utility.yul\":27662:27679   */\n      add\n        /* \"#utility.yul\":27655:27702   */\n      mstore\n        /* \"#utility.yul\":27719:27850   */\n      tag_644\n        /* \"#utility.yul\":27845:27849   */\n      dup2\n        /* \"#utility.yul\":27719:27850   */\n      tag_373\n      jump\t// in\n    tag_644:\n        /* \"#utility.yul\":27711:27850   */\n      swap1\n      pop\n        /* \"#utility.yul\":27438:27857   */\n      swap2\n      swap1\n      pop\n      jump\t// out\n        /* \"#utility.yul\":27863:28085   */\n    tag_223:\n        /* \"#utility.yul\":27956:27960   */\n      0x00\n        /* \"#utility.yul\":27994:27996   */\n      0x20\n        /* \"#utility.yul\":27983:27992   */\n      dup3\n        /* \"#utility.yul\":27979:27997   */\n      add\n        /* \"#utility.yul\":27971:27997   */\n      swap1\n      pop\n        /* \"#utility.yul\":28007:28078   */\n      tag_646\n        /* \"#utility.yul\":28075:28076   */\n      0x00\n        /* \"#utility.yul\":28064:28073   */\n      dup4\n        /* \"#utility.yul\":28060:28077   */\n      add\n        /* \"#utility.yul\":28051:28057   */\n      dup5\n        /* \"#utility.yul\":28007:28078   */\n      tag_347\n      jump\t// in\n    tag_646:\n        /* \"#utility.yul\":27863:28085   */\n      swap3\n      swap2\n      pop\n      pop\n      jump\t// out\n        /* \"#utility.yul\":28091:28267   */\n    tag_374:\n        /* \"#utility.yul\":28231:28259   */\n      0x496e73756666696369656e7420746f6b656e2062616c616e6365000000000000\n        /* \"#utility.yul\":28227:28228   */\n      0x00\n        /* \"#utility.yul\":28219:28225   */\n      dup3\n        /* \"#utility.yul\":28215:28229   */\n      add\n        /* \"#utility.yul\":28208:28260   */\n      mstore\n        /* \"#utility.yul\":28091:28267   */\n      pop\n      jump\t// out\n        /* \"#utility.yul\":28273:28639   */\n    tag_375:\n        /* \"#utility.yul\":28415:28418   */\n      0x00\n        /* \"#utility.yul\":28436:28503   */\n      tag_649\n        /* \"#utility.yul\":28500:28502   */\n      0x1a\n        /* \"#utility.yul\":28495:28498   */\n      dup4\n        /* \"#utility.yul\":28436:28503   */\n      tag_342\n      jump\t// in\n    tag_649:\n        /* \"#utility.yul\":28429:28503   */\n      swap2\n      pop\n        /* \"#utility.yul\":28512:28605   */\n      tag_650\n        /* \"#utility.yul\":28601:28604   */\n      dup3\n        /* \"#utility.yul\":28512:28605   */\n      tag_374\n      jump\t// in\n    tag_650:\n        /* \"#utility.yul\":28630:28632   */\n      0x20\n        /* \"#utility.yul\":28625:28628   */\n      dup3\n        /* \"#utility.yul\":28621:28633   */\n      add\n        /* \"#utility.yul\":28614:28633   */\n      swap1\n      pop\n        /* \"#utility.yul\":28273:28639   */\n      swap2\n      swap1\n      pop\n      jump\t// out\n        /* \"#utility.yul\":28645:29064   */\n    tag_229:\n        /* \"#utility.yul\":28811:28815   */\n      0x00\n        /* \"#utility.yul\":28849:28851   */\n      0x20\n        /* \"#utility.yul\":28838:28847   */\n      dup3\n        /* \"#utility.yul\":28834:28852   */\n      add\n        /* \"#utility.yul\":28826:28852   */\n      swap1\n      pop\n        /* \"#utility.yul\":28898:28907   */\n      dup2\n        /* \"#utility.yul\":28892:28896   */\n      dup2\n        /* \"#utility.yul\":28888:28908   */\n      sub\n        /* \"#utility.yul\":28884:28885   */\n      0x00\n        /* \"#utility.yul\":28873:28882   */\n      dup4\n        /* \"#utility.yul\":28869:28886   */\n      add\n        /* \"#utility.yul\":28862:28909   */\n      mstore\n        /* \"#utility.yul\":28926:29057   */\n      tag_652\n        /* \"#utility.yul\":29052:29056   */\n      dup2\n        /* \"#utility.yul\":28926:29057   */\n      tag_375\n      jump\t// in\n    tag_652:\n        /* \"#utility.yul\":28918:29057   */\n      swap1\n      pop\n        /* \"#utility.yul\":28645:29064   */\n      swap2\n      swap1\n      pop\n      jump\t// out\n        /* \"#utility.yul\":29070:29512   */\n    tag_231:\n        /* \"#utility.yul\":29219:29223   */\n      0x00\n        /* \"#utility.yul\":29257:29259   */\n      0x60\n        /* \"#utility.yul\":29246:29255   */\n      dup3\n        /* \"#utility.yul\":29242:29260   */\n      add\n        /* \"#utility.yul\":29234:29260   */\n      swap1\n      pop\n        /* \"#utility.yul\":29270:29341   */\n      tag_654\n        /* \"#utility.yul\":29338:29339   */\n      0x00\n        /* \"#utility.yul\":29327:29336   */\n      dup4\n        /* \"#utility.yul\":29323:29340   */\n      add\n        /* \"#utility.yul\":29314:29320   */\n      dup7\n        /* \"#utility.yul\":29270:29341   */\n      tag_347\n      jump\t// in\n    tag_654:\n        /* \"#utility.yul\":29351:29423   */\n      tag_655\n        /* \"#utility.yul\":29419:29421   */\n      0x20\n        /* \"#utility.yul\":29408:29417   */\n      dup4\n        /* \"#utility.yul\":29404:29422   */\n      add\n        /* \"#utility.yul\":29395:29401   */\n      dup6\n        /* \"#utility.yul\":29351:29423   */\n      tag_347\n      jump\t// in\n    tag_655:\n        /* \"#utility.yul\":29433:29505   */\n      tag_656\n        /* \"#utility.yul\":29501:29503   */\n      0x40\n        /* \"#utility.yul\":29490:29499   */\n      dup4\n        /* \"#utility.yul\":29486:29504   */\n      add\n        /* \"#utility.yul\":29477:29483   */\n      dup5\n        /* \"#utility.yul\":29433:29505   */\n      tag_325\n      jump\t// in\n    tag_656:\n        /* \"#utility.yul\":29070:29512   */\n      swap5\n      swap4\n      pop\n      pop\n      pop\n      pop\n      jump\t// out\n        /* \"#utility.yul\":29518:29692   */\n    tag_376:\n        /* \"#utility.yul\":29658:29684   */\n      0x4368616c6c656e676520646f6573206e6f742065786973740000000000000000\n        /* \"#utility.yul\":29654:29655   */\n      0x00\n        /* \"#utility.yul\":29646:29652   */\n      dup3\n        /* \"#utility.yul\":29642:29656   */\n      add\n        /* \"#utility.yul\":29635:29685   */\n      mstore\n        /* \"#utility.yul\":29518:29692   */\n      pop\n      jump\t// out\n        /* \"#utility.yul\":29698:30064   */\n    tag_377:\n        /* \"#utility.yul\":29840:29843   */\n      0x00\n        /* \"#utility.yul\":29861:29928   */\n      tag_659\n        /* \"#utility.yul\":29925:29927   */\n      0x18\n        /* \"#utility.yul\":29920:29923   */\n      dup4\n        /* \"#utility.yul\":29861:29928   */\n      tag_342\n      jump\t// in\n    tag_659:\n        /* \"#utility.yul\":29854:29928   */\n      swap2\n      pop\n        /* \"#utility.yul\":29937:30030   */\n      tag_660\n        /* \"#utility.yul\":30026:30029   */\n      dup3\n        /* \"#utility.yul\":29937:30030   */\n      tag_376\n      jump\t// in\n    tag_660:\n        /* \"#utility.yul\":30055:30057   */\n      0x20\n        /* \"#utility.yul\":30050:30053   */\n      dup3\n        /* \"#utility.yul\":30046:30058   */\n      add\n        /* \"#utility.yul\":30039:30058   */\n      swap1\n      pop\n        /* \"#utility.yul\":29698:30064   */\n      swap2\n      swap1\n      pop\n      jump\t// out\n        /* \"#utility.yul\":30070:30489   */\n    tag_251:\n        /* \"#utility.yul\":30236:30240   */\n      0x00\n        /* \"#utility.yul\":30274:30276   */\n      0x20\n        /* \"#utility.yul\":30263:30272   */\n      dup3\n        /* \"#utility.yul\":30259:30277   */\n      add\n        /* \"#utility.yul\":30251:30277   */\n      swap1\n      pop\n        /* \"#utility.yul\":30323:30332   */\n      dup2\n        /* \"#utility.yul\":30317:30321   */\n      dup2\n        /* \"#utility.yul\":30313:30333   */\n      sub\n        /* \"#utility.yul\":30309:30310   */\n      0x00\n        /* \"#utility.yul\":30298:30307   */\n      dup4\n        /* \"#utility.yul\":30294:30311   */\n      add\n        /* \"#utility.yul\":30287:30334   */\n      mstore\n        /* \"#utility.yul\":30351:30482   */\n      tag_662\n        /* \"#utility.yul\":30477:30481   */\n      dup2\n        /* \"#utility.yul\":30351:30482   */\n      tag_377\n      jump\t// in\n    tag_662:\n        /* \"#utility.yul\":30343:30482   */\n      swap1\n      pop\n        /* \"#utility.yul\":30070:30489   */\n      swap2\n      swap1\n      pop\n      jump\t// out\n        /* \"#utility.yul\":30495:30643   */\n    tag_378:\n        /* \"#utility.yul\":30597:30608   */\n      0x00\n        /* \"#utility.yul\":30634:30637   */\n      dup2\n        /* \"#utility.yul\":30619:30637   */\n      swap1\n      pop\n        /* \"#utility.yul\":30495:30643   */\n      swap3\n      swap2\n      pop\n      pop\n      jump\t// out\n        /* \"#utility.yul\":30649:30822   */\n    tag_379:\n        /* \"#utility.yul\":30789:30814   */\n      0x416363657373436f6e74726f6c3a206163636f756e7420000000000000000000\n        /* \"#utility.yul\":30785:30786   */\n      0x00\n        /* \"#utility.yul\":30777:30783   */\n      dup3\n        /* \"#utility.yul\":30773:30787   */\n      add\n        /* \"#utility.yul\":30766:30815   */\n      mstore\n        /* \"#utility.yul\":30649:30822   */\n      pop\n      jump\t// out\n        /* \"#utility.yul\":30828:31230   */\n    tag_380:\n        /* \"#utility.yul\":30988:30991   */\n      0x00\n        /* \"#utility.yul\":31009:31094   */\n      tag_666\n        /* \"#utility.yul\":31091:31093   */\n      0x17\n        /* \"#utility.yul\":31086:31089   */\n      dup4\n        /* \"#utility.yul\":31009:31094   */\n      tag_378\n      jump\t// in\n    tag_666:\n        /* \"#utility.yul\":31002:31094   */\n      swap2\n      pop\n        /* \"#utility.yul\":31103:31196   */\n      tag_667\n        /* \"#utility.yul\":31192:31195   */\n      dup3\n        /* \"#utility.yul\":31103:31196   */\n      tag_379\n      jump\t// in\n    tag_667:\n        /* \"#utility.yul\":31221:31223   */\n      0x17\n        /* \"#utility.yul\":31216:31219   */\n      dup3\n        /* \"#utility.yul\":31212:31224   */\n      add\n        /* \"#utility.yul\":31205:31224   */\n      swap1\n      pop\n        /* \"#utility.yul\":30828:31230   */\n      swap2\n      swap1\n      pop\n      jump\t// out\n        /* \"#utility.yul\":31236:31335   */\n    tag_381:\n        /* \"#utility.yul\":31288:31294   */\n      0x00\n        /* \"#utility.yul\":31322:31327   */\n      dup2\n        /* \"#utility.yul\":31316:31328   */\n      mload\n        /* \"#utility.yul\":31306:31328   */\n      swap1\n      pop\n        /* \"#utility.yul\":31236:31335   */\n      swap2\n      swap1\n      pop\n      jump\t// out\n        /* \"#utility.yul\":31341:31480   */\n    tag_382:\n        /* \"#utility.yul\":31430:31436   */\n      dup3\n        /* \"#utility.yul\":31425:31428   */\n      dup2\n        /* \"#utility.yul\":31420:31423   */\n      dup4\n        /* \"#utility.yul\":31414:31437   */\n      mcopy\n        /* \"#utility.yul\":31471:31472   */\n      0x00\n        /* \"#utility.yul\":31462:31468   */\n      dup4\n        /* \"#utility.yul\":31457:31460   */\n      dup4\n        /* \"#utility.yul\":31453:31469   */\n      add\n        /* \"#utility.yul\":31446:31473   */\n      mstore\n        /* \"#utility.yul\":31341:31480   */\n      pop\n      pop\n      pop\n      jump\t// out\n        /* \"#utility.yul\":31486:31876   */\n    tag_383:\n        /* \"#utility.yul\":31592:31595   */\n      0x00\n        /* \"#utility.yul\":31620:31659   */\n      tag_671\n        /* \"#utility.yul\":31653:31658   */\n      dup3\n        /* \"#utility.yul\":31620:31659   */\n      tag_381\n      jump\t// in\n    tag_671:\n        /* \"#utility.yul\":31675:31764   */\n      tag_672\n        /* \"#utility.yul\":31757:31763   */\n      dup2\n        /* \"#utility.yul\":31752:31755   */\n      dup6\n        /* \"#utility.yul\":31675:31764   */\n      tag_378\n      jump\t// in\n    tag_672:\n        /* \"#utility.yul\":31668:31764   */\n      swap4\n      pop\n        /* \"#utility.yul\":31773:31838   */\n      tag_673\n        /* \"#utility.yul\":31831:31837   */\n      dup2\n        /* \"#utility.yul\":31826:31829   */\n      dup6\n        /* \"#utility.yul\":31819:31823   */\n      0x20\n        /* \"#utility.yul\":31812:31817   */\n      dup7\n        /* \"#utility.yul\":31808:31824   */\n      add\n        /* \"#utility.yul\":31773:31838   */\n      tag_382\n      jump\t// in\n    tag_673:\n        /* \"#utility.yul\":31863:31869   */\n      dup1\n        /* \"#utility.yul\":31858:31861   */\n      dup5\n        /* \"#utility.yul\":31854:31870   */\n      add\n        /* \"#utility.yul\":31847:31870   */\n      swap2\n      pop\n        /* \"#utility.yul\":31596:31876   */\n      pop\n        /* \"#utility.yul\":31486:31876   */\n      swap3\n      swap2\n      pop\n      pop\n      jump\t// out\n        /* \"#utility.yul\":31882:32049   */\n    tag_384:\n        /* \"#utility.yul\":32022:32041   */\n      0x206973206d697373696e6720726f6c6520000000000000000000000000000000\n        /* \"#utility.yul\":32018:32019   */\n      0x00\n        /* \"#utility.yul\":32010:32016   */\n      dup3\n        /* \"#utility.yul\":32006:32020   */\n      add\n        /* \"#utility.yul\":31999:32042   */\n      mstore\n        /* \"#utility.yul\":31882:32049   */\n      pop\n      jump\t// out\n        /* \"#utility.yul\":32055:32457   */\n    tag_385:\n        /* \"#utility.yul\":32215:32218   */\n      0x00\n        /* \"#utility.yul\":32236:32321   */\n      tag_676\n        /* \"#utility.yul\":32318:32320   */\n      0x11\n        /* \"#utility.yul\":32313:32316   */\n      dup4\n        /* \"#utility.yul\":32236:32321   */\n      tag_378\n      jump\t// in\n    tag_676:\n        /* \"#utility.yul\":32229:32321   */\n      swap2\n      pop\n        /* \"#utility.yul\":32330:32423   */\n      tag_677\n        /* \"#utility.yul\":32419:32422   */\n      dup3\n        /* \"#utility.yul\":32330:32423   */\n      tag_384\n      jump\t// in\n    tag_677:\n        /* \"#utility.yul\":32448:32450   */\n      0x11\n        /* \"#utility.yul\":32443:32446   */\n      dup3\n        /* \"#utility.yul\":32439:32451   */\n      add\n        /* \"#utility.yul\":32432:32451   */\n      swap1\n      pop\n        /* \"#utility.yul\":32055:32457   */\n      swap2\n      swap1\n      pop\n      jump\t// out\n        /* \"#utility.yul\":32463:33430   */\n    tag_276:\n        /* \"#utility.yul\":32845:32848   */\n      0x00\n        /* \"#utility.yul\":32867:33015   */\n      tag_679\n        /* \"#utility.yul\":33011:33014   */\n      dup3\n        /* \"#utility.yul\":32867:33015   */\n      tag_380\n      jump\t// in\n    tag_679:\n        /* \"#utility.yul\":32860:33015   */\n      swap2\n      pop\n        /* \"#utility.yul\":33032:33127   */\n      tag_680\n        /* \"#utility.yul\":33123:33126   */\n      dup3\n        /* \"#utility.yul\":33114:33120   */\n      dup6\n        /* \"#utility.yul\":33032:33127   */\n      tag_383\n      jump\t// in\n    tag_680:\n        /* \"#utility.yul\":33025:33127   */\n      swap2\n      pop\n        /* \"#utility.yul\":33144:33292   */\n      tag_681\n        /* \"#utility.yul\":33288:33291   */\n      dup3\n        /* \"#utility.yul\":33144:33292   */\n      tag_385\n      jump\t// in\n    tag_681:\n        /* \"#utility.yul\":33137:33292   */\n      swap2\n      pop\n        /* \"#utility.yul\":33309:33404   */\n      tag_682\n        /* \"#utility.yul\":33400:33403   */\n      dup3\n        /* \"#utility.yul\":33391:33397   */\n      dup5\n        /* \"#utility.yul\":33309:33404   */\n      tag_383\n      jump\t// in\n    tag_682:\n        /* \"#utility.yul\":33302:33404   */\n      swap2\n      pop\n        /* \"#utility.yul\":33421:33424   */\n      dup2\n        /* \"#utility.yul\":33414:33424   */\n      swap1\n      pop\n        /* \"#utility.yul\":32463:33430   */\n      swap4\n      swap3\n      pop\n      pop\n      pop\n      jump\t// out\n        /* \"#utility.yul\":33436:33538   */\n    tag_386:\n        /* \"#utility.yul\":33477:33483   */\n      0x00\n        /* \"#utility.yul\":33528:33530   */\n      0x1f\n        /* \"#utility.yul\":33524:33531   */\n      not\n        /* \"#utility.yul\":33519:33521   */\n      0x1f\n        /* \"#utility.yul\":33512:33517   */\n      dup4\n        /* \"#utility.yul\":33508:33522   */\n      add\n        /* \"#utility.yul\":33504:33532   */\n      and\n        /* \"#utility.yul\":33494:33532   */\n      swap1\n      pop\n        /* \"#utility.yul\":33436:33538   */\n      swap2\n      swap1\n      pop\n      jump\t// out\n        /* \"#utility.yul\":33544:33921   */\n    tag_387:\n        /* \"#utility.yul\":33632:33635   */\n      0x00\n        /* \"#utility.yul\":33660:33699   */\n      tag_685\n        /* \"#utility.yul\":33693:33698   */\n      dup3\n        /* \"#utility.yul\":33660:33699   */\n      tag_381\n      jump\t// in\n    tag_685:\n        /* \"#utility.yul\":33715:33786   */\n      tag_686\n        /* \"#utility.yul\":33779:33785   */\n      dup2\n        /* \"#utility.yul\":33774:33777   */\n      dup6\n        /* \"#utility.yul\":33715:33786   */\n      tag_342\n      jump\t// in\n    tag_686:\n        /* \"#utility.yul\":33708:33786   */\n      swap4\n      pop\n        /* \"#utility.yul\":33795:33860   */\n      tag_687\n        /* \"#utility.yul\":33853:33859   */\n      dup2\n        /* \"#utility.yul\":33848:33851   */\n      dup6\n        /* \"#utility.yul\":33841:33845   */\n      0x20\n        /* \"#utility.yul\":33834:33839   */\n      dup7\n        /* \"#utility.yul\":33830:33846   */\n      add\n        /* \"#utility.yul\":33795:33860   */\n      tag_382\n      jump\t// in\n    tag_687:\n        /* \"#utility.yul\":33885:33914   */\n      tag_688\n        /* \"#utility.yul\":33907:33913   */\n      dup2\n        /* \"#utility.yul\":33885:33914   */\n      tag_386\n      jump\t// in\n    tag_688:\n        /* \"#utility.yul\":33880:33883   */\n      dup5\n        /* \"#utility.yul\":33876:33915   */\n      add\n        /* \"#utility.yul\":33869:33915   */\n      swap2\n      pop\n        /* \"#utility.yul\":33636:33921   */\n      pop\n        /* \"#utility.yul\":33544:33921   */\n      swap3\n      swap2\n      pop\n      pop\n      jump\t// out\n        /* \"#utility.yul\":33927:34240   */\n    tag_278:\n        /* \"#utility.yul\":34040:34044   */\n      0x00\n        /* \"#utility.yul\":34078:34080   */\n      0x20\n        /* \"#utility.yul\":34067:34076   */\n      dup3\n        /* \"#utility.yul\":34063:34081   */\n      add\n        /* \"#utility.yul\":34055:34081   */\n      swap1\n      pop\n        /* \"#utility.yul\":34127:34136   */\n      dup2\n        /* \"#utility.yul\":34121:34125   */\n      dup2\n        /* \"#utility.yul\":34117:34137   */\n      sub\n        /* \"#utility.yul\":34113:34114   */\n      0x00\n        /* \"#utility.yul\":34102:34111   */\n      dup4\n        /* \"#utility.yul\":34098:34115   */\n      add\n        /* \"#utility.yul\":34091:34138   */\n      mstore\n        /* \"#utility.yul\":34155:34233   */\n      tag_690\n        /* \"#utility.yul\":34228:34232   */\n      dup2\n        /* \"#utility.yul\":34219:34225   */\n      dup5\n        /* \"#utility.yul\":34155:34233   */\n      tag_387\n      jump\t// in\n    tag_690:\n        /* \"#utility.yul\":34147:34233   */\n      swap1\n      pop\n        /* \"#utility.yul\":33927:34240   */\n      swap3\n      swap2\n      pop\n      pop\n      jump\t// out\n        /* \"#utility.yul\":34246:34426   */\n    tag_388:\n        /* \"#utility.yul\":34294:34371   */\n      0x4e487b7100000000000000000000000000000000000000000000000000000000\n        /* \"#utility.yul\":34291:34292   */\n      0x00\n        /* \"#utility.yul\":34284:34372   */\n      mstore\n        /* \"#utility.yul\":34391:34395   */\n      0x11\n        /* \"#utility.yul\":34388:34389   */\n      0x04\n        /* \"#utility.yul\":34381:34396   */\n      mstore\n        /* \"#utility.yul\":34415:34419   */\n      0x24\n        /* \"#utility.yul\":34412:34413   */\n      0x00\n        /* \"#utility.yul\":34405:34420   */\n      revert\n        /* \"#utility.yul\":34432:34842   */\n    tag_283:\n        /* \"#utility.yul\":34472:34479   */\n      0x00\n        /* \"#utility.yul\":34495:34515   */\n      tag_693\n        /* \"#utility.yul\":34513:34514   */\n      dup3\n        /* \"#utility.yul\":34495:34515   */\n      tag_322\n      jump\t// in\n    tag_693:\n        /* \"#utility.yul\":34490:34515   */\n      swap2\n      pop\n        /* \"#utility.yul\":34529:34549   */\n      tag_694\n        /* \"#utility.yul\":34547:34548   */\n      dup4\n        /* \"#utility.yul\":34529:34549   */\n      tag_322\n      jump\t// in\n    tag_694:\n        /* \"#utility.yul\":34524:34549   */\n      swap3\n      pop\n        /* \"#utility.yul\":34584:34585   */\n      dup3\n        /* \"#utility.yul\":34581:34582   */\n      dup3\n        /* \"#utility.yul\":34577:34586   */\n      mul\n        /* \"#utility.yul\":34606:34636   */\n      tag_695\n        /* \"#utility.yul\":34624:34635   */\n      dup2\n        /* \"#utility.yul\":34606:34636   */\n      tag_322\n      jump\t// in\n    tag_695:\n        /* \"#utility.yul\":34595:34636   */\n      swap2\n      pop\n        /* \"#utility.yul\":34785:34786   */\n      dup3\n        /* \"#utility.yul\":34776:34783   */\n      dup3\n        /* \"#utility.yul\":34772:34787   */\n      div\n        /* \"#utility.yul\":34769:34770   */\n      dup5\n        /* \"#utility.yul\":34766:34788   */\n      eq\n        /* \"#utility.yul\":34746:34747   */\n      dup4\n        /* \"#utility.yul\":34739:34748   */\n      iszero\n        /* \"#utility.yul\":34719:34802   */\n      or\n        /* \"#utility.yul\":34696:34835   */\n      tag_696\n      jumpi\n        /* \"#utility.yul\":34815:34833   */\n      tag_697\n      tag_388\n      jump\t// in\n    tag_697:\n        /* \"#utility.yul\":34696:34835   */\n    tag_696:\n        /* \"#utility.yul\":34480:34842   */\n      pop\n        /* \"#utility.yul\":34432:34842   */\n      swap3\n      swap2\n      pop\n      pop\n      jump\t// out\n        /* \"#utility.yul\":34848:35039   */\n    tag_285:\n        /* \"#utility.yul\":34888:34891   */\n      0x00\n        /* \"#utility.yul\":34907:34927   */\n      tag_699\n        /* \"#utility.yul\":34925:34926   */\n      dup3\n        /* \"#utility.yul\":34907:34927   */\n      tag_322\n      jump\t// in\n    tag_699:\n        /* \"#utility.yul\":34902:34927   */\n      swap2\n      pop\n        /* \"#utility.yul\":34941:34961   */\n      tag_700\n        /* \"#utility.yul\":34959:34960   */\n      dup4\n        /* \"#utility.yul\":34941:34961   */\n      tag_322\n      jump\t// in\n    tag_700:\n        /* \"#utility.yul\":34936:34961   */\n      swap3\n      pop\n        /* \"#utility.yul\":34984:34985   */\n      dup3\n        /* \"#utility.yul\":34981:34982   */\n      dup3\n        /* \"#utility.yul\":34977:34986   */\n      add\n        /* \"#utility.yul\":34970:34986   */\n      swap1\n      pop\n        /* \"#utility.yul\":35005:35008   */\n      dup1\n        /* \"#utility.yul\":35002:35003   */\n      dup3\n        /* \"#utility.yul\":34999:35009   */\n      gt\n        /* \"#utility.yul\":34996:35032   */\n      iszero\n      tag_701\n      jumpi\n        /* \"#utility.yul\":35012:35030   */\n      tag_702\n      tag_388\n      jump\t// in\n    tag_702:\n        /* \"#utility.yul\":34996:35032   */\n    tag_701:\n        /* \"#utility.yul\":34848:35039   */\n      swap3\n      swap2\n      pop\n      pop\n      jump\t// out\n        /* \"#utility.yul\":35045:35225   */\n    tag_288:\n        /* \"#utility.yul\":35093:35170   */\n      0x4e487b7100000000000000000000000000000000000000000000000000000000\n        /* \"#utility.yul\":35090:35091   */\n      0x00\n        /* \"#utility.yul\":35083:35171   */\n      mstore\n        /* \"#utility.yul\":35190:35194   */\n      0x41\n        /* \"#utility.yul\":35187:35188   */\n      0x04\n        /* \"#utility.yul\":35180:35195   */\n      mstore\n        /* \"#utility.yul\":35214:35218   */\n      0x24\n        /* \"#utility.yul\":35211:35212   */\n      0x00\n        /* \"#utility.yul\":35204:35219   */\n      revert\n        /* \"#utility.yul\":35231:35402   */\n    tag_304:\n        /* \"#utility.yul\":35270:35273   */\n      0x00\n        /* \"#utility.yul\":35293:35317   */\n      tag_705\n        /* \"#utility.yul\":35311:35316   */\n      dup3\n        /* \"#utility.yul\":35293:35317   */\n      tag_322\n      jump\t// in\n    tag_705:\n        /* \"#utility.yul\":35284:35317   */\n      swap2\n      pop\n        /* \"#utility.yul\":35339:35343   */\n      0x00\n        /* \"#utility.yul\":35332:35337   */\n      dup3\n        /* \"#utility.yul\":35329:35344   */\n      sub\n        /* \"#utility.yul\":35326:35367   */\n      tag_706\n      jumpi\n        /* \"#utility.yul\":35347:35365   */\n      tag_707\n      tag_388\n      jump\t// in\n    tag_707:\n        /* \"#utility.yul\":35326:35367   */\n    tag_706:\n        /* \"#utility.yul\":35394:35395   */\n      0x01\n        /* \"#utility.yul\":35387:35392   */\n      dup3\n        /* \"#utility.yul\":35383:35396   */\n      sub\n        /* \"#utility.yul\":35376:35396   */\n      swap1\n      pop\n        /* \"#utility.yul\":35231:35402   */\n      swap2\n      swap1\n      pop\n      jump\t// out\n        /* \"#utility.yul\":35408:35590   */\n    tag_389:\n        /* \"#utility.yul\":35548:35582   */\n      0x537472696e67733a20686578206c656e67746820696e73756666696369656e74\n        /* \"#utility.yul\":35544:35545   */\n      0x00\n        /* \"#utility.yul\":35536:35542   */\n      dup3\n        /* \"#utility.yul\":35532:35546   */\n      add\n        /* \"#utility.yul\":35525:35583   */\n      mstore\n        /* \"#utility.yul\":35408:35590   */\n      pop\n      jump\t// out\n        /* \"#utility.yul\":35596:35962   */\n    tag_390:\n        /* \"#utility.yul\":35738:35741   */\n      0x00\n        /* \"#utility.yul\":35759:35826   */\n      tag_710\n        /* \"#utility.yul\":35823:35825   */\n      0x20\n        /* \"#utility.yul\":35818:35821   */\n      dup4\n        /* \"#utility.yul\":35759:35826   */\n      tag_342\n      jump\t// in\n    tag_710:\n        /* \"#utility.yul\":35752:35826   */\n      swap2\n      pop\n        /* \"#utility.yul\":35835:35928   */\n      tag_711\n        /* \"#utility.yul\":35924:35927   */\n      dup3\n        /* \"#utility.yul\":35835:35928   */\n      tag_389\n      jump\t// in\n    tag_711:\n        /* \"#utility.yul\":35953:35955   */\n      0x20\n        /* \"#utility.yul\":35948:35951   */\n      dup3\n        /* \"#utility.yul\":35944:35956   */\n      add\n        /* \"#utility.yul\":35937:35956   */\n      swap1\n      pop\n        /* \"#utility.yul\":35596:35962   */\n      swap2\n      swap1\n      pop\n      jump\t// out\n        /* \"#utility.yul\":35968:36387   */\n    tag_307:\n        /* \"#utility.yul\":36134:36138   */\n      0x00\n        /* \"#utility.yul\":36172:36174   */\n      0x20\n        /* \"#utility.yul\":36161:36170   */\n      dup3\n        /* \"#utility.yul\":36157:36175   */\n      add\n        /* \"#utility.yul\":36149:36175   */\n      swap1\n      pop\n        /* \"#utility.yul\":36221:36230   */\n      dup2\n        /* \"#utility.yul\":36215:36219   */\n      dup2\n        /* \"#utility.yul\":36211:36231   */\n      sub\n        /* \"#utility.yul\":36207:36208   */\n      0x00\n        /* \"#utility.yul\":36196:36205   */\n      dup4\n        /* \"#utility.yul\":36192:36209   */\n      add\n        /* \"#utility.yul\":36185:36232   */\n      mstore\n        /* \"#utility.yul\":36249:36380   */\n      tag_713\n        /* \"#utility.yul\":36375:36379   */\n      dup2\n        /* \"#utility.yul\":36249:36380   */\n      tag_390\n      jump\t// in\n    tag_713:\n        /* \"#utility.yul\":36241:36380   */\n      swap1\n      pop\n        /* \"#utility.yul\":35968:36387   */\n      swap2\n      swap1\n      pop\n      jump\t// out\n\n    auxdata: 0xa2646970667358221220884937d80ec3afa80f176a7ac4af6445eaa14e0c6dd932da3d8475917f4604fd64736f6c634300081a0033\n}\n",
				"bytecode": {
					"linkReferences": {},
					"object": "608060405234801561000f575f80fd5b50604051612ce1380380612ce1833981810160405281019061003191906102bc565b8160015f6101000a81548173ffffffffffffffffffffffffffffffffffffffff021916908373ffffffffffffffffffffffffffffffffffffffff1602179055508060025f6101000a81548173ffffffffffffffffffffffffffffffffffffffff021916908373ffffffffffffffffffffffffffffffffffffffff1602179055506100c35f801b336100fa60201b60201c565b6100f37fa49807205ce4d355092ef5a8a18f56e8913cf4a201fbe287825b095693c21775336100fa60201b60201c565b50506102fa565b61010a828261010e60201b60201c565b5050565b61011e82826101f460201b60201c565b6101f05760015f808481526020019081526020015f205f015f8373ffffffffffffffffffffffffffffffffffffffff1673ffffffffffffffffffffffffffffffffffffffff1681526020019081526020015f205f6101000a81548160ff02191690831515021790555061019561025760201b60201c565b73ffffffffffffffffffffffffffffffffffffffff168173ffffffffffffffffffffffffffffffffffffffff16837f2f8788117e7eff1d82e926ec794901d17c78024a50270940304540a733656f0d60405160405180910390a45b5050565b5f805f8481526020019081526020015f205f015f8373ffffffffffffffffffffffffffffffffffffffff1673ffffffffffffffffffffffffffffffffffffffff1681526020019081526020015f205f9054906101000a900460ff16905092915050565b5f33905090565b5f80fd5b5f73ffffffffffffffffffffffffffffffffffffffff82169050919050565b5f61028b82610262565b9050919050565b61029b81610281565b81146102a5575f80fd5b50565b5f815190506102b681610292565b92915050565b5f80604083850312156102d2576102d161025e565b5b5f6102df858286016102a8565b92505060206102f0858286016102a8565b9150509250929050565b6129da806103075f395ff3fe608060405234801561000f575f80fd5b506004361061014b575f3560e01c80639a19c7b0116100c1578063c634b78e1161007a578063c634b78e146103d5578063ca1c996f146103f1578063cbc7854e1461040d578063d547741f14610429578063dd0c808214610445578063dd7d2b9f146104635761014b565b80639a19c7b0146102ef578063a217fddf1461030b578063ae99aa3c14610329578063aea0873414610359578063b5b0e48a14610375578063bb10ab0f146103a55761014b565b8063355b9d3f11610113578063355b9d3f1461021957806336568abe1461024d578063406a378a1461026957806375b238fc146102855780638525ea16146102a357806391d14854146102bf5761014b565b806301ffc9a71461014f5780631b72fa3a1461017f5780631fd3c85b1461019d578063248a9ca3146101cd5780632f2ff15d146101fd575b5f80fd5b610169600480360381019061016491906118f6565b61047f565b604051610176919061193b565b60405180910390f35b6101876104f8565b60405161019491906119ce565b60405180910390f35b6101b760048036038101906101b29190611a1a565b61051d565b6040516101c49190611a54565b60405180910390f35b6101e760048036038101906101e29190611aa0565b61053d565b6040516101f49190611ada565b60405180910390f35b61021760048036038101906102129190611b2e565b610559565b005b610233600480360381019061022e9190611b6c565b61057a565b604051610244959493929190611bbc565b60405180910390f35b61026760048036038101906102629190611b2e565b6105ce565b005b610283600480360381019061027e9190611cc3565b610651565b005b61028d61083d565b60405161029a9190611ada565b60405180910390f35b6102bd60048036038101906102b89190611d41565b610861565b005b6102d960048036038101906102d49190611b2e565b6108cc565b6040516102e6919061193b565b60405180910390f35b61030960048036038101906103049190611da5565b61092f565b005b610313610969565b6040516103209190611ada565b60405180910390f35b610343600480360381019061033e9190611a1a565b61096f565b6040516103509190611df9565b60405180910390f35b610373600480360381019061036e9190611e12565b6109f8565b005b61038f600480360381019061038a9190611b6c565b610b90565b60405161039c9190611ed7565b60405180910390f35b6103bf60048036038101906103ba9190611a1a565b610c9a565b6040516103cc9190611a54565b60405180910390f35b6103ef60048036038101906103ea9190611da5565b610cb4565b005b61040b60048036038101906104069190611d41565b610cee565b005b61042760048036038101906104229190611ef0565b6110ed565b005b610443600480360381019061043e9190611b2e565b61119c565b005b61044d6111bd565b60405161045a91906119ce565b60405180910390f35b61047d60048036038101906104789190611d41565b6111e2565b005b5f7f7965db0b000000000000000000000000000000000000000000000000000000007bffffffffffffffffffffffffffffffffffffffffffffffffffffffff1916827bffffffffffffffffffffffffffffffffffffffffffffffffffffffff191614806104f157506104f08261133d565b5b9050919050565b60025f9054906101000a900473ffffffffffffffffffffffffffffffffffffffff1681565b6004818154811061052c575f80fd5b905f5260205f20015f915090505481565b5f805f8381526020019081526020015f20600101549050919050565b6105628261053d565b61056b816113a6565b61057583836113ba565b505050565b6005602052825f5260405f20602052815f5260405f20602052805f5260405f205f925092505050805f015490806001015490806002015490806003015490806004015f9054906101000a900460ff16905085565b6105d6611494565b73ffffffffffffffffffffffffffffffffffffffff168173ffffffffffffffffffffffffffffffffffffffff1614610643576040517f08c379a000000000000000000000000000000000000000000000000000000000815260040161063a90611fae565b60405180910390fd5b61064d828261149b565b5050565b7fa49807205ce4d355092ef5a8a18f56e8913cf4a201fbe287825b095693c2177561067b816113a6565b8282905085859050146106c3576040517f08c379a00000000000000000000000000000000000000000000000000000000081526004016106ba9061203c565b60405180910390fd5b5f5b858590508110156107f85760025f9054906101000a900473ffffffffffffffffffffffffffffffffffffffff1673ffffffffffffffffffffffffffffffffffffffff1663a9059cbb8787848181106107205761071f61205a565b5b90506020020160208101906107359190611da5565b8686858181106107485761074761205a565b5b905060200201356040518363ffffffff1660e01b815260040161076c929190612096565b6020604051808303815f875af1158015610788573d5f803e3d5ffd5b505050506040513d601f19601f820116820180604052508101906107ac91906120e7565b6107eb576040517f08c379a00000000000000000000000000000000000000000000000000000000081526004016107e29061215c565b60405180910390fd5b80806001019150506106c5565b507ffa3b7284ecb3a03e8f238b69b61f5645294c15019ea509bd4aaee604d60fdc348585858560405161082e94939291906122ae565b60405180910390a15050505050565b7fa49807205ce4d355092ef5a8a18f56e8913cf4a201fbe287825b095693c2177581565b7fa49807205ce4d355092ef5a8a18f56e8913cf4a201fbe287825b095693c2177561088b816113a6565b8284867fa8f9cf476e5bcc627f5ed22b5ba54bd7fff333cd851bc754d924fe3eb28752fb856040516108bd9190611a54565b60405180910390a45050505050565b5f805f8481526020019081526020015f205f015f8373ffffffffffffffffffffffffffffffffffffffff1673ffffffffffffffffffffffffffffffffffffffff1681526020019081526020015f205f9054906101000a900460ff16905092915050565b5f801b61093b816113a6565b6109657fa49807205ce4d355092ef5a8a18f56e8913cf4a201fbe287825b095693c217758361119c565b5050565b5f801b81565b61097761185b565b5f60035f8481526020019081526020015f205f0154116109cc576040517f08c379a00000000000000000000000000000000000000000000000000000000081526004016109c390612331565b60405180910390fd5b60035f8381526020019081526020015f206040518060200160405290815f820154815250509050919050565b7fa49807205ce4d355092ef5a8a18f56e8913cf4a201fbe287825b095693c21775610a22816113a6565b5f60035f8681526020019081526020015f205f015414610a77576040517f08c379a0000000000000000000000000000000000000000000000000000000008152600401610a6e90612399565b60405180910390fd5b60405180602001604052808581525060035f8681526020019081526020015f205f820151815f0155905050600484908060018154018082558091505060019003905f5260205f20015f909190919091505560015f9054906101000a900473ffffffffffffffffffffffffffffffffffffffff1673ffffffffffffffffffffffffffffffffffffffff166340c10f1984846040518363ffffffff1660e01b8152600401610b24929190612096565b5f604051808303815f87803b158015610b3b575f80fd5b505af1158015610b4d573d5f803e3d5ffd5b505050507f5a92c2530f207992057b9c3e544108ffce3beda4a63719f316967c49bf6159d28483604051610b829291906123b7565b60405180910390a150505050565b610b9861186d565b60055f8581526020019081526020015f205f8481526020019081526020015f205f8381526020019081526020015f206004015f9054906101000a900460ff16610c16576040517f08c379a0000000000000000000000000000000000000000000000000000000008152600401610c0d90612428565b60405180910390fd5b60055f8581526020019081526020015f205f8481526020019081526020015f205f8381526020019081526020015f206040518060a00160405290815f8201548152602001600182015481526020016002820154815260200160038201548152602001600482015f9054906101000a900460ff16151515158152505090509392505050565b6003602052805f5260405f205f91509050805f0154905081565b5f801b610cc0816113a6565b610cea7fa49807205ce4d355092ef5a8a18f56e8913cf4a201fbe287825b095693c2177583610559565b5050565b60055f8581526020019081526020015f205f8481526020019081526020015f205f8381526020019081526020015f206004015f9054906101000a900460ff1615610d6d576040517f08c379a0000000000000000000000000000000000000000000000000000000008152600401610d64906124b6565b60405180910390fd5b5f60015f9054906101000a900473ffffffffffffffffffffffffffffffffffffffff1673ffffffffffffffffffffffffffffffffffffffff1663dd62ed3e33306040518363ffffffff1660e01b8152600401610dca9291906124d4565b602060405180830381865afa158015610de5573d5f803e3d5ffd5b505050506040513d601f19601f82011682018060405250810190610e09919061250f565b905081811015610e4e576040517f08c379a0000000000000000000000000000000000000000000000000000000008152600401610e4590612584565b60405180910390fd5b5f60015f9054906101000a900473ffffffffffffffffffffffffffffffffffffffff1673ffffffffffffffffffffffffffffffffffffffff166370a08231336040518263ffffffff1660e01b8152600401610ea991906125a2565b602060405180830381865afa158015610ec4573d5f803e3d5ffd5b505050506040513d601f19601f82011682018060405250810190610ee8919061250f565b905082811015610f2d576040517f08c379a0000000000000000000000000000000000000000000000000000000008152600401610f2490612605565b60405180910390fd5b60015f9054906101000a900473ffffffffffffffffffffffffffffffffffffffff1673ffffffffffffffffffffffffffffffffffffffff166323b872dd3330866040518463ffffffff1660e01b8152600401610f8b93929190612623565b6020604051808303815f875af1158015610fa7573d5f803e3d5ffd5b505050506040513d601f19601f82011682018060405250810190610fcb91906120e7565b61100a576040517f08c379a00000000000000000000000000000000000000000000000000000000081526004016110019061215c565b60405180910390fd5b6040518060a001604052808681526020018581526020018481526020015f81526020016001151581525060055f8881526020019081526020015f205f8781526020019081526020015f205f8681526020019081526020015f205f820151815f01556020820151816001015560408201518160020155606082015181600301556080820151816004015f6101000a81548160ff0219169083151502179055509050508385877f7bbca5efeebbed029b1684066d1a6e0ade8efe8c578ab0890d4b223e6ec5e50e866040516110dd9190611a54565b60405180910390a4505050505050565b7fa49807205ce4d355092ef5a8a18f56e8913cf4a201fbe287825b095693c21775611117816113a6565b8260015f6101000a81548173ffffffffffffffffffffffffffffffffffffffff021916908373ffffffffffffffffffffffffffffffffffffffff1602179055508160025f6101000a81548173ffffffffffffffffffffffffffffffffffffffff021916908373ffffffffffffffffffffffffffffffffffffffff160217905550505050565b6111a58261053d565b6111ae816113a6565b6111b8838361149b565b505050565b60015f9054906101000a900473ffffffffffffffffffffffffffffffffffffffff1681565b7fa49807205ce4d355092ef5a8a18f56e8913cf4a201fbe287825b095693c2177561120c816113a6565b60055f8681526020019081526020015f205f8581526020019081526020015f205f8481526020019081526020015f206004015f9054906101000a900460ff1661128a576040517f08c379a0000000000000000000000000000000000000000000000000000000008152600401611281906126a2565b60405180910390fd5b60055f8681526020019081526020015f205f8581526020019081526020015f205f8481526020019081526020015f20600301548211156112fc578160055f8781526020019081526020015f205f8681526020019081526020015f205f8581526020019081526020015f20600301819055505b8284867f2bbc9ad1871f4b99168aa3febe254b9069558ff96ed7746d1677869afa38243f8560405161132e9190611a54565b60405180910390a45050505050565b5f7f01ffc9a7000000000000000000000000000000000000000000000000000000007bffffffffffffffffffffffffffffffffffffffffffffffffffffffff1916827bffffffffffffffffffffffffffffffffffffffffffffffffffffffff1916149050919050565b6113b7816113b2611494565b611575565b50565b6113c482826108cc565b6114905760015f808481526020019081526020015f205f015f8373ffffffffffffffffffffffffffffffffffffffff1673ffffffffffffffffffffffffffffffffffffffff1681526020019081526020015f205f6101000a81548160ff021916908315150217905550611435611494565b73ffffffffffffffffffffffffffffffffffffffff168173ffffffffffffffffffffffffffffffffffffffff16837f2f8788117e7eff1d82e926ec794901d17c78024a50270940304540a733656f0d60405160405180910390a45b5050565b5f33905090565b6114a582826108cc565b15611571575f805f8481526020019081526020015f205f015f8373ffffffffffffffffffffffffffffffffffffffff1673ffffffffffffffffffffffffffffffffffffffff1681526020019081526020015f205f6101000a81548160ff021916908315150217905550611516611494565b73ffffffffffffffffffffffffffffffffffffffff168173ffffffffffffffffffffffffffffffffffffffff16837ff6391f5c32d9c69d2a47ea670b442974b53935d1edc7fd64eb21e047a839171b60405160405180910390a45b5050565b61157f82826108cc565b6115f55761158c816115f9565b611599835f1c6020611626565b6040516020016115aa9291906127a6565b6040516020818303038152906040526040517f08c379a00000000000000000000000000000000000000000000000000000000081526004016115ec9190612827565b60405180910390fd5b5050565b606061161f8273ffffffffffffffffffffffffffffffffffffffff16601460ff16611626565b9050919050565b60605f60028360026116389190612874565b61164291906128b5565b67ffffffffffffffff81111561165b5761165a6128e8565b5b6040519080825280601f01601f19166020018201604052801561168d5781602001600182028036833780820191505090505b5090507f3000000000000000000000000000000000000000000000000000000000000000815f815181106116c4576116c361205a565b5b60200101907effffffffffffffffffffffffffffffffffffffffffffffffffffffffffffff191690815f1a9053507f7800000000000000000000000000000000000000000000000000000000000000816001815181106117275761172661205a565b5b60200101907effffffffffffffffffffffffffffffffffffffffffffffffffffffffffffff191690815f1a9053505f60018460026117659190612874565b61176f91906128b5565b90505b600181111561180e577f3031323334353637383961626364656600000000000000000000000000000000600f8616601081106117b1576117b061205a565b5b1a60f81b8282815181106117c8576117c761205a565b5b60200101907effffffffffffffffffffffffffffffffffffffffffffffffffffffffffffff191690815f1a905350600485901c94508061180790612915565b9050611772565b505f8414611851576040517f08c379a000000000000000000000000000000000000000000000000000000000815260040161184890612986565b60405180910390fd5b8091505092915050565b60405180602001604052805f81525090565b6040518060a001604052805f81526020015f81526020015f81526020015f81526020015f151581525090565b5f80fd5b5f80fd5b5f7fffffffff0000000000000000000000000000000000000000000000000000000082169050919050565b6118d5816118a1565b81146118df575f80fd5b50565b5f813590506118f0816118cc565b92915050565b5f6020828403121561190b5761190a611899565b5b5f611918848285016118e2565b91505092915050565b5f8115159050919050565b61193581611921565b82525050565b5f60208201905061194e5f83018461192c565b92915050565b5f73ffffffffffffffffffffffffffffffffffffffff82169050919050565b5f819050919050565b5f61199661199161198c84611954565b611973565b611954565b9050919050565b5f6119a78261197c565b9050919050565b5f6119b88261199d565b9050919050565b6119c8816119ae565b82525050565b5f6020820190506119e15f8301846119bf565b92915050565b5f819050919050565b6119f9816119e7565b8114611a03575f80fd5b50565b5f81359050611a14816119f0565b92915050565b5f60208284031215611a2f57611a2e611899565b5b5f611a3c84828501611a06565b91505092915050565b611a4e816119e7565b82525050565b5f602082019050611a675f830184611a45565b92915050565b5f819050919050565b611a7f81611a6d565b8114611a89575f80fd5b50565b5f81359050611a9a81611a76565b92915050565b5f60208284031215611ab557611ab4611899565b5b5f611ac284828501611a8c565b91505092915050565b611ad481611a6d565b82525050565b5f602082019050611aed5f830184611acb565b92915050565b5f611afd82611954565b9050919050565b611b0d81611af3565b8114611b17575f80fd5b50565b5f81359050611b2881611b04565b92915050565b5f8060408385031215611b4457611b43611899565b5b5f611b5185828601611a8c565b9250506020611b6285828601611b1a565b9150509250929050565b5f805f60608486031215611b8357611b82611899565b5b5f611b9086828701611a06565b9350506020611ba186828701611a06565b9250506040611bb286828701611a06565b9150509250925092565b5f60a082019050611bcf5f830188611a45565b611bdc6020830187611a45565b611be96040830186611a45565b611bf66060830185611a45565b611c03608083018461192c565b9695505050505050565b5f80fd5b5f80fd5b5f80fd5b5f8083601f840112611c2e57611c2d611c0d565b5b8235905067ffffffffffffffff811115611c4b57611c4a611c11565b5b602083019150836020820283011115611c6757611c66611c15565b5b9250929050565b5f8083601f840112611c8357611c82611c0d565b5b8235905067ffffffffffffffff811115611ca057611c9f611c11565b5b602083019150836020820283011115611cbc57611cbb611c15565b5b9250929050565b5f805f8060408587031215611cdb57611cda611899565b5b5f85013567ffffffffffffffff811115611cf857611cf761189d565b5b611d0487828801611c19565b9450945050602085013567ffffffffffffffff811115611d2757611d2661189d565b5b611d3387828801611c6e565b925092505092959194509250565b5f805f8060808587031215611d5957611d58611899565b5b5f611d6687828801611a06565b9450506020611d7787828801611a06565b9350506040611d8887828801611a06565b9250506060611d9987828801611a06565b91505092959194509250565b5f60208284031215611dba57611db9611899565b5b5f611dc784828501611b1a565b91505092915050565b611dd9816119e7565b82525050565b602082015f820151611df35f850182611dd0565b50505050565b5f602082019050611e0c5f830184611ddf565b92915050565b5f805f60608486031215611e2957611e28611899565b5b5f611e3686828701611a06565b9350506020611e4786828701611b1a565b9250506040611e5886828701611a06565b9150509250925092565b611e6b81611921565b82525050565b60a082015f820151611e855f850182611dd0565b506020820151611e986020850182611dd0565b506040820151611eab6040850182611dd0565b506060820151611ebe6060850182611dd0565b506080820151611ed16080850182611e62565b50505050565b5f60a082019050611eea5f830184611e71565b92915050565b5f8060408385031215611f0657611f05611899565b5b5f611f1385828601611b1a565b9250506020611f2485828601611b1a565b9150509250929050565b5f82825260208201905092915050565b7f416363657373436f6e74726f6c3a2063616e206f6e6c792072656e6f756e63655f8201527f20726f6c657320666f722073656c660000000000000000000000000000000000602082015250565b5f611f98602f83611f2e565b9150611fa382611f3e565b604082019050919050565b5f6020820190508181035f830152611fc581611f8c565b9050919050565b7f526563697069656e747320616e6420746f6b656e20616d6f756e7473206c656e5f8201527f677468206d69736d617463680000000000000000000000000000000000000000602082015250565b5f612026602c83611f2e565b915061203182611fcc565b604082019050919050565b5f6020820190508181035f8301526120538161201a565b9050919050565b7f4e487b71000000000000000000000000000000000000000000000000000000005f52603260045260245ffd5b61209081611af3565b82525050565b5f6040820190506120a95f830185612087565b6120b66020830184611a45565b9392505050565b6120c681611921565b81146120d0575f80fd5b50565b5f815190506120e1816120bd565b92915050565b5f602082840312156120fc576120fb611899565b5b5f612109848285016120d3565b91505092915050565b7f546f6b656e207472616e73666572206661696c656400000000000000000000005f82015250565b5f612146601583611f2e565b915061215182612112565b602082019050919050565b5f6020820190508181035f8301526121738161213a565b9050919050565b5f82825260208201905092915050565b5f819050919050565b61219c81611af3565b82525050565b5f6121ad8383612193565b60208301905092915050565b5f6121c76020840184611b1a565b905092915050565b5f602082019050919050565b5f6121e6838561217a565b93506121f18261218a565b805f5b858110156122295761220682846121b9565b61221088826121a2565b975061221b836121cf565b9250506001810190506121f4565b5085925050509392505050565b5f82825260208201905092915050565b5f80fd5b82818337505050565b5f61225e8385612236565b93507f07ffffffffffffffffffffffffffffffffffffffffffffffffffffffffffffff83111561229157612290612246565b5b6020830292506122a283858461224a565b82840190509392505050565b5f6040820190508181035f8301526122c78186886121db565b905081810360208301526122dc818486612253565b905095945050505050565b7f4d656d62657220646f6573206e6f7420657869737400000000000000000000005f82015250565b5f61231b601583611f2e565b9150612326826122e7565b602082019050919050565b5f6020820190508181035f8301526123488161230f565b9050919050565b7f4d656d62657220616c72656164792072656769737465726564000000000000005f82015250565b5f612383601983611f2e565b915061238e8261234f565b602082019050919050565b5f6020820190508181035f8301526123b081612377565b9050919050565b5f6040820190506123ca5f830185611a45565b6123d76020830184611a45565b9392505050565b7f4368616c6c656e67652073636f726520646f6573206e6f7420657869737400005f82015250565b5f612412601e83611f2e565b915061241d826123de565b602082019050919050565b5f6020820190508181035f83015261243f81612406565b9050919050565b7f4368616c6c656e676520616c72656164792065786973747320666f72207468695f8201527f73206d656d6265722c20646174652c20616e642067616d650000000000000000602082015250565b5f6124a0603883611f2e565b91506124ab82612446565b604082019050919050565b5f6020820190508181035f8301526124cd81612494565b9050919050565b5f6040820190506124e75f830185612087565b6124f46020830184612087565b9392505050565b5f81519050612509816119f0565b92915050565b5f6020828403121561252457612523611899565b5b5f612531848285016124fb565b91505092915050565b7f496e73756666696369656e7420746f6b656e20616c6c6f77616e6365000000005f82015250565b5f61256e601c83611f2e565b91506125798261253a565b602082019050919050565b5f6020820190508181035f83015261259b81612562565b9050919050565b5f6020820190506125b55f830184612087565b92915050565b7f496e73756666696369656e7420746f6b656e2062616c616e63650000000000005f82015250565b5f6125ef601a83611f2e565b91506125fa826125bb565b602082019050919050565b5f6020820190508181035f83015261261c816125e3565b9050919050565b5f6060820190506126365f830186612087565b6126436020830185612087565b6126506040830184611a45565b949350505050565b7f4368616c6c656e676520646f6573206e6f7420657869737400000000000000005f82015250565b5f61268c601883611f2e565b915061269782612658565b602082019050919050565b5f6020820190508181035f8301526126b981612680565b9050919050565b5f81905092915050565b7f416363657373436f6e74726f6c3a206163636f756e74200000000000000000005f82015250565b5f6126fe6017836126c0565b9150612709826126ca565b601782019050919050565b5f81519050919050565b8281835e5f83830152505050565b5f61273682612714565b61274081856126c0565b935061275081856020860161271e565b80840191505092915050565b7f206973206d697373696e6720726f6c65200000000000000000000000000000005f82015250565b5f6127906011836126c0565b915061279b8261275c565b601182019050919050565b5f6127b0826126f2565b91506127bc828561272c565b91506127c782612784565b91506127d3828461272c565b91508190509392505050565b5f601f19601f8301169050919050565b5f6127f982612714565b6128038185611f2e565b935061281381856020860161271e565b61281c816127df565b840191505092915050565b5f6020820190508181035f83015261283f81846127ef565b905092915050565b7f4e487b71000000000000000000000000000000000000000000000000000000005f52601160045260245ffd5b5f61287e826119e7565b9150612889836119e7565b9250828202612897816119e7565b915082820484148315176128ae576128ad612847565b5b5092915050565b5f6128bf826119e7565b91506128ca836119e7565b92508282019050808211156128e2576128e1612847565b5b92915050565b7f4e487b71000000000000000000000000000000000000000000000000000000005f52604160045260245ffd5b5f61291f826119e7565b91505f820361293157612930612847565b5b600182039050919050565b7f537472696e67733a20686578206c656e67746820696e73756666696369656e745f82015250565b5f612970602083611f2e565b915061297b8261293c565b602082019050919050565b5f6020820190508181035f83015261299d81612964565b905091905056fea2646970667358221220884937d80ec3afa80f176a7ac4af6445eaa14e0c6dd932da3d8475917f4604fd64736f6c634300081a0033",
					"opcodes": "PUSH1 0x80 PUSH1 0x40 MSTORE CALLVALUE DUP1 ISZERO PUSH2 0xF JUMPI PUSH0 DUP1 REVERT JUMPDEST POP PUSH1 0x40 MLOAD PUSH2 0x2CE1 CODESIZE SUB DUP1 PUSH2 0x2CE1 DUP4 CODECOPY DUP2 DUP2 ADD PUSH1 0x40 MSTORE DUP2 ADD SWAP1 PUSH2 0x31 SWAP2 SWAP1 PUSH2 0x2BC JUMP JUMPDEST DUP2 PUSH1 0x1 PUSH0 PUSH2 0x100 EXP DUP2 SLOAD DUP2 PUSH20 0xFFFFFFFFFFFFFFFFFFFFFFFFFFFFFFFFFFFFFFFF MUL NOT AND SWAP1 DUP4 PUSH20 0xFFFFFFFFFFFFFFFFFFFFFFFFFFFFFFFFFFFFFFFF AND MUL OR SWAP1 SSTORE POP DUP1 PUSH1 0x2 PUSH0 PUSH2 0x100 EXP DUP2 SLOAD DUP2 PUSH20 0xFFFFFFFFFFFFFFFFFFFFFFFFFFFFFFFFFFFFFFFF MUL NOT AND SWAP1 DUP4 PUSH20 0xFFFFFFFFFFFFFFFFFFFFFFFFFFFFFFFFFFFFFFFF AND MUL OR SWAP1 SSTORE POP PUSH2 0xC3 PUSH0 DUP1 SHL CALLER PUSH2 0xFA PUSH1 0x20 SHL PUSH1 0x20 SHR JUMP JUMPDEST PUSH2 0xF3 PUSH32 0xA49807205CE4D355092EF5A8A18F56E8913CF4A201FBE287825B095693C21775 CALLER PUSH2 0xFA PUSH1 0x20 SHL PUSH1 0x20 SHR JUMP JUMPDEST POP POP PUSH2 0x2FA JUMP JUMPDEST PUSH2 0x10A DUP3 DUP3 PUSH2 0x10E PUSH1 0x20 SHL PUSH1 0x20 SHR JUMP JUMPDEST POP POP JUMP JUMPDEST PUSH2 0x11E DUP3 DUP3 PUSH2 0x1F4 PUSH1 0x20 SHL PUSH1 0x20 SHR JUMP JUMPDEST PUSH2 0x1F0 JUMPI PUSH1 0x1 PUSH0 DUP1 DUP5 DUP2 MSTORE PUSH1 0x20 ADD SWAP1 DUP2 MSTORE PUSH1 0x20 ADD PUSH0 KECCAK256 PUSH0 ADD PUSH0 DUP4 PUSH20 0xFFFFFFFFFFFFFFFFFFFFFFFFFFFFFFFFFFFFFFFF AND PUSH20 0xFFFFFFFFFFFFFFFFFFFFFFFFFFFFFFFFFFFFFFFF AND DUP2 MSTORE PUSH1 0x20 ADD SWAP1 DUP2 MSTORE PUSH1 0x20 ADD PUSH0 KECCAK256 PUSH0 PUSH2 0x100 EXP DUP2 SLOAD DUP2 PUSH1 0xFF MUL NOT AND SWAP1 DUP4 ISZERO ISZERO MUL OR SWAP1 SSTORE POP PUSH2 0x195 PUSH2 0x257 PUSH1 0x20 SHL PUSH1 0x20 SHR JUMP JUMPDEST PUSH20 0xFFFFFFFFFFFFFFFFFFFFFFFFFFFFFFFFFFFFFFFF AND DUP2 PUSH20 0xFFFFFFFFFFFFFFFFFFFFFFFFFFFFFFFFFFFFFFFF AND DUP4 PUSH32 0x2F8788117E7EFF1D82E926EC794901D17C78024A50270940304540A733656F0D PUSH1 0x40 MLOAD PUSH1 0x40 MLOAD DUP1 SWAP2 SUB SWAP1 LOG4 JUMPDEST POP POP JUMP JUMPDEST PUSH0 DUP1 PUSH0 DUP5 DUP2 MSTORE PUSH1 0x20 ADD SWAP1 DUP2 MSTORE PUSH1 0x20 ADD PUSH0 KECCAK256 PUSH0 ADD PUSH0 DUP4 PUSH20 0xFFFFFFFFFFFFFFFFFFFFFFFFFFFFFFFFFFFFFFFF AND PUSH20 0xFFFFFFFFFFFFFFFFFFFFFFFFFFFFFFFFFFFFFFFF AND DUP2 MSTORE PUSH1 0x20 ADD SWAP1 DUP2 MSTORE PUSH1 0x20 ADD PUSH0 KECCAK256 PUSH0 SWAP1 SLOAD SWAP1 PUSH2 0x100 EXP SWAP1 DIV PUSH1 0xFF AND SWAP1 POP SWAP3 SWAP2 POP POP JUMP JUMPDEST PUSH0 CALLER SWAP1 POP SWAP1 JUMP JUMPDEST PUSH0 DUP1 REVERT JUMPDEST PUSH0 PUSH20 0xFFFFFFFFFFFFFFFFFFFFFFFFFFFFFFFFFFFFFFFF DUP3 AND SWAP1 POP SWAP2 SWAP1 POP JUMP JUMPDEST PUSH0 PUSH2 0x28B DUP3 PUSH2 0x262 JUMP JUMPDEST SWAP1 POP SWAP2 SWAP1 POP JUMP JUMPDEST PUSH2 0x29B DUP2 PUSH2 0x281 JUMP JUMPDEST DUP2 EQ PUSH2 0x2A5 JUMPI PUSH0 DUP1 REVERT JUMPDEST POP JUMP JUMPDEST PUSH0 DUP2 MLOAD SWAP1 POP PUSH2 0x2B6 DUP2 PUSH2 0x292 JUMP JUMPDEST SWAP3 SWAP2 POP POP JUMP JUMPDEST PUSH0 DUP1 PUSH1 0x40 DUP4 DUP6 SUB SLT ISZERO PUSH2 0x2D2 JUMPI PUSH2 0x2D1 PUSH2 0x25E JUMP JUMPDEST JUMPDEST PUSH0 PUSH2 0x2DF DUP6 DUP3 DUP7 ADD PUSH2 0x2A8 JUMP JUMPDEST SWAP3 POP POP PUSH1 0x20 PUSH2 0x2F0 DUP6 DUP3 DUP7 ADD PUSH2 0x2A8 JUMP JUMPDEST SWAP2 POP POP SWAP3 POP SWAP3 SWAP1 POP JUMP JUMPDEST PUSH2 0x29DA DUP1 PUSH2 0x307 PUSH0 CODECOPY PUSH0 RETURN INVALID PUSH1 0x80 PUSH1 0x40 MSTORE CALLVALUE DUP1 ISZERO PUSH2 0xF JUMPI PUSH0 DUP1 REVERT JUMPDEST POP PUSH1 0x4 CALLDATASIZE LT PUSH2 0x14B JUMPI PUSH0 CALLDATALOAD PUSH1 0xE0 SHR DUP1 PUSH4 0x9A19C7B0 GT PUSH2 0xC1 JUMPI DUP1 PUSH4 0xC634B78E GT PUSH2 0x7A JUMPI DUP1 PUSH4 0xC634B78E EQ PUSH2 0x3D5 JUMPI DUP1 PUSH4 0xCA1C996F EQ PUSH2 0x3F1 JUMPI DUP1 PUSH4 0xCBC7854E EQ PUSH2 0x40D JUMPI DUP1 PUSH4 0xD547741F EQ PUSH2 0x429 JUMPI DUP1 PUSH4 0xDD0C8082 EQ PUSH2 0x445 JUMPI DUP1 PUSH4 0xDD7D2B9F EQ PUSH2 0x463 JUMPI PUSH2 0x14B JUMP JUMPDEST DUP1 PUSH4 0x9A19C7B0 EQ PUSH2 0x2EF JUMPI DUP1 PUSH4 0xA217FDDF EQ PUSH2 0x30B JUMPI DUP1 PUSH4 0xAE99AA3C EQ PUSH2 0x329 JUMPI DUP1 PUSH4 0xAEA08734 EQ PUSH2 0x359 JUMPI DUP1 PUSH4 0xB5B0E48A EQ PUSH2 0x375 JUMPI DUP1 PUSH4 0xBB10AB0F EQ PUSH2 0x3A5 JUMPI PUSH2 0x14B JUMP JUMPDEST DUP1 PUSH4 0x355B9D3F GT PUSH2 0x113 JUMPI DUP1 PUSH4 0x355B9D3F EQ PUSH2 0x219 JUMPI DUP1 PUSH4 0x36568ABE EQ PUSH2 0x24D JUMPI DUP1 PUSH4 0x406A378A EQ PUSH2 0x269 JUMPI DUP1 PUSH4 0x75B238FC EQ PUSH2 0x285 JUMPI DUP1 PUSH4 0x8525EA16 EQ PUSH2 0x2A3 JUMPI DUP1 PUSH4 0x91D14854 EQ PUSH2 0x2BF JUMPI PUSH2 0x14B JUMP JUMPDEST DUP1 PUSH4 0x1FFC9A7 EQ PUSH2 0x14F JUMPI DUP1 PUSH4 0x1B72FA3A EQ PUSH2 0x17F JUMPI DUP1 PUSH4 0x1FD3C85B EQ PUSH2 0x19D JUMPI DUP1 PUSH4 0x248A9CA3 EQ PUSH2 0x1CD JUMPI DUP1 PUSH4 0x2F2FF15D EQ PUSH2 0x1FD JUMPI JUMPDEST PUSH0 DUP1 REVERT JUMPDEST PUSH2 0x169 PUSH1 0x4 DUP1 CALLDATASIZE SUB DUP2 ADD SWAP1 PUSH2 0x164 SWAP2 SWAP1 PUSH2 0x18F6 JUMP JUMPDEST PUSH2 0x47F JUMP JUMPDEST PUSH1 0x40 MLOAD PUSH2 0x176 SWAP2 SWAP1 PUSH2 0x193B JUMP JUMPDEST PUSH1 0x40 MLOAD DUP1 SWAP2 SUB SWAP1 RETURN JUMPDEST PUSH2 0x187 PUSH2 0x4F8 JUMP JUMPDEST PUSH1 0x40 MLOAD PUSH2 0x194 SWAP2 SWAP1 PUSH2 0x19CE JUMP JUMPDEST PUSH1 0x40 MLOAD DUP1 SWAP2 SUB SWAP1 RETURN JUMPDEST PUSH2 0x1B7 PUSH1 0x4 DUP1 CALLDATASIZE SUB DUP2 ADD SWAP1 PUSH2 0x1B2 SWAP2 SWAP1 PUSH2 0x1A1A JUMP JUMPDEST PUSH2 0x51D JUMP JUMPDEST PUSH1 0x40 MLOAD PUSH2 0x1C4 SWAP2 SWAP1 PUSH2 0x1A54 JUMP JUMPDEST PUSH1 0x40 MLOAD DUP1 SWAP2 SUB SWAP1 RETURN JUMPDEST PUSH2 0x1E7 PUSH1 0x4 DUP1 CALLDATASIZE SUB DUP2 ADD SWAP1 PUSH2 0x1E2 SWAP2 SWAP1 PUSH2 0x1AA0 JUMP JUMPDEST PUSH2 0x53D JUMP JUMPDEST PUSH1 0x40 MLOAD PUSH2 0x1F4 SWAP2 SWAP1 PUSH2 0x1ADA JUMP JUMPDEST PUSH1 0x40 MLOAD DUP1 SWAP2 SUB SWAP1 RETURN JUMPDEST PUSH2 0x217 PUSH1 0x4 DUP1 CALLDATASIZE SUB DUP2 ADD SWAP1 PUSH2 0x212 SWAP2 SWAP1 PUSH2 0x1B2E JUMP JUMPDEST PUSH2 0x559 JUMP JUMPDEST STOP JUMPDEST PUSH2 0x233 PUSH1 0x4 DUP1 CALLDATASIZE SUB DUP2 ADD SWAP1 PUSH2 0x22E SWAP2 SWAP1 PUSH2 0x1B6C JUMP JUMPDEST PUSH2 0x57A JUMP JUMPDEST PUSH1 0x40 MLOAD PUSH2 0x244 SWAP6 SWAP5 SWAP4 SWAP3 SWAP2 SWAP1 PUSH2 0x1BBC JUMP JUMPDEST PUSH1 0x40 MLOAD DUP1 SWAP2 SUB SWAP1 RETURN JUMPDEST PUSH2 0x267 PUSH1 0x4 DUP1 CALLDATASIZE SUB DUP2 ADD SWAP1 PUSH2 0x262 SWAP2 SWAP1 PUSH2 0x1B2E JUMP JUMPDEST PUSH2 0x5CE JUMP JUMPDEST STOP JUMPDEST PUSH2 0x283 PUSH1 0x4 DUP1 CALLDATASIZE SUB DUP2 ADD SWAP1 PUSH2 0x27E SWAP2 SWAP1 PUSH2 0x1CC3 JUMP JUMPDEST PUSH2 0x651 JUMP JUMPDEST STOP JUMPDEST PUSH2 0x28D PUSH2 0x83D JUMP JUMPDEST PUSH1 0x40 MLOAD PUSH2 0x29A SWAP2 SWAP1 PUSH2 0x1ADA JUMP JUMPDEST PUSH1 0x40 MLOAD DUP1 SWAP2 SUB SWAP1 RETURN JUMPDEST PUSH2 0x2BD PUSH1 0x4 DUP1 CALLDATASIZE SUB DUP2 ADD SWAP1 PUSH2 0x2B8 SWAP2 SWAP1 PUSH2 0x1D41 JUMP JUMPDEST PUSH2 0x861 JUMP JUMPDEST STOP JUMPDEST PUSH2 0x2D9 PUSH1 0x4 DUP1 CALLDATASIZE SUB DUP2 ADD SWAP1 PUSH2 0x2D4 SWAP2 SWAP1 PUSH2 0x1B2E JUMP JUMPDEST PUSH2 0x8CC JUMP JUMPDEST PUSH1 0x40 MLOAD PUSH2 0x2E6 SWAP2 SWAP1 PUSH2 0x193B JUMP JUMPDEST PUSH1 0x40 MLOAD DUP1 SWAP2 SUB SWAP1 RETURN JUMPDEST PUSH2 0x309 PUSH1 0x4 DUP1 CALLDATASIZE SUB DUP2 ADD SWAP1 PUSH2 0x304 SWAP2 SWAP1 PUSH2 0x1DA5 JUMP JUMPDEST PUSH2 0x92F JUMP JUMPDEST STOP JUMPDEST PUSH2 0x313 PUSH2 0x969 JUMP JUMPDEST PUSH1 0x40 MLOAD PUSH2 0x320 SWAP2 SWAP1 PUSH2 0x1ADA JUMP JUMPDEST PUSH1 0x40 MLOAD DUP1 SWAP2 SUB SWAP1 RETURN JUMPDEST PUSH2 0x343 PUSH1 0x4 DUP1 CALLDATASIZE SUB DUP2 ADD SWAP1 PUSH2 0x33E SWAP2 SWAP1 PUSH2 0x1A1A JUMP JUMPDEST PUSH2 0x96F JUMP JUMPDEST PUSH1 0x40 MLOAD PUSH2 0x350 SWAP2 SWAP1 PUSH2 0x1DF9 JUMP JUMPDEST PUSH1 0x40 MLOAD DUP1 SWAP2 SUB SWAP1 RETURN JUMPDEST PUSH2 0x373 PUSH1 0x4 DUP1 CALLDATASIZE SUB DUP2 ADD SWAP1 PUSH2 0x36E SWAP2 SWAP1 PUSH2 0x1E12 JUMP JUMPDEST PUSH2 0x9F8 JUMP JUMPDEST STOP JUMPDEST PUSH2 0x38F PUSH1 0x4 DUP1 CALLDATASIZE SUB DUP2 ADD SWAP1 PUSH2 0x38A SWAP2 SWAP1 PUSH2 0x1B6C JUMP JUMPDEST PUSH2 0xB90 JUMP JUMPDEST PUSH1 0x40 MLOAD PUSH2 0x39C SWAP2 SWAP1 PUSH2 0x1ED7 JUMP JUMPDEST PUSH1 0x40 MLOAD DUP1 SWAP2 SUB SWAP1 RETURN JUMPDEST PUSH2 0x3BF PUSH1 0x4 DUP1 CALLDATASIZE SUB DUP2 ADD SWAP1 PUSH2 0x3BA SWAP2 SWAP1 PUSH2 0x1A1A JUMP JUMPDEST PUSH2 0xC9A JUMP JUMPDEST PUSH1 0x40 MLOAD PUSH2 0x3CC SWAP2 SWAP1 PUSH2 0x1A54 JUMP JUMPDEST PUSH1 0x40 MLOAD DUP1 SWAP2 SUB SWAP1 RETURN JUMPDEST PUSH2 0x3EF PUSH1 0x4 DUP1 CALLDATASIZE SUB DUP2 ADD SWAP1 PUSH2 0x3EA SWAP2 SWAP1 PUSH2 0x1DA5 JUMP JUMPDEST PUSH2 0xCB4 JUMP JUMPDEST STOP JUMPDEST PUSH2 0x40B PUSH1 0x4 DUP1 CALLDATASIZE SUB DUP2 ADD SWAP1 PUSH2 0x406 SWAP2 SWAP1 PUSH2 0x1D41 JUMP JUMPDEST PUSH2 0xCEE JUMP JUMPDEST STOP JUMPDEST PUSH2 0x427 PUSH1 0x4 DUP1 CALLDATASIZE SUB DUP2 ADD SWAP1 PUSH2 0x422 SWAP2 SWAP1 PUSH2 0x1EF0 JUMP JUMPDEST PUSH2 0x10ED JUMP JUMPDEST STOP JUMPDEST PUSH2 0x443 PUSH1 0x4 DUP1 CALLDATASIZE SUB DUP2 ADD SWAP1 PUSH2 0x43E SWAP2 SWAP1 PUSH2 0x1B2E JUMP JUMPDEST PUSH2 0x119C JUMP JUMPDEST STOP JUMPDEST PUSH2 0x44D PUSH2 0x11BD JUMP JUMPDEST PUSH1 0x40 MLOAD PUSH2 0x45A SWAP2 SWAP1 PUSH2 0x19CE JUMP JUMPDEST PUSH1 0x40 MLOAD DUP1 SWAP2 SUB SWAP1 RETURN JUMPDEST PUSH2 0x47D PUSH1 0x4 DUP1 CALLDATASIZE SUB DUP2 ADD SWAP1 PUSH2 0x478 SWAP2 SWAP1 PUSH2 0x1D41 JUMP JUMPDEST PUSH2 0x11E2 JUMP JUMPDEST STOP JUMPDEST PUSH0 PUSH32 0x7965DB0B00000000000000000000000000000000000000000000000000000000 PUSH28 0xFFFFFFFFFFFFFFFFFFFFFFFFFFFFFFFFFFFFFFFFFFFFFFFFFFFFFFFF NOT AND DUP3 PUSH28 0xFFFFFFFFFFFFFFFFFFFFFFFFFFFFFFFFFFFFFFFFFFFFFFFFFFFFFFFF NOT AND EQ DUP1 PUSH2 0x4F1 JUMPI POP PUSH2 0x4F0 DUP3 PUSH2 0x133D JUMP JUMPDEST JUMPDEST SWAP1 POP SWAP2 SWAP1 POP JUMP JUMPDEST PUSH1 0x2 PUSH0 SWAP1 SLOAD SWAP1 PUSH2 0x100 EXP SWAP1 DIV PUSH20 0xFFFFFFFFFFFFFFFFFFFFFFFFFFFFFFFFFFFFFFFF AND DUP2 JUMP JUMPDEST PUSH1 0x4 DUP2 DUP2 SLOAD DUP2 LT PUSH2 0x52C JUMPI PUSH0 DUP1 REVERT JUMPDEST SWAP1 PUSH0 MSTORE PUSH1 0x20 PUSH0 KECCAK256 ADD PUSH0 SWAP2 POP SWAP1 POP SLOAD DUP2 JUMP JUMPDEST PUSH0 DUP1 PUSH0 DUP4 DUP2 MSTORE PUSH1 0x20 ADD SWAP1 DUP2 MSTORE PUSH1 0x20 ADD PUSH0 KECCAK256 PUSH1 0x1 ADD SLOAD SWAP1 POP SWAP2 SWAP1 POP JUMP JUMPDEST PUSH2 0x562 DUP3 PUSH2 0x53D JUMP JUMPDEST PUSH2 0x56B DUP2 PUSH2 0x13A6 JUMP JUMPDEST PUSH2 0x575 DUP4 DUP4 PUSH2 0x13BA JUMP JUMPDEST POP POP POP JUMP JUMPDEST PUSH1 0x5 PUSH1 0x20 MSTORE DUP3 PUSH0 MSTORE PUSH1 0x40 PUSH0 KECCAK256 PUSH1 0x20 MSTORE DUP2 PUSH0 MSTORE PUSH1 0x40 PUSH0 KECCAK256 PUSH1 0x20 MSTORE DUP1 PUSH0 MSTORE PUSH1 0x40 PUSH0 KECCAK256 PUSH0 SWAP3 POP SWAP3 POP POP POP DUP1 PUSH0 ADD SLOAD SWAP1 DUP1 PUSH1 0x1 ADD SLOAD SWAP1 DUP1 PUSH1 0x2 ADD SLOAD SWAP1 DUP1 PUSH1 0x3 ADD SLOAD SWAP1 DUP1 PUSH1 0x4 ADD PUSH0 SWAP1 SLOAD SWAP1 PUSH2 0x100 EXP SWAP1 DIV PUSH1 0xFF AND SWAP1 POP DUP6 JUMP JUMPDEST PUSH2 0x5D6 PUSH2 0x1494 JUMP JUMPDEST PUSH20 0xFFFFFFFFFFFFFFFFFFFFFFFFFFFFFFFFFFFFFFFF AND DUP2 PUSH20 0xFFFFFFFFFFFFFFFFFFFFFFFFFFFFFFFFFFFFFFFF AND EQ PUSH2 0x643 JUMPI PUSH1 0x40 MLOAD PUSH32 0x8C379A000000000000000000000000000000000000000000000000000000000 DUP2 MSTORE PUSH1 0x4 ADD PUSH2 0x63A SWAP1 PUSH2 0x1FAE JUMP JUMPDEST PUSH1 0x40 MLOAD DUP1 SWAP2 SUB SWAP1 REVERT JUMPDEST PUSH2 0x64D DUP3 DUP3 PUSH2 0x149B JUMP JUMPDEST POP POP JUMP JUMPDEST PUSH32 0xA49807205CE4D355092EF5A8A18F56E8913CF4A201FBE287825B095693C21775 PUSH2 0x67B DUP2 PUSH2 0x13A6 JUMP JUMPDEST DUP3 DUP3 SWAP1 POP DUP6 DUP6 SWAP1 POP EQ PUSH2 0x6C3 JUMPI PUSH1 0x40 MLOAD PUSH32 0x8C379A000000000000000000000000000000000000000000000000000000000 DUP2 MSTORE PUSH1 0x4 ADD PUSH2 0x6BA SWAP1 PUSH2 0x203C JUMP JUMPDEST PUSH1 0x40 MLOAD DUP1 SWAP2 SUB SWAP1 REVERT JUMPDEST PUSH0 JUMPDEST DUP6 DUP6 SWAP1 POP DUP2 LT ISZERO PUSH2 0x7F8 JUMPI PUSH1 0x2 PUSH0 SWAP1 SLOAD SWAP1 PUSH2 0x100 EXP SWAP1 DIV PUSH20 0xFFFFFFFFFFFFFFFFFFFFFFFFFFFFFFFFFFFFFFFF AND PUSH20 0xFFFFFFFFFFFFFFFFFFFFFFFFFFFFFFFFFFFFFFFF AND PUSH4 0xA9059CBB DUP8 DUP8 DUP5 DUP2 DUP2 LT PUSH2 0x720 JUMPI PUSH2 0x71F PUSH2 0x205A JUMP JUMPDEST JUMPDEST SWAP1 POP PUSH1 0x20 MUL ADD PUSH1 0x20 DUP2 ADD SWAP1 PUSH2 0x735 SWAP2 SWAP1 PUSH2 0x1DA5 JUMP JUMPDEST DUP7 DUP7 DUP6 DUP2 DUP2 LT PUSH2 0x748 JUMPI PUSH2 0x747 PUSH2 0x205A JUMP JUMPDEST JUMPDEST SWAP1 POP PUSH1 0x20 MUL ADD CALLDATALOAD PUSH1 0x40 MLOAD DUP4 PUSH4 0xFFFFFFFF AND PUSH1 0xE0 SHL DUP2 MSTORE PUSH1 0x4 ADD PUSH2 0x76C SWAP3 SWAP2 SWAP1 PUSH2 0x2096 JUMP JUMPDEST PUSH1 0x20 PUSH1 0x40 MLOAD DUP1 DUP4 SUB DUP2 PUSH0 DUP8 GAS CALL ISZERO DUP1 ISZERO PUSH2 0x788 JUMPI RETURNDATASIZE PUSH0 DUP1 RETURNDATACOPY RETURNDATASIZE PUSH0 REVERT JUMPDEST POP POP POP POP PUSH1 0x40 MLOAD RETURNDATASIZE PUSH1 0x1F NOT PUSH1 0x1F DUP3 ADD AND DUP3 ADD DUP1 PUSH1 0x40 MSTORE POP DUP2 ADD SWAP1 PUSH2 0x7AC SWAP2 SWAP1 PUSH2 0x20E7 JUMP JUMPDEST PUSH2 0x7EB JUMPI PUSH1 0x40 MLOAD PUSH32 0x8C379A000000000000000000000000000000000000000000000000000000000 DUP2 MSTORE PUSH1 0x4 ADD PUSH2 0x7E2 SWAP1 PUSH2 0x215C JUMP JUMPDEST PUSH1 0x40 MLOAD DUP1 SWAP2 SUB SWAP1 REVERT JUMPDEST DUP1 DUP1 PUSH1 0x1 ADD SWAP2 POP POP PUSH2 0x6C5 JUMP JUMPDEST POP PUSH32 0xFA3B7284ECB3A03E8F238B69B61F5645294C15019EA509BD4AAEE604D60FDC34 DUP6 DUP6 DUP6 DUP6 PUSH1 0x40 MLOAD PUSH2 0x82E SWAP5 SWAP4 SWAP3 SWAP2 SWAP1 PUSH2 0x22AE JUMP JUMPDEST PUSH1 0x40 MLOAD DUP1 SWAP2 SUB SWAP1 LOG1 POP POP POP POP POP JUMP JUMPDEST PUSH32 0xA49807205CE4D355092EF5A8A18F56E8913CF4A201FBE287825B095693C21775 DUP2 JUMP JUMPDEST PUSH32 0xA49807205CE4D355092EF5A8A18F56E8913CF4A201FBE287825B095693C21775 PUSH2 0x88B DUP2 PUSH2 0x13A6 JUMP JUMPDEST DUP3 DUP5 DUP7 PUSH32 0xA8F9CF476E5BCC627F5ED22B5BA54BD7FFF333CD851BC754D924FE3EB28752FB DUP6 PUSH1 0x40 MLOAD PUSH2 0x8BD SWAP2 SWAP1 PUSH2 0x1A54 JUMP JUMPDEST PUSH1 0x40 MLOAD DUP1 SWAP2 SUB SWAP1 LOG4 POP POP POP POP POP JUMP JUMPDEST PUSH0 DUP1 PUSH0 DUP5 DUP2 MSTORE PUSH1 0x20 ADD SWAP1 DUP2 MSTORE PUSH1 0x20 ADD PUSH0 KECCAK256 PUSH0 ADD PUSH0 DUP4 PUSH20 0xFFFFFFFFFFFFFFFFFFFFFFFFFFFFFFFFFFFFFFFF AND PUSH20 0xFFFFFFFFFFFFFFFFFFFFFFFFFFFFFFFFFFFFFFFF AND DUP2 MSTORE PUSH1 0x20 ADD SWAP1 DUP2 MSTORE PUSH1 0x20 ADD PUSH0 KECCAK256 PUSH0 SWAP1 SLOAD SWAP1 PUSH2 0x100 EXP SWAP1 DIV PUSH1 0xFF AND SWAP1 POP SWAP3 SWAP2 POP POP JUMP JUMPDEST PUSH0 DUP1 SHL PUSH2 0x93B DUP2 PUSH2 0x13A6 JUMP JUMPDEST PUSH2 0x965 PUSH32 0xA49807205CE4D355092EF5A8A18F56E8913CF4A201FBE287825B095693C21775 DUP4 PUSH2 0x119C JUMP JUMPDEST POP POP JUMP JUMPDEST PUSH0 DUP1 SHL DUP2 JUMP JUMPDEST PUSH2 0x977 PUSH2 0x185B JUMP JUMPDEST PUSH0 PUSH1 0x3 PUSH0 DUP5 DUP2 MSTORE PUSH1 0x20 ADD SWAP1 DUP2 MSTORE PUSH1 0x20 ADD PUSH0 KECCAK256 PUSH0 ADD SLOAD GT PUSH2 0x9CC JUMPI PUSH1 0x40 MLOAD PUSH32 0x8C379A000000000000000000000000000000000000000000000000000000000 DUP2 MSTORE PUSH1 0x4 ADD PUSH2 0x9C3 SWAP1 PUSH2 0x2331 JUMP JUMPDEST PUSH1 0x40 MLOAD DUP1 SWAP2 SUB SWAP1 REVERT JUMPDEST PUSH1 0x3 PUSH0 DUP4 DUP2 MSTORE PUSH1 0x20 ADD SWAP1 DUP2 MSTORE PUSH1 0x20 ADD PUSH0 KECCAK256 PUSH1 0x40 MLOAD DUP1 PUSH1 0x20 ADD PUSH1 0x40 MSTORE SWAP1 DUP2 PUSH0 DUP3 ADD SLOAD DUP2 MSTORE POP POP SWAP1 POP SWAP2 SWAP1 POP JUMP JUMPDEST PUSH32 0xA49807205CE4D355092EF5A8A18F56E8913CF4A201FBE287825B095693C21775 PUSH2 0xA22 DUP2 PUSH2 0x13A6 JUMP JUMPDEST PUSH0 PUSH1 0x3 PUSH0 DUP7 DUP2 MSTORE PUSH1 0x20 ADD SWAP1 DUP2 MSTORE PUSH1 0x20 ADD PUSH0 KECCAK256 PUSH0 ADD SLOAD EQ PUSH2 0xA77 JUMPI PUSH1 0x40 MLOAD PUSH32 0x8C379A000000000000000000000000000000000000000000000000000000000 DUP2 MSTORE PUSH1 0x4 ADD PUSH2 0xA6E SWAP1 PUSH2 0x2399 JUMP JUMPDEST PUSH1 0x40 MLOAD DUP1 SWAP2 SUB SWAP1 REVERT JUMPDEST PUSH1 0x40 MLOAD DUP1 PUSH1 0x20 ADD PUSH1 0x40 MSTORE DUP1 DUP6 DUP2 MSTORE POP PUSH1 0x3 PUSH0 DUP7 DUP2 MSTORE PUSH1 0x20 ADD SWAP1 DUP2 MSTORE PUSH1 0x20 ADD PUSH0 KECCAK256 PUSH0 DUP3 ADD MLOAD DUP2 PUSH0 ADD SSTORE SWAP1 POP POP PUSH1 0x4 DUP5 SWAP1 DUP1 PUSH1 0x1 DUP2 SLOAD ADD DUP1 DUP3 SSTORE DUP1 SWAP2 POP POP PUSH1 0x1 SWAP1 SUB SWAP1 PUSH0 MSTORE PUSH1 0x20 PUSH0 KECCAK256 ADD PUSH0 SWAP1 SWAP2 SWAP1 SWAP2 SWAP1 SWAP2 POP SSTORE PUSH1 0x1 PUSH0 SWAP1 SLOAD SWAP1 PUSH2 0x100 EXP SWAP1 DIV PUSH20 0xFFFFFFFFFFFFFFFFFFFFFFFFFFFFFFFFFFFFFFFF AND PUSH20 0xFFFFFFFFFFFFFFFFFFFFFFFFFFFFFFFFFFFFFFFF AND PUSH4 0x40C10F19 DUP5 DUP5 PUSH1 0x40 MLOAD DUP4 PUSH4 0xFFFFFFFF AND PUSH1 0xE0 SHL DUP2 MSTORE PUSH1 0x4 ADD PUSH2 0xB24 SWAP3 SWAP2 SWAP1 PUSH2 0x2096 JUMP JUMPDEST PUSH0 PUSH1 0x40 MLOAD DUP1 DUP4 SUB DUP2 PUSH0 DUP8 DUP1 EXTCODESIZE ISZERO DUP1 ISZERO PUSH2 0xB3B JUMPI PUSH0 DUP1 REVERT JUMPDEST POP GAS CALL ISZERO DUP1 ISZERO PUSH2 0xB4D JUMPI RETURNDATASIZE PUSH0 DUP1 RETURNDATACOPY RETURNDATASIZE PUSH0 REVERT JUMPDEST POP POP POP POP PUSH32 0x5A92C2530F207992057B9C3E544108FFCE3BEDA4A63719F316967C49BF6159D2 DUP5 DUP4 PUSH1 0x40 MLOAD PUSH2 0xB82 SWAP3 SWAP2 SWAP1 PUSH2 0x23B7 JUMP JUMPDEST PUSH1 0x40 MLOAD DUP1 SWAP2 SUB SWAP1 LOG1 POP POP POP POP JUMP JUMPDEST PUSH2 0xB98 PUSH2 0x186D JUMP JUMPDEST PUSH1 0x5 PUSH0 DUP6 DUP2 MSTORE PUSH1 0x20 ADD SWAP1 DUP2 MSTORE PUSH1 0x20 ADD PUSH0 KECCAK256 PUSH0 DUP5 DUP2 MSTORE PUSH1 0x20 ADD SWAP1 DUP2 MSTORE PUSH1 0x20 ADD PUSH0 KECCAK256 PUSH0 DUP4 DUP2 MSTORE PUSH1 0x20 ADD SWAP1 DUP2 MSTORE PUSH1 0x20 ADD PUSH0 KECCAK256 PUSH1 0x4 ADD PUSH0 SWAP1 SLOAD SWAP1 PUSH2 0x100 EXP SWAP1 DIV PUSH1 0xFF AND PUSH2 0xC16 JUMPI PUSH1 0x40 MLOAD PUSH32 0x8C379A000000000000000000000000000000000000000000000000000000000 DUP2 MSTORE PUSH1 0x4 ADD PUSH2 0xC0D SWAP1 PUSH2 0x2428 JUMP JUMPDEST PUSH1 0x40 MLOAD DUP1 SWAP2 SUB SWAP1 REVERT JUMPDEST PUSH1 0x5 PUSH0 DUP6 DUP2 MSTORE PUSH1 0x20 ADD SWAP1 DUP2 MSTORE PUSH1 0x20 ADD PUSH0 KECCAK256 PUSH0 DUP5 DUP2 MSTORE PUSH1 0x20 ADD SWAP1 DUP2 MSTORE PUSH1 0x20 ADD PUSH0 KECCAK256 PUSH0 DUP4 DUP2 MSTORE PUSH1 0x20 ADD SWAP1 DUP2 MSTORE PUSH1 0x20 ADD PUSH0 KECCAK256 PUSH1 0x40 MLOAD DUP1 PUSH1 0xA0 ADD PUSH1 0x40 MSTORE SWAP1 DUP2 PUSH0 DUP3 ADD SLOAD DUP2 MSTORE PUSH1 0x20 ADD PUSH1 0x1 DUP3 ADD SLOAD DUP2 MSTORE PUSH1 0x20 ADD PUSH1 0x2 DUP3 ADD SLOAD DUP2 MSTORE PUSH1 0x20 ADD PUSH1 0x3 DUP3 ADD SLOAD DUP2 MSTORE PUSH1 0x20 ADD PUSH1 0x4 DUP3 ADD PUSH0 SWAP1 SLOAD SWAP1 PUSH2 0x100 EXP SWAP1 DIV PUSH1 0xFF AND ISZERO ISZERO ISZERO ISZERO DUP2 MSTORE POP POP SWAP1 POP SWAP4 SWAP3 POP POP POP JUMP JUMPDEST PUSH1 0x3 PUSH1 0x20 MSTORE DUP1 PUSH0 MSTORE PUSH1 0x40 PUSH0 KECCAK256 PUSH0 SWAP2 POP SWAP1 POP DUP1 PUSH0 ADD SLOAD SWAP1 POP DUP2 JUMP JUMPDEST PUSH0 DUP1 SHL PUSH2 0xCC0 DUP2 PUSH2 0x13A6 JUMP JUMPDEST PUSH2 0xCEA PUSH32 0xA49807205CE4D355092EF5A8A18F56E8913CF4A201FBE287825B095693C21775 DUP4 PUSH2 0x559 JUMP JUMPDEST POP POP JUMP JUMPDEST PUSH1 0x5 PUSH0 DUP6 DUP2 MSTORE PUSH1 0x20 ADD SWAP1 DUP2 MSTORE PUSH1 0x20 ADD PUSH0 KECCAK256 PUSH0 DUP5 DUP2 MSTORE PUSH1 0x20 ADD SWAP1 DUP2 MSTORE PUSH1 0x20 ADD PUSH0 KECCAK256 PUSH0 DUP4 DUP2 MSTORE PUSH1 0x20 ADD SWAP1 DUP2 MSTORE PUSH1 0x20 ADD PUSH0 KECCAK256 PUSH1 0x4 ADD PUSH0 SWAP1 SLOAD SWAP1 PUSH2 0x100 EXP SWAP1 DIV PUSH1 0xFF AND ISZERO PUSH2 0xD6D JUMPI PUSH1 0x40 MLOAD PUSH32 0x8C379A000000000000000000000000000000000000000000000000000000000 DUP2 MSTORE PUSH1 0x4 ADD PUSH2 0xD64 SWAP1 PUSH2 0x24B6 JUMP JUMPDEST PUSH1 0x40 MLOAD DUP1 SWAP2 SUB SWAP1 REVERT JUMPDEST PUSH0 PUSH1 0x1 PUSH0 SWAP1 SLOAD SWAP1 PUSH2 0x100 EXP SWAP1 DIV PUSH20 0xFFFFFFFFFFFFFFFFFFFFFFFFFFFFFFFFFFFFFFFF AND PUSH20 0xFFFFFFFFFFFFFFFFFFFFFFFFFFFFFFFFFFFFFFFF AND PUSH4 0xDD62ED3E CALLER ADDRESS PUSH1 0x40 MLOAD DUP4 PUSH4 0xFFFFFFFF AND PUSH1 0xE0 SHL DUP2 MSTORE PUSH1 0x4 ADD PUSH2 0xDCA SWAP3 SWAP2 SWAP1 PUSH2 0x24D4 JUMP JUMPDEST PUSH1 0x20 PUSH1 0x40 MLOAD DUP1 DUP4 SUB DUP2 DUP7 GAS STATICCALL ISZERO DUP1 ISZERO PUSH2 0xDE5 JUMPI RETURNDATASIZE PUSH0 DUP1 RETURNDATACOPY RETURNDATASIZE PUSH0 REVERT JUMPDEST POP POP POP POP PUSH1 0x40 MLOAD RETURNDATASIZE PUSH1 0x1F NOT PUSH1 0x1F DUP3 ADD AND DUP3 ADD DUP1 PUSH1 0x40 MSTORE POP DUP2 ADD SWAP1 PUSH2 0xE09 SWAP2 SWAP1 PUSH2 0x250F JUMP JUMPDEST SWAP1 POP DUP2 DUP2 LT ISZERO PUSH2 0xE4E JUMPI PUSH1 0x40 MLOAD PUSH32 0x8C379A000000000000000000000000000000000000000000000000000000000 DUP2 MSTORE PUSH1 0x4 ADD PUSH2 0xE45 SWAP1 PUSH2 0x2584 JUMP JUMPDEST PUSH1 0x40 MLOAD DUP1 SWAP2 SUB SWAP1 REVERT JUMPDEST PUSH0 PUSH1 0x1 PUSH0 SWAP1 SLOAD SWAP1 PUSH2 0x100 EXP SWAP1 DIV PUSH20 0xFFFFFFFFFFFFFFFFFFFFFFFFFFFFFFFFFFFFFFFF AND PUSH20 0xFFFFFFFFFFFFFFFFFFFFFFFFFFFFFFFFFFFFFFFF AND PUSH4 0x70A08231 CALLER PUSH1 0x40 MLOAD DUP3 PUSH4 0xFFFFFFFF AND PUSH1 0xE0 SHL DUP2 MSTORE PUSH1 0x4 ADD PUSH2 0xEA9 SWAP2 SWAP1 PUSH2 0x25A2 JUMP JUMPDEST PUSH1 0x20 PUSH1 0x40 MLOAD DUP1 DUP4 SUB DUP2 DUP7 GAS STATICCALL ISZERO DUP1 ISZERO PUSH2 0xEC4 JUMPI RETURNDATASIZE PUSH0 DUP1 RETURNDATACOPY RETURNDATASIZE PUSH0 REVERT JUMPDEST POP POP POP POP PUSH1 0x40 MLOAD RETURNDATASIZE PUSH1 0x1F NOT PUSH1 0x1F DUP3 ADD AND DUP3 ADD DUP1 PUSH1 0x40 MSTORE POP DUP2 ADD SWAP1 PUSH2 0xEE8 SWAP2 SWAP1 PUSH2 0x250F JUMP JUMPDEST SWAP1 POP DUP3 DUP2 LT ISZERO PUSH2 0xF2D JUMPI PUSH1 0x40 MLOAD PUSH32 0x8C379A000000000000000000000000000000000000000000000000000000000 DUP2 MSTORE PUSH1 0x4 ADD PUSH2 0xF24 SWAP1 PUSH2 0x2605 JUMP JUMPDEST PUSH1 0x40 MLOAD DUP1 SWAP2 SUB SWAP1 REVERT JUMPDEST PUSH1 0x1 PUSH0 SWAP1 SLOAD SWAP1 PUSH2 0x100 EXP SWAP1 DIV PUSH20 0xFFFFFFFFFFFFFFFFFFFFFFFFFFFFFFFFFFFFFFFF AND PUSH20 0xFFFFFFFFFFFFFFFFFFFFFFFFFFFFFFFFFFFFFFFF AND PUSH4 0x23B872DD CALLER ADDRESS DUP7 PUSH1 0x40 MLOAD DUP5 PUSH4 0xFFFFFFFF AND PUSH1 0xE0 SHL DUP2 MSTORE PUSH1 0x4 ADD PUSH2 0xF8B SWAP4 SWAP3 SWAP2 SWAP1 PUSH2 0x2623 JUMP JUMPDEST PUSH1 0x20 PUSH1 0x40 MLOAD DUP1 DUP4 SUB DUP2 PUSH0 DUP8 GAS CALL ISZERO DUP1 ISZERO PUSH2 0xFA7 JUMPI RETURNDATASIZE PUSH0 DUP1 RETURNDATACOPY RETURNDATASIZE PUSH0 REVERT JUMPDEST POP POP POP POP PUSH1 0x40 MLOAD RETURNDATASIZE PUSH1 0x1F NOT PUSH1 0x1F DUP3 ADD AND DUP3 ADD DUP1 PUSH1 0x40 MSTORE POP DUP2 ADD SWAP1 PUSH2 0xFCB SWAP2 SWAP1 PUSH2 0x20E7 JUMP JUMPDEST PUSH2 0x100A JUMPI PUSH1 0x40 MLOAD PUSH32 0x8C379A000000000000000000000000000000000000000000000000000000000 DUP2 MSTORE PUSH1 0x4 ADD PUSH2 0x1001 SWAP1 PUSH2 0x215C JUMP JUMPDEST PUSH1 0x40 MLOAD DUP1 SWAP2 SUB SWAP1 REVERT JUMPDEST PUSH1 0x40 MLOAD DUP1 PUSH1 0xA0 ADD PUSH1 0x40 MSTORE DUP1 DUP7 DUP2 MSTORE PUSH1 0x20 ADD DUP6 DUP2 MSTORE PUSH1 0x20 ADD DUP5 DUP2 MSTORE PUSH1 0x20 ADD PUSH0 DUP2 MSTORE PUSH1 0x20 ADD PUSH1 0x1 ISZERO ISZERO DUP2 MSTORE POP PUSH1 0x5 PUSH0 DUP9 DUP2 MSTORE PUSH1 0x20 ADD SWAP1 DUP2 MSTORE PUSH1 0x20 ADD PUSH0 KECCAK256 PUSH0 DUP8 DUP2 MSTORE PUSH1 0x20 ADD SWAP1 DUP2 MSTORE PUSH1 0x20 ADD PUSH0 KECCAK256 PUSH0 DUP7 DUP2 MSTORE PUSH1 0x20 ADD SWAP1 DUP2 MSTORE PUSH1 0x20 ADD PUSH0 KECCAK256 PUSH0 DUP3 ADD MLOAD DUP2 PUSH0 ADD SSTORE PUSH1 0x20 DUP3 ADD MLOAD DUP2 PUSH1 0x1 ADD SSTORE PUSH1 0x40 DUP3 ADD MLOAD DUP2 PUSH1 0x2 ADD SSTORE PUSH1 0x60 DUP3 ADD MLOAD DUP2 PUSH1 0x3 ADD SSTORE PUSH1 0x80 DUP3 ADD MLOAD DUP2 PUSH1 0x4 ADD PUSH0 PUSH2 0x100 EXP DUP2 SLOAD DUP2 PUSH1 0xFF MUL NOT AND SWAP1 DUP4 ISZERO ISZERO MUL OR SWAP1 SSTORE POP SWAP1 POP POP DUP4 DUP6 DUP8 PUSH32 0x7BBCA5EFEEBBED029B1684066D1A6E0ADE8EFE8C578AB0890D4B223E6EC5E50E DUP7 PUSH1 0x40 MLOAD PUSH2 0x10DD SWAP2 SWAP1 PUSH2 0x1A54 JUMP JUMPDEST PUSH1 0x40 MLOAD DUP1 SWAP2 SUB SWAP1 LOG4 POP POP POP POP POP POP JUMP JUMPDEST PUSH32 0xA49807205CE4D355092EF5A8A18F56E8913CF4A201FBE287825B095693C21775 PUSH2 0x1117 DUP2 PUSH2 0x13A6 JUMP JUMPDEST DUP3 PUSH1 0x1 PUSH0 PUSH2 0x100 EXP DUP2 SLOAD DUP2 PUSH20 0xFFFFFFFFFFFFFFFFFFFFFFFFFFFFFFFFFFFFFFFF MUL NOT AND SWAP1 DUP4 PUSH20 0xFFFFFFFFFFFFFFFFFFFFFFFFFFFFFFFFFFFFFFFF AND MUL OR SWAP1 SSTORE POP DUP2 PUSH1 0x2 PUSH0 PUSH2 0x100 EXP DUP2 SLOAD DUP2 PUSH20 0xFFFFFFFFFFFFFFFFFFFFFFFFFFFFFFFFFFFFFFFF MUL NOT AND SWAP1 DUP4 PUSH20 0xFFFFFFFFFFFFFFFFFFFFFFFFFFFFFFFFFFFFFFFF AND MUL OR SWAP1 SSTORE POP POP POP POP JUMP JUMPDEST PUSH2 0x11A5 DUP3 PUSH2 0x53D JUMP JUMPDEST PUSH2 0x11AE DUP2 PUSH2 0x13A6 JUMP JUMPDEST PUSH2 0x11B8 DUP4 DUP4 PUSH2 0x149B JUMP JUMPDEST POP POP POP JUMP JUMPDEST PUSH1 0x1 PUSH0 SWAP1 SLOAD SWAP1 PUSH2 0x100 EXP SWAP1 DIV PUSH20 0xFFFFFFFFFFFFFFFFFFFFFFFFFFFFFFFFFFFFFFFF AND DUP2 JUMP JUMPDEST PUSH32 0xA49807205CE4D355092EF5A8A18F56E8913CF4A201FBE287825B095693C21775 PUSH2 0x120C DUP2 PUSH2 0x13A6 JUMP JUMPDEST PUSH1 0x5 PUSH0 DUP7 DUP2 MSTORE PUSH1 0x20 ADD SWAP1 DUP2 MSTORE PUSH1 0x20 ADD PUSH0 KECCAK256 PUSH0 DUP6 DUP2 MSTORE PUSH1 0x20 ADD SWAP1 DUP2 MSTORE PUSH1 0x20 ADD PUSH0 KECCAK256 PUSH0 DUP5 DUP2 MSTORE PUSH1 0x20 ADD SWAP1 DUP2 MSTORE PUSH1 0x20 ADD PUSH0 KECCAK256 PUSH1 0x4 ADD PUSH0 SWAP1 SLOAD SWAP1 PUSH2 0x100 EXP SWAP1 DIV PUSH1 0xFF AND PUSH2 0x128A JUMPI PUSH1 0x40 MLOAD PUSH32 0x8C379A000000000000000000000000000000000000000000000000000000000 DUP2 MSTORE PUSH1 0x4 ADD PUSH2 0x1281 SWAP1 PUSH2 0x26A2 JUMP JUMPDEST PUSH1 0x40 MLOAD DUP1 SWAP2 SUB SWAP1 REVERT JUMPDEST PUSH1 0x5 PUSH0 DUP7 DUP2 MSTORE PUSH1 0x20 ADD SWAP1 DUP2 MSTORE PUSH1 0x20 ADD PUSH0 KECCAK256 PUSH0 DUP6 DUP2 MSTORE PUSH1 0x20 ADD SWAP1 DUP2 MSTORE PUSH1 0x20 ADD PUSH0 KECCAK256 PUSH0 DUP5 DUP2 MSTORE PUSH1 0x20 ADD SWAP1 DUP2 MSTORE PUSH1 0x20 ADD PUSH0 KECCAK256 PUSH1 0x3 ADD SLOAD DUP3 GT ISZERO PUSH2 0x12FC JUMPI DUP2 PUSH1 0x5 PUSH0 DUP8 DUP2 MSTORE PUSH1 0x20 ADD SWAP1 DUP2 MSTORE PUSH1 0x20 ADD PUSH0 KECCAK256 PUSH0 DUP7 DUP2 MSTORE PUSH1 0x20 ADD SWAP1 DUP2 MSTORE PUSH1 0x20 ADD PUSH0 KECCAK256 PUSH0 DUP6 DUP2 MSTORE PUSH1 0x20 ADD SWAP1 DUP2 MSTORE PUSH1 0x20 ADD PUSH0 KECCAK256 PUSH1 0x3 ADD DUP2 SWAP1 SSTORE POP JUMPDEST DUP3 DUP5 DUP7 PUSH32 0x2BBC9AD1871F4B99168AA3FEBE254B9069558FF96ED7746D1677869AFA38243F DUP6 PUSH1 0x40 MLOAD PUSH2 0x132E SWAP2 SWAP1 PUSH2 0x1A54 JUMP JUMPDEST PUSH1 0x40 MLOAD DUP1 SWAP2 SUB SWAP1 LOG4 POP POP POP POP POP JUMP JUMPDEST PUSH0 PUSH32 0x1FFC9A700000000000000000000000000000000000000000000000000000000 PUSH28 0xFFFFFFFFFFFFFFFFFFFFFFFFFFFFFFFFFFFFFFFFFFFFFFFFFFFFFFFF NOT AND DUP3 PUSH28 0xFFFFFFFFFFFFFFFFFFFFFFFFFFFFFFFFFFFFFFFFFFFFFFFFFFFFFFFF NOT AND EQ SWAP1 POP SWAP2 SWAP1 POP JUMP JUMPDEST PUSH2 0x13B7 DUP2 PUSH2 0x13B2 PUSH2 0x1494 JUMP JUMPDEST PUSH2 0x1575 JUMP JUMPDEST POP JUMP JUMPDEST PUSH2 0x13C4 DUP3 DUP3 PUSH2 0x8CC JUMP JUMPDEST PUSH2 0x1490 JUMPI PUSH1 0x1 PUSH0 DUP1 DUP5 DUP2 MSTORE PUSH1 0x20 ADD SWAP1 DUP2 MSTORE PUSH1 0x20 ADD PUSH0 KECCAK256 PUSH0 ADD PUSH0 DUP4 PUSH20 0xFFFFFFFFFFFFFFFFFFFFFFFFFFFFFFFFFFFFFFFF AND PUSH20 0xFFFFFFFFFFFFFFFFFFFFFFFFFFFFFFFFFFFFFFFF AND DUP2 MSTORE PUSH1 0x20 ADD SWAP1 DUP2 MSTORE PUSH1 0x20 ADD PUSH0 KECCAK256 PUSH0 PUSH2 0x100 EXP DUP2 SLOAD DUP2 PUSH1 0xFF MUL NOT AND SWAP1 DUP4 ISZERO ISZERO MUL OR SWAP1 SSTORE POP PUSH2 0x1435 PUSH2 0x1494 JUMP JUMPDEST PUSH20 0xFFFFFFFFFFFFFFFFFFFFFFFFFFFFFFFFFFFFFFFF AND DUP2 PUSH20 0xFFFFFFFFFFFFFFFFFFFFFFFFFFFFFFFFFFFFFFFF AND DUP4 PUSH32 0x2F8788117E7EFF1D82E926EC794901D17C78024A50270940304540A733656F0D PUSH1 0x40 MLOAD PUSH1 0x40 MLOAD DUP1 SWAP2 SUB SWAP1 LOG4 JUMPDEST POP POP JUMP JUMPDEST PUSH0 CALLER SWAP1 POP SWAP1 JUMP JUMPDEST PUSH2 0x14A5 DUP3 DUP3 PUSH2 0x8CC JUMP JUMPDEST ISZERO PUSH2 0x1571 JUMPI PUSH0 DUP1 PUSH0 DUP5 DUP2 MSTORE PUSH1 0x20 ADD SWAP1 DUP2 MSTORE PUSH1 0x20 ADD PUSH0 KECCAK256 PUSH0 ADD PUSH0 DUP4 PUSH20 0xFFFFFFFFFFFFFFFFFFFFFFFFFFFFFFFFFFFFFFFF AND PUSH20 0xFFFFFFFFFFFFFFFFFFFFFFFFFFFFFFFFFFFFFFFF AND DUP2 MSTORE PUSH1 0x20 ADD SWAP1 DUP2 MSTORE PUSH1 0x20 ADD PUSH0 KECCAK256 PUSH0 PUSH2 0x100 EXP DUP2 SLOAD DUP2 PUSH1 0xFF MUL NOT AND SWAP1 DUP4 ISZERO ISZERO MUL OR SWAP1 SSTORE POP PUSH2 0x1516 PUSH2 0x1494 JUMP JUMPDEST PUSH20 0xFFFFFFFFFFFFFFFFFFFFFFFFFFFFFFFFFFFFFFFF AND DUP2 PUSH20 0xFFFFFFFFFFFFFFFFFFFFFFFFFFFFFFFFFFFFFFFF AND DUP4 PUSH32 0xF6391F5C32D9C69D2A47EA670B442974B53935D1EDC7FD64EB21E047A839171B PUSH1 0x40 MLOAD PUSH1 0x40 MLOAD DUP1 SWAP2 SUB SWAP1 LOG4 JUMPDEST POP POP JUMP JUMPDEST PUSH2 0x157F DUP3 DUP3 PUSH2 0x8CC JUMP JUMPDEST PUSH2 0x15F5 JUMPI PUSH2 0x158C DUP2 PUSH2 0x15F9 JUMP JUMPDEST PUSH2 0x1599 DUP4 PUSH0 SHR PUSH1 0x20 PUSH2 0x1626 JUMP JUMPDEST PUSH1 0x40 MLOAD PUSH1 0x20 ADD PUSH2 0x15AA SWAP3 SWAP2 SWAP1 PUSH2 0x27A6 JUMP JUMPDEST PUSH1 0x40 MLOAD PUSH1 0x20 DUP2 DUP4 SUB SUB DUP2 MSTORE SWAP1 PUSH1 0x40 MSTORE PUSH1 0x40 MLOAD PUSH32 0x8C379A000000000000000000000000000000000000000000000000000000000 DUP2 MSTORE PUSH1 0x4 ADD PUSH2 0x15EC SWAP2 SWAP1 PUSH2 0x2827 JUMP JUMPDEST PUSH1 0x40 MLOAD DUP1 SWAP2 SUB SWAP1 REVERT JUMPDEST POP POP JUMP JUMPDEST PUSH1 0x60 PUSH2 0x161F DUP3 PUSH20 0xFFFFFFFFFFFFFFFFFFFFFFFFFFFFFFFFFFFFFFFF AND PUSH1 0x14 PUSH1 0xFF AND PUSH2 0x1626 JUMP JUMPDEST SWAP1 POP SWAP2 SWAP1 POP JUMP JUMPDEST PUSH1 0x60 PUSH0 PUSH1 0x2 DUP4 PUSH1 0x2 PUSH2 0x1638 SWAP2 SWAP1 PUSH2 0x2874 JUMP JUMPDEST PUSH2 0x1642 SWAP2 SWAP1 PUSH2 0x28B5 JUMP JUMPDEST PUSH8 0xFFFFFFFFFFFFFFFF DUP2 GT ISZERO PUSH2 0x165B JUMPI PUSH2 0x165A PUSH2 0x28E8 JUMP JUMPDEST JUMPDEST PUSH1 0x40 MLOAD SWAP1 DUP1 DUP3 MSTORE DUP1 PUSH1 0x1F ADD PUSH1 0x1F NOT AND PUSH1 0x20 ADD DUP3 ADD PUSH1 0x40 MSTORE DUP1 ISZERO PUSH2 0x168D JUMPI DUP2 PUSH1 0x20 ADD PUSH1 0x1 DUP3 MUL DUP1 CALLDATASIZE DUP4 CALLDATACOPY DUP1 DUP3 ADD SWAP2 POP POP SWAP1 POP JUMPDEST POP SWAP1 POP PUSH32 0x3000000000000000000000000000000000000000000000000000000000000000 DUP2 PUSH0 DUP2 MLOAD DUP2 LT PUSH2 0x16C4 JUMPI PUSH2 0x16C3 PUSH2 0x205A JUMP JUMPDEST JUMPDEST PUSH1 0x20 ADD ADD SWAP1 PUSH31 0xFFFFFFFFFFFFFFFFFFFFFFFFFFFFFFFFFFFFFFFFFFFFFFFFFFFFFFFFFFFFFF NOT AND SWAP1 DUP2 PUSH0 BYTE SWAP1 MSTORE8 POP PUSH32 0x7800000000000000000000000000000000000000000000000000000000000000 DUP2 PUSH1 0x1 DUP2 MLOAD DUP2 LT PUSH2 0x1727 JUMPI PUSH2 0x1726 PUSH2 0x205A JUMP JUMPDEST JUMPDEST PUSH1 0x20 ADD ADD SWAP1 PUSH31 0xFFFFFFFFFFFFFFFFFFFFFFFFFFFFFFFFFFFFFFFFFFFFFFFFFFFFFFFFFFFFFF NOT AND SWAP1 DUP2 PUSH0 BYTE SWAP1 MSTORE8 POP PUSH0 PUSH1 0x1 DUP5 PUSH1 0x2 PUSH2 0x1765 SWAP2 SWAP1 PUSH2 0x2874 JUMP JUMPDEST PUSH2 0x176F SWAP2 SWAP1 PUSH2 0x28B5 JUMP JUMPDEST SWAP1 POP JUMPDEST PUSH1 0x1 DUP2 GT ISZERO PUSH2 0x180E JUMPI PUSH32 0x3031323334353637383961626364656600000000000000000000000000000000 PUSH1 0xF DUP7 AND PUSH1 0x10 DUP2 LT PUSH2 0x17B1 JUMPI PUSH2 0x17B0 PUSH2 0x205A JUMP JUMPDEST JUMPDEST BYTE PUSH1 0xF8 SHL DUP3 DUP3 DUP2 MLOAD DUP2 LT PUSH2 0x17C8 JUMPI PUSH2 0x17C7 PUSH2 0x205A JUMP JUMPDEST JUMPDEST PUSH1 0x20 ADD ADD SWAP1 PUSH31 0xFFFFFFFFFFFFFFFFFFFFFFFFFFFFFFFFFFFFFFFFFFFFFFFFFFFFFFFFFFFFFF NOT AND SWAP1 DUP2 PUSH0 BYTE SWAP1 MSTORE8 POP PUSH1 0x4 DUP6 SWAP1 SHR SWAP5 POP DUP1 PUSH2 0x1807 SWAP1 PUSH2 0x2915 JUMP JUMPDEST SWAP1 POP PUSH2 0x1772 JUMP JUMPDEST POP PUSH0 DUP5 EQ PUSH2 0x1851 JUMPI PUSH1 0x40 MLOAD PUSH32 0x8C379A000000000000000000000000000000000000000000000000000000000 DUP2 MSTORE PUSH1 0x4 ADD PUSH2 0x1848 SWAP1 PUSH2 0x2986 JUMP JUMPDEST PUSH1 0x40 MLOAD DUP1 SWAP2 SUB SWAP1 REVERT JUMPDEST DUP1 SWAP2 POP POP SWAP3 SWAP2 POP POP JUMP JUMPDEST PUSH1 0x40 MLOAD DUP1 PUSH1 0x20 ADD PUSH1 0x40 MSTORE DUP1 PUSH0 DUP2 MSTORE POP SWAP1 JUMP JUMPDEST PUSH1 0x40 MLOAD DUP1 PUSH1 0xA0 ADD PUSH1 0x40 MSTORE DUP1 PUSH0 DUP2 MSTORE PUSH1 0x20 ADD PUSH0 DUP2 MSTORE PUSH1 0x20 ADD PUSH0 DUP2 MSTORE PUSH1 0x20 ADD PUSH0 DUP2 MSTORE PUSH1 0x20 ADD PUSH0 ISZERO ISZERO DUP2 MSTORE POP SWAP1 JUMP JUMPDEST PUSH0 DUP1 REVERT JUMPDEST PUSH0 DUP1 REVERT JUMPDEST PUSH0 PUSH32 0xFFFFFFFF00000000000000000000000000000000000000000000000000000000 DUP3 AND SWAP1 POP SWAP2 SWAP1 POP JUMP JUMPDEST PUSH2 0x18D5 DUP2 PUSH2 0x18A1 JUMP JUMPDEST DUP2 EQ PUSH2 0x18DF JUMPI PUSH0 DUP1 REVERT JUMPDEST POP JUMP JUMPDEST PUSH0 DUP2 CALLDATALOAD SWAP1 POP PUSH2 0x18F0 DUP2 PUSH2 0x18CC JUMP JUMPDEST SWAP3 SWAP2 POP POP JUMP JUMPDEST PUSH0 PUSH1 0x20 DUP3 DUP5 SUB SLT ISZERO PUSH2 0x190B JUMPI PUSH2 0x190A PUSH2 0x1899 JUMP JUMPDEST JUMPDEST PUSH0 PUSH2 0x1918 DUP5 DUP3 DUP6 ADD PUSH2 0x18E2 JUMP JUMPDEST SWAP2 POP POP SWAP3 SWAP2 POP POP JUMP JUMPDEST PUSH0 DUP2 ISZERO ISZERO SWAP1 POP SWAP2 SWAP1 POP JUMP JUMPDEST PUSH2 0x1935 DUP2 PUSH2 0x1921 JUMP JUMPDEST DUP3 MSTORE POP POP JUMP JUMPDEST PUSH0 PUSH1 0x20 DUP3 ADD SWAP1 POP PUSH2 0x194E PUSH0 DUP4 ADD DUP5 PUSH2 0x192C JUMP JUMPDEST SWAP3 SWAP2 POP POP JUMP JUMPDEST PUSH0 PUSH20 0xFFFFFFFFFFFFFFFFFFFFFFFFFFFFFFFFFFFFFFFF DUP3 AND SWAP1 POP SWAP2 SWAP1 POP JUMP JUMPDEST PUSH0 DUP2 SWAP1 POP SWAP2 SWAP1 POP JUMP JUMPDEST PUSH0 PUSH2 0x1996 PUSH2 0x1991 PUSH2 0x198C DUP5 PUSH2 0x1954 JUMP JUMPDEST PUSH2 0x1973 JUMP JUMPDEST PUSH2 0x1954 JUMP JUMPDEST SWAP1 POP SWAP2 SWAP1 POP JUMP JUMPDEST PUSH0 PUSH2 0x19A7 DUP3 PUSH2 0x197C JUMP JUMPDEST SWAP1 POP SWAP2 SWAP1 POP JUMP JUMPDEST PUSH0 PUSH2 0x19B8 DUP3 PUSH2 0x199D JUMP JUMPDEST SWAP1 POP SWAP2 SWAP1 POP JUMP JUMPDEST PUSH2 0x19C8 DUP2 PUSH2 0x19AE JUMP JUMPDEST DUP3 MSTORE POP POP JUMP JUMPDEST PUSH0 PUSH1 0x20 DUP3 ADD SWAP1 POP PUSH2 0x19E1 PUSH0 DUP4 ADD DUP5 PUSH2 0x19BF JUMP JUMPDEST SWAP3 SWAP2 POP POP JUMP JUMPDEST PUSH0 DUP2 SWAP1 POP SWAP2 SWAP1 POP JUMP JUMPDEST PUSH2 0x19F9 DUP2 PUSH2 0x19E7 JUMP JUMPDEST DUP2 EQ PUSH2 0x1A03 JUMPI PUSH0 DUP1 REVERT JUMPDEST POP JUMP JUMPDEST PUSH0 DUP2 CALLDATALOAD SWAP1 POP PUSH2 0x1A14 DUP2 PUSH2 0x19F0 JUMP JUMPDEST SWAP3 SWAP2 POP POP JUMP JUMPDEST PUSH0 PUSH1 0x20 DUP3 DUP5 SUB SLT ISZERO PUSH2 0x1A2F JUMPI PUSH2 0x1A2E PUSH2 0x1899 JUMP JUMPDEST JUMPDEST PUSH0 PUSH2 0x1A3C DUP5 DUP3 DUP6 ADD PUSH2 0x1A06 JUMP JUMPDEST SWAP2 POP POP SWAP3 SWAP2 POP POP JUMP JUMPDEST PUSH2 0x1A4E DUP2 PUSH2 0x19E7 JUMP JUMPDEST DUP3 MSTORE POP POP JUMP JUMPDEST PUSH0 PUSH1 0x20 DUP3 ADD SWAP1 POP PUSH2 0x1A67 PUSH0 DUP4 ADD DUP5 PUSH2 0x1A45 JUMP JUMPDEST SWAP3 SWAP2 POP POP JUMP JUMPDEST PUSH0 DUP2 SWAP1 POP SWAP2 SWAP1 POP JUMP JUMPDEST PUSH2 0x1A7F DUP2 PUSH2 0x1A6D JUMP JUMPDEST DUP2 EQ PUSH2 0x1A89 JUMPI PUSH0 DUP1 REVERT JUMPDEST POP JUMP JUMPDEST PUSH0 DUP2 CALLDATALOAD SWAP1 POP PUSH2 0x1A9A DUP2 PUSH2 0x1A76 JUMP JUMPDEST SWAP3 SWAP2 POP POP JUMP JUMPDEST PUSH0 PUSH1 0x20 DUP3 DUP5 SUB SLT ISZERO PUSH2 0x1AB5 JUMPI PUSH2 0x1AB4 PUSH2 0x1899 JUMP JUMPDEST JUMPDEST PUSH0 PUSH2 0x1AC2 DUP5 DUP3 DUP6 ADD PUSH2 0x1A8C JUMP JUMPDEST SWAP2 POP POP SWAP3 SWAP2 POP POP JUMP JUMPDEST PUSH2 0x1AD4 DUP2 PUSH2 0x1A6D JUMP JUMPDEST DUP3 MSTORE POP POP JUMP JUMPDEST PUSH0 PUSH1 0x20 DUP3 ADD SWAP1 POP PUSH2 0x1AED PUSH0 DUP4 ADD DUP5 PUSH2 0x1ACB JUMP JUMPDEST SWAP3 SWAP2 POP POP JUMP JUMPDEST PUSH0 PUSH2 0x1AFD DUP3 PUSH2 0x1954 JUMP JUMPDEST SWAP1 POP SWAP2 SWAP1 POP JUMP JUMPDEST PUSH2 0x1B0D DUP2 PUSH2 0x1AF3 JUMP JUMPDEST DUP2 EQ PUSH2 0x1B17 JUMPI PUSH0 DUP1 REVERT JUMPDEST POP JUMP JUMPDEST PUSH0 DUP2 CALLDATALOAD SWAP1 POP PUSH2 0x1B28 DUP2 PUSH2 0x1B04 JUMP JUMPDEST SWAP3 SWAP2 POP POP JUMP JUMPDEST PUSH0 DUP1 PUSH1 0x40 DUP4 DUP6 SUB SLT ISZERO PUSH2 0x1B44 JUMPI PUSH2 0x1B43 PUSH2 0x1899 JUMP JUMPDEST JUMPDEST PUSH0 PUSH2 0x1B51 DUP6 DUP3 DUP7 ADD PUSH2 0x1A8C JUMP JUMPDEST SWAP3 POP POP PUSH1 0x20 PUSH2 0x1B62 DUP6 DUP3 DUP7 ADD PUSH2 0x1B1A JUMP JUMPDEST SWAP2 POP POP SWAP3 POP SWAP3 SWAP1 POP JUMP JUMPDEST PUSH0 DUP1 PUSH0 PUSH1 0x60 DUP5 DUP7 SUB SLT ISZERO PUSH2 0x1B83 JUMPI PUSH2 0x1B82 PUSH2 0x1899 JUMP JUMPDEST JUMPDEST PUSH0 PUSH2 0x1B90 DUP7 DUP3 DUP8 ADD PUSH2 0x1A06 JUMP JUMPDEST SWAP4 POP POP PUSH1 0x20 PUSH2 0x1BA1 DUP7 DUP3 DUP8 ADD PUSH2 0x1A06 JUMP JUMPDEST SWAP3 POP POP PUSH1 0x40 PUSH2 0x1BB2 DUP7 DUP3 DUP8 ADD PUSH2 0x1A06 JUMP JUMPDEST SWAP2 POP POP SWAP3 POP SWAP3 POP SWAP3 JUMP JUMPDEST PUSH0 PUSH1 0xA0 DUP3 ADD SWAP1 POP PUSH2 0x1BCF PUSH0 DUP4 ADD DUP9 PUSH2 0x1A45 JUMP JUMPDEST PUSH2 0x1BDC PUSH1 0x20 DUP4 ADD DUP8 PUSH2 0x1A45 JUMP JUMPDEST PUSH2 0x1BE9 PUSH1 0x40 DUP4 ADD DUP7 PUSH2 0x1A45 JUMP JUMPDEST PUSH2 0x1BF6 PUSH1 0x60 DUP4 ADD DUP6 PUSH2 0x1A45 JUMP JUMPDEST PUSH2 0x1C03 PUSH1 0x80 DUP4 ADD DUP5 PUSH2 0x192C JUMP JUMPDEST SWAP7 SWAP6 POP POP POP POP POP POP JUMP JUMPDEST PUSH0 DUP1 REVERT JUMPDEST PUSH0 DUP1 REVERT JUMPDEST PUSH0 DUP1 REVERT JUMPDEST PUSH0 DUP1 DUP4 PUSH1 0x1F DUP5 ADD SLT PUSH2 0x1C2E JUMPI PUSH2 0x1C2D PUSH2 0x1C0D JUMP JUMPDEST JUMPDEST DUP3 CALLDATALOAD SWAP1 POP PUSH8 0xFFFFFFFFFFFFFFFF DUP2 GT ISZERO PUSH2 0x1C4B JUMPI PUSH2 0x1C4A PUSH2 0x1C11 JUMP JUMPDEST JUMPDEST PUSH1 0x20 DUP4 ADD SWAP2 POP DUP4 PUSH1 0x20 DUP3 MUL DUP4 ADD GT ISZERO PUSH2 0x1C67 JUMPI PUSH2 0x1C66 PUSH2 0x1C15 JUMP JUMPDEST JUMPDEST SWAP3 POP SWAP3 SWAP1 POP JUMP JUMPDEST PUSH0 DUP1 DUP4 PUSH1 0x1F DUP5 ADD SLT PUSH2 0x1C83 JUMPI PUSH2 0x1C82 PUSH2 0x1C0D JUMP JUMPDEST JUMPDEST DUP3 CALLDATALOAD SWAP1 POP PUSH8 0xFFFFFFFFFFFFFFFF DUP2 GT ISZERO PUSH2 0x1CA0 JUMPI PUSH2 0x1C9F PUSH2 0x1C11 JUMP JUMPDEST JUMPDEST PUSH1 0x20 DUP4 ADD SWAP2 POP DUP4 PUSH1 0x20 DUP3 MUL DUP4 ADD GT ISZERO PUSH2 0x1CBC JUMPI PUSH2 0x1CBB PUSH2 0x1C15 JUMP JUMPDEST JUMPDEST SWAP3 POP SWAP3 SWAP1 POP JUMP JUMPDEST PUSH0 DUP1 PUSH0 DUP1 PUSH1 0x40 DUP6 DUP8 SUB SLT ISZERO PUSH2 0x1CDB JUMPI PUSH2 0x1CDA PUSH2 0x1899 JUMP JUMPDEST JUMPDEST PUSH0 DUP6 ADD CALLDATALOAD PUSH8 0xFFFFFFFFFFFFFFFF DUP2 GT ISZERO PUSH2 0x1CF8 JUMPI PUSH2 0x1CF7 PUSH2 0x189D JUMP JUMPDEST JUMPDEST PUSH2 0x1D04 DUP8 DUP3 DUP9 ADD PUSH2 0x1C19 JUMP JUMPDEST SWAP5 POP SWAP5 POP POP PUSH1 0x20 DUP6 ADD CALLDATALOAD PUSH8 0xFFFFFFFFFFFFFFFF DUP2 GT ISZERO PUSH2 0x1D27 JUMPI PUSH2 0x1D26 PUSH2 0x189D JUMP JUMPDEST JUMPDEST PUSH2 0x1D33 DUP8 DUP3 DUP9 ADD PUSH2 0x1C6E JUMP JUMPDEST SWAP3 POP SWAP3 POP POP SWAP3 SWAP6 SWAP2 SWAP5 POP SWAP3 POP JUMP JUMPDEST PUSH0 DUP1 PUSH0 DUP1 PUSH1 0x80 DUP6 DUP8 SUB SLT ISZERO PUSH2 0x1D59 JUMPI PUSH2 0x1D58 PUSH2 0x1899 JUMP JUMPDEST JUMPDEST PUSH0 PUSH2 0x1D66 DUP8 DUP3 DUP9 ADD PUSH2 0x1A06 JUMP JUMPDEST SWAP5 POP POP PUSH1 0x20 PUSH2 0x1D77 DUP8 DUP3 DUP9 ADD PUSH2 0x1A06 JUMP JUMPDEST SWAP4 POP POP PUSH1 0x40 PUSH2 0x1D88 DUP8 DUP3 DUP9 ADD PUSH2 0x1A06 JUMP JUMPDEST SWAP3 POP POP PUSH1 0x60 PUSH2 0x1D99 DUP8 DUP3 DUP9 ADD PUSH2 0x1A06 JUMP JUMPDEST SWAP2 POP POP SWAP3 SWAP6 SWAP2 SWAP5 POP SWAP3 POP JUMP JUMPDEST PUSH0 PUSH1 0x20 DUP3 DUP5 SUB SLT ISZERO PUSH2 0x1DBA JUMPI PUSH2 0x1DB9 PUSH2 0x1899 JUMP JUMPDEST JUMPDEST PUSH0 PUSH2 0x1DC7 DUP5 DUP3 DUP6 ADD PUSH2 0x1B1A JUMP JUMPDEST SWAP2 POP POP SWAP3 SWAP2 POP POP JUMP JUMPDEST PUSH2 0x1DD9 DUP2 PUSH2 0x19E7 JUMP JUMPDEST DUP3 MSTORE POP POP JUMP JUMPDEST PUSH1 0x20 DUP3 ADD PUSH0 DUP3 ADD MLOAD PUSH2 0x1DF3 PUSH0 DUP6 ADD DUP3 PUSH2 0x1DD0 JUMP JUMPDEST POP POP POP POP JUMP JUMPDEST PUSH0 PUSH1 0x20 DUP3 ADD SWAP1 POP PUSH2 0x1E0C PUSH0 DUP4 ADD DUP5 PUSH2 0x1DDF JUMP JUMPDEST SWAP3 SWAP2 POP POP JUMP JUMPDEST PUSH0 DUP1 PUSH0 PUSH1 0x60 DUP5 DUP7 SUB SLT ISZERO PUSH2 0x1E29 JUMPI PUSH2 0x1E28 PUSH2 0x1899 JUMP JUMPDEST JUMPDEST PUSH0 PUSH2 0x1E36 DUP7 DUP3 DUP8 ADD PUSH2 0x1A06 JUMP JUMPDEST SWAP4 POP POP PUSH1 0x20 PUSH2 0x1E47 DUP7 DUP3 DUP8 ADD PUSH2 0x1B1A JUMP JUMPDEST SWAP3 POP POP PUSH1 0x40 PUSH2 0x1E58 DUP7 DUP3 DUP8 ADD PUSH2 0x1A06 JUMP JUMPDEST SWAP2 POP POP SWAP3 POP SWAP3 POP SWAP3 JUMP JUMPDEST PUSH2 0x1E6B DUP2 PUSH2 0x1921 JUMP JUMPDEST DUP3 MSTORE POP POP JUMP JUMPDEST PUSH1 0xA0 DUP3 ADD PUSH0 DUP3 ADD MLOAD PUSH2 0x1E85 PUSH0 DUP6 ADD DUP3 PUSH2 0x1DD0 JUMP JUMPDEST POP PUSH1 0x20 DUP3 ADD MLOAD PUSH2 0x1E98 PUSH1 0x20 DUP6 ADD DUP3 PUSH2 0x1DD0 JUMP JUMPDEST POP PUSH1 0x40 DUP3 ADD MLOAD PUSH2 0x1EAB PUSH1 0x40 DUP6 ADD DUP3 PUSH2 0x1DD0 JUMP JUMPDEST POP PUSH1 0x60 DUP3 ADD MLOAD PUSH2 0x1EBE PUSH1 0x60 DUP6 ADD DUP3 PUSH2 0x1DD0 JUMP JUMPDEST POP PUSH1 0x80 DUP3 ADD MLOAD PUSH2 0x1ED1 PUSH1 0x80 DUP6 ADD DUP3 PUSH2 0x1E62 JUMP JUMPDEST POP POP POP POP JUMP JUMPDEST PUSH0 PUSH1 0xA0 DUP3 ADD SWAP1 POP PUSH2 0x1EEA PUSH0 DUP4 ADD DUP5 PUSH2 0x1E71 JUMP JUMPDEST SWAP3 SWAP2 POP POP JUMP JUMPDEST PUSH0 DUP1 PUSH1 0x40 DUP4 DUP6 SUB SLT ISZERO PUSH2 0x1F06 JUMPI PUSH2 0x1F05 PUSH2 0x1899 JUMP JUMPDEST JUMPDEST PUSH0 PUSH2 0x1F13 DUP6 DUP3 DUP7 ADD PUSH2 0x1B1A JUMP JUMPDEST SWAP3 POP POP PUSH1 0x20 PUSH2 0x1F24 DUP6 DUP3 DUP7 ADD PUSH2 0x1B1A JUMP JUMPDEST SWAP2 POP POP SWAP3 POP SWAP3 SWAP1 POP JUMP JUMPDEST PUSH0 DUP3 DUP3 MSTORE PUSH1 0x20 DUP3 ADD SWAP1 POP SWAP3 SWAP2 POP POP JUMP JUMPDEST PUSH32 0x416363657373436F6E74726F6C3A2063616E206F6E6C792072656E6F756E6365 PUSH0 DUP3 ADD MSTORE PUSH32 0x20726F6C657320666F722073656C660000000000000000000000000000000000 PUSH1 0x20 DUP3 ADD MSTORE POP JUMP JUMPDEST PUSH0 PUSH2 0x1F98 PUSH1 0x2F DUP4 PUSH2 0x1F2E JUMP JUMPDEST SWAP2 POP PUSH2 0x1FA3 DUP3 PUSH2 0x1F3E JUMP JUMPDEST PUSH1 0x40 DUP3 ADD SWAP1 POP SWAP2 SWAP1 POP JUMP JUMPDEST PUSH0 PUSH1 0x20 DUP3 ADD SWAP1 POP DUP2 DUP2 SUB PUSH0 DUP4 ADD MSTORE PUSH2 0x1FC5 DUP2 PUSH2 0x1F8C JUMP JUMPDEST SWAP1 POP SWAP2 SWAP1 POP JUMP JUMPDEST PUSH32 0x526563697069656E747320616E6420746F6B656E20616D6F756E7473206C656E PUSH0 DUP3 ADD MSTORE PUSH32 0x677468206D69736D617463680000000000000000000000000000000000000000 PUSH1 0x20 DUP3 ADD MSTORE POP JUMP JUMPDEST PUSH0 PUSH2 0x2026 PUSH1 0x2C DUP4 PUSH2 0x1F2E JUMP JUMPDEST SWAP2 POP PUSH2 0x2031 DUP3 PUSH2 0x1FCC JUMP JUMPDEST PUSH1 0x40 DUP3 ADD SWAP1 POP SWAP2 SWAP1 POP JUMP JUMPDEST PUSH0 PUSH1 0x20 DUP3 ADD SWAP1 POP DUP2 DUP2 SUB PUSH0 DUP4 ADD MSTORE PUSH2 0x2053 DUP2 PUSH2 0x201A JUMP JUMPDEST SWAP1 POP SWAP2 SWAP1 POP JUMP JUMPDEST PUSH32 0x4E487B7100000000000000000000000000000000000000000000000000000000 PUSH0 MSTORE PUSH1 0x32 PUSH1 0x4 MSTORE PUSH1 0x24 PUSH0 REVERT JUMPDEST PUSH2 0x2090 DUP2 PUSH2 0x1AF3 JUMP JUMPDEST DUP3 MSTORE POP POP JUMP JUMPDEST PUSH0 PUSH1 0x40 DUP3 ADD SWAP1 POP PUSH2 0x20A9 PUSH0 DUP4 ADD DUP6 PUSH2 0x2087 JUMP JUMPDEST PUSH2 0x20B6 PUSH1 0x20 DUP4 ADD DUP5 PUSH2 0x1A45 JUMP JUMPDEST SWAP4 SWAP3 POP POP POP JUMP JUMPDEST PUSH2 0x20C6 DUP2 PUSH2 0x1921 JUMP JUMPDEST DUP2 EQ PUSH2 0x20D0 JUMPI PUSH0 DUP1 REVERT JUMPDEST POP JUMP JUMPDEST PUSH0 DUP2 MLOAD SWAP1 POP PUSH2 0x20E1 DUP2 PUSH2 0x20BD JUMP JUMPDEST SWAP3 SWAP2 POP POP JUMP JUMPDEST PUSH0 PUSH1 0x20 DUP3 DUP5 SUB SLT ISZERO PUSH2 0x20FC JUMPI PUSH2 0x20FB PUSH2 0x1899 JUMP JUMPDEST JUMPDEST PUSH0 PUSH2 0x2109 DUP5 DUP3 DUP6 ADD PUSH2 0x20D3 JUMP JUMPDEST SWAP2 POP POP SWAP3 SWAP2 POP POP JUMP JUMPDEST PUSH32 0x546F6B656E207472616E73666572206661696C65640000000000000000000000 PUSH0 DUP3 ADD MSTORE POP JUMP JUMPDEST PUSH0 PUSH2 0x2146 PUSH1 0x15 DUP4 PUSH2 0x1F2E JUMP JUMPDEST SWAP2 POP PUSH2 0x2151 DUP3 PUSH2 0x2112 JUMP JUMPDEST PUSH1 0x20 DUP3 ADD SWAP1 POP SWAP2 SWAP1 POP JUMP JUMPDEST PUSH0 PUSH1 0x20 DUP3 ADD SWAP1 POP DUP2 DUP2 SUB PUSH0 DUP4 ADD MSTORE PUSH2 0x2173 DUP2 PUSH2 0x213A JUMP JUMPDEST SWAP1 POP SWAP2 SWAP1 POP JUMP JUMPDEST PUSH0 DUP3 DUP3 MSTORE PUSH1 0x20 DUP3 ADD SWAP1 POP SWAP3 SWAP2 POP POP JUMP JUMPDEST PUSH0 DUP2 SWAP1 POP SWAP2 SWAP1 POP JUMP JUMPDEST PUSH2 0x219C DUP2 PUSH2 0x1AF3 JUMP JUMPDEST DUP3 MSTORE POP POP JUMP JUMPDEST PUSH0 PUSH2 0x21AD DUP4 DUP4 PUSH2 0x2193 JUMP JUMPDEST PUSH1 0x20 DUP4 ADD SWAP1 POP SWAP3 SWAP2 POP POP JUMP JUMPDEST PUSH0 PUSH2 0x21C7 PUSH1 0x20 DUP5 ADD DUP5 PUSH2 0x1B1A JUMP JUMPDEST SWAP1 POP SWAP3 SWAP2 POP POP JUMP JUMPDEST PUSH0 PUSH1 0x20 DUP3 ADD SWAP1 POP SWAP2 SWAP1 POP JUMP JUMPDEST PUSH0 PUSH2 0x21E6 DUP4 DUP6 PUSH2 0x217A JUMP JUMPDEST SWAP4 POP PUSH2 0x21F1 DUP3 PUSH2 0x218A JUMP JUMPDEST DUP1 PUSH0 JUMPDEST DUP6 DUP2 LT ISZERO PUSH2 0x2229 JUMPI PUSH2 0x2206 DUP3 DUP5 PUSH2 0x21B9 JUMP JUMPDEST PUSH2 0x2210 DUP9 DUP3 PUSH2 0x21A2 JUMP JUMPDEST SWAP8 POP PUSH2 0x221B DUP4 PUSH2 0x21CF JUMP JUMPDEST SWAP3 POP POP PUSH1 0x1 DUP2 ADD SWAP1 POP PUSH2 0x21F4 JUMP JUMPDEST POP DUP6 SWAP3 POP POP POP SWAP4 SWAP3 POP POP POP JUMP JUMPDEST PUSH0 DUP3 DUP3 MSTORE PUSH1 0x20 DUP3 ADD SWAP1 POP SWAP3 SWAP2 POP POP JUMP JUMPDEST PUSH0 DUP1 REVERT JUMPDEST DUP3 DUP2 DUP4 CALLDATACOPY POP POP POP JUMP JUMPDEST PUSH0 PUSH2 0x225E DUP4 DUP6 PUSH2 0x2236 JUMP JUMPDEST SWAP4 POP PUSH32 0x7FFFFFFFFFFFFFFFFFFFFFFFFFFFFFFFFFFFFFFFFFFFFFFFFFFFFFFFFFFFFFF DUP4 GT ISZERO PUSH2 0x2291 JUMPI PUSH2 0x2290 PUSH2 0x2246 JUMP JUMPDEST JUMPDEST PUSH1 0x20 DUP4 MUL SWAP3 POP PUSH2 0x22A2 DUP4 DUP6 DUP5 PUSH2 0x224A JUMP JUMPDEST DUP3 DUP5 ADD SWAP1 POP SWAP4 SWAP3 POP POP POP JUMP JUMPDEST PUSH0 PUSH1 0x40 DUP3 ADD SWAP1 POP DUP2 DUP2 SUB PUSH0 DUP4 ADD MSTORE PUSH2 0x22C7 DUP2 DUP7 DUP9 PUSH2 0x21DB JUMP JUMPDEST SWAP1 POP DUP2 DUP2 SUB PUSH1 0x20 DUP4 ADD MSTORE PUSH2 0x22DC DUP2 DUP5 DUP7 PUSH2 0x2253 JUMP JUMPDEST SWAP1 POP SWAP6 SWAP5 POP POP POP POP POP JUMP JUMPDEST PUSH32 0x4D656D62657220646F6573206E6F742065786973740000000000000000000000 PUSH0 DUP3 ADD MSTORE POP JUMP JUMPDEST PUSH0 PUSH2 0x231B PUSH1 0x15 DUP4 PUSH2 0x1F2E JUMP JUMPDEST SWAP2 POP PUSH2 0x2326 DUP3 PUSH2 0x22E7 JUMP JUMPDEST PUSH1 0x20 DUP3 ADD SWAP1 POP SWAP2 SWAP1 POP JUMP JUMPDEST PUSH0 PUSH1 0x20 DUP3 ADD SWAP1 POP DUP2 DUP2 SUB PUSH0 DUP4 ADD MSTORE PUSH2 0x2348 DUP2 PUSH2 0x230F JUMP JUMPDEST SWAP1 POP SWAP2 SWAP1 POP JUMP JUMPDEST PUSH32 0x4D656D62657220616C7265616479207265676973746572656400000000000000 PUSH0 DUP3 ADD MSTORE POP JUMP JUMPDEST PUSH0 PUSH2 0x2383 PUSH1 0x19 DUP4 PUSH2 0x1F2E JUMP JUMPDEST SWAP2 POP PUSH2 0x238E DUP3 PUSH2 0x234F JUMP JUMPDEST PUSH1 0x20 DUP3 ADD SWAP1 POP SWAP2 SWAP1 POP JUMP JUMPDEST PUSH0 PUSH1 0x20 DUP3 ADD SWAP1 POP DUP2 DUP2 SUB PUSH0 DUP4 ADD MSTORE PUSH2 0x23B0 DUP2 PUSH2 0x2377 JUMP JUMPDEST SWAP1 POP SWAP2 SWAP1 POP JUMP JUMPDEST PUSH0 PUSH1 0x40 DUP3 ADD SWAP1 POP PUSH2 0x23CA PUSH0 DUP4 ADD DUP6 PUSH2 0x1A45 JUMP JUMPDEST PUSH2 0x23D7 PUSH1 0x20 DUP4 ADD DUP5 PUSH2 0x1A45 JUMP JUMPDEST SWAP4 SWAP3 POP POP POP JUMP JUMPDEST PUSH32 0x4368616C6C656E67652073636F726520646F6573206E6F742065786973740000 PUSH0 DUP3 ADD MSTORE POP JUMP JUMPDEST PUSH0 PUSH2 0x2412 PUSH1 0x1E DUP4 PUSH2 0x1F2E JUMP JUMPDEST SWAP2 POP PUSH2 0x241D DUP3 PUSH2 0x23DE JUMP JUMPDEST PUSH1 0x20 DUP3 ADD SWAP1 POP SWAP2 SWAP1 POP JUMP JUMPDEST PUSH0 PUSH1 0x20 DUP3 ADD SWAP1 POP DUP2 DUP2 SUB PUSH0 DUP4 ADD MSTORE PUSH2 0x243F DUP2 PUSH2 0x2406 JUMP JUMPDEST SWAP1 POP SWAP2 SWAP1 POP JUMP JUMPDEST PUSH32 0x4368616C6C656E676520616C72656164792065786973747320666F7220746869 PUSH0 DUP3 ADD MSTORE PUSH32 0x73206D656D6265722C20646174652C20616E642067616D650000000000000000 PUSH1 0x20 DUP3 ADD MSTORE POP JUMP JUMPDEST PUSH0 PUSH2 0x24A0 PUSH1 0x38 DUP4 PUSH2 0x1F2E JUMP JUMPDEST SWAP2 POP PUSH2 0x24AB DUP3 PUSH2 0x2446 JUMP JUMPDEST PUSH1 0x40 DUP3 ADD SWAP1 POP SWAP2 SWAP1 POP JUMP JUMPDEST PUSH0 PUSH1 0x20 DUP3 ADD SWAP1 POP DUP2 DUP2 SUB PUSH0 DUP4 ADD MSTORE PUSH2 0x24CD DUP2 PUSH2 0x2494 JUMP JUMPDEST SWAP1 POP SWAP2 SWAP1 POP JUMP JUMPDEST PUSH0 PUSH1 0x40 DUP3 ADD SWAP1 POP PUSH2 0x24E7 PUSH0 DUP4 ADD DUP6 PUSH2 0x2087 JUMP JUMPDEST PUSH2 0x24F4 PUSH1 0x20 DUP4 ADD DUP5 PUSH2 0x2087 JUMP JUMPDEST SWAP4 SWAP3 POP POP POP JUMP JUMPDEST PUSH0 DUP2 MLOAD SWAP1 POP PUSH2 0x2509 DUP2 PUSH2 0x19F0 JUMP JUMPDEST SWAP3 SWAP2 POP POP JUMP JUMPDEST PUSH0 PUSH1 0x20 DUP3 DUP5 SUB SLT ISZERO PUSH2 0x2524 JUMPI PUSH2 0x2523 PUSH2 0x1899 JUMP JUMPDEST JUMPDEST PUSH0 PUSH2 0x2531 DUP5 DUP3 DUP6 ADD PUSH2 0x24FB JUMP JUMPDEST SWAP2 POP POP SWAP3 SWAP2 POP POP JUMP JUMPDEST PUSH32 0x496E73756666696369656E7420746F6B656E20616C6C6F77616E636500000000 PUSH0 DUP3 ADD MSTORE POP JUMP JUMPDEST PUSH0 PUSH2 0x256E PUSH1 0x1C DUP4 PUSH2 0x1F2E JUMP JUMPDEST SWAP2 POP PUSH2 0x2579 DUP3 PUSH2 0x253A JUMP JUMPDEST PUSH1 0x20 DUP3 ADD SWAP1 POP SWAP2 SWAP1 POP JUMP JUMPDEST PUSH0 PUSH1 0x20 DUP3 ADD SWAP1 POP DUP2 DUP2 SUB PUSH0 DUP4 ADD MSTORE PUSH2 0x259B DUP2 PUSH2 0x2562 JUMP JUMPDEST SWAP1 POP SWAP2 SWAP1 POP JUMP JUMPDEST PUSH0 PUSH1 0x20 DUP3 ADD SWAP1 POP PUSH2 0x25B5 PUSH0 DUP4 ADD DUP5 PUSH2 0x2087 JUMP JUMPDEST SWAP3 SWAP2 POP POP JUMP JUMPDEST PUSH32 0x496E73756666696369656E7420746F6B656E2062616C616E6365000000000000 PUSH0 DUP3 ADD MSTORE POP JUMP JUMPDEST PUSH0 PUSH2 0x25EF PUSH1 0x1A DUP4 PUSH2 0x1F2E JUMP JUMPDEST SWAP2 POP PUSH2 0x25FA DUP3 PUSH2 0x25BB JUMP JUMPDEST PUSH1 0x20 DUP3 ADD SWAP1 POP SWAP2 SWAP1 POP JUMP JUMPDEST PUSH0 PUSH1 0x20 DUP3 ADD SWAP1 POP DUP2 DUP2 SUB PUSH0 DUP4 ADD MSTORE PUSH2 0x261C DUP2 PUSH2 0x25E3 JUMP JUMPDEST SWAP1 POP SWAP2 SWAP1 POP JUMP JUMPDEST PUSH0 PUSH1 0x60 DUP3 ADD SWAP1 POP PUSH2 0x2636 PUSH0 DUP4 ADD DUP7 PUSH2 0x2087 JUMP JUMPDEST PUSH2 0x2643 PUSH1 0x20 DUP4 ADD DUP6 PUSH2 0x2087 JUMP JUMPDEST PUSH2 0x2650 PUSH1 0x40 DUP4 ADD DUP5 PUSH2 0x1A45 JUMP JUMPDEST SWAP5 SWAP4 POP POP POP POP JUMP JUMPDEST PUSH32 0x4368616C6C656E676520646F6573206E6F742065786973740000000000000000 PUSH0 DUP3 ADD MSTORE POP JUMP JUMPDEST PUSH0 PUSH2 0x268C PUSH1 0x18 DUP4 PUSH2 0x1F2E JUMP JUMPDEST SWAP2 POP PUSH2 0x2697 DUP3 PUSH2 0x2658 JUMP JUMPDEST PUSH1 0x20 DUP3 ADD SWAP1 POP SWAP2 SWAP1 POP JUMP JUMPDEST PUSH0 PUSH1 0x20 DUP3 ADD SWAP1 POP DUP2 DUP2 SUB PUSH0 DUP4 ADD MSTORE PUSH2 0x26B9 DUP2 PUSH2 0x2680 JUMP JUMPDEST SWAP1 POP SWAP2 SWAP1 POP JUMP JUMPDEST PUSH0 DUP2 SWAP1 POP SWAP3 SWAP2 POP POP JUMP JUMPDEST PUSH32 0x416363657373436F6E74726F6C3A206163636F756E7420000000000000000000 PUSH0 DUP3 ADD MSTORE POP JUMP JUMPDEST PUSH0 PUSH2 0x26FE PUSH1 0x17 DUP4 PUSH2 0x26C0 JUMP JUMPDEST SWAP2 POP PUSH2 0x2709 DUP3 PUSH2 0x26CA JUMP JUMPDEST PUSH1 0x17 DUP3 ADD SWAP1 POP SWAP2 SWAP1 POP JUMP JUMPDEST PUSH0 DUP2 MLOAD SWAP1 POP SWAP2 SWAP1 POP JUMP JUMPDEST DUP3 DUP2 DUP4 MCOPY PUSH0 DUP4 DUP4 ADD MSTORE POP POP POP JUMP JUMPDEST PUSH0 PUSH2 0x2736 DUP3 PUSH2 0x2714 JUMP JUMPDEST PUSH2 0x2740 DUP2 DUP6 PUSH2 0x26C0 JUMP JUMPDEST SWAP4 POP PUSH2 0x2750 DUP2 DUP6 PUSH1 0x20 DUP7 ADD PUSH2 0x271E JUMP JUMPDEST DUP1 DUP5 ADD SWAP2 POP POP SWAP3 SWAP2 POP POP JUMP JUMPDEST PUSH32 0x206973206D697373696E6720726F6C6520000000000000000000000000000000 PUSH0 DUP3 ADD MSTORE POP JUMP JUMPDEST PUSH0 PUSH2 0x2790 PUSH1 0x11 DUP4 PUSH2 0x26C0 JUMP JUMPDEST SWAP2 POP PUSH2 0x279B DUP3 PUSH2 0x275C JUMP JUMPDEST PUSH1 0x11 DUP3 ADD SWAP1 POP SWAP2 SWAP1 POP JUMP JUMPDEST PUSH0 PUSH2 0x27B0 DUP3 PUSH2 0x26F2 JUMP JUMPDEST SWAP2 POP PUSH2 0x27BC DUP3 DUP6 PUSH2 0x272C JUMP JUMPDEST SWAP2 POP PUSH2 0x27C7 DUP3 PUSH2 0x2784 JUMP JUMPDEST SWAP2 POP PUSH2 0x27D3 DUP3 DUP5 PUSH2 0x272C JUMP JUMPDEST SWAP2 POP DUP2 SWAP1 POP SWAP4 SWAP3 POP POP POP JUMP JUMPDEST PUSH0 PUSH1 0x1F NOT PUSH1 0x1F DUP4 ADD AND SWAP1 POP SWAP2 SWAP1 POP JUMP JUMPDEST PUSH0 PUSH2 0x27F9 DUP3 PUSH2 0x2714 JUMP JUMPDEST PUSH2 0x2803 DUP2 DUP6 PUSH2 0x1F2E JUMP JUMPDEST SWAP4 POP PUSH2 0x2813 DUP2 DUP6 PUSH1 0x20 DUP7 ADD PUSH2 0x271E JUMP JUMPDEST PUSH2 0x281C DUP2 PUSH2 0x27DF JUMP JUMPDEST DUP5 ADD SWAP2 POP POP SWAP3 SWAP2 POP POP JUMP JUMPDEST PUSH0 PUSH1 0x20 DUP3 ADD SWAP1 POP DUP2 DUP2 SUB PUSH0 DUP4 ADD MSTORE PUSH2 0x283F DUP2 DUP5 PUSH2 0x27EF JUMP JUMPDEST SWAP1 POP SWAP3 SWAP2 POP POP JUMP JUMPDEST PUSH32 0x4E487B7100000000000000000000000000000000000000000000000000000000 PUSH0 MSTORE PUSH1 0x11 PUSH1 0x4 MSTORE PUSH1 0x24 PUSH0 REVERT JUMPDEST PUSH0 PUSH2 0x287E DUP3 PUSH2 0x19E7 JUMP JUMPDEST SWAP2 POP PUSH2 0x2889 DUP4 PUSH2 0x19E7 JUMP JUMPDEST SWAP3 POP DUP3 DUP3 MUL PUSH2 0x2897 DUP2 PUSH2 0x19E7 JUMP JUMPDEST SWAP2 POP DUP3 DUP3 DIV DUP5 EQ DUP4 ISZERO OR PUSH2 0x28AE JUMPI PUSH2 0x28AD PUSH2 0x2847 JUMP JUMPDEST JUMPDEST POP SWAP3 SWAP2 POP POP JUMP JUMPDEST PUSH0 PUSH2 0x28BF DUP3 PUSH2 0x19E7 JUMP JUMPDEST SWAP2 POP PUSH2 0x28CA DUP4 PUSH2 0x19E7 JUMP JUMPDEST SWAP3 POP DUP3 DUP3 ADD SWAP1 POP DUP1 DUP3 GT ISZERO PUSH2 0x28E2 JUMPI PUSH2 0x28E1 PUSH2 0x2847 JUMP JUMPDEST JUMPDEST SWAP3 SWAP2 POP POP JUMP JUMPDEST PUSH32 0x4E487B7100000000000000000000000000000000000000000000000000000000 PUSH0 MSTORE PUSH1 0x41 PUSH1 0x4 MSTORE PUSH1 0x24 PUSH0 REVERT JUMPDEST PUSH0 PUSH2 0x291F DUP3 PUSH2 0x19E7 JUMP JUMPDEST SWAP2 POP PUSH0 DUP3 SUB PUSH2 0x2931 JUMPI PUSH2 0x2930 PUSH2 0x2847 JUMP JUMPDEST JUMPDEST PUSH1 0x1 DUP3 SUB SWAP1 POP SWAP2 SWAP1 POP JUMP JUMPDEST PUSH32 0x537472696E67733A20686578206C656E67746820696E73756666696369656E74 PUSH0 DUP3 ADD MSTORE POP JUMP JUMPDEST PUSH0 PUSH2 0x2970 PUSH1 0x20 DUP4 PUSH2 0x1F2E JUMP JUMPDEST SWAP2 POP PUSH2 0x297B DUP3 PUSH2 0x293C JUMP JUMPDEST PUSH1 0x20 DUP3 ADD SWAP1 POP SWAP2 SWAP1 POP JUMP JUMPDEST PUSH0 PUSH1 0x20 DUP3 ADD SWAP1 POP DUP2 DUP2 SUB PUSH0 DUP4 ADD MSTORE PUSH2 0x299D DUP2 PUSH2 0x2964 JUMP JUMPDEST SWAP1 POP SWAP2 SWAP1 POP JUMP INVALID LOG2 PUSH5 0x6970667358 0x22 SLT KECCAK256 DUP9 BLOBHASH CALLDATACOPY 0xD8 0xE 0xC3 0xAF 0xA8 0xF OR PUSH11 0x7AC4AF6445EAA14E0C6DD9 ORIGIN 0xDA RETURNDATASIZE DUP5 PUSH22 0x917F4604FD64736F6C634300081A0033000000000000 "
				},
				"gasEstimates": {
					"creation": {
						"codeDepositCost": "2142800",
						"executionCost": "infinite",
						"totalCost": "infinite"
					},
					"external": {
						"ADMIN_ROLE()": "414",
						"DEFAULT_ADMIN_ROLE()": "375",
						"challengeRegister(uint256,uint256,uint256,uint256)": "infinite",
						"challengeScores(uint256,uint256,uint256)": "infinite",
						"distributePrizes(address[],uint256[])": "infinite",
						"entToken()": "infinite",
						"getChallengeScore(uint256,uint256,uint256)": "infinite",
						"getMemberInfo(uint256)": "infinite",
						"getRoleAdmin(bytes32)": "infinite",
						"grantAdminRole(address)": "infinite",
						"grantRole(bytes32,address)": "infinite",
						"hasRole(bytes32,address)": "3255",
						"memberIds(uint256)": "infinite",
						"memberInfos(uint256)": "infinite",
						"memberRegister(uint256,address,uint256)": "infinite",
						"rankScoreUpdateChallenge(uint256,uint256,uint256,uint256)": "infinite",
						"rankScoreUpdateNormal(uint256,uint256,uint256,uint256)": "infinite",
						"renounceRole(bytes32,address)": "infinite",
						"revokeAdminRole(address)": "infinite",
						"revokeRole(bytes32,address)": "infinite",
						"rptToken()": "infinite",
						"setTokens(address,address)": "infinite",
						"supportsInterface(bytes4)": "741"
					}
				},
				"methodIdentifiers": {
					"ADMIN_ROLE()": "75b238fc",
					"DEFAULT_ADMIN_ROLE()": "a217fddf",
					"challengeRegister(uint256,uint256,uint256,uint256)": "ca1c996f",
					"challengeScores(uint256,uint256,uint256)": "355b9d3f",
					"distributePrizes(address[],uint256[])": "406a378a",
					"entToken()": "dd0c8082",
					"getChallengeScore(uint256,uint256,uint256)": "b5b0e48a",
					"getMemberInfo(uint256)": "ae99aa3c",
					"getRoleAdmin(bytes32)": "248a9ca3",
					"grantAdminRole(address)": "c634b78e",
					"grantRole(bytes32,address)": "2f2ff15d",
					"hasRole(bytes32,address)": "91d14854",
					"memberIds(uint256)": "1fd3c85b",
					"memberInfos(uint256)": "bb10ab0f",
					"memberRegister(uint256,address,uint256)": "aea08734",
					"rankScoreUpdateChallenge(uint256,uint256,uint256,uint256)": "dd7d2b9f",
					"rankScoreUpdateNormal(uint256,uint256,uint256,uint256)": "8525ea16",
					"renounceRole(bytes32,address)": "36568abe",
					"revokeAdminRole(address)": "9a19c7b0",
					"revokeRole(bytes32,address)": "d547741f",
					"rptToken()": "1b72fa3a",
					"setTokens(address,address)": "cbc7854e",
					"supportsInterface(bytes4)": "01ffc9a7"
				}
			},
			"storageLayout": {
				"storage": [
					{
						"astId": 543,
						"contract": "contracts/v2/TikTrixEscrow.sol:TikTrixEscrow",
						"label": "_roles",
						"offset": 0,
						"slot": "0",
						"type": "t_mapping(t_bytes32,t_struct(RoleData)538_storage)"
					},
					{
						"astId": 23,
						"contract": "contracts/v2/TikTrixEscrow.sol:TikTrixEscrow",
						"label": "entToken",
						"offset": 0,
						"slot": "1",
						"type": "t_contract(IERC20Mintable)13"
					},
					{
						"astId": 26,
						"contract": "contracts/v2/TikTrixEscrow.sol:TikTrixEscrow",
						"label": "rptToken",
						"offset": 0,
						"slot": "2",
						"type": "t_contract(IERC20Mintable)13"
					},
					{
						"astId": 45,
						"contract": "contracts/v2/TikTrixEscrow.sol:TikTrixEscrow",
						"label": "memberInfos",
						"offset": 0,
						"slot": "3",
						"type": "t_mapping(t_uint256,t_struct(MemberInfo)29_storage)"
					},
					{
						"astId": 48,
						"contract": "contracts/v2/TikTrixEscrow.sol:TikTrixEscrow",
						"label": "memberIds",
						"offset": 0,
						"slot": "4",
						"type": "t_array(t_uint256)dyn_storage"
					},
					{
						"astId": 57,
						"contract": "contracts/v2/TikTrixEscrow.sol:TikTrixEscrow",
						"label": "challengeScores",
						"offset": 0,
						"slot": "5",
						"type": "t_mapping(t_uint256,t_mapping(t_uint256,t_mapping(t_uint256,t_struct(ChallengeScore)40_storage)))"
					}
				],
				"types": {
					"t_address": {
						"encoding": "inplace",
						"label": "address",
						"numberOfBytes": "20"
					},
					"t_array(t_uint256)dyn_storage": {
						"base": "t_uint256",
						"encoding": "dynamic_array",
						"label": "uint256[]",
						"numberOfBytes": "32"
					},
					"t_bool": {
						"encoding": "inplace",
						"label": "bool",
						"numberOfBytes": "1"
					},
					"t_bytes32": {
						"encoding": "inplace",
						"label": "bytes32",
						"numberOfBytes": "32"
					},
					"t_contract(IERC20Mintable)13": {
						"encoding": "inplace",
						"label": "contract IERC20Mintable",
						"numberOfBytes": "20"
					},
					"t_mapping(t_address,t_bool)": {
						"encoding": "mapping",
						"key": "t_address",
						"label": "mapping(address => bool)",
						"numberOfBytes": "32",
						"value": "t_bool"
					},
					"t_mapping(t_bytes32,t_struct(RoleData)538_storage)": {
						"encoding": "mapping",
						"key": "t_bytes32",
						"label": "mapping(bytes32 => struct AccessControl.RoleData)",
						"numberOfBytes": "32",
						"value": "t_struct(RoleData)538_storage"
					},
					"t_mapping(t_uint256,t_mapping(t_uint256,t_mapping(t_uint256,t_struct(ChallengeScore)40_storage)))": {
						"encoding": "mapping",
						"key": "t_uint256",
						"label": "mapping(uint256 => mapping(uint256 => mapping(uint256 => struct TikTrixEscrow.ChallengeScore)))",
						"numberOfBytes": "32",
						"value": "t_mapping(t_uint256,t_mapping(t_uint256,t_struct(ChallengeScore)40_storage))"
					},
					"t_mapping(t_uint256,t_mapping(t_uint256,t_struct(ChallengeScore)40_storage))": {
						"encoding": "mapping",
						"key": "t_uint256",
						"label": "mapping(uint256 => mapping(uint256 => struct TikTrixEscrow.ChallengeScore))",
						"numberOfBytes": "32",
						"value": "t_mapping(t_uint256,t_struct(ChallengeScore)40_storage)"
					},
					"t_mapping(t_uint256,t_struct(ChallengeScore)40_storage)": {
						"encoding": "mapping",
						"key": "t_uint256",
						"label": "mapping(uint256 => struct TikTrixEscrow.ChallengeScore)",
						"numberOfBytes": "32",
						"value": "t_struct(ChallengeScore)40_storage"
					},
					"t_mapping(t_uint256,t_struct(MemberInfo)29_storage)": {
						"encoding": "mapping",
						"key": "t_uint256",
						"label": "mapping(uint256 => struct TikTrixEscrow.MemberInfo)",
						"numberOfBytes": "32",
						"value": "t_struct(MemberInfo)29_storage"
					},
					"t_struct(ChallengeScore)40_storage": {
						"encoding": "inplace",
						"label": "struct TikTrixEscrow.ChallengeScore",
						"members": [
							{
								"astId": 31,
								"contract": "contracts/v2/TikTrixEscrow.sol:TikTrixEscrow",
								"label": "gameSeq",
								"offset": 0,
								"slot": "0",
								"type": "t_uint256"
							},
							{
								"astId": 33,
								"contract": "contracts/v2/TikTrixEscrow.sol:TikTrixEscrow",
								"label": "memberSeq",
								"offset": 0,
								"slot": "1",
								"type": "t_uint256"
							},
							{
								"astId": 35,
								"contract": "contracts/v2/TikTrixEscrow.sol:TikTrixEscrow",
								"label": "tokenAmount",
								"offset": 0,
								"slot": "2",
								"type": "t_uint256"
							},
							{
								"astId": 37,
								"contract": "contracts/v2/TikTrixEscrow.sol:TikTrixEscrow",
								"label": "score",
								"offset": 0,
								"slot": "3",
								"type": "t_uint256"
							},
							{
								"astId": 39,
								"contract": "contracts/v2/TikTrixEscrow.sol:TikTrixEscrow",
								"label": "exists",
								"offset": 0,
								"slot": "4",
								"type": "t_bool"
							}
						],
						"numberOfBytes": "160"
					},
					"t_struct(MemberInfo)29_storage": {
						"encoding": "inplace",
						"label": "struct TikTrixEscrow.MemberInfo",
						"members": [
							{
								"astId": 28,
								"contract": "contracts/v2/TikTrixEscrow.sol:TikTrixEscrow",
								"label": "memberSeq",
								"offset": 0,
								"slot": "0",
								"type": "t_uint256"
							}
						],
						"numberOfBytes": "32"
					},
					"t_struct(RoleData)538_storage": {
						"encoding": "inplace",
						"label": "struct AccessControl.RoleData",
						"members": [
							{
								"astId": 535,
								"contract": "contracts/v2/TikTrixEscrow.sol:TikTrixEscrow",
								"label": "members",
								"offset": 0,
								"slot": "0",
								"type": "t_mapping(t_address,t_bool)"
							},
							{
								"astId": 537,
								"contract": "contracts/v2/TikTrixEscrow.sol:TikTrixEscrow",
								"label": "adminRole",
								"offset": 0,
								"slot": "1",
								"type": "t_bytes32"
							}
						],
						"numberOfBytes": "64"
					},
					"t_uint256": {
						"encoding": "inplace",
						"label": "uint256",
						"numberOfBytes": "32"
					}
				}
			},
			"userdoc": {
				"kind": "user",
				"methods": {},
				"version": 1
			}
		}
	}
}