{
	"contracts/v2/TikTrixGame.sol": {
		"TikTrixGame": {
			"abi": [
				{
					"inputs": [],
					"stateMutability": "nonpayable",
					"type": "constructor"
				},
				{
					"anonymous": false,
					"inputs": [
						{
							"indexed": true,
							"internalType": "uint256",
							"name": "gameSeq",
							"type": "uint256"
						}
					],
					"name": "GameDeleted",
					"type": "event"
				},
				{
					"anonymous": false,
					"inputs": [
						{
							"indexed": false,
							"internalType": "uint256",
							"name": "developerSeq",
							"type": "uint256"
						},
						{
							"indexed": false,
							"internalType": "uint256",
							"name": "gameSeq",
							"type": "uint256"
						},
						{
							"indexed": false,
							"internalType": "string",
							"name": "title",
							"type": "string"
						}
					],
					"name": "GameRegistered",
					"type": "event"
				},
				{
					"anonymous": false,
					"inputs": [
						{
							"indexed": false,
							"internalType": "uint256",
							"name": "developerSeq",
							"type": "uint256"
						},
						{
							"indexed": false,
							"internalType": "uint256",
							"name": "gameSeq",
							"type": "uint256"
						},
						{
							"indexed": false,
							"internalType": "string",
							"name": "title",
							"type": "string"
						}
					],
					"name": "GameUpdated",
					"type": "event"
				},
				{
					"anonymous": false,
					"inputs": [
						{
							"indexed": true,
							"internalType": "bytes32",
							"name": "role",
							"type": "bytes32"
						},
						{
							"indexed": true,
							"internalType": "bytes32",
							"name": "previousAdminRole",
							"type": "bytes32"
						},
						{
							"indexed": true,
							"internalType": "bytes32",
							"name": "newAdminRole",
							"type": "bytes32"
						}
					],
					"name": "RoleAdminChanged",
					"type": "event"
				},
				{
					"anonymous": false,
					"inputs": [
						{
							"indexed": true,
							"internalType": "bytes32",
							"name": "role",
							"type": "bytes32"
						},
						{
							"indexed": true,
							"internalType": "address",
							"name": "account",
							"type": "address"
						},
						{
							"indexed": true,
							"internalType": "address",
							"name": "sender",
							"type": "address"
						}
					],
					"name": "RoleGranted",
					"type": "event"
				},
				{
					"anonymous": false,
					"inputs": [
						{
							"indexed": true,
							"internalType": "bytes32",
							"name": "role",
							"type": "bytes32"
						},
						{
							"indexed": true,
							"internalType": "address",
							"name": "account",
							"type": "address"
						},
						{
							"indexed": true,
							"internalType": "address",
							"name": "sender",
							"type": "address"
						}
					],
					"name": "RoleRevoked",
					"type": "event"
				},
				{
					"inputs": [],
					"name": "ADMIN_ROLE",
					"outputs": [
						{
							"internalType": "bytes32",
							"name": "",
							"type": "bytes32"
						}
					],
					"stateMutability": "view",
					"type": "function"
				},
				{
					"inputs": [],
					"name": "DEFAULT_ADMIN_ROLE",
					"outputs": [
						{
							"internalType": "bytes32",
							"name": "",
							"type": "bytes32"
						}
					],
					"stateMutability": "view",
					"type": "function"
				},
				{
					"inputs": [
						{
							"internalType": "uint256",
							"name": "gameSeq",
							"type": "uint256"
						}
					],
					"name": "gameDelete",
					"outputs": [],
					"stateMutability": "nonpayable",
					"type": "function"
				},
				{
					"inputs": [
						{
							"internalType": "uint256",
							"name": "",
							"type": "uint256"
						}
					],
					"name": "gameInfos",
					"outputs": [
						{
							"internalType": "uint256",
							"name": "developerSeq",
							"type": "uint256"
						},
						{
							"internalType": "uint256",
							"name": "gameSeq",
							"type": "uint256"
						},
						{
							"internalType": "string",
							"name": "title",
							"type": "string"
						},
						{
							"internalType": "bool",
							"name": "exists",
							"type": "bool"
						}
					],
					"stateMutability": "view",
					"type": "function"
				},
				{
					"inputs": [
						{
							"internalType": "uint256",
							"name": "developerSeq",
							"type": "uint256"
						},
						{
							"internalType": "uint256",
							"name": "gameSeq",
							"type": "uint256"
						},
						{
							"internalType": "string",
							"name": "title",
							"type": "string"
						}
					],
					"name": "gameRegister",
					"outputs": [],
					"stateMutability": "nonpayable",
					"type": "function"
				},
				{
					"inputs": [
						{
							"internalType": "uint256",
							"name": "developerSeq",
							"type": "uint256"
						},
						{
							"internalType": "uint256",
							"name": "gameSeq",
							"type": "uint256"
						},
						{
							"internalType": "string",
							"name": "title",
							"type": "string"
						}
					],
					"name": "gameUpdate",
					"outputs": [],
					"stateMutability": "nonpayable",
					"type": "function"
				},
				{
					"inputs": [
						{
							"internalType": "uint256",
							"name": "gameSeq",
							"type": "uint256"
						}
					],
					"name": "getGameInfo",
					"outputs": [
						{
							"components": [
								{
									"internalType": "uint256",
									"name": "developerSeq",
									"type": "uint256"
								},
								{
									"internalType": "uint256",
									"name": "gameSeq",
									"type": "uint256"
								},
								{
									"internalType": "string",
									"name": "title",
									"type": "string"
								},
								{
									"internalType": "bool",
									"name": "exists",
									"type": "bool"
								}
							],
							"internalType": "struct TikTrixGame.GameInfo",
							"name": "",
							"type": "tuple"
						}
					],
					"stateMutability": "view",
					"type": "function"
				},
				{
					"inputs": [
						{
							"internalType": "bytes32",
							"name": "role",
							"type": "bytes32"
						}
					],
					"name": "getRoleAdmin",
					"outputs": [
						{
							"internalType": "bytes32",
							"name": "",
							"type": "bytes32"
						}
					],
					"stateMutability": "view",
					"type": "function"
				},
				{
					"inputs": [
						{
							"internalType": "address",
							"name": "account",
							"type": "address"
						}
					],
					"name": "grantAdminRole",
					"outputs": [],
					"stateMutability": "nonpayable",
					"type": "function"
				},
				{
					"inputs": [
						{
							"internalType": "bytes32",
							"name": "role",
							"type": "bytes32"
						},
						{
							"internalType": "address",
							"name": "account",
							"type": "address"
						}
					],
					"name": "grantRole",
					"outputs": [],
					"stateMutability": "nonpayable",
					"type": "function"
				},
				{
					"inputs": [
						{
							"internalType": "bytes32",
							"name": "role",
							"type": "bytes32"
						},
						{
							"internalType": "address",
							"name": "account",
							"type": "address"
						}
					],
					"name": "hasRole",
					"outputs": [
						{
							"internalType": "bool",
							"name": "",
							"type": "bool"
						}
					],
					"stateMutability": "view",
					"type": "function"
				},
				{
					"inputs": [
						{
							"internalType": "uint256",
							"name": "gameSeq",
							"type": "uint256"
						}
					],
					"name": "isGameExists",
					"outputs": [
						{
							"internalType": "bool",
							"name": "",
							"type": "bool"
						}
					],
					"stateMutability": "view",
					"type": "function"
				},
				{
					"inputs": [
						{
							"internalType": "bytes32",
							"name": "role",
							"type": "bytes32"
						},
						{
							"internalType": "address",
							"name": "account",
							"type": "address"
						}
					],
					"name": "renounceRole",
					"outputs": [],
					"stateMutability": "nonpayable",
					"type": "function"
				},
				{
					"inputs": [
						{
							"internalType": "address",
							"name": "account",
							"type": "address"
						}
					],
					"name": "revokeAdminRole",
					"outputs": [],
					"stateMutability": "nonpayable",
					"type": "function"
				},
				{
					"inputs": [
						{
							"internalType": "bytes32",
							"name": "role",
							"type": "bytes32"
						},
						{
							"internalType": "address",
							"name": "account",
							"type": "address"
						}
					],
					"name": "revokeRole",
					"outputs": [],
					"stateMutability": "nonpayable",
					"type": "function"
				},
				{
					"inputs": [
						{
							"internalType": "bytes4",
							"name": "interfaceId",
							"type": "bytes4"
						}
					],
					"name": "supportsInterface",
					"outputs": [
						{
							"internalType": "bool",
							"name": "",
							"type": "bool"
						}
					],
					"stateMutability": "view",
					"type": "function"
				}
			],
			"devdoc": {
				"events": {
					"RoleAdminChanged(bytes32,bytes32,bytes32)": {
						"details": "Emitted when `newAdminRole` is set as ``role``'s admin role, replacing `previousAdminRole` `DEFAULT_ADMIN_ROLE` is the starting admin for all roles, despite {RoleAdminChanged} not being emitted signaling this. _Available since v3.1._"
					},
					"RoleGranted(bytes32,address,address)": {
						"details": "Emitted when `account` is granted `role`. `sender` is the account that originated the contract call, an admin role bearer except when using {AccessControl-_setupRole}."
					},
					"RoleRevoked(bytes32,address,address)": {
						"details": "Emitted when `account` is revoked `role`. `sender` is the account that originated the contract call:   - if using `revokeRole`, it is the admin role bearer   - if using `renounceRole`, it is the role bearer (i.e. `account`)"
					}
				},
				"kind": "dev",
				"methods": {
					"getRoleAdmin(bytes32)": {
						"details": "Returns the admin role that controls `role`. See {grantRole} and {revokeRole}. To change a role's admin, use {_setRoleAdmin}."
					},
					"grantRole(bytes32,address)": {
						"details": "Grants `role` to `account`. If `account` had not been already granted `role`, emits a {RoleGranted} event. Requirements: - the caller must have ``role``'s admin role. May emit a {RoleGranted} event."
					},
					"hasRole(bytes32,address)": {
						"details": "Returns `true` if `account` has been granted `role`."
					},
					"renounceRole(bytes32,address)": {
						"details": "Revokes `role` from the calling account. Roles are often managed via {grantRole} and {revokeRole}: this function's purpose is to provide a mechanism for accounts to lose their privileges if they are compromised (such as when a trusted device is misplaced). If the calling account had been revoked `role`, emits a {RoleRevoked} event. Requirements: - the caller must be `account`. May emit a {RoleRevoked} event."
					},
					"revokeRole(bytes32,address)": {
						"details": "Revokes `role` from `account`. If `account` had been granted `role`, emits a {RoleRevoked} event. Requirements: - the caller must have ``role``'s admin role. May emit a {RoleRevoked} event."
					},
					"supportsInterface(bytes4)": {
						"details": "See {IERC165-supportsInterface}."
					}
				},
				"version": 1
			},
			"evm": {
				"assembly": "    /* \"contracts/v2/TikTrixGame.sol\":281:2466  contract TikTrixGame is AccessControl {... */\n  mstore(0x40, 0x80)\n    /* \"contracts/v2/TikTrixGame.sol\":775:892  constructor() {... */\n  callvalue\n  dup1\n  iszero\n  tag_1\n  jumpi\n  0x00\n  dup1\n  revert\ntag_1:\n  pop\n    /* \"contracts/v2/TikTrixGame.sol\":799:841  _setupRole(DEFAULT_ADMIN_ROLE, msg.sender) */\n  tag_4\n    /* \"https://github.com/OpenZeppelin/openzeppelin-contracts/blob/v4.8.0/contracts/access/AccessControl.sol\":2072:2076  0x00 */\n  0x00\n    /* \"contracts/v2/TikTrixGame.sol\":810:828  DEFAULT_ADMIN_ROLE */\n  dup1\n  shl\n    /* \"contracts/v2/TikTrixGame.sol\":830:840  msg.sender */\n  caller\n    /* \"contracts/v2/TikTrixGame.sol\":799:809  _setupRole */\n  shl(0x20, tag_5)\n    /* \"contracts/v2/TikTrixGame.sol\":799:841  _setupRole(DEFAULT_ADMIN_ROLE, msg.sender) */\n  0x20\n  shr\n  jump\t// in\ntag_4:\n    /* \"contracts/v2/TikTrixGame.sol\":851:885  _setupRole(ADMIN_ROLE, msg.sender) */\n  tag_6\n    /* \"contracts/v2/TikTrixGame.sol\":362:385  keccak256(\"ADMIN_ROLE\") */\n  0xa49807205ce4d355092ef5a8a18f56e8913cf4a201fbe287825b095693c21775\n    /* \"contracts/v2/TikTrixGame.sol\":874:884  msg.sender */\n  caller\n    /* \"contracts/v2/TikTrixGame.sol\":851:861  _setupRole */\n  shl(0x20, tag_5)\n    /* \"contracts/v2/TikTrixGame.sol\":851:885  _setupRole(ADMIN_ROLE, msg.sender) */\n  0x20\n  shr\n  jump\t// in\ntag_6:\n    /* \"contracts/v2/TikTrixGame.sol\":281:2466  contract TikTrixGame is AccessControl {... */\n  jump(tag_7)\n    /* \"https://github.com/OpenZeppelin/openzeppelin-contracts/blob/v4.8.0/contracts/access/AccessControl.sol\":6811:6921  function _setupRole(bytes32 role, address account) internal virtual {... */\ntag_5:\n    /* \"https://github.com/OpenZeppelin/openzeppelin-contracts/blob/v4.8.0/contracts/access/AccessControl.sol\":6889:6914  _grantRole(role, account) */\n  tag_9\n    /* \"https://github.com/OpenZeppelin/openzeppelin-contracts/blob/v4.8.0/contracts/access/AccessControl.sol\":6900:6904  role */\n  dup3\n    /* \"https://github.com/OpenZeppelin/openzeppelin-contracts/blob/v4.8.0/contracts/access/AccessControl.sol\":6906:6913  account */\n  dup3\n    /* \"https://github.com/OpenZeppelin/openzeppelin-contracts/blob/v4.8.0/contracts/access/AccessControl.sol\":6889:6899  _grantRole */\n  shl(0x20, tag_10)\n    /* \"https://github.com/OpenZeppelin/openzeppelin-contracts/blob/v4.8.0/contracts/access/AccessControl.sol\":6889:6914  _grantRole(role, account) */\n  0x20\n  shr\n  jump\t// in\ntag_9:\n    /* \"https://github.com/OpenZeppelin/openzeppelin-contracts/blob/v4.8.0/contracts/access/AccessControl.sol\":6811:6921  function _setupRole(bytes32 role, address account) internal virtual {... */\n  pop\n  pop\n  jump\t// out\n    /* \"https://github.com/OpenZeppelin/openzeppelin-contracts/blob/v4.8.0/contracts/access/AccessControl.sol\":7461:7694  function _grantRole(bytes32 role, address account) internal virtual {... */\ntag_10:\n    /* \"https://github.com/OpenZeppelin/openzeppelin-contracts/blob/v4.8.0/contracts/access/AccessControl.sol\":7544:7566  hasRole(role, account) */\n  tag_12\n    /* \"https://github.com/OpenZeppelin/openzeppelin-contracts/blob/v4.8.0/contracts/access/AccessControl.sol\":7552:7556  role */\n  dup3\n    /* \"https://github.com/OpenZeppelin/openzeppelin-contracts/blob/v4.8.0/contracts/access/AccessControl.sol\":7558:7565  account */\n  dup3\n    /* \"https://github.com/OpenZeppelin/openzeppelin-contracts/blob/v4.8.0/contracts/access/AccessControl.sol\":7544:7551  hasRole */\n  shl(0x20, tag_13)\n    /* \"https://github.com/OpenZeppelin/openzeppelin-contracts/blob/v4.8.0/contracts/access/AccessControl.sol\":7544:7566  hasRole(role, account) */\n  0x20\n  shr\n  jump\t// in\ntag_12:\n    /* \"https://github.com/OpenZeppelin/openzeppelin-contracts/blob/v4.8.0/contracts/access/AccessControl.sol\":7539:7688  if (!hasRole(role, account)) {... */\n  tag_14\n  jumpi\n    /* \"https://github.com/OpenZeppelin/openzeppelin-contracts/blob/v4.8.0/contracts/access/AccessControl.sol\":7614:7618  true */\n  0x01\n    /* \"https://github.com/OpenZeppelin/openzeppelin-contracts/blob/v4.8.0/contracts/access/AccessControl.sol\":7582:7588  _roles */\n  0x00\n    /* \"https://github.com/OpenZeppelin/openzeppelin-contracts/blob/v4.8.0/contracts/access/AccessControl.sol\":7582:7594  _roles[role] */\n  dup1\n    /* \"https://github.com/OpenZeppelin/openzeppelin-contracts/blob/v4.8.0/contracts/access/AccessControl.sol\":7589:7593  role */\n  dup5\n    /* \"https://github.com/OpenZeppelin/openzeppelin-contracts/blob/v4.8.0/contracts/access/AccessControl.sol\":7582:7594  _roles[role] */\n  dup2\n  mstore\n  0x20\n  add\n  swap1\n  dup2\n  mstore\n  0x20\n  add\n  0x00\n  keccak256\n    /* \"https://github.com/OpenZeppelin/openzeppelin-contracts/blob/v4.8.0/contracts/access/AccessControl.sol\":7582:7602  _roles[role].members */\n  0x00\n  add\n    /* \"https://github.com/OpenZeppelin/openzeppelin-contracts/blob/v4.8.0/contracts/access/AccessControl.sol\":7582:7611  _roles[role].members[account] */\n  0x00\n    /* \"https://github.com/OpenZeppelin/openzeppelin-contracts/blob/v4.8.0/contracts/access/AccessControl.sol\":7603:7610  account */\n  dup4\n    /* \"https://github.com/OpenZeppelin/openzeppelin-contracts/blob/v4.8.0/contracts/access/AccessControl.sol\":7582:7611  _roles[role].members[account] */\n  0xffffffffffffffffffffffffffffffffffffffff\n  and\n  0xffffffffffffffffffffffffffffffffffffffff\n  and\n  dup2\n  mstore\n  0x20\n  add\n  swap1\n  dup2\n  mstore\n  0x20\n  add\n  0x00\n  keccak256\n  0x00\n    /* \"https://github.com/OpenZeppelin/openzeppelin-contracts/blob/v4.8.0/contracts/access/AccessControl.sol\":7582:7618  _roles[role].members[account] = true */\n  0x0100\n  exp\n  dup2\n  sload\n  dup2\n  0xff\n  mul\n  not\n  and\n  swap1\n  dup4\n  iszero\n  iszero\n  mul\n  or\n  swap1\n  sstore\n  pop\n    /* \"https://github.com/OpenZeppelin/openzeppelin-contracts/blob/v4.8.0/contracts/access/AccessControl.sol\":7664:7676  _msgSender() */\n  tag_15\n    /* \"https://github.com/OpenZeppelin/openzeppelin-contracts/blob/v4.8.0/contracts/access/AccessControl.sol\":7664:7674  _msgSender */\n  shl(0x20, tag_16)\n    /* \"https://github.com/OpenZeppelin/openzeppelin-contracts/blob/v4.8.0/contracts/access/AccessControl.sol\":7664:7676  _msgSender() */\n  0x20\n  shr\n  jump\t// in\ntag_15:\n    /* \"https://github.com/OpenZeppelin/openzeppelin-contracts/blob/v4.8.0/contracts/access/AccessControl.sol\":7637:7677  RoleGranted(role, account, _msgSender()) */\n  0xffffffffffffffffffffffffffffffffffffffff\n  and\n    /* \"https://github.com/OpenZeppelin/openzeppelin-contracts/blob/v4.8.0/contracts/access/AccessControl.sol\":7655:7662  account */\n  dup2\n    /* \"https://github.com/OpenZeppelin/openzeppelin-contracts/blob/v4.8.0/contracts/access/AccessControl.sol\":7637:7677  RoleGranted(role, account, _msgSender()) */\n  0xffffffffffffffffffffffffffffffffffffffff\n  and\n    /* \"https://github.com/OpenZeppelin/openzeppelin-contracts/blob/v4.8.0/contracts/access/AccessControl.sol\":7649:7653  role */\n  dup4\n    /* \"https://github.com/OpenZeppelin/openzeppelin-contracts/blob/v4.8.0/contracts/access/AccessControl.sol\":7637:7677  RoleGranted(role, account, _msgSender()) */\n  0x2f8788117e7eff1d82e926ec794901d17c78024a50270940304540a733656f0d\n  mload(0x40)\n  mload(0x40)\n  dup1\n  swap2\n  sub\n  swap1\n  log4\n    /* \"https://github.com/OpenZeppelin/openzeppelin-contracts/blob/v4.8.0/contracts/access/AccessControl.sol\":7539:7688  if (!hasRole(role, account)) {... */\ntag_14:\n    /* \"https://github.com/OpenZeppelin/openzeppelin-contracts/blob/v4.8.0/contracts/access/AccessControl.sol\":7461:7694  function _grantRole(bytes32 role, address account) internal virtual {... */\n  pop\n  pop\n  jump\t// out\n    /* \"https://github.com/OpenZeppelin/openzeppelin-contracts/blob/v4.8.0/contracts/access/AccessControl.sol\":2895:3040  function hasRole(bytes32 role, address account) public view virtual override returns (bool) {... */\ntag_13:\n    /* \"https://github.com/OpenZeppelin/openzeppelin-contracts/blob/v4.8.0/contracts/access/AccessControl.sol\":2981:2985  bool */\n  0x00\n    /* \"https://github.com/OpenZeppelin/openzeppelin-contracts/blob/v4.8.0/contracts/access/AccessControl.sol\":3004:3010  _roles */\n  dup1\n    /* \"https://github.com/OpenZeppelin/openzeppelin-contracts/blob/v4.8.0/contracts/access/AccessControl.sol\":3004:3016  _roles[role] */\n  0x00\n    /* \"https://github.com/OpenZeppelin/openzeppelin-contracts/blob/v4.8.0/contracts/access/AccessControl.sol\":3011:3015  role */\n  dup5\n    /* \"https://github.com/OpenZeppelin/openzeppelin-contracts/blob/v4.8.0/contracts/access/AccessControl.sol\":3004:3016  _roles[role] */\n  dup2\n  mstore\n  0x20\n  add\n  swap1\n  dup2\n  mstore\n  0x20\n  add\n  0x00\n  keccak256\n    /* \"https://github.com/OpenZeppelin/openzeppelin-contracts/blob/v4.8.0/contracts/access/AccessControl.sol\":3004:3024  _roles[role].members */\n  0x00\n  add\n    /* \"https://github.com/OpenZeppelin/openzeppelin-contracts/blob/v4.8.0/contracts/access/AccessControl.sol\":3004:3033  _roles[role].members[account] */\n  0x00\n    /* \"https://github.com/OpenZeppelin/openzeppelin-contracts/blob/v4.8.0/contracts/access/AccessControl.sol\":3025:3032  account */\n  dup4\n    /* \"https://github.com/OpenZeppelin/openzeppelin-contracts/blob/v4.8.0/contracts/access/AccessControl.sol\":3004:3033  _roles[role].members[account] */\n  0xffffffffffffffffffffffffffffffffffffffff\n  and\n  0xffffffffffffffffffffffffffffffffffffffff\n  and\n  dup2\n  mstore\n  0x20\n  add\n  swap1\n  dup2\n  mstore\n  0x20\n  add\n  0x00\n  keccak256\n  0x00\n  swap1\n  sload\n  swap1\n  0x0100\n  exp\n  swap1\n  div\n  0xff\n  and\n    /* \"https://github.com/OpenZeppelin/openzeppelin-contracts/blob/v4.8.0/contracts/access/AccessControl.sol\":2997:3033  return _roles[role].members[account] */\n  swap1\n  pop\n    /* \"https://github.com/OpenZeppelin/openzeppelin-contracts/blob/v4.8.0/contracts/access/AccessControl.sol\":2895:3040  function hasRole(bytes32 role, address account) public view virtual override returns (bool) {... */\n  swap3\n  swap2\n  pop\n  pop\n  jump\t// out\n    /* \"https://github.com/OpenZeppelin/openzeppelin-contracts/blob/v4.8.0/contracts/utils/Context.sol\":640:736  function _msgSender() internal view virtual returns (address) {... */\ntag_16:\n    /* \"https://github.com/OpenZeppelin/openzeppelin-contracts/blob/v4.8.0/contracts/utils/Context.sol\":693:700  address */\n  0x00\n    /* \"https://github.com/OpenZeppelin/openzeppelin-contracts/blob/v4.8.0/contracts/utils/Context.sol\":719:729  msg.sender */\n  caller\n    /* \"https://github.com/OpenZeppelin/openzeppelin-contracts/blob/v4.8.0/contracts/utils/Context.sol\":712:729  return msg.sender */\n  swap1\n  pop\n    /* \"https://github.com/OpenZeppelin/openzeppelin-contracts/blob/v4.8.0/contracts/utils/Context.sol\":640:736  function _msgSender() internal view virtual returns (address) {... */\n  swap1\n  jump\t// out\n    /* \"contracts/v2/TikTrixGame.sol\":281:2466  contract TikTrixGame is AccessControl {... */\ntag_7:\n  dataSize(sub_0)\n  dup1\n  dataOffset(sub_0)\n  0x00\n  codecopy\n  0x00\n  return\nstop\n\nsub_0: assembly {\n        /* \"contracts/v2/TikTrixGame.sol\":281:2466  contract TikTrixGame is AccessControl {... */\n      mstore(0x40, 0x80)\n      callvalue\n      dup1\n      iszero\n      tag_1\n      jumpi\n      0x00\n      dup1\n      revert\n    tag_1:\n      pop\n      jumpi(tag_2, lt(calldatasize, 0x04))\n      shr(0xe0, calldataload(0x00))\n      dup1\n      0x8164586e\n      gt\n      tag_19\n      jumpi\n      dup1\n      0xa217fddf\n      gt\n      tag_20\n      jumpi\n      dup1\n      0xa217fddf\n      eq\n      tag_15\n      jumpi\n      dup1\n      0xb3558075\n      eq\n      tag_16\n      jumpi\n      dup1\n      0xc634b78e\n      eq\n      tag_17\n      jumpi\n      dup1\n      0xd547741f\n      eq\n      tag_18\n      jumpi\n      jump(tag_2)\n    tag_20:\n      dup1\n      0x8164586e\n      eq\n      tag_11\n      jumpi\n      dup1\n      0x89b2c8e7\n      eq\n      tag_12\n      jumpi\n      dup1\n      0x91d14854\n      eq\n      tag_13\n      jumpi\n      dup1\n      0x9a19c7b0\n      eq\n      tag_14\n      jumpi\n      jump(tag_2)\n    tag_19:\n      dup1\n      0x36568abe\n      gt\n      tag_21\n      jumpi\n      dup1\n      0x36568abe\n      eq\n      tag_7\n      jumpi\n      dup1\n      0x47e1d550\n      eq\n      tag_8\n      jumpi\n      dup1\n      0x75b238fc\n      eq\n      tag_9\n      jumpi\n      dup1\n      0x7d1b4687\n      eq\n      tag_10\n      jumpi\n      jump(tag_2)\n    tag_21:\n      dup1\n      0x01ffc9a7\n      eq\n      tag_3\n      jumpi\n      dup1\n      0x1833fdf9\n      eq\n      tag_4\n      jumpi\n      dup1\n      0x248a9ca3\n      eq\n      tag_5\n      jumpi\n      dup1\n      0x2f2ff15d\n      eq\n      tag_6\n      jumpi\n    tag_2:\n      0x00\n      dup1\n      revert\n        /* \"https://github.com/OpenZeppelin/openzeppelin-contracts/blob/v4.8.0/contracts/access/AccessControl.sol\":2606:2808  function supportsInterface(bytes4 interfaceId) public view virtual override returns (bool) {... */\n    tag_3:\n      tag_22\n      0x04\n      dup1\n      calldatasize\n      sub\n      dup2\n      add\n      swap1\n      tag_23\n      swap2\n      swap1\n      tag_24\n      jump\t// in\n    tag_23:\n      tag_25\n      jump\t// in\n    tag_22:\n      mload(0x40)\n      tag_26\n      swap2\n      swap1\n      tag_27\n      jump\t// in\n    tag_26:\n      mload(0x40)\n      dup1\n      swap2\n      sub\n      swap1\n      return\n        /* \"contracts/v2/TikTrixGame.sol\":2346:2463  function isGameExists(uint256 gameSeq) external view returns (bool) {... */\n    tag_4:\n      tag_28\n      0x04\n      dup1\n      calldatasize\n      sub\n      dup2\n      add\n      swap1\n      tag_29\n      swap2\n      swap1\n      tag_30\n      jump\t// in\n    tag_29:\n      tag_31\n      jump\t// in\n    tag_28:\n      mload(0x40)\n      tag_32\n      swap2\n      swap1\n      tag_27\n      jump\t// in\n    tag_32:\n      mload(0x40)\n      dup1\n      swap2\n      sub\n      swap1\n      return\n        /* \"https://github.com/OpenZeppelin/openzeppelin-contracts/blob/v4.8.0/contracts/access/AccessControl.sol\":4378:4507  function getRoleAdmin(bytes32 role) public view virtual override returns (bytes32) {... */\n    tag_5:\n      tag_33\n      0x04\n      dup1\n      calldatasize\n      sub\n      dup2\n      add\n      swap1\n      tag_34\n      swap2\n      swap1\n      tag_35\n      jump\t// in\n    tag_34:\n      tag_36\n      jump\t// in\n    tag_33:\n      mload(0x40)\n      tag_37\n      swap2\n      swap1\n      tag_38\n      jump\t// in\n    tag_37:\n      mload(0x40)\n      dup1\n      swap2\n      sub\n      swap1\n      return\n        /* \"https://github.com/OpenZeppelin/openzeppelin-contracts/blob/v4.8.0/contracts/access/AccessControl.sol\":4803:4948  function grantRole(bytes32 role, address account) public virtual override onlyRole(getRoleAdmin(role)) {... */\n    tag_6:\n      tag_39\n      0x04\n      dup1\n      calldatasize\n      sub\n      dup2\n      add\n      swap1\n      tag_40\n      swap2\n      swap1\n      tag_41\n      jump\t// in\n    tag_40:\n      tag_42\n      jump\t// in\n    tag_39:\n      stop\n        /* \"https://github.com/OpenZeppelin/openzeppelin-contracts/blob/v4.8.0/contracts/access/AccessControl.sol\":5912:6126  function renounceRole(bytes32 role, address account) public virtual override {... */\n    tag_7:\n      tag_43\n      0x04\n      dup1\n      calldatasize\n      sub\n      dup2\n      add\n      swap1\n      tag_44\n      swap2\n      swap1\n      tag_41\n      jump\t// in\n    tag_44:\n      tag_45\n      jump\t// in\n    tag_43:\n      stop\n        /* \"contracts/v2/TikTrixGame.sol\":2153:2340  function getGameInfo(uint256 gameSeq) external view returns (GameInfo memory) {... */\n    tag_8:\n      tag_46\n      0x04\n      dup1\n      calldatasize\n      sub\n      dup2\n      add\n      swap1\n      tag_47\n      swap2\n      swap1\n      tag_30\n      jump\t// in\n    tag_47:\n      tag_48\n      jump\t// in\n    tag_46:\n      mload(0x40)\n      tag_49\n      swap2\n      swap1\n      tag_50\n      jump\t// in\n    tag_49:\n      mload(0x40)\n      dup1\n      swap2\n      sub\n      swap1\n      return\n        /* \"contracts/v2/TikTrixGame.sol\":325:385  bytes32 public constant ADMIN_ROLE = keccak256(\"ADMIN_ROLE\") */\n    tag_9:\n      tag_51\n      tag_52\n      jump\t// in\n    tag_51:\n      mload(0x40)\n      tag_53\n      swap2\n      swap1\n      tag_38\n      jump\t// in\n    tag_53:\n      mload(0x40)\n      dup1\n      swap2\n      sub\n      swap1\n      return\n        /* \"contracts/v2/TikTrixGame.sol\":519:564  mapping(uint256 => GameInfo) public gameInfos */\n    tag_10:\n      tag_54\n      0x04\n      dup1\n      calldatasize\n      sub\n      dup2\n      add\n      swap1\n      tag_55\n      swap2\n      swap1\n      tag_30\n      jump\t// in\n    tag_55:\n      tag_56\n      jump\t// in\n    tag_54:\n      mload(0x40)\n      tag_57\n      swap5\n      swap4\n      swap3\n      swap2\n      swap1\n      tag_58\n      jump\t// in\n    tag_57:\n      mload(0x40)\n      dup1\n      swap2\n      sub\n      swap1\n      return\n        /* \"contracts/v2/TikTrixGame.sol\":1160:1512  function gameRegister(uint256 developerSeq, uint256 gameSeq, string memory title) external onlyRole(ADMIN_ROLE) {... */\n    tag_11:\n      tag_59\n      0x04\n      dup1\n      calldatasize\n      sub\n      dup2\n      add\n      swap1\n      tag_60\n      swap2\n      swap1\n      tag_61\n      jump\t// in\n    tag_60:\n      tag_62\n      jump\t// in\n    tag_59:\n      stop\n        /* \"contracts/v2/TikTrixGame.sol\":1936:2147  function gameDelete(uint256 gameSeq) external onlyRole(ADMIN_ROLE) {... */\n    tag_12:\n      tag_63\n      0x04\n      dup1\n      calldatasize\n      sub\n      dup2\n      add\n      swap1\n      tag_64\n      swap2\n      swap1\n      tag_30\n      jump\t// in\n    tag_64:\n      tag_65\n      jump\t// in\n    tag_63:\n      stop\n        /* \"https://github.com/OpenZeppelin/openzeppelin-contracts/blob/v4.8.0/contracts/access/AccessControl.sol\":2895:3040  function hasRole(bytes32 role, address account) public view virtual override returns (bool) {... */\n    tag_13:\n      tag_66\n      0x04\n      dup1\n      calldatasize\n      sub\n      dup2\n      add\n      swap1\n      tag_67\n      swap2\n      swap1\n      tag_41\n      jump\t// in\n    tag_67:\n      tag_68\n      jump\t// in\n    tag_66:\n      mload(0x40)\n      tag_69\n      swap2\n      swap1\n      tag_27\n      jump\t// in\n    tag_69:\n      mload(0x40)\n      dup1\n      swap2\n      sub\n      swap1\n      return\n        /* \"contracts/v2/TikTrixGame.sol\":1028:1154  function revokeAdminRole(address account) public onlyRole(DEFAULT_ADMIN_ROLE) {... */\n    tag_14:\n      tag_70\n      0x04\n      dup1\n      calldatasize\n      sub\n      dup2\n      add\n      swap1\n      tag_71\n      swap2\n      swap1\n      tag_72\n      jump\t// in\n    tag_71:\n      tag_73\n      jump\t// in\n    tag_70:\n      stop\n        /* \"https://github.com/OpenZeppelin/openzeppelin-contracts/blob/v4.8.0/contracts/access/AccessControl.sol\":2027:2076  bytes32 public constant DEFAULT_ADMIN_ROLE = 0x00 */\n    tag_15:\n      tag_74\n      tag_75\n      jump\t// in\n    tag_74:\n      mload(0x40)\n      tag_76\n      swap2\n      swap1\n      tag_38\n      jump\t// in\n    tag_76:\n      mload(0x40)\n      dup1\n      swap2\n      sub\n      swap1\n      return\n        /* \"contracts/v2/TikTrixGame.sol\":1518:1930  function gameUpdate(uint256 developerSeq, uint256 gameSeq, string memory title) external onlyRole(ADMIN_ROLE) {... */\n    tag_16:\n      tag_77\n      0x04\n      dup1\n      calldatasize\n      sub\n      dup2\n      add\n      swap1\n      tag_78\n      swap2\n      swap1\n      tag_61\n      jump\t// in\n    tag_78:\n      tag_79\n      jump\t// in\n    tag_77:\n      stop\n        /* \"contracts/v2/TikTrixGame.sol\":898:1022  function grantAdminRole(address account) public onlyRole(DEFAULT_ADMIN_ROLE) {... */\n    tag_17:\n      tag_80\n      0x04\n      dup1\n      calldatasize\n      sub\n      dup2\n      add\n      swap1\n      tag_81\n      swap2\n      swap1\n      tag_72\n      jump\t// in\n    tag_81:\n      tag_82\n      jump\t// in\n    tag_80:\n      stop\n        /* \"https://github.com/OpenZeppelin/openzeppelin-contracts/blob/v4.8.0/contracts/access/AccessControl.sol\":5228:5375  function revokeRole(bytes32 role, address account) public virtual override onlyRole(getRoleAdmin(role)) {... */\n    tag_18:\n      tag_83\n      0x04\n      dup1\n      calldatasize\n      sub\n      dup2\n      add\n      swap1\n      tag_84\n      swap2\n      swap1\n      tag_41\n      jump\t// in\n    tag_84:\n      tag_85\n      jump\t// in\n    tag_83:\n      stop\n        /* \"https://github.com/OpenZeppelin/openzeppelin-contracts/blob/v4.8.0/contracts/access/AccessControl.sol\":2606:2808  function supportsInterface(bytes4 interfaceId) public view virtual override returns (bool) {... */\n    tag_25:\n        /* \"https://github.com/OpenZeppelin/openzeppelin-contracts/blob/v4.8.0/contracts/access/AccessControl.sol\":2691:2695  bool */\n      0x00\n        /* \"https://github.com/OpenZeppelin/openzeppelin-contracts/blob/v4.8.0/contracts/access/AccessControl.sol\":2729:2761  type(IAccessControl).interfaceId */\n      0x7965db0b00000000000000000000000000000000000000000000000000000000\n        /* \"https://github.com/OpenZeppelin/openzeppelin-contracts/blob/v4.8.0/contracts/access/AccessControl.sol\":2714:2761  interfaceId == type(IAccessControl).interfaceId */\n      not(0xffffffffffffffffffffffffffffffffffffffffffffffffffffffff)\n      and\n        /* \"https://github.com/OpenZeppelin/openzeppelin-contracts/blob/v4.8.0/contracts/access/AccessControl.sol\":2714:2725  interfaceId */\n      dup3\n        /* \"https://github.com/OpenZeppelin/openzeppelin-contracts/blob/v4.8.0/contracts/access/AccessControl.sol\":2714:2761  interfaceId == type(IAccessControl).interfaceId */\n      not(0xffffffffffffffffffffffffffffffffffffffffffffffffffffffff)\n      and\n      eq\n        /* \"https://github.com/OpenZeppelin/openzeppelin-contracts/blob/v4.8.0/contracts/access/AccessControl.sol\":2714:2801  interfaceId == type(IAccessControl).interfaceId || super.supportsInterface(interfaceId) */\n      dup1\n      tag_87\n      jumpi\n      pop\n        /* \"https://github.com/OpenZeppelin/openzeppelin-contracts/blob/v4.8.0/contracts/access/AccessControl.sol\":2765:2801  super.supportsInterface(interfaceId) */\n      tag_88\n        /* \"https://github.com/OpenZeppelin/openzeppelin-contracts/blob/v4.8.0/contracts/access/AccessControl.sol\":2789:2800  interfaceId */\n      dup3\n        /* \"https://github.com/OpenZeppelin/openzeppelin-contracts/blob/v4.8.0/contracts/access/AccessControl.sol\":2765:2788  super.supportsInterface */\n      tag_89\n        /* \"https://github.com/OpenZeppelin/openzeppelin-contracts/blob/v4.8.0/contracts/access/AccessControl.sol\":2765:2801  super.supportsInterface(interfaceId) */\n      jump\t// in\n    tag_88:\n        /* \"https://github.com/OpenZeppelin/openzeppelin-contracts/blob/v4.8.0/contracts/access/AccessControl.sol\":2714:2801  interfaceId == type(IAccessControl).interfaceId || super.supportsInterface(interfaceId) */\n    tag_87:\n        /* \"https://github.com/OpenZeppelin/openzeppelin-contracts/blob/v4.8.0/contracts/access/AccessControl.sol\":2707:2801  return interfaceId == type(IAccessControl).interfaceId || super.supportsInterface(interfaceId) */\n      swap1\n      pop\n        /* \"https://github.com/OpenZeppelin/openzeppelin-contracts/blob/v4.8.0/contracts/access/AccessControl.sol\":2606:2808  function supportsInterface(bytes4 interfaceId) public view virtual override returns (bool) {... */\n      swap2\n      swap1\n      pop\n      jump\t// out\n        /* \"contracts/v2/TikTrixGame.sol\":2346:2463  function isGameExists(uint256 gameSeq) external view returns (bool) {... */\n    tag_31:\n        /* \"contracts/v2/TikTrixGame.sol\":2408:2412  bool */\n      0x00\n        /* \"contracts/v2/TikTrixGame.sol\":2431:2440  gameInfos */\n      0x01\n        /* \"contracts/v2/TikTrixGame.sol\":2431:2449  gameInfos[gameSeq] */\n      0x00\n        /* \"contracts/v2/TikTrixGame.sol\":2441:2448  gameSeq */\n      dup4\n        /* \"contracts/v2/TikTrixGame.sol\":2431:2449  gameInfos[gameSeq] */\n      dup2\n      mstore\n      0x20\n      add\n      swap1\n      dup2\n      mstore\n      0x20\n      add\n      0x00\n      keccak256\n        /* \"contracts/v2/TikTrixGame.sol\":2431:2456  gameInfos[gameSeq].exists */\n      0x03\n      add\n      0x00\n      swap1\n      sload\n      swap1\n      0x0100\n      exp\n      swap1\n      div\n      0xff\n      and\n        /* \"contracts/v2/TikTrixGame.sol\":2424:2456  return gameInfos[gameSeq].exists */\n      swap1\n      pop\n        /* \"contracts/v2/TikTrixGame.sol\":2346:2463  function isGameExists(uint256 gameSeq) external view returns (bool) {... */\n      swap2\n      swap1\n      pop\n      jump\t// out\n        /* \"https://github.com/OpenZeppelin/openzeppelin-contracts/blob/v4.8.0/contracts/access/AccessControl.sol\":4378:4507  function getRoleAdmin(bytes32 role) public view virtual override returns (bytes32) {... */\n    tag_36:\n        /* \"https://github.com/OpenZeppelin/openzeppelin-contracts/blob/v4.8.0/contracts/access/AccessControl.sol\":4452:4459  bytes32 */\n      0x00\n        /* \"https://github.com/OpenZeppelin/openzeppelin-contracts/blob/v4.8.0/contracts/access/AccessControl.sol\":4478:4484  _roles */\n      dup1\n        /* \"https://github.com/OpenZeppelin/openzeppelin-contracts/blob/v4.8.0/contracts/access/AccessControl.sol\":4478:4490  _roles[role] */\n      0x00\n        /* \"https://github.com/OpenZeppelin/openzeppelin-contracts/blob/v4.8.0/contracts/access/AccessControl.sol\":4485:4489  role */\n      dup4\n        /* \"https://github.com/OpenZeppelin/openzeppelin-contracts/blob/v4.8.0/contracts/access/AccessControl.sol\":4478:4490  _roles[role] */\n      dup2\n      mstore\n      0x20\n      add\n      swap1\n      dup2\n      mstore\n      0x20\n      add\n      0x00\n      keccak256\n        /* \"https://github.com/OpenZeppelin/openzeppelin-contracts/blob/v4.8.0/contracts/access/AccessControl.sol\":4478:4500  _roles[role].adminRole */\n      0x01\n      add\n      sload\n        /* \"https://github.com/OpenZeppelin/openzeppelin-contracts/blob/v4.8.0/contracts/access/AccessControl.sol\":4471:4500  return _roles[role].adminRole */\n      swap1\n      pop\n        /* \"https://github.com/OpenZeppelin/openzeppelin-contracts/blob/v4.8.0/contracts/access/AccessControl.sol\":4378:4507  function getRoleAdmin(bytes32 role) public view virtual override returns (bytes32) {... */\n      swap2\n      swap1\n      pop\n      jump\t// out\n        /* \"https://github.com/OpenZeppelin/openzeppelin-contracts/blob/v4.8.0/contracts/access/AccessControl.sol\":4803:4948  function grantRole(bytes32 role, address account) public virtual override onlyRole(getRoleAdmin(role)) {... */\n    tag_42:\n        /* \"https://github.com/OpenZeppelin/openzeppelin-contracts/blob/v4.8.0/contracts/access/AccessControl.sol\":4886:4904  getRoleAdmin(role) */\n      tag_92\n        /* \"https://github.com/OpenZeppelin/openzeppelin-contracts/blob/v4.8.0/contracts/access/AccessControl.sol\":4899:4903  role */\n      dup3\n        /* \"https://github.com/OpenZeppelin/openzeppelin-contracts/blob/v4.8.0/contracts/access/AccessControl.sol\":4886:4898  getRoleAdmin */\n      tag_36\n        /* \"https://github.com/OpenZeppelin/openzeppelin-contracts/blob/v4.8.0/contracts/access/AccessControl.sol\":4886:4904  getRoleAdmin(role) */\n      jump\t// in\n    tag_92:\n        /* \"https://github.com/OpenZeppelin/openzeppelin-contracts/blob/v4.8.0/contracts/access/AccessControl.sol\":2505:2521  _checkRole(role) */\n      tag_94\n        /* \"https://github.com/OpenZeppelin/openzeppelin-contracts/blob/v4.8.0/contracts/access/AccessControl.sol\":2516:2520  role */\n      dup2\n        /* \"https://github.com/OpenZeppelin/openzeppelin-contracts/blob/v4.8.0/contracts/access/AccessControl.sol\":2505:2515  _checkRole */\n      tag_95\n        /* \"https://github.com/OpenZeppelin/openzeppelin-contracts/blob/v4.8.0/contracts/access/AccessControl.sol\":2505:2521  _checkRole(role) */\n      jump\t// in\n    tag_94:\n        /* \"https://github.com/OpenZeppelin/openzeppelin-contracts/blob/v4.8.0/contracts/access/AccessControl.sol\":4916:4941  _grantRole(role, account) */\n      tag_97\n        /* \"https://github.com/OpenZeppelin/openzeppelin-contracts/blob/v4.8.0/contracts/access/AccessControl.sol\":4927:4931  role */\n      dup4\n        /* \"https://github.com/OpenZeppelin/openzeppelin-contracts/blob/v4.8.0/contracts/access/AccessControl.sol\":4933:4940  account */\n      dup4\n        /* \"https://github.com/OpenZeppelin/openzeppelin-contracts/blob/v4.8.0/contracts/access/AccessControl.sol\":4916:4926  _grantRole */\n      tag_98\n        /* \"https://github.com/OpenZeppelin/openzeppelin-contracts/blob/v4.8.0/contracts/access/AccessControl.sol\":4916:4941  _grantRole(role, account) */\n      jump\t// in\n    tag_97:\n        /* \"https://github.com/OpenZeppelin/openzeppelin-contracts/blob/v4.8.0/contracts/access/AccessControl.sol\":4803:4948  function grantRole(bytes32 role, address account) public virtual override onlyRole(getRoleAdmin(role)) {... */\n      pop\n      pop\n      pop\n      jump\t// out\n        /* \"https://github.com/OpenZeppelin/openzeppelin-contracts/blob/v4.8.0/contracts/access/AccessControl.sol\":5912:6126  function renounceRole(bytes32 role, address account) public virtual override {... */\n    tag_45:\n        /* \"https://github.com/OpenZeppelin/openzeppelin-contracts/blob/v4.8.0/contracts/access/AccessControl.sol\":6018:6030  _msgSender() */\n      tag_100\n        /* \"https://github.com/OpenZeppelin/openzeppelin-contracts/blob/v4.8.0/contracts/access/AccessControl.sol\":6018:6028  _msgSender */\n      tag_101\n        /* \"https://github.com/OpenZeppelin/openzeppelin-contracts/blob/v4.8.0/contracts/access/AccessControl.sol\":6018:6030  _msgSender() */\n      jump\t// in\n    tag_100:\n        /* \"https://github.com/OpenZeppelin/openzeppelin-contracts/blob/v4.8.0/contracts/access/AccessControl.sol\":6007:6030  account == _msgSender() */\n      0xffffffffffffffffffffffffffffffffffffffff\n      and\n        /* \"https://github.com/OpenZeppelin/openzeppelin-contracts/blob/v4.8.0/contracts/access/AccessControl.sol\":6007:6014  account */\n      dup2\n        /* \"https://github.com/OpenZeppelin/openzeppelin-contracts/blob/v4.8.0/contracts/access/AccessControl.sol\":6007:6030  account == _msgSender() */\n      0xffffffffffffffffffffffffffffffffffffffff\n      and\n      eq\n        /* \"https://github.com/OpenZeppelin/openzeppelin-contracts/blob/v4.8.0/contracts/access/AccessControl.sol\":5999:6082  require(account == _msgSender(), \"AccessControl: can only renounce roles for self\") */\n      tag_102\n      jumpi\n      mload(0x40)\n      0x08c379a000000000000000000000000000000000000000000000000000000000\n      dup2\n      mstore\n      0x04\n      add\n      tag_103\n      swap1\n      tag_104\n      jump\t// in\n    tag_103:\n      mload(0x40)\n      dup1\n      swap2\n      sub\n      swap1\n      revert\n    tag_102:\n        /* \"https://github.com/OpenZeppelin/openzeppelin-contracts/blob/v4.8.0/contracts/access/AccessControl.sol\":6093:6119  _revokeRole(role, account) */\n      tag_105\n        /* \"https://github.com/OpenZeppelin/openzeppelin-contracts/blob/v4.8.0/contracts/access/AccessControl.sol\":6105:6109  role */\n      dup3\n        /* \"https://github.com/OpenZeppelin/openzeppelin-contracts/blob/v4.8.0/contracts/access/AccessControl.sol\":6111:6118  account */\n      dup3\n        /* \"https://github.com/OpenZeppelin/openzeppelin-contracts/blob/v4.8.0/contracts/access/AccessControl.sol\":6093:6104  _revokeRole */\n      tag_106\n        /* \"https://github.com/OpenZeppelin/openzeppelin-contracts/blob/v4.8.0/contracts/access/AccessControl.sol\":6093:6119  _revokeRole(role, account) */\n      jump\t// in\n    tag_105:\n        /* \"https://github.com/OpenZeppelin/openzeppelin-contracts/blob/v4.8.0/contracts/access/AccessControl.sol\":5912:6126  function renounceRole(bytes32 role, address account) public virtual override {... */\n      pop\n      pop\n      jump\t// out\n        /* \"contracts/v2/TikTrixGame.sol\":2153:2340  function getGameInfo(uint256 gameSeq) external view returns (GameInfo memory) {... */\n    tag_48:\n        /* \"contracts/v2/TikTrixGame.sol\":2214:2229  GameInfo memory */\n      tag_107\n      tag_108\n      jump\t// in\n    tag_107:\n        /* \"contracts/v2/TikTrixGame.sol\":2249:2258  gameInfos */\n      0x01\n        /* \"contracts/v2/TikTrixGame.sol\":2249:2267  gameInfos[gameSeq] */\n      0x00\n        /* \"contracts/v2/TikTrixGame.sol\":2259:2266  gameSeq */\n      dup4\n        /* \"contracts/v2/TikTrixGame.sol\":2249:2267  gameInfos[gameSeq] */\n      dup2\n      mstore\n      0x20\n      add\n      swap1\n      dup2\n      mstore\n      0x20\n      add\n      0x00\n      keccak256\n        /* \"contracts/v2/TikTrixGame.sol\":2249:2274  gameInfos[gameSeq].exists */\n      0x03\n      add\n      0x00\n      swap1\n      sload\n      swap1\n      0x0100\n      exp\n      swap1\n      div\n      0xff\n      and\n        /* \"contracts/v2/TikTrixGame.sol\":2241:2298  require(gameInfos[gameSeq].exists, \"Game does not exist\") */\n      tag_110\n      jumpi\n      mload(0x40)\n      0x08c379a000000000000000000000000000000000000000000000000000000000\n      dup2\n      mstore\n      0x04\n      add\n      tag_111\n      swap1\n      tag_112\n      jump\t// in\n    tag_111:\n      mload(0x40)\n      dup1\n      swap2\n      sub\n      swap1\n      revert\n    tag_110:\n        /* \"contracts/v2/TikTrixGame.sol\":2315:2324  gameInfos */\n      0x01\n        /* \"contracts/v2/TikTrixGame.sol\":2315:2333  gameInfos[gameSeq] */\n      0x00\n        /* \"contracts/v2/TikTrixGame.sol\":2325:2332  gameSeq */\n      dup4\n        /* \"contracts/v2/TikTrixGame.sol\":2315:2333  gameInfos[gameSeq] */\n      dup2\n      mstore\n      0x20\n      add\n      swap1\n      dup2\n      mstore\n      0x20\n      add\n      0x00\n      keccak256\n        /* \"contracts/v2/TikTrixGame.sol\":2308:2333  return gameInfos[gameSeq] */\n      mload(0x40)\n      dup1\n      0x80\n      add\n      0x40\n      mstore\n      swap1\n      dup2\n      0x00\n      dup3\n      add\n      sload\n      dup2\n      mstore\n      0x20\n      add\n      0x01\n      dup3\n      add\n      sload\n      dup2\n      mstore\n      0x20\n      add\n      0x02\n      dup3\n      add\n      dup1\n      sload\n      tag_113\n      swap1\n      tag_114\n      jump\t// in\n    tag_113:\n      dup1\n      0x1f\n      add\n      0x20\n      dup1\n      swap2\n      div\n      mul\n      0x20\n      add\n      mload(0x40)\n      swap1\n      dup2\n      add\n      0x40\n      mstore\n      dup1\n      swap3\n      swap2\n      swap1\n      dup2\n      dup2\n      mstore\n      0x20\n      add\n      dup3\n      dup1\n      sload\n      tag_115\n      swap1\n      tag_114\n      jump\t// in\n    tag_115:\n      dup1\n      iszero\n      tag_116\n      jumpi\n      dup1\n      0x1f\n      lt\n      tag_117\n      jumpi\n      0x0100\n      dup1\n      dup4\n      sload\n      div\n      mul\n      dup4\n      mstore\n      swap2\n      0x20\n      add\n      swap2\n      jump(tag_116)\n    tag_117:\n      dup3\n      add\n      swap2\n      swap1\n      0x00\n      mstore\n      keccak256(0x00, 0x20)\n      swap1\n    tag_118:\n      dup2\n      sload\n      dup2\n      mstore\n      swap1\n      0x01\n      add\n      swap1\n      0x20\n      add\n      dup1\n      dup4\n      gt\n      tag_118\n      jumpi\n      dup3\n      swap1\n      sub\n      0x1f\n      and\n      dup3\n      add\n      swap2\n    tag_116:\n      pop\n      pop\n      pop\n      pop\n      pop\n      dup2\n      mstore\n      0x20\n      add\n      0x03\n      dup3\n      add\n      0x00\n      swap1\n      sload\n      swap1\n      0x0100\n      exp\n      swap1\n      div\n      0xff\n      and\n      iszero\n      iszero\n      iszero\n      iszero\n      dup2\n      mstore\n      pop\n      pop\n      swap1\n      pop\n        /* \"contracts/v2/TikTrixGame.sol\":2153:2340  function getGameInfo(uint256 gameSeq) external view returns (GameInfo memory) {... */\n      swap2\n      swap1\n      pop\n      jump\t// out\n        /* \"contracts/v2/TikTrixGame.sol\":325:385  bytes32 public constant ADMIN_ROLE = keccak256(\"ADMIN_ROLE\") */\n    tag_52:\n        /* \"contracts/v2/TikTrixGame.sol\":362:385  keccak256(\"ADMIN_ROLE\") */\n      0xa49807205ce4d355092ef5a8a18f56e8913cf4a201fbe287825b095693c21775\n        /* \"contracts/v2/TikTrixGame.sol\":325:385  bytes32 public constant ADMIN_ROLE = keccak256(\"ADMIN_ROLE\") */\n      dup2\n      jump\t// out\n        /* \"contracts/v2/TikTrixGame.sol\":519:564  mapping(uint256 => GameInfo) public gameInfos */\n    tag_56:\n      mstore(0x20, 0x01)\n      dup1\n      0x00\n      mstore\n      keccak256(0x00, 0x40)\n      0x00\n      swap2\n      pop\n      swap1\n      pop\n      dup1\n      0x00\n      add\n      sload\n      swap1\n      dup1\n      0x01\n      add\n      sload\n      swap1\n      dup1\n      0x02\n      add\n      dup1\n      sload\n      tag_119\n      swap1\n      tag_114\n      jump\t// in\n    tag_119:\n      dup1\n      0x1f\n      add\n      0x20\n      dup1\n      swap2\n      div\n      mul\n      0x20\n      add\n      mload(0x40)\n      swap1\n      dup2\n      add\n      0x40\n      mstore\n      dup1\n      swap3\n      swap2\n      swap1\n      dup2\n      dup2\n      mstore\n      0x20\n      add\n      dup3\n      dup1\n      sload\n      tag_120\n      swap1\n      tag_114\n      jump\t// in\n    tag_120:\n      dup1\n      iszero\n      tag_121\n      jumpi\n      dup1\n      0x1f\n      lt\n      tag_122\n      jumpi\n      0x0100\n      dup1\n      dup4\n      sload\n      div\n      mul\n      dup4\n      mstore\n      swap2\n      0x20\n      add\n      swap2\n      jump(tag_121)\n    tag_122:\n      dup3\n      add\n      swap2\n      swap1\n      0x00\n      mstore\n      keccak256(0x00, 0x20)\n      swap1\n    tag_123:\n      dup2\n      sload\n      dup2\n      mstore\n      swap1\n      0x01\n      add\n      swap1\n      0x20\n      add\n      dup1\n      dup4\n      gt\n      tag_123\n      jumpi\n      dup3\n      swap1\n      sub\n      0x1f\n      and\n      dup3\n      add\n      swap2\n    tag_121:\n      pop\n      pop\n      pop\n      pop\n      pop\n      swap1\n      dup1\n      0x03\n      add\n      0x00\n      swap1\n      sload\n      swap1\n      0x0100\n      exp\n      swap1\n      div\n      0xff\n      and\n      swap1\n      pop\n      dup5\n      jump\t// out\n        /* \"contracts/v2/TikTrixGame.sol\":1160:1512  function gameRegister(uint256 developerSeq, uint256 gameSeq, string memory title) external onlyRole(ADMIN_ROLE) {... */\n    tag_62:\n        /* \"contracts/v2/TikTrixGame.sol\":362:385  keccak256(\"ADMIN_ROLE\") */\n      0xa49807205ce4d355092ef5a8a18f56e8913cf4a201fbe287825b095693c21775\n        /* \"https://github.com/OpenZeppelin/openzeppelin-contracts/blob/v4.8.0/contracts/access/AccessControl.sol\":2505:2521  _checkRole(role) */\n      tag_125\n        /* \"https://github.com/OpenZeppelin/openzeppelin-contracts/blob/v4.8.0/contracts/access/AccessControl.sol\":2516:2520  role */\n      dup2\n        /* \"https://github.com/OpenZeppelin/openzeppelin-contracts/blob/v4.8.0/contracts/access/AccessControl.sol\":2505:2515  _checkRole */\n      tag_95\n        /* \"https://github.com/OpenZeppelin/openzeppelin-contracts/blob/v4.8.0/contracts/access/AccessControl.sol\":2505:2521  _checkRole(role) */\n      jump\t// in\n    tag_125:\n        /* \"contracts/v2/TikTrixGame.sol\":1303:1445  GameInfo({... */\n      mload(0x40)\n      dup1\n      0x80\n      add\n      0x40\n      mstore\n      dup1\n        /* \"contracts/v2/TikTrixGame.sol\":1340:1352  developerSeq */\n      dup6\n        /* \"contracts/v2/TikTrixGame.sol\":1303:1445  GameInfo({... */\n      dup2\n      mstore\n      0x20\n      add\n        /* \"contracts/v2/TikTrixGame.sol\":1375:1382  gameSeq */\n      dup5\n        /* \"contracts/v2/TikTrixGame.sol\":1303:1445  GameInfo({... */\n      dup2\n      mstore\n      0x20\n      add\n        /* \"contracts/v2/TikTrixGame.sol\":1403:1408  title */\n      dup4\n        /* \"contracts/v2/TikTrixGame.sol\":1303:1445  GameInfo({... */\n      dup2\n      mstore\n      0x20\n      add\n        /* \"contracts/v2/TikTrixGame.sol\":1430:1434  true */\n      0x01\n        /* \"contracts/v2/TikTrixGame.sol\":1303:1445  GameInfo({... */\n      iszero\n      iszero\n      dup2\n      mstore\n      pop\n        /* \"contracts/v2/TikTrixGame.sol\":1282:1291  gameInfos */\n      0x01\n        /* \"contracts/v2/TikTrixGame.sol\":1282:1300  gameInfos[gameSeq] */\n      0x00\n        /* \"contracts/v2/TikTrixGame.sol\":1292:1299  gameSeq */\n      dup6\n        /* \"contracts/v2/TikTrixGame.sol\":1282:1300  gameInfos[gameSeq] */\n      dup2\n      mstore\n      0x20\n      add\n      swap1\n      dup2\n      mstore\n      0x20\n      add\n      0x00\n      keccak256\n        /* \"contracts/v2/TikTrixGame.sol\":1282:1445  gameInfos[gameSeq] = GameInfo({... */\n      0x00\n      dup3\n      add\n      mload\n      dup2\n      0x00\n      add\n      sstore\n      0x20\n      dup3\n      add\n      mload\n      dup2\n      0x01\n      add\n      sstore\n      0x40\n      dup3\n      add\n      mload\n      dup2\n      0x02\n      add\n      swap1\n      dup2\n      tag_127\n      swap2\n      swap1\n      tag_128\n      jump\t// in\n    tag_127:\n      pop\n      0x60\n      dup3\n      add\n      mload\n      dup2\n      0x03\n      add\n      exp(0x0100, 0x00)\n      dup2\n      sload\n      dup2\n      0xff\n      mul\n      not\n      and\n      swap1\n      dup4\n      iszero\n      iszero\n      mul\n      or\n      swap1\n      sstore\n      pop\n      swap1\n      pop\n      pop\n        /* \"contracts/v2/TikTrixGame.sol\":1461:1505  GameRegistered(developerSeq, gameSeq, title) */\n      0xd8e2cd0473b83461e66f336b5655c077dbd1203e041ad68b1d6f2c4c5ec2593d\n        /* \"contracts/v2/TikTrixGame.sol\":1476:1488  developerSeq */\n      dup5\n        /* \"contracts/v2/TikTrixGame.sol\":1490:1497  gameSeq */\n      dup5\n        /* \"contracts/v2/TikTrixGame.sol\":1499:1504  title */\n      dup5\n        /* \"contracts/v2/TikTrixGame.sol\":1461:1505  GameRegistered(developerSeq, gameSeq, title) */\n      mload(0x40)\n      tag_129\n      swap4\n      swap3\n      swap2\n      swap1\n      tag_130\n      jump\t// in\n    tag_129:\n      mload(0x40)\n      dup1\n      swap2\n      sub\n      swap1\n      log1\n        /* \"contracts/v2/TikTrixGame.sol\":1160:1512  function gameRegister(uint256 developerSeq, uint256 gameSeq, string memory title) external onlyRole(ADMIN_ROLE) {... */\n      pop\n      pop\n      pop\n      pop\n      jump\t// out\n        /* \"contracts/v2/TikTrixGame.sol\":1936:2147  function gameDelete(uint256 gameSeq) external onlyRole(ADMIN_ROLE) {... */\n    tag_65:\n        /* \"contracts/v2/TikTrixGame.sol\":362:385  keccak256(\"ADMIN_ROLE\") */\n      0xa49807205ce4d355092ef5a8a18f56e8913cf4a201fbe287825b095693c21775\n        /* \"https://github.com/OpenZeppelin/openzeppelin-contracts/blob/v4.8.0/contracts/access/AccessControl.sol\":2505:2521  _checkRole(role) */\n      tag_132\n        /* \"https://github.com/OpenZeppelin/openzeppelin-contracts/blob/v4.8.0/contracts/access/AccessControl.sol\":2516:2520  role */\n      dup2\n        /* \"https://github.com/OpenZeppelin/openzeppelin-contracts/blob/v4.8.0/contracts/access/AccessControl.sol\":2505:2515  _checkRole */\n      tag_95\n        /* \"https://github.com/OpenZeppelin/openzeppelin-contracts/blob/v4.8.0/contracts/access/AccessControl.sol\":2505:2521  _checkRole(role) */\n      jump\t// in\n    tag_132:\n        /* \"contracts/v2/TikTrixGame.sol\":2021:2030  gameInfos */\n      0x01\n        /* \"contracts/v2/TikTrixGame.sol\":2021:2039  gameInfos[gameSeq] */\n      0x00\n        /* \"contracts/v2/TikTrixGame.sol\":2031:2038  gameSeq */\n      dup4\n        /* \"contracts/v2/TikTrixGame.sol\":2021:2039  gameInfos[gameSeq] */\n      dup2\n      mstore\n      0x20\n      add\n      swap1\n      dup2\n      mstore\n      0x20\n      add\n      0x00\n      keccak256\n        /* \"contracts/v2/TikTrixGame.sol\":2021:2046  gameInfos[gameSeq].exists */\n      0x03\n      add\n      0x00\n      swap1\n      sload\n      swap1\n      0x0100\n      exp\n      swap1\n      div\n      0xff\n      and\n        /* \"contracts/v2/TikTrixGame.sol\":2013:2070  require(gameInfos[gameSeq].exists, \"Game does not exist\") */\n      tag_134\n      jumpi\n      mload(0x40)\n      0x08c379a000000000000000000000000000000000000000000000000000000000\n      dup2\n      mstore\n      0x04\n      add\n      tag_135\n      swap1\n      tag_112\n      jump\t// in\n    tag_135:\n      mload(0x40)\n      dup1\n      swap2\n      sub\n      swap1\n      revert\n    tag_134:\n        /* \"contracts/v2/TikTrixGame.sol\":2087:2096  gameInfos */\n      0x01\n        /* \"contracts/v2/TikTrixGame.sol\":2087:2105  gameInfos[gameSeq] */\n      0x00\n        /* \"contracts/v2/TikTrixGame.sol\":2097:2104  gameSeq */\n      dup4\n        /* \"contracts/v2/TikTrixGame.sol\":2087:2105  gameInfos[gameSeq] */\n      dup2\n      mstore\n      0x20\n      add\n      swap1\n      dup2\n      mstore\n      0x20\n      add\n      0x00\n      keccak256\n      0x00\n        /* \"contracts/v2/TikTrixGame.sol\":2080:2105  delete gameInfos[gameSeq] */\n      dup1\n      dup3\n      add\n      0x00\n      swap1\n      sstore\n      0x01\n      dup3\n      add\n      0x00\n      swap1\n      sstore\n      0x02\n      dup3\n      add\n      0x00\n      tag_136\n      swap2\n      swap1\n      tag_137\n      jump\t// in\n    tag_136:\n      0x03\n      dup3\n      add\n      exp(0x0100, 0x00)\n      dup2\n      sload\n      swap1\n      0xff\n      mul\n      not\n      and\n      swap1\n      sstore\n      pop\n      pop\n        /* \"contracts/v2/TikTrixGame.sol\":2132:2139  gameSeq */\n      dup2\n        /* \"contracts/v2/TikTrixGame.sol\":2120:2140  GameDeleted(gameSeq) */\n      0x5ef6221cc1c069a8c723210c08d526c7ca88540ee8d66470cf01844efaae0b94\n      mload(0x40)\n      mload(0x40)\n      dup1\n      swap2\n      sub\n      swap1\n      log2\n        /* \"contracts/v2/TikTrixGame.sol\":1936:2147  function gameDelete(uint256 gameSeq) external onlyRole(ADMIN_ROLE) {... */\n      pop\n      pop\n      jump\t// out\n        /* \"https://github.com/OpenZeppelin/openzeppelin-contracts/blob/v4.8.0/contracts/access/AccessControl.sol\":2895:3040  function hasRole(bytes32 role, address account) public view virtual override returns (bool) {... */\n    tag_68:\n        /* \"https://github.com/OpenZeppelin/openzeppelin-contracts/blob/v4.8.0/contracts/access/AccessControl.sol\":2981:2985  bool */\n      0x00\n        /* \"https://github.com/OpenZeppelin/openzeppelin-contracts/blob/v4.8.0/contracts/access/AccessControl.sol\":3004:3010  _roles */\n      dup1\n        /* \"https://github.com/OpenZeppelin/openzeppelin-contracts/blob/v4.8.0/contracts/access/AccessControl.sol\":3004:3016  _roles[role] */\n      0x00\n        /* \"https://github.com/OpenZeppelin/openzeppelin-contracts/blob/v4.8.0/contracts/access/AccessControl.sol\":3011:3015  role */\n      dup5\n        /* \"https://github.com/OpenZeppelin/openzeppelin-contracts/blob/v4.8.0/contracts/access/AccessControl.sol\":3004:3016  _roles[role] */\n      dup2\n      mstore\n      0x20\n      add\n      swap1\n      dup2\n      mstore\n      0x20\n      add\n      0x00\n      keccak256\n        /* \"https://github.com/OpenZeppelin/openzeppelin-contracts/blob/v4.8.0/contracts/access/AccessControl.sol\":3004:3024  _roles[role].members */\n      0x00\n      add\n        /* \"https://github.com/OpenZeppelin/openzeppelin-contracts/blob/v4.8.0/contracts/access/AccessControl.sol\":3004:3033  _roles[role].members[account] */\n      0x00\n        /* \"https://github.com/OpenZeppelin/openzeppelin-contracts/blob/v4.8.0/contracts/access/AccessControl.sol\":3025:3032  account */\n      dup4\n        /* \"https://github.com/OpenZeppelin/openzeppelin-contracts/blob/v4.8.0/contracts/access/AccessControl.sol\":3004:3033  _roles[role].members[account] */\n      0xffffffffffffffffffffffffffffffffffffffff\n      and\n      0xffffffffffffffffffffffffffffffffffffffff\n      and\n      dup2\n      mstore\n      0x20\n      add\n      swap1\n      dup2\n      mstore\n      0x20\n      add\n      0x00\n      keccak256\n      0x00\n      swap1\n      sload\n      swap1\n      0x0100\n      exp\n      swap1\n      div\n      0xff\n      and\n        /* \"https://github.com/OpenZeppelin/openzeppelin-contracts/blob/v4.8.0/contracts/access/AccessControl.sol\":2997:3033  return _roles[role].members[account] */\n      swap1\n      pop\n        /* \"https://github.com/OpenZeppelin/openzeppelin-contracts/blob/v4.8.0/contracts/access/AccessControl.sol\":2895:3040  function hasRole(bytes32 role, address account) public view virtual override returns (bool) {... */\n      swap3\n      swap2\n      pop\n      pop\n      jump\t// out\n        /* \"contracts/v2/TikTrixGame.sol\":1028:1154  function revokeAdminRole(address account) public onlyRole(DEFAULT_ADMIN_ROLE) {... */\n    tag_73:\n        /* \"https://github.com/OpenZeppelin/openzeppelin-contracts/blob/v4.8.0/contracts/access/AccessControl.sol\":2072:2076  0x00 */\n      0x00\n        /* \"contracts/v2/TikTrixGame.sol\":1086:1104  DEFAULT_ADMIN_ROLE */\n      dup1\n      shl\n        /* \"https://github.com/OpenZeppelin/openzeppelin-contracts/blob/v4.8.0/contracts/access/AccessControl.sol\":2505:2521  _checkRole(role) */\n      tag_140\n        /* \"https://github.com/OpenZeppelin/openzeppelin-contracts/blob/v4.8.0/contracts/access/AccessControl.sol\":2516:2520  role */\n      dup2\n        /* \"https://github.com/OpenZeppelin/openzeppelin-contracts/blob/v4.8.0/contracts/access/AccessControl.sol\":2505:2515  _checkRole */\n      tag_95\n        /* \"https://github.com/OpenZeppelin/openzeppelin-contracts/blob/v4.8.0/contracts/access/AccessControl.sol\":2505:2521  _checkRole(role) */\n      jump\t// in\n    tag_140:\n        /* \"contracts/v2/TikTrixGame.sol\":1116:1147  revokeRole(ADMIN_ROLE, account) */\n      tag_142\n        /* \"contracts/v2/TikTrixGame.sol\":362:385  keccak256(\"ADMIN_ROLE\") */\n      0xa49807205ce4d355092ef5a8a18f56e8913cf4a201fbe287825b095693c21775\n        /* \"contracts/v2/TikTrixGame.sol\":1139:1146  account */\n      dup4\n        /* \"contracts/v2/TikTrixGame.sol\":1116:1126  revokeRole */\n      tag_85\n        /* \"contracts/v2/TikTrixGame.sol\":1116:1147  revokeRole(ADMIN_ROLE, account) */\n      jump\t// in\n    tag_142:\n        /* \"contracts/v2/TikTrixGame.sol\":1028:1154  function revokeAdminRole(address account) public onlyRole(DEFAULT_ADMIN_ROLE) {... */\n      pop\n      pop\n      jump\t// out\n        /* \"https://github.com/OpenZeppelin/openzeppelin-contracts/blob/v4.8.0/contracts/access/AccessControl.sol\":2027:2076  bytes32 public constant DEFAULT_ADMIN_ROLE = 0x00 */\n    tag_75:\n        /* \"https://github.com/OpenZeppelin/openzeppelin-contracts/blob/v4.8.0/contracts/access/AccessControl.sol\":2072:2076  0x00 */\n      0x00\n        /* \"https://github.com/OpenZeppelin/openzeppelin-contracts/blob/v4.8.0/contracts/access/AccessControl.sol\":2027:2076  bytes32 public constant DEFAULT_ADMIN_ROLE = 0x00 */\n      dup1\n      shl\n      dup2\n      jump\t// out\n        /* \"contracts/v2/TikTrixGame.sol\":1518:1930  function gameUpdate(uint256 developerSeq, uint256 gameSeq, string memory title) external onlyRole(ADMIN_ROLE) {... */\n    tag_79:\n        /* \"contracts/v2/TikTrixGame.sol\":362:385  keccak256(\"ADMIN_ROLE\") */\n      0xa49807205ce4d355092ef5a8a18f56e8913cf4a201fbe287825b095693c21775\n        /* \"https://github.com/OpenZeppelin/openzeppelin-contracts/blob/v4.8.0/contracts/access/AccessControl.sol\":2505:2521  _checkRole(role) */\n      tag_144\n        /* \"https://github.com/OpenZeppelin/openzeppelin-contracts/blob/v4.8.0/contracts/access/AccessControl.sol\":2516:2520  role */\n      dup2\n        /* \"https://github.com/OpenZeppelin/openzeppelin-contracts/blob/v4.8.0/contracts/access/AccessControl.sol\":2505:2515  _checkRole */\n      tag_95\n        /* \"https://github.com/OpenZeppelin/openzeppelin-contracts/blob/v4.8.0/contracts/access/AccessControl.sol\":2505:2521  _checkRole(role) */\n      jump\t// in\n    tag_144:\n        /* \"contracts/v2/TikTrixGame.sol\":1646:1655  gameInfos */\n      0x01\n        /* \"contracts/v2/TikTrixGame.sol\":1646:1664  gameInfos[gameSeq] */\n      0x00\n        /* \"contracts/v2/TikTrixGame.sol\":1656:1663  gameSeq */\n      dup5\n        /* \"contracts/v2/TikTrixGame.sol\":1646:1664  gameInfos[gameSeq] */\n      dup2\n      mstore\n      0x20\n      add\n      swap1\n      dup2\n      mstore\n      0x20\n      add\n      0x00\n      keccak256\n        /* \"contracts/v2/TikTrixGame.sol\":1646:1671  gameInfos[gameSeq].exists */\n      0x03\n      add\n      0x00\n      swap1\n      sload\n      swap1\n      0x0100\n      exp\n      swap1\n      div\n      0xff\n      and\n        /* \"contracts/v2/TikTrixGame.sol\":1638:1695  require(gameInfos[gameSeq].exists, \"Game does not exist\") */\n      tag_146\n      jumpi\n      mload(0x40)\n      0x08c379a000000000000000000000000000000000000000000000000000000000\n      dup2\n      mstore\n      0x04\n      add\n      tag_147\n      swap1\n      tag_112\n      jump\t// in\n    tag_147:\n      mload(0x40)\n      dup1\n      swap2\n      sub\n      swap1\n      revert\n    tag_146:\n        /* \"contracts/v2/TikTrixGame.sol\":1706:1731  GameInfo storage gameInfo */\n      0x00\n        /* \"contracts/v2/TikTrixGame.sol\":1734:1743  gameInfos */\n      0x01\n        /* \"contracts/v2/TikTrixGame.sol\":1734:1752  gameInfos[gameSeq] */\n      0x00\n        /* \"contracts/v2/TikTrixGame.sol\":1744:1751  gameSeq */\n      dup6\n        /* \"contracts/v2/TikTrixGame.sol\":1734:1752  gameInfos[gameSeq] */\n      dup2\n      mstore\n      0x20\n      add\n      swap1\n      dup2\n      mstore\n      0x20\n      add\n      0x00\n      keccak256\n        /* \"contracts/v2/TikTrixGame.sol\":1706:1752  GameInfo storage gameInfo = gameInfos[gameSeq] */\n      swap1\n      pop\n        /* \"contracts/v2/TikTrixGame.sol\":1786:1798  developerSeq */\n      dup5\n        /* \"contracts/v2/TikTrixGame.sol\":1762:1770  gameInfo */\n      dup2\n        /* \"contracts/v2/TikTrixGame.sol\":1762:1783  gameInfo.developerSeq */\n      0x00\n      add\n        /* \"contracts/v2/TikTrixGame.sol\":1762:1798  gameInfo.developerSeq = developerSeq */\n      dup2\n      swap1\n      sstore\n      pop\n        /* \"contracts/v2/TikTrixGame.sol\":1827:1834  gameSeq */\n      dup4\n        /* \"contracts/v2/TikTrixGame.sol\":1808:1816  gameInfo */\n      dup2\n        /* \"contracts/v2/TikTrixGame.sol\":1808:1824  gameInfo.gameSeq */\n      0x01\n      add\n        /* \"contracts/v2/TikTrixGame.sol\":1808:1834  gameInfo.gameSeq = gameSeq */\n      dup2\n      swap1\n      sstore\n      pop\n        /* \"contracts/v2/TikTrixGame.sol\":1861:1866  title */\n      dup3\n        /* \"contracts/v2/TikTrixGame.sol\":1844:1852  gameInfo */\n      dup2\n        /* \"contracts/v2/TikTrixGame.sol\":1844:1858  gameInfo.title */\n      0x02\n      add\n        /* \"contracts/v2/TikTrixGame.sol\":1844:1866  gameInfo.title = title */\n      swap1\n      dup2\n      tag_148\n      swap2\n      swap1\n      tag_128\n      jump\t// in\n    tag_148:\n      pop\n        /* \"contracts/v2/TikTrixGame.sol\":1882:1923  GameUpdated(developerSeq, gameSeq, title) */\n      0x279760c089dcaf505489fffb102c4bf947fb1847e8a7febd514bd92ffe977bc2\n        /* \"contracts/v2/TikTrixGame.sol\":1894:1906  developerSeq */\n      dup6\n        /* \"contracts/v2/TikTrixGame.sol\":1908:1915  gameSeq */\n      dup6\n        /* \"contracts/v2/TikTrixGame.sol\":1917:1922  title */\n      dup6\n        /* \"contracts/v2/TikTrixGame.sol\":1882:1923  GameUpdated(developerSeq, gameSeq, title) */\n      mload(0x40)\n      tag_149\n      swap4\n      swap3\n      swap2\n      swap1\n      tag_130\n      jump\t// in\n    tag_149:\n      mload(0x40)\n      dup1\n      swap2\n      sub\n      swap1\n      log1\n        /* \"contracts/v2/TikTrixGame.sol\":1628:1930  {... */\n      pop\n        /* \"contracts/v2/TikTrixGame.sol\":1518:1930  function gameUpdate(uint256 developerSeq, uint256 gameSeq, string memory title) external onlyRole(ADMIN_ROLE) {... */\n      pop\n      pop\n      pop\n      pop\n      jump\t// out\n        /* \"contracts/v2/TikTrixGame.sol\":898:1022  function grantAdminRole(address account) public onlyRole(DEFAULT_ADMIN_ROLE) {... */\n    tag_82:\n        /* \"https://github.com/OpenZeppelin/openzeppelin-contracts/blob/v4.8.0/contracts/access/AccessControl.sol\":2072:2076  0x00 */\n      0x00\n        /* \"contracts/v2/TikTrixGame.sol\":955:973  DEFAULT_ADMIN_ROLE */\n      dup1\n      shl\n        /* \"https://github.com/OpenZeppelin/openzeppelin-contracts/blob/v4.8.0/contracts/access/AccessControl.sol\":2505:2521  _checkRole(role) */\n      tag_151\n        /* \"https://github.com/OpenZeppelin/openzeppelin-contracts/blob/v4.8.0/contracts/access/AccessControl.sol\":2516:2520  role */\n      dup2\n        /* \"https://github.com/OpenZeppelin/openzeppelin-contracts/blob/v4.8.0/contracts/access/AccessControl.sol\":2505:2515  _checkRole */\n      tag_95\n        /* \"https://github.com/OpenZeppelin/openzeppelin-contracts/blob/v4.8.0/contracts/access/AccessControl.sol\":2505:2521  _checkRole(role) */\n      jump\t// in\n    tag_151:\n        /* \"contracts/v2/TikTrixGame.sol\":985:1015  grantRole(ADMIN_ROLE, account) */\n      tag_153\n        /* \"contracts/v2/TikTrixGame.sol\":362:385  keccak256(\"ADMIN_ROLE\") */\n      0xa49807205ce4d355092ef5a8a18f56e8913cf4a201fbe287825b095693c21775\n        /* \"contracts/v2/TikTrixGame.sol\":1007:1014  account */\n      dup4\n        /* \"contracts/v2/TikTrixGame.sol\":985:994  grantRole */\n      tag_42\n        /* \"contracts/v2/TikTrixGame.sol\":985:1015  grantRole(ADMIN_ROLE, account) */\n      jump\t// in\n    tag_153:\n        /* \"contracts/v2/TikTrixGame.sol\":898:1022  function grantAdminRole(address account) public onlyRole(DEFAULT_ADMIN_ROLE) {... */\n      pop\n      pop\n      jump\t// out\n        /* \"https://github.com/OpenZeppelin/openzeppelin-contracts/blob/v4.8.0/contracts/access/AccessControl.sol\":5228:5375  function revokeRole(bytes32 role, address account) public virtual override onlyRole(getRoleAdmin(role)) {... */\n    tag_85:\n        /* \"https://github.com/OpenZeppelin/openzeppelin-contracts/blob/v4.8.0/contracts/access/AccessControl.sol\":5312:5330  getRoleAdmin(role) */\n      tag_154\n        /* \"https://github.com/OpenZeppelin/openzeppelin-contracts/blob/v4.8.0/contracts/access/AccessControl.sol\":5325:5329  role */\n      dup3\n        /* \"https://github.com/OpenZeppelin/openzeppelin-contracts/blob/v4.8.0/contracts/access/AccessControl.sol\":5312:5324  getRoleAdmin */\n      tag_36\n        /* \"https://github.com/OpenZeppelin/openzeppelin-contracts/blob/v4.8.0/contracts/access/AccessControl.sol\":5312:5330  getRoleAdmin(role) */\n      jump\t// in\n    tag_154:\n        /* \"https://github.com/OpenZeppelin/openzeppelin-contracts/blob/v4.8.0/contracts/access/AccessControl.sol\":2505:2521  _checkRole(role) */\n      tag_156\n        /* \"https://github.com/OpenZeppelin/openzeppelin-contracts/blob/v4.8.0/contracts/access/AccessControl.sol\":2516:2520  role */\n      dup2\n        /* \"https://github.com/OpenZeppelin/openzeppelin-contracts/blob/v4.8.0/contracts/access/AccessControl.sol\":2505:2515  _checkRole */\n      tag_95\n        /* \"https://github.com/OpenZeppelin/openzeppelin-contracts/blob/v4.8.0/contracts/access/AccessControl.sol\":2505:2521  _checkRole(role) */\n      jump\t// in\n    tag_156:\n        /* \"https://github.com/OpenZeppelin/openzeppelin-contracts/blob/v4.8.0/contracts/access/AccessControl.sol\":5342:5368  _revokeRole(role, account) */\n      tag_158\n        /* \"https://github.com/OpenZeppelin/openzeppelin-contracts/blob/v4.8.0/contracts/access/AccessControl.sol\":5354:5358  role */\n      dup4\n        /* \"https://github.com/OpenZeppelin/openzeppelin-contracts/blob/v4.8.0/contracts/access/AccessControl.sol\":5360:5367  account */\n      dup4\n        /* \"https://github.com/OpenZeppelin/openzeppelin-contracts/blob/v4.8.0/contracts/access/AccessControl.sol\":5342:5353  _revokeRole */\n      tag_106\n        /* \"https://github.com/OpenZeppelin/openzeppelin-contracts/blob/v4.8.0/contracts/access/AccessControl.sol\":5342:5368  _revokeRole(role, account) */\n      jump\t// in\n    tag_158:\n        /* \"https://github.com/OpenZeppelin/openzeppelin-contracts/blob/v4.8.0/contracts/access/AccessControl.sol\":5228:5375  function revokeRole(bytes32 role, address account) public virtual override onlyRole(getRoleAdmin(role)) {... */\n      pop\n      pop\n      pop\n      jump\t// out\n        /* \"https://github.com/OpenZeppelin/openzeppelin-contracts/blob/v4.8.0/contracts/utils/introspection/ERC165.sol\":829:984  function supportsInterface(bytes4 interfaceId) public view virtual override returns (bool) {... */\n    tag_89:\n        /* \"https://github.com/OpenZeppelin/openzeppelin-contracts/blob/v4.8.0/contracts/utils/introspection/ERC165.sol\":914:918  bool */\n      0x00\n        /* \"https://github.com/OpenZeppelin/openzeppelin-contracts/blob/v4.8.0/contracts/utils/introspection/ERC165.sol\":952:977  type(IERC165).interfaceId */\n      0x01ffc9a700000000000000000000000000000000000000000000000000000000\n        /* \"https://github.com/OpenZeppelin/openzeppelin-contracts/blob/v4.8.0/contracts/utils/introspection/ERC165.sol\":937:977  interfaceId == type(IERC165).interfaceId */\n      not(0xffffffffffffffffffffffffffffffffffffffffffffffffffffffff)\n      and\n        /* \"https://github.com/OpenZeppelin/openzeppelin-contracts/blob/v4.8.0/contracts/utils/introspection/ERC165.sol\":937:948  interfaceId */\n      dup3\n        /* \"https://github.com/OpenZeppelin/openzeppelin-contracts/blob/v4.8.0/contracts/utils/introspection/ERC165.sol\":937:977  interfaceId == type(IERC165).interfaceId */\n      not(0xffffffffffffffffffffffffffffffffffffffffffffffffffffffff)\n      and\n      eq\n        /* \"https://github.com/OpenZeppelin/openzeppelin-contracts/blob/v4.8.0/contracts/utils/introspection/ERC165.sol\":930:977  return interfaceId == type(IERC165).interfaceId */\n      swap1\n      pop\n        /* \"https://github.com/OpenZeppelin/openzeppelin-contracts/blob/v4.8.0/contracts/utils/introspection/ERC165.sol\":829:984  function supportsInterface(bytes4 interfaceId) public view virtual override returns (bool) {... */\n      swap2\n      swap1\n      pop\n      jump\t// out\n        /* \"https://github.com/OpenZeppelin/openzeppelin-contracts/blob/v4.8.0/contracts/access/AccessControl.sol\":3334:3437  function _checkRole(bytes32 role) internal view virtual {... */\n    tag_95:\n        /* \"https://github.com/OpenZeppelin/openzeppelin-contracts/blob/v4.8.0/contracts/access/AccessControl.sol\":3400:3430  _checkRole(role, _msgSender()) */\n      tag_161\n        /* \"https://github.com/OpenZeppelin/openzeppelin-contracts/blob/v4.8.0/contracts/access/AccessControl.sol\":3411:3415  role */\n      dup2\n        /* \"https://github.com/OpenZeppelin/openzeppelin-contracts/blob/v4.8.0/contracts/access/AccessControl.sol\":3417:3429  _msgSender() */\n      tag_162\n        /* \"https://github.com/OpenZeppelin/openzeppelin-contracts/blob/v4.8.0/contracts/access/AccessControl.sol\":3417:3427  _msgSender */\n      tag_101\n        /* \"https://github.com/OpenZeppelin/openzeppelin-contracts/blob/v4.8.0/contracts/access/AccessControl.sol\":3417:3429  _msgSender() */\n      jump\t// in\n    tag_162:\n        /* \"https://github.com/OpenZeppelin/openzeppelin-contracts/blob/v4.8.0/contracts/access/AccessControl.sol\":3400:3410  _checkRole */\n      tag_163\n        /* \"https://github.com/OpenZeppelin/openzeppelin-contracts/blob/v4.8.0/contracts/access/AccessControl.sol\":3400:3430  _checkRole(role, _msgSender()) */\n      jump\t// in\n    tag_161:\n        /* \"https://github.com/OpenZeppelin/openzeppelin-contracts/blob/v4.8.0/contracts/access/AccessControl.sol\":3334:3437  function _checkRole(bytes32 role) internal view virtual {... */\n      pop\n      jump\t// out\n        /* \"https://github.com/OpenZeppelin/openzeppelin-contracts/blob/v4.8.0/contracts/access/AccessControl.sol\":7461:7694  function _grantRole(bytes32 role, address account) internal virtual {... */\n    tag_98:\n        /* \"https://github.com/OpenZeppelin/openzeppelin-contracts/blob/v4.8.0/contracts/access/AccessControl.sol\":7544:7566  hasRole(role, account) */\n      tag_165\n        /* \"https://github.com/OpenZeppelin/openzeppelin-contracts/blob/v4.8.0/contracts/access/AccessControl.sol\":7552:7556  role */\n      dup3\n        /* \"https://github.com/OpenZeppelin/openzeppelin-contracts/blob/v4.8.0/contracts/access/AccessControl.sol\":7558:7565  account */\n      dup3\n        /* \"https://github.com/OpenZeppelin/openzeppelin-contracts/blob/v4.8.0/contracts/access/AccessControl.sol\":7544:7551  hasRole */\n      tag_68\n        /* \"https://github.com/OpenZeppelin/openzeppelin-contracts/blob/v4.8.0/contracts/access/AccessControl.sol\":7544:7566  hasRole(role, account) */\n      jump\t// in\n    tag_165:\n        /* \"https://github.com/OpenZeppelin/openzeppelin-contracts/blob/v4.8.0/contracts/access/AccessControl.sol\":7539:7688  if (!hasRole(role, account)) {... */\n      tag_166\n      jumpi\n        /* \"https://github.com/OpenZeppelin/openzeppelin-contracts/blob/v4.8.0/contracts/access/AccessControl.sol\":7614:7618  true */\n      0x01\n        /* \"https://github.com/OpenZeppelin/openzeppelin-contracts/blob/v4.8.0/contracts/access/AccessControl.sol\":7582:7588  _roles */\n      0x00\n        /* \"https://github.com/OpenZeppelin/openzeppelin-contracts/blob/v4.8.0/contracts/access/AccessControl.sol\":7582:7594  _roles[role] */\n      dup1\n        /* \"https://github.com/OpenZeppelin/openzeppelin-contracts/blob/v4.8.0/contracts/access/AccessControl.sol\":7589:7593  role */\n      dup5\n        /* \"https://github.com/OpenZeppelin/openzeppelin-contracts/blob/v4.8.0/contracts/access/AccessControl.sol\":7582:7594  _roles[role] */\n      dup2\n      mstore\n      0x20\n      add\n      swap1\n      dup2\n      mstore\n      0x20\n      add\n      0x00\n      keccak256\n        /* \"https://github.com/OpenZeppelin/openzeppelin-contracts/blob/v4.8.0/contracts/access/AccessControl.sol\":7582:7602  _roles[role].members */\n      0x00\n      add\n        /* \"https://github.com/OpenZeppelin/openzeppelin-contracts/blob/v4.8.0/contracts/access/AccessControl.sol\":7582:7611  _roles[role].members[account] */\n      0x00\n        /* \"https://github.com/OpenZeppelin/openzeppelin-contracts/blob/v4.8.0/contracts/access/AccessControl.sol\":7603:7610  account */\n      dup4\n        /* \"https://github.com/OpenZeppelin/openzeppelin-contracts/blob/v4.8.0/contracts/access/AccessControl.sol\":7582:7611  _roles[role].members[account] */\n      0xffffffffffffffffffffffffffffffffffffffff\n      and\n      0xffffffffffffffffffffffffffffffffffffffff\n      and\n      dup2\n      mstore\n      0x20\n      add\n      swap1\n      dup2\n      mstore\n      0x20\n      add\n      0x00\n      keccak256\n      0x00\n        /* \"https://github.com/OpenZeppelin/openzeppelin-contracts/blob/v4.8.0/contracts/access/AccessControl.sol\":7582:7618  _roles[role].members[account] = true */\n      0x0100\n      exp\n      dup2\n      sload\n      dup2\n      0xff\n      mul\n      not\n      and\n      swap1\n      dup4\n      iszero\n      iszero\n      mul\n      or\n      swap1\n      sstore\n      pop\n        /* \"https://github.com/OpenZeppelin/openzeppelin-contracts/blob/v4.8.0/contracts/access/AccessControl.sol\":7664:7676  _msgSender() */\n      tag_167\n        /* \"https://github.com/OpenZeppelin/openzeppelin-contracts/blob/v4.8.0/contracts/access/AccessControl.sol\":7664:7674  _msgSender */\n      tag_101\n        /* \"https://github.com/OpenZeppelin/openzeppelin-contracts/blob/v4.8.0/contracts/access/AccessControl.sol\":7664:7676  _msgSender() */\n      jump\t// in\n    tag_167:\n        /* \"https://github.com/OpenZeppelin/openzeppelin-contracts/blob/v4.8.0/contracts/access/AccessControl.sol\":7637:7677  RoleGranted(role, account, _msgSender()) */\n      0xffffffffffffffffffffffffffffffffffffffff\n      and\n        /* \"https://github.com/OpenZeppelin/openzeppelin-contracts/blob/v4.8.0/contracts/access/AccessControl.sol\":7655:7662  account */\n      dup2\n        /* \"https://github.com/OpenZeppelin/openzeppelin-contracts/blob/v4.8.0/contracts/access/AccessControl.sol\":7637:7677  RoleGranted(role, account, _msgSender()) */\n      0xffffffffffffffffffffffffffffffffffffffff\n      and\n        /* \"https://github.com/OpenZeppelin/openzeppelin-contracts/blob/v4.8.0/contracts/access/AccessControl.sol\":7649:7653  role */\n      dup4\n        /* \"https://github.com/OpenZeppelin/openzeppelin-contracts/blob/v4.8.0/contracts/access/AccessControl.sol\":7637:7677  RoleGranted(role, account, _msgSender()) */\n      0x2f8788117e7eff1d82e926ec794901d17c78024a50270940304540a733656f0d\n      mload(0x40)\n      mload(0x40)\n      dup1\n      swap2\n      sub\n      swap1\n      log4\n        /* \"https://github.com/OpenZeppelin/openzeppelin-contracts/blob/v4.8.0/contracts/access/AccessControl.sol\":7539:7688  if (!hasRole(role, account)) {... */\n    tag_166:\n        /* \"https://github.com/OpenZeppelin/openzeppelin-contracts/blob/v4.8.0/contracts/access/AccessControl.sol\":7461:7694  function _grantRole(bytes32 role, address account) internal virtual {... */\n      pop\n      pop\n      jump\t// out\n        /* \"https://github.com/OpenZeppelin/openzeppelin-contracts/blob/v4.8.0/contracts/utils/Context.sol\":640:736  function _msgSender() internal view virtual returns (address) {... */\n    tag_101:\n        /* \"https://github.com/OpenZeppelin/openzeppelin-contracts/blob/v4.8.0/contracts/utils/Context.sol\":693:700  address */\n      0x00\n        /* \"https://github.com/OpenZeppelin/openzeppelin-contracts/blob/v4.8.0/contracts/utils/Context.sol\":719:729  msg.sender */\n      caller\n        /* \"https://github.com/OpenZeppelin/openzeppelin-contracts/blob/v4.8.0/contracts/utils/Context.sol\":712:729  return msg.sender */\n      swap1\n      pop\n        /* \"https://github.com/OpenZeppelin/openzeppelin-contracts/blob/v4.8.0/contracts/utils/Context.sol\":640:736  function _msgSender() internal view virtual returns (address) {... */\n      swap1\n      jump\t// out\n        /* \"https://github.com/OpenZeppelin/openzeppelin-contracts/blob/v4.8.0/contracts/access/AccessControl.sol\":7865:8099  function _revokeRole(bytes32 role, address account) internal virtual {... */\n    tag_106:\n        /* \"https://github.com/OpenZeppelin/openzeppelin-contracts/blob/v4.8.0/contracts/access/AccessControl.sol\":7948:7970  hasRole(role, account) */\n      tag_170\n        /* \"https://github.com/OpenZeppelin/openzeppelin-contracts/blob/v4.8.0/contracts/access/AccessControl.sol\":7956:7960  role */\n      dup3\n        /* \"https://github.com/OpenZeppelin/openzeppelin-contracts/blob/v4.8.0/contracts/access/AccessControl.sol\":7962:7969  account */\n      dup3\n        /* \"https://github.com/OpenZeppelin/openzeppelin-contracts/blob/v4.8.0/contracts/access/AccessControl.sol\":7948:7955  hasRole */\n      tag_68\n        /* \"https://github.com/OpenZeppelin/openzeppelin-contracts/blob/v4.8.0/contracts/access/AccessControl.sol\":7948:7970  hasRole(role, account) */\n      jump\t// in\n    tag_170:\n        /* \"https://github.com/OpenZeppelin/openzeppelin-contracts/blob/v4.8.0/contracts/access/AccessControl.sol\":7944:8093  if (hasRole(role, account)) {... */\n      iszero\n      tag_171\n      jumpi\n        /* \"https://github.com/OpenZeppelin/openzeppelin-contracts/blob/v4.8.0/contracts/access/AccessControl.sol\":8018:8023  false */\n      0x00\n        /* \"https://github.com/OpenZeppelin/openzeppelin-contracts/blob/v4.8.0/contracts/access/AccessControl.sol\":7986:7992  _roles */\n      dup1\n        /* \"https://github.com/OpenZeppelin/openzeppelin-contracts/blob/v4.8.0/contracts/access/AccessControl.sol\":7986:7998  _roles[role] */\n      0x00\n        /* \"https://github.com/OpenZeppelin/openzeppelin-contracts/blob/v4.8.0/contracts/access/AccessControl.sol\":7993:7997  role */\n      dup5\n        /* \"https://github.com/OpenZeppelin/openzeppelin-contracts/blob/v4.8.0/contracts/access/AccessControl.sol\":7986:7998  _roles[role] */\n      dup2\n      mstore\n      0x20\n      add\n      swap1\n      dup2\n      mstore\n      0x20\n      add\n      0x00\n      keccak256\n        /* \"https://github.com/OpenZeppelin/openzeppelin-contracts/blob/v4.8.0/contracts/access/AccessControl.sol\":7986:8006  _roles[role].members */\n      0x00\n      add\n        /* \"https://github.com/OpenZeppelin/openzeppelin-contracts/blob/v4.8.0/contracts/access/AccessControl.sol\":7986:8015  _roles[role].members[account] */\n      0x00\n        /* \"https://github.com/OpenZeppelin/openzeppelin-contracts/blob/v4.8.0/contracts/access/AccessControl.sol\":8007:8014  account */\n      dup4\n        /* \"https://github.com/OpenZeppelin/openzeppelin-contracts/blob/v4.8.0/contracts/access/AccessControl.sol\":7986:8015  _roles[role].members[account] */\n      0xffffffffffffffffffffffffffffffffffffffff\n      and\n      0xffffffffffffffffffffffffffffffffffffffff\n      and\n      dup2\n      mstore\n      0x20\n      add\n      swap1\n      dup2\n      mstore\n      0x20\n      add\n      0x00\n      keccak256\n      0x00\n        /* \"https://github.com/OpenZeppelin/openzeppelin-contracts/blob/v4.8.0/contracts/access/AccessControl.sol\":7986:8023  _roles[role].members[account] = false */\n      0x0100\n      exp\n      dup2\n      sload\n      dup2\n      0xff\n      mul\n      not\n      and\n      swap1\n      dup4\n      iszero\n      iszero\n      mul\n      or\n      swap1\n      sstore\n      pop\n        /* \"https://github.com/OpenZeppelin/openzeppelin-contracts/blob/v4.8.0/contracts/access/AccessControl.sol\":8069:8081  _msgSender() */\n      tag_172\n        /* \"https://github.com/OpenZeppelin/openzeppelin-contracts/blob/v4.8.0/contracts/access/AccessControl.sol\":8069:8079  _msgSender */\n      tag_101\n        /* \"https://github.com/OpenZeppelin/openzeppelin-contracts/blob/v4.8.0/contracts/access/AccessControl.sol\":8069:8081  _msgSender() */\n      jump\t// in\n    tag_172:\n        /* \"https://github.com/OpenZeppelin/openzeppelin-contracts/blob/v4.8.0/contracts/access/AccessControl.sol\":8042:8082  RoleRevoked(role, account, _msgSender()) */\n      0xffffffffffffffffffffffffffffffffffffffff\n      and\n        /* \"https://github.com/OpenZeppelin/openzeppelin-contracts/blob/v4.8.0/contracts/access/AccessControl.sol\":8060:8067  account */\n      dup2\n        /* \"https://github.com/OpenZeppelin/openzeppelin-contracts/blob/v4.8.0/contracts/access/AccessControl.sol\":8042:8082  RoleRevoked(role, account, _msgSender()) */\n      0xffffffffffffffffffffffffffffffffffffffff\n      and\n        /* \"https://github.com/OpenZeppelin/openzeppelin-contracts/blob/v4.8.0/contracts/access/AccessControl.sol\":8054:8058  role */\n      dup4\n        /* \"https://github.com/OpenZeppelin/openzeppelin-contracts/blob/v4.8.0/contracts/access/AccessControl.sol\":8042:8082  RoleRevoked(role, account, _msgSender()) */\n      0xf6391f5c32d9c69d2a47ea670b442974b53935d1edc7fd64eb21e047a839171b\n      mload(0x40)\n      mload(0x40)\n      dup1\n      swap2\n      sub\n      swap1\n      log4\n        /* \"https://github.com/OpenZeppelin/openzeppelin-contracts/blob/v4.8.0/contracts/access/AccessControl.sol\":7944:8093  if (hasRole(role, account)) {... */\n    tag_171:\n        /* \"https://github.com/OpenZeppelin/openzeppelin-contracts/blob/v4.8.0/contracts/access/AccessControl.sol\":7865:8099  function _revokeRole(bytes32 role, address account) internal virtual {... */\n      pop\n      pop\n      jump\t// out\n        /* \"https://github.com/OpenZeppelin/openzeppelin-contracts/blob/v4.8.0/contracts/access/AccessControl.sol\":3718:4197  function _checkRole(bytes32 role, address account) internal view virtual {... */\n    tag_163:\n        /* \"https://github.com/OpenZeppelin/openzeppelin-contracts/blob/v4.8.0/contracts/access/AccessControl.sol\":3806:3828  hasRole(role, account) */\n      tag_174\n        /* \"https://github.com/OpenZeppelin/openzeppelin-contracts/blob/v4.8.0/contracts/access/AccessControl.sol\":3814:3818  role */\n      dup3\n        /* \"https://github.com/OpenZeppelin/openzeppelin-contracts/blob/v4.8.0/contracts/access/AccessControl.sol\":3820:3827  account */\n      dup3\n        /* \"https://github.com/OpenZeppelin/openzeppelin-contracts/blob/v4.8.0/contracts/access/AccessControl.sol\":3806:3813  hasRole */\n      tag_68\n        /* \"https://github.com/OpenZeppelin/openzeppelin-contracts/blob/v4.8.0/contracts/access/AccessControl.sol\":3806:3828  hasRole(role, account) */\n      jump\t// in\n    tag_174:\n        /* \"https://github.com/OpenZeppelin/openzeppelin-contracts/blob/v4.8.0/contracts/access/AccessControl.sol\":3801:4191  if (!hasRole(role, account)) {... */\n      tag_175\n      jumpi\n        /* \"https://github.com/OpenZeppelin/openzeppelin-contracts/blob/v4.8.0/contracts/access/AccessControl.sol\":3989:4017  Strings.toHexString(account) */\n      tag_176\n        /* \"https://github.com/OpenZeppelin/openzeppelin-contracts/blob/v4.8.0/contracts/access/AccessControl.sol\":4009:4016  account */\n      dup2\n        /* \"https://github.com/OpenZeppelin/openzeppelin-contracts/blob/v4.8.0/contracts/access/AccessControl.sol\":3989:4008  Strings.toHexString */\n      tag_177\n        /* \"https://github.com/OpenZeppelin/openzeppelin-contracts/blob/v4.8.0/contracts/access/AccessControl.sol\":3989:4017  Strings.toHexString(account) */\n      jump\t// in\n    tag_176:\n        /* \"https://github.com/OpenZeppelin/openzeppelin-contracts/blob/v4.8.0/contracts/access/AccessControl.sol\":4088:4126  Strings.toHexString(uint256(role), 32) */\n      tag_178\n        /* \"https://github.com/OpenZeppelin/openzeppelin-contracts/blob/v4.8.0/contracts/access/AccessControl.sol\":4116:4120  role */\n      dup4\n        /* \"https://github.com/OpenZeppelin/openzeppelin-contracts/blob/v4.8.0/contracts/access/AccessControl.sol\":4108:4121  uint256(role) */\n      0x00\n      shr\n        /* \"https://github.com/OpenZeppelin/openzeppelin-contracts/blob/v4.8.0/contracts/access/AccessControl.sol\":4123:4125  32 */\n      0x20\n        /* \"https://github.com/OpenZeppelin/openzeppelin-contracts/blob/v4.8.0/contracts/access/AccessControl.sol\":4088:4107  Strings.toHexString */\n      tag_179\n        /* \"https://github.com/OpenZeppelin/openzeppelin-contracts/blob/v4.8.0/contracts/access/AccessControl.sol\":4088:4126  Strings.toHexString(uint256(role), 32) */\n      jump\t// in\n    tag_178:\n        /* \"https://github.com/OpenZeppelin/openzeppelin-contracts/blob/v4.8.0/contracts/access/AccessControl.sol\":3896:4148  abi.encodePacked(... */\n      add(0x20, mload(0x40))\n      tag_180\n      swap3\n      swap2\n      swap1\n      tag_181\n      jump\t// in\n    tag_180:\n      mload(0x40)\n      0x20\n      dup2\n      dup4\n      sub\n      sub\n      dup2\n      mstore\n      swap1\n      0x40\n      mstore\n        /* \"https://github.com/OpenZeppelin/openzeppelin-contracts/blob/v4.8.0/contracts/access/AccessControl.sol\":3844:4180  revert(... */\n      mload(0x40)\n      0x08c379a000000000000000000000000000000000000000000000000000000000\n      dup2\n      mstore\n      0x04\n      add\n      tag_182\n      swap2\n      swap1\n      tag_183\n      jump\t// in\n    tag_182:\n      mload(0x40)\n      dup1\n      swap2\n      sub\n      swap1\n      revert\n        /* \"https://github.com/OpenZeppelin/openzeppelin-contracts/blob/v4.8.0/contracts/access/AccessControl.sol\":3801:4191  if (!hasRole(role, account)) {... */\n    tag_175:\n        /* \"https://github.com/OpenZeppelin/openzeppelin-contracts/blob/v4.8.0/contracts/access/AccessControl.sol\":3718:4197  function _checkRole(bytes32 role, address account) internal view virtual {... */\n      pop\n      pop\n      jump\t// out\n        /* \"https://github.com/OpenZeppelin/openzeppelin-contracts/blob/v4.8.0/contracts/utils/Strings.sol\":2102:2251  function toHexString(address addr) internal pure returns (string memory) {... */\n    tag_177:\n        /* \"https://github.com/OpenZeppelin/openzeppelin-contracts/blob/v4.8.0/contracts/utils/Strings.sol\":2160:2173  string memory */\n      0x60\n        /* \"https://github.com/OpenZeppelin/openzeppelin-contracts/blob/v4.8.0/contracts/utils/Strings.sol\":2192:2244  toHexString(uint256(uint160(addr)), _ADDRESS_LENGTH) */\n      tag_185\n        /* \"https://github.com/OpenZeppelin/openzeppelin-contracts/blob/v4.8.0/contracts/utils/Strings.sol\":2220:2224  addr */\n      dup3\n        /* \"https://github.com/OpenZeppelin/openzeppelin-contracts/blob/v4.8.0/contracts/utils/Strings.sol\":2204:2226  uint256(uint160(addr)) */\n      0xffffffffffffffffffffffffffffffffffffffff\n      and\n        /* \"https://github.com/OpenZeppelin/openzeppelin-contracts/blob/v4.8.0/contracts/utils/Strings.sol\":311:313  20 */\n      0x14\n        /* \"https://github.com/OpenZeppelin/openzeppelin-contracts/blob/v4.8.0/contracts/utils/Strings.sol\":2192:2244  toHexString(uint256(uint160(addr)), _ADDRESS_LENGTH) */\n      0xff\n      and\n        /* \"https://github.com/OpenZeppelin/openzeppelin-contracts/blob/v4.8.0/contracts/utils/Strings.sol\":2192:2203  toHexString */\n      tag_179\n        /* \"https://github.com/OpenZeppelin/openzeppelin-contracts/blob/v4.8.0/contracts/utils/Strings.sol\":2192:2244  toHexString(uint256(uint160(addr)), _ADDRESS_LENGTH) */\n      jump\t// in\n    tag_185:\n        /* \"https://github.com/OpenZeppelin/openzeppelin-contracts/blob/v4.8.0/contracts/utils/Strings.sol\":2185:2244  return toHexString(uint256(uint160(addr)), _ADDRESS_LENGTH) */\n      swap1\n      pop\n        /* \"https://github.com/OpenZeppelin/openzeppelin-contracts/blob/v4.8.0/contracts/utils/Strings.sol\":2102:2251  function toHexString(address addr) internal pure returns (string memory) {... */\n      swap2\n      swap1\n      pop\n      jump\t// out\n        /* \"https://github.com/OpenZeppelin/openzeppelin-contracts/blob/v4.8.0/contracts/utils/Strings.sol\":1513:1950  function toHexString(uint256 value, uint256 length) internal pure returns (string memory) {... */\n    tag_179:\n        /* \"https://github.com/OpenZeppelin/openzeppelin-contracts/blob/v4.8.0/contracts/utils/Strings.sol\":1588:1601  string memory */\n      0x60\n        /* \"https://github.com/OpenZeppelin/openzeppelin-contracts/blob/v4.8.0/contracts/utils/Strings.sol\":1613:1632  bytes memory buffer */\n      0x00\n        /* \"https://github.com/OpenZeppelin/openzeppelin-contracts/blob/v4.8.0/contracts/utils/Strings.sol\":1658:1659  2 */\n      0x02\n        /* \"https://github.com/OpenZeppelin/openzeppelin-contracts/blob/v4.8.0/contracts/utils/Strings.sol\":1649:1655  length */\n      dup4\n        /* \"https://github.com/OpenZeppelin/openzeppelin-contracts/blob/v4.8.0/contracts/utils/Strings.sol\":1645:1646  2 */\n      0x02\n        /* \"https://github.com/OpenZeppelin/openzeppelin-contracts/blob/v4.8.0/contracts/utils/Strings.sol\":1645:1655  2 * length */\n      tag_187\n      swap2\n      swap1\n      tag_188\n      jump\t// in\n    tag_187:\n        /* \"https://github.com/OpenZeppelin/openzeppelin-contracts/blob/v4.8.0/contracts/utils/Strings.sol\":1645:1659  2 * length + 2 */\n      tag_189\n      swap2\n      swap1\n      tag_190\n      jump\t// in\n    tag_189:\n        /* \"https://github.com/OpenZeppelin/openzeppelin-contracts/blob/v4.8.0/contracts/utils/Strings.sol\":1635:1660  new bytes(2 * length + 2) */\n      0xffffffffffffffff\n      dup2\n      gt\n      iszero\n      tag_191\n      jumpi\n      tag_192\n      tag_193\n      jump\t// in\n    tag_192:\n    tag_191:\n      mload(0x40)\n      swap1\n      dup1\n      dup3\n      mstore\n      dup1\n      0x1f\n      add\n      not(0x1f)\n      and\n      0x20\n      add\n      dup3\n      add\n      0x40\n      mstore\n      dup1\n      iszero\n      tag_194\n      jumpi\n      dup2\n      0x20\n      add\n      0x01\n      dup3\n      mul\n      dup1\n      calldatasize\n      dup4\n      calldatacopy\n      dup1\n      dup3\n      add\n      swap2\n      pop\n      pop\n      swap1\n      pop\n    tag_194:\n      pop\n        /* \"https://github.com/OpenZeppelin/openzeppelin-contracts/blob/v4.8.0/contracts/utils/Strings.sol\":1613:1660  bytes memory buffer = new bytes(2 * length + 2) */\n      swap1\n      pop\n        /* \"https://github.com/OpenZeppelin/openzeppelin-contracts/blob/v4.8.0/contracts/utils/Strings.sol\":1670:1685  buffer[0] = \"0\" */\n      0x3000000000000000000000000000000000000000000000000000000000000000\n        /* \"https://github.com/OpenZeppelin/openzeppelin-contracts/blob/v4.8.0/contracts/utils/Strings.sol\":1670:1676  buffer */\n      dup2\n        /* \"https://github.com/OpenZeppelin/openzeppelin-contracts/blob/v4.8.0/contracts/utils/Strings.sol\":1677:1678  0 */\n      0x00\n        /* \"https://github.com/OpenZeppelin/openzeppelin-contracts/blob/v4.8.0/contracts/utils/Strings.sol\":1670:1679  buffer[0] */\n      dup2\n      mload\n      dup2\n      lt\n      tag_195\n      jumpi\n      tag_196\n      tag_197\n      jump\t// in\n    tag_196:\n    tag_195:\n      0x20\n      add\n      add\n        /* \"https://github.com/OpenZeppelin/openzeppelin-contracts/blob/v4.8.0/contracts/utils/Strings.sol\":1670:1685  buffer[0] = \"0\" */\n      swap1\n      not(0xffffffffffffffffffffffffffffffffffffffffffffffffffffffffffffff)\n      and\n      swap1\n      dup2\n      0x00\n      byte\n      swap1\n      mstore8\n      pop\n        /* \"https://github.com/OpenZeppelin/openzeppelin-contracts/blob/v4.8.0/contracts/utils/Strings.sol\":1695:1710  buffer[1] = \"x\" */\n      0x7800000000000000000000000000000000000000000000000000000000000000\n        /* \"https://github.com/OpenZeppelin/openzeppelin-contracts/blob/v4.8.0/contracts/utils/Strings.sol\":1695:1701  buffer */\n      dup2\n        /* \"https://github.com/OpenZeppelin/openzeppelin-contracts/blob/v4.8.0/contracts/utils/Strings.sol\":1702:1703  1 */\n      0x01\n        /* \"https://github.com/OpenZeppelin/openzeppelin-contracts/blob/v4.8.0/contracts/utils/Strings.sol\":1695:1704  buffer[1] */\n      dup2\n      mload\n      dup2\n      lt\n      tag_198\n      jumpi\n      tag_199\n      tag_197\n      jump\t// in\n    tag_199:\n    tag_198:\n      0x20\n      add\n      add\n        /* \"https://github.com/OpenZeppelin/openzeppelin-contracts/blob/v4.8.0/contracts/utils/Strings.sol\":1695:1710  buffer[1] = \"x\" */\n      swap1\n      not(0xffffffffffffffffffffffffffffffffffffffffffffffffffffffffffffff)\n      and\n      swap1\n      dup2\n      0x00\n      byte\n      swap1\n      mstore8\n      pop\n        /* \"https://github.com/OpenZeppelin/openzeppelin-contracts/blob/v4.8.0/contracts/utils/Strings.sol\":1725:1734  uint256 i */\n      0x00\n        /* \"https://github.com/OpenZeppelin/openzeppelin-contracts/blob/v4.8.0/contracts/utils/Strings.sol\":1750:1751  1 */\n      0x01\n        /* \"https://github.com/OpenZeppelin/openzeppelin-contracts/blob/v4.8.0/contracts/utils/Strings.sol\":1741:1747  length */\n      dup5\n        /* \"https://github.com/OpenZeppelin/openzeppelin-contracts/blob/v4.8.0/contracts/utils/Strings.sol\":1737:1738  2 */\n      0x02\n        /* \"https://github.com/OpenZeppelin/openzeppelin-contracts/blob/v4.8.0/contracts/utils/Strings.sol\":1737:1747  2 * length */\n      tag_203\n      swap2\n      swap1\n      tag_188\n      jump\t// in\n    tag_203:\n        /* \"https://github.com/OpenZeppelin/openzeppelin-contracts/blob/v4.8.0/contracts/utils/Strings.sol\":1737:1751  2 * length + 1 */\n      tag_204\n      swap2\n      swap1\n      tag_190\n      jump\t// in\n    tag_204:\n        /* \"https://github.com/OpenZeppelin/openzeppelin-contracts/blob/v4.8.0/contracts/utils/Strings.sol\":1725:1751  uint256 i = 2 * length + 1 */\n      swap1\n      pop\n        /* \"https://github.com/OpenZeppelin/openzeppelin-contracts/blob/v4.8.0/contracts/utils/Strings.sol\":1720:1848  for (uint256 i = 2 * length + 1; i > 1; --i) {... */\n    tag_200:\n        /* \"https://github.com/OpenZeppelin/openzeppelin-contracts/blob/v4.8.0/contracts/utils/Strings.sol\":1757:1758  1 */\n      0x01\n        /* \"https://github.com/OpenZeppelin/openzeppelin-contracts/blob/v4.8.0/contracts/utils/Strings.sol\":1753:1754  i */\n      dup2\n        /* \"https://github.com/OpenZeppelin/openzeppelin-contracts/blob/v4.8.0/contracts/utils/Strings.sol\":1753:1758  i > 1 */\n      gt\n        /* \"https://github.com/OpenZeppelin/openzeppelin-contracts/blob/v4.8.0/contracts/utils/Strings.sol\":1720:1848  for (uint256 i = 2 * length + 1; i > 1; --i) {... */\n      iszero\n      tag_201\n      jumpi\n        /* \"https://github.com/OpenZeppelin/openzeppelin-contracts/blob/v4.8.0/contracts/utils/Strings.sol\":1791:1799  _SYMBOLS */\n      0x3031323334353637383961626364656600000000000000000000000000000000\n        /* \"https://github.com/OpenZeppelin/openzeppelin-contracts/blob/v4.8.0/contracts/utils/Strings.sol\":1808:1811  0xf */\n      0x0f\n        /* \"https://github.com/OpenZeppelin/openzeppelin-contracts/blob/v4.8.0/contracts/utils/Strings.sol\":1800:1805  value */\n      dup7\n        /* \"https://github.com/OpenZeppelin/openzeppelin-contracts/blob/v4.8.0/contracts/utils/Strings.sol\":1800:1811  value & 0xf */\n      and\n        /* \"https://github.com/OpenZeppelin/openzeppelin-contracts/blob/v4.8.0/contracts/utils/Strings.sol\":1791:1812  _SYMBOLS[value & 0xf] */\n      0x10\n      dup2\n      lt\n      tag_205\n      jumpi\n      tag_206\n      tag_197\n      jump\t// in\n    tag_206:\n    tag_205:\n      byte\n      0xf8\n      shl\n        /* \"https://github.com/OpenZeppelin/openzeppelin-contracts/blob/v4.8.0/contracts/utils/Strings.sol\":1779:1785  buffer */\n      dup3\n        /* \"https://github.com/OpenZeppelin/openzeppelin-contracts/blob/v4.8.0/contracts/utils/Strings.sol\":1786:1787  i */\n      dup3\n        /* \"https://github.com/OpenZeppelin/openzeppelin-contracts/blob/v4.8.0/contracts/utils/Strings.sol\":1779:1788  buffer[i] */\n      dup2\n      mload\n      dup2\n      lt\n      tag_207\n      jumpi\n      tag_208\n      tag_197\n      jump\t// in\n    tag_208:\n    tag_207:\n      0x20\n      add\n      add\n        /* \"https://github.com/OpenZeppelin/openzeppelin-contracts/blob/v4.8.0/contracts/utils/Strings.sol\":1779:1812  buffer[i] = _SYMBOLS[value & 0xf] */\n      swap1\n      not(0xffffffffffffffffffffffffffffffffffffffffffffffffffffffffffffff)\n      and\n      swap1\n      dup2\n      0x00\n      byte\n      swap1\n      mstore8\n      pop\n        /* \"https://github.com/OpenZeppelin/openzeppelin-contracts/blob/v4.8.0/contracts/utils/Strings.sol\":1836:1837  4 */\n      0x04\n        /* \"https://github.com/OpenZeppelin/openzeppelin-contracts/blob/v4.8.0/contracts/utils/Strings.sol\":1826:1837  value >>= 4 */\n      dup6\n      swap1\n      shr\n      swap5\n      pop\n        /* \"https://github.com/OpenZeppelin/openzeppelin-contracts/blob/v4.8.0/contracts/utils/Strings.sol\":1760:1763  --i */\n      dup1\n      tag_209\n      swap1\n      tag_210\n      jump\t// in\n    tag_209:\n      swap1\n      pop\n        /* \"https://github.com/OpenZeppelin/openzeppelin-contracts/blob/v4.8.0/contracts/utils/Strings.sol\":1720:1848  for (uint256 i = 2 * length + 1; i > 1; --i) {... */\n      jump(tag_200)\n    tag_201:\n      pop\n        /* \"https://github.com/OpenZeppelin/openzeppelin-contracts/blob/v4.8.0/contracts/utils/Strings.sol\":1874:1875  0 */\n      0x00\n        /* \"https://github.com/OpenZeppelin/openzeppelin-contracts/blob/v4.8.0/contracts/utils/Strings.sol\":1865:1870  value */\n      dup5\n        /* \"https://github.com/OpenZeppelin/openzeppelin-contracts/blob/v4.8.0/contracts/utils/Strings.sol\":1865:1875  value == 0 */\n      eq\n        /* \"https://github.com/OpenZeppelin/openzeppelin-contracts/blob/v4.8.0/contracts/utils/Strings.sol\":1857:1912  require(value == 0, \"Strings: hex length insufficient\") */\n      tag_211\n      jumpi\n      mload(0x40)\n      0x08c379a000000000000000000000000000000000000000000000000000000000\n      dup2\n      mstore\n      0x04\n      add\n      tag_212\n      swap1\n      tag_213\n      jump\t// in\n    tag_212:\n      mload(0x40)\n      dup1\n      swap2\n      sub\n      swap1\n      revert\n    tag_211:\n        /* \"https://github.com/OpenZeppelin/openzeppelin-contracts/blob/v4.8.0/contracts/utils/Strings.sol\":1936:1942  buffer */\n      dup1\n        /* \"https://github.com/OpenZeppelin/openzeppelin-contracts/blob/v4.8.0/contracts/utils/Strings.sol\":1922:1943  return string(buffer) */\n      swap2\n      pop\n      pop\n        /* \"https://github.com/OpenZeppelin/openzeppelin-contracts/blob/v4.8.0/contracts/utils/Strings.sol\":1513:1950  function toHexString(uint256 value, uint256 length) internal pure returns (string memory) {... */\n      swap3\n      swap2\n      pop\n      pop\n      jump\t// out\n    tag_108:\n      mload(0x40)\n      dup1\n      0x80\n      add\n      0x40\n      mstore\n      dup1\n      0x00\n      dup2\n      mstore\n      0x20\n      add\n      0x00\n      dup2\n      mstore\n      0x20\n      add\n      0x60\n      dup2\n      mstore\n      0x20\n      add\n      iszero(iszero(0x00))\n      dup2\n      mstore\n      pop\n      swap1\n      jump\t// out\n    tag_137:\n      pop\n      dup1\n      sload\n      tag_214\n      swap1\n      tag_114\n      jump\t// in\n    tag_214:\n      0x00\n      dup3\n      sstore\n      dup1\n      0x1f\n      lt\n      tag_216\n      jumpi\n      pop\n      jump(tag_215)\n    tag_216:\n      0x1f\n      add\n      0x20\n      swap1\n      div\n      swap1\n      0x00\n      mstore\n      keccak256(0x00, 0x20)\n      swap1\n      dup2\n      add\n      swap1\n      tag_217\n      swap2\n      swap1\n      tag_218\n      jump\t// in\n    tag_217:\n    tag_215:\n      pop\n      jump\t// out\n    tag_218:\n    tag_219:\n      dup1\n      dup3\n      gt\n      iszero\n      tag_220\n      jumpi\n      0x00\n      dup2\n      0x00\n      swap1\n      sstore\n      pop\n      0x01\n      add\n      jump(tag_219)\n    tag_220:\n      pop\n      swap1\n      jump\t// out\n        /* \"#utility.yul\":7:82   */\n    tag_221:\n        /* \"#utility.yul\":40:46   */\n      0x00\n        /* \"#utility.yul\":73:75   */\n      0x40\n        /* \"#utility.yul\":67:76   */\n      mload\n        /* \"#utility.yul\":57:76   */\n      swap1\n      pop\n        /* \"#utility.yul\":7:82   */\n      swap1\n      jump\t// out\n        /* \"#utility.yul\":88:205   */\n    tag_222:\n        /* \"#utility.yul\":197:198   */\n      0x00\n        /* \"#utility.yul\":194:195   */\n      dup1\n        /* \"#utility.yul\":187:199   */\n      revert\n        /* \"#utility.yul\":211:328   */\n    tag_223:\n        /* \"#utility.yul\":320:321   */\n      0x00\n        /* \"#utility.yul\":317:318   */\n      dup1\n        /* \"#utility.yul\":310:322   */\n      revert\n        /* \"#utility.yul\":334:483   */\n    tag_224:\n        /* \"#utility.yul\":370:377   */\n      0x00\n        /* \"#utility.yul\":410:476   */\n      0xffffffff00000000000000000000000000000000000000000000000000000000\n        /* \"#utility.yul\":403:408   */\n      dup3\n        /* \"#utility.yul\":399:477   */\n      and\n        /* \"#utility.yul\":388:477   */\n      swap1\n      pop\n        /* \"#utility.yul\":334:483   */\n      swap2\n      swap1\n      pop\n      jump\t// out\n        /* \"#utility.yul\":489:609   */\n    tag_225:\n        /* \"#utility.yul\":561:584   */\n      tag_294\n        /* \"#utility.yul\":578:583   */\n      dup2\n        /* \"#utility.yul\":561:584   */\n      tag_224\n      jump\t// in\n    tag_294:\n        /* \"#utility.yul\":554:559   */\n      dup2\n        /* \"#utility.yul\":551:585   */\n      eq\n        /* \"#utility.yul\":541:603   */\n      tag_295\n      jumpi\n        /* \"#utility.yul\":599:600   */\n      0x00\n        /* \"#utility.yul\":596:597   */\n      dup1\n        /* \"#utility.yul\":589:601   */\n      revert\n        /* \"#utility.yul\":541:603   */\n    tag_295:\n        /* \"#utility.yul\":489:609   */\n      pop\n      jump\t// out\n        /* \"#utility.yul\":615:752   */\n    tag_226:\n        /* \"#utility.yul\":660:665   */\n      0x00\n        /* \"#utility.yul\":698:704   */\n      dup2\n        /* \"#utility.yul\":685:705   */\n      calldataload\n        /* \"#utility.yul\":676:705   */\n      swap1\n      pop\n        /* \"#utility.yul\":714:746   */\n      tag_297\n        /* \"#utility.yul\":740:745   */\n      dup2\n        /* \"#utility.yul\":714:746   */\n      tag_225\n      jump\t// in\n    tag_297:\n        /* \"#utility.yul\":615:752   */\n      swap3\n      swap2\n      pop\n      pop\n      jump\t// out\n        /* \"#utility.yul\":758:1085   */\n    tag_24:\n        /* \"#utility.yul\":816:822   */\n      0x00\n        /* \"#utility.yul\":865:867   */\n      0x20\n        /* \"#utility.yul\":853:862   */\n      dup3\n        /* \"#utility.yul\":844:851   */\n      dup5\n        /* \"#utility.yul\":840:863   */\n      sub\n        /* \"#utility.yul\":836:868   */\n      slt\n        /* \"#utility.yul\":833:952   */\n      iszero\n      tag_299\n      jumpi\n        /* \"#utility.yul\":871:950   */\n      tag_300\n      tag_222\n      jump\t// in\n    tag_300:\n        /* \"#utility.yul\":833:952   */\n    tag_299:\n        /* \"#utility.yul\":991:992   */\n      0x00\n        /* \"#utility.yul\":1016:1068   */\n      tag_301\n        /* \"#utility.yul\":1060:1067   */\n      dup5\n        /* \"#utility.yul\":1051:1057   */\n      dup3\n        /* \"#utility.yul\":1040:1049   */\n      dup6\n        /* \"#utility.yul\":1036:1058   */\n      add\n        /* \"#utility.yul\":1016:1068   */\n      tag_226\n      jump\t// in\n    tag_301:\n        /* \"#utility.yul\":1006:1068   */\n      swap2\n      pop\n        /* \"#utility.yul\":962:1078   */\n      pop\n        /* \"#utility.yul\":758:1085   */\n      swap3\n      swap2\n      pop\n      pop\n      jump\t// out\n        /* \"#utility.yul\":1091:1181   */\n    tag_227:\n        /* \"#utility.yul\":1125:1132   */\n      0x00\n        /* \"#utility.yul\":1168:1173   */\n      dup2\n        /* \"#utility.yul\":1161:1174   */\n      iszero\n        /* \"#utility.yul\":1154:1175   */\n      iszero\n        /* \"#utility.yul\":1143:1175   */\n      swap1\n      pop\n        /* \"#utility.yul\":1091:1181   */\n      swap2\n      swap1\n      pop\n      jump\t// out\n        /* \"#utility.yul\":1187:1296   */\n    tag_228:\n        /* \"#utility.yul\":1268:1289   */\n      tag_304\n        /* \"#utility.yul\":1283:1288   */\n      dup2\n        /* \"#utility.yul\":1268:1289   */\n      tag_227\n      jump\t// in\n    tag_304:\n        /* \"#utility.yul\":1263:1266   */\n      dup3\n        /* \"#utility.yul\":1256:1290   */\n      mstore\n        /* \"#utility.yul\":1187:1296   */\n      pop\n      pop\n      jump\t// out\n        /* \"#utility.yul\":1302:1512   */\n    tag_27:\n        /* \"#utility.yul\":1389:1393   */\n      0x00\n        /* \"#utility.yul\":1427:1429   */\n      0x20\n        /* \"#utility.yul\":1416:1425   */\n      dup3\n        /* \"#utility.yul\":1412:1430   */\n      add\n        /* \"#utility.yul\":1404:1430   */\n      swap1\n      pop\n        /* \"#utility.yul\":1440:1505   */\n      tag_306\n        /* \"#utility.yul\":1502:1503   */\n      0x00\n        /* \"#utility.yul\":1491:1500   */\n      dup4\n        /* \"#utility.yul\":1487:1504   */\n      add\n        /* \"#utility.yul\":1478:1484   */\n      dup5\n        /* \"#utility.yul\":1440:1505   */\n      tag_228\n      jump\t// in\n    tag_306:\n        /* \"#utility.yul\":1302:1512   */\n      swap3\n      swap2\n      pop\n      pop\n      jump\t// out\n        /* \"#utility.yul\":1518:1595   */\n    tag_229:\n        /* \"#utility.yul\":1555:1562   */\n      0x00\n        /* \"#utility.yul\":1584:1589   */\n      dup2\n        /* \"#utility.yul\":1573:1589   */\n      swap1\n      pop\n        /* \"#utility.yul\":1518:1595   */\n      swap2\n      swap1\n      pop\n      jump\t// out\n        /* \"#utility.yul\":1601:1723   */\n    tag_230:\n        /* \"#utility.yul\":1674:1698   */\n      tag_309\n        /* \"#utility.yul\":1692:1697   */\n      dup2\n        /* \"#utility.yul\":1674:1698   */\n      tag_229\n      jump\t// in\n    tag_309:\n        /* \"#utility.yul\":1667:1672   */\n      dup2\n        /* \"#utility.yul\":1664:1699   */\n      eq\n        /* \"#utility.yul\":1654:1717   */\n      tag_310\n      jumpi\n        /* \"#utility.yul\":1713:1714   */\n      0x00\n        /* \"#utility.yul\":1710:1711   */\n      dup1\n        /* \"#utility.yul\":1703:1715   */\n      revert\n        /* \"#utility.yul\":1654:1717   */\n    tag_310:\n        /* \"#utility.yul\":1601:1723   */\n      pop\n      jump\t// out\n        /* \"#utility.yul\":1729:1868   */\n    tag_231:\n        /* \"#utility.yul\":1775:1780   */\n      0x00\n        /* \"#utility.yul\":1813:1819   */\n      dup2\n        /* \"#utility.yul\":1800:1820   */\n      calldataload\n        /* \"#utility.yul\":1791:1820   */\n      swap1\n      pop\n        /* \"#utility.yul\":1829:1862   */\n      tag_312\n        /* \"#utility.yul\":1856:1861   */\n      dup2\n        /* \"#utility.yul\":1829:1862   */\n      tag_230\n      jump\t// in\n    tag_312:\n        /* \"#utility.yul\":1729:1868   */\n      swap3\n      swap2\n      pop\n      pop\n      jump\t// out\n        /* \"#utility.yul\":1874:2203   */\n    tag_30:\n        /* \"#utility.yul\":1933:1939   */\n      0x00\n        /* \"#utility.yul\":1982:1984   */\n      0x20\n        /* \"#utility.yul\":1970:1979   */\n      dup3\n        /* \"#utility.yul\":1961:1968   */\n      dup5\n        /* \"#utility.yul\":1957:1980   */\n      sub\n        /* \"#utility.yul\":1953:1985   */\n      slt\n        /* \"#utility.yul\":1950:2069   */\n      iszero\n      tag_314\n      jumpi\n        /* \"#utility.yul\":1988:2067   */\n      tag_315\n      tag_222\n      jump\t// in\n    tag_315:\n        /* \"#utility.yul\":1950:2069   */\n    tag_314:\n        /* \"#utility.yul\":2108:2109   */\n      0x00\n        /* \"#utility.yul\":2133:2186   */\n      tag_316\n        /* \"#utility.yul\":2178:2185   */\n      dup5\n        /* \"#utility.yul\":2169:2175   */\n      dup3\n        /* \"#utility.yul\":2158:2167   */\n      dup6\n        /* \"#utility.yul\":2154:2176   */\n      add\n        /* \"#utility.yul\":2133:2186   */\n      tag_231\n      jump\t// in\n    tag_316:\n        /* \"#utility.yul\":2123:2186   */\n      swap2\n      pop\n        /* \"#utility.yul\":2079:2196   */\n      pop\n        /* \"#utility.yul\":1874:2203   */\n      swap3\n      swap2\n      pop\n      pop\n      jump\t// out\n        /* \"#utility.yul\":2209:2286   */\n    tag_232:\n        /* \"#utility.yul\":2246:2253   */\n      0x00\n        /* \"#utility.yul\":2275:2280   */\n      dup2\n        /* \"#utility.yul\":2264:2280   */\n      swap1\n      pop\n        /* \"#utility.yul\":2209:2286   */\n      swap2\n      swap1\n      pop\n      jump\t// out\n        /* \"#utility.yul\":2292:2414   */\n    tag_233:\n        /* \"#utility.yul\":2365:2389   */\n      tag_319\n        /* \"#utility.yul\":2383:2388   */\n      dup2\n        /* \"#utility.yul\":2365:2389   */\n      tag_232\n      jump\t// in\n    tag_319:\n        /* \"#utility.yul\":2358:2363   */\n      dup2\n        /* \"#utility.yul\":2355:2390   */\n      eq\n        /* \"#utility.yul\":2345:2408   */\n      tag_320\n      jumpi\n        /* \"#utility.yul\":2404:2405   */\n      0x00\n        /* \"#utility.yul\":2401:2402   */\n      dup1\n        /* \"#utility.yul\":2394:2406   */\n      revert\n        /* \"#utility.yul\":2345:2408   */\n    tag_320:\n        /* \"#utility.yul\":2292:2414   */\n      pop\n      jump\t// out\n        /* \"#utility.yul\":2420:2559   */\n    tag_234:\n        /* \"#utility.yul\":2466:2471   */\n      0x00\n        /* \"#utility.yul\":2504:2510   */\n      dup2\n        /* \"#utility.yul\":2491:2511   */\n      calldataload\n        /* \"#utility.yul\":2482:2511   */\n      swap1\n      pop\n        /* \"#utility.yul\":2520:2553   */\n      tag_322\n        /* \"#utility.yul\":2547:2552   */\n      dup2\n        /* \"#utility.yul\":2520:2553   */\n      tag_233\n      jump\t// in\n    tag_322:\n        /* \"#utility.yul\":2420:2559   */\n      swap3\n      swap2\n      pop\n      pop\n      jump\t// out\n        /* \"#utility.yul\":2565:2894   */\n    tag_35:\n        /* \"#utility.yul\":2624:2630   */\n      0x00\n        /* \"#utility.yul\":2673:2675   */\n      0x20\n        /* \"#utility.yul\":2661:2670   */\n      dup3\n        /* \"#utility.yul\":2652:2659   */\n      dup5\n        /* \"#utility.yul\":2648:2671   */\n      sub\n        /* \"#utility.yul\":2644:2676   */\n      slt\n        /* \"#utility.yul\":2641:2760   */\n      iszero\n      tag_324\n      jumpi\n        /* \"#utility.yul\":2679:2758   */\n      tag_325\n      tag_222\n      jump\t// in\n    tag_325:\n        /* \"#utility.yul\":2641:2760   */\n    tag_324:\n        /* \"#utility.yul\":2799:2800   */\n      0x00\n        /* \"#utility.yul\":2824:2877   */\n      tag_326\n        /* \"#utility.yul\":2869:2876   */\n      dup5\n        /* \"#utility.yul\":2860:2866   */\n      dup3\n        /* \"#utility.yul\":2849:2858   */\n      dup6\n        /* \"#utility.yul\":2845:2867   */\n      add\n        /* \"#utility.yul\":2824:2877   */\n      tag_234\n      jump\t// in\n    tag_326:\n        /* \"#utility.yul\":2814:2877   */\n      swap2\n      pop\n        /* \"#utility.yul\":2770:2887   */\n      pop\n        /* \"#utility.yul\":2565:2894   */\n      swap3\n      swap2\n      pop\n      pop\n      jump\t// out\n        /* \"#utility.yul\":2900:3018   */\n    tag_235:\n        /* \"#utility.yul\":2987:3011   */\n      tag_328\n        /* \"#utility.yul\":3005:3010   */\n      dup2\n        /* \"#utility.yul\":2987:3011   */\n      tag_232\n      jump\t// in\n    tag_328:\n        /* \"#utility.yul\":2982:2985   */\n      dup3\n        /* \"#utility.yul\":2975:3012   */\n      mstore\n        /* \"#utility.yul\":2900:3018   */\n      pop\n      pop\n      jump\t// out\n        /* \"#utility.yul\":3024:3246   */\n    tag_38:\n        /* \"#utility.yul\":3117:3121   */\n      0x00\n        /* \"#utility.yul\":3155:3157   */\n      0x20\n        /* \"#utility.yul\":3144:3153   */\n      dup3\n        /* \"#utility.yul\":3140:3158   */\n      add\n        /* \"#utility.yul\":3132:3158   */\n      swap1\n      pop\n        /* \"#utility.yul\":3168:3239   */\n      tag_330\n        /* \"#utility.yul\":3236:3237   */\n      0x00\n        /* \"#utility.yul\":3225:3234   */\n      dup4\n        /* \"#utility.yul\":3221:3238   */\n      add\n        /* \"#utility.yul\":3212:3218   */\n      dup5\n        /* \"#utility.yul\":3168:3239   */\n      tag_235\n      jump\t// in\n    tag_330:\n        /* \"#utility.yul\":3024:3246   */\n      swap3\n      swap2\n      pop\n      pop\n      jump\t// out\n        /* \"#utility.yul\":3252:3378   */\n    tag_236:\n        /* \"#utility.yul\":3289:3296   */\n      0x00\n        /* \"#utility.yul\":3329:3371   */\n      0xffffffffffffffffffffffffffffffffffffffff\n        /* \"#utility.yul\":3322:3327   */\n      dup3\n        /* \"#utility.yul\":3318:3372   */\n      and\n        /* \"#utility.yul\":3307:3372   */\n      swap1\n      pop\n        /* \"#utility.yul\":3252:3378   */\n      swap2\n      swap1\n      pop\n      jump\t// out\n        /* \"#utility.yul\":3384:3480   */\n    tag_237:\n        /* \"#utility.yul\":3421:3428   */\n      0x00\n        /* \"#utility.yul\":3450:3474   */\n      tag_333\n        /* \"#utility.yul\":3468:3473   */\n      dup3\n        /* \"#utility.yul\":3450:3474   */\n      tag_236\n      jump\t// in\n    tag_333:\n        /* \"#utility.yul\":3439:3474   */\n      swap1\n      pop\n        /* \"#utility.yul\":3384:3480   */\n      swap2\n      swap1\n      pop\n      jump\t// out\n        /* \"#utility.yul\":3486:3608   */\n    tag_238:\n        /* \"#utility.yul\":3559:3583   */\n      tag_335\n        /* \"#utility.yul\":3577:3582   */\n      dup2\n        /* \"#utility.yul\":3559:3583   */\n      tag_237\n      jump\t// in\n    tag_335:\n        /* \"#utility.yul\":3552:3557   */\n      dup2\n        /* \"#utility.yul\":3549:3584   */\n      eq\n        /* \"#utility.yul\":3539:3602   */\n      tag_336\n      jumpi\n        /* \"#utility.yul\":3598:3599   */\n      0x00\n        /* \"#utility.yul\":3595:3596   */\n      dup1\n        /* \"#utility.yul\":3588:3600   */\n      revert\n        /* \"#utility.yul\":3539:3602   */\n    tag_336:\n        /* \"#utility.yul\":3486:3608   */\n      pop\n      jump\t// out\n        /* \"#utility.yul\":3614:3753   */\n    tag_239:\n        /* \"#utility.yul\":3660:3665   */\n      0x00\n        /* \"#utility.yul\":3698:3704   */\n      dup2\n        /* \"#utility.yul\":3685:3705   */\n      calldataload\n        /* \"#utility.yul\":3676:3705   */\n      swap1\n      pop\n        /* \"#utility.yul\":3714:3747   */\n      tag_338\n        /* \"#utility.yul\":3741:3746   */\n      dup2\n        /* \"#utility.yul\":3714:3747   */\n      tag_238\n      jump\t// in\n    tag_338:\n        /* \"#utility.yul\":3614:3753   */\n      swap3\n      swap2\n      pop\n      pop\n      jump\t// out\n        /* \"#utility.yul\":3759:4233   */\n    tag_41:\n        /* \"#utility.yul\":3827:3833   */\n      0x00\n        /* \"#utility.yul\":3835:3841   */\n      dup1\n        /* \"#utility.yul\":3884:3886   */\n      0x40\n        /* \"#utility.yul\":3872:3881   */\n      dup4\n        /* \"#utility.yul\":3863:3870   */\n      dup6\n        /* \"#utility.yul\":3859:3882   */\n      sub\n        /* \"#utility.yul\":3855:3887   */\n      slt\n        /* \"#utility.yul\":3852:3971   */\n      iszero\n      tag_340\n      jumpi\n        /* \"#utility.yul\":3890:3969   */\n      tag_341\n      tag_222\n      jump\t// in\n    tag_341:\n        /* \"#utility.yul\":3852:3971   */\n    tag_340:\n        /* \"#utility.yul\":4010:4011   */\n      0x00\n        /* \"#utility.yul\":4035:4088   */\n      tag_342\n        /* \"#utility.yul\":4080:4087   */\n      dup6\n        /* \"#utility.yul\":4071:4077   */\n      dup3\n        /* \"#utility.yul\":4060:4069   */\n      dup7\n        /* \"#utility.yul\":4056:4078   */\n      add\n        /* \"#utility.yul\":4035:4088   */\n      tag_234\n      jump\t// in\n    tag_342:\n        /* \"#utility.yul\":4025:4088   */\n      swap3\n      pop\n        /* \"#utility.yul\":3981:4098   */\n      pop\n        /* \"#utility.yul\":4137:4139   */\n      0x20\n        /* \"#utility.yul\":4163:4216   */\n      tag_343\n        /* \"#utility.yul\":4208:4215   */\n      dup6\n        /* \"#utility.yul\":4199:4205   */\n      dup3\n        /* \"#utility.yul\":4188:4197   */\n      dup7\n        /* \"#utility.yul\":4184:4206   */\n      add\n        /* \"#utility.yul\":4163:4216   */\n      tag_239\n      jump\t// in\n    tag_343:\n        /* \"#utility.yul\":4153:4216   */\n      swap2\n      pop\n        /* \"#utility.yul\":4108:4226   */\n      pop\n        /* \"#utility.yul\":3759:4233   */\n      swap3\n      pop\n      swap3\n      swap1\n      pop\n      jump\t// out\n        /* \"#utility.yul\":4239:4347   */\n    tag_240:\n        /* \"#utility.yul\":4316:4340   */\n      tag_345\n        /* \"#utility.yul\":4334:4339   */\n      dup2\n        /* \"#utility.yul\":4316:4340   */\n      tag_229\n      jump\t// in\n    tag_345:\n        /* \"#utility.yul\":4311:4314   */\n      dup3\n        /* \"#utility.yul\":4304:4341   */\n      mstore\n        /* \"#utility.yul\":4239:4347   */\n      pop\n      pop\n      jump\t// out\n        /* \"#utility.yul\":4353:4452   */\n    tag_241:\n        /* \"#utility.yul\":4405:4411   */\n      0x00\n        /* \"#utility.yul\":4439:4444   */\n      dup2\n        /* \"#utility.yul\":4433:4445   */\n      mload\n        /* \"#utility.yul\":4423:4445   */\n      swap1\n      pop\n        /* \"#utility.yul\":4353:4452   */\n      swap2\n      swap1\n      pop\n      jump\t// out\n        /* \"#utility.yul\":4458:4617   */\n    tag_242:\n        /* \"#utility.yul\":4532:4543   */\n      0x00\n        /* \"#utility.yul\":4566:4572   */\n      dup3\n        /* \"#utility.yul\":4561:4564   */\n      dup3\n        /* \"#utility.yul\":4554:4573   */\n      mstore\n        /* \"#utility.yul\":4606:4610   */\n      0x20\n        /* \"#utility.yul\":4601:4604   */\n      dup3\n        /* \"#utility.yul\":4597:4611   */\n      add\n        /* \"#utility.yul\":4582:4611   */\n      swap1\n      pop\n        /* \"#utility.yul\":4458:4617   */\n      swap3\n      swap2\n      pop\n      pop\n      jump\t// out\n        /* \"#utility.yul\":4623:4762   */\n    tag_243:\n        /* \"#utility.yul\":4712:4718   */\n      dup3\n        /* \"#utility.yul\":4707:4710   */\n      dup2\n        /* \"#utility.yul\":4702:4705   */\n      dup4\n        /* \"#utility.yul\":4696:4719   */\n      mcopy\n        /* \"#utility.yul\":4753:4754   */\n      0x00\n        /* \"#utility.yul\":4744:4750   */\n      dup4\n        /* \"#utility.yul\":4739:4742   */\n      dup4\n        /* \"#utility.yul\":4735:4751   */\n      add\n        /* \"#utility.yul\":4728:4755   */\n      mstore\n        /* \"#utility.yul\":4623:4762   */\n      pop\n      pop\n      pop\n      jump\t// out\n        /* \"#utility.yul\":4768:4870   */\n    tag_244:\n        /* \"#utility.yul\":4809:4815   */\n      0x00\n        /* \"#utility.yul\":4860:4862   */\n      0x1f\n        /* \"#utility.yul\":4856:4863   */\n      not\n        /* \"#utility.yul\":4851:4853   */\n      0x1f\n        /* \"#utility.yul\":4844:4849   */\n      dup4\n        /* \"#utility.yul\":4840:4854   */\n      add\n        /* \"#utility.yul\":4836:4864   */\n      and\n        /* \"#utility.yul\":4826:4864   */\n      swap1\n      pop\n        /* \"#utility.yul\":4768:4870   */\n      swap2\n      swap1\n      pop\n      jump\t// out\n        /* \"#utility.yul\":4876:5233   */\n    tag_245:\n        /* \"#utility.yul\":4954:4957   */\n      0x00\n        /* \"#utility.yul\":4982:5021   */\n      tag_351\n        /* \"#utility.yul\":5015:5020   */\n      dup3\n        /* \"#utility.yul\":4982:5021   */\n      tag_241\n      jump\t// in\n    tag_351:\n        /* \"#utility.yul\":5037:5098   */\n      tag_352\n        /* \"#utility.yul\":5091:5097   */\n      dup2\n        /* \"#utility.yul\":5086:5089   */\n      dup6\n        /* \"#utility.yul\":5037:5098   */\n      tag_242\n      jump\t// in\n    tag_352:\n        /* \"#utility.yul\":5030:5098   */\n      swap4\n      pop\n        /* \"#utility.yul\":5107:5172   */\n      tag_353\n        /* \"#utility.yul\":5165:5171   */\n      dup2\n        /* \"#utility.yul\":5160:5163   */\n      dup6\n        /* \"#utility.yul\":5153:5157   */\n      0x20\n        /* \"#utility.yul\":5146:5151   */\n      dup7\n        /* \"#utility.yul\":5142:5158   */\n      add\n        /* \"#utility.yul\":5107:5172   */\n      tag_243\n      jump\t// in\n    tag_353:\n        /* \"#utility.yul\":5197:5226   */\n      tag_354\n        /* \"#utility.yul\":5219:5225   */\n      dup2\n        /* \"#utility.yul\":5197:5226   */\n      tag_244\n      jump\t// in\n    tag_354:\n        /* \"#utility.yul\":5192:5195   */\n      dup5\n        /* \"#utility.yul\":5188:5227   */\n      add\n        /* \"#utility.yul\":5181:5227   */\n      swap2\n      pop\n        /* \"#utility.yul\":4958:5233   */\n      pop\n        /* \"#utility.yul\":4876:5233   */\n      swap3\n      swap2\n      pop\n      pop\n      jump\t// out\n        /* \"#utility.yul\":5239:5338   */\n    tag_246:\n        /* \"#utility.yul\":5310:5331   */\n      tag_356\n        /* \"#utility.yul\":5325:5330   */\n      dup2\n        /* \"#utility.yul\":5310:5331   */\n      tag_227\n      jump\t// in\n    tag_356:\n        /* \"#utility.yul\":5305:5308   */\n      dup3\n        /* \"#utility.yul\":5298:5332   */\n      mstore\n        /* \"#utility.yul\":5239:5338   */\n      pop\n      pop\n      jump\t// out\n        /* \"#utility.yul\":5410:6370   */\n    tag_247:\n        /* \"#utility.yul\":5527:5530   */\n      0x00\n        /* \"#utility.yul\":5563:5567   */\n      0x80\n        /* \"#utility.yul\":5558:5561   */\n      dup4\n        /* \"#utility.yul\":5554:5568   */\n      add\n        /* \"#utility.yul\":5658:5662   */\n      0x00\n        /* \"#utility.yul\":5651:5656   */\n      dup4\n        /* \"#utility.yul\":5647:5663   */\n      add\n        /* \"#utility.yul\":5641:5664   */\n      mload\n        /* \"#utility.yul\":5677:5740   */\n      tag_358\n        /* \"#utility.yul\":5734:5738   */\n      0x00\n        /* \"#utility.yul\":5729:5732   */\n      dup7\n        /* \"#utility.yul\":5725:5739   */\n      add\n        /* \"#utility.yul\":5711:5723   */\n      dup3\n        /* \"#utility.yul\":5677:5740   */\n      tag_240\n      jump\t// in\n    tag_358:\n        /* \"#utility.yul\":5578:5750   */\n      pop\n        /* \"#utility.yul\":5835:5839   */\n      0x20\n        /* \"#utility.yul\":5828:5833   */\n      dup4\n        /* \"#utility.yul\":5824:5840   */\n      add\n        /* \"#utility.yul\":5818:5841   */\n      mload\n        /* \"#utility.yul\":5854:5917   */\n      tag_359\n        /* \"#utility.yul\":5911:5915   */\n      0x20\n        /* \"#utility.yul\":5906:5909   */\n      dup7\n        /* \"#utility.yul\":5902:5916   */\n      add\n        /* \"#utility.yul\":5888:5900   */\n      dup3\n        /* \"#utility.yul\":5854:5917   */\n      tag_240\n      jump\t// in\n    tag_359:\n        /* \"#utility.yul\":5760:5927   */\n      pop\n        /* \"#utility.yul\":6010:6014   */\n      0x40\n        /* \"#utility.yul\":6003:6008   */\n      dup4\n        /* \"#utility.yul\":5999:6015   */\n      add\n        /* \"#utility.yul\":5993:6016   */\n      mload\n        /* \"#utility.yul\":6063:6066   */\n      dup5\n        /* \"#utility.yul\":6057:6061   */\n      dup3\n        /* \"#utility.yul\":6053:6067   */\n      sub\n        /* \"#utility.yul\":6046:6050   */\n      0x40\n        /* \"#utility.yul\":6041:6044   */\n      dup7\n        /* \"#utility.yul\":6037:6051   */\n      add\n        /* \"#utility.yul\":6030:6068   */\n      mstore\n        /* \"#utility.yul\":6089:6162   */\n      tag_360\n        /* \"#utility.yul\":6157:6161   */\n      dup3\n        /* \"#utility.yul\":6143:6155   */\n      dup3\n        /* \"#utility.yul\":6089:6162   */\n      tag_245\n      jump\t// in\n    tag_360:\n        /* \"#utility.yul\":6081:6162   */\n      swap2\n      pop\n        /* \"#utility.yul\":5937:6173   */\n      pop\n        /* \"#utility.yul\":6257:6261   */\n      0x60\n        /* \"#utility.yul\":6250:6255   */\n      dup4\n        /* \"#utility.yul\":6246:6262   */\n      add\n        /* \"#utility.yul\":6240:6263   */\n      mload\n        /* \"#utility.yul\":6276:6333   */\n      tag_361\n        /* \"#utility.yul\":6327:6331   */\n      0x60\n        /* \"#utility.yul\":6322:6325   */\n      dup7\n        /* \"#utility.yul\":6318:6332   */\n      add\n        /* \"#utility.yul\":6304:6316   */\n      dup3\n        /* \"#utility.yul\":6276:6333   */\n      tag_246\n      jump\t// in\n    tag_361:\n        /* \"#utility.yul\":6183:6343   */\n      pop\n        /* \"#utility.yul\":6360:6364   */\n      dup1\n        /* \"#utility.yul\":6353:6364   */\n      swap2\n      pop\n        /* \"#utility.yul\":5532:6370   */\n      pop\n        /* \"#utility.yul\":5410:6370   */\n      swap3\n      swap2\n      pop\n      pop\n      jump\t// out\n        /* \"#utility.yul\":6376:6745   */\n    tag_50:\n        /* \"#utility.yul\":6517:6521   */\n      0x00\n        /* \"#utility.yul\":6555:6557   */\n      0x20\n        /* \"#utility.yul\":6544:6553   */\n      dup3\n        /* \"#utility.yul\":6540:6558   */\n      add\n        /* \"#utility.yul\":6532:6558   */\n      swap1\n      pop\n        /* \"#utility.yul\":6604:6613   */\n      dup2\n        /* \"#utility.yul\":6598:6602   */\n      dup2\n        /* \"#utility.yul\":6594:6614   */\n      sub\n        /* \"#utility.yul\":6590:6591   */\n      0x00\n        /* \"#utility.yul\":6579:6588   */\n      dup4\n        /* \"#utility.yul\":6575:6592   */\n      add\n        /* \"#utility.yul\":6568:6615   */\n      mstore\n        /* \"#utility.yul\":6632:6738   */\n      tag_363\n        /* \"#utility.yul\":6733:6737   */\n      dup2\n        /* \"#utility.yul\":6724:6730   */\n      dup5\n        /* \"#utility.yul\":6632:6738   */\n      tag_247\n      jump\t// in\n    tag_363:\n        /* \"#utility.yul\":6624:6738   */\n      swap1\n      pop\n        /* \"#utility.yul\":6376:6745   */\n      swap3\n      swap2\n      pop\n      pop\n      jump\t// out\n        /* \"#utility.yul\":6751:6869   */\n    tag_248:\n        /* \"#utility.yul\":6838:6862   */\n      tag_365\n        /* \"#utility.yul\":6856:6861   */\n      dup2\n        /* \"#utility.yul\":6838:6862   */\n      tag_229\n      jump\t// in\n    tag_365:\n        /* \"#utility.yul\":6833:6836   */\n      dup3\n        /* \"#utility.yul\":6826:6863   */\n      mstore\n        /* \"#utility.yul\":6751:6869   */\n      pop\n      pop\n      jump\t// out\n        /* \"#utility.yul\":6875:7044   */\n    tag_249:\n        /* \"#utility.yul\":6959:6970   */\n      0x00\n        /* \"#utility.yul\":6993:6999   */\n      dup3\n        /* \"#utility.yul\":6988:6991   */\n      dup3\n        /* \"#utility.yul\":6981:7000   */\n      mstore\n        /* \"#utility.yul\":7033:7037   */\n      0x20\n        /* \"#utility.yul\":7028:7031   */\n      dup3\n        /* \"#utility.yul\":7024:7038   */\n      add\n        /* \"#utility.yul\":7009:7038   */\n      swap1\n      pop\n        /* \"#utility.yul\":6875:7044   */\n      swap3\n      swap2\n      pop\n      pop\n      jump\t// out\n        /* \"#utility.yul\":7050:7427   */\n    tag_250:\n        /* \"#utility.yul\":7138:7141   */\n      0x00\n        /* \"#utility.yul\":7166:7205   */\n      tag_368\n        /* \"#utility.yul\":7199:7204   */\n      dup3\n        /* \"#utility.yul\":7166:7205   */\n      tag_241\n      jump\t// in\n    tag_368:\n        /* \"#utility.yul\":7221:7292   */\n      tag_369\n        /* \"#utility.yul\":7285:7291   */\n      dup2\n        /* \"#utility.yul\":7280:7283   */\n      dup6\n        /* \"#utility.yul\":7221:7292   */\n      tag_249\n      jump\t// in\n    tag_369:\n        /* \"#utility.yul\":7214:7292   */\n      swap4\n      pop\n        /* \"#utility.yul\":7301:7366   */\n      tag_370\n        /* \"#utility.yul\":7359:7365   */\n      dup2\n        /* \"#utility.yul\":7354:7357   */\n      dup6\n        /* \"#utility.yul\":7347:7351   */\n      0x20\n        /* \"#utility.yul\":7340:7345   */\n      dup7\n        /* \"#utility.yul\":7336:7352   */\n      add\n        /* \"#utility.yul\":7301:7366   */\n      tag_243\n      jump\t// in\n    tag_370:\n        /* \"#utility.yul\":7391:7420   */\n      tag_371\n        /* \"#utility.yul\":7413:7419   */\n      dup2\n        /* \"#utility.yul\":7391:7420   */\n      tag_244\n      jump\t// in\n    tag_371:\n        /* \"#utility.yul\":7386:7389   */\n      dup5\n        /* \"#utility.yul\":7382:7421   */\n      add\n        /* \"#utility.yul\":7375:7421   */\n      swap2\n      pop\n        /* \"#utility.yul\":7142:7427   */\n      pop\n        /* \"#utility.yul\":7050:7427   */\n      swap3\n      swap2\n      pop\n      pop\n      jump\t// out\n        /* \"#utility.yul\":7433:8065   */\n    tag_58:\n        /* \"#utility.yul\":7624:7628   */\n      0x00\n        /* \"#utility.yul\":7662:7665   */\n      0x80\n        /* \"#utility.yul\":7651:7660   */\n      dup3\n        /* \"#utility.yul\":7647:7666   */\n      add\n        /* \"#utility.yul\":7639:7666   */\n      swap1\n      pop\n        /* \"#utility.yul\":7676:7747   */\n      tag_373\n        /* \"#utility.yul\":7744:7745   */\n      0x00\n        /* \"#utility.yul\":7733:7742   */\n      dup4\n        /* \"#utility.yul\":7729:7746   */\n      add\n        /* \"#utility.yul\":7720:7726   */\n      dup8\n        /* \"#utility.yul\":7676:7747   */\n      tag_248\n      jump\t// in\n    tag_373:\n        /* \"#utility.yul\":7757:7829   */\n      tag_374\n        /* \"#utility.yul\":7825:7827   */\n      0x20\n        /* \"#utility.yul\":7814:7823   */\n      dup4\n        /* \"#utility.yul\":7810:7828   */\n      add\n        /* \"#utility.yul\":7801:7807   */\n      dup7\n        /* \"#utility.yul\":7757:7829   */\n      tag_248\n      jump\t// in\n    tag_374:\n        /* \"#utility.yul\":7876:7885   */\n      dup2\n        /* \"#utility.yul\":7870:7874   */\n      dup2\n        /* \"#utility.yul\":7866:7886   */\n      sub\n        /* \"#utility.yul\":7861:7863   */\n      0x40\n        /* \"#utility.yul\":7850:7859   */\n      dup4\n        /* \"#utility.yul\":7846:7864   */\n      add\n        /* \"#utility.yul\":7839:7887   */\n      mstore\n        /* \"#utility.yul\":7904:7982   */\n      tag_375\n        /* \"#utility.yul\":7977:7981   */\n      dup2\n        /* \"#utility.yul\":7968:7974   */\n      dup6\n        /* \"#utility.yul\":7904:7982   */\n      tag_250\n      jump\t// in\n    tag_375:\n        /* \"#utility.yul\":7896:7982   */\n      swap1\n      pop\n        /* \"#utility.yul\":7992:8058   */\n      tag_376\n        /* \"#utility.yul\":8054:8056   */\n      0x60\n        /* \"#utility.yul\":8043:8052   */\n      dup4\n        /* \"#utility.yul\":8039:8057   */\n      add\n        /* \"#utility.yul\":8030:8036   */\n      dup5\n        /* \"#utility.yul\":7992:8058   */\n      tag_228\n      jump\t// in\n    tag_376:\n        /* \"#utility.yul\":7433:8065   */\n      swap6\n      swap5\n      pop\n      pop\n      pop\n      pop\n      pop\n      jump\t// out\n        /* \"#utility.yul\":8071:8188   */\n    tag_251:\n        /* \"#utility.yul\":8180:8181   */\n      0x00\n        /* \"#utility.yul\":8177:8178   */\n      dup1\n        /* \"#utility.yul\":8170:8182   */\n      revert\n        /* \"#utility.yul\":8194:8311   */\n    tag_252:\n        /* \"#utility.yul\":8303:8304   */\n      0x00\n        /* \"#utility.yul\":8300:8301   */\n      dup1\n        /* \"#utility.yul\":8293:8305   */\n      revert\n        /* \"#utility.yul\":8317:8497   */\n    tag_193:\n        /* \"#utility.yul\":8365:8442   */\n      0x4e487b7100000000000000000000000000000000000000000000000000000000\n        /* \"#utility.yul\":8362:8363   */\n      0x00\n        /* \"#utility.yul\":8355:8443   */\n      mstore\n        /* \"#utility.yul\":8462:8466   */\n      0x41\n        /* \"#utility.yul\":8459:8460   */\n      0x04\n        /* \"#utility.yul\":8452:8467   */\n      mstore\n        /* \"#utility.yul\":8486:8490   */\n      0x24\n        /* \"#utility.yul\":8483:8484   */\n      0x00\n        /* \"#utility.yul\":8476:8491   */\n      revert\n        /* \"#utility.yul\":8503:8784   */\n    tag_253:\n        /* \"#utility.yul\":8586:8613   */\n      tag_381\n        /* \"#utility.yul\":8608:8612   */\n      dup3\n        /* \"#utility.yul\":8586:8613   */\n      tag_244\n      jump\t// in\n    tag_381:\n        /* \"#utility.yul\":8578:8584   */\n      dup2\n        /* \"#utility.yul\":8574:8614   */\n      add\n        /* \"#utility.yul\":8716:8722   */\n      dup2\n        /* \"#utility.yul\":8704:8714   */\n      dup2\n        /* \"#utility.yul\":8701:8723   */\n      lt\n        /* \"#utility.yul\":8680:8698   */\n      0xffffffffffffffff\n        /* \"#utility.yul\":8668:8678   */\n      dup3\n        /* \"#utility.yul\":8665:8699   */\n      gt\n        /* \"#utility.yul\":8662:8724   */\n      or\n        /* \"#utility.yul\":8659:8747   */\n      iszero\n      tag_382\n      jumpi\n        /* \"#utility.yul\":8727:8745   */\n      tag_383\n      tag_193\n      jump\t// in\n    tag_383:\n        /* \"#utility.yul\":8659:8747   */\n    tag_382:\n        /* \"#utility.yul\":8767:8777   */\n      dup1\n        /* \"#utility.yul\":8763:8765   */\n      0x40\n        /* \"#utility.yul\":8756:8778   */\n      mstore\n        /* \"#utility.yul\":8546:8784   */\n      pop\n        /* \"#utility.yul\":8503:8784   */\n      pop\n      pop\n      jump\t// out\n        /* \"#utility.yul\":8790:8919   */\n    tag_254:\n        /* \"#utility.yul\":8824:8830   */\n      0x00\n        /* \"#utility.yul\":8851:8871   */\n      tag_385\n      tag_221\n      jump\t// in\n    tag_385:\n        /* \"#utility.yul\":8841:8871   */\n      swap1\n      pop\n        /* \"#utility.yul\":8880:8913   */\n      tag_386\n        /* \"#utility.yul\":8908:8912   */\n      dup3\n        /* \"#utility.yul\":8900:8906   */\n      dup3\n        /* \"#utility.yul\":8880:8913   */\n      tag_253\n      jump\t// in\n    tag_386:\n        /* \"#utility.yul\":8790:8919   */\n      swap2\n      swap1\n      pop\n      jump\t// out\n        /* \"#utility.yul\":8925:9233   */\n    tag_255:\n        /* \"#utility.yul\":8987:8991   */\n      0x00\n        /* \"#utility.yul\":9077:9095   */\n      0xffffffffffffffff\n        /* \"#utility.yul\":9069:9075   */\n      dup3\n        /* \"#utility.yul\":9066:9096   */\n      gt\n        /* \"#utility.yul\":9063:9119   */\n      iszero\n      tag_388\n      jumpi\n        /* \"#utility.yul\":9099:9117   */\n      tag_389\n      tag_193\n      jump\t// in\n    tag_389:\n        /* \"#utility.yul\":9063:9119   */\n    tag_388:\n        /* \"#utility.yul\":9137:9166   */\n      tag_390\n        /* \"#utility.yul\":9159:9165   */\n      dup3\n        /* \"#utility.yul\":9137:9166   */\n      tag_244\n      jump\t// in\n    tag_390:\n        /* \"#utility.yul\":9129:9166   */\n      swap1\n      pop\n        /* \"#utility.yul\":9221:9225   */\n      0x20\n        /* \"#utility.yul\":9215:9219   */\n      dup2\n        /* \"#utility.yul\":9211:9226   */\n      add\n        /* \"#utility.yul\":9203:9226   */\n      swap1\n      pop\n        /* \"#utility.yul\":8925:9233   */\n      swap2\n      swap1\n      pop\n      jump\t// out\n        /* \"#utility.yul\":9239:9387   */\n    tag_256:\n        /* \"#utility.yul\":9337:9343   */\n      dup3\n        /* \"#utility.yul\":9332:9335   */\n      dup2\n        /* \"#utility.yul\":9327:9330   */\n      dup4\n        /* \"#utility.yul\":9314:9344   */\n      calldatacopy\n        /* \"#utility.yul\":9378:9379   */\n      0x00\n        /* \"#utility.yul\":9369:9375   */\n      dup4\n        /* \"#utility.yul\":9364:9367   */\n      dup4\n        /* \"#utility.yul\":9360:9376   */\n      add\n        /* \"#utility.yul\":9353:9380   */\n      mstore\n        /* \"#utility.yul\":9239:9387   */\n      pop\n      pop\n      pop\n      jump\t// out\n        /* \"#utility.yul\":9393:9818   */\n    tag_257:\n        /* \"#utility.yul\":9471:9476   */\n      0x00\n        /* \"#utility.yul\":9496:9562   */\n      tag_393\n        /* \"#utility.yul\":9512:9561   */\n      tag_394\n        /* \"#utility.yul\":9554:9560   */\n      dup5\n        /* \"#utility.yul\":9512:9561   */\n      tag_255\n      jump\t// in\n    tag_394:\n        /* \"#utility.yul\":9496:9562   */\n      tag_254\n      jump\t// in\n    tag_393:\n        /* \"#utility.yul\":9487:9562   */\n      swap1\n      pop\n        /* \"#utility.yul\":9585:9591   */\n      dup3\n        /* \"#utility.yul\":9578:9583   */\n      dup2\n        /* \"#utility.yul\":9571:9592   */\n      mstore\n        /* \"#utility.yul\":9623:9627   */\n      0x20\n        /* \"#utility.yul\":9616:9621   */\n      dup2\n        /* \"#utility.yul\":9612:9628   */\n      add\n        /* \"#utility.yul\":9661:9664   */\n      dup5\n        /* \"#utility.yul\":9652:9658   */\n      dup5\n        /* \"#utility.yul\":9647:9650   */\n      dup5\n        /* \"#utility.yul\":9643:9659   */\n      add\n        /* \"#utility.yul\":9640:9665   */\n      gt\n        /* \"#utility.yul\":9637:9749   */\n      iszero\n      tag_395\n      jumpi\n        /* \"#utility.yul\":9668:9747   */\n      tag_396\n      tag_252\n      jump\t// in\n    tag_396:\n        /* \"#utility.yul\":9637:9749   */\n    tag_395:\n        /* \"#utility.yul\":9758:9812   */\n      tag_397\n        /* \"#utility.yul\":9805:9811   */\n      dup5\n        /* \"#utility.yul\":9800:9803   */\n      dup3\n        /* \"#utility.yul\":9795:9798   */\n      dup6\n        /* \"#utility.yul\":9758:9812   */\n      tag_256\n      jump\t// in\n    tag_397:\n        /* \"#utility.yul\":9477:9818   */\n      pop\n        /* \"#utility.yul\":9393:9818   */\n      swap4\n      swap3\n      pop\n      pop\n      pop\n      jump\t// out\n        /* \"#utility.yul\":9838:10178   */\n    tag_258:\n        /* \"#utility.yul\":9894:9899   */\n      0x00\n        /* \"#utility.yul\":9943:9946   */\n      dup3\n        /* \"#utility.yul\":9936:9940   */\n      0x1f\n        /* \"#utility.yul\":9928:9934   */\n      dup4\n        /* \"#utility.yul\":9924:9941   */\n      add\n        /* \"#utility.yul\":9920:9947   */\n      slt\n        /* \"#utility.yul\":9910:10032   */\n      tag_399\n      jumpi\n        /* \"#utility.yul\":9951:10030   */\n      tag_400\n      tag_251\n      jump\t// in\n    tag_400:\n        /* \"#utility.yul\":9910:10032   */\n    tag_399:\n        /* \"#utility.yul\":10068:10074   */\n      dup2\n        /* \"#utility.yul\":10055:10075   */\n      calldataload\n        /* \"#utility.yul\":10093:10172   */\n      tag_401\n        /* \"#utility.yul\":10168:10171   */\n      dup5\n        /* \"#utility.yul\":10160:10166   */\n      dup3\n        /* \"#utility.yul\":10153:10157   */\n      0x20\n        /* \"#utility.yul\":10145:10151   */\n      dup7\n        /* \"#utility.yul\":10141:10158   */\n      add\n        /* \"#utility.yul\":10093:10172   */\n      tag_257\n      jump\t// in\n    tag_401:\n        /* \"#utility.yul\":10084:10172   */\n      swap2\n      pop\n        /* \"#utility.yul\":9900:10178   */\n      pop\n        /* \"#utility.yul\":9838:10178   */\n      swap3\n      swap2\n      pop\n      pop\n      jump\t// out\n        /* \"#utility.yul\":10184:10983   */\n    tag_61:\n        /* \"#utility.yul\":10271:10277   */\n      0x00\n        /* \"#utility.yul\":10279:10285   */\n      dup1\n        /* \"#utility.yul\":10287:10293   */\n      0x00\n        /* \"#utility.yul\":10336:10338   */\n      0x60\n        /* \"#utility.yul\":10324:10333   */\n      dup5\n        /* \"#utility.yul\":10315:10322   */\n      dup7\n        /* \"#utility.yul\":10311:10334   */\n      sub\n        /* \"#utility.yul\":10307:10339   */\n      slt\n        /* \"#utility.yul\":10304:10423   */\n      iszero\n      tag_403\n      jumpi\n        /* \"#utility.yul\":10342:10421   */\n      tag_404\n      tag_222\n      jump\t// in\n    tag_404:\n        /* \"#utility.yul\":10304:10423   */\n    tag_403:\n        /* \"#utility.yul\":10462:10463   */\n      0x00\n        /* \"#utility.yul\":10487:10540   */\n      tag_405\n        /* \"#utility.yul\":10532:10539   */\n      dup7\n        /* \"#utility.yul\":10523:10529   */\n      dup3\n        /* \"#utility.yul\":10512:10521   */\n      dup8\n        /* \"#utility.yul\":10508:10530   */\n      add\n        /* \"#utility.yul\":10487:10540   */\n      tag_231\n      jump\t// in\n    tag_405:\n        /* \"#utility.yul\":10477:10540   */\n      swap4\n      pop\n        /* \"#utility.yul\":10433:10550   */\n      pop\n        /* \"#utility.yul\":10589:10591   */\n      0x20\n        /* \"#utility.yul\":10615:10668   */\n      tag_406\n        /* \"#utility.yul\":10660:10667   */\n      dup7\n        /* \"#utility.yul\":10651:10657   */\n      dup3\n        /* \"#utility.yul\":10640:10649   */\n      dup8\n        /* \"#utility.yul\":10636:10658   */\n      add\n        /* \"#utility.yul\":10615:10668   */\n      tag_231\n      jump\t// in\n    tag_406:\n        /* \"#utility.yul\":10605:10668   */\n      swap3\n      pop\n        /* \"#utility.yul\":10560:10678   */\n      pop\n        /* \"#utility.yul\":10745:10747   */\n      0x40\n        /* \"#utility.yul\":10734:10743   */\n      dup5\n        /* \"#utility.yul\":10730:10748   */\n      add\n        /* \"#utility.yul\":10717:10749   */\n      calldataload\n        /* \"#utility.yul\":10776:10794   */\n      0xffffffffffffffff\n        /* \"#utility.yul\":10768:10774   */\n      dup2\n        /* \"#utility.yul\":10765:10795   */\n      gt\n        /* \"#utility.yul\":10762:10879   */\n      iszero\n      tag_407\n      jumpi\n        /* \"#utility.yul\":10798:10877   */\n      tag_408\n      tag_223\n      jump\t// in\n    tag_408:\n        /* \"#utility.yul\":10762:10879   */\n    tag_407:\n        /* \"#utility.yul\":10903:10966   */\n      tag_409\n        /* \"#utility.yul\":10958:10965   */\n      dup7\n        /* \"#utility.yul\":10949:10955   */\n      dup3\n        /* \"#utility.yul\":10938:10947   */\n      dup8\n        /* \"#utility.yul\":10934:10956   */\n      add\n        /* \"#utility.yul\":10903:10966   */\n      tag_258\n      jump\t// in\n    tag_409:\n        /* \"#utility.yul\":10893:10966   */\n      swap2\n      pop\n        /* \"#utility.yul\":10688:10976   */\n      pop\n        /* \"#utility.yul\":10184:10983   */\n      swap3\n      pop\n      swap3\n      pop\n      swap3\n      jump\t// out\n        /* \"#utility.yul\":10989:11318   */\n    tag_72:\n        /* \"#utility.yul\":11048:11054   */\n      0x00\n        /* \"#utility.yul\":11097:11099   */\n      0x20\n        /* \"#utility.yul\":11085:11094   */\n      dup3\n        /* \"#utility.yul\":11076:11083   */\n      dup5\n        /* \"#utility.yul\":11072:11095   */\n      sub\n        /* \"#utility.yul\":11068:11100   */\n      slt\n        /* \"#utility.yul\":11065:11184   */\n      iszero\n      tag_411\n      jumpi\n        /* \"#utility.yul\":11103:11182   */\n      tag_412\n      tag_222\n      jump\t// in\n    tag_412:\n        /* \"#utility.yul\":11065:11184   */\n    tag_411:\n        /* \"#utility.yul\":11223:11224   */\n      0x00\n        /* \"#utility.yul\":11248:11301   */\n      tag_413\n        /* \"#utility.yul\":11293:11300   */\n      dup5\n        /* \"#utility.yul\":11284:11290   */\n      dup3\n        /* \"#utility.yul\":11273:11282   */\n      dup6\n        /* \"#utility.yul\":11269:11291   */\n      add\n        /* \"#utility.yul\":11248:11301   */\n      tag_239\n      jump\t// in\n    tag_413:\n        /* \"#utility.yul\":11238:11301   */\n      swap2\n      pop\n        /* \"#utility.yul\":11194:11311   */\n      pop\n        /* \"#utility.yul\":10989:11318   */\n      swap3\n      swap2\n      pop\n      pop\n      jump\t// out\n        /* \"#utility.yul\":11324:11558   */\n    tag_259:\n        /* \"#utility.yul\":11464:11498   */\n      0x416363657373436f6e74726f6c3a2063616e206f6e6c792072656e6f756e6365\n        /* \"#utility.yul\":11460:11461   */\n      0x00\n        /* \"#utility.yul\":11452:11458   */\n      dup3\n        /* \"#utility.yul\":11448:11462   */\n      add\n        /* \"#utility.yul\":11441:11499   */\n      mstore\n        /* \"#utility.yul\":11533:11550   */\n      0x20726f6c657320666f722073656c660000000000000000000000000000000000\n        /* \"#utility.yul\":11528:11530   */\n      0x20\n        /* \"#utility.yul\":11520:11526   */\n      dup3\n        /* \"#utility.yul\":11516:11531   */\n      add\n        /* \"#utility.yul\":11509:11551   */\n      mstore\n        /* \"#utility.yul\":11324:11558   */\n      pop\n      jump\t// out\n        /* \"#utility.yul\":11564:11930   */\n    tag_260:\n        /* \"#utility.yul\":11706:11709   */\n      0x00\n        /* \"#utility.yul\":11727:11794   */\n      tag_416\n        /* \"#utility.yul\":11791:11793   */\n      0x2f\n        /* \"#utility.yul\":11786:11789   */\n      dup4\n        /* \"#utility.yul\":11727:11794   */\n      tag_249\n      jump\t// in\n    tag_416:\n        /* \"#utility.yul\":11720:11794   */\n      swap2\n      pop\n        /* \"#utility.yul\":11803:11896   */\n      tag_417\n        /* \"#utility.yul\":11892:11895   */\n      dup3\n        /* \"#utility.yul\":11803:11896   */\n      tag_259\n      jump\t// in\n    tag_417:\n        /* \"#utility.yul\":11921:11923   */\n      0x40\n        /* \"#utility.yul\":11916:11919   */\n      dup3\n        /* \"#utility.yul\":11912:11924   */\n      add\n        /* \"#utility.yul\":11905:11924   */\n      swap1\n      pop\n        /* \"#utility.yul\":11564:11930   */\n      swap2\n      swap1\n      pop\n      jump\t// out\n        /* \"#utility.yul\":11936:12355   */\n    tag_104:\n        /* \"#utility.yul\":12102:12106   */\n      0x00\n        /* \"#utility.yul\":12140:12142   */\n      0x20\n        /* \"#utility.yul\":12129:12138   */\n      dup3\n        /* \"#utility.yul\":12125:12143   */\n      add\n        /* \"#utility.yul\":12117:12143   */\n      swap1\n      pop\n        /* \"#utility.yul\":12189:12198   */\n      dup2\n        /* \"#utility.yul\":12183:12187   */\n      dup2\n        /* \"#utility.yul\":12179:12199   */\n      sub\n        /* \"#utility.yul\":12175:12176   */\n      0x00\n        /* \"#utility.yul\":12164:12173   */\n      dup4\n        /* \"#utility.yul\":12160:12177   */\n      add\n        /* \"#utility.yul\":12153:12200   */\n      mstore\n        /* \"#utility.yul\":12217:12348   */\n      tag_419\n        /* \"#utility.yul\":12343:12347   */\n      dup2\n        /* \"#utility.yul\":12217:12348   */\n      tag_260\n      jump\t// in\n    tag_419:\n        /* \"#utility.yul\":12209:12348   */\n      swap1\n      pop\n        /* \"#utility.yul\":11936:12355   */\n      swap2\n      swap1\n      pop\n      jump\t// out\n        /* \"#utility.yul\":12361:12530   */\n    tag_261:\n        /* \"#utility.yul\":12501:12522   */\n      0x47616d6520646f6573206e6f7420657869737400000000000000000000000000\n        /* \"#utility.yul\":12497:12498   */\n      0x00\n        /* \"#utility.yul\":12489:12495   */\n      dup3\n        /* \"#utility.yul\":12485:12499   */\n      add\n        /* \"#utility.yul\":12478:12523   */\n      mstore\n        /* \"#utility.yul\":12361:12530   */\n      pop\n      jump\t// out\n        /* \"#utility.yul\":12536:12902   */\n    tag_262:\n        /* \"#utility.yul\":12678:12681   */\n      0x00\n        /* \"#utility.yul\":12699:12766   */\n      tag_422\n        /* \"#utility.yul\":12763:12765   */\n      0x13\n        /* \"#utility.yul\":12758:12761   */\n      dup4\n        /* \"#utility.yul\":12699:12766   */\n      tag_249\n      jump\t// in\n    tag_422:\n        /* \"#utility.yul\":12692:12766   */\n      swap2\n      pop\n        /* \"#utility.yul\":12775:12868   */\n      tag_423\n        /* \"#utility.yul\":12864:12867   */\n      dup3\n        /* \"#utility.yul\":12775:12868   */\n      tag_261\n      jump\t// in\n    tag_423:\n        /* \"#utility.yul\":12893:12895   */\n      0x20\n        /* \"#utility.yul\":12888:12891   */\n      dup3\n        /* \"#utility.yul\":12884:12896   */\n      add\n        /* \"#utility.yul\":12877:12896   */\n      swap1\n      pop\n        /* \"#utility.yul\":12536:12902   */\n      swap2\n      swap1\n      pop\n      jump\t// out\n        /* \"#utility.yul\":12908:13327   */\n    tag_112:\n        /* \"#utility.yul\":13074:13078   */\n      0x00\n        /* \"#utility.yul\":13112:13114   */\n      0x20\n        /* \"#utility.yul\":13101:13110   */\n      dup3\n        /* \"#utility.yul\":13097:13115   */\n      add\n        /* \"#utility.yul\":13089:13115   */\n      swap1\n      pop\n        /* \"#utility.yul\":13161:13170   */\n      dup2\n        /* \"#utility.yul\":13155:13159   */\n      dup2\n        /* \"#utility.yul\":13151:13171   */\n      sub\n        /* \"#utility.yul\":13147:13148   */\n      0x00\n        /* \"#utility.yul\":13136:13145   */\n      dup4\n        /* \"#utility.yul\":13132:13149   */\n      add\n        /* \"#utility.yul\":13125:13172   */\n      mstore\n        /* \"#utility.yul\":13189:13320   */\n      tag_425\n        /* \"#utility.yul\":13315:13319   */\n      dup2\n        /* \"#utility.yul\":13189:13320   */\n      tag_262\n      jump\t// in\n    tag_425:\n        /* \"#utility.yul\":13181:13320   */\n      swap1\n      pop\n        /* \"#utility.yul\":12908:13327   */\n      swap2\n      swap1\n      pop\n      jump\t// out\n        /* \"#utility.yul\":13333:13513   */\n    tag_263:\n        /* \"#utility.yul\":13381:13458   */\n      0x4e487b7100000000000000000000000000000000000000000000000000000000\n        /* \"#utility.yul\":13378:13379   */\n      0x00\n        /* \"#utility.yul\":13371:13459   */\n      mstore\n        /* \"#utility.yul\":13478:13482   */\n      0x22\n        /* \"#utility.yul\":13475:13476   */\n      0x04\n        /* \"#utility.yul\":13468:13483   */\n      mstore\n        /* \"#utility.yul\":13502:13506   */\n      0x24\n        /* \"#utility.yul\":13499:13500   */\n      0x00\n        /* \"#utility.yul\":13492:13507   */\n      revert\n        /* \"#utility.yul\":13519:13839   */\n    tag_114:\n        /* \"#utility.yul\":13563:13569   */\n      0x00\n        /* \"#utility.yul\":13600:13601   */\n      0x02\n        /* \"#utility.yul\":13594:13598   */\n      dup3\n        /* \"#utility.yul\":13590:13602   */\n      div\n        /* \"#utility.yul\":13580:13602   */\n      swap1\n      pop\n        /* \"#utility.yul\":13647:13648   */\n      0x01\n        /* \"#utility.yul\":13641:13645   */\n      dup3\n        /* \"#utility.yul\":13637:13649   */\n      and\n        /* \"#utility.yul\":13668:13686   */\n      dup1\n        /* \"#utility.yul\":13658:13739   */\n      tag_428\n      jumpi\n        /* \"#utility.yul\":13724:13728   */\n      0x7f\n        /* \"#utility.yul\":13716:13722   */\n      dup3\n        /* \"#utility.yul\":13712:13729   */\n      and\n        /* \"#utility.yul\":13702:13729   */\n      swap2\n      pop\n        /* \"#utility.yul\":13658:13739   */\n    tag_428:\n        /* \"#utility.yul\":13786:13788   */\n      0x20\n        /* \"#utility.yul\":13778:13784   */\n      dup3\n        /* \"#utility.yul\":13775:13789   */\n      lt\n        /* \"#utility.yul\":13755:13773   */\n      dup2\n        /* \"#utility.yul\":13752:13790   */\n      sub\n        /* \"#utility.yul\":13749:13833   */\n      tag_429\n      jumpi\n        /* \"#utility.yul\":13805:13823   */\n      tag_430\n      tag_263\n      jump\t// in\n    tag_430:\n        /* \"#utility.yul\":13749:13833   */\n    tag_429:\n        /* \"#utility.yul\":13570:13839   */\n      pop\n        /* \"#utility.yul\":13519:13839   */\n      swap2\n      swap1\n      pop\n      jump\t// out\n        /* \"#utility.yul\":13845:13986   */\n    tag_264:\n        /* \"#utility.yul\":13894:13898   */\n      0x00\n        /* \"#utility.yul\":13917:13920   */\n      dup2\n        /* \"#utility.yul\":13909:13920   */\n      swap1\n      pop\n        /* \"#utility.yul\":13940:13943   */\n      dup2\n        /* \"#utility.yul\":13937:13938   */\n      0x00\n        /* \"#utility.yul\":13930:13944   */\n      mstore\n        /* \"#utility.yul\":13974:13978   */\n      0x20\n        /* \"#utility.yul\":13971:13972   */\n      0x00\n        /* \"#utility.yul\":13961:13979   */\n      keccak256\n        /* \"#utility.yul\":13953:13979   */\n      swap1\n      pop\n        /* \"#utility.yul\":13845:13986   */\n      swap2\n      swap1\n      pop\n      jump\t// out\n        /* \"#utility.yul\":13992:14085   */\n    tag_265:\n        /* \"#utility.yul\":14029:14035   */\n      0x00\n        /* \"#utility.yul\":14076:14078   */\n      0x20\n        /* \"#utility.yul\":14071:14073   */\n      0x1f\n        /* \"#utility.yul\":14064:14069   */\n      dup4\n        /* \"#utility.yul\":14060:14074   */\n      add\n        /* \"#utility.yul\":14056:14079   */\n      div\n        /* \"#utility.yul\":14046:14079   */\n      swap1\n      pop\n        /* \"#utility.yul\":13992:14085   */\n      swap2\n      swap1\n      pop\n      jump\t// out\n        /* \"#utility.yul\":14091:14198   */\n    tag_266:\n        /* \"#utility.yul\":14135:14143   */\n      0x00\n        /* \"#utility.yul\":14185:14190   */\n      dup3\n        /* \"#utility.yul\":14179:14183   */\n      dup3\n        /* \"#utility.yul\":14175:14191   */\n      shl\n        /* \"#utility.yul\":14154:14191   */\n      swap1\n      pop\n        /* \"#utility.yul\":14091:14198   */\n      swap3\n      swap2\n      pop\n      pop\n      jump\t// out\n        /* \"#utility.yul\":14204:14597   */\n    tag_267:\n        /* \"#utility.yul\":14273:14279   */\n      0x00\n        /* \"#utility.yul\":14323:14324   */\n      0x08\n        /* \"#utility.yul\":14311:14321   */\n      dup4\n        /* \"#utility.yul\":14307:14325   */\n      mul\n        /* \"#utility.yul\":14346:14443   */\n      tag_435\n        /* \"#utility.yul\":14376:14442   */\n      0xffffffffffffffffffffffffffffffffffffffffffffffffffffffffffffffff\n        /* \"#utility.yul\":14365:14374   */\n      dup3\n        /* \"#utility.yul\":14346:14443   */\n      tag_266\n      jump\t// in\n    tag_435:\n        /* \"#utility.yul\":14464:14503   */\n      tag_436\n        /* \"#utility.yul\":14494:14502   */\n      dup7\n        /* \"#utility.yul\":14483:14492   */\n      dup4\n        /* \"#utility.yul\":14464:14503   */\n      tag_266\n      jump\t// in\n    tag_436:\n        /* \"#utility.yul\":14452:14503   */\n      swap6\n      pop\n        /* \"#utility.yul\":14536:14540   */\n      dup1\n        /* \"#utility.yul\":14532:14541   */\n      not\n        /* \"#utility.yul\":14525:14530   */\n      dup5\n        /* \"#utility.yul\":14521:14542   */\n      and\n        /* \"#utility.yul\":14512:14542   */\n      swap4\n      pop\n        /* \"#utility.yul\":14585:14589   */\n      dup1\n        /* \"#utility.yul\":14575:14583   */\n      dup7\n        /* \"#utility.yul\":14571:14590   */\n      and\n        /* \"#utility.yul\":14564:14569   */\n      dup5\n        /* \"#utility.yul\":14561:14591   */\n      or\n        /* \"#utility.yul\":14551:14591   */\n      swap3\n      pop\n        /* \"#utility.yul\":14280:14597   */\n      pop\n      pop\n        /* \"#utility.yul\":14204:14597   */\n      swap4\n      swap3\n      pop\n      pop\n      pop\n      jump\t// out\n        /* \"#utility.yul\":14603:14663   */\n    tag_268:\n        /* \"#utility.yul\":14631:14634   */\n      0x00\n        /* \"#utility.yul\":14652:14657   */\n      dup2\n        /* \"#utility.yul\":14645:14657   */\n      swap1\n      pop\n        /* \"#utility.yul\":14603:14663   */\n      swap2\n      swap1\n      pop\n      jump\t// out\n        /* \"#utility.yul\":14669:14811   */\n    tag_269:\n        /* \"#utility.yul\":14719:14728   */\n      0x00\n        /* \"#utility.yul\":14752:14805   */\n      tag_439\n        /* \"#utility.yul\":14770:14804   */\n      tag_440\n        /* \"#utility.yul\":14779:14803   */\n      tag_441\n        /* \"#utility.yul\":14797:14802   */\n      dup5\n        /* \"#utility.yul\":14779:14803   */\n      tag_229\n      jump\t// in\n    tag_441:\n        /* \"#utility.yul\":14770:14804   */\n      tag_268\n      jump\t// in\n    tag_440:\n        /* \"#utility.yul\":14752:14805   */\n      tag_229\n      jump\t// in\n    tag_439:\n        /* \"#utility.yul\":14739:14805   */\n      swap1\n      pop\n        /* \"#utility.yul\":14669:14811   */\n      swap2\n      swap1\n      pop\n      jump\t// out\n        /* \"#utility.yul\":14817:14892   */\n    tag_270:\n        /* \"#utility.yul\":14860:14863   */\n      0x00\n        /* \"#utility.yul\":14881:14886   */\n      dup2\n        /* \"#utility.yul\":14874:14886   */\n      swap1\n      pop\n        /* \"#utility.yul\":14817:14892   */\n      swap2\n      swap1\n      pop\n      jump\t// out\n        /* \"#utility.yul\":14898:15167   */\n    tag_271:\n        /* \"#utility.yul\":15008:15047   */\n      tag_444\n        /* \"#utility.yul\":15039:15046   */\n      dup4\n        /* \"#utility.yul\":15008:15047   */\n      tag_269\n      jump\t// in\n    tag_444:\n        /* \"#utility.yul\":15069:15160   */\n      tag_445\n        /* \"#utility.yul\":15118:15159   */\n      tag_446\n        /* \"#utility.yul\":15142:15158   */\n      dup3\n        /* \"#utility.yul\":15118:15159   */\n      tag_270\n      jump\t// in\n    tag_446:\n        /* \"#utility.yul\":15110:15116   */\n      dup5\n        /* \"#utility.yul\":15103:15107   */\n      dup5\n        /* \"#utility.yul\":15097:15108   */\n      sload\n        /* \"#utility.yul\":15069:15160   */\n      tag_267\n      jump\t// in\n    tag_445:\n        /* \"#utility.yul\":15063:15067   */\n      dup3\n        /* \"#utility.yul\":15056:15161   */\n      sstore\n        /* \"#utility.yul\":14974:15167   */\n      pop\n        /* \"#utility.yul\":14898:15167   */\n      pop\n      pop\n      pop\n      jump\t// out\n        /* \"#utility.yul\":15173:15246   */\n    tag_272:\n        /* \"#utility.yul\":15218:15221   */\n      0x00\n        /* \"#utility.yul\":15173:15246   */\n      swap1\n      jump\t// out\n        /* \"#utility.yul\":15252:15441   */\n    tag_273:\n        /* \"#utility.yul\":15329:15361   */\n      tag_449\n      tag_272\n      jump\t// in\n    tag_449:\n        /* \"#utility.yul\":15370:15435   */\n      tag_450\n        /* \"#utility.yul\":15428:15434   */\n      dup2\n        /* \"#utility.yul\":15420:15426   */\n      dup5\n        /* \"#utility.yul\":15414:15418   */\n      dup5\n        /* \"#utility.yul\":15370:15435   */\n      tag_271\n      jump\t// in\n    tag_450:\n        /* \"#utility.yul\":15305:15441   */\n      pop\n        /* \"#utility.yul\":15252:15441   */\n      pop\n      pop\n      jump\t// out\n        /* \"#utility.yul\":15447:15633   */\n    tag_274:\n        /* \"#utility.yul\":15507:15627   */\n    tag_452:\n        /* \"#utility.yul\":15524:15527   */\n      dup2\n        /* \"#utility.yul\":15517:15522   */\n      dup2\n        /* \"#utility.yul\":15514:15528   */\n      lt\n        /* \"#utility.yul\":15507:15627   */\n      iszero\n      tag_454\n      jumpi\n        /* \"#utility.yul\":15578:15617   */\n      tag_455\n        /* \"#utility.yul\":15615:15616   */\n      0x00\n        /* \"#utility.yul\":15608:15613   */\n      dup3\n        /* \"#utility.yul\":15578:15617   */\n      tag_273\n      jump\t// in\n    tag_455:\n        /* \"#utility.yul\":15551:15552   */\n      0x01\n        /* \"#utility.yul\":15544:15549   */\n      dup2\n        /* \"#utility.yul\":15540:15553   */\n      add\n        /* \"#utility.yul\":15531:15553   */\n      swap1\n      pop\n        /* \"#utility.yul\":15507:15627   */\n      jump(tag_452)\n    tag_454:\n        /* \"#utility.yul\":15447:15633   */\n      pop\n      pop\n      jump\t// out\n        /* \"#utility.yul\":15639:16182   */\n    tag_275:\n        /* \"#utility.yul\":15740:15742   */\n      0x1f\n        /* \"#utility.yul\":15735:15738   */\n      dup3\n        /* \"#utility.yul\":15732:15743   */\n      gt\n        /* \"#utility.yul\":15729:16175   */\n      iszero\n      tag_457\n      jumpi\n        /* \"#utility.yul\":15774:15812   */\n      tag_458\n        /* \"#utility.yul\":15806:15811   */\n      dup2\n        /* \"#utility.yul\":15774:15812   */\n      tag_264\n      jump\t// in\n    tag_458:\n        /* \"#utility.yul\":15858:15887   */\n      tag_459\n        /* \"#utility.yul\":15876:15886   */\n      dup5\n        /* \"#utility.yul\":15858:15887   */\n      tag_265\n      jump\t// in\n    tag_459:\n        /* \"#utility.yul\":15848:15856   */\n      dup2\n        /* \"#utility.yul\":15844:15888   */\n      add\n        /* \"#utility.yul\":16041:16043   */\n      0x20\n        /* \"#utility.yul\":16029:16039   */\n      dup6\n        /* \"#utility.yul\":16026:16044   */\n      lt\n        /* \"#utility.yul\":16023:16072   */\n      iszero\n      tag_460\n      jumpi\n        /* \"#utility.yul\":16062:16070   */\n      dup2\n        /* \"#utility.yul\":16047:16070   */\n      swap1\n      pop\n        /* \"#utility.yul\":16023:16072   */\n    tag_460:\n        /* \"#utility.yul\":16085:16165   */\n      tag_461\n        /* \"#utility.yul\":16141:16163   */\n      tag_462\n        /* \"#utility.yul\":16159:16162   */\n      dup6\n        /* \"#utility.yul\":16141:16163   */\n      tag_265\n      jump\t// in\n    tag_462:\n        /* \"#utility.yul\":16131:16139   */\n      dup4\n        /* \"#utility.yul\":16127:16164   */\n      add\n        /* \"#utility.yul\":16114:16125   */\n      dup3\n        /* \"#utility.yul\":16085:16165   */\n      tag_274\n      jump\t// in\n    tag_461:\n        /* \"#utility.yul\":15744:16175   */\n      pop\n      pop\n        /* \"#utility.yul\":15729:16175   */\n    tag_457:\n        /* \"#utility.yul\":15639:16182   */\n      pop\n      pop\n      pop\n      jump\t// out\n        /* \"#utility.yul\":16188:16305   */\n    tag_276:\n        /* \"#utility.yul\":16242:16250   */\n      0x00\n        /* \"#utility.yul\":16292:16297   */\n      dup3\n        /* \"#utility.yul\":16286:16290   */\n      dup3\n        /* \"#utility.yul\":16282:16298   */\n      shr\n        /* \"#utility.yul\":16261:16298   */\n      swap1\n      pop\n        /* \"#utility.yul\":16188:16305   */\n      swap3\n      swap2\n      pop\n      pop\n      jump\t// out\n        /* \"#utility.yul\":16311:16480   */\n    tag_277:\n        /* \"#utility.yul\":16355:16361   */\n      0x00\n        /* \"#utility.yul\":16388:16439   */\n      tag_465\n        /* \"#utility.yul\":16436:16437   */\n      0x00\n        /* \"#utility.yul\":16432:16438   */\n      not\n        /* \"#utility.yul\":16424:16429   */\n      dup5\n        /* \"#utility.yul\":16421:16422   */\n      0x08\n        /* \"#utility.yul\":16417:16430   */\n      mul\n        /* \"#utility.yul\":16388:16439   */\n      tag_276\n      jump\t// in\n    tag_465:\n        /* \"#utility.yul\":16384:16440   */\n      not\n        /* \"#utility.yul\":16469:16473   */\n      dup1\n        /* \"#utility.yul\":16463:16467   */\n      dup4\n        /* \"#utility.yul\":16459:16474   */\n      and\n        /* \"#utility.yul\":16449:16474   */\n      swap2\n      pop\n        /* \"#utility.yul\":16362:16480   */\n      pop\n        /* \"#utility.yul\":16311:16480   */\n      swap3\n      swap2\n      pop\n      pop\n      jump\t// out\n        /* \"#utility.yul\":16485:16780   */\n    tag_278:\n        /* \"#utility.yul\":16561:16565   */\n      0x00\n        /* \"#utility.yul\":16707:16736   */\n      tag_467\n        /* \"#utility.yul\":16732:16735   */\n      dup4\n        /* \"#utility.yul\":16726:16730   */\n      dup4\n        /* \"#utility.yul\":16707:16736   */\n      tag_277\n      jump\t// in\n    tag_467:\n        /* \"#utility.yul\":16699:16736   */\n      swap2\n      pop\n        /* \"#utility.yul\":16769:16772   */\n      dup3\n        /* \"#utility.yul\":16766:16767   */\n      0x02\n        /* \"#utility.yul\":16762:16773   */\n      mul\n        /* \"#utility.yul\":16756:16760   */\n      dup3\n        /* \"#utility.yul\":16753:16774   */\n      or\n        /* \"#utility.yul\":16745:16774   */\n      swap1\n      pop\n        /* \"#utility.yul\":16485:16780   */\n      swap3\n      swap2\n      pop\n      pop\n      jump\t// out\n        /* \"#utility.yul\":16785:18180   */\n    tag_128:\n        /* \"#utility.yul\":16902:16939   */\n      tag_469\n        /* \"#utility.yul\":16935:16938   */\n      dup3\n        /* \"#utility.yul\":16902:16939   */\n      tag_241\n      jump\t// in\n    tag_469:\n        /* \"#utility.yul\":17004:17022   */\n      0xffffffffffffffff\n        /* \"#utility.yul\":16996:17002   */\n      dup2\n        /* \"#utility.yul\":16993:17023   */\n      gt\n        /* \"#utility.yul\":16990:17046   */\n      iszero\n      tag_470\n      jumpi\n        /* \"#utility.yul\":17026:17044   */\n      tag_471\n      tag_193\n      jump\t// in\n    tag_471:\n        /* \"#utility.yul\":16990:17046   */\n    tag_470:\n        /* \"#utility.yul\":17070:17108   */\n      tag_472\n        /* \"#utility.yul\":17102:17106   */\n      dup3\n        /* \"#utility.yul\":17096:17107   */\n      sload\n        /* \"#utility.yul\":17070:17108   */\n      tag_114\n      jump\t// in\n    tag_472:\n        /* \"#utility.yul\":17155:17222   */\n      tag_473\n        /* \"#utility.yul\":17215:17221   */\n      dup3\n        /* \"#utility.yul\":17207:17213   */\n      dup3\n        /* \"#utility.yul\":17201:17205   */\n      dup6\n        /* \"#utility.yul\":17155:17222   */\n      tag_275\n      jump\t// in\n    tag_473:\n        /* \"#utility.yul\":17249:17250   */\n      0x00\n        /* \"#utility.yul\":17273:17277   */\n      0x20\n        /* \"#utility.yul\":17260:17277   */\n      swap1\n      pop\n        /* \"#utility.yul\":17305:17307   */\n      0x1f\n        /* \"#utility.yul\":17297:17303   */\n      dup4\n        /* \"#utility.yul\":17294:17308   */\n      gt\n        /* \"#utility.yul\":17322:17323   */\n      0x01\n        /* \"#utility.yul\":17317:17935   */\n      dup2\n      eq\n      tag_475\n      jumpi\n        /* \"#utility.yul\":17979:17980   */\n      0x00\n        /* \"#utility.yul\":17996:18002   */\n      dup5\n        /* \"#utility.yul\":17993:18070   */\n      iszero\n      tag_476\n      jumpi\n        /* \"#utility.yul\":18045:18054   */\n      dup3\n        /* \"#utility.yul\":18040:18043   */\n      dup8\n        /* \"#utility.yul\":18036:18055   */\n      add\n        /* \"#utility.yul\":18030:18056   */\n      mload\n        /* \"#utility.yul\":18021:18056   */\n      swap1\n      pop\n        /* \"#utility.yul\":17993:18070   */\n    tag_476:\n        /* \"#utility.yul\":18096:18163   */\n      tag_477\n        /* \"#utility.yul\":18156:18162   */\n      dup6\n        /* \"#utility.yul\":18149:18154   */\n      dup3\n        /* \"#utility.yul\":18096:18163   */\n      tag_278\n      jump\t// in\n    tag_477:\n        /* \"#utility.yul\":18090:18094   */\n      dup7\n        /* \"#utility.yul\":18083:18164   */\n      sstore\n        /* \"#utility.yul\":17952:18174   */\n      pop\n        /* \"#utility.yul\":17287:18174   */\n      jump(tag_474)\n        /* \"#utility.yul\":17317:17935   */\n    tag_475:\n        /* \"#utility.yul\":17369:17373   */\n      0x1f\n        /* \"#utility.yul\":17365:17374   */\n      not\n        /* \"#utility.yul\":17357:17363   */\n      dup5\n        /* \"#utility.yul\":17353:17375   */\n      and\n        /* \"#utility.yul\":17403:17440   */\n      tag_478\n        /* \"#utility.yul\":17435:17439   */\n      dup7\n        /* \"#utility.yul\":17403:17440   */\n      tag_264\n      jump\t// in\n    tag_478:\n        /* \"#utility.yul\":17462:17463   */\n      0x00\n        /* \"#utility.yul\":17476:17684   */\n    tag_479:\n        /* \"#utility.yul\":17490:17497   */\n      dup3\n        /* \"#utility.yul\":17487:17488   */\n      dup2\n        /* \"#utility.yul\":17484:17498   */\n      lt\n        /* \"#utility.yul\":17476:17684   */\n      iszero\n      tag_481\n      jumpi\n        /* \"#utility.yul\":17569:17578   */\n      dup5\n        /* \"#utility.yul\":17564:17567   */\n      dup10\n        /* \"#utility.yul\":17560:17579   */\n      add\n        /* \"#utility.yul\":17554:17580   */\n      mload\n        /* \"#utility.yul\":17546:17552   */\n      dup3\n        /* \"#utility.yul\":17539:17581   */\n      sstore\n        /* \"#utility.yul\":17620:17621   */\n      0x01\n        /* \"#utility.yul\":17612:17618   */\n      dup3\n        /* \"#utility.yul\":17608:17622   */\n      add\n        /* \"#utility.yul\":17598:17622   */\n      swap2\n      pop\n        /* \"#utility.yul\":17667:17669   */\n      0x20\n        /* \"#utility.yul\":17656:17665   */\n      dup6\n        /* \"#utility.yul\":17652:17670   */\n      add\n        /* \"#utility.yul\":17639:17670   */\n      swap5\n      pop\n        /* \"#utility.yul\":17513:17517   */\n      0x20\n        /* \"#utility.yul\":17510:17511   */\n      dup2\n        /* \"#utility.yul\":17506:17518   */\n      add\n        /* \"#utility.yul\":17501:17518   */\n      swap1\n      pop\n        /* \"#utility.yul\":17476:17684   */\n      jump(tag_479)\n    tag_481:\n        /* \"#utility.yul\":17712:17718   */\n      dup7\n        /* \"#utility.yul\":17703:17710   */\n      dup4\n        /* \"#utility.yul\":17700:17719   */\n      lt\n        /* \"#utility.yul\":17697:17876   */\n      iszero\n      tag_482\n      jumpi\n        /* \"#utility.yul\":17770:17779   */\n      dup5\n        /* \"#utility.yul\":17765:17768   */\n      dup10\n        /* \"#utility.yul\":17761:17780   */\n      add\n        /* \"#utility.yul\":17755:17781   */\n      mload\n        /* \"#utility.yul\":17813:17861   */\n      tag_483\n        /* \"#utility.yul\":17855:17859   */\n      0x1f\n        /* \"#utility.yul\":17847:17853   */\n      dup10\n        /* \"#utility.yul\":17843:17860   */\n      and\n        /* \"#utility.yul\":17832:17841   */\n      dup3\n        /* \"#utility.yul\":17813:17861   */\n      tag_277\n      jump\t// in\n    tag_483:\n        /* \"#utility.yul\":17805:17811   */\n      dup4\n        /* \"#utility.yul\":17798:17862   */\n      sstore\n        /* \"#utility.yul\":17720:17876   */\n      pop\n        /* \"#utility.yul\":17697:17876   */\n    tag_482:\n        /* \"#utility.yul\":17922:17923   */\n      0x01\n        /* \"#utility.yul\":17918:17919   */\n      0x02\n        /* \"#utility.yul\":17910:17916   */\n      dup9\n        /* \"#utility.yul\":17906:17920   */\n      mul\n        /* \"#utility.yul\":17902:17924   */\n      add\n        /* \"#utility.yul\":17896:17900   */\n      dup9\n        /* \"#utility.yul\":17889:17925   */\n      sstore\n        /* \"#utility.yul\":17324:17935   */\n      pop\n      pop\n      pop\n        /* \"#utility.yul\":17287:18174   */\n    tag_474:\n      pop\n        /* \"#utility.yul\":16877:18180   */\n      pop\n      pop\n      pop\n        /* \"#utility.yul\":16785:18180   */\n      pop\n      pop\n      jump\t// out\n        /* \"#utility.yul\":18186:18719   */\n    tag_130:\n        /* \"#utility.yul\":18355:18359   */\n      0x00\n        /* \"#utility.yul\":18393:18395   */\n      0x60\n        /* \"#utility.yul\":18382:18391   */\n      dup3\n        /* \"#utility.yul\":18378:18396   */\n      add\n        /* \"#utility.yul\":18370:18396   */\n      swap1\n      pop\n        /* \"#utility.yul\":18406:18477   */\n      tag_485\n        /* \"#utility.yul\":18474:18475   */\n      0x00\n        /* \"#utility.yul\":18463:18472   */\n      dup4\n        /* \"#utility.yul\":18459:18476   */\n      add\n        /* \"#utility.yul\":18450:18456   */\n      dup7\n        /* \"#utility.yul\":18406:18477   */\n      tag_248\n      jump\t// in\n    tag_485:\n        /* \"#utility.yul\":18487:18559   */\n      tag_486\n        /* \"#utility.yul\":18555:18557   */\n      0x20\n        /* \"#utility.yul\":18544:18553   */\n      dup4\n        /* \"#utility.yul\":18540:18558   */\n      add\n        /* \"#utility.yul\":18531:18537   */\n      dup6\n        /* \"#utility.yul\":18487:18559   */\n      tag_248\n      jump\t// in\n    tag_486:\n        /* \"#utility.yul\":18606:18615   */\n      dup2\n        /* \"#utility.yul\":18600:18604   */\n      dup2\n        /* \"#utility.yul\":18596:18616   */\n      sub\n        /* \"#utility.yul\":18591:18593   */\n      0x40\n        /* \"#utility.yul\":18580:18589   */\n      dup4\n        /* \"#utility.yul\":18576:18594   */\n      add\n        /* \"#utility.yul\":18569:18617   */\n      mstore\n        /* \"#utility.yul\":18634:18712   */\n      tag_487\n        /* \"#utility.yul\":18707:18711   */\n      dup2\n        /* \"#utility.yul\":18698:18704   */\n      dup5\n        /* \"#utility.yul\":18634:18712   */\n      tag_250\n      jump\t// in\n    tag_487:\n        /* \"#utility.yul\":18626:18712   */\n      swap1\n      pop\n        /* \"#utility.yul\":18186:18719   */\n      swap5\n      swap4\n      pop\n      pop\n      pop\n      pop\n      jump\t// out\n        /* \"#utility.yul\":18725:18873   */\n    tag_279:\n        /* \"#utility.yul\":18827:18838   */\n      0x00\n        /* \"#utility.yul\":18864:18867   */\n      dup2\n        /* \"#utility.yul\":18849:18867   */\n      swap1\n      pop\n        /* \"#utility.yul\":18725:18873   */\n      swap3\n      swap2\n      pop\n      pop\n      jump\t// out\n        /* \"#utility.yul\":18879:19052   */\n    tag_280:\n        /* \"#utility.yul\":19019:19044   */\n      0x416363657373436f6e74726f6c3a206163636f756e7420000000000000000000\n        /* \"#utility.yul\":19015:19016   */\n      0x00\n        /* \"#utility.yul\":19007:19013   */\n      dup3\n        /* \"#utility.yul\":19003:19017   */\n      add\n        /* \"#utility.yul\":18996:19045   */\n      mstore\n        /* \"#utility.yul\":18879:19052   */\n      pop\n      jump\t// out\n        /* \"#utility.yul\":19058:19460   */\n    tag_281:\n        /* \"#utility.yul\":19218:19221   */\n      0x00\n        /* \"#utility.yul\":19239:19324   */\n      tag_491\n        /* \"#utility.yul\":19321:19323   */\n      0x17\n        /* \"#utility.yul\":19316:19319   */\n      dup4\n        /* \"#utility.yul\":19239:19324   */\n      tag_279\n      jump\t// in\n    tag_491:\n        /* \"#utility.yul\":19232:19324   */\n      swap2\n      pop\n        /* \"#utility.yul\":19333:19426   */\n      tag_492\n        /* \"#utility.yul\":19422:19425   */\n      dup3\n        /* \"#utility.yul\":19333:19426   */\n      tag_280\n      jump\t// in\n    tag_492:\n        /* \"#utility.yul\":19451:19453   */\n      0x17\n        /* \"#utility.yul\":19446:19449   */\n      dup3\n        /* \"#utility.yul\":19442:19454   */\n      add\n        /* \"#utility.yul\":19435:19454   */\n      swap1\n      pop\n        /* \"#utility.yul\":19058:19460   */\n      swap2\n      swap1\n      pop\n      jump\t// out\n        /* \"#utility.yul\":19466:19856   */\n    tag_282:\n        /* \"#utility.yul\":19572:19575   */\n      0x00\n        /* \"#utility.yul\":19600:19639   */\n      tag_494\n        /* \"#utility.yul\":19633:19638   */\n      dup3\n        /* \"#utility.yul\":19600:19639   */\n      tag_241\n      jump\t// in\n    tag_494:\n        /* \"#utility.yul\":19655:19744   */\n      tag_495\n        /* \"#utility.yul\":19737:19743   */\n      dup2\n        /* \"#utility.yul\":19732:19735   */\n      dup6\n        /* \"#utility.yul\":19655:19744   */\n      tag_279\n      jump\t// in\n    tag_495:\n        /* \"#utility.yul\":19648:19744   */\n      swap4\n      pop\n        /* \"#utility.yul\":19753:19818   */\n      tag_496\n        /* \"#utility.yul\":19811:19817   */\n      dup2\n        /* \"#utility.yul\":19806:19809   */\n      dup6\n        /* \"#utility.yul\":19799:19803   */\n      0x20\n        /* \"#utility.yul\":19792:19797   */\n      dup7\n        /* \"#utility.yul\":19788:19804   */\n      add\n        /* \"#utility.yul\":19753:19818   */\n      tag_243\n      jump\t// in\n    tag_496:\n        /* \"#utility.yul\":19843:19849   */\n      dup1\n        /* \"#utility.yul\":19838:19841   */\n      dup5\n        /* \"#utility.yul\":19834:19850   */\n      add\n        /* \"#utility.yul\":19827:19850   */\n      swap2\n      pop\n        /* \"#utility.yul\":19576:19856   */\n      pop\n        /* \"#utility.yul\":19466:19856   */\n      swap3\n      swap2\n      pop\n      pop\n      jump\t// out\n        /* \"#utility.yul\":19862:20029   */\n    tag_283:\n        /* \"#utility.yul\":20002:20021   */\n      0x206973206d697373696e6720726f6c6520000000000000000000000000000000\n        /* \"#utility.yul\":19998:19999   */\n      0x00\n        /* \"#utility.yul\":19990:19996   */\n      dup3\n        /* \"#utility.yul\":19986:20000   */\n      add\n        /* \"#utility.yul\":19979:20022   */\n      mstore\n        /* \"#utility.yul\":19862:20029   */\n      pop\n      jump\t// out\n        /* \"#utility.yul\":20035:20437   */\n    tag_284:\n        /* \"#utility.yul\":20195:20198   */\n      0x00\n        /* \"#utility.yul\":20216:20301   */\n      tag_499\n        /* \"#utility.yul\":20298:20300   */\n      0x11\n        /* \"#utility.yul\":20293:20296   */\n      dup4\n        /* \"#utility.yul\":20216:20301   */\n      tag_279\n      jump\t// in\n    tag_499:\n        /* \"#utility.yul\":20209:20301   */\n      swap2\n      pop\n        /* \"#utility.yul\":20310:20403   */\n      tag_500\n        /* \"#utility.yul\":20399:20402   */\n      dup3\n        /* \"#utility.yul\":20310:20403   */\n      tag_283\n      jump\t// in\n    tag_500:\n        /* \"#utility.yul\":20428:20430   */\n      0x11\n        /* \"#utility.yul\":20423:20426   */\n      dup3\n        /* \"#utility.yul\":20419:20431   */\n      add\n        /* \"#utility.yul\":20412:20431   */\n      swap1\n      pop\n        /* \"#utility.yul\":20035:20437   */\n      swap2\n      swap1\n      pop\n      jump\t// out\n        /* \"#utility.yul\":20443:21410   */\n    tag_181:\n        /* \"#utility.yul\":20825:20828   */\n      0x00\n        /* \"#utility.yul\":20847:20995   */\n      tag_502\n        /* \"#utility.yul\":20991:20994   */\n      dup3\n        /* \"#utility.yul\":20847:20995   */\n      tag_281\n      jump\t// in\n    tag_502:\n        /* \"#utility.yul\":20840:20995   */\n      swap2\n      pop\n        /* \"#utility.yul\":21012:21107   */\n      tag_503\n        /* \"#utility.yul\":21103:21106   */\n      dup3\n        /* \"#utility.yul\":21094:21100   */\n      dup6\n        /* \"#utility.yul\":21012:21107   */\n      tag_282\n      jump\t// in\n    tag_503:\n        /* \"#utility.yul\":21005:21107   */\n      swap2\n      pop\n        /* \"#utility.yul\":21124:21272   */\n      tag_504\n        /* \"#utility.yul\":21268:21271   */\n      dup3\n        /* \"#utility.yul\":21124:21272   */\n      tag_284\n      jump\t// in\n    tag_504:\n        /* \"#utility.yul\":21117:21272   */\n      swap2\n      pop\n        /* \"#utility.yul\":21289:21384   */\n      tag_505\n        /* \"#utility.yul\":21380:21383   */\n      dup3\n        /* \"#utility.yul\":21371:21377   */\n      dup5\n        /* \"#utility.yul\":21289:21384   */\n      tag_282\n      jump\t// in\n    tag_505:\n        /* \"#utility.yul\":21282:21384   */\n      swap2\n      pop\n        /* \"#utility.yul\":21401:21404   */\n      dup2\n        /* \"#utility.yul\":21394:21404   */\n      swap1\n      pop\n        /* \"#utility.yul\":20443:21410   */\n      swap4\n      swap3\n      pop\n      pop\n      pop\n      jump\t// out\n        /* \"#utility.yul\":21416:21729   */\n    tag_183:\n        /* \"#utility.yul\":21529:21533   */\n      0x00\n        /* \"#utility.yul\":21567:21569   */\n      0x20\n        /* \"#utility.yul\":21556:21565   */\n      dup3\n        /* \"#utility.yul\":21552:21570   */\n      add\n        /* \"#utility.yul\":21544:21570   */\n      swap1\n      pop\n        /* \"#utility.yul\":21616:21625   */\n      dup2\n        /* \"#utility.yul\":21610:21614   */\n      dup2\n        /* \"#utility.yul\":21606:21626   */\n      sub\n        /* \"#utility.yul\":21602:21603   */\n      0x00\n        /* \"#utility.yul\":21591:21600   */\n      dup4\n        /* \"#utility.yul\":21587:21604   */\n      add\n        /* \"#utility.yul\":21580:21627   */\n      mstore\n        /* \"#utility.yul\":21644:21722   */\n      tag_507\n        /* \"#utility.yul\":21717:21721   */\n      dup2\n        /* \"#utility.yul\":21708:21714   */\n      dup5\n        /* \"#utility.yul\":21644:21722   */\n      tag_250\n      jump\t// in\n    tag_507:\n        /* \"#utility.yul\":21636:21722   */\n      swap1\n      pop\n        /* \"#utility.yul\":21416:21729   */\n      swap3\n      swap2\n      pop\n      pop\n      jump\t// out\n        /* \"#utility.yul\":21735:21915   */\n    tag_285:\n        /* \"#utility.yul\":21783:21860   */\n      0x4e487b7100000000000000000000000000000000000000000000000000000000\n        /* \"#utility.yul\":21780:21781   */\n      0x00\n        /* \"#utility.yul\":21773:21861   */\n      mstore\n        /* \"#utility.yul\":21880:21884   */\n      0x11\n        /* \"#utility.yul\":21877:21878   */\n      0x04\n        /* \"#utility.yul\":21870:21885   */\n      mstore\n        /* \"#utility.yul\":21904:21908   */\n      0x24\n        /* \"#utility.yul\":21901:21902   */\n      0x00\n        /* \"#utility.yul\":21894:21909   */\n      revert\n        /* \"#utility.yul\":21921:22331   */\n    tag_188:\n        /* \"#utility.yul\":21961:21968   */\n      0x00\n        /* \"#utility.yul\":21984:22004   */\n      tag_510\n        /* \"#utility.yul\":22002:22003   */\n      dup3\n        /* \"#utility.yul\":21984:22004   */\n      tag_229\n      jump\t// in\n    tag_510:\n        /* \"#utility.yul\":21979:22004   */\n      swap2\n      pop\n        /* \"#utility.yul\":22018:22038   */\n      tag_511\n        /* \"#utility.yul\":22036:22037   */\n      dup4\n        /* \"#utility.yul\":22018:22038   */\n      tag_229\n      jump\t// in\n    tag_511:\n        /* \"#utility.yul\":22013:22038   */\n      swap3\n      pop\n        /* \"#utility.yul\":22073:22074   */\n      dup3\n        /* \"#utility.yul\":22070:22071   */\n      dup3\n        /* \"#utility.yul\":22066:22075   */\n      mul\n        /* \"#utility.yul\":22095:22125   */\n      tag_512\n        /* \"#utility.yul\":22113:22124   */\n      dup2\n        /* \"#utility.yul\":22095:22125   */\n      tag_229\n      jump\t// in\n    tag_512:\n        /* \"#utility.yul\":22084:22125   */\n      swap2\n      pop\n        /* \"#utility.yul\":22274:22275   */\n      dup3\n        /* \"#utility.yul\":22265:22272   */\n      dup3\n        /* \"#utility.yul\":22261:22276   */\n      div\n        /* \"#utility.yul\":22258:22259   */\n      dup5\n        /* \"#utility.yul\":22255:22277   */\n      eq\n        /* \"#utility.yul\":22235:22236   */\n      dup4\n        /* \"#utility.yul\":22228:22237   */\n      iszero\n        /* \"#utility.yul\":22208:22291   */\n      or\n        /* \"#utility.yul\":22185:22324   */\n      tag_513\n      jumpi\n        /* \"#utility.yul\":22304:22322   */\n      tag_514\n      tag_285\n      jump\t// in\n    tag_514:\n        /* \"#utility.yul\":22185:22324   */\n    tag_513:\n        /* \"#utility.yul\":21969:22331   */\n      pop\n        /* \"#utility.yul\":21921:22331   */\n      swap3\n      swap2\n      pop\n      pop\n      jump\t// out\n        /* \"#utility.yul\":22337:22528   */\n    tag_190:\n        /* \"#utility.yul\":22377:22380   */\n      0x00\n        /* \"#utility.yul\":22396:22416   */\n      tag_516\n        /* \"#utility.yul\":22414:22415   */\n      dup3\n        /* \"#utility.yul\":22396:22416   */\n      tag_229\n      jump\t// in\n    tag_516:\n        /* \"#utility.yul\":22391:22416   */\n      swap2\n      pop\n        /* \"#utility.yul\":22430:22450   */\n      tag_517\n        /* \"#utility.yul\":22448:22449   */\n      dup4\n        /* \"#utility.yul\":22430:22450   */\n      tag_229\n      jump\t// in\n    tag_517:\n        /* \"#utility.yul\":22425:22450   */\n      swap3\n      pop\n        /* \"#utility.yul\":22473:22474   */\n      dup3\n        /* \"#utility.yul\":22470:22471   */\n      dup3\n        /* \"#utility.yul\":22466:22475   */\n      add\n        /* \"#utility.yul\":22459:22475   */\n      swap1\n      pop\n        /* \"#utility.yul\":22494:22497   */\n      dup1\n        /* \"#utility.yul\":22491:22492   */\n      dup3\n        /* \"#utility.yul\":22488:22498   */\n      gt\n        /* \"#utility.yul\":22485:22521   */\n      iszero\n      tag_518\n      jumpi\n        /* \"#utility.yul\":22501:22519   */\n      tag_519\n      tag_285\n      jump\t// in\n    tag_519:\n        /* \"#utility.yul\":22485:22521   */\n    tag_518:\n        /* \"#utility.yul\":22337:22528   */\n      swap3\n      swap2\n      pop\n      pop\n      jump\t// out\n        /* \"#utility.yul\":22534:22714   */\n    tag_197:\n        /* \"#utility.yul\":22582:22659   */\n      0x4e487b7100000000000000000000000000000000000000000000000000000000\n        /* \"#utility.yul\":22579:22580   */\n      0x00\n        /* \"#utility.yul\":22572:22660   */\n      mstore\n        /* \"#utility.yul\":22679:22683   */\n      0x32\n        /* \"#utility.yul\":22676:22677   */\n      0x04\n        /* \"#utility.yul\":22669:22684   */\n      mstore\n        /* \"#utility.yul\":22703:22707   */\n      0x24\n        /* \"#utility.yul\":22700:22701   */\n      0x00\n        /* \"#utility.yul\":22693:22708   */\n      revert\n        /* \"#utility.yul\":22720:22891   */\n    tag_210:\n        /* \"#utility.yul\":22759:22762   */\n      0x00\n        /* \"#utility.yul\":22782:22806   */\n      tag_522\n        /* \"#utility.yul\":22800:22805   */\n      dup3\n        /* \"#utility.yul\":22782:22806   */\n      tag_229\n      jump\t// in\n    tag_522:\n        /* \"#utility.yul\":22773:22806   */\n      swap2\n      pop\n        /* \"#utility.yul\":22828:22832   */\n      0x00\n        /* \"#utility.yul\":22821:22826   */\n      dup3\n        /* \"#utility.yul\":22818:22833   */\n      sub\n        /* \"#utility.yul\":22815:22856   */\n      tag_523\n      jumpi\n        /* \"#utility.yul\":22836:22854   */\n      tag_524\n      tag_285\n      jump\t// in\n    tag_524:\n        /* \"#utility.yul\":22815:22856   */\n    tag_523:\n        /* \"#utility.yul\":22883:22884   */\n      0x01\n        /* \"#utility.yul\":22876:22881   */\n      dup3\n        /* \"#utility.yul\":22872:22885   */\n      sub\n        /* \"#utility.yul\":22865:22885   */\n      swap1\n      pop\n        /* \"#utility.yul\":22720:22891   */\n      swap2\n      swap1\n      pop\n      jump\t// out\n        /* \"#utility.yul\":22897:23079   */\n    tag_286:\n        /* \"#utility.yul\":23037:23071   */\n      0x537472696e67733a20686578206c656e67746820696e73756666696369656e74\n        /* \"#utility.yul\":23033:23034   */\n      0x00\n        /* \"#utility.yul\":23025:23031   */\n      dup3\n        /* \"#utility.yul\":23021:23035   */\n      add\n        /* \"#utility.yul\":23014:23072   */\n      mstore\n        /* \"#utility.yul\":22897:23079   */\n      pop\n      jump\t// out\n        /* \"#utility.yul\":23085:23451   */\n    tag_287:\n        /* \"#utility.yul\":23227:23230   */\n      0x00\n        /* \"#utility.yul\":23248:23315   */\n      tag_527\n        /* \"#utility.yul\":23312:23314   */\n      0x20\n        /* \"#utility.yul\":23307:23310   */\n      dup4\n        /* \"#utility.yul\":23248:23315   */\n      tag_249\n      jump\t// in\n    tag_527:\n        /* \"#utility.yul\":23241:23315   */\n      swap2\n      pop\n        /* \"#utility.yul\":23324:23417   */\n      tag_528\n        /* \"#utility.yul\":23413:23416   */\n      dup3\n        /* \"#utility.yul\":23324:23417   */\n      tag_286\n      jump\t// in\n    tag_528:\n        /* \"#utility.yul\":23442:23444   */\n      0x20\n        /* \"#utility.yul\":23437:23440   */\n      dup3\n        /* \"#utility.yul\":23433:23445   */\n      add\n        /* \"#utility.yul\":23426:23445   */\n      swap1\n      pop\n        /* \"#utility.yul\":23085:23451   */\n      swap2\n      swap1\n      pop\n      jump\t// out\n        /* \"#utility.yul\":23457:23876   */\n    tag_213:\n        /* \"#utility.yul\":23623:23627   */\n      0x00\n        /* \"#utility.yul\":23661:23663   */\n      0x20\n        /* \"#utility.yul\":23650:23659   */\n      dup3\n        /* \"#utility.yul\":23646:23664   */\n      add\n        /* \"#utility.yul\":23638:23664   */\n      swap1\n      pop\n        /* \"#utility.yul\":23710:23719   */\n      dup2\n        /* \"#utility.yul\":23704:23708   */\n      dup2\n        /* \"#utility.yul\":23700:23720   */\n      sub\n        /* \"#utility.yul\":23696:23697   */\n      0x00\n        /* \"#utility.yul\":23685:23694   */\n      dup4\n        /* \"#utility.yul\":23681:23698   */\n      add\n        /* \"#utility.yul\":23674:23721   */\n      mstore\n        /* \"#utility.yul\":23738:23869   */\n      tag_530\n        /* \"#utility.yul\":23864:23868   */\n      dup2\n        /* \"#utility.yul\":23738:23869   */\n      tag_287\n      jump\t// in\n    tag_530:\n        /* \"#utility.yul\":23730:23869   */\n      swap1\n      pop\n        /* \"#utility.yul\":23457:23876   */\n      swap2\n      swap1\n      pop\n      jump\t// out\n\n    auxdata: 0xa264697066735822122028c6e84feaea234570c7bd63d31751b115642248582738a51ac845a0c37a941e64736f6c634300081a0033\n}\n",
				"bytecode": {
					"linkReferences": {},
					"object": "608060405234801561000f575f80fd5b506100225f801b3361005760201b60201c565b6100527fa49807205ce4d355092ef5a8a18f56e8913cf4a201fbe287825b095693c217753361005760201b60201c565b6101bb565b610067828261006b60201b60201c565b5050565b61007b828261015160201b60201c565b61014d5760015f808481526020019081526020015f205f015f8373ffffffffffffffffffffffffffffffffffffffff1673ffffffffffffffffffffffffffffffffffffffff1681526020019081526020015f205f6101000a81548160ff0219169083151502179055506100f26101b460201b60201c565b73ffffffffffffffffffffffffffffffffffffffff168173ffffffffffffffffffffffffffffffffffffffff16837f2f8788117e7eff1d82e926ec794901d17c78024a50270940304540a733656f0d60405160405180910390a45b5050565b5f805f8481526020019081526020015f205f015f8373ffffffffffffffffffffffffffffffffffffffff1673ffffffffffffffffffffffffffffffffffffffff1681526020019081526020015f205f9054906101000a900460ff16905092915050565b5f33905090565b611cba806101c85f395ff3fe608060405234801561000f575f80fd5b50600436106100fe575f3560e01c80638164586e11610095578063a217fddf11610064578063a217fddf146102cf578063b3558075146102ed578063c634b78e14610309578063d547741f14610325576100fe565b80638164586e1461024b57806389b2c8e71461026757806391d14854146102835780639a19c7b0146102b3576100fe565b806336568abe116100d157806336568abe146101ae57806347e1d550146101ca57806375b238fc146101fa5780637d1b468714610218576100fe565b806301ffc9a7146101025780631833fdf914610132578063248a9ca3146101625780632f2ff15d14610192575b5f80fd5b61011c600480360381019061011791906110b9565b610341565b60405161012991906110fe565b60405180910390f35b61014c6004803603810190610147919061114a565b6103ba565b60405161015991906110fe565b60405180910390f35b61017c600480360381019061017791906111a8565b6103e3565b60405161018991906111e2565b60405180910390f35b6101ac60048036038101906101a79190611255565b6103ff565b005b6101c860048036038101906101c39190611255565b610420565b005b6101e460048036038101906101df919061114a565b6104a3565b6040516101f19190611381565b60405180910390f35b6102026105eb565b60405161020f91906111e2565b60405180910390f35b610232600480360381019061022d919061114a565b61060f565b60405161024294939291906113f8565b60405180910390f35b6102656004803603810190610260919061156e565b6106cd565b005b610281600480360381019061027c919061114a565b6107b7565b005b61029d60048036038101906102989190611255565b6108b5565b6040516102aa91906110fe565b60405180910390f35b6102cd60048036038101906102c891906115da565b610918565b005b6102d7610952565b6040516102e491906111e2565b60405180910390f35b6103076004803603810190610302919061156e565b610958565b005b610323600480360381019061031e91906115da565b610a5b565b005b61033f600480360381019061033a9190611255565b610a95565b005b5f7f7965db0b000000000000000000000000000000000000000000000000000000007bffffffffffffffffffffffffffffffffffffffffffffffffffffffff1916827bffffffffffffffffffffffffffffffffffffffffffffffffffffffff191614806103b357506103b282610ab6565b5b9050919050565b5f60015f8381526020019081526020015f206003015f9054906101000a900460ff169050919050565b5f805f8381526020019081526020015f20600101549050919050565b610408826103e3565b61041181610b1f565b61041b8383610b33565b505050565b610428610c0d565b73ffffffffffffffffffffffffffffffffffffffff168173ffffffffffffffffffffffffffffffffffffffff1614610495576040517f08c379a000000000000000000000000000000000000000000000000000000000815260040161048c90611675565b60405180910390fd5b61049f8282610c14565b5050565b6104ab610fd4565b60015f8381526020019081526020015f206003015f9054906101000a900460ff1661050b576040517f08c379a0000000000000000000000000000000000000000000000000000000008152600401610502906116dd565b60405180910390fd5b60015f8381526020019081526020015f206040518060800160405290815f82015481526020016001820154815260200160028201805461054a90611728565b80601f016020809104026020016040519081016040528092919081815260200182805461057690611728565b80156105c15780601f10610598576101008083540402835291602001916105c1565b820191905f5260205f20905b8154815290600101906020018083116105a457829003601f168201915b50505050508152602001600382015f9054906101000a900460ff1615151515815250509050919050565b7fa49807205ce4d355092ef5a8a18f56e8913cf4a201fbe287825b095693c2177581565b6001602052805f5260405f205f91509050805f01549080600101549080600201805461063a90611728565b80601f016020809104026020016040519081016040528092919081815260200182805461066690611728565b80156106b15780601f10610688576101008083540402835291602001916106b1565b820191905f5260205f20905b81548152906001019060200180831161069457829003601f168201915b505050505090806003015f9054906101000a900460ff16905084565b7fa49807205ce4d355092ef5a8a18f56e8913cf4a201fbe287825b095693c217756106f781610b1f565b60405180608001604052808581526020018481526020018381526020016001151581525060015f8581526020019081526020015f205f820151815f015560208201518160010155604082015181600201908161075391906118f5565b506060820151816003015f6101000a81548160ff0219169083151502179055509050507fd8e2cd0473b83461e66f336b5655c077dbd1203e041ad68b1d6f2c4c5ec2593d8484846040516107a9939291906119c4565b60405180910390a150505050565b7fa49807205ce4d355092ef5a8a18f56e8913cf4a201fbe287825b095693c217756107e181610b1f565b60015f8381526020019081526020015f206003015f9054906101000a900460ff16610841576040517f08c379a0000000000000000000000000000000000000000000000000000000008152600401610838906116dd565b60405180910390fd5b60015f8381526020019081526020015f205f8082015f9055600182015f9055600282015f61086f9190610ffb565b600382015f6101000a81549060ff02191690555050817f5ef6221cc1c069a8c723210c08d526c7ca88540ee8d66470cf01844efaae0b9460405160405180910390a25050565b5f805f8481526020019081526020015f205f015f8373ffffffffffffffffffffffffffffffffffffffff1673ffffffffffffffffffffffffffffffffffffffff1681526020019081526020015f205f9054906101000a900460ff16905092915050565b5f801b61092481610b1f565b61094e7fa49807205ce4d355092ef5a8a18f56e8913cf4a201fbe287825b095693c2177583610a95565b5050565b5f801b81565b7fa49807205ce4d355092ef5a8a18f56e8913cf4a201fbe287825b095693c2177561098281610b1f565b60015f8481526020019081526020015f206003015f9054906101000a900460ff166109e2576040517f08c379a00000000000000000000000000000000000000000000000000000000081526004016109d9906116dd565b60405180910390fd5b5f60015f8581526020019081526020015f20905084815f018190555083816001018190555082816002019081610a1891906118f5565b507f279760c089dcaf505489fffb102c4bf947fb1847e8a7febd514bd92ffe977bc2858585604051610a4c939291906119c4565b60405180910390a15050505050565b5f801b610a6781610b1f565b610a917fa49807205ce4d355092ef5a8a18f56e8913cf4a201fbe287825b095693c21775836103ff565b5050565b610a9e826103e3565b610aa781610b1f565b610ab18383610c14565b505050565b5f7f01ffc9a7000000000000000000000000000000000000000000000000000000007bffffffffffffffffffffffffffffffffffffffffffffffffffffffff1916827bffffffffffffffffffffffffffffffffffffffffffffffffffffffff1916149050919050565b610b3081610b2b610c0d565b610cee565b50565b610b3d82826108b5565b610c095760015f808481526020019081526020015f205f015f8373ffffffffffffffffffffffffffffffffffffffff1673ffffffffffffffffffffffffffffffffffffffff1681526020019081526020015f205f6101000a81548160ff021916908315150217905550610bae610c0d565b73ffffffffffffffffffffffffffffffffffffffff168173ffffffffffffffffffffffffffffffffffffffff16837f2f8788117e7eff1d82e926ec794901d17c78024a50270940304540a733656f0d60405160405180910390a45b5050565b5f33905090565b610c1e82826108b5565b15610cea575f805f8481526020019081526020015f205f015f8373ffffffffffffffffffffffffffffffffffffffff1673ffffffffffffffffffffffffffffffffffffffff1681526020019081526020015f205f6101000a81548160ff021916908315150217905550610c8f610c0d565b73ffffffffffffffffffffffffffffffffffffffff168173ffffffffffffffffffffffffffffffffffffffff16837ff6391f5c32d9c69d2a47ea670b442974b53935d1edc7fd64eb21e047a839171b60405160405180910390a45b5050565b610cf882826108b5565b610d6e57610d0581610d72565b610d12835f1c6020610d9f565b604051602001610d23929190611ace565b6040516020818303038152906040526040517f08c379a0000000000000000000000000000000000000000000000000000000008152600401610d659190611b07565b60405180910390fd5b5050565b6060610d988273ffffffffffffffffffffffffffffffffffffffff16601460ff16610d9f565b9050919050565b60605f6002836002610db19190611b54565b610dbb9190611b95565b67ffffffffffffffff811115610dd457610dd361144a565b5b6040519080825280601f01601f191660200182016040528015610e065781602001600182028036833780820191505090505b5090507f3000000000000000000000000000000000000000000000000000000000000000815f81518110610e3d57610e3c611bc8565b5b60200101907effffffffffffffffffffffffffffffffffffffffffffffffffffffffffffff191690815f1a9053507f780000000000000000000000000000000000000000000000000000000000000081600181518110610ea057610e9f611bc8565b5b60200101907effffffffffffffffffffffffffffffffffffffffffffffffffffffffffffff191690815f1a9053505f6001846002610ede9190611b54565b610ee89190611b95565b90505b6001811115610f87577f3031323334353637383961626364656600000000000000000000000000000000600f861660108110610f2a57610f29611bc8565b5b1a60f81b828281518110610f4157610f40611bc8565b5b60200101907effffffffffffffffffffffffffffffffffffffffffffffffffffffffffffff191690815f1a905350600485901c945080610f8090611bf5565b9050610eeb565b505f8414610fca576040517f08c379a0000000000000000000000000000000000000000000000000000000008152600401610fc190611c66565b60405180910390fd5b8091505092915050565b60405180608001604052805f81526020015f8152602001606081526020015f151581525090565b50805461100790611728565b5f825580601f106110185750611035565b601f0160209004905f5260205f20908101906110349190611038565b5b50565b5b8082111561104f575f815f905550600101611039565b5090565b5f604051905090565b5f80fd5b5f80fd5b5f7fffffffff0000000000000000000000000000000000000000000000000000000082169050919050565b61109881611064565b81146110a2575f80fd5b50565b5f813590506110b38161108f565b92915050565b5f602082840312156110ce576110cd61105c565b5b5f6110db848285016110a5565b91505092915050565b5f8115159050919050565b6110f8816110e4565b82525050565b5f6020820190506111115f8301846110ef565b92915050565b5f819050919050565b61112981611117565b8114611133575f80fd5b50565b5f8135905061114481611120565b92915050565b5f6020828403121561115f5761115e61105c565b5b5f61116c84828501611136565b91505092915050565b5f819050919050565b61118781611175565b8114611191575f80fd5b50565b5f813590506111a28161117e565b92915050565b5f602082840312156111bd576111bc61105c565b5b5f6111ca84828501611194565b91505092915050565b6111dc81611175565b82525050565b5f6020820190506111f55f8301846111d3565b92915050565b5f73ffffffffffffffffffffffffffffffffffffffff82169050919050565b5f611224826111fb565b9050919050565b6112348161121a565b811461123e575f80fd5b50565b5f8135905061124f8161122b565b92915050565b5f806040838503121561126b5761126a61105c565b5b5f61127885828601611194565b925050602061128985828601611241565b9150509250929050565b61129c81611117565b82525050565b5f81519050919050565b5f82825260208201905092915050565b8281835e5f83830152505050565b5f601f19601f8301169050919050565b5f6112e4826112a2565b6112ee81856112ac565b93506112fe8185602086016112bc565b611307816112ca565b840191505092915050565b61131b816110e4565b82525050565b5f608083015f8301516113365f860182611293565b5060208301516113496020860182611293565b506040830151848203604086015261136182826112da565b91505060608301516113766060860182611312565b508091505092915050565b5f6020820190508181035f8301526113998184611321565b905092915050565b6113aa81611117565b82525050565b5f82825260208201905092915050565b5f6113ca826112a2565b6113d481856113b0565b93506113e48185602086016112bc565b6113ed816112ca565b840191505092915050565b5f60808201905061140b5f8301876113a1565b61141860208301866113a1565b818103604083015261142a81856113c0565b905061143960608301846110ef565b95945050505050565b5f80fd5b5f80fd5b7f4e487b71000000000000000000000000000000000000000000000000000000005f52604160045260245ffd5b611480826112ca565b810181811067ffffffffffffffff8211171561149f5761149e61144a565b5b80604052505050565b5f6114b1611053565b90506114bd8282611477565b919050565b5f67ffffffffffffffff8211156114dc576114db61144a565b5b6114e5826112ca565b9050602081019050919050565b828183375f83830152505050565b5f61151261150d846114c2565b6114a8565b90508281526020810184848401111561152e5761152d611446565b5b6115398482856114f2565b509392505050565b5f82601f83011261155557611554611442565b5b8135611565848260208601611500565b91505092915050565b5f805f606084860312156115855761158461105c565b5b5f61159286828701611136565b93505060206115a386828701611136565b925050604084013567ffffffffffffffff8111156115c4576115c3611060565b5b6115d086828701611541565b9150509250925092565b5f602082840312156115ef576115ee61105c565b5b5f6115fc84828501611241565b91505092915050565b7f416363657373436f6e74726f6c3a2063616e206f6e6c792072656e6f756e63655f8201527f20726f6c657320666f722073656c660000000000000000000000000000000000602082015250565b5f61165f602f836113b0565b915061166a82611605565b604082019050919050565b5f6020820190508181035f83015261168c81611653565b9050919050565b7f47616d6520646f6573206e6f74206578697374000000000000000000000000005f82015250565b5f6116c76013836113b0565b91506116d282611693565b602082019050919050565b5f6020820190508181035f8301526116f4816116bb565b9050919050565b7f4e487b71000000000000000000000000000000000000000000000000000000005f52602260045260245ffd5b5f600282049050600182168061173f57607f821691505b602082108103611752576117516116fb565b5b50919050565b5f819050815f5260205f209050919050565b5f6020601f8301049050919050565b5f82821b905092915050565b5f600883026117b47fffffffffffffffffffffffffffffffffffffffffffffffffffffffffffffffff82611779565b6117be8683611779565b95508019841693508086168417925050509392505050565b5f819050919050565b5f6117f96117f46117ef84611117565b6117d6565b611117565b9050919050565b5f819050919050565b611812836117df565b61182661181e82611800565b848454611785565b825550505050565b5f90565b61183a61182e565b611845818484611809565b505050565b5b818110156118685761185d5f82611832565b60018101905061184b565b5050565b601f8211156118ad5761187e81611758565b6118878461176a565b81016020851015611896578190505b6118aa6118a28561176a565b83018261184a565b50505b505050565b5f82821c905092915050565b5f6118cd5f19846008026118b2565b1980831691505092915050565b5f6118e583836118be565b9150826002028217905092915050565b6118fe826112a2565b67ffffffffffffffff8111156119175761191661144a565b5b6119218254611728565b61192c82828561186c565b5f60209050601f83116001811461195d575f841561194b578287015190505b61195585826118da565b8655506119bc565b601f19841661196b86611758565b5f5b828110156119925784890151825560018201915060208501945060208101905061196d565b868310156119af57848901516119ab601f8916826118be565b8355505b6001600288020188555050505b505050505050565b5f6060820190506119d75f8301866113a1565b6119e460208301856113a1565b81810360408301526119f681846113c0565b9050949350505050565b5f81905092915050565b7f416363657373436f6e74726f6c3a206163636f756e74200000000000000000005f82015250565b5f611a3e601783611a00565b9150611a4982611a0a565b601782019050919050565b5f611a5e826112a2565b611a688185611a00565b9350611a788185602086016112bc565b80840191505092915050565b7f206973206d697373696e6720726f6c65200000000000000000000000000000005f82015250565b5f611ab8601183611a00565b9150611ac382611a84565b601182019050919050565b5f611ad882611a32565b9150611ae48285611a54565b9150611aef82611aac565b9150611afb8284611a54565b91508190509392505050565b5f6020820190508181035f830152611b1f81846113c0565b905092915050565b7f4e487b71000000000000000000000000000000000000000000000000000000005f52601160045260245ffd5b5f611b5e82611117565b9150611b6983611117565b9250828202611b7781611117565b91508282048414831517611b8e57611b8d611b27565b5b5092915050565b5f611b9f82611117565b9150611baa83611117565b9250828201905080821115611bc257611bc1611b27565b5b92915050565b7f4e487b71000000000000000000000000000000000000000000000000000000005f52603260045260245ffd5b5f611bff82611117565b91505f8203611c1157611c10611b27565b5b600182039050919050565b7f537472696e67733a20686578206c656e67746820696e73756666696369656e745f82015250565b5f611c506020836113b0565b9150611c5b82611c1c565b602082019050919050565b5f6020820190508181035f830152611c7d81611c44565b905091905056fea264697066735822122028c6e84feaea234570c7bd63d31751b115642248582738a51ac845a0c37a941e64736f6c634300081a0033",
					"opcodes": "PUSH1 0x80 PUSH1 0x40 MSTORE CALLVALUE DUP1 ISZERO PUSH2 0xF JUMPI PUSH0 DUP1 REVERT JUMPDEST POP PUSH2 0x22 PUSH0 DUP1 SHL CALLER PUSH2 0x57 PUSH1 0x20 SHL PUSH1 0x20 SHR JUMP JUMPDEST PUSH2 0x52 PUSH32 0xA49807205CE4D355092EF5A8A18F56E8913CF4A201FBE287825B095693C21775 CALLER PUSH2 0x57 PUSH1 0x20 SHL PUSH1 0x20 SHR JUMP JUMPDEST PUSH2 0x1BB JUMP JUMPDEST PUSH2 0x67 DUP3 DUP3 PUSH2 0x6B PUSH1 0x20 SHL PUSH1 0x20 SHR JUMP JUMPDEST POP POP JUMP JUMPDEST PUSH2 0x7B DUP3 DUP3 PUSH2 0x151 PUSH1 0x20 SHL PUSH1 0x20 SHR JUMP JUMPDEST PUSH2 0x14D JUMPI PUSH1 0x1 PUSH0 DUP1 DUP5 DUP2 MSTORE PUSH1 0x20 ADD SWAP1 DUP2 MSTORE PUSH1 0x20 ADD PUSH0 KECCAK256 PUSH0 ADD PUSH0 DUP4 PUSH20 0xFFFFFFFFFFFFFFFFFFFFFFFFFFFFFFFFFFFFFFFF AND PUSH20 0xFFFFFFFFFFFFFFFFFFFFFFFFFFFFFFFFFFFFFFFF AND DUP2 MSTORE PUSH1 0x20 ADD SWAP1 DUP2 MSTORE PUSH1 0x20 ADD PUSH0 KECCAK256 PUSH0 PUSH2 0x100 EXP DUP2 SLOAD DUP2 PUSH1 0xFF MUL NOT AND SWAP1 DUP4 ISZERO ISZERO MUL OR SWAP1 SSTORE POP PUSH2 0xF2 PUSH2 0x1B4 PUSH1 0x20 SHL PUSH1 0x20 SHR JUMP JUMPDEST PUSH20 0xFFFFFFFFFFFFFFFFFFFFFFFFFFFFFFFFFFFFFFFF AND DUP2 PUSH20 0xFFFFFFFFFFFFFFFFFFFFFFFFFFFFFFFFFFFFFFFF AND DUP4 PUSH32 0x2F8788117E7EFF1D82E926EC794901D17C78024A50270940304540A733656F0D PUSH1 0x40 MLOAD PUSH1 0x40 MLOAD DUP1 SWAP2 SUB SWAP1 LOG4 JUMPDEST POP POP JUMP JUMPDEST PUSH0 DUP1 PUSH0 DUP5 DUP2 MSTORE PUSH1 0x20 ADD SWAP1 DUP2 MSTORE PUSH1 0x20 ADD PUSH0 KECCAK256 PUSH0 ADD PUSH0 DUP4 PUSH20 0xFFFFFFFFFFFFFFFFFFFFFFFFFFFFFFFFFFFFFFFF AND PUSH20 0xFFFFFFFFFFFFFFFFFFFFFFFFFFFFFFFFFFFFFFFF AND DUP2 MSTORE PUSH1 0x20 ADD SWAP1 DUP2 MSTORE PUSH1 0x20 ADD PUSH0 KECCAK256 PUSH0 SWAP1 SLOAD SWAP1 PUSH2 0x100 EXP SWAP1 DIV PUSH1 0xFF AND SWAP1 POP SWAP3 SWAP2 POP POP JUMP JUMPDEST PUSH0 CALLER SWAP1 POP SWAP1 JUMP JUMPDEST PUSH2 0x1CBA DUP1 PUSH2 0x1C8 PUSH0 CODECOPY PUSH0 RETURN INVALID PUSH1 0x80 PUSH1 0x40 MSTORE CALLVALUE DUP1 ISZERO PUSH2 0xF JUMPI PUSH0 DUP1 REVERT JUMPDEST POP PUSH1 0x4 CALLDATASIZE LT PUSH2 0xFE JUMPI PUSH0 CALLDATALOAD PUSH1 0xE0 SHR DUP1 PUSH4 0x8164586E GT PUSH2 0x95 JUMPI DUP1 PUSH4 0xA217FDDF GT PUSH2 0x64 JUMPI DUP1 PUSH4 0xA217FDDF EQ PUSH2 0x2CF JUMPI DUP1 PUSH4 0xB3558075 EQ PUSH2 0x2ED JUMPI DUP1 PUSH4 0xC634B78E EQ PUSH2 0x309 JUMPI DUP1 PUSH4 0xD547741F EQ PUSH2 0x325 JUMPI PUSH2 0xFE JUMP JUMPDEST DUP1 PUSH4 0x8164586E EQ PUSH2 0x24B JUMPI DUP1 PUSH4 0x89B2C8E7 EQ PUSH2 0x267 JUMPI DUP1 PUSH4 0x91D14854 EQ PUSH2 0x283 JUMPI DUP1 PUSH4 0x9A19C7B0 EQ PUSH2 0x2B3 JUMPI PUSH2 0xFE JUMP JUMPDEST DUP1 PUSH4 0x36568ABE GT PUSH2 0xD1 JUMPI DUP1 PUSH4 0x36568ABE EQ PUSH2 0x1AE JUMPI DUP1 PUSH4 0x47E1D550 EQ PUSH2 0x1CA JUMPI DUP1 PUSH4 0x75B238FC EQ PUSH2 0x1FA JUMPI DUP1 PUSH4 0x7D1B4687 EQ PUSH2 0x218 JUMPI PUSH2 0xFE JUMP JUMPDEST DUP1 PUSH4 0x1FFC9A7 EQ PUSH2 0x102 JUMPI DUP1 PUSH4 0x1833FDF9 EQ PUSH2 0x132 JUMPI DUP1 PUSH4 0x248A9CA3 EQ PUSH2 0x162 JUMPI DUP1 PUSH4 0x2F2FF15D EQ PUSH2 0x192 JUMPI JUMPDEST PUSH0 DUP1 REVERT JUMPDEST PUSH2 0x11C PUSH1 0x4 DUP1 CALLDATASIZE SUB DUP2 ADD SWAP1 PUSH2 0x117 SWAP2 SWAP1 PUSH2 0x10B9 JUMP JUMPDEST PUSH2 0x341 JUMP JUMPDEST PUSH1 0x40 MLOAD PUSH2 0x129 SWAP2 SWAP1 PUSH2 0x10FE JUMP JUMPDEST PUSH1 0x40 MLOAD DUP1 SWAP2 SUB SWAP1 RETURN JUMPDEST PUSH2 0x14C PUSH1 0x4 DUP1 CALLDATASIZE SUB DUP2 ADD SWAP1 PUSH2 0x147 SWAP2 SWAP1 PUSH2 0x114A JUMP JUMPDEST PUSH2 0x3BA JUMP JUMPDEST PUSH1 0x40 MLOAD PUSH2 0x159 SWAP2 SWAP1 PUSH2 0x10FE JUMP JUMPDEST PUSH1 0x40 MLOAD DUP1 SWAP2 SUB SWAP1 RETURN JUMPDEST PUSH2 0x17C PUSH1 0x4 DUP1 CALLDATASIZE SUB DUP2 ADD SWAP1 PUSH2 0x177 SWAP2 SWAP1 PUSH2 0x11A8 JUMP JUMPDEST PUSH2 0x3E3 JUMP JUMPDEST PUSH1 0x40 MLOAD PUSH2 0x189 SWAP2 SWAP1 PUSH2 0x11E2 JUMP JUMPDEST PUSH1 0x40 MLOAD DUP1 SWAP2 SUB SWAP1 RETURN JUMPDEST PUSH2 0x1AC PUSH1 0x4 DUP1 CALLDATASIZE SUB DUP2 ADD SWAP1 PUSH2 0x1A7 SWAP2 SWAP1 PUSH2 0x1255 JUMP JUMPDEST PUSH2 0x3FF JUMP JUMPDEST STOP JUMPDEST PUSH2 0x1C8 PUSH1 0x4 DUP1 CALLDATASIZE SUB DUP2 ADD SWAP1 PUSH2 0x1C3 SWAP2 SWAP1 PUSH2 0x1255 JUMP JUMPDEST PUSH2 0x420 JUMP JUMPDEST STOP JUMPDEST PUSH2 0x1E4 PUSH1 0x4 DUP1 CALLDATASIZE SUB DUP2 ADD SWAP1 PUSH2 0x1DF SWAP2 SWAP1 PUSH2 0x114A JUMP JUMPDEST PUSH2 0x4A3 JUMP JUMPDEST PUSH1 0x40 MLOAD PUSH2 0x1F1 SWAP2 SWAP1 PUSH2 0x1381 JUMP JUMPDEST PUSH1 0x40 MLOAD DUP1 SWAP2 SUB SWAP1 RETURN JUMPDEST PUSH2 0x202 PUSH2 0x5EB JUMP JUMPDEST PUSH1 0x40 MLOAD PUSH2 0x20F SWAP2 SWAP1 PUSH2 0x11E2 JUMP JUMPDEST PUSH1 0x40 MLOAD DUP1 SWAP2 SUB SWAP1 RETURN JUMPDEST PUSH2 0x232 PUSH1 0x4 DUP1 CALLDATASIZE SUB DUP2 ADD SWAP1 PUSH2 0x22D SWAP2 SWAP1 PUSH2 0x114A JUMP JUMPDEST PUSH2 0x60F JUMP JUMPDEST PUSH1 0x40 MLOAD PUSH2 0x242 SWAP5 SWAP4 SWAP3 SWAP2 SWAP1 PUSH2 0x13F8 JUMP JUMPDEST PUSH1 0x40 MLOAD DUP1 SWAP2 SUB SWAP1 RETURN JUMPDEST PUSH2 0x265 PUSH1 0x4 DUP1 CALLDATASIZE SUB DUP2 ADD SWAP1 PUSH2 0x260 SWAP2 SWAP1 PUSH2 0x156E JUMP JUMPDEST PUSH2 0x6CD JUMP JUMPDEST STOP JUMPDEST PUSH2 0x281 PUSH1 0x4 DUP1 CALLDATASIZE SUB DUP2 ADD SWAP1 PUSH2 0x27C SWAP2 SWAP1 PUSH2 0x114A JUMP JUMPDEST PUSH2 0x7B7 JUMP JUMPDEST STOP JUMPDEST PUSH2 0x29D PUSH1 0x4 DUP1 CALLDATASIZE SUB DUP2 ADD SWAP1 PUSH2 0x298 SWAP2 SWAP1 PUSH2 0x1255 JUMP JUMPDEST PUSH2 0x8B5 JUMP JUMPDEST PUSH1 0x40 MLOAD PUSH2 0x2AA SWAP2 SWAP1 PUSH2 0x10FE JUMP JUMPDEST PUSH1 0x40 MLOAD DUP1 SWAP2 SUB SWAP1 RETURN JUMPDEST PUSH2 0x2CD PUSH1 0x4 DUP1 CALLDATASIZE SUB DUP2 ADD SWAP1 PUSH2 0x2C8 SWAP2 SWAP1 PUSH2 0x15DA JUMP JUMPDEST PUSH2 0x918 JUMP JUMPDEST STOP JUMPDEST PUSH2 0x2D7 PUSH2 0x952 JUMP JUMPDEST PUSH1 0x40 MLOAD PUSH2 0x2E4 SWAP2 SWAP1 PUSH2 0x11E2 JUMP JUMPDEST PUSH1 0x40 MLOAD DUP1 SWAP2 SUB SWAP1 RETURN JUMPDEST PUSH2 0x307 PUSH1 0x4 DUP1 CALLDATASIZE SUB DUP2 ADD SWAP1 PUSH2 0x302 SWAP2 SWAP1 PUSH2 0x156E JUMP JUMPDEST PUSH2 0x958 JUMP JUMPDEST STOP JUMPDEST PUSH2 0x323 PUSH1 0x4 DUP1 CALLDATASIZE SUB DUP2 ADD SWAP1 PUSH2 0x31E SWAP2 SWAP1 PUSH2 0x15DA JUMP JUMPDEST PUSH2 0xA5B JUMP JUMPDEST STOP JUMPDEST PUSH2 0x33F PUSH1 0x4 DUP1 CALLDATASIZE SUB DUP2 ADD SWAP1 PUSH2 0x33A SWAP2 SWAP1 PUSH2 0x1255 JUMP JUMPDEST PUSH2 0xA95 JUMP JUMPDEST STOP JUMPDEST PUSH0 PUSH32 0x7965DB0B00000000000000000000000000000000000000000000000000000000 PUSH28 0xFFFFFFFFFFFFFFFFFFFFFFFFFFFFFFFFFFFFFFFFFFFFFFFFFFFFFFFF NOT AND DUP3 PUSH28 0xFFFFFFFFFFFFFFFFFFFFFFFFFFFFFFFFFFFFFFFFFFFFFFFFFFFFFFFF NOT AND EQ DUP1 PUSH2 0x3B3 JUMPI POP PUSH2 0x3B2 DUP3 PUSH2 0xAB6 JUMP JUMPDEST JUMPDEST SWAP1 POP SWAP2 SWAP1 POP JUMP JUMPDEST PUSH0 PUSH1 0x1 PUSH0 DUP4 DUP2 MSTORE PUSH1 0x20 ADD SWAP1 DUP2 MSTORE PUSH1 0x20 ADD PUSH0 KECCAK256 PUSH1 0x3 ADD PUSH0 SWAP1 SLOAD SWAP1 PUSH2 0x100 EXP SWAP1 DIV PUSH1 0xFF AND SWAP1 POP SWAP2 SWAP1 POP JUMP JUMPDEST PUSH0 DUP1 PUSH0 DUP4 DUP2 MSTORE PUSH1 0x20 ADD SWAP1 DUP2 MSTORE PUSH1 0x20 ADD PUSH0 KECCAK256 PUSH1 0x1 ADD SLOAD SWAP1 POP SWAP2 SWAP1 POP JUMP JUMPDEST PUSH2 0x408 DUP3 PUSH2 0x3E3 JUMP JUMPDEST PUSH2 0x411 DUP2 PUSH2 0xB1F JUMP JUMPDEST PUSH2 0x41B DUP4 DUP4 PUSH2 0xB33 JUMP JUMPDEST POP POP POP JUMP JUMPDEST PUSH2 0x428 PUSH2 0xC0D JUMP JUMPDEST PUSH20 0xFFFFFFFFFFFFFFFFFFFFFFFFFFFFFFFFFFFFFFFF AND DUP2 PUSH20 0xFFFFFFFFFFFFFFFFFFFFFFFFFFFFFFFFFFFFFFFF AND EQ PUSH2 0x495 JUMPI PUSH1 0x40 MLOAD PUSH32 0x8C379A000000000000000000000000000000000000000000000000000000000 DUP2 MSTORE PUSH1 0x4 ADD PUSH2 0x48C SWAP1 PUSH2 0x1675 JUMP JUMPDEST PUSH1 0x40 MLOAD DUP1 SWAP2 SUB SWAP1 REVERT JUMPDEST PUSH2 0x49F DUP3 DUP3 PUSH2 0xC14 JUMP JUMPDEST POP POP JUMP JUMPDEST PUSH2 0x4AB PUSH2 0xFD4 JUMP JUMPDEST PUSH1 0x1 PUSH0 DUP4 DUP2 MSTORE PUSH1 0x20 ADD SWAP1 DUP2 MSTORE PUSH1 0x20 ADD PUSH0 KECCAK256 PUSH1 0x3 ADD PUSH0 SWAP1 SLOAD SWAP1 PUSH2 0x100 EXP SWAP1 DIV PUSH1 0xFF AND PUSH2 0x50B JUMPI PUSH1 0x40 MLOAD PUSH32 0x8C379A000000000000000000000000000000000000000000000000000000000 DUP2 MSTORE PUSH1 0x4 ADD PUSH2 0x502 SWAP1 PUSH2 0x16DD JUMP JUMPDEST PUSH1 0x40 MLOAD DUP1 SWAP2 SUB SWAP1 REVERT JUMPDEST PUSH1 0x1 PUSH0 DUP4 DUP2 MSTORE PUSH1 0x20 ADD SWAP1 DUP2 MSTORE PUSH1 0x20 ADD PUSH0 KECCAK256 PUSH1 0x40 MLOAD DUP1 PUSH1 0x80 ADD PUSH1 0x40 MSTORE SWAP1 DUP2 PUSH0 DUP3 ADD SLOAD DUP2 MSTORE PUSH1 0x20 ADD PUSH1 0x1 DUP3 ADD SLOAD DUP2 MSTORE PUSH1 0x20 ADD PUSH1 0x2 DUP3 ADD DUP1 SLOAD PUSH2 0x54A SWAP1 PUSH2 0x1728 JUMP JUMPDEST DUP1 PUSH1 0x1F ADD PUSH1 0x20 DUP1 SWAP2 DIV MUL PUSH1 0x20 ADD PUSH1 0x40 MLOAD SWAP1 DUP2 ADD PUSH1 0x40 MSTORE DUP1 SWAP3 SWAP2 SWAP1 DUP2 DUP2 MSTORE PUSH1 0x20 ADD DUP3 DUP1 SLOAD PUSH2 0x576 SWAP1 PUSH2 0x1728 JUMP JUMPDEST DUP1 ISZERO PUSH2 0x5C1 JUMPI DUP1 PUSH1 0x1F LT PUSH2 0x598 JUMPI PUSH2 0x100 DUP1 DUP4 SLOAD DIV MUL DUP4 MSTORE SWAP2 PUSH1 0x20 ADD SWAP2 PUSH2 0x5C1 JUMP JUMPDEST DUP3 ADD SWAP2 SWAP1 PUSH0 MSTORE PUSH1 0x20 PUSH0 KECCAK256 SWAP1 JUMPDEST DUP2 SLOAD DUP2 MSTORE SWAP1 PUSH1 0x1 ADD SWAP1 PUSH1 0x20 ADD DUP1 DUP4 GT PUSH2 0x5A4 JUMPI DUP3 SWAP1 SUB PUSH1 0x1F AND DUP3 ADD SWAP2 JUMPDEST POP POP POP POP POP DUP2 MSTORE PUSH1 0x20 ADD PUSH1 0x3 DUP3 ADD PUSH0 SWAP1 SLOAD SWAP1 PUSH2 0x100 EXP SWAP1 DIV PUSH1 0xFF AND ISZERO ISZERO ISZERO ISZERO DUP2 MSTORE POP POP SWAP1 POP SWAP2 SWAP1 POP JUMP JUMPDEST PUSH32 0xA49807205CE4D355092EF5A8A18F56E8913CF4A201FBE287825B095693C21775 DUP2 JUMP JUMPDEST PUSH1 0x1 PUSH1 0x20 MSTORE DUP1 PUSH0 MSTORE PUSH1 0x40 PUSH0 KECCAK256 PUSH0 SWAP2 POP SWAP1 POP DUP1 PUSH0 ADD SLOAD SWAP1 DUP1 PUSH1 0x1 ADD SLOAD SWAP1 DUP1 PUSH1 0x2 ADD DUP1 SLOAD PUSH2 0x63A SWAP1 PUSH2 0x1728 JUMP JUMPDEST DUP1 PUSH1 0x1F ADD PUSH1 0x20 DUP1 SWAP2 DIV MUL PUSH1 0x20 ADD PUSH1 0x40 MLOAD SWAP1 DUP2 ADD PUSH1 0x40 MSTORE DUP1 SWAP3 SWAP2 SWAP1 DUP2 DUP2 MSTORE PUSH1 0x20 ADD DUP3 DUP1 SLOAD PUSH2 0x666 SWAP1 PUSH2 0x1728 JUMP JUMPDEST DUP1 ISZERO PUSH2 0x6B1 JUMPI DUP1 PUSH1 0x1F LT PUSH2 0x688 JUMPI PUSH2 0x100 DUP1 DUP4 SLOAD DIV MUL DUP4 MSTORE SWAP2 PUSH1 0x20 ADD SWAP2 PUSH2 0x6B1 JUMP JUMPDEST DUP3 ADD SWAP2 SWAP1 PUSH0 MSTORE PUSH1 0x20 PUSH0 KECCAK256 SWAP1 JUMPDEST DUP2 SLOAD DUP2 MSTORE SWAP1 PUSH1 0x1 ADD SWAP1 PUSH1 0x20 ADD DUP1 DUP4 GT PUSH2 0x694 JUMPI DUP3 SWAP1 SUB PUSH1 0x1F AND DUP3 ADD SWAP2 JUMPDEST POP POP POP POP POP SWAP1 DUP1 PUSH1 0x3 ADD PUSH0 SWAP1 SLOAD SWAP1 PUSH2 0x100 EXP SWAP1 DIV PUSH1 0xFF AND SWAP1 POP DUP5 JUMP JUMPDEST PUSH32 0xA49807205CE4D355092EF5A8A18F56E8913CF4A201FBE287825B095693C21775 PUSH2 0x6F7 DUP2 PUSH2 0xB1F JUMP JUMPDEST PUSH1 0x40 MLOAD DUP1 PUSH1 0x80 ADD PUSH1 0x40 MSTORE DUP1 DUP6 DUP2 MSTORE PUSH1 0x20 ADD DUP5 DUP2 MSTORE PUSH1 0x20 ADD DUP4 DUP2 MSTORE PUSH1 0x20 ADD PUSH1 0x1 ISZERO ISZERO DUP2 MSTORE POP PUSH1 0x1 PUSH0 DUP6 DUP2 MSTORE PUSH1 0x20 ADD SWAP1 DUP2 MSTORE PUSH1 0x20 ADD PUSH0 KECCAK256 PUSH0 DUP3 ADD MLOAD DUP2 PUSH0 ADD SSTORE PUSH1 0x20 DUP3 ADD MLOAD DUP2 PUSH1 0x1 ADD SSTORE PUSH1 0x40 DUP3 ADD MLOAD DUP2 PUSH1 0x2 ADD SWAP1 DUP2 PUSH2 0x753 SWAP2 SWAP1 PUSH2 0x18F5 JUMP JUMPDEST POP PUSH1 0x60 DUP3 ADD MLOAD DUP2 PUSH1 0x3 ADD PUSH0 PUSH2 0x100 EXP DUP2 SLOAD DUP2 PUSH1 0xFF MUL NOT AND SWAP1 DUP4 ISZERO ISZERO MUL OR SWAP1 SSTORE POP SWAP1 POP POP PUSH32 0xD8E2CD0473B83461E66F336B5655C077DBD1203E041AD68B1D6F2C4C5EC2593D DUP5 DUP5 DUP5 PUSH1 0x40 MLOAD PUSH2 0x7A9 SWAP4 SWAP3 SWAP2 SWAP1 PUSH2 0x19C4 JUMP JUMPDEST PUSH1 0x40 MLOAD DUP1 SWAP2 SUB SWAP1 LOG1 POP POP POP POP JUMP JUMPDEST PUSH32 0xA49807205CE4D355092EF5A8A18F56E8913CF4A201FBE287825B095693C21775 PUSH2 0x7E1 DUP2 PUSH2 0xB1F JUMP JUMPDEST PUSH1 0x1 PUSH0 DUP4 DUP2 MSTORE PUSH1 0x20 ADD SWAP1 DUP2 MSTORE PUSH1 0x20 ADD PUSH0 KECCAK256 PUSH1 0x3 ADD PUSH0 SWAP1 SLOAD SWAP1 PUSH2 0x100 EXP SWAP1 DIV PUSH1 0xFF AND PUSH2 0x841 JUMPI PUSH1 0x40 MLOAD PUSH32 0x8C379A000000000000000000000000000000000000000000000000000000000 DUP2 MSTORE PUSH1 0x4 ADD PUSH2 0x838 SWAP1 PUSH2 0x16DD JUMP JUMPDEST PUSH1 0x40 MLOAD DUP1 SWAP2 SUB SWAP1 REVERT JUMPDEST PUSH1 0x1 PUSH0 DUP4 DUP2 MSTORE PUSH1 0x20 ADD SWAP1 DUP2 MSTORE PUSH1 0x20 ADD PUSH0 KECCAK256 PUSH0 DUP1 DUP3 ADD PUSH0 SWAP1 SSTORE PUSH1 0x1 DUP3 ADD PUSH0 SWAP1 SSTORE PUSH1 0x2 DUP3 ADD PUSH0 PUSH2 0x86F SWAP2 SWAP1 PUSH2 0xFFB JUMP JUMPDEST PUSH1 0x3 DUP3 ADD PUSH0 PUSH2 0x100 EXP DUP2 SLOAD SWAP1 PUSH1 0xFF MUL NOT AND SWAP1 SSTORE POP POP DUP2 PUSH32 0x5EF6221CC1C069A8C723210C08D526C7CA88540EE8D66470CF01844EFAAE0B94 PUSH1 0x40 MLOAD PUSH1 0x40 MLOAD DUP1 SWAP2 SUB SWAP1 LOG2 POP POP JUMP JUMPDEST PUSH0 DUP1 PUSH0 DUP5 DUP2 MSTORE PUSH1 0x20 ADD SWAP1 DUP2 MSTORE PUSH1 0x20 ADD PUSH0 KECCAK256 PUSH0 ADD PUSH0 DUP4 PUSH20 0xFFFFFFFFFFFFFFFFFFFFFFFFFFFFFFFFFFFFFFFF AND PUSH20 0xFFFFFFFFFFFFFFFFFFFFFFFFFFFFFFFFFFFFFFFF AND DUP2 MSTORE PUSH1 0x20 ADD SWAP1 DUP2 MSTORE PUSH1 0x20 ADD PUSH0 KECCAK256 PUSH0 SWAP1 SLOAD SWAP1 PUSH2 0x100 EXP SWAP1 DIV PUSH1 0xFF AND SWAP1 POP SWAP3 SWAP2 POP POP JUMP JUMPDEST PUSH0 DUP1 SHL PUSH2 0x924 DUP2 PUSH2 0xB1F JUMP JUMPDEST PUSH2 0x94E PUSH32 0xA49807205CE4D355092EF5A8A18F56E8913CF4A201FBE287825B095693C21775 DUP4 PUSH2 0xA95 JUMP JUMPDEST POP POP JUMP JUMPDEST PUSH0 DUP1 SHL DUP2 JUMP JUMPDEST PUSH32 0xA49807205CE4D355092EF5A8A18F56E8913CF4A201FBE287825B095693C21775 PUSH2 0x982 DUP2 PUSH2 0xB1F JUMP JUMPDEST PUSH1 0x1 PUSH0 DUP5 DUP2 MSTORE PUSH1 0x20 ADD SWAP1 DUP2 MSTORE PUSH1 0x20 ADD PUSH0 KECCAK256 PUSH1 0x3 ADD PUSH0 SWAP1 SLOAD SWAP1 PUSH2 0x100 EXP SWAP1 DIV PUSH1 0xFF AND PUSH2 0x9E2 JUMPI PUSH1 0x40 MLOAD PUSH32 0x8C379A000000000000000000000000000000000000000000000000000000000 DUP2 MSTORE PUSH1 0x4 ADD PUSH2 0x9D9 SWAP1 PUSH2 0x16DD JUMP JUMPDEST PUSH1 0x40 MLOAD DUP1 SWAP2 SUB SWAP1 REVERT JUMPDEST PUSH0 PUSH1 0x1 PUSH0 DUP6 DUP2 MSTORE PUSH1 0x20 ADD SWAP1 DUP2 MSTORE PUSH1 0x20 ADD PUSH0 KECCAK256 SWAP1 POP DUP5 DUP2 PUSH0 ADD DUP2 SWAP1 SSTORE POP DUP4 DUP2 PUSH1 0x1 ADD DUP2 SWAP1 SSTORE POP DUP3 DUP2 PUSH1 0x2 ADD SWAP1 DUP2 PUSH2 0xA18 SWAP2 SWAP1 PUSH2 0x18F5 JUMP JUMPDEST POP PUSH32 0x279760C089DCAF505489FFFB102C4BF947FB1847E8A7FEBD514BD92FFE977BC2 DUP6 DUP6 DUP6 PUSH1 0x40 MLOAD PUSH2 0xA4C SWAP4 SWAP3 SWAP2 SWAP1 PUSH2 0x19C4 JUMP JUMPDEST PUSH1 0x40 MLOAD DUP1 SWAP2 SUB SWAP1 LOG1 POP POP POP POP POP JUMP JUMPDEST PUSH0 DUP1 SHL PUSH2 0xA67 DUP2 PUSH2 0xB1F JUMP JUMPDEST PUSH2 0xA91 PUSH32 0xA49807205CE4D355092EF5A8A18F56E8913CF4A201FBE287825B095693C21775 DUP4 PUSH2 0x3FF JUMP JUMPDEST POP POP JUMP JUMPDEST PUSH2 0xA9E DUP3 PUSH2 0x3E3 JUMP JUMPDEST PUSH2 0xAA7 DUP2 PUSH2 0xB1F JUMP JUMPDEST PUSH2 0xAB1 DUP4 DUP4 PUSH2 0xC14 JUMP JUMPDEST POP POP POP JUMP JUMPDEST PUSH0 PUSH32 0x1FFC9A700000000000000000000000000000000000000000000000000000000 PUSH28 0xFFFFFFFFFFFFFFFFFFFFFFFFFFFFFFFFFFFFFFFFFFFFFFFFFFFFFFFF NOT AND DUP3 PUSH28 0xFFFFFFFFFFFFFFFFFFFFFFFFFFFFFFFFFFFFFFFFFFFFFFFFFFFFFFFF NOT AND EQ SWAP1 POP SWAP2 SWAP1 POP JUMP JUMPDEST PUSH2 0xB30 DUP2 PUSH2 0xB2B PUSH2 0xC0D JUMP JUMPDEST PUSH2 0xCEE JUMP JUMPDEST POP JUMP JUMPDEST PUSH2 0xB3D DUP3 DUP3 PUSH2 0x8B5 JUMP JUMPDEST PUSH2 0xC09 JUMPI PUSH1 0x1 PUSH0 DUP1 DUP5 DUP2 MSTORE PUSH1 0x20 ADD SWAP1 DUP2 MSTORE PUSH1 0x20 ADD PUSH0 KECCAK256 PUSH0 ADD PUSH0 DUP4 PUSH20 0xFFFFFFFFFFFFFFFFFFFFFFFFFFFFFFFFFFFFFFFF AND PUSH20 0xFFFFFFFFFFFFFFFFFFFFFFFFFFFFFFFFFFFFFFFF AND DUP2 MSTORE PUSH1 0x20 ADD SWAP1 DUP2 MSTORE PUSH1 0x20 ADD PUSH0 KECCAK256 PUSH0 PUSH2 0x100 EXP DUP2 SLOAD DUP2 PUSH1 0xFF MUL NOT AND SWAP1 DUP4 ISZERO ISZERO MUL OR SWAP1 SSTORE POP PUSH2 0xBAE PUSH2 0xC0D JUMP JUMPDEST PUSH20 0xFFFFFFFFFFFFFFFFFFFFFFFFFFFFFFFFFFFFFFFF AND DUP2 PUSH20 0xFFFFFFFFFFFFFFFFFFFFFFFFFFFFFFFFFFFFFFFF AND DUP4 PUSH32 0x2F8788117E7EFF1D82E926EC794901D17C78024A50270940304540A733656F0D PUSH1 0x40 MLOAD PUSH1 0x40 MLOAD DUP1 SWAP2 SUB SWAP1 LOG4 JUMPDEST POP POP JUMP JUMPDEST PUSH0 CALLER SWAP1 POP SWAP1 JUMP JUMPDEST PUSH2 0xC1E DUP3 DUP3 PUSH2 0x8B5 JUMP JUMPDEST ISZERO PUSH2 0xCEA JUMPI PUSH0 DUP1 PUSH0 DUP5 DUP2 MSTORE PUSH1 0x20 ADD SWAP1 DUP2 MSTORE PUSH1 0x20 ADD PUSH0 KECCAK256 PUSH0 ADD PUSH0 DUP4 PUSH20 0xFFFFFFFFFFFFFFFFFFFFFFFFFFFFFFFFFFFFFFFF AND PUSH20 0xFFFFFFFFFFFFFFFFFFFFFFFFFFFFFFFFFFFFFFFF AND DUP2 MSTORE PUSH1 0x20 ADD SWAP1 DUP2 MSTORE PUSH1 0x20 ADD PUSH0 KECCAK256 PUSH0 PUSH2 0x100 EXP DUP2 SLOAD DUP2 PUSH1 0xFF MUL NOT AND SWAP1 DUP4 ISZERO ISZERO MUL OR SWAP1 SSTORE POP PUSH2 0xC8F PUSH2 0xC0D JUMP JUMPDEST PUSH20 0xFFFFFFFFFFFFFFFFFFFFFFFFFFFFFFFFFFFFFFFF AND DUP2 PUSH20 0xFFFFFFFFFFFFFFFFFFFFFFFFFFFFFFFFFFFFFFFF AND DUP4 PUSH32 0xF6391F5C32D9C69D2A47EA670B442974B53935D1EDC7FD64EB21E047A839171B PUSH1 0x40 MLOAD PUSH1 0x40 MLOAD DUP1 SWAP2 SUB SWAP1 LOG4 JUMPDEST POP POP JUMP JUMPDEST PUSH2 0xCF8 DUP3 DUP3 PUSH2 0x8B5 JUMP JUMPDEST PUSH2 0xD6E JUMPI PUSH2 0xD05 DUP2 PUSH2 0xD72 JUMP JUMPDEST PUSH2 0xD12 DUP4 PUSH0 SHR PUSH1 0x20 PUSH2 0xD9F JUMP JUMPDEST PUSH1 0x40 MLOAD PUSH1 0x20 ADD PUSH2 0xD23 SWAP3 SWAP2 SWAP1 PUSH2 0x1ACE JUMP JUMPDEST PUSH1 0x40 MLOAD PUSH1 0x20 DUP2 DUP4 SUB SUB DUP2 MSTORE SWAP1 PUSH1 0x40 MSTORE PUSH1 0x40 MLOAD PUSH32 0x8C379A000000000000000000000000000000000000000000000000000000000 DUP2 MSTORE PUSH1 0x4 ADD PUSH2 0xD65 SWAP2 SWAP1 PUSH2 0x1B07 JUMP JUMPDEST PUSH1 0x40 MLOAD DUP1 SWAP2 SUB SWAP1 REVERT JUMPDEST POP POP JUMP JUMPDEST PUSH1 0x60 PUSH2 0xD98 DUP3 PUSH20 0xFFFFFFFFFFFFFFFFFFFFFFFFFFFFFFFFFFFFFFFF AND PUSH1 0x14 PUSH1 0xFF AND PUSH2 0xD9F JUMP JUMPDEST SWAP1 POP SWAP2 SWAP1 POP JUMP JUMPDEST PUSH1 0x60 PUSH0 PUSH1 0x2 DUP4 PUSH1 0x2 PUSH2 0xDB1 SWAP2 SWAP1 PUSH2 0x1B54 JUMP JUMPDEST PUSH2 0xDBB SWAP2 SWAP1 PUSH2 0x1B95 JUMP JUMPDEST PUSH8 0xFFFFFFFFFFFFFFFF DUP2 GT ISZERO PUSH2 0xDD4 JUMPI PUSH2 0xDD3 PUSH2 0x144A JUMP JUMPDEST JUMPDEST PUSH1 0x40 MLOAD SWAP1 DUP1 DUP3 MSTORE DUP1 PUSH1 0x1F ADD PUSH1 0x1F NOT AND PUSH1 0x20 ADD DUP3 ADD PUSH1 0x40 MSTORE DUP1 ISZERO PUSH2 0xE06 JUMPI DUP2 PUSH1 0x20 ADD PUSH1 0x1 DUP3 MUL DUP1 CALLDATASIZE DUP4 CALLDATACOPY DUP1 DUP3 ADD SWAP2 POP POP SWAP1 POP JUMPDEST POP SWAP1 POP PUSH32 0x3000000000000000000000000000000000000000000000000000000000000000 DUP2 PUSH0 DUP2 MLOAD DUP2 LT PUSH2 0xE3D JUMPI PUSH2 0xE3C PUSH2 0x1BC8 JUMP JUMPDEST JUMPDEST PUSH1 0x20 ADD ADD SWAP1 PUSH31 0xFFFFFFFFFFFFFFFFFFFFFFFFFFFFFFFFFFFFFFFFFFFFFFFFFFFFFFFFFFFFFF NOT AND SWAP1 DUP2 PUSH0 BYTE SWAP1 MSTORE8 POP PUSH32 0x7800000000000000000000000000000000000000000000000000000000000000 DUP2 PUSH1 0x1 DUP2 MLOAD DUP2 LT PUSH2 0xEA0 JUMPI PUSH2 0xE9F PUSH2 0x1BC8 JUMP JUMPDEST JUMPDEST PUSH1 0x20 ADD ADD SWAP1 PUSH31 0xFFFFFFFFFFFFFFFFFFFFFFFFFFFFFFFFFFFFFFFFFFFFFFFFFFFFFFFFFFFFFF NOT AND SWAP1 DUP2 PUSH0 BYTE SWAP1 MSTORE8 POP PUSH0 PUSH1 0x1 DUP5 PUSH1 0x2 PUSH2 0xEDE SWAP2 SWAP1 PUSH2 0x1B54 JUMP JUMPDEST PUSH2 0xEE8 SWAP2 SWAP1 PUSH2 0x1B95 JUMP JUMPDEST SWAP1 POP JUMPDEST PUSH1 0x1 DUP2 GT ISZERO PUSH2 0xF87 JUMPI PUSH32 0x3031323334353637383961626364656600000000000000000000000000000000 PUSH1 0xF DUP7 AND PUSH1 0x10 DUP2 LT PUSH2 0xF2A JUMPI PUSH2 0xF29 PUSH2 0x1BC8 JUMP JUMPDEST JUMPDEST BYTE PUSH1 0xF8 SHL DUP3 DUP3 DUP2 MLOAD DUP2 LT PUSH2 0xF41 JUMPI PUSH2 0xF40 PUSH2 0x1BC8 JUMP JUMPDEST JUMPDEST PUSH1 0x20 ADD ADD SWAP1 PUSH31 0xFFFFFFFFFFFFFFFFFFFFFFFFFFFFFFFFFFFFFFFFFFFFFFFFFFFFFFFFFFFFFF NOT AND SWAP1 DUP2 PUSH0 BYTE SWAP1 MSTORE8 POP PUSH1 0x4 DUP6 SWAP1 SHR SWAP5 POP DUP1 PUSH2 0xF80 SWAP1 PUSH2 0x1BF5 JUMP JUMPDEST SWAP1 POP PUSH2 0xEEB JUMP JUMPDEST POP PUSH0 DUP5 EQ PUSH2 0xFCA JUMPI PUSH1 0x40 MLOAD PUSH32 0x8C379A000000000000000000000000000000000000000000000000000000000 DUP2 MSTORE PUSH1 0x4 ADD PUSH2 0xFC1 SWAP1 PUSH2 0x1C66 JUMP JUMPDEST PUSH1 0x40 MLOAD DUP1 SWAP2 SUB SWAP1 REVERT JUMPDEST DUP1 SWAP2 POP POP SWAP3 SWAP2 POP POP JUMP JUMPDEST PUSH1 0x40 MLOAD DUP1 PUSH1 0x80 ADD PUSH1 0x40 MSTORE DUP1 PUSH0 DUP2 MSTORE PUSH1 0x20 ADD PUSH0 DUP2 MSTORE PUSH1 0x20 ADD PUSH1 0x60 DUP2 MSTORE PUSH1 0x20 ADD PUSH0 ISZERO ISZERO DUP2 MSTORE POP SWAP1 JUMP JUMPDEST POP DUP1 SLOAD PUSH2 0x1007 SWAP1 PUSH2 0x1728 JUMP JUMPDEST PUSH0 DUP3 SSTORE DUP1 PUSH1 0x1F LT PUSH2 0x1018 JUMPI POP PUSH2 0x1035 JUMP JUMPDEST PUSH1 0x1F ADD PUSH1 0x20 SWAP1 DIV SWAP1 PUSH0 MSTORE PUSH1 0x20 PUSH0 KECCAK256 SWAP1 DUP2 ADD SWAP1 PUSH2 0x1034 SWAP2 SWAP1 PUSH2 0x1038 JUMP JUMPDEST JUMPDEST POP JUMP JUMPDEST JUMPDEST DUP1 DUP3 GT ISZERO PUSH2 0x104F JUMPI PUSH0 DUP2 PUSH0 SWAP1 SSTORE POP PUSH1 0x1 ADD PUSH2 0x1039 JUMP JUMPDEST POP SWAP1 JUMP JUMPDEST PUSH0 PUSH1 0x40 MLOAD SWAP1 POP SWAP1 JUMP JUMPDEST PUSH0 DUP1 REVERT JUMPDEST PUSH0 DUP1 REVERT JUMPDEST PUSH0 PUSH32 0xFFFFFFFF00000000000000000000000000000000000000000000000000000000 DUP3 AND SWAP1 POP SWAP2 SWAP1 POP JUMP JUMPDEST PUSH2 0x1098 DUP2 PUSH2 0x1064 JUMP JUMPDEST DUP2 EQ PUSH2 0x10A2 JUMPI PUSH0 DUP1 REVERT JUMPDEST POP JUMP JUMPDEST PUSH0 DUP2 CALLDATALOAD SWAP1 POP PUSH2 0x10B3 DUP2 PUSH2 0x108F JUMP JUMPDEST SWAP3 SWAP2 POP POP JUMP JUMPDEST PUSH0 PUSH1 0x20 DUP3 DUP5 SUB SLT ISZERO PUSH2 0x10CE JUMPI PUSH2 0x10CD PUSH2 0x105C JUMP JUMPDEST JUMPDEST PUSH0 PUSH2 0x10DB DUP5 DUP3 DUP6 ADD PUSH2 0x10A5 JUMP JUMPDEST SWAP2 POP POP SWAP3 SWAP2 POP POP JUMP JUMPDEST PUSH0 DUP2 ISZERO ISZERO SWAP1 POP SWAP2 SWAP1 POP JUMP JUMPDEST PUSH2 0x10F8 DUP2 PUSH2 0x10E4 JUMP JUMPDEST DUP3 MSTORE POP POP JUMP JUMPDEST PUSH0 PUSH1 0x20 DUP3 ADD SWAP1 POP PUSH2 0x1111 PUSH0 DUP4 ADD DUP5 PUSH2 0x10EF JUMP JUMPDEST SWAP3 SWAP2 POP POP JUMP JUMPDEST PUSH0 DUP2 SWAP1 POP SWAP2 SWAP1 POP JUMP JUMPDEST PUSH2 0x1129 DUP2 PUSH2 0x1117 JUMP JUMPDEST DUP2 EQ PUSH2 0x1133 JUMPI PUSH0 DUP1 REVERT JUMPDEST POP JUMP JUMPDEST PUSH0 DUP2 CALLDATALOAD SWAP1 POP PUSH2 0x1144 DUP2 PUSH2 0x1120 JUMP JUMPDEST SWAP3 SWAP2 POP POP JUMP JUMPDEST PUSH0 PUSH1 0x20 DUP3 DUP5 SUB SLT ISZERO PUSH2 0x115F JUMPI PUSH2 0x115E PUSH2 0x105C JUMP JUMPDEST JUMPDEST PUSH0 PUSH2 0x116C DUP5 DUP3 DUP6 ADD PUSH2 0x1136 JUMP JUMPDEST SWAP2 POP POP SWAP3 SWAP2 POP POP JUMP JUMPDEST PUSH0 DUP2 SWAP1 POP SWAP2 SWAP1 POP JUMP JUMPDEST PUSH2 0x1187 DUP2 PUSH2 0x1175 JUMP JUMPDEST DUP2 EQ PUSH2 0x1191 JUMPI PUSH0 DUP1 REVERT JUMPDEST POP JUMP JUMPDEST PUSH0 DUP2 CALLDATALOAD SWAP1 POP PUSH2 0x11A2 DUP2 PUSH2 0x117E JUMP JUMPDEST SWAP3 SWAP2 POP POP JUMP JUMPDEST PUSH0 PUSH1 0x20 DUP3 DUP5 SUB SLT ISZERO PUSH2 0x11BD JUMPI PUSH2 0x11BC PUSH2 0x105C JUMP JUMPDEST JUMPDEST PUSH0 PUSH2 0x11CA DUP5 DUP3 DUP6 ADD PUSH2 0x1194 JUMP JUMPDEST SWAP2 POP POP SWAP3 SWAP2 POP POP JUMP JUMPDEST PUSH2 0x11DC DUP2 PUSH2 0x1175 JUMP JUMPDEST DUP3 MSTORE POP POP JUMP JUMPDEST PUSH0 PUSH1 0x20 DUP3 ADD SWAP1 POP PUSH2 0x11F5 PUSH0 DUP4 ADD DUP5 PUSH2 0x11D3 JUMP JUMPDEST SWAP3 SWAP2 POP POP JUMP JUMPDEST PUSH0 PUSH20 0xFFFFFFFFFFFFFFFFFFFFFFFFFFFFFFFFFFFFFFFF DUP3 AND SWAP1 POP SWAP2 SWAP1 POP JUMP JUMPDEST PUSH0 PUSH2 0x1224 DUP3 PUSH2 0x11FB JUMP JUMPDEST SWAP1 POP SWAP2 SWAP1 POP JUMP JUMPDEST PUSH2 0x1234 DUP2 PUSH2 0x121A JUMP JUMPDEST DUP2 EQ PUSH2 0x123E JUMPI PUSH0 DUP1 REVERT JUMPDEST POP JUMP JUMPDEST PUSH0 DUP2 CALLDATALOAD SWAP1 POP PUSH2 0x124F DUP2 PUSH2 0x122B JUMP JUMPDEST SWAP3 SWAP2 POP POP JUMP JUMPDEST PUSH0 DUP1 PUSH1 0x40 DUP4 DUP6 SUB SLT ISZERO PUSH2 0x126B JUMPI PUSH2 0x126A PUSH2 0x105C JUMP JUMPDEST JUMPDEST PUSH0 PUSH2 0x1278 DUP6 DUP3 DUP7 ADD PUSH2 0x1194 JUMP JUMPDEST SWAP3 POP POP PUSH1 0x20 PUSH2 0x1289 DUP6 DUP3 DUP7 ADD PUSH2 0x1241 JUMP JUMPDEST SWAP2 POP POP SWAP3 POP SWAP3 SWAP1 POP JUMP JUMPDEST PUSH2 0x129C DUP2 PUSH2 0x1117 JUMP JUMPDEST DUP3 MSTORE POP POP JUMP JUMPDEST PUSH0 DUP2 MLOAD SWAP1 POP SWAP2 SWAP1 POP JUMP JUMPDEST PUSH0 DUP3 DUP3 MSTORE PUSH1 0x20 DUP3 ADD SWAP1 POP SWAP3 SWAP2 POP POP JUMP JUMPDEST DUP3 DUP2 DUP4 MCOPY PUSH0 DUP4 DUP4 ADD MSTORE POP POP POP JUMP JUMPDEST PUSH0 PUSH1 0x1F NOT PUSH1 0x1F DUP4 ADD AND SWAP1 POP SWAP2 SWAP1 POP JUMP JUMPDEST PUSH0 PUSH2 0x12E4 DUP3 PUSH2 0x12A2 JUMP JUMPDEST PUSH2 0x12EE DUP2 DUP6 PUSH2 0x12AC JUMP JUMPDEST SWAP4 POP PUSH2 0x12FE DUP2 DUP6 PUSH1 0x20 DUP7 ADD PUSH2 0x12BC JUMP JUMPDEST PUSH2 0x1307 DUP2 PUSH2 0x12CA JUMP JUMPDEST DUP5 ADD SWAP2 POP POP SWAP3 SWAP2 POP POP JUMP JUMPDEST PUSH2 0x131B DUP2 PUSH2 0x10E4 JUMP JUMPDEST DUP3 MSTORE POP POP JUMP JUMPDEST PUSH0 PUSH1 0x80 DUP4 ADD PUSH0 DUP4 ADD MLOAD PUSH2 0x1336 PUSH0 DUP7 ADD DUP3 PUSH2 0x1293 JUMP JUMPDEST POP PUSH1 0x20 DUP4 ADD MLOAD PUSH2 0x1349 PUSH1 0x20 DUP7 ADD DUP3 PUSH2 0x1293 JUMP JUMPDEST POP PUSH1 0x40 DUP4 ADD MLOAD DUP5 DUP3 SUB PUSH1 0x40 DUP7 ADD MSTORE PUSH2 0x1361 DUP3 DUP3 PUSH2 0x12DA JUMP JUMPDEST SWAP2 POP POP PUSH1 0x60 DUP4 ADD MLOAD PUSH2 0x1376 PUSH1 0x60 DUP7 ADD DUP3 PUSH2 0x1312 JUMP JUMPDEST POP DUP1 SWAP2 POP POP SWAP3 SWAP2 POP POP JUMP JUMPDEST PUSH0 PUSH1 0x20 DUP3 ADD SWAP1 POP DUP2 DUP2 SUB PUSH0 DUP4 ADD MSTORE PUSH2 0x1399 DUP2 DUP5 PUSH2 0x1321 JUMP JUMPDEST SWAP1 POP SWAP3 SWAP2 POP POP JUMP JUMPDEST PUSH2 0x13AA DUP2 PUSH2 0x1117 JUMP JUMPDEST DUP3 MSTORE POP POP JUMP JUMPDEST PUSH0 DUP3 DUP3 MSTORE PUSH1 0x20 DUP3 ADD SWAP1 POP SWAP3 SWAP2 POP POP JUMP JUMPDEST PUSH0 PUSH2 0x13CA DUP3 PUSH2 0x12A2 JUMP JUMPDEST PUSH2 0x13D4 DUP2 DUP6 PUSH2 0x13B0 JUMP JUMPDEST SWAP4 POP PUSH2 0x13E4 DUP2 DUP6 PUSH1 0x20 DUP7 ADD PUSH2 0x12BC JUMP JUMPDEST PUSH2 0x13ED DUP2 PUSH2 0x12CA JUMP JUMPDEST DUP5 ADD SWAP2 POP POP SWAP3 SWAP2 POP POP JUMP JUMPDEST PUSH0 PUSH1 0x80 DUP3 ADD SWAP1 POP PUSH2 0x140B PUSH0 DUP4 ADD DUP8 PUSH2 0x13A1 JUMP JUMPDEST PUSH2 0x1418 PUSH1 0x20 DUP4 ADD DUP7 PUSH2 0x13A1 JUMP JUMPDEST DUP2 DUP2 SUB PUSH1 0x40 DUP4 ADD MSTORE PUSH2 0x142A DUP2 DUP6 PUSH2 0x13C0 JUMP JUMPDEST SWAP1 POP PUSH2 0x1439 PUSH1 0x60 DUP4 ADD DUP5 PUSH2 0x10EF JUMP JUMPDEST SWAP6 SWAP5 POP POP POP POP POP JUMP JUMPDEST PUSH0 DUP1 REVERT JUMPDEST PUSH0 DUP1 REVERT JUMPDEST PUSH32 0x4E487B7100000000000000000000000000000000000000000000000000000000 PUSH0 MSTORE PUSH1 0x41 PUSH1 0x4 MSTORE PUSH1 0x24 PUSH0 REVERT JUMPDEST PUSH2 0x1480 DUP3 PUSH2 0x12CA JUMP JUMPDEST DUP2 ADD DUP2 DUP2 LT PUSH8 0xFFFFFFFFFFFFFFFF DUP3 GT OR ISZERO PUSH2 0x149F JUMPI PUSH2 0x149E PUSH2 0x144A JUMP JUMPDEST JUMPDEST DUP1 PUSH1 0x40 MSTORE POP POP POP JUMP JUMPDEST PUSH0 PUSH2 0x14B1 PUSH2 0x1053 JUMP JUMPDEST SWAP1 POP PUSH2 0x14BD DUP3 DUP3 PUSH2 0x1477 JUMP JUMPDEST SWAP2 SWAP1 POP JUMP JUMPDEST PUSH0 PUSH8 0xFFFFFFFFFFFFFFFF DUP3 GT ISZERO PUSH2 0x14DC JUMPI PUSH2 0x14DB PUSH2 0x144A JUMP JUMPDEST JUMPDEST PUSH2 0x14E5 DUP3 PUSH2 0x12CA JUMP JUMPDEST SWAP1 POP PUSH1 0x20 DUP2 ADD SWAP1 POP SWAP2 SWAP1 POP JUMP JUMPDEST DUP3 DUP2 DUP4 CALLDATACOPY PUSH0 DUP4 DUP4 ADD MSTORE POP POP POP JUMP JUMPDEST PUSH0 PUSH2 0x1512 PUSH2 0x150D DUP5 PUSH2 0x14C2 JUMP JUMPDEST PUSH2 0x14A8 JUMP JUMPDEST SWAP1 POP DUP3 DUP2 MSTORE PUSH1 0x20 DUP2 ADD DUP5 DUP5 DUP5 ADD GT ISZERO PUSH2 0x152E JUMPI PUSH2 0x152D PUSH2 0x1446 JUMP JUMPDEST JUMPDEST PUSH2 0x1539 DUP5 DUP3 DUP6 PUSH2 0x14F2 JUMP JUMPDEST POP SWAP4 SWAP3 POP POP POP JUMP JUMPDEST PUSH0 DUP3 PUSH1 0x1F DUP4 ADD SLT PUSH2 0x1555 JUMPI PUSH2 0x1554 PUSH2 0x1442 JUMP JUMPDEST JUMPDEST DUP2 CALLDATALOAD PUSH2 0x1565 DUP5 DUP3 PUSH1 0x20 DUP7 ADD PUSH2 0x1500 JUMP JUMPDEST SWAP2 POP POP SWAP3 SWAP2 POP POP JUMP JUMPDEST PUSH0 DUP1 PUSH0 PUSH1 0x60 DUP5 DUP7 SUB SLT ISZERO PUSH2 0x1585 JUMPI PUSH2 0x1584 PUSH2 0x105C JUMP JUMPDEST JUMPDEST PUSH0 PUSH2 0x1592 DUP7 DUP3 DUP8 ADD PUSH2 0x1136 JUMP JUMPDEST SWAP4 POP POP PUSH1 0x20 PUSH2 0x15A3 DUP7 DUP3 DUP8 ADD PUSH2 0x1136 JUMP JUMPDEST SWAP3 POP POP PUSH1 0x40 DUP5 ADD CALLDATALOAD PUSH8 0xFFFFFFFFFFFFFFFF DUP2 GT ISZERO PUSH2 0x15C4 JUMPI PUSH2 0x15C3 PUSH2 0x1060 JUMP JUMPDEST JUMPDEST PUSH2 0x15D0 DUP7 DUP3 DUP8 ADD PUSH2 0x1541 JUMP JUMPDEST SWAP2 POP POP SWAP3 POP SWAP3 POP SWAP3 JUMP JUMPDEST PUSH0 PUSH1 0x20 DUP3 DUP5 SUB SLT ISZERO PUSH2 0x15EF JUMPI PUSH2 0x15EE PUSH2 0x105C JUMP JUMPDEST JUMPDEST PUSH0 PUSH2 0x15FC DUP5 DUP3 DUP6 ADD PUSH2 0x1241 JUMP JUMPDEST SWAP2 POP POP SWAP3 SWAP2 POP POP JUMP JUMPDEST PUSH32 0x416363657373436F6E74726F6C3A2063616E206F6E6C792072656E6F756E6365 PUSH0 DUP3 ADD MSTORE PUSH32 0x20726F6C657320666F722073656C660000000000000000000000000000000000 PUSH1 0x20 DUP3 ADD MSTORE POP JUMP JUMPDEST PUSH0 PUSH2 0x165F PUSH1 0x2F DUP4 PUSH2 0x13B0 JUMP JUMPDEST SWAP2 POP PUSH2 0x166A DUP3 PUSH2 0x1605 JUMP JUMPDEST PUSH1 0x40 DUP3 ADD SWAP1 POP SWAP2 SWAP1 POP JUMP JUMPDEST PUSH0 PUSH1 0x20 DUP3 ADD SWAP1 POP DUP2 DUP2 SUB PUSH0 DUP4 ADD MSTORE PUSH2 0x168C DUP2 PUSH2 0x1653 JUMP JUMPDEST SWAP1 POP SWAP2 SWAP1 POP JUMP JUMPDEST PUSH32 0x47616D6520646F6573206E6F7420657869737400000000000000000000000000 PUSH0 DUP3 ADD MSTORE POP JUMP JUMPDEST PUSH0 PUSH2 0x16C7 PUSH1 0x13 DUP4 PUSH2 0x13B0 JUMP JUMPDEST SWAP2 POP PUSH2 0x16D2 DUP3 PUSH2 0x1693 JUMP JUMPDEST PUSH1 0x20 DUP3 ADD SWAP1 POP SWAP2 SWAP1 POP JUMP JUMPDEST PUSH0 PUSH1 0x20 DUP3 ADD SWAP1 POP DUP2 DUP2 SUB PUSH0 DUP4 ADD MSTORE PUSH2 0x16F4 DUP2 PUSH2 0x16BB JUMP JUMPDEST SWAP1 POP SWAP2 SWAP1 POP JUMP JUMPDEST PUSH32 0x4E487B7100000000000000000000000000000000000000000000000000000000 PUSH0 MSTORE PUSH1 0x22 PUSH1 0x4 MSTORE PUSH1 0x24 PUSH0 REVERT JUMPDEST PUSH0 PUSH1 0x2 DUP3 DIV SWAP1 POP PUSH1 0x1 DUP3 AND DUP1 PUSH2 0x173F JUMPI PUSH1 0x7F DUP3 AND SWAP2 POP JUMPDEST PUSH1 0x20 DUP3 LT DUP2 SUB PUSH2 0x1752 JUMPI PUSH2 0x1751 PUSH2 0x16FB JUMP JUMPDEST JUMPDEST POP SWAP2 SWAP1 POP JUMP JUMPDEST PUSH0 DUP2 SWAP1 POP DUP2 PUSH0 MSTORE PUSH1 0x20 PUSH0 KECCAK256 SWAP1 POP SWAP2 SWAP1 POP JUMP JUMPDEST PUSH0 PUSH1 0x20 PUSH1 0x1F DUP4 ADD DIV SWAP1 POP SWAP2 SWAP1 POP JUMP JUMPDEST PUSH0 DUP3 DUP3 SHL SWAP1 POP SWAP3 SWAP2 POP POP JUMP JUMPDEST PUSH0 PUSH1 0x8 DUP4 MUL PUSH2 0x17B4 PUSH32 0xFFFFFFFFFFFFFFFFFFFFFFFFFFFFFFFFFFFFFFFFFFFFFFFFFFFFFFFFFFFFFFFF DUP3 PUSH2 0x1779 JUMP JUMPDEST PUSH2 0x17BE DUP7 DUP4 PUSH2 0x1779 JUMP JUMPDEST SWAP6 POP DUP1 NOT DUP5 AND SWAP4 POP DUP1 DUP7 AND DUP5 OR SWAP3 POP POP POP SWAP4 SWAP3 POP POP POP JUMP JUMPDEST PUSH0 DUP2 SWAP1 POP SWAP2 SWAP1 POP JUMP JUMPDEST PUSH0 PUSH2 0x17F9 PUSH2 0x17F4 PUSH2 0x17EF DUP5 PUSH2 0x1117 JUMP JUMPDEST PUSH2 0x17D6 JUMP JUMPDEST PUSH2 0x1117 JUMP JUMPDEST SWAP1 POP SWAP2 SWAP1 POP JUMP JUMPDEST PUSH0 DUP2 SWAP1 POP SWAP2 SWAP1 POP JUMP JUMPDEST PUSH2 0x1812 DUP4 PUSH2 0x17DF JUMP JUMPDEST PUSH2 0x1826 PUSH2 0x181E DUP3 PUSH2 0x1800 JUMP JUMPDEST DUP5 DUP5 SLOAD PUSH2 0x1785 JUMP JUMPDEST DUP3 SSTORE POP POP POP POP JUMP JUMPDEST PUSH0 SWAP1 JUMP JUMPDEST PUSH2 0x183A PUSH2 0x182E JUMP JUMPDEST PUSH2 0x1845 DUP2 DUP5 DUP5 PUSH2 0x1809 JUMP JUMPDEST POP POP POP JUMP JUMPDEST JUMPDEST DUP2 DUP2 LT ISZERO PUSH2 0x1868 JUMPI PUSH2 0x185D PUSH0 DUP3 PUSH2 0x1832 JUMP JUMPDEST PUSH1 0x1 DUP2 ADD SWAP1 POP PUSH2 0x184B JUMP JUMPDEST POP POP JUMP JUMPDEST PUSH1 0x1F DUP3 GT ISZERO PUSH2 0x18AD JUMPI PUSH2 0x187E DUP2 PUSH2 0x1758 JUMP JUMPDEST PUSH2 0x1887 DUP5 PUSH2 0x176A JUMP JUMPDEST DUP2 ADD PUSH1 0x20 DUP6 LT ISZERO PUSH2 0x1896 JUMPI DUP2 SWAP1 POP JUMPDEST PUSH2 0x18AA PUSH2 0x18A2 DUP6 PUSH2 0x176A JUMP JUMPDEST DUP4 ADD DUP3 PUSH2 0x184A JUMP JUMPDEST POP POP JUMPDEST POP POP POP JUMP JUMPDEST PUSH0 DUP3 DUP3 SHR SWAP1 POP SWAP3 SWAP2 POP POP JUMP JUMPDEST PUSH0 PUSH2 0x18CD PUSH0 NOT DUP5 PUSH1 0x8 MUL PUSH2 0x18B2 JUMP JUMPDEST NOT DUP1 DUP4 AND SWAP2 POP POP SWAP3 SWAP2 POP POP JUMP JUMPDEST PUSH0 PUSH2 0x18E5 DUP4 DUP4 PUSH2 0x18BE JUMP JUMPDEST SWAP2 POP DUP3 PUSH1 0x2 MUL DUP3 OR SWAP1 POP SWAP3 SWAP2 POP POP JUMP JUMPDEST PUSH2 0x18FE DUP3 PUSH2 0x12A2 JUMP JUMPDEST PUSH8 0xFFFFFFFFFFFFFFFF DUP2 GT ISZERO PUSH2 0x1917 JUMPI PUSH2 0x1916 PUSH2 0x144A JUMP JUMPDEST JUMPDEST PUSH2 0x1921 DUP3 SLOAD PUSH2 0x1728 JUMP JUMPDEST PUSH2 0x192C DUP3 DUP3 DUP6 PUSH2 0x186C JUMP JUMPDEST PUSH0 PUSH1 0x20 SWAP1 POP PUSH1 0x1F DUP4 GT PUSH1 0x1 DUP2 EQ PUSH2 0x195D JUMPI PUSH0 DUP5 ISZERO PUSH2 0x194B JUMPI DUP3 DUP8 ADD MLOAD SWAP1 POP JUMPDEST PUSH2 0x1955 DUP6 DUP3 PUSH2 0x18DA JUMP JUMPDEST DUP7 SSTORE POP PUSH2 0x19BC JUMP JUMPDEST PUSH1 0x1F NOT DUP5 AND PUSH2 0x196B DUP7 PUSH2 0x1758 JUMP JUMPDEST PUSH0 JUMPDEST DUP3 DUP2 LT ISZERO PUSH2 0x1992 JUMPI DUP5 DUP10 ADD MLOAD DUP3 SSTORE PUSH1 0x1 DUP3 ADD SWAP2 POP PUSH1 0x20 DUP6 ADD SWAP5 POP PUSH1 0x20 DUP2 ADD SWAP1 POP PUSH2 0x196D JUMP JUMPDEST DUP7 DUP4 LT ISZERO PUSH2 0x19AF JUMPI DUP5 DUP10 ADD MLOAD PUSH2 0x19AB PUSH1 0x1F DUP10 AND DUP3 PUSH2 0x18BE JUMP JUMPDEST DUP4 SSTORE POP JUMPDEST PUSH1 0x1 PUSH1 0x2 DUP9 MUL ADD DUP9 SSTORE POP POP POP JUMPDEST POP POP POP POP POP POP JUMP JUMPDEST PUSH0 PUSH1 0x60 DUP3 ADD SWAP1 POP PUSH2 0x19D7 PUSH0 DUP4 ADD DUP7 PUSH2 0x13A1 JUMP JUMPDEST PUSH2 0x19E4 PUSH1 0x20 DUP4 ADD DUP6 PUSH2 0x13A1 JUMP JUMPDEST DUP2 DUP2 SUB PUSH1 0x40 DUP4 ADD MSTORE PUSH2 0x19F6 DUP2 DUP5 PUSH2 0x13C0 JUMP JUMPDEST SWAP1 POP SWAP5 SWAP4 POP POP POP POP JUMP JUMPDEST PUSH0 DUP2 SWAP1 POP SWAP3 SWAP2 POP POP JUMP JUMPDEST PUSH32 0x416363657373436F6E74726F6C3A206163636F756E7420000000000000000000 PUSH0 DUP3 ADD MSTORE POP JUMP JUMPDEST PUSH0 PUSH2 0x1A3E PUSH1 0x17 DUP4 PUSH2 0x1A00 JUMP JUMPDEST SWAP2 POP PUSH2 0x1A49 DUP3 PUSH2 0x1A0A JUMP JUMPDEST PUSH1 0x17 DUP3 ADD SWAP1 POP SWAP2 SWAP1 POP JUMP JUMPDEST PUSH0 PUSH2 0x1A5E DUP3 PUSH2 0x12A2 JUMP JUMPDEST PUSH2 0x1A68 DUP2 DUP6 PUSH2 0x1A00 JUMP JUMPDEST SWAP4 POP PUSH2 0x1A78 DUP2 DUP6 PUSH1 0x20 DUP7 ADD PUSH2 0x12BC JUMP JUMPDEST DUP1 DUP5 ADD SWAP2 POP POP SWAP3 SWAP2 POP POP JUMP JUMPDEST PUSH32 0x206973206D697373696E6720726F6C6520000000000000000000000000000000 PUSH0 DUP3 ADD MSTORE POP JUMP JUMPDEST PUSH0 PUSH2 0x1AB8 PUSH1 0x11 DUP4 PUSH2 0x1A00 JUMP JUMPDEST SWAP2 POP PUSH2 0x1AC3 DUP3 PUSH2 0x1A84 JUMP JUMPDEST PUSH1 0x11 DUP3 ADD SWAP1 POP SWAP2 SWAP1 POP JUMP JUMPDEST PUSH0 PUSH2 0x1AD8 DUP3 PUSH2 0x1A32 JUMP JUMPDEST SWAP2 POP PUSH2 0x1AE4 DUP3 DUP6 PUSH2 0x1A54 JUMP JUMPDEST SWAP2 POP PUSH2 0x1AEF DUP3 PUSH2 0x1AAC JUMP JUMPDEST SWAP2 POP PUSH2 0x1AFB DUP3 DUP5 PUSH2 0x1A54 JUMP JUMPDEST SWAP2 POP DUP2 SWAP1 POP SWAP4 SWAP3 POP POP POP JUMP JUMPDEST PUSH0 PUSH1 0x20 DUP3 ADD SWAP1 POP DUP2 DUP2 SUB PUSH0 DUP4 ADD MSTORE PUSH2 0x1B1F DUP2 DUP5 PUSH2 0x13C0 JUMP JUMPDEST SWAP1 POP SWAP3 SWAP2 POP POP JUMP JUMPDEST PUSH32 0x4E487B7100000000000000000000000000000000000000000000000000000000 PUSH0 MSTORE PUSH1 0x11 PUSH1 0x4 MSTORE PUSH1 0x24 PUSH0 REVERT JUMPDEST PUSH0 PUSH2 0x1B5E DUP3 PUSH2 0x1117 JUMP JUMPDEST SWAP2 POP PUSH2 0x1B69 DUP4 PUSH2 0x1117 JUMP JUMPDEST SWAP3 POP DUP3 DUP3 MUL PUSH2 0x1B77 DUP2 PUSH2 0x1117 JUMP JUMPDEST SWAP2 POP DUP3 DUP3 DIV DUP5 EQ DUP4 ISZERO OR PUSH2 0x1B8E JUMPI PUSH2 0x1B8D PUSH2 0x1B27 JUMP JUMPDEST JUMPDEST POP SWAP3 SWAP2 POP POP JUMP JUMPDEST PUSH0 PUSH2 0x1B9F DUP3 PUSH2 0x1117 JUMP JUMPDEST SWAP2 POP PUSH2 0x1BAA DUP4 PUSH2 0x1117 JUMP JUMPDEST SWAP3 POP DUP3 DUP3 ADD SWAP1 POP DUP1 DUP3 GT ISZERO PUSH2 0x1BC2 JUMPI PUSH2 0x1BC1 PUSH2 0x1B27 JUMP JUMPDEST JUMPDEST SWAP3 SWAP2 POP POP JUMP JUMPDEST PUSH32 0x4E487B7100000000000000000000000000000000000000000000000000000000 PUSH0 MSTORE PUSH1 0x32 PUSH1 0x4 MSTORE PUSH1 0x24 PUSH0 REVERT JUMPDEST PUSH0 PUSH2 0x1BFF DUP3 PUSH2 0x1117 JUMP JUMPDEST SWAP2 POP PUSH0 DUP3 SUB PUSH2 0x1C11 JUMPI PUSH2 0x1C10 PUSH2 0x1B27 JUMP JUMPDEST JUMPDEST PUSH1 0x1 DUP3 SUB SWAP1 POP SWAP2 SWAP1 POP JUMP JUMPDEST PUSH32 0x537472696E67733A20686578206C656E67746820696E73756666696369656E74 PUSH0 DUP3 ADD MSTORE POP JUMP JUMPDEST PUSH0 PUSH2 0x1C50 PUSH1 0x20 DUP4 PUSH2 0x13B0 JUMP JUMPDEST SWAP2 POP PUSH2 0x1C5B DUP3 PUSH2 0x1C1C JUMP JUMPDEST PUSH1 0x20 DUP3 ADD SWAP1 POP SWAP2 SWAP1 POP JUMP JUMPDEST PUSH0 PUSH1 0x20 DUP3 ADD SWAP1 POP DUP2 DUP2 SUB PUSH0 DUP4 ADD MSTORE PUSH2 0x1C7D DUP2 PUSH2 0x1C44 JUMP JUMPDEST SWAP1 POP SWAP2 SWAP1 POP JUMP INVALID LOG2 PUSH5 0x6970667358 0x22 SLT KECCAK256 0x28 0xC6 0xE8 0x4F 0xEA 0xEA 0x23 GASLIMIT PUSH17 0xC7BD63D31751B115642248582738A51AC8 GASLIMIT LOG0 0xC3 PUSH27 0x941E64736F6C634300081A00330000000000000000000000000000 "
				},
				"gasEstimates": {
					"creation": {
						"codeDepositCost": "1470800",
						"executionCost": "infinite",
						"totalCost": "infinite"
					},
					"external": {
						"ADMIN_ROLE()": "392",
						"DEFAULT_ADMIN_ROLE()": "352",
						"gameDelete(uint256)": "infinite",
						"gameInfos(uint256)": "infinite",
						"gameRegister(uint256,uint256,string)": "infinite",
						"gameUpdate(uint256,uint256,string)": "infinite",
						"getGameInfo(uint256)": "infinite",
						"getRoleAdmin(bytes32)": "infinite",
						"grantAdminRole(address)": "infinite",
						"grantRole(bytes32,address)": "infinite",
						"hasRole(bytes32,address)": "3189",
						"isGameExists(uint256)": "2862",
						"renounceRole(bytes32,address)": "infinite",
						"revokeAdminRole(address)": "infinite",
						"revokeRole(bytes32,address)": "infinite",
						"supportsInterface(bytes4)": "741"
					}
				},
				"methodIdentifiers": {
					"ADMIN_ROLE()": "75b238fc",
					"DEFAULT_ADMIN_ROLE()": "a217fddf",
					"gameDelete(uint256)": "89b2c8e7",
					"gameInfos(uint256)": "7d1b4687",
					"gameRegister(uint256,uint256,string)": "8164586e",
					"gameUpdate(uint256,uint256,string)": "b3558075",
					"getGameInfo(uint256)": "47e1d550",
					"getRoleAdmin(bytes32)": "248a9ca3",
					"grantAdminRole(address)": "c634b78e",
					"grantRole(bytes32,address)": "2f2ff15d",
					"hasRole(bytes32,address)": "91d14854",
					"isGameExists(uint256)": "1833fdf9",
					"renounceRole(bytes32,address)": "36568abe",
					"revokeAdminRole(address)": "9a19c7b0",
					"revokeRole(bytes32,address)": "d547741f",
					"supportsInterface(bytes4)": "01ffc9a7"
				}
			},
			"storageLayout": {
				"storage": [
					{
						"astId": 256,
						"contract": "contracts/v2/TikTrixGame.sol:TikTrixGame",
						"label": "_roles",
						"offset": 0,
						"slot": "0",
						"type": "t_mapping(t_bytes32,t_struct(RoleData)251_storage)"
					},
					{
						"astId": 24,
						"contract": "contracts/v2/TikTrixGame.sol:TikTrixGame",
						"label": "gameInfos",
						"offset": 0,
						"slot": "1",
						"type": "t_mapping(t_uint256,t_struct(GameInfo)19_storage)"
					}
				],
				"types": {
					"t_address": {
						"encoding": "inplace",
						"label": "address",
						"numberOfBytes": "20"
					},
					"t_bool": {
						"encoding": "inplace",
						"label": "bool",
						"numberOfBytes": "1"
					},
					"t_bytes32": {
						"encoding": "inplace",
						"label": "bytes32",
						"numberOfBytes": "32"
					},
					"t_mapping(t_address,t_bool)": {
						"encoding": "mapping",
						"key": "t_address",
						"label": "mapping(address => bool)",
						"numberOfBytes": "32",
						"value": "t_bool"
					},
					"t_mapping(t_bytes32,t_struct(RoleData)251_storage)": {
						"encoding": "mapping",
						"key": "t_bytes32",
						"label": "mapping(bytes32 => struct AccessControl.RoleData)",
						"numberOfBytes": "32",
						"value": "t_struct(RoleData)251_storage"
					},
					"t_mapping(t_uint256,t_struct(GameInfo)19_storage)": {
						"encoding": "mapping",
						"key": "t_uint256",
						"label": "mapping(uint256 => struct TikTrixGame.GameInfo)",
						"numberOfBytes": "32",
						"value": "t_struct(GameInfo)19_storage"
					},
					"t_string_storage": {
						"encoding": "bytes",
						"label": "string",
						"numberOfBytes": "32"
					},
					"t_struct(GameInfo)19_storage": {
						"encoding": "inplace",
						"label": "struct TikTrixGame.GameInfo",
						"members": [
							{
								"astId": 12,
								"contract": "contracts/v2/TikTrixGame.sol:TikTrixGame",
								"label": "developerSeq",
								"offset": 0,
								"slot": "0",
								"type": "t_uint256"
							},
							{
								"astId": 14,
								"contract": "contracts/v2/TikTrixGame.sol:TikTrixGame",
								"label": "gameSeq",
								"offset": 0,
								"slot": "1",
								"type": "t_uint256"
							},
							{
								"astId": 16,
								"contract": "contracts/v2/TikTrixGame.sol:TikTrixGame",
								"label": "title",
								"offset": 0,
								"slot": "2",
								"type": "t_string_storage"
							},
							{
								"astId": 18,
								"contract": "contracts/v2/TikTrixGame.sol:TikTrixGame",
								"label": "exists",
								"offset": 0,
								"slot": "3",
								"type": "t_bool"
							}
						],
						"numberOfBytes": "128"
					},
					"t_struct(RoleData)251_storage": {
						"encoding": "inplace",
						"label": "struct AccessControl.RoleData",
						"members": [
							{
								"astId": 248,
								"contract": "contracts/v2/TikTrixGame.sol:TikTrixGame",
								"label": "members",
								"offset": 0,
								"slot": "0",
								"type": "t_mapping(t_address,t_bool)"
							},
							{
								"astId": 250,
								"contract": "contracts/v2/TikTrixGame.sol:TikTrixGame",
								"label": "adminRole",
								"offset": 0,
								"slot": "1",
								"type": "t_bytes32"
							}
						],
						"numberOfBytes": "64"
					},
					"t_uint256": {
						"encoding": "inplace",
						"label": "uint256",
						"numberOfBytes": "32"
					}
				}
			},
			"userdoc": {
				"kind": "user",
				"methods": {},
				"version": 1
			}
		}
	}
}