{
	"contracts/v2/TikTrixGame.sol": {
		"TikTrixGame": {
			"abi": [
				{
					"inputs": [],
					"stateMutability": "nonpayable",
					"type": "constructor"
				},
				{
					"anonymous": false,
					"inputs": [
						{
							"indexed": true,
							"internalType": "uint256",
							"name": "gameSeq",
							"type": "uint256"
						}
					],
					"name": "GameDeleted",
					"type": "event"
				},
				{
					"anonymous": false,
					"inputs": [
						{
							"indexed": false,
							"internalType": "uint256",
							"name": "gameSeq",
							"type": "uint256"
						},
						{
							"indexed": false,
							"internalType": "uint256",
							"name": "memberSeq",
							"type": "uint256"
						}
					],
					"name": "GameRegistered",
					"type": "event"
				},
				{
					"anonymous": false,
					"inputs": [
						{
							"indexed": false,
							"internalType": "uint256",
							"name": "gameSeq",
							"type": "uint256"
						}
					],
					"name": "GameUpdated",
					"type": "event"
				},
				{
					"anonymous": false,
					"inputs": [
						{
							"indexed": true,
							"internalType": "bytes32",
							"name": "role",
							"type": "bytes32"
						},
						{
							"indexed": true,
							"internalType": "bytes32",
							"name": "previousAdminRole",
							"type": "bytes32"
						},
						{
							"indexed": true,
							"internalType": "bytes32",
							"name": "newAdminRole",
							"type": "bytes32"
						}
					],
					"name": "RoleAdminChanged",
					"type": "event"
				},
				{
					"anonymous": false,
					"inputs": [
						{
							"indexed": true,
							"internalType": "bytes32",
							"name": "role",
							"type": "bytes32"
						},
						{
							"indexed": true,
							"internalType": "address",
							"name": "account",
							"type": "address"
						},
						{
							"indexed": true,
							"internalType": "address",
							"name": "sender",
							"type": "address"
						}
					],
					"name": "RoleGranted",
					"type": "event"
				},
				{
					"anonymous": false,
					"inputs": [
						{
							"indexed": true,
							"internalType": "bytes32",
							"name": "role",
							"type": "bytes32"
						},
						{
							"indexed": true,
							"internalType": "address",
							"name": "account",
							"type": "address"
						},
						{
							"indexed": true,
							"internalType": "address",
							"name": "sender",
							"type": "address"
						}
					],
					"name": "RoleRevoked",
					"type": "event"
				},
				{
					"inputs": [],
					"name": "ADMIN_ROLE",
					"outputs": [
						{
							"internalType": "bytes32",
							"name": "",
							"type": "bytes32"
						}
					],
					"stateMutability": "view",
					"type": "function"
				},
				{
					"inputs": [],
					"name": "DEFAULT_ADMIN_ROLE",
					"outputs": [
						{
							"internalType": "bytes32",
							"name": "",
							"type": "bytes32"
						}
					],
					"stateMutability": "view",
					"type": "function"
				},
				{
					"inputs": [
						{
							"internalType": "uint256",
							"name": "gameSeq",
							"type": "uint256"
						}
					],
					"name": "gameDelete",
					"outputs": [],
					"stateMutability": "nonpayable",
					"type": "function"
				},
				{
					"inputs": [
						{
							"internalType": "uint256",
							"name": "",
							"type": "uint256"
						}
					],
					"name": "gameInfos",
					"outputs": [
						{
							"internalType": "uint256",
							"name": "gameSeq",
							"type": "uint256"
						},
						{
							"internalType": "uint256",
							"name": "memberSeq",
							"type": "uint256"
						},
						{
							"internalType": "bool",
							"name": "exists",
							"type": "bool"
						}
					],
					"stateMutability": "view",
					"type": "function"
				},
				{
					"inputs": [
						{
							"internalType": "uint256",
							"name": "gameSeq",
							"type": "uint256"
						},
						{
							"internalType": "uint256",
							"name": "memberSeq",
							"type": "uint256"
						}
					],
					"name": "gameRegister",
					"outputs": [],
					"stateMutability": "nonpayable",
					"type": "function"
				},
				{
					"inputs": [
						{
							"internalType": "uint256",
							"name": "gameSeq",
							"type": "uint256"
						}
					],
					"name": "gameUpdate",
					"outputs": [],
					"stateMutability": "nonpayable",
					"type": "function"
				},
				{
					"inputs": [
						{
							"internalType": "uint256",
							"name": "gameSeq",
							"type": "uint256"
						}
					],
					"name": "getGameInfo",
					"outputs": [
						{
							"components": [
								{
									"internalType": "uint256",
									"name": "gameSeq",
									"type": "uint256"
								},
								{
									"internalType": "uint256",
									"name": "memberSeq",
									"type": "uint256"
								},
								{
									"internalType": "bool",
									"name": "exists",
									"type": "bool"
								}
							],
							"internalType": "struct TikTrixGame.GameInfo",
							"name": "",
							"type": "tuple"
						}
					],
					"stateMutability": "view",
					"type": "function"
				},
				{
					"inputs": [
						{
							"internalType": "bytes32",
							"name": "role",
							"type": "bytes32"
						}
					],
					"name": "getRoleAdmin",
					"outputs": [
						{
							"internalType": "bytes32",
							"name": "",
							"type": "bytes32"
						}
					],
					"stateMutability": "view",
					"type": "function"
				},
				{
					"inputs": [
						{
							"internalType": "address",
							"name": "account",
							"type": "address"
						}
					],
					"name": "grantAdminRole",
					"outputs": [],
					"stateMutability": "nonpayable",
					"type": "function"
				},
				{
					"inputs": [
						{
							"internalType": "bytes32",
							"name": "role",
							"type": "bytes32"
						},
						{
							"internalType": "address",
							"name": "account",
							"type": "address"
						}
					],
					"name": "grantRole",
					"outputs": [],
					"stateMutability": "nonpayable",
					"type": "function"
				},
				{
					"inputs": [
						{
							"internalType": "bytes32",
							"name": "role",
							"type": "bytes32"
						},
						{
							"internalType": "address",
							"name": "account",
							"type": "address"
						}
					],
					"name": "hasRole",
					"outputs": [
						{
							"internalType": "bool",
							"name": "",
							"type": "bool"
						}
					],
					"stateMutability": "view",
					"type": "function"
				},
				{
					"inputs": [
						{
							"internalType": "uint256",
							"name": "gameSeq",
							"type": "uint256"
						}
					],
					"name": "isGameExists",
					"outputs": [
						{
							"internalType": "bool",
							"name": "",
							"type": "bool"
						}
					],
					"stateMutability": "view",
					"type": "function"
				},
				{
					"inputs": [
						{
							"internalType": "bytes32",
							"name": "role",
							"type": "bytes32"
						},
						{
							"internalType": "address",
							"name": "account",
							"type": "address"
						}
					],
					"name": "renounceRole",
					"outputs": [],
					"stateMutability": "nonpayable",
					"type": "function"
				},
				{
					"inputs": [
						{
							"internalType": "address",
							"name": "account",
							"type": "address"
						}
					],
					"name": "revokeAdminRole",
					"outputs": [],
					"stateMutability": "nonpayable",
					"type": "function"
				},
				{
					"inputs": [
						{
							"internalType": "bytes32",
							"name": "role",
							"type": "bytes32"
						},
						{
							"internalType": "address",
							"name": "account",
							"type": "address"
						}
					],
					"name": "revokeRole",
					"outputs": [],
					"stateMutability": "nonpayable",
					"type": "function"
				},
				{
					"inputs": [
						{
							"internalType": "bytes4",
							"name": "interfaceId",
							"type": "bytes4"
						}
					],
					"name": "supportsInterface",
					"outputs": [
						{
							"internalType": "bool",
							"name": "",
							"type": "bool"
						}
					],
					"stateMutability": "view",
					"type": "function"
				}
			],
			"devdoc": {
				"events": {
					"RoleAdminChanged(bytes32,bytes32,bytes32)": {
						"details": "Emitted when `newAdminRole` is set as ``role``'s admin role, replacing `previousAdminRole` `DEFAULT_ADMIN_ROLE` is the starting admin for all roles, despite {RoleAdminChanged} not being emitted signaling this. _Available since v3.1._"
					},
					"RoleGranted(bytes32,address,address)": {
						"details": "Emitted when `account` is granted `role`. `sender` is the account that originated the contract call, an admin role bearer except when using {AccessControl-_setupRole}."
					},
					"RoleRevoked(bytes32,address,address)": {
						"details": "Emitted when `account` is revoked `role`. `sender` is the account that originated the contract call:   - if using `revokeRole`, it is the admin role bearer   - if using `renounceRole`, it is the role bearer (i.e. `account`)"
					}
				},
				"kind": "dev",
				"methods": {
					"getRoleAdmin(bytes32)": {
						"details": "Returns the admin role that controls `role`. See {grantRole} and {revokeRole}. To change a role's admin, use {_setRoleAdmin}."
					},
					"grantRole(bytes32,address)": {
						"details": "Grants `role` to `account`. If `account` had not been already granted `role`, emits a {RoleGranted} event. Requirements: - the caller must have ``role``'s admin role. May emit a {RoleGranted} event."
					},
					"hasRole(bytes32,address)": {
						"details": "Returns `true` if `account` has been granted `role`."
					},
					"renounceRole(bytes32,address)": {
						"details": "Revokes `role` from the calling account. Roles are often managed via {grantRole} and {revokeRole}: this function's purpose is to provide a mechanism for accounts to lose their privileges if they are compromised (such as when a trusted device is misplaced). If the calling account had been revoked `role`, emits a {RoleRevoked} event. Requirements: - the caller must be `account`. May emit a {RoleRevoked} event."
					},
					"revokeRole(bytes32,address)": {
						"details": "Revokes `role` from `account`. If `account` had been granted `role`, emits a {RoleRevoked} event. Requirements: - the caller must have ``role``'s admin role. May emit a {RoleRevoked} event."
					},
					"supportsInterface(bytes4)": {
						"details": "See {IERC165-supportsInterface}."
					}
				},
				"version": 1
			},
			"evm": {
				"assembly": "    /* \"contracts/v2/TikTrixGame.sol\":281:2087  contract TikTrixGame is AccessControl {... */\n  mstore(0x40, 0x80)\n    /* \"contracts/v2/TikTrixGame.sol\":697:814  constructor() {... */\n  callvalue\n  dup1\n  iszero\n  tag_1\n  jumpi\n  0x00\n  dup1\n  revert\ntag_1:\n  pop\n    /* \"contracts/v2/TikTrixGame.sol\":721:763  _setupRole(DEFAULT_ADMIN_ROLE, msg.sender) */\n  tag_4\n    /* \"https://github.com/OpenZeppelin/openzeppelin-contracts/blob/v4.8.0/contracts/access/AccessControl.sol\":2072:2076  0x00 */\n  0x00\n    /* \"contracts/v2/TikTrixGame.sol\":732:750  DEFAULT_ADMIN_ROLE */\n  dup1\n  shl\n    /* \"contracts/v2/TikTrixGame.sol\":752:762  msg.sender */\n  caller\n    /* \"contracts/v2/TikTrixGame.sol\":721:731  _setupRole */\n  shl(0x20, tag_5)\n    /* \"contracts/v2/TikTrixGame.sol\":721:763  _setupRole(DEFAULT_ADMIN_ROLE, msg.sender) */\n  0x20\n  shr\n  jump\t// in\ntag_4:\n    /* \"contracts/v2/TikTrixGame.sol\":773:807  _setupRole(ADMIN_ROLE, msg.sender) */\n  tag_6\n    /* \"contracts/v2/TikTrixGame.sol\":362:385  keccak256(\"ADMIN_ROLE\") */\n  0xa49807205ce4d355092ef5a8a18f56e8913cf4a201fbe287825b095693c21775\n    /* \"contracts/v2/TikTrixGame.sol\":796:806  msg.sender */\n  caller\n    /* \"contracts/v2/TikTrixGame.sol\":773:783  _setupRole */\n  shl(0x20, tag_5)\n    /* \"contracts/v2/TikTrixGame.sol\":773:807  _setupRole(ADMIN_ROLE, msg.sender) */\n  0x20\n  shr\n  jump\t// in\ntag_6:\n    /* \"contracts/v2/TikTrixGame.sol\":281:2087  contract TikTrixGame is AccessControl {... */\n  jump(tag_7)\n    /* \"https://github.com/OpenZeppelin/openzeppelin-contracts/blob/v4.8.0/contracts/access/AccessControl.sol\":6811:6921  function _setupRole(bytes32 role, address account) internal virtual {... */\ntag_5:\n    /* \"https://github.com/OpenZeppelin/openzeppelin-contracts/blob/v4.8.0/contracts/access/AccessControl.sol\":6889:6914  _grantRole(role, account) */\n  tag_9\n    /* \"https://github.com/OpenZeppelin/openzeppelin-contracts/blob/v4.8.0/contracts/access/AccessControl.sol\":6900:6904  role */\n  dup3\n    /* \"https://github.com/OpenZeppelin/openzeppelin-contracts/blob/v4.8.0/contracts/access/AccessControl.sol\":6906:6913  account */\n  dup3\n    /* \"https://github.com/OpenZeppelin/openzeppelin-contracts/blob/v4.8.0/contracts/access/AccessControl.sol\":6889:6899  _grantRole */\n  shl(0x20, tag_10)\n    /* \"https://github.com/OpenZeppelin/openzeppelin-contracts/blob/v4.8.0/contracts/access/AccessControl.sol\":6889:6914  _grantRole(role, account) */\n  0x20\n  shr\n  jump\t// in\ntag_9:\n    /* \"https://github.com/OpenZeppelin/openzeppelin-contracts/blob/v4.8.0/contracts/access/AccessControl.sol\":6811:6921  function _setupRole(bytes32 role, address account) internal virtual {... */\n  pop\n  pop\n  jump\t// out\n    /* \"https://github.com/OpenZeppelin/openzeppelin-contracts/blob/v4.8.0/contracts/access/AccessControl.sol\":7461:7694  function _grantRole(bytes32 role, address account) internal virtual {... */\ntag_10:\n    /* \"https://github.com/OpenZeppelin/openzeppelin-contracts/blob/v4.8.0/contracts/access/AccessControl.sol\":7544:7566  hasRole(role, account) */\n  tag_12\n    /* \"https://github.com/OpenZeppelin/openzeppelin-contracts/blob/v4.8.0/contracts/access/AccessControl.sol\":7552:7556  role */\n  dup3\n    /* \"https://github.com/OpenZeppelin/openzeppelin-contracts/blob/v4.8.0/contracts/access/AccessControl.sol\":7558:7565  account */\n  dup3\n    /* \"https://github.com/OpenZeppelin/openzeppelin-contracts/blob/v4.8.0/contracts/access/AccessControl.sol\":7544:7551  hasRole */\n  shl(0x20, tag_13)\n    /* \"https://github.com/OpenZeppelin/openzeppelin-contracts/blob/v4.8.0/contracts/access/AccessControl.sol\":7544:7566  hasRole(role, account) */\n  0x20\n  shr\n  jump\t// in\ntag_12:\n    /* \"https://github.com/OpenZeppelin/openzeppelin-contracts/blob/v4.8.0/contracts/access/AccessControl.sol\":7539:7688  if (!hasRole(role, account)) {... */\n  tag_14\n  jumpi\n    /* \"https://github.com/OpenZeppelin/openzeppelin-contracts/blob/v4.8.0/contracts/access/AccessControl.sol\":7614:7618  true */\n  0x01\n    /* \"https://github.com/OpenZeppelin/openzeppelin-contracts/blob/v4.8.0/contracts/access/AccessControl.sol\":7582:7588  _roles */\n  0x00\n    /* \"https://github.com/OpenZeppelin/openzeppelin-contracts/blob/v4.8.0/contracts/access/AccessControl.sol\":7582:7594  _roles[role] */\n  dup1\n    /* \"https://github.com/OpenZeppelin/openzeppelin-contracts/blob/v4.8.0/contracts/access/AccessControl.sol\":7589:7593  role */\n  dup5\n    /* \"https://github.com/OpenZeppelin/openzeppelin-contracts/blob/v4.8.0/contracts/access/AccessControl.sol\":7582:7594  _roles[role] */\n  dup2\n  mstore\n  0x20\n  add\n  swap1\n  dup2\n  mstore\n  0x20\n  add\n  0x00\n  keccak256\n    /* \"https://github.com/OpenZeppelin/openzeppelin-contracts/blob/v4.8.0/contracts/access/AccessControl.sol\":7582:7602  _roles[role].members */\n  0x00\n  add\n    /* \"https://github.com/OpenZeppelin/openzeppelin-contracts/blob/v4.8.0/contracts/access/AccessControl.sol\":7582:7611  _roles[role].members[account] */\n  0x00\n    /* \"https://github.com/OpenZeppelin/openzeppelin-contracts/blob/v4.8.0/contracts/access/AccessControl.sol\":7603:7610  account */\n  dup4\n    /* \"https://github.com/OpenZeppelin/openzeppelin-contracts/blob/v4.8.0/contracts/access/AccessControl.sol\":7582:7611  _roles[role].members[account] */\n  0xffffffffffffffffffffffffffffffffffffffff\n  and\n  0xffffffffffffffffffffffffffffffffffffffff\n  and\n  dup2\n  mstore\n  0x20\n  add\n  swap1\n  dup2\n  mstore\n  0x20\n  add\n  0x00\n  keccak256\n  0x00\n    /* \"https://github.com/OpenZeppelin/openzeppelin-contracts/blob/v4.8.0/contracts/access/AccessControl.sol\":7582:7618  _roles[role].members[account] = true */\n  0x0100\n  exp\n  dup2\n  sload\n  dup2\n  0xff\n  mul\n  not\n  and\n  swap1\n  dup4\n  iszero\n  iszero\n  mul\n  or\n  swap1\n  sstore\n  pop\n    /* \"https://github.com/OpenZeppelin/openzeppelin-contracts/blob/v4.8.0/contracts/access/AccessControl.sol\":7664:7676  _msgSender() */\n  tag_15\n    /* \"https://github.com/OpenZeppelin/openzeppelin-contracts/blob/v4.8.0/contracts/access/AccessControl.sol\":7664:7674  _msgSender */\n  shl(0x20, tag_16)\n    /* \"https://github.com/OpenZeppelin/openzeppelin-contracts/blob/v4.8.0/contracts/access/AccessControl.sol\":7664:7676  _msgSender() */\n  0x20\n  shr\n  jump\t// in\ntag_15:\n    /* \"https://github.com/OpenZeppelin/openzeppelin-contracts/blob/v4.8.0/contracts/access/AccessControl.sol\":7637:7677  RoleGranted(role, account, _msgSender()) */\n  0xffffffffffffffffffffffffffffffffffffffff\n  and\n    /* \"https://github.com/OpenZeppelin/openzeppelin-contracts/blob/v4.8.0/contracts/access/AccessControl.sol\":7655:7662  account */\n  dup2\n    /* \"https://github.com/OpenZeppelin/openzeppelin-contracts/blob/v4.8.0/contracts/access/AccessControl.sol\":7637:7677  RoleGranted(role, account, _msgSender()) */\n  0xffffffffffffffffffffffffffffffffffffffff\n  and\n    /* \"https://github.com/OpenZeppelin/openzeppelin-contracts/blob/v4.8.0/contracts/access/AccessControl.sol\":7649:7653  role */\n  dup4\n    /* \"https://github.com/OpenZeppelin/openzeppelin-contracts/blob/v4.8.0/contracts/access/AccessControl.sol\":7637:7677  RoleGranted(role, account, _msgSender()) */\n  0x2f8788117e7eff1d82e926ec794901d17c78024a50270940304540a733656f0d\n  mload(0x40)\n  mload(0x40)\n  dup1\n  swap2\n  sub\n  swap1\n  log4\n    /* \"https://github.com/OpenZeppelin/openzeppelin-contracts/blob/v4.8.0/contracts/access/AccessControl.sol\":7539:7688  if (!hasRole(role, account)) {... */\ntag_14:\n    /* \"https://github.com/OpenZeppelin/openzeppelin-contracts/blob/v4.8.0/contracts/access/AccessControl.sol\":7461:7694  function _grantRole(bytes32 role, address account) internal virtual {... */\n  pop\n  pop\n  jump\t// out\n    /* \"https://github.com/OpenZeppelin/openzeppelin-contracts/blob/v4.8.0/contracts/access/AccessControl.sol\":2895:3040  function hasRole(bytes32 role, address account) public view virtual override returns (bool) {... */\ntag_13:\n    /* \"https://github.com/OpenZeppelin/openzeppelin-contracts/blob/v4.8.0/contracts/access/AccessControl.sol\":2981:2985  bool */\n  0x00\n    /* \"https://github.com/OpenZeppelin/openzeppelin-contracts/blob/v4.8.0/contracts/access/AccessControl.sol\":3004:3010  _roles */\n  dup1\n    /* \"https://github.com/OpenZeppelin/openzeppelin-contracts/blob/v4.8.0/contracts/access/AccessControl.sol\":3004:3016  _roles[role] */\n  0x00\n    /* \"https://github.com/OpenZeppelin/openzeppelin-contracts/blob/v4.8.0/contracts/access/AccessControl.sol\":3011:3015  role */\n  dup5\n    /* \"https://github.com/OpenZeppelin/openzeppelin-contracts/blob/v4.8.0/contracts/access/AccessControl.sol\":3004:3016  _roles[role] */\n  dup2\n  mstore\n  0x20\n  add\n  swap1\n  dup2\n  mstore\n  0x20\n  add\n  0x00\n  keccak256\n    /* \"https://github.com/OpenZeppelin/openzeppelin-contracts/blob/v4.8.0/contracts/access/AccessControl.sol\":3004:3024  _roles[role].members */\n  0x00\n  add\n    /* \"https://github.com/OpenZeppelin/openzeppelin-contracts/blob/v4.8.0/contracts/access/AccessControl.sol\":3004:3033  _roles[role].members[account] */\n  0x00\n    /* \"https://github.com/OpenZeppelin/openzeppelin-contracts/blob/v4.8.0/contracts/access/AccessControl.sol\":3025:3032  account */\n  dup4\n    /* \"https://github.com/OpenZeppelin/openzeppelin-contracts/blob/v4.8.0/contracts/access/AccessControl.sol\":3004:3033  _roles[role].members[account] */\n  0xffffffffffffffffffffffffffffffffffffffff\n  and\n  0xffffffffffffffffffffffffffffffffffffffff\n  and\n  dup2\n  mstore\n  0x20\n  add\n  swap1\n  dup2\n  mstore\n  0x20\n  add\n  0x00\n  keccak256\n  0x00\n  swap1\n  sload\n  swap1\n  0x0100\n  exp\n  swap1\n  div\n  0xff\n  and\n    /* \"https://github.com/OpenZeppelin/openzeppelin-contracts/blob/v4.8.0/contracts/access/AccessControl.sol\":2997:3033  return _roles[role].members[account] */\n  swap1\n  pop\n    /* \"https://github.com/OpenZeppelin/openzeppelin-contracts/blob/v4.8.0/contracts/access/AccessControl.sol\":2895:3040  function hasRole(bytes32 role, address account) public view virtual override returns (bool) {... */\n  swap3\n  swap2\n  pop\n  pop\n  jump\t// out\n    /* \"https://github.com/OpenZeppelin/openzeppelin-contracts/blob/v4.8.0/contracts/utils/Context.sol\":640:736  function _msgSender() internal view virtual returns (address) {... */\ntag_16:\n    /* \"https://github.com/OpenZeppelin/openzeppelin-contracts/blob/v4.8.0/contracts/utils/Context.sol\":693:700  address */\n  0x00\n    /* \"https://github.com/OpenZeppelin/openzeppelin-contracts/blob/v4.8.0/contracts/utils/Context.sol\":719:729  msg.sender */\n  caller\n    /* \"https://github.com/OpenZeppelin/openzeppelin-contracts/blob/v4.8.0/contracts/utils/Context.sol\":712:729  return msg.sender */\n  swap1\n  pop\n    /* \"https://github.com/OpenZeppelin/openzeppelin-contracts/blob/v4.8.0/contracts/utils/Context.sol\":640:736  function _msgSender() internal view virtual returns (address) {... */\n  swap1\n  jump\t// out\n    /* \"contracts/v2/TikTrixGame.sol\":281:2087  contract TikTrixGame is AccessControl {... */\ntag_7:\n  dataSize(sub_0)\n  dup1\n  dataOffset(sub_0)\n  0x00\n  codecopy\n  0x00\n  return\nstop\n\nsub_0: assembly {\n        /* \"contracts/v2/TikTrixGame.sol\":281:2087  contract TikTrixGame is AccessControl {... */\n      mstore(0x40, 0x80)\n      callvalue\n      dup1\n      iszero\n      tag_1\n      jumpi\n      0x00\n      dup1\n      revert\n    tag_1:\n      pop\n      jumpi(tag_2, lt(calldatasize, 0x04))\n      shr(0xe0, calldataload(0x00))\n      dup1\n      0x7d1b4687\n      gt\n      tag_19\n      jumpi\n      dup1\n      0xa217fddf\n      gt\n      tag_20\n      jumpi\n      dup1\n      0xa217fddf\n      eq\n      tag_15\n      jumpi\n      dup1\n      0xb638d158\n      eq\n      tag_16\n      jumpi\n      dup1\n      0xc634b78e\n      eq\n      tag_17\n      jumpi\n      dup1\n      0xd547741f\n      eq\n      tag_18\n      jumpi\n      jump(tag_2)\n    tag_20:\n      dup1\n      0x7d1b4687\n      eq\n      tag_11\n      jumpi\n      dup1\n      0x89b2c8e7\n      eq\n      tag_12\n      jumpi\n      dup1\n      0x91d14854\n      eq\n      tag_13\n      jumpi\n      dup1\n      0x9a19c7b0\n      eq\n      tag_14\n      jumpi\n      jump(tag_2)\n    tag_19:\n      dup1\n      0x36568abe\n      gt\n      tag_21\n      jumpi\n      dup1\n      0x36568abe\n      eq\n      tag_7\n      jumpi\n      dup1\n      0x47e1d550\n      eq\n      tag_8\n      jumpi\n      dup1\n      0x4f0ce4df\n      eq\n      tag_9\n      jumpi\n      dup1\n      0x75b238fc\n      eq\n      tag_10\n      jumpi\n      jump(tag_2)\n    tag_21:\n      dup1\n      0x01ffc9a7\n      eq\n      tag_3\n      jumpi\n      dup1\n      0x1833fdf9\n      eq\n      tag_4\n      jumpi\n      dup1\n      0x248a9ca3\n      eq\n      tag_5\n      jumpi\n      dup1\n      0x2f2ff15d\n      eq\n      tag_6\n      jumpi\n    tag_2:\n      0x00\n      dup1\n      revert\n        /* \"https://github.com/OpenZeppelin/openzeppelin-contracts/blob/v4.8.0/contracts/access/AccessControl.sol\":2606:2808  function supportsInterface(bytes4 interfaceId) public view virtual override returns (bool) {... */\n    tag_3:\n      tag_22\n      0x04\n      dup1\n      calldatasize\n      sub\n      dup2\n      add\n      swap1\n      tag_23\n      swap2\n      swap1\n      tag_24\n      jump\t// in\n    tag_23:\n      tag_25\n      jump\t// in\n    tag_22:\n      mload(0x40)\n      tag_26\n      swap2\n      swap1\n      tag_27\n      jump\t// in\n    tag_26:\n      mload(0x40)\n      dup1\n      swap2\n      sub\n      swap1\n      return\n        /* \"contracts/v2/TikTrixGame.sol\":1967:2084  function isGameExists(uint256 gameSeq) external view returns (bool) {... */\n    tag_4:\n      tag_28\n      0x04\n      dup1\n      calldatasize\n      sub\n      dup2\n      add\n      swap1\n      tag_29\n      swap2\n      swap1\n      tag_30\n      jump\t// in\n    tag_29:\n      tag_31\n      jump\t// in\n    tag_28:\n      mload(0x40)\n      tag_32\n      swap2\n      swap1\n      tag_27\n      jump\t// in\n    tag_32:\n      mload(0x40)\n      dup1\n      swap2\n      sub\n      swap1\n      return\n        /* \"https://github.com/OpenZeppelin/openzeppelin-contracts/blob/v4.8.0/contracts/access/AccessControl.sol\":4378:4507  function getRoleAdmin(bytes32 role) public view virtual override returns (bytes32) {... */\n    tag_5:\n      tag_33\n      0x04\n      dup1\n      calldatasize\n      sub\n      dup2\n      add\n      swap1\n      tag_34\n      swap2\n      swap1\n      tag_35\n      jump\t// in\n    tag_34:\n      tag_36\n      jump\t// in\n    tag_33:\n      mload(0x40)\n      tag_37\n      swap2\n      swap1\n      tag_38\n      jump\t// in\n    tag_37:\n      mload(0x40)\n      dup1\n      swap2\n      sub\n      swap1\n      return\n        /* \"https://github.com/OpenZeppelin/openzeppelin-contracts/blob/v4.8.0/contracts/access/AccessControl.sol\":4803:4948  function grantRole(bytes32 role, address account) public virtual override onlyRole(getRoleAdmin(role)) {... */\n    tag_6:\n      tag_39\n      0x04\n      dup1\n      calldatasize\n      sub\n      dup2\n      add\n      swap1\n      tag_40\n      swap2\n      swap1\n      tag_41\n      jump\t// in\n    tag_40:\n      tag_42\n      jump\t// in\n    tag_39:\n      stop\n        /* \"https://github.com/OpenZeppelin/openzeppelin-contracts/blob/v4.8.0/contracts/access/AccessControl.sol\":5912:6126  function renounceRole(bytes32 role, address account) public virtual override {... */\n    tag_7:\n      tag_43\n      0x04\n      dup1\n      calldatasize\n      sub\n      dup2\n      add\n      swap1\n      tag_44\n      swap2\n      swap1\n      tag_41\n      jump\t// in\n    tag_44:\n      tag_45\n      jump\t// in\n    tag_43:\n      stop\n        /* \"contracts/v2/TikTrixGame.sol\":1774:1961  function getGameInfo(uint256 gameSeq) external view returns (GameInfo memory) {... */\n    tag_8:\n      tag_46\n      0x04\n      dup1\n      calldatasize\n      sub\n      dup2\n      add\n      swap1\n      tag_47\n      swap2\n      swap1\n      tag_30\n      jump\t// in\n    tag_47:\n      tag_48\n      jump\t// in\n    tag_46:\n      mload(0x40)\n      tag_49\n      swap2\n      swap1\n      tag_50\n      jump\t// in\n    tag_49:\n      mload(0x40)\n      dup1\n      swap2\n      sub\n      swap1\n      return\n        /* \"contracts/v2/TikTrixGame.sol\":1374:1551  function gameUpdate(uint256 gameSeq) external onlyRole(ADMIN_ROLE) {... */\n    tag_9:\n      tag_51\n      0x04\n      dup1\n      calldatasize\n      sub\n      dup2\n      add\n      swap1\n      tag_52\n      swap2\n      swap1\n      tag_30\n      jump\t// in\n    tag_52:\n      tag_53\n      jump\t// in\n    tag_51:\n      stop\n        /* \"contracts/v2/TikTrixGame.sol\":325:385  bytes32 public constant ADMIN_ROLE = keccak256(\"ADMIN_ROLE\") */\n    tag_10:\n      tag_54\n      tag_55\n      jump\t// in\n    tag_54:\n      mload(0x40)\n      tag_56\n      swap2\n      swap1\n      tag_38\n      jump\t// in\n    tag_56:\n      mload(0x40)\n      dup1\n      swap2\n      sub\n      swap1\n      return\n        /* \"contracts/v2/TikTrixGame.sol\":494:539  mapping(uint256 => GameInfo) public gameInfos */\n    tag_11:\n      tag_57\n      0x04\n      dup1\n      calldatasize\n      sub\n      dup2\n      add\n      swap1\n      tag_58\n      swap2\n      swap1\n      tag_30\n      jump\t// in\n    tag_58:\n      tag_59\n      jump\t// in\n    tag_57:\n      mload(0x40)\n      tag_60\n      swap4\n      swap3\n      swap2\n      swap1\n      tag_61\n      jump\t// in\n    tag_60:\n      mload(0x40)\n      dup1\n      swap2\n      sub\n      swap1\n      return\n        /* \"contracts/v2/TikTrixGame.sol\":1557:1768  function gameDelete(uint256 gameSeq) external onlyRole(ADMIN_ROLE) {... */\n    tag_12:\n      tag_62\n      0x04\n      dup1\n      calldatasize\n      sub\n      dup2\n      add\n      swap1\n      tag_63\n      swap2\n      swap1\n      tag_30\n      jump\t// in\n    tag_63:\n      tag_64\n      jump\t// in\n    tag_62:\n      stop\n        /* \"https://github.com/OpenZeppelin/openzeppelin-contracts/blob/v4.8.0/contracts/access/AccessControl.sol\":2895:3040  function hasRole(bytes32 role, address account) public view virtual override returns (bool) {... */\n    tag_13:\n      tag_65\n      0x04\n      dup1\n      calldatasize\n      sub\n      dup2\n      add\n      swap1\n      tag_66\n      swap2\n      swap1\n      tag_41\n      jump\t// in\n    tag_66:\n      tag_67\n      jump\t// in\n    tag_65:\n      mload(0x40)\n      tag_68\n      swap2\n      swap1\n      tag_27\n      jump\t// in\n    tag_68:\n      mload(0x40)\n      dup1\n      swap2\n      sub\n      swap1\n      return\n        /* \"contracts/v2/TikTrixGame.sol\":950:1076  function revokeAdminRole(address account) public onlyRole(DEFAULT_ADMIN_ROLE) {... */\n    tag_14:\n      tag_69\n      0x04\n      dup1\n      calldatasize\n      sub\n      dup2\n      add\n      swap1\n      tag_70\n      swap2\n      swap1\n      tag_71\n      jump\t// in\n    tag_70:\n      tag_72\n      jump\t// in\n    tag_69:\n      stop\n        /* \"https://github.com/OpenZeppelin/openzeppelin-contracts/blob/v4.8.0/contracts/access/AccessControl.sol\":2027:2076  bytes32 public constant DEFAULT_ADMIN_ROLE = 0x00 */\n    tag_15:\n      tag_73\n      tag_74\n      jump\t// in\n    tag_73:\n      mload(0x40)\n      tag_75\n      swap2\n      swap1\n      tag_38\n      jump\t// in\n    tag_75:\n      mload(0x40)\n      dup1\n      swap2\n      sub\n      swap1\n      return\n        /* \"contracts/v2/TikTrixGame.sol\":1082:1368  function gameRegister(uint256 gameSeq, uint256 memberSeq) external onlyRole(ADMIN_ROLE) {... */\n    tag_16:\n      tag_76\n      0x04\n      dup1\n      calldatasize\n      sub\n      dup2\n      add\n      swap1\n      tag_77\n      swap2\n      swap1\n      tag_78\n      jump\t// in\n    tag_77:\n      tag_79\n      jump\t// in\n    tag_76:\n      stop\n        /* \"contracts/v2/TikTrixGame.sol\":820:944  function grantAdminRole(address account) public onlyRole(DEFAULT_ADMIN_ROLE) {... */\n    tag_17:\n      tag_80\n      0x04\n      dup1\n      calldatasize\n      sub\n      dup2\n      add\n      swap1\n      tag_81\n      swap2\n      swap1\n      tag_71\n      jump\t// in\n    tag_81:\n      tag_82\n      jump\t// in\n    tag_80:\n      stop\n        /* \"https://github.com/OpenZeppelin/openzeppelin-contracts/blob/v4.8.0/contracts/access/AccessControl.sol\":5228:5375  function revokeRole(bytes32 role, address account) public virtual override onlyRole(getRoleAdmin(role)) {... */\n    tag_18:\n      tag_83\n      0x04\n      dup1\n      calldatasize\n      sub\n      dup2\n      add\n      swap1\n      tag_84\n      swap2\n      swap1\n      tag_41\n      jump\t// in\n    tag_84:\n      tag_85\n      jump\t// in\n    tag_83:\n      stop\n        /* \"https://github.com/OpenZeppelin/openzeppelin-contracts/blob/v4.8.0/contracts/access/AccessControl.sol\":2606:2808  function supportsInterface(bytes4 interfaceId) public view virtual override returns (bool) {... */\n    tag_25:\n        /* \"https://github.com/OpenZeppelin/openzeppelin-contracts/blob/v4.8.0/contracts/access/AccessControl.sol\":2691:2695  bool */\n      0x00\n        /* \"https://github.com/OpenZeppelin/openzeppelin-contracts/blob/v4.8.0/contracts/access/AccessControl.sol\":2729:2761  type(IAccessControl).interfaceId */\n      0x7965db0b00000000000000000000000000000000000000000000000000000000\n        /* \"https://github.com/OpenZeppelin/openzeppelin-contracts/blob/v4.8.0/contracts/access/AccessControl.sol\":2714:2761  interfaceId == type(IAccessControl).interfaceId */\n      not(0xffffffffffffffffffffffffffffffffffffffffffffffffffffffff)\n      and\n        /* \"https://github.com/OpenZeppelin/openzeppelin-contracts/blob/v4.8.0/contracts/access/AccessControl.sol\":2714:2725  interfaceId */\n      dup3\n        /* \"https://github.com/OpenZeppelin/openzeppelin-contracts/blob/v4.8.0/contracts/access/AccessControl.sol\":2714:2761  interfaceId == type(IAccessControl).interfaceId */\n      not(0xffffffffffffffffffffffffffffffffffffffffffffffffffffffff)\n      and\n      eq\n        /* \"https://github.com/OpenZeppelin/openzeppelin-contracts/blob/v4.8.0/contracts/access/AccessControl.sol\":2714:2801  interfaceId == type(IAccessControl).interfaceId || super.supportsInterface(interfaceId) */\n      dup1\n      tag_87\n      jumpi\n      pop\n        /* \"https://github.com/OpenZeppelin/openzeppelin-contracts/blob/v4.8.0/contracts/access/AccessControl.sol\":2765:2801  super.supportsInterface(interfaceId) */\n      tag_88\n        /* \"https://github.com/OpenZeppelin/openzeppelin-contracts/blob/v4.8.0/contracts/access/AccessControl.sol\":2789:2800  interfaceId */\n      dup3\n        /* \"https://github.com/OpenZeppelin/openzeppelin-contracts/blob/v4.8.0/contracts/access/AccessControl.sol\":2765:2788  super.supportsInterface */\n      tag_89\n        /* \"https://github.com/OpenZeppelin/openzeppelin-contracts/blob/v4.8.0/contracts/access/AccessControl.sol\":2765:2801  super.supportsInterface(interfaceId) */\n      jump\t// in\n    tag_88:\n        /* \"https://github.com/OpenZeppelin/openzeppelin-contracts/blob/v4.8.0/contracts/access/AccessControl.sol\":2714:2801  interfaceId == type(IAccessControl).interfaceId || super.supportsInterface(interfaceId) */\n    tag_87:\n        /* \"https://github.com/OpenZeppelin/openzeppelin-contracts/blob/v4.8.0/contracts/access/AccessControl.sol\":2707:2801  return interfaceId == type(IAccessControl).interfaceId || super.supportsInterface(interfaceId) */\n      swap1\n      pop\n        /* \"https://github.com/OpenZeppelin/openzeppelin-contracts/blob/v4.8.0/contracts/access/AccessControl.sol\":2606:2808  function supportsInterface(bytes4 interfaceId) public view virtual override returns (bool) {... */\n      swap2\n      swap1\n      pop\n      jump\t// out\n        /* \"contracts/v2/TikTrixGame.sol\":1967:2084  function isGameExists(uint256 gameSeq) external view returns (bool) {... */\n    tag_31:\n        /* \"contracts/v2/TikTrixGame.sol\":2029:2033  bool */\n      0x00\n        /* \"contracts/v2/TikTrixGame.sol\":2052:2061  gameInfos */\n      0x01\n        /* \"contracts/v2/TikTrixGame.sol\":2052:2070  gameInfos[gameSeq] */\n      0x00\n        /* \"contracts/v2/TikTrixGame.sol\":2062:2069  gameSeq */\n      dup4\n        /* \"contracts/v2/TikTrixGame.sol\":2052:2070  gameInfos[gameSeq] */\n      dup2\n      mstore\n      0x20\n      add\n      swap1\n      dup2\n      mstore\n      0x20\n      add\n      0x00\n      keccak256\n        /* \"contracts/v2/TikTrixGame.sol\":2052:2077  gameInfos[gameSeq].exists */\n      0x02\n      add\n      0x00\n      swap1\n      sload\n      swap1\n      0x0100\n      exp\n      swap1\n      div\n      0xff\n      and\n        /* \"contracts/v2/TikTrixGame.sol\":2045:2077  return gameInfos[gameSeq].exists */\n      swap1\n      pop\n        /* \"contracts/v2/TikTrixGame.sol\":1967:2084  function isGameExists(uint256 gameSeq) external view returns (bool) {... */\n      swap2\n      swap1\n      pop\n      jump\t// out\n        /* \"https://github.com/OpenZeppelin/openzeppelin-contracts/blob/v4.8.0/contracts/access/AccessControl.sol\":4378:4507  function getRoleAdmin(bytes32 role) public view virtual override returns (bytes32) {... */\n    tag_36:\n        /* \"https://github.com/OpenZeppelin/openzeppelin-contracts/blob/v4.8.0/contracts/access/AccessControl.sol\":4452:4459  bytes32 */\n      0x00\n        /* \"https://github.com/OpenZeppelin/openzeppelin-contracts/blob/v4.8.0/contracts/access/AccessControl.sol\":4478:4484  _roles */\n      dup1\n        /* \"https://github.com/OpenZeppelin/openzeppelin-contracts/blob/v4.8.0/contracts/access/AccessControl.sol\":4478:4490  _roles[role] */\n      0x00\n        /* \"https://github.com/OpenZeppelin/openzeppelin-contracts/blob/v4.8.0/contracts/access/AccessControl.sol\":4485:4489  role */\n      dup4\n        /* \"https://github.com/OpenZeppelin/openzeppelin-contracts/blob/v4.8.0/contracts/access/AccessControl.sol\":4478:4490  _roles[role] */\n      dup2\n      mstore\n      0x20\n      add\n      swap1\n      dup2\n      mstore\n      0x20\n      add\n      0x00\n      keccak256\n        /* \"https://github.com/OpenZeppelin/openzeppelin-contracts/blob/v4.8.0/contracts/access/AccessControl.sol\":4478:4500  _roles[role].adminRole */\n      0x01\n      add\n      sload\n        /* \"https://github.com/OpenZeppelin/openzeppelin-contracts/blob/v4.8.0/contracts/access/AccessControl.sol\":4471:4500  return _roles[role].adminRole */\n      swap1\n      pop\n        /* \"https://github.com/OpenZeppelin/openzeppelin-contracts/blob/v4.8.0/contracts/access/AccessControl.sol\":4378:4507  function getRoleAdmin(bytes32 role) public view virtual override returns (bytes32) {... */\n      swap2\n      swap1\n      pop\n      jump\t// out\n        /* \"https://github.com/OpenZeppelin/openzeppelin-contracts/blob/v4.8.0/contracts/access/AccessControl.sol\":4803:4948  function grantRole(bytes32 role, address account) public virtual override onlyRole(getRoleAdmin(role)) {... */\n    tag_42:\n        /* \"https://github.com/OpenZeppelin/openzeppelin-contracts/blob/v4.8.0/contracts/access/AccessControl.sol\":4886:4904  getRoleAdmin(role) */\n      tag_92\n        /* \"https://github.com/OpenZeppelin/openzeppelin-contracts/blob/v4.8.0/contracts/access/AccessControl.sol\":4899:4903  role */\n      dup3\n        /* \"https://github.com/OpenZeppelin/openzeppelin-contracts/blob/v4.8.0/contracts/access/AccessControl.sol\":4886:4898  getRoleAdmin */\n      tag_36\n        /* \"https://github.com/OpenZeppelin/openzeppelin-contracts/blob/v4.8.0/contracts/access/AccessControl.sol\":4886:4904  getRoleAdmin(role) */\n      jump\t// in\n    tag_92:\n        /* \"https://github.com/OpenZeppelin/openzeppelin-contracts/blob/v4.8.0/contracts/access/AccessControl.sol\":2505:2521  _checkRole(role) */\n      tag_94\n        /* \"https://github.com/OpenZeppelin/openzeppelin-contracts/blob/v4.8.0/contracts/access/AccessControl.sol\":2516:2520  role */\n      dup2\n        /* \"https://github.com/OpenZeppelin/openzeppelin-contracts/blob/v4.8.0/contracts/access/AccessControl.sol\":2505:2515  _checkRole */\n      tag_95\n        /* \"https://github.com/OpenZeppelin/openzeppelin-contracts/blob/v4.8.0/contracts/access/AccessControl.sol\":2505:2521  _checkRole(role) */\n      jump\t// in\n    tag_94:\n        /* \"https://github.com/OpenZeppelin/openzeppelin-contracts/blob/v4.8.0/contracts/access/AccessControl.sol\":4916:4941  _grantRole(role, account) */\n      tag_97\n        /* \"https://github.com/OpenZeppelin/openzeppelin-contracts/blob/v4.8.0/contracts/access/AccessControl.sol\":4927:4931  role */\n      dup4\n        /* \"https://github.com/OpenZeppelin/openzeppelin-contracts/blob/v4.8.0/contracts/access/AccessControl.sol\":4933:4940  account */\n      dup4\n        /* \"https://github.com/OpenZeppelin/openzeppelin-contracts/blob/v4.8.0/contracts/access/AccessControl.sol\":4916:4926  _grantRole */\n      tag_98\n        /* \"https://github.com/OpenZeppelin/openzeppelin-contracts/blob/v4.8.0/contracts/access/AccessControl.sol\":4916:4941  _grantRole(role, account) */\n      jump\t// in\n    tag_97:\n        /* \"https://github.com/OpenZeppelin/openzeppelin-contracts/blob/v4.8.0/contracts/access/AccessControl.sol\":4803:4948  function grantRole(bytes32 role, address account) public virtual override onlyRole(getRoleAdmin(role)) {... */\n      pop\n      pop\n      pop\n      jump\t// out\n        /* \"https://github.com/OpenZeppelin/openzeppelin-contracts/blob/v4.8.0/contracts/access/AccessControl.sol\":5912:6126  function renounceRole(bytes32 role, address account) public virtual override {... */\n    tag_45:\n        /* \"https://github.com/OpenZeppelin/openzeppelin-contracts/blob/v4.8.0/contracts/access/AccessControl.sol\":6018:6030  _msgSender() */\n      tag_100\n        /* \"https://github.com/OpenZeppelin/openzeppelin-contracts/blob/v4.8.0/contracts/access/AccessControl.sol\":6018:6028  _msgSender */\n      tag_101\n        /* \"https://github.com/OpenZeppelin/openzeppelin-contracts/blob/v4.8.0/contracts/access/AccessControl.sol\":6018:6030  _msgSender() */\n      jump\t// in\n    tag_100:\n        /* \"https://github.com/OpenZeppelin/openzeppelin-contracts/blob/v4.8.0/contracts/access/AccessControl.sol\":6007:6030  account == _msgSender() */\n      0xffffffffffffffffffffffffffffffffffffffff\n      and\n        /* \"https://github.com/OpenZeppelin/openzeppelin-contracts/blob/v4.8.0/contracts/access/AccessControl.sol\":6007:6014  account */\n      dup2\n        /* \"https://github.com/OpenZeppelin/openzeppelin-contracts/blob/v4.8.0/contracts/access/AccessControl.sol\":6007:6030  account == _msgSender() */\n      0xffffffffffffffffffffffffffffffffffffffff\n      and\n      eq\n        /* \"https://github.com/OpenZeppelin/openzeppelin-contracts/blob/v4.8.0/contracts/access/AccessControl.sol\":5999:6082  require(account == _msgSender(), \"AccessControl: can only renounce roles for self\") */\n      tag_102\n      jumpi\n      mload(0x40)\n      0x08c379a000000000000000000000000000000000000000000000000000000000\n      dup2\n      mstore\n      0x04\n      add\n      tag_103\n      swap1\n      tag_104\n      jump\t// in\n    tag_103:\n      mload(0x40)\n      dup1\n      swap2\n      sub\n      swap1\n      revert\n    tag_102:\n        /* \"https://github.com/OpenZeppelin/openzeppelin-contracts/blob/v4.8.0/contracts/access/AccessControl.sol\":6093:6119  _revokeRole(role, account) */\n      tag_105\n        /* \"https://github.com/OpenZeppelin/openzeppelin-contracts/blob/v4.8.0/contracts/access/AccessControl.sol\":6105:6109  role */\n      dup3\n        /* \"https://github.com/OpenZeppelin/openzeppelin-contracts/blob/v4.8.0/contracts/access/AccessControl.sol\":6111:6118  account */\n      dup3\n        /* \"https://github.com/OpenZeppelin/openzeppelin-contracts/blob/v4.8.0/contracts/access/AccessControl.sol\":6093:6104  _revokeRole */\n      tag_106\n        /* \"https://github.com/OpenZeppelin/openzeppelin-contracts/blob/v4.8.0/contracts/access/AccessControl.sol\":6093:6119  _revokeRole(role, account) */\n      jump\t// in\n    tag_105:\n        /* \"https://github.com/OpenZeppelin/openzeppelin-contracts/blob/v4.8.0/contracts/access/AccessControl.sol\":5912:6126  function renounceRole(bytes32 role, address account) public virtual override {... */\n      pop\n      pop\n      jump\t// out\n        /* \"contracts/v2/TikTrixGame.sol\":1774:1961  function getGameInfo(uint256 gameSeq) external view returns (GameInfo memory) {... */\n    tag_48:\n        /* \"contracts/v2/TikTrixGame.sol\":1835:1850  GameInfo memory */\n      tag_107\n      tag_108\n      jump\t// in\n    tag_107:\n        /* \"contracts/v2/TikTrixGame.sol\":1870:1879  gameInfos */\n      0x01\n        /* \"contracts/v2/TikTrixGame.sol\":1870:1888  gameInfos[gameSeq] */\n      0x00\n        /* \"contracts/v2/TikTrixGame.sol\":1880:1887  gameSeq */\n      dup4\n        /* \"contracts/v2/TikTrixGame.sol\":1870:1888  gameInfos[gameSeq] */\n      dup2\n      mstore\n      0x20\n      add\n      swap1\n      dup2\n      mstore\n      0x20\n      add\n      0x00\n      keccak256\n        /* \"contracts/v2/TikTrixGame.sol\":1870:1895  gameInfos[gameSeq].exists */\n      0x02\n      add\n      0x00\n      swap1\n      sload\n      swap1\n      0x0100\n      exp\n      swap1\n      div\n      0xff\n      and\n        /* \"contracts/v2/TikTrixGame.sol\":1862:1919  require(gameInfos[gameSeq].exists, \"Game does not exist\") */\n      tag_110\n      jumpi\n      mload(0x40)\n      0x08c379a000000000000000000000000000000000000000000000000000000000\n      dup2\n      mstore\n      0x04\n      add\n      tag_111\n      swap1\n      tag_112\n      jump\t// in\n    tag_111:\n      mload(0x40)\n      dup1\n      swap2\n      sub\n      swap1\n      revert\n    tag_110:\n        /* \"contracts/v2/TikTrixGame.sol\":1936:1945  gameInfos */\n      0x01\n        /* \"contracts/v2/TikTrixGame.sol\":1936:1954  gameInfos[gameSeq] */\n      0x00\n        /* \"contracts/v2/TikTrixGame.sol\":1946:1953  gameSeq */\n      dup4\n        /* \"contracts/v2/TikTrixGame.sol\":1936:1954  gameInfos[gameSeq] */\n      dup2\n      mstore\n      0x20\n      add\n      swap1\n      dup2\n      mstore\n      0x20\n      add\n      0x00\n      keccak256\n        /* \"contracts/v2/TikTrixGame.sol\":1929:1954  return gameInfos[gameSeq] */\n      mload(0x40)\n      dup1\n      0x60\n      add\n      0x40\n      mstore\n      swap1\n      dup2\n      0x00\n      dup3\n      add\n      sload\n      dup2\n      mstore\n      0x20\n      add\n      0x01\n      dup3\n      add\n      sload\n      dup2\n      mstore\n      0x20\n      add\n      0x02\n      dup3\n      add\n      0x00\n      swap1\n      sload\n      swap1\n      0x0100\n      exp\n      swap1\n      div\n      0xff\n      and\n      iszero\n      iszero\n      iszero\n      iszero\n      dup2\n      mstore\n      pop\n      pop\n      swap1\n      pop\n        /* \"contracts/v2/TikTrixGame.sol\":1774:1961  function getGameInfo(uint256 gameSeq) external view returns (GameInfo memory) {... */\n      swap2\n      swap1\n      pop\n      jump\t// out\n        /* \"contracts/v2/TikTrixGame.sol\":1374:1551  function gameUpdate(uint256 gameSeq) external onlyRole(ADMIN_ROLE) {... */\n    tag_53:\n        /* \"contracts/v2/TikTrixGame.sol\":362:385  keccak256(\"ADMIN_ROLE\") */\n      0xa49807205ce4d355092ef5a8a18f56e8913cf4a201fbe287825b095693c21775\n        /* \"https://github.com/OpenZeppelin/openzeppelin-contracts/blob/v4.8.0/contracts/access/AccessControl.sol\":2505:2521  _checkRole(role) */\n      tag_114\n        /* \"https://github.com/OpenZeppelin/openzeppelin-contracts/blob/v4.8.0/contracts/access/AccessControl.sol\":2516:2520  role */\n      dup2\n        /* \"https://github.com/OpenZeppelin/openzeppelin-contracts/blob/v4.8.0/contracts/access/AccessControl.sol\":2505:2515  _checkRole */\n      tag_95\n        /* \"https://github.com/OpenZeppelin/openzeppelin-contracts/blob/v4.8.0/contracts/access/AccessControl.sol\":2505:2521  _checkRole(role) */\n      jump\t// in\n    tag_114:\n        /* \"contracts/v2/TikTrixGame.sol\":1459:1468  gameInfos */\n      0x01\n        /* \"contracts/v2/TikTrixGame.sol\":1459:1477  gameInfos[gameSeq] */\n      0x00\n        /* \"contracts/v2/TikTrixGame.sol\":1469:1476  gameSeq */\n      dup4\n        /* \"contracts/v2/TikTrixGame.sol\":1459:1477  gameInfos[gameSeq] */\n      dup2\n      mstore\n      0x20\n      add\n      swap1\n      dup2\n      mstore\n      0x20\n      add\n      0x00\n      keccak256\n        /* \"contracts/v2/TikTrixGame.sol\":1459:1484  gameInfos[gameSeq].exists */\n      0x02\n      add\n      0x00\n      swap1\n      sload\n      swap1\n      0x0100\n      exp\n      swap1\n      div\n      0xff\n      and\n        /* \"contracts/v2/TikTrixGame.sol\":1451:1508  require(gameInfos[gameSeq].exists, \"Game does not exist\") */\n      tag_116\n      jumpi\n      mload(0x40)\n      0x08c379a000000000000000000000000000000000000000000000000000000000\n      dup2\n      mstore\n      0x04\n      add\n      tag_117\n      swap1\n      tag_112\n      jump\t// in\n    tag_117:\n      mload(0x40)\n      dup1\n      swap2\n      sub\n      swap1\n      revert\n    tag_116:\n        /* \"contracts/v2/TikTrixGame.sol\":1524:1544  GameUpdated(gameSeq) */\n      0x8da554679ce754233202e83b51aefa8be576e0a49851a9ddd4686dfd94ba6093\n        /* \"contracts/v2/TikTrixGame.sol\":1536:1543  gameSeq */\n      dup3\n        /* \"contracts/v2/TikTrixGame.sol\":1524:1544  GameUpdated(gameSeq) */\n      mload(0x40)\n      tag_118\n      swap2\n      swap1\n      tag_119\n      jump\t// in\n    tag_118:\n      mload(0x40)\n      dup1\n      swap2\n      sub\n      swap1\n      log1\n        /* \"contracts/v2/TikTrixGame.sol\":1374:1551  function gameUpdate(uint256 gameSeq) external onlyRole(ADMIN_ROLE) {... */\n      pop\n      pop\n      jump\t// out\n        /* \"contracts/v2/TikTrixGame.sol\":325:385  bytes32 public constant ADMIN_ROLE = keccak256(\"ADMIN_ROLE\") */\n    tag_55:\n        /* \"contracts/v2/TikTrixGame.sol\":362:385  keccak256(\"ADMIN_ROLE\") */\n      0xa49807205ce4d355092ef5a8a18f56e8913cf4a201fbe287825b095693c21775\n        /* \"contracts/v2/TikTrixGame.sol\":325:385  bytes32 public constant ADMIN_ROLE = keccak256(\"ADMIN_ROLE\") */\n      dup2\n      jump\t// out\n        /* \"contracts/v2/TikTrixGame.sol\":494:539  mapping(uint256 => GameInfo) public gameInfos */\n    tag_59:\n      mstore(0x20, 0x01)\n      dup1\n      0x00\n      mstore\n      keccak256(0x00, 0x40)\n      0x00\n      swap2\n      pop\n      swap1\n      pop\n      dup1\n      0x00\n      add\n      sload\n      swap1\n      dup1\n      0x01\n      add\n      sload\n      swap1\n      dup1\n      0x02\n      add\n      0x00\n      swap1\n      sload\n      swap1\n      0x0100\n      exp\n      swap1\n      div\n      0xff\n      and\n      swap1\n      pop\n      dup4\n      jump\t// out\n        /* \"contracts/v2/TikTrixGame.sol\":1557:1768  function gameDelete(uint256 gameSeq) external onlyRole(ADMIN_ROLE) {... */\n    tag_64:\n        /* \"contracts/v2/TikTrixGame.sol\":362:385  keccak256(\"ADMIN_ROLE\") */\n      0xa49807205ce4d355092ef5a8a18f56e8913cf4a201fbe287825b095693c21775\n        /* \"https://github.com/OpenZeppelin/openzeppelin-contracts/blob/v4.8.0/contracts/access/AccessControl.sol\":2505:2521  _checkRole(role) */\n      tag_121\n        /* \"https://github.com/OpenZeppelin/openzeppelin-contracts/blob/v4.8.0/contracts/access/AccessControl.sol\":2516:2520  role */\n      dup2\n        /* \"https://github.com/OpenZeppelin/openzeppelin-contracts/blob/v4.8.0/contracts/access/AccessControl.sol\":2505:2515  _checkRole */\n      tag_95\n        /* \"https://github.com/OpenZeppelin/openzeppelin-contracts/blob/v4.8.0/contracts/access/AccessControl.sol\":2505:2521  _checkRole(role) */\n      jump\t// in\n    tag_121:\n        /* \"contracts/v2/TikTrixGame.sol\":1642:1651  gameInfos */\n      0x01\n        /* \"contracts/v2/TikTrixGame.sol\":1642:1660  gameInfos[gameSeq] */\n      0x00\n        /* \"contracts/v2/TikTrixGame.sol\":1652:1659  gameSeq */\n      dup4\n        /* \"contracts/v2/TikTrixGame.sol\":1642:1660  gameInfos[gameSeq] */\n      dup2\n      mstore\n      0x20\n      add\n      swap1\n      dup2\n      mstore\n      0x20\n      add\n      0x00\n      keccak256\n        /* \"contracts/v2/TikTrixGame.sol\":1642:1667  gameInfos[gameSeq].exists */\n      0x02\n      add\n      0x00\n      swap1\n      sload\n      swap1\n      0x0100\n      exp\n      swap1\n      div\n      0xff\n      and\n        /* \"contracts/v2/TikTrixGame.sol\":1634:1691  require(gameInfos[gameSeq].exists, \"Game does not exist\") */\n      tag_123\n      jumpi\n      mload(0x40)\n      0x08c379a000000000000000000000000000000000000000000000000000000000\n      dup2\n      mstore\n      0x04\n      add\n      tag_124\n      swap1\n      tag_112\n      jump\t// in\n    tag_124:\n      mload(0x40)\n      dup1\n      swap2\n      sub\n      swap1\n      revert\n    tag_123:\n        /* \"contracts/v2/TikTrixGame.sol\":1708:1717  gameInfos */\n      0x01\n        /* \"contracts/v2/TikTrixGame.sol\":1708:1726  gameInfos[gameSeq] */\n      0x00\n        /* \"contracts/v2/TikTrixGame.sol\":1718:1725  gameSeq */\n      dup4\n        /* \"contracts/v2/TikTrixGame.sol\":1708:1726  gameInfos[gameSeq] */\n      dup2\n      mstore\n      0x20\n      add\n      swap1\n      dup2\n      mstore\n      0x20\n      add\n      0x00\n      keccak256\n      0x00\n        /* \"contracts/v2/TikTrixGame.sol\":1701:1726  delete gameInfos[gameSeq] */\n      dup1\n      dup3\n      add\n      0x00\n      swap1\n      sstore\n      0x01\n      dup3\n      add\n      0x00\n      swap1\n      sstore\n      0x02\n      dup3\n      add\n      exp(0x0100, 0x00)\n      dup2\n      sload\n      swap1\n      0xff\n      mul\n      not\n      and\n      swap1\n      sstore\n      pop\n      pop\n        /* \"contracts/v2/TikTrixGame.sol\":1753:1760  gameSeq */\n      dup2\n        /* \"contracts/v2/TikTrixGame.sol\":1741:1761  GameDeleted(gameSeq) */\n      0x5ef6221cc1c069a8c723210c08d526c7ca88540ee8d66470cf01844efaae0b94\n      mload(0x40)\n      mload(0x40)\n      dup1\n      swap2\n      sub\n      swap1\n      log2\n        /* \"contracts/v2/TikTrixGame.sol\":1557:1768  function gameDelete(uint256 gameSeq) external onlyRole(ADMIN_ROLE) {... */\n      pop\n      pop\n      jump\t// out\n        /* \"https://github.com/OpenZeppelin/openzeppelin-contracts/blob/v4.8.0/contracts/access/AccessControl.sol\":2895:3040  function hasRole(bytes32 role, address account) public view virtual override returns (bool) {... */\n    tag_67:\n        /* \"https://github.com/OpenZeppelin/openzeppelin-contracts/blob/v4.8.0/contracts/access/AccessControl.sol\":2981:2985  bool */\n      0x00\n        /* \"https://github.com/OpenZeppelin/openzeppelin-contracts/blob/v4.8.0/contracts/access/AccessControl.sol\":3004:3010  _roles */\n      dup1\n        /* \"https://github.com/OpenZeppelin/openzeppelin-contracts/blob/v4.8.0/contracts/access/AccessControl.sol\":3004:3016  _roles[role] */\n      0x00\n        /* \"https://github.com/OpenZeppelin/openzeppelin-contracts/blob/v4.8.0/contracts/access/AccessControl.sol\":3011:3015  role */\n      dup5\n        /* \"https://github.com/OpenZeppelin/openzeppelin-contracts/blob/v4.8.0/contracts/access/AccessControl.sol\":3004:3016  _roles[role] */\n      dup2\n      mstore\n      0x20\n      add\n      swap1\n      dup2\n      mstore\n      0x20\n      add\n      0x00\n      keccak256\n        /* \"https://github.com/OpenZeppelin/openzeppelin-contracts/blob/v4.8.0/contracts/access/AccessControl.sol\":3004:3024  _roles[role].members */\n      0x00\n      add\n        /* \"https://github.com/OpenZeppelin/openzeppelin-contracts/blob/v4.8.0/contracts/access/AccessControl.sol\":3004:3033  _roles[role].members[account] */\n      0x00\n        /* \"https://github.com/OpenZeppelin/openzeppelin-contracts/blob/v4.8.0/contracts/access/AccessControl.sol\":3025:3032  account */\n      dup4\n        /* \"https://github.com/OpenZeppelin/openzeppelin-contracts/blob/v4.8.0/contracts/access/AccessControl.sol\":3004:3033  _roles[role].members[account] */\n      0xffffffffffffffffffffffffffffffffffffffff\n      and\n      0xffffffffffffffffffffffffffffffffffffffff\n      and\n      dup2\n      mstore\n      0x20\n      add\n      swap1\n      dup2\n      mstore\n      0x20\n      add\n      0x00\n      keccak256\n      0x00\n      swap1\n      sload\n      swap1\n      0x0100\n      exp\n      swap1\n      div\n      0xff\n      and\n        /* \"https://github.com/OpenZeppelin/openzeppelin-contracts/blob/v4.8.0/contracts/access/AccessControl.sol\":2997:3033  return _roles[role].members[account] */\n      swap1\n      pop\n        /* \"https://github.com/OpenZeppelin/openzeppelin-contracts/blob/v4.8.0/contracts/access/AccessControl.sol\":2895:3040  function hasRole(bytes32 role, address account) public view virtual override returns (bool) {... */\n      swap3\n      swap2\n      pop\n      pop\n      jump\t// out\n        /* \"contracts/v2/TikTrixGame.sol\":950:1076  function revokeAdminRole(address account) public onlyRole(DEFAULT_ADMIN_ROLE) {... */\n    tag_72:\n        /* \"https://github.com/OpenZeppelin/openzeppelin-contracts/blob/v4.8.0/contracts/access/AccessControl.sol\":2072:2076  0x00 */\n      0x00\n        /* \"contracts/v2/TikTrixGame.sol\":1008:1026  DEFAULT_ADMIN_ROLE */\n      dup1\n      shl\n        /* \"https://github.com/OpenZeppelin/openzeppelin-contracts/blob/v4.8.0/contracts/access/AccessControl.sol\":2505:2521  _checkRole(role) */\n      tag_127\n        /* \"https://github.com/OpenZeppelin/openzeppelin-contracts/blob/v4.8.0/contracts/access/AccessControl.sol\":2516:2520  role */\n      dup2\n        /* \"https://github.com/OpenZeppelin/openzeppelin-contracts/blob/v4.8.0/contracts/access/AccessControl.sol\":2505:2515  _checkRole */\n      tag_95\n        /* \"https://github.com/OpenZeppelin/openzeppelin-contracts/blob/v4.8.0/contracts/access/AccessControl.sol\":2505:2521  _checkRole(role) */\n      jump\t// in\n    tag_127:\n        /* \"contracts/v2/TikTrixGame.sol\":1038:1069  revokeRole(ADMIN_ROLE, account) */\n      tag_129\n        /* \"contracts/v2/TikTrixGame.sol\":362:385  keccak256(\"ADMIN_ROLE\") */\n      0xa49807205ce4d355092ef5a8a18f56e8913cf4a201fbe287825b095693c21775\n        /* \"contracts/v2/TikTrixGame.sol\":1061:1068  account */\n      dup4\n        /* \"contracts/v2/TikTrixGame.sol\":1038:1048  revokeRole */\n      tag_85\n        /* \"contracts/v2/TikTrixGame.sol\":1038:1069  revokeRole(ADMIN_ROLE, account) */\n      jump\t// in\n    tag_129:\n        /* \"contracts/v2/TikTrixGame.sol\":950:1076  function revokeAdminRole(address account) public onlyRole(DEFAULT_ADMIN_ROLE) {... */\n      pop\n      pop\n      jump\t// out\n        /* \"https://github.com/OpenZeppelin/openzeppelin-contracts/blob/v4.8.0/contracts/access/AccessControl.sol\":2027:2076  bytes32 public constant DEFAULT_ADMIN_ROLE = 0x00 */\n    tag_74:\n        /* \"https://github.com/OpenZeppelin/openzeppelin-contracts/blob/v4.8.0/contracts/access/AccessControl.sol\":2072:2076  0x00 */\n      0x00\n        /* \"https://github.com/OpenZeppelin/openzeppelin-contracts/blob/v4.8.0/contracts/access/AccessControl.sol\":2027:2076  bytes32 public constant DEFAULT_ADMIN_ROLE = 0x00 */\n      dup1\n      shl\n      dup2\n      jump\t// out\n        /* \"contracts/v2/TikTrixGame.sol\":1082:1368  function gameRegister(uint256 gameSeq, uint256 memberSeq) external onlyRole(ADMIN_ROLE) {... */\n    tag_79:\n        /* \"contracts/v2/TikTrixGame.sol\":362:385  keccak256(\"ADMIN_ROLE\") */\n      0xa49807205ce4d355092ef5a8a18f56e8913cf4a201fbe287825b095693c21775\n        /* \"https://github.com/OpenZeppelin/openzeppelin-contracts/blob/v4.8.0/contracts/access/AccessControl.sol\":2505:2521  _checkRole(role) */\n      tag_131\n        /* \"https://github.com/OpenZeppelin/openzeppelin-contracts/blob/v4.8.0/contracts/access/AccessControl.sol\":2516:2520  role */\n      dup2\n        /* \"https://github.com/OpenZeppelin/openzeppelin-contracts/blob/v4.8.0/contracts/access/AccessControl.sol\":2505:2515  _checkRole */\n      tag_95\n        /* \"https://github.com/OpenZeppelin/openzeppelin-contracts/blob/v4.8.0/contracts/access/AccessControl.sol\":2505:2521  _checkRole(role) */\n      jump\t// in\n    tag_131:\n        /* \"contracts/v2/TikTrixGame.sol\":1201:1311  GameInfo({... */\n      mload(0x40)\n      dup1\n      0x60\n      add\n      0x40\n      mstore\n      dup1\n        /* \"contracts/v2/TikTrixGame.sol\":1233:1240  gameSeq */\n      dup5\n        /* \"contracts/v2/TikTrixGame.sol\":1201:1311  GameInfo({... */\n      dup2\n      mstore\n      0x20\n      add\n        /* \"contracts/v2/TikTrixGame.sol\":1265:1274  memberSeq */\n      dup4\n        /* \"contracts/v2/TikTrixGame.sol\":1201:1311  GameInfo({... */\n      dup2\n      mstore\n      0x20\n      add\n        /* \"contracts/v2/TikTrixGame.sol\":1296:1300  true */\n      0x01\n        /* \"contracts/v2/TikTrixGame.sol\":1201:1311  GameInfo({... */\n      iszero\n      iszero\n      dup2\n      mstore\n      pop\n        /* \"contracts/v2/TikTrixGame.sol\":1180:1189  gameInfos */\n      0x01\n        /* \"contracts/v2/TikTrixGame.sol\":1180:1198  gameInfos[gameSeq] */\n      0x00\n        /* \"contracts/v2/TikTrixGame.sol\":1190:1197  gameSeq */\n      dup6\n        /* \"contracts/v2/TikTrixGame.sol\":1180:1198  gameInfos[gameSeq] */\n      dup2\n      mstore\n      0x20\n      add\n      swap1\n      dup2\n      mstore\n      0x20\n      add\n      0x00\n      keccak256\n        /* \"contracts/v2/TikTrixGame.sol\":1180:1311  gameInfos[gameSeq] = GameInfo({... */\n      0x00\n      dup3\n      add\n      mload\n      dup2\n      0x00\n      add\n      sstore\n      0x20\n      dup3\n      add\n      mload\n      dup2\n      0x01\n      add\n      sstore\n      0x40\n      dup3\n      add\n      mload\n      dup2\n      0x02\n      add\n      exp(0x0100, 0x00)\n      dup2\n      sload\n      dup2\n      0xff\n      mul\n      not\n      and\n      swap1\n      dup4\n      iszero\n      iszero\n      mul\n      or\n      swap1\n      sstore\n      pop\n      swap1\n      pop\n      pop\n        /* \"contracts/v2/TikTrixGame.sol\":1327:1361  GameRegistered(gameSeq, memberSeq) */\n      0xeeb0a161eda325cefb3f550c18e560490ea78827e2a4c3a9fa9c5e66ce871c3f\n        /* \"contracts/v2/TikTrixGame.sol\":1342:1349  gameSeq */\n      dup4\n        /* \"contracts/v2/TikTrixGame.sol\":1351:1360  memberSeq */\n      dup4\n        /* \"contracts/v2/TikTrixGame.sol\":1327:1361  GameRegistered(gameSeq, memberSeq) */\n      mload(0x40)\n      tag_133\n      swap3\n      swap2\n      swap1\n      tag_134\n      jump\t// in\n    tag_133:\n      mload(0x40)\n      dup1\n      swap2\n      sub\n      swap1\n      log1\n        /* \"contracts/v2/TikTrixGame.sol\":1082:1368  function gameRegister(uint256 gameSeq, uint256 memberSeq) external onlyRole(ADMIN_ROLE) {... */\n      pop\n      pop\n      pop\n      jump\t// out\n        /* \"contracts/v2/TikTrixGame.sol\":820:944  function grantAdminRole(address account) public onlyRole(DEFAULT_ADMIN_ROLE) {... */\n    tag_82:\n        /* \"https://github.com/OpenZeppelin/openzeppelin-contracts/blob/v4.8.0/contracts/access/AccessControl.sol\":2072:2076  0x00 */\n      0x00\n        /* \"contracts/v2/TikTrixGame.sol\":877:895  DEFAULT_ADMIN_ROLE */\n      dup1\n      shl\n        /* \"https://github.com/OpenZeppelin/openzeppelin-contracts/blob/v4.8.0/contracts/access/AccessControl.sol\":2505:2521  _checkRole(role) */\n      tag_136\n        /* \"https://github.com/OpenZeppelin/openzeppelin-contracts/blob/v4.8.0/contracts/access/AccessControl.sol\":2516:2520  role */\n      dup2\n        /* \"https://github.com/OpenZeppelin/openzeppelin-contracts/blob/v4.8.0/contracts/access/AccessControl.sol\":2505:2515  _checkRole */\n      tag_95\n        /* \"https://github.com/OpenZeppelin/openzeppelin-contracts/blob/v4.8.0/contracts/access/AccessControl.sol\":2505:2521  _checkRole(role) */\n      jump\t// in\n    tag_136:\n        /* \"contracts/v2/TikTrixGame.sol\":907:937  grantRole(ADMIN_ROLE, account) */\n      tag_138\n        /* \"contracts/v2/TikTrixGame.sol\":362:385  keccak256(\"ADMIN_ROLE\") */\n      0xa49807205ce4d355092ef5a8a18f56e8913cf4a201fbe287825b095693c21775\n        /* \"contracts/v2/TikTrixGame.sol\":929:936  account */\n      dup4\n        /* \"contracts/v2/TikTrixGame.sol\":907:916  grantRole */\n      tag_42\n        /* \"contracts/v2/TikTrixGame.sol\":907:937  grantRole(ADMIN_ROLE, account) */\n      jump\t// in\n    tag_138:\n        /* \"contracts/v2/TikTrixGame.sol\":820:944  function grantAdminRole(address account) public onlyRole(DEFAULT_ADMIN_ROLE) {... */\n      pop\n      pop\n      jump\t// out\n        /* \"https://github.com/OpenZeppelin/openzeppelin-contracts/blob/v4.8.0/contracts/access/AccessControl.sol\":5228:5375  function revokeRole(bytes32 role, address account) public virtual override onlyRole(getRoleAdmin(role)) {... */\n    tag_85:\n        /* \"https://github.com/OpenZeppelin/openzeppelin-contracts/blob/v4.8.0/contracts/access/AccessControl.sol\":5312:5330  getRoleAdmin(role) */\n      tag_139\n        /* \"https://github.com/OpenZeppelin/openzeppelin-contracts/blob/v4.8.0/contracts/access/AccessControl.sol\":5325:5329  role */\n      dup3\n        /* \"https://github.com/OpenZeppelin/openzeppelin-contracts/blob/v4.8.0/contracts/access/AccessControl.sol\":5312:5324  getRoleAdmin */\n      tag_36\n        /* \"https://github.com/OpenZeppelin/openzeppelin-contracts/blob/v4.8.0/contracts/access/AccessControl.sol\":5312:5330  getRoleAdmin(role) */\n      jump\t// in\n    tag_139:\n        /* \"https://github.com/OpenZeppelin/openzeppelin-contracts/blob/v4.8.0/contracts/access/AccessControl.sol\":2505:2521  _checkRole(role) */\n      tag_141\n        /* \"https://github.com/OpenZeppelin/openzeppelin-contracts/blob/v4.8.0/contracts/access/AccessControl.sol\":2516:2520  role */\n      dup2\n        /* \"https://github.com/OpenZeppelin/openzeppelin-contracts/blob/v4.8.0/contracts/access/AccessControl.sol\":2505:2515  _checkRole */\n      tag_95\n        /* \"https://github.com/OpenZeppelin/openzeppelin-contracts/blob/v4.8.0/contracts/access/AccessControl.sol\":2505:2521  _checkRole(role) */\n      jump\t// in\n    tag_141:\n        /* \"https://github.com/OpenZeppelin/openzeppelin-contracts/blob/v4.8.0/contracts/access/AccessControl.sol\":5342:5368  _revokeRole(role, account) */\n      tag_143\n        /* \"https://github.com/OpenZeppelin/openzeppelin-contracts/blob/v4.8.0/contracts/access/AccessControl.sol\":5354:5358  role */\n      dup4\n        /* \"https://github.com/OpenZeppelin/openzeppelin-contracts/blob/v4.8.0/contracts/access/AccessControl.sol\":5360:5367  account */\n      dup4\n        /* \"https://github.com/OpenZeppelin/openzeppelin-contracts/blob/v4.8.0/contracts/access/AccessControl.sol\":5342:5353  _revokeRole */\n      tag_106\n        /* \"https://github.com/OpenZeppelin/openzeppelin-contracts/blob/v4.8.0/contracts/access/AccessControl.sol\":5342:5368  _revokeRole(role, account) */\n      jump\t// in\n    tag_143:\n        /* \"https://github.com/OpenZeppelin/openzeppelin-contracts/blob/v4.8.0/contracts/access/AccessControl.sol\":5228:5375  function revokeRole(bytes32 role, address account) public virtual override onlyRole(getRoleAdmin(role)) {... */\n      pop\n      pop\n      pop\n      jump\t// out\n        /* \"https://github.com/OpenZeppelin/openzeppelin-contracts/blob/v4.8.0/contracts/utils/introspection/ERC165.sol\":829:984  function supportsInterface(bytes4 interfaceId) public view virtual override returns (bool) {... */\n    tag_89:\n        /* \"https://github.com/OpenZeppelin/openzeppelin-contracts/blob/v4.8.0/contracts/utils/introspection/ERC165.sol\":914:918  bool */\n      0x00\n        /* \"https://github.com/OpenZeppelin/openzeppelin-contracts/blob/v4.8.0/contracts/utils/introspection/ERC165.sol\":952:977  type(IERC165).interfaceId */\n      0x01ffc9a700000000000000000000000000000000000000000000000000000000\n        /* \"https://github.com/OpenZeppelin/openzeppelin-contracts/blob/v4.8.0/contracts/utils/introspection/ERC165.sol\":937:977  interfaceId == type(IERC165).interfaceId */\n      not(0xffffffffffffffffffffffffffffffffffffffffffffffffffffffff)\n      and\n        /* \"https://github.com/OpenZeppelin/openzeppelin-contracts/blob/v4.8.0/contracts/utils/introspection/ERC165.sol\":937:948  interfaceId */\n      dup3\n        /* \"https://github.com/OpenZeppelin/openzeppelin-contracts/blob/v4.8.0/contracts/utils/introspection/ERC165.sol\":937:977  interfaceId == type(IERC165).interfaceId */\n      not(0xffffffffffffffffffffffffffffffffffffffffffffffffffffffff)\n      and\n      eq\n        /* \"https://github.com/OpenZeppelin/openzeppelin-contracts/blob/v4.8.0/contracts/utils/introspection/ERC165.sol\":930:977  return interfaceId == type(IERC165).interfaceId */\n      swap1\n      pop\n        /* \"https://github.com/OpenZeppelin/openzeppelin-contracts/blob/v4.8.0/contracts/utils/introspection/ERC165.sol\":829:984  function supportsInterface(bytes4 interfaceId) public view virtual override returns (bool) {... */\n      swap2\n      swap1\n      pop\n      jump\t// out\n        /* \"https://github.com/OpenZeppelin/openzeppelin-contracts/blob/v4.8.0/contracts/access/AccessControl.sol\":3334:3437  function _checkRole(bytes32 role) internal view virtual {... */\n    tag_95:\n        /* \"https://github.com/OpenZeppelin/openzeppelin-contracts/blob/v4.8.0/contracts/access/AccessControl.sol\":3400:3430  _checkRole(role, _msgSender()) */\n      tag_146\n        /* \"https://github.com/OpenZeppelin/openzeppelin-contracts/blob/v4.8.0/contracts/access/AccessControl.sol\":3411:3415  role */\n      dup2\n        /* \"https://github.com/OpenZeppelin/openzeppelin-contracts/blob/v4.8.0/contracts/access/AccessControl.sol\":3417:3429  _msgSender() */\n      tag_147\n        /* \"https://github.com/OpenZeppelin/openzeppelin-contracts/blob/v4.8.0/contracts/access/AccessControl.sol\":3417:3427  _msgSender */\n      tag_101\n        /* \"https://github.com/OpenZeppelin/openzeppelin-contracts/blob/v4.8.0/contracts/access/AccessControl.sol\":3417:3429  _msgSender() */\n      jump\t// in\n    tag_147:\n        /* \"https://github.com/OpenZeppelin/openzeppelin-contracts/blob/v4.8.0/contracts/access/AccessControl.sol\":3400:3410  _checkRole */\n      tag_148\n        /* \"https://github.com/OpenZeppelin/openzeppelin-contracts/blob/v4.8.0/contracts/access/AccessControl.sol\":3400:3430  _checkRole(role, _msgSender()) */\n      jump\t// in\n    tag_146:\n        /* \"https://github.com/OpenZeppelin/openzeppelin-contracts/blob/v4.8.0/contracts/access/AccessControl.sol\":3334:3437  function _checkRole(bytes32 role) internal view virtual {... */\n      pop\n      jump\t// out\n        /* \"https://github.com/OpenZeppelin/openzeppelin-contracts/blob/v4.8.0/contracts/access/AccessControl.sol\":7461:7694  function _grantRole(bytes32 role, address account) internal virtual {... */\n    tag_98:\n        /* \"https://github.com/OpenZeppelin/openzeppelin-contracts/blob/v4.8.0/contracts/access/AccessControl.sol\":7544:7566  hasRole(role, account) */\n      tag_150\n        /* \"https://github.com/OpenZeppelin/openzeppelin-contracts/blob/v4.8.0/contracts/access/AccessControl.sol\":7552:7556  role */\n      dup3\n        /* \"https://github.com/OpenZeppelin/openzeppelin-contracts/blob/v4.8.0/contracts/access/AccessControl.sol\":7558:7565  account */\n      dup3\n        /* \"https://github.com/OpenZeppelin/openzeppelin-contracts/blob/v4.8.0/contracts/access/AccessControl.sol\":7544:7551  hasRole */\n      tag_67\n        /* \"https://github.com/OpenZeppelin/openzeppelin-contracts/blob/v4.8.0/contracts/access/AccessControl.sol\":7544:7566  hasRole(role, account) */\n      jump\t// in\n    tag_150:\n        /* \"https://github.com/OpenZeppelin/openzeppelin-contracts/blob/v4.8.0/contracts/access/AccessControl.sol\":7539:7688  if (!hasRole(role, account)) {... */\n      tag_151\n      jumpi\n        /* \"https://github.com/OpenZeppelin/openzeppelin-contracts/blob/v4.8.0/contracts/access/AccessControl.sol\":7614:7618  true */\n      0x01\n        /* \"https://github.com/OpenZeppelin/openzeppelin-contracts/blob/v4.8.0/contracts/access/AccessControl.sol\":7582:7588  _roles */\n      0x00\n        /* \"https://github.com/OpenZeppelin/openzeppelin-contracts/blob/v4.8.0/contracts/access/AccessControl.sol\":7582:7594  _roles[role] */\n      dup1\n        /* \"https://github.com/OpenZeppelin/openzeppelin-contracts/blob/v4.8.0/contracts/access/AccessControl.sol\":7589:7593  role */\n      dup5\n        /* \"https://github.com/OpenZeppelin/openzeppelin-contracts/blob/v4.8.0/contracts/access/AccessControl.sol\":7582:7594  _roles[role] */\n      dup2\n      mstore\n      0x20\n      add\n      swap1\n      dup2\n      mstore\n      0x20\n      add\n      0x00\n      keccak256\n        /* \"https://github.com/OpenZeppelin/openzeppelin-contracts/blob/v4.8.0/contracts/access/AccessControl.sol\":7582:7602  _roles[role].members */\n      0x00\n      add\n        /* \"https://github.com/OpenZeppelin/openzeppelin-contracts/blob/v4.8.0/contracts/access/AccessControl.sol\":7582:7611  _roles[role].members[account] */\n      0x00\n        /* \"https://github.com/OpenZeppelin/openzeppelin-contracts/blob/v4.8.0/contracts/access/AccessControl.sol\":7603:7610  account */\n      dup4\n        /* \"https://github.com/OpenZeppelin/openzeppelin-contracts/blob/v4.8.0/contracts/access/AccessControl.sol\":7582:7611  _roles[role].members[account] */\n      0xffffffffffffffffffffffffffffffffffffffff\n      and\n      0xffffffffffffffffffffffffffffffffffffffff\n      and\n      dup2\n      mstore\n      0x20\n      add\n      swap1\n      dup2\n      mstore\n      0x20\n      add\n      0x00\n      keccak256\n      0x00\n        /* \"https://github.com/OpenZeppelin/openzeppelin-contracts/blob/v4.8.0/contracts/access/AccessControl.sol\":7582:7618  _roles[role].members[account] = true */\n      0x0100\n      exp\n      dup2\n      sload\n      dup2\n      0xff\n      mul\n      not\n      and\n      swap1\n      dup4\n      iszero\n      iszero\n      mul\n      or\n      swap1\n      sstore\n      pop\n        /* \"https://github.com/OpenZeppelin/openzeppelin-contracts/blob/v4.8.0/contracts/access/AccessControl.sol\":7664:7676  _msgSender() */\n      tag_152\n        /* \"https://github.com/OpenZeppelin/openzeppelin-contracts/blob/v4.8.0/contracts/access/AccessControl.sol\":7664:7674  _msgSender */\n      tag_101\n        /* \"https://github.com/OpenZeppelin/openzeppelin-contracts/blob/v4.8.0/contracts/access/AccessControl.sol\":7664:7676  _msgSender() */\n      jump\t// in\n    tag_152:\n        /* \"https://github.com/OpenZeppelin/openzeppelin-contracts/blob/v4.8.0/contracts/access/AccessControl.sol\":7637:7677  RoleGranted(role, account, _msgSender()) */\n      0xffffffffffffffffffffffffffffffffffffffff\n      and\n        /* \"https://github.com/OpenZeppelin/openzeppelin-contracts/blob/v4.8.0/contracts/access/AccessControl.sol\":7655:7662  account */\n      dup2\n        /* \"https://github.com/OpenZeppelin/openzeppelin-contracts/blob/v4.8.0/contracts/access/AccessControl.sol\":7637:7677  RoleGranted(role, account, _msgSender()) */\n      0xffffffffffffffffffffffffffffffffffffffff\n      and\n        /* \"https://github.com/OpenZeppelin/openzeppelin-contracts/blob/v4.8.0/contracts/access/AccessControl.sol\":7649:7653  role */\n      dup4\n        /* \"https://github.com/OpenZeppelin/openzeppelin-contracts/blob/v4.8.0/contracts/access/AccessControl.sol\":7637:7677  RoleGranted(role, account, _msgSender()) */\n      0x2f8788117e7eff1d82e926ec794901d17c78024a50270940304540a733656f0d\n      mload(0x40)\n      mload(0x40)\n      dup1\n      swap2\n      sub\n      swap1\n      log4\n        /* \"https://github.com/OpenZeppelin/openzeppelin-contracts/blob/v4.8.0/contracts/access/AccessControl.sol\":7539:7688  if (!hasRole(role, account)) {... */\n    tag_151:\n        /* \"https://github.com/OpenZeppelin/openzeppelin-contracts/blob/v4.8.0/contracts/access/AccessControl.sol\":7461:7694  function _grantRole(bytes32 role, address account) internal virtual {... */\n      pop\n      pop\n      jump\t// out\n        /* \"https://github.com/OpenZeppelin/openzeppelin-contracts/blob/v4.8.0/contracts/utils/Context.sol\":640:736  function _msgSender() internal view virtual returns (address) {... */\n    tag_101:\n        /* \"https://github.com/OpenZeppelin/openzeppelin-contracts/blob/v4.8.0/contracts/utils/Context.sol\":693:700  address */\n      0x00\n        /* \"https://github.com/OpenZeppelin/openzeppelin-contracts/blob/v4.8.0/contracts/utils/Context.sol\":719:729  msg.sender */\n      caller\n        /* \"https://github.com/OpenZeppelin/openzeppelin-contracts/blob/v4.8.0/contracts/utils/Context.sol\":712:729  return msg.sender */\n      swap1\n      pop\n        /* \"https://github.com/OpenZeppelin/openzeppelin-contracts/blob/v4.8.0/contracts/utils/Context.sol\":640:736  function _msgSender() internal view virtual returns (address) {... */\n      swap1\n      jump\t// out\n        /* \"https://github.com/OpenZeppelin/openzeppelin-contracts/blob/v4.8.0/contracts/access/AccessControl.sol\":7865:8099  function _revokeRole(bytes32 role, address account) internal virtual {... */\n    tag_106:\n        /* \"https://github.com/OpenZeppelin/openzeppelin-contracts/blob/v4.8.0/contracts/access/AccessControl.sol\":7948:7970  hasRole(role, account) */\n      tag_155\n        /* \"https://github.com/OpenZeppelin/openzeppelin-contracts/blob/v4.8.0/contracts/access/AccessControl.sol\":7956:7960  role */\n      dup3\n        /* \"https://github.com/OpenZeppelin/openzeppelin-contracts/blob/v4.8.0/contracts/access/AccessControl.sol\":7962:7969  account */\n      dup3\n        /* \"https://github.com/OpenZeppelin/openzeppelin-contracts/blob/v4.8.0/contracts/access/AccessControl.sol\":7948:7955  hasRole */\n      tag_67\n        /* \"https://github.com/OpenZeppelin/openzeppelin-contracts/blob/v4.8.0/contracts/access/AccessControl.sol\":7948:7970  hasRole(role, account) */\n      jump\t// in\n    tag_155:\n        /* \"https://github.com/OpenZeppelin/openzeppelin-contracts/blob/v4.8.0/contracts/access/AccessControl.sol\":7944:8093  if (hasRole(role, account)) {... */\n      iszero\n      tag_156\n      jumpi\n        /* \"https://github.com/OpenZeppelin/openzeppelin-contracts/blob/v4.8.0/contracts/access/AccessControl.sol\":8018:8023  false */\n      0x00\n        /* \"https://github.com/OpenZeppelin/openzeppelin-contracts/blob/v4.8.0/contracts/access/AccessControl.sol\":7986:7992  _roles */\n      dup1\n        /* \"https://github.com/OpenZeppelin/openzeppelin-contracts/blob/v4.8.0/contracts/access/AccessControl.sol\":7986:7998  _roles[role] */\n      0x00\n        /* \"https://github.com/OpenZeppelin/openzeppelin-contracts/blob/v4.8.0/contracts/access/AccessControl.sol\":7993:7997  role */\n      dup5\n        /* \"https://github.com/OpenZeppelin/openzeppelin-contracts/blob/v4.8.0/contracts/access/AccessControl.sol\":7986:7998  _roles[role] */\n      dup2\n      mstore\n      0x20\n      add\n      swap1\n      dup2\n      mstore\n      0x20\n      add\n      0x00\n      keccak256\n        /* \"https://github.com/OpenZeppelin/openzeppelin-contracts/blob/v4.8.0/contracts/access/AccessControl.sol\":7986:8006  _roles[role].members */\n      0x00\n      add\n        /* \"https://github.com/OpenZeppelin/openzeppelin-contracts/blob/v4.8.0/contracts/access/AccessControl.sol\":7986:8015  _roles[role].members[account] */\n      0x00\n        /* \"https://github.com/OpenZeppelin/openzeppelin-contracts/blob/v4.8.0/contracts/access/AccessControl.sol\":8007:8014  account */\n      dup4\n        /* \"https://github.com/OpenZeppelin/openzeppelin-contracts/blob/v4.8.0/contracts/access/AccessControl.sol\":7986:8015  _roles[role].members[account] */\n      0xffffffffffffffffffffffffffffffffffffffff\n      and\n      0xffffffffffffffffffffffffffffffffffffffff\n      and\n      dup2\n      mstore\n      0x20\n      add\n      swap1\n      dup2\n      mstore\n      0x20\n      add\n      0x00\n      keccak256\n      0x00\n        /* \"https://github.com/OpenZeppelin/openzeppelin-contracts/blob/v4.8.0/contracts/access/AccessControl.sol\":7986:8023  _roles[role].members[account] = false */\n      0x0100\n      exp\n      dup2\n      sload\n      dup2\n      0xff\n      mul\n      not\n      and\n      swap1\n      dup4\n      iszero\n      iszero\n      mul\n      or\n      swap1\n      sstore\n      pop\n        /* \"https://github.com/OpenZeppelin/openzeppelin-contracts/blob/v4.8.0/contracts/access/AccessControl.sol\":8069:8081  _msgSender() */\n      tag_157\n        /* \"https://github.com/OpenZeppelin/openzeppelin-contracts/blob/v4.8.0/contracts/access/AccessControl.sol\":8069:8079  _msgSender */\n      tag_101\n        /* \"https://github.com/OpenZeppelin/openzeppelin-contracts/blob/v4.8.0/contracts/access/AccessControl.sol\":8069:8081  _msgSender() */\n      jump\t// in\n    tag_157:\n        /* \"https://github.com/OpenZeppelin/openzeppelin-contracts/blob/v4.8.0/contracts/access/AccessControl.sol\":8042:8082  RoleRevoked(role, account, _msgSender()) */\n      0xffffffffffffffffffffffffffffffffffffffff\n      and\n        /* \"https://github.com/OpenZeppelin/openzeppelin-contracts/blob/v4.8.0/contracts/access/AccessControl.sol\":8060:8067  account */\n      dup2\n        /* \"https://github.com/OpenZeppelin/openzeppelin-contracts/blob/v4.8.0/contracts/access/AccessControl.sol\":8042:8082  RoleRevoked(role, account, _msgSender()) */\n      0xffffffffffffffffffffffffffffffffffffffff\n      and\n        /* \"https://github.com/OpenZeppelin/openzeppelin-contracts/blob/v4.8.0/contracts/access/AccessControl.sol\":8054:8058  role */\n      dup4\n        /* \"https://github.com/OpenZeppelin/openzeppelin-contracts/blob/v4.8.0/contracts/access/AccessControl.sol\":8042:8082  RoleRevoked(role, account, _msgSender()) */\n      0xf6391f5c32d9c69d2a47ea670b442974b53935d1edc7fd64eb21e047a839171b\n      mload(0x40)\n      mload(0x40)\n      dup1\n      swap2\n      sub\n      swap1\n      log4\n        /* \"https://github.com/OpenZeppelin/openzeppelin-contracts/blob/v4.8.0/contracts/access/AccessControl.sol\":7944:8093  if (hasRole(role, account)) {... */\n    tag_156:\n        /* \"https://github.com/OpenZeppelin/openzeppelin-contracts/blob/v4.8.0/contracts/access/AccessControl.sol\":7865:8099  function _revokeRole(bytes32 role, address account) internal virtual {... */\n      pop\n      pop\n      jump\t// out\n        /* \"https://github.com/OpenZeppelin/openzeppelin-contracts/blob/v4.8.0/contracts/access/AccessControl.sol\":3718:4197  function _checkRole(bytes32 role, address account) internal view virtual {... */\n    tag_148:\n        /* \"https://github.com/OpenZeppelin/openzeppelin-contracts/blob/v4.8.0/contracts/access/AccessControl.sol\":3806:3828  hasRole(role, account) */\n      tag_159\n        /* \"https://github.com/OpenZeppelin/openzeppelin-contracts/blob/v4.8.0/contracts/access/AccessControl.sol\":3814:3818  role */\n      dup3\n        /* \"https://github.com/OpenZeppelin/openzeppelin-contracts/blob/v4.8.0/contracts/access/AccessControl.sol\":3820:3827  account */\n      dup3\n        /* \"https://github.com/OpenZeppelin/openzeppelin-contracts/blob/v4.8.0/contracts/access/AccessControl.sol\":3806:3813  hasRole */\n      tag_67\n        /* \"https://github.com/OpenZeppelin/openzeppelin-contracts/blob/v4.8.0/contracts/access/AccessControl.sol\":3806:3828  hasRole(role, account) */\n      jump\t// in\n    tag_159:\n        /* \"https://github.com/OpenZeppelin/openzeppelin-contracts/blob/v4.8.0/contracts/access/AccessControl.sol\":3801:4191  if (!hasRole(role, account)) {... */\n      tag_160\n      jumpi\n        /* \"https://github.com/OpenZeppelin/openzeppelin-contracts/blob/v4.8.0/contracts/access/AccessControl.sol\":3989:4017  Strings.toHexString(account) */\n      tag_161\n        /* \"https://github.com/OpenZeppelin/openzeppelin-contracts/blob/v4.8.0/contracts/access/AccessControl.sol\":4009:4016  account */\n      dup2\n        /* \"https://github.com/OpenZeppelin/openzeppelin-contracts/blob/v4.8.0/contracts/access/AccessControl.sol\":3989:4008  Strings.toHexString */\n      tag_162\n        /* \"https://github.com/OpenZeppelin/openzeppelin-contracts/blob/v4.8.0/contracts/access/AccessControl.sol\":3989:4017  Strings.toHexString(account) */\n      jump\t// in\n    tag_161:\n        /* \"https://github.com/OpenZeppelin/openzeppelin-contracts/blob/v4.8.0/contracts/access/AccessControl.sol\":4088:4126  Strings.toHexString(uint256(role), 32) */\n      tag_163\n        /* \"https://github.com/OpenZeppelin/openzeppelin-contracts/blob/v4.8.0/contracts/access/AccessControl.sol\":4116:4120  role */\n      dup4\n        /* \"https://github.com/OpenZeppelin/openzeppelin-contracts/blob/v4.8.0/contracts/access/AccessControl.sol\":4108:4121  uint256(role) */\n      0x00\n      shr\n        /* \"https://github.com/OpenZeppelin/openzeppelin-contracts/blob/v4.8.0/contracts/access/AccessControl.sol\":4123:4125  32 */\n      0x20\n        /* \"https://github.com/OpenZeppelin/openzeppelin-contracts/blob/v4.8.0/contracts/access/AccessControl.sol\":4088:4107  Strings.toHexString */\n      tag_164\n        /* \"https://github.com/OpenZeppelin/openzeppelin-contracts/blob/v4.8.0/contracts/access/AccessControl.sol\":4088:4126  Strings.toHexString(uint256(role), 32) */\n      jump\t// in\n    tag_163:\n        /* \"https://github.com/OpenZeppelin/openzeppelin-contracts/blob/v4.8.0/contracts/access/AccessControl.sol\":3896:4148  abi.encodePacked(... */\n      add(0x20, mload(0x40))\n      tag_165\n      swap3\n      swap2\n      swap1\n      tag_166\n      jump\t// in\n    tag_165:\n      mload(0x40)\n      0x20\n      dup2\n      dup4\n      sub\n      sub\n      dup2\n      mstore\n      swap1\n      0x40\n      mstore\n        /* \"https://github.com/OpenZeppelin/openzeppelin-contracts/blob/v4.8.0/contracts/access/AccessControl.sol\":3844:4180  revert(... */\n      mload(0x40)\n      0x08c379a000000000000000000000000000000000000000000000000000000000\n      dup2\n      mstore\n      0x04\n      add\n      tag_167\n      swap2\n      swap1\n      tag_168\n      jump\t// in\n    tag_167:\n      mload(0x40)\n      dup1\n      swap2\n      sub\n      swap1\n      revert\n        /* \"https://github.com/OpenZeppelin/openzeppelin-contracts/blob/v4.8.0/contracts/access/AccessControl.sol\":3801:4191  if (!hasRole(role, account)) {... */\n    tag_160:\n        /* \"https://github.com/OpenZeppelin/openzeppelin-contracts/blob/v4.8.0/contracts/access/AccessControl.sol\":3718:4197  function _checkRole(bytes32 role, address account) internal view virtual {... */\n      pop\n      pop\n      jump\t// out\n        /* \"https://github.com/OpenZeppelin/openzeppelin-contracts/blob/v4.8.0/contracts/utils/Strings.sol\":2102:2251  function toHexString(address addr) internal pure returns (string memory) {... */\n    tag_162:\n        /* \"https://github.com/OpenZeppelin/openzeppelin-contracts/blob/v4.8.0/contracts/utils/Strings.sol\":2160:2173  string memory */\n      0x60\n        /* \"https://github.com/OpenZeppelin/openzeppelin-contracts/blob/v4.8.0/contracts/utils/Strings.sol\":2192:2244  toHexString(uint256(uint160(addr)), _ADDRESS_LENGTH) */\n      tag_170\n        /* \"https://github.com/OpenZeppelin/openzeppelin-contracts/blob/v4.8.0/contracts/utils/Strings.sol\":2220:2224  addr */\n      dup3\n        /* \"https://github.com/OpenZeppelin/openzeppelin-contracts/blob/v4.8.0/contracts/utils/Strings.sol\":2204:2226  uint256(uint160(addr)) */\n      0xffffffffffffffffffffffffffffffffffffffff\n      and\n        /* \"https://github.com/OpenZeppelin/openzeppelin-contracts/blob/v4.8.0/contracts/utils/Strings.sol\":311:313  20 */\n      0x14\n        /* \"https://github.com/OpenZeppelin/openzeppelin-contracts/blob/v4.8.0/contracts/utils/Strings.sol\":2192:2244  toHexString(uint256(uint160(addr)), _ADDRESS_LENGTH) */\n      0xff\n      and\n        /* \"https://github.com/OpenZeppelin/openzeppelin-contracts/blob/v4.8.0/contracts/utils/Strings.sol\":2192:2203  toHexString */\n      tag_164\n        /* \"https://github.com/OpenZeppelin/openzeppelin-contracts/blob/v4.8.0/contracts/utils/Strings.sol\":2192:2244  toHexString(uint256(uint160(addr)), _ADDRESS_LENGTH) */\n      jump\t// in\n    tag_170:\n        /* \"https://github.com/OpenZeppelin/openzeppelin-contracts/blob/v4.8.0/contracts/utils/Strings.sol\":2185:2244  return toHexString(uint256(uint160(addr)), _ADDRESS_LENGTH) */\n      swap1\n      pop\n        /* \"https://github.com/OpenZeppelin/openzeppelin-contracts/blob/v4.8.0/contracts/utils/Strings.sol\":2102:2251  function toHexString(address addr) internal pure returns (string memory) {... */\n      swap2\n      swap1\n      pop\n      jump\t// out\n        /* \"https://github.com/OpenZeppelin/openzeppelin-contracts/blob/v4.8.0/contracts/utils/Strings.sol\":1513:1950  function toHexString(uint256 value, uint256 length) internal pure returns (string memory) {... */\n    tag_164:\n        /* \"https://github.com/OpenZeppelin/openzeppelin-contracts/blob/v4.8.0/contracts/utils/Strings.sol\":1588:1601  string memory */\n      0x60\n        /* \"https://github.com/OpenZeppelin/openzeppelin-contracts/blob/v4.8.0/contracts/utils/Strings.sol\":1613:1632  bytes memory buffer */\n      0x00\n        /* \"https://github.com/OpenZeppelin/openzeppelin-contracts/blob/v4.8.0/contracts/utils/Strings.sol\":1658:1659  2 */\n      0x02\n        /* \"https://github.com/OpenZeppelin/openzeppelin-contracts/blob/v4.8.0/contracts/utils/Strings.sol\":1649:1655  length */\n      dup4\n        /* \"https://github.com/OpenZeppelin/openzeppelin-contracts/blob/v4.8.0/contracts/utils/Strings.sol\":1645:1646  2 */\n      0x02\n        /* \"https://github.com/OpenZeppelin/openzeppelin-contracts/blob/v4.8.0/contracts/utils/Strings.sol\":1645:1655  2 * length */\n      tag_172\n      swap2\n      swap1\n      tag_173\n      jump\t// in\n    tag_172:\n        /* \"https://github.com/OpenZeppelin/openzeppelin-contracts/blob/v4.8.0/contracts/utils/Strings.sol\":1645:1659  2 * length + 2 */\n      tag_174\n      swap2\n      swap1\n      tag_175\n      jump\t// in\n    tag_174:\n        /* \"https://github.com/OpenZeppelin/openzeppelin-contracts/blob/v4.8.0/contracts/utils/Strings.sol\":1635:1660  new bytes(2 * length + 2) */\n      0xffffffffffffffff\n      dup2\n      gt\n      iszero\n      tag_176\n      jumpi\n      tag_177\n      tag_178\n      jump\t// in\n    tag_177:\n    tag_176:\n      mload(0x40)\n      swap1\n      dup1\n      dup3\n      mstore\n      dup1\n      0x1f\n      add\n      not(0x1f)\n      and\n      0x20\n      add\n      dup3\n      add\n      0x40\n      mstore\n      dup1\n      iszero\n      tag_179\n      jumpi\n      dup2\n      0x20\n      add\n      0x01\n      dup3\n      mul\n      dup1\n      calldatasize\n      dup4\n      calldatacopy\n      dup1\n      dup3\n      add\n      swap2\n      pop\n      pop\n      swap1\n      pop\n    tag_179:\n      pop\n        /* \"https://github.com/OpenZeppelin/openzeppelin-contracts/blob/v4.8.0/contracts/utils/Strings.sol\":1613:1660  bytes memory buffer = new bytes(2 * length + 2) */\n      swap1\n      pop\n        /* \"https://github.com/OpenZeppelin/openzeppelin-contracts/blob/v4.8.0/contracts/utils/Strings.sol\":1670:1685  buffer[0] = \"0\" */\n      0x3000000000000000000000000000000000000000000000000000000000000000\n        /* \"https://github.com/OpenZeppelin/openzeppelin-contracts/blob/v4.8.0/contracts/utils/Strings.sol\":1670:1676  buffer */\n      dup2\n        /* \"https://github.com/OpenZeppelin/openzeppelin-contracts/blob/v4.8.0/contracts/utils/Strings.sol\":1677:1678  0 */\n      0x00\n        /* \"https://github.com/OpenZeppelin/openzeppelin-contracts/blob/v4.8.0/contracts/utils/Strings.sol\":1670:1679  buffer[0] */\n      dup2\n      mload\n      dup2\n      lt\n      tag_180\n      jumpi\n      tag_181\n      tag_182\n      jump\t// in\n    tag_181:\n    tag_180:\n      0x20\n      add\n      add\n        /* \"https://github.com/OpenZeppelin/openzeppelin-contracts/blob/v4.8.0/contracts/utils/Strings.sol\":1670:1685  buffer[0] = \"0\" */\n      swap1\n      not(0xffffffffffffffffffffffffffffffffffffffffffffffffffffffffffffff)\n      and\n      swap1\n      dup2\n      0x00\n      byte\n      swap1\n      mstore8\n      pop\n        /* \"https://github.com/OpenZeppelin/openzeppelin-contracts/blob/v4.8.0/contracts/utils/Strings.sol\":1695:1710  buffer[1] = \"x\" */\n      0x7800000000000000000000000000000000000000000000000000000000000000\n        /* \"https://github.com/OpenZeppelin/openzeppelin-contracts/blob/v4.8.0/contracts/utils/Strings.sol\":1695:1701  buffer */\n      dup2\n        /* \"https://github.com/OpenZeppelin/openzeppelin-contracts/blob/v4.8.0/contracts/utils/Strings.sol\":1702:1703  1 */\n      0x01\n        /* \"https://github.com/OpenZeppelin/openzeppelin-contracts/blob/v4.8.0/contracts/utils/Strings.sol\":1695:1704  buffer[1] */\n      dup2\n      mload\n      dup2\n      lt\n      tag_183\n      jumpi\n      tag_184\n      tag_182\n      jump\t// in\n    tag_184:\n    tag_183:\n      0x20\n      add\n      add\n        /* \"https://github.com/OpenZeppelin/openzeppelin-contracts/blob/v4.8.0/contracts/utils/Strings.sol\":1695:1710  buffer[1] = \"x\" */\n      swap1\n      not(0xffffffffffffffffffffffffffffffffffffffffffffffffffffffffffffff)\n      and\n      swap1\n      dup2\n      0x00\n      byte\n      swap1\n      mstore8\n      pop\n        /* \"https://github.com/OpenZeppelin/openzeppelin-contracts/blob/v4.8.0/contracts/utils/Strings.sol\":1725:1734  uint256 i */\n      0x00\n        /* \"https://github.com/OpenZeppelin/openzeppelin-contracts/blob/v4.8.0/contracts/utils/Strings.sol\":1750:1751  1 */\n      0x01\n        /* \"https://github.com/OpenZeppelin/openzeppelin-contracts/blob/v4.8.0/contracts/utils/Strings.sol\":1741:1747  length */\n      dup5\n        /* \"https://github.com/OpenZeppelin/openzeppelin-contracts/blob/v4.8.0/contracts/utils/Strings.sol\":1737:1738  2 */\n      0x02\n        /* \"https://github.com/OpenZeppelin/openzeppelin-contracts/blob/v4.8.0/contracts/utils/Strings.sol\":1737:1747  2 * length */\n      tag_188\n      swap2\n      swap1\n      tag_173\n      jump\t// in\n    tag_188:\n        /* \"https://github.com/OpenZeppelin/openzeppelin-contracts/blob/v4.8.0/contracts/utils/Strings.sol\":1737:1751  2 * length + 1 */\n      tag_189\n      swap2\n      swap1\n      tag_175\n      jump\t// in\n    tag_189:\n        /* \"https://github.com/OpenZeppelin/openzeppelin-contracts/blob/v4.8.0/contracts/utils/Strings.sol\":1725:1751  uint256 i = 2 * length + 1 */\n      swap1\n      pop\n        /* \"https://github.com/OpenZeppelin/openzeppelin-contracts/blob/v4.8.0/contracts/utils/Strings.sol\":1720:1848  for (uint256 i = 2 * length + 1; i > 1; --i) {... */\n    tag_185:\n        /* \"https://github.com/OpenZeppelin/openzeppelin-contracts/blob/v4.8.0/contracts/utils/Strings.sol\":1757:1758  1 */\n      0x01\n        /* \"https://github.com/OpenZeppelin/openzeppelin-contracts/blob/v4.8.0/contracts/utils/Strings.sol\":1753:1754  i */\n      dup2\n        /* \"https://github.com/OpenZeppelin/openzeppelin-contracts/blob/v4.8.0/contracts/utils/Strings.sol\":1753:1758  i > 1 */\n      gt\n        /* \"https://github.com/OpenZeppelin/openzeppelin-contracts/blob/v4.8.0/contracts/utils/Strings.sol\":1720:1848  for (uint256 i = 2 * length + 1; i > 1; --i) {... */\n      iszero\n      tag_186\n      jumpi\n        /* \"https://github.com/OpenZeppelin/openzeppelin-contracts/blob/v4.8.0/contracts/utils/Strings.sol\":1791:1799  _SYMBOLS */\n      0x3031323334353637383961626364656600000000000000000000000000000000\n        /* \"https://github.com/OpenZeppelin/openzeppelin-contracts/blob/v4.8.0/contracts/utils/Strings.sol\":1808:1811  0xf */\n      0x0f\n        /* \"https://github.com/OpenZeppelin/openzeppelin-contracts/blob/v4.8.0/contracts/utils/Strings.sol\":1800:1805  value */\n      dup7\n        /* \"https://github.com/OpenZeppelin/openzeppelin-contracts/blob/v4.8.0/contracts/utils/Strings.sol\":1800:1811  value & 0xf */\n      and\n        /* \"https://github.com/OpenZeppelin/openzeppelin-contracts/blob/v4.8.0/contracts/utils/Strings.sol\":1791:1812  _SYMBOLS[value & 0xf] */\n      0x10\n      dup2\n      lt\n      tag_190\n      jumpi\n      tag_191\n      tag_182\n      jump\t// in\n    tag_191:\n    tag_190:\n      byte\n      0xf8\n      shl\n        /* \"https://github.com/OpenZeppelin/openzeppelin-contracts/blob/v4.8.0/contracts/utils/Strings.sol\":1779:1785  buffer */\n      dup3\n        /* \"https://github.com/OpenZeppelin/openzeppelin-contracts/blob/v4.8.0/contracts/utils/Strings.sol\":1786:1787  i */\n      dup3\n        /* \"https://github.com/OpenZeppelin/openzeppelin-contracts/blob/v4.8.0/contracts/utils/Strings.sol\":1779:1788  buffer[i] */\n      dup2\n      mload\n      dup2\n      lt\n      tag_192\n      jumpi\n      tag_193\n      tag_182\n      jump\t// in\n    tag_193:\n    tag_192:\n      0x20\n      add\n      add\n        /* \"https://github.com/OpenZeppelin/openzeppelin-contracts/blob/v4.8.0/contracts/utils/Strings.sol\":1779:1812  buffer[i] = _SYMBOLS[value & 0xf] */\n      swap1\n      not(0xffffffffffffffffffffffffffffffffffffffffffffffffffffffffffffff)\n      and\n      swap1\n      dup2\n      0x00\n      byte\n      swap1\n      mstore8\n      pop\n        /* \"https://github.com/OpenZeppelin/openzeppelin-contracts/blob/v4.8.0/contracts/utils/Strings.sol\":1836:1837  4 */\n      0x04\n        /* \"https://github.com/OpenZeppelin/openzeppelin-contracts/blob/v4.8.0/contracts/utils/Strings.sol\":1826:1837  value >>= 4 */\n      dup6\n      swap1\n      shr\n      swap5\n      pop\n        /* \"https://github.com/OpenZeppelin/openzeppelin-contracts/blob/v4.8.0/contracts/utils/Strings.sol\":1760:1763  --i */\n      dup1\n      tag_194\n      swap1\n      tag_195\n      jump\t// in\n    tag_194:\n      swap1\n      pop\n        /* \"https://github.com/OpenZeppelin/openzeppelin-contracts/blob/v4.8.0/contracts/utils/Strings.sol\":1720:1848  for (uint256 i = 2 * length + 1; i > 1; --i) {... */\n      jump(tag_185)\n    tag_186:\n      pop\n        /* \"https://github.com/OpenZeppelin/openzeppelin-contracts/blob/v4.8.0/contracts/utils/Strings.sol\":1874:1875  0 */\n      0x00\n        /* \"https://github.com/OpenZeppelin/openzeppelin-contracts/blob/v4.8.0/contracts/utils/Strings.sol\":1865:1870  value */\n      dup5\n        /* \"https://github.com/OpenZeppelin/openzeppelin-contracts/blob/v4.8.0/contracts/utils/Strings.sol\":1865:1875  value == 0 */\n      eq\n        /* \"https://github.com/OpenZeppelin/openzeppelin-contracts/blob/v4.8.0/contracts/utils/Strings.sol\":1857:1912  require(value == 0, \"Strings: hex length insufficient\") */\n      tag_196\n      jumpi\n      mload(0x40)\n      0x08c379a000000000000000000000000000000000000000000000000000000000\n      dup2\n      mstore\n      0x04\n      add\n      tag_197\n      swap1\n      tag_198\n      jump\t// in\n    tag_197:\n      mload(0x40)\n      dup1\n      swap2\n      sub\n      swap1\n      revert\n    tag_196:\n        /* \"https://github.com/OpenZeppelin/openzeppelin-contracts/blob/v4.8.0/contracts/utils/Strings.sol\":1936:1942  buffer */\n      dup1\n        /* \"https://github.com/OpenZeppelin/openzeppelin-contracts/blob/v4.8.0/contracts/utils/Strings.sol\":1922:1943  return string(buffer) */\n      swap2\n      pop\n      pop\n        /* \"https://github.com/OpenZeppelin/openzeppelin-contracts/blob/v4.8.0/contracts/utils/Strings.sol\":1513:1950  function toHexString(uint256 value, uint256 length) internal pure returns (string memory) {... */\n      swap3\n      swap2\n      pop\n      pop\n      jump\t// out\n    tag_108:\n      mload(0x40)\n      dup1\n      0x60\n      add\n      0x40\n      mstore\n      dup1\n      0x00\n      dup2\n      mstore\n      0x20\n      add\n      0x00\n      dup2\n      mstore\n      0x20\n      add\n      iszero(iszero(0x00))\n      dup2\n      mstore\n      pop\n      swap1\n      jump\t// out\n        /* \"#utility.yul\":88:205   */\n    tag_200:\n        /* \"#utility.yul\":197:198   */\n      0x00\n        /* \"#utility.yul\":194:195   */\n      dup1\n        /* \"#utility.yul\":187:199   */\n      revert\n        /* \"#utility.yul\":334:483   */\n    tag_202:\n        /* \"#utility.yul\":370:377   */\n      0x00\n        /* \"#utility.yul\":410:476   */\n      0xffffffff00000000000000000000000000000000000000000000000000000000\n        /* \"#utility.yul\":403:408   */\n      dup3\n        /* \"#utility.yul\":399:477   */\n      and\n        /* \"#utility.yul\":388:477   */\n      swap1\n      pop\n        /* \"#utility.yul\":334:483   */\n      swap2\n      swap1\n      pop\n      jump\t// out\n        /* \"#utility.yul\":489:609   */\n    tag_203:\n        /* \"#utility.yul\":561:584   */\n      tag_246\n        /* \"#utility.yul\":578:583   */\n      dup2\n        /* \"#utility.yul\":561:584   */\n      tag_202\n      jump\t// in\n    tag_246:\n        /* \"#utility.yul\":554:559   */\n      dup2\n        /* \"#utility.yul\":551:585   */\n      eq\n        /* \"#utility.yul\":541:603   */\n      tag_247\n      jumpi\n        /* \"#utility.yul\":599:600   */\n      0x00\n        /* \"#utility.yul\":596:597   */\n      dup1\n        /* \"#utility.yul\":589:601   */\n      revert\n        /* \"#utility.yul\":541:603   */\n    tag_247:\n        /* \"#utility.yul\":489:609   */\n      pop\n      jump\t// out\n        /* \"#utility.yul\":615:752   */\n    tag_204:\n        /* \"#utility.yul\":660:665   */\n      0x00\n        /* \"#utility.yul\":698:704   */\n      dup2\n        /* \"#utility.yul\":685:705   */\n      calldataload\n        /* \"#utility.yul\":676:705   */\n      swap1\n      pop\n        /* \"#utility.yul\":714:746   */\n      tag_249\n        /* \"#utility.yul\":740:745   */\n      dup2\n        /* \"#utility.yul\":714:746   */\n      tag_203\n      jump\t// in\n    tag_249:\n        /* \"#utility.yul\":615:752   */\n      swap3\n      swap2\n      pop\n      pop\n      jump\t// out\n        /* \"#utility.yul\":758:1085   */\n    tag_24:\n        /* \"#utility.yul\":816:822   */\n      0x00\n        /* \"#utility.yul\":865:867   */\n      0x20\n        /* \"#utility.yul\":853:862   */\n      dup3\n        /* \"#utility.yul\":844:851   */\n      dup5\n        /* \"#utility.yul\":840:863   */\n      sub\n        /* \"#utility.yul\":836:868   */\n      slt\n        /* \"#utility.yul\":833:952   */\n      iszero\n      tag_251\n      jumpi\n        /* \"#utility.yul\":871:950   */\n      tag_252\n      tag_200\n      jump\t// in\n    tag_252:\n        /* \"#utility.yul\":833:952   */\n    tag_251:\n        /* \"#utility.yul\":991:992   */\n      0x00\n        /* \"#utility.yul\":1016:1068   */\n      tag_253\n        /* \"#utility.yul\":1060:1067   */\n      dup5\n        /* \"#utility.yul\":1051:1057   */\n      dup3\n        /* \"#utility.yul\":1040:1049   */\n      dup6\n        /* \"#utility.yul\":1036:1058   */\n      add\n        /* \"#utility.yul\":1016:1068   */\n      tag_204\n      jump\t// in\n    tag_253:\n        /* \"#utility.yul\":1006:1068   */\n      swap2\n      pop\n        /* \"#utility.yul\":962:1078   */\n      pop\n        /* \"#utility.yul\":758:1085   */\n      swap3\n      swap2\n      pop\n      pop\n      jump\t// out\n        /* \"#utility.yul\":1091:1181   */\n    tag_205:\n        /* \"#utility.yul\":1125:1132   */\n      0x00\n        /* \"#utility.yul\":1168:1173   */\n      dup2\n        /* \"#utility.yul\":1161:1174   */\n      iszero\n        /* \"#utility.yul\":1154:1175   */\n      iszero\n        /* \"#utility.yul\":1143:1175   */\n      swap1\n      pop\n        /* \"#utility.yul\":1091:1181   */\n      swap2\n      swap1\n      pop\n      jump\t// out\n        /* \"#utility.yul\":1187:1296   */\n    tag_206:\n        /* \"#utility.yul\":1268:1289   */\n      tag_256\n        /* \"#utility.yul\":1283:1288   */\n      dup2\n        /* \"#utility.yul\":1268:1289   */\n      tag_205\n      jump\t// in\n    tag_256:\n        /* \"#utility.yul\":1263:1266   */\n      dup3\n        /* \"#utility.yul\":1256:1290   */\n      mstore\n        /* \"#utility.yul\":1187:1296   */\n      pop\n      pop\n      jump\t// out\n        /* \"#utility.yul\":1302:1512   */\n    tag_27:\n        /* \"#utility.yul\":1389:1393   */\n      0x00\n        /* \"#utility.yul\":1427:1429   */\n      0x20\n        /* \"#utility.yul\":1416:1425   */\n      dup3\n        /* \"#utility.yul\":1412:1430   */\n      add\n        /* \"#utility.yul\":1404:1430   */\n      swap1\n      pop\n        /* \"#utility.yul\":1440:1505   */\n      tag_258\n        /* \"#utility.yul\":1502:1503   */\n      0x00\n        /* \"#utility.yul\":1491:1500   */\n      dup4\n        /* \"#utility.yul\":1487:1504   */\n      add\n        /* \"#utility.yul\":1478:1484   */\n      dup5\n        /* \"#utility.yul\":1440:1505   */\n      tag_206\n      jump\t// in\n    tag_258:\n        /* \"#utility.yul\":1302:1512   */\n      swap3\n      swap2\n      pop\n      pop\n      jump\t// out\n        /* \"#utility.yul\":1518:1595   */\n    tag_207:\n        /* \"#utility.yul\":1555:1562   */\n      0x00\n        /* \"#utility.yul\":1584:1589   */\n      dup2\n        /* \"#utility.yul\":1573:1589   */\n      swap1\n      pop\n        /* \"#utility.yul\":1518:1595   */\n      swap2\n      swap1\n      pop\n      jump\t// out\n        /* \"#utility.yul\":1601:1723   */\n    tag_208:\n        /* \"#utility.yul\":1674:1698   */\n      tag_261\n        /* \"#utility.yul\":1692:1697   */\n      dup2\n        /* \"#utility.yul\":1674:1698   */\n      tag_207\n      jump\t// in\n    tag_261:\n        /* \"#utility.yul\":1667:1672   */\n      dup2\n        /* \"#utility.yul\":1664:1699   */\n      eq\n        /* \"#utility.yul\":1654:1717   */\n      tag_262\n      jumpi\n        /* \"#utility.yul\":1713:1714   */\n      0x00\n        /* \"#utility.yul\":1710:1711   */\n      dup1\n        /* \"#utility.yul\":1703:1715   */\n      revert\n        /* \"#utility.yul\":1654:1717   */\n    tag_262:\n        /* \"#utility.yul\":1601:1723   */\n      pop\n      jump\t// out\n        /* \"#utility.yul\":1729:1868   */\n    tag_209:\n        /* \"#utility.yul\":1775:1780   */\n      0x00\n        /* \"#utility.yul\":1813:1819   */\n      dup2\n        /* \"#utility.yul\":1800:1820   */\n      calldataload\n        /* \"#utility.yul\":1791:1820   */\n      swap1\n      pop\n        /* \"#utility.yul\":1829:1862   */\n      tag_264\n        /* \"#utility.yul\":1856:1861   */\n      dup2\n        /* \"#utility.yul\":1829:1862   */\n      tag_208\n      jump\t// in\n    tag_264:\n        /* \"#utility.yul\":1729:1868   */\n      swap3\n      swap2\n      pop\n      pop\n      jump\t// out\n        /* \"#utility.yul\":1874:2203   */\n    tag_30:\n        /* \"#utility.yul\":1933:1939   */\n      0x00\n        /* \"#utility.yul\":1982:1984   */\n      0x20\n        /* \"#utility.yul\":1970:1979   */\n      dup3\n        /* \"#utility.yul\":1961:1968   */\n      dup5\n        /* \"#utility.yul\":1957:1980   */\n      sub\n        /* \"#utility.yul\":1953:1985   */\n      slt\n        /* \"#utility.yul\":1950:2069   */\n      iszero\n      tag_266\n      jumpi\n        /* \"#utility.yul\":1988:2067   */\n      tag_267\n      tag_200\n      jump\t// in\n    tag_267:\n        /* \"#utility.yul\":1950:2069   */\n    tag_266:\n        /* \"#utility.yul\":2108:2109   */\n      0x00\n        /* \"#utility.yul\":2133:2186   */\n      tag_268\n        /* \"#utility.yul\":2178:2185   */\n      dup5\n        /* \"#utility.yul\":2169:2175   */\n      dup3\n        /* \"#utility.yul\":2158:2167   */\n      dup6\n        /* \"#utility.yul\":2154:2176   */\n      add\n        /* \"#utility.yul\":2133:2186   */\n      tag_209\n      jump\t// in\n    tag_268:\n        /* \"#utility.yul\":2123:2186   */\n      swap2\n      pop\n        /* \"#utility.yul\":2079:2196   */\n      pop\n        /* \"#utility.yul\":1874:2203   */\n      swap3\n      swap2\n      pop\n      pop\n      jump\t// out\n        /* \"#utility.yul\":2209:2286   */\n    tag_210:\n        /* \"#utility.yul\":2246:2253   */\n      0x00\n        /* \"#utility.yul\":2275:2280   */\n      dup2\n        /* \"#utility.yul\":2264:2280   */\n      swap1\n      pop\n        /* \"#utility.yul\":2209:2286   */\n      swap2\n      swap1\n      pop\n      jump\t// out\n        /* \"#utility.yul\":2292:2414   */\n    tag_211:\n        /* \"#utility.yul\":2365:2389   */\n      tag_271\n        /* \"#utility.yul\":2383:2388   */\n      dup2\n        /* \"#utility.yul\":2365:2389   */\n      tag_210\n      jump\t// in\n    tag_271:\n        /* \"#utility.yul\":2358:2363   */\n      dup2\n        /* \"#utility.yul\":2355:2390   */\n      eq\n        /* \"#utility.yul\":2345:2408   */\n      tag_272\n      jumpi\n        /* \"#utility.yul\":2404:2405   */\n      0x00\n        /* \"#utility.yul\":2401:2402   */\n      dup1\n        /* \"#utility.yul\":2394:2406   */\n      revert\n        /* \"#utility.yul\":2345:2408   */\n    tag_272:\n        /* \"#utility.yul\":2292:2414   */\n      pop\n      jump\t// out\n        /* \"#utility.yul\":2420:2559   */\n    tag_212:\n        /* \"#utility.yul\":2466:2471   */\n      0x00\n        /* \"#utility.yul\":2504:2510   */\n      dup2\n        /* \"#utility.yul\":2491:2511   */\n      calldataload\n        /* \"#utility.yul\":2482:2511   */\n      swap1\n      pop\n        /* \"#utility.yul\":2520:2553   */\n      tag_274\n        /* \"#utility.yul\":2547:2552   */\n      dup2\n        /* \"#utility.yul\":2520:2553   */\n      tag_211\n      jump\t// in\n    tag_274:\n        /* \"#utility.yul\":2420:2559   */\n      swap3\n      swap2\n      pop\n      pop\n      jump\t// out\n        /* \"#utility.yul\":2565:2894   */\n    tag_35:\n        /* \"#utility.yul\":2624:2630   */\n      0x00\n        /* \"#utility.yul\":2673:2675   */\n      0x20\n        /* \"#utility.yul\":2661:2670   */\n      dup3\n        /* \"#utility.yul\":2652:2659   */\n      dup5\n        /* \"#utility.yul\":2648:2671   */\n      sub\n        /* \"#utility.yul\":2644:2676   */\n      slt\n        /* \"#utility.yul\":2641:2760   */\n      iszero\n      tag_276\n      jumpi\n        /* \"#utility.yul\":2679:2758   */\n      tag_277\n      tag_200\n      jump\t// in\n    tag_277:\n        /* \"#utility.yul\":2641:2760   */\n    tag_276:\n        /* \"#utility.yul\":2799:2800   */\n      0x00\n        /* \"#utility.yul\":2824:2877   */\n      tag_278\n        /* \"#utility.yul\":2869:2876   */\n      dup5\n        /* \"#utility.yul\":2860:2866   */\n      dup3\n        /* \"#utility.yul\":2849:2858   */\n      dup6\n        /* \"#utility.yul\":2845:2867   */\n      add\n        /* \"#utility.yul\":2824:2877   */\n      tag_212\n      jump\t// in\n    tag_278:\n        /* \"#utility.yul\":2814:2877   */\n      swap2\n      pop\n        /* \"#utility.yul\":2770:2887   */\n      pop\n        /* \"#utility.yul\":2565:2894   */\n      swap3\n      swap2\n      pop\n      pop\n      jump\t// out\n        /* \"#utility.yul\":2900:3018   */\n    tag_213:\n        /* \"#utility.yul\":2987:3011   */\n      tag_280\n        /* \"#utility.yul\":3005:3010   */\n      dup2\n        /* \"#utility.yul\":2987:3011   */\n      tag_210\n      jump\t// in\n    tag_280:\n        /* \"#utility.yul\":2982:2985   */\n      dup3\n        /* \"#utility.yul\":2975:3012   */\n      mstore\n        /* \"#utility.yul\":2900:3018   */\n      pop\n      pop\n      jump\t// out\n        /* \"#utility.yul\":3024:3246   */\n    tag_38:\n        /* \"#utility.yul\":3117:3121   */\n      0x00\n        /* \"#utility.yul\":3155:3157   */\n      0x20\n        /* \"#utility.yul\":3144:3153   */\n      dup3\n        /* \"#utility.yul\":3140:3158   */\n      add\n        /* \"#utility.yul\":3132:3158   */\n      swap1\n      pop\n        /* \"#utility.yul\":3168:3239   */\n      tag_282\n        /* \"#utility.yul\":3236:3237   */\n      0x00\n        /* \"#utility.yul\":3225:3234   */\n      dup4\n        /* \"#utility.yul\":3221:3238   */\n      add\n        /* \"#utility.yul\":3212:3218   */\n      dup5\n        /* \"#utility.yul\":3168:3239   */\n      tag_213\n      jump\t// in\n    tag_282:\n        /* \"#utility.yul\":3024:3246   */\n      swap3\n      swap2\n      pop\n      pop\n      jump\t// out\n        /* \"#utility.yul\":3252:3378   */\n    tag_214:\n        /* \"#utility.yul\":3289:3296   */\n      0x00\n        /* \"#utility.yul\":3329:3371   */\n      0xffffffffffffffffffffffffffffffffffffffff\n        /* \"#utility.yul\":3322:3327   */\n      dup3\n        /* \"#utility.yul\":3318:3372   */\n      and\n        /* \"#utility.yul\":3307:3372   */\n      swap1\n      pop\n        /* \"#utility.yul\":3252:3378   */\n      swap2\n      swap1\n      pop\n      jump\t// out\n        /* \"#utility.yul\":3384:3480   */\n    tag_215:\n        /* \"#utility.yul\":3421:3428   */\n      0x00\n        /* \"#utility.yul\":3450:3474   */\n      tag_285\n        /* \"#utility.yul\":3468:3473   */\n      dup3\n        /* \"#utility.yul\":3450:3474   */\n      tag_214\n      jump\t// in\n    tag_285:\n        /* \"#utility.yul\":3439:3474   */\n      swap1\n      pop\n        /* \"#utility.yul\":3384:3480   */\n      swap2\n      swap1\n      pop\n      jump\t// out\n        /* \"#utility.yul\":3486:3608   */\n    tag_216:\n        /* \"#utility.yul\":3559:3583   */\n      tag_287\n        /* \"#utility.yul\":3577:3582   */\n      dup2\n        /* \"#utility.yul\":3559:3583   */\n      tag_215\n      jump\t// in\n    tag_287:\n        /* \"#utility.yul\":3552:3557   */\n      dup2\n        /* \"#utility.yul\":3549:3584   */\n      eq\n        /* \"#utility.yul\":3539:3602   */\n      tag_288\n      jumpi\n        /* \"#utility.yul\":3598:3599   */\n      0x00\n        /* \"#utility.yul\":3595:3596   */\n      dup1\n        /* \"#utility.yul\":3588:3600   */\n      revert\n        /* \"#utility.yul\":3539:3602   */\n    tag_288:\n        /* \"#utility.yul\":3486:3608   */\n      pop\n      jump\t// out\n        /* \"#utility.yul\":3614:3753   */\n    tag_217:\n        /* \"#utility.yul\":3660:3665   */\n      0x00\n        /* \"#utility.yul\":3698:3704   */\n      dup2\n        /* \"#utility.yul\":3685:3705   */\n      calldataload\n        /* \"#utility.yul\":3676:3705   */\n      swap1\n      pop\n        /* \"#utility.yul\":3714:3747   */\n      tag_290\n        /* \"#utility.yul\":3741:3746   */\n      dup2\n        /* \"#utility.yul\":3714:3747   */\n      tag_216\n      jump\t// in\n    tag_290:\n        /* \"#utility.yul\":3614:3753   */\n      swap3\n      swap2\n      pop\n      pop\n      jump\t// out\n        /* \"#utility.yul\":3759:4233   */\n    tag_41:\n        /* \"#utility.yul\":3827:3833   */\n      0x00\n        /* \"#utility.yul\":3835:3841   */\n      dup1\n        /* \"#utility.yul\":3884:3886   */\n      0x40\n        /* \"#utility.yul\":3872:3881   */\n      dup4\n        /* \"#utility.yul\":3863:3870   */\n      dup6\n        /* \"#utility.yul\":3859:3882   */\n      sub\n        /* \"#utility.yul\":3855:3887   */\n      slt\n        /* \"#utility.yul\":3852:3971   */\n      iszero\n      tag_292\n      jumpi\n        /* \"#utility.yul\":3890:3969   */\n      tag_293\n      tag_200\n      jump\t// in\n    tag_293:\n        /* \"#utility.yul\":3852:3971   */\n    tag_292:\n        /* \"#utility.yul\":4010:4011   */\n      0x00\n        /* \"#utility.yul\":4035:4088   */\n      tag_294\n        /* \"#utility.yul\":4080:4087   */\n      dup6\n        /* \"#utility.yul\":4071:4077   */\n      dup3\n        /* \"#utility.yul\":4060:4069   */\n      dup7\n        /* \"#utility.yul\":4056:4078   */\n      add\n        /* \"#utility.yul\":4035:4088   */\n      tag_212\n      jump\t// in\n    tag_294:\n        /* \"#utility.yul\":4025:4088   */\n      swap3\n      pop\n        /* \"#utility.yul\":3981:4098   */\n      pop\n        /* \"#utility.yul\":4137:4139   */\n      0x20\n        /* \"#utility.yul\":4163:4216   */\n      tag_295\n        /* \"#utility.yul\":4208:4215   */\n      dup6\n        /* \"#utility.yul\":4199:4205   */\n      dup3\n        /* \"#utility.yul\":4188:4197   */\n      dup7\n        /* \"#utility.yul\":4184:4206   */\n      add\n        /* \"#utility.yul\":4163:4216   */\n      tag_217\n      jump\t// in\n    tag_295:\n        /* \"#utility.yul\":4153:4216   */\n      swap2\n      pop\n        /* \"#utility.yul\":4108:4226   */\n      pop\n        /* \"#utility.yul\":3759:4233   */\n      swap3\n      pop\n      swap3\n      swap1\n      pop\n      jump\t// out\n        /* \"#utility.yul\":4239:4347   */\n    tag_218:\n        /* \"#utility.yul\":4316:4340   */\n      tag_297\n        /* \"#utility.yul\":4334:4339   */\n      dup2\n        /* \"#utility.yul\":4316:4340   */\n      tag_207\n      jump\t// in\n    tag_297:\n        /* \"#utility.yul\":4311:4314   */\n      dup3\n        /* \"#utility.yul\":4304:4341   */\n      mstore\n        /* \"#utility.yul\":4239:4347   */\n      pop\n      pop\n      jump\t// out\n        /* \"#utility.yul\":4353:4452   */\n    tag_219:\n        /* \"#utility.yul\":4424:4445   */\n      tag_299\n        /* \"#utility.yul\":4439:4444   */\n      dup2\n        /* \"#utility.yul\":4424:4445   */\n      tag_205\n      jump\t// in\n    tag_299:\n        /* \"#utility.yul\":4419:4422   */\n      dup3\n        /* \"#utility.yul\":4412:4446   */\n      mstore\n        /* \"#utility.yul\":4353:4452   */\n      pop\n      pop\n      jump\t// out\n        /* \"#utility.yul\":4524:5207   */\n    tag_220:\n        /* \"#utility.yul\":4669:4673   */\n      0x60\n        /* \"#utility.yul\":4664:4667   */\n      dup3\n        /* \"#utility.yul\":4660:4674   */\n      add\n        /* \"#utility.yul\":4759:4763   */\n      0x00\n        /* \"#utility.yul\":4752:4757   */\n      dup3\n        /* \"#utility.yul\":4748:4764   */\n      add\n        /* \"#utility.yul\":4742:4765   */\n      mload\n        /* \"#utility.yul\":4778:4841   */\n      tag_301\n        /* \"#utility.yul\":4835:4839   */\n      0x00\n        /* \"#utility.yul\":4830:4833   */\n      dup6\n        /* \"#utility.yul\":4826:4840   */\n      add\n        /* \"#utility.yul\":4812:4824   */\n      dup3\n        /* \"#utility.yul\":4778:4841   */\n      tag_218\n      jump\t// in\n    tag_301:\n        /* \"#utility.yul\":4684:4851   */\n      pop\n        /* \"#utility.yul\":4938:4942   */\n      0x20\n        /* \"#utility.yul\":4931:4936   */\n      dup3\n        /* \"#utility.yul\":4927:4943   */\n      add\n        /* \"#utility.yul\":4921:4944   */\n      mload\n        /* \"#utility.yul\":4957:5020   */\n      tag_302\n        /* \"#utility.yul\":5014:5018   */\n      0x20\n        /* \"#utility.yul\":5009:5012   */\n      dup6\n        /* \"#utility.yul\":5005:5019   */\n      add\n        /* \"#utility.yul\":4991:5003   */\n      dup3\n        /* \"#utility.yul\":4957:5020   */\n      tag_218\n      jump\t// in\n    tag_302:\n        /* \"#utility.yul\":4861:5030   */\n      pop\n        /* \"#utility.yul\":5114:5118   */\n      0x40\n        /* \"#utility.yul\":5107:5112   */\n      dup3\n        /* \"#utility.yul\":5103:5119   */\n      add\n        /* \"#utility.yul\":5097:5120   */\n      mload\n        /* \"#utility.yul\":5133:5190   */\n      tag_303\n        /* \"#utility.yul\":5184:5188   */\n      0x40\n        /* \"#utility.yul\":5179:5182   */\n      dup6\n        /* \"#utility.yul\":5175:5189   */\n      add\n        /* \"#utility.yul\":5161:5173   */\n      dup3\n        /* \"#utility.yul\":5133:5190   */\n      tag_219\n      jump\t// in\n    tag_303:\n        /* \"#utility.yul\":5040:5200   */\n      pop\n        /* \"#utility.yul\":4638:5207   */\n      pop\n        /* \"#utility.yul\":4524:5207   */\n      pop\n      pop\n      jump\t// out\n        /* \"#utility.yul\":5213:5531   */\n    tag_50:\n        /* \"#utility.yul\":5354:5358   */\n      0x00\n        /* \"#utility.yul\":5392:5394   */\n      0x60\n        /* \"#utility.yul\":5381:5390   */\n      dup3\n        /* \"#utility.yul\":5377:5395   */\n      add\n        /* \"#utility.yul\":5369:5395   */\n      swap1\n      pop\n        /* \"#utility.yul\":5405:5524   */\n      tag_305\n        /* \"#utility.yul\":5521:5522   */\n      0x00\n        /* \"#utility.yul\":5510:5519   */\n      dup4\n        /* \"#utility.yul\":5506:5523   */\n      add\n        /* \"#utility.yul\":5497:5503   */\n      dup5\n        /* \"#utility.yul\":5405:5524   */\n      tag_220\n      jump\t// in\n    tag_305:\n        /* \"#utility.yul\":5213:5531   */\n      swap3\n      swap2\n      pop\n      pop\n      jump\t// out\n        /* \"#utility.yul\":5537:5655   */\n    tag_221:\n        /* \"#utility.yul\":5624:5648   */\n      tag_307\n        /* \"#utility.yul\":5642:5647   */\n      dup2\n        /* \"#utility.yul\":5624:5648   */\n      tag_207\n      jump\t// in\n    tag_307:\n        /* \"#utility.yul\":5619:5622   */\n      dup3\n        /* \"#utility.yul\":5612:5649   */\n      mstore\n        /* \"#utility.yul\":5537:5655   */\n      pop\n      pop\n      jump\t// out\n        /* \"#utility.yul\":5661:6091   */\n    tag_61:\n        /* \"#utility.yul\":5804:5808   */\n      0x00\n        /* \"#utility.yul\":5842:5844   */\n      0x60\n        /* \"#utility.yul\":5831:5840   */\n      dup3\n        /* \"#utility.yul\":5827:5845   */\n      add\n        /* \"#utility.yul\":5819:5845   */\n      swap1\n      pop\n        /* \"#utility.yul\":5855:5926   */\n      tag_309\n        /* \"#utility.yul\":5923:5924   */\n      0x00\n        /* \"#utility.yul\":5912:5921   */\n      dup4\n        /* \"#utility.yul\":5908:5925   */\n      add\n        /* \"#utility.yul\":5899:5905   */\n      dup7\n        /* \"#utility.yul\":5855:5926   */\n      tag_221\n      jump\t// in\n    tag_309:\n        /* \"#utility.yul\":5936:6008   */\n      tag_310\n        /* \"#utility.yul\":6004:6006   */\n      0x20\n        /* \"#utility.yul\":5993:6002   */\n      dup4\n        /* \"#utility.yul\":5989:6007   */\n      add\n        /* \"#utility.yul\":5980:5986   */\n      dup6\n        /* \"#utility.yul\":5936:6008   */\n      tag_221\n      jump\t// in\n    tag_310:\n        /* \"#utility.yul\":6018:6084   */\n      tag_311\n        /* \"#utility.yul\":6080:6082   */\n      0x40\n        /* \"#utility.yul\":6069:6078   */\n      dup4\n        /* \"#utility.yul\":6065:6083   */\n      add\n        /* \"#utility.yul\":6056:6062   */\n      dup5\n        /* \"#utility.yul\":6018:6084   */\n      tag_206\n      jump\t// in\n    tag_311:\n        /* \"#utility.yul\":5661:6091   */\n      swap5\n      swap4\n      pop\n      pop\n      pop\n      pop\n      jump\t// out\n        /* \"#utility.yul\":6097:6426   */\n    tag_71:\n        /* \"#utility.yul\":6156:6162   */\n      0x00\n        /* \"#utility.yul\":6205:6207   */\n      0x20\n        /* \"#utility.yul\":6193:6202   */\n      dup3\n        /* \"#utility.yul\":6184:6191   */\n      dup5\n        /* \"#utility.yul\":6180:6203   */\n      sub\n        /* \"#utility.yul\":6176:6208   */\n      slt\n        /* \"#utility.yul\":6173:6292   */\n      iszero\n      tag_313\n      jumpi\n        /* \"#utility.yul\":6211:6290   */\n      tag_314\n      tag_200\n      jump\t// in\n    tag_314:\n        /* \"#utility.yul\":6173:6292   */\n    tag_313:\n        /* \"#utility.yul\":6331:6332   */\n      0x00\n        /* \"#utility.yul\":6356:6409   */\n      tag_315\n        /* \"#utility.yul\":6401:6408   */\n      dup5\n        /* \"#utility.yul\":6392:6398   */\n      dup3\n        /* \"#utility.yul\":6381:6390   */\n      dup6\n        /* \"#utility.yul\":6377:6399   */\n      add\n        /* \"#utility.yul\":6356:6409   */\n      tag_217\n      jump\t// in\n    tag_315:\n        /* \"#utility.yul\":6346:6409   */\n      swap2\n      pop\n        /* \"#utility.yul\":6302:6419   */\n      pop\n        /* \"#utility.yul\":6097:6426   */\n      swap3\n      swap2\n      pop\n      pop\n      jump\t// out\n        /* \"#utility.yul\":6432:6906   */\n    tag_78:\n        /* \"#utility.yul\":6500:6506   */\n      0x00\n        /* \"#utility.yul\":6508:6514   */\n      dup1\n        /* \"#utility.yul\":6557:6559   */\n      0x40\n        /* \"#utility.yul\":6545:6554   */\n      dup4\n        /* \"#utility.yul\":6536:6543   */\n      dup6\n        /* \"#utility.yul\":6532:6555   */\n      sub\n        /* \"#utility.yul\":6528:6560   */\n      slt\n        /* \"#utility.yul\":6525:6644   */\n      iszero\n      tag_317\n      jumpi\n        /* \"#utility.yul\":6563:6642   */\n      tag_318\n      tag_200\n      jump\t// in\n    tag_318:\n        /* \"#utility.yul\":6525:6644   */\n    tag_317:\n        /* \"#utility.yul\":6683:6684   */\n      0x00\n        /* \"#utility.yul\":6708:6761   */\n      tag_319\n        /* \"#utility.yul\":6753:6760   */\n      dup6\n        /* \"#utility.yul\":6744:6750   */\n      dup3\n        /* \"#utility.yul\":6733:6742   */\n      dup7\n        /* \"#utility.yul\":6729:6751   */\n      add\n        /* \"#utility.yul\":6708:6761   */\n      tag_209\n      jump\t// in\n    tag_319:\n        /* \"#utility.yul\":6698:6761   */\n      swap3\n      pop\n        /* \"#utility.yul\":6654:6771   */\n      pop\n        /* \"#utility.yul\":6810:6812   */\n      0x20\n        /* \"#utility.yul\":6836:6889   */\n      tag_320\n        /* \"#utility.yul\":6881:6888   */\n      dup6\n        /* \"#utility.yul\":6872:6878   */\n      dup3\n        /* \"#utility.yul\":6861:6870   */\n      dup7\n        /* \"#utility.yul\":6857:6879   */\n      add\n        /* \"#utility.yul\":6836:6889   */\n      tag_209\n      jump\t// in\n    tag_320:\n        /* \"#utility.yul\":6826:6889   */\n      swap2\n      pop\n        /* \"#utility.yul\":6781:6899   */\n      pop\n        /* \"#utility.yul\":6432:6906   */\n      swap3\n      pop\n      swap3\n      swap1\n      pop\n      jump\t// out\n        /* \"#utility.yul\":6912:7081   */\n    tag_222:\n        /* \"#utility.yul\":6996:7007   */\n      0x00\n        /* \"#utility.yul\":7030:7036   */\n      dup3\n        /* \"#utility.yul\":7025:7028   */\n      dup3\n        /* \"#utility.yul\":7018:7037   */\n      mstore\n        /* \"#utility.yul\":7070:7074   */\n      0x20\n        /* \"#utility.yul\":7065:7068   */\n      dup3\n        /* \"#utility.yul\":7061:7075   */\n      add\n        /* \"#utility.yul\":7046:7075   */\n      swap1\n      pop\n        /* \"#utility.yul\":6912:7081   */\n      swap3\n      swap2\n      pop\n      pop\n      jump\t// out\n        /* \"#utility.yul\":7087:7321   */\n    tag_223:\n        /* \"#utility.yul\":7227:7261   */\n      0x416363657373436f6e74726f6c3a2063616e206f6e6c792072656e6f756e6365\n        /* \"#utility.yul\":7223:7224   */\n      0x00\n        /* \"#utility.yul\":7215:7221   */\n      dup3\n        /* \"#utility.yul\":7211:7225   */\n      add\n        /* \"#utility.yul\":7204:7262   */\n      mstore\n        /* \"#utility.yul\":7296:7313   */\n      0x20726f6c657320666f722073656c660000000000000000000000000000000000\n        /* \"#utility.yul\":7291:7293   */\n      0x20\n        /* \"#utility.yul\":7283:7289   */\n      dup3\n        /* \"#utility.yul\":7279:7294   */\n      add\n        /* \"#utility.yul\":7272:7314   */\n      mstore\n        /* \"#utility.yul\":7087:7321   */\n      pop\n      jump\t// out\n        /* \"#utility.yul\":7327:7693   */\n    tag_224:\n        /* \"#utility.yul\":7469:7472   */\n      0x00\n        /* \"#utility.yul\":7490:7557   */\n      tag_324\n        /* \"#utility.yul\":7554:7556   */\n      0x2f\n        /* \"#utility.yul\":7549:7552   */\n      dup4\n        /* \"#utility.yul\":7490:7557   */\n      tag_222\n      jump\t// in\n    tag_324:\n        /* \"#utility.yul\":7483:7557   */\n      swap2\n      pop\n        /* \"#utility.yul\":7566:7659   */\n      tag_325\n        /* \"#utility.yul\":7655:7658   */\n      dup3\n        /* \"#utility.yul\":7566:7659   */\n      tag_223\n      jump\t// in\n    tag_325:\n        /* \"#utility.yul\":7684:7686   */\n      0x40\n        /* \"#utility.yul\":7679:7682   */\n      dup3\n        /* \"#utility.yul\":7675:7687   */\n      add\n        /* \"#utility.yul\":7668:7687   */\n      swap1\n      pop\n        /* \"#utility.yul\":7327:7693   */\n      swap2\n      swap1\n      pop\n      jump\t// out\n        /* \"#utility.yul\":7699:8118   */\n    tag_104:\n        /* \"#utility.yul\":7865:7869   */\n      0x00\n        /* \"#utility.yul\":7903:7905   */\n      0x20\n        /* \"#utility.yul\":7892:7901   */\n      dup3\n        /* \"#utility.yul\":7888:7906   */\n      add\n        /* \"#utility.yul\":7880:7906   */\n      swap1\n      pop\n        /* \"#utility.yul\":7952:7961   */\n      dup2\n        /* \"#utility.yul\":7946:7950   */\n      dup2\n        /* \"#utility.yul\":7942:7962   */\n      sub\n        /* \"#utility.yul\":7938:7939   */\n      0x00\n        /* \"#utility.yul\":7927:7936   */\n      dup4\n        /* \"#utility.yul\":7923:7940   */\n      add\n        /* \"#utility.yul\":7916:7963   */\n      mstore\n        /* \"#utility.yul\":7980:8111   */\n      tag_327\n        /* \"#utility.yul\":8106:8110   */\n      dup2\n        /* \"#utility.yul\":7980:8111   */\n      tag_224\n      jump\t// in\n    tag_327:\n        /* \"#utility.yul\":7972:8111   */\n      swap1\n      pop\n        /* \"#utility.yul\":7699:8118   */\n      swap2\n      swap1\n      pop\n      jump\t// out\n        /* \"#utility.yul\":8124:8293   */\n    tag_225:\n        /* \"#utility.yul\":8264:8285   */\n      0x47616d6520646f6573206e6f7420657869737400000000000000000000000000\n        /* \"#utility.yul\":8260:8261   */\n      0x00\n        /* \"#utility.yul\":8252:8258   */\n      dup3\n        /* \"#utility.yul\":8248:8262   */\n      add\n        /* \"#utility.yul\":8241:8286   */\n      mstore\n        /* \"#utility.yul\":8124:8293   */\n      pop\n      jump\t// out\n        /* \"#utility.yul\":8299:8665   */\n    tag_226:\n        /* \"#utility.yul\":8441:8444   */\n      0x00\n        /* \"#utility.yul\":8462:8529   */\n      tag_330\n        /* \"#utility.yul\":8526:8528   */\n      0x13\n        /* \"#utility.yul\":8521:8524   */\n      dup4\n        /* \"#utility.yul\":8462:8529   */\n      tag_222\n      jump\t// in\n    tag_330:\n        /* \"#utility.yul\":8455:8529   */\n      swap2\n      pop\n        /* \"#utility.yul\":8538:8631   */\n      tag_331\n        /* \"#utility.yul\":8627:8630   */\n      dup3\n        /* \"#utility.yul\":8538:8631   */\n      tag_225\n      jump\t// in\n    tag_331:\n        /* \"#utility.yul\":8656:8658   */\n      0x20\n        /* \"#utility.yul\":8651:8654   */\n      dup3\n        /* \"#utility.yul\":8647:8659   */\n      add\n        /* \"#utility.yul\":8640:8659   */\n      swap1\n      pop\n        /* \"#utility.yul\":8299:8665   */\n      swap2\n      swap1\n      pop\n      jump\t// out\n        /* \"#utility.yul\":8671:9090   */\n    tag_112:\n        /* \"#utility.yul\":8837:8841   */\n      0x00\n        /* \"#utility.yul\":8875:8877   */\n      0x20\n        /* \"#utility.yul\":8864:8873   */\n      dup3\n        /* \"#utility.yul\":8860:8878   */\n      add\n        /* \"#utility.yul\":8852:8878   */\n      swap1\n      pop\n        /* \"#utility.yul\":8924:8933   */\n      dup2\n        /* \"#utility.yul\":8918:8922   */\n      dup2\n        /* \"#utility.yul\":8914:8934   */\n      sub\n        /* \"#utility.yul\":8910:8911   */\n      0x00\n        /* \"#utility.yul\":8899:8908   */\n      dup4\n        /* \"#utility.yul\":8895:8912   */\n      add\n        /* \"#utility.yul\":8888:8935   */\n      mstore\n        /* \"#utility.yul\":8952:9083   */\n      tag_333\n        /* \"#utility.yul\":9078:9082   */\n      dup2\n        /* \"#utility.yul\":8952:9083   */\n      tag_226\n      jump\t// in\n    tag_333:\n        /* \"#utility.yul\":8944:9083   */\n      swap1\n      pop\n        /* \"#utility.yul\":8671:9090   */\n      swap2\n      swap1\n      pop\n      jump\t// out\n        /* \"#utility.yul\":9096:9318   */\n    tag_119:\n        /* \"#utility.yul\":9189:9193   */\n      0x00\n        /* \"#utility.yul\":9227:9229   */\n      0x20\n        /* \"#utility.yul\":9216:9225   */\n      dup3\n        /* \"#utility.yul\":9212:9230   */\n      add\n        /* \"#utility.yul\":9204:9230   */\n      swap1\n      pop\n        /* \"#utility.yul\":9240:9311   */\n      tag_335\n        /* \"#utility.yul\":9308:9309   */\n      0x00\n        /* \"#utility.yul\":9297:9306   */\n      dup4\n        /* \"#utility.yul\":9293:9310   */\n      add\n        /* \"#utility.yul\":9284:9290   */\n      dup5\n        /* \"#utility.yul\":9240:9311   */\n      tag_221\n      jump\t// in\n    tag_335:\n        /* \"#utility.yul\":9096:9318   */\n      swap3\n      swap2\n      pop\n      pop\n      jump\t// out\n        /* \"#utility.yul\":9324:9656   */\n    tag_134:\n        /* \"#utility.yul\":9445:9449   */\n      0x00\n        /* \"#utility.yul\":9483:9485   */\n      0x40\n        /* \"#utility.yul\":9472:9481   */\n      dup3\n        /* \"#utility.yul\":9468:9486   */\n      add\n        /* \"#utility.yul\":9460:9486   */\n      swap1\n      pop\n        /* \"#utility.yul\":9496:9567   */\n      tag_337\n        /* \"#utility.yul\":9564:9565   */\n      0x00\n        /* \"#utility.yul\":9553:9562   */\n      dup4\n        /* \"#utility.yul\":9549:9566   */\n      add\n        /* \"#utility.yul\":9540:9546   */\n      dup6\n        /* \"#utility.yul\":9496:9567   */\n      tag_221\n      jump\t// in\n    tag_337:\n        /* \"#utility.yul\":9577:9649   */\n      tag_338\n        /* \"#utility.yul\":9645:9647   */\n      0x20\n        /* \"#utility.yul\":9634:9643   */\n      dup4\n        /* \"#utility.yul\":9630:9648   */\n      add\n        /* \"#utility.yul\":9621:9627   */\n      dup5\n        /* \"#utility.yul\":9577:9649   */\n      tag_221\n      jump\t// in\n    tag_338:\n        /* \"#utility.yul\":9324:9656   */\n      swap4\n      swap3\n      pop\n      pop\n      pop\n      jump\t// out\n        /* \"#utility.yul\":9662:9810   */\n    tag_227:\n        /* \"#utility.yul\":9764:9775   */\n      0x00\n        /* \"#utility.yul\":9801:9804   */\n      dup2\n        /* \"#utility.yul\":9786:9804   */\n      swap1\n      pop\n        /* \"#utility.yul\":9662:9810   */\n      swap3\n      swap2\n      pop\n      pop\n      jump\t// out\n        /* \"#utility.yul\":9816:9989   */\n    tag_228:\n        /* \"#utility.yul\":9956:9981   */\n      0x416363657373436f6e74726f6c3a206163636f756e7420000000000000000000\n        /* \"#utility.yul\":9952:9953   */\n      0x00\n        /* \"#utility.yul\":9944:9950   */\n      dup3\n        /* \"#utility.yul\":9940:9954   */\n      add\n        /* \"#utility.yul\":9933:9982   */\n      mstore\n        /* \"#utility.yul\":9816:9989   */\n      pop\n      jump\t// out\n        /* \"#utility.yul\":9995:10397   */\n    tag_229:\n        /* \"#utility.yul\":10155:10158   */\n      0x00\n        /* \"#utility.yul\":10176:10261   */\n      tag_342\n        /* \"#utility.yul\":10258:10260   */\n      0x17\n        /* \"#utility.yul\":10253:10256   */\n      dup4\n        /* \"#utility.yul\":10176:10261   */\n      tag_227\n      jump\t// in\n    tag_342:\n        /* \"#utility.yul\":10169:10261   */\n      swap2\n      pop\n        /* \"#utility.yul\":10270:10363   */\n      tag_343\n        /* \"#utility.yul\":10359:10362   */\n      dup3\n        /* \"#utility.yul\":10270:10363   */\n      tag_228\n      jump\t// in\n    tag_343:\n        /* \"#utility.yul\":10388:10390   */\n      0x17\n        /* \"#utility.yul\":10383:10386   */\n      dup3\n        /* \"#utility.yul\":10379:10391   */\n      add\n        /* \"#utility.yul\":10372:10391   */\n      swap1\n      pop\n        /* \"#utility.yul\":9995:10397   */\n      swap2\n      swap1\n      pop\n      jump\t// out\n        /* \"#utility.yul\":10403:10502   */\n    tag_230:\n        /* \"#utility.yul\":10455:10461   */\n      0x00\n        /* \"#utility.yul\":10489:10494   */\n      dup2\n        /* \"#utility.yul\":10483:10495   */\n      mload\n        /* \"#utility.yul\":10473:10495   */\n      swap1\n      pop\n        /* \"#utility.yul\":10403:10502   */\n      swap2\n      swap1\n      pop\n      jump\t// out\n        /* \"#utility.yul\":10508:10647   */\n    tag_231:\n        /* \"#utility.yul\":10597:10603   */\n      dup3\n        /* \"#utility.yul\":10592:10595   */\n      dup2\n        /* \"#utility.yul\":10587:10590   */\n      dup4\n        /* \"#utility.yul\":10581:10604   */\n      mcopy\n        /* \"#utility.yul\":10638:10639   */\n      0x00\n        /* \"#utility.yul\":10629:10635   */\n      dup4\n        /* \"#utility.yul\":10624:10627   */\n      dup4\n        /* \"#utility.yul\":10620:10636   */\n      add\n        /* \"#utility.yul\":10613:10640   */\n      mstore\n        /* \"#utility.yul\":10508:10647   */\n      pop\n      pop\n      pop\n      jump\t// out\n        /* \"#utility.yul\":10653:11043   */\n    tag_232:\n        /* \"#utility.yul\":10759:10762   */\n      0x00\n        /* \"#utility.yul\":10787:10826   */\n      tag_347\n        /* \"#utility.yul\":10820:10825   */\n      dup3\n        /* \"#utility.yul\":10787:10826   */\n      tag_230\n      jump\t// in\n    tag_347:\n        /* \"#utility.yul\":10842:10931   */\n      tag_348\n        /* \"#utility.yul\":10924:10930   */\n      dup2\n        /* \"#utility.yul\":10919:10922   */\n      dup6\n        /* \"#utility.yul\":10842:10931   */\n      tag_227\n      jump\t// in\n    tag_348:\n        /* \"#utility.yul\":10835:10931   */\n      swap4\n      pop\n        /* \"#utility.yul\":10940:11005   */\n      tag_349\n        /* \"#utility.yul\":10998:11004   */\n      dup2\n        /* \"#utility.yul\":10993:10996   */\n      dup6\n        /* \"#utility.yul\":10986:10990   */\n      0x20\n        /* \"#utility.yul\":10979:10984   */\n      dup7\n        /* \"#utility.yul\":10975:10991   */\n      add\n        /* \"#utility.yul\":10940:11005   */\n      tag_231\n      jump\t// in\n    tag_349:\n        /* \"#utility.yul\":11030:11036   */\n      dup1\n        /* \"#utility.yul\":11025:11028   */\n      dup5\n        /* \"#utility.yul\":11021:11037   */\n      add\n        /* \"#utility.yul\":11014:11037   */\n      swap2\n      pop\n        /* \"#utility.yul\":10763:11043   */\n      pop\n        /* \"#utility.yul\":10653:11043   */\n      swap3\n      swap2\n      pop\n      pop\n      jump\t// out\n        /* \"#utility.yul\":11049:11216   */\n    tag_233:\n        /* \"#utility.yul\":11189:11208   */\n      0x206973206d697373696e6720726f6c6520000000000000000000000000000000\n        /* \"#utility.yul\":11185:11186   */\n      0x00\n        /* \"#utility.yul\":11177:11183   */\n      dup3\n        /* \"#utility.yul\":11173:11187   */\n      add\n        /* \"#utility.yul\":11166:11209   */\n      mstore\n        /* \"#utility.yul\":11049:11216   */\n      pop\n      jump\t// out\n        /* \"#utility.yul\":11222:11624   */\n    tag_234:\n        /* \"#utility.yul\":11382:11385   */\n      0x00\n        /* \"#utility.yul\":11403:11488   */\n      tag_352\n        /* \"#utility.yul\":11485:11487   */\n      0x11\n        /* \"#utility.yul\":11480:11483   */\n      dup4\n        /* \"#utility.yul\":11403:11488   */\n      tag_227\n      jump\t// in\n    tag_352:\n        /* \"#utility.yul\":11396:11488   */\n      swap2\n      pop\n        /* \"#utility.yul\":11497:11590   */\n      tag_353\n        /* \"#utility.yul\":11586:11589   */\n      dup3\n        /* \"#utility.yul\":11497:11590   */\n      tag_233\n      jump\t// in\n    tag_353:\n        /* \"#utility.yul\":11615:11617   */\n      0x11\n        /* \"#utility.yul\":11610:11613   */\n      dup3\n        /* \"#utility.yul\":11606:11618   */\n      add\n        /* \"#utility.yul\":11599:11618   */\n      swap1\n      pop\n        /* \"#utility.yul\":11222:11624   */\n      swap2\n      swap1\n      pop\n      jump\t// out\n        /* \"#utility.yul\":11630:12597   */\n    tag_166:\n        /* \"#utility.yul\":12012:12015   */\n      0x00\n        /* \"#utility.yul\":12034:12182   */\n      tag_355\n        /* \"#utility.yul\":12178:12181   */\n      dup3\n        /* \"#utility.yul\":12034:12182   */\n      tag_229\n      jump\t// in\n    tag_355:\n        /* \"#utility.yul\":12027:12182   */\n      swap2\n      pop\n        /* \"#utility.yul\":12199:12294   */\n      tag_356\n        /* \"#utility.yul\":12290:12293   */\n      dup3\n        /* \"#utility.yul\":12281:12287   */\n      dup6\n        /* \"#utility.yul\":12199:12294   */\n      tag_232\n      jump\t// in\n    tag_356:\n        /* \"#utility.yul\":12192:12294   */\n      swap2\n      pop\n        /* \"#utility.yul\":12311:12459   */\n      tag_357\n        /* \"#utility.yul\":12455:12458   */\n      dup3\n        /* \"#utility.yul\":12311:12459   */\n      tag_234\n      jump\t// in\n    tag_357:\n        /* \"#utility.yul\":12304:12459   */\n      swap2\n      pop\n        /* \"#utility.yul\":12476:12571   */\n      tag_358\n        /* \"#utility.yul\":12567:12570   */\n      dup3\n        /* \"#utility.yul\":12558:12564   */\n      dup5\n        /* \"#utility.yul\":12476:12571   */\n      tag_232\n      jump\t// in\n    tag_358:\n        /* \"#utility.yul\":12469:12571   */\n      swap2\n      pop\n        /* \"#utility.yul\":12588:12591   */\n      dup2\n        /* \"#utility.yul\":12581:12591   */\n      swap1\n      pop\n        /* \"#utility.yul\":11630:12597   */\n      swap4\n      swap3\n      pop\n      pop\n      pop\n      jump\t// out\n        /* \"#utility.yul\":12603:12705   */\n    tag_235:\n        /* \"#utility.yul\":12644:12650   */\n      0x00\n        /* \"#utility.yul\":12695:12697   */\n      0x1f\n        /* \"#utility.yul\":12691:12698   */\n      not\n        /* \"#utility.yul\":12686:12688   */\n      0x1f\n        /* \"#utility.yul\":12679:12684   */\n      dup4\n        /* \"#utility.yul\":12675:12689   */\n      add\n        /* \"#utility.yul\":12671:12699   */\n      and\n        /* \"#utility.yul\":12661:12699   */\n      swap1\n      pop\n        /* \"#utility.yul\":12603:12705   */\n      swap2\n      swap1\n      pop\n      jump\t// out\n        /* \"#utility.yul\":12711:13088   */\n    tag_236:\n        /* \"#utility.yul\":12799:12802   */\n      0x00\n        /* \"#utility.yul\":12827:12866   */\n      tag_361\n        /* \"#utility.yul\":12860:12865   */\n      dup3\n        /* \"#utility.yul\":12827:12866   */\n      tag_230\n      jump\t// in\n    tag_361:\n        /* \"#utility.yul\":12882:12953   */\n      tag_362\n        /* \"#utility.yul\":12946:12952   */\n      dup2\n        /* \"#utility.yul\":12941:12944   */\n      dup6\n        /* \"#utility.yul\":12882:12953   */\n      tag_222\n      jump\t// in\n    tag_362:\n        /* \"#utility.yul\":12875:12953   */\n      swap4\n      pop\n        /* \"#utility.yul\":12962:13027   */\n      tag_363\n        /* \"#utility.yul\":13020:13026   */\n      dup2\n        /* \"#utility.yul\":13015:13018   */\n      dup6\n        /* \"#utility.yul\":13008:13012   */\n      0x20\n        /* \"#utility.yul\":13001:13006   */\n      dup7\n        /* \"#utility.yul\":12997:13013   */\n      add\n        /* \"#utility.yul\":12962:13027   */\n      tag_231\n      jump\t// in\n    tag_363:\n        /* \"#utility.yul\":13052:13081   */\n      tag_364\n        /* \"#utility.yul\":13074:13080   */\n      dup2\n        /* \"#utility.yul\":13052:13081   */\n      tag_235\n      jump\t// in\n    tag_364:\n        /* \"#utility.yul\":13047:13050   */\n      dup5\n        /* \"#utility.yul\":13043:13082   */\n      add\n        /* \"#utility.yul\":13036:13082   */\n      swap2\n      pop\n        /* \"#utility.yul\":12803:13088   */\n      pop\n        /* \"#utility.yul\":12711:13088   */\n      swap3\n      swap2\n      pop\n      pop\n      jump\t// out\n        /* \"#utility.yul\":13094:13407   */\n    tag_168:\n        /* \"#utility.yul\":13207:13211   */\n      0x00\n        /* \"#utility.yul\":13245:13247   */\n      0x20\n        /* \"#utility.yul\":13234:13243   */\n      dup3\n        /* \"#utility.yul\":13230:13248   */\n      add\n        /* \"#utility.yul\":13222:13248   */\n      swap1\n      pop\n        /* \"#utility.yul\":13294:13303   */\n      dup2\n        /* \"#utility.yul\":13288:13292   */\n      dup2\n        /* \"#utility.yul\":13284:13304   */\n      sub\n        /* \"#utility.yul\":13280:13281   */\n      0x00\n        /* \"#utility.yul\":13269:13278   */\n      dup4\n        /* \"#utility.yul\":13265:13282   */\n      add\n        /* \"#utility.yul\":13258:13305   */\n      mstore\n        /* \"#utility.yul\":13322:13400   */\n      tag_366\n        /* \"#utility.yul\":13395:13399   */\n      dup2\n        /* \"#utility.yul\":13386:13392   */\n      dup5\n        /* \"#utility.yul\":13322:13400   */\n      tag_236\n      jump\t// in\n    tag_366:\n        /* \"#utility.yul\":13314:13400   */\n      swap1\n      pop\n        /* \"#utility.yul\":13094:13407   */\n      swap3\n      swap2\n      pop\n      pop\n      jump\t// out\n        /* \"#utility.yul\":13413:13593   */\n    tag_237:\n        /* \"#utility.yul\":13461:13538   */\n      0x4e487b7100000000000000000000000000000000000000000000000000000000\n        /* \"#utility.yul\":13458:13459   */\n      0x00\n        /* \"#utility.yul\":13451:13539   */\n      mstore\n        /* \"#utility.yul\":13558:13562   */\n      0x11\n        /* \"#utility.yul\":13555:13556   */\n      0x04\n        /* \"#utility.yul\":13548:13563   */\n      mstore\n        /* \"#utility.yul\":13582:13586   */\n      0x24\n        /* \"#utility.yul\":13579:13580   */\n      0x00\n        /* \"#utility.yul\":13572:13587   */\n      revert\n        /* \"#utility.yul\":13599:14009   */\n    tag_173:\n        /* \"#utility.yul\":13639:13646   */\n      0x00\n        /* \"#utility.yul\":13662:13682   */\n      tag_369\n        /* \"#utility.yul\":13680:13681   */\n      dup3\n        /* \"#utility.yul\":13662:13682   */\n      tag_207\n      jump\t// in\n    tag_369:\n        /* \"#utility.yul\":13657:13682   */\n      swap2\n      pop\n        /* \"#utility.yul\":13696:13716   */\n      tag_370\n        /* \"#utility.yul\":13714:13715   */\n      dup4\n        /* \"#utility.yul\":13696:13716   */\n      tag_207\n      jump\t// in\n    tag_370:\n        /* \"#utility.yul\":13691:13716   */\n      swap3\n      pop\n        /* \"#utility.yul\":13751:13752   */\n      dup3\n        /* \"#utility.yul\":13748:13749   */\n      dup3\n        /* \"#utility.yul\":13744:13753   */\n      mul\n        /* \"#utility.yul\":13773:13803   */\n      tag_371\n        /* \"#utility.yul\":13791:13802   */\n      dup2\n        /* \"#utility.yul\":13773:13803   */\n      tag_207\n      jump\t// in\n    tag_371:\n        /* \"#utility.yul\":13762:13803   */\n      swap2\n      pop\n        /* \"#utility.yul\":13952:13953   */\n      dup3\n        /* \"#utility.yul\":13943:13950   */\n      dup3\n        /* \"#utility.yul\":13939:13954   */\n      div\n        /* \"#utility.yul\":13936:13937   */\n      dup5\n        /* \"#utility.yul\":13933:13955   */\n      eq\n        /* \"#utility.yul\":13913:13914   */\n      dup4\n        /* \"#utility.yul\":13906:13915   */\n      iszero\n        /* \"#utility.yul\":13886:13969   */\n      or\n        /* \"#utility.yul\":13863:14002   */\n      tag_372\n      jumpi\n        /* \"#utility.yul\":13982:14000   */\n      tag_373\n      tag_237\n      jump\t// in\n    tag_373:\n        /* \"#utility.yul\":13863:14002   */\n    tag_372:\n        /* \"#utility.yul\":13647:14009   */\n      pop\n        /* \"#utility.yul\":13599:14009   */\n      swap3\n      swap2\n      pop\n      pop\n      jump\t// out\n        /* \"#utility.yul\":14015:14206   */\n    tag_175:\n        /* \"#utility.yul\":14055:14058   */\n      0x00\n        /* \"#utility.yul\":14074:14094   */\n      tag_375\n        /* \"#utility.yul\":14092:14093   */\n      dup3\n        /* \"#utility.yul\":14074:14094   */\n      tag_207\n      jump\t// in\n    tag_375:\n        /* \"#utility.yul\":14069:14094   */\n      swap2\n      pop\n        /* \"#utility.yul\":14108:14128   */\n      tag_376\n        /* \"#utility.yul\":14126:14127   */\n      dup4\n        /* \"#utility.yul\":14108:14128   */\n      tag_207\n      jump\t// in\n    tag_376:\n        /* \"#utility.yul\":14103:14128   */\n      swap3\n      pop\n        /* \"#utility.yul\":14151:14152   */\n      dup3\n        /* \"#utility.yul\":14148:14149   */\n      dup3\n        /* \"#utility.yul\":14144:14153   */\n      add\n        /* \"#utility.yul\":14137:14153   */\n      swap1\n      pop\n        /* \"#utility.yul\":14172:14175   */\n      dup1\n        /* \"#utility.yul\":14169:14170   */\n      dup3\n        /* \"#utility.yul\":14166:14176   */\n      gt\n        /* \"#utility.yul\":14163:14199   */\n      iszero\n      tag_377\n      jumpi\n        /* \"#utility.yul\":14179:14197   */\n      tag_378\n      tag_237\n      jump\t// in\n    tag_378:\n        /* \"#utility.yul\":14163:14199   */\n    tag_377:\n        /* \"#utility.yul\":14015:14206   */\n      swap3\n      swap2\n      pop\n      pop\n      jump\t// out\n        /* \"#utility.yul\":14212:14392   */\n    tag_178:\n        /* \"#utility.yul\":14260:14337   */\n      0x4e487b7100000000000000000000000000000000000000000000000000000000\n        /* \"#utility.yul\":14257:14258   */\n      0x00\n        /* \"#utility.yul\":14250:14338   */\n      mstore\n        /* \"#utility.yul\":14357:14361   */\n      0x41\n        /* \"#utility.yul\":14354:14355   */\n      0x04\n        /* \"#utility.yul\":14347:14362   */\n      mstore\n        /* \"#utility.yul\":14381:14385   */\n      0x24\n        /* \"#utility.yul\":14378:14379   */\n      0x00\n        /* \"#utility.yul\":14371:14386   */\n      revert\n        /* \"#utility.yul\":14398:14578   */\n    tag_182:\n        /* \"#utility.yul\":14446:14523   */\n      0x4e487b7100000000000000000000000000000000000000000000000000000000\n        /* \"#utility.yul\":14443:14444   */\n      0x00\n        /* \"#utility.yul\":14436:14524   */\n      mstore\n        /* \"#utility.yul\":14543:14547   */\n      0x32\n        /* \"#utility.yul\":14540:14541   */\n      0x04\n        /* \"#utility.yul\":14533:14548   */\n      mstore\n        /* \"#utility.yul\":14567:14571   */\n      0x24\n        /* \"#utility.yul\":14564:14565   */\n      0x00\n        /* \"#utility.yul\":14557:14572   */\n      revert\n        /* \"#utility.yul\":14584:14755   */\n    tag_195:\n        /* \"#utility.yul\":14623:14626   */\n      0x00\n        /* \"#utility.yul\":14646:14670   */\n      tag_382\n        /* \"#utility.yul\":14664:14669   */\n      dup3\n        /* \"#utility.yul\":14646:14670   */\n      tag_207\n      jump\t// in\n    tag_382:\n        /* \"#utility.yul\":14637:14670   */\n      swap2\n      pop\n        /* \"#utility.yul\":14692:14696   */\n      0x00\n        /* \"#utility.yul\":14685:14690   */\n      dup3\n        /* \"#utility.yul\":14682:14697   */\n      sub\n        /* \"#utility.yul\":14679:14720   */\n      tag_383\n      jumpi\n        /* \"#utility.yul\":14700:14718   */\n      tag_384\n      tag_237\n      jump\t// in\n    tag_384:\n        /* \"#utility.yul\":14679:14720   */\n    tag_383:\n        /* \"#utility.yul\":14747:14748   */\n      0x01\n        /* \"#utility.yul\":14740:14745   */\n      dup3\n        /* \"#utility.yul\":14736:14749   */\n      sub\n        /* \"#utility.yul\":14729:14749   */\n      swap1\n      pop\n        /* \"#utility.yul\":14584:14755   */\n      swap2\n      swap1\n      pop\n      jump\t// out\n        /* \"#utility.yul\":14761:14943   */\n    tag_238:\n        /* \"#utility.yul\":14901:14935   */\n      0x537472696e67733a20686578206c656e67746820696e73756666696369656e74\n        /* \"#utility.yul\":14897:14898   */\n      0x00\n        /* \"#utility.yul\":14889:14895   */\n      dup3\n        /* \"#utility.yul\":14885:14899   */\n      add\n        /* \"#utility.yul\":14878:14936   */\n      mstore\n        /* \"#utility.yul\":14761:14943   */\n      pop\n      jump\t// out\n        /* \"#utility.yul\":14949:15315   */\n    tag_239:\n        /* \"#utility.yul\":15091:15094   */\n      0x00\n        /* \"#utility.yul\":15112:15179   */\n      tag_387\n        /* \"#utility.yul\":15176:15178   */\n      0x20\n        /* \"#utility.yul\":15171:15174   */\n      dup4\n        /* \"#utility.yul\":15112:15179   */\n      tag_222\n      jump\t// in\n    tag_387:\n        /* \"#utility.yul\":15105:15179   */\n      swap2\n      pop\n        /* \"#utility.yul\":15188:15281   */\n      tag_388\n        /* \"#utility.yul\":15277:15280   */\n      dup3\n        /* \"#utility.yul\":15188:15281   */\n      tag_238\n      jump\t// in\n    tag_388:\n        /* \"#utility.yul\":15306:15308   */\n      0x20\n        /* \"#utility.yul\":15301:15304   */\n      dup3\n        /* \"#utility.yul\":15297:15309   */\n      add\n        /* \"#utility.yul\":15290:15309   */\n      swap1\n      pop\n        /* \"#utility.yul\":14949:15315   */\n      swap2\n      swap1\n      pop\n      jump\t// out\n        /* \"#utility.yul\":15321:15740   */\n    tag_198:\n        /* \"#utility.yul\":15487:15491   */\n      0x00\n        /* \"#utility.yul\":15525:15527   */\n      0x20\n        /* \"#utility.yul\":15514:15523   */\n      dup3\n        /* \"#utility.yul\":15510:15528   */\n      add\n        /* \"#utility.yul\":15502:15528   */\n      swap1\n      pop\n        /* \"#utility.yul\":15574:15583   */\n      dup2\n        /* \"#utility.yul\":15568:15572   */\n      dup2\n        /* \"#utility.yul\":15564:15584   */\n      sub\n        /* \"#utility.yul\":15560:15561   */\n      0x00\n        /* \"#utility.yul\":15549:15558   */\n      dup4\n        /* \"#utility.yul\":15545:15562   */\n      add\n        /* \"#utility.yul\":15538:15585   */\n      mstore\n        /* \"#utility.yul\":15602:15733   */\n      tag_390\n        /* \"#utility.yul\":15728:15732   */\n      dup2\n        /* \"#utility.yul\":15602:15733   */\n      tag_239\n      jump\t// in\n    tag_390:\n        /* \"#utility.yul\":15594:15733   */\n      swap1\n      pop\n        /* \"#utility.yul\":15321:15740   */\n      swap2\n      swap1\n      pop\n      jump\t// out\n\n    auxdata: 0xa26469706673582212204647a2a08ef7ceb8d98edbf594d33db4e21d707def97324b9fdeb39ad279852a64736f6c634300081a0033\n}\n",
				"bytecode": {
					"linkReferences": {},
					"object": "608060405234801561000f575f80fd5b506100225f801b3361005760201b60201c565b6100527fa49807205ce4d355092ef5a8a18f56e8913cf4a201fbe287825b095693c217753361005760201b60201c565b6101bb565b610067828261006b60201b60201c565b5050565b61007b828261015160201b60201c565b61014d5760015f808481526020019081526020015f205f015f8373ffffffffffffffffffffffffffffffffffffffff1673ffffffffffffffffffffffffffffffffffffffff1681526020019081526020015f205f6101000a81548160ff0219169083151502179055506100f26101b460201b60201c565b73ffffffffffffffffffffffffffffffffffffffff168173ffffffffffffffffffffffffffffffffffffffff16837f2f8788117e7eff1d82e926ec794901d17c78024a50270940304540a733656f0d60405160405180910390a45b5050565b5f805f8481526020019081526020015f205f015f8373ffffffffffffffffffffffffffffffffffffffff1673ffffffffffffffffffffffffffffffffffffffff1681526020019081526020015f205f9054906101000a900460ff16905092915050565b5f33905090565b61164f806101c85f395ff3fe608060405234801561000f575f80fd5b50600436106100fe575f3560e01c80637d1b468711610095578063a217fddf11610064578063a217fddf146102ce578063b638d158146102ec578063c634b78e14610308578063d547741f14610324576100fe565b80637d1b46871461023457806389b2c8e71461026657806391d14854146102825780639a19c7b0146102b2576100fe565b806336568abe116100d157806336568abe146101ae57806347e1d550146101ca5780634f0ce4df146101fa57806375b238fc14610216576100fe565b806301ffc9a7146101025780631833fdf914610132578063248a9ca3146101625780632f2ff15d14610192575b5f80fd5b61011c60048036038101906101179190610ec4565b610340565b6040516101299190610f09565b60405180910390f35b61014c60048036038101906101479190610f55565b6103b9565b6040516101599190610f09565b60405180910390f35b61017c60048036038101906101779190610fb3565b6103e2565b6040516101899190610fed565b60405180910390f35b6101ac60048036038101906101a79190611060565b6103fe565b005b6101c860048036038101906101c39190611060565b61041f565b005b6101e460048036038101906101df9190610f55565b6104a2565b6040516101f191906110fc565b60405180910390f35b610214600480360381019061020f9190610f55565b61055a565b005b61021e61061f565b60405161022b9190610fed565b60405180910390f35b61024e60048036038101906102499190610f55565b610643565b60405161025d93929190611124565b60405180910390f35b610280600480360381019061027b9190610f55565b610675565b005b61029c60048036038101906102979190611060565b610764565b6040516102a99190610f09565b60405180910390f35b6102cc60048036038101906102c79190611159565b6107c7565b005b6102d6610801565b6040516102e39190610fed565b60405180910390f35b61030660048036038101906103019190611184565b610807565b005b610322600480360381019061031d9190611159565b6108d2565b005b61033e60048036038101906103399190611060565b61090c565b005b5f7f7965db0b000000000000000000000000000000000000000000000000000000007bffffffffffffffffffffffffffffffffffffffffffffffffffffffff1916827bffffffffffffffffffffffffffffffffffffffffffffffffffffffff191614806103b257506103b18261092d565b5b9050919050565b5f60015f8381526020019081526020015f206002015f9054906101000a900460ff169050919050565b5f805f8381526020019081526020015f20600101549050919050565b610407826103e2565b61041081610996565b61041a83836109aa565b505050565b610427610a84565b73ffffffffffffffffffffffffffffffffffffffff168173ffffffffffffffffffffffffffffffffffffffff1614610494576040517f08c379a000000000000000000000000000000000000000000000000000000000815260040161048b90611242565b60405180910390fd5b61049e8282610a8b565b5050565b6104aa610e4b565b60015f8381526020019081526020015f206002015f9054906101000a900460ff1661050a576040517f08c379a0000000000000000000000000000000000000000000000000000000008152600401610501906112aa565b60405180910390fd5b60015f8381526020019081526020015f206040518060600160405290815f820154815260200160018201548152602001600282015f9054906101000a900460ff1615151515815250509050919050565b7fa49807205ce4d355092ef5a8a18f56e8913cf4a201fbe287825b095693c2177561058481610996565b60015f8381526020019081526020015f206002015f9054906101000a900460ff166105e4576040517f08c379a00000000000000000000000000000000000000000000000000000000081526004016105db906112aa565b60405180910390fd5b7f8da554679ce754233202e83b51aefa8be576e0a49851a9ddd4686dfd94ba60938260405161061391906112c8565b60405180910390a15050565b7fa49807205ce4d355092ef5a8a18f56e8913cf4a201fbe287825b095693c2177581565b6001602052805f5260405f205f91509050805f015490806001015490806002015f9054906101000a900460ff16905083565b7fa49807205ce4d355092ef5a8a18f56e8913cf4a201fbe287825b095693c2177561069f81610996565b60015f8381526020019081526020015f206002015f9054906101000a900460ff166106ff576040517f08c379a00000000000000000000000000000000000000000000000000000000081526004016106f6906112aa565b60405180910390fd5b60015f8381526020019081526020015f205f8082015f9055600182015f9055600282015f6101000a81549060ff02191690555050817f5ef6221cc1c069a8c723210c08d526c7ca88540ee8d66470cf01844efaae0b9460405160405180910390a25050565b5f805f8481526020019081526020015f205f015f8373ffffffffffffffffffffffffffffffffffffffff1673ffffffffffffffffffffffffffffffffffffffff1681526020019081526020015f205f9054906101000a900460ff16905092915050565b5f801b6107d381610996565b6107fd7fa49807205ce4d355092ef5a8a18f56e8913cf4a201fbe287825b095693c217758361090c565b5050565b5f801b81565b7fa49807205ce4d355092ef5a8a18f56e8913cf4a201fbe287825b095693c2177561083181610996565b60405180606001604052808481526020018381526020016001151581525060015f8581526020019081526020015f205f820151815f0155602082015181600101556040820151816002015f6101000a81548160ff0219169083151502179055509050507feeb0a161eda325cefb3f550c18e560490ea78827e2a4c3a9fa9c5e66ce871c3f83836040516108c59291906112e1565b60405180910390a1505050565b5f801b6108de81610996565b6109087fa49807205ce4d355092ef5a8a18f56e8913cf4a201fbe287825b095693c21775836103fe565b5050565b610915826103e2565b61091e81610996565b6109288383610a8b565b505050565b5f7f01ffc9a7000000000000000000000000000000000000000000000000000000007bffffffffffffffffffffffffffffffffffffffffffffffffffffffff1916827bffffffffffffffffffffffffffffffffffffffffffffffffffffffff1916149050919050565b6109a7816109a2610a84565b610b65565b50565b6109b48282610764565b610a805760015f808481526020019081526020015f205f015f8373ffffffffffffffffffffffffffffffffffffffff1673ffffffffffffffffffffffffffffffffffffffff1681526020019081526020015f205f6101000a81548160ff021916908315150217905550610a25610a84565b73ffffffffffffffffffffffffffffffffffffffff168173ffffffffffffffffffffffffffffffffffffffff16837f2f8788117e7eff1d82e926ec794901d17c78024a50270940304540a733656f0d60405160405180910390a45b5050565b5f33905090565b610a958282610764565b15610b61575f805f8481526020019081526020015f205f015f8373ffffffffffffffffffffffffffffffffffffffff1673ffffffffffffffffffffffffffffffffffffffff1681526020019081526020015f205f6101000a81548160ff021916908315150217905550610b06610a84565b73ffffffffffffffffffffffffffffffffffffffff168173ffffffffffffffffffffffffffffffffffffffff16837ff6391f5c32d9c69d2a47ea670b442974b53935d1edc7fd64eb21e047a839171b60405160405180910390a45b5050565b610b6f8282610764565b610be557610b7c81610be9565b610b89835f1c6020610c16565b604051602001610b9a9291906113ee565b6040516020818303038152906040526040517f08c379a0000000000000000000000000000000000000000000000000000000008152600401610bdc919061146f565b60405180910390fd5b5050565b6060610c0f8273ffffffffffffffffffffffffffffffffffffffff16601460ff16610c16565b9050919050565b60605f6002836002610c2891906114bc565b610c3291906114fd565b67ffffffffffffffff811115610c4b57610c4a611530565b5b6040519080825280601f01601f191660200182016040528015610c7d5781602001600182028036833780820191505090505b5090507f3000000000000000000000000000000000000000000000000000000000000000815f81518110610cb457610cb361155d565b5b60200101907effffffffffffffffffffffffffffffffffffffffffffffffffffffffffffff191690815f1a9053507f780000000000000000000000000000000000000000000000000000000000000081600181518110610d1757610d1661155d565b5b60200101907effffffffffffffffffffffffffffffffffffffffffffffffffffffffffffff191690815f1a9053505f6001846002610d5591906114bc565b610d5f91906114fd565b90505b6001811115610dfe577f3031323334353637383961626364656600000000000000000000000000000000600f861660108110610da157610da061155d565b5b1a60f81b828281518110610db857610db761155d565b5b60200101907effffffffffffffffffffffffffffffffffffffffffffffffffffffffffffff191690815f1a905350600485901c945080610df79061158a565b9050610d62565b505f8414610e41576040517f08c379a0000000000000000000000000000000000000000000000000000000008152600401610e38906115fb565b60405180910390fd5b8091505092915050565b60405180606001604052805f81526020015f81526020015f151581525090565b5f80fd5b5f7fffffffff0000000000000000000000000000000000000000000000000000000082169050919050565b610ea381610e6f565b8114610ead575f80fd5b50565b5f81359050610ebe81610e9a565b92915050565b5f60208284031215610ed957610ed8610e6b565b5b5f610ee684828501610eb0565b91505092915050565b5f8115159050919050565b610f0381610eef565b82525050565b5f602082019050610f1c5f830184610efa565b92915050565b5f819050919050565b610f3481610f22565b8114610f3e575f80fd5b50565b5f81359050610f4f81610f2b565b92915050565b5f60208284031215610f6a57610f69610e6b565b5b5f610f7784828501610f41565b91505092915050565b5f819050919050565b610f9281610f80565b8114610f9c575f80fd5b50565b5f81359050610fad81610f89565b92915050565b5f60208284031215610fc857610fc7610e6b565b5b5f610fd584828501610f9f565b91505092915050565b610fe781610f80565b82525050565b5f6020820190506110005f830184610fde565b92915050565b5f73ffffffffffffffffffffffffffffffffffffffff82169050919050565b5f61102f82611006565b9050919050565b61103f81611025565b8114611049575f80fd5b50565b5f8135905061105a81611036565b92915050565b5f806040838503121561107657611075610e6b565b5b5f61108385828601610f9f565b92505060206110948582860161104c565b9150509250929050565b6110a781610f22565b82525050565b6110b681610eef565b82525050565b606082015f8201516110d05f85018261109e565b5060208201516110e3602085018261109e565b5060408201516110f660408501826110ad565b50505050565b5f60608201905061110f5f8301846110bc565b92915050565b61111e81610f22565b82525050565b5f6060820190506111375f830186611115565b6111446020830185611115565b6111516040830184610efa565b949350505050565b5f6020828403121561116e5761116d610e6b565b5b5f61117b8482850161104c565b91505092915050565b5f806040838503121561119a57611199610e6b565b5b5f6111a785828601610f41565b92505060206111b885828601610f41565b9150509250929050565b5f82825260208201905092915050565b7f416363657373436f6e74726f6c3a2063616e206f6e6c792072656e6f756e63655f8201527f20726f6c657320666f722073656c660000000000000000000000000000000000602082015250565b5f61122c602f836111c2565b9150611237826111d2565b604082019050919050565b5f6020820190508181035f83015261125981611220565b9050919050565b7f47616d6520646f6573206e6f74206578697374000000000000000000000000005f82015250565b5f6112946013836111c2565b915061129f82611260565b602082019050919050565b5f6020820190508181035f8301526112c181611288565b9050919050565b5f6020820190506112db5f830184611115565b92915050565b5f6040820190506112f45f830185611115565b6113016020830184611115565b9392505050565b5f81905092915050565b7f416363657373436f6e74726f6c3a206163636f756e74200000000000000000005f82015250565b5f611346601783611308565b915061135182611312565b601782019050919050565b5f81519050919050565b8281835e5f83830152505050565b5f61137e8261135c565b6113888185611308565b9350611398818560208601611366565b80840191505092915050565b7f206973206d697373696e6720726f6c65200000000000000000000000000000005f82015250565b5f6113d8601183611308565b91506113e3826113a4565b601182019050919050565b5f6113f88261133a565b91506114048285611374565b915061140f826113cc565b915061141b8284611374565b91508190509392505050565b5f601f19601f8301169050919050565b5f6114418261135c565b61144b81856111c2565b935061145b818560208601611366565b61146481611427565b840191505092915050565b5f6020820190508181035f8301526114878184611437565b905092915050565b7f4e487b71000000000000000000000000000000000000000000000000000000005f52601160045260245ffd5b5f6114c682610f22565b91506114d183610f22565b92508282026114df81610f22565b915082820484148315176114f6576114f561148f565b5b5092915050565b5f61150782610f22565b915061151283610f22565b925082820190508082111561152a5761152961148f565b5b92915050565b7f4e487b71000000000000000000000000000000000000000000000000000000005f52604160045260245ffd5b7f4e487b71000000000000000000000000000000000000000000000000000000005f52603260045260245ffd5b5f61159482610f22565b91505f82036115a6576115a561148f565b5b600182039050919050565b7f537472696e67733a20686578206c656e67746820696e73756666696369656e745f82015250565b5f6115e56020836111c2565b91506115f0826115b1565b602082019050919050565b5f6020820190508181035f830152611612816115d9565b905091905056fea26469706673582212204647a2a08ef7ceb8d98edbf594d33db4e21d707def97324b9fdeb39ad279852a64736f6c634300081a0033",
					"opcodes": "PUSH1 0x80 PUSH1 0x40 MSTORE CALLVALUE DUP1 ISZERO PUSH2 0xF JUMPI PUSH0 DUP1 REVERT JUMPDEST POP PUSH2 0x22 PUSH0 DUP1 SHL CALLER PUSH2 0x57 PUSH1 0x20 SHL PUSH1 0x20 SHR JUMP JUMPDEST PUSH2 0x52 PUSH32 0xA49807205CE4D355092EF5A8A18F56E8913CF4A201FBE287825B095693C21775 CALLER PUSH2 0x57 PUSH1 0x20 SHL PUSH1 0x20 SHR JUMP JUMPDEST PUSH2 0x1BB JUMP JUMPDEST PUSH2 0x67 DUP3 DUP3 PUSH2 0x6B PUSH1 0x20 SHL PUSH1 0x20 SHR JUMP JUMPDEST POP POP JUMP JUMPDEST PUSH2 0x7B DUP3 DUP3 PUSH2 0x151 PUSH1 0x20 SHL PUSH1 0x20 SHR JUMP JUMPDEST PUSH2 0x14D JUMPI PUSH1 0x1 PUSH0 DUP1 DUP5 DUP2 MSTORE PUSH1 0x20 ADD SWAP1 DUP2 MSTORE PUSH1 0x20 ADD PUSH0 KECCAK256 PUSH0 ADD PUSH0 DUP4 PUSH20 0xFFFFFFFFFFFFFFFFFFFFFFFFFFFFFFFFFFFFFFFF AND PUSH20 0xFFFFFFFFFFFFFFFFFFFFFFFFFFFFFFFFFFFFFFFF AND DUP2 MSTORE PUSH1 0x20 ADD SWAP1 DUP2 MSTORE PUSH1 0x20 ADD PUSH0 KECCAK256 PUSH0 PUSH2 0x100 EXP DUP2 SLOAD DUP2 PUSH1 0xFF MUL NOT AND SWAP1 DUP4 ISZERO ISZERO MUL OR SWAP1 SSTORE POP PUSH2 0xF2 PUSH2 0x1B4 PUSH1 0x20 SHL PUSH1 0x20 SHR JUMP JUMPDEST PUSH20 0xFFFFFFFFFFFFFFFFFFFFFFFFFFFFFFFFFFFFFFFF AND DUP2 PUSH20 0xFFFFFFFFFFFFFFFFFFFFFFFFFFFFFFFFFFFFFFFF AND DUP4 PUSH32 0x2F8788117E7EFF1D82E926EC794901D17C78024A50270940304540A733656F0D PUSH1 0x40 MLOAD PUSH1 0x40 MLOAD DUP1 SWAP2 SUB SWAP1 LOG4 JUMPDEST POP POP JUMP JUMPDEST PUSH0 DUP1 PUSH0 DUP5 DUP2 MSTORE PUSH1 0x20 ADD SWAP1 DUP2 MSTORE PUSH1 0x20 ADD PUSH0 KECCAK256 PUSH0 ADD PUSH0 DUP4 PUSH20 0xFFFFFFFFFFFFFFFFFFFFFFFFFFFFFFFFFFFFFFFF AND PUSH20 0xFFFFFFFFFFFFFFFFFFFFFFFFFFFFFFFFFFFFFFFF AND DUP2 MSTORE PUSH1 0x20 ADD SWAP1 DUP2 MSTORE PUSH1 0x20 ADD PUSH0 KECCAK256 PUSH0 SWAP1 SLOAD SWAP1 PUSH2 0x100 EXP SWAP1 DIV PUSH1 0xFF AND SWAP1 POP SWAP3 SWAP2 POP POP JUMP JUMPDEST PUSH0 CALLER SWAP1 POP SWAP1 JUMP JUMPDEST PUSH2 0x164F DUP1 PUSH2 0x1C8 PUSH0 CODECOPY PUSH0 RETURN INVALID PUSH1 0x80 PUSH1 0x40 MSTORE CALLVALUE DUP1 ISZERO PUSH2 0xF JUMPI PUSH0 DUP1 REVERT JUMPDEST POP PUSH1 0x4 CALLDATASIZE LT PUSH2 0xFE JUMPI PUSH0 CALLDATALOAD PUSH1 0xE0 SHR DUP1 PUSH4 0x7D1B4687 GT PUSH2 0x95 JUMPI DUP1 PUSH4 0xA217FDDF GT PUSH2 0x64 JUMPI DUP1 PUSH4 0xA217FDDF EQ PUSH2 0x2CE JUMPI DUP1 PUSH4 0xB638D158 EQ PUSH2 0x2EC JUMPI DUP1 PUSH4 0xC634B78E EQ PUSH2 0x308 JUMPI DUP1 PUSH4 0xD547741F EQ PUSH2 0x324 JUMPI PUSH2 0xFE JUMP JUMPDEST DUP1 PUSH4 0x7D1B4687 EQ PUSH2 0x234 JUMPI DUP1 PUSH4 0x89B2C8E7 EQ PUSH2 0x266 JUMPI DUP1 PUSH4 0x91D14854 EQ PUSH2 0x282 JUMPI DUP1 PUSH4 0x9A19C7B0 EQ PUSH2 0x2B2 JUMPI PUSH2 0xFE JUMP JUMPDEST DUP1 PUSH4 0x36568ABE GT PUSH2 0xD1 JUMPI DUP1 PUSH4 0x36568ABE EQ PUSH2 0x1AE JUMPI DUP1 PUSH4 0x47E1D550 EQ PUSH2 0x1CA JUMPI DUP1 PUSH4 0x4F0CE4DF EQ PUSH2 0x1FA JUMPI DUP1 PUSH4 0x75B238FC EQ PUSH2 0x216 JUMPI PUSH2 0xFE JUMP JUMPDEST DUP1 PUSH4 0x1FFC9A7 EQ PUSH2 0x102 JUMPI DUP1 PUSH4 0x1833FDF9 EQ PUSH2 0x132 JUMPI DUP1 PUSH4 0x248A9CA3 EQ PUSH2 0x162 JUMPI DUP1 PUSH4 0x2F2FF15D EQ PUSH2 0x192 JUMPI JUMPDEST PUSH0 DUP1 REVERT JUMPDEST PUSH2 0x11C PUSH1 0x4 DUP1 CALLDATASIZE SUB DUP2 ADD SWAP1 PUSH2 0x117 SWAP2 SWAP1 PUSH2 0xEC4 JUMP JUMPDEST PUSH2 0x340 JUMP JUMPDEST PUSH1 0x40 MLOAD PUSH2 0x129 SWAP2 SWAP1 PUSH2 0xF09 JUMP JUMPDEST PUSH1 0x40 MLOAD DUP1 SWAP2 SUB SWAP1 RETURN JUMPDEST PUSH2 0x14C PUSH1 0x4 DUP1 CALLDATASIZE SUB DUP2 ADD SWAP1 PUSH2 0x147 SWAP2 SWAP1 PUSH2 0xF55 JUMP JUMPDEST PUSH2 0x3B9 JUMP JUMPDEST PUSH1 0x40 MLOAD PUSH2 0x159 SWAP2 SWAP1 PUSH2 0xF09 JUMP JUMPDEST PUSH1 0x40 MLOAD DUP1 SWAP2 SUB SWAP1 RETURN JUMPDEST PUSH2 0x17C PUSH1 0x4 DUP1 CALLDATASIZE SUB DUP2 ADD SWAP1 PUSH2 0x177 SWAP2 SWAP1 PUSH2 0xFB3 JUMP JUMPDEST PUSH2 0x3E2 JUMP JUMPDEST PUSH1 0x40 MLOAD PUSH2 0x189 SWAP2 SWAP1 PUSH2 0xFED JUMP JUMPDEST PUSH1 0x40 MLOAD DUP1 SWAP2 SUB SWAP1 RETURN JUMPDEST PUSH2 0x1AC PUSH1 0x4 DUP1 CALLDATASIZE SUB DUP2 ADD SWAP1 PUSH2 0x1A7 SWAP2 SWAP1 PUSH2 0x1060 JUMP JUMPDEST PUSH2 0x3FE JUMP JUMPDEST STOP JUMPDEST PUSH2 0x1C8 PUSH1 0x4 DUP1 CALLDATASIZE SUB DUP2 ADD SWAP1 PUSH2 0x1C3 SWAP2 SWAP1 PUSH2 0x1060 JUMP JUMPDEST PUSH2 0x41F JUMP JUMPDEST STOP JUMPDEST PUSH2 0x1E4 PUSH1 0x4 DUP1 CALLDATASIZE SUB DUP2 ADD SWAP1 PUSH2 0x1DF SWAP2 SWAP1 PUSH2 0xF55 JUMP JUMPDEST PUSH2 0x4A2 JUMP JUMPDEST PUSH1 0x40 MLOAD PUSH2 0x1F1 SWAP2 SWAP1 PUSH2 0x10FC JUMP JUMPDEST PUSH1 0x40 MLOAD DUP1 SWAP2 SUB SWAP1 RETURN JUMPDEST PUSH2 0x214 PUSH1 0x4 DUP1 CALLDATASIZE SUB DUP2 ADD SWAP1 PUSH2 0x20F SWAP2 SWAP1 PUSH2 0xF55 JUMP JUMPDEST PUSH2 0x55A JUMP JUMPDEST STOP JUMPDEST PUSH2 0x21E PUSH2 0x61F JUMP JUMPDEST PUSH1 0x40 MLOAD PUSH2 0x22B SWAP2 SWAP1 PUSH2 0xFED JUMP JUMPDEST PUSH1 0x40 MLOAD DUP1 SWAP2 SUB SWAP1 RETURN JUMPDEST PUSH2 0x24E PUSH1 0x4 DUP1 CALLDATASIZE SUB DUP2 ADD SWAP1 PUSH2 0x249 SWAP2 SWAP1 PUSH2 0xF55 JUMP JUMPDEST PUSH2 0x643 JUMP JUMPDEST PUSH1 0x40 MLOAD PUSH2 0x25D SWAP4 SWAP3 SWAP2 SWAP1 PUSH2 0x1124 JUMP JUMPDEST PUSH1 0x40 MLOAD DUP1 SWAP2 SUB SWAP1 RETURN JUMPDEST PUSH2 0x280 PUSH1 0x4 DUP1 CALLDATASIZE SUB DUP2 ADD SWAP1 PUSH2 0x27B SWAP2 SWAP1 PUSH2 0xF55 JUMP JUMPDEST PUSH2 0x675 JUMP JUMPDEST STOP JUMPDEST PUSH2 0x29C PUSH1 0x4 DUP1 CALLDATASIZE SUB DUP2 ADD SWAP1 PUSH2 0x297 SWAP2 SWAP1 PUSH2 0x1060 JUMP JUMPDEST PUSH2 0x764 JUMP JUMPDEST PUSH1 0x40 MLOAD PUSH2 0x2A9 SWAP2 SWAP1 PUSH2 0xF09 JUMP JUMPDEST PUSH1 0x40 MLOAD DUP1 SWAP2 SUB SWAP1 RETURN JUMPDEST PUSH2 0x2CC PUSH1 0x4 DUP1 CALLDATASIZE SUB DUP2 ADD SWAP1 PUSH2 0x2C7 SWAP2 SWAP1 PUSH2 0x1159 JUMP JUMPDEST PUSH2 0x7C7 JUMP JUMPDEST STOP JUMPDEST PUSH2 0x2D6 PUSH2 0x801 JUMP JUMPDEST PUSH1 0x40 MLOAD PUSH2 0x2E3 SWAP2 SWAP1 PUSH2 0xFED JUMP JUMPDEST PUSH1 0x40 MLOAD DUP1 SWAP2 SUB SWAP1 RETURN JUMPDEST PUSH2 0x306 PUSH1 0x4 DUP1 CALLDATASIZE SUB DUP2 ADD SWAP1 PUSH2 0x301 SWAP2 SWAP1 PUSH2 0x1184 JUMP JUMPDEST PUSH2 0x807 JUMP JUMPDEST STOP JUMPDEST PUSH2 0x322 PUSH1 0x4 DUP1 CALLDATASIZE SUB DUP2 ADD SWAP1 PUSH2 0x31D SWAP2 SWAP1 PUSH2 0x1159 JUMP JUMPDEST PUSH2 0x8D2 JUMP JUMPDEST STOP JUMPDEST PUSH2 0x33E PUSH1 0x4 DUP1 CALLDATASIZE SUB DUP2 ADD SWAP1 PUSH2 0x339 SWAP2 SWAP1 PUSH2 0x1060 JUMP JUMPDEST PUSH2 0x90C JUMP JUMPDEST STOP JUMPDEST PUSH0 PUSH32 0x7965DB0B00000000000000000000000000000000000000000000000000000000 PUSH28 0xFFFFFFFFFFFFFFFFFFFFFFFFFFFFFFFFFFFFFFFFFFFFFFFFFFFFFFFF NOT AND DUP3 PUSH28 0xFFFFFFFFFFFFFFFFFFFFFFFFFFFFFFFFFFFFFFFFFFFFFFFFFFFFFFFF NOT AND EQ DUP1 PUSH2 0x3B2 JUMPI POP PUSH2 0x3B1 DUP3 PUSH2 0x92D JUMP JUMPDEST JUMPDEST SWAP1 POP SWAP2 SWAP1 POP JUMP JUMPDEST PUSH0 PUSH1 0x1 PUSH0 DUP4 DUP2 MSTORE PUSH1 0x20 ADD SWAP1 DUP2 MSTORE PUSH1 0x20 ADD PUSH0 KECCAK256 PUSH1 0x2 ADD PUSH0 SWAP1 SLOAD SWAP1 PUSH2 0x100 EXP SWAP1 DIV PUSH1 0xFF AND SWAP1 POP SWAP2 SWAP1 POP JUMP JUMPDEST PUSH0 DUP1 PUSH0 DUP4 DUP2 MSTORE PUSH1 0x20 ADD SWAP1 DUP2 MSTORE PUSH1 0x20 ADD PUSH0 KECCAK256 PUSH1 0x1 ADD SLOAD SWAP1 POP SWAP2 SWAP1 POP JUMP JUMPDEST PUSH2 0x407 DUP3 PUSH2 0x3E2 JUMP JUMPDEST PUSH2 0x410 DUP2 PUSH2 0x996 JUMP JUMPDEST PUSH2 0x41A DUP4 DUP4 PUSH2 0x9AA JUMP JUMPDEST POP POP POP JUMP JUMPDEST PUSH2 0x427 PUSH2 0xA84 JUMP JUMPDEST PUSH20 0xFFFFFFFFFFFFFFFFFFFFFFFFFFFFFFFFFFFFFFFF AND DUP2 PUSH20 0xFFFFFFFFFFFFFFFFFFFFFFFFFFFFFFFFFFFFFFFF AND EQ PUSH2 0x494 JUMPI PUSH1 0x40 MLOAD PUSH32 0x8C379A000000000000000000000000000000000000000000000000000000000 DUP2 MSTORE PUSH1 0x4 ADD PUSH2 0x48B SWAP1 PUSH2 0x1242 JUMP JUMPDEST PUSH1 0x40 MLOAD DUP1 SWAP2 SUB SWAP1 REVERT JUMPDEST PUSH2 0x49E DUP3 DUP3 PUSH2 0xA8B JUMP JUMPDEST POP POP JUMP JUMPDEST PUSH2 0x4AA PUSH2 0xE4B JUMP JUMPDEST PUSH1 0x1 PUSH0 DUP4 DUP2 MSTORE PUSH1 0x20 ADD SWAP1 DUP2 MSTORE PUSH1 0x20 ADD PUSH0 KECCAK256 PUSH1 0x2 ADD PUSH0 SWAP1 SLOAD SWAP1 PUSH2 0x100 EXP SWAP1 DIV PUSH1 0xFF AND PUSH2 0x50A JUMPI PUSH1 0x40 MLOAD PUSH32 0x8C379A000000000000000000000000000000000000000000000000000000000 DUP2 MSTORE PUSH1 0x4 ADD PUSH2 0x501 SWAP1 PUSH2 0x12AA JUMP JUMPDEST PUSH1 0x40 MLOAD DUP1 SWAP2 SUB SWAP1 REVERT JUMPDEST PUSH1 0x1 PUSH0 DUP4 DUP2 MSTORE PUSH1 0x20 ADD SWAP1 DUP2 MSTORE PUSH1 0x20 ADD PUSH0 KECCAK256 PUSH1 0x40 MLOAD DUP1 PUSH1 0x60 ADD PUSH1 0x40 MSTORE SWAP1 DUP2 PUSH0 DUP3 ADD SLOAD DUP2 MSTORE PUSH1 0x20 ADD PUSH1 0x1 DUP3 ADD SLOAD DUP2 MSTORE PUSH1 0x20 ADD PUSH1 0x2 DUP3 ADD PUSH0 SWAP1 SLOAD SWAP1 PUSH2 0x100 EXP SWAP1 DIV PUSH1 0xFF AND ISZERO ISZERO ISZERO ISZERO DUP2 MSTORE POP POP SWAP1 POP SWAP2 SWAP1 POP JUMP JUMPDEST PUSH32 0xA49807205CE4D355092EF5A8A18F56E8913CF4A201FBE287825B095693C21775 PUSH2 0x584 DUP2 PUSH2 0x996 JUMP JUMPDEST PUSH1 0x1 PUSH0 DUP4 DUP2 MSTORE PUSH1 0x20 ADD SWAP1 DUP2 MSTORE PUSH1 0x20 ADD PUSH0 KECCAK256 PUSH1 0x2 ADD PUSH0 SWAP1 SLOAD SWAP1 PUSH2 0x100 EXP SWAP1 DIV PUSH1 0xFF AND PUSH2 0x5E4 JUMPI PUSH1 0x40 MLOAD PUSH32 0x8C379A000000000000000000000000000000000000000000000000000000000 DUP2 MSTORE PUSH1 0x4 ADD PUSH2 0x5DB SWAP1 PUSH2 0x12AA JUMP JUMPDEST PUSH1 0x40 MLOAD DUP1 SWAP2 SUB SWAP1 REVERT JUMPDEST PUSH32 0x8DA554679CE754233202E83B51AEFA8BE576E0A49851A9DDD4686DFD94BA6093 DUP3 PUSH1 0x40 MLOAD PUSH2 0x613 SWAP2 SWAP1 PUSH2 0x12C8 JUMP JUMPDEST PUSH1 0x40 MLOAD DUP1 SWAP2 SUB SWAP1 LOG1 POP POP JUMP JUMPDEST PUSH32 0xA49807205CE4D355092EF5A8A18F56E8913CF4A201FBE287825B095693C21775 DUP2 JUMP JUMPDEST PUSH1 0x1 PUSH1 0x20 MSTORE DUP1 PUSH0 MSTORE PUSH1 0x40 PUSH0 KECCAK256 PUSH0 SWAP2 POP SWAP1 POP DUP1 PUSH0 ADD SLOAD SWAP1 DUP1 PUSH1 0x1 ADD SLOAD SWAP1 DUP1 PUSH1 0x2 ADD PUSH0 SWAP1 SLOAD SWAP1 PUSH2 0x100 EXP SWAP1 DIV PUSH1 0xFF AND SWAP1 POP DUP4 JUMP JUMPDEST PUSH32 0xA49807205CE4D355092EF5A8A18F56E8913CF4A201FBE287825B095693C21775 PUSH2 0x69F DUP2 PUSH2 0x996 JUMP JUMPDEST PUSH1 0x1 PUSH0 DUP4 DUP2 MSTORE PUSH1 0x20 ADD SWAP1 DUP2 MSTORE PUSH1 0x20 ADD PUSH0 KECCAK256 PUSH1 0x2 ADD PUSH0 SWAP1 SLOAD SWAP1 PUSH2 0x100 EXP SWAP1 DIV PUSH1 0xFF AND PUSH2 0x6FF JUMPI PUSH1 0x40 MLOAD PUSH32 0x8C379A000000000000000000000000000000000000000000000000000000000 DUP2 MSTORE PUSH1 0x4 ADD PUSH2 0x6F6 SWAP1 PUSH2 0x12AA JUMP JUMPDEST PUSH1 0x40 MLOAD DUP1 SWAP2 SUB SWAP1 REVERT JUMPDEST PUSH1 0x1 PUSH0 DUP4 DUP2 MSTORE PUSH1 0x20 ADD SWAP1 DUP2 MSTORE PUSH1 0x20 ADD PUSH0 KECCAK256 PUSH0 DUP1 DUP3 ADD PUSH0 SWAP1 SSTORE PUSH1 0x1 DUP3 ADD PUSH0 SWAP1 SSTORE PUSH1 0x2 DUP3 ADD PUSH0 PUSH2 0x100 EXP DUP2 SLOAD SWAP1 PUSH1 0xFF MUL NOT AND SWAP1 SSTORE POP POP DUP2 PUSH32 0x5EF6221CC1C069A8C723210C08D526C7CA88540EE8D66470CF01844EFAAE0B94 PUSH1 0x40 MLOAD PUSH1 0x40 MLOAD DUP1 SWAP2 SUB SWAP1 LOG2 POP POP JUMP JUMPDEST PUSH0 DUP1 PUSH0 DUP5 DUP2 MSTORE PUSH1 0x20 ADD SWAP1 DUP2 MSTORE PUSH1 0x20 ADD PUSH0 KECCAK256 PUSH0 ADD PUSH0 DUP4 PUSH20 0xFFFFFFFFFFFFFFFFFFFFFFFFFFFFFFFFFFFFFFFF AND PUSH20 0xFFFFFFFFFFFFFFFFFFFFFFFFFFFFFFFFFFFFFFFF AND DUP2 MSTORE PUSH1 0x20 ADD SWAP1 DUP2 MSTORE PUSH1 0x20 ADD PUSH0 KECCAK256 PUSH0 SWAP1 SLOAD SWAP1 PUSH2 0x100 EXP SWAP1 DIV PUSH1 0xFF AND SWAP1 POP SWAP3 SWAP2 POP POP JUMP JUMPDEST PUSH0 DUP1 SHL PUSH2 0x7D3 DUP2 PUSH2 0x996 JUMP JUMPDEST PUSH2 0x7FD PUSH32 0xA49807205CE4D355092EF5A8A18F56E8913CF4A201FBE287825B095693C21775 DUP4 PUSH2 0x90C JUMP JUMPDEST POP POP JUMP JUMPDEST PUSH0 DUP1 SHL DUP2 JUMP JUMPDEST PUSH32 0xA49807205CE4D355092EF5A8A18F56E8913CF4A201FBE287825B095693C21775 PUSH2 0x831 DUP2 PUSH2 0x996 JUMP JUMPDEST PUSH1 0x40 MLOAD DUP1 PUSH1 0x60 ADD PUSH1 0x40 MSTORE DUP1 DUP5 DUP2 MSTORE PUSH1 0x20 ADD DUP4 DUP2 MSTORE PUSH1 0x20 ADD PUSH1 0x1 ISZERO ISZERO DUP2 MSTORE POP PUSH1 0x1 PUSH0 DUP6 DUP2 MSTORE PUSH1 0x20 ADD SWAP1 DUP2 MSTORE PUSH1 0x20 ADD PUSH0 KECCAK256 PUSH0 DUP3 ADD MLOAD DUP2 PUSH0 ADD SSTORE PUSH1 0x20 DUP3 ADD MLOAD DUP2 PUSH1 0x1 ADD SSTORE PUSH1 0x40 DUP3 ADD MLOAD DUP2 PUSH1 0x2 ADD PUSH0 PUSH2 0x100 EXP DUP2 SLOAD DUP2 PUSH1 0xFF MUL NOT AND SWAP1 DUP4 ISZERO ISZERO MUL OR SWAP1 SSTORE POP SWAP1 POP POP PUSH32 0xEEB0A161EDA325CEFB3F550C18E560490EA78827E2A4C3A9FA9C5E66CE871C3F DUP4 DUP4 PUSH1 0x40 MLOAD PUSH2 0x8C5 SWAP3 SWAP2 SWAP1 PUSH2 0x12E1 JUMP JUMPDEST PUSH1 0x40 MLOAD DUP1 SWAP2 SUB SWAP1 LOG1 POP POP POP JUMP JUMPDEST PUSH0 DUP1 SHL PUSH2 0x8DE DUP2 PUSH2 0x996 JUMP JUMPDEST PUSH2 0x908 PUSH32 0xA49807205CE4D355092EF5A8A18F56E8913CF4A201FBE287825B095693C21775 DUP4 PUSH2 0x3FE JUMP JUMPDEST POP POP JUMP JUMPDEST PUSH2 0x915 DUP3 PUSH2 0x3E2 JUMP JUMPDEST PUSH2 0x91E DUP2 PUSH2 0x996 JUMP JUMPDEST PUSH2 0x928 DUP4 DUP4 PUSH2 0xA8B JUMP JUMPDEST POP POP POP JUMP JUMPDEST PUSH0 PUSH32 0x1FFC9A700000000000000000000000000000000000000000000000000000000 PUSH28 0xFFFFFFFFFFFFFFFFFFFFFFFFFFFFFFFFFFFFFFFFFFFFFFFFFFFFFFFF NOT AND DUP3 PUSH28 0xFFFFFFFFFFFFFFFFFFFFFFFFFFFFFFFFFFFFFFFFFFFFFFFFFFFFFFFF NOT AND EQ SWAP1 POP SWAP2 SWAP1 POP JUMP JUMPDEST PUSH2 0x9A7 DUP2 PUSH2 0x9A2 PUSH2 0xA84 JUMP JUMPDEST PUSH2 0xB65 JUMP JUMPDEST POP JUMP JUMPDEST PUSH2 0x9B4 DUP3 DUP3 PUSH2 0x764 JUMP JUMPDEST PUSH2 0xA80 JUMPI PUSH1 0x1 PUSH0 DUP1 DUP5 DUP2 MSTORE PUSH1 0x20 ADD SWAP1 DUP2 MSTORE PUSH1 0x20 ADD PUSH0 KECCAK256 PUSH0 ADD PUSH0 DUP4 PUSH20 0xFFFFFFFFFFFFFFFFFFFFFFFFFFFFFFFFFFFFFFFF AND PUSH20 0xFFFFFFFFFFFFFFFFFFFFFFFFFFFFFFFFFFFFFFFF AND DUP2 MSTORE PUSH1 0x20 ADD SWAP1 DUP2 MSTORE PUSH1 0x20 ADD PUSH0 KECCAK256 PUSH0 PUSH2 0x100 EXP DUP2 SLOAD DUP2 PUSH1 0xFF MUL NOT AND SWAP1 DUP4 ISZERO ISZERO MUL OR SWAP1 SSTORE POP PUSH2 0xA25 PUSH2 0xA84 JUMP JUMPDEST PUSH20 0xFFFFFFFFFFFFFFFFFFFFFFFFFFFFFFFFFFFFFFFF AND DUP2 PUSH20 0xFFFFFFFFFFFFFFFFFFFFFFFFFFFFFFFFFFFFFFFF AND DUP4 PUSH32 0x2F8788117E7EFF1D82E926EC794901D17C78024A50270940304540A733656F0D PUSH1 0x40 MLOAD PUSH1 0x40 MLOAD DUP1 SWAP2 SUB SWAP1 LOG4 JUMPDEST POP POP JUMP JUMPDEST PUSH0 CALLER SWAP1 POP SWAP1 JUMP JUMPDEST PUSH2 0xA95 DUP3 DUP3 PUSH2 0x764 JUMP JUMPDEST ISZERO PUSH2 0xB61 JUMPI PUSH0 DUP1 PUSH0 DUP5 DUP2 MSTORE PUSH1 0x20 ADD SWAP1 DUP2 MSTORE PUSH1 0x20 ADD PUSH0 KECCAK256 PUSH0 ADD PUSH0 DUP4 PUSH20 0xFFFFFFFFFFFFFFFFFFFFFFFFFFFFFFFFFFFFFFFF AND PUSH20 0xFFFFFFFFFFFFFFFFFFFFFFFFFFFFFFFFFFFFFFFF AND DUP2 MSTORE PUSH1 0x20 ADD SWAP1 DUP2 MSTORE PUSH1 0x20 ADD PUSH0 KECCAK256 PUSH0 PUSH2 0x100 EXP DUP2 SLOAD DUP2 PUSH1 0xFF MUL NOT AND SWAP1 DUP4 ISZERO ISZERO MUL OR SWAP1 SSTORE POP PUSH2 0xB06 PUSH2 0xA84 JUMP JUMPDEST PUSH20 0xFFFFFFFFFFFFFFFFFFFFFFFFFFFFFFFFFFFFFFFF AND DUP2 PUSH20 0xFFFFFFFFFFFFFFFFFFFFFFFFFFFFFFFFFFFFFFFF AND DUP4 PUSH32 0xF6391F5C32D9C69D2A47EA670B442974B53935D1EDC7FD64EB21E047A839171B PUSH1 0x40 MLOAD PUSH1 0x40 MLOAD DUP1 SWAP2 SUB SWAP1 LOG4 JUMPDEST POP POP JUMP JUMPDEST PUSH2 0xB6F DUP3 DUP3 PUSH2 0x764 JUMP JUMPDEST PUSH2 0xBE5 JUMPI PUSH2 0xB7C DUP2 PUSH2 0xBE9 JUMP JUMPDEST PUSH2 0xB89 DUP4 PUSH0 SHR PUSH1 0x20 PUSH2 0xC16 JUMP JUMPDEST PUSH1 0x40 MLOAD PUSH1 0x20 ADD PUSH2 0xB9A SWAP3 SWAP2 SWAP1 PUSH2 0x13EE JUMP JUMPDEST PUSH1 0x40 MLOAD PUSH1 0x20 DUP2 DUP4 SUB SUB DUP2 MSTORE SWAP1 PUSH1 0x40 MSTORE PUSH1 0x40 MLOAD PUSH32 0x8C379A000000000000000000000000000000000000000000000000000000000 DUP2 MSTORE PUSH1 0x4 ADD PUSH2 0xBDC SWAP2 SWAP1 PUSH2 0x146F JUMP JUMPDEST PUSH1 0x40 MLOAD DUP1 SWAP2 SUB SWAP1 REVERT JUMPDEST POP POP JUMP JUMPDEST PUSH1 0x60 PUSH2 0xC0F DUP3 PUSH20 0xFFFFFFFFFFFFFFFFFFFFFFFFFFFFFFFFFFFFFFFF AND PUSH1 0x14 PUSH1 0xFF AND PUSH2 0xC16 JUMP JUMPDEST SWAP1 POP SWAP2 SWAP1 POP JUMP JUMPDEST PUSH1 0x60 PUSH0 PUSH1 0x2 DUP4 PUSH1 0x2 PUSH2 0xC28 SWAP2 SWAP1 PUSH2 0x14BC JUMP JUMPDEST PUSH2 0xC32 SWAP2 SWAP1 PUSH2 0x14FD JUMP JUMPDEST PUSH8 0xFFFFFFFFFFFFFFFF DUP2 GT ISZERO PUSH2 0xC4B JUMPI PUSH2 0xC4A PUSH2 0x1530 JUMP JUMPDEST JUMPDEST PUSH1 0x40 MLOAD SWAP1 DUP1 DUP3 MSTORE DUP1 PUSH1 0x1F ADD PUSH1 0x1F NOT AND PUSH1 0x20 ADD DUP3 ADD PUSH1 0x40 MSTORE DUP1 ISZERO PUSH2 0xC7D JUMPI DUP2 PUSH1 0x20 ADD PUSH1 0x1 DUP3 MUL DUP1 CALLDATASIZE DUP4 CALLDATACOPY DUP1 DUP3 ADD SWAP2 POP POP SWAP1 POP JUMPDEST POP SWAP1 POP PUSH32 0x3000000000000000000000000000000000000000000000000000000000000000 DUP2 PUSH0 DUP2 MLOAD DUP2 LT PUSH2 0xCB4 JUMPI PUSH2 0xCB3 PUSH2 0x155D JUMP JUMPDEST JUMPDEST PUSH1 0x20 ADD ADD SWAP1 PUSH31 0xFFFFFFFFFFFFFFFFFFFFFFFFFFFFFFFFFFFFFFFFFFFFFFFFFFFFFFFFFFFFFF NOT AND SWAP1 DUP2 PUSH0 BYTE SWAP1 MSTORE8 POP PUSH32 0x7800000000000000000000000000000000000000000000000000000000000000 DUP2 PUSH1 0x1 DUP2 MLOAD DUP2 LT PUSH2 0xD17 JUMPI PUSH2 0xD16 PUSH2 0x155D JUMP JUMPDEST JUMPDEST PUSH1 0x20 ADD ADD SWAP1 PUSH31 0xFFFFFFFFFFFFFFFFFFFFFFFFFFFFFFFFFFFFFFFFFFFFFFFFFFFFFFFFFFFFFF NOT AND SWAP1 DUP2 PUSH0 BYTE SWAP1 MSTORE8 POP PUSH0 PUSH1 0x1 DUP5 PUSH1 0x2 PUSH2 0xD55 SWAP2 SWAP1 PUSH2 0x14BC JUMP JUMPDEST PUSH2 0xD5F SWAP2 SWAP1 PUSH2 0x14FD JUMP JUMPDEST SWAP1 POP JUMPDEST PUSH1 0x1 DUP2 GT ISZERO PUSH2 0xDFE JUMPI PUSH32 0x3031323334353637383961626364656600000000000000000000000000000000 PUSH1 0xF DUP7 AND PUSH1 0x10 DUP2 LT PUSH2 0xDA1 JUMPI PUSH2 0xDA0 PUSH2 0x155D JUMP JUMPDEST JUMPDEST BYTE PUSH1 0xF8 SHL DUP3 DUP3 DUP2 MLOAD DUP2 LT PUSH2 0xDB8 JUMPI PUSH2 0xDB7 PUSH2 0x155D JUMP JUMPDEST JUMPDEST PUSH1 0x20 ADD ADD SWAP1 PUSH31 0xFFFFFFFFFFFFFFFFFFFFFFFFFFFFFFFFFFFFFFFFFFFFFFFFFFFFFFFFFFFFFF NOT AND SWAP1 DUP2 PUSH0 BYTE SWAP1 MSTORE8 POP PUSH1 0x4 DUP6 SWAP1 SHR SWAP5 POP DUP1 PUSH2 0xDF7 SWAP1 PUSH2 0x158A JUMP JUMPDEST SWAP1 POP PUSH2 0xD62 JUMP JUMPDEST POP PUSH0 DUP5 EQ PUSH2 0xE41 JUMPI PUSH1 0x40 MLOAD PUSH32 0x8C379A000000000000000000000000000000000000000000000000000000000 DUP2 MSTORE PUSH1 0x4 ADD PUSH2 0xE38 SWAP1 PUSH2 0x15FB JUMP JUMPDEST PUSH1 0x40 MLOAD DUP1 SWAP2 SUB SWAP1 REVERT JUMPDEST DUP1 SWAP2 POP POP SWAP3 SWAP2 POP POP JUMP JUMPDEST PUSH1 0x40 MLOAD DUP1 PUSH1 0x60 ADD PUSH1 0x40 MSTORE DUP1 PUSH0 DUP2 MSTORE PUSH1 0x20 ADD PUSH0 DUP2 MSTORE PUSH1 0x20 ADD PUSH0 ISZERO ISZERO DUP2 MSTORE POP SWAP1 JUMP JUMPDEST PUSH0 DUP1 REVERT JUMPDEST PUSH0 PUSH32 0xFFFFFFFF00000000000000000000000000000000000000000000000000000000 DUP3 AND SWAP1 POP SWAP2 SWAP1 POP JUMP JUMPDEST PUSH2 0xEA3 DUP2 PUSH2 0xE6F JUMP JUMPDEST DUP2 EQ PUSH2 0xEAD JUMPI PUSH0 DUP1 REVERT JUMPDEST POP JUMP JUMPDEST PUSH0 DUP2 CALLDATALOAD SWAP1 POP PUSH2 0xEBE DUP2 PUSH2 0xE9A JUMP JUMPDEST SWAP3 SWAP2 POP POP JUMP JUMPDEST PUSH0 PUSH1 0x20 DUP3 DUP5 SUB SLT ISZERO PUSH2 0xED9 JUMPI PUSH2 0xED8 PUSH2 0xE6B JUMP JUMPDEST JUMPDEST PUSH0 PUSH2 0xEE6 DUP5 DUP3 DUP6 ADD PUSH2 0xEB0 JUMP JUMPDEST SWAP2 POP POP SWAP3 SWAP2 POP POP JUMP JUMPDEST PUSH0 DUP2 ISZERO ISZERO SWAP1 POP SWAP2 SWAP1 POP JUMP JUMPDEST PUSH2 0xF03 DUP2 PUSH2 0xEEF JUMP JUMPDEST DUP3 MSTORE POP POP JUMP JUMPDEST PUSH0 PUSH1 0x20 DUP3 ADD SWAP1 POP PUSH2 0xF1C PUSH0 DUP4 ADD DUP5 PUSH2 0xEFA JUMP JUMPDEST SWAP3 SWAP2 POP POP JUMP JUMPDEST PUSH0 DUP2 SWAP1 POP SWAP2 SWAP1 POP JUMP JUMPDEST PUSH2 0xF34 DUP2 PUSH2 0xF22 JUMP JUMPDEST DUP2 EQ PUSH2 0xF3E JUMPI PUSH0 DUP1 REVERT JUMPDEST POP JUMP JUMPDEST PUSH0 DUP2 CALLDATALOAD SWAP1 POP PUSH2 0xF4F DUP2 PUSH2 0xF2B JUMP JUMPDEST SWAP3 SWAP2 POP POP JUMP JUMPDEST PUSH0 PUSH1 0x20 DUP3 DUP5 SUB SLT ISZERO PUSH2 0xF6A JUMPI PUSH2 0xF69 PUSH2 0xE6B JUMP JUMPDEST JUMPDEST PUSH0 PUSH2 0xF77 DUP5 DUP3 DUP6 ADD PUSH2 0xF41 JUMP JUMPDEST SWAP2 POP POP SWAP3 SWAP2 POP POP JUMP JUMPDEST PUSH0 DUP2 SWAP1 POP SWAP2 SWAP1 POP JUMP JUMPDEST PUSH2 0xF92 DUP2 PUSH2 0xF80 JUMP JUMPDEST DUP2 EQ PUSH2 0xF9C JUMPI PUSH0 DUP1 REVERT JUMPDEST POP JUMP JUMPDEST PUSH0 DUP2 CALLDATALOAD SWAP1 POP PUSH2 0xFAD DUP2 PUSH2 0xF89 JUMP JUMPDEST SWAP3 SWAP2 POP POP JUMP JUMPDEST PUSH0 PUSH1 0x20 DUP3 DUP5 SUB SLT ISZERO PUSH2 0xFC8 JUMPI PUSH2 0xFC7 PUSH2 0xE6B JUMP JUMPDEST JUMPDEST PUSH0 PUSH2 0xFD5 DUP5 DUP3 DUP6 ADD PUSH2 0xF9F JUMP JUMPDEST SWAP2 POP POP SWAP3 SWAP2 POP POP JUMP JUMPDEST PUSH2 0xFE7 DUP2 PUSH2 0xF80 JUMP JUMPDEST DUP3 MSTORE POP POP JUMP JUMPDEST PUSH0 PUSH1 0x20 DUP3 ADD SWAP1 POP PUSH2 0x1000 PUSH0 DUP4 ADD DUP5 PUSH2 0xFDE JUMP JUMPDEST SWAP3 SWAP2 POP POP JUMP JUMPDEST PUSH0 PUSH20 0xFFFFFFFFFFFFFFFFFFFFFFFFFFFFFFFFFFFFFFFF DUP3 AND SWAP1 POP SWAP2 SWAP1 POP JUMP JUMPDEST PUSH0 PUSH2 0x102F DUP3 PUSH2 0x1006 JUMP JUMPDEST SWAP1 POP SWAP2 SWAP1 POP JUMP JUMPDEST PUSH2 0x103F DUP2 PUSH2 0x1025 JUMP JUMPDEST DUP2 EQ PUSH2 0x1049 JUMPI PUSH0 DUP1 REVERT JUMPDEST POP JUMP JUMPDEST PUSH0 DUP2 CALLDATALOAD SWAP1 POP PUSH2 0x105A DUP2 PUSH2 0x1036 JUMP JUMPDEST SWAP3 SWAP2 POP POP JUMP JUMPDEST PUSH0 DUP1 PUSH1 0x40 DUP4 DUP6 SUB SLT ISZERO PUSH2 0x1076 JUMPI PUSH2 0x1075 PUSH2 0xE6B JUMP JUMPDEST JUMPDEST PUSH0 PUSH2 0x1083 DUP6 DUP3 DUP7 ADD PUSH2 0xF9F JUMP JUMPDEST SWAP3 POP POP PUSH1 0x20 PUSH2 0x1094 DUP6 DUP3 DUP7 ADD PUSH2 0x104C JUMP JUMPDEST SWAP2 POP POP SWAP3 POP SWAP3 SWAP1 POP JUMP JUMPDEST PUSH2 0x10A7 DUP2 PUSH2 0xF22 JUMP JUMPDEST DUP3 MSTORE POP POP JUMP JUMPDEST PUSH2 0x10B6 DUP2 PUSH2 0xEEF JUMP JUMPDEST DUP3 MSTORE POP POP JUMP JUMPDEST PUSH1 0x60 DUP3 ADD PUSH0 DUP3 ADD MLOAD PUSH2 0x10D0 PUSH0 DUP6 ADD DUP3 PUSH2 0x109E JUMP JUMPDEST POP PUSH1 0x20 DUP3 ADD MLOAD PUSH2 0x10E3 PUSH1 0x20 DUP6 ADD DUP3 PUSH2 0x109E JUMP JUMPDEST POP PUSH1 0x40 DUP3 ADD MLOAD PUSH2 0x10F6 PUSH1 0x40 DUP6 ADD DUP3 PUSH2 0x10AD JUMP JUMPDEST POP POP POP POP JUMP JUMPDEST PUSH0 PUSH1 0x60 DUP3 ADD SWAP1 POP PUSH2 0x110F PUSH0 DUP4 ADD DUP5 PUSH2 0x10BC JUMP JUMPDEST SWAP3 SWAP2 POP POP JUMP JUMPDEST PUSH2 0x111E DUP2 PUSH2 0xF22 JUMP JUMPDEST DUP3 MSTORE POP POP JUMP JUMPDEST PUSH0 PUSH1 0x60 DUP3 ADD SWAP1 POP PUSH2 0x1137 PUSH0 DUP4 ADD DUP7 PUSH2 0x1115 JUMP JUMPDEST PUSH2 0x1144 PUSH1 0x20 DUP4 ADD DUP6 PUSH2 0x1115 JUMP JUMPDEST PUSH2 0x1151 PUSH1 0x40 DUP4 ADD DUP5 PUSH2 0xEFA JUMP JUMPDEST SWAP5 SWAP4 POP POP POP POP JUMP JUMPDEST PUSH0 PUSH1 0x20 DUP3 DUP5 SUB SLT ISZERO PUSH2 0x116E JUMPI PUSH2 0x116D PUSH2 0xE6B JUMP JUMPDEST JUMPDEST PUSH0 PUSH2 0x117B DUP5 DUP3 DUP6 ADD PUSH2 0x104C JUMP JUMPDEST SWAP2 POP POP SWAP3 SWAP2 POP POP JUMP JUMPDEST PUSH0 DUP1 PUSH1 0x40 DUP4 DUP6 SUB SLT ISZERO PUSH2 0x119A JUMPI PUSH2 0x1199 PUSH2 0xE6B JUMP JUMPDEST JUMPDEST PUSH0 PUSH2 0x11A7 DUP6 DUP3 DUP7 ADD PUSH2 0xF41 JUMP JUMPDEST SWAP3 POP POP PUSH1 0x20 PUSH2 0x11B8 DUP6 DUP3 DUP7 ADD PUSH2 0xF41 JUMP JUMPDEST SWAP2 POP POP SWAP3 POP SWAP3 SWAP1 POP JUMP JUMPDEST PUSH0 DUP3 DUP3 MSTORE PUSH1 0x20 DUP3 ADD SWAP1 POP SWAP3 SWAP2 POP POP JUMP JUMPDEST PUSH32 0x416363657373436F6E74726F6C3A2063616E206F6E6C792072656E6F756E6365 PUSH0 DUP3 ADD MSTORE PUSH32 0x20726F6C657320666F722073656C660000000000000000000000000000000000 PUSH1 0x20 DUP3 ADD MSTORE POP JUMP JUMPDEST PUSH0 PUSH2 0x122C PUSH1 0x2F DUP4 PUSH2 0x11C2 JUMP JUMPDEST SWAP2 POP PUSH2 0x1237 DUP3 PUSH2 0x11D2 JUMP JUMPDEST PUSH1 0x40 DUP3 ADD SWAP1 POP SWAP2 SWAP1 POP JUMP JUMPDEST PUSH0 PUSH1 0x20 DUP3 ADD SWAP1 POP DUP2 DUP2 SUB PUSH0 DUP4 ADD MSTORE PUSH2 0x1259 DUP2 PUSH2 0x1220 JUMP JUMPDEST SWAP1 POP SWAP2 SWAP1 POP JUMP JUMPDEST PUSH32 0x47616D6520646F6573206E6F7420657869737400000000000000000000000000 PUSH0 DUP3 ADD MSTORE POP JUMP JUMPDEST PUSH0 PUSH2 0x1294 PUSH1 0x13 DUP4 PUSH2 0x11C2 JUMP JUMPDEST SWAP2 POP PUSH2 0x129F DUP3 PUSH2 0x1260 JUMP JUMPDEST PUSH1 0x20 DUP3 ADD SWAP1 POP SWAP2 SWAP1 POP JUMP JUMPDEST PUSH0 PUSH1 0x20 DUP3 ADD SWAP1 POP DUP2 DUP2 SUB PUSH0 DUP4 ADD MSTORE PUSH2 0x12C1 DUP2 PUSH2 0x1288 JUMP JUMPDEST SWAP1 POP SWAP2 SWAP1 POP JUMP JUMPDEST PUSH0 PUSH1 0x20 DUP3 ADD SWAP1 POP PUSH2 0x12DB PUSH0 DUP4 ADD DUP5 PUSH2 0x1115 JUMP JUMPDEST SWAP3 SWAP2 POP POP JUMP JUMPDEST PUSH0 PUSH1 0x40 DUP3 ADD SWAP1 POP PUSH2 0x12F4 PUSH0 DUP4 ADD DUP6 PUSH2 0x1115 JUMP JUMPDEST PUSH2 0x1301 PUSH1 0x20 DUP4 ADD DUP5 PUSH2 0x1115 JUMP JUMPDEST SWAP4 SWAP3 POP POP POP JUMP JUMPDEST PUSH0 DUP2 SWAP1 POP SWAP3 SWAP2 POP POP JUMP JUMPDEST PUSH32 0x416363657373436F6E74726F6C3A206163636F756E7420000000000000000000 PUSH0 DUP3 ADD MSTORE POP JUMP JUMPDEST PUSH0 PUSH2 0x1346 PUSH1 0x17 DUP4 PUSH2 0x1308 JUMP JUMPDEST SWAP2 POP PUSH2 0x1351 DUP3 PUSH2 0x1312 JUMP JUMPDEST PUSH1 0x17 DUP3 ADD SWAP1 POP SWAP2 SWAP1 POP JUMP JUMPDEST PUSH0 DUP2 MLOAD SWAP1 POP SWAP2 SWAP1 POP JUMP JUMPDEST DUP3 DUP2 DUP4 MCOPY PUSH0 DUP4 DUP4 ADD MSTORE POP POP POP JUMP JUMPDEST PUSH0 PUSH2 0x137E DUP3 PUSH2 0x135C JUMP JUMPDEST PUSH2 0x1388 DUP2 DUP6 PUSH2 0x1308 JUMP JUMPDEST SWAP4 POP PUSH2 0x1398 DUP2 DUP6 PUSH1 0x20 DUP7 ADD PUSH2 0x1366 JUMP JUMPDEST DUP1 DUP5 ADD SWAP2 POP POP SWAP3 SWAP2 POP POP JUMP JUMPDEST PUSH32 0x206973206D697373696E6720726F6C6520000000000000000000000000000000 PUSH0 DUP3 ADD MSTORE POP JUMP JUMPDEST PUSH0 PUSH2 0x13D8 PUSH1 0x11 DUP4 PUSH2 0x1308 JUMP JUMPDEST SWAP2 POP PUSH2 0x13E3 DUP3 PUSH2 0x13A4 JUMP JUMPDEST PUSH1 0x11 DUP3 ADD SWAP1 POP SWAP2 SWAP1 POP JUMP JUMPDEST PUSH0 PUSH2 0x13F8 DUP3 PUSH2 0x133A JUMP JUMPDEST SWAP2 POP PUSH2 0x1404 DUP3 DUP6 PUSH2 0x1374 JUMP JUMPDEST SWAP2 POP PUSH2 0x140F DUP3 PUSH2 0x13CC JUMP JUMPDEST SWAP2 POP PUSH2 0x141B DUP3 DUP5 PUSH2 0x1374 JUMP JUMPDEST SWAP2 POP DUP2 SWAP1 POP SWAP4 SWAP3 POP POP POP JUMP JUMPDEST PUSH0 PUSH1 0x1F NOT PUSH1 0x1F DUP4 ADD AND SWAP1 POP SWAP2 SWAP1 POP JUMP JUMPDEST PUSH0 PUSH2 0x1441 DUP3 PUSH2 0x135C JUMP JUMPDEST PUSH2 0x144B DUP2 DUP6 PUSH2 0x11C2 JUMP JUMPDEST SWAP4 POP PUSH2 0x145B DUP2 DUP6 PUSH1 0x20 DUP7 ADD PUSH2 0x1366 JUMP JUMPDEST PUSH2 0x1464 DUP2 PUSH2 0x1427 JUMP JUMPDEST DUP5 ADD SWAP2 POP POP SWAP3 SWAP2 POP POP JUMP JUMPDEST PUSH0 PUSH1 0x20 DUP3 ADD SWAP1 POP DUP2 DUP2 SUB PUSH0 DUP4 ADD MSTORE PUSH2 0x1487 DUP2 DUP5 PUSH2 0x1437 JUMP JUMPDEST SWAP1 POP SWAP3 SWAP2 POP POP JUMP JUMPDEST PUSH32 0x4E487B7100000000000000000000000000000000000000000000000000000000 PUSH0 MSTORE PUSH1 0x11 PUSH1 0x4 MSTORE PUSH1 0x24 PUSH0 REVERT JUMPDEST PUSH0 PUSH2 0x14C6 DUP3 PUSH2 0xF22 JUMP JUMPDEST SWAP2 POP PUSH2 0x14D1 DUP4 PUSH2 0xF22 JUMP JUMPDEST SWAP3 POP DUP3 DUP3 MUL PUSH2 0x14DF DUP2 PUSH2 0xF22 JUMP JUMPDEST SWAP2 POP DUP3 DUP3 DIV DUP5 EQ DUP4 ISZERO OR PUSH2 0x14F6 JUMPI PUSH2 0x14F5 PUSH2 0x148F JUMP JUMPDEST JUMPDEST POP SWAP3 SWAP2 POP POP JUMP JUMPDEST PUSH0 PUSH2 0x1507 DUP3 PUSH2 0xF22 JUMP JUMPDEST SWAP2 POP PUSH2 0x1512 DUP4 PUSH2 0xF22 JUMP JUMPDEST SWAP3 POP DUP3 DUP3 ADD SWAP1 POP DUP1 DUP3 GT ISZERO PUSH2 0x152A JUMPI PUSH2 0x1529 PUSH2 0x148F JUMP JUMPDEST JUMPDEST SWAP3 SWAP2 POP POP JUMP JUMPDEST PUSH32 0x4E487B7100000000000000000000000000000000000000000000000000000000 PUSH0 MSTORE PUSH1 0x41 PUSH1 0x4 MSTORE PUSH1 0x24 PUSH0 REVERT JUMPDEST PUSH32 0x4E487B7100000000000000000000000000000000000000000000000000000000 PUSH0 MSTORE PUSH1 0x32 PUSH1 0x4 MSTORE PUSH1 0x24 PUSH0 REVERT JUMPDEST PUSH0 PUSH2 0x1594 DUP3 PUSH2 0xF22 JUMP JUMPDEST SWAP2 POP PUSH0 DUP3 SUB PUSH2 0x15A6 JUMPI PUSH2 0x15A5 PUSH2 0x148F JUMP JUMPDEST JUMPDEST PUSH1 0x1 DUP3 SUB SWAP1 POP SWAP2 SWAP1 POP JUMP JUMPDEST PUSH32 0x537472696E67733A20686578206C656E67746820696E73756666696369656E74 PUSH0 DUP3 ADD MSTORE POP JUMP JUMPDEST PUSH0 PUSH2 0x15E5 PUSH1 0x20 DUP4 PUSH2 0x11C2 JUMP JUMPDEST SWAP2 POP PUSH2 0x15F0 DUP3 PUSH2 0x15B1 JUMP JUMPDEST PUSH1 0x20 DUP3 ADD SWAP1 POP SWAP2 SWAP1 POP JUMP JUMPDEST PUSH0 PUSH1 0x20 DUP3 ADD SWAP1 POP DUP2 DUP2 SUB PUSH0 DUP4 ADD MSTORE PUSH2 0x1612 DUP2 PUSH2 0x15D9 JUMP JUMPDEST SWAP1 POP SWAP2 SWAP1 POP JUMP INVALID LOG2 PUSH5 0x6970667358 0x22 SLT KECCAK256 CHAINID SELFBALANCE LOG2 LOG0 DUP15 0xF7 0xCE 0xB8 0xD9 DUP15 0xDB CREATE2 SWAP5 0xD3 RETURNDATASIZE 0xB4 0xE2 SAR PUSH17 0x7DEF97324B9FDEB39AD279852A64736F6C PUSH4 0x4300081A STOP CALLER "
				},
				"gasEstimates": {
					"creation": {
						"codeDepositCost": "1142200",
						"executionCost": "infinite",
						"totalCost": "infinite"
					},
					"external": {
						"ADMIN_ROLE()": "414",
						"DEFAULT_ADMIN_ROLE()": "352",
						"gameDelete(uint256)": "infinite",
						"gameInfos(uint256)": "infinite",
						"gameRegister(uint256,uint256)": "infinite",
						"gameUpdate(uint256)": "infinite",
						"getGameInfo(uint256)": "infinite",
						"getRoleAdmin(bytes32)": "infinite",
						"grantAdminRole(address)": "infinite",
						"grantRole(bytes32,address)": "infinite",
						"hasRole(bytes32,address)": "3189",
						"isGameExists(uint256)": "2862",
						"renounceRole(bytes32,address)": "infinite",
						"revokeAdminRole(address)": "infinite",
						"revokeRole(bytes32,address)": "infinite",
						"supportsInterface(bytes4)": "741"
					}
				},
				"methodIdentifiers": {
					"ADMIN_ROLE()": "75b238fc",
					"DEFAULT_ADMIN_ROLE()": "a217fddf",
					"gameDelete(uint256)": "89b2c8e7",
					"gameInfos(uint256)": "7d1b4687",
					"gameRegister(uint256,uint256)": "b638d158",
					"gameUpdate(uint256)": "4f0ce4df",
					"getGameInfo(uint256)": "47e1d550",
					"getRoleAdmin(bytes32)": "248a9ca3",
					"grantAdminRole(address)": "c634b78e",
					"grantRole(bytes32,address)": "2f2ff15d",
					"hasRole(bytes32,address)": "91d14854",
					"isGameExists(uint256)": "1833fdf9",
					"renounceRole(bytes32,address)": "36568abe",
					"revokeAdminRole(address)": "9a19c7b0",
					"revokeRole(bytes32,address)": "d547741f",
					"supportsInterface(bytes4)": "01ffc9a7"
				}
			},
			"storageLayout": {
				"storage": [
					{
						"astId": 213,
						"contract": "contracts/v2/TikTrixGame.sol:TikTrixGame",
						"label": "_roles",
						"offset": 0,
						"slot": "0",
						"type": "t_mapping(t_bytes32,t_struct(RoleData)208_storage)"
					},
					{
						"astId": 22,
						"contract": "contracts/v2/TikTrixGame.sol:TikTrixGame",
						"label": "gameInfos",
						"offset": 0,
						"slot": "1",
						"type": "t_mapping(t_uint256,t_struct(GameInfo)17_storage)"
					}
				],
				"types": {
					"t_address": {
						"encoding": "inplace",
						"label": "address",
						"numberOfBytes": "20"
					},
					"t_bool": {
						"encoding": "inplace",
						"label": "bool",
						"numberOfBytes": "1"
					},
					"t_bytes32": {
						"encoding": "inplace",
						"label": "bytes32",
						"numberOfBytes": "32"
					},
					"t_mapping(t_address,t_bool)": {
						"encoding": "mapping",
						"key": "t_address",
						"label": "mapping(address => bool)",
						"numberOfBytes": "32",
						"value": "t_bool"
					},
					"t_mapping(t_bytes32,t_struct(RoleData)208_storage)": {
						"encoding": "mapping",
						"key": "t_bytes32",
						"label": "mapping(bytes32 => struct AccessControl.RoleData)",
						"numberOfBytes": "32",
						"value": "t_struct(RoleData)208_storage"
					},
					"t_mapping(t_uint256,t_struct(GameInfo)17_storage)": {
						"encoding": "mapping",
						"key": "t_uint256",
						"label": "mapping(uint256 => struct TikTrixGame.GameInfo)",
						"numberOfBytes": "32",
						"value": "t_struct(GameInfo)17_storage"
					},
					"t_struct(GameInfo)17_storage": {
						"encoding": "inplace",
						"label": "struct TikTrixGame.GameInfo",
						"members": [
							{
								"astId": 12,
								"contract": "contracts/v2/TikTrixGame.sol:TikTrixGame",
								"label": "gameSeq",
								"offset": 0,
								"slot": "0",
								"type": "t_uint256"
							},
							{
								"astId": 14,
								"contract": "contracts/v2/TikTrixGame.sol:TikTrixGame",
								"label": "memberSeq",
								"offset": 0,
								"slot": "1",
								"type": "t_uint256"
							},
							{
								"astId": 16,
								"contract": "contracts/v2/TikTrixGame.sol:TikTrixGame",
								"label": "exists",
								"offset": 0,
								"slot": "2",
								"type": "t_bool"
							}
						],
						"numberOfBytes": "96"
					},
					"t_struct(RoleData)208_storage": {
						"encoding": "inplace",
						"label": "struct AccessControl.RoleData",
						"members": [
							{
								"astId": 205,
								"contract": "contracts/v2/TikTrixGame.sol:TikTrixGame",
								"label": "members",
								"offset": 0,
								"slot": "0",
								"type": "t_mapping(t_address,t_bool)"
							},
							{
								"astId": 207,
								"contract": "contracts/v2/TikTrixGame.sol:TikTrixGame",
								"label": "adminRole",
								"offset": 0,
								"slot": "1",
								"type": "t_bytes32"
							}
						],
						"numberOfBytes": "64"
					},
					"t_uint256": {
						"encoding": "inplace",
						"label": "uint256",
						"numberOfBytes": "32"
					}
				}
			},
			"userdoc": {
				"kind": "user",
				"methods": {},
				"version": 1
			}
		}
	}
}