{
	"contracts/v2/TikTrixAction.sol": {
		"TikTrixAction": {
			"abi": [
				{
					"inputs": [],
					"stateMutability": "nonpayable",
					"type": "constructor"
				},
				{
					"anonymous": false,
					"inputs": [
						{
							"indexed": true,
							"internalType": "uint256",
							"name": "gameSeq",
							"type": "uint256"
						},
						{
							"indexed": true,
							"internalType": "uint256",
							"name": "memberSeq",
							"type": "uint256"
						}
					],
					"name": "GameEnded",
					"type": "event"
				},
				{
					"anonymous": false,
					"inputs": [
						{
							"indexed": true,
							"internalType": "uint256",
							"name": "gameSeq",
							"type": "uint256"
						},
						{
							"indexed": true,
							"internalType": "uint256",
							"name": "memberSeq",
							"type": "uint256"
						}
					],
					"name": "GameLiked",
					"type": "event"
				},
				{
					"anonymous": false,
					"inputs": [
						{
							"indexed": true,
							"internalType": "uint256",
							"name": "gameSeq",
							"type": "uint256"
						},
						{
							"indexed": true,
							"internalType": "uint256",
							"name": "memberSeq",
							"type": "uint256"
						}
					],
					"name": "GamePaused",
					"type": "event"
				},
				{
					"anonymous": false,
					"inputs": [
						{
							"indexed": true,
							"internalType": "uint256",
							"name": "gameSeq",
							"type": "uint256"
						},
						{
							"indexed": true,
							"internalType": "uint256",
							"name": "memberSeq",
							"type": "uint256"
						}
					],
					"name": "GamePlayed",
					"type": "event"
				},
				{
					"anonymous": false,
					"inputs": [
						{
							"indexed": true,
							"internalType": "uint256",
							"name": "gameSeq",
							"type": "uint256"
						},
						{
							"indexed": true,
							"internalType": "uint256",
							"name": "memberSeq",
							"type": "uint256"
						}
					],
					"name": "GameUnPaused",
					"type": "event"
				},
				{
					"anonymous": false,
					"inputs": [
						{
							"indexed": true,
							"internalType": "bytes32",
							"name": "role",
							"type": "bytes32"
						},
						{
							"indexed": true,
							"internalType": "bytes32",
							"name": "previousAdminRole",
							"type": "bytes32"
						},
						{
							"indexed": true,
							"internalType": "bytes32",
							"name": "newAdminRole",
							"type": "bytes32"
						}
					],
					"name": "RoleAdminChanged",
					"type": "event"
				},
				{
					"anonymous": false,
					"inputs": [
						{
							"indexed": true,
							"internalType": "bytes32",
							"name": "role",
							"type": "bytes32"
						},
						{
							"indexed": true,
							"internalType": "address",
							"name": "account",
							"type": "address"
						},
						{
							"indexed": true,
							"internalType": "address",
							"name": "sender",
							"type": "address"
						}
					],
					"name": "RoleGranted",
					"type": "event"
				},
				{
					"anonymous": false,
					"inputs": [
						{
							"indexed": true,
							"internalType": "bytes32",
							"name": "role",
							"type": "bytes32"
						},
						{
							"indexed": true,
							"internalType": "address",
							"name": "account",
							"type": "address"
						},
						{
							"indexed": true,
							"internalType": "address",
							"name": "sender",
							"type": "address"
						}
					],
					"name": "RoleRevoked",
					"type": "event"
				},
				{
					"inputs": [],
					"name": "ADMIN_ROLE",
					"outputs": [
						{
							"internalType": "bytes32",
							"name": "",
							"type": "bytes32"
						}
					],
					"stateMutability": "view",
					"type": "function"
				},
				{
					"inputs": [],
					"name": "DEFAULT_ADMIN_ROLE",
					"outputs": [
						{
							"internalType": "bytes32",
							"name": "",
							"type": "bytes32"
						}
					],
					"stateMutability": "view",
					"type": "function"
				},
				{
					"inputs": [
						{
							"internalType": "uint256",
							"name": "gameSeq",
							"type": "uint256"
						},
						{
							"internalType": "uint256",
							"name": "memberSeq",
							"type": "uint256"
						}
					],
					"name": "gameEnd",
					"outputs": [],
					"stateMutability": "nonpayable",
					"type": "function"
				},
				{
					"inputs": [
						{
							"internalType": "uint256",
							"name": "gameSeq",
							"type": "uint256"
						},
						{
							"internalType": "uint256",
							"name": "memberSeq",
							"type": "uint256"
						}
					],
					"name": "gameLike",
					"outputs": [],
					"stateMutability": "nonpayable",
					"type": "function"
				},
				{
					"inputs": [
						{
							"internalType": "uint256",
							"name": "gameSeq",
							"type": "uint256"
						},
						{
							"internalType": "uint256",
							"name": "memberSeq",
							"type": "uint256"
						}
					],
					"name": "gamePause",
					"outputs": [],
					"stateMutability": "nonpayable",
					"type": "function"
				},
				{
					"inputs": [
						{
							"internalType": "uint256",
							"name": "gameSeq",
							"type": "uint256"
						},
						{
							"internalType": "uint256",
							"name": "memberSeq",
							"type": "uint256"
						}
					],
					"name": "gamePlay",
					"outputs": [],
					"stateMutability": "nonpayable",
					"type": "function"
				},
				{
					"inputs": [
						{
							"internalType": "uint256",
							"name": "gameSeq",
							"type": "uint256"
						},
						{
							"internalType": "uint256",
							"name": "memberSeq",
							"type": "uint256"
						}
					],
					"name": "gameUnPause",
					"outputs": [],
					"stateMutability": "nonpayable",
					"type": "function"
				},
				{
					"inputs": [
						{
							"internalType": "bytes32",
							"name": "role",
							"type": "bytes32"
						}
					],
					"name": "getRoleAdmin",
					"outputs": [
						{
							"internalType": "bytes32",
							"name": "",
							"type": "bytes32"
						}
					],
					"stateMutability": "view",
					"type": "function"
				},
				{
					"inputs": [
						{
							"internalType": "address",
							"name": "account",
							"type": "address"
						}
					],
					"name": "grantAdminRole",
					"outputs": [],
					"stateMutability": "nonpayable",
					"type": "function"
				},
				{
					"inputs": [
						{
							"internalType": "bytes32",
							"name": "role",
							"type": "bytes32"
						},
						{
							"internalType": "address",
							"name": "account",
							"type": "address"
						}
					],
					"name": "grantRole",
					"outputs": [],
					"stateMutability": "nonpayable",
					"type": "function"
				},
				{
					"inputs": [
						{
							"internalType": "bytes32",
							"name": "role",
							"type": "bytes32"
						},
						{
							"internalType": "address",
							"name": "account",
							"type": "address"
						}
					],
					"name": "hasRole",
					"outputs": [
						{
							"internalType": "bool",
							"name": "",
							"type": "bool"
						}
					],
					"stateMutability": "view",
					"type": "function"
				},
				{
					"inputs": [
						{
							"internalType": "bytes32",
							"name": "role",
							"type": "bytes32"
						},
						{
							"internalType": "address",
							"name": "account",
							"type": "address"
						}
					],
					"name": "renounceRole",
					"outputs": [],
					"stateMutability": "nonpayable",
					"type": "function"
				},
				{
					"inputs": [
						{
							"internalType": "address",
							"name": "account",
							"type": "address"
						}
					],
					"name": "revokeAdminRole",
					"outputs": [],
					"stateMutability": "nonpayable",
					"type": "function"
				},
				{
					"inputs": [
						{
							"internalType": "bytes32",
							"name": "role",
							"type": "bytes32"
						},
						{
							"internalType": "address",
							"name": "account",
							"type": "address"
						}
					],
					"name": "revokeRole",
					"outputs": [],
					"stateMutability": "nonpayable",
					"type": "function"
				},
				{
					"inputs": [
						{
							"internalType": "bytes4",
							"name": "interfaceId",
							"type": "bytes4"
						}
					],
					"name": "supportsInterface",
					"outputs": [
						{
							"internalType": "bool",
							"name": "",
							"type": "bool"
						}
					],
					"stateMutability": "view",
					"type": "function"
				}
			],
			"devdoc": {
				"events": {
					"RoleAdminChanged(bytes32,bytes32,bytes32)": {
						"details": "Emitted when `newAdminRole` is set as ``role``'s admin role, replacing `previousAdminRole` `DEFAULT_ADMIN_ROLE` is the starting admin for all roles, despite {RoleAdminChanged} not being emitted signaling this. _Available since v3.1._"
					},
					"RoleGranted(bytes32,address,address)": {
						"details": "Emitted when `account` is granted `role`. `sender` is the account that originated the contract call, an admin role bearer except when using {AccessControl-_setupRole}."
					},
					"RoleRevoked(bytes32,address,address)": {
						"details": "Emitted when `account` is revoked `role`. `sender` is the account that originated the contract call:   - if using `revokeRole`, it is the admin role bearer   - if using `renounceRole`, it is the role bearer (i.e. `account`)"
					}
				},
				"kind": "dev",
				"methods": {
					"getRoleAdmin(bytes32)": {
						"details": "Returns the admin role that controls `role`. See {grantRole} and {revokeRole}. To change a role's admin, use {_setRoleAdmin}."
					},
					"grantRole(bytes32,address)": {
						"details": "Grants `role` to `account`. If `account` had not been already granted `role`, emits a {RoleGranted} event. Requirements: - the caller must have ``role``'s admin role. May emit a {RoleGranted} event."
					},
					"hasRole(bytes32,address)": {
						"details": "Returns `true` if `account` has been granted `role`."
					},
					"renounceRole(bytes32,address)": {
						"details": "Revokes `role` from the calling account. Roles are often managed via {grantRole} and {revokeRole}: this function's purpose is to provide a mechanism for accounts to lose their privileges if they are compromised (such as when a trusted device is misplaced). If the calling account had been revoked `role`, emits a {RoleRevoked} event. Requirements: - the caller must be `account`. May emit a {RoleRevoked} event."
					},
					"revokeRole(bytes32,address)": {
						"details": "Revokes `role` from `account`. If `account` had been granted `role`, emits a {RoleRevoked} event. Requirements: - the caller must have ``role``'s admin role. May emit a {RoleRevoked} event."
					},
					"supportsInterface(bytes4)": {
						"details": "See {IERC165-supportsInterface}."
					}
				},
				"version": 1
			},
			"evm": {
				"assembly": "    /* \"contracts/v2/TikTrixAction.sol\":281:1761  contract TikTrixAction is AccessControl {... */\n  mstore(0x40, 0x80)\n    /* \"contracts/v2/TikTrixAction.sol\":765:882  constructor() {... */\n  callvalue\n  dup1\n  iszero\n  tag_1\n  jumpi\n  0x00\n  dup1\n  revert\ntag_1:\n  pop\n    /* \"contracts/v2/TikTrixAction.sol\":789:831  _setupRole(DEFAULT_ADMIN_ROLE, msg.sender) */\n  tag_4\n    /* \"https://github.com/OpenZeppelin/openzeppelin-contracts/blob/v4.8.0/contracts/access/AccessControl.sol\":2072:2076  0x00 */\n  0x00\n    /* \"contracts/v2/TikTrixAction.sol\":800:818  DEFAULT_ADMIN_ROLE */\n  dup1\n  shl\n    /* \"contracts/v2/TikTrixAction.sol\":820:830  msg.sender */\n  caller\n    /* \"contracts/v2/TikTrixAction.sol\":789:799  _setupRole */\n  shl(0x20, tag_5)\n    /* \"contracts/v2/TikTrixAction.sol\":789:831  _setupRole(DEFAULT_ADMIN_ROLE, msg.sender) */\n  0x20\n  shr\n  jump\t// in\ntag_4:\n    /* \"contracts/v2/TikTrixAction.sol\":841:875  _setupRole(ADMIN_ROLE, msg.sender) */\n  tag_6\n    /* \"contracts/v2/TikTrixAction.sol\":364:387  keccak256(\"ADMIN_ROLE\") */\n  0xa49807205ce4d355092ef5a8a18f56e8913cf4a201fbe287825b095693c21775\n    /* \"contracts/v2/TikTrixAction.sol\":864:874  msg.sender */\n  caller\n    /* \"contracts/v2/TikTrixAction.sol\":841:851  _setupRole */\n  shl(0x20, tag_5)\n    /* \"contracts/v2/TikTrixAction.sol\":841:875  _setupRole(ADMIN_ROLE, msg.sender) */\n  0x20\n  shr\n  jump\t// in\ntag_6:\n    /* \"contracts/v2/TikTrixAction.sol\":281:1761  contract TikTrixAction is AccessControl {... */\n  jump(tag_7)\n    /* \"https://github.com/OpenZeppelin/openzeppelin-contracts/blob/v4.8.0/contracts/access/AccessControl.sol\":6811:6921  function _setupRole(bytes32 role, address account) internal virtual {... */\ntag_5:\n    /* \"https://github.com/OpenZeppelin/openzeppelin-contracts/blob/v4.8.0/contracts/access/AccessControl.sol\":6889:6914  _grantRole(role, account) */\n  tag_9\n    /* \"https://github.com/OpenZeppelin/openzeppelin-contracts/blob/v4.8.0/contracts/access/AccessControl.sol\":6900:6904  role */\n  dup3\n    /* \"https://github.com/OpenZeppelin/openzeppelin-contracts/blob/v4.8.0/contracts/access/AccessControl.sol\":6906:6913  account */\n  dup3\n    /* \"https://github.com/OpenZeppelin/openzeppelin-contracts/blob/v4.8.0/contracts/access/AccessControl.sol\":6889:6899  _grantRole */\n  shl(0x20, tag_10)\n    /* \"https://github.com/OpenZeppelin/openzeppelin-contracts/blob/v4.8.0/contracts/access/AccessControl.sol\":6889:6914  _grantRole(role, account) */\n  0x20\n  shr\n  jump\t// in\ntag_9:\n    /* \"https://github.com/OpenZeppelin/openzeppelin-contracts/blob/v4.8.0/contracts/access/AccessControl.sol\":6811:6921  function _setupRole(bytes32 role, address account) internal virtual {... */\n  pop\n  pop\n  jump\t// out\n    /* \"https://github.com/OpenZeppelin/openzeppelin-contracts/blob/v4.8.0/contracts/access/AccessControl.sol\":7461:7694  function _grantRole(bytes32 role, address account) internal virtual {... */\ntag_10:\n    /* \"https://github.com/OpenZeppelin/openzeppelin-contracts/blob/v4.8.0/contracts/access/AccessControl.sol\":7544:7566  hasRole(role, account) */\n  tag_12\n    /* \"https://github.com/OpenZeppelin/openzeppelin-contracts/blob/v4.8.0/contracts/access/AccessControl.sol\":7552:7556  role */\n  dup3\n    /* \"https://github.com/OpenZeppelin/openzeppelin-contracts/blob/v4.8.0/contracts/access/AccessControl.sol\":7558:7565  account */\n  dup3\n    /* \"https://github.com/OpenZeppelin/openzeppelin-contracts/blob/v4.8.0/contracts/access/AccessControl.sol\":7544:7551  hasRole */\n  shl(0x20, tag_13)\n    /* \"https://github.com/OpenZeppelin/openzeppelin-contracts/blob/v4.8.0/contracts/access/AccessControl.sol\":7544:7566  hasRole(role, account) */\n  0x20\n  shr\n  jump\t// in\ntag_12:\n    /* \"https://github.com/OpenZeppelin/openzeppelin-contracts/blob/v4.8.0/contracts/access/AccessControl.sol\":7539:7688  if (!hasRole(role, account)) {... */\n  tag_14\n  jumpi\n    /* \"https://github.com/OpenZeppelin/openzeppelin-contracts/blob/v4.8.0/contracts/access/AccessControl.sol\":7614:7618  true */\n  0x01\n    /* \"https://github.com/OpenZeppelin/openzeppelin-contracts/blob/v4.8.0/contracts/access/AccessControl.sol\":7582:7588  _roles */\n  0x00\n    /* \"https://github.com/OpenZeppelin/openzeppelin-contracts/blob/v4.8.0/contracts/access/AccessControl.sol\":7582:7594  _roles[role] */\n  dup1\n    /* \"https://github.com/OpenZeppelin/openzeppelin-contracts/blob/v4.8.0/contracts/access/AccessControl.sol\":7589:7593  role */\n  dup5\n    /* \"https://github.com/OpenZeppelin/openzeppelin-contracts/blob/v4.8.0/contracts/access/AccessControl.sol\":7582:7594  _roles[role] */\n  dup2\n  mstore\n  0x20\n  add\n  swap1\n  dup2\n  mstore\n  0x20\n  add\n  0x00\n  keccak256\n    /* \"https://github.com/OpenZeppelin/openzeppelin-contracts/blob/v4.8.0/contracts/access/AccessControl.sol\":7582:7602  _roles[role].members */\n  0x00\n  add\n    /* \"https://github.com/OpenZeppelin/openzeppelin-contracts/blob/v4.8.0/contracts/access/AccessControl.sol\":7582:7611  _roles[role].members[account] */\n  0x00\n    /* \"https://github.com/OpenZeppelin/openzeppelin-contracts/blob/v4.8.0/contracts/access/AccessControl.sol\":7603:7610  account */\n  dup4\n    /* \"https://github.com/OpenZeppelin/openzeppelin-contracts/blob/v4.8.0/contracts/access/AccessControl.sol\":7582:7611  _roles[role].members[account] */\n  0xffffffffffffffffffffffffffffffffffffffff\n  and\n  0xffffffffffffffffffffffffffffffffffffffff\n  and\n  dup2\n  mstore\n  0x20\n  add\n  swap1\n  dup2\n  mstore\n  0x20\n  add\n  0x00\n  keccak256\n  0x00\n    /* \"https://github.com/OpenZeppelin/openzeppelin-contracts/blob/v4.8.0/contracts/access/AccessControl.sol\":7582:7618  _roles[role].members[account] = true */\n  0x0100\n  exp\n  dup2\n  sload\n  dup2\n  0xff\n  mul\n  not\n  and\n  swap1\n  dup4\n  iszero\n  iszero\n  mul\n  or\n  swap1\n  sstore\n  pop\n    /* \"https://github.com/OpenZeppelin/openzeppelin-contracts/blob/v4.8.0/contracts/access/AccessControl.sol\":7664:7676  _msgSender() */\n  tag_15\n    /* \"https://github.com/OpenZeppelin/openzeppelin-contracts/blob/v4.8.0/contracts/access/AccessControl.sol\":7664:7674  _msgSender */\n  shl(0x20, tag_16)\n    /* \"https://github.com/OpenZeppelin/openzeppelin-contracts/blob/v4.8.0/contracts/access/AccessControl.sol\":7664:7676  _msgSender() */\n  0x20\n  shr\n  jump\t// in\ntag_15:\n    /* \"https://github.com/OpenZeppelin/openzeppelin-contracts/blob/v4.8.0/contracts/access/AccessControl.sol\":7637:7677  RoleGranted(role, account, _msgSender()) */\n  0xffffffffffffffffffffffffffffffffffffffff\n  and\n    /* \"https://github.com/OpenZeppelin/openzeppelin-contracts/blob/v4.8.0/contracts/access/AccessControl.sol\":7655:7662  account */\n  dup2\n    /* \"https://github.com/OpenZeppelin/openzeppelin-contracts/blob/v4.8.0/contracts/access/AccessControl.sol\":7637:7677  RoleGranted(role, account, _msgSender()) */\n  0xffffffffffffffffffffffffffffffffffffffff\n  and\n    /* \"https://github.com/OpenZeppelin/openzeppelin-contracts/blob/v4.8.0/contracts/access/AccessControl.sol\":7649:7653  role */\n  dup4\n    /* \"https://github.com/OpenZeppelin/openzeppelin-contracts/blob/v4.8.0/contracts/access/AccessControl.sol\":7637:7677  RoleGranted(role, account, _msgSender()) */\n  0x2f8788117e7eff1d82e926ec794901d17c78024a50270940304540a733656f0d\n  mload(0x40)\n  mload(0x40)\n  dup1\n  swap2\n  sub\n  swap1\n  log4\n    /* \"https://github.com/OpenZeppelin/openzeppelin-contracts/blob/v4.8.0/contracts/access/AccessControl.sol\":7539:7688  if (!hasRole(role, account)) {... */\ntag_14:\n    /* \"https://github.com/OpenZeppelin/openzeppelin-contracts/blob/v4.8.0/contracts/access/AccessControl.sol\":7461:7694  function _grantRole(bytes32 role, address account) internal virtual {... */\n  pop\n  pop\n  jump\t// out\n    /* \"https://github.com/OpenZeppelin/openzeppelin-contracts/blob/v4.8.0/contracts/access/AccessControl.sol\":2895:3040  function hasRole(bytes32 role, address account) public view virtual override returns (bool) {... */\ntag_13:\n    /* \"https://github.com/OpenZeppelin/openzeppelin-contracts/blob/v4.8.0/contracts/access/AccessControl.sol\":2981:2985  bool */\n  0x00\n    /* \"https://github.com/OpenZeppelin/openzeppelin-contracts/blob/v4.8.0/contracts/access/AccessControl.sol\":3004:3010  _roles */\n  dup1\n    /* \"https://github.com/OpenZeppelin/openzeppelin-contracts/blob/v4.8.0/contracts/access/AccessControl.sol\":3004:3016  _roles[role] */\n  0x00\n    /* \"https://github.com/OpenZeppelin/openzeppelin-contracts/blob/v4.8.0/contracts/access/AccessControl.sol\":3011:3015  role */\n  dup5\n    /* \"https://github.com/OpenZeppelin/openzeppelin-contracts/blob/v4.8.0/contracts/access/AccessControl.sol\":3004:3016  _roles[role] */\n  dup2\n  mstore\n  0x20\n  add\n  swap1\n  dup2\n  mstore\n  0x20\n  add\n  0x00\n  keccak256\n    /* \"https://github.com/OpenZeppelin/openzeppelin-contracts/blob/v4.8.0/contracts/access/AccessControl.sol\":3004:3024  _roles[role].members */\n  0x00\n  add\n    /* \"https://github.com/OpenZeppelin/openzeppelin-contracts/blob/v4.8.0/contracts/access/AccessControl.sol\":3004:3033  _roles[role].members[account] */\n  0x00\n    /* \"https://github.com/OpenZeppelin/openzeppelin-contracts/blob/v4.8.0/contracts/access/AccessControl.sol\":3025:3032  account */\n  dup4\n    /* \"https://github.com/OpenZeppelin/openzeppelin-contracts/blob/v4.8.0/contracts/access/AccessControl.sol\":3004:3033  _roles[role].members[account] */\n  0xffffffffffffffffffffffffffffffffffffffff\n  and\n  0xffffffffffffffffffffffffffffffffffffffff\n  and\n  dup2\n  mstore\n  0x20\n  add\n  swap1\n  dup2\n  mstore\n  0x20\n  add\n  0x00\n  keccak256\n  0x00\n  swap1\n  sload\n  swap1\n  0x0100\n  exp\n  swap1\n  div\n  0xff\n  and\n    /* \"https://github.com/OpenZeppelin/openzeppelin-contracts/blob/v4.8.0/contracts/access/AccessControl.sol\":2997:3033  return _roles[role].members[account] */\n  swap1\n  pop\n    /* \"https://github.com/OpenZeppelin/openzeppelin-contracts/blob/v4.8.0/contracts/access/AccessControl.sol\":2895:3040  function hasRole(bytes32 role, address account) public view virtual override returns (bool) {... */\n  swap3\n  swap2\n  pop\n  pop\n  jump\t// out\n    /* \"https://github.com/OpenZeppelin/openzeppelin-contracts/blob/v4.8.0/contracts/utils/Context.sol\":640:736  function _msgSender() internal view virtual returns (address) {... */\ntag_16:\n    /* \"https://github.com/OpenZeppelin/openzeppelin-contracts/blob/v4.8.0/contracts/utils/Context.sol\":693:700  address */\n  0x00\n    /* \"https://github.com/OpenZeppelin/openzeppelin-contracts/blob/v4.8.0/contracts/utils/Context.sol\":719:729  msg.sender */\n  caller\n    /* \"https://github.com/OpenZeppelin/openzeppelin-contracts/blob/v4.8.0/contracts/utils/Context.sol\":712:729  return msg.sender */\n  swap1\n  pop\n    /* \"https://github.com/OpenZeppelin/openzeppelin-contracts/blob/v4.8.0/contracts/utils/Context.sol\":640:736  function _msgSender() internal view virtual returns (address) {... */\n  swap1\n  jump\t// out\n    /* \"contracts/v2/TikTrixAction.sol\":281:1761  contract TikTrixAction is AccessControl {... */\ntag_7:\n  dataSize(sub_0)\n  dup1\n  dataOffset(sub_0)\n  0x00\n  codecopy\n  0x00\n  return\nstop\n\nsub_0: assembly {\n        /* \"contracts/v2/TikTrixAction.sol\":281:1761  contract TikTrixAction is AccessControl {... */\n      mstore(0x40, 0x80)\n      callvalue\n      dup1\n      iszero\n      tag_1\n      jumpi\n      0x00\n      dup1\n      revert\n    tag_1:\n      pop\n      jumpi(tag_2, lt(calldatasize, 0x04))\n      shr(0xe0, calldataload(0x00))\n      dup1\n      0x9a19c7b0\n      gt\n      tag_18\n      jumpi\n      dup1\n      0xc02725f0\n      gt\n      tag_19\n      jumpi\n      dup1\n      0xc02725f0\n      eq\n      tag_14\n      jumpi\n      dup1\n      0xc634b78e\n      eq\n      tag_15\n      jumpi\n      dup1\n      0xd547741f\n      eq\n      tag_16\n      jumpi\n      dup1\n      0xf58ee354\n      eq\n      tag_17\n      jumpi\n      jump(tag_2)\n    tag_19:\n      dup1\n      0x9a19c7b0\n      eq\n      tag_10\n      jumpi\n      dup1\n      0x9b4c7ced\n      eq\n      tag_11\n      jumpi\n      dup1\n      0xa217fddf\n      eq\n      tag_12\n      jumpi\n      dup1\n      0xaac2094a\n      eq\n      tag_13\n      jumpi\n      jump(tag_2)\n    tag_18:\n      dup1\n      0x36568abe\n      gt\n      tag_20\n      jumpi\n      dup1\n      0x36568abe\n      eq\n      tag_6\n      jumpi\n      dup1\n      0x66c77df7\n      eq\n      tag_7\n      jumpi\n      dup1\n      0x75b238fc\n      eq\n      tag_8\n      jumpi\n      dup1\n      0x91d14854\n      eq\n      tag_9\n      jumpi\n      jump(tag_2)\n    tag_20:\n      dup1\n      0x01ffc9a7\n      eq\n      tag_3\n      jumpi\n      dup1\n      0x248a9ca3\n      eq\n      tag_4\n      jumpi\n      dup1\n      0x2f2ff15d\n      eq\n      tag_5\n      jumpi\n    tag_2:\n      0x00\n      dup1\n      revert\n        /* \"https://github.com/OpenZeppelin/openzeppelin-contracts/blob/v4.8.0/contracts/access/AccessControl.sol\":2606:2808  function supportsInterface(bytes4 interfaceId) public view virtual override returns (bool) {... */\n    tag_3:\n      tag_21\n      0x04\n      dup1\n      calldatasize\n      sub\n      dup2\n      add\n      swap1\n      tag_22\n      swap2\n      swap1\n      tag_23\n      jump\t// in\n    tag_22:\n      tag_24\n      jump\t// in\n    tag_21:\n      mload(0x40)\n      tag_25\n      swap2\n      swap1\n      tag_26\n      jump\t// in\n    tag_25:\n      mload(0x40)\n      dup1\n      swap2\n      sub\n      swap1\n      return\n        /* \"https://github.com/OpenZeppelin/openzeppelin-contracts/blob/v4.8.0/contracts/access/AccessControl.sol\":4378:4507  function getRoleAdmin(bytes32 role) public view virtual override returns (bytes32) {... */\n    tag_4:\n      tag_27\n      0x04\n      dup1\n      calldatasize\n      sub\n      dup2\n      add\n      swap1\n      tag_28\n      swap2\n      swap1\n      tag_29\n      jump\t// in\n    tag_28:\n      tag_30\n      jump\t// in\n    tag_27:\n      mload(0x40)\n      tag_31\n      swap2\n      swap1\n      tag_32\n      jump\t// in\n    tag_31:\n      mload(0x40)\n      dup1\n      swap2\n      sub\n      swap1\n      return\n        /* \"https://github.com/OpenZeppelin/openzeppelin-contracts/blob/v4.8.0/contracts/access/AccessControl.sol\":4803:4948  function grantRole(bytes32 role, address account) public virtual override onlyRole(getRoleAdmin(role)) {... */\n    tag_5:\n      tag_33\n      0x04\n      dup1\n      calldatasize\n      sub\n      dup2\n      add\n      swap1\n      tag_34\n      swap2\n      swap1\n      tag_35\n      jump\t// in\n    tag_34:\n      tag_36\n      jump\t// in\n    tag_33:\n      stop\n        /* \"https://github.com/OpenZeppelin/openzeppelin-contracts/blob/v4.8.0/contracts/access/AccessControl.sol\":5912:6126  function renounceRole(bytes32 role, address account) public virtual override {... */\n    tag_6:\n      tag_37\n      0x04\n      dup1\n      calldatasize\n      sub\n      dup2\n      add\n      swap1\n      tag_38\n      swap2\n      swap1\n      tag_35\n      jump\t// in\n    tag_38:\n      tag_39\n      jump\t// in\n    tag_37:\n      stop\n        /* \"contracts/v2/TikTrixAction.sol\":1392:1509  function gamePause(uint256 gameSeq, uint256 memberSeq) external {... */\n    tag_7:\n      tag_40\n      0x04\n      dup1\n      calldatasize\n      sub\n      dup2\n      add\n      swap1\n      tag_41\n      swap2\n      swap1\n      tag_42\n      jump\t// in\n    tag_41:\n      tag_43\n      jump\t// in\n    tag_40:\n      stop\n        /* \"contracts/v2/TikTrixAction.sol\":327:387  bytes32 public constant ADMIN_ROLE = keccak256(\"ADMIN_ROLE\") */\n    tag_8:\n      tag_44\n      tag_45\n      jump\t// in\n    tag_44:\n      mload(0x40)\n      tag_46\n      swap2\n      swap1\n      tag_32\n      jump\t// in\n    tag_46:\n      mload(0x40)\n      dup1\n      swap2\n      sub\n      swap1\n      return\n        /* \"https://github.com/OpenZeppelin/openzeppelin-contracts/blob/v4.8.0/contracts/access/AccessControl.sol\":2895:3040  function hasRole(bytes32 role, address account) public view virtual override returns (bool) {... */\n    tag_9:\n      tag_47\n      0x04\n      dup1\n      calldatasize\n      sub\n      dup2\n      add\n      swap1\n      tag_48\n      swap2\n      swap1\n      tag_35\n      jump\t// in\n    tag_48:\n      tag_49\n      jump\t// in\n    tag_47:\n      mload(0x40)\n      tag_50\n      swap2\n      swap1\n      tag_26\n      jump\t// in\n    tag_50:\n      mload(0x40)\n      dup1\n      swap2\n      sub\n      swap1\n      return\n        /* \"contracts/v2/TikTrixAction.sol\":1018:1144  function revokeAdminRole(address account) public onlyRole(DEFAULT_ADMIN_ROLE) {... */\n    tag_10:\n      tag_51\n      0x04\n      dup1\n      calldatasize\n      sub\n      dup2\n      add\n      swap1\n      tag_52\n      swap2\n      swap1\n      tag_53\n      jump\t// in\n    tag_52:\n      tag_54\n      jump\t// in\n    tag_51:\n      stop\n        /* \"contracts/v2/TikTrixAction.sol\":1516:1637  function gameUnPause(uint256 gameSeq, uint256 memberSeq) external {... */\n    tag_11:\n      tag_55\n      0x04\n      dup1\n      calldatasize\n      sub\n      dup2\n      add\n      swap1\n      tag_56\n      swap2\n      swap1\n      tag_42\n      jump\t// in\n    tag_56:\n      tag_57\n      jump\t// in\n    tag_55:\n      stop\n        /* \"https://github.com/OpenZeppelin/openzeppelin-contracts/blob/v4.8.0/contracts/access/AccessControl.sol\":2027:2076  bytes32 public constant DEFAULT_ADMIN_ROLE = 0x00 */\n    tag_12:\n      tag_58\n      tag_59\n      jump\t// in\n    tag_58:\n      mload(0x40)\n      tag_60\n      swap2\n      swap1\n      tag_32\n      jump\t// in\n    tag_60:\n      mload(0x40)\n      dup1\n      swap2\n      sub\n      swap1\n      return\n        /* \"contracts/v2/TikTrixAction.sol\":1272:1386  function gameEnd(uint256 gameSeq, uint256 memberSeq) external {... */\n    tag_13:\n      tag_61\n      0x04\n      dup1\n      calldatasize\n      sub\n      dup2\n      add\n      swap1\n      tag_62\n      swap2\n      swap1\n      tag_42\n      jump\t// in\n    tag_62:\n      tag_63\n      jump\t// in\n    tag_61:\n      stop\n        /* \"contracts/v2/TikTrixAction.sol\":1150:1266  function gamePlay(uint256 gameSeq, uint256 memberSeq) external {... */\n    tag_14:\n      tag_64\n      0x04\n      dup1\n      calldatasize\n      sub\n      dup2\n      add\n      swap1\n      tag_65\n      swap2\n      swap1\n      tag_42\n      jump\t// in\n    tag_65:\n      tag_66\n      jump\t// in\n    tag_64:\n      stop\n        /* \"contracts/v2/TikTrixAction.sol\":888:1012  function grantAdminRole(address account) public onlyRole(DEFAULT_ADMIN_ROLE) {... */\n    tag_15:\n      tag_67\n      0x04\n      dup1\n      calldatasize\n      sub\n      dup2\n      add\n      swap1\n      tag_68\n      swap2\n      swap1\n      tag_53\n      jump\t// in\n    tag_68:\n      tag_69\n      jump\t// in\n    tag_67:\n      stop\n        /* \"https://github.com/OpenZeppelin/openzeppelin-contracts/blob/v4.8.0/contracts/access/AccessControl.sol\":5228:5375  function revokeRole(bytes32 role, address account) public virtual override onlyRole(getRoleAdmin(role)) {... */\n    tag_16:\n      tag_70\n      0x04\n      dup1\n      calldatasize\n      sub\n      dup2\n      add\n      swap1\n      tag_71\n      swap2\n      swap1\n      tag_35\n      jump\t// in\n    tag_71:\n      tag_72\n      jump\t// in\n    tag_70:\n      stop\n        /* \"contracts/v2/TikTrixAction.sol\":1643:1758  function gameLike(uint256 gameSeq, uint256 memberSeq) external {... */\n    tag_17:\n      tag_73\n      0x04\n      dup1\n      calldatasize\n      sub\n      dup2\n      add\n      swap1\n      tag_74\n      swap2\n      swap1\n      tag_42\n      jump\t// in\n    tag_74:\n      tag_75\n      jump\t// in\n    tag_73:\n      stop\n        /* \"https://github.com/OpenZeppelin/openzeppelin-contracts/blob/v4.8.0/contracts/access/AccessControl.sol\":2606:2808  function supportsInterface(bytes4 interfaceId) public view virtual override returns (bool) {... */\n    tag_24:\n        /* \"https://github.com/OpenZeppelin/openzeppelin-contracts/blob/v4.8.0/contracts/access/AccessControl.sol\":2691:2695  bool */\n      0x00\n        /* \"https://github.com/OpenZeppelin/openzeppelin-contracts/blob/v4.8.0/contracts/access/AccessControl.sol\":2729:2761  type(IAccessControl).interfaceId */\n      0x7965db0b00000000000000000000000000000000000000000000000000000000\n        /* \"https://github.com/OpenZeppelin/openzeppelin-contracts/blob/v4.8.0/contracts/access/AccessControl.sol\":2714:2761  interfaceId == type(IAccessControl).interfaceId */\n      not(0xffffffffffffffffffffffffffffffffffffffffffffffffffffffff)\n      and\n        /* \"https://github.com/OpenZeppelin/openzeppelin-contracts/blob/v4.8.0/contracts/access/AccessControl.sol\":2714:2725  interfaceId */\n      dup3\n        /* \"https://github.com/OpenZeppelin/openzeppelin-contracts/blob/v4.8.0/contracts/access/AccessControl.sol\":2714:2761  interfaceId == type(IAccessControl).interfaceId */\n      not(0xffffffffffffffffffffffffffffffffffffffffffffffffffffffff)\n      and\n      eq\n        /* \"https://github.com/OpenZeppelin/openzeppelin-contracts/blob/v4.8.0/contracts/access/AccessControl.sol\":2714:2801  interfaceId == type(IAccessControl).interfaceId || super.supportsInterface(interfaceId) */\n      dup1\n      tag_77\n      jumpi\n      pop\n        /* \"https://github.com/OpenZeppelin/openzeppelin-contracts/blob/v4.8.0/contracts/access/AccessControl.sol\":2765:2801  super.supportsInterface(interfaceId) */\n      tag_78\n        /* \"https://github.com/OpenZeppelin/openzeppelin-contracts/blob/v4.8.0/contracts/access/AccessControl.sol\":2789:2800  interfaceId */\n      dup3\n        /* \"https://github.com/OpenZeppelin/openzeppelin-contracts/blob/v4.8.0/contracts/access/AccessControl.sol\":2765:2788  super.supportsInterface */\n      tag_79\n        /* \"https://github.com/OpenZeppelin/openzeppelin-contracts/blob/v4.8.0/contracts/access/AccessControl.sol\":2765:2801  super.supportsInterface(interfaceId) */\n      jump\t// in\n    tag_78:\n        /* \"https://github.com/OpenZeppelin/openzeppelin-contracts/blob/v4.8.0/contracts/access/AccessControl.sol\":2714:2801  interfaceId == type(IAccessControl).interfaceId || super.supportsInterface(interfaceId) */\n    tag_77:\n        /* \"https://github.com/OpenZeppelin/openzeppelin-contracts/blob/v4.8.0/contracts/access/AccessControl.sol\":2707:2801  return interfaceId == type(IAccessControl).interfaceId || super.supportsInterface(interfaceId) */\n      swap1\n      pop\n        /* \"https://github.com/OpenZeppelin/openzeppelin-contracts/blob/v4.8.0/contracts/access/AccessControl.sol\":2606:2808  function supportsInterface(bytes4 interfaceId) public view virtual override returns (bool) {... */\n      swap2\n      swap1\n      pop\n      jump\t// out\n        /* \"https://github.com/OpenZeppelin/openzeppelin-contracts/blob/v4.8.0/contracts/access/AccessControl.sol\":4378:4507  function getRoleAdmin(bytes32 role) public view virtual override returns (bytes32) {... */\n    tag_30:\n        /* \"https://github.com/OpenZeppelin/openzeppelin-contracts/blob/v4.8.0/contracts/access/AccessControl.sol\":4452:4459  bytes32 */\n      0x00\n        /* \"https://github.com/OpenZeppelin/openzeppelin-contracts/blob/v4.8.0/contracts/access/AccessControl.sol\":4478:4484  _roles */\n      dup1\n        /* \"https://github.com/OpenZeppelin/openzeppelin-contracts/blob/v4.8.0/contracts/access/AccessControl.sol\":4478:4490  _roles[role] */\n      0x00\n        /* \"https://github.com/OpenZeppelin/openzeppelin-contracts/blob/v4.8.0/contracts/access/AccessControl.sol\":4485:4489  role */\n      dup4\n        /* \"https://github.com/OpenZeppelin/openzeppelin-contracts/blob/v4.8.0/contracts/access/AccessControl.sol\":4478:4490  _roles[role] */\n      dup2\n      mstore\n      0x20\n      add\n      swap1\n      dup2\n      mstore\n      0x20\n      add\n      0x00\n      keccak256\n        /* \"https://github.com/OpenZeppelin/openzeppelin-contracts/blob/v4.8.0/contracts/access/AccessControl.sol\":4478:4500  _roles[role].adminRole */\n      0x01\n      add\n      sload\n        /* \"https://github.com/OpenZeppelin/openzeppelin-contracts/blob/v4.8.0/contracts/access/AccessControl.sol\":4471:4500  return _roles[role].adminRole */\n      swap1\n      pop\n        /* \"https://github.com/OpenZeppelin/openzeppelin-contracts/blob/v4.8.0/contracts/access/AccessControl.sol\":4378:4507  function getRoleAdmin(bytes32 role) public view virtual override returns (bytes32) {... */\n      swap2\n      swap1\n      pop\n      jump\t// out\n        /* \"https://github.com/OpenZeppelin/openzeppelin-contracts/blob/v4.8.0/contracts/access/AccessControl.sol\":4803:4948  function grantRole(bytes32 role, address account) public virtual override onlyRole(getRoleAdmin(role)) {... */\n    tag_36:\n        /* \"https://github.com/OpenZeppelin/openzeppelin-contracts/blob/v4.8.0/contracts/access/AccessControl.sol\":4886:4904  getRoleAdmin(role) */\n      tag_81\n        /* \"https://github.com/OpenZeppelin/openzeppelin-contracts/blob/v4.8.0/contracts/access/AccessControl.sol\":4899:4903  role */\n      dup3\n        /* \"https://github.com/OpenZeppelin/openzeppelin-contracts/blob/v4.8.0/contracts/access/AccessControl.sol\":4886:4898  getRoleAdmin */\n      tag_30\n        /* \"https://github.com/OpenZeppelin/openzeppelin-contracts/blob/v4.8.0/contracts/access/AccessControl.sol\":4886:4904  getRoleAdmin(role) */\n      jump\t// in\n    tag_81:\n        /* \"https://github.com/OpenZeppelin/openzeppelin-contracts/blob/v4.8.0/contracts/access/AccessControl.sol\":2505:2521  _checkRole(role) */\n      tag_83\n        /* \"https://github.com/OpenZeppelin/openzeppelin-contracts/blob/v4.8.0/contracts/access/AccessControl.sol\":2516:2520  role */\n      dup2\n        /* \"https://github.com/OpenZeppelin/openzeppelin-contracts/blob/v4.8.0/contracts/access/AccessControl.sol\":2505:2515  _checkRole */\n      tag_84\n        /* \"https://github.com/OpenZeppelin/openzeppelin-contracts/blob/v4.8.0/contracts/access/AccessControl.sol\":2505:2521  _checkRole(role) */\n      jump\t// in\n    tag_83:\n        /* \"https://github.com/OpenZeppelin/openzeppelin-contracts/blob/v4.8.0/contracts/access/AccessControl.sol\":4916:4941  _grantRole(role, account) */\n      tag_86\n        /* \"https://github.com/OpenZeppelin/openzeppelin-contracts/blob/v4.8.0/contracts/access/AccessControl.sol\":4927:4931  role */\n      dup4\n        /* \"https://github.com/OpenZeppelin/openzeppelin-contracts/blob/v4.8.0/contracts/access/AccessControl.sol\":4933:4940  account */\n      dup4\n        /* \"https://github.com/OpenZeppelin/openzeppelin-contracts/blob/v4.8.0/contracts/access/AccessControl.sol\":4916:4926  _grantRole */\n      tag_87\n        /* \"https://github.com/OpenZeppelin/openzeppelin-contracts/blob/v4.8.0/contracts/access/AccessControl.sol\":4916:4941  _grantRole(role, account) */\n      jump\t// in\n    tag_86:\n        /* \"https://github.com/OpenZeppelin/openzeppelin-contracts/blob/v4.8.0/contracts/access/AccessControl.sol\":4803:4948  function grantRole(bytes32 role, address account) public virtual override onlyRole(getRoleAdmin(role)) {... */\n      pop\n      pop\n      pop\n      jump\t// out\n        /* \"https://github.com/OpenZeppelin/openzeppelin-contracts/blob/v4.8.0/contracts/access/AccessControl.sol\":5912:6126  function renounceRole(bytes32 role, address account) public virtual override {... */\n    tag_39:\n        /* \"https://github.com/OpenZeppelin/openzeppelin-contracts/blob/v4.8.0/contracts/access/AccessControl.sol\":6018:6030  _msgSender() */\n      tag_89\n        /* \"https://github.com/OpenZeppelin/openzeppelin-contracts/blob/v4.8.0/contracts/access/AccessControl.sol\":6018:6028  _msgSender */\n      tag_90\n        /* \"https://github.com/OpenZeppelin/openzeppelin-contracts/blob/v4.8.0/contracts/access/AccessControl.sol\":6018:6030  _msgSender() */\n      jump\t// in\n    tag_89:\n        /* \"https://github.com/OpenZeppelin/openzeppelin-contracts/blob/v4.8.0/contracts/access/AccessControl.sol\":6007:6030  account == _msgSender() */\n      0xffffffffffffffffffffffffffffffffffffffff\n      and\n        /* \"https://github.com/OpenZeppelin/openzeppelin-contracts/blob/v4.8.0/contracts/access/AccessControl.sol\":6007:6014  account */\n      dup2\n        /* \"https://github.com/OpenZeppelin/openzeppelin-contracts/blob/v4.8.0/contracts/access/AccessControl.sol\":6007:6030  account == _msgSender() */\n      0xffffffffffffffffffffffffffffffffffffffff\n      and\n      eq\n        /* \"https://github.com/OpenZeppelin/openzeppelin-contracts/blob/v4.8.0/contracts/access/AccessControl.sol\":5999:6082  require(account == _msgSender(), \"AccessControl: can only renounce roles for self\") */\n      tag_91\n      jumpi\n      mload(0x40)\n      0x08c379a000000000000000000000000000000000000000000000000000000000\n      dup2\n      mstore\n      0x04\n      add\n      tag_92\n      swap1\n      tag_93\n      jump\t// in\n    tag_92:\n      mload(0x40)\n      dup1\n      swap2\n      sub\n      swap1\n      revert\n    tag_91:\n        /* \"https://github.com/OpenZeppelin/openzeppelin-contracts/blob/v4.8.0/contracts/access/AccessControl.sol\":6093:6119  _revokeRole(role, account) */\n      tag_94\n        /* \"https://github.com/OpenZeppelin/openzeppelin-contracts/blob/v4.8.0/contracts/access/AccessControl.sol\":6105:6109  role */\n      dup3\n        /* \"https://github.com/OpenZeppelin/openzeppelin-contracts/blob/v4.8.0/contracts/access/AccessControl.sol\":6111:6118  account */\n      dup3\n        /* \"https://github.com/OpenZeppelin/openzeppelin-contracts/blob/v4.8.0/contracts/access/AccessControl.sol\":6093:6104  _revokeRole */\n      tag_95\n        /* \"https://github.com/OpenZeppelin/openzeppelin-contracts/blob/v4.8.0/contracts/access/AccessControl.sol\":6093:6119  _revokeRole(role, account) */\n      jump\t// in\n    tag_94:\n        /* \"https://github.com/OpenZeppelin/openzeppelin-contracts/blob/v4.8.0/contracts/access/AccessControl.sol\":5912:6126  function renounceRole(bytes32 role, address account) public virtual override {... */\n      pop\n      pop\n      jump\t// out\n        /* \"contracts/v2/TikTrixAction.sol\":1392:1509  function gamePause(uint256 gameSeq, uint256 memberSeq) external {... */\n    tag_43:\n        /* \"contracts/v2/TikTrixAction.sol\":1492:1501  memberSeq */\n      dup1\n        /* \"contracts/v2/TikTrixAction.sol\":1483:1490  gameSeq */\n      dup3\n        /* \"contracts/v2/TikTrixAction.sol\":1472:1502  GamePaused(gameSeq, memberSeq) */\n      0xf5704ea1fb9a06b3c4911041793afd3003eac5b15756eef2987e75303f9f34c6\n      mload(0x40)\n      mload(0x40)\n      dup1\n      swap2\n      sub\n      swap1\n      log3\n        /* \"contracts/v2/TikTrixAction.sol\":1392:1509  function gamePause(uint256 gameSeq, uint256 memberSeq) external {... */\n      pop\n      pop\n      jump\t// out\n        /* \"contracts/v2/TikTrixAction.sol\":327:387  bytes32 public constant ADMIN_ROLE = keccak256(\"ADMIN_ROLE\") */\n    tag_45:\n        /* \"contracts/v2/TikTrixAction.sol\":364:387  keccak256(\"ADMIN_ROLE\") */\n      0xa49807205ce4d355092ef5a8a18f56e8913cf4a201fbe287825b095693c21775\n        /* \"contracts/v2/TikTrixAction.sol\":327:387  bytes32 public constant ADMIN_ROLE = keccak256(\"ADMIN_ROLE\") */\n      dup2\n      jump\t// out\n        /* \"https://github.com/OpenZeppelin/openzeppelin-contracts/blob/v4.8.0/contracts/access/AccessControl.sol\":2895:3040  function hasRole(bytes32 role, address account) public view virtual override returns (bool) {... */\n    tag_49:\n        /* \"https://github.com/OpenZeppelin/openzeppelin-contracts/blob/v4.8.0/contracts/access/AccessControl.sol\":2981:2985  bool */\n      0x00\n        /* \"https://github.com/OpenZeppelin/openzeppelin-contracts/blob/v4.8.0/contracts/access/AccessControl.sol\":3004:3010  _roles */\n      dup1\n        /* \"https://github.com/OpenZeppelin/openzeppelin-contracts/blob/v4.8.0/contracts/access/AccessControl.sol\":3004:3016  _roles[role] */\n      0x00\n        /* \"https://github.com/OpenZeppelin/openzeppelin-contracts/blob/v4.8.0/contracts/access/AccessControl.sol\":3011:3015  role */\n      dup5\n        /* \"https://github.com/OpenZeppelin/openzeppelin-contracts/blob/v4.8.0/contracts/access/AccessControl.sol\":3004:3016  _roles[role] */\n      dup2\n      mstore\n      0x20\n      add\n      swap1\n      dup2\n      mstore\n      0x20\n      add\n      0x00\n      keccak256\n        /* \"https://github.com/OpenZeppelin/openzeppelin-contracts/blob/v4.8.0/contracts/access/AccessControl.sol\":3004:3024  _roles[role].members */\n      0x00\n      add\n        /* \"https://github.com/OpenZeppelin/openzeppelin-contracts/blob/v4.8.0/contracts/access/AccessControl.sol\":3004:3033  _roles[role].members[account] */\n      0x00\n        /* \"https://github.com/OpenZeppelin/openzeppelin-contracts/blob/v4.8.0/contracts/access/AccessControl.sol\":3025:3032  account */\n      dup4\n        /* \"https://github.com/OpenZeppelin/openzeppelin-contracts/blob/v4.8.0/contracts/access/AccessControl.sol\":3004:3033  _roles[role].members[account] */\n      0xffffffffffffffffffffffffffffffffffffffff\n      and\n      0xffffffffffffffffffffffffffffffffffffffff\n      and\n      dup2\n      mstore\n      0x20\n      add\n      swap1\n      dup2\n      mstore\n      0x20\n      add\n      0x00\n      keccak256\n      0x00\n      swap1\n      sload\n      swap1\n      0x0100\n      exp\n      swap1\n      div\n      0xff\n      and\n        /* \"https://github.com/OpenZeppelin/openzeppelin-contracts/blob/v4.8.0/contracts/access/AccessControl.sol\":2997:3033  return _roles[role].members[account] */\n      swap1\n      pop\n        /* \"https://github.com/OpenZeppelin/openzeppelin-contracts/blob/v4.8.0/contracts/access/AccessControl.sol\":2895:3040  function hasRole(bytes32 role, address account) public view virtual override returns (bool) {... */\n      swap3\n      swap2\n      pop\n      pop\n      jump\t// out\n        /* \"contracts/v2/TikTrixAction.sol\":1018:1144  function revokeAdminRole(address account) public onlyRole(DEFAULT_ADMIN_ROLE) {... */\n    tag_54:\n        /* \"https://github.com/OpenZeppelin/openzeppelin-contracts/blob/v4.8.0/contracts/access/AccessControl.sol\":2072:2076  0x00 */\n      0x00\n        /* \"contracts/v2/TikTrixAction.sol\":1076:1094  DEFAULT_ADMIN_ROLE */\n      dup1\n      shl\n        /* \"https://github.com/OpenZeppelin/openzeppelin-contracts/blob/v4.8.0/contracts/access/AccessControl.sol\":2505:2521  _checkRole(role) */\n      tag_99\n        /* \"https://github.com/OpenZeppelin/openzeppelin-contracts/blob/v4.8.0/contracts/access/AccessControl.sol\":2516:2520  role */\n      dup2\n        /* \"https://github.com/OpenZeppelin/openzeppelin-contracts/blob/v4.8.0/contracts/access/AccessControl.sol\":2505:2515  _checkRole */\n      tag_84\n        /* \"https://github.com/OpenZeppelin/openzeppelin-contracts/blob/v4.8.0/contracts/access/AccessControl.sol\":2505:2521  _checkRole(role) */\n      jump\t// in\n    tag_99:\n        /* \"contracts/v2/TikTrixAction.sol\":1106:1137  revokeRole(ADMIN_ROLE, account) */\n      tag_101\n        /* \"contracts/v2/TikTrixAction.sol\":364:387  keccak256(\"ADMIN_ROLE\") */\n      0xa49807205ce4d355092ef5a8a18f56e8913cf4a201fbe287825b095693c21775\n        /* \"contracts/v2/TikTrixAction.sol\":1129:1136  account */\n      dup4\n        /* \"contracts/v2/TikTrixAction.sol\":1106:1116  revokeRole */\n      tag_72\n        /* \"contracts/v2/TikTrixAction.sol\":1106:1137  revokeRole(ADMIN_ROLE, account) */\n      jump\t// in\n    tag_101:\n        /* \"contracts/v2/TikTrixAction.sol\":1018:1144  function revokeAdminRole(address account) public onlyRole(DEFAULT_ADMIN_ROLE) {... */\n      pop\n      pop\n      jump\t// out\n        /* \"contracts/v2/TikTrixAction.sol\":1516:1637  function gameUnPause(uint256 gameSeq, uint256 memberSeq) external {... */\n    tag_57:\n        /* \"contracts/v2/TikTrixAction.sol\":1620:1629  memberSeq */\n      dup1\n        /* \"contracts/v2/TikTrixAction.sol\":1611:1618  gameSeq */\n      dup3\n        /* \"contracts/v2/TikTrixAction.sol\":1598:1630  GameUnPaused(gameSeq, memberSeq) */\n      0x96af4cfe56c938154cf8986288dfea262d8b1caa075204f4679ae517bcea70b9\n      mload(0x40)\n      mload(0x40)\n      dup1\n      swap2\n      sub\n      swap1\n      log3\n        /* \"contracts/v2/TikTrixAction.sol\":1516:1637  function gameUnPause(uint256 gameSeq, uint256 memberSeq) external {... */\n      pop\n      pop\n      jump\t// out\n        /* \"https://github.com/OpenZeppelin/openzeppelin-contracts/blob/v4.8.0/contracts/access/AccessControl.sol\":2027:2076  bytes32 public constant DEFAULT_ADMIN_ROLE = 0x00 */\n    tag_59:\n        /* \"https://github.com/OpenZeppelin/openzeppelin-contracts/blob/v4.8.0/contracts/access/AccessControl.sol\":2072:2076  0x00 */\n      0x00\n        /* \"https://github.com/OpenZeppelin/openzeppelin-contracts/blob/v4.8.0/contracts/access/AccessControl.sol\":2027:2076  bytes32 public constant DEFAULT_ADMIN_ROLE = 0x00 */\n      dup1\n      shl\n      dup2\n      jump\t// out\n        /* \"contracts/v2/TikTrixAction.sol\":1272:1386  function gameEnd(uint256 gameSeq, uint256 memberSeq) external {... */\n    tag_63:\n        /* \"contracts/v2/TikTrixAction.sol\":1369:1378  memberSeq */\n      dup1\n        /* \"contracts/v2/TikTrixAction.sol\":1360:1367  gameSeq */\n      dup3\n        /* \"contracts/v2/TikTrixAction.sol\":1350:1379  GameEnded(gameSeq, memberSeq) */\n      0x4c4660db760944215f41e957066d756ad5fd0eed1b4640632322eb06f77b034d\n      mload(0x40)\n      mload(0x40)\n      dup1\n      swap2\n      sub\n      swap1\n      log3\n        /* \"contracts/v2/TikTrixAction.sol\":1272:1386  function gameEnd(uint256 gameSeq, uint256 memberSeq) external {... */\n      pop\n      pop\n      jump\t// out\n        /* \"contracts/v2/TikTrixAction.sol\":1150:1266  function gamePlay(uint256 gameSeq, uint256 memberSeq) external {... */\n    tag_66:\n        /* \"contracts/v2/TikTrixAction.sol\":1249:1258  memberSeq */\n      dup1\n        /* \"contracts/v2/TikTrixAction.sol\":1240:1247  gameSeq */\n      dup3\n        /* \"contracts/v2/TikTrixAction.sol\":1229:1259  GamePlayed(gameSeq, memberSeq) */\n      0xcccca5c37cd734d94742d46e24d5fcdc3e6ef8dd90dda510dae0e35530add4a2\n      mload(0x40)\n      mload(0x40)\n      dup1\n      swap2\n      sub\n      swap1\n      log3\n        /* \"contracts/v2/TikTrixAction.sol\":1150:1266  function gamePlay(uint256 gameSeq, uint256 memberSeq) external {... */\n      pop\n      pop\n      jump\t// out\n        /* \"contracts/v2/TikTrixAction.sol\":888:1012  function grantAdminRole(address account) public onlyRole(DEFAULT_ADMIN_ROLE) {... */\n    tag_69:\n        /* \"https://github.com/OpenZeppelin/openzeppelin-contracts/blob/v4.8.0/contracts/access/AccessControl.sol\":2072:2076  0x00 */\n      0x00\n        /* \"contracts/v2/TikTrixAction.sol\":945:963  DEFAULT_ADMIN_ROLE */\n      dup1\n      shl\n        /* \"https://github.com/OpenZeppelin/openzeppelin-contracts/blob/v4.8.0/contracts/access/AccessControl.sol\":2505:2521  _checkRole(role) */\n      tag_106\n        /* \"https://github.com/OpenZeppelin/openzeppelin-contracts/blob/v4.8.0/contracts/access/AccessControl.sol\":2516:2520  role */\n      dup2\n        /* \"https://github.com/OpenZeppelin/openzeppelin-contracts/blob/v4.8.0/contracts/access/AccessControl.sol\":2505:2515  _checkRole */\n      tag_84\n        /* \"https://github.com/OpenZeppelin/openzeppelin-contracts/blob/v4.8.0/contracts/access/AccessControl.sol\":2505:2521  _checkRole(role) */\n      jump\t// in\n    tag_106:\n        /* \"contracts/v2/TikTrixAction.sol\":975:1005  grantRole(ADMIN_ROLE, account) */\n      tag_108\n        /* \"contracts/v2/TikTrixAction.sol\":364:387  keccak256(\"ADMIN_ROLE\") */\n      0xa49807205ce4d355092ef5a8a18f56e8913cf4a201fbe287825b095693c21775\n        /* \"contracts/v2/TikTrixAction.sol\":997:1004  account */\n      dup4\n        /* \"contracts/v2/TikTrixAction.sol\":975:984  grantRole */\n      tag_36\n        /* \"contracts/v2/TikTrixAction.sol\":975:1005  grantRole(ADMIN_ROLE, account) */\n      jump\t// in\n    tag_108:\n        /* \"contracts/v2/TikTrixAction.sol\":888:1012  function grantAdminRole(address account) public onlyRole(DEFAULT_ADMIN_ROLE) {... */\n      pop\n      pop\n      jump\t// out\n        /* \"https://github.com/OpenZeppelin/openzeppelin-contracts/blob/v4.8.0/contracts/access/AccessControl.sol\":5228:5375  function revokeRole(bytes32 role, address account) public virtual override onlyRole(getRoleAdmin(role)) {... */\n    tag_72:\n        /* \"https://github.com/OpenZeppelin/openzeppelin-contracts/blob/v4.8.0/contracts/access/AccessControl.sol\":5312:5330  getRoleAdmin(role) */\n      tag_109\n        /* \"https://github.com/OpenZeppelin/openzeppelin-contracts/blob/v4.8.0/contracts/access/AccessControl.sol\":5325:5329  role */\n      dup3\n        /* \"https://github.com/OpenZeppelin/openzeppelin-contracts/blob/v4.8.0/contracts/access/AccessControl.sol\":5312:5324  getRoleAdmin */\n      tag_30\n        /* \"https://github.com/OpenZeppelin/openzeppelin-contracts/blob/v4.8.0/contracts/access/AccessControl.sol\":5312:5330  getRoleAdmin(role) */\n      jump\t// in\n    tag_109:\n        /* \"https://github.com/OpenZeppelin/openzeppelin-contracts/blob/v4.8.0/contracts/access/AccessControl.sol\":2505:2521  _checkRole(role) */\n      tag_111\n        /* \"https://github.com/OpenZeppelin/openzeppelin-contracts/blob/v4.8.0/contracts/access/AccessControl.sol\":2516:2520  role */\n      dup2\n        /* \"https://github.com/OpenZeppelin/openzeppelin-contracts/blob/v4.8.0/contracts/access/AccessControl.sol\":2505:2515  _checkRole */\n      tag_84\n        /* \"https://github.com/OpenZeppelin/openzeppelin-contracts/blob/v4.8.0/contracts/access/AccessControl.sol\":2505:2521  _checkRole(role) */\n      jump\t// in\n    tag_111:\n        /* \"https://github.com/OpenZeppelin/openzeppelin-contracts/blob/v4.8.0/contracts/access/AccessControl.sol\":5342:5368  _revokeRole(role, account) */\n      tag_113\n        /* \"https://github.com/OpenZeppelin/openzeppelin-contracts/blob/v4.8.0/contracts/access/AccessControl.sol\":5354:5358  role */\n      dup4\n        /* \"https://github.com/OpenZeppelin/openzeppelin-contracts/blob/v4.8.0/contracts/access/AccessControl.sol\":5360:5367  account */\n      dup4\n        /* \"https://github.com/OpenZeppelin/openzeppelin-contracts/blob/v4.8.0/contracts/access/AccessControl.sol\":5342:5353  _revokeRole */\n      tag_95\n        /* \"https://github.com/OpenZeppelin/openzeppelin-contracts/blob/v4.8.0/contracts/access/AccessControl.sol\":5342:5368  _revokeRole(role, account) */\n      jump\t// in\n    tag_113:\n        /* \"https://github.com/OpenZeppelin/openzeppelin-contracts/blob/v4.8.0/contracts/access/AccessControl.sol\":5228:5375  function revokeRole(bytes32 role, address account) public virtual override onlyRole(getRoleAdmin(role)) {... */\n      pop\n      pop\n      pop\n      jump\t// out\n        /* \"contracts/v2/TikTrixAction.sol\":1643:1758  function gameLike(uint256 gameSeq, uint256 memberSeq) external {... */\n    tag_75:\n        /* \"contracts/v2/TikTrixAction.sol\":1741:1750  memberSeq */\n      dup1\n        /* \"contracts/v2/TikTrixAction.sol\":1732:1739  gameSeq */\n      dup3\n        /* \"contracts/v2/TikTrixAction.sol\":1722:1751  GameLiked(gameSeq, memberSeq) */\n      0x51dbb46f6f6d290ac0b2b3fb0b015e2065756f1b9ec382651fe728757bf362fe\n      mload(0x40)\n      mload(0x40)\n      dup1\n      swap2\n      sub\n      swap1\n      log3\n        /* \"contracts/v2/TikTrixAction.sol\":1643:1758  function gameLike(uint256 gameSeq, uint256 memberSeq) external {... */\n      pop\n      pop\n      jump\t// out\n        /* \"https://github.com/OpenZeppelin/openzeppelin-contracts/blob/v4.8.0/contracts/utils/introspection/ERC165.sol\":829:984  function supportsInterface(bytes4 interfaceId) public view virtual override returns (bool) {... */\n    tag_79:\n        /* \"https://github.com/OpenZeppelin/openzeppelin-contracts/blob/v4.8.0/contracts/utils/introspection/ERC165.sol\":914:918  bool */\n      0x00\n        /* \"https://github.com/OpenZeppelin/openzeppelin-contracts/blob/v4.8.0/contracts/utils/introspection/ERC165.sol\":952:977  type(IERC165).interfaceId */\n      0x01ffc9a700000000000000000000000000000000000000000000000000000000\n        /* \"https://github.com/OpenZeppelin/openzeppelin-contracts/blob/v4.8.0/contracts/utils/introspection/ERC165.sol\":937:977  interfaceId == type(IERC165).interfaceId */\n      not(0xffffffffffffffffffffffffffffffffffffffffffffffffffffffff)\n      and\n        /* \"https://github.com/OpenZeppelin/openzeppelin-contracts/blob/v4.8.0/contracts/utils/introspection/ERC165.sol\":937:948  interfaceId */\n      dup3\n        /* \"https://github.com/OpenZeppelin/openzeppelin-contracts/blob/v4.8.0/contracts/utils/introspection/ERC165.sol\":937:977  interfaceId == type(IERC165).interfaceId */\n      not(0xffffffffffffffffffffffffffffffffffffffffffffffffffffffff)\n      and\n      eq\n        /* \"https://github.com/OpenZeppelin/openzeppelin-contracts/blob/v4.8.0/contracts/utils/introspection/ERC165.sol\":930:977  return interfaceId == type(IERC165).interfaceId */\n      swap1\n      pop\n        /* \"https://github.com/OpenZeppelin/openzeppelin-contracts/blob/v4.8.0/contracts/utils/introspection/ERC165.sol\":829:984  function supportsInterface(bytes4 interfaceId) public view virtual override returns (bool) {... */\n      swap2\n      swap1\n      pop\n      jump\t// out\n        /* \"https://github.com/OpenZeppelin/openzeppelin-contracts/blob/v4.8.0/contracts/access/AccessControl.sol\":3334:3437  function _checkRole(bytes32 role) internal view virtual {... */\n    tag_84:\n        /* \"https://github.com/OpenZeppelin/openzeppelin-contracts/blob/v4.8.0/contracts/access/AccessControl.sol\":3400:3430  _checkRole(role, _msgSender()) */\n      tag_117\n        /* \"https://github.com/OpenZeppelin/openzeppelin-contracts/blob/v4.8.0/contracts/access/AccessControl.sol\":3411:3415  role */\n      dup2\n        /* \"https://github.com/OpenZeppelin/openzeppelin-contracts/blob/v4.8.0/contracts/access/AccessControl.sol\":3417:3429  _msgSender() */\n      tag_118\n        /* \"https://github.com/OpenZeppelin/openzeppelin-contracts/blob/v4.8.0/contracts/access/AccessControl.sol\":3417:3427  _msgSender */\n      tag_90\n        /* \"https://github.com/OpenZeppelin/openzeppelin-contracts/blob/v4.8.0/contracts/access/AccessControl.sol\":3417:3429  _msgSender() */\n      jump\t// in\n    tag_118:\n        /* \"https://github.com/OpenZeppelin/openzeppelin-contracts/blob/v4.8.0/contracts/access/AccessControl.sol\":3400:3410  _checkRole */\n      tag_119\n        /* \"https://github.com/OpenZeppelin/openzeppelin-contracts/blob/v4.8.0/contracts/access/AccessControl.sol\":3400:3430  _checkRole(role, _msgSender()) */\n      jump\t// in\n    tag_117:\n        /* \"https://github.com/OpenZeppelin/openzeppelin-contracts/blob/v4.8.0/contracts/access/AccessControl.sol\":3334:3437  function _checkRole(bytes32 role) internal view virtual {... */\n      pop\n      jump\t// out\n        /* \"https://github.com/OpenZeppelin/openzeppelin-contracts/blob/v4.8.0/contracts/access/AccessControl.sol\":7461:7694  function _grantRole(bytes32 role, address account) internal virtual {... */\n    tag_87:\n        /* \"https://github.com/OpenZeppelin/openzeppelin-contracts/blob/v4.8.0/contracts/access/AccessControl.sol\":7544:7566  hasRole(role, account) */\n      tag_121\n        /* \"https://github.com/OpenZeppelin/openzeppelin-contracts/blob/v4.8.0/contracts/access/AccessControl.sol\":7552:7556  role */\n      dup3\n        /* \"https://github.com/OpenZeppelin/openzeppelin-contracts/blob/v4.8.0/contracts/access/AccessControl.sol\":7558:7565  account */\n      dup3\n        /* \"https://github.com/OpenZeppelin/openzeppelin-contracts/blob/v4.8.0/contracts/access/AccessControl.sol\":7544:7551  hasRole */\n      tag_49\n        /* \"https://github.com/OpenZeppelin/openzeppelin-contracts/blob/v4.8.0/contracts/access/AccessControl.sol\":7544:7566  hasRole(role, account) */\n      jump\t// in\n    tag_121:\n        /* \"https://github.com/OpenZeppelin/openzeppelin-contracts/blob/v4.8.0/contracts/access/AccessControl.sol\":7539:7688  if (!hasRole(role, account)) {... */\n      tag_122\n      jumpi\n        /* \"https://github.com/OpenZeppelin/openzeppelin-contracts/blob/v4.8.0/contracts/access/AccessControl.sol\":7614:7618  true */\n      0x01\n        /* \"https://github.com/OpenZeppelin/openzeppelin-contracts/blob/v4.8.0/contracts/access/AccessControl.sol\":7582:7588  _roles */\n      0x00\n        /* \"https://github.com/OpenZeppelin/openzeppelin-contracts/blob/v4.8.0/contracts/access/AccessControl.sol\":7582:7594  _roles[role] */\n      dup1\n        /* \"https://github.com/OpenZeppelin/openzeppelin-contracts/blob/v4.8.0/contracts/access/AccessControl.sol\":7589:7593  role */\n      dup5\n        /* \"https://github.com/OpenZeppelin/openzeppelin-contracts/blob/v4.8.0/contracts/access/AccessControl.sol\":7582:7594  _roles[role] */\n      dup2\n      mstore\n      0x20\n      add\n      swap1\n      dup2\n      mstore\n      0x20\n      add\n      0x00\n      keccak256\n        /* \"https://github.com/OpenZeppelin/openzeppelin-contracts/blob/v4.8.0/contracts/access/AccessControl.sol\":7582:7602  _roles[role].members */\n      0x00\n      add\n        /* \"https://github.com/OpenZeppelin/openzeppelin-contracts/blob/v4.8.0/contracts/access/AccessControl.sol\":7582:7611  _roles[role].members[account] */\n      0x00\n        /* \"https://github.com/OpenZeppelin/openzeppelin-contracts/blob/v4.8.0/contracts/access/AccessControl.sol\":7603:7610  account */\n      dup4\n        /* \"https://github.com/OpenZeppelin/openzeppelin-contracts/blob/v4.8.0/contracts/access/AccessControl.sol\":7582:7611  _roles[role].members[account] */\n      0xffffffffffffffffffffffffffffffffffffffff\n      and\n      0xffffffffffffffffffffffffffffffffffffffff\n      and\n      dup2\n      mstore\n      0x20\n      add\n      swap1\n      dup2\n      mstore\n      0x20\n      add\n      0x00\n      keccak256\n      0x00\n        /* \"https://github.com/OpenZeppelin/openzeppelin-contracts/blob/v4.8.0/contracts/access/AccessControl.sol\":7582:7618  _roles[role].members[account] = true */\n      0x0100\n      exp\n      dup2\n      sload\n      dup2\n      0xff\n      mul\n      not\n      and\n      swap1\n      dup4\n      iszero\n      iszero\n      mul\n      or\n      swap1\n      sstore\n      pop\n        /* \"https://github.com/OpenZeppelin/openzeppelin-contracts/blob/v4.8.0/contracts/access/AccessControl.sol\":7664:7676  _msgSender() */\n      tag_123\n        /* \"https://github.com/OpenZeppelin/openzeppelin-contracts/blob/v4.8.0/contracts/access/AccessControl.sol\":7664:7674  _msgSender */\n      tag_90\n        /* \"https://github.com/OpenZeppelin/openzeppelin-contracts/blob/v4.8.0/contracts/access/AccessControl.sol\":7664:7676  _msgSender() */\n      jump\t// in\n    tag_123:\n        /* \"https://github.com/OpenZeppelin/openzeppelin-contracts/blob/v4.8.0/contracts/access/AccessControl.sol\":7637:7677  RoleGranted(role, account, _msgSender()) */\n      0xffffffffffffffffffffffffffffffffffffffff\n      and\n        /* \"https://github.com/OpenZeppelin/openzeppelin-contracts/blob/v4.8.0/contracts/access/AccessControl.sol\":7655:7662  account */\n      dup2\n        /* \"https://github.com/OpenZeppelin/openzeppelin-contracts/blob/v4.8.0/contracts/access/AccessControl.sol\":7637:7677  RoleGranted(role, account, _msgSender()) */\n      0xffffffffffffffffffffffffffffffffffffffff\n      and\n        /* \"https://github.com/OpenZeppelin/openzeppelin-contracts/blob/v4.8.0/contracts/access/AccessControl.sol\":7649:7653  role */\n      dup4\n        /* \"https://github.com/OpenZeppelin/openzeppelin-contracts/blob/v4.8.0/contracts/access/AccessControl.sol\":7637:7677  RoleGranted(role, account, _msgSender()) */\n      0x2f8788117e7eff1d82e926ec794901d17c78024a50270940304540a733656f0d\n      mload(0x40)\n      mload(0x40)\n      dup1\n      swap2\n      sub\n      swap1\n      log4\n        /* \"https://github.com/OpenZeppelin/openzeppelin-contracts/blob/v4.8.0/contracts/access/AccessControl.sol\":7539:7688  if (!hasRole(role, account)) {... */\n    tag_122:\n        /* \"https://github.com/OpenZeppelin/openzeppelin-contracts/blob/v4.8.0/contracts/access/AccessControl.sol\":7461:7694  function _grantRole(bytes32 role, address account) internal virtual {... */\n      pop\n      pop\n      jump\t// out\n        /* \"https://github.com/OpenZeppelin/openzeppelin-contracts/blob/v4.8.0/contracts/utils/Context.sol\":640:736  function _msgSender() internal view virtual returns (address) {... */\n    tag_90:\n        /* \"https://github.com/OpenZeppelin/openzeppelin-contracts/blob/v4.8.0/contracts/utils/Context.sol\":693:700  address */\n      0x00\n        /* \"https://github.com/OpenZeppelin/openzeppelin-contracts/blob/v4.8.0/contracts/utils/Context.sol\":719:729  msg.sender */\n      caller\n        /* \"https://github.com/OpenZeppelin/openzeppelin-contracts/blob/v4.8.0/contracts/utils/Context.sol\":712:729  return msg.sender */\n      swap1\n      pop\n        /* \"https://github.com/OpenZeppelin/openzeppelin-contracts/blob/v4.8.0/contracts/utils/Context.sol\":640:736  function _msgSender() internal view virtual returns (address) {... */\n      swap1\n      jump\t// out\n        /* \"https://github.com/OpenZeppelin/openzeppelin-contracts/blob/v4.8.0/contracts/access/AccessControl.sol\":7865:8099  function _revokeRole(bytes32 role, address account) internal virtual {... */\n    tag_95:\n        /* \"https://github.com/OpenZeppelin/openzeppelin-contracts/blob/v4.8.0/contracts/access/AccessControl.sol\":7948:7970  hasRole(role, account) */\n      tag_126\n        /* \"https://github.com/OpenZeppelin/openzeppelin-contracts/blob/v4.8.0/contracts/access/AccessControl.sol\":7956:7960  role */\n      dup3\n        /* \"https://github.com/OpenZeppelin/openzeppelin-contracts/blob/v4.8.0/contracts/access/AccessControl.sol\":7962:7969  account */\n      dup3\n        /* \"https://github.com/OpenZeppelin/openzeppelin-contracts/blob/v4.8.0/contracts/access/AccessControl.sol\":7948:7955  hasRole */\n      tag_49\n        /* \"https://github.com/OpenZeppelin/openzeppelin-contracts/blob/v4.8.0/contracts/access/AccessControl.sol\":7948:7970  hasRole(role, account) */\n      jump\t// in\n    tag_126:\n        /* \"https://github.com/OpenZeppelin/openzeppelin-contracts/blob/v4.8.0/contracts/access/AccessControl.sol\":7944:8093  if (hasRole(role, account)) {... */\n      iszero\n      tag_127\n      jumpi\n        /* \"https://github.com/OpenZeppelin/openzeppelin-contracts/blob/v4.8.0/contracts/access/AccessControl.sol\":8018:8023  false */\n      0x00\n        /* \"https://github.com/OpenZeppelin/openzeppelin-contracts/blob/v4.8.0/contracts/access/AccessControl.sol\":7986:7992  _roles */\n      dup1\n        /* \"https://github.com/OpenZeppelin/openzeppelin-contracts/blob/v4.8.0/contracts/access/AccessControl.sol\":7986:7998  _roles[role] */\n      0x00\n        /* \"https://github.com/OpenZeppelin/openzeppelin-contracts/blob/v4.8.0/contracts/access/AccessControl.sol\":7993:7997  role */\n      dup5\n        /* \"https://github.com/OpenZeppelin/openzeppelin-contracts/blob/v4.8.0/contracts/access/AccessControl.sol\":7986:7998  _roles[role] */\n      dup2\n      mstore\n      0x20\n      add\n      swap1\n      dup2\n      mstore\n      0x20\n      add\n      0x00\n      keccak256\n        /* \"https://github.com/OpenZeppelin/openzeppelin-contracts/blob/v4.8.0/contracts/access/AccessControl.sol\":7986:8006  _roles[role].members */\n      0x00\n      add\n        /* \"https://github.com/OpenZeppelin/openzeppelin-contracts/blob/v4.8.0/contracts/access/AccessControl.sol\":7986:8015  _roles[role].members[account] */\n      0x00\n        /* \"https://github.com/OpenZeppelin/openzeppelin-contracts/blob/v4.8.0/contracts/access/AccessControl.sol\":8007:8014  account */\n      dup4\n        /* \"https://github.com/OpenZeppelin/openzeppelin-contracts/blob/v4.8.0/contracts/access/AccessControl.sol\":7986:8015  _roles[role].members[account] */\n      0xffffffffffffffffffffffffffffffffffffffff\n      and\n      0xffffffffffffffffffffffffffffffffffffffff\n      and\n      dup2\n      mstore\n      0x20\n      add\n      swap1\n      dup2\n      mstore\n      0x20\n      add\n      0x00\n      keccak256\n      0x00\n        /* \"https://github.com/OpenZeppelin/openzeppelin-contracts/blob/v4.8.0/contracts/access/AccessControl.sol\":7986:8023  _roles[role].members[account] = false */\n      0x0100\n      exp\n      dup2\n      sload\n      dup2\n      0xff\n      mul\n      not\n      and\n      swap1\n      dup4\n      iszero\n      iszero\n      mul\n      or\n      swap1\n      sstore\n      pop\n        /* \"https://github.com/OpenZeppelin/openzeppelin-contracts/blob/v4.8.0/contracts/access/AccessControl.sol\":8069:8081  _msgSender() */\n      tag_128\n        /* \"https://github.com/OpenZeppelin/openzeppelin-contracts/blob/v4.8.0/contracts/access/AccessControl.sol\":8069:8079  _msgSender */\n      tag_90\n        /* \"https://github.com/OpenZeppelin/openzeppelin-contracts/blob/v4.8.0/contracts/access/AccessControl.sol\":8069:8081  _msgSender() */\n      jump\t// in\n    tag_128:\n        /* \"https://github.com/OpenZeppelin/openzeppelin-contracts/blob/v4.8.0/contracts/access/AccessControl.sol\":8042:8082  RoleRevoked(role, account, _msgSender()) */\n      0xffffffffffffffffffffffffffffffffffffffff\n      and\n        /* \"https://github.com/OpenZeppelin/openzeppelin-contracts/blob/v4.8.0/contracts/access/AccessControl.sol\":8060:8067  account */\n      dup2\n        /* \"https://github.com/OpenZeppelin/openzeppelin-contracts/blob/v4.8.0/contracts/access/AccessControl.sol\":8042:8082  RoleRevoked(role, account, _msgSender()) */\n      0xffffffffffffffffffffffffffffffffffffffff\n      and\n        /* \"https://github.com/OpenZeppelin/openzeppelin-contracts/blob/v4.8.0/contracts/access/AccessControl.sol\":8054:8058  role */\n      dup4\n        /* \"https://github.com/OpenZeppelin/openzeppelin-contracts/blob/v4.8.0/contracts/access/AccessControl.sol\":8042:8082  RoleRevoked(role, account, _msgSender()) */\n      0xf6391f5c32d9c69d2a47ea670b442974b53935d1edc7fd64eb21e047a839171b\n      mload(0x40)\n      mload(0x40)\n      dup1\n      swap2\n      sub\n      swap1\n      log4\n        /* \"https://github.com/OpenZeppelin/openzeppelin-contracts/blob/v4.8.0/contracts/access/AccessControl.sol\":7944:8093  if (hasRole(role, account)) {... */\n    tag_127:\n        /* \"https://github.com/OpenZeppelin/openzeppelin-contracts/blob/v4.8.0/contracts/access/AccessControl.sol\":7865:8099  function _revokeRole(bytes32 role, address account) internal virtual {... */\n      pop\n      pop\n      jump\t// out\n        /* \"https://github.com/OpenZeppelin/openzeppelin-contracts/blob/v4.8.0/contracts/access/AccessControl.sol\":3718:4197  function _checkRole(bytes32 role, address account) internal view virtual {... */\n    tag_119:\n        /* \"https://github.com/OpenZeppelin/openzeppelin-contracts/blob/v4.8.0/contracts/access/AccessControl.sol\":3806:3828  hasRole(role, account) */\n      tag_130\n        /* \"https://github.com/OpenZeppelin/openzeppelin-contracts/blob/v4.8.0/contracts/access/AccessControl.sol\":3814:3818  role */\n      dup3\n        /* \"https://github.com/OpenZeppelin/openzeppelin-contracts/blob/v4.8.0/contracts/access/AccessControl.sol\":3820:3827  account */\n      dup3\n        /* \"https://github.com/OpenZeppelin/openzeppelin-contracts/blob/v4.8.0/contracts/access/AccessControl.sol\":3806:3813  hasRole */\n      tag_49\n        /* \"https://github.com/OpenZeppelin/openzeppelin-contracts/blob/v4.8.0/contracts/access/AccessControl.sol\":3806:3828  hasRole(role, account) */\n      jump\t// in\n    tag_130:\n        /* \"https://github.com/OpenZeppelin/openzeppelin-contracts/blob/v4.8.0/contracts/access/AccessControl.sol\":3801:4191  if (!hasRole(role, account)) {... */\n      tag_131\n      jumpi\n        /* \"https://github.com/OpenZeppelin/openzeppelin-contracts/blob/v4.8.0/contracts/access/AccessControl.sol\":3989:4017  Strings.toHexString(account) */\n      tag_132\n        /* \"https://github.com/OpenZeppelin/openzeppelin-contracts/blob/v4.8.0/contracts/access/AccessControl.sol\":4009:4016  account */\n      dup2\n        /* \"https://github.com/OpenZeppelin/openzeppelin-contracts/blob/v4.8.0/contracts/access/AccessControl.sol\":3989:4008  Strings.toHexString */\n      tag_133\n        /* \"https://github.com/OpenZeppelin/openzeppelin-contracts/blob/v4.8.0/contracts/access/AccessControl.sol\":3989:4017  Strings.toHexString(account) */\n      jump\t// in\n    tag_132:\n        /* \"https://github.com/OpenZeppelin/openzeppelin-contracts/blob/v4.8.0/contracts/access/AccessControl.sol\":4088:4126  Strings.toHexString(uint256(role), 32) */\n      tag_134\n        /* \"https://github.com/OpenZeppelin/openzeppelin-contracts/blob/v4.8.0/contracts/access/AccessControl.sol\":4116:4120  role */\n      dup4\n        /* \"https://github.com/OpenZeppelin/openzeppelin-contracts/blob/v4.8.0/contracts/access/AccessControl.sol\":4108:4121  uint256(role) */\n      0x00\n      shr\n        /* \"https://github.com/OpenZeppelin/openzeppelin-contracts/blob/v4.8.0/contracts/access/AccessControl.sol\":4123:4125  32 */\n      0x20\n        /* \"https://github.com/OpenZeppelin/openzeppelin-contracts/blob/v4.8.0/contracts/access/AccessControl.sol\":4088:4107  Strings.toHexString */\n      tag_135\n        /* \"https://github.com/OpenZeppelin/openzeppelin-contracts/blob/v4.8.0/contracts/access/AccessControl.sol\":4088:4126  Strings.toHexString(uint256(role), 32) */\n      jump\t// in\n    tag_134:\n        /* \"https://github.com/OpenZeppelin/openzeppelin-contracts/blob/v4.8.0/contracts/access/AccessControl.sol\":3896:4148  abi.encodePacked(... */\n      add(0x20, mload(0x40))\n      tag_136\n      swap3\n      swap2\n      swap1\n      tag_137\n      jump\t// in\n    tag_136:\n      mload(0x40)\n      0x20\n      dup2\n      dup4\n      sub\n      sub\n      dup2\n      mstore\n      swap1\n      0x40\n      mstore\n        /* \"https://github.com/OpenZeppelin/openzeppelin-contracts/blob/v4.8.0/contracts/access/AccessControl.sol\":3844:4180  revert(... */\n      mload(0x40)\n      0x08c379a000000000000000000000000000000000000000000000000000000000\n      dup2\n      mstore\n      0x04\n      add\n      tag_138\n      swap2\n      swap1\n      tag_139\n      jump\t// in\n    tag_138:\n      mload(0x40)\n      dup1\n      swap2\n      sub\n      swap1\n      revert\n        /* \"https://github.com/OpenZeppelin/openzeppelin-contracts/blob/v4.8.0/contracts/access/AccessControl.sol\":3801:4191  if (!hasRole(role, account)) {... */\n    tag_131:\n        /* \"https://github.com/OpenZeppelin/openzeppelin-contracts/blob/v4.8.0/contracts/access/AccessControl.sol\":3718:4197  function _checkRole(bytes32 role, address account) internal view virtual {... */\n      pop\n      pop\n      jump\t// out\n        /* \"https://github.com/OpenZeppelin/openzeppelin-contracts/blob/v4.8.0/contracts/utils/Strings.sol\":2102:2251  function toHexString(address addr) internal pure returns (string memory) {... */\n    tag_133:\n        /* \"https://github.com/OpenZeppelin/openzeppelin-contracts/blob/v4.8.0/contracts/utils/Strings.sol\":2160:2173  string memory */\n      0x60\n        /* \"https://github.com/OpenZeppelin/openzeppelin-contracts/blob/v4.8.0/contracts/utils/Strings.sol\":2192:2244  toHexString(uint256(uint160(addr)), _ADDRESS_LENGTH) */\n      tag_141\n        /* \"https://github.com/OpenZeppelin/openzeppelin-contracts/blob/v4.8.0/contracts/utils/Strings.sol\":2220:2224  addr */\n      dup3\n        /* \"https://github.com/OpenZeppelin/openzeppelin-contracts/blob/v4.8.0/contracts/utils/Strings.sol\":2204:2226  uint256(uint160(addr)) */\n      0xffffffffffffffffffffffffffffffffffffffff\n      and\n        /* \"https://github.com/OpenZeppelin/openzeppelin-contracts/blob/v4.8.0/contracts/utils/Strings.sol\":311:313  20 */\n      0x14\n        /* \"https://github.com/OpenZeppelin/openzeppelin-contracts/blob/v4.8.0/contracts/utils/Strings.sol\":2192:2244  toHexString(uint256(uint160(addr)), _ADDRESS_LENGTH) */\n      0xff\n      and\n        /* \"https://github.com/OpenZeppelin/openzeppelin-contracts/blob/v4.8.0/contracts/utils/Strings.sol\":2192:2203  toHexString */\n      tag_135\n        /* \"https://github.com/OpenZeppelin/openzeppelin-contracts/blob/v4.8.0/contracts/utils/Strings.sol\":2192:2244  toHexString(uint256(uint160(addr)), _ADDRESS_LENGTH) */\n      jump\t// in\n    tag_141:\n        /* \"https://github.com/OpenZeppelin/openzeppelin-contracts/blob/v4.8.0/contracts/utils/Strings.sol\":2185:2244  return toHexString(uint256(uint160(addr)), _ADDRESS_LENGTH) */\n      swap1\n      pop\n        /* \"https://github.com/OpenZeppelin/openzeppelin-contracts/blob/v4.8.0/contracts/utils/Strings.sol\":2102:2251  function toHexString(address addr) internal pure returns (string memory) {... */\n      swap2\n      swap1\n      pop\n      jump\t// out\n        /* \"https://github.com/OpenZeppelin/openzeppelin-contracts/blob/v4.8.0/contracts/utils/Strings.sol\":1513:1950  function toHexString(uint256 value, uint256 length) internal pure returns (string memory) {... */\n    tag_135:\n        /* \"https://github.com/OpenZeppelin/openzeppelin-contracts/blob/v4.8.0/contracts/utils/Strings.sol\":1588:1601  string memory */\n      0x60\n        /* \"https://github.com/OpenZeppelin/openzeppelin-contracts/blob/v4.8.0/contracts/utils/Strings.sol\":1613:1632  bytes memory buffer */\n      0x00\n        /* \"https://github.com/OpenZeppelin/openzeppelin-contracts/blob/v4.8.0/contracts/utils/Strings.sol\":1658:1659  2 */\n      0x02\n        /* \"https://github.com/OpenZeppelin/openzeppelin-contracts/blob/v4.8.0/contracts/utils/Strings.sol\":1649:1655  length */\n      dup4\n        /* \"https://github.com/OpenZeppelin/openzeppelin-contracts/blob/v4.8.0/contracts/utils/Strings.sol\":1645:1646  2 */\n      0x02\n        /* \"https://github.com/OpenZeppelin/openzeppelin-contracts/blob/v4.8.0/contracts/utils/Strings.sol\":1645:1655  2 * length */\n      tag_143\n      swap2\n      swap1\n      tag_144\n      jump\t// in\n    tag_143:\n        /* \"https://github.com/OpenZeppelin/openzeppelin-contracts/blob/v4.8.0/contracts/utils/Strings.sol\":1645:1659  2 * length + 2 */\n      tag_145\n      swap2\n      swap1\n      tag_146\n      jump\t// in\n    tag_145:\n        /* \"https://github.com/OpenZeppelin/openzeppelin-contracts/blob/v4.8.0/contracts/utils/Strings.sol\":1635:1660  new bytes(2 * length + 2) */\n      0xffffffffffffffff\n      dup2\n      gt\n      iszero\n      tag_147\n      jumpi\n      tag_148\n      tag_149\n      jump\t// in\n    tag_148:\n    tag_147:\n      mload(0x40)\n      swap1\n      dup1\n      dup3\n      mstore\n      dup1\n      0x1f\n      add\n      not(0x1f)\n      and\n      0x20\n      add\n      dup3\n      add\n      0x40\n      mstore\n      dup1\n      iszero\n      tag_150\n      jumpi\n      dup2\n      0x20\n      add\n      0x01\n      dup3\n      mul\n      dup1\n      calldatasize\n      dup4\n      calldatacopy\n      dup1\n      dup3\n      add\n      swap2\n      pop\n      pop\n      swap1\n      pop\n    tag_150:\n      pop\n        /* \"https://github.com/OpenZeppelin/openzeppelin-contracts/blob/v4.8.0/contracts/utils/Strings.sol\":1613:1660  bytes memory buffer = new bytes(2 * length + 2) */\n      swap1\n      pop\n        /* \"https://github.com/OpenZeppelin/openzeppelin-contracts/blob/v4.8.0/contracts/utils/Strings.sol\":1670:1685  buffer[0] = \"0\" */\n      0x3000000000000000000000000000000000000000000000000000000000000000\n        /* \"https://github.com/OpenZeppelin/openzeppelin-contracts/blob/v4.8.0/contracts/utils/Strings.sol\":1670:1676  buffer */\n      dup2\n        /* \"https://github.com/OpenZeppelin/openzeppelin-contracts/blob/v4.8.0/contracts/utils/Strings.sol\":1677:1678  0 */\n      0x00\n        /* \"https://github.com/OpenZeppelin/openzeppelin-contracts/blob/v4.8.0/contracts/utils/Strings.sol\":1670:1679  buffer[0] */\n      dup2\n      mload\n      dup2\n      lt\n      tag_151\n      jumpi\n      tag_152\n      tag_153\n      jump\t// in\n    tag_152:\n    tag_151:\n      0x20\n      add\n      add\n        /* \"https://github.com/OpenZeppelin/openzeppelin-contracts/blob/v4.8.0/contracts/utils/Strings.sol\":1670:1685  buffer[0] = \"0\" */\n      swap1\n      not(0xffffffffffffffffffffffffffffffffffffffffffffffffffffffffffffff)\n      and\n      swap1\n      dup2\n      0x00\n      byte\n      swap1\n      mstore8\n      pop\n        /* \"https://github.com/OpenZeppelin/openzeppelin-contracts/blob/v4.8.0/contracts/utils/Strings.sol\":1695:1710  buffer[1] = \"x\" */\n      0x7800000000000000000000000000000000000000000000000000000000000000\n        /* \"https://github.com/OpenZeppelin/openzeppelin-contracts/blob/v4.8.0/contracts/utils/Strings.sol\":1695:1701  buffer */\n      dup2\n        /* \"https://github.com/OpenZeppelin/openzeppelin-contracts/blob/v4.8.0/contracts/utils/Strings.sol\":1702:1703  1 */\n      0x01\n        /* \"https://github.com/OpenZeppelin/openzeppelin-contracts/blob/v4.8.0/contracts/utils/Strings.sol\":1695:1704  buffer[1] */\n      dup2\n      mload\n      dup2\n      lt\n      tag_154\n      jumpi\n      tag_155\n      tag_153\n      jump\t// in\n    tag_155:\n    tag_154:\n      0x20\n      add\n      add\n        /* \"https://github.com/OpenZeppelin/openzeppelin-contracts/blob/v4.8.0/contracts/utils/Strings.sol\":1695:1710  buffer[1] = \"x\" */\n      swap1\n      not(0xffffffffffffffffffffffffffffffffffffffffffffffffffffffffffffff)\n      and\n      swap1\n      dup2\n      0x00\n      byte\n      swap1\n      mstore8\n      pop\n        /* \"https://github.com/OpenZeppelin/openzeppelin-contracts/blob/v4.8.0/contracts/utils/Strings.sol\":1725:1734  uint256 i */\n      0x00\n        /* \"https://github.com/OpenZeppelin/openzeppelin-contracts/blob/v4.8.0/contracts/utils/Strings.sol\":1750:1751  1 */\n      0x01\n        /* \"https://github.com/OpenZeppelin/openzeppelin-contracts/blob/v4.8.0/contracts/utils/Strings.sol\":1741:1747  length */\n      dup5\n        /* \"https://github.com/OpenZeppelin/openzeppelin-contracts/blob/v4.8.0/contracts/utils/Strings.sol\":1737:1738  2 */\n      0x02\n        /* \"https://github.com/OpenZeppelin/openzeppelin-contracts/blob/v4.8.0/contracts/utils/Strings.sol\":1737:1747  2 * length */\n      tag_159\n      swap2\n      swap1\n      tag_144\n      jump\t// in\n    tag_159:\n        /* \"https://github.com/OpenZeppelin/openzeppelin-contracts/blob/v4.8.0/contracts/utils/Strings.sol\":1737:1751  2 * length + 1 */\n      tag_160\n      swap2\n      swap1\n      tag_146\n      jump\t// in\n    tag_160:\n        /* \"https://github.com/OpenZeppelin/openzeppelin-contracts/blob/v4.8.0/contracts/utils/Strings.sol\":1725:1751  uint256 i = 2 * length + 1 */\n      swap1\n      pop\n        /* \"https://github.com/OpenZeppelin/openzeppelin-contracts/blob/v4.8.0/contracts/utils/Strings.sol\":1720:1848  for (uint256 i = 2 * length + 1; i > 1; --i) {... */\n    tag_156:\n        /* \"https://github.com/OpenZeppelin/openzeppelin-contracts/blob/v4.8.0/contracts/utils/Strings.sol\":1757:1758  1 */\n      0x01\n        /* \"https://github.com/OpenZeppelin/openzeppelin-contracts/blob/v4.8.0/contracts/utils/Strings.sol\":1753:1754  i */\n      dup2\n        /* \"https://github.com/OpenZeppelin/openzeppelin-contracts/blob/v4.8.0/contracts/utils/Strings.sol\":1753:1758  i > 1 */\n      gt\n        /* \"https://github.com/OpenZeppelin/openzeppelin-contracts/blob/v4.8.0/contracts/utils/Strings.sol\":1720:1848  for (uint256 i = 2 * length + 1; i > 1; --i) {... */\n      iszero\n      tag_157\n      jumpi\n        /* \"https://github.com/OpenZeppelin/openzeppelin-contracts/blob/v4.8.0/contracts/utils/Strings.sol\":1791:1799  _SYMBOLS */\n      0x3031323334353637383961626364656600000000000000000000000000000000\n        /* \"https://github.com/OpenZeppelin/openzeppelin-contracts/blob/v4.8.0/contracts/utils/Strings.sol\":1808:1811  0xf */\n      0x0f\n        /* \"https://github.com/OpenZeppelin/openzeppelin-contracts/blob/v4.8.0/contracts/utils/Strings.sol\":1800:1805  value */\n      dup7\n        /* \"https://github.com/OpenZeppelin/openzeppelin-contracts/blob/v4.8.0/contracts/utils/Strings.sol\":1800:1811  value & 0xf */\n      and\n        /* \"https://github.com/OpenZeppelin/openzeppelin-contracts/blob/v4.8.0/contracts/utils/Strings.sol\":1791:1812  _SYMBOLS[value & 0xf] */\n      0x10\n      dup2\n      lt\n      tag_161\n      jumpi\n      tag_162\n      tag_153\n      jump\t// in\n    tag_162:\n    tag_161:\n      byte\n      0xf8\n      shl\n        /* \"https://github.com/OpenZeppelin/openzeppelin-contracts/blob/v4.8.0/contracts/utils/Strings.sol\":1779:1785  buffer */\n      dup3\n        /* \"https://github.com/OpenZeppelin/openzeppelin-contracts/blob/v4.8.0/contracts/utils/Strings.sol\":1786:1787  i */\n      dup3\n        /* \"https://github.com/OpenZeppelin/openzeppelin-contracts/blob/v4.8.0/contracts/utils/Strings.sol\":1779:1788  buffer[i] */\n      dup2\n      mload\n      dup2\n      lt\n      tag_163\n      jumpi\n      tag_164\n      tag_153\n      jump\t// in\n    tag_164:\n    tag_163:\n      0x20\n      add\n      add\n        /* \"https://github.com/OpenZeppelin/openzeppelin-contracts/blob/v4.8.0/contracts/utils/Strings.sol\":1779:1812  buffer[i] = _SYMBOLS[value & 0xf] */\n      swap1\n      not(0xffffffffffffffffffffffffffffffffffffffffffffffffffffffffffffff)\n      and\n      swap1\n      dup2\n      0x00\n      byte\n      swap1\n      mstore8\n      pop\n        /* \"https://github.com/OpenZeppelin/openzeppelin-contracts/blob/v4.8.0/contracts/utils/Strings.sol\":1836:1837  4 */\n      0x04\n        /* \"https://github.com/OpenZeppelin/openzeppelin-contracts/blob/v4.8.0/contracts/utils/Strings.sol\":1826:1837  value >>= 4 */\n      dup6\n      swap1\n      shr\n      swap5\n      pop\n        /* \"https://github.com/OpenZeppelin/openzeppelin-contracts/blob/v4.8.0/contracts/utils/Strings.sol\":1760:1763  --i */\n      dup1\n      tag_165\n      swap1\n      tag_166\n      jump\t// in\n    tag_165:\n      swap1\n      pop\n        /* \"https://github.com/OpenZeppelin/openzeppelin-contracts/blob/v4.8.0/contracts/utils/Strings.sol\":1720:1848  for (uint256 i = 2 * length + 1; i > 1; --i) {... */\n      jump(tag_156)\n    tag_157:\n      pop\n        /* \"https://github.com/OpenZeppelin/openzeppelin-contracts/blob/v4.8.0/contracts/utils/Strings.sol\":1874:1875  0 */\n      0x00\n        /* \"https://github.com/OpenZeppelin/openzeppelin-contracts/blob/v4.8.0/contracts/utils/Strings.sol\":1865:1870  value */\n      dup5\n        /* \"https://github.com/OpenZeppelin/openzeppelin-contracts/blob/v4.8.0/contracts/utils/Strings.sol\":1865:1875  value == 0 */\n      eq\n        /* \"https://github.com/OpenZeppelin/openzeppelin-contracts/blob/v4.8.0/contracts/utils/Strings.sol\":1857:1912  require(value == 0, \"Strings: hex length insufficient\") */\n      tag_167\n      jumpi\n      mload(0x40)\n      0x08c379a000000000000000000000000000000000000000000000000000000000\n      dup2\n      mstore\n      0x04\n      add\n      tag_168\n      swap1\n      tag_169\n      jump\t// in\n    tag_168:\n      mload(0x40)\n      dup1\n      swap2\n      sub\n      swap1\n      revert\n    tag_167:\n        /* \"https://github.com/OpenZeppelin/openzeppelin-contracts/blob/v4.8.0/contracts/utils/Strings.sol\":1936:1942  buffer */\n      dup1\n        /* \"https://github.com/OpenZeppelin/openzeppelin-contracts/blob/v4.8.0/contracts/utils/Strings.sol\":1922:1943  return string(buffer) */\n      swap2\n      pop\n      pop\n        /* \"https://github.com/OpenZeppelin/openzeppelin-contracts/blob/v4.8.0/contracts/utils/Strings.sol\":1513:1950  function toHexString(uint256 value, uint256 length) internal pure returns (string memory) {... */\n      swap3\n      swap2\n      pop\n      pop\n      jump\t// out\n        /* \"#utility.yul\":88:205   */\n    tag_171:\n        /* \"#utility.yul\":197:198   */\n      0x00\n        /* \"#utility.yul\":194:195   */\n      dup1\n        /* \"#utility.yul\":187:199   */\n      revert\n        /* \"#utility.yul\":334:483   */\n    tag_173:\n        /* \"#utility.yul\":370:377   */\n      0x00\n        /* \"#utility.yul\":410:476   */\n      0xffffffff00000000000000000000000000000000000000000000000000000000\n        /* \"#utility.yul\":403:408   */\n      dup3\n        /* \"#utility.yul\":399:477   */\n      and\n        /* \"#utility.yul\":388:477   */\n      swap1\n      pop\n        /* \"#utility.yul\":334:483   */\n      swap2\n      swap1\n      pop\n      jump\t// out\n        /* \"#utility.yul\":489:609   */\n    tag_174:\n        /* \"#utility.yul\":561:584   */\n      tag_211\n        /* \"#utility.yul\":578:583   */\n      dup2\n        /* \"#utility.yul\":561:584   */\n      tag_173\n      jump\t// in\n    tag_211:\n        /* \"#utility.yul\":554:559   */\n      dup2\n        /* \"#utility.yul\":551:585   */\n      eq\n        /* \"#utility.yul\":541:603   */\n      tag_212\n      jumpi\n        /* \"#utility.yul\":599:600   */\n      0x00\n        /* \"#utility.yul\":596:597   */\n      dup1\n        /* \"#utility.yul\":589:601   */\n      revert\n        /* \"#utility.yul\":541:603   */\n    tag_212:\n        /* \"#utility.yul\":489:609   */\n      pop\n      jump\t// out\n        /* \"#utility.yul\":615:752   */\n    tag_175:\n        /* \"#utility.yul\":660:665   */\n      0x00\n        /* \"#utility.yul\":698:704   */\n      dup2\n        /* \"#utility.yul\":685:705   */\n      calldataload\n        /* \"#utility.yul\":676:705   */\n      swap1\n      pop\n        /* \"#utility.yul\":714:746   */\n      tag_214\n        /* \"#utility.yul\":740:745   */\n      dup2\n        /* \"#utility.yul\":714:746   */\n      tag_174\n      jump\t// in\n    tag_214:\n        /* \"#utility.yul\":615:752   */\n      swap3\n      swap2\n      pop\n      pop\n      jump\t// out\n        /* \"#utility.yul\":758:1085   */\n    tag_23:\n        /* \"#utility.yul\":816:822   */\n      0x00\n        /* \"#utility.yul\":865:867   */\n      0x20\n        /* \"#utility.yul\":853:862   */\n      dup3\n        /* \"#utility.yul\":844:851   */\n      dup5\n        /* \"#utility.yul\":840:863   */\n      sub\n        /* \"#utility.yul\":836:868   */\n      slt\n        /* \"#utility.yul\":833:952   */\n      iszero\n      tag_216\n      jumpi\n        /* \"#utility.yul\":871:950   */\n      tag_217\n      tag_171\n      jump\t// in\n    tag_217:\n        /* \"#utility.yul\":833:952   */\n    tag_216:\n        /* \"#utility.yul\":991:992   */\n      0x00\n        /* \"#utility.yul\":1016:1068   */\n      tag_218\n        /* \"#utility.yul\":1060:1067   */\n      dup5\n        /* \"#utility.yul\":1051:1057   */\n      dup3\n        /* \"#utility.yul\":1040:1049   */\n      dup6\n        /* \"#utility.yul\":1036:1058   */\n      add\n        /* \"#utility.yul\":1016:1068   */\n      tag_175\n      jump\t// in\n    tag_218:\n        /* \"#utility.yul\":1006:1068   */\n      swap2\n      pop\n        /* \"#utility.yul\":962:1078   */\n      pop\n        /* \"#utility.yul\":758:1085   */\n      swap3\n      swap2\n      pop\n      pop\n      jump\t// out\n        /* \"#utility.yul\":1091:1181   */\n    tag_176:\n        /* \"#utility.yul\":1125:1132   */\n      0x00\n        /* \"#utility.yul\":1168:1173   */\n      dup2\n        /* \"#utility.yul\":1161:1174   */\n      iszero\n        /* \"#utility.yul\":1154:1175   */\n      iszero\n        /* \"#utility.yul\":1143:1175   */\n      swap1\n      pop\n        /* \"#utility.yul\":1091:1181   */\n      swap2\n      swap1\n      pop\n      jump\t// out\n        /* \"#utility.yul\":1187:1296   */\n    tag_177:\n        /* \"#utility.yul\":1268:1289   */\n      tag_221\n        /* \"#utility.yul\":1283:1288   */\n      dup2\n        /* \"#utility.yul\":1268:1289   */\n      tag_176\n      jump\t// in\n    tag_221:\n        /* \"#utility.yul\":1263:1266   */\n      dup3\n        /* \"#utility.yul\":1256:1290   */\n      mstore\n        /* \"#utility.yul\":1187:1296   */\n      pop\n      pop\n      jump\t// out\n        /* \"#utility.yul\":1302:1512   */\n    tag_26:\n        /* \"#utility.yul\":1389:1393   */\n      0x00\n        /* \"#utility.yul\":1427:1429   */\n      0x20\n        /* \"#utility.yul\":1416:1425   */\n      dup3\n        /* \"#utility.yul\":1412:1430   */\n      add\n        /* \"#utility.yul\":1404:1430   */\n      swap1\n      pop\n        /* \"#utility.yul\":1440:1505   */\n      tag_223\n        /* \"#utility.yul\":1502:1503   */\n      0x00\n        /* \"#utility.yul\":1491:1500   */\n      dup4\n        /* \"#utility.yul\":1487:1504   */\n      add\n        /* \"#utility.yul\":1478:1484   */\n      dup5\n        /* \"#utility.yul\":1440:1505   */\n      tag_177\n      jump\t// in\n    tag_223:\n        /* \"#utility.yul\":1302:1512   */\n      swap3\n      swap2\n      pop\n      pop\n      jump\t// out\n        /* \"#utility.yul\":1518:1595   */\n    tag_178:\n        /* \"#utility.yul\":1555:1562   */\n      0x00\n        /* \"#utility.yul\":1584:1589   */\n      dup2\n        /* \"#utility.yul\":1573:1589   */\n      swap1\n      pop\n        /* \"#utility.yul\":1518:1595   */\n      swap2\n      swap1\n      pop\n      jump\t// out\n        /* \"#utility.yul\":1601:1723   */\n    tag_179:\n        /* \"#utility.yul\":1674:1698   */\n      tag_226\n        /* \"#utility.yul\":1692:1697   */\n      dup2\n        /* \"#utility.yul\":1674:1698   */\n      tag_178\n      jump\t// in\n    tag_226:\n        /* \"#utility.yul\":1667:1672   */\n      dup2\n        /* \"#utility.yul\":1664:1699   */\n      eq\n        /* \"#utility.yul\":1654:1717   */\n      tag_227\n      jumpi\n        /* \"#utility.yul\":1713:1714   */\n      0x00\n        /* \"#utility.yul\":1710:1711   */\n      dup1\n        /* \"#utility.yul\":1703:1715   */\n      revert\n        /* \"#utility.yul\":1654:1717   */\n    tag_227:\n        /* \"#utility.yul\":1601:1723   */\n      pop\n      jump\t// out\n        /* \"#utility.yul\":1729:1868   */\n    tag_180:\n        /* \"#utility.yul\":1775:1780   */\n      0x00\n        /* \"#utility.yul\":1813:1819   */\n      dup2\n        /* \"#utility.yul\":1800:1820   */\n      calldataload\n        /* \"#utility.yul\":1791:1820   */\n      swap1\n      pop\n        /* \"#utility.yul\":1829:1862   */\n      tag_229\n        /* \"#utility.yul\":1856:1861   */\n      dup2\n        /* \"#utility.yul\":1829:1862   */\n      tag_179\n      jump\t// in\n    tag_229:\n        /* \"#utility.yul\":1729:1868   */\n      swap3\n      swap2\n      pop\n      pop\n      jump\t// out\n        /* \"#utility.yul\":1874:2203   */\n    tag_29:\n        /* \"#utility.yul\":1933:1939   */\n      0x00\n        /* \"#utility.yul\":1982:1984   */\n      0x20\n        /* \"#utility.yul\":1970:1979   */\n      dup3\n        /* \"#utility.yul\":1961:1968   */\n      dup5\n        /* \"#utility.yul\":1957:1980   */\n      sub\n        /* \"#utility.yul\":1953:1985   */\n      slt\n        /* \"#utility.yul\":1950:2069   */\n      iszero\n      tag_231\n      jumpi\n        /* \"#utility.yul\":1988:2067   */\n      tag_232\n      tag_171\n      jump\t// in\n    tag_232:\n        /* \"#utility.yul\":1950:2069   */\n    tag_231:\n        /* \"#utility.yul\":2108:2109   */\n      0x00\n        /* \"#utility.yul\":2133:2186   */\n      tag_233\n        /* \"#utility.yul\":2178:2185   */\n      dup5\n        /* \"#utility.yul\":2169:2175   */\n      dup3\n        /* \"#utility.yul\":2158:2167   */\n      dup6\n        /* \"#utility.yul\":2154:2176   */\n      add\n        /* \"#utility.yul\":2133:2186   */\n      tag_180\n      jump\t// in\n    tag_233:\n        /* \"#utility.yul\":2123:2186   */\n      swap2\n      pop\n        /* \"#utility.yul\":2079:2196   */\n      pop\n        /* \"#utility.yul\":1874:2203   */\n      swap3\n      swap2\n      pop\n      pop\n      jump\t// out\n        /* \"#utility.yul\":2209:2327   */\n    tag_181:\n        /* \"#utility.yul\":2296:2320   */\n      tag_235\n        /* \"#utility.yul\":2314:2319   */\n      dup2\n        /* \"#utility.yul\":2296:2320   */\n      tag_178\n      jump\t// in\n    tag_235:\n        /* \"#utility.yul\":2291:2294   */\n      dup3\n        /* \"#utility.yul\":2284:2321   */\n      mstore\n        /* \"#utility.yul\":2209:2327   */\n      pop\n      pop\n      jump\t// out\n        /* \"#utility.yul\":2333:2555   */\n    tag_32:\n        /* \"#utility.yul\":2426:2430   */\n      0x00\n        /* \"#utility.yul\":2464:2466   */\n      0x20\n        /* \"#utility.yul\":2453:2462   */\n      dup3\n        /* \"#utility.yul\":2449:2467   */\n      add\n        /* \"#utility.yul\":2441:2467   */\n      swap1\n      pop\n        /* \"#utility.yul\":2477:2548   */\n      tag_237\n        /* \"#utility.yul\":2545:2546   */\n      0x00\n        /* \"#utility.yul\":2534:2543   */\n      dup4\n        /* \"#utility.yul\":2530:2547   */\n      add\n        /* \"#utility.yul\":2521:2527   */\n      dup5\n        /* \"#utility.yul\":2477:2548   */\n      tag_181\n      jump\t// in\n    tag_237:\n        /* \"#utility.yul\":2333:2555   */\n      swap3\n      swap2\n      pop\n      pop\n      jump\t// out\n        /* \"#utility.yul\":2561:2687   */\n    tag_182:\n        /* \"#utility.yul\":2598:2605   */\n      0x00\n        /* \"#utility.yul\":2638:2680   */\n      0xffffffffffffffffffffffffffffffffffffffff\n        /* \"#utility.yul\":2631:2636   */\n      dup3\n        /* \"#utility.yul\":2627:2681   */\n      and\n        /* \"#utility.yul\":2616:2681   */\n      swap1\n      pop\n        /* \"#utility.yul\":2561:2687   */\n      swap2\n      swap1\n      pop\n      jump\t// out\n        /* \"#utility.yul\":2693:2789   */\n    tag_183:\n        /* \"#utility.yul\":2730:2737   */\n      0x00\n        /* \"#utility.yul\":2759:2783   */\n      tag_240\n        /* \"#utility.yul\":2777:2782   */\n      dup3\n        /* \"#utility.yul\":2759:2783   */\n      tag_182\n      jump\t// in\n    tag_240:\n        /* \"#utility.yul\":2748:2783   */\n      swap1\n      pop\n        /* \"#utility.yul\":2693:2789   */\n      swap2\n      swap1\n      pop\n      jump\t// out\n        /* \"#utility.yul\":2795:2917   */\n    tag_184:\n        /* \"#utility.yul\":2868:2892   */\n      tag_242\n        /* \"#utility.yul\":2886:2891   */\n      dup2\n        /* \"#utility.yul\":2868:2892   */\n      tag_183\n      jump\t// in\n    tag_242:\n        /* \"#utility.yul\":2861:2866   */\n      dup2\n        /* \"#utility.yul\":2858:2893   */\n      eq\n        /* \"#utility.yul\":2848:2911   */\n      tag_243\n      jumpi\n        /* \"#utility.yul\":2907:2908   */\n      0x00\n        /* \"#utility.yul\":2904:2905   */\n      dup1\n        /* \"#utility.yul\":2897:2909   */\n      revert\n        /* \"#utility.yul\":2848:2911   */\n    tag_243:\n        /* \"#utility.yul\":2795:2917   */\n      pop\n      jump\t// out\n        /* \"#utility.yul\":2923:3062   */\n    tag_185:\n        /* \"#utility.yul\":2969:2974   */\n      0x00\n        /* \"#utility.yul\":3007:3013   */\n      dup2\n        /* \"#utility.yul\":2994:3014   */\n      calldataload\n        /* \"#utility.yul\":2985:3014   */\n      swap1\n      pop\n        /* \"#utility.yul\":3023:3056   */\n      tag_245\n        /* \"#utility.yul\":3050:3055   */\n      dup2\n        /* \"#utility.yul\":3023:3056   */\n      tag_184\n      jump\t// in\n    tag_245:\n        /* \"#utility.yul\":2923:3062   */\n      swap3\n      swap2\n      pop\n      pop\n      jump\t// out\n        /* \"#utility.yul\":3068:3542   */\n    tag_35:\n        /* \"#utility.yul\":3136:3142   */\n      0x00\n        /* \"#utility.yul\":3144:3150   */\n      dup1\n        /* \"#utility.yul\":3193:3195   */\n      0x40\n        /* \"#utility.yul\":3181:3190   */\n      dup4\n        /* \"#utility.yul\":3172:3179   */\n      dup6\n        /* \"#utility.yul\":3168:3191   */\n      sub\n        /* \"#utility.yul\":3164:3196   */\n      slt\n        /* \"#utility.yul\":3161:3280   */\n      iszero\n      tag_247\n      jumpi\n        /* \"#utility.yul\":3199:3278   */\n      tag_248\n      tag_171\n      jump\t// in\n    tag_248:\n        /* \"#utility.yul\":3161:3280   */\n    tag_247:\n        /* \"#utility.yul\":3319:3320   */\n      0x00\n        /* \"#utility.yul\":3344:3397   */\n      tag_249\n        /* \"#utility.yul\":3389:3396   */\n      dup6\n        /* \"#utility.yul\":3380:3386   */\n      dup3\n        /* \"#utility.yul\":3369:3378   */\n      dup7\n        /* \"#utility.yul\":3365:3387   */\n      add\n        /* \"#utility.yul\":3344:3397   */\n      tag_180\n      jump\t// in\n    tag_249:\n        /* \"#utility.yul\":3334:3397   */\n      swap3\n      pop\n        /* \"#utility.yul\":3290:3407   */\n      pop\n        /* \"#utility.yul\":3446:3448   */\n      0x20\n        /* \"#utility.yul\":3472:3525   */\n      tag_250\n        /* \"#utility.yul\":3517:3524   */\n      dup6\n        /* \"#utility.yul\":3508:3514   */\n      dup3\n        /* \"#utility.yul\":3497:3506   */\n      dup7\n        /* \"#utility.yul\":3493:3515   */\n      add\n        /* \"#utility.yul\":3472:3525   */\n      tag_185\n      jump\t// in\n    tag_250:\n        /* \"#utility.yul\":3462:3525   */\n      swap2\n      pop\n        /* \"#utility.yul\":3417:3535   */\n      pop\n        /* \"#utility.yul\":3068:3542   */\n      swap3\n      pop\n      swap3\n      swap1\n      pop\n      jump\t// out\n        /* \"#utility.yul\":3548:3625   */\n    tag_186:\n        /* \"#utility.yul\":3585:3592   */\n      0x00\n        /* \"#utility.yul\":3614:3619   */\n      dup2\n        /* \"#utility.yul\":3603:3619   */\n      swap1\n      pop\n        /* \"#utility.yul\":3548:3625   */\n      swap2\n      swap1\n      pop\n      jump\t// out\n        /* \"#utility.yul\":3631:3753   */\n    tag_187:\n        /* \"#utility.yul\":3704:3728   */\n      tag_253\n        /* \"#utility.yul\":3722:3727   */\n      dup2\n        /* \"#utility.yul\":3704:3728   */\n      tag_186\n      jump\t// in\n    tag_253:\n        /* \"#utility.yul\":3697:3702   */\n      dup2\n        /* \"#utility.yul\":3694:3729   */\n      eq\n        /* \"#utility.yul\":3684:3747   */\n      tag_254\n      jumpi\n        /* \"#utility.yul\":3743:3744   */\n      0x00\n        /* \"#utility.yul\":3740:3741   */\n      dup1\n        /* \"#utility.yul\":3733:3745   */\n      revert\n        /* \"#utility.yul\":3684:3747   */\n    tag_254:\n        /* \"#utility.yul\":3631:3753   */\n      pop\n      jump\t// out\n        /* \"#utility.yul\":3759:3898   */\n    tag_188:\n        /* \"#utility.yul\":3805:3810   */\n      0x00\n        /* \"#utility.yul\":3843:3849   */\n      dup2\n        /* \"#utility.yul\":3830:3850   */\n      calldataload\n        /* \"#utility.yul\":3821:3850   */\n      swap1\n      pop\n        /* \"#utility.yul\":3859:3892   */\n      tag_256\n        /* \"#utility.yul\":3886:3891   */\n      dup2\n        /* \"#utility.yul\":3859:3892   */\n      tag_187\n      jump\t// in\n    tag_256:\n        /* \"#utility.yul\":3759:3898   */\n      swap3\n      swap2\n      pop\n      pop\n      jump\t// out\n        /* \"#utility.yul\":3904:4378   */\n    tag_42:\n        /* \"#utility.yul\":3972:3978   */\n      0x00\n        /* \"#utility.yul\":3980:3986   */\n      dup1\n        /* \"#utility.yul\":4029:4031   */\n      0x40\n        /* \"#utility.yul\":4017:4026   */\n      dup4\n        /* \"#utility.yul\":4008:4015   */\n      dup6\n        /* \"#utility.yul\":4004:4027   */\n      sub\n        /* \"#utility.yul\":4000:4032   */\n      slt\n        /* \"#utility.yul\":3997:4116   */\n      iszero\n      tag_258\n      jumpi\n        /* \"#utility.yul\":4035:4114   */\n      tag_259\n      tag_171\n      jump\t// in\n    tag_259:\n        /* \"#utility.yul\":3997:4116   */\n    tag_258:\n        /* \"#utility.yul\":4155:4156   */\n      0x00\n        /* \"#utility.yul\":4180:4233   */\n      tag_260\n        /* \"#utility.yul\":4225:4232   */\n      dup6\n        /* \"#utility.yul\":4216:4222   */\n      dup3\n        /* \"#utility.yul\":4205:4214   */\n      dup7\n        /* \"#utility.yul\":4201:4223   */\n      add\n        /* \"#utility.yul\":4180:4233   */\n      tag_188\n      jump\t// in\n    tag_260:\n        /* \"#utility.yul\":4170:4233   */\n      swap3\n      pop\n        /* \"#utility.yul\":4126:4243   */\n      pop\n        /* \"#utility.yul\":4282:4284   */\n      0x20\n        /* \"#utility.yul\":4308:4361   */\n      tag_261\n        /* \"#utility.yul\":4353:4360   */\n      dup6\n        /* \"#utility.yul\":4344:4350   */\n      dup3\n        /* \"#utility.yul\":4333:4342   */\n      dup7\n        /* \"#utility.yul\":4329:4351   */\n      add\n        /* \"#utility.yul\":4308:4361   */\n      tag_188\n      jump\t// in\n    tag_261:\n        /* \"#utility.yul\":4298:4361   */\n      swap2\n      pop\n        /* \"#utility.yul\":4253:4371   */\n      pop\n        /* \"#utility.yul\":3904:4378   */\n      swap3\n      pop\n      swap3\n      swap1\n      pop\n      jump\t// out\n        /* \"#utility.yul\":4384:4713   */\n    tag_53:\n        /* \"#utility.yul\":4443:4449   */\n      0x00\n        /* \"#utility.yul\":4492:4494   */\n      0x20\n        /* \"#utility.yul\":4480:4489   */\n      dup3\n        /* \"#utility.yul\":4471:4478   */\n      dup5\n        /* \"#utility.yul\":4467:4490   */\n      sub\n        /* \"#utility.yul\":4463:4495   */\n      slt\n        /* \"#utility.yul\":4460:4579   */\n      iszero\n      tag_263\n      jumpi\n        /* \"#utility.yul\":4498:4577   */\n      tag_264\n      tag_171\n      jump\t// in\n    tag_264:\n        /* \"#utility.yul\":4460:4579   */\n    tag_263:\n        /* \"#utility.yul\":4618:4619   */\n      0x00\n        /* \"#utility.yul\":4643:4696   */\n      tag_265\n        /* \"#utility.yul\":4688:4695   */\n      dup5\n        /* \"#utility.yul\":4679:4685   */\n      dup3\n        /* \"#utility.yul\":4668:4677   */\n      dup6\n        /* \"#utility.yul\":4664:4686   */\n      add\n        /* \"#utility.yul\":4643:4696   */\n      tag_185\n      jump\t// in\n    tag_265:\n        /* \"#utility.yul\":4633:4696   */\n      swap2\n      pop\n        /* \"#utility.yul\":4589:4706   */\n      pop\n        /* \"#utility.yul\":4384:4713   */\n      swap3\n      swap2\n      pop\n      pop\n      jump\t// out\n        /* \"#utility.yul\":4719:4888   */\n    tag_189:\n        /* \"#utility.yul\":4803:4814   */\n      0x00\n        /* \"#utility.yul\":4837:4843   */\n      dup3\n        /* \"#utility.yul\":4832:4835   */\n      dup3\n        /* \"#utility.yul\":4825:4844   */\n      mstore\n        /* \"#utility.yul\":4877:4881   */\n      0x20\n        /* \"#utility.yul\":4872:4875   */\n      dup3\n        /* \"#utility.yul\":4868:4882   */\n      add\n        /* \"#utility.yul\":4853:4882   */\n      swap1\n      pop\n        /* \"#utility.yul\":4719:4888   */\n      swap3\n      swap2\n      pop\n      pop\n      jump\t// out\n        /* \"#utility.yul\":4894:5128   */\n    tag_190:\n        /* \"#utility.yul\":5034:5068   */\n      0x416363657373436f6e74726f6c3a2063616e206f6e6c792072656e6f756e6365\n        /* \"#utility.yul\":5030:5031   */\n      0x00\n        /* \"#utility.yul\":5022:5028   */\n      dup3\n        /* \"#utility.yul\":5018:5032   */\n      add\n        /* \"#utility.yul\":5011:5069   */\n      mstore\n        /* \"#utility.yul\":5103:5120   */\n      0x20726f6c657320666f722073656c660000000000000000000000000000000000\n        /* \"#utility.yul\":5098:5100   */\n      0x20\n        /* \"#utility.yul\":5090:5096   */\n      dup3\n        /* \"#utility.yul\":5086:5101   */\n      add\n        /* \"#utility.yul\":5079:5121   */\n      mstore\n        /* \"#utility.yul\":4894:5128   */\n      pop\n      jump\t// out\n        /* \"#utility.yul\":5134:5500   */\n    tag_191:\n        /* \"#utility.yul\":5276:5279   */\n      0x00\n        /* \"#utility.yul\":5297:5364   */\n      tag_269\n        /* \"#utility.yul\":5361:5363   */\n      0x2f\n        /* \"#utility.yul\":5356:5359   */\n      dup4\n        /* \"#utility.yul\":5297:5364   */\n      tag_189\n      jump\t// in\n    tag_269:\n        /* \"#utility.yul\":5290:5364   */\n      swap2\n      pop\n        /* \"#utility.yul\":5373:5466   */\n      tag_270\n        /* \"#utility.yul\":5462:5465   */\n      dup3\n        /* \"#utility.yul\":5373:5466   */\n      tag_190\n      jump\t// in\n    tag_270:\n        /* \"#utility.yul\":5491:5493   */\n      0x40\n        /* \"#utility.yul\":5486:5489   */\n      dup3\n        /* \"#utility.yul\":5482:5494   */\n      add\n        /* \"#utility.yul\":5475:5494   */\n      swap1\n      pop\n        /* \"#utility.yul\":5134:5500   */\n      swap2\n      swap1\n      pop\n      jump\t// out\n        /* \"#utility.yul\":5506:5925   */\n    tag_93:\n        /* \"#utility.yul\":5672:5676   */\n      0x00\n        /* \"#utility.yul\":5710:5712   */\n      0x20\n        /* \"#utility.yul\":5699:5708   */\n      dup3\n        /* \"#utility.yul\":5695:5713   */\n      add\n        /* \"#utility.yul\":5687:5713   */\n      swap1\n      pop\n        /* \"#utility.yul\":5759:5768   */\n      dup2\n        /* \"#utility.yul\":5753:5757   */\n      dup2\n        /* \"#utility.yul\":5749:5769   */\n      sub\n        /* \"#utility.yul\":5745:5746   */\n      0x00\n        /* \"#utility.yul\":5734:5743   */\n      dup4\n        /* \"#utility.yul\":5730:5747   */\n      add\n        /* \"#utility.yul\":5723:5770   */\n      mstore\n        /* \"#utility.yul\":5787:5918   */\n      tag_272\n        /* \"#utility.yul\":5913:5917   */\n      dup2\n        /* \"#utility.yul\":5787:5918   */\n      tag_191\n      jump\t// in\n    tag_272:\n        /* \"#utility.yul\":5779:5918   */\n      swap1\n      pop\n        /* \"#utility.yul\":5506:5925   */\n      swap2\n      swap1\n      pop\n      jump\t// out\n        /* \"#utility.yul\":5931:6079   */\n    tag_192:\n        /* \"#utility.yul\":6033:6044   */\n      0x00\n        /* \"#utility.yul\":6070:6073   */\n      dup2\n        /* \"#utility.yul\":6055:6073   */\n      swap1\n      pop\n        /* \"#utility.yul\":5931:6079   */\n      swap3\n      swap2\n      pop\n      pop\n      jump\t// out\n        /* \"#utility.yul\":6085:6258   */\n    tag_193:\n        /* \"#utility.yul\":6225:6250   */\n      0x416363657373436f6e74726f6c3a206163636f756e7420000000000000000000\n        /* \"#utility.yul\":6221:6222   */\n      0x00\n        /* \"#utility.yul\":6213:6219   */\n      dup3\n        /* \"#utility.yul\":6209:6223   */\n      add\n        /* \"#utility.yul\":6202:6251   */\n      mstore\n        /* \"#utility.yul\":6085:6258   */\n      pop\n      jump\t// out\n        /* \"#utility.yul\":6264:6666   */\n    tag_194:\n        /* \"#utility.yul\":6424:6427   */\n      0x00\n        /* \"#utility.yul\":6445:6530   */\n      tag_276\n        /* \"#utility.yul\":6527:6529   */\n      0x17\n        /* \"#utility.yul\":6522:6525   */\n      dup4\n        /* \"#utility.yul\":6445:6530   */\n      tag_192\n      jump\t// in\n    tag_276:\n        /* \"#utility.yul\":6438:6530   */\n      swap2\n      pop\n        /* \"#utility.yul\":6539:6632   */\n      tag_277\n        /* \"#utility.yul\":6628:6631   */\n      dup3\n        /* \"#utility.yul\":6539:6632   */\n      tag_193\n      jump\t// in\n    tag_277:\n        /* \"#utility.yul\":6657:6659   */\n      0x17\n        /* \"#utility.yul\":6652:6655   */\n      dup3\n        /* \"#utility.yul\":6648:6660   */\n      add\n        /* \"#utility.yul\":6641:6660   */\n      swap1\n      pop\n        /* \"#utility.yul\":6264:6666   */\n      swap2\n      swap1\n      pop\n      jump\t// out\n        /* \"#utility.yul\":6672:6771   */\n    tag_195:\n        /* \"#utility.yul\":6724:6730   */\n      0x00\n        /* \"#utility.yul\":6758:6763   */\n      dup2\n        /* \"#utility.yul\":6752:6764   */\n      mload\n        /* \"#utility.yul\":6742:6764   */\n      swap1\n      pop\n        /* \"#utility.yul\":6672:6771   */\n      swap2\n      swap1\n      pop\n      jump\t// out\n        /* \"#utility.yul\":6777:6916   */\n    tag_196:\n        /* \"#utility.yul\":6866:6872   */\n      dup3\n        /* \"#utility.yul\":6861:6864   */\n      dup2\n        /* \"#utility.yul\":6856:6859   */\n      dup4\n        /* \"#utility.yul\":6850:6873   */\n      mcopy\n        /* \"#utility.yul\":6907:6908   */\n      0x00\n        /* \"#utility.yul\":6898:6904   */\n      dup4\n        /* \"#utility.yul\":6893:6896   */\n      dup4\n        /* \"#utility.yul\":6889:6905   */\n      add\n        /* \"#utility.yul\":6882:6909   */\n      mstore\n        /* \"#utility.yul\":6777:6916   */\n      pop\n      pop\n      pop\n      jump\t// out\n        /* \"#utility.yul\":6922:7312   */\n    tag_197:\n        /* \"#utility.yul\":7028:7031   */\n      0x00\n        /* \"#utility.yul\":7056:7095   */\n      tag_281\n        /* \"#utility.yul\":7089:7094   */\n      dup3\n        /* \"#utility.yul\":7056:7095   */\n      tag_195\n      jump\t// in\n    tag_281:\n        /* \"#utility.yul\":7111:7200   */\n      tag_282\n        /* \"#utility.yul\":7193:7199   */\n      dup2\n        /* \"#utility.yul\":7188:7191   */\n      dup6\n        /* \"#utility.yul\":7111:7200   */\n      tag_192\n      jump\t// in\n    tag_282:\n        /* \"#utility.yul\":7104:7200   */\n      swap4\n      pop\n        /* \"#utility.yul\":7209:7274   */\n      tag_283\n        /* \"#utility.yul\":7267:7273   */\n      dup2\n        /* \"#utility.yul\":7262:7265   */\n      dup6\n        /* \"#utility.yul\":7255:7259   */\n      0x20\n        /* \"#utility.yul\":7248:7253   */\n      dup7\n        /* \"#utility.yul\":7244:7260   */\n      add\n        /* \"#utility.yul\":7209:7274   */\n      tag_196\n      jump\t// in\n    tag_283:\n        /* \"#utility.yul\":7299:7305   */\n      dup1\n        /* \"#utility.yul\":7294:7297   */\n      dup5\n        /* \"#utility.yul\":7290:7306   */\n      add\n        /* \"#utility.yul\":7283:7306   */\n      swap2\n      pop\n        /* \"#utility.yul\":7032:7312   */\n      pop\n        /* \"#utility.yul\":6922:7312   */\n      swap3\n      swap2\n      pop\n      pop\n      jump\t// out\n        /* \"#utility.yul\":7318:7485   */\n    tag_198:\n        /* \"#utility.yul\":7458:7477   */\n      0x206973206d697373696e6720726f6c6520000000000000000000000000000000\n        /* \"#utility.yul\":7454:7455   */\n      0x00\n        /* \"#utility.yul\":7446:7452   */\n      dup3\n        /* \"#utility.yul\":7442:7456   */\n      add\n        /* \"#utility.yul\":7435:7478   */\n      mstore\n        /* \"#utility.yul\":7318:7485   */\n      pop\n      jump\t// out\n        /* \"#utility.yul\":7491:7893   */\n    tag_199:\n        /* \"#utility.yul\":7651:7654   */\n      0x00\n        /* \"#utility.yul\":7672:7757   */\n      tag_286\n        /* \"#utility.yul\":7754:7756   */\n      0x11\n        /* \"#utility.yul\":7749:7752   */\n      dup4\n        /* \"#utility.yul\":7672:7757   */\n      tag_192\n      jump\t// in\n    tag_286:\n        /* \"#utility.yul\":7665:7757   */\n      swap2\n      pop\n        /* \"#utility.yul\":7766:7859   */\n      tag_287\n        /* \"#utility.yul\":7855:7858   */\n      dup3\n        /* \"#utility.yul\":7766:7859   */\n      tag_198\n      jump\t// in\n    tag_287:\n        /* \"#utility.yul\":7884:7886   */\n      0x11\n        /* \"#utility.yul\":7879:7882   */\n      dup3\n        /* \"#utility.yul\":7875:7887   */\n      add\n        /* \"#utility.yul\":7868:7887   */\n      swap1\n      pop\n        /* \"#utility.yul\":7491:7893   */\n      swap2\n      swap1\n      pop\n      jump\t// out\n        /* \"#utility.yul\":7899:8866   */\n    tag_137:\n        /* \"#utility.yul\":8281:8284   */\n      0x00\n        /* \"#utility.yul\":8303:8451   */\n      tag_289\n        /* \"#utility.yul\":8447:8450   */\n      dup3\n        /* \"#utility.yul\":8303:8451   */\n      tag_194\n      jump\t// in\n    tag_289:\n        /* \"#utility.yul\":8296:8451   */\n      swap2\n      pop\n        /* \"#utility.yul\":8468:8563   */\n      tag_290\n        /* \"#utility.yul\":8559:8562   */\n      dup3\n        /* \"#utility.yul\":8550:8556   */\n      dup6\n        /* \"#utility.yul\":8468:8563   */\n      tag_197\n      jump\t// in\n    tag_290:\n        /* \"#utility.yul\":8461:8563   */\n      swap2\n      pop\n        /* \"#utility.yul\":8580:8728   */\n      tag_291\n        /* \"#utility.yul\":8724:8727   */\n      dup3\n        /* \"#utility.yul\":8580:8728   */\n      tag_199\n      jump\t// in\n    tag_291:\n        /* \"#utility.yul\":8573:8728   */\n      swap2\n      pop\n        /* \"#utility.yul\":8745:8840   */\n      tag_292\n        /* \"#utility.yul\":8836:8839   */\n      dup3\n        /* \"#utility.yul\":8827:8833   */\n      dup5\n        /* \"#utility.yul\":8745:8840   */\n      tag_197\n      jump\t// in\n    tag_292:\n        /* \"#utility.yul\":8738:8840   */\n      swap2\n      pop\n        /* \"#utility.yul\":8857:8860   */\n      dup2\n        /* \"#utility.yul\":8850:8860   */\n      swap1\n      pop\n        /* \"#utility.yul\":7899:8866   */\n      swap4\n      swap3\n      pop\n      pop\n      pop\n      jump\t// out\n        /* \"#utility.yul\":8872:8974   */\n    tag_200:\n        /* \"#utility.yul\":8913:8919   */\n      0x00\n        /* \"#utility.yul\":8964:8966   */\n      0x1f\n        /* \"#utility.yul\":8960:8967   */\n      not\n        /* \"#utility.yul\":8955:8957   */\n      0x1f\n        /* \"#utility.yul\":8948:8953   */\n      dup4\n        /* \"#utility.yul\":8944:8958   */\n      add\n        /* \"#utility.yul\":8940:8968   */\n      and\n        /* \"#utility.yul\":8930:8968   */\n      swap1\n      pop\n        /* \"#utility.yul\":8872:8974   */\n      swap2\n      swap1\n      pop\n      jump\t// out\n        /* \"#utility.yul\":8980:9357   */\n    tag_201:\n        /* \"#utility.yul\":9068:9071   */\n      0x00\n        /* \"#utility.yul\":9096:9135   */\n      tag_295\n        /* \"#utility.yul\":9129:9134   */\n      dup3\n        /* \"#utility.yul\":9096:9135   */\n      tag_195\n      jump\t// in\n    tag_295:\n        /* \"#utility.yul\":9151:9222   */\n      tag_296\n        /* \"#utility.yul\":9215:9221   */\n      dup2\n        /* \"#utility.yul\":9210:9213   */\n      dup6\n        /* \"#utility.yul\":9151:9222   */\n      tag_189\n      jump\t// in\n    tag_296:\n        /* \"#utility.yul\":9144:9222   */\n      swap4\n      pop\n        /* \"#utility.yul\":9231:9296   */\n      tag_297\n        /* \"#utility.yul\":9289:9295   */\n      dup2\n        /* \"#utility.yul\":9284:9287   */\n      dup6\n        /* \"#utility.yul\":9277:9281   */\n      0x20\n        /* \"#utility.yul\":9270:9275   */\n      dup7\n        /* \"#utility.yul\":9266:9282   */\n      add\n        /* \"#utility.yul\":9231:9296   */\n      tag_196\n      jump\t// in\n    tag_297:\n        /* \"#utility.yul\":9321:9350   */\n      tag_298\n        /* \"#utility.yul\":9343:9349   */\n      dup2\n        /* \"#utility.yul\":9321:9350   */\n      tag_200\n      jump\t// in\n    tag_298:\n        /* \"#utility.yul\":9316:9319   */\n      dup5\n        /* \"#utility.yul\":9312:9351   */\n      add\n        /* \"#utility.yul\":9305:9351   */\n      swap2\n      pop\n        /* \"#utility.yul\":9072:9357   */\n      pop\n        /* \"#utility.yul\":8980:9357   */\n      swap3\n      swap2\n      pop\n      pop\n      jump\t// out\n        /* \"#utility.yul\":9363:9676   */\n    tag_139:\n        /* \"#utility.yul\":9476:9480   */\n      0x00\n        /* \"#utility.yul\":9514:9516   */\n      0x20\n        /* \"#utility.yul\":9503:9512   */\n      dup3\n        /* \"#utility.yul\":9499:9517   */\n      add\n        /* \"#utility.yul\":9491:9517   */\n      swap1\n      pop\n        /* \"#utility.yul\":9563:9572   */\n      dup2\n        /* \"#utility.yul\":9557:9561   */\n      dup2\n        /* \"#utility.yul\":9553:9573   */\n      sub\n        /* \"#utility.yul\":9549:9550   */\n      0x00\n        /* \"#utility.yul\":9538:9547   */\n      dup4\n        /* \"#utility.yul\":9534:9551   */\n      add\n        /* \"#utility.yul\":9527:9574   */\n      mstore\n        /* \"#utility.yul\":9591:9669   */\n      tag_300\n        /* \"#utility.yul\":9664:9668   */\n      dup2\n        /* \"#utility.yul\":9655:9661   */\n      dup5\n        /* \"#utility.yul\":9591:9669   */\n      tag_201\n      jump\t// in\n    tag_300:\n        /* \"#utility.yul\":9583:9669   */\n      swap1\n      pop\n        /* \"#utility.yul\":9363:9676   */\n      swap3\n      swap2\n      pop\n      pop\n      jump\t// out\n        /* \"#utility.yul\":9682:9862   */\n    tag_202:\n        /* \"#utility.yul\":9730:9807   */\n      0x4e487b7100000000000000000000000000000000000000000000000000000000\n        /* \"#utility.yul\":9727:9728   */\n      0x00\n        /* \"#utility.yul\":9720:9808   */\n      mstore\n        /* \"#utility.yul\":9827:9831   */\n      0x11\n        /* \"#utility.yul\":9824:9825   */\n      0x04\n        /* \"#utility.yul\":9817:9832   */\n      mstore\n        /* \"#utility.yul\":9851:9855   */\n      0x24\n        /* \"#utility.yul\":9848:9849   */\n      0x00\n        /* \"#utility.yul\":9841:9856   */\n      revert\n        /* \"#utility.yul\":9868:10278   */\n    tag_144:\n        /* \"#utility.yul\":9908:9915   */\n      0x00\n        /* \"#utility.yul\":9931:9951   */\n      tag_303\n        /* \"#utility.yul\":9949:9950   */\n      dup3\n        /* \"#utility.yul\":9931:9951   */\n      tag_186\n      jump\t// in\n    tag_303:\n        /* \"#utility.yul\":9926:9951   */\n      swap2\n      pop\n        /* \"#utility.yul\":9965:9985   */\n      tag_304\n        /* \"#utility.yul\":9983:9984   */\n      dup4\n        /* \"#utility.yul\":9965:9985   */\n      tag_186\n      jump\t// in\n    tag_304:\n        /* \"#utility.yul\":9960:9985   */\n      swap3\n      pop\n        /* \"#utility.yul\":10020:10021   */\n      dup3\n        /* \"#utility.yul\":10017:10018   */\n      dup3\n        /* \"#utility.yul\":10013:10022   */\n      mul\n        /* \"#utility.yul\":10042:10072   */\n      tag_305\n        /* \"#utility.yul\":10060:10071   */\n      dup2\n        /* \"#utility.yul\":10042:10072   */\n      tag_186\n      jump\t// in\n    tag_305:\n        /* \"#utility.yul\":10031:10072   */\n      swap2\n      pop\n        /* \"#utility.yul\":10221:10222   */\n      dup3\n        /* \"#utility.yul\":10212:10219   */\n      dup3\n        /* \"#utility.yul\":10208:10223   */\n      div\n        /* \"#utility.yul\":10205:10206   */\n      dup5\n        /* \"#utility.yul\":10202:10224   */\n      eq\n        /* \"#utility.yul\":10182:10183   */\n      dup4\n        /* \"#utility.yul\":10175:10184   */\n      iszero\n        /* \"#utility.yul\":10155:10238   */\n      or\n        /* \"#utility.yul\":10132:10271   */\n      tag_306\n      jumpi\n        /* \"#utility.yul\":10251:10269   */\n      tag_307\n      tag_202\n      jump\t// in\n    tag_307:\n        /* \"#utility.yul\":10132:10271   */\n    tag_306:\n        /* \"#utility.yul\":9916:10278   */\n      pop\n        /* \"#utility.yul\":9868:10278   */\n      swap3\n      swap2\n      pop\n      pop\n      jump\t// out\n        /* \"#utility.yul\":10284:10475   */\n    tag_146:\n        /* \"#utility.yul\":10324:10327   */\n      0x00\n        /* \"#utility.yul\":10343:10363   */\n      tag_309\n        /* \"#utility.yul\":10361:10362   */\n      dup3\n        /* \"#utility.yul\":10343:10363   */\n      tag_186\n      jump\t// in\n    tag_309:\n        /* \"#utility.yul\":10338:10363   */\n      swap2\n      pop\n        /* \"#utility.yul\":10377:10397   */\n      tag_310\n        /* \"#utility.yul\":10395:10396   */\n      dup4\n        /* \"#utility.yul\":10377:10397   */\n      tag_186\n      jump\t// in\n    tag_310:\n        /* \"#utility.yul\":10372:10397   */\n      swap3\n      pop\n        /* \"#utility.yul\":10420:10421   */\n      dup3\n        /* \"#utility.yul\":10417:10418   */\n      dup3\n        /* \"#utility.yul\":10413:10422   */\n      add\n        /* \"#utility.yul\":10406:10422   */\n      swap1\n      pop\n        /* \"#utility.yul\":10441:10444   */\n      dup1\n        /* \"#utility.yul\":10438:10439   */\n      dup3\n        /* \"#utility.yul\":10435:10445   */\n      gt\n        /* \"#utility.yul\":10432:10468   */\n      iszero\n      tag_311\n      jumpi\n        /* \"#utility.yul\":10448:10466   */\n      tag_312\n      tag_202\n      jump\t// in\n    tag_312:\n        /* \"#utility.yul\":10432:10468   */\n    tag_311:\n        /* \"#utility.yul\":10284:10475   */\n      swap3\n      swap2\n      pop\n      pop\n      jump\t// out\n        /* \"#utility.yul\":10481:10661   */\n    tag_149:\n        /* \"#utility.yul\":10529:10606   */\n      0x4e487b7100000000000000000000000000000000000000000000000000000000\n        /* \"#utility.yul\":10526:10527   */\n      0x00\n        /* \"#utility.yul\":10519:10607   */\n      mstore\n        /* \"#utility.yul\":10626:10630   */\n      0x41\n        /* \"#utility.yul\":10623:10624   */\n      0x04\n        /* \"#utility.yul\":10616:10631   */\n      mstore\n        /* \"#utility.yul\":10650:10654   */\n      0x24\n        /* \"#utility.yul\":10647:10648   */\n      0x00\n        /* \"#utility.yul\":10640:10655   */\n      revert\n        /* \"#utility.yul\":10667:10847   */\n    tag_153:\n        /* \"#utility.yul\":10715:10792   */\n      0x4e487b7100000000000000000000000000000000000000000000000000000000\n        /* \"#utility.yul\":10712:10713   */\n      0x00\n        /* \"#utility.yul\":10705:10793   */\n      mstore\n        /* \"#utility.yul\":10812:10816   */\n      0x32\n        /* \"#utility.yul\":10809:10810   */\n      0x04\n        /* \"#utility.yul\":10802:10817   */\n      mstore\n        /* \"#utility.yul\":10836:10840   */\n      0x24\n        /* \"#utility.yul\":10833:10834   */\n      0x00\n        /* \"#utility.yul\":10826:10841   */\n      revert\n        /* \"#utility.yul\":10853:11024   */\n    tag_166:\n        /* \"#utility.yul\":10892:10895   */\n      0x00\n        /* \"#utility.yul\":10915:10939   */\n      tag_316\n        /* \"#utility.yul\":10933:10938   */\n      dup3\n        /* \"#utility.yul\":10915:10939   */\n      tag_186\n      jump\t// in\n    tag_316:\n        /* \"#utility.yul\":10906:10939   */\n      swap2\n      pop\n        /* \"#utility.yul\":10961:10965   */\n      0x00\n        /* \"#utility.yul\":10954:10959   */\n      dup3\n        /* \"#utility.yul\":10951:10966   */\n      sub\n        /* \"#utility.yul\":10948:10989   */\n      tag_317\n      jumpi\n        /* \"#utility.yul\":10969:10987   */\n      tag_318\n      tag_202\n      jump\t// in\n    tag_318:\n        /* \"#utility.yul\":10948:10989   */\n    tag_317:\n        /* \"#utility.yul\":11016:11017   */\n      0x01\n        /* \"#utility.yul\":11009:11014   */\n      dup3\n        /* \"#utility.yul\":11005:11018   */\n      sub\n        /* \"#utility.yul\":10998:11018   */\n      swap1\n      pop\n        /* \"#utility.yul\":10853:11024   */\n      swap2\n      swap1\n      pop\n      jump\t// out\n        /* \"#utility.yul\":11030:11212   */\n    tag_203:\n        /* \"#utility.yul\":11170:11204   */\n      0x537472696e67733a20686578206c656e67746820696e73756666696369656e74\n        /* \"#utility.yul\":11166:11167   */\n      0x00\n        /* \"#utility.yul\":11158:11164   */\n      dup3\n        /* \"#utility.yul\":11154:11168   */\n      add\n        /* \"#utility.yul\":11147:11205   */\n      mstore\n        /* \"#utility.yul\":11030:11212   */\n      pop\n      jump\t// out\n        /* \"#utility.yul\":11218:11584   */\n    tag_204:\n        /* \"#utility.yul\":11360:11363   */\n      0x00\n        /* \"#utility.yul\":11381:11448   */\n      tag_321\n        /* \"#utility.yul\":11445:11447   */\n      0x20\n        /* \"#utility.yul\":11440:11443   */\n      dup4\n        /* \"#utility.yul\":11381:11448   */\n      tag_189\n      jump\t// in\n    tag_321:\n        /* \"#utility.yul\":11374:11448   */\n      swap2\n      pop\n        /* \"#utility.yul\":11457:11550   */\n      tag_322\n        /* \"#utility.yul\":11546:11549   */\n      dup3\n        /* \"#utility.yul\":11457:11550   */\n      tag_203\n      jump\t// in\n    tag_322:\n        /* \"#utility.yul\":11575:11577   */\n      0x20\n        /* \"#utility.yul\":11570:11573   */\n      dup3\n        /* \"#utility.yul\":11566:11578   */\n      add\n        /* \"#utility.yul\":11559:11578   */\n      swap1\n      pop\n        /* \"#utility.yul\":11218:11584   */\n      swap2\n      swap1\n      pop\n      jump\t// out\n        /* \"#utility.yul\":11590:12009   */\n    tag_169:\n        /* \"#utility.yul\":11756:11760   */\n      0x00\n        /* \"#utility.yul\":11794:11796   */\n      0x20\n        /* \"#utility.yul\":11783:11792   */\n      dup3\n        /* \"#utility.yul\":11779:11797   */\n      add\n        /* \"#utility.yul\":11771:11797   */\n      swap1\n      pop\n        /* \"#utility.yul\":11843:11852   */\n      dup2\n        /* \"#utility.yul\":11837:11841   */\n      dup2\n        /* \"#utility.yul\":11833:11853   */\n      sub\n        /* \"#utility.yul\":11829:11830   */\n      0x00\n        /* \"#utility.yul\":11818:11827   */\n      dup4\n        /* \"#utility.yul\":11814:11831   */\n      add\n        /* \"#utility.yul\":11807:11854   */\n      mstore\n        /* \"#utility.yul\":11871:12002   */\n      tag_324\n        /* \"#utility.yul\":11997:12001   */\n      dup2\n        /* \"#utility.yul\":11871:12002   */\n      tag_204\n      jump\t// in\n    tag_324:\n        /* \"#utility.yul\":11863:12002   */\n      swap1\n      pop\n        /* \"#utility.yul\":11590:12009   */\n      swap2\n      swap1\n      pop\n      jump\t// out\n\n    auxdata: 0xa26469706673582212209942a5ab56136836e7849d764e111d51cd2ba8f3d5e9b0e39338b47e9ca50a7d64736f6c634300081a0033\n}\n",
				"bytecode": {
					"linkReferences": {},
					"object": "608060405234801561000f575f80fd5b506100225f801b3361005760201b60201c565b6100527fa49807205ce4d355092ef5a8a18f56e8913cf4a201fbe287825b095693c217753361005760201b60201c565b6101bb565b610067828261006b60201b60201c565b5050565b61007b828261015160201b60201c565b61014d5760015f808481526020019081526020015f205f015f8373ffffffffffffffffffffffffffffffffffffffff1673ffffffffffffffffffffffffffffffffffffffff1681526020019081526020015f205f6101000a81548160ff0219169083151502179055506100f26101b460201b60201c565b73ffffffffffffffffffffffffffffffffffffffff168173ffffffffffffffffffffffffffffffffffffffff16837f2f8788117e7eff1d82e926ec794901d17c78024a50270940304540a733656f0d60405160405180910390a45b5050565b5f805f8481526020019081526020015f205f015f8373ffffffffffffffffffffffffffffffffffffffff1673ffffffffffffffffffffffffffffffffffffffff1681526020019081526020015f205f9054906101000a900460ff16905092915050565b5f33905090565b6111a4806101c85f395ff3fe608060405234801561000f575f80fd5b50600436106100f3575f3560e01c80639a19c7b011610095578063c02725f011610064578063c02725f01461026b578063c634b78e14610287578063d547741f146102a3578063f58ee354146102bf576100f3565b80639a19c7b0146101f95780639b4c7ced14610215578063a217fddf14610231578063aac2094a1461024f576100f3565b806336568abe116100d157806336568abe1461017357806366c77df71461018f57806375b238fc146101ab57806391d14854146101c9576100f3565b806301ffc9a7146100f7578063248a9ca3146101275780632f2ff15d14610157575b5f80fd5b610111600480360381019061010c9190610ba7565b6102db565b60405161011e9190610bec565b60405180910390f35b610141600480360381019061013c9190610c38565b610354565b60405161014e9190610c72565b60405180910390f35b610171600480360381019061016c9190610ce5565b610370565b005b61018d60048036038101906101889190610ce5565b610391565b005b6101a960048036038101906101a49190610d56565b610414565b005b6101b3610446565b6040516101c09190610c72565b60405180910390f35b6101e360048036038101906101de9190610ce5565b61046a565b6040516101f09190610bec565b60405180910390f35b610213600480360381019061020e9190610d94565b6104cd565b005b61022f600480360381019061022a9190610d56565b610507565b005b610239610539565b6040516102469190610c72565b60405180910390f35b61026960048036038101906102649190610d56565b61053f565b005b61028560048036038101906102809190610d56565b610571565b005b6102a1600480360381019061029c9190610d94565b6105a3565b005b6102bd60048036038101906102b89190610ce5565b6105dd565b005b6102d960048036038101906102d49190610d56565b6105fe565b005b5f7f7965db0b000000000000000000000000000000000000000000000000000000007bffffffffffffffffffffffffffffffffffffffffffffffffffffffff1916827bffffffffffffffffffffffffffffffffffffffffffffffffffffffff1916148061034d575061034c82610630565b5b9050919050565b5f805f8381526020019081526020015f20600101549050919050565b61037982610354565b61038281610699565b61038c83836106ad565b505050565b610399610787565b73ffffffffffffffffffffffffffffffffffffffff168173ffffffffffffffffffffffffffffffffffffffff1614610406576040517f08c379a00000000000000000000000000000000000000000000000000000000081526004016103fd90610e3f565b60405180910390fd5b610410828261078e565b5050565b80827ff5704ea1fb9a06b3c4911041793afd3003eac5b15756eef2987e75303f9f34c660405160405180910390a35050565b7fa49807205ce4d355092ef5a8a18f56e8913cf4a201fbe287825b095693c2177581565b5f805f8481526020019081526020015f205f015f8373ffffffffffffffffffffffffffffffffffffffff1673ffffffffffffffffffffffffffffffffffffffff1681526020019081526020015f205f9054906101000a900460ff16905092915050565b5f801b6104d981610699565b6105037fa49807205ce4d355092ef5a8a18f56e8913cf4a201fbe287825b095693c21775836105dd565b5050565b80827f96af4cfe56c938154cf8986288dfea262d8b1caa075204f4679ae517bcea70b960405160405180910390a35050565b5f801b81565b80827f4c4660db760944215f41e957066d756ad5fd0eed1b4640632322eb06f77b034d60405160405180910390a35050565b80827fcccca5c37cd734d94742d46e24d5fcdc3e6ef8dd90dda510dae0e35530add4a260405160405180910390a35050565b5f801b6105af81610699565b6105d97fa49807205ce4d355092ef5a8a18f56e8913cf4a201fbe287825b095693c2177583610370565b5050565b6105e682610354565b6105ef81610699565b6105f9838361078e565b505050565b80827f51dbb46f6f6d290ac0b2b3fb0b015e2065756f1b9ec382651fe728757bf362fe60405160405180910390a35050565b5f7f01ffc9a7000000000000000000000000000000000000000000000000000000007bffffffffffffffffffffffffffffffffffffffffffffffffffffffff1916827bffffffffffffffffffffffffffffffffffffffffffffffffffffffff1916149050919050565b6106aa816106a5610787565b610868565b50565b6106b7828261046a565b6107835760015f808481526020019081526020015f205f015f8373ffffffffffffffffffffffffffffffffffffffff1673ffffffffffffffffffffffffffffffffffffffff1681526020019081526020015f205f6101000a81548160ff021916908315150217905550610728610787565b73ffffffffffffffffffffffffffffffffffffffff168173ffffffffffffffffffffffffffffffffffffffff16837f2f8788117e7eff1d82e926ec794901d17c78024a50270940304540a733656f0d60405160405180910390a45b5050565b5f33905090565b610798828261046a565b15610864575f805f8481526020019081526020015f205f015f8373ffffffffffffffffffffffffffffffffffffffff1673ffffffffffffffffffffffffffffffffffffffff1681526020019081526020015f205f6101000a81548160ff021916908315150217905550610809610787565b73ffffffffffffffffffffffffffffffffffffffff168173ffffffffffffffffffffffffffffffffffffffff16837ff6391f5c32d9c69d2a47ea670b442974b53935d1edc7fd64eb21e047a839171b60405160405180910390a45b5050565b610872828261046a565b6108e85761087f816108ec565b61088c835f1c6020610919565b60405160200161089d929190610f43565b6040516020818303038152906040526040517f08c379a00000000000000000000000000000000000000000000000000000000081526004016108df9190610fc4565b60405180910390fd5b5050565b60606109128273ffffffffffffffffffffffffffffffffffffffff16601460ff16610919565b9050919050565b60605f600283600261092b9190611011565b6109359190611052565b67ffffffffffffffff81111561094e5761094d611085565b5b6040519080825280601f01601f1916602001820160405280156109805781602001600182028036833780820191505090505b5090507f3000000000000000000000000000000000000000000000000000000000000000815f815181106109b7576109b66110b2565b5b60200101907effffffffffffffffffffffffffffffffffffffffffffffffffffffffffffff191690815f1a9053507f780000000000000000000000000000000000000000000000000000000000000081600181518110610a1a57610a196110b2565b5b60200101907effffffffffffffffffffffffffffffffffffffffffffffffffffffffffffff191690815f1a9053505f6001846002610a589190611011565b610a629190611052565b90505b6001811115610b01577f3031323334353637383961626364656600000000000000000000000000000000600f861660108110610aa457610aa36110b2565b5b1a60f81b828281518110610abb57610aba6110b2565b5b60200101907effffffffffffffffffffffffffffffffffffffffffffffffffffffffffffff191690815f1a905350600485901c945080610afa906110df565b9050610a65565b505f8414610b44576040517f08c379a0000000000000000000000000000000000000000000000000000000008152600401610b3b90611150565b60405180910390fd5b8091505092915050565b5f80fd5b5f7fffffffff0000000000000000000000000000000000000000000000000000000082169050919050565b610b8681610b52565b8114610b90575f80fd5b50565b5f81359050610ba181610b7d565b92915050565b5f60208284031215610bbc57610bbb610b4e565b5b5f610bc984828501610b93565b91505092915050565b5f8115159050919050565b610be681610bd2565b82525050565b5f602082019050610bff5f830184610bdd565b92915050565b5f819050919050565b610c1781610c05565b8114610c21575f80fd5b50565b5f81359050610c3281610c0e565b92915050565b5f60208284031215610c4d57610c4c610b4e565b5b5f610c5a84828501610c24565b91505092915050565b610c6c81610c05565b82525050565b5f602082019050610c855f830184610c63565b92915050565b5f73ffffffffffffffffffffffffffffffffffffffff82169050919050565b5f610cb482610c8b565b9050919050565b610cc481610caa565b8114610cce575f80fd5b50565b5f81359050610cdf81610cbb565b92915050565b5f8060408385031215610cfb57610cfa610b4e565b5b5f610d0885828601610c24565b9250506020610d1985828601610cd1565b9150509250929050565b5f819050919050565b610d3581610d23565b8114610d3f575f80fd5b50565b5f81359050610d5081610d2c565b92915050565b5f8060408385031215610d6c57610d6b610b4e565b5b5f610d7985828601610d42565b9250506020610d8a85828601610d42565b9150509250929050565b5f60208284031215610da957610da8610b4e565b5b5f610db684828501610cd1565b91505092915050565b5f82825260208201905092915050565b7f416363657373436f6e74726f6c3a2063616e206f6e6c792072656e6f756e63655f8201527f20726f6c657320666f722073656c660000000000000000000000000000000000602082015250565b5f610e29602f83610dbf565b9150610e3482610dcf565b604082019050919050565b5f6020820190508181035f830152610e5681610e1d565b9050919050565b5f81905092915050565b7f416363657373436f6e74726f6c3a206163636f756e74200000000000000000005f82015250565b5f610e9b601783610e5d565b9150610ea682610e67565b601782019050919050565b5f81519050919050565b8281835e5f83830152505050565b5f610ed382610eb1565b610edd8185610e5d565b9350610eed818560208601610ebb565b80840191505092915050565b7f206973206d697373696e6720726f6c65200000000000000000000000000000005f82015250565b5f610f2d601183610e5d565b9150610f3882610ef9565b601182019050919050565b5f610f4d82610e8f565b9150610f598285610ec9565b9150610f6482610f21565b9150610f708284610ec9565b91508190509392505050565b5f601f19601f8301169050919050565b5f610f9682610eb1565b610fa08185610dbf565b9350610fb0818560208601610ebb565b610fb981610f7c565b840191505092915050565b5f6020820190508181035f830152610fdc8184610f8c565b905092915050565b7f4e487b71000000000000000000000000000000000000000000000000000000005f52601160045260245ffd5b5f61101b82610d23565b915061102683610d23565b925082820261103481610d23565b9150828204841483151761104b5761104a610fe4565b5b5092915050565b5f61105c82610d23565b915061106783610d23565b925082820190508082111561107f5761107e610fe4565b5b92915050565b7f4e487b71000000000000000000000000000000000000000000000000000000005f52604160045260245ffd5b7f4e487b71000000000000000000000000000000000000000000000000000000005f52603260045260245ffd5b5f6110e982610d23565b91505f82036110fb576110fa610fe4565b5b600182039050919050565b7f537472696e67733a20686578206c656e67746820696e73756666696369656e745f82015250565b5f61113a602083610dbf565b915061114582611106565b602082019050919050565b5f6020820190508181035f8301526111678161112e565b905091905056fea26469706673582212209942a5ab56136836e7849d764e111d51cd2ba8f3d5e9b0e39338b47e9ca50a7d64736f6c634300081a0033",
					"opcodes": "PUSH1 0x80 PUSH1 0x40 MSTORE CALLVALUE DUP1 ISZERO PUSH2 0xF JUMPI PUSH0 DUP1 REVERT JUMPDEST POP PUSH2 0x22 PUSH0 DUP1 SHL CALLER PUSH2 0x57 PUSH1 0x20 SHL PUSH1 0x20 SHR JUMP JUMPDEST PUSH2 0x52 PUSH32 0xA49807205CE4D355092EF5A8A18F56E8913CF4A201FBE287825B095693C21775 CALLER PUSH2 0x57 PUSH1 0x20 SHL PUSH1 0x20 SHR JUMP JUMPDEST PUSH2 0x1BB JUMP JUMPDEST PUSH2 0x67 DUP3 DUP3 PUSH2 0x6B PUSH1 0x20 SHL PUSH1 0x20 SHR JUMP JUMPDEST POP POP JUMP JUMPDEST PUSH2 0x7B DUP3 DUP3 PUSH2 0x151 PUSH1 0x20 SHL PUSH1 0x20 SHR JUMP JUMPDEST PUSH2 0x14D JUMPI PUSH1 0x1 PUSH0 DUP1 DUP5 DUP2 MSTORE PUSH1 0x20 ADD SWAP1 DUP2 MSTORE PUSH1 0x20 ADD PUSH0 KECCAK256 PUSH0 ADD PUSH0 DUP4 PUSH20 0xFFFFFFFFFFFFFFFFFFFFFFFFFFFFFFFFFFFFFFFF AND PUSH20 0xFFFFFFFFFFFFFFFFFFFFFFFFFFFFFFFFFFFFFFFF AND DUP2 MSTORE PUSH1 0x20 ADD SWAP1 DUP2 MSTORE PUSH1 0x20 ADD PUSH0 KECCAK256 PUSH0 PUSH2 0x100 EXP DUP2 SLOAD DUP2 PUSH1 0xFF MUL NOT AND SWAP1 DUP4 ISZERO ISZERO MUL OR SWAP1 SSTORE POP PUSH2 0xF2 PUSH2 0x1B4 PUSH1 0x20 SHL PUSH1 0x20 SHR JUMP JUMPDEST PUSH20 0xFFFFFFFFFFFFFFFFFFFFFFFFFFFFFFFFFFFFFFFF AND DUP2 PUSH20 0xFFFFFFFFFFFFFFFFFFFFFFFFFFFFFFFFFFFFFFFF AND DUP4 PUSH32 0x2F8788117E7EFF1D82E926EC794901D17C78024A50270940304540A733656F0D PUSH1 0x40 MLOAD PUSH1 0x40 MLOAD DUP1 SWAP2 SUB SWAP1 LOG4 JUMPDEST POP POP JUMP JUMPDEST PUSH0 DUP1 PUSH0 DUP5 DUP2 MSTORE PUSH1 0x20 ADD SWAP1 DUP2 MSTORE PUSH1 0x20 ADD PUSH0 KECCAK256 PUSH0 ADD PUSH0 DUP4 PUSH20 0xFFFFFFFFFFFFFFFFFFFFFFFFFFFFFFFFFFFFFFFF AND PUSH20 0xFFFFFFFFFFFFFFFFFFFFFFFFFFFFFFFFFFFFFFFF AND DUP2 MSTORE PUSH1 0x20 ADD SWAP1 DUP2 MSTORE PUSH1 0x20 ADD PUSH0 KECCAK256 PUSH0 SWAP1 SLOAD SWAP1 PUSH2 0x100 EXP SWAP1 DIV PUSH1 0xFF AND SWAP1 POP SWAP3 SWAP2 POP POP JUMP JUMPDEST PUSH0 CALLER SWAP1 POP SWAP1 JUMP JUMPDEST PUSH2 0x11A4 DUP1 PUSH2 0x1C8 PUSH0 CODECOPY PUSH0 RETURN INVALID PUSH1 0x80 PUSH1 0x40 MSTORE CALLVALUE DUP1 ISZERO PUSH2 0xF JUMPI PUSH0 DUP1 REVERT JUMPDEST POP PUSH1 0x4 CALLDATASIZE LT PUSH2 0xF3 JUMPI PUSH0 CALLDATALOAD PUSH1 0xE0 SHR DUP1 PUSH4 0x9A19C7B0 GT PUSH2 0x95 JUMPI DUP1 PUSH4 0xC02725F0 GT PUSH2 0x64 JUMPI DUP1 PUSH4 0xC02725F0 EQ PUSH2 0x26B JUMPI DUP1 PUSH4 0xC634B78E EQ PUSH2 0x287 JUMPI DUP1 PUSH4 0xD547741F EQ PUSH2 0x2A3 JUMPI DUP1 PUSH4 0xF58EE354 EQ PUSH2 0x2BF JUMPI PUSH2 0xF3 JUMP JUMPDEST DUP1 PUSH4 0x9A19C7B0 EQ PUSH2 0x1F9 JUMPI DUP1 PUSH4 0x9B4C7CED EQ PUSH2 0x215 JUMPI DUP1 PUSH4 0xA217FDDF EQ PUSH2 0x231 JUMPI DUP1 PUSH4 0xAAC2094A EQ PUSH2 0x24F JUMPI PUSH2 0xF3 JUMP JUMPDEST DUP1 PUSH4 0x36568ABE GT PUSH2 0xD1 JUMPI DUP1 PUSH4 0x36568ABE EQ PUSH2 0x173 JUMPI DUP1 PUSH4 0x66C77DF7 EQ PUSH2 0x18F JUMPI DUP1 PUSH4 0x75B238FC EQ PUSH2 0x1AB JUMPI DUP1 PUSH4 0x91D14854 EQ PUSH2 0x1C9 JUMPI PUSH2 0xF3 JUMP JUMPDEST DUP1 PUSH4 0x1FFC9A7 EQ PUSH2 0xF7 JUMPI DUP1 PUSH4 0x248A9CA3 EQ PUSH2 0x127 JUMPI DUP1 PUSH4 0x2F2FF15D EQ PUSH2 0x157 JUMPI JUMPDEST PUSH0 DUP1 REVERT JUMPDEST PUSH2 0x111 PUSH1 0x4 DUP1 CALLDATASIZE SUB DUP2 ADD SWAP1 PUSH2 0x10C SWAP2 SWAP1 PUSH2 0xBA7 JUMP JUMPDEST PUSH2 0x2DB JUMP JUMPDEST PUSH1 0x40 MLOAD PUSH2 0x11E SWAP2 SWAP1 PUSH2 0xBEC JUMP JUMPDEST PUSH1 0x40 MLOAD DUP1 SWAP2 SUB SWAP1 RETURN JUMPDEST PUSH2 0x141 PUSH1 0x4 DUP1 CALLDATASIZE SUB DUP2 ADD SWAP1 PUSH2 0x13C SWAP2 SWAP1 PUSH2 0xC38 JUMP JUMPDEST PUSH2 0x354 JUMP JUMPDEST PUSH1 0x40 MLOAD PUSH2 0x14E SWAP2 SWAP1 PUSH2 0xC72 JUMP JUMPDEST PUSH1 0x40 MLOAD DUP1 SWAP2 SUB SWAP1 RETURN JUMPDEST PUSH2 0x171 PUSH1 0x4 DUP1 CALLDATASIZE SUB DUP2 ADD SWAP1 PUSH2 0x16C SWAP2 SWAP1 PUSH2 0xCE5 JUMP JUMPDEST PUSH2 0x370 JUMP JUMPDEST STOP JUMPDEST PUSH2 0x18D PUSH1 0x4 DUP1 CALLDATASIZE SUB DUP2 ADD SWAP1 PUSH2 0x188 SWAP2 SWAP1 PUSH2 0xCE5 JUMP JUMPDEST PUSH2 0x391 JUMP JUMPDEST STOP JUMPDEST PUSH2 0x1A9 PUSH1 0x4 DUP1 CALLDATASIZE SUB DUP2 ADD SWAP1 PUSH2 0x1A4 SWAP2 SWAP1 PUSH2 0xD56 JUMP JUMPDEST PUSH2 0x414 JUMP JUMPDEST STOP JUMPDEST PUSH2 0x1B3 PUSH2 0x446 JUMP JUMPDEST PUSH1 0x40 MLOAD PUSH2 0x1C0 SWAP2 SWAP1 PUSH2 0xC72 JUMP JUMPDEST PUSH1 0x40 MLOAD DUP1 SWAP2 SUB SWAP1 RETURN JUMPDEST PUSH2 0x1E3 PUSH1 0x4 DUP1 CALLDATASIZE SUB DUP2 ADD SWAP1 PUSH2 0x1DE SWAP2 SWAP1 PUSH2 0xCE5 JUMP JUMPDEST PUSH2 0x46A JUMP JUMPDEST PUSH1 0x40 MLOAD PUSH2 0x1F0 SWAP2 SWAP1 PUSH2 0xBEC JUMP JUMPDEST PUSH1 0x40 MLOAD DUP1 SWAP2 SUB SWAP1 RETURN JUMPDEST PUSH2 0x213 PUSH1 0x4 DUP1 CALLDATASIZE SUB DUP2 ADD SWAP1 PUSH2 0x20E SWAP2 SWAP1 PUSH2 0xD94 JUMP JUMPDEST PUSH2 0x4CD JUMP JUMPDEST STOP JUMPDEST PUSH2 0x22F PUSH1 0x4 DUP1 CALLDATASIZE SUB DUP2 ADD SWAP1 PUSH2 0x22A SWAP2 SWAP1 PUSH2 0xD56 JUMP JUMPDEST PUSH2 0x507 JUMP JUMPDEST STOP JUMPDEST PUSH2 0x239 PUSH2 0x539 JUMP JUMPDEST PUSH1 0x40 MLOAD PUSH2 0x246 SWAP2 SWAP1 PUSH2 0xC72 JUMP JUMPDEST PUSH1 0x40 MLOAD DUP1 SWAP2 SUB SWAP1 RETURN JUMPDEST PUSH2 0x269 PUSH1 0x4 DUP1 CALLDATASIZE SUB DUP2 ADD SWAP1 PUSH2 0x264 SWAP2 SWAP1 PUSH2 0xD56 JUMP JUMPDEST PUSH2 0x53F JUMP JUMPDEST STOP JUMPDEST PUSH2 0x285 PUSH1 0x4 DUP1 CALLDATASIZE SUB DUP2 ADD SWAP1 PUSH2 0x280 SWAP2 SWAP1 PUSH2 0xD56 JUMP JUMPDEST PUSH2 0x571 JUMP JUMPDEST STOP JUMPDEST PUSH2 0x2A1 PUSH1 0x4 DUP1 CALLDATASIZE SUB DUP2 ADD SWAP1 PUSH2 0x29C SWAP2 SWAP1 PUSH2 0xD94 JUMP JUMPDEST PUSH2 0x5A3 JUMP JUMPDEST STOP JUMPDEST PUSH2 0x2BD PUSH1 0x4 DUP1 CALLDATASIZE SUB DUP2 ADD SWAP1 PUSH2 0x2B8 SWAP2 SWAP1 PUSH2 0xCE5 JUMP JUMPDEST PUSH2 0x5DD JUMP JUMPDEST STOP JUMPDEST PUSH2 0x2D9 PUSH1 0x4 DUP1 CALLDATASIZE SUB DUP2 ADD SWAP1 PUSH2 0x2D4 SWAP2 SWAP1 PUSH2 0xD56 JUMP JUMPDEST PUSH2 0x5FE JUMP JUMPDEST STOP JUMPDEST PUSH0 PUSH32 0x7965DB0B00000000000000000000000000000000000000000000000000000000 PUSH28 0xFFFFFFFFFFFFFFFFFFFFFFFFFFFFFFFFFFFFFFFFFFFFFFFFFFFFFFFF NOT AND DUP3 PUSH28 0xFFFFFFFFFFFFFFFFFFFFFFFFFFFFFFFFFFFFFFFFFFFFFFFFFFFFFFFF NOT AND EQ DUP1 PUSH2 0x34D JUMPI POP PUSH2 0x34C DUP3 PUSH2 0x630 JUMP JUMPDEST JUMPDEST SWAP1 POP SWAP2 SWAP1 POP JUMP JUMPDEST PUSH0 DUP1 PUSH0 DUP4 DUP2 MSTORE PUSH1 0x20 ADD SWAP1 DUP2 MSTORE PUSH1 0x20 ADD PUSH0 KECCAK256 PUSH1 0x1 ADD SLOAD SWAP1 POP SWAP2 SWAP1 POP JUMP JUMPDEST PUSH2 0x379 DUP3 PUSH2 0x354 JUMP JUMPDEST PUSH2 0x382 DUP2 PUSH2 0x699 JUMP JUMPDEST PUSH2 0x38C DUP4 DUP4 PUSH2 0x6AD JUMP JUMPDEST POP POP POP JUMP JUMPDEST PUSH2 0x399 PUSH2 0x787 JUMP JUMPDEST PUSH20 0xFFFFFFFFFFFFFFFFFFFFFFFFFFFFFFFFFFFFFFFF AND DUP2 PUSH20 0xFFFFFFFFFFFFFFFFFFFFFFFFFFFFFFFFFFFFFFFF AND EQ PUSH2 0x406 JUMPI PUSH1 0x40 MLOAD PUSH32 0x8C379A000000000000000000000000000000000000000000000000000000000 DUP2 MSTORE PUSH1 0x4 ADD PUSH2 0x3FD SWAP1 PUSH2 0xE3F JUMP JUMPDEST PUSH1 0x40 MLOAD DUP1 SWAP2 SUB SWAP1 REVERT JUMPDEST PUSH2 0x410 DUP3 DUP3 PUSH2 0x78E JUMP JUMPDEST POP POP JUMP JUMPDEST DUP1 DUP3 PUSH32 0xF5704EA1FB9A06B3C4911041793AFD3003EAC5B15756EEF2987E75303F9F34C6 PUSH1 0x40 MLOAD PUSH1 0x40 MLOAD DUP1 SWAP2 SUB SWAP1 LOG3 POP POP JUMP JUMPDEST PUSH32 0xA49807205CE4D355092EF5A8A18F56E8913CF4A201FBE287825B095693C21775 DUP2 JUMP JUMPDEST PUSH0 DUP1 PUSH0 DUP5 DUP2 MSTORE PUSH1 0x20 ADD SWAP1 DUP2 MSTORE PUSH1 0x20 ADD PUSH0 KECCAK256 PUSH0 ADD PUSH0 DUP4 PUSH20 0xFFFFFFFFFFFFFFFFFFFFFFFFFFFFFFFFFFFFFFFF AND PUSH20 0xFFFFFFFFFFFFFFFFFFFFFFFFFFFFFFFFFFFFFFFF AND DUP2 MSTORE PUSH1 0x20 ADD SWAP1 DUP2 MSTORE PUSH1 0x20 ADD PUSH0 KECCAK256 PUSH0 SWAP1 SLOAD SWAP1 PUSH2 0x100 EXP SWAP1 DIV PUSH1 0xFF AND SWAP1 POP SWAP3 SWAP2 POP POP JUMP JUMPDEST PUSH0 DUP1 SHL PUSH2 0x4D9 DUP2 PUSH2 0x699 JUMP JUMPDEST PUSH2 0x503 PUSH32 0xA49807205CE4D355092EF5A8A18F56E8913CF4A201FBE287825B095693C21775 DUP4 PUSH2 0x5DD JUMP JUMPDEST POP POP JUMP JUMPDEST DUP1 DUP3 PUSH32 0x96AF4CFE56C938154CF8986288DFEA262D8B1CAA075204F4679AE517BCEA70B9 PUSH1 0x40 MLOAD PUSH1 0x40 MLOAD DUP1 SWAP2 SUB SWAP1 LOG3 POP POP JUMP JUMPDEST PUSH0 DUP1 SHL DUP2 JUMP JUMPDEST DUP1 DUP3 PUSH32 0x4C4660DB760944215F41E957066D756AD5FD0EED1B4640632322EB06F77B034D PUSH1 0x40 MLOAD PUSH1 0x40 MLOAD DUP1 SWAP2 SUB SWAP1 LOG3 POP POP JUMP JUMPDEST DUP1 DUP3 PUSH32 0xCCCCA5C37CD734D94742D46E24D5FCDC3E6EF8DD90DDA510DAE0E35530ADD4A2 PUSH1 0x40 MLOAD PUSH1 0x40 MLOAD DUP1 SWAP2 SUB SWAP1 LOG3 POP POP JUMP JUMPDEST PUSH0 DUP1 SHL PUSH2 0x5AF DUP2 PUSH2 0x699 JUMP JUMPDEST PUSH2 0x5D9 PUSH32 0xA49807205CE4D355092EF5A8A18F56E8913CF4A201FBE287825B095693C21775 DUP4 PUSH2 0x370 JUMP JUMPDEST POP POP JUMP JUMPDEST PUSH2 0x5E6 DUP3 PUSH2 0x354 JUMP JUMPDEST PUSH2 0x5EF DUP2 PUSH2 0x699 JUMP JUMPDEST PUSH2 0x5F9 DUP4 DUP4 PUSH2 0x78E JUMP JUMPDEST POP POP POP JUMP JUMPDEST DUP1 DUP3 PUSH32 0x51DBB46F6F6D290AC0B2B3FB0B015E2065756F1B9EC382651FE728757BF362FE PUSH1 0x40 MLOAD PUSH1 0x40 MLOAD DUP1 SWAP2 SUB SWAP1 LOG3 POP POP JUMP JUMPDEST PUSH0 PUSH32 0x1FFC9A700000000000000000000000000000000000000000000000000000000 PUSH28 0xFFFFFFFFFFFFFFFFFFFFFFFFFFFFFFFFFFFFFFFFFFFFFFFFFFFFFFFF NOT AND DUP3 PUSH28 0xFFFFFFFFFFFFFFFFFFFFFFFFFFFFFFFFFFFFFFFFFFFFFFFFFFFFFFFF NOT AND EQ SWAP1 POP SWAP2 SWAP1 POP JUMP JUMPDEST PUSH2 0x6AA DUP2 PUSH2 0x6A5 PUSH2 0x787 JUMP JUMPDEST PUSH2 0x868 JUMP JUMPDEST POP JUMP JUMPDEST PUSH2 0x6B7 DUP3 DUP3 PUSH2 0x46A JUMP JUMPDEST PUSH2 0x783 JUMPI PUSH1 0x1 PUSH0 DUP1 DUP5 DUP2 MSTORE PUSH1 0x20 ADD SWAP1 DUP2 MSTORE PUSH1 0x20 ADD PUSH0 KECCAK256 PUSH0 ADD PUSH0 DUP4 PUSH20 0xFFFFFFFFFFFFFFFFFFFFFFFFFFFFFFFFFFFFFFFF AND PUSH20 0xFFFFFFFFFFFFFFFFFFFFFFFFFFFFFFFFFFFFFFFF AND DUP2 MSTORE PUSH1 0x20 ADD SWAP1 DUP2 MSTORE PUSH1 0x20 ADD PUSH0 KECCAK256 PUSH0 PUSH2 0x100 EXP DUP2 SLOAD DUP2 PUSH1 0xFF MUL NOT AND SWAP1 DUP4 ISZERO ISZERO MUL OR SWAP1 SSTORE POP PUSH2 0x728 PUSH2 0x787 JUMP JUMPDEST PUSH20 0xFFFFFFFFFFFFFFFFFFFFFFFFFFFFFFFFFFFFFFFF AND DUP2 PUSH20 0xFFFFFFFFFFFFFFFFFFFFFFFFFFFFFFFFFFFFFFFF AND DUP4 PUSH32 0x2F8788117E7EFF1D82E926EC794901D17C78024A50270940304540A733656F0D PUSH1 0x40 MLOAD PUSH1 0x40 MLOAD DUP1 SWAP2 SUB SWAP1 LOG4 JUMPDEST POP POP JUMP JUMPDEST PUSH0 CALLER SWAP1 POP SWAP1 JUMP JUMPDEST PUSH2 0x798 DUP3 DUP3 PUSH2 0x46A JUMP JUMPDEST ISZERO PUSH2 0x864 JUMPI PUSH0 DUP1 PUSH0 DUP5 DUP2 MSTORE PUSH1 0x20 ADD SWAP1 DUP2 MSTORE PUSH1 0x20 ADD PUSH0 KECCAK256 PUSH0 ADD PUSH0 DUP4 PUSH20 0xFFFFFFFFFFFFFFFFFFFFFFFFFFFFFFFFFFFFFFFF AND PUSH20 0xFFFFFFFFFFFFFFFFFFFFFFFFFFFFFFFFFFFFFFFF AND DUP2 MSTORE PUSH1 0x20 ADD SWAP1 DUP2 MSTORE PUSH1 0x20 ADD PUSH0 KECCAK256 PUSH0 PUSH2 0x100 EXP DUP2 SLOAD DUP2 PUSH1 0xFF MUL NOT AND SWAP1 DUP4 ISZERO ISZERO MUL OR SWAP1 SSTORE POP PUSH2 0x809 PUSH2 0x787 JUMP JUMPDEST PUSH20 0xFFFFFFFFFFFFFFFFFFFFFFFFFFFFFFFFFFFFFFFF AND DUP2 PUSH20 0xFFFFFFFFFFFFFFFFFFFFFFFFFFFFFFFFFFFFFFFF AND DUP4 PUSH32 0xF6391F5C32D9C69D2A47EA670B442974B53935D1EDC7FD64EB21E047A839171B PUSH1 0x40 MLOAD PUSH1 0x40 MLOAD DUP1 SWAP2 SUB SWAP1 LOG4 JUMPDEST POP POP JUMP JUMPDEST PUSH2 0x872 DUP3 DUP3 PUSH2 0x46A JUMP JUMPDEST PUSH2 0x8E8 JUMPI PUSH2 0x87F DUP2 PUSH2 0x8EC JUMP JUMPDEST PUSH2 0x88C DUP4 PUSH0 SHR PUSH1 0x20 PUSH2 0x919 JUMP JUMPDEST PUSH1 0x40 MLOAD PUSH1 0x20 ADD PUSH2 0x89D SWAP3 SWAP2 SWAP1 PUSH2 0xF43 JUMP JUMPDEST PUSH1 0x40 MLOAD PUSH1 0x20 DUP2 DUP4 SUB SUB DUP2 MSTORE SWAP1 PUSH1 0x40 MSTORE PUSH1 0x40 MLOAD PUSH32 0x8C379A000000000000000000000000000000000000000000000000000000000 DUP2 MSTORE PUSH1 0x4 ADD PUSH2 0x8DF SWAP2 SWAP1 PUSH2 0xFC4 JUMP JUMPDEST PUSH1 0x40 MLOAD DUP1 SWAP2 SUB SWAP1 REVERT JUMPDEST POP POP JUMP JUMPDEST PUSH1 0x60 PUSH2 0x912 DUP3 PUSH20 0xFFFFFFFFFFFFFFFFFFFFFFFFFFFFFFFFFFFFFFFF AND PUSH1 0x14 PUSH1 0xFF AND PUSH2 0x919 JUMP JUMPDEST SWAP1 POP SWAP2 SWAP1 POP JUMP JUMPDEST PUSH1 0x60 PUSH0 PUSH1 0x2 DUP4 PUSH1 0x2 PUSH2 0x92B SWAP2 SWAP1 PUSH2 0x1011 JUMP JUMPDEST PUSH2 0x935 SWAP2 SWAP1 PUSH2 0x1052 JUMP JUMPDEST PUSH8 0xFFFFFFFFFFFFFFFF DUP2 GT ISZERO PUSH2 0x94E JUMPI PUSH2 0x94D PUSH2 0x1085 JUMP JUMPDEST JUMPDEST PUSH1 0x40 MLOAD SWAP1 DUP1 DUP3 MSTORE DUP1 PUSH1 0x1F ADD PUSH1 0x1F NOT AND PUSH1 0x20 ADD DUP3 ADD PUSH1 0x40 MSTORE DUP1 ISZERO PUSH2 0x980 JUMPI DUP2 PUSH1 0x20 ADD PUSH1 0x1 DUP3 MUL DUP1 CALLDATASIZE DUP4 CALLDATACOPY DUP1 DUP3 ADD SWAP2 POP POP SWAP1 POP JUMPDEST POP SWAP1 POP PUSH32 0x3000000000000000000000000000000000000000000000000000000000000000 DUP2 PUSH0 DUP2 MLOAD DUP2 LT PUSH2 0x9B7 JUMPI PUSH2 0x9B6 PUSH2 0x10B2 JUMP JUMPDEST JUMPDEST PUSH1 0x20 ADD ADD SWAP1 PUSH31 0xFFFFFFFFFFFFFFFFFFFFFFFFFFFFFFFFFFFFFFFFFFFFFFFFFFFFFFFFFFFFFF NOT AND SWAP1 DUP2 PUSH0 BYTE SWAP1 MSTORE8 POP PUSH32 0x7800000000000000000000000000000000000000000000000000000000000000 DUP2 PUSH1 0x1 DUP2 MLOAD DUP2 LT PUSH2 0xA1A JUMPI PUSH2 0xA19 PUSH2 0x10B2 JUMP JUMPDEST JUMPDEST PUSH1 0x20 ADD ADD SWAP1 PUSH31 0xFFFFFFFFFFFFFFFFFFFFFFFFFFFFFFFFFFFFFFFFFFFFFFFFFFFFFFFFFFFFFF NOT AND SWAP1 DUP2 PUSH0 BYTE SWAP1 MSTORE8 POP PUSH0 PUSH1 0x1 DUP5 PUSH1 0x2 PUSH2 0xA58 SWAP2 SWAP1 PUSH2 0x1011 JUMP JUMPDEST PUSH2 0xA62 SWAP2 SWAP1 PUSH2 0x1052 JUMP JUMPDEST SWAP1 POP JUMPDEST PUSH1 0x1 DUP2 GT ISZERO PUSH2 0xB01 JUMPI PUSH32 0x3031323334353637383961626364656600000000000000000000000000000000 PUSH1 0xF DUP7 AND PUSH1 0x10 DUP2 LT PUSH2 0xAA4 JUMPI PUSH2 0xAA3 PUSH2 0x10B2 JUMP JUMPDEST JUMPDEST BYTE PUSH1 0xF8 SHL DUP3 DUP3 DUP2 MLOAD DUP2 LT PUSH2 0xABB JUMPI PUSH2 0xABA PUSH2 0x10B2 JUMP JUMPDEST JUMPDEST PUSH1 0x20 ADD ADD SWAP1 PUSH31 0xFFFFFFFFFFFFFFFFFFFFFFFFFFFFFFFFFFFFFFFFFFFFFFFFFFFFFFFFFFFFFF NOT AND SWAP1 DUP2 PUSH0 BYTE SWAP1 MSTORE8 POP PUSH1 0x4 DUP6 SWAP1 SHR SWAP5 POP DUP1 PUSH2 0xAFA SWAP1 PUSH2 0x10DF JUMP JUMPDEST SWAP1 POP PUSH2 0xA65 JUMP JUMPDEST POP PUSH0 DUP5 EQ PUSH2 0xB44 JUMPI PUSH1 0x40 MLOAD PUSH32 0x8C379A000000000000000000000000000000000000000000000000000000000 DUP2 MSTORE PUSH1 0x4 ADD PUSH2 0xB3B SWAP1 PUSH2 0x1150 JUMP JUMPDEST PUSH1 0x40 MLOAD DUP1 SWAP2 SUB SWAP1 REVERT JUMPDEST DUP1 SWAP2 POP POP SWAP3 SWAP2 POP POP JUMP JUMPDEST PUSH0 DUP1 REVERT JUMPDEST PUSH0 PUSH32 0xFFFFFFFF00000000000000000000000000000000000000000000000000000000 DUP3 AND SWAP1 POP SWAP2 SWAP1 POP JUMP JUMPDEST PUSH2 0xB86 DUP2 PUSH2 0xB52 JUMP JUMPDEST DUP2 EQ PUSH2 0xB90 JUMPI PUSH0 DUP1 REVERT JUMPDEST POP JUMP JUMPDEST PUSH0 DUP2 CALLDATALOAD SWAP1 POP PUSH2 0xBA1 DUP2 PUSH2 0xB7D JUMP JUMPDEST SWAP3 SWAP2 POP POP JUMP JUMPDEST PUSH0 PUSH1 0x20 DUP3 DUP5 SUB SLT ISZERO PUSH2 0xBBC JUMPI PUSH2 0xBBB PUSH2 0xB4E JUMP JUMPDEST JUMPDEST PUSH0 PUSH2 0xBC9 DUP5 DUP3 DUP6 ADD PUSH2 0xB93 JUMP JUMPDEST SWAP2 POP POP SWAP3 SWAP2 POP POP JUMP JUMPDEST PUSH0 DUP2 ISZERO ISZERO SWAP1 POP SWAP2 SWAP1 POP JUMP JUMPDEST PUSH2 0xBE6 DUP2 PUSH2 0xBD2 JUMP JUMPDEST DUP3 MSTORE POP POP JUMP JUMPDEST PUSH0 PUSH1 0x20 DUP3 ADD SWAP1 POP PUSH2 0xBFF PUSH0 DUP4 ADD DUP5 PUSH2 0xBDD JUMP JUMPDEST SWAP3 SWAP2 POP POP JUMP JUMPDEST PUSH0 DUP2 SWAP1 POP SWAP2 SWAP1 POP JUMP JUMPDEST PUSH2 0xC17 DUP2 PUSH2 0xC05 JUMP JUMPDEST DUP2 EQ PUSH2 0xC21 JUMPI PUSH0 DUP1 REVERT JUMPDEST POP JUMP JUMPDEST PUSH0 DUP2 CALLDATALOAD SWAP1 POP PUSH2 0xC32 DUP2 PUSH2 0xC0E JUMP JUMPDEST SWAP3 SWAP2 POP POP JUMP JUMPDEST PUSH0 PUSH1 0x20 DUP3 DUP5 SUB SLT ISZERO PUSH2 0xC4D JUMPI PUSH2 0xC4C PUSH2 0xB4E JUMP JUMPDEST JUMPDEST PUSH0 PUSH2 0xC5A DUP5 DUP3 DUP6 ADD PUSH2 0xC24 JUMP JUMPDEST SWAP2 POP POP SWAP3 SWAP2 POP POP JUMP JUMPDEST PUSH2 0xC6C DUP2 PUSH2 0xC05 JUMP JUMPDEST DUP3 MSTORE POP POP JUMP JUMPDEST PUSH0 PUSH1 0x20 DUP3 ADD SWAP1 POP PUSH2 0xC85 PUSH0 DUP4 ADD DUP5 PUSH2 0xC63 JUMP JUMPDEST SWAP3 SWAP2 POP POP JUMP JUMPDEST PUSH0 PUSH20 0xFFFFFFFFFFFFFFFFFFFFFFFFFFFFFFFFFFFFFFFF DUP3 AND SWAP1 POP SWAP2 SWAP1 POP JUMP JUMPDEST PUSH0 PUSH2 0xCB4 DUP3 PUSH2 0xC8B JUMP JUMPDEST SWAP1 POP SWAP2 SWAP1 POP JUMP JUMPDEST PUSH2 0xCC4 DUP2 PUSH2 0xCAA JUMP JUMPDEST DUP2 EQ PUSH2 0xCCE JUMPI PUSH0 DUP1 REVERT JUMPDEST POP JUMP JUMPDEST PUSH0 DUP2 CALLDATALOAD SWAP1 POP PUSH2 0xCDF DUP2 PUSH2 0xCBB JUMP JUMPDEST SWAP3 SWAP2 POP POP JUMP JUMPDEST PUSH0 DUP1 PUSH1 0x40 DUP4 DUP6 SUB SLT ISZERO PUSH2 0xCFB JUMPI PUSH2 0xCFA PUSH2 0xB4E JUMP JUMPDEST JUMPDEST PUSH0 PUSH2 0xD08 DUP6 DUP3 DUP7 ADD PUSH2 0xC24 JUMP JUMPDEST SWAP3 POP POP PUSH1 0x20 PUSH2 0xD19 DUP6 DUP3 DUP7 ADD PUSH2 0xCD1 JUMP JUMPDEST SWAP2 POP POP SWAP3 POP SWAP3 SWAP1 POP JUMP JUMPDEST PUSH0 DUP2 SWAP1 POP SWAP2 SWAP1 POP JUMP JUMPDEST PUSH2 0xD35 DUP2 PUSH2 0xD23 JUMP JUMPDEST DUP2 EQ PUSH2 0xD3F JUMPI PUSH0 DUP1 REVERT JUMPDEST POP JUMP JUMPDEST PUSH0 DUP2 CALLDATALOAD SWAP1 POP PUSH2 0xD50 DUP2 PUSH2 0xD2C JUMP JUMPDEST SWAP3 SWAP2 POP POP JUMP JUMPDEST PUSH0 DUP1 PUSH1 0x40 DUP4 DUP6 SUB SLT ISZERO PUSH2 0xD6C JUMPI PUSH2 0xD6B PUSH2 0xB4E JUMP JUMPDEST JUMPDEST PUSH0 PUSH2 0xD79 DUP6 DUP3 DUP7 ADD PUSH2 0xD42 JUMP JUMPDEST SWAP3 POP POP PUSH1 0x20 PUSH2 0xD8A DUP6 DUP3 DUP7 ADD PUSH2 0xD42 JUMP JUMPDEST SWAP2 POP POP SWAP3 POP SWAP3 SWAP1 POP JUMP JUMPDEST PUSH0 PUSH1 0x20 DUP3 DUP5 SUB SLT ISZERO PUSH2 0xDA9 JUMPI PUSH2 0xDA8 PUSH2 0xB4E JUMP JUMPDEST JUMPDEST PUSH0 PUSH2 0xDB6 DUP5 DUP3 DUP6 ADD PUSH2 0xCD1 JUMP JUMPDEST SWAP2 POP POP SWAP3 SWAP2 POP POP JUMP JUMPDEST PUSH0 DUP3 DUP3 MSTORE PUSH1 0x20 DUP3 ADD SWAP1 POP SWAP3 SWAP2 POP POP JUMP JUMPDEST PUSH32 0x416363657373436F6E74726F6C3A2063616E206F6E6C792072656E6F756E6365 PUSH0 DUP3 ADD MSTORE PUSH32 0x20726F6C657320666F722073656C660000000000000000000000000000000000 PUSH1 0x20 DUP3 ADD MSTORE POP JUMP JUMPDEST PUSH0 PUSH2 0xE29 PUSH1 0x2F DUP4 PUSH2 0xDBF JUMP JUMPDEST SWAP2 POP PUSH2 0xE34 DUP3 PUSH2 0xDCF JUMP JUMPDEST PUSH1 0x40 DUP3 ADD SWAP1 POP SWAP2 SWAP1 POP JUMP JUMPDEST PUSH0 PUSH1 0x20 DUP3 ADD SWAP1 POP DUP2 DUP2 SUB PUSH0 DUP4 ADD MSTORE PUSH2 0xE56 DUP2 PUSH2 0xE1D JUMP JUMPDEST SWAP1 POP SWAP2 SWAP1 POP JUMP JUMPDEST PUSH0 DUP2 SWAP1 POP SWAP3 SWAP2 POP POP JUMP JUMPDEST PUSH32 0x416363657373436F6E74726F6C3A206163636F756E7420000000000000000000 PUSH0 DUP3 ADD MSTORE POP JUMP JUMPDEST PUSH0 PUSH2 0xE9B PUSH1 0x17 DUP4 PUSH2 0xE5D JUMP JUMPDEST SWAP2 POP PUSH2 0xEA6 DUP3 PUSH2 0xE67 JUMP JUMPDEST PUSH1 0x17 DUP3 ADD SWAP1 POP SWAP2 SWAP1 POP JUMP JUMPDEST PUSH0 DUP2 MLOAD SWAP1 POP SWAP2 SWAP1 POP JUMP JUMPDEST DUP3 DUP2 DUP4 MCOPY PUSH0 DUP4 DUP4 ADD MSTORE POP POP POP JUMP JUMPDEST PUSH0 PUSH2 0xED3 DUP3 PUSH2 0xEB1 JUMP JUMPDEST PUSH2 0xEDD DUP2 DUP6 PUSH2 0xE5D JUMP JUMPDEST SWAP4 POP PUSH2 0xEED DUP2 DUP6 PUSH1 0x20 DUP7 ADD PUSH2 0xEBB JUMP JUMPDEST DUP1 DUP5 ADD SWAP2 POP POP SWAP3 SWAP2 POP POP JUMP JUMPDEST PUSH32 0x206973206D697373696E6720726F6C6520000000000000000000000000000000 PUSH0 DUP3 ADD MSTORE POP JUMP JUMPDEST PUSH0 PUSH2 0xF2D PUSH1 0x11 DUP4 PUSH2 0xE5D JUMP JUMPDEST SWAP2 POP PUSH2 0xF38 DUP3 PUSH2 0xEF9 JUMP JUMPDEST PUSH1 0x11 DUP3 ADD SWAP1 POP SWAP2 SWAP1 POP JUMP JUMPDEST PUSH0 PUSH2 0xF4D DUP3 PUSH2 0xE8F JUMP JUMPDEST SWAP2 POP PUSH2 0xF59 DUP3 DUP6 PUSH2 0xEC9 JUMP JUMPDEST SWAP2 POP PUSH2 0xF64 DUP3 PUSH2 0xF21 JUMP JUMPDEST SWAP2 POP PUSH2 0xF70 DUP3 DUP5 PUSH2 0xEC9 JUMP JUMPDEST SWAP2 POP DUP2 SWAP1 POP SWAP4 SWAP3 POP POP POP JUMP JUMPDEST PUSH0 PUSH1 0x1F NOT PUSH1 0x1F DUP4 ADD AND SWAP1 POP SWAP2 SWAP1 POP JUMP JUMPDEST PUSH0 PUSH2 0xF96 DUP3 PUSH2 0xEB1 JUMP JUMPDEST PUSH2 0xFA0 DUP2 DUP6 PUSH2 0xDBF JUMP JUMPDEST SWAP4 POP PUSH2 0xFB0 DUP2 DUP6 PUSH1 0x20 DUP7 ADD PUSH2 0xEBB JUMP JUMPDEST PUSH2 0xFB9 DUP2 PUSH2 0xF7C JUMP JUMPDEST DUP5 ADD SWAP2 POP POP SWAP3 SWAP2 POP POP JUMP JUMPDEST PUSH0 PUSH1 0x20 DUP3 ADD SWAP1 POP DUP2 DUP2 SUB PUSH0 DUP4 ADD MSTORE PUSH2 0xFDC DUP2 DUP5 PUSH2 0xF8C JUMP JUMPDEST SWAP1 POP SWAP3 SWAP2 POP POP JUMP JUMPDEST PUSH32 0x4E487B7100000000000000000000000000000000000000000000000000000000 PUSH0 MSTORE PUSH1 0x11 PUSH1 0x4 MSTORE PUSH1 0x24 PUSH0 REVERT JUMPDEST PUSH0 PUSH2 0x101B DUP3 PUSH2 0xD23 JUMP JUMPDEST SWAP2 POP PUSH2 0x1026 DUP4 PUSH2 0xD23 JUMP JUMPDEST SWAP3 POP DUP3 DUP3 MUL PUSH2 0x1034 DUP2 PUSH2 0xD23 JUMP JUMPDEST SWAP2 POP DUP3 DUP3 DIV DUP5 EQ DUP4 ISZERO OR PUSH2 0x104B JUMPI PUSH2 0x104A PUSH2 0xFE4 JUMP JUMPDEST JUMPDEST POP SWAP3 SWAP2 POP POP JUMP JUMPDEST PUSH0 PUSH2 0x105C DUP3 PUSH2 0xD23 JUMP JUMPDEST SWAP2 POP PUSH2 0x1067 DUP4 PUSH2 0xD23 JUMP JUMPDEST SWAP3 POP DUP3 DUP3 ADD SWAP1 POP DUP1 DUP3 GT ISZERO PUSH2 0x107F JUMPI PUSH2 0x107E PUSH2 0xFE4 JUMP JUMPDEST JUMPDEST SWAP3 SWAP2 POP POP JUMP JUMPDEST PUSH32 0x4E487B7100000000000000000000000000000000000000000000000000000000 PUSH0 MSTORE PUSH1 0x41 PUSH1 0x4 MSTORE PUSH1 0x24 PUSH0 REVERT JUMPDEST PUSH32 0x4E487B7100000000000000000000000000000000000000000000000000000000 PUSH0 MSTORE PUSH1 0x32 PUSH1 0x4 MSTORE PUSH1 0x24 PUSH0 REVERT JUMPDEST PUSH0 PUSH2 0x10E9 DUP3 PUSH2 0xD23 JUMP JUMPDEST SWAP2 POP PUSH0 DUP3 SUB PUSH2 0x10FB JUMPI PUSH2 0x10FA PUSH2 0xFE4 JUMP JUMPDEST JUMPDEST PUSH1 0x1 DUP3 SUB SWAP1 POP SWAP2 SWAP1 POP JUMP JUMPDEST PUSH32 0x537472696E67733A20686578206C656E67746820696E73756666696369656E74 PUSH0 DUP3 ADD MSTORE POP JUMP JUMPDEST PUSH0 PUSH2 0x113A PUSH1 0x20 DUP4 PUSH2 0xDBF JUMP JUMPDEST SWAP2 POP PUSH2 0x1145 DUP3 PUSH2 0x1106 JUMP JUMPDEST PUSH1 0x20 DUP3 ADD SWAP1 POP SWAP2 SWAP1 POP JUMP JUMPDEST PUSH0 PUSH1 0x20 DUP3 ADD SWAP1 POP DUP2 DUP2 SUB PUSH0 DUP4 ADD MSTORE PUSH2 0x1167 DUP2 PUSH2 0x112E JUMP JUMPDEST SWAP1 POP SWAP2 SWAP1 POP JUMP INVALID LOG2 PUSH5 0x6970667358 0x22 SLT KECCAK256 SWAP10 TIMESTAMP 0xA5 0xAB JUMP SGT PUSH9 0x36E7849D764E111D51 0xCD 0x2B 0xA8 RETURN 0xD5 0xE9 0xB0 0xE3 SWAP4 CODESIZE 0xB4 PUSH31 0x9CA50A7D64736F6C634300081A003300000000000000000000000000000000 "
				},
				"gasEstimates": {
					"creation": {
						"codeDepositCost": "903200",
						"executionCost": "infinite",
						"totalCost": "infinite"
					},
					"external": {
						"ADMIN_ROLE()": "392",
						"DEFAULT_ADMIN_ROLE()": "397",
						"gameEnd(uint256,uint256)": "infinite",
						"gameLike(uint256,uint256)": "infinite",
						"gamePause(uint256,uint256)": "infinite",
						"gamePlay(uint256,uint256)": "infinite",
						"gameUnPause(uint256,uint256)": "infinite",
						"getRoleAdmin(bytes32)": "infinite",
						"grantAdminRole(address)": "infinite",
						"grantRole(bytes32,address)": "infinite",
						"hasRole(bytes32,address)": "3211",
						"renounceRole(bytes32,address)": "infinite",
						"revokeAdminRole(address)": "infinite",
						"revokeRole(bytes32,address)": "infinite",
						"supportsInterface(bytes4)": "741"
					}
				},
				"methodIdentifiers": {
					"ADMIN_ROLE()": "75b238fc",
					"DEFAULT_ADMIN_ROLE()": "a217fddf",
					"gameEnd(uint256,uint256)": "aac2094a",
					"gameLike(uint256,uint256)": "f58ee354",
					"gamePause(uint256,uint256)": "66c77df7",
					"gamePlay(uint256,uint256)": "c02725f0",
					"gameUnPause(uint256,uint256)": "9b4c7ced",
					"getRoleAdmin(bytes32)": "248a9ca3",
					"grantAdminRole(address)": "c634b78e",
					"grantRole(bytes32,address)": "2f2ff15d",
					"hasRole(bytes32,address)": "91d14854",
					"renounceRole(bytes32,address)": "36568abe",
					"revokeAdminRole(address)": "9a19c7b0",
					"revokeRole(bytes32,address)": "d547741f",
					"supportsInterface(bytes4)": "01ffc9a7"
				}
			},
			"storageLayout": {
				"storage": [
					{
						"astId": 175,
						"contract": "contracts/v2/TikTrixAction.sol:TikTrixAction",
						"label": "_roles",
						"offset": 0,
						"slot": "0",
						"type": "t_mapping(t_bytes32,t_struct(RoleData)170_storage)"
					}
				],
				"types": {
					"t_address": {
						"encoding": "inplace",
						"label": "address",
						"numberOfBytes": "20"
					},
					"t_bool": {
						"encoding": "inplace",
						"label": "bool",
						"numberOfBytes": "1"
					},
					"t_bytes32": {
						"encoding": "inplace",
						"label": "bytes32",
						"numberOfBytes": "32"
					},
					"t_mapping(t_address,t_bool)": {
						"encoding": "mapping",
						"key": "t_address",
						"label": "mapping(address => bool)",
						"numberOfBytes": "32",
						"value": "t_bool"
					},
					"t_mapping(t_bytes32,t_struct(RoleData)170_storage)": {
						"encoding": "mapping",
						"key": "t_bytes32",
						"label": "mapping(bytes32 => struct AccessControl.RoleData)",
						"numberOfBytes": "32",
						"value": "t_struct(RoleData)170_storage"
					},
					"t_struct(RoleData)170_storage": {
						"encoding": "inplace",
						"label": "struct AccessControl.RoleData",
						"members": [
							{
								"astId": 167,
								"contract": "contracts/v2/TikTrixAction.sol:TikTrixAction",
								"label": "members",
								"offset": 0,
								"slot": "0",
								"type": "t_mapping(t_address,t_bool)"
							},
							{
								"astId": 169,
								"contract": "contracts/v2/TikTrixAction.sol:TikTrixAction",
								"label": "adminRole",
								"offset": 0,
								"slot": "1",
								"type": "t_bytes32"
							}
						],
						"numberOfBytes": "64"
					}
				}
			},
			"userdoc": {
				"kind": "user",
				"methods": {},
				"version": 1
			}
		}
	}
}