{
	"contracts/v2/TikTrixEscrow.sol": {
		"TikTrixEscrow": {
			"abi": [
				{
					"inputs": [
						{
							"internalType": "address",
							"name": "entTokenAddress",
							"type": "address"
						},
						{
							"internalType": "address",
							"name": "rptTokenAddress",
							"type": "address"
						}
					],
					"stateMutability": "nonpayable",
					"type": "constructor"
				},
				{
					"anonymous": false,
					"inputs": [
						{
							"indexed": true,
							"internalType": "uint256",
							"name": "yyyymmdd",
							"type": "uint256"
						},
						{
							"indexed": true,
							"internalType": "uint256",
							"name": "gameSeq",
							"type": "uint256"
						},
						{
							"indexed": true,
							"internalType": "uint256",
							"name": "memberSeq",
							"type": "uint256"
						},
						{
							"indexed": false,
							"internalType": "uint256",
							"name": "tokenAmount",
							"type": "uint256"
						}
					],
					"name": "ChallengeRegistred",
					"type": "event"
				},
				{
					"anonymous": false,
					"inputs": [
						{
							"indexed": false,
							"internalType": "uint256",
							"name": "memberSeq",
							"type": "uint256"
						},
						{
							"indexed": false,
							"internalType": "uint256",
							"name": "tokenAmount",
							"type": "uint256"
						}
					],
					"name": "MemberRegistered",
					"type": "event"
				},
				{
					"anonymous": false,
					"inputs": [
						{
							"indexed": false,
							"internalType": "address[]",
							"name": "recipients",
							"type": "address[]"
						},
						{
							"indexed": false,
							"internalType": "uint256[]",
							"name": "tokenAmounts",
							"type": "uint256[]"
						}
					],
					"name": "PrizesDistributed",
					"type": "event"
				},
				{
					"anonymous": false,
					"inputs": [
						{
							"indexed": true,
							"internalType": "uint256",
							"name": "yyyymmdd",
							"type": "uint256"
						},
						{
							"indexed": true,
							"internalType": "uint256",
							"name": "gameSeq",
							"type": "uint256"
						},
						{
							"indexed": true,
							"internalType": "uint256",
							"name": "memberSeq",
							"type": "uint256"
						},
						{
							"indexed": false,
							"internalType": "uint256",
							"name": "newScore",
							"type": "uint256"
						}
					],
					"name": "RankScoreUpdateChallenge",
					"type": "event"
				},
				{
					"anonymous": false,
					"inputs": [
						{
							"indexed": true,
							"internalType": "uint256",
							"name": "yyyymmdd",
							"type": "uint256"
						},
						{
							"indexed": true,
							"internalType": "uint256",
							"name": "gameSeq",
							"type": "uint256"
						},
						{
							"indexed": true,
							"internalType": "uint256",
							"name": "memberSeq",
							"type": "uint256"
						},
						{
							"indexed": false,
							"internalType": "uint256",
							"name": "newScore",
							"type": "uint256"
						}
					],
					"name": "RankScoreUpdateNoraml",
					"type": "event"
				},
				{
					"anonymous": false,
					"inputs": [
						{
							"indexed": true,
							"internalType": "bytes32",
							"name": "role",
							"type": "bytes32"
						},
						{
							"indexed": true,
							"internalType": "bytes32",
							"name": "previousAdminRole",
							"type": "bytes32"
						},
						{
							"indexed": true,
							"internalType": "bytes32",
							"name": "newAdminRole",
							"type": "bytes32"
						}
					],
					"name": "RoleAdminChanged",
					"type": "event"
				},
				{
					"anonymous": false,
					"inputs": [
						{
							"indexed": true,
							"internalType": "bytes32",
							"name": "role",
							"type": "bytes32"
						},
						{
							"indexed": true,
							"internalType": "address",
							"name": "account",
							"type": "address"
						},
						{
							"indexed": true,
							"internalType": "address",
							"name": "sender",
							"type": "address"
						}
					],
					"name": "RoleGranted",
					"type": "event"
				},
				{
					"anonymous": false,
					"inputs": [
						{
							"indexed": true,
							"internalType": "bytes32",
							"name": "role",
							"type": "bytes32"
						},
						{
							"indexed": true,
							"internalType": "address",
							"name": "account",
							"type": "address"
						},
						{
							"indexed": true,
							"internalType": "address",
							"name": "sender",
							"type": "address"
						}
					],
					"name": "RoleRevoked",
					"type": "event"
				},
				{
					"inputs": [],
					"name": "ADMIN_ROLE",
					"outputs": [
						{
							"internalType": "bytes32",
							"name": "",
							"type": "bytes32"
						}
					],
					"stateMutability": "view",
					"type": "function"
				},
				{
					"inputs": [],
					"name": "DEFAULT_ADMIN_ROLE",
					"outputs": [
						{
							"internalType": "bytes32",
							"name": "",
							"type": "bytes32"
						}
					],
					"stateMutability": "view",
					"type": "function"
				},
				{
					"inputs": [
						{
							"internalType": "uint256",
							"name": "yyyymmdd",
							"type": "uint256"
						},
						{
							"internalType": "uint256",
							"name": "gameSeq",
							"type": "uint256"
						},
						{
							"internalType": "uint256",
							"name": "memberSeq",
							"type": "uint256"
						},
						{
							"internalType": "uint256",
							"name": "tokenAmount",
							"type": "uint256"
						}
					],
					"name": "challengeRegister",
					"outputs": [],
					"stateMutability": "nonpayable",
					"type": "function"
				},
				{
					"inputs": [
						{
							"internalType": "uint256",
							"name": "",
							"type": "uint256"
						},
						{
							"internalType": "uint256",
							"name": "",
							"type": "uint256"
						},
						{
							"internalType": "uint256",
							"name": "",
							"type": "uint256"
						}
					],
					"name": "challengeScores",
					"outputs": [
						{
							"internalType": "uint256",
							"name": "gameSeq",
							"type": "uint256"
						},
						{
							"internalType": "uint256",
							"name": "memberSeq",
							"type": "uint256"
						},
						{
							"internalType": "uint256",
							"name": "tokenAmount",
							"type": "uint256"
						},
						{
							"internalType": "uint256",
							"name": "score",
							"type": "uint256"
						},
						{
							"internalType": "bool",
							"name": "exists",
							"type": "bool"
						}
					],
					"stateMutability": "view",
					"type": "function"
				},
				{
					"inputs": [
						{
							"internalType": "address[]",
							"name": "recipients",
							"type": "address[]"
						},
						{
							"internalType": "uint256[]",
							"name": "tokenAmounts",
							"type": "uint256[]"
						}
					],
					"name": "distributePrizes",
					"outputs": [],
					"stateMutability": "nonpayable",
					"type": "function"
				},
				{
					"inputs": [],
					"name": "entToken",
					"outputs": [
						{
							"internalType": "contract IERC20Mintable",
							"name": "",
							"type": "address"
						}
					],
					"stateMutability": "view",
					"type": "function"
				},
				{
					"inputs": [
						{
							"internalType": "uint256",
							"name": "yyyymmdd",
							"type": "uint256"
						},
						{
							"internalType": "uint256",
							"name": "gameSeq",
							"type": "uint256"
						},
						{
							"internalType": "uint256",
							"name": "memberSeq",
							"type": "uint256"
						}
					],
					"name": "getChallengeScore",
					"outputs": [
						{
							"components": [
								{
									"internalType": "uint256",
									"name": "gameSeq",
									"type": "uint256"
								},
								{
									"internalType": "uint256",
									"name": "memberSeq",
									"type": "uint256"
								},
								{
									"internalType": "uint256",
									"name": "tokenAmount",
									"type": "uint256"
								},
								{
									"internalType": "uint256",
									"name": "score",
									"type": "uint256"
								},
								{
									"internalType": "bool",
									"name": "exists",
									"type": "bool"
								}
							],
							"internalType": "struct TikTrixEscrow.ChallengeScore",
							"name": "",
							"type": "tuple"
						}
					],
					"stateMutability": "view",
					"type": "function"
				},
				{
					"inputs": [
						{
							"internalType": "uint256",
							"name": "memberSeq",
							"type": "uint256"
						}
					],
					"name": "getMemberInfo",
					"outputs": [
						{
							"components": [
								{
									"internalType": "uint256",
									"name": "memberSeq",
									"type": "uint256"
								}
							],
							"internalType": "struct TikTrixEscrow.MemberInfo",
							"name": "",
							"type": "tuple"
						}
					],
					"stateMutability": "view",
					"type": "function"
				},
				{
					"inputs": [
						{
							"internalType": "bytes32",
							"name": "role",
							"type": "bytes32"
						}
					],
					"name": "getRoleAdmin",
					"outputs": [
						{
							"internalType": "bytes32",
							"name": "",
							"type": "bytes32"
						}
					],
					"stateMutability": "view",
					"type": "function"
				},
				{
					"inputs": [
						{
							"internalType": "address",
							"name": "account",
							"type": "address"
						}
					],
					"name": "grantAdminRole",
					"outputs": [],
					"stateMutability": "nonpayable",
					"type": "function"
				},
				{
					"inputs": [
						{
							"internalType": "bytes32",
							"name": "role",
							"type": "bytes32"
						},
						{
							"internalType": "address",
							"name": "account",
							"type": "address"
						}
					],
					"name": "grantRole",
					"outputs": [],
					"stateMutability": "nonpayable",
					"type": "function"
				},
				{
					"inputs": [
						{
							"internalType": "bytes32",
							"name": "role",
							"type": "bytes32"
						},
						{
							"internalType": "address",
							"name": "account",
							"type": "address"
						}
					],
					"name": "hasRole",
					"outputs": [
						{
							"internalType": "bool",
							"name": "",
							"type": "bool"
						}
					],
					"stateMutability": "view",
					"type": "function"
				},
				{
					"inputs": [
						{
							"internalType": "uint256",
							"name": "",
							"type": "uint256"
						}
					],
					"name": "memberIds",
					"outputs": [
						{
							"internalType": "uint256",
							"name": "",
							"type": "uint256"
						}
					],
					"stateMutability": "view",
					"type": "function"
				},
				{
					"inputs": [
						{
							"internalType": "uint256",
							"name": "",
							"type": "uint256"
						}
					],
					"name": "memberInfos",
					"outputs": [
						{
							"internalType": "uint256",
							"name": "memberSeq",
							"type": "uint256"
						}
					],
					"stateMutability": "view",
					"type": "function"
				},
				{
					"inputs": [
						{
							"internalType": "uint256",
							"name": "memberSeq",
							"type": "uint256"
						},
						{
							"internalType": "address",
							"name": "mintAddress",
							"type": "address"
						},
						{
							"internalType": "uint256",
							"name": "tokenAmount",
							"type": "uint256"
						}
					],
					"name": "memberRegister",
					"outputs": [],
					"stateMutability": "nonpayable",
					"type": "function"
				},
				{
					"inputs": [
						{
							"internalType": "uint256",
							"name": "",
							"type": "uint256"
						},
						{
							"internalType": "uint256",
							"name": "",
							"type": "uint256"
						},
						{
							"internalType": "uint256",
							"name": "",
							"type": "uint256"
						}
					],
					"name": "normalScores",
					"outputs": [
						{
							"internalType": "uint256",
							"name": "gameSeq",
							"type": "uint256"
						},
						{
							"internalType": "uint256",
							"name": "memberSeq",
							"type": "uint256"
						},
						{
							"internalType": "uint256",
							"name": "score",
							"type": "uint256"
						},
						{
							"internalType": "bool",
							"name": "exists",
							"type": "bool"
						}
					],
					"stateMutability": "view",
					"type": "function"
				},
				{
					"inputs": [
						{
							"internalType": "uint256",
							"name": "yyyymmdd",
							"type": "uint256"
						},
						{
							"internalType": "uint256",
							"name": "gameSeq",
							"type": "uint256"
						},
						{
							"internalType": "uint256",
							"name": "memberSeq",
							"type": "uint256"
						},
						{
							"internalType": "uint256",
							"name": "newScore",
							"type": "uint256"
						}
					],
					"name": "rankScoreUpdateChallenge",
					"outputs": [],
					"stateMutability": "nonpayable",
					"type": "function"
				},
				{
					"inputs": [
						{
							"internalType": "uint256",
							"name": "yyyymmdd",
							"type": "uint256"
						},
						{
							"internalType": "uint256",
							"name": "gameSeq",
							"type": "uint256"
						},
						{
							"internalType": "uint256",
							"name": "memberSeq",
							"type": "uint256"
						},
						{
							"internalType": "uint256",
							"name": "newScore",
							"type": "uint256"
						}
					],
					"name": "rankScoreUpdateNormal",
					"outputs": [],
					"stateMutability": "nonpayable",
					"type": "function"
				},
				{
					"inputs": [
						{
							"internalType": "bytes32",
							"name": "role",
							"type": "bytes32"
						},
						{
							"internalType": "address",
							"name": "account",
							"type": "address"
						}
					],
					"name": "renounceRole",
					"outputs": [],
					"stateMutability": "nonpayable",
					"type": "function"
				},
				{
					"inputs": [
						{
							"internalType": "address",
							"name": "account",
							"type": "address"
						}
					],
					"name": "revokeAdminRole",
					"outputs": [],
					"stateMutability": "nonpayable",
					"type": "function"
				},
				{
					"inputs": [
						{
							"internalType": "bytes32",
							"name": "role",
							"type": "bytes32"
						},
						{
							"internalType": "address",
							"name": "account",
							"type": "address"
						}
					],
					"name": "revokeRole",
					"outputs": [],
					"stateMutability": "nonpayable",
					"type": "function"
				},
				{
					"inputs": [],
					"name": "rptToken",
					"outputs": [
						{
							"internalType": "contract IERC20Mintable",
							"name": "",
							"type": "address"
						}
					],
					"stateMutability": "view",
					"type": "function"
				},
				{
					"inputs": [
						{
							"internalType": "address",
							"name": "entTokenAddress",
							"type": "address"
						},
						{
							"internalType": "address",
							"name": "rptTokenAddress",
							"type": "address"
						}
					],
					"name": "setTokens",
					"outputs": [],
					"stateMutability": "nonpayable",
					"type": "function"
				},
				{
					"inputs": [
						{
							"internalType": "bytes4",
							"name": "interfaceId",
							"type": "bytes4"
						}
					],
					"name": "supportsInterface",
					"outputs": [
						{
							"internalType": "bool",
							"name": "",
							"type": "bool"
						}
					],
					"stateMutability": "view",
					"type": "function"
				}
			],
			"devdoc": {
				"events": {
					"RoleAdminChanged(bytes32,bytes32,bytes32)": {
						"details": "Emitted when `newAdminRole` is set as ``role``'s admin role, replacing `previousAdminRole` `DEFAULT_ADMIN_ROLE` is the starting admin for all roles, despite {RoleAdminChanged} not being emitted signaling this. _Available since v3.1._"
					},
					"RoleGranted(bytes32,address,address)": {
						"details": "Emitted when `account` is granted `role`. `sender` is the account that originated the contract call, an admin role bearer except when using {AccessControl-_setupRole}."
					},
					"RoleRevoked(bytes32,address,address)": {
						"details": "Emitted when `account` is revoked `role`. `sender` is the account that originated the contract call:   - if using `revokeRole`, it is the admin role bearer   - if using `renounceRole`, it is the role bearer (i.e. `account`)"
					}
				},
				"kind": "dev",
				"methods": {
					"getRoleAdmin(bytes32)": {
						"details": "Returns the admin role that controls `role`. See {grantRole} and {revokeRole}. To change a role's admin, use {_setRoleAdmin}."
					},
					"grantRole(bytes32,address)": {
						"details": "Grants `role` to `account`. If `account` had not been already granted `role`, emits a {RoleGranted} event. Requirements: - the caller must have ``role``'s admin role. May emit a {RoleGranted} event."
					},
					"hasRole(bytes32,address)": {
						"details": "Returns `true` if `account` has been granted `role`."
					},
					"renounceRole(bytes32,address)": {
						"details": "Revokes `role` from the calling account. Roles are often managed via {grantRole} and {revokeRole}: this function's purpose is to provide a mechanism for accounts to lose their privileges if they are compromised (such as when a trusted device is misplaced). If the calling account had been revoked `role`, emits a {RoleRevoked} event. Requirements: - the caller must be `account`. May emit a {RoleRevoked} event."
					},
					"revokeRole(bytes32,address)": {
						"details": "Revokes `role` from `account`. If `account` had been granted `role`, emits a {RoleRevoked} event. Requirements: - the caller must have ``role``'s admin role. May emit a {RoleRevoked} event."
					},
					"supportsInterface(bytes4)": {
						"details": "See {IERC165-supportsInterface}."
					}
				},
				"version": 1
			},
			"evm": {
				"assembly": "    /* \"contracts/v2/TikTrixEscrow.sol\":428:6237  contract TikTrixEscrow is AccessControl {... */\n  mstore(0x40, 0x80)\n    /* \"contracts/v2/TikTrixEscrow.sol\":1823:2092  constructor(address entTokenAddress, address rptTokenAddress) {... */\n  callvalue\n  dup1\n  iszero\n  tag_1\n  jumpi\n  0x00\n  dup1\n  revert\ntag_1:\n  pop\n  mload(0x40)\n  sub(codesize, bytecodeSize)\n  dup1\n  bytecodeSize\n  dup4\n  codecopy\n  dup2\n  dup2\n  add\n  0x40\n  mstore\n  dup2\n  add\n  swap1\n  tag_2\n  swap2\n  swap1\n  tag_3\n  jump\t// in\ntag_2:\n    /* \"contracts/v2/TikTrixEscrow.sol\":1921:1936  entTokenAddress */\n  dup2\n    /* \"contracts/v2/TikTrixEscrow.sol\":1895:1903  entToken */\n  0x01\n  0x00\n    /* \"contracts/v2/TikTrixEscrow.sol\":1895:1937  entToken = IERC20Mintable(entTokenAddress) */\n  0x0100\n  exp\n  dup2\n  sload\n  dup2\n  0xffffffffffffffffffffffffffffffffffffffff\n  mul\n  not\n  and\n  swap1\n  dup4\n  0xffffffffffffffffffffffffffffffffffffffff\n  and\n  mul\n  or\n  swap1\n  sstore\n  pop\n    /* \"contracts/v2/TikTrixEscrow.sol\":1973:1988  rptTokenAddress */\n  dup1\n    /* \"contracts/v2/TikTrixEscrow.sol\":1947:1955  rptToken */\n  0x02\n  0x00\n    /* \"contracts/v2/TikTrixEscrow.sol\":1947:1989  rptToken = IERC20Mintable(rptTokenAddress) */\n  0x0100\n  exp\n  dup2\n  sload\n  dup2\n  0xffffffffffffffffffffffffffffffffffffffff\n  mul\n  not\n  and\n  swap1\n  dup4\n  0xffffffffffffffffffffffffffffffffffffffff\n  and\n  mul\n  or\n  swap1\n  sstore\n  pop\n    /* \"contracts/v2/TikTrixEscrow.sol\":1999:2041  _setupRole(DEFAULT_ADMIN_ROLE, msg.sender) */\n  tag_6\n    /* \"https://github.com/OpenZeppelin/openzeppelin-contracts/blob/v4.8.0/contracts/access/AccessControl.sol\":2072:2076  0x00 */\n  0x00\n    /* \"contracts/v2/TikTrixEscrow.sol\":2010:2028  DEFAULT_ADMIN_ROLE */\n  dup1\n  shl\n    /* \"contracts/v2/TikTrixEscrow.sol\":2030:2040  msg.sender */\n  caller\n    /* \"contracts/v2/TikTrixEscrow.sol\":1999:2009  _setupRole */\n  shl(0x20, tag_7)\n    /* \"contracts/v2/TikTrixEscrow.sol\":1999:2041  _setupRole(DEFAULT_ADMIN_ROLE, msg.sender) */\n  0x20\n  shr\n  jump\t// in\ntag_6:\n    /* \"contracts/v2/TikTrixEscrow.sol\":2051:2085  _setupRole(ADMIN_ROLE, msg.sender) */\n  tag_8\n    /* \"contracts/v2/TikTrixEscrow.sol\":511:534  keccak256(\"ADMIN_ROLE\") */\n  0xa49807205ce4d355092ef5a8a18f56e8913cf4a201fbe287825b095693c21775\n    /* \"contracts/v2/TikTrixEscrow.sol\":2074:2084  msg.sender */\n  caller\n    /* \"contracts/v2/TikTrixEscrow.sol\":2051:2061  _setupRole */\n  shl(0x20, tag_7)\n    /* \"contracts/v2/TikTrixEscrow.sol\":2051:2085  _setupRole(ADMIN_ROLE, msg.sender) */\n  0x20\n  shr\n  jump\t// in\ntag_8:\n    /* \"contracts/v2/TikTrixEscrow.sol\":1823:2092  constructor(address entTokenAddress, address rptTokenAddress) {... */\n  pop\n  pop\n    /* \"contracts/v2/TikTrixEscrow.sol\":428:6237  contract TikTrixEscrow is AccessControl {... */\n  jump(tag_9)\n    /* \"https://github.com/OpenZeppelin/openzeppelin-contracts/blob/v4.8.0/contracts/access/AccessControl.sol\":6811:6921  function _setupRole(bytes32 role, address account) internal virtual {... */\ntag_7:\n    /* \"https://github.com/OpenZeppelin/openzeppelin-contracts/blob/v4.8.0/contracts/access/AccessControl.sol\":6889:6914  _grantRole(role, account) */\n  tag_11\n    /* \"https://github.com/OpenZeppelin/openzeppelin-contracts/blob/v4.8.0/contracts/access/AccessControl.sol\":6900:6904  role */\n  dup3\n    /* \"https://github.com/OpenZeppelin/openzeppelin-contracts/blob/v4.8.0/contracts/access/AccessControl.sol\":6906:6913  account */\n  dup3\n    /* \"https://github.com/OpenZeppelin/openzeppelin-contracts/blob/v4.8.0/contracts/access/AccessControl.sol\":6889:6899  _grantRole */\n  shl(0x20, tag_12)\n    /* \"https://github.com/OpenZeppelin/openzeppelin-contracts/blob/v4.8.0/contracts/access/AccessControl.sol\":6889:6914  _grantRole(role, account) */\n  0x20\n  shr\n  jump\t// in\ntag_11:\n    /* \"https://github.com/OpenZeppelin/openzeppelin-contracts/blob/v4.8.0/contracts/access/AccessControl.sol\":6811:6921  function _setupRole(bytes32 role, address account) internal virtual {... */\n  pop\n  pop\n  jump\t// out\n    /* \"https://github.com/OpenZeppelin/openzeppelin-contracts/blob/v4.8.0/contracts/access/AccessControl.sol\":7461:7694  function _grantRole(bytes32 role, address account) internal virtual {... */\ntag_12:\n    /* \"https://github.com/OpenZeppelin/openzeppelin-contracts/blob/v4.8.0/contracts/access/AccessControl.sol\":7544:7566  hasRole(role, account) */\n  tag_14\n    /* \"https://github.com/OpenZeppelin/openzeppelin-contracts/blob/v4.8.0/contracts/access/AccessControl.sol\":7552:7556  role */\n  dup3\n    /* \"https://github.com/OpenZeppelin/openzeppelin-contracts/blob/v4.8.0/contracts/access/AccessControl.sol\":7558:7565  account */\n  dup3\n    /* \"https://github.com/OpenZeppelin/openzeppelin-contracts/blob/v4.8.0/contracts/access/AccessControl.sol\":7544:7551  hasRole */\n  shl(0x20, tag_15)\n    /* \"https://github.com/OpenZeppelin/openzeppelin-contracts/blob/v4.8.0/contracts/access/AccessControl.sol\":7544:7566  hasRole(role, account) */\n  0x20\n  shr\n  jump\t// in\ntag_14:\n    /* \"https://github.com/OpenZeppelin/openzeppelin-contracts/blob/v4.8.0/contracts/access/AccessControl.sol\":7539:7688  if (!hasRole(role, account)) {... */\n  tag_16\n  jumpi\n    /* \"https://github.com/OpenZeppelin/openzeppelin-contracts/blob/v4.8.0/contracts/access/AccessControl.sol\":7614:7618  true */\n  0x01\n    /* \"https://github.com/OpenZeppelin/openzeppelin-contracts/blob/v4.8.0/contracts/access/AccessControl.sol\":7582:7588  _roles */\n  0x00\n    /* \"https://github.com/OpenZeppelin/openzeppelin-contracts/blob/v4.8.0/contracts/access/AccessControl.sol\":7582:7594  _roles[role] */\n  dup1\n    /* \"https://github.com/OpenZeppelin/openzeppelin-contracts/blob/v4.8.0/contracts/access/AccessControl.sol\":7589:7593  role */\n  dup5\n    /* \"https://github.com/OpenZeppelin/openzeppelin-contracts/blob/v4.8.0/contracts/access/AccessControl.sol\":7582:7594  _roles[role] */\n  dup2\n  mstore\n  0x20\n  add\n  swap1\n  dup2\n  mstore\n  0x20\n  add\n  0x00\n  keccak256\n    /* \"https://github.com/OpenZeppelin/openzeppelin-contracts/blob/v4.8.0/contracts/access/AccessControl.sol\":7582:7602  _roles[role].members */\n  0x00\n  add\n    /* \"https://github.com/OpenZeppelin/openzeppelin-contracts/blob/v4.8.0/contracts/access/AccessControl.sol\":7582:7611  _roles[role].members[account] */\n  0x00\n    /* \"https://github.com/OpenZeppelin/openzeppelin-contracts/blob/v4.8.0/contracts/access/AccessControl.sol\":7603:7610  account */\n  dup4\n    /* \"https://github.com/OpenZeppelin/openzeppelin-contracts/blob/v4.8.0/contracts/access/AccessControl.sol\":7582:7611  _roles[role].members[account] */\n  0xffffffffffffffffffffffffffffffffffffffff\n  and\n  0xffffffffffffffffffffffffffffffffffffffff\n  and\n  dup2\n  mstore\n  0x20\n  add\n  swap1\n  dup2\n  mstore\n  0x20\n  add\n  0x00\n  keccak256\n  0x00\n    /* \"https://github.com/OpenZeppelin/openzeppelin-contracts/blob/v4.8.0/contracts/access/AccessControl.sol\":7582:7618  _roles[role].members[account] = true */\n  0x0100\n  exp\n  dup2\n  sload\n  dup2\n  0xff\n  mul\n  not\n  and\n  swap1\n  dup4\n  iszero\n  iszero\n  mul\n  or\n  swap1\n  sstore\n  pop\n    /* \"https://github.com/OpenZeppelin/openzeppelin-contracts/blob/v4.8.0/contracts/access/AccessControl.sol\":7664:7676  _msgSender() */\n  tag_17\n    /* \"https://github.com/OpenZeppelin/openzeppelin-contracts/blob/v4.8.0/contracts/access/AccessControl.sol\":7664:7674  _msgSender */\n  shl(0x20, tag_18)\n    /* \"https://github.com/OpenZeppelin/openzeppelin-contracts/blob/v4.8.0/contracts/access/AccessControl.sol\":7664:7676  _msgSender() */\n  0x20\n  shr\n  jump\t// in\ntag_17:\n    /* \"https://github.com/OpenZeppelin/openzeppelin-contracts/blob/v4.8.0/contracts/access/AccessControl.sol\":7637:7677  RoleGranted(role, account, _msgSender()) */\n  0xffffffffffffffffffffffffffffffffffffffff\n  and\n    /* \"https://github.com/OpenZeppelin/openzeppelin-contracts/blob/v4.8.0/contracts/access/AccessControl.sol\":7655:7662  account */\n  dup2\n    /* \"https://github.com/OpenZeppelin/openzeppelin-contracts/blob/v4.8.0/contracts/access/AccessControl.sol\":7637:7677  RoleGranted(role, account, _msgSender()) */\n  0xffffffffffffffffffffffffffffffffffffffff\n  and\n    /* \"https://github.com/OpenZeppelin/openzeppelin-contracts/blob/v4.8.0/contracts/access/AccessControl.sol\":7649:7653  role */\n  dup4\n    /* \"https://github.com/OpenZeppelin/openzeppelin-contracts/blob/v4.8.0/contracts/access/AccessControl.sol\":7637:7677  RoleGranted(role, account, _msgSender()) */\n  0x2f8788117e7eff1d82e926ec794901d17c78024a50270940304540a733656f0d\n  mload(0x40)\n  mload(0x40)\n  dup1\n  swap2\n  sub\n  swap1\n  log4\n    /* \"https://github.com/OpenZeppelin/openzeppelin-contracts/blob/v4.8.0/contracts/access/AccessControl.sol\":7539:7688  if (!hasRole(role, account)) {... */\ntag_16:\n    /* \"https://github.com/OpenZeppelin/openzeppelin-contracts/blob/v4.8.0/contracts/access/AccessControl.sol\":7461:7694  function _grantRole(bytes32 role, address account) internal virtual {... */\n  pop\n  pop\n  jump\t// out\n    /* \"https://github.com/OpenZeppelin/openzeppelin-contracts/blob/v4.8.0/contracts/access/AccessControl.sol\":2895:3040  function hasRole(bytes32 role, address account) public view virtual override returns (bool) {... */\ntag_15:\n    /* \"https://github.com/OpenZeppelin/openzeppelin-contracts/blob/v4.8.0/contracts/access/AccessControl.sol\":2981:2985  bool */\n  0x00\n    /* \"https://github.com/OpenZeppelin/openzeppelin-contracts/blob/v4.8.0/contracts/access/AccessControl.sol\":3004:3010  _roles */\n  dup1\n    /* \"https://github.com/OpenZeppelin/openzeppelin-contracts/blob/v4.8.0/contracts/access/AccessControl.sol\":3004:3016  _roles[role] */\n  0x00\n    /* \"https://github.com/OpenZeppelin/openzeppelin-contracts/blob/v4.8.0/contracts/access/AccessControl.sol\":3011:3015  role */\n  dup5\n    /* \"https://github.com/OpenZeppelin/openzeppelin-contracts/blob/v4.8.0/contracts/access/AccessControl.sol\":3004:3016  _roles[role] */\n  dup2\n  mstore\n  0x20\n  add\n  swap1\n  dup2\n  mstore\n  0x20\n  add\n  0x00\n  keccak256\n    /* \"https://github.com/OpenZeppelin/openzeppelin-contracts/blob/v4.8.0/contracts/access/AccessControl.sol\":3004:3024  _roles[role].members */\n  0x00\n  add\n    /* \"https://github.com/OpenZeppelin/openzeppelin-contracts/blob/v4.8.0/contracts/access/AccessControl.sol\":3004:3033  _roles[role].members[account] */\n  0x00\n    /* \"https://github.com/OpenZeppelin/openzeppelin-contracts/blob/v4.8.0/contracts/access/AccessControl.sol\":3025:3032  account */\n  dup4\n    /* \"https://github.com/OpenZeppelin/openzeppelin-contracts/blob/v4.8.0/contracts/access/AccessControl.sol\":3004:3033  _roles[role].members[account] */\n  0xffffffffffffffffffffffffffffffffffffffff\n  and\n  0xffffffffffffffffffffffffffffffffffffffff\n  and\n  dup2\n  mstore\n  0x20\n  add\n  swap1\n  dup2\n  mstore\n  0x20\n  add\n  0x00\n  keccak256\n  0x00\n  swap1\n  sload\n  swap1\n  0x0100\n  exp\n  swap1\n  div\n  0xff\n  and\n    /* \"https://github.com/OpenZeppelin/openzeppelin-contracts/blob/v4.8.0/contracts/access/AccessControl.sol\":2997:3033  return _roles[role].members[account] */\n  swap1\n  pop\n    /* \"https://github.com/OpenZeppelin/openzeppelin-contracts/blob/v4.8.0/contracts/access/AccessControl.sol\":2895:3040  function hasRole(bytes32 role, address account) public view virtual override returns (bool) {... */\n  swap3\n  swap2\n  pop\n  pop\n  jump\t// out\n    /* \"https://github.com/OpenZeppelin/openzeppelin-contracts/blob/v4.8.0/contracts/utils/Context.sol\":640:736  function _msgSender() internal view virtual returns (address) {... */\ntag_18:\n    /* \"https://github.com/OpenZeppelin/openzeppelin-contracts/blob/v4.8.0/contracts/utils/Context.sol\":693:700  address */\n  0x00\n    /* \"https://github.com/OpenZeppelin/openzeppelin-contracts/blob/v4.8.0/contracts/utils/Context.sol\":719:729  msg.sender */\n  caller\n    /* \"https://github.com/OpenZeppelin/openzeppelin-contracts/blob/v4.8.0/contracts/utils/Context.sol\":712:729  return msg.sender */\n  swap1\n  pop\n    /* \"https://github.com/OpenZeppelin/openzeppelin-contracts/blob/v4.8.0/contracts/utils/Context.sol\":640:736  function _msgSender() internal view virtual returns (address) {... */\n  swap1\n  jump\t// out\n    /* \"#utility.yul\":88:205   */\ntag_22:\n    /* \"#utility.yul\":197:198   */\n  0x00\n    /* \"#utility.yul\":194:195   */\n  dup1\n    /* \"#utility.yul\":187:199   */\n  revert\n    /* \"#utility.yul\":334:460   */\ntag_24:\n    /* \"#utility.yul\":371:378   */\n  0x00\n    /* \"#utility.yul\":411:453   */\n  0xffffffffffffffffffffffffffffffffffffffff\n    /* \"#utility.yul\":404:409   */\n  dup3\n    /* \"#utility.yul\":400:454   */\n  and\n    /* \"#utility.yul\":389:454   */\n  swap1\n  pop\n    /* \"#utility.yul\":334:460   */\n  swap2\n  swap1\n  pop\n  jump\t// out\n    /* \"#utility.yul\":466:562   */\ntag_25:\n    /* \"#utility.yul\":503:510   */\n  0x00\n    /* \"#utility.yul\":532:556   */\n  tag_34\n    /* \"#utility.yul\":550:555   */\n  dup3\n    /* \"#utility.yul\":532:556   */\n  tag_24\n  jump\t// in\ntag_34:\n    /* \"#utility.yul\":521:556   */\n  swap1\n  pop\n    /* \"#utility.yul\":466:562   */\n  swap2\n  swap1\n  pop\n  jump\t// out\n    /* \"#utility.yul\":568:690   */\ntag_26:\n    /* \"#utility.yul\":641:665   */\n  tag_36\n    /* \"#utility.yul\":659:664   */\n  dup2\n    /* \"#utility.yul\":641:665   */\n  tag_25\n  jump\t// in\ntag_36:\n    /* \"#utility.yul\":634:639   */\n  dup2\n    /* \"#utility.yul\":631:666   */\n  eq\n    /* \"#utility.yul\":621:684   */\n  tag_37\n  jumpi\n    /* \"#utility.yul\":680:681   */\n  0x00\n    /* \"#utility.yul\":677:678   */\n  dup1\n    /* \"#utility.yul\":670:682   */\n  revert\n    /* \"#utility.yul\":621:684   */\ntag_37:\n    /* \"#utility.yul\":568:690   */\n  pop\n  jump\t// out\n    /* \"#utility.yul\":696:839   */\ntag_27:\n    /* \"#utility.yul\":753:758   */\n  0x00\n    /* \"#utility.yul\":784:790   */\n  dup2\n    /* \"#utility.yul\":778:791   */\n  mload\n    /* \"#utility.yul\":769:791   */\n  swap1\n  pop\n    /* \"#utility.yul\":800:833   */\n  tag_39\n    /* \"#utility.yul\":827:832   */\n  dup2\n    /* \"#utility.yul\":800:833   */\n  tag_26\n  jump\t// in\ntag_39:\n    /* \"#utility.yul\":696:839   */\n  swap3\n  swap2\n  pop\n  pop\n  jump\t// out\n    /* \"#utility.yul\":845:1352   */\ntag_3:\n    /* \"#utility.yul\":924:930   */\n  0x00\n    /* \"#utility.yul\":932:938   */\n  dup1\n    /* \"#utility.yul\":981:983   */\n  0x40\n    /* \"#utility.yul\":969:978   */\n  dup4\n    /* \"#utility.yul\":960:967   */\n  dup6\n    /* \"#utility.yul\":956:979   */\n  sub\n    /* \"#utility.yul\":952:984   */\n  slt\n    /* \"#utility.yul\":949:1068   */\n  iszero\n  tag_41\n  jumpi\n    /* \"#utility.yul\":987:1066   */\n  tag_42\n  tag_22\n  jump\t// in\ntag_42:\n    /* \"#utility.yul\":949:1068   */\ntag_41:\n    /* \"#utility.yul\":1107:1108   */\n  0x00\n    /* \"#utility.yul\":1132:1196   */\n  tag_43\n    /* \"#utility.yul\":1188:1195   */\n  dup6\n    /* \"#utility.yul\":1179:1185   */\n  dup3\n    /* \"#utility.yul\":1168:1177   */\n  dup7\n    /* \"#utility.yul\":1164:1186   */\n  add\n    /* \"#utility.yul\":1132:1196   */\n  tag_27\n  jump\t// in\ntag_43:\n    /* \"#utility.yul\":1122:1196   */\n  swap3\n  pop\n    /* \"#utility.yul\":1078:1206   */\n  pop\n    /* \"#utility.yul\":1245:1247   */\n  0x20\n    /* \"#utility.yul\":1271:1335   */\n  tag_44\n    /* \"#utility.yul\":1327:1334   */\n  dup6\n    /* \"#utility.yul\":1318:1324   */\n  dup3\n    /* \"#utility.yul\":1307:1316   */\n  dup7\n    /* \"#utility.yul\":1303:1325   */\n  add\n    /* \"#utility.yul\":1271:1335   */\n  tag_27\n  jump\t// in\ntag_44:\n    /* \"#utility.yul\":1261:1335   */\n  swap2\n  pop\n    /* \"#utility.yul\":1216:1345   */\n  pop\n    /* \"#utility.yul\":845:1352   */\n  swap3\n  pop\n  swap3\n  swap1\n  pop\n  jump\t// out\n    /* \"contracts/v2/TikTrixEscrow.sol\":428:6237  contract TikTrixEscrow is AccessControl {... */\ntag_9:\n  dataSize(sub_0)\n  dup1\n  dataOffset(sub_0)\n  0x00\n  codecopy\n  0x00\n  return\nstop\n\nsub_0: assembly {\n        /* \"contracts/v2/TikTrixEscrow.sol\":428:6237  contract TikTrixEscrow is AccessControl {... */\n      mstore(0x40, 0x80)\n      callvalue\n      dup1\n      iszero\n      tag_1\n      jumpi\n      0x00\n      dup1\n      revert\n    tag_1:\n      pop\n      jumpi(tag_2, lt(calldatasize, 0x04))\n      shr(0xe0, calldataload(0x00))\n      dup1\n      0x9a19c7b0\n      gt\n      tag_27\n      jumpi\n      dup1\n      0xc634b78e\n      gt\n      tag_28\n      jumpi\n      dup1\n      0xc634b78e\n      eq\n      tag_21\n      jumpi\n      dup1\n      0xca1c996f\n      eq\n      tag_22\n      jumpi\n      dup1\n      0xcbc7854e\n      eq\n      tag_23\n      jumpi\n      dup1\n      0xd547741f\n      eq\n      tag_24\n      jumpi\n      dup1\n      0xdd0c8082\n      eq\n      tag_25\n      jumpi\n      dup1\n      0xdd7d2b9f\n      eq\n      tag_26\n      jumpi\n      jump(tag_2)\n    tag_28:\n      dup1\n      0x9a19c7b0\n      eq\n      tag_15\n      jumpi\n      dup1\n      0xa217fddf\n      eq\n      tag_16\n      jumpi\n      dup1\n      0xae99aa3c\n      eq\n      tag_17\n      jumpi\n      dup1\n      0xaea08734\n      eq\n      tag_18\n      jumpi\n      dup1\n      0xb5b0e48a\n      eq\n      tag_19\n      jumpi\n      dup1\n      0xbb10ab0f\n      eq\n      tag_20\n      jumpi\n      jump(tag_2)\n    tag_27:\n      dup1\n      0x36568abe\n      gt\n      tag_29\n      jumpi\n      dup1\n      0x36568abe\n      eq\n      tag_9\n      jumpi\n      dup1\n      0x406a378a\n      eq\n      tag_10\n      jumpi\n      dup1\n      0x75b238fc\n      eq\n      tag_11\n      jumpi\n      dup1\n      0x8525ea16\n      eq\n      tag_12\n      jumpi\n      dup1\n      0x8afac670\n      eq\n      tag_13\n      jumpi\n      dup1\n      0x91d14854\n      eq\n      tag_14\n      jumpi\n      jump(tag_2)\n    tag_29:\n      dup1\n      0x01ffc9a7\n      eq\n      tag_3\n      jumpi\n      dup1\n      0x1b72fa3a\n      eq\n      tag_4\n      jumpi\n      dup1\n      0x1fd3c85b\n      eq\n      tag_5\n      jumpi\n      dup1\n      0x248a9ca3\n      eq\n      tag_6\n      jumpi\n      dup1\n      0x2f2ff15d\n      eq\n      tag_7\n      jumpi\n      dup1\n      0x355b9d3f\n      eq\n      tag_8\n      jumpi\n    tag_2:\n      0x00\n      dup1\n      revert\n        /* \"https://github.com/OpenZeppelin/openzeppelin-contracts/blob/v4.8.0/contracts/access/AccessControl.sol\":2606:2808  function supportsInterface(bytes4 interfaceId) public view virtual override returns (bool) {... */\n    tag_3:\n      tag_30\n      0x04\n      dup1\n      calldatasize\n      sub\n      dup2\n      add\n      swap1\n      tag_31\n      swap2\n      swap1\n      tag_32\n      jump\t// in\n    tag_31:\n      tag_33\n      jump\t// in\n    tag_30:\n      mload(0x40)\n      tag_34\n      swap2\n      swap1\n      tag_35\n      jump\t// in\n    tag_34:\n      mload(0x40)\n      dup1\n      swap2\n      sub\n      swap1\n      return\n        /* \"contracts/v2/TikTrixEscrow.sol\":577:607  IERC20Mintable public rptToken */\n    tag_4:\n      tag_36\n      tag_37\n      jump\t// in\n    tag_36:\n      mload(0x40)\n      tag_38\n      swap2\n      swap1\n      tag_39\n      jump\t// in\n    tag_38:\n      mload(0x40)\n      dup1\n      swap2\n      sub\n      swap1\n      return\n        /* \"contracts/v2/TikTrixEscrow.sol\":1015:1041  uint256[] public memberIds */\n    tag_5:\n      tag_40\n      0x04\n      dup1\n      calldatasize\n      sub\n      dup2\n      add\n      swap1\n      tag_41\n      swap2\n      swap1\n      tag_42\n      jump\t// in\n    tag_41:\n      tag_43\n      jump\t// in\n    tag_40:\n      mload(0x40)\n      tag_44\n      swap2\n      swap1\n      tag_45\n      jump\t// in\n    tag_44:\n      mload(0x40)\n      dup1\n      swap2\n      sub\n      swap1\n      return\n        /* \"https://github.com/OpenZeppelin/openzeppelin-contracts/blob/v4.8.0/contracts/access/AccessControl.sol\":4378:4507  function getRoleAdmin(bytes32 role) public view virtual override returns (bytes32) {... */\n    tag_6:\n      tag_46\n      0x04\n      dup1\n      calldatasize\n      sub\n      dup2\n      add\n      swap1\n      tag_47\n      swap2\n      swap1\n      tag_48\n      jump\t// in\n    tag_47:\n      tag_49\n      jump\t// in\n    tag_46:\n      mload(0x40)\n      tag_50\n      swap2\n      swap1\n      tag_51\n      jump\t// in\n    tag_50:\n      mload(0x40)\n      dup1\n      swap2\n      sub\n      swap1\n      return\n        /* \"https://github.com/OpenZeppelin/openzeppelin-contracts/blob/v4.8.0/contracts/access/AccessControl.sol\":4803:4948  function grantRole(bytes32 role, address account) public virtual override onlyRole(getRoleAdmin(role)) {... */\n    tag_7:\n      tag_52\n      0x04\n      dup1\n      calldatasize\n      sub\n      dup2\n      add\n      swap1\n      tag_53\n      swap2\n      swap1\n      tag_54\n      jump\t// in\n    tag_53:\n      tag_55\n      jump\t// in\n    tag_52:\n      stop\n        /* \"contracts/v2/TikTrixEscrow.sol\":1185:1282  mapping(uint256 => mapping(uint256 => mapping(uint256 => ChallengeScore))) public challengeScores */\n    tag_8:\n      tag_56\n      0x04\n      dup1\n      calldatasize\n      sub\n      dup2\n      add\n      swap1\n      tag_57\n      swap2\n      swap1\n      tag_58\n      jump\t// in\n    tag_57:\n      tag_59\n      jump\t// in\n    tag_56:\n      mload(0x40)\n      tag_60\n      swap6\n      swap5\n      swap4\n      swap3\n      swap2\n      swap1\n      tag_61\n      jump\t// in\n    tag_60:\n      mload(0x40)\n      dup1\n      swap2\n      sub\n      swap1\n      return\n        /* \"https://github.com/OpenZeppelin/openzeppelin-contracts/blob/v4.8.0/contracts/access/AccessControl.sol\":5912:6126  function renounceRole(bytes32 role, address account) public virtual override {... */\n    tag_9:\n      tag_62\n      0x04\n      dup1\n      calldatasize\n      sub\n      dup2\n      add\n      swap1\n      tag_63\n      swap2\n      swap1\n      tag_54\n      jump\t// in\n    tag_63:\n      tag_64\n      jump\t// in\n    tag_62:\n      stop\n        /* \"contracts/v2/TikTrixEscrow.sol\":5252:5711  function distributePrizes(address[] calldata recipients, uint256[] calldata tokenAmounts) external onlyRole(ADMIN_ROLE) {... */\n    tag_10:\n      tag_65\n      0x04\n      dup1\n      calldatasize\n      sub\n      dup2\n      add\n      swap1\n      tag_66\n      swap2\n      swap1\n      tag_67\n      jump\t// in\n    tag_66:\n      tag_68\n      jump\t// in\n    tag_65:\n      stop\n        /* \"contracts/v2/TikTrixEscrow.sol\":474:534  bytes32 public constant ADMIN_ROLE = keccak256(\"ADMIN_ROLE\") */\n    tag_11:\n      tag_69\n      tag_70\n      jump\t// in\n    tag_69:\n      mload(0x40)\n      tag_71\n      swap2\n      swap1\n      tag_51\n      jump\t// in\n    tag_71:\n      mload(0x40)\n      dup1\n      swap2\n      sub\n      swap1\n      return\n        /* \"contracts/v2/TikTrixEscrow.sol\":4015:4715  function rankScoreUpdateNormal(... */\n    tag_12:\n      tag_72\n      0x04\n      dup1\n      calldatasize\n      sub\n      dup2\n      add\n      swap1\n      tag_73\n      swap2\n      swap1\n      tag_74\n      jump\t// in\n    tag_73:\n      tag_75\n      jump\t// in\n    tag_72:\n      stop\n        /* \"contracts/v2/TikTrixEscrow.sol\":1088:1179  mapping(uint256 => mapping(uint256 => mapping(uint256 => NormalScore))) public normalScores */\n    tag_13:\n      tag_76\n      0x04\n      dup1\n      calldatasize\n      sub\n      dup2\n      add\n      swap1\n      tag_77\n      swap2\n      swap1\n      tag_58\n      jump\t// in\n    tag_77:\n      tag_78\n      jump\t// in\n    tag_76:\n      mload(0x40)\n      tag_79\n      swap5\n      swap4\n      swap3\n      swap2\n      swap1\n      tag_80\n      jump\t// in\n    tag_79:\n      mload(0x40)\n      dup1\n      swap2\n      sub\n      swap1\n      return\n        /* \"https://github.com/OpenZeppelin/openzeppelin-contracts/blob/v4.8.0/contracts/access/AccessControl.sol\":2895:3040  function hasRole(bytes32 role, address account) public view virtual override returns (bool) {... */\n    tag_14:\n      tag_81\n      0x04\n      dup1\n      calldatasize\n      sub\n      dup2\n      add\n      swap1\n      tag_82\n      swap2\n      swap1\n      tag_54\n      jump\t// in\n    tag_82:\n      tag_83\n      jump\t// in\n    tag_81:\n      mload(0x40)\n      tag_84\n      swap2\n      swap1\n      tag_35\n      jump\t// in\n    tag_84:\n      mload(0x40)\n      dup1\n      swap2\n      sub\n      swap1\n      return\n        /* \"contracts/v2/TikTrixEscrow.sol\":2228:2354  function revokeAdminRole(address account) public onlyRole(DEFAULT_ADMIN_ROLE) {... */\n    tag_15:\n      tag_85\n      0x04\n      dup1\n      calldatasize\n      sub\n      dup2\n      add\n      swap1\n      tag_86\n      swap2\n      swap1\n      tag_87\n      jump\t// in\n    tag_86:\n      tag_88\n      jump\t// in\n    tag_85:\n      stop\n        /* \"https://github.com/OpenZeppelin/openzeppelin-contracts/blob/v4.8.0/contracts/access/AccessControl.sol\":2027:2076  bytes32 public constant DEFAULT_ADMIN_ROLE = 0x00 */\n    tag_16:\n      tag_89\n      tag_90\n      jump\t// in\n    tag_89:\n      mload(0x40)\n      tag_91\n      swap2\n      swap1\n      tag_51\n      jump\t// in\n    tag_91:\n      mload(0x40)\n      dup1\n      swap2\n      sub\n      swap1\n      return\n        /* \"contracts/v2/TikTrixEscrow.sol\":5717:5927  function getMemberInfo(uint256 memberSeq) external view returns (MemberInfo memory) {... */\n    tag_17:\n      tag_92\n      0x04\n      dup1\n      calldatasize\n      sub\n      dup2\n      add\n      swap1\n      tag_93\n      swap2\n      swap1\n      tag_42\n      jump\t// in\n    tag_93:\n      tag_94\n      jump\t// in\n    tag_92:\n      mload(0x40)\n      tag_95\n      swap2\n      swap1\n      tag_96\n      jump\t// in\n    tag_95:\n      mload(0x40)\n      dup1\n      swap2\n      sub\n      swap1\n      return\n        /* \"contracts/v2/TikTrixEscrow.sol\":2576:3016  function memberRegister(uint256 memberSeq, address mintAddress, uint256 tokenAmount) external onlyRole(ADMIN_ROLE) {... */\n    tag_18:\n      tag_97\n      0x04\n      dup1\n      calldatasize\n      sub\n      dup2\n      add\n      swap1\n      tag_98\n      swap2\n      swap1\n      tag_99\n      jump\t// in\n    tag_98:\n      tag_100\n      jump\t// in\n    tag_97:\n      stop\n        /* \"contracts/v2/TikTrixEscrow.sol\":5933:6234  function getChallengeScore(uint256 yyyymmdd, uint256 gameSeq, uint256 memberSeq) external view returns (ChallengeScore memory) {... */\n    tag_19:\n      tag_101\n      0x04\n      dup1\n      calldatasize\n      sub\n      dup2\n      add\n      swap1\n      tag_102\n      swap2\n      swap1\n      tag_58\n      jump\t// in\n    tag_102:\n      tag_103\n      jump\t// in\n    tag_101:\n      mload(0x40)\n      tag_104\n      swap2\n      swap1\n      tag_105\n      jump\t// in\n    tag_104:\n      mload(0x40)\n      dup1\n      swap2\n      sub\n      swap1\n      return\n        /* \"contracts/v2/TikTrixEscrow.sol\":960:1009  mapping(uint256 => MemberInfo) public memberInfos */\n    tag_20:\n      tag_106\n      0x04\n      dup1\n      calldatasize\n      sub\n      dup2\n      add\n      swap1\n      tag_107\n      swap2\n      swap1\n      tag_42\n      jump\t// in\n    tag_107:\n      tag_108\n      jump\t// in\n    tag_106:\n      mload(0x40)\n      tag_109\n      swap2\n      swap1\n      tag_45\n      jump\t// in\n    tag_109:\n      mload(0x40)\n      dup1\n      swap2\n      sub\n      swap1\n      return\n        /* \"contracts/v2/TikTrixEscrow.sol\":2098:2222  function grantAdminRole(address account) public onlyRole(DEFAULT_ADMIN_ROLE) {... */\n    tag_21:\n      tag_110\n      0x04\n      dup1\n      calldatasize\n      sub\n      dup2\n      add\n      swap1\n      tag_111\n      swap2\n      swap1\n      tag_87\n      jump\t// in\n    tag_111:\n      tag_112\n      jump\t// in\n    tag_110:\n      stop\n        /* \"contracts/v2/TikTrixEscrow.sol\":3022:4009  function challengeRegister(... */\n    tag_22:\n      tag_113\n      0x04\n      dup1\n      calldatasize\n      sub\n      dup2\n      add\n      swap1\n      tag_114\n      swap2\n      swap1\n      tag_74\n      jump\t// in\n    tag_114:\n      tag_115\n      jump\t// in\n    tag_113:\n      stop\n        /* \"contracts/v2/TikTrixEscrow.sol\":2360:2570  function setTokens(address entTokenAddress, address rptTokenAddress) external onlyRole(ADMIN_ROLE) {... */\n    tag_23:\n      tag_116\n      0x04\n      dup1\n      calldatasize\n      sub\n      dup2\n      add\n      swap1\n      tag_117\n      swap2\n      swap1\n      tag_118\n      jump\t// in\n    tag_117:\n      tag_119\n      jump\t// in\n    tag_116:\n      stop\n        /* \"https://github.com/OpenZeppelin/openzeppelin-contracts/blob/v4.8.0/contracts/access/AccessControl.sol\":5228:5375  function revokeRole(bytes32 role, address account) public virtual override onlyRole(getRoleAdmin(role)) {... */\n    tag_24:\n      tag_120\n      0x04\n      dup1\n      calldatasize\n      sub\n      dup2\n      add\n      swap1\n      tag_121\n      swap2\n      swap1\n      tag_54\n      jump\t// in\n    tag_121:\n      tag_122\n      jump\t// in\n    tag_120:\n      stop\n        /* \"contracts/v2/TikTrixEscrow.sol\":541:571  IERC20Mintable public entToken */\n    tag_25:\n      tag_123\n      tag_124\n      jump\t// in\n    tag_123:\n      mload(0x40)\n      tag_125\n      swap2\n      swap1\n      tag_39\n      jump\t// in\n    tag_125:\n      mload(0x40)\n      dup1\n      swap2\n      sub\n      swap1\n      return\n        /* \"contracts/v2/TikTrixEscrow.sol\":4721:5246  function rankScoreUpdateChallenge(... */\n    tag_26:\n      tag_126\n      0x04\n      dup1\n      calldatasize\n      sub\n      dup2\n      add\n      swap1\n      tag_127\n      swap2\n      swap1\n      tag_74\n      jump\t// in\n    tag_127:\n      tag_128\n      jump\t// in\n    tag_126:\n      stop\n        /* \"https://github.com/OpenZeppelin/openzeppelin-contracts/blob/v4.8.0/contracts/access/AccessControl.sol\":2606:2808  function supportsInterface(bytes4 interfaceId) public view virtual override returns (bool) {... */\n    tag_33:\n        /* \"https://github.com/OpenZeppelin/openzeppelin-contracts/blob/v4.8.0/contracts/access/AccessControl.sol\":2691:2695  bool */\n      0x00\n        /* \"https://github.com/OpenZeppelin/openzeppelin-contracts/blob/v4.8.0/contracts/access/AccessControl.sol\":2729:2761  type(IAccessControl).interfaceId */\n      0x7965db0b00000000000000000000000000000000000000000000000000000000\n        /* \"https://github.com/OpenZeppelin/openzeppelin-contracts/blob/v4.8.0/contracts/access/AccessControl.sol\":2714:2761  interfaceId == type(IAccessControl).interfaceId */\n      not(0xffffffffffffffffffffffffffffffffffffffffffffffffffffffff)\n      and\n        /* \"https://github.com/OpenZeppelin/openzeppelin-contracts/blob/v4.8.0/contracts/access/AccessControl.sol\":2714:2725  interfaceId */\n      dup3\n        /* \"https://github.com/OpenZeppelin/openzeppelin-contracts/blob/v4.8.0/contracts/access/AccessControl.sol\":2714:2761  interfaceId == type(IAccessControl).interfaceId */\n      not(0xffffffffffffffffffffffffffffffffffffffffffffffffffffffff)\n      and\n      eq\n        /* \"https://github.com/OpenZeppelin/openzeppelin-contracts/blob/v4.8.0/contracts/access/AccessControl.sol\":2714:2801  interfaceId == type(IAccessControl).interfaceId || super.supportsInterface(interfaceId) */\n      dup1\n      tag_130\n      jumpi\n      pop\n        /* \"https://github.com/OpenZeppelin/openzeppelin-contracts/blob/v4.8.0/contracts/access/AccessControl.sol\":2765:2801  super.supportsInterface(interfaceId) */\n      tag_131\n        /* \"https://github.com/OpenZeppelin/openzeppelin-contracts/blob/v4.8.0/contracts/access/AccessControl.sol\":2789:2800  interfaceId */\n      dup3\n        /* \"https://github.com/OpenZeppelin/openzeppelin-contracts/blob/v4.8.0/contracts/access/AccessControl.sol\":2765:2788  super.supportsInterface */\n      tag_132\n        /* \"https://github.com/OpenZeppelin/openzeppelin-contracts/blob/v4.8.0/contracts/access/AccessControl.sol\":2765:2801  super.supportsInterface(interfaceId) */\n      jump\t// in\n    tag_131:\n        /* \"https://github.com/OpenZeppelin/openzeppelin-contracts/blob/v4.8.0/contracts/access/AccessControl.sol\":2714:2801  interfaceId == type(IAccessControl).interfaceId || super.supportsInterface(interfaceId) */\n    tag_130:\n        /* \"https://github.com/OpenZeppelin/openzeppelin-contracts/blob/v4.8.0/contracts/access/AccessControl.sol\":2707:2801  return interfaceId == type(IAccessControl).interfaceId || super.supportsInterface(interfaceId) */\n      swap1\n      pop\n        /* \"https://github.com/OpenZeppelin/openzeppelin-contracts/blob/v4.8.0/contracts/access/AccessControl.sol\":2606:2808  function supportsInterface(bytes4 interfaceId) public view virtual override returns (bool) {... */\n      swap2\n      swap1\n      pop\n      jump\t// out\n        /* \"contracts/v2/TikTrixEscrow.sol\":577:607  IERC20Mintable public rptToken */\n    tag_37:\n      0x02\n      0x00\n      swap1\n      sload\n      swap1\n      0x0100\n      exp\n      swap1\n      div\n      0xffffffffffffffffffffffffffffffffffffffff\n      and\n      dup2\n      jump\t// out\n        /* \"contracts/v2/TikTrixEscrow.sol\":1015:1041  uint256[] public memberIds */\n    tag_43:\n      0x04\n      dup2\n      dup2\n      sload\n      dup2\n      lt\n      tag_133\n      jumpi\n      0x00\n      dup1\n      revert\n    tag_133:\n      swap1\n      0x00\n      mstore\n      keccak256(0x00, 0x20)\n      add\n      0x00\n      swap2\n      pop\n      swap1\n      pop\n      sload\n      dup2\n      jump\t// out\n        /* \"https://github.com/OpenZeppelin/openzeppelin-contracts/blob/v4.8.0/contracts/access/AccessControl.sol\":4378:4507  function getRoleAdmin(bytes32 role) public view virtual override returns (bytes32) {... */\n    tag_49:\n        /* \"https://github.com/OpenZeppelin/openzeppelin-contracts/blob/v4.8.0/contracts/access/AccessControl.sol\":4452:4459  bytes32 */\n      0x00\n        /* \"https://github.com/OpenZeppelin/openzeppelin-contracts/blob/v4.8.0/contracts/access/AccessControl.sol\":4478:4484  _roles */\n      dup1\n        /* \"https://github.com/OpenZeppelin/openzeppelin-contracts/blob/v4.8.0/contracts/access/AccessControl.sol\":4478:4490  _roles[role] */\n      0x00\n        /* \"https://github.com/OpenZeppelin/openzeppelin-contracts/blob/v4.8.0/contracts/access/AccessControl.sol\":4485:4489  role */\n      dup4\n        /* \"https://github.com/OpenZeppelin/openzeppelin-contracts/blob/v4.8.0/contracts/access/AccessControl.sol\":4478:4490  _roles[role] */\n      dup2\n      mstore\n      0x20\n      add\n      swap1\n      dup2\n      mstore\n      0x20\n      add\n      0x00\n      keccak256\n        /* \"https://github.com/OpenZeppelin/openzeppelin-contracts/blob/v4.8.0/contracts/access/AccessControl.sol\":4478:4500  _roles[role].adminRole */\n      0x01\n      add\n      sload\n        /* \"https://github.com/OpenZeppelin/openzeppelin-contracts/blob/v4.8.0/contracts/access/AccessControl.sol\":4471:4500  return _roles[role].adminRole */\n      swap1\n      pop\n        /* \"https://github.com/OpenZeppelin/openzeppelin-contracts/blob/v4.8.0/contracts/access/AccessControl.sol\":4378:4507  function getRoleAdmin(bytes32 role) public view virtual override returns (bytes32) {... */\n      swap2\n      swap1\n      pop\n      jump\t// out\n        /* \"https://github.com/OpenZeppelin/openzeppelin-contracts/blob/v4.8.0/contracts/access/AccessControl.sol\":4803:4948  function grantRole(bytes32 role, address account) public virtual override onlyRole(getRoleAdmin(role)) {... */\n    tag_55:\n        /* \"https://github.com/OpenZeppelin/openzeppelin-contracts/blob/v4.8.0/contracts/access/AccessControl.sol\":4886:4904  getRoleAdmin(role) */\n      tag_136\n        /* \"https://github.com/OpenZeppelin/openzeppelin-contracts/blob/v4.8.0/contracts/access/AccessControl.sol\":4899:4903  role */\n      dup3\n        /* \"https://github.com/OpenZeppelin/openzeppelin-contracts/blob/v4.8.0/contracts/access/AccessControl.sol\":4886:4898  getRoleAdmin */\n      tag_49\n        /* \"https://github.com/OpenZeppelin/openzeppelin-contracts/blob/v4.8.0/contracts/access/AccessControl.sol\":4886:4904  getRoleAdmin(role) */\n      jump\t// in\n    tag_136:\n        /* \"https://github.com/OpenZeppelin/openzeppelin-contracts/blob/v4.8.0/contracts/access/AccessControl.sol\":2505:2521  _checkRole(role) */\n      tag_138\n        /* \"https://github.com/OpenZeppelin/openzeppelin-contracts/blob/v4.8.0/contracts/access/AccessControl.sol\":2516:2520  role */\n      dup2\n        /* \"https://github.com/OpenZeppelin/openzeppelin-contracts/blob/v4.8.0/contracts/access/AccessControl.sol\":2505:2515  _checkRole */\n      tag_139\n        /* \"https://github.com/OpenZeppelin/openzeppelin-contracts/blob/v4.8.0/contracts/access/AccessControl.sol\":2505:2521  _checkRole(role) */\n      jump\t// in\n    tag_138:\n        /* \"https://github.com/OpenZeppelin/openzeppelin-contracts/blob/v4.8.0/contracts/access/AccessControl.sol\":4916:4941  _grantRole(role, account) */\n      tag_141\n        /* \"https://github.com/OpenZeppelin/openzeppelin-contracts/blob/v4.8.0/contracts/access/AccessControl.sol\":4927:4931  role */\n      dup4\n        /* \"https://github.com/OpenZeppelin/openzeppelin-contracts/blob/v4.8.0/contracts/access/AccessControl.sol\":4933:4940  account */\n      dup4\n        /* \"https://github.com/OpenZeppelin/openzeppelin-contracts/blob/v4.8.0/contracts/access/AccessControl.sol\":4916:4926  _grantRole */\n      tag_142\n        /* \"https://github.com/OpenZeppelin/openzeppelin-contracts/blob/v4.8.0/contracts/access/AccessControl.sol\":4916:4941  _grantRole(role, account) */\n      jump\t// in\n    tag_141:\n        /* \"https://github.com/OpenZeppelin/openzeppelin-contracts/blob/v4.8.0/contracts/access/AccessControl.sol\":4803:4948  function grantRole(bytes32 role, address account) public virtual override onlyRole(getRoleAdmin(role)) {... */\n      pop\n      pop\n      pop\n      jump\t// out\n        /* \"contracts/v2/TikTrixEscrow.sol\":1185:1282  mapping(uint256 => mapping(uint256 => mapping(uint256 => ChallengeScore))) public challengeScores */\n    tag_59:\n      mstore(0x20, 0x06)\n      dup3\n      0x00\n      mstore\n      mstore(0x20, keccak256(0x00, 0x40))\n      dup2\n      0x00\n      mstore\n      mstore(0x20, keccak256(0x00, 0x40))\n      dup1\n      0x00\n      mstore\n      keccak256(0x00, 0x40)\n      0x00\n      swap3\n      pop\n      swap3\n      pop\n      pop\n      pop\n      dup1\n      0x00\n      add\n      sload\n      swap1\n      dup1\n      0x01\n      add\n      sload\n      swap1\n      dup1\n      0x02\n      add\n      sload\n      swap1\n      dup1\n      0x03\n      add\n      sload\n      swap1\n      dup1\n      0x04\n      add\n      0x00\n      swap1\n      sload\n      swap1\n      0x0100\n      exp\n      swap1\n      div\n      0xff\n      and\n      swap1\n      pop\n      dup6\n      jump\t// out\n        /* \"https://github.com/OpenZeppelin/openzeppelin-contracts/blob/v4.8.0/contracts/access/AccessControl.sol\":5912:6126  function renounceRole(bytes32 role, address account) public virtual override {... */\n    tag_64:\n        /* \"https://github.com/OpenZeppelin/openzeppelin-contracts/blob/v4.8.0/contracts/access/AccessControl.sol\":6018:6030  _msgSender() */\n      tag_144\n        /* \"https://github.com/OpenZeppelin/openzeppelin-contracts/blob/v4.8.0/contracts/access/AccessControl.sol\":6018:6028  _msgSender */\n      tag_145\n        /* \"https://github.com/OpenZeppelin/openzeppelin-contracts/blob/v4.8.0/contracts/access/AccessControl.sol\":6018:6030  _msgSender() */\n      jump\t// in\n    tag_144:\n        /* \"https://github.com/OpenZeppelin/openzeppelin-contracts/blob/v4.8.0/contracts/access/AccessControl.sol\":6007:6030  account == _msgSender() */\n      0xffffffffffffffffffffffffffffffffffffffff\n      and\n        /* \"https://github.com/OpenZeppelin/openzeppelin-contracts/blob/v4.8.0/contracts/access/AccessControl.sol\":6007:6014  account */\n      dup2\n        /* \"https://github.com/OpenZeppelin/openzeppelin-contracts/blob/v4.8.0/contracts/access/AccessControl.sol\":6007:6030  account == _msgSender() */\n      0xffffffffffffffffffffffffffffffffffffffff\n      and\n      eq\n        /* \"https://github.com/OpenZeppelin/openzeppelin-contracts/blob/v4.8.0/contracts/access/AccessControl.sol\":5999:6082  require(account == _msgSender(), \"AccessControl: can only renounce roles for self\") */\n      tag_146\n      jumpi\n      mload(0x40)\n      0x08c379a000000000000000000000000000000000000000000000000000000000\n      dup2\n      mstore\n      0x04\n      add\n      tag_147\n      swap1\n      tag_148\n      jump\t// in\n    tag_147:\n      mload(0x40)\n      dup1\n      swap2\n      sub\n      swap1\n      revert\n    tag_146:\n        /* \"https://github.com/OpenZeppelin/openzeppelin-contracts/blob/v4.8.0/contracts/access/AccessControl.sol\":6093:6119  _revokeRole(role, account) */\n      tag_149\n        /* \"https://github.com/OpenZeppelin/openzeppelin-contracts/blob/v4.8.0/contracts/access/AccessControl.sol\":6105:6109  role */\n      dup3\n        /* \"https://github.com/OpenZeppelin/openzeppelin-contracts/blob/v4.8.0/contracts/access/AccessControl.sol\":6111:6118  account */\n      dup3\n        /* \"https://github.com/OpenZeppelin/openzeppelin-contracts/blob/v4.8.0/contracts/access/AccessControl.sol\":6093:6104  _revokeRole */\n      tag_150\n        /* \"https://github.com/OpenZeppelin/openzeppelin-contracts/blob/v4.8.0/contracts/access/AccessControl.sol\":6093:6119  _revokeRole(role, account) */\n      jump\t// in\n    tag_149:\n        /* \"https://github.com/OpenZeppelin/openzeppelin-contracts/blob/v4.8.0/contracts/access/AccessControl.sol\":5912:6126  function renounceRole(bytes32 role, address account) public virtual override {... */\n      pop\n      pop\n      jump\t// out\n        /* \"contracts/v2/TikTrixEscrow.sol\":5252:5711  function distributePrizes(address[] calldata recipients, uint256[] calldata tokenAmounts) external onlyRole(ADMIN_ROLE) {... */\n    tag_68:\n        /* \"contracts/v2/TikTrixEscrow.sol\":511:534  keccak256(\"ADMIN_ROLE\") */\n      0xa49807205ce4d355092ef5a8a18f56e8913cf4a201fbe287825b095693c21775\n        /* \"https://github.com/OpenZeppelin/openzeppelin-contracts/blob/v4.8.0/contracts/access/AccessControl.sol\":2505:2521  _checkRole(role) */\n      tag_152\n        /* \"https://github.com/OpenZeppelin/openzeppelin-contracts/blob/v4.8.0/contracts/access/AccessControl.sol\":2516:2520  role */\n      dup2\n        /* \"https://github.com/OpenZeppelin/openzeppelin-contracts/blob/v4.8.0/contracts/access/AccessControl.sol\":2505:2515  _checkRole */\n      tag_139\n        /* \"https://github.com/OpenZeppelin/openzeppelin-contracts/blob/v4.8.0/contracts/access/AccessControl.sol\":2505:2521  _checkRole(role) */\n      jump\t// in\n    tag_152:\n        /* \"contracts/v2/TikTrixEscrow.sol\":5411:5423  tokenAmounts */\n      dup3\n      dup3\n        /* \"contracts/v2/TikTrixEscrow.sol\":5411:5430  tokenAmounts.length */\n      swap1\n      pop\n        /* \"contracts/v2/TikTrixEscrow.sol\":5390:5400  recipients */\n      dup6\n      dup6\n        /* \"contracts/v2/TikTrixEscrow.sol\":5390:5407  recipients.length */\n      swap1\n      pop\n        /* \"contracts/v2/TikTrixEscrow.sol\":5390:5430  recipients.length == tokenAmounts.length */\n      eq\n        /* \"contracts/v2/TikTrixEscrow.sol\":5382:5479  require(recipients.length == tokenAmounts.length, \"Recipients and token amounts length mismatch\") */\n      tag_154\n      jumpi\n      mload(0x40)\n      0x08c379a000000000000000000000000000000000000000000000000000000000\n      dup2\n      mstore\n      0x04\n      add\n      tag_155\n      swap1\n      tag_156\n      jump\t// in\n    tag_155:\n      mload(0x40)\n      dup1\n      swap2\n      sub\n      swap1\n      revert\n    tag_154:\n        /* \"contracts/v2/TikTrixEscrow.sol\":5495:5504  uint256 i */\n      0x00\n        /* \"contracts/v2/TikTrixEscrow.sol\":5490:5646  for (uint256 i = 0; i < recipients.length; i++) {... */\n    tag_157:\n        /* \"contracts/v2/TikTrixEscrow.sol\":5514:5524  recipients */\n      dup6\n      dup6\n        /* \"contracts/v2/TikTrixEscrow.sol\":5514:5531  recipients.length */\n      swap1\n      pop\n        /* \"contracts/v2/TikTrixEscrow.sol\":5510:5511  i */\n      dup2\n        /* \"contracts/v2/TikTrixEscrow.sol\":5510:5531  i < recipients.length */\n      lt\n        /* \"contracts/v2/TikTrixEscrow.sol\":5490:5646  for (uint256 i = 0; i < recipients.length; i++) {... */\n      iszero\n      tag_158\n      jumpi\n        /* \"contracts/v2/TikTrixEscrow.sol\":5560:5568  rptToken */\n      0x02\n      0x00\n      swap1\n      sload\n      swap1\n      0x0100\n      exp\n      swap1\n      div\n      0xffffffffffffffffffffffffffffffffffffffff\n      and\n        /* \"contracts/v2/TikTrixEscrow.sol\":5560:5577  rptToken.transfer */\n      0xffffffffffffffffffffffffffffffffffffffff\n      and\n      0xa9059cbb\n        /* \"contracts/v2/TikTrixEscrow.sol\":5578:5588  recipients */\n      dup8\n      dup8\n        /* \"contracts/v2/TikTrixEscrow.sol\":5589:5590  i */\n      dup5\n        /* \"contracts/v2/TikTrixEscrow.sol\":5578:5591  recipients[i] */\n      dup2\n      dup2\n      lt\n      tag_160\n      jumpi\n      tag_161\n      tag_162\n      jump\t// in\n    tag_161:\n    tag_160:\n      swap1\n      pop\n      0x20\n      mul\n      add\n      0x20\n      dup2\n      add\n      swap1\n      tag_163\n      swap2\n      swap1\n      tag_87\n      jump\t// in\n    tag_163:\n        /* \"contracts/v2/TikTrixEscrow.sol\":5593:5605  tokenAmounts */\n      dup7\n      dup7\n        /* \"contracts/v2/TikTrixEscrow.sol\":5606:5607  i */\n      dup6\n        /* \"contracts/v2/TikTrixEscrow.sol\":5593:5608  tokenAmounts[i] */\n      dup2\n      dup2\n      lt\n      tag_164\n      jumpi\n      tag_165\n      tag_162\n      jump\t// in\n    tag_165:\n    tag_164:\n      swap1\n      pop\n      0x20\n      mul\n      add\n      calldataload\n        /* \"contracts/v2/TikTrixEscrow.sol\":5560:5609  rptToken.transfer(recipients[i], tokenAmounts[i]) */\n      mload(0x40)\n      dup4\n      0xffffffff\n      and\n      0xe0\n      shl\n      dup2\n      mstore\n      0x04\n      add\n      tag_166\n      swap3\n      swap2\n      swap1\n      tag_167\n      jump\t// in\n    tag_166:\n      0x20\n      mload(0x40)\n      dup1\n      dup4\n      sub\n      dup2\n      0x00\n      dup8\n      gas\n      call\n      iszero\n      dup1\n      iszero\n      tag_169\n      jumpi\n      returndatasize\n      0x00\n      dup1\n      returndatacopy\n      revert(0x00, returndatasize)\n    tag_169:\n      pop\n      pop\n      pop\n      pop\n      mload(0x40)\n      returndatasize\n      not(0x1f)\n      0x1f\n      dup3\n      add\n      and\n      dup3\n      add\n      dup1\n      0x40\n      mstore\n      pop\n      dup2\n      add\n      swap1\n      tag_170\n      swap2\n      swap1\n      tag_171\n      jump\t// in\n    tag_170:\n        /* \"contracts/v2/TikTrixEscrow.sol\":5552:5635  require(rptToken.transfer(recipients[i], tokenAmounts[i]), \"Token transfer failed\") */\n      tag_172\n      jumpi\n      mload(0x40)\n      0x08c379a000000000000000000000000000000000000000000000000000000000\n      dup2\n      mstore\n      0x04\n      add\n      tag_173\n      swap1\n      tag_174\n      jump\t// in\n    tag_173:\n      mload(0x40)\n      dup1\n      swap2\n      sub\n      swap1\n      revert\n    tag_172:\n        /* \"contracts/v2/TikTrixEscrow.sol\":5533:5536  i++ */\n      dup1\n      dup1\n      0x01\n      add\n      swap2\n      pop\n      pop\n        /* \"contracts/v2/TikTrixEscrow.sol\":5490:5646  for (uint256 i = 0; i < recipients.length; i++) {... */\n      jump(tag_157)\n    tag_158:\n      pop\n        /* \"contracts/v2/TikTrixEscrow.sol\":5661:5704  PrizesDistributed(recipients, tokenAmounts) */\n      0xfa3b7284ecb3a03e8f238b69b61f5645294c15019ea509bd4aaee604d60fdc34\n        /* \"contracts/v2/TikTrixEscrow.sol\":5679:5689  recipients */\n      dup6\n      dup6\n        /* \"contracts/v2/TikTrixEscrow.sol\":5691:5703  tokenAmounts */\n      dup6\n      dup6\n        /* \"contracts/v2/TikTrixEscrow.sol\":5661:5704  PrizesDistributed(recipients, tokenAmounts) */\n      mload(0x40)\n      tag_175\n      swap5\n      swap4\n      swap3\n      swap2\n      swap1\n      tag_176\n      jump\t// in\n    tag_175:\n      mload(0x40)\n      dup1\n      swap2\n      sub\n      swap1\n      log1\n        /* \"contracts/v2/TikTrixEscrow.sol\":5252:5711  function distributePrizes(address[] calldata recipients, uint256[] calldata tokenAmounts) external onlyRole(ADMIN_ROLE) {... */\n      pop\n      pop\n      pop\n      pop\n      pop\n      jump\t// out\n        /* \"contracts/v2/TikTrixEscrow.sol\":474:534  bytes32 public constant ADMIN_ROLE = keccak256(\"ADMIN_ROLE\") */\n    tag_70:\n        /* \"contracts/v2/TikTrixEscrow.sol\":511:534  keccak256(\"ADMIN_ROLE\") */\n      0xa49807205ce4d355092ef5a8a18f56e8913cf4a201fbe287825b095693c21775\n        /* \"contracts/v2/TikTrixEscrow.sol\":474:534  bytes32 public constant ADMIN_ROLE = keccak256(\"ADMIN_ROLE\") */\n      dup2\n      jump\t// out\n        /* \"contracts/v2/TikTrixEscrow.sol\":4015:4715  function rankScoreUpdateNormal(... */\n    tag_75:\n        /* \"contracts/v2/TikTrixEscrow.sol\":511:534  keccak256(\"ADMIN_ROLE\") */\n      0xa49807205ce4d355092ef5a8a18f56e8913cf4a201fbe287825b095693c21775\n        /* \"https://github.com/OpenZeppelin/openzeppelin-contracts/blob/v4.8.0/contracts/access/AccessControl.sol\":2505:2521  _checkRole(role) */\n      tag_178\n        /* \"https://github.com/OpenZeppelin/openzeppelin-contracts/blob/v4.8.0/contracts/access/AccessControl.sol\":2516:2520  role */\n      dup2\n        /* \"https://github.com/OpenZeppelin/openzeppelin-contracts/blob/v4.8.0/contracts/access/AccessControl.sol\":2505:2515  _checkRole */\n      tag_139\n        /* \"https://github.com/OpenZeppelin/openzeppelin-contracts/blob/v4.8.0/contracts/access/AccessControl.sol\":2505:2521  _checkRole(role) */\n      jump\t// in\n    tag_178:\n        /* \"contracts/v2/TikTrixEscrow.sol\":4201:4213  normalScores */\n      0x05\n        /* \"contracts/v2/TikTrixEscrow.sol\":4201:4223  normalScores[yyyymmdd] */\n      0x00\n        /* \"contracts/v2/TikTrixEscrow.sol\":4214:4222  yyyymmdd */\n      dup7\n        /* \"contracts/v2/TikTrixEscrow.sol\":4201:4223  normalScores[yyyymmdd] */\n      dup2\n      mstore\n      0x20\n      add\n      swap1\n      dup2\n      mstore\n      0x20\n      add\n      0x00\n      keccak256\n        /* \"contracts/v2/TikTrixEscrow.sol\":4201:4232  normalScores[yyyymmdd][gameSeq] */\n      0x00\n        /* \"contracts/v2/TikTrixEscrow.sol\":4224:4231  gameSeq */\n      dup6\n        /* \"contracts/v2/TikTrixEscrow.sol\":4201:4232  normalScores[yyyymmdd][gameSeq] */\n      dup2\n      mstore\n      0x20\n      add\n      swap1\n      dup2\n      mstore\n      0x20\n      add\n      0x00\n      keccak256\n        /* \"contracts/v2/TikTrixEscrow.sol\":4201:4243  normalScores[yyyymmdd][gameSeq][memberSeq] */\n      0x00\n        /* \"contracts/v2/TikTrixEscrow.sol\":4233:4242  memberSeq */\n      dup5\n        /* \"contracts/v2/TikTrixEscrow.sol\":4201:4243  normalScores[yyyymmdd][gameSeq][memberSeq] */\n      dup2\n      mstore\n      0x20\n      add\n      swap1\n      dup2\n      mstore\n      0x20\n      add\n      0x00\n      keccak256\n        /* \"contracts/v2/TikTrixEscrow.sol\":4201:4250  normalScores[yyyymmdd][gameSeq][memberSeq].exists */\n      0x03\n      add\n      0x00\n      swap1\n      sload\n      swap1\n      0x0100\n      exp\n      swap1\n      div\n      0xff\n      and\n        /* \"contracts/v2/TikTrixEscrow.sol\":4196:4632  if (!normalScores[yyyymmdd][gameSeq][memberSeq].exists) {... */\n      tag_180\n      jumpi\n        /* \"contracts/v2/TikTrixEscrow.sol\":4311:4466  NormalScore({... */\n      mload(0x40)\n      dup1\n      0x80\n      add\n      0x40\n      mstore\n      dup1\n        /* \"contracts/v2/TikTrixEscrow.sol\":4350:4357  gameSeq */\n      dup6\n        /* \"contracts/v2/TikTrixEscrow.sol\":4311:4466  NormalScore({... */\n      dup2\n      mstore\n      0x20\n      add\n        /* \"contracts/v2/TikTrixEscrow.sol\":4386:4395  memberSeq */\n      dup5\n        /* \"contracts/v2/TikTrixEscrow.sol\":4311:4466  NormalScore({... */\n      dup2\n      mstore\n      0x20\n      add\n        /* \"contracts/v2/TikTrixEscrow.sol\":4420:4421  0 */\n      0x00\n        /* \"contracts/v2/TikTrixEscrow.sol\":4311:4466  NormalScore({... */\n      dup2\n      mstore\n      0x20\n      add\n        /* \"contracts/v2/TikTrixEscrow.sol\":4447:4451  true */\n      0x01\n        /* \"contracts/v2/TikTrixEscrow.sol\":4311:4466  NormalScore({... */\n      iszero\n      iszero\n      dup2\n      mstore\n      pop\n        /* \"contracts/v2/TikTrixEscrow.sol\":4266:4278  normalScores */\n      0x05\n        /* \"contracts/v2/TikTrixEscrow.sol\":4266:4288  normalScores[yyyymmdd] */\n      0x00\n        /* \"contracts/v2/TikTrixEscrow.sol\":4279:4287  yyyymmdd */\n      dup8\n        /* \"contracts/v2/TikTrixEscrow.sol\":4266:4288  normalScores[yyyymmdd] */\n      dup2\n      mstore\n      0x20\n      add\n      swap1\n      dup2\n      mstore\n      0x20\n      add\n      0x00\n      keccak256\n        /* \"contracts/v2/TikTrixEscrow.sol\":4266:4297  normalScores[yyyymmdd][gameSeq] */\n      0x00\n        /* \"contracts/v2/TikTrixEscrow.sol\":4289:4296  gameSeq */\n      dup7\n        /* \"contracts/v2/TikTrixEscrow.sol\":4266:4297  normalScores[yyyymmdd][gameSeq] */\n      dup2\n      mstore\n      0x20\n      add\n      swap1\n      dup2\n      mstore\n      0x20\n      add\n      0x00\n      keccak256\n        /* \"contracts/v2/TikTrixEscrow.sol\":4266:4308  normalScores[yyyymmdd][gameSeq][memberSeq] */\n      0x00\n        /* \"contracts/v2/TikTrixEscrow.sol\":4298:4307  memberSeq */\n      dup6\n        /* \"contracts/v2/TikTrixEscrow.sol\":4266:4308  normalScores[yyyymmdd][gameSeq][memberSeq] */\n      dup2\n      mstore\n      0x20\n      add\n      swap1\n      dup2\n      mstore\n      0x20\n      add\n      0x00\n      keccak256\n        /* \"contracts/v2/TikTrixEscrow.sol\":4266:4466  normalScores[yyyymmdd][gameSeq][memberSeq] = NormalScore({... */\n      0x00\n      dup3\n      add\n      mload\n      dup2\n      0x00\n      add\n      sstore\n      0x20\n      dup3\n      add\n      mload\n      dup2\n      0x01\n      add\n      sstore\n      0x40\n      dup3\n      add\n      mload\n      dup2\n      0x02\n      add\n      sstore\n      0x60\n      dup3\n      add\n      mload\n      dup2\n      0x03\n      add\n      exp(0x0100, 0x00)\n      dup2\n      sload\n      dup2\n      0xff\n      mul\n      not\n      and\n      swap1\n      dup4\n      iszero\n      iszero\n      mul\n      or\n      swap1\n      sstore\n      pop\n      swap1\n      pop\n      pop\n        /* \"contracts/v2/TikTrixEscrow.sol\":4196:4632  if (!normalScores[yyyymmdd][gameSeq][memberSeq].exists) {... */\n      jump(tag_181)\n    tag_180:\n        /* \"contracts/v2/TikTrixEscrow.sol\":4498:4510  normalScores */\n      0x05\n        /* \"contracts/v2/TikTrixEscrow.sol\":4498:4520  normalScores[yyyymmdd] */\n      0x00\n        /* \"contracts/v2/TikTrixEscrow.sol\":4511:4519  yyyymmdd */\n      dup7\n        /* \"contracts/v2/TikTrixEscrow.sol\":4498:4520  normalScores[yyyymmdd] */\n      dup2\n      mstore\n      0x20\n      add\n      swap1\n      dup2\n      mstore\n      0x20\n      add\n      0x00\n      keccak256\n        /* \"contracts/v2/TikTrixEscrow.sol\":4498:4529  normalScores[yyyymmdd][gameSeq] */\n      0x00\n        /* \"contracts/v2/TikTrixEscrow.sol\":4521:4528  gameSeq */\n      dup6\n        /* \"contracts/v2/TikTrixEscrow.sol\":4498:4529  normalScores[yyyymmdd][gameSeq] */\n      dup2\n      mstore\n      0x20\n      add\n      swap1\n      dup2\n      mstore\n      0x20\n      add\n      0x00\n      keccak256\n        /* \"contracts/v2/TikTrixEscrow.sol\":4498:4540  normalScores[yyyymmdd][gameSeq][memberSeq] */\n      0x00\n        /* \"contracts/v2/TikTrixEscrow.sol\":4530:4539  memberSeq */\n      dup5\n        /* \"contracts/v2/TikTrixEscrow.sol\":4498:4540  normalScores[yyyymmdd][gameSeq][memberSeq] */\n      dup2\n      mstore\n      0x20\n      add\n      swap1\n      dup2\n      mstore\n      0x20\n      add\n      0x00\n      keccak256\n        /* \"contracts/v2/TikTrixEscrow.sol\":4498:4546  normalScores[yyyymmdd][gameSeq][memberSeq].score */\n      0x02\n      add\n      sload\n        /* \"contracts/v2/TikTrixEscrow.sol\":4487:4495  newScore */\n      dup3\n        /* \"contracts/v2/TikTrixEscrow.sol\":4487:4546  newScore > normalScores[yyyymmdd][gameSeq][memberSeq].score */\n      gt\n        /* \"contracts/v2/TikTrixEscrow.sol\":4483:4632  if (newScore > normalScores[yyyymmdd][gameSeq][memberSeq].score) {... */\n      iszero\n      tag_182\n      jumpi\n        /* \"contracts/v2/TikTrixEscrow.sol\":4613:4621  newScore */\n      dup2\n        /* \"contracts/v2/TikTrixEscrow.sol\":4562:4574  normalScores */\n      0x05\n        /* \"contracts/v2/TikTrixEscrow.sol\":4562:4584  normalScores[yyyymmdd] */\n      0x00\n        /* \"contracts/v2/TikTrixEscrow.sol\":4575:4583  yyyymmdd */\n      dup8\n        /* \"contracts/v2/TikTrixEscrow.sol\":4562:4584  normalScores[yyyymmdd] */\n      dup2\n      mstore\n      0x20\n      add\n      swap1\n      dup2\n      mstore\n      0x20\n      add\n      0x00\n      keccak256\n        /* \"contracts/v2/TikTrixEscrow.sol\":4562:4593  normalScores[yyyymmdd][gameSeq] */\n      0x00\n        /* \"contracts/v2/TikTrixEscrow.sol\":4585:4592  gameSeq */\n      dup7\n        /* \"contracts/v2/TikTrixEscrow.sol\":4562:4593  normalScores[yyyymmdd][gameSeq] */\n      dup2\n      mstore\n      0x20\n      add\n      swap1\n      dup2\n      mstore\n      0x20\n      add\n      0x00\n      keccak256\n        /* \"contracts/v2/TikTrixEscrow.sol\":4562:4604  normalScores[yyyymmdd][gameSeq][memberSeq] */\n      0x00\n        /* \"contracts/v2/TikTrixEscrow.sol\":4594:4603  memberSeq */\n      dup6\n        /* \"contracts/v2/TikTrixEscrow.sol\":4562:4604  normalScores[yyyymmdd][gameSeq][memberSeq] */\n      dup2\n      mstore\n      0x20\n      add\n      swap1\n      dup2\n      mstore\n      0x20\n      add\n      0x00\n      keccak256\n        /* \"contracts/v2/TikTrixEscrow.sol\":4562:4610  normalScores[yyyymmdd][gameSeq][memberSeq].score */\n      0x02\n      add\n        /* \"contracts/v2/TikTrixEscrow.sol\":4562:4621  normalScores[yyyymmdd][gameSeq][memberSeq].score = newScore */\n      dup2\n      swap1\n      sstore\n      pop\n        /* \"contracts/v2/TikTrixEscrow.sol\":4483:4632  if (newScore > normalScores[yyyymmdd][gameSeq][memberSeq].score) {... */\n    tag_182:\n        /* \"contracts/v2/TikTrixEscrow.sol\":4196:4632  if (!normalScores[yyyymmdd][gameSeq][memberSeq].exists) {... */\n    tag_181:\n        /* \"contracts/v2/TikTrixEscrow.sol\":4688:4697  memberSeq */\n      dup3\n        /* \"contracts/v2/TikTrixEscrow.sol\":4679:4686  gameSeq */\n      dup5\n        /* \"contracts/v2/TikTrixEscrow.sol\":4669:4677  yyyymmdd */\n      dup7\n        /* \"contracts/v2/TikTrixEscrow.sol\":4647:4708  RankScoreUpdateNoraml(yyyymmdd, gameSeq, memberSeq, newScore) */\n      0xa8f9cf476e5bcc627f5ed22b5ba54bd7fff333cd851bc754d924fe3eb28752fb\n        /* \"contracts/v2/TikTrixEscrow.sol\":4699:4707  newScore */\n      dup6\n        /* \"contracts/v2/TikTrixEscrow.sol\":4647:4708  RankScoreUpdateNoraml(yyyymmdd, gameSeq, memberSeq, newScore) */\n      mload(0x40)\n      tag_183\n      swap2\n      swap1\n      tag_45\n      jump\t// in\n    tag_183:\n      mload(0x40)\n      dup1\n      swap2\n      sub\n      swap1\n      log4\n        /* \"contracts/v2/TikTrixEscrow.sol\":4015:4715  function rankScoreUpdateNormal(... */\n      pop\n      pop\n      pop\n      pop\n      pop\n      jump\t// out\n        /* \"contracts/v2/TikTrixEscrow.sol\":1088:1179  mapping(uint256 => mapping(uint256 => mapping(uint256 => NormalScore))) public normalScores */\n    tag_78:\n      mstore(0x20, 0x05)\n      dup3\n      0x00\n      mstore\n      mstore(0x20, keccak256(0x00, 0x40))\n      dup2\n      0x00\n      mstore\n      mstore(0x20, keccak256(0x00, 0x40))\n      dup1\n      0x00\n      mstore\n      keccak256(0x00, 0x40)\n      0x00\n      swap3\n      pop\n      swap3\n      pop\n      pop\n      pop\n      dup1\n      0x00\n      add\n      sload\n      swap1\n      dup1\n      0x01\n      add\n      sload\n      swap1\n      dup1\n      0x02\n      add\n      sload\n      swap1\n      dup1\n      0x03\n      add\n      0x00\n      swap1\n      sload\n      swap1\n      0x0100\n      exp\n      swap1\n      div\n      0xff\n      and\n      swap1\n      pop\n      dup5\n      jump\t// out\n        /* \"https://github.com/OpenZeppelin/openzeppelin-contracts/blob/v4.8.0/contracts/access/AccessControl.sol\":2895:3040  function hasRole(bytes32 role, address account) public view virtual override returns (bool) {... */\n    tag_83:\n        /* \"https://github.com/OpenZeppelin/openzeppelin-contracts/blob/v4.8.0/contracts/access/AccessControl.sol\":2981:2985  bool */\n      0x00\n        /* \"https://github.com/OpenZeppelin/openzeppelin-contracts/blob/v4.8.0/contracts/access/AccessControl.sol\":3004:3010  _roles */\n      dup1\n        /* \"https://github.com/OpenZeppelin/openzeppelin-contracts/blob/v4.8.0/contracts/access/AccessControl.sol\":3004:3016  _roles[role] */\n      0x00\n        /* \"https://github.com/OpenZeppelin/openzeppelin-contracts/blob/v4.8.0/contracts/access/AccessControl.sol\":3011:3015  role */\n      dup5\n        /* \"https://github.com/OpenZeppelin/openzeppelin-contracts/blob/v4.8.0/contracts/access/AccessControl.sol\":3004:3016  _roles[role] */\n      dup2\n      mstore\n      0x20\n      add\n      swap1\n      dup2\n      mstore\n      0x20\n      add\n      0x00\n      keccak256\n        /* \"https://github.com/OpenZeppelin/openzeppelin-contracts/blob/v4.8.0/contracts/access/AccessControl.sol\":3004:3024  _roles[role].members */\n      0x00\n      add\n        /* \"https://github.com/OpenZeppelin/openzeppelin-contracts/blob/v4.8.0/contracts/access/AccessControl.sol\":3004:3033  _roles[role].members[account] */\n      0x00\n        /* \"https://github.com/OpenZeppelin/openzeppelin-contracts/blob/v4.8.0/contracts/access/AccessControl.sol\":3025:3032  account */\n      dup4\n        /* \"https://github.com/OpenZeppelin/openzeppelin-contracts/blob/v4.8.0/contracts/access/AccessControl.sol\":3004:3033  _roles[role].members[account] */\n      0xffffffffffffffffffffffffffffffffffffffff\n      and\n      0xffffffffffffffffffffffffffffffffffffffff\n      and\n      dup2\n      mstore\n      0x20\n      add\n      swap1\n      dup2\n      mstore\n      0x20\n      add\n      0x00\n      keccak256\n      0x00\n      swap1\n      sload\n      swap1\n      0x0100\n      exp\n      swap1\n      div\n      0xff\n      and\n        /* \"https://github.com/OpenZeppelin/openzeppelin-contracts/blob/v4.8.0/contracts/access/AccessControl.sol\":2997:3033  return _roles[role].members[account] */\n      swap1\n      pop\n        /* \"https://github.com/OpenZeppelin/openzeppelin-contracts/blob/v4.8.0/contracts/access/AccessControl.sol\":2895:3040  function hasRole(bytes32 role, address account) public view virtual override returns (bool) {... */\n      swap3\n      swap2\n      pop\n      pop\n      jump\t// out\n        /* \"contracts/v2/TikTrixEscrow.sol\":2228:2354  function revokeAdminRole(address account) public onlyRole(DEFAULT_ADMIN_ROLE) {... */\n    tag_88:\n        /* \"https://github.com/OpenZeppelin/openzeppelin-contracts/blob/v4.8.0/contracts/access/AccessControl.sol\":2072:2076  0x00 */\n      0x00\n        /* \"contracts/v2/TikTrixEscrow.sol\":2286:2304  DEFAULT_ADMIN_ROLE */\n      dup1\n      shl\n        /* \"https://github.com/OpenZeppelin/openzeppelin-contracts/blob/v4.8.0/contracts/access/AccessControl.sol\":2505:2521  _checkRole(role) */\n      tag_186\n        /* \"https://github.com/OpenZeppelin/openzeppelin-contracts/blob/v4.8.0/contracts/access/AccessControl.sol\":2516:2520  role */\n      dup2\n        /* \"https://github.com/OpenZeppelin/openzeppelin-contracts/blob/v4.8.0/contracts/access/AccessControl.sol\":2505:2515  _checkRole */\n      tag_139\n        /* \"https://github.com/OpenZeppelin/openzeppelin-contracts/blob/v4.8.0/contracts/access/AccessControl.sol\":2505:2521  _checkRole(role) */\n      jump\t// in\n    tag_186:\n        /* \"contracts/v2/TikTrixEscrow.sol\":2316:2347  revokeRole(ADMIN_ROLE, account) */\n      tag_188\n        /* \"contracts/v2/TikTrixEscrow.sol\":511:534  keccak256(\"ADMIN_ROLE\") */\n      0xa49807205ce4d355092ef5a8a18f56e8913cf4a201fbe287825b095693c21775\n        /* \"contracts/v2/TikTrixEscrow.sol\":2339:2346  account */\n      dup4\n        /* \"contracts/v2/TikTrixEscrow.sol\":2316:2326  revokeRole */\n      tag_122\n        /* \"contracts/v2/TikTrixEscrow.sol\":2316:2347  revokeRole(ADMIN_ROLE, account) */\n      jump\t// in\n    tag_188:\n        /* \"contracts/v2/TikTrixEscrow.sol\":2228:2354  function revokeAdminRole(address account) public onlyRole(DEFAULT_ADMIN_ROLE) {... */\n      pop\n      pop\n      jump\t// out\n        /* \"https://github.com/OpenZeppelin/openzeppelin-contracts/blob/v4.8.0/contracts/access/AccessControl.sol\":2027:2076  bytes32 public constant DEFAULT_ADMIN_ROLE = 0x00 */\n    tag_90:\n        /* \"https://github.com/OpenZeppelin/openzeppelin-contracts/blob/v4.8.0/contracts/access/AccessControl.sol\":2072:2076  0x00 */\n      0x00\n        /* \"https://github.com/OpenZeppelin/openzeppelin-contracts/blob/v4.8.0/contracts/access/AccessControl.sol\":2027:2076  bytes32 public constant DEFAULT_ADMIN_ROLE = 0x00 */\n      dup1\n      shl\n      dup2\n      jump\t// out\n        /* \"contracts/v2/TikTrixEscrow.sol\":5717:5927  function getMemberInfo(uint256 memberSeq) external view returns (MemberInfo memory) {... */\n    tag_94:\n        /* \"contracts/v2/TikTrixEscrow.sol\":5782:5799  MemberInfo memory */\n      tag_189\n      tag_190\n      jump\t// in\n    tag_189:\n        /* \"contracts/v2/TikTrixEscrow.sol\":5854:5855  0 */\n      0x00\n        /* \"contracts/v2/TikTrixEscrow.sol\":5819:5830  memberInfos */\n      0x03\n        /* \"contracts/v2/TikTrixEscrow.sol\":5819:5841  memberInfos[memberSeq] */\n      0x00\n        /* \"contracts/v2/TikTrixEscrow.sol\":5831:5840  memberSeq */\n      dup5\n        /* \"contracts/v2/TikTrixEscrow.sol\":5819:5841  memberInfos[memberSeq] */\n      dup2\n      mstore\n      0x20\n      add\n      swap1\n      dup2\n      mstore\n      0x20\n      add\n      0x00\n      keccak256\n        /* \"contracts/v2/TikTrixEscrow.sol\":5819:5851  memberInfos[memberSeq].memberSeq */\n      0x00\n      add\n      sload\n        /* \"contracts/v2/TikTrixEscrow.sol\":5819:5855  memberInfos[memberSeq].memberSeq > 0 */\n      gt\n        /* \"contracts/v2/TikTrixEscrow.sol\":5811:5881  require(memberInfos[memberSeq].memberSeq > 0, \"Member does not exist\") */\n      tag_192\n      jumpi\n      mload(0x40)\n      0x08c379a000000000000000000000000000000000000000000000000000000000\n      dup2\n      mstore\n      0x04\n      add\n      tag_193\n      swap1\n      tag_194\n      jump\t// in\n    tag_193:\n      mload(0x40)\n      dup1\n      swap2\n      sub\n      swap1\n      revert\n    tag_192:\n        /* \"contracts/v2/TikTrixEscrow.sol\":5898:5909  memberInfos */\n      0x03\n        /* \"contracts/v2/TikTrixEscrow.sol\":5898:5920  memberInfos[memberSeq] */\n      0x00\n        /* \"contracts/v2/TikTrixEscrow.sol\":5910:5919  memberSeq */\n      dup4\n        /* \"contracts/v2/TikTrixEscrow.sol\":5898:5920  memberInfos[memberSeq] */\n      dup2\n      mstore\n      0x20\n      add\n      swap1\n      dup2\n      mstore\n      0x20\n      add\n      0x00\n      keccak256\n        /* \"contracts/v2/TikTrixEscrow.sol\":5891:5920  return memberInfos[memberSeq] */\n      mload(0x40)\n      dup1\n      0x20\n      add\n      0x40\n      mstore\n      swap1\n      dup2\n      0x00\n      dup3\n      add\n      sload\n      dup2\n      mstore\n      pop\n      pop\n      swap1\n      pop\n        /* \"contracts/v2/TikTrixEscrow.sol\":5717:5927  function getMemberInfo(uint256 memberSeq) external view returns (MemberInfo memory) {... */\n      swap2\n      swap1\n      pop\n      jump\t// out\n        /* \"contracts/v2/TikTrixEscrow.sol\":2576:3016  function memberRegister(uint256 memberSeq, address mintAddress, uint256 tokenAmount) external onlyRole(ADMIN_ROLE) {... */\n    tag_100:\n        /* \"contracts/v2/TikTrixEscrow.sol\":511:534  keccak256(\"ADMIN_ROLE\") */\n      0xa49807205ce4d355092ef5a8a18f56e8913cf4a201fbe287825b095693c21775\n        /* \"https://github.com/OpenZeppelin/openzeppelin-contracts/blob/v4.8.0/contracts/access/AccessControl.sol\":2505:2521  _checkRole(role) */\n      tag_196\n        /* \"https://github.com/OpenZeppelin/openzeppelin-contracts/blob/v4.8.0/contracts/access/AccessControl.sol\":2516:2520  role */\n      dup2\n        /* \"https://github.com/OpenZeppelin/openzeppelin-contracts/blob/v4.8.0/contracts/access/AccessControl.sol\":2505:2515  _checkRole */\n      tag_139\n        /* \"https://github.com/OpenZeppelin/openzeppelin-contracts/blob/v4.8.0/contracts/access/AccessControl.sol\":2505:2521  _checkRole(role) */\n      jump\t// in\n    tag_196:\n        /* \"contracts/v2/TikTrixEscrow.sol\":2745:2746  0 */\n      0x00\n        /* \"contracts/v2/TikTrixEscrow.sol\":2709:2720  memberInfos */\n      0x03\n        /* \"contracts/v2/TikTrixEscrow.sol\":2709:2731  memberInfos[memberSeq] */\n      0x00\n        /* \"contracts/v2/TikTrixEscrow.sol\":2721:2730  memberSeq */\n      dup7\n        /* \"contracts/v2/TikTrixEscrow.sol\":2709:2731  memberInfos[memberSeq] */\n      dup2\n      mstore\n      0x20\n      add\n      swap1\n      dup2\n      mstore\n      0x20\n      add\n      0x00\n      keccak256\n        /* \"contracts/v2/TikTrixEscrow.sol\":2709:2741  memberInfos[memberSeq].memberSeq */\n      0x00\n      add\n      sload\n        /* \"contracts/v2/TikTrixEscrow.sol\":2709:2746  memberInfos[memberSeq].memberSeq == 0 */\n      eq\n        /* \"contracts/v2/TikTrixEscrow.sol\":2701:2776  require(memberInfos[memberSeq].memberSeq == 0, \"Member already registered\") */\n      tag_198\n      jumpi\n      mload(0x40)\n      0x08c379a000000000000000000000000000000000000000000000000000000000\n      dup2\n      mstore\n      0x04\n      add\n      tag_199\n      swap1\n      tag_200\n      jump\t// in\n    tag_199:\n      mload(0x40)\n      dup1\n      swap2\n      sub\n      swap1\n      revert\n    tag_198:\n        /* \"contracts/v2/TikTrixEscrow.sol\":2812:2868  MemberInfo({... */\n      mload(0x40)\n      dup1\n      0x20\n      add\n      0x40\n      mstore\n      dup1\n        /* \"contracts/v2/TikTrixEscrow.sol\":2848:2857  memberSeq */\n      dup6\n        /* \"contracts/v2/TikTrixEscrow.sol\":2812:2868  MemberInfo({... */\n      dup2\n      mstore\n      pop\n        /* \"contracts/v2/TikTrixEscrow.sol\":2787:2798  memberInfos */\n      0x03\n        /* \"contracts/v2/TikTrixEscrow.sol\":2787:2809  memberInfos[memberSeq] */\n      0x00\n        /* \"contracts/v2/TikTrixEscrow.sol\":2799:2808  memberSeq */\n      dup7\n        /* \"contracts/v2/TikTrixEscrow.sol\":2787:2809  memberInfos[memberSeq] */\n      dup2\n      mstore\n      0x20\n      add\n      swap1\n      dup2\n      mstore\n      0x20\n      add\n      0x00\n      keccak256\n        /* \"contracts/v2/TikTrixEscrow.sol\":2787:2868  memberInfos[memberSeq] = MemberInfo({... */\n      0x00\n      dup3\n      add\n      mload\n      dup2\n      0x00\n      add\n      sstore\n      swap1\n      pop\n      pop\n        /* \"contracts/v2/TikTrixEscrow.sol\":2878:2887  memberIds */\n      0x04\n        /* \"contracts/v2/TikTrixEscrow.sol\":2893:2902  memberSeq */\n      dup5\n        /* \"contracts/v2/TikTrixEscrow.sol\":2878:2903  memberIds.push(memberSeq) */\n      swap1\n      dup1\n      0x01\n      dup2\n      sload\n      add\n      dup1\n      dup3\n      sstore\n      dup1\n      swap2\n      pop\n      pop\n      0x01\n      swap1\n      sub\n      swap1\n      0x00\n      mstore\n      keccak256(0x00, 0x20)\n      add\n      0x00\n      swap1\n      swap2\n      swap1\n      swap2\n      swap1\n      swap2\n      pop\n      sstore\n        /* \"contracts/v2/TikTrixEscrow.sol\":2914:2922  entToken */\n      0x01\n      0x00\n      swap1\n      sload\n      swap1\n      0x0100\n      exp\n      swap1\n      div\n      0xffffffffffffffffffffffffffffffffffffffff\n      and\n        /* \"contracts/v2/TikTrixEscrow.sol\":2914:2927  entToken.mint */\n      0xffffffffffffffffffffffffffffffffffffffff\n      and\n      0x40c10f19\n        /* \"contracts/v2/TikTrixEscrow.sol\":2928:2939  mintAddress */\n      dup5\n        /* \"contracts/v2/TikTrixEscrow.sol\":2941:2952  tokenAmount */\n      dup5\n        /* \"contracts/v2/TikTrixEscrow.sol\":2914:2953  entToken.mint(mintAddress, tokenAmount) */\n      mload(0x40)\n      dup4\n      0xffffffff\n      and\n      0xe0\n      shl\n      dup2\n      mstore\n      0x04\n      add\n      tag_202\n      swap3\n      swap2\n      swap1\n      tag_167\n      jump\t// in\n    tag_202:\n      0x00\n      mload(0x40)\n      dup1\n      dup4\n      sub\n      dup2\n      0x00\n      dup8\n      dup1\n      extcodesize\n      iszero\n      dup1\n      iszero\n      tag_203\n      jumpi\n      0x00\n      dup1\n      revert\n    tag_203:\n      pop\n      gas\n      call\n      iszero\n      dup1\n      iszero\n      tag_205\n      jumpi\n      returndatasize\n      0x00\n      dup1\n      returndatacopy\n      revert(0x00, returndatasize)\n    tag_205:\n      pop\n      pop\n      pop\n      pop\n        /* \"contracts/v2/TikTrixEscrow.sol\":2969:3009  MemberRegistered(memberSeq, tokenAmount) */\n      0x5a92c2530f207992057b9c3e544108ffce3beda4a63719f316967c49bf6159d2\n        /* \"contracts/v2/TikTrixEscrow.sol\":2986:2995  memberSeq */\n      dup5\n        /* \"contracts/v2/TikTrixEscrow.sol\":2997:3008  tokenAmount */\n      dup4\n        /* \"contracts/v2/TikTrixEscrow.sol\":2969:3009  MemberRegistered(memberSeq, tokenAmount) */\n      mload(0x40)\n      tag_206\n      swap3\n      swap2\n      swap1\n      tag_207\n      jump\t// in\n    tag_206:\n      mload(0x40)\n      dup1\n      swap2\n      sub\n      swap1\n      log1\n        /* \"contracts/v2/TikTrixEscrow.sol\":2576:3016  function memberRegister(uint256 memberSeq, address mintAddress, uint256 tokenAmount) external onlyRole(ADMIN_ROLE) {... */\n      pop\n      pop\n      pop\n      pop\n      jump\t// out\n        /* \"contracts/v2/TikTrixEscrow.sol\":5933:6234  function getChallengeScore(uint256 yyyymmdd, uint256 gameSeq, uint256 memberSeq) external view returns (ChallengeScore memory) {... */\n    tag_103:\n        /* \"contracts/v2/TikTrixEscrow.sol\":6037:6058  ChallengeScore memory */\n      tag_208\n      tag_209\n      jump\t// in\n    tag_208:\n        /* \"contracts/v2/TikTrixEscrow.sol\":6078:6093  challengeScores */\n      0x06\n        /* \"contracts/v2/TikTrixEscrow.sol\":6078:6103  challengeScores[yyyymmdd] */\n      0x00\n        /* \"contracts/v2/TikTrixEscrow.sol\":6094:6102  yyyymmdd */\n      dup6\n        /* \"contracts/v2/TikTrixEscrow.sol\":6078:6103  challengeScores[yyyymmdd] */\n      dup2\n      mstore\n      0x20\n      add\n      swap1\n      dup2\n      mstore\n      0x20\n      add\n      0x00\n      keccak256\n        /* \"contracts/v2/TikTrixEscrow.sol\":6078:6112  challengeScores[yyyymmdd][gameSeq] */\n      0x00\n        /* \"contracts/v2/TikTrixEscrow.sol\":6104:6111  gameSeq */\n      dup5\n        /* \"contracts/v2/TikTrixEscrow.sol\":6078:6112  challengeScores[yyyymmdd][gameSeq] */\n      dup2\n      mstore\n      0x20\n      add\n      swap1\n      dup2\n      mstore\n      0x20\n      add\n      0x00\n      keccak256\n        /* \"contracts/v2/TikTrixEscrow.sol\":6078:6123  challengeScores[yyyymmdd][gameSeq][memberSeq] */\n      0x00\n        /* \"contracts/v2/TikTrixEscrow.sol\":6113:6122  memberSeq */\n      dup4\n        /* \"contracts/v2/TikTrixEscrow.sol\":6078:6123  challengeScores[yyyymmdd][gameSeq][memberSeq] */\n      dup2\n      mstore\n      0x20\n      add\n      swap1\n      dup2\n      mstore\n      0x20\n      add\n      0x00\n      keccak256\n        /* \"contracts/v2/TikTrixEscrow.sol\":6078:6130  challengeScores[yyyymmdd][gameSeq][memberSeq].exists */\n      0x04\n      add\n      0x00\n      swap1\n      sload\n      swap1\n      0x0100\n      exp\n      swap1\n      div\n      0xff\n      and\n        /* \"contracts/v2/TikTrixEscrow.sol\":6070:6165  require(challengeScores[yyyymmdd][gameSeq][memberSeq].exists, \"Challenge score does not exist\") */\n      tag_211\n      jumpi\n      mload(0x40)\n      0x08c379a000000000000000000000000000000000000000000000000000000000\n      dup2\n      mstore\n      0x04\n      add\n      tag_212\n      swap1\n      tag_213\n      jump\t// in\n    tag_212:\n      mload(0x40)\n      dup1\n      swap2\n      sub\n      swap1\n      revert\n    tag_211:\n        /* \"contracts/v2/TikTrixEscrow.sol\":6182:6197  challengeScores */\n      0x06\n        /* \"contracts/v2/TikTrixEscrow.sol\":6182:6207  challengeScores[yyyymmdd] */\n      0x00\n        /* \"contracts/v2/TikTrixEscrow.sol\":6198:6206  yyyymmdd */\n      dup6\n        /* \"contracts/v2/TikTrixEscrow.sol\":6182:6207  challengeScores[yyyymmdd] */\n      dup2\n      mstore\n      0x20\n      add\n      swap1\n      dup2\n      mstore\n      0x20\n      add\n      0x00\n      keccak256\n        /* \"contracts/v2/TikTrixEscrow.sol\":6182:6216  challengeScores[yyyymmdd][gameSeq] */\n      0x00\n        /* \"contracts/v2/TikTrixEscrow.sol\":6208:6215  gameSeq */\n      dup5\n        /* \"contracts/v2/TikTrixEscrow.sol\":6182:6216  challengeScores[yyyymmdd][gameSeq] */\n      dup2\n      mstore\n      0x20\n      add\n      swap1\n      dup2\n      mstore\n      0x20\n      add\n      0x00\n      keccak256\n        /* \"contracts/v2/TikTrixEscrow.sol\":6182:6227  challengeScores[yyyymmdd][gameSeq][memberSeq] */\n      0x00\n        /* \"contracts/v2/TikTrixEscrow.sol\":6217:6226  memberSeq */\n      dup4\n        /* \"contracts/v2/TikTrixEscrow.sol\":6182:6227  challengeScores[yyyymmdd][gameSeq][memberSeq] */\n      dup2\n      mstore\n      0x20\n      add\n      swap1\n      dup2\n      mstore\n      0x20\n      add\n      0x00\n      keccak256\n        /* \"contracts/v2/TikTrixEscrow.sol\":6175:6227  return challengeScores[yyyymmdd][gameSeq][memberSeq] */\n      mload(0x40)\n      dup1\n      0xa0\n      add\n      0x40\n      mstore\n      swap1\n      dup2\n      0x00\n      dup3\n      add\n      sload\n      dup2\n      mstore\n      0x20\n      add\n      0x01\n      dup3\n      add\n      sload\n      dup2\n      mstore\n      0x20\n      add\n      0x02\n      dup3\n      add\n      sload\n      dup2\n      mstore\n      0x20\n      add\n      0x03\n      dup3\n      add\n      sload\n      dup2\n      mstore\n      0x20\n      add\n      0x04\n      dup3\n      add\n      0x00\n      swap1\n      sload\n      swap1\n      0x0100\n      exp\n      swap1\n      div\n      0xff\n      and\n      iszero\n      iszero\n      iszero\n      iszero\n      dup2\n      mstore\n      pop\n      pop\n      swap1\n      pop\n        /* \"contracts/v2/TikTrixEscrow.sol\":5933:6234  function getChallengeScore(uint256 yyyymmdd, uint256 gameSeq, uint256 memberSeq) external view returns (ChallengeScore memory) {... */\n      swap4\n      swap3\n      pop\n      pop\n      pop\n      jump\t// out\n        /* \"contracts/v2/TikTrixEscrow.sol\":960:1009  mapping(uint256 => MemberInfo) public memberInfos */\n    tag_108:\n      mstore(0x20, 0x03)\n      dup1\n      0x00\n      mstore\n      keccak256(0x00, 0x40)\n      0x00\n      swap2\n      pop\n      swap1\n      pop\n      dup1\n      0x00\n      add\n      sload\n      swap1\n      pop\n      dup2\n      jump\t// out\n        /* \"contracts/v2/TikTrixEscrow.sol\":2098:2222  function grantAdminRole(address account) public onlyRole(DEFAULT_ADMIN_ROLE) {... */\n    tag_112:\n        /* \"https://github.com/OpenZeppelin/openzeppelin-contracts/blob/v4.8.0/contracts/access/AccessControl.sol\":2072:2076  0x00 */\n      0x00\n        /* \"contracts/v2/TikTrixEscrow.sol\":2155:2173  DEFAULT_ADMIN_ROLE */\n      dup1\n      shl\n        /* \"https://github.com/OpenZeppelin/openzeppelin-contracts/blob/v4.8.0/contracts/access/AccessControl.sol\":2505:2521  _checkRole(role) */\n      tag_215\n        /* \"https://github.com/OpenZeppelin/openzeppelin-contracts/blob/v4.8.0/contracts/access/AccessControl.sol\":2516:2520  role */\n      dup2\n        /* \"https://github.com/OpenZeppelin/openzeppelin-contracts/blob/v4.8.0/contracts/access/AccessControl.sol\":2505:2515  _checkRole */\n      tag_139\n        /* \"https://github.com/OpenZeppelin/openzeppelin-contracts/blob/v4.8.0/contracts/access/AccessControl.sol\":2505:2521  _checkRole(role) */\n      jump\t// in\n    tag_215:\n        /* \"contracts/v2/TikTrixEscrow.sol\":2185:2215  grantRole(ADMIN_ROLE, account) */\n      tag_217\n        /* \"contracts/v2/TikTrixEscrow.sol\":511:534  keccak256(\"ADMIN_ROLE\") */\n      0xa49807205ce4d355092ef5a8a18f56e8913cf4a201fbe287825b095693c21775\n        /* \"contracts/v2/TikTrixEscrow.sol\":2207:2214  account */\n      dup4\n        /* \"contracts/v2/TikTrixEscrow.sol\":2185:2194  grantRole */\n      tag_55\n        /* \"contracts/v2/TikTrixEscrow.sol\":2185:2215  grantRole(ADMIN_ROLE, account) */\n      jump\t// in\n    tag_217:\n        /* \"contracts/v2/TikTrixEscrow.sol\":2098:2222  function grantAdminRole(address account) public onlyRole(DEFAULT_ADMIN_ROLE) {... */\n      pop\n      pop\n      jump\t// out\n        /* \"contracts/v2/TikTrixEscrow.sol\":3022:4009  function challengeRegister(... */\n    tag_115:\n        /* \"contracts/v2/TikTrixEscrow.sol\":3190:3205  challengeScores */\n      0x06\n        /* \"contracts/v2/TikTrixEscrow.sol\":3190:3215  challengeScores[yyyymmdd] */\n      0x00\n        /* \"contracts/v2/TikTrixEscrow.sol\":3206:3214  yyyymmdd */\n      dup6\n        /* \"contracts/v2/TikTrixEscrow.sol\":3190:3215  challengeScores[yyyymmdd] */\n      dup2\n      mstore\n      0x20\n      add\n      swap1\n      dup2\n      mstore\n      0x20\n      add\n      0x00\n      keccak256\n        /* \"contracts/v2/TikTrixEscrow.sol\":3190:3224  challengeScores[yyyymmdd][gameSeq] */\n      0x00\n        /* \"contracts/v2/TikTrixEscrow.sol\":3216:3223  gameSeq */\n      dup5\n        /* \"contracts/v2/TikTrixEscrow.sol\":3190:3224  challengeScores[yyyymmdd][gameSeq] */\n      dup2\n      mstore\n      0x20\n      add\n      swap1\n      dup2\n      mstore\n      0x20\n      add\n      0x00\n      keccak256\n        /* \"contracts/v2/TikTrixEscrow.sol\":3190:3235  challengeScores[yyyymmdd][gameSeq][memberSeq] */\n      0x00\n        /* \"contracts/v2/TikTrixEscrow.sol\":3225:3234  memberSeq */\n      dup4\n        /* \"contracts/v2/TikTrixEscrow.sol\":3190:3235  challengeScores[yyyymmdd][gameSeq][memberSeq] */\n      dup2\n      mstore\n      0x20\n      add\n      swap1\n      dup2\n      mstore\n      0x20\n      add\n      0x00\n      keccak256\n        /* \"contracts/v2/TikTrixEscrow.sol\":3190:3242  challengeScores[yyyymmdd][gameSeq][memberSeq].exists */\n      0x04\n      add\n      0x00\n      swap1\n      sload\n      swap1\n      0x0100\n      exp\n      swap1\n      div\n      0xff\n      and\n        /* \"contracts/v2/TikTrixEscrow.sol\":3189:3242  !challengeScores[yyyymmdd][gameSeq][memberSeq].exists */\n      iszero\n        /* \"contracts/v2/TikTrixEscrow.sol\":3181:3303  require(!challengeScores[yyyymmdd][gameSeq][memberSeq].exists, \"Challenge already exists for this member, date, and game\") */\n      tag_219\n      jumpi\n      mload(0x40)\n      0x08c379a000000000000000000000000000000000000000000000000000000000\n      dup2\n      mstore\n      0x04\n      add\n      tag_220\n      swap1\n      tag_221\n      jump\t// in\n    tag_220:\n      mload(0x40)\n      dup1\n      swap2\n      sub\n      swap1\n      revert\n    tag_219:\n        /* \"contracts/v2/TikTrixEscrow.sol\":3314:3331  uint256 allowance */\n      0x00\n        /* \"contracts/v2/TikTrixEscrow.sol\":3334:3342  entToken */\n      0x01\n      0x00\n      swap1\n      sload\n      swap1\n      0x0100\n      exp\n      swap1\n      div\n      0xffffffffffffffffffffffffffffffffffffffff\n      and\n        /* \"contracts/v2/TikTrixEscrow.sol\":3334:3352  entToken.allowance */\n      0xffffffffffffffffffffffffffffffffffffffff\n      and\n      0xdd62ed3e\n        /* \"contracts/v2/TikTrixEscrow.sol\":3353:3363  msg.sender */\n      caller\n        /* \"contracts/v2/TikTrixEscrow.sol\":3373:3377  this */\n      address\n        /* \"contracts/v2/TikTrixEscrow.sol\":3334:3379  entToken.allowance(msg.sender, address(this)) */\n      mload(0x40)\n      dup4\n      0xffffffff\n      and\n      0xe0\n      shl\n      dup2\n      mstore\n      0x04\n      add\n      tag_222\n      swap3\n      swap2\n      swap1\n      tag_223\n      jump\t// in\n    tag_222:\n      0x20\n      mload(0x40)\n      dup1\n      dup4\n      sub\n      dup2\n      dup7\n      gas\n      staticcall\n      iszero\n      dup1\n      iszero\n      tag_225\n      jumpi\n      returndatasize\n      0x00\n      dup1\n      returndatacopy\n      revert(0x00, returndatasize)\n    tag_225:\n      pop\n      pop\n      pop\n      pop\n      mload(0x40)\n      returndatasize\n      not(0x1f)\n      0x1f\n      dup3\n      add\n      and\n      dup3\n      add\n      dup1\n      0x40\n      mstore\n      pop\n      dup2\n      add\n      swap1\n      tag_226\n      swap2\n      swap1\n      tag_227\n      jump\t// in\n    tag_226:\n        /* \"contracts/v2/TikTrixEscrow.sol\":3314:3379  uint256 allowance = entToken.allowance(msg.sender, address(this)) */\n      swap1\n      pop\n        /* \"contracts/v2/TikTrixEscrow.sol\":3410:3421  tokenAmount */\n      dup2\n        /* \"contracts/v2/TikTrixEscrow.sol\":3397:3406  allowance */\n      dup2\n        /* \"contracts/v2/TikTrixEscrow.sol\":3397:3421  allowance >= tokenAmount */\n      lt\n      iszero\n        /* \"contracts/v2/TikTrixEscrow.sol\":3389:3454  require(allowance >= tokenAmount, \"Insufficient token allowance\") */\n      tag_228\n      jumpi\n      mload(0x40)\n      0x08c379a000000000000000000000000000000000000000000000000000000000\n      dup2\n      mstore\n      0x04\n      add\n      tag_229\n      swap1\n      tag_230\n      jump\t// in\n    tag_229:\n      mload(0x40)\n      dup1\n      swap2\n      sub\n      swap1\n      revert\n    tag_228:\n        /* \"contracts/v2/TikTrixEscrow.sol\":3465:3480  uint256 balance */\n      0x00\n        /* \"contracts/v2/TikTrixEscrow.sol\":3483:3491  entToken */\n      0x01\n      0x00\n      swap1\n      sload\n      swap1\n      0x0100\n      exp\n      swap1\n      div\n      0xffffffffffffffffffffffffffffffffffffffff\n      and\n        /* \"contracts/v2/TikTrixEscrow.sol\":3483:3501  entToken.balanceOf */\n      0xffffffffffffffffffffffffffffffffffffffff\n      and\n      0x70a08231\n        /* \"contracts/v2/TikTrixEscrow.sol\":3502:3512  msg.sender */\n      caller\n        /* \"contracts/v2/TikTrixEscrow.sol\":3483:3513  entToken.balanceOf(msg.sender) */\n      mload(0x40)\n      dup3\n      0xffffffff\n      and\n      0xe0\n      shl\n      dup2\n      mstore\n      0x04\n      add\n      tag_231\n      swap2\n      swap1\n      tag_232\n      jump\t// in\n    tag_231:\n      0x20\n      mload(0x40)\n      dup1\n      dup4\n      sub\n      dup2\n      dup7\n      gas\n      staticcall\n      iszero\n      dup1\n      iszero\n      tag_234\n      jumpi\n      returndatasize\n      0x00\n      dup1\n      returndatacopy\n      revert(0x00, returndatasize)\n    tag_234:\n      pop\n      pop\n      pop\n      pop\n      mload(0x40)\n      returndatasize\n      not(0x1f)\n      0x1f\n      dup3\n      add\n      and\n      dup3\n      add\n      dup1\n      0x40\n      mstore\n      pop\n      dup2\n      add\n      swap1\n      tag_235\n      swap2\n      swap1\n      tag_227\n      jump\t// in\n    tag_235:\n        /* \"contracts/v2/TikTrixEscrow.sol\":3465:3513  uint256 balance = entToken.balanceOf(msg.sender) */\n      swap1\n      pop\n        /* \"contracts/v2/TikTrixEscrow.sol\":3542:3553  tokenAmount */\n      dup3\n        /* \"contracts/v2/TikTrixEscrow.sol\":3531:3538  balance */\n      dup2\n        /* \"contracts/v2/TikTrixEscrow.sol\":3531:3553  balance >= tokenAmount */\n      lt\n      iszero\n        /* \"contracts/v2/TikTrixEscrow.sol\":3523:3584  require(balance >= tokenAmount, \"Insufficient token balance\") */\n      tag_236\n      jumpi\n      mload(0x40)\n      0x08c379a000000000000000000000000000000000000000000000000000000000\n      dup2\n      mstore\n      0x04\n      add\n      tag_237\n      swap1\n      tag_238\n      jump\t// in\n    tag_237:\n      mload(0x40)\n      dup1\n      swap2\n      sub\n      swap1\n      revert\n    tag_236:\n        /* \"contracts/v2/TikTrixEscrow.sol\":3603:3611  entToken */\n      0x01\n      0x00\n      swap1\n      sload\n      swap1\n      0x0100\n      exp\n      swap1\n      div\n      0xffffffffffffffffffffffffffffffffffffffff\n      and\n        /* \"contracts/v2/TikTrixEscrow.sol\":3603:3624  entToken.transferFrom */\n      0xffffffffffffffffffffffffffffffffffffffff\n      and\n      0x23b872dd\n        /* \"contracts/v2/TikTrixEscrow.sol\":3625:3635  msg.sender */\n      caller\n        /* \"contracts/v2/TikTrixEscrow.sol\":3645:3649  this */\n      address\n        /* \"contracts/v2/TikTrixEscrow.sol\":3652:3663  tokenAmount */\n      dup7\n        /* \"contracts/v2/TikTrixEscrow.sol\":3603:3664  entToken.transferFrom(msg.sender, address(this), tokenAmount) */\n      mload(0x40)\n      dup5\n      0xffffffff\n      and\n      0xe0\n      shl\n      dup2\n      mstore\n      0x04\n      add\n      tag_239\n      swap4\n      swap3\n      swap2\n      swap1\n      tag_240\n      jump\t// in\n    tag_239:\n      0x20\n      mload(0x40)\n      dup1\n      dup4\n      sub\n      dup2\n      0x00\n      dup8\n      gas\n      call\n      iszero\n      dup1\n      iszero\n      tag_242\n      jumpi\n      returndatasize\n      0x00\n      dup1\n      returndatacopy\n      revert(0x00, returndatasize)\n    tag_242:\n      pop\n      pop\n      pop\n      pop\n      mload(0x40)\n      returndatasize\n      not(0x1f)\n      0x1f\n      dup3\n      add\n      and\n      dup3\n      add\n      dup1\n      0x40\n      mstore\n      pop\n      dup2\n      add\n      swap1\n      tag_243\n      swap2\n      swap1\n      tag_171\n      jump\t// in\n    tag_243:\n        /* \"contracts/v2/TikTrixEscrow.sol\":3595:3690  require(entToken.transferFrom(msg.sender, address(this), tokenAmount), \"Token transfer failed\") */\n      tag_244\n      jumpi\n      mload(0x40)\n      0x08c379a000000000000000000000000000000000000000000000000000000000\n      dup2\n      mstore\n      0x04\n      add\n      tag_245\n      swap1\n      tag_174\n      jump\t// in\n    tag_245:\n      mload(0x40)\n      dup1\n      swap2\n      sub\n      swap1\n      revert\n    tag_244:\n        /* \"contracts/v2/TikTrixEscrow.sol\":3749:3925  ChallengeScore({... */\n      mload(0x40)\n      dup1\n      0xa0\n      add\n      0x40\n      mstore\n      dup1\n        /* \"contracts/v2/TikTrixEscrow.sol\":3787:3794  gameSeq */\n      dup7\n        /* \"contracts/v2/TikTrixEscrow.sol\":3749:3925  ChallengeScore({... */\n      dup2\n      mstore\n      0x20\n      add\n        /* \"contracts/v2/TikTrixEscrow.sol\":3819:3828  memberSeq */\n      dup6\n        /* \"contracts/v2/TikTrixEscrow.sol\":3749:3925  ChallengeScore({... */\n      dup2\n      mstore\n      0x20\n      add\n        /* \"contracts/v2/TikTrixEscrow.sol\":3855:3866  tokenAmount */\n      dup5\n        /* \"contracts/v2/TikTrixEscrow.sol\":3749:3925  ChallengeScore({... */\n      dup2\n      mstore\n      0x20\n      add\n        /* \"contracts/v2/TikTrixEscrow.sol\":3887:3888  0 */\n      0x00\n        /* \"contracts/v2/TikTrixEscrow.sol\":3749:3925  ChallengeScore({... */\n      dup2\n      mstore\n      0x20\n      add\n        /* \"contracts/v2/TikTrixEscrow.sol\":3910:3914  true */\n      0x01\n        /* \"contracts/v2/TikTrixEscrow.sol\":3749:3925  ChallengeScore({... */\n      iszero\n      iszero\n      dup2\n      mstore\n      pop\n        /* \"contracts/v2/TikTrixEscrow.sol\":3701:3716  challengeScores */\n      0x06\n        /* \"contracts/v2/TikTrixEscrow.sol\":3701:3726  challengeScores[yyyymmdd] */\n      0x00\n        /* \"contracts/v2/TikTrixEscrow.sol\":3717:3725  yyyymmdd */\n      dup9\n        /* \"contracts/v2/TikTrixEscrow.sol\":3701:3726  challengeScores[yyyymmdd] */\n      dup2\n      mstore\n      0x20\n      add\n      swap1\n      dup2\n      mstore\n      0x20\n      add\n      0x00\n      keccak256\n        /* \"contracts/v2/TikTrixEscrow.sol\":3701:3735  challengeScores[yyyymmdd][gameSeq] */\n      0x00\n        /* \"contracts/v2/TikTrixEscrow.sol\":3727:3734  gameSeq */\n      dup8\n        /* \"contracts/v2/TikTrixEscrow.sol\":3701:3735  challengeScores[yyyymmdd][gameSeq] */\n      dup2\n      mstore\n      0x20\n      add\n      swap1\n      dup2\n      mstore\n      0x20\n      add\n      0x00\n      keccak256\n        /* \"contracts/v2/TikTrixEscrow.sol\":3701:3746  challengeScores[yyyymmdd][gameSeq][memberSeq] */\n      0x00\n        /* \"contracts/v2/TikTrixEscrow.sol\":3736:3745  memberSeq */\n      dup7\n        /* \"contracts/v2/TikTrixEscrow.sol\":3701:3746  challengeScores[yyyymmdd][gameSeq][memberSeq] */\n      dup2\n      mstore\n      0x20\n      add\n      swap1\n      dup2\n      mstore\n      0x20\n      add\n      0x00\n      keccak256\n        /* \"contracts/v2/TikTrixEscrow.sol\":3701:3925  challengeScores[yyyymmdd][gameSeq][memberSeq] = ChallengeScore({... */\n      0x00\n      dup3\n      add\n      mload\n      dup2\n      0x00\n      add\n      sstore\n      0x20\n      dup3\n      add\n      mload\n      dup2\n      0x01\n      add\n      sstore\n      0x40\n      dup3\n      add\n      mload\n      dup2\n      0x02\n      add\n      sstore\n      0x60\n      dup3\n      add\n      mload\n      dup2\n      0x03\n      add\n      sstore\n      0x80\n      dup3\n      add\n      mload\n      dup2\n      0x04\n      add\n      exp(0x0100, 0x00)\n      dup2\n      sload\n      dup2\n      0xff\n      mul\n      not\n      and\n      swap1\n      dup4\n      iszero\n      iszero\n      mul\n      or\n      swap1\n      sstore\n      pop\n      swap1\n      pop\n      pop\n        /* \"contracts/v2/TikTrixEscrow.sol\":3979:3988  memberSeq */\n      dup4\n        /* \"contracts/v2/TikTrixEscrow.sol\":3970:3977  gameSeq */\n      dup6\n        /* \"contracts/v2/TikTrixEscrow.sol\":3960:3968  yyyymmdd */\n      dup8\n        /* \"contracts/v2/TikTrixEscrow.sol\":3941:4002  ChallengeRegistred(yyyymmdd, gameSeq, memberSeq, tokenAmount) */\n      0x7bbca5efeebbed029b1684066d1a6e0ade8efe8c578ab0890d4b223e6ec5e50e\n        /* \"contracts/v2/TikTrixEscrow.sol\":3990:4001  tokenAmount */\n      dup7\n        /* \"contracts/v2/TikTrixEscrow.sol\":3941:4002  ChallengeRegistred(yyyymmdd, gameSeq, memberSeq, tokenAmount) */\n      mload(0x40)\n      tag_246\n      swap2\n      swap1\n      tag_45\n      jump\t// in\n    tag_246:\n      mload(0x40)\n      dup1\n      swap2\n      sub\n      swap1\n      log4\n        /* \"contracts/v2/TikTrixEscrow.sol\":3171:4009  {... */\n      pop\n      pop\n        /* \"contracts/v2/TikTrixEscrow.sol\":3022:4009  function challengeRegister(... */\n      pop\n      pop\n      pop\n      pop\n      jump\t// out\n        /* \"contracts/v2/TikTrixEscrow.sol\":2360:2570  function setTokens(address entTokenAddress, address rptTokenAddress) external onlyRole(ADMIN_ROLE) {... */\n    tag_119:\n        /* \"contracts/v2/TikTrixEscrow.sol\":511:534  keccak256(\"ADMIN_ROLE\") */\n      0xa49807205ce4d355092ef5a8a18f56e8913cf4a201fbe287825b095693c21775\n        /* \"https://github.com/OpenZeppelin/openzeppelin-contracts/blob/v4.8.0/contracts/access/AccessControl.sol\":2505:2521  _checkRole(role) */\n      tag_248\n        /* \"https://github.com/OpenZeppelin/openzeppelin-contracts/blob/v4.8.0/contracts/access/AccessControl.sol\":2516:2520  role */\n      dup2\n        /* \"https://github.com/OpenZeppelin/openzeppelin-contracts/blob/v4.8.0/contracts/access/AccessControl.sol\":2505:2515  _checkRole */\n      tag_139\n        /* \"https://github.com/OpenZeppelin/openzeppelin-contracts/blob/v4.8.0/contracts/access/AccessControl.sol\":2505:2521  _checkRole(role) */\n      jump\t// in\n    tag_248:\n        /* \"contracts/v2/TikTrixEscrow.sol\":2495:2510  entTokenAddress */\n      dup3\n        /* \"contracts/v2/TikTrixEscrow.sol\":2469:2477  entToken */\n      0x01\n      0x00\n        /* \"contracts/v2/TikTrixEscrow.sol\":2469:2511  entToken = IERC20Mintable(entTokenAddress) */\n      0x0100\n      exp\n      dup2\n      sload\n      dup2\n      0xffffffffffffffffffffffffffffffffffffffff\n      mul\n      not\n      and\n      swap1\n      dup4\n      0xffffffffffffffffffffffffffffffffffffffff\n      and\n      mul\n      or\n      swap1\n      sstore\n      pop\n        /* \"contracts/v2/TikTrixEscrow.sol\":2547:2562  rptTokenAddress */\n      dup2\n        /* \"contracts/v2/TikTrixEscrow.sol\":2521:2529  rptToken */\n      0x02\n      0x00\n        /* \"contracts/v2/TikTrixEscrow.sol\":2521:2563  rptToken = IERC20Mintable(rptTokenAddress) */\n      0x0100\n      exp\n      dup2\n      sload\n      dup2\n      0xffffffffffffffffffffffffffffffffffffffff\n      mul\n      not\n      and\n      swap1\n      dup4\n      0xffffffffffffffffffffffffffffffffffffffff\n      and\n      mul\n      or\n      swap1\n      sstore\n      pop\n        /* \"contracts/v2/TikTrixEscrow.sol\":2360:2570  function setTokens(address entTokenAddress, address rptTokenAddress) external onlyRole(ADMIN_ROLE) {... */\n      pop\n      pop\n      pop\n      jump\t// out\n        /* \"https://github.com/OpenZeppelin/openzeppelin-contracts/blob/v4.8.0/contracts/access/AccessControl.sol\":5228:5375  function revokeRole(bytes32 role, address account) public virtual override onlyRole(getRoleAdmin(role)) {... */\n    tag_122:\n        /* \"https://github.com/OpenZeppelin/openzeppelin-contracts/blob/v4.8.0/contracts/access/AccessControl.sol\":5312:5330  getRoleAdmin(role) */\n      tag_250\n        /* \"https://github.com/OpenZeppelin/openzeppelin-contracts/blob/v4.8.0/contracts/access/AccessControl.sol\":5325:5329  role */\n      dup3\n        /* \"https://github.com/OpenZeppelin/openzeppelin-contracts/blob/v4.8.0/contracts/access/AccessControl.sol\":5312:5324  getRoleAdmin */\n      tag_49\n        /* \"https://github.com/OpenZeppelin/openzeppelin-contracts/blob/v4.8.0/contracts/access/AccessControl.sol\":5312:5330  getRoleAdmin(role) */\n      jump\t// in\n    tag_250:\n        /* \"https://github.com/OpenZeppelin/openzeppelin-contracts/blob/v4.8.0/contracts/access/AccessControl.sol\":2505:2521  _checkRole(role) */\n      tag_252\n        /* \"https://github.com/OpenZeppelin/openzeppelin-contracts/blob/v4.8.0/contracts/access/AccessControl.sol\":2516:2520  role */\n      dup2\n        /* \"https://github.com/OpenZeppelin/openzeppelin-contracts/blob/v4.8.0/contracts/access/AccessControl.sol\":2505:2515  _checkRole */\n      tag_139\n        /* \"https://github.com/OpenZeppelin/openzeppelin-contracts/blob/v4.8.0/contracts/access/AccessControl.sol\":2505:2521  _checkRole(role) */\n      jump\t// in\n    tag_252:\n        /* \"https://github.com/OpenZeppelin/openzeppelin-contracts/blob/v4.8.0/contracts/access/AccessControl.sol\":5342:5368  _revokeRole(role, account) */\n      tag_254\n        /* \"https://github.com/OpenZeppelin/openzeppelin-contracts/blob/v4.8.0/contracts/access/AccessControl.sol\":5354:5358  role */\n      dup4\n        /* \"https://github.com/OpenZeppelin/openzeppelin-contracts/blob/v4.8.0/contracts/access/AccessControl.sol\":5360:5367  account */\n      dup4\n        /* \"https://github.com/OpenZeppelin/openzeppelin-contracts/blob/v4.8.0/contracts/access/AccessControl.sol\":5342:5353  _revokeRole */\n      tag_150\n        /* \"https://github.com/OpenZeppelin/openzeppelin-contracts/blob/v4.8.0/contracts/access/AccessControl.sol\":5342:5368  _revokeRole(role, account) */\n      jump\t// in\n    tag_254:\n        /* \"https://github.com/OpenZeppelin/openzeppelin-contracts/blob/v4.8.0/contracts/access/AccessControl.sol\":5228:5375  function revokeRole(bytes32 role, address account) public virtual override onlyRole(getRoleAdmin(role)) {... */\n      pop\n      pop\n      pop\n      jump\t// out\n        /* \"contracts/v2/TikTrixEscrow.sol\":541:571  IERC20Mintable public entToken */\n    tag_124:\n      0x01\n      0x00\n      swap1\n      sload\n      swap1\n      0x0100\n      exp\n      swap1\n      div\n      0xffffffffffffffffffffffffffffffffffffffff\n      and\n      dup2\n      jump\t// out\n        /* \"contracts/v2/TikTrixEscrow.sol\":4721:5246  function rankScoreUpdateChallenge(... */\n    tag_128:\n        /* \"contracts/v2/TikTrixEscrow.sol\":511:534  keccak256(\"ADMIN_ROLE\") */\n      0xa49807205ce4d355092ef5a8a18f56e8913cf4a201fbe287825b095693c21775\n        /* \"https://github.com/OpenZeppelin/openzeppelin-contracts/blob/v4.8.0/contracts/access/AccessControl.sol\":2505:2521  _checkRole(role) */\n      tag_256\n        /* \"https://github.com/OpenZeppelin/openzeppelin-contracts/blob/v4.8.0/contracts/access/AccessControl.sol\":2516:2520  role */\n      dup2\n        /* \"https://github.com/OpenZeppelin/openzeppelin-contracts/blob/v4.8.0/contracts/access/AccessControl.sol\":2505:2515  _checkRole */\n      tag_139\n        /* \"https://github.com/OpenZeppelin/openzeppelin-contracts/blob/v4.8.0/contracts/access/AccessControl.sol\":2505:2521  _checkRole(role) */\n      jump\t// in\n    tag_256:\n        /* \"contracts/v2/TikTrixEscrow.sol\":4913:4928  challengeScores */\n      0x06\n        /* \"contracts/v2/TikTrixEscrow.sol\":4913:4938  challengeScores[yyyymmdd] */\n      0x00\n        /* \"contracts/v2/TikTrixEscrow.sol\":4929:4937  yyyymmdd */\n      dup7\n        /* \"contracts/v2/TikTrixEscrow.sol\":4913:4938  challengeScores[yyyymmdd] */\n      dup2\n      mstore\n      0x20\n      add\n      swap1\n      dup2\n      mstore\n      0x20\n      add\n      0x00\n      keccak256\n        /* \"contracts/v2/TikTrixEscrow.sol\":4913:4947  challengeScores[yyyymmdd][gameSeq] */\n      0x00\n        /* \"contracts/v2/TikTrixEscrow.sol\":4939:4946  gameSeq */\n      dup6\n        /* \"contracts/v2/TikTrixEscrow.sol\":4913:4947  challengeScores[yyyymmdd][gameSeq] */\n      dup2\n      mstore\n      0x20\n      add\n      swap1\n      dup2\n      mstore\n      0x20\n      add\n      0x00\n      keccak256\n        /* \"contracts/v2/TikTrixEscrow.sol\":4913:4958  challengeScores[yyyymmdd][gameSeq][memberSeq] */\n      0x00\n        /* \"contracts/v2/TikTrixEscrow.sol\":4948:4957  memberSeq */\n      dup5\n        /* \"contracts/v2/TikTrixEscrow.sol\":4913:4958  challengeScores[yyyymmdd][gameSeq][memberSeq] */\n      dup2\n      mstore\n      0x20\n      add\n      swap1\n      dup2\n      mstore\n      0x20\n      add\n      0x00\n      keccak256\n        /* \"contracts/v2/TikTrixEscrow.sol\":4913:4965  challengeScores[yyyymmdd][gameSeq][memberSeq].exists */\n      0x04\n      add\n      0x00\n      swap1\n      sload\n      swap1\n      0x0100\n      exp\n      swap1\n      div\n      0xff\n      and\n        /* \"contracts/v2/TikTrixEscrow.sol\":4905:4994  require(challengeScores[yyyymmdd][gameSeq][memberSeq].exists, \"Challenge does not exist\") */\n      tag_258\n      jumpi\n      mload(0x40)\n      0x08c379a000000000000000000000000000000000000000000000000000000000\n      dup2\n      mstore\n      0x04\n      add\n      tag_259\n      swap1\n      tag_260\n      jump\t// in\n    tag_259:\n      mload(0x40)\n      dup1\n      swap2\n      sub\n      swap1\n      revert\n    tag_258:\n        /* \"contracts/v2/TikTrixEscrow.sol\":5020:5035  challengeScores */\n      0x06\n        /* \"contracts/v2/TikTrixEscrow.sol\":5020:5045  challengeScores[yyyymmdd] */\n      0x00\n        /* \"contracts/v2/TikTrixEscrow.sol\":5036:5044  yyyymmdd */\n      dup7\n        /* \"contracts/v2/TikTrixEscrow.sol\":5020:5045  challengeScores[yyyymmdd] */\n      dup2\n      mstore\n      0x20\n      add\n      swap1\n      dup2\n      mstore\n      0x20\n      add\n      0x00\n      keccak256\n        /* \"contracts/v2/TikTrixEscrow.sol\":5020:5054  challengeScores[yyyymmdd][gameSeq] */\n      0x00\n        /* \"contracts/v2/TikTrixEscrow.sol\":5046:5053  gameSeq */\n      dup6\n        /* \"contracts/v2/TikTrixEscrow.sol\":5020:5054  challengeScores[yyyymmdd][gameSeq] */\n      dup2\n      mstore\n      0x20\n      add\n      swap1\n      dup2\n      mstore\n      0x20\n      add\n      0x00\n      keccak256\n        /* \"contracts/v2/TikTrixEscrow.sol\":5020:5065  challengeScores[yyyymmdd][gameSeq][memberSeq] */\n      0x00\n        /* \"contracts/v2/TikTrixEscrow.sol\":5055:5064  memberSeq */\n      dup5\n        /* \"contracts/v2/TikTrixEscrow.sol\":5020:5065  challengeScores[yyyymmdd][gameSeq][memberSeq] */\n      dup2\n      mstore\n      0x20\n      add\n      swap1\n      dup2\n      mstore\n      0x20\n      add\n      0x00\n      keccak256\n        /* \"contracts/v2/TikTrixEscrow.sol\":5020:5071  challengeScores[yyyymmdd][gameSeq][memberSeq].score */\n      0x03\n      add\n      sload\n        /* \"contracts/v2/TikTrixEscrow.sol\":5009:5017  newScore */\n      dup3\n        /* \"contracts/v2/TikTrixEscrow.sol\":5009:5071  newScore > challengeScores[yyyymmdd][gameSeq][memberSeq].score */\n      gt\n        /* \"contracts/v2/TikTrixEscrow.sol\":5005:5160  if (newScore > challengeScores[yyyymmdd][gameSeq][memberSeq].score) {... */\n      iszero\n      tag_261\n      jumpi\n        /* \"contracts/v2/TikTrixEscrow.sol\":5141:5149  newScore */\n      dup2\n        /* \"contracts/v2/TikTrixEscrow.sol\":5087:5102  challengeScores */\n      0x06\n        /* \"contracts/v2/TikTrixEscrow.sol\":5087:5112  challengeScores[yyyymmdd] */\n      0x00\n        /* \"contracts/v2/TikTrixEscrow.sol\":5103:5111  yyyymmdd */\n      dup8\n        /* \"contracts/v2/TikTrixEscrow.sol\":5087:5112  challengeScores[yyyymmdd] */\n      dup2\n      mstore\n      0x20\n      add\n      swap1\n      dup2\n      mstore\n      0x20\n      add\n      0x00\n      keccak256\n        /* \"contracts/v2/TikTrixEscrow.sol\":5087:5121  challengeScores[yyyymmdd][gameSeq] */\n      0x00\n        /* \"contracts/v2/TikTrixEscrow.sol\":5113:5120  gameSeq */\n      dup7\n        /* \"contracts/v2/TikTrixEscrow.sol\":5087:5121  challengeScores[yyyymmdd][gameSeq] */\n      dup2\n      mstore\n      0x20\n      add\n      swap1\n      dup2\n      mstore\n      0x20\n      add\n      0x00\n      keccak256\n        /* \"contracts/v2/TikTrixEscrow.sol\":5087:5132  challengeScores[yyyymmdd][gameSeq][memberSeq] */\n      0x00\n        /* \"contracts/v2/TikTrixEscrow.sol\":5122:5131  memberSeq */\n      dup6\n        /* \"contracts/v2/TikTrixEscrow.sol\":5087:5132  challengeScores[yyyymmdd][gameSeq][memberSeq] */\n      dup2\n      mstore\n      0x20\n      add\n      swap1\n      dup2\n      mstore\n      0x20\n      add\n      0x00\n      keccak256\n        /* \"contracts/v2/TikTrixEscrow.sol\":5087:5138  challengeScores[yyyymmdd][gameSeq][memberSeq].score */\n      0x03\n      add\n        /* \"contracts/v2/TikTrixEscrow.sol\":5087:5149  challengeScores[yyyymmdd][gameSeq][memberSeq].score = newScore */\n      dup2\n      swap1\n      sstore\n      pop\n        /* \"contracts/v2/TikTrixEscrow.sol\":5005:5160  if (newScore > challengeScores[yyyymmdd][gameSeq][memberSeq].score) {... */\n    tag_261:\n        /* \"contracts/v2/TikTrixEscrow.sol\":5219:5228  memberSeq */\n      dup3\n        /* \"contracts/v2/TikTrixEscrow.sol\":5210:5217  gameSeq */\n      dup5\n        /* \"contracts/v2/TikTrixEscrow.sol\":5200:5208  yyyymmdd */\n      dup7\n        /* \"contracts/v2/TikTrixEscrow.sol\":5175:5239  RankScoreUpdateChallenge(yyyymmdd, gameSeq, memberSeq, newScore) */\n      0x2bbc9ad1871f4b99168aa3febe254b9069558ff96ed7746d1677869afa38243f\n        /* \"contracts/v2/TikTrixEscrow.sol\":5230:5238  newScore */\n      dup6\n        /* \"contracts/v2/TikTrixEscrow.sol\":5175:5239  RankScoreUpdateChallenge(yyyymmdd, gameSeq, memberSeq, newScore) */\n      mload(0x40)\n      tag_262\n      swap2\n      swap1\n      tag_45\n      jump\t// in\n    tag_262:\n      mload(0x40)\n      dup1\n      swap2\n      sub\n      swap1\n      log4\n        /* \"contracts/v2/TikTrixEscrow.sol\":4721:5246  function rankScoreUpdateChallenge(... */\n      pop\n      pop\n      pop\n      pop\n      pop\n      jump\t// out\n        /* \"https://github.com/OpenZeppelin/openzeppelin-contracts/blob/v4.8.0/contracts/utils/introspection/ERC165.sol\":829:984  function supportsInterface(bytes4 interfaceId) public view virtual override returns (bool) {... */\n    tag_132:\n        /* \"https://github.com/OpenZeppelin/openzeppelin-contracts/blob/v4.8.0/contracts/utils/introspection/ERC165.sol\":914:918  bool */\n      0x00\n        /* \"https://github.com/OpenZeppelin/openzeppelin-contracts/blob/v4.8.0/contracts/utils/introspection/ERC165.sol\":952:977  type(IERC165).interfaceId */\n      0x01ffc9a700000000000000000000000000000000000000000000000000000000\n        /* \"https://github.com/OpenZeppelin/openzeppelin-contracts/blob/v4.8.0/contracts/utils/introspection/ERC165.sol\":937:977  interfaceId == type(IERC165).interfaceId */\n      not(0xffffffffffffffffffffffffffffffffffffffffffffffffffffffff)\n      and\n        /* \"https://github.com/OpenZeppelin/openzeppelin-contracts/blob/v4.8.0/contracts/utils/introspection/ERC165.sol\":937:948  interfaceId */\n      dup3\n        /* \"https://github.com/OpenZeppelin/openzeppelin-contracts/blob/v4.8.0/contracts/utils/introspection/ERC165.sol\":937:977  interfaceId == type(IERC165).interfaceId */\n      not(0xffffffffffffffffffffffffffffffffffffffffffffffffffffffff)\n      and\n      eq\n        /* \"https://github.com/OpenZeppelin/openzeppelin-contracts/blob/v4.8.0/contracts/utils/introspection/ERC165.sol\":930:977  return interfaceId == type(IERC165).interfaceId */\n      swap1\n      pop\n        /* \"https://github.com/OpenZeppelin/openzeppelin-contracts/blob/v4.8.0/contracts/utils/introspection/ERC165.sol\":829:984  function supportsInterface(bytes4 interfaceId) public view virtual override returns (bool) {... */\n      swap2\n      swap1\n      pop\n      jump\t// out\n        /* \"https://github.com/OpenZeppelin/openzeppelin-contracts/blob/v4.8.0/contracts/access/AccessControl.sol\":3334:3437  function _checkRole(bytes32 role) internal view virtual {... */\n    tag_139:\n        /* \"https://github.com/OpenZeppelin/openzeppelin-contracts/blob/v4.8.0/contracts/access/AccessControl.sol\":3400:3430  _checkRole(role, _msgSender()) */\n      tag_265\n        /* \"https://github.com/OpenZeppelin/openzeppelin-contracts/blob/v4.8.0/contracts/access/AccessControl.sol\":3411:3415  role */\n      dup2\n        /* \"https://github.com/OpenZeppelin/openzeppelin-contracts/blob/v4.8.0/contracts/access/AccessControl.sol\":3417:3429  _msgSender() */\n      tag_266\n        /* \"https://github.com/OpenZeppelin/openzeppelin-contracts/blob/v4.8.0/contracts/access/AccessControl.sol\":3417:3427  _msgSender */\n      tag_145\n        /* \"https://github.com/OpenZeppelin/openzeppelin-contracts/blob/v4.8.0/contracts/access/AccessControl.sol\":3417:3429  _msgSender() */\n      jump\t// in\n    tag_266:\n        /* \"https://github.com/OpenZeppelin/openzeppelin-contracts/blob/v4.8.0/contracts/access/AccessControl.sol\":3400:3410  _checkRole */\n      tag_267\n        /* \"https://github.com/OpenZeppelin/openzeppelin-contracts/blob/v4.8.0/contracts/access/AccessControl.sol\":3400:3430  _checkRole(role, _msgSender()) */\n      jump\t// in\n    tag_265:\n        /* \"https://github.com/OpenZeppelin/openzeppelin-contracts/blob/v4.8.0/contracts/access/AccessControl.sol\":3334:3437  function _checkRole(bytes32 role) internal view virtual {... */\n      pop\n      jump\t// out\n        /* \"https://github.com/OpenZeppelin/openzeppelin-contracts/blob/v4.8.0/contracts/access/AccessControl.sol\":7461:7694  function _grantRole(bytes32 role, address account) internal virtual {... */\n    tag_142:\n        /* \"https://github.com/OpenZeppelin/openzeppelin-contracts/blob/v4.8.0/contracts/access/AccessControl.sol\":7544:7566  hasRole(role, account) */\n      tag_269\n        /* \"https://github.com/OpenZeppelin/openzeppelin-contracts/blob/v4.8.0/contracts/access/AccessControl.sol\":7552:7556  role */\n      dup3\n        /* \"https://github.com/OpenZeppelin/openzeppelin-contracts/blob/v4.8.0/contracts/access/AccessControl.sol\":7558:7565  account */\n      dup3\n        /* \"https://github.com/OpenZeppelin/openzeppelin-contracts/blob/v4.8.0/contracts/access/AccessControl.sol\":7544:7551  hasRole */\n      tag_83\n        /* \"https://github.com/OpenZeppelin/openzeppelin-contracts/blob/v4.8.0/contracts/access/AccessControl.sol\":7544:7566  hasRole(role, account) */\n      jump\t// in\n    tag_269:\n        /* \"https://github.com/OpenZeppelin/openzeppelin-contracts/blob/v4.8.0/contracts/access/AccessControl.sol\":7539:7688  if (!hasRole(role, account)) {... */\n      tag_270\n      jumpi\n        /* \"https://github.com/OpenZeppelin/openzeppelin-contracts/blob/v4.8.0/contracts/access/AccessControl.sol\":7614:7618  true */\n      0x01\n        /* \"https://github.com/OpenZeppelin/openzeppelin-contracts/blob/v4.8.0/contracts/access/AccessControl.sol\":7582:7588  _roles */\n      0x00\n        /* \"https://github.com/OpenZeppelin/openzeppelin-contracts/blob/v4.8.0/contracts/access/AccessControl.sol\":7582:7594  _roles[role] */\n      dup1\n        /* \"https://github.com/OpenZeppelin/openzeppelin-contracts/blob/v4.8.0/contracts/access/AccessControl.sol\":7589:7593  role */\n      dup5\n        /* \"https://github.com/OpenZeppelin/openzeppelin-contracts/blob/v4.8.0/contracts/access/AccessControl.sol\":7582:7594  _roles[role] */\n      dup2\n      mstore\n      0x20\n      add\n      swap1\n      dup2\n      mstore\n      0x20\n      add\n      0x00\n      keccak256\n        /* \"https://github.com/OpenZeppelin/openzeppelin-contracts/blob/v4.8.0/contracts/access/AccessControl.sol\":7582:7602  _roles[role].members */\n      0x00\n      add\n        /* \"https://github.com/OpenZeppelin/openzeppelin-contracts/blob/v4.8.0/contracts/access/AccessControl.sol\":7582:7611  _roles[role].members[account] */\n      0x00\n        /* \"https://github.com/OpenZeppelin/openzeppelin-contracts/blob/v4.8.0/contracts/access/AccessControl.sol\":7603:7610  account */\n      dup4\n        /* \"https://github.com/OpenZeppelin/openzeppelin-contracts/blob/v4.8.0/contracts/access/AccessControl.sol\":7582:7611  _roles[role].members[account] */\n      0xffffffffffffffffffffffffffffffffffffffff\n      and\n      0xffffffffffffffffffffffffffffffffffffffff\n      and\n      dup2\n      mstore\n      0x20\n      add\n      swap1\n      dup2\n      mstore\n      0x20\n      add\n      0x00\n      keccak256\n      0x00\n        /* \"https://github.com/OpenZeppelin/openzeppelin-contracts/blob/v4.8.0/contracts/access/AccessControl.sol\":7582:7618  _roles[role].members[account] = true */\n      0x0100\n      exp\n      dup2\n      sload\n      dup2\n      0xff\n      mul\n      not\n      and\n      swap1\n      dup4\n      iszero\n      iszero\n      mul\n      or\n      swap1\n      sstore\n      pop\n        /* \"https://github.com/OpenZeppelin/openzeppelin-contracts/blob/v4.8.0/contracts/access/AccessControl.sol\":7664:7676  _msgSender() */\n      tag_271\n        /* \"https://github.com/OpenZeppelin/openzeppelin-contracts/blob/v4.8.0/contracts/access/AccessControl.sol\":7664:7674  _msgSender */\n      tag_145\n        /* \"https://github.com/OpenZeppelin/openzeppelin-contracts/blob/v4.8.0/contracts/access/AccessControl.sol\":7664:7676  _msgSender() */\n      jump\t// in\n    tag_271:\n        /* \"https://github.com/OpenZeppelin/openzeppelin-contracts/blob/v4.8.0/contracts/access/AccessControl.sol\":7637:7677  RoleGranted(role, account, _msgSender()) */\n      0xffffffffffffffffffffffffffffffffffffffff\n      and\n        /* \"https://github.com/OpenZeppelin/openzeppelin-contracts/blob/v4.8.0/contracts/access/AccessControl.sol\":7655:7662  account */\n      dup2\n        /* \"https://github.com/OpenZeppelin/openzeppelin-contracts/blob/v4.8.0/contracts/access/AccessControl.sol\":7637:7677  RoleGranted(role, account, _msgSender()) */\n      0xffffffffffffffffffffffffffffffffffffffff\n      and\n        /* \"https://github.com/OpenZeppelin/openzeppelin-contracts/blob/v4.8.0/contracts/access/AccessControl.sol\":7649:7653  role */\n      dup4\n        /* \"https://github.com/OpenZeppelin/openzeppelin-contracts/blob/v4.8.0/contracts/access/AccessControl.sol\":7637:7677  RoleGranted(role, account, _msgSender()) */\n      0x2f8788117e7eff1d82e926ec794901d17c78024a50270940304540a733656f0d\n      mload(0x40)\n      mload(0x40)\n      dup1\n      swap2\n      sub\n      swap1\n      log4\n        /* \"https://github.com/OpenZeppelin/openzeppelin-contracts/blob/v4.8.0/contracts/access/AccessControl.sol\":7539:7688  if (!hasRole(role, account)) {... */\n    tag_270:\n        /* \"https://github.com/OpenZeppelin/openzeppelin-contracts/blob/v4.8.0/contracts/access/AccessControl.sol\":7461:7694  function _grantRole(bytes32 role, address account) internal virtual {... */\n      pop\n      pop\n      jump\t// out\n        /* \"https://github.com/OpenZeppelin/openzeppelin-contracts/blob/v4.8.0/contracts/utils/Context.sol\":640:736  function _msgSender() internal view virtual returns (address) {... */\n    tag_145:\n        /* \"https://github.com/OpenZeppelin/openzeppelin-contracts/blob/v4.8.0/contracts/utils/Context.sol\":693:700  address */\n      0x00\n        /* \"https://github.com/OpenZeppelin/openzeppelin-contracts/blob/v4.8.0/contracts/utils/Context.sol\":719:729  msg.sender */\n      caller\n        /* \"https://github.com/OpenZeppelin/openzeppelin-contracts/blob/v4.8.0/contracts/utils/Context.sol\":712:729  return msg.sender */\n      swap1\n      pop\n        /* \"https://github.com/OpenZeppelin/openzeppelin-contracts/blob/v4.8.0/contracts/utils/Context.sol\":640:736  function _msgSender() internal view virtual returns (address) {... */\n      swap1\n      jump\t// out\n        /* \"https://github.com/OpenZeppelin/openzeppelin-contracts/blob/v4.8.0/contracts/access/AccessControl.sol\":7865:8099  function _revokeRole(bytes32 role, address account) internal virtual {... */\n    tag_150:\n        /* \"https://github.com/OpenZeppelin/openzeppelin-contracts/blob/v4.8.0/contracts/access/AccessControl.sol\":7948:7970  hasRole(role, account) */\n      tag_274\n        /* \"https://github.com/OpenZeppelin/openzeppelin-contracts/blob/v4.8.0/contracts/access/AccessControl.sol\":7956:7960  role */\n      dup3\n        /* \"https://github.com/OpenZeppelin/openzeppelin-contracts/blob/v4.8.0/contracts/access/AccessControl.sol\":7962:7969  account */\n      dup3\n        /* \"https://github.com/OpenZeppelin/openzeppelin-contracts/blob/v4.8.0/contracts/access/AccessControl.sol\":7948:7955  hasRole */\n      tag_83\n        /* \"https://github.com/OpenZeppelin/openzeppelin-contracts/blob/v4.8.0/contracts/access/AccessControl.sol\":7948:7970  hasRole(role, account) */\n      jump\t// in\n    tag_274:\n        /* \"https://github.com/OpenZeppelin/openzeppelin-contracts/blob/v4.8.0/contracts/access/AccessControl.sol\":7944:8093  if (hasRole(role, account)) {... */\n      iszero\n      tag_275\n      jumpi\n        /* \"https://github.com/OpenZeppelin/openzeppelin-contracts/blob/v4.8.0/contracts/access/AccessControl.sol\":8018:8023  false */\n      0x00\n        /* \"https://github.com/OpenZeppelin/openzeppelin-contracts/blob/v4.8.0/contracts/access/AccessControl.sol\":7986:7992  _roles */\n      dup1\n        /* \"https://github.com/OpenZeppelin/openzeppelin-contracts/blob/v4.8.0/contracts/access/AccessControl.sol\":7986:7998  _roles[role] */\n      0x00\n        /* \"https://github.com/OpenZeppelin/openzeppelin-contracts/blob/v4.8.0/contracts/access/AccessControl.sol\":7993:7997  role */\n      dup5\n        /* \"https://github.com/OpenZeppelin/openzeppelin-contracts/blob/v4.8.0/contracts/access/AccessControl.sol\":7986:7998  _roles[role] */\n      dup2\n      mstore\n      0x20\n      add\n      swap1\n      dup2\n      mstore\n      0x20\n      add\n      0x00\n      keccak256\n        /* \"https://github.com/OpenZeppelin/openzeppelin-contracts/blob/v4.8.0/contracts/access/AccessControl.sol\":7986:8006  _roles[role].members */\n      0x00\n      add\n        /* \"https://github.com/OpenZeppelin/openzeppelin-contracts/blob/v4.8.0/contracts/access/AccessControl.sol\":7986:8015  _roles[role].members[account] */\n      0x00\n        /* \"https://github.com/OpenZeppelin/openzeppelin-contracts/blob/v4.8.0/contracts/access/AccessControl.sol\":8007:8014  account */\n      dup4\n        /* \"https://github.com/OpenZeppelin/openzeppelin-contracts/blob/v4.8.0/contracts/access/AccessControl.sol\":7986:8015  _roles[role].members[account] */\n      0xffffffffffffffffffffffffffffffffffffffff\n      and\n      0xffffffffffffffffffffffffffffffffffffffff\n      and\n      dup2\n      mstore\n      0x20\n      add\n      swap1\n      dup2\n      mstore\n      0x20\n      add\n      0x00\n      keccak256\n      0x00\n        /* \"https://github.com/OpenZeppelin/openzeppelin-contracts/blob/v4.8.0/contracts/access/AccessControl.sol\":7986:8023  _roles[role].members[account] = false */\n      0x0100\n      exp\n      dup2\n      sload\n      dup2\n      0xff\n      mul\n      not\n      and\n      swap1\n      dup4\n      iszero\n      iszero\n      mul\n      or\n      swap1\n      sstore\n      pop\n        /* \"https://github.com/OpenZeppelin/openzeppelin-contracts/blob/v4.8.0/contracts/access/AccessControl.sol\":8069:8081  _msgSender() */\n      tag_276\n        /* \"https://github.com/OpenZeppelin/openzeppelin-contracts/blob/v4.8.0/contracts/access/AccessControl.sol\":8069:8079  _msgSender */\n      tag_145\n        /* \"https://github.com/OpenZeppelin/openzeppelin-contracts/blob/v4.8.0/contracts/access/AccessControl.sol\":8069:8081  _msgSender() */\n      jump\t// in\n    tag_276:\n        /* \"https://github.com/OpenZeppelin/openzeppelin-contracts/blob/v4.8.0/contracts/access/AccessControl.sol\":8042:8082  RoleRevoked(role, account, _msgSender()) */\n      0xffffffffffffffffffffffffffffffffffffffff\n      and\n        /* \"https://github.com/OpenZeppelin/openzeppelin-contracts/blob/v4.8.0/contracts/access/AccessControl.sol\":8060:8067  account */\n      dup2\n        /* \"https://github.com/OpenZeppelin/openzeppelin-contracts/blob/v4.8.0/contracts/access/AccessControl.sol\":8042:8082  RoleRevoked(role, account, _msgSender()) */\n      0xffffffffffffffffffffffffffffffffffffffff\n      and\n        /* \"https://github.com/OpenZeppelin/openzeppelin-contracts/blob/v4.8.0/contracts/access/AccessControl.sol\":8054:8058  role */\n      dup4\n        /* \"https://github.com/OpenZeppelin/openzeppelin-contracts/blob/v4.8.0/contracts/access/AccessControl.sol\":8042:8082  RoleRevoked(role, account, _msgSender()) */\n      0xf6391f5c32d9c69d2a47ea670b442974b53935d1edc7fd64eb21e047a839171b\n      mload(0x40)\n      mload(0x40)\n      dup1\n      swap2\n      sub\n      swap1\n      log4\n        /* \"https://github.com/OpenZeppelin/openzeppelin-contracts/blob/v4.8.0/contracts/access/AccessControl.sol\":7944:8093  if (hasRole(role, account)) {... */\n    tag_275:\n        /* \"https://github.com/OpenZeppelin/openzeppelin-contracts/blob/v4.8.0/contracts/access/AccessControl.sol\":7865:8099  function _revokeRole(bytes32 role, address account) internal virtual {... */\n      pop\n      pop\n      jump\t// out\n        /* \"https://github.com/OpenZeppelin/openzeppelin-contracts/blob/v4.8.0/contracts/access/AccessControl.sol\":3718:4197  function _checkRole(bytes32 role, address account) internal view virtual {... */\n    tag_267:\n        /* \"https://github.com/OpenZeppelin/openzeppelin-contracts/blob/v4.8.0/contracts/access/AccessControl.sol\":3806:3828  hasRole(role, account) */\n      tag_278\n        /* \"https://github.com/OpenZeppelin/openzeppelin-contracts/blob/v4.8.0/contracts/access/AccessControl.sol\":3814:3818  role */\n      dup3\n        /* \"https://github.com/OpenZeppelin/openzeppelin-contracts/blob/v4.8.0/contracts/access/AccessControl.sol\":3820:3827  account */\n      dup3\n        /* \"https://github.com/OpenZeppelin/openzeppelin-contracts/blob/v4.8.0/contracts/access/AccessControl.sol\":3806:3813  hasRole */\n      tag_83\n        /* \"https://github.com/OpenZeppelin/openzeppelin-contracts/blob/v4.8.0/contracts/access/AccessControl.sol\":3806:3828  hasRole(role, account) */\n      jump\t// in\n    tag_278:\n        /* \"https://github.com/OpenZeppelin/openzeppelin-contracts/blob/v4.8.0/contracts/access/AccessControl.sol\":3801:4191  if (!hasRole(role, account)) {... */\n      tag_279\n      jumpi\n        /* \"https://github.com/OpenZeppelin/openzeppelin-contracts/blob/v4.8.0/contracts/access/AccessControl.sol\":3989:4017  Strings.toHexString(account) */\n      tag_280\n        /* \"https://github.com/OpenZeppelin/openzeppelin-contracts/blob/v4.8.0/contracts/access/AccessControl.sol\":4009:4016  account */\n      dup2\n        /* \"https://github.com/OpenZeppelin/openzeppelin-contracts/blob/v4.8.0/contracts/access/AccessControl.sol\":3989:4008  Strings.toHexString */\n      tag_281\n        /* \"https://github.com/OpenZeppelin/openzeppelin-contracts/blob/v4.8.0/contracts/access/AccessControl.sol\":3989:4017  Strings.toHexString(account) */\n      jump\t// in\n    tag_280:\n        /* \"https://github.com/OpenZeppelin/openzeppelin-contracts/blob/v4.8.0/contracts/access/AccessControl.sol\":4088:4126  Strings.toHexString(uint256(role), 32) */\n      tag_282\n        /* \"https://github.com/OpenZeppelin/openzeppelin-contracts/blob/v4.8.0/contracts/access/AccessControl.sol\":4116:4120  role */\n      dup4\n        /* \"https://github.com/OpenZeppelin/openzeppelin-contracts/blob/v4.8.0/contracts/access/AccessControl.sol\":4108:4121  uint256(role) */\n      0x00\n      shr\n        /* \"https://github.com/OpenZeppelin/openzeppelin-contracts/blob/v4.8.0/contracts/access/AccessControl.sol\":4123:4125  32 */\n      0x20\n        /* \"https://github.com/OpenZeppelin/openzeppelin-contracts/blob/v4.8.0/contracts/access/AccessControl.sol\":4088:4107  Strings.toHexString */\n      tag_283\n        /* \"https://github.com/OpenZeppelin/openzeppelin-contracts/blob/v4.8.0/contracts/access/AccessControl.sol\":4088:4126  Strings.toHexString(uint256(role), 32) */\n      jump\t// in\n    tag_282:\n        /* \"https://github.com/OpenZeppelin/openzeppelin-contracts/blob/v4.8.0/contracts/access/AccessControl.sol\":3896:4148  abi.encodePacked(... */\n      add(0x20, mload(0x40))\n      tag_284\n      swap3\n      swap2\n      swap1\n      tag_285\n      jump\t// in\n    tag_284:\n      mload(0x40)\n      0x20\n      dup2\n      dup4\n      sub\n      sub\n      dup2\n      mstore\n      swap1\n      0x40\n      mstore\n        /* \"https://github.com/OpenZeppelin/openzeppelin-contracts/blob/v4.8.0/contracts/access/AccessControl.sol\":3844:4180  revert(... */\n      mload(0x40)\n      0x08c379a000000000000000000000000000000000000000000000000000000000\n      dup2\n      mstore\n      0x04\n      add\n      tag_286\n      swap2\n      swap1\n      tag_287\n      jump\t// in\n    tag_286:\n      mload(0x40)\n      dup1\n      swap2\n      sub\n      swap1\n      revert\n        /* \"https://github.com/OpenZeppelin/openzeppelin-contracts/blob/v4.8.0/contracts/access/AccessControl.sol\":3801:4191  if (!hasRole(role, account)) {... */\n    tag_279:\n        /* \"https://github.com/OpenZeppelin/openzeppelin-contracts/blob/v4.8.0/contracts/access/AccessControl.sol\":3718:4197  function _checkRole(bytes32 role, address account) internal view virtual {... */\n      pop\n      pop\n      jump\t// out\n        /* \"https://github.com/OpenZeppelin/openzeppelin-contracts/blob/v4.8.0/contracts/utils/Strings.sol\":2102:2251  function toHexString(address addr) internal pure returns (string memory) {... */\n    tag_281:\n        /* \"https://github.com/OpenZeppelin/openzeppelin-contracts/blob/v4.8.0/contracts/utils/Strings.sol\":2160:2173  string memory */\n      0x60\n        /* \"https://github.com/OpenZeppelin/openzeppelin-contracts/blob/v4.8.0/contracts/utils/Strings.sol\":2192:2244  toHexString(uint256(uint160(addr)), _ADDRESS_LENGTH) */\n      tag_289\n        /* \"https://github.com/OpenZeppelin/openzeppelin-contracts/blob/v4.8.0/contracts/utils/Strings.sol\":2220:2224  addr */\n      dup3\n        /* \"https://github.com/OpenZeppelin/openzeppelin-contracts/blob/v4.8.0/contracts/utils/Strings.sol\":2204:2226  uint256(uint160(addr)) */\n      0xffffffffffffffffffffffffffffffffffffffff\n      and\n        /* \"https://github.com/OpenZeppelin/openzeppelin-contracts/blob/v4.8.0/contracts/utils/Strings.sol\":311:313  20 */\n      0x14\n        /* \"https://github.com/OpenZeppelin/openzeppelin-contracts/blob/v4.8.0/contracts/utils/Strings.sol\":2192:2244  toHexString(uint256(uint160(addr)), _ADDRESS_LENGTH) */\n      0xff\n      and\n        /* \"https://github.com/OpenZeppelin/openzeppelin-contracts/blob/v4.8.0/contracts/utils/Strings.sol\":2192:2203  toHexString */\n      tag_283\n        /* \"https://github.com/OpenZeppelin/openzeppelin-contracts/blob/v4.8.0/contracts/utils/Strings.sol\":2192:2244  toHexString(uint256(uint160(addr)), _ADDRESS_LENGTH) */\n      jump\t// in\n    tag_289:\n        /* \"https://github.com/OpenZeppelin/openzeppelin-contracts/blob/v4.8.0/contracts/utils/Strings.sol\":2185:2244  return toHexString(uint256(uint160(addr)), _ADDRESS_LENGTH) */\n      swap1\n      pop\n        /* \"https://github.com/OpenZeppelin/openzeppelin-contracts/blob/v4.8.0/contracts/utils/Strings.sol\":2102:2251  function toHexString(address addr) internal pure returns (string memory) {... */\n      swap2\n      swap1\n      pop\n      jump\t// out\n        /* \"https://github.com/OpenZeppelin/openzeppelin-contracts/blob/v4.8.0/contracts/utils/Strings.sol\":1513:1950  function toHexString(uint256 value, uint256 length) internal pure returns (string memory) {... */\n    tag_283:\n        /* \"https://github.com/OpenZeppelin/openzeppelin-contracts/blob/v4.8.0/contracts/utils/Strings.sol\":1588:1601  string memory */\n      0x60\n        /* \"https://github.com/OpenZeppelin/openzeppelin-contracts/blob/v4.8.0/contracts/utils/Strings.sol\":1613:1632  bytes memory buffer */\n      0x00\n        /* \"https://github.com/OpenZeppelin/openzeppelin-contracts/blob/v4.8.0/contracts/utils/Strings.sol\":1658:1659  2 */\n      0x02\n        /* \"https://github.com/OpenZeppelin/openzeppelin-contracts/blob/v4.8.0/contracts/utils/Strings.sol\":1649:1655  length */\n      dup4\n        /* \"https://github.com/OpenZeppelin/openzeppelin-contracts/blob/v4.8.0/contracts/utils/Strings.sol\":1645:1646  2 */\n      0x02\n        /* \"https://github.com/OpenZeppelin/openzeppelin-contracts/blob/v4.8.0/contracts/utils/Strings.sol\":1645:1655  2 * length */\n      tag_291\n      swap2\n      swap1\n      tag_292\n      jump\t// in\n    tag_291:\n        /* \"https://github.com/OpenZeppelin/openzeppelin-contracts/blob/v4.8.0/contracts/utils/Strings.sol\":1645:1659  2 * length + 2 */\n      tag_293\n      swap2\n      swap1\n      tag_294\n      jump\t// in\n    tag_293:\n        /* \"https://github.com/OpenZeppelin/openzeppelin-contracts/blob/v4.8.0/contracts/utils/Strings.sol\":1635:1660  new bytes(2 * length + 2) */\n      0xffffffffffffffff\n      dup2\n      gt\n      iszero\n      tag_295\n      jumpi\n      tag_296\n      tag_297\n      jump\t// in\n    tag_296:\n    tag_295:\n      mload(0x40)\n      swap1\n      dup1\n      dup3\n      mstore\n      dup1\n      0x1f\n      add\n      not(0x1f)\n      and\n      0x20\n      add\n      dup3\n      add\n      0x40\n      mstore\n      dup1\n      iszero\n      tag_298\n      jumpi\n      dup2\n      0x20\n      add\n      0x01\n      dup3\n      mul\n      dup1\n      calldatasize\n      dup4\n      calldatacopy\n      dup1\n      dup3\n      add\n      swap2\n      pop\n      pop\n      swap1\n      pop\n    tag_298:\n      pop\n        /* \"https://github.com/OpenZeppelin/openzeppelin-contracts/blob/v4.8.0/contracts/utils/Strings.sol\":1613:1660  bytes memory buffer = new bytes(2 * length + 2) */\n      swap1\n      pop\n        /* \"https://github.com/OpenZeppelin/openzeppelin-contracts/blob/v4.8.0/contracts/utils/Strings.sol\":1670:1685  buffer[0] = \"0\" */\n      0x3000000000000000000000000000000000000000000000000000000000000000\n        /* \"https://github.com/OpenZeppelin/openzeppelin-contracts/blob/v4.8.0/contracts/utils/Strings.sol\":1670:1676  buffer */\n      dup2\n        /* \"https://github.com/OpenZeppelin/openzeppelin-contracts/blob/v4.8.0/contracts/utils/Strings.sol\":1677:1678  0 */\n      0x00\n        /* \"https://github.com/OpenZeppelin/openzeppelin-contracts/blob/v4.8.0/contracts/utils/Strings.sol\":1670:1679  buffer[0] */\n      dup2\n      mload\n      dup2\n      lt\n      tag_299\n      jumpi\n      tag_300\n      tag_162\n      jump\t// in\n    tag_300:\n    tag_299:\n      0x20\n      add\n      add\n        /* \"https://github.com/OpenZeppelin/openzeppelin-contracts/blob/v4.8.0/contracts/utils/Strings.sol\":1670:1685  buffer[0] = \"0\" */\n      swap1\n      not(0xffffffffffffffffffffffffffffffffffffffffffffffffffffffffffffff)\n      and\n      swap1\n      dup2\n      0x00\n      byte\n      swap1\n      mstore8\n      pop\n        /* \"https://github.com/OpenZeppelin/openzeppelin-contracts/blob/v4.8.0/contracts/utils/Strings.sol\":1695:1710  buffer[1] = \"x\" */\n      0x7800000000000000000000000000000000000000000000000000000000000000\n        /* \"https://github.com/OpenZeppelin/openzeppelin-contracts/blob/v4.8.0/contracts/utils/Strings.sol\":1695:1701  buffer */\n      dup2\n        /* \"https://github.com/OpenZeppelin/openzeppelin-contracts/blob/v4.8.0/contracts/utils/Strings.sol\":1702:1703  1 */\n      0x01\n        /* \"https://github.com/OpenZeppelin/openzeppelin-contracts/blob/v4.8.0/contracts/utils/Strings.sol\":1695:1704  buffer[1] */\n      dup2\n      mload\n      dup2\n      lt\n      tag_301\n      jumpi\n      tag_302\n      tag_162\n      jump\t// in\n    tag_302:\n    tag_301:\n      0x20\n      add\n      add\n        /* \"https://github.com/OpenZeppelin/openzeppelin-contracts/blob/v4.8.0/contracts/utils/Strings.sol\":1695:1710  buffer[1] = \"x\" */\n      swap1\n      not(0xffffffffffffffffffffffffffffffffffffffffffffffffffffffffffffff)\n      and\n      swap1\n      dup2\n      0x00\n      byte\n      swap1\n      mstore8\n      pop\n        /* \"https://github.com/OpenZeppelin/openzeppelin-contracts/blob/v4.8.0/contracts/utils/Strings.sol\":1725:1734  uint256 i */\n      0x00\n        /* \"https://github.com/OpenZeppelin/openzeppelin-contracts/blob/v4.8.0/contracts/utils/Strings.sol\":1750:1751  1 */\n      0x01\n        /* \"https://github.com/OpenZeppelin/openzeppelin-contracts/blob/v4.8.0/contracts/utils/Strings.sol\":1741:1747  length */\n      dup5\n        /* \"https://github.com/OpenZeppelin/openzeppelin-contracts/blob/v4.8.0/contracts/utils/Strings.sol\":1737:1738  2 */\n      0x02\n        /* \"https://github.com/OpenZeppelin/openzeppelin-contracts/blob/v4.8.0/contracts/utils/Strings.sol\":1737:1747  2 * length */\n      tag_306\n      swap2\n      swap1\n      tag_292\n      jump\t// in\n    tag_306:\n        /* \"https://github.com/OpenZeppelin/openzeppelin-contracts/blob/v4.8.0/contracts/utils/Strings.sol\":1737:1751  2 * length + 1 */\n      tag_307\n      swap2\n      swap1\n      tag_294\n      jump\t// in\n    tag_307:\n        /* \"https://github.com/OpenZeppelin/openzeppelin-contracts/blob/v4.8.0/contracts/utils/Strings.sol\":1725:1751  uint256 i = 2 * length + 1 */\n      swap1\n      pop\n        /* \"https://github.com/OpenZeppelin/openzeppelin-contracts/blob/v4.8.0/contracts/utils/Strings.sol\":1720:1848  for (uint256 i = 2 * length + 1; i > 1; --i) {... */\n    tag_303:\n        /* \"https://github.com/OpenZeppelin/openzeppelin-contracts/blob/v4.8.0/contracts/utils/Strings.sol\":1757:1758  1 */\n      0x01\n        /* \"https://github.com/OpenZeppelin/openzeppelin-contracts/blob/v4.8.0/contracts/utils/Strings.sol\":1753:1754  i */\n      dup2\n        /* \"https://github.com/OpenZeppelin/openzeppelin-contracts/blob/v4.8.0/contracts/utils/Strings.sol\":1753:1758  i > 1 */\n      gt\n        /* \"https://github.com/OpenZeppelin/openzeppelin-contracts/blob/v4.8.0/contracts/utils/Strings.sol\":1720:1848  for (uint256 i = 2 * length + 1; i > 1; --i) {... */\n      iszero\n      tag_304\n      jumpi\n        /* \"https://github.com/OpenZeppelin/openzeppelin-contracts/blob/v4.8.0/contracts/utils/Strings.sol\":1791:1799  _SYMBOLS */\n      0x3031323334353637383961626364656600000000000000000000000000000000\n        /* \"https://github.com/OpenZeppelin/openzeppelin-contracts/blob/v4.8.0/contracts/utils/Strings.sol\":1808:1811  0xf */\n      0x0f\n        /* \"https://github.com/OpenZeppelin/openzeppelin-contracts/blob/v4.8.0/contracts/utils/Strings.sol\":1800:1805  value */\n      dup7\n        /* \"https://github.com/OpenZeppelin/openzeppelin-contracts/blob/v4.8.0/contracts/utils/Strings.sol\":1800:1811  value & 0xf */\n      and\n        /* \"https://github.com/OpenZeppelin/openzeppelin-contracts/blob/v4.8.0/contracts/utils/Strings.sol\":1791:1812  _SYMBOLS[value & 0xf] */\n      0x10\n      dup2\n      lt\n      tag_308\n      jumpi\n      tag_309\n      tag_162\n      jump\t// in\n    tag_309:\n    tag_308:\n      byte\n      0xf8\n      shl\n        /* \"https://github.com/OpenZeppelin/openzeppelin-contracts/blob/v4.8.0/contracts/utils/Strings.sol\":1779:1785  buffer */\n      dup3\n        /* \"https://github.com/OpenZeppelin/openzeppelin-contracts/blob/v4.8.0/contracts/utils/Strings.sol\":1786:1787  i */\n      dup3\n        /* \"https://github.com/OpenZeppelin/openzeppelin-contracts/blob/v4.8.0/contracts/utils/Strings.sol\":1779:1788  buffer[i] */\n      dup2\n      mload\n      dup2\n      lt\n      tag_310\n      jumpi\n      tag_311\n      tag_162\n      jump\t// in\n    tag_311:\n    tag_310:\n      0x20\n      add\n      add\n        /* \"https://github.com/OpenZeppelin/openzeppelin-contracts/blob/v4.8.0/contracts/utils/Strings.sol\":1779:1812  buffer[i] = _SYMBOLS[value & 0xf] */\n      swap1\n      not(0xffffffffffffffffffffffffffffffffffffffffffffffffffffffffffffff)\n      and\n      swap1\n      dup2\n      0x00\n      byte\n      swap1\n      mstore8\n      pop\n        /* \"https://github.com/OpenZeppelin/openzeppelin-contracts/blob/v4.8.0/contracts/utils/Strings.sol\":1836:1837  4 */\n      0x04\n        /* \"https://github.com/OpenZeppelin/openzeppelin-contracts/blob/v4.8.0/contracts/utils/Strings.sol\":1826:1837  value >>= 4 */\n      dup6\n      swap1\n      shr\n      swap5\n      pop\n        /* \"https://github.com/OpenZeppelin/openzeppelin-contracts/blob/v4.8.0/contracts/utils/Strings.sol\":1760:1763  --i */\n      dup1\n      tag_312\n      swap1\n      tag_313\n      jump\t// in\n    tag_312:\n      swap1\n      pop\n        /* \"https://github.com/OpenZeppelin/openzeppelin-contracts/blob/v4.8.0/contracts/utils/Strings.sol\":1720:1848  for (uint256 i = 2 * length + 1; i > 1; --i) {... */\n      jump(tag_303)\n    tag_304:\n      pop\n        /* \"https://github.com/OpenZeppelin/openzeppelin-contracts/blob/v4.8.0/contracts/utils/Strings.sol\":1874:1875  0 */\n      0x00\n        /* \"https://github.com/OpenZeppelin/openzeppelin-contracts/blob/v4.8.0/contracts/utils/Strings.sol\":1865:1870  value */\n      dup5\n        /* \"https://github.com/OpenZeppelin/openzeppelin-contracts/blob/v4.8.0/contracts/utils/Strings.sol\":1865:1875  value == 0 */\n      eq\n        /* \"https://github.com/OpenZeppelin/openzeppelin-contracts/blob/v4.8.0/contracts/utils/Strings.sol\":1857:1912  require(value == 0, \"Strings: hex length insufficient\") */\n      tag_314\n      jumpi\n      mload(0x40)\n      0x08c379a000000000000000000000000000000000000000000000000000000000\n      dup2\n      mstore\n      0x04\n      add\n      tag_315\n      swap1\n      tag_316\n      jump\t// in\n    tag_315:\n      mload(0x40)\n      dup1\n      swap2\n      sub\n      swap1\n      revert\n    tag_314:\n        /* \"https://github.com/OpenZeppelin/openzeppelin-contracts/blob/v4.8.0/contracts/utils/Strings.sol\":1936:1942  buffer */\n      dup1\n        /* \"https://github.com/OpenZeppelin/openzeppelin-contracts/blob/v4.8.0/contracts/utils/Strings.sol\":1922:1943  return string(buffer) */\n      swap2\n      pop\n      pop\n        /* \"https://github.com/OpenZeppelin/openzeppelin-contracts/blob/v4.8.0/contracts/utils/Strings.sol\":1513:1950  function toHexString(uint256 value, uint256 length) internal pure returns (string memory) {... */\n      swap3\n      swap2\n      pop\n      pop\n      jump\t// out\n    tag_190:\n      mload(0x40)\n      dup1\n      0x20\n      add\n      0x40\n      mstore\n      dup1\n      0x00\n      dup2\n      mstore\n      pop\n      swap1\n      jump\t// out\n    tag_209:\n      mload(0x40)\n      dup1\n      0xa0\n      add\n      0x40\n      mstore\n      dup1\n      0x00\n      dup2\n      mstore\n      0x20\n      add\n      0x00\n      dup2\n      mstore\n      0x20\n      add\n      0x00\n      dup2\n      mstore\n      0x20\n      add\n      0x00\n      dup2\n      mstore\n      0x20\n      add\n      iszero(iszero(0x00))\n      dup2\n      mstore\n      pop\n      swap1\n      jump\t// out\n        /* \"#utility.yul\":88:205   */\n    tag_318:\n        /* \"#utility.yul\":197:198   */\n      0x00\n        /* \"#utility.yul\":194:195   */\n      dup1\n        /* \"#utility.yul\":187:199   */\n      revert\n        /* \"#utility.yul\":211:328   */\n    tag_319:\n        /* \"#utility.yul\":320:321   */\n      0x00\n        /* \"#utility.yul\":317:318   */\n      dup1\n        /* \"#utility.yul\":310:322   */\n      revert\n        /* \"#utility.yul\":334:483   */\n    tag_320:\n        /* \"#utility.yul\":370:377   */\n      0x00\n        /* \"#utility.yul\":410:476   */\n      0xffffffff00000000000000000000000000000000000000000000000000000000\n        /* \"#utility.yul\":403:408   */\n      dup3\n        /* \"#utility.yul\":399:477   */\n      and\n        /* \"#utility.yul\":388:477   */\n      swap1\n      pop\n        /* \"#utility.yul\":334:483   */\n      swap2\n      swap1\n      pop\n      jump\t// out\n        /* \"#utility.yul\":489:609   */\n    tag_321:\n        /* \"#utility.yul\":561:584   */\n      tag_406\n        /* \"#utility.yul\":578:583   */\n      dup2\n        /* \"#utility.yul\":561:584   */\n      tag_320\n      jump\t// in\n    tag_406:\n        /* \"#utility.yul\":554:559   */\n      dup2\n        /* \"#utility.yul\":551:585   */\n      eq\n        /* \"#utility.yul\":541:603   */\n      tag_407\n      jumpi\n        /* \"#utility.yul\":599:600   */\n      0x00\n        /* \"#utility.yul\":596:597   */\n      dup1\n        /* \"#utility.yul\":589:601   */\n      revert\n        /* \"#utility.yul\":541:603   */\n    tag_407:\n        /* \"#utility.yul\":489:609   */\n      pop\n      jump\t// out\n        /* \"#utility.yul\":615:752   */\n    tag_322:\n        /* \"#utility.yul\":660:665   */\n      0x00\n        /* \"#utility.yul\":698:704   */\n      dup2\n        /* \"#utility.yul\":685:705   */\n      calldataload\n        /* \"#utility.yul\":676:705   */\n      swap1\n      pop\n        /* \"#utility.yul\":714:746   */\n      tag_409\n        /* \"#utility.yul\":740:745   */\n      dup2\n        /* \"#utility.yul\":714:746   */\n      tag_321\n      jump\t// in\n    tag_409:\n        /* \"#utility.yul\":615:752   */\n      swap3\n      swap2\n      pop\n      pop\n      jump\t// out\n        /* \"#utility.yul\":758:1085   */\n    tag_32:\n        /* \"#utility.yul\":816:822   */\n      0x00\n        /* \"#utility.yul\":865:867   */\n      0x20\n        /* \"#utility.yul\":853:862   */\n      dup3\n        /* \"#utility.yul\":844:851   */\n      dup5\n        /* \"#utility.yul\":840:863   */\n      sub\n        /* \"#utility.yul\":836:868   */\n      slt\n        /* \"#utility.yul\":833:952   */\n      iszero\n      tag_411\n      jumpi\n        /* \"#utility.yul\":871:950   */\n      tag_412\n      tag_318\n      jump\t// in\n    tag_412:\n        /* \"#utility.yul\":833:952   */\n    tag_411:\n        /* \"#utility.yul\":991:992   */\n      0x00\n        /* \"#utility.yul\":1016:1068   */\n      tag_413\n        /* \"#utility.yul\":1060:1067   */\n      dup5\n        /* \"#utility.yul\":1051:1057   */\n      dup3\n        /* \"#utility.yul\":1040:1049   */\n      dup6\n        /* \"#utility.yul\":1036:1058   */\n      add\n        /* \"#utility.yul\":1016:1068   */\n      tag_322\n      jump\t// in\n    tag_413:\n        /* \"#utility.yul\":1006:1068   */\n      swap2\n      pop\n        /* \"#utility.yul\":962:1078   */\n      pop\n        /* \"#utility.yul\":758:1085   */\n      swap3\n      swap2\n      pop\n      pop\n      jump\t// out\n        /* \"#utility.yul\":1091:1181   */\n    tag_323:\n        /* \"#utility.yul\":1125:1132   */\n      0x00\n        /* \"#utility.yul\":1168:1173   */\n      dup2\n        /* \"#utility.yul\":1161:1174   */\n      iszero\n        /* \"#utility.yul\":1154:1175   */\n      iszero\n        /* \"#utility.yul\":1143:1175   */\n      swap1\n      pop\n        /* \"#utility.yul\":1091:1181   */\n      swap2\n      swap1\n      pop\n      jump\t// out\n        /* \"#utility.yul\":1187:1296   */\n    tag_324:\n        /* \"#utility.yul\":1268:1289   */\n      tag_416\n        /* \"#utility.yul\":1283:1288   */\n      dup2\n        /* \"#utility.yul\":1268:1289   */\n      tag_323\n      jump\t// in\n    tag_416:\n        /* \"#utility.yul\":1263:1266   */\n      dup3\n        /* \"#utility.yul\":1256:1290   */\n      mstore\n        /* \"#utility.yul\":1187:1296   */\n      pop\n      pop\n      jump\t// out\n        /* \"#utility.yul\":1302:1512   */\n    tag_35:\n        /* \"#utility.yul\":1389:1393   */\n      0x00\n        /* \"#utility.yul\":1427:1429   */\n      0x20\n        /* \"#utility.yul\":1416:1425   */\n      dup3\n        /* \"#utility.yul\":1412:1430   */\n      add\n        /* \"#utility.yul\":1404:1430   */\n      swap1\n      pop\n        /* \"#utility.yul\":1440:1505   */\n      tag_418\n        /* \"#utility.yul\":1502:1503   */\n      0x00\n        /* \"#utility.yul\":1491:1500   */\n      dup4\n        /* \"#utility.yul\":1487:1504   */\n      add\n        /* \"#utility.yul\":1478:1484   */\n      dup5\n        /* \"#utility.yul\":1440:1505   */\n      tag_324\n      jump\t// in\n    tag_418:\n        /* \"#utility.yul\":1302:1512   */\n      swap3\n      swap2\n      pop\n      pop\n      jump\t// out\n        /* \"#utility.yul\":1518:1644   */\n    tag_325:\n        /* \"#utility.yul\":1555:1562   */\n      0x00\n        /* \"#utility.yul\":1595:1637   */\n      0xffffffffffffffffffffffffffffffffffffffff\n        /* \"#utility.yul\":1588:1593   */\n      dup3\n        /* \"#utility.yul\":1584:1638   */\n      and\n        /* \"#utility.yul\":1573:1638   */\n      swap1\n      pop\n        /* \"#utility.yul\":1518:1644   */\n      swap2\n      swap1\n      pop\n      jump\t// out\n        /* \"#utility.yul\":1650:1710   */\n    tag_326:\n        /* \"#utility.yul\":1678:1681   */\n      0x00\n        /* \"#utility.yul\":1699:1704   */\n      dup2\n        /* \"#utility.yul\":1692:1704   */\n      swap1\n      pop\n        /* \"#utility.yul\":1650:1710   */\n      swap2\n      swap1\n      pop\n      jump\t// out\n        /* \"#utility.yul\":1716:1858   */\n    tag_327:\n        /* \"#utility.yul\":1766:1775   */\n      0x00\n        /* \"#utility.yul\":1799:1852   */\n      tag_422\n        /* \"#utility.yul\":1817:1851   */\n      tag_423\n        /* \"#utility.yul\":1826:1850   */\n      tag_424\n        /* \"#utility.yul\":1844:1849   */\n      dup5\n        /* \"#utility.yul\":1826:1850   */\n      tag_325\n      jump\t// in\n    tag_424:\n        /* \"#utility.yul\":1817:1851   */\n      tag_326\n      jump\t// in\n    tag_423:\n        /* \"#utility.yul\":1799:1852   */\n      tag_325\n      jump\t// in\n    tag_422:\n        /* \"#utility.yul\":1786:1852   */\n      swap1\n      pop\n        /* \"#utility.yul\":1716:1858   */\n      swap2\n      swap1\n      pop\n      jump\t// out\n        /* \"#utility.yul\":1864:1990   */\n    tag_328:\n        /* \"#utility.yul\":1914:1923   */\n      0x00\n        /* \"#utility.yul\":1947:1984   */\n      tag_426\n        /* \"#utility.yul\":1978:1983   */\n      dup3\n        /* \"#utility.yul\":1947:1984   */\n      tag_327\n      jump\t// in\n    tag_426:\n        /* \"#utility.yul\":1934:1984   */\n      swap1\n      pop\n        /* \"#utility.yul\":1864:1990   */\n      swap2\n      swap1\n      pop\n      jump\t// out\n        /* \"#utility.yul\":1996:2143   */\n    tag_329:\n        /* \"#utility.yul\":2067:2076   */\n      0x00\n        /* \"#utility.yul\":2100:2137   */\n      tag_428\n        /* \"#utility.yul\":2131:2136   */\n      dup3\n        /* \"#utility.yul\":2100:2137   */\n      tag_328\n      jump\t// in\n    tag_428:\n        /* \"#utility.yul\":2087:2137   */\n      swap1\n      pop\n        /* \"#utility.yul\":1996:2143   */\n      swap2\n      swap1\n      pop\n      jump\t// out\n        /* \"#utility.yul\":2149:2322   */\n    tag_330:\n        /* \"#utility.yul\":2257:2315   */\n      tag_430\n        /* \"#utility.yul\":2309:2314   */\n      dup2\n        /* \"#utility.yul\":2257:2315   */\n      tag_329\n      jump\t// in\n    tag_430:\n        /* \"#utility.yul\":2252:2255   */\n      dup3\n        /* \"#utility.yul\":2245:2316   */\n      mstore\n        /* \"#utility.yul\":2149:2322   */\n      pop\n      pop\n      jump\t// out\n        /* \"#utility.yul\":2328:2592   */\n    tag_39:\n        /* \"#utility.yul\":2442:2446   */\n      0x00\n        /* \"#utility.yul\":2480:2482   */\n      0x20\n        /* \"#utility.yul\":2469:2478   */\n      dup3\n        /* \"#utility.yul\":2465:2483   */\n      add\n        /* \"#utility.yul\":2457:2483   */\n      swap1\n      pop\n        /* \"#utility.yul\":2493:2585   */\n      tag_432\n        /* \"#utility.yul\":2582:2583   */\n      0x00\n        /* \"#utility.yul\":2571:2580   */\n      dup4\n        /* \"#utility.yul\":2567:2584   */\n      add\n        /* \"#utility.yul\":2558:2564   */\n      dup5\n        /* \"#utility.yul\":2493:2585   */\n      tag_330\n      jump\t// in\n    tag_432:\n        /* \"#utility.yul\":2328:2592   */\n      swap3\n      swap2\n      pop\n      pop\n      jump\t// out\n        /* \"#utility.yul\":2598:2675   */\n    tag_331:\n        /* \"#utility.yul\":2635:2642   */\n      0x00\n        /* \"#utility.yul\":2664:2669   */\n      dup2\n        /* \"#utility.yul\":2653:2669   */\n      swap1\n      pop\n        /* \"#utility.yul\":2598:2675   */\n      swap2\n      swap1\n      pop\n      jump\t// out\n        /* \"#utility.yul\":2681:2803   */\n    tag_332:\n        /* \"#utility.yul\":2754:2778   */\n      tag_435\n        /* \"#utility.yul\":2772:2777   */\n      dup2\n        /* \"#utility.yul\":2754:2778   */\n      tag_331\n      jump\t// in\n    tag_435:\n        /* \"#utility.yul\":2747:2752   */\n      dup2\n        /* \"#utility.yul\":2744:2779   */\n      eq\n        /* \"#utility.yul\":2734:2797   */\n      tag_436\n      jumpi\n        /* \"#utility.yul\":2793:2794   */\n      0x00\n        /* \"#utility.yul\":2790:2791   */\n      dup1\n        /* \"#utility.yul\":2783:2795   */\n      revert\n        /* \"#utility.yul\":2734:2797   */\n    tag_436:\n        /* \"#utility.yul\":2681:2803   */\n      pop\n      jump\t// out\n        /* \"#utility.yul\":2809:2948   */\n    tag_333:\n        /* \"#utility.yul\":2855:2860   */\n      0x00\n        /* \"#utility.yul\":2893:2899   */\n      dup2\n        /* \"#utility.yul\":2880:2900   */\n      calldataload\n        /* \"#utility.yul\":2871:2900   */\n      swap1\n      pop\n        /* \"#utility.yul\":2909:2942   */\n      tag_438\n        /* \"#utility.yul\":2936:2941   */\n      dup2\n        /* \"#utility.yul\":2909:2942   */\n      tag_332\n      jump\t// in\n    tag_438:\n        /* \"#utility.yul\":2809:2948   */\n      swap3\n      swap2\n      pop\n      pop\n      jump\t// out\n        /* \"#utility.yul\":2954:3283   */\n    tag_42:\n        /* \"#utility.yul\":3013:3019   */\n      0x00\n        /* \"#utility.yul\":3062:3064   */\n      0x20\n        /* \"#utility.yul\":3050:3059   */\n      dup3\n        /* \"#utility.yul\":3041:3048   */\n      dup5\n        /* \"#utility.yul\":3037:3060   */\n      sub\n        /* \"#utility.yul\":3033:3065   */\n      slt\n        /* \"#utility.yul\":3030:3149   */\n      iszero\n      tag_440\n      jumpi\n        /* \"#utility.yul\":3068:3147   */\n      tag_441\n      tag_318\n      jump\t// in\n    tag_441:\n        /* \"#utility.yul\":3030:3149   */\n    tag_440:\n        /* \"#utility.yul\":3188:3189   */\n      0x00\n        /* \"#utility.yul\":3213:3266   */\n      tag_442\n        /* \"#utility.yul\":3258:3265   */\n      dup5\n        /* \"#utility.yul\":3249:3255   */\n      dup3\n        /* \"#utility.yul\":3238:3247   */\n      dup6\n        /* \"#utility.yul\":3234:3256   */\n      add\n        /* \"#utility.yul\":3213:3266   */\n      tag_333\n      jump\t// in\n    tag_442:\n        /* \"#utility.yul\":3203:3266   */\n      swap2\n      pop\n        /* \"#utility.yul\":3159:3276   */\n      pop\n        /* \"#utility.yul\":2954:3283   */\n      swap3\n      swap2\n      pop\n      pop\n      jump\t// out\n        /* \"#utility.yul\":3289:3407   */\n    tag_334:\n        /* \"#utility.yul\":3376:3400   */\n      tag_444\n        /* \"#utility.yul\":3394:3399   */\n      dup2\n        /* \"#utility.yul\":3376:3400   */\n      tag_331\n      jump\t// in\n    tag_444:\n        /* \"#utility.yul\":3371:3374   */\n      dup3\n        /* \"#utility.yul\":3364:3401   */\n      mstore\n        /* \"#utility.yul\":3289:3407   */\n      pop\n      pop\n      jump\t// out\n        /* \"#utility.yul\":3413:3635   */\n    tag_45:\n        /* \"#utility.yul\":3506:3510   */\n      0x00\n        /* \"#utility.yul\":3544:3546   */\n      0x20\n        /* \"#utility.yul\":3533:3542   */\n      dup3\n        /* \"#utility.yul\":3529:3547   */\n      add\n        /* \"#utility.yul\":3521:3547   */\n      swap1\n      pop\n        /* \"#utility.yul\":3557:3628   */\n      tag_446\n        /* \"#utility.yul\":3625:3626   */\n      0x00\n        /* \"#utility.yul\":3614:3623   */\n      dup4\n        /* \"#utility.yul\":3610:3627   */\n      add\n        /* \"#utility.yul\":3601:3607   */\n      dup5\n        /* \"#utility.yul\":3557:3628   */\n      tag_334\n      jump\t// in\n    tag_446:\n        /* \"#utility.yul\":3413:3635   */\n      swap3\n      swap2\n      pop\n      pop\n      jump\t// out\n        /* \"#utility.yul\":3641:3718   */\n    tag_335:\n        /* \"#utility.yul\":3678:3685   */\n      0x00\n        /* \"#utility.yul\":3707:3712   */\n      dup2\n        /* \"#utility.yul\":3696:3712   */\n      swap1\n      pop\n        /* \"#utility.yul\":3641:3718   */\n      swap2\n      swap1\n      pop\n      jump\t// out\n        /* \"#utility.yul\":3724:3846   */\n    tag_336:\n        /* \"#utility.yul\":3797:3821   */\n      tag_449\n        /* \"#utility.yul\":3815:3820   */\n      dup2\n        /* \"#utility.yul\":3797:3821   */\n      tag_335\n      jump\t// in\n    tag_449:\n        /* \"#utility.yul\":3790:3795   */\n      dup2\n        /* \"#utility.yul\":3787:3822   */\n      eq\n        /* \"#utility.yul\":3777:3840   */\n      tag_450\n      jumpi\n        /* \"#utility.yul\":3836:3837   */\n      0x00\n        /* \"#utility.yul\":3833:3834   */\n      dup1\n        /* \"#utility.yul\":3826:3838   */\n      revert\n        /* \"#utility.yul\":3777:3840   */\n    tag_450:\n        /* \"#utility.yul\":3724:3846   */\n      pop\n      jump\t// out\n        /* \"#utility.yul\":3852:3991   */\n    tag_337:\n        /* \"#utility.yul\":3898:3903   */\n      0x00\n        /* \"#utility.yul\":3936:3942   */\n      dup2\n        /* \"#utility.yul\":3923:3943   */\n      calldataload\n        /* \"#utility.yul\":3914:3943   */\n      swap1\n      pop\n        /* \"#utility.yul\":3952:3985   */\n      tag_452\n        /* \"#utility.yul\":3979:3984   */\n      dup2\n        /* \"#utility.yul\":3952:3985   */\n      tag_336\n      jump\t// in\n    tag_452:\n        /* \"#utility.yul\":3852:3991   */\n      swap3\n      swap2\n      pop\n      pop\n      jump\t// out\n        /* \"#utility.yul\":3997:4326   */\n    tag_48:\n        /* \"#utility.yul\":4056:4062   */\n      0x00\n        /* \"#utility.yul\":4105:4107   */\n      0x20\n        /* \"#utility.yul\":4093:4102   */\n      dup3\n        /* \"#utility.yul\":4084:4091   */\n      dup5\n        /* \"#utility.yul\":4080:4103   */\n      sub\n        /* \"#utility.yul\":4076:4108   */\n      slt\n        /* \"#utility.yul\":4073:4192   */\n      iszero\n      tag_454\n      jumpi\n        /* \"#utility.yul\":4111:4190   */\n      tag_455\n      tag_318\n      jump\t// in\n    tag_455:\n        /* \"#utility.yul\":4073:4192   */\n    tag_454:\n        /* \"#utility.yul\":4231:4232   */\n      0x00\n        /* \"#utility.yul\":4256:4309   */\n      tag_456\n        /* \"#utility.yul\":4301:4308   */\n      dup5\n        /* \"#utility.yul\":4292:4298   */\n      dup3\n        /* \"#utility.yul\":4281:4290   */\n      dup6\n        /* \"#utility.yul\":4277:4299   */\n      add\n        /* \"#utility.yul\":4256:4309   */\n      tag_337\n      jump\t// in\n    tag_456:\n        /* \"#utility.yul\":4246:4309   */\n      swap2\n      pop\n        /* \"#utility.yul\":4202:4319   */\n      pop\n        /* \"#utility.yul\":3997:4326   */\n      swap3\n      swap2\n      pop\n      pop\n      jump\t// out\n        /* \"#utility.yul\":4332:4450   */\n    tag_338:\n        /* \"#utility.yul\":4419:4443   */\n      tag_458\n        /* \"#utility.yul\":4437:4442   */\n      dup2\n        /* \"#utility.yul\":4419:4443   */\n      tag_335\n      jump\t// in\n    tag_458:\n        /* \"#utility.yul\":4414:4417   */\n      dup3\n        /* \"#utility.yul\":4407:4444   */\n      mstore\n        /* \"#utility.yul\":4332:4450   */\n      pop\n      pop\n      jump\t// out\n        /* \"#utility.yul\":4456:4678   */\n    tag_51:\n        /* \"#utility.yul\":4549:4553   */\n      0x00\n        /* \"#utility.yul\":4587:4589   */\n      0x20\n        /* \"#utility.yul\":4576:4585   */\n      dup3\n        /* \"#utility.yul\":4572:4590   */\n      add\n        /* \"#utility.yul\":4564:4590   */\n      swap1\n      pop\n        /* \"#utility.yul\":4600:4671   */\n      tag_460\n        /* \"#utility.yul\":4668:4669   */\n      0x00\n        /* \"#utility.yul\":4657:4666   */\n      dup4\n        /* \"#utility.yul\":4653:4670   */\n      add\n        /* \"#utility.yul\":4644:4650   */\n      dup5\n        /* \"#utility.yul\":4600:4671   */\n      tag_338\n      jump\t// in\n    tag_460:\n        /* \"#utility.yul\":4456:4678   */\n      swap3\n      swap2\n      pop\n      pop\n      jump\t// out\n        /* \"#utility.yul\":4684:4780   */\n    tag_339:\n        /* \"#utility.yul\":4721:4728   */\n      0x00\n        /* \"#utility.yul\":4750:4774   */\n      tag_462\n        /* \"#utility.yul\":4768:4773   */\n      dup3\n        /* \"#utility.yul\":4750:4774   */\n      tag_325\n      jump\t// in\n    tag_462:\n        /* \"#utility.yul\":4739:4774   */\n      swap1\n      pop\n        /* \"#utility.yul\":4684:4780   */\n      swap2\n      swap1\n      pop\n      jump\t// out\n        /* \"#utility.yul\":4786:4908   */\n    tag_340:\n        /* \"#utility.yul\":4859:4883   */\n      tag_464\n        /* \"#utility.yul\":4877:4882   */\n      dup2\n        /* \"#utility.yul\":4859:4883   */\n      tag_339\n      jump\t// in\n    tag_464:\n        /* \"#utility.yul\":4852:4857   */\n      dup2\n        /* \"#utility.yul\":4849:4884   */\n      eq\n        /* \"#utility.yul\":4839:4902   */\n      tag_465\n      jumpi\n        /* \"#utility.yul\":4898:4899   */\n      0x00\n        /* \"#utility.yul\":4895:4896   */\n      dup1\n        /* \"#utility.yul\":4888:4900   */\n      revert\n        /* \"#utility.yul\":4839:4902   */\n    tag_465:\n        /* \"#utility.yul\":4786:4908   */\n      pop\n      jump\t// out\n        /* \"#utility.yul\":4914:5053   */\n    tag_341:\n        /* \"#utility.yul\":4960:4965   */\n      0x00\n        /* \"#utility.yul\":4998:5004   */\n      dup2\n        /* \"#utility.yul\":4985:5005   */\n      calldataload\n        /* \"#utility.yul\":4976:5005   */\n      swap1\n      pop\n        /* \"#utility.yul\":5014:5047   */\n      tag_467\n        /* \"#utility.yul\":5041:5046   */\n      dup2\n        /* \"#utility.yul\":5014:5047   */\n      tag_340\n      jump\t// in\n    tag_467:\n        /* \"#utility.yul\":4914:5053   */\n      swap3\n      swap2\n      pop\n      pop\n      jump\t// out\n        /* \"#utility.yul\":5059:5533   */\n    tag_54:\n        /* \"#utility.yul\":5127:5133   */\n      0x00\n        /* \"#utility.yul\":5135:5141   */\n      dup1\n        /* \"#utility.yul\":5184:5186   */\n      0x40\n        /* \"#utility.yul\":5172:5181   */\n      dup4\n        /* \"#utility.yul\":5163:5170   */\n      dup6\n        /* \"#utility.yul\":5159:5182   */\n      sub\n        /* \"#utility.yul\":5155:5187   */\n      slt\n        /* \"#utility.yul\":5152:5271   */\n      iszero\n      tag_469\n      jumpi\n        /* \"#utility.yul\":5190:5269   */\n      tag_470\n      tag_318\n      jump\t// in\n    tag_470:\n        /* \"#utility.yul\":5152:5271   */\n    tag_469:\n        /* \"#utility.yul\":5310:5311   */\n      0x00\n        /* \"#utility.yul\":5335:5388   */\n      tag_471\n        /* \"#utility.yul\":5380:5387   */\n      dup6\n        /* \"#utility.yul\":5371:5377   */\n      dup3\n        /* \"#utility.yul\":5360:5369   */\n      dup7\n        /* \"#utility.yul\":5356:5378   */\n      add\n        /* \"#utility.yul\":5335:5388   */\n      tag_337\n      jump\t// in\n    tag_471:\n        /* \"#utility.yul\":5325:5388   */\n      swap3\n      pop\n        /* \"#utility.yul\":5281:5398   */\n      pop\n        /* \"#utility.yul\":5437:5439   */\n      0x20\n        /* \"#utility.yul\":5463:5516   */\n      tag_472\n        /* \"#utility.yul\":5508:5515   */\n      dup6\n        /* \"#utility.yul\":5499:5505   */\n      dup3\n        /* \"#utility.yul\":5488:5497   */\n      dup7\n        /* \"#utility.yul\":5484:5506   */\n      add\n        /* \"#utility.yul\":5463:5516   */\n      tag_341\n      jump\t// in\n    tag_472:\n        /* \"#utility.yul\":5453:5516   */\n      swap2\n      pop\n        /* \"#utility.yul\":5408:5526   */\n      pop\n        /* \"#utility.yul\":5059:5533   */\n      swap3\n      pop\n      swap3\n      swap1\n      pop\n      jump\t// out\n        /* \"#utility.yul\":5539:6158   */\n    tag_58:\n        /* \"#utility.yul\":5616:5622   */\n      0x00\n        /* \"#utility.yul\":5624:5630   */\n      dup1\n        /* \"#utility.yul\":5632:5638   */\n      0x00\n        /* \"#utility.yul\":5681:5683   */\n      0x60\n        /* \"#utility.yul\":5669:5678   */\n      dup5\n        /* \"#utility.yul\":5660:5667   */\n      dup7\n        /* \"#utility.yul\":5656:5679   */\n      sub\n        /* \"#utility.yul\":5652:5684   */\n      slt\n        /* \"#utility.yul\":5649:5768   */\n      iszero\n      tag_474\n      jumpi\n        /* \"#utility.yul\":5687:5766   */\n      tag_475\n      tag_318\n      jump\t// in\n    tag_475:\n        /* \"#utility.yul\":5649:5768   */\n    tag_474:\n        /* \"#utility.yul\":5807:5808   */\n      0x00\n        /* \"#utility.yul\":5832:5885   */\n      tag_476\n        /* \"#utility.yul\":5877:5884   */\n      dup7\n        /* \"#utility.yul\":5868:5874   */\n      dup3\n        /* \"#utility.yul\":5857:5866   */\n      dup8\n        /* \"#utility.yul\":5853:5875   */\n      add\n        /* \"#utility.yul\":5832:5885   */\n      tag_333\n      jump\t// in\n    tag_476:\n        /* \"#utility.yul\":5822:5885   */\n      swap4\n      pop\n        /* \"#utility.yul\":5778:5895   */\n      pop\n        /* \"#utility.yul\":5934:5936   */\n      0x20\n        /* \"#utility.yul\":5960:6013   */\n      tag_477\n        /* \"#utility.yul\":6005:6012   */\n      dup7\n        /* \"#utility.yul\":5996:6002   */\n      dup3\n        /* \"#utility.yul\":5985:5994   */\n      dup8\n        /* \"#utility.yul\":5981:6003   */\n      add\n        /* \"#utility.yul\":5960:6013   */\n      tag_333\n      jump\t// in\n    tag_477:\n        /* \"#utility.yul\":5950:6013   */\n      swap3\n      pop\n        /* \"#utility.yul\":5905:6023   */\n      pop\n        /* \"#utility.yul\":6062:6064   */\n      0x40\n        /* \"#utility.yul\":6088:6141   */\n      tag_478\n        /* \"#utility.yul\":6133:6140   */\n      dup7\n        /* \"#utility.yul\":6124:6130   */\n      dup3\n        /* \"#utility.yul\":6113:6122   */\n      dup8\n        /* \"#utility.yul\":6109:6131   */\n      add\n        /* \"#utility.yul\":6088:6141   */\n      tag_333\n      jump\t// in\n    tag_478:\n        /* \"#utility.yul\":6078:6141   */\n      swap2\n      pop\n        /* \"#utility.yul\":6033:6151   */\n      pop\n        /* \"#utility.yul\":5539:6158   */\n      swap3\n      pop\n      swap3\n      pop\n      swap3\n      jump\t// out\n        /* \"#utility.yul\":6164:6816   */\n    tag_61:\n        /* \"#utility.yul\":6363:6367   */\n      0x00\n        /* \"#utility.yul\":6401:6404   */\n      0xa0\n        /* \"#utility.yul\":6390:6399   */\n      dup3\n        /* \"#utility.yul\":6386:6405   */\n      add\n        /* \"#utility.yul\":6378:6405   */\n      swap1\n      pop\n        /* \"#utility.yul\":6415:6486   */\n      tag_480\n        /* \"#utility.yul\":6483:6484   */\n      0x00\n        /* \"#utility.yul\":6472:6481   */\n      dup4\n        /* \"#utility.yul\":6468:6485   */\n      add\n        /* \"#utility.yul\":6459:6465   */\n      dup9\n        /* \"#utility.yul\":6415:6486   */\n      tag_334\n      jump\t// in\n    tag_480:\n        /* \"#utility.yul\":6496:6568   */\n      tag_481\n        /* \"#utility.yul\":6564:6566   */\n      0x20\n        /* \"#utility.yul\":6553:6562   */\n      dup4\n        /* \"#utility.yul\":6549:6567   */\n      add\n        /* \"#utility.yul\":6540:6546   */\n      dup8\n        /* \"#utility.yul\":6496:6568   */\n      tag_334\n      jump\t// in\n    tag_481:\n        /* \"#utility.yul\":6578:6650   */\n      tag_482\n        /* \"#utility.yul\":6646:6648   */\n      0x40\n        /* \"#utility.yul\":6635:6644   */\n      dup4\n        /* \"#utility.yul\":6631:6649   */\n      add\n        /* \"#utility.yul\":6622:6628   */\n      dup7\n        /* \"#utility.yul\":6578:6650   */\n      tag_334\n      jump\t// in\n    tag_482:\n        /* \"#utility.yul\":6660:6732   */\n      tag_483\n        /* \"#utility.yul\":6728:6730   */\n      0x60\n        /* \"#utility.yul\":6717:6726   */\n      dup4\n        /* \"#utility.yul\":6713:6731   */\n      add\n        /* \"#utility.yul\":6704:6710   */\n      dup6\n        /* \"#utility.yul\":6660:6732   */\n      tag_334\n      jump\t// in\n    tag_483:\n        /* \"#utility.yul\":6742:6809   */\n      tag_484\n        /* \"#utility.yul\":6804:6807   */\n      0x80\n        /* \"#utility.yul\":6793:6802   */\n      dup4\n        /* \"#utility.yul\":6789:6808   */\n      add\n        /* \"#utility.yul\":6780:6786   */\n      dup5\n        /* \"#utility.yul\":6742:6809   */\n      tag_324\n      jump\t// in\n    tag_484:\n        /* \"#utility.yul\":6164:6816   */\n      swap7\n      swap6\n      pop\n      pop\n      pop\n      pop\n      pop\n      pop\n      jump\t// out\n        /* \"#utility.yul\":6822:6939   */\n    tag_342:\n        /* \"#utility.yul\":6931:6932   */\n      0x00\n        /* \"#utility.yul\":6928:6929   */\n      dup1\n        /* \"#utility.yul\":6921:6933   */\n      revert\n        /* \"#utility.yul\":6945:7062   */\n    tag_343:\n        /* \"#utility.yul\":7054:7055   */\n      0x00\n        /* \"#utility.yul\":7051:7052   */\n      dup1\n        /* \"#utility.yul\":7044:7056   */\n      revert\n        /* \"#utility.yul\":7068:7185   */\n    tag_344:\n        /* \"#utility.yul\":7177:7178   */\n      0x00\n        /* \"#utility.yul\":7174:7175   */\n      dup1\n        /* \"#utility.yul\":7167:7179   */\n      revert\n        /* \"#utility.yul\":7208:7776   */\n    tag_345:\n        /* \"#utility.yul\":7281:7289   */\n      0x00\n        /* \"#utility.yul\":7291:7297   */\n      dup1\n        /* \"#utility.yul\":7341:7344   */\n      dup4\n        /* \"#utility.yul\":7334:7338   */\n      0x1f\n        /* \"#utility.yul\":7326:7332   */\n      dup5\n        /* \"#utility.yul\":7322:7339   */\n      add\n        /* \"#utility.yul\":7318:7345   */\n      slt\n        /* \"#utility.yul\":7308:7430   */\n      tag_489\n      jumpi\n        /* \"#utility.yul\":7349:7428   */\n      tag_490\n      tag_342\n      jump\t// in\n    tag_490:\n        /* \"#utility.yul\":7308:7430   */\n    tag_489:\n        /* \"#utility.yul\":7462:7468   */\n      dup3\n        /* \"#utility.yul\":7449:7469   */\n      calldataload\n        /* \"#utility.yul\":7439:7469   */\n      swap1\n      pop\n        /* \"#utility.yul\":7492:7510   */\n      0xffffffffffffffff\n        /* \"#utility.yul\":7484:7490   */\n      dup2\n        /* \"#utility.yul\":7481:7511   */\n      gt\n        /* \"#utility.yul\":7478:7595   */\n      iszero\n      tag_491\n      jumpi\n        /* \"#utility.yul\":7514:7593   */\n      tag_492\n      tag_343\n      jump\t// in\n    tag_492:\n        /* \"#utility.yul\":7478:7595   */\n    tag_491:\n        /* \"#utility.yul\":7628:7632   */\n      0x20\n        /* \"#utility.yul\":7620:7626   */\n      dup4\n        /* \"#utility.yul\":7616:7633   */\n      add\n        /* \"#utility.yul\":7604:7633   */\n      swap2\n      pop\n        /* \"#utility.yul\":7682:7685   */\n      dup4\n        /* \"#utility.yul\":7674:7678   */\n      0x20\n        /* \"#utility.yul\":7666:7672   */\n      dup3\n        /* \"#utility.yul\":7662:7679   */\n      mul\n        /* \"#utility.yul\":7652:7660   */\n      dup4\n        /* \"#utility.yul\":7648:7680   */\n      add\n        /* \"#utility.yul\":7645:7686   */\n      gt\n        /* \"#utility.yul\":7642:7770   */\n      iszero\n      tag_493\n      jumpi\n        /* \"#utility.yul\":7689:7768   */\n      tag_494\n      tag_344\n      jump\t// in\n    tag_494:\n        /* \"#utility.yul\":7642:7770   */\n    tag_493:\n        /* \"#utility.yul\":7208:7776   */\n      swap3\n      pop\n      swap3\n      swap1\n      pop\n      jump\t// out\n        /* \"#utility.yul\":7799:8367   */\n    tag_346:\n        /* \"#utility.yul\":7872:7880   */\n      0x00\n        /* \"#utility.yul\":7882:7888   */\n      dup1\n        /* \"#utility.yul\":7932:7935   */\n      dup4\n        /* \"#utility.yul\":7925:7929   */\n      0x1f\n        /* \"#utility.yul\":7917:7923   */\n      dup5\n        /* \"#utility.yul\":7913:7930   */\n      add\n        /* \"#utility.yul\":7909:7936   */\n      slt\n        /* \"#utility.yul\":7899:8021   */\n      tag_496\n      jumpi\n        /* \"#utility.yul\":7940:8019   */\n      tag_497\n      tag_342\n      jump\t// in\n    tag_497:\n        /* \"#utility.yul\":7899:8021   */\n    tag_496:\n        /* \"#utility.yul\":8053:8059   */\n      dup3\n        /* \"#utility.yul\":8040:8060   */\n      calldataload\n        /* \"#utility.yul\":8030:8060   */\n      swap1\n      pop\n        /* \"#utility.yul\":8083:8101   */\n      0xffffffffffffffff\n        /* \"#utility.yul\":8075:8081   */\n      dup2\n        /* \"#utility.yul\":8072:8102   */\n      gt\n        /* \"#utility.yul\":8069:8186   */\n      iszero\n      tag_498\n      jumpi\n        /* \"#utility.yul\":8105:8184   */\n      tag_499\n      tag_343\n      jump\t// in\n    tag_499:\n        /* \"#utility.yul\":8069:8186   */\n    tag_498:\n        /* \"#utility.yul\":8219:8223   */\n      0x20\n        /* \"#utility.yul\":8211:8217   */\n      dup4\n        /* \"#utility.yul\":8207:8224   */\n      add\n        /* \"#utility.yul\":8195:8224   */\n      swap2\n      pop\n        /* \"#utility.yul\":8273:8276   */\n      dup4\n        /* \"#utility.yul\":8265:8269   */\n      0x20\n        /* \"#utility.yul\":8257:8263   */\n      dup3\n        /* \"#utility.yul\":8253:8270   */\n      mul\n        /* \"#utility.yul\":8243:8251   */\n      dup4\n        /* \"#utility.yul\":8239:8271   */\n      add\n        /* \"#utility.yul\":8236:8277   */\n      gt\n        /* \"#utility.yul\":8233:8361   */\n      iszero\n      tag_500\n      jumpi\n        /* \"#utility.yul\":8280:8359   */\n      tag_501\n      tag_344\n      jump\t// in\n    tag_501:\n        /* \"#utility.yul\":8233:8361   */\n    tag_500:\n        /* \"#utility.yul\":7799:8367   */\n      swap3\n      pop\n      swap3\n      swap1\n      pop\n      jump\t// out\n        /* \"#utility.yul\":8373:9307   */\n    tag_67:\n        /* \"#utility.yul\":8495:8501   */\n      0x00\n        /* \"#utility.yul\":8503:8509   */\n      dup1\n        /* \"#utility.yul\":8511:8517   */\n      0x00\n        /* \"#utility.yul\":8519:8525   */\n      dup1\n        /* \"#utility.yul\":8568:8570   */\n      0x40\n        /* \"#utility.yul\":8556:8565   */\n      dup6\n        /* \"#utility.yul\":8547:8554   */\n      dup8\n        /* \"#utility.yul\":8543:8566   */\n      sub\n        /* \"#utility.yul\":8539:8571   */\n      slt\n        /* \"#utility.yul\":8536:8655   */\n      iszero\n      tag_503\n      jumpi\n        /* \"#utility.yul\":8574:8653   */\n      tag_504\n      tag_318\n      jump\t// in\n    tag_504:\n        /* \"#utility.yul\":8536:8655   */\n    tag_503:\n        /* \"#utility.yul\":8722:8723   */\n      0x00\n        /* \"#utility.yul\":8711:8720   */\n      dup6\n        /* \"#utility.yul\":8707:8724   */\n      add\n        /* \"#utility.yul\":8694:8725   */\n      calldataload\n        /* \"#utility.yul\":8752:8770   */\n      0xffffffffffffffff\n        /* \"#utility.yul\":8744:8750   */\n      dup2\n        /* \"#utility.yul\":8741:8771   */\n      gt\n        /* \"#utility.yul\":8738:8855   */\n      iszero\n      tag_505\n      jumpi\n        /* \"#utility.yul\":8774:8853   */\n      tag_506\n      tag_319\n      jump\t// in\n    tag_506:\n        /* \"#utility.yul\":8738:8855   */\n    tag_505:\n        /* \"#utility.yul\":8887:8967   */\n      tag_507\n        /* \"#utility.yul\":8959:8966   */\n      dup8\n        /* \"#utility.yul\":8950:8956   */\n      dup3\n        /* \"#utility.yul\":8939:8948   */\n      dup9\n        /* \"#utility.yul\":8935:8957   */\n      add\n        /* \"#utility.yul\":8887:8967   */\n      tag_345\n      jump\t// in\n    tag_507:\n        /* \"#utility.yul\":8869:8967   */\n      swap5\n      pop\n      swap5\n      pop\n        /* \"#utility.yul\":8665:8977   */\n      pop\n        /* \"#utility.yul\":9044:9046   */\n      0x20\n        /* \"#utility.yul\":9033:9042   */\n      dup6\n        /* \"#utility.yul\":9029:9047   */\n      add\n        /* \"#utility.yul\":9016:9048   */\n      calldataload\n        /* \"#utility.yul\":9075:9093   */\n      0xffffffffffffffff\n        /* \"#utility.yul\":9067:9073   */\n      dup2\n        /* \"#utility.yul\":9064:9094   */\n      gt\n        /* \"#utility.yul\":9061:9178   */\n      iszero\n      tag_508\n      jumpi\n        /* \"#utility.yul\":9097:9176   */\n      tag_509\n      tag_319\n      jump\t// in\n    tag_509:\n        /* \"#utility.yul\":9061:9178   */\n    tag_508:\n        /* \"#utility.yul\":9210:9290   */\n      tag_510\n        /* \"#utility.yul\":9282:9289   */\n      dup8\n        /* \"#utility.yul\":9273:9279   */\n      dup3\n        /* \"#utility.yul\":9262:9271   */\n      dup9\n        /* \"#utility.yul\":9258:9280   */\n      add\n        /* \"#utility.yul\":9210:9290   */\n      tag_346\n      jump\t// in\n    tag_510:\n        /* \"#utility.yul\":9192:9290   */\n      swap3\n      pop\n      swap3\n      pop\n        /* \"#utility.yul\":8987:9300   */\n      pop\n        /* \"#utility.yul\":8373:9307   */\n      swap3\n      swap6\n      swap2\n      swap5\n      pop\n      swap3\n      pop\n      jump\t// out\n        /* \"#utility.yul\":9313:10078   */\n    tag_74:\n        /* \"#utility.yul\":9399:9405   */\n      0x00\n        /* \"#utility.yul\":9407:9413   */\n      dup1\n        /* \"#utility.yul\":9415:9421   */\n      0x00\n        /* \"#utility.yul\":9423:9429   */\n      dup1\n        /* \"#utility.yul\":9472:9475   */\n      0x80\n        /* \"#utility.yul\":9460:9469   */\n      dup6\n        /* \"#utility.yul\":9451:9458   */\n      dup8\n        /* \"#utility.yul\":9447:9470   */\n      sub\n        /* \"#utility.yul\":9443:9476   */\n      slt\n        /* \"#utility.yul\":9440:9560   */\n      iszero\n      tag_512\n      jumpi\n        /* \"#utility.yul\":9479:9558   */\n      tag_513\n      tag_318\n      jump\t// in\n    tag_513:\n        /* \"#utility.yul\":9440:9560   */\n    tag_512:\n        /* \"#utility.yul\":9599:9600   */\n      0x00\n        /* \"#utility.yul\":9624:9677   */\n      tag_514\n        /* \"#utility.yul\":9669:9676   */\n      dup8\n        /* \"#utility.yul\":9660:9666   */\n      dup3\n        /* \"#utility.yul\":9649:9658   */\n      dup9\n        /* \"#utility.yul\":9645:9667   */\n      add\n        /* \"#utility.yul\":9624:9677   */\n      tag_333\n      jump\t// in\n    tag_514:\n        /* \"#utility.yul\":9614:9677   */\n      swap5\n      pop\n        /* \"#utility.yul\":9570:9687   */\n      pop\n        /* \"#utility.yul\":9726:9728   */\n      0x20\n        /* \"#utility.yul\":9752:9805   */\n      tag_515\n        /* \"#utility.yul\":9797:9804   */\n      dup8\n        /* \"#utility.yul\":9788:9794   */\n      dup3\n        /* \"#utility.yul\":9777:9786   */\n      dup9\n        /* \"#utility.yul\":9773:9795   */\n      add\n        /* \"#utility.yul\":9752:9805   */\n      tag_333\n      jump\t// in\n    tag_515:\n        /* \"#utility.yul\":9742:9805   */\n      swap4\n      pop\n        /* \"#utility.yul\":9697:9815   */\n      pop\n        /* \"#utility.yul\":9854:9856   */\n      0x40\n        /* \"#utility.yul\":9880:9933   */\n      tag_516\n        /* \"#utility.yul\":9925:9932   */\n      dup8\n        /* \"#utility.yul\":9916:9922   */\n      dup3\n        /* \"#utility.yul\":9905:9914   */\n      dup9\n        /* \"#utility.yul\":9901:9923   */\n      add\n        /* \"#utility.yul\":9880:9933   */\n      tag_333\n      jump\t// in\n    tag_516:\n        /* \"#utility.yul\":9870:9933   */\n      swap3\n      pop\n        /* \"#utility.yul\":9825:9943   */\n      pop\n        /* \"#utility.yul\":9982:9984   */\n      0x60\n        /* \"#utility.yul\":10008:10061   */\n      tag_517\n        /* \"#utility.yul\":10053:10060   */\n      dup8\n        /* \"#utility.yul\":10044:10050   */\n      dup3\n        /* \"#utility.yul\":10033:10042   */\n      dup9\n        /* \"#utility.yul\":10029:10051   */\n      add\n        /* \"#utility.yul\":10008:10061   */\n      tag_333\n      jump\t// in\n    tag_517:\n        /* \"#utility.yul\":9998:10061   */\n      swap2\n      pop\n        /* \"#utility.yul\":9953:10071   */\n      pop\n        /* \"#utility.yul\":9313:10078   */\n      swap3\n      swap6\n      swap2\n      swap5\n      pop\n      swap3\n      pop\n      jump\t// out\n        /* \"#utility.yul\":10084:10625   */\n    tag_80:\n        /* \"#utility.yul\":10255:10259   */\n      0x00\n        /* \"#utility.yul\":10293:10296   */\n      0x80\n        /* \"#utility.yul\":10282:10291   */\n      dup3\n        /* \"#utility.yul\":10278:10297   */\n      add\n        /* \"#utility.yul\":10270:10297   */\n      swap1\n      pop\n        /* \"#utility.yul\":10307:10378   */\n      tag_519\n        /* \"#utility.yul\":10375:10376   */\n      0x00\n        /* \"#utility.yul\":10364:10373   */\n      dup4\n        /* \"#utility.yul\":10360:10377   */\n      add\n        /* \"#utility.yul\":10351:10357   */\n      dup8\n        /* \"#utility.yul\":10307:10378   */\n      tag_334\n      jump\t// in\n    tag_519:\n        /* \"#utility.yul\":10388:10460   */\n      tag_520\n        /* \"#utility.yul\":10456:10458   */\n      0x20\n        /* \"#utility.yul\":10445:10454   */\n      dup4\n        /* \"#utility.yul\":10441:10459   */\n      add\n        /* \"#utility.yul\":10432:10438   */\n      dup7\n        /* \"#utility.yul\":10388:10460   */\n      tag_334\n      jump\t// in\n    tag_520:\n        /* \"#utility.yul\":10470:10542   */\n      tag_521\n        /* \"#utility.yul\":10538:10540   */\n      0x40\n        /* \"#utility.yul\":10527:10536   */\n      dup4\n        /* \"#utility.yul\":10523:10541   */\n      add\n        /* \"#utility.yul\":10514:10520   */\n      dup6\n        /* \"#utility.yul\":10470:10542   */\n      tag_334\n      jump\t// in\n    tag_521:\n        /* \"#utility.yul\":10552:10618   */\n      tag_522\n        /* \"#utility.yul\":10614:10616   */\n      0x60\n        /* \"#utility.yul\":10603:10612   */\n      dup4\n        /* \"#utility.yul\":10599:10617   */\n      add\n        /* \"#utility.yul\":10590:10596   */\n      dup5\n        /* \"#utility.yul\":10552:10618   */\n      tag_324\n      jump\t// in\n    tag_522:\n        /* \"#utility.yul\":10084:10625   */\n      swap6\n      swap5\n      pop\n      pop\n      pop\n      pop\n      pop\n      jump\t// out\n        /* \"#utility.yul\":10631:10960   */\n    tag_87:\n        /* \"#utility.yul\":10690:10696   */\n      0x00\n        /* \"#utility.yul\":10739:10741   */\n      0x20\n        /* \"#utility.yul\":10727:10736   */\n      dup3\n        /* \"#utility.yul\":10718:10725   */\n      dup5\n        /* \"#utility.yul\":10714:10737   */\n      sub\n        /* \"#utility.yul\":10710:10742   */\n      slt\n        /* \"#utility.yul\":10707:10826   */\n      iszero\n      tag_524\n      jumpi\n        /* \"#utility.yul\":10745:10824   */\n      tag_525\n      tag_318\n      jump\t// in\n    tag_525:\n        /* \"#utility.yul\":10707:10826   */\n    tag_524:\n        /* \"#utility.yul\":10865:10866   */\n      0x00\n        /* \"#utility.yul\":10890:10943   */\n      tag_526\n        /* \"#utility.yul\":10935:10942   */\n      dup5\n        /* \"#utility.yul\":10926:10932   */\n      dup3\n        /* \"#utility.yul\":10915:10924   */\n      dup6\n        /* \"#utility.yul\":10911:10933   */\n      add\n        /* \"#utility.yul\":10890:10943   */\n      tag_341\n      jump\t// in\n    tag_526:\n        /* \"#utility.yul\":10880:10943   */\n      swap2\n      pop\n        /* \"#utility.yul\":10836:10953   */\n      pop\n        /* \"#utility.yul\":10631:10960   */\n      swap3\n      swap2\n      pop\n      pop\n      jump\t// out\n        /* \"#utility.yul\":10966:11074   */\n    tag_347:\n        /* \"#utility.yul\":11043:11067   */\n      tag_528\n        /* \"#utility.yul\":11061:11066   */\n      dup2\n        /* \"#utility.yul\":11043:11067   */\n      tag_331\n      jump\t// in\n    tag_528:\n        /* \"#utility.yul\":11038:11041   */\n      dup3\n        /* \"#utility.yul\":11031:11068   */\n      mstore\n        /* \"#utility.yul\":10966:11074   */\n      pop\n      pop\n      jump\t// out\n        /* \"#utility.yul\":11154:11494   */\n    tag_348:\n        /* \"#utility.yul\":11303:11307   */\n      0x20\n        /* \"#utility.yul\":11298:11301   */\n      dup3\n        /* \"#utility.yul\":11294:11308   */\n      add\n        /* \"#utility.yul\":11395:11399   */\n      0x00\n        /* \"#utility.yul\":11388:11393   */\n      dup3\n        /* \"#utility.yul\":11384:11400   */\n      add\n        /* \"#utility.yul\":11378:11401   */\n      mload\n        /* \"#utility.yul\":11414:11477   */\n      tag_530\n        /* \"#utility.yul\":11471:11475   */\n      0x00\n        /* \"#utility.yul\":11466:11469   */\n      dup6\n        /* \"#utility.yul\":11462:11476   */\n      add\n        /* \"#utility.yul\":11448:11460   */\n      dup3\n        /* \"#utility.yul\":11414:11477   */\n      tag_347\n      jump\t// in\n    tag_530:\n        /* \"#utility.yul\":11318:11487   */\n      pop\n        /* \"#utility.yul\":11272:11494   */\n      pop\n        /* \"#utility.yul\":11154:11494   */\n      pop\n      pop\n      jump\t// out\n        /* \"#utility.yul\":11500:11826   */\n    tag_96:\n        /* \"#utility.yul\":11645:11649   */\n      0x00\n        /* \"#utility.yul\":11683:11685   */\n      0x20\n        /* \"#utility.yul\":11672:11681   */\n      dup3\n        /* \"#utility.yul\":11668:11686   */\n      add\n        /* \"#utility.yul\":11660:11686   */\n      swap1\n      pop\n        /* \"#utility.yul\":11696:11819   */\n      tag_532\n        /* \"#utility.yul\":11816:11817   */\n      0x00\n        /* \"#utility.yul\":11805:11814   */\n      dup4\n        /* \"#utility.yul\":11801:11818   */\n      add\n        /* \"#utility.yul\":11792:11798   */\n      dup5\n        /* \"#utility.yul\":11696:11819   */\n      tag_348\n      jump\t// in\n    tag_532:\n        /* \"#utility.yul\":11500:11826   */\n      swap3\n      swap2\n      pop\n      pop\n      jump\t// out\n        /* \"#utility.yul\":11832:12451   */\n    tag_99:\n        /* \"#utility.yul\":11909:11915   */\n      0x00\n        /* \"#utility.yul\":11917:11923   */\n      dup1\n        /* \"#utility.yul\":11925:11931   */\n      0x00\n        /* \"#utility.yul\":11974:11976   */\n      0x60\n        /* \"#utility.yul\":11962:11971   */\n      dup5\n        /* \"#utility.yul\":11953:11960   */\n      dup7\n        /* \"#utility.yul\":11949:11972   */\n      sub\n        /* \"#utility.yul\":11945:11977   */\n      slt\n        /* \"#utility.yul\":11942:12061   */\n      iszero\n      tag_534\n      jumpi\n        /* \"#utility.yul\":11980:12059   */\n      tag_535\n      tag_318\n      jump\t// in\n    tag_535:\n        /* \"#utility.yul\":11942:12061   */\n    tag_534:\n        /* \"#utility.yul\":12100:12101   */\n      0x00\n        /* \"#utility.yul\":12125:12178   */\n      tag_536\n        /* \"#utility.yul\":12170:12177   */\n      dup7\n        /* \"#utility.yul\":12161:12167   */\n      dup3\n        /* \"#utility.yul\":12150:12159   */\n      dup8\n        /* \"#utility.yul\":12146:12168   */\n      add\n        /* \"#utility.yul\":12125:12178   */\n      tag_333\n      jump\t// in\n    tag_536:\n        /* \"#utility.yul\":12115:12178   */\n      swap4\n      pop\n        /* \"#utility.yul\":12071:12188   */\n      pop\n        /* \"#utility.yul\":12227:12229   */\n      0x20\n        /* \"#utility.yul\":12253:12306   */\n      tag_537\n        /* \"#utility.yul\":12298:12305   */\n      dup7\n        /* \"#utility.yul\":12289:12295   */\n      dup3\n        /* \"#utility.yul\":12278:12287   */\n      dup8\n        /* \"#utility.yul\":12274:12296   */\n      add\n        /* \"#utility.yul\":12253:12306   */\n      tag_341\n      jump\t// in\n    tag_537:\n        /* \"#utility.yul\":12243:12306   */\n      swap3\n      pop\n        /* \"#utility.yul\":12198:12316   */\n      pop\n        /* \"#utility.yul\":12355:12357   */\n      0x40\n        /* \"#utility.yul\":12381:12434   */\n      tag_538\n        /* \"#utility.yul\":12426:12433   */\n      dup7\n        /* \"#utility.yul\":12417:12423   */\n      dup3\n        /* \"#utility.yul\":12406:12415   */\n      dup8\n        /* \"#utility.yul\":12402:12424   */\n      add\n        /* \"#utility.yul\":12381:12434   */\n      tag_333\n      jump\t// in\n    tag_538:\n        /* \"#utility.yul\":12371:12434   */\n      swap2\n      pop\n        /* \"#utility.yul\":12326:12444   */\n      pop\n        /* \"#utility.yul\":11832:12451   */\n      swap3\n      pop\n      swap3\n      pop\n      swap3\n      jump\t// out\n        /* \"#utility.yul\":12457:12556   */\n    tag_349:\n        /* \"#utility.yul\":12528:12549   */\n      tag_540\n        /* \"#utility.yul\":12543:12548   */\n      dup2\n        /* \"#utility.yul\":12528:12549   */\n      tag_323\n      jump\t// in\n    tag_540:\n        /* \"#utility.yul\":12523:12526   */\n      dup3\n        /* \"#utility.yul\":12516:12550   */\n      mstore\n        /* \"#utility.yul\":12457:12556   */\n      pop\n      pop\n      jump\t// out\n        /* \"#utility.yul\":12644:13695   */\n    tag_350:\n        /* \"#utility.yul\":12801:12805   */\n      0xa0\n        /* \"#utility.yul\":12796:12799   */\n      dup3\n        /* \"#utility.yul\":12792:12806   */\n      add\n        /* \"#utility.yul\":12891:12895   */\n      0x00\n        /* \"#utility.yul\":12884:12889   */\n      dup3\n        /* \"#utility.yul\":12880:12896   */\n      add\n        /* \"#utility.yul\":12874:12897   */\n      mload\n        /* \"#utility.yul\":12910:12973   */\n      tag_542\n        /* \"#utility.yul\":12967:12971   */\n      0x00\n        /* \"#utility.yul\":12962:12965   */\n      dup6\n        /* \"#utility.yul\":12958:12972   */\n      add\n        /* \"#utility.yul\":12944:12956   */\n      dup3\n        /* \"#utility.yul\":12910:12973   */\n      tag_347\n      jump\t// in\n    tag_542:\n        /* \"#utility.yul\":12816:12983   */\n      pop\n        /* \"#utility.yul\":13070:13074   */\n      0x20\n        /* \"#utility.yul\":13063:13068   */\n      dup3\n        /* \"#utility.yul\":13059:13075   */\n      add\n        /* \"#utility.yul\":13053:13076   */\n      mload\n        /* \"#utility.yul\":13089:13152   */\n      tag_543\n        /* \"#utility.yul\":13146:13150   */\n      0x20\n        /* \"#utility.yul\":13141:13144   */\n      dup6\n        /* \"#utility.yul\":13137:13151   */\n      add\n        /* \"#utility.yul\":13123:13135   */\n      dup3\n        /* \"#utility.yul\":13089:13152   */\n      tag_347\n      jump\t// in\n    tag_543:\n        /* \"#utility.yul\":12993:13162   */\n      pop\n        /* \"#utility.yul\":13251:13255   */\n      0x40\n        /* \"#utility.yul\":13244:13249   */\n      dup3\n        /* \"#utility.yul\":13240:13256   */\n      add\n        /* \"#utility.yul\":13234:13257   */\n      mload\n        /* \"#utility.yul\":13270:13333   */\n      tag_544\n        /* \"#utility.yul\":13327:13331   */\n      0x40\n        /* \"#utility.yul\":13322:13325   */\n      dup6\n        /* \"#utility.yul\":13318:13332   */\n      add\n        /* \"#utility.yul\":13304:13316   */\n      dup3\n        /* \"#utility.yul\":13270:13333   */\n      tag_347\n      jump\t// in\n    tag_544:\n        /* \"#utility.yul\":13172:13343   */\n      pop\n        /* \"#utility.yul\":13426:13430   */\n      0x60\n        /* \"#utility.yul\":13419:13424   */\n      dup3\n        /* \"#utility.yul\":13415:13431   */\n      add\n        /* \"#utility.yul\":13409:13432   */\n      mload\n        /* \"#utility.yul\":13445:13508   */\n      tag_545\n        /* \"#utility.yul\":13502:13506   */\n      0x60\n        /* \"#utility.yul\":13497:13500   */\n      dup6\n        /* \"#utility.yul\":13493:13507   */\n      add\n        /* \"#utility.yul\":13479:13491   */\n      dup3\n        /* \"#utility.yul\":13445:13508   */\n      tag_347\n      jump\t// in\n    tag_545:\n        /* \"#utility.yul\":13353:13518   */\n      pop\n        /* \"#utility.yul\":13602:13606   */\n      0x80\n        /* \"#utility.yul\":13595:13600   */\n      dup3\n        /* \"#utility.yul\":13591:13607   */\n      add\n        /* \"#utility.yul\":13585:13608   */\n      mload\n        /* \"#utility.yul\":13621:13678   */\n      tag_546\n        /* \"#utility.yul\":13672:13676   */\n      0x80\n        /* \"#utility.yul\":13667:13670   */\n      dup6\n        /* \"#utility.yul\":13663:13677   */\n      add\n        /* \"#utility.yul\":13649:13661   */\n      dup3\n        /* \"#utility.yul\":13621:13678   */\n      tag_349\n      jump\t// in\n    tag_546:\n        /* \"#utility.yul\":13528:13688   */\n      pop\n        /* \"#utility.yul\":12770:13695   */\n      pop\n        /* \"#utility.yul\":12644:13695   */\n      pop\n      pop\n      jump\t// out\n        /* \"#utility.yul\":13701:14044   */\n    tag_105:\n        /* \"#utility.yul\":13854:13858   */\n      0x00\n        /* \"#utility.yul\":13892:13895   */\n      0xa0\n        /* \"#utility.yul\":13881:13890   */\n      dup3\n        /* \"#utility.yul\":13877:13896   */\n      add\n        /* \"#utility.yul\":13869:13896   */\n      swap1\n      pop\n        /* \"#utility.yul\":13906:14037   */\n      tag_548\n        /* \"#utility.yul\":14034:14035   */\n      0x00\n        /* \"#utility.yul\":14023:14032   */\n      dup4\n        /* \"#utility.yul\":14019:14036   */\n      add\n        /* \"#utility.yul\":14010:14016   */\n      dup5\n        /* \"#utility.yul\":13906:14037   */\n      tag_350\n      jump\t// in\n    tag_548:\n        /* \"#utility.yul\":13701:14044   */\n      swap3\n      swap2\n      pop\n      pop\n      jump\t// out\n        /* \"#utility.yul\":14050:14524   */\n    tag_118:\n        /* \"#utility.yul\":14118:14124   */\n      0x00\n        /* \"#utility.yul\":14126:14132   */\n      dup1\n        /* \"#utility.yul\":14175:14177   */\n      0x40\n        /* \"#utility.yul\":14163:14172   */\n      dup4\n        /* \"#utility.yul\":14154:14161   */\n      dup6\n        /* \"#utility.yul\":14150:14173   */\n      sub\n        /* \"#utility.yul\":14146:14178   */\n      slt\n        /* \"#utility.yul\":14143:14262   */\n      iszero\n      tag_550\n      jumpi\n        /* \"#utility.yul\":14181:14260   */\n      tag_551\n      tag_318\n      jump\t// in\n    tag_551:\n        /* \"#utility.yul\":14143:14262   */\n    tag_550:\n        /* \"#utility.yul\":14301:14302   */\n      0x00\n        /* \"#utility.yul\":14326:14379   */\n      tag_552\n        /* \"#utility.yul\":14371:14378   */\n      dup6\n        /* \"#utility.yul\":14362:14368   */\n      dup3\n        /* \"#utility.yul\":14351:14360   */\n      dup7\n        /* \"#utility.yul\":14347:14369   */\n      add\n        /* \"#utility.yul\":14326:14379   */\n      tag_341\n      jump\t// in\n    tag_552:\n        /* \"#utility.yul\":14316:14379   */\n      swap3\n      pop\n        /* \"#utility.yul\":14272:14389   */\n      pop\n        /* \"#utility.yul\":14428:14430   */\n      0x20\n        /* \"#utility.yul\":14454:14507   */\n      tag_553\n        /* \"#utility.yul\":14499:14506   */\n      dup6\n        /* \"#utility.yul\":14490:14496   */\n      dup3\n        /* \"#utility.yul\":14479:14488   */\n      dup7\n        /* \"#utility.yul\":14475:14497   */\n      add\n        /* \"#utility.yul\":14454:14507   */\n      tag_341\n      jump\t// in\n    tag_553:\n        /* \"#utility.yul\":14444:14507   */\n      swap2\n      pop\n        /* \"#utility.yul\":14399:14517   */\n      pop\n        /* \"#utility.yul\":14050:14524   */\n      swap3\n      pop\n      swap3\n      swap1\n      pop\n      jump\t// out\n        /* \"#utility.yul\":14530:14699   */\n    tag_351:\n        /* \"#utility.yul\":14614:14625   */\n      0x00\n        /* \"#utility.yul\":14648:14654   */\n      dup3\n        /* \"#utility.yul\":14643:14646   */\n      dup3\n        /* \"#utility.yul\":14636:14655   */\n      mstore\n        /* \"#utility.yul\":14688:14692   */\n      0x20\n        /* \"#utility.yul\":14683:14686   */\n      dup3\n        /* \"#utility.yul\":14679:14693   */\n      add\n        /* \"#utility.yul\":14664:14693   */\n      swap1\n      pop\n        /* \"#utility.yul\":14530:14699   */\n      swap3\n      swap2\n      pop\n      pop\n      jump\t// out\n        /* \"#utility.yul\":14705:14939   */\n    tag_352:\n        /* \"#utility.yul\":14845:14879   */\n      0x416363657373436f6e74726f6c3a2063616e206f6e6c792072656e6f756e6365\n        /* \"#utility.yul\":14841:14842   */\n      0x00\n        /* \"#utility.yul\":14833:14839   */\n      dup3\n        /* \"#utility.yul\":14829:14843   */\n      add\n        /* \"#utility.yul\":14822:14880   */\n      mstore\n        /* \"#utility.yul\":14914:14931   */\n      0x20726f6c657320666f722073656c660000000000000000000000000000000000\n        /* \"#utility.yul\":14909:14911   */\n      0x20\n        /* \"#utility.yul\":14901:14907   */\n      dup3\n        /* \"#utility.yul\":14897:14912   */\n      add\n        /* \"#utility.yul\":14890:14932   */\n      mstore\n        /* \"#utility.yul\":14705:14939   */\n      pop\n      jump\t// out\n        /* \"#utility.yul\":14945:15311   */\n    tag_353:\n        /* \"#utility.yul\":15087:15090   */\n      0x00\n        /* \"#utility.yul\":15108:15175   */\n      tag_557\n        /* \"#utility.yul\":15172:15174   */\n      0x2f\n        /* \"#utility.yul\":15167:15170   */\n      dup4\n        /* \"#utility.yul\":15108:15175   */\n      tag_351\n      jump\t// in\n    tag_557:\n        /* \"#utility.yul\":15101:15175   */\n      swap2\n      pop\n        /* \"#utility.yul\":15184:15277   */\n      tag_558\n        /* \"#utility.yul\":15273:15276   */\n      dup3\n        /* \"#utility.yul\":15184:15277   */\n      tag_352\n      jump\t// in\n    tag_558:\n        /* \"#utility.yul\":15302:15304   */\n      0x40\n        /* \"#utility.yul\":15297:15300   */\n      dup3\n        /* \"#utility.yul\":15293:15305   */\n      add\n        /* \"#utility.yul\":15286:15305   */\n      swap1\n      pop\n        /* \"#utility.yul\":14945:15311   */\n      swap2\n      swap1\n      pop\n      jump\t// out\n        /* \"#utility.yul\":15317:15736   */\n    tag_148:\n        /* \"#utility.yul\":15483:15487   */\n      0x00\n        /* \"#utility.yul\":15521:15523   */\n      0x20\n        /* \"#utility.yul\":15510:15519   */\n      dup3\n        /* \"#utility.yul\":15506:15524   */\n      add\n        /* \"#utility.yul\":15498:15524   */\n      swap1\n      pop\n        /* \"#utility.yul\":15570:15579   */\n      dup2\n        /* \"#utility.yul\":15564:15568   */\n      dup2\n        /* \"#utility.yul\":15560:15580   */\n      sub\n        /* \"#utility.yul\":15556:15557   */\n      0x00\n        /* \"#utility.yul\":15545:15554   */\n      dup4\n        /* \"#utility.yul\":15541:15558   */\n      add\n        /* \"#utility.yul\":15534:15581   */\n      mstore\n        /* \"#utility.yul\":15598:15729   */\n      tag_560\n        /* \"#utility.yul\":15724:15728   */\n      dup2\n        /* \"#utility.yul\":15598:15729   */\n      tag_353\n      jump\t// in\n    tag_560:\n        /* \"#utility.yul\":15590:15729   */\n      swap1\n      pop\n        /* \"#utility.yul\":15317:15736   */\n      swap2\n      swap1\n      pop\n      jump\t// out\n        /* \"#utility.yul\":15742:15973   */\n    tag_354:\n        /* \"#utility.yul\":15882:15916   */\n      0x526563697069656e747320616e6420746f6b656e20616d6f756e7473206c656e\n        /* \"#utility.yul\":15878:15879   */\n      0x00\n        /* \"#utility.yul\":15870:15876   */\n      dup3\n        /* \"#utility.yul\":15866:15880   */\n      add\n        /* \"#utility.yul\":15859:15917   */\n      mstore\n        /* \"#utility.yul\":15951:15965   */\n      0x677468206d69736d617463680000000000000000000000000000000000000000\n        /* \"#utility.yul\":15946:15948   */\n      0x20\n        /* \"#utility.yul\":15938:15944   */\n      dup3\n        /* \"#utility.yul\":15934:15949   */\n      add\n        /* \"#utility.yul\":15927:15966   */\n      mstore\n        /* \"#utility.yul\":15742:15973   */\n      pop\n      jump\t// out\n        /* \"#utility.yul\":15979:16345   */\n    tag_355:\n        /* \"#utility.yul\":16121:16124   */\n      0x00\n        /* \"#utility.yul\":16142:16209   */\n      tag_563\n        /* \"#utility.yul\":16206:16208   */\n      0x2c\n        /* \"#utility.yul\":16201:16204   */\n      dup4\n        /* \"#utility.yul\":16142:16209   */\n      tag_351\n      jump\t// in\n    tag_563:\n        /* \"#utility.yul\":16135:16209   */\n      swap2\n      pop\n        /* \"#utility.yul\":16218:16311   */\n      tag_564\n        /* \"#utility.yul\":16307:16310   */\n      dup3\n        /* \"#utility.yul\":16218:16311   */\n      tag_354\n      jump\t// in\n    tag_564:\n        /* \"#utility.yul\":16336:16338   */\n      0x40\n        /* \"#utility.yul\":16331:16334   */\n      dup3\n        /* \"#utility.yul\":16327:16339   */\n      add\n        /* \"#utility.yul\":16320:16339   */\n      swap1\n      pop\n        /* \"#utility.yul\":15979:16345   */\n      swap2\n      swap1\n      pop\n      jump\t// out\n        /* \"#utility.yul\":16351:16770   */\n    tag_156:\n        /* \"#utility.yul\":16517:16521   */\n      0x00\n        /* \"#utility.yul\":16555:16557   */\n      0x20\n        /* \"#utility.yul\":16544:16553   */\n      dup3\n        /* \"#utility.yul\":16540:16558   */\n      add\n        /* \"#utility.yul\":16532:16558   */\n      swap1\n      pop\n        /* \"#utility.yul\":16604:16613   */\n      dup2\n        /* \"#utility.yul\":16598:16602   */\n      dup2\n        /* \"#utility.yul\":16594:16614   */\n      sub\n        /* \"#utility.yul\":16590:16591   */\n      0x00\n        /* \"#utility.yul\":16579:16588   */\n      dup4\n        /* \"#utility.yul\":16575:16592   */\n      add\n        /* \"#utility.yul\":16568:16615   */\n      mstore\n        /* \"#utility.yul\":16632:16763   */\n      tag_566\n        /* \"#utility.yul\":16758:16762   */\n      dup2\n        /* \"#utility.yul\":16632:16763   */\n      tag_355\n      jump\t// in\n    tag_566:\n        /* \"#utility.yul\":16624:16763   */\n      swap1\n      pop\n        /* \"#utility.yul\":16351:16770   */\n      swap2\n      swap1\n      pop\n      jump\t// out\n        /* \"#utility.yul\":16776:16956   */\n    tag_162:\n        /* \"#utility.yul\":16824:16901   */\n      0x4e487b7100000000000000000000000000000000000000000000000000000000\n        /* \"#utility.yul\":16821:16822   */\n      0x00\n        /* \"#utility.yul\":16814:16902   */\n      mstore\n        /* \"#utility.yul\":16921:16925   */\n      0x32\n        /* \"#utility.yul\":16918:16919   */\n      0x04\n        /* \"#utility.yul\":16911:16926   */\n      mstore\n        /* \"#utility.yul\":16945:16949   */\n      0x24\n        /* \"#utility.yul\":16942:16943   */\n      0x00\n        /* \"#utility.yul\":16935:16950   */\n      revert\n        /* \"#utility.yul\":16962:17080   */\n    tag_356:\n        /* \"#utility.yul\":17049:17073   */\n      tag_569\n        /* \"#utility.yul\":17067:17072   */\n      dup2\n        /* \"#utility.yul\":17049:17073   */\n      tag_339\n      jump\t// in\n    tag_569:\n        /* \"#utility.yul\":17044:17047   */\n      dup3\n        /* \"#utility.yul\":17037:17074   */\n      mstore\n        /* \"#utility.yul\":16962:17080   */\n      pop\n      pop\n      jump\t// out\n        /* \"#utility.yul\":17086:17418   */\n    tag_167:\n        /* \"#utility.yul\":17207:17211   */\n      0x00\n        /* \"#utility.yul\":17245:17247   */\n      0x40\n        /* \"#utility.yul\":17234:17243   */\n      dup3\n        /* \"#utility.yul\":17230:17248   */\n      add\n        /* \"#utility.yul\":17222:17248   */\n      swap1\n      pop\n        /* \"#utility.yul\":17258:17329   */\n      tag_571\n        /* \"#utility.yul\":17326:17327   */\n      0x00\n        /* \"#utility.yul\":17315:17324   */\n      dup4\n        /* \"#utility.yul\":17311:17328   */\n      add\n        /* \"#utility.yul\":17302:17308   */\n      dup6\n        /* \"#utility.yul\":17258:17329   */\n      tag_356\n      jump\t// in\n    tag_571:\n        /* \"#utility.yul\":17339:17411   */\n      tag_572\n        /* \"#utility.yul\":17407:17409   */\n      0x20\n        /* \"#utility.yul\":17396:17405   */\n      dup4\n        /* \"#utility.yul\":17392:17410   */\n      add\n        /* \"#utility.yul\":17383:17389   */\n      dup5\n        /* \"#utility.yul\":17339:17411   */\n      tag_334\n      jump\t// in\n    tag_572:\n        /* \"#utility.yul\":17086:17418   */\n      swap4\n      swap3\n      pop\n      pop\n      pop\n      jump\t// out\n        /* \"#utility.yul\":17424:17540   */\n    tag_357:\n        /* \"#utility.yul\":17494:17515   */\n      tag_574\n        /* \"#utility.yul\":17509:17514   */\n      dup2\n        /* \"#utility.yul\":17494:17515   */\n      tag_323\n      jump\t// in\n    tag_574:\n        /* \"#utility.yul\":17487:17492   */\n      dup2\n        /* \"#utility.yul\":17484:17516   */\n      eq\n        /* \"#utility.yul\":17474:17534   */\n      tag_575\n      jumpi\n        /* \"#utility.yul\":17530:17531   */\n      0x00\n        /* \"#utility.yul\":17527:17528   */\n      dup1\n        /* \"#utility.yul\":17520:17532   */\n      revert\n        /* \"#utility.yul\":17474:17534   */\n    tag_575:\n        /* \"#utility.yul\":17424:17540   */\n      pop\n      jump\t// out\n        /* \"#utility.yul\":17546:17683   */\n    tag_358:\n        /* \"#utility.yul\":17600:17605   */\n      0x00\n        /* \"#utility.yul\":17631:17637   */\n      dup2\n        /* \"#utility.yul\":17625:17638   */\n      mload\n        /* \"#utility.yul\":17616:17638   */\n      swap1\n      pop\n        /* \"#utility.yul\":17647:17677   */\n      tag_577\n        /* \"#utility.yul\":17671:17676   */\n      dup2\n        /* \"#utility.yul\":17647:17677   */\n      tag_357\n      jump\t// in\n    tag_577:\n        /* \"#utility.yul\":17546:17683   */\n      swap3\n      swap2\n      pop\n      pop\n      jump\t// out\n        /* \"#utility.yul\":17689:18034   */\n    tag_171:\n        /* \"#utility.yul\":17756:17762   */\n      0x00\n        /* \"#utility.yul\":17805:17807   */\n      0x20\n        /* \"#utility.yul\":17793:17802   */\n      dup3\n        /* \"#utility.yul\":17784:17791   */\n      dup5\n        /* \"#utility.yul\":17780:17803   */\n      sub\n        /* \"#utility.yul\":17776:17808   */\n      slt\n        /* \"#utility.yul\":17773:17892   */\n      iszero\n      tag_579\n      jumpi\n        /* \"#utility.yul\":17811:17890   */\n      tag_580\n      tag_318\n      jump\t// in\n    tag_580:\n        /* \"#utility.yul\":17773:17892   */\n    tag_579:\n        /* \"#utility.yul\":17931:17932   */\n      0x00\n        /* \"#utility.yul\":17956:18017   */\n      tag_581\n        /* \"#utility.yul\":18009:18016   */\n      dup5\n        /* \"#utility.yul\":18000:18006   */\n      dup3\n        /* \"#utility.yul\":17989:17998   */\n      dup6\n        /* \"#utility.yul\":17985:18007   */\n      add\n        /* \"#utility.yul\":17956:18017   */\n      tag_358\n      jump\t// in\n    tag_581:\n        /* \"#utility.yul\":17946:18017   */\n      swap2\n      pop\n        /* \"#utility.yul\":17902:18027   */\n      pop\n        /* \"#utility.yul\":17689:18034   */\n      swap3\n      swap2\n      pop\n      pop\n      jump\t// out\n        /* \"#utility.yul\":18040:18211   */\n    tag_359:\n        /* \"#utility.yul\":18180:18203   */\n      0x546f6b656e207472616e73666572206661696c65640000000000000000000000\n        /* \"#utility.yul\":18176:18177   */\n      0x00\n        /* \"#utility.yul\":18168:18174   */\n      dup3\n        /* \"#utility.yul\":18164:18178   */\n      add\n        /* \"#utility.yul\":18157:18204   */\n      mstore\n        /* \"#utility.yul\":18040:18211   */\n      pop\n      jump\t// out\n        /* \"#utility.yul\":18217:18583   */\n    tag_360:\n        /* \"#utility.yul\":18359:18362   */\n      0x00\n        /* \"#utility.yul\":18380:18447   */\n      tag_584\n        /* \"#utility.yul\":18444:18446   */\n      0x15\n        /* \"#utility.yul\":18439:18442   */\n      dup4\n        /* \"#utility.yul\":18380:18447   */\n      tag_351\n      jump\t// in\n    tag_584:\n        /* \"#utility.yul\":18373:18447   */\n      swap2\n      pop\n        /* \"#utility.yul\":18456:18549   */\n      tag_585\n        /* \"#utility.yul\":18545:18548   */\n      dup3\n        /* \"#utility.yul\":18456:18549   */\n      tag_359\n      jump\t// in\n    tag_585:\n        /* \"#utility.yul\":18574:18576   */\n      0x20\n        /* \"#utility.yul\":18569:18572   */\n      dup3\n        /* \"#utility.yul\":18565:18577   */\n      add\n        /* \"#utility.yul\":18558:18577   */\n      swap1\n      pop\n        /* \"#utility.yul\":18217:18583   */\n      swap2\n      swap1\n      pop\n      jump\t// out\n        /* \"#utility.yul\":18589:19008   */\n    tag_174:\n        /* \"#utility.yul\":18755:18759   */\n      0x00\n        /* \"#utility.yul\":18793:18795   */\n      0x20\n        /* \"#utility.yul\":18782:18791   */\n      dup3\n        /* \"#utility.yul\":18778:18796   */\n      add\n        /* \"#utility.yul\":18770:18796   */\n      swap1\n      pop\n        /* \"#utility.yul\":18842:18851   */\n      dup2\n        /* \"#utility.yul\":18836:18840   */\n      dup2\n        /* \"#utility.yul\":18832:18852   */\n      sub\n        /* \"#utility.yul\":18828:18829   */\n      0x00\n        /* \"#utility.yul\":18817:18826   */\n      dup4\n        /* \"#utility.yul\":18813:18830   */\n      add\n        /* \"#utility.yul\":18806:18853   */\n      mstore\n        /* \"#utility.yul\":18870:19001   */\n      tag_587\n        /* \"#utility.yul\":18996:19000   */\n      dup2\n        /* \"#utility.yul\":18870:19001   */\n      tag_360\n      jump\t// in\n    tag_587:\n        /* \"#utility.yul\":18862:19001   */\n      swap1\n      pop\n        /* \"#utility.yul\":18589:19008   */\n      swap2\n      swap1\n      pop\n      jump\t// out\n        /* \"#utility.yul\":19014:19198   */\n    tag_361:\n        /* \"#utility.yul\":19113:19124   */\n      0x00\n        /* \"#utility.yul\":19147:19153   */\n      dup3\n        /* \"#utility.yul\":19142:19145   */\n      dup3\n        /* \"#utility.yul\":19135:19154   */\n      mstore\n        /* \"#utility.yul\":19187:19191   */\n      0x20\n        /* \"#utility.yul\":19182:19185   */\n      dup3\n        /* \"#utility.yul\":19178:19192   */\n      add\n        /* \"#utility.yul\":19163:19192   */\n      swap1\n      pop\n        /* \"#utility.yul\":19014:19198   */\n      swap3\n      swap2\n      pop\n      pop\n      jump\t// out\n        /* \"#utility.yul\":19204:19306   */\n    tag_362:\n        /* \"#utility.yul\":19273:19277   */\n      0x00\n        /* \"#utility.yul\":19296:19299   */\n      dup2\n        /* \"#utility.yul\":19288:19299   */\n      swap1\n      pop\n        /* \"#utility.yul\":19204:19306   */\n      swap2\n      swap1\n      pop\n      jump\t// out\n        /* \"#utility.yul\":19312:19420   */\n    tag_363:\n        /* \"#utility.yul\":19389:19413   */\n      tag_591\n        /* \"#utility.yul\":19407:19412   */\n      dup2\n        /* \"#utility.yul\":19389:19413   */\n      tag_339\n      jump\t// in\n    tag_591:\n        /* \"#utility.yul\":19384:19387   */\n      dup3\n        /* \"#utility.yul\":19377:19414   */\n      mstore\n        /* \"#utility.yul\":19312:19420   */\n      pop\n      pop\n      jump\t// out\n        /* \"#utility.yul\":19426:19605   */\n    tag_364:\n        /* \"#utility.yul\":19495:19505   */\n      0x00\n        /* \"#utility.yul\":19516:19562   */\n      tag_593\n        /* \"#utility.yul\":19558:19561   */\n      dup4\n        /* \"#utility.yul\":19550:19556   */\n      dup4\n        /* \"#utility.yul\":19516:19562   */\n      tag_363\n      jump\t// in\n    tag_593:\n        /* \"#utility.yul\":19594:19598   */\n      0x20\n        /* \"#utility.yul\":19589:19592   */\n      dup4\n        /* \"#utility.yul\":19585:19599   */\n      add\n        /* \"#utility.yul\":19571:19599   */\n      swap1\n      pop\n        /* \"#utility.yul\":19426:19605   */\n      swap3\n      swap2\n      pop\n      pop\n      jump\t// out\n        /* \"#utility.yul\":19611:19733   */\n    tag_365:\n        /* \"#utility.yul\":19663:19668   */\n      0x00\n        /* \"#utility.yul\":19688:19727   */\n      tag_595\n        /* \"#utility.yul\":19723:19725   */\n      0x20\n        /* \"#utility.yul\":19718:19721   */\n      dup5\n        /* \"#utility.yul\":19714:19726   */\n      add\n        /* \"#utility.yul\":19709:19712   */\n      dup5\n        /* \"#utility.yul\":19688:19727   */\n      tag_341\n      jump\t// in\n    tag_595:\n        /* \"#utility.yul\":19679:19727   */\n      swap1\n      pop\n        /* \"#utility.yul\":19611:19733   */\n      swap3\n      swap2\n      pop\n      pop\n      jump\t// out\n        /* \"#utility.yul\":19739:19854   */\n    tag_366:\n        /* \"#utility.yul\":19811:19815   */\n      0x00\n        /* \"#utility.yul\":19843:19847   */\n      0x20\n        /* \"#utility.yul\":19838:19841   */\n      dup3\n        /* \"#utility.yul\":19834:19848   */\n      add\n        /* \"#utility.yul\":19826:19848   */\n      swap1\n      pop\n        /* \"#utility.yul\":19739:19854   */\n      swap2\n      swap1\n      pop\n      jump\t// out\n        /* \"#utility.yul\":19890:20589   */\n    tag_367:\n        /* \"#utility.yul\":20019:20022   */\n      0x00\n        /* \"#utility.yul\":20042:20128   */\n      tag_598\n        /* \"#utility.yul\":20121:20127   */\n      dup4\n        /* \"#utility.yul\":20116:20119   */\n      dup6\n        /* \"#utility.yul\":20042:20128   */\n      tag_361\n      jump\t// in\n    tag_598:\n        /* \"#utility.yul\":20035:20128   */\n      swap4\n      pop\n        /* \"#utility.yul\":20152:20210   */\n      tag_599\n        /* \"#utility.yul\":20204:20209   */\n      dup3\n        /* \"#utility.yul\":20152:20210   */\n      tag_362\n      jump\t// in\n    tag_599:\n        /* \"#utility.yul\":20233:20240   */\n      dup1\n        /* \"#utility.yul\":20264:20265   */\n      0x00\n        /* \"#utility.yul\":20249:20564   */\n    tag_600:\n        /* \"#utility.yul\":20274:20280   */\n      dup6\n        /* \"#utility.yul\":20271:20272   */\n      dup2\n        /* \"#utility.yul\":20268:20281   */\n      lt\n        /* \"#utility.yul\":20249:20564   */\n      iszero\n      tag_602\n      jumpi\n        /* \"#utility.yul\":20344:20386   */\n      tag_603\n        /* \"#utility.yul\":20379:20385   */\n      dup3\n        /* \"#utility.yul\":20370:20377   */\n      dup5\n        /* \"#utility.yul\":20344:20386   */\n      tag_365\n      jump\t// in\n    tag_603:\n        /* \"#utility.yul\":20406:20469   */\n      tag_604\n        /* \"#utility.yul\":20465:20468   */\n      dup9\n        /* \"#utility.yul\":20450:20463   */\n      dup3\n        /* \"#utility.yul\":20406:20469   */\n      tag_364\n      jump\t// in\n    tag_604:\n        /* \"#utility.yul\":20399:20469   */\n      swap8\n      pop\n        /* \"#utility.yul\":20492:20554   */\n      tag_605\n        /* \"#utility.yul\":20547:20553   */\n      dup4\n        /* \"#utility.yul\":20492:20554   */\n      tag_366\n      jump\t// in\n    tag_605:\n        /* \"#utility.yul\":20482:20554   */\n      swap3\n      pop\n        /* \"#utility.yul\":20309:20564   */\n      pop\n        /* \"#utility.yul\":20296:20297   */\n      0x01\n        /* \"#utility.yul\":20293:20294   */\n      dup2\n        /* \"#utility.yul\":20289:20298   */\n      add\n        /* \"#utility.yul\":20284:20298   */\n      swap1\n      pop\n        /* \"#utility.yul\":20249:20564   */\n      jump(tag_600)\n    tag_602:\n        /* \"#utility.yul\":20253:20267   */\n      pop\n        /* \"#utility.yul\":20580:20583   */\n      dup6\n        /* \"#utility.yul\":20573:20583   */\n      swap3\n      pop\n        /* \"#utility.yul\":20024:20589   */\n      pop\n      pop\n        /* \"#utility.yul\":19890:20589   */\n      swap4\n      swap3\n      pop\n      pop\n      pop\n      jump\t// out\n        /* \"#utility.yul\":20595:20779   */\n    tag_368:\n        /* \"#utility.yul\":20694:20705   */\n      0x00\n        /* \"#utility.yul\":20728:20734   */\n      dup3\n        /* \"#utility.yul\":20723:20726   */\n      dup3\n        /* \"#utility.yul\":20716:20735   */\n      mstore\n        /* \"#utility.yul\":20768:20772   */\n      0x20\n        /* \"#utility.yul\":20763:20766   */\n      dup3\n        /* \"#utility.yul\":20759:20773   */\n      add\n        /* \"#utility.yul\":20744:20773   */\n      swap1\n      pop\n        /* \"#utility.yul\":20595:20779   */\n      swap3\n      swap2\n      pop\n      pop\n      jump\t// out\n        /* \"#utility.yul\":20785:20902   */\n    tag_369:\n        /* \"#utility.yul\":20894:20895   */\n      0x00\n        /* \"#utility.yul\":20891:20892   */\n      dup1\n        /* \"#utility.yul\":20884:20896   */\n      revert\n        /* \"#utility.yul\":20908:21007   */\n    tag_370:\n        /* \"#utility.yul\":20993:20999   */\n      dup3\n        /* \"#utility.yul\":20988:20991   */\n      dup2\n        /* \"#utility.yul\":20983:20986   */\n      dup4\n        /* \"#utility.yul\":20970:21000   */\n      calldatacopy\n        /* \"#utility.yul\":20908:21007   */\n      pop\n      pop\n      pop\n      jump\t// out\n        /* \"#utility.yul\":21043:21580   */\n    tag_371:\n        /* \"#utility.yul\":21171:21174   */\n      0x00\n        /* \"#utility.yul\":21192:21278   */\n      tag_610\n        /* \"#utility.yul\":21271:21277   */\n      dup4\n        /* \"#utility.yul\":21266:21269   */\n      dup6\n        /* \"#utility.yul\":21192:21278   */\n      tag_368\n      jump\t// in\n    tag_610:\n        /* \"#utility.yul\":21185:21278   */\n      swap4\n      pop\n        /* \"#utility.yul\":21302:21368   */\n      0x07ffffffffffffffffffffffffffffffffffffffffffffffffffffffffffffff\n        /* \"#utility.yul\":21294:21300   */\n      dup4\n        /* \"#utility.yul\":21291:21369   */\n      gt\n        /* \"#utility.yul\":21288:21453   */\n      iszero\n      tag_611\n      jumpi\n        /* \"#utility.yul\":21372:21451   */\n      tag_612\n      tag_369\n      jump\t// in\n    tag_612:\n        /* \"#utility.yul\":21288:21453   */\n    tag_611:\n        /* \"#utility.yul\":21484:21488   */\n      0x20\n        /* \"#utility.yul\":21476:21482   */\n      dup4\n        /* \"#utility.yul\":21472:21489   */\n      mul\n        /* \"#utility.yul\":21462:21489   */\n      swap3\n      pop\n        /* \"#utility.yul\":21499:21542   */\n      tag_613\n        /* \"#utility.yul\":21535:21541   */\n      dup4\n        /* \"#utility.yul\":21530:21533   */\n      dup6\n        /* \"#utility.yul\":21523:21528   */\n      dup5\n        /* \"#utility.yul\":21499:21542   */\n      tag_370\n      jump\t// in\n    tag_613:\n        /* \"#utility.yul\":21567:21573   */\n      dup3\n        /* \"#utility.yul\":21562:21565   */\n      dup5\n        /* \"#utility.yul\":21558:21574   */\n      add\n        /* \"#utility.yul\":21551:21574   */\n      swap1\n      pop\n        /* \"#utility.yul\":21043:21580   */\n      swap4\n      swap3\n      pop\n      pop\n      pop\n      jump\t// out\n        /* \"#utility.yul\":21586:22260   */\n    tag_176:\n        /* \"#utility.yul\":21827:21831   */\n      0x00\n        /* \"#utility.yul\":21865:21867   */\n      0x40\n        /* \"#utility.yul\":21854:21863   */\n      dup3\n        /* \"#utility.yul\":21850:21868   */\n      add\n        /* \"#utility.yul\":21842:21868   */\n      swap1\n      pop\n        /* \"#utility.yul\":21914:21923   */\n      dup2\n        /* \"#utility.yul\":21908:21912   */\n      dup2\n        /* \"#utility.yul\":21904:21924   */\n      sub\n        /* \"#utility.yul\":21900:21901   */\n      0x00\n        /* \"#utility.yul\":21889:21898   */\n      dup4\n        /* \"#utility.yul\":21885:21902   */\n      add\n        /* \"#utility.yul\":21878:21925   */\n      mstore\n        /* \"#utility.yul\":21942:22060   */\n      tag_615\n        /* \"#utility.yul\":22055:22059   */\n      dup2\n        /* \"#utility.yul\":22046:22052   */\n      dup7\n        /* \"#utility.yul\":22038:22044   */\n      dup9\n        /* \"#utility.yul\":21942:22060   */\n      tag_367\n      jump\t// in\n    tag_615:\n        /* \"#utility.yul\":21934:22060   */\n      swap1\n      pop\n        /* \"#utility.yul\":22107:22116   */\n      dup2\n        /* \"#utility.yul\":22101:22105   */\n      dup2\n        /* \"#utility.yul\":22097:22117   */\n      sub\n        /* \"#utility.yul\":22092:22094   */\n      0x20\n        /* \"#utility.yul\":22081:22090   */\n      dup4\n        /* \"#utility.yul\":22077:22095   */\n      add\n        /* \"#utility.yul\":22070:22118   */\n      mstore\n        /* \"#utility.yul\":22135:22253   */\n      tag_616\n        /* \"#utility.yul\":22248:22252   */\n      dup2\n        /* \"#utility.yul\":22239:22245   */\n      dup5\n        /* \"#utility.yul\":22231:22237   */\n      dup7\n        /* \"#utility.yul\":22135:22253   */\n      tag_371\n      jump\t// in\n    tag_616:\n        /* \"#utility.yul\":22127:22253   */\n      swap1\n      pop\n        /* \"#utility.yul\":21586:22260   */\n      swap6\n      swap5\n      pop\n      pop\n      pop\n      pop\n      pop\n      jump\t// out\n        /* \"#utility.yul\":22266:22437   */\n    tag_372:\n        /* \"#utility.yul\":22406:22429   */\n      0x4d656d62657220646f6573206e6f742065786973740000000000000000000000\n        /* \"#utility.yul\":22402:22403   */\n      0x00\n        /* \"#utility.yul\":22394:22400   */\n      dup3\n        /* \"#utility.yul\":22390:22404   */\n      add\n        /* \"#utility.yul\":22383:22430   */\n      mstore\n        /* \"#utility.yul\":22266:22437   */\n      pop\n      jump\t// out\n        /* \"#utility.yul\":22443:22809   */\n    tag_373:\n        /* \"#utility.yul\":22585:22588   */\n      0x00\n        /* \"#utility.yul\":22606:22673   */\n      tag_619\n        /* \"#utility.yul\":22670:22672   */\n      0x15\n        /* \"#utility.yul\":22665:22668   */\n      dup4\n        /* \"#utility.yul\":22606:22673   */\n      tag_351\n      jump\t// in\n    tag_619:\n        /* \"#utility.yul\":22599:22673   */\n      swap2\n      pop\n        /* \"#utility.yul\":22682:22775   */\n      tag_620\n        /* \"#utility.yul\":22771:22774   */\n      dup3\n        /* \"#utility.yul\":22682:22775   */\n      tag_372\n      jump\t// in\n    tag_620:\n        /* \"#utility.yul\":22800:22802   */\n      0x20\n        /* \"#utility.yul\":22795:22798   */\n      dup3\n        /* \"#utility.yul\":22791:22803   */\n      add\n        /* \"#utility.yul\":22784:22803   */\n      swap1\n      pop\n        /* \"#utility.yul\":22443:22809   */\n      swap2\n      swap1\n      pop\n      jump\t// out\n        /* \"#utility.yul\":22815:23234   */\n    tag_194:\n        /* \"#utility.yul\":22981:22985   */\n      0x00\n        /* \"#utility.yul\":23019:23021   */\n      0x20\n        /* \"#utility.yul\":23008:23017   */\n      dup3\n        /* \"#utility.yul\":23004:23022   */\n      add\n        /* \"#utility.yul\":22996:23022   */\n      swap1\n      pop\n        /* \"#utility.yul\":23068:23077   */\n      dup2\n        /* \"#utility.yul\":23062:23066   */\n      dup2\n        /* \"#utility.yul\":23058:23078   */\n      sub\n        /* \"#utility.yul\":23054:23055   */\n      0x00\n        /* \"#utility.yul\":23043:23052   */\n      dup4\n        /* \"#utility.yul\":23039:23056   */\n      add\n        /* \"#utility.yul\":23032:23079   */\n      mstore\n        /* \"#utility.yul\":23096:23227   */\n      tag_622\n        /* \"#utility.yul\":23222:23226   */\n      dup2\n        /* \"#utility.yul\":23096:23227   */\n      tag_373\n      jump\t// in\n    tag_622:\n        /* \"#utility.yul\":23088:23227   */\n      swap1\n      pop\n        /* \"#utility.yul\":22815:23234   */\n      swap2\n      swap1\n      pop\n      jump\t// out\n        /* \"#utility.yul\":23240:23415   */\n    tag_374:\n        /* \"#utility.yul\":23380:23407   */\n      0x4d656d62657220616c7265616479207265676973746572656400000000000000\n        /* \"#utility.yul\":23376:23377   */\n      0x00\n        /* \"#utility.yul\":23368:23374   */\n      dup3\n        /* \"#utility.yul\":23364:23378   */\n      add\n        /* \"#utility.yul\":23357:23408   */\n      mstore\n        /* \"#utility.yul\":23240:23415   */\n      pop\n      jump\t// out\n        /* \"#utility.yul\":23421:23787   */\n    tag_375:\n        /* \"#utility.yul\":23563:23566   */\n      0x00\n        /* \"#utility.yul\":23584:23651   */\n      tag_625\n        /* \"#utility.yul\":23648:23650   */\n      0x19\n        /* \"#utility.yul\":23643:23646   */\n      dup4\n        /* \"#utility.yul\":23584:23651   */\n      tag_351\n      jump\t// in\n    tag_625:\n        /* \"#utility.yul\":23577:23651   */\n      swap2\n      pop\n        /* \"#utility.yul\":23660:23753   */\n      tag_626\n        /* \"#utility.yul\":23749:23752   */\n      dup3\n        /* \"#utility.yul\":23660:23753   */\n      tag_374\n      jump\t// in\n    tag_626:\n        /* \"#utility.yul\":23778:23780   */\n      0x20\n        /* \"#utility.yul\":23773:23776   */\n      dup3\n        /* \"#utility.yul\":23769:23781   */\n      add\n        /* \"#utility.yul\":23762:23781   */\n      swap1\n      pop\n        /* \"#utility.yul\":23421:23787   */\n      swap2\n      swap1\n      pop\n      jump\t// out\n        /* \"#utility.yul\":23793:24212   */\n    tag_200:\n        /* \"#utility.yul\":23959:23963   */\n      0x00\n        /* \"#utility.yul\":23997:23999   */\n      0x20\n        /* \"#utility.yul\":23986:23995   */\n      dup3\n        /* \"#utility.yul\":23982:24000   */\n      add\n        /* \"#utility.yul\":23974:24000   */\n      swap1\n      pop\n        /* \"#utility.yul\":24046:24055   */\n      dup2\n        /* \"#utility.yul\":24040:24044   */\n      dup2\n        /* \"#utility.yul\":24036:24056   */\n      sub\n        /* \"#utility.yul\":24032:24033   */\n      0x00\n        /* \"#utility.yul\":24021:24030   */\n      dup4\n        /* \"#utility.yul\":24017:24034   */\n      add\n        /* \"#utility.yul\":24010:24057   */\n      mstore\n        /* \"#utility.yul\":24074:24205   */\n      tag_628\n        /* \"#utility.yul\":24200:24204   */\n      dup2\n        /* \"#utility.yul\":24074:24205   */\n      tag_375\n      jump\t// in\n    tag_628:\n        /* \"#utility.yul\":24066:24205   */\n      swap1\n      pop\n        /* \"#utility.yul\":23793:24212   */\n      swap2\n      swap1\n      pop\n      jump\t// out\n        /* \"#utility.yul\":24218:24550   */\n    tag_207:\n        /* \"#utility.yul\":24339:24343   */\n      0x00\n        /* \"#utility.yul\":24377:24379   */\n      0x40\n        /* \"#utility.yul\":24366:24375   */\n      dup3\n        /* \"#utility.yul\":24362:24380   */\n      add\n        /* \"#utility.yul\":24354:24380   */\n      swap1\n      pop\n        /* \"#utility.yul\":24390:24461   */\n      tag_630\n        /* \"#utility.yul\":24458:24459   */\n      0x00\n        /* \"#utility.yul\":24447:24456   */\n      dup4\n        /* \"#utility.yul\":24443:24460   */\n      add\n        /* \"#utility.yul\":24434:24440   */\n      dup6\n        /* \"#utility.yul\":24390:24461   */\n      tag_334\n      jump\t// in\n    tag_630:\n        /* \"#utility.yul\":24471:24543   */\n      tag_631\n        /* \"#utility.yul\":24539:24541   */\n      0x20\n        /* \"#utility.yul\":24528:24537   */\n      dup4\n        /* \"#utility.yul\":24524:24542   */\n      add\n        /* \"#utility.yul\":24515:24521   */\n      dup5\n        /* \"#utility.yul\":24471:24543   */\n      tag_334\n      jump\t// in\n    tag_631:\n        /* \"#utility.yul\":24218:24550   */\n      swap4\n      swap3\n      pop\n      pop\n      pop\n      jump\t// out\n        /* \"#utility.yul\":24556:24736   */\n    tag_376:\n        /* \"#utility.yul\":24696:24728   */\n      0x4368616c6c656e67652073636f726520646f6573206e6f742065786973740000\n        /* \"#utility.yul\":24692:24693   */\n      0x00\n        /* \"#utility.yul\":24684:24690   */\n      dup3\n        /* \"#utility.yul\":24680:24694   */\n      add\n        /* \"#utility.yul\":24673:24729   */\n      mstore\n        /* \"#utility.yul\":24556:24736   */\n      pop\n      jump\t// out\n        /* \"#utility.yul\":24742:25108   */\n    tag_377:\n        /* \"#utility.yul\":24884:24887   */\n      0x00\n        /* \"#utility.yul\":24905:24972   */\n      tag_634\n        /* \"#utility.yul\":24969:24971   */\n      0x1e\n        /* \"#utility.yul\":24964:24967   */\n      dup4\n        /* \"#utility.yul\":24905:24972   */\n      tag_351\n      jump\t// in\n    tag_634:\n        /* \"#utility.yul\":24898:24972   */\n      swap2\n      pop\n        /* \"#utility.yul\":24981:25074   */\n      tag_635\n        /* \"#utility.yul\":25070:25073   */\n      dup3\n        /* \"#utility.yul\":24981:25074   */\n      tag_376\n      jump\t// in\n    tag_635:\n        /* \"#utility.yul\":25099:25101   */\n      0x20\n        /* \"#utility.yul\":25094:25097   */\n      dup3\n        /* \"#utility.yul\":25090:25102   */\n      add\n        /* \"#utility.yul\":25083:25102   */\n      swap1\n      pop\n        /* \"#utility.yul\":24742:25108   */\n      swap2\n      swap1\n      pop\n      jump\t// out\n        /* \"#utility.yul\":25114:25533   */\n    tag_213:\n        /* \"#utility.yul\":25280:25284   */\n      0x00\n        /* \"#utility.yul\":25318:25320   */\n      0x20\n        /* \"#utility.yul\":25307:25316   */\n      dup3\n        /* \"#utility.yul\":25303:25321   */\n      add\n        /* \"#utility.yul\":25295:25321   */\n      swap1\n      pop\n        /* \"#utility.yul\":25367:25376   */\n      dup2\n        /* \"#utility.yul\":25361:25365   */\n      dup2\n        /* \"#utility.yul\":25357:25377   */\n      sub\n        /* \"#utility.yul\":25353:25354   */\n      0x00\n        /* \"#utility.yul\":25342:25351   */\n      dup4\n        /* \"#utility.yul\":25338:25355   */\n      add\n        /* \"#utility.yul\":25331:25378   */\n      mstore\n        /* \"#utility.yul\":25395:25526   */\n      tag_637\n        /* \"#utility.yul\":25521:25525   */\n      dup2\n        /* \"#utility.yul\":25395:25526   */\n      tag_377\n      jump\t// in\n    tag_637:\n        /* \"#utility.yul\":25387:25526   */\n      swap1\n      pop\n        /* \"#utility.yul\":25114:25533   */\n      swap2\n      swap1\n      pop\n      jump\t// out\n        /* \"#utility.yul\":25539:25782   */\n    tag_378:\n        /* \"#utility.yul\":25679:25713   */\n      0x4368616c6c656e676520616c72656164792065786973747320666f7220746869\n        /* \"#utility.yul\":25675:25676   */\n      0x00\n        /* \"#utility.yul\":25667:25673   */\n      dup3\n        /* \"#utility.yul\":25663:25677   */\n      add\n        /* \"#utility.yul\":25656:25714   */\n      mstore\n        /* \"#utility.yul\":25748:25774   */\n      0x73206d656d6265722c20646174652c20616e642067616d650000000000000000\n        /* \"#utility.yul\":25743:25745   */\n      0x20\n        /* \"#utility.yul\":25735:25741   */\n      dup3\n        /* \"#utility.yul\":25731:25746   */\n      add\n        /* \"#utility.yul\":25724:25775   */\n      mstore\n        /* \"#utility.yul\":25539:25782   */\n      pop\n      jump\t// out\n        /* \"#utility.yul\":25788:26154   */\n    tag_379:\n        /* \"#utility.yul\":25930:25933   */\n      0x00\n        /* \"#utility.yul\":25951:26018   */\n      tag_640\n        /* \"#utility.yul\":26015:26017   */\n      0x38\n        /* \"#utility.yul\":26010:26013   */\n      dup4\n        /* \"#utility.yul\":25951:26018   */\n      tag_351\n      jump\t// in\n    tag_640:\n        /* \"#utility.yul\":25944:26018   */\n      swap2\n      pop\n        /* \"#utility.yul\":26027:26120   */\n      tag_641\n        /* \"#utility.yul\":26116:26119   */\n      dup3\n        /* \"#utility.yul\":26027:26120   */\n      tag_378\n      jump\t// in\n    tag_641:\n        /* \"#utility.yul\":26145:26147   */\n      0x40\n        /* \"#utility.yul\":26140:26143   */\n      dup3\n        /* \"#utility.yul\":26136:26148   */\n      add\n        /* \"#utility.yul\":26129:26148   */\n      swap1\n      pop\n        /* \"#utility.yul\":25788:26154   */\n      swap2\n      swap1\n      pop\n      jump\t// out\n        /* \"#utility.yul\":26160:26579   */\n    tag_221:\n        /* \"#utility.yul\":26326:26330   */\n      0x00\n        /* \"#utility.yul\":26364:26366   */\n      0x20\n        /* \"#utility.yul\":26353:26362   */\n      dup3\n        /* \"#utility.yul\":26349:26367   */\n      add\n        /* \"#utility.yul\":26341:26367   */\n      swap1\n      pop\n        /* \"#utility.yul\":26413:26422   */\n      dup2\n        /* \"#utility.yul\":26407:26411   */\n      dup2\n        /* \"#utility.yul\":26403:26423   */\n      sub\n        /* \"#utility.yul\":26399:26400   */\n      0x00\n        /* \"#utility.yul\":26388:26397   */\n      dup4\n        /* \"#utility.yul\":26384:26401   */\n      add\n        /* \"#utility.yul\":26377:26424   */\n      mstore\n        /* \"#utility.yul\":26441:26572   */\n      tag_643\n        /* \"#utility.yul\":26567:26571   */\n      dup2\n        /* \"#utility.yul\":26441:26572   */\n      tag_379\n      jump\t// in\n    tag_643:\n        /* \"#utility.yul\":26433:26572   */\n      swap1\n      pop\n        /* \"#utility.yul\":26160:26579   */\n      swap2\n      swap1\n      pop\n      jump\t// out\n        /* \"#utility.yul\":26585:26917   */\n    tag_223:\n        /* \"#utility.yul\":26706:26710   */\n      0x00\n        /* \"#utility.yul\":26744:26746   */\n      0x40\n        /* \"#utility.yul\":26733:26742   */\n      dup3\n        /* \"#utility.yul\":26729:26747   */\n      add\n        /* \"#utility.yul\":26721:26747   */\n      swap1\n      pop\n        /* \"#utility.yul\":26757:26828   */\n      tag_645\n        /* \"#utility.yul\":26825:26826   */\n      0x00\n        /* \"#utility.yul\":26814:26823   */\n      dup4\n        /* \"#utility.yul\":26810:26827   */\n      add\n        /* \"#utility.yul\":26801:26807   */\n      dup6\n        /* \"#utility.yul\":26757:26828   */\n      tag_356\n      jump\t// in\n    tag_645:\n        /* \"#utility.yul\":26838:26910   */\n      tag_646\n        /* \"#utility.yul\":26906:26908   */\n      0x20\n        /* \"#utility.yul\":26895:26904   */\n      dup4\n        /* \"#utility.yul\":26891:26909   */\n      add\n        /* \"#utility.yul\":26882:26888   */\n      dup5\n        /* \"#utility.yul\":26838:26910   */\n      tag_356\n      jump\t// in\n    tag_646:\n        /* \"#utility.yul\":26585:26917   */\n      swap4\n      swap3\n      pop\n      pop\n      pop\n      jump\t// out\n        /* \"#utility.yul\":26923:27066   */\n    tag_380:\n        /* \"#utility.yul\":26980:26985   */\n      0x00\n        /* \"#utility.yul\":27011:27017   */\n      dup2\n        /* \"#utility.yul\":27005:27018   */\n      mload\n        /* \"#utility.yul\":26996:27018   */\n      swap1\n      pop\n        /* \"#utility.yul\":27027:27060   */\n      tag_648\n        /* \"#utility.yul\":27054:27059   */\n      dup2\n        /* \"#utility.yul\":27027:27060   */\n      tag_332\n      jump\t// in\n    tag_648:\n        /* \"#utility.yul\":26923:27066   */\n      swap3\n      swap2\n      pop\n      pop\n      jump\t// out\n        /* \"#utility.yul\":27072:27423   */\n    tag_227:\n        /* \"#utility.yul\":27142:27148   */\n      0x00\n        /* \"#utility.yul\":27191:27193   */\n      0x20\n        /* \"#utility.yul\":27179:27188   */\n      dup3\n        /* \"#utility.yul\":27170:27177   */\n      dup5\n        /* \"#utility.yul\":27166:27189   */\n      sub\n        /* \"#utility.yul\":27162:27194   */\n      slt\n        /* \"#utility.yul\":27159:27278   */\n      iszero\n      tag_650\n      jumpi\n        /* \"#utility.yul\":27197:27276   */\n      tag_651\n      tag_318\n      jump\t// in\n    tag_651:\n        /* \"#utility.yul\":27159:27278   */\n    tag_650:\n        /* \"#utility.yul\":27317:27318   */\n      0x00\n        /* \"#utility.yul\":27342:27406   */\n      tag_652\n        /* \"#utility.yul\":27398:27405   */\n      dup5\n        /* \"#utility.yul\":27389:27395   */\n      dup3\n        /* \"#utility.yul\":27378:27387   */\n      dup6\n        /* \"#utility.yul\":27374:27396   */\n      add\n        /* \"#utility.yul\":27342:27406   */\n      tag_380\n      jump\t// in\n    tag_652:\n        /* \"#utility.yul\":27332:27406   */\n      swap2\n      pop\n        /* \"#utility.yul\":27288:27416   */\n      pop\n        /* \"#utility.yul\":27072:27423   */\n      swap3\n      swap2\n      pop\n      pop\n      jump\t// out\n        /* \"#utility.yul\":27429:27607   */\n    tag_381:\n        /* \"#utility.yul\":27569:27599   */\n      0x496e73756666696369656e7420746f6b656e20616c6c6f77616e636500000000\n        /* \"#utility.yul\":27565:27566   */\n      0x00\n        /* \"#utility.yul\":27557:27563   */\n      dup3\n        /* \"#utility.yul\":27553:27567   */\n      add\n        /* \"#utility.yul\":27546:27600   */\n      mstore\n        /* \"#utility.yul\":27429:27607   */\n      pop\n      jump\t// out\n        /* \"#utility.yul\":27613:27979   */\n    tag_382:\n        /* \"#utility.yul\":27755:27758   */\n      0x00\n        /* \"#utility.yul\":27776:27843   */\n      tag_655\n        /* \"#utility.yul\":27840:27842   */\n      0x1c\n        /* \"#utility.yul\":27835:27838   */\n      dup4\n        /* \"#utility.yul\":27776:27843   */\n      tag_351\n      jump\t// in\n    tag_655:\n        /* \"#utility.yul\":27769:27843   */\n      swap2\n      pop\n        /* \"#utility.yul\":27852:27945   */\n      tag_656\n        /* \"#utility.yul\":27941:27944   */\n      dup3\n        /* \"#utility.yul\":27852:27945   */\n      tag_381\n      jump\t// in\n    tag_656:\n        /* \"#utility.yul\":27970:27972   */\n      0x20\n        /* \"#utility.yul\":27965:27968   */\n      dup3\n        /* \"#utility.yul\":27961:27973   */\n      add\n        /* \"#utility.yul\":27954:27973   */\n      swap1\n      pop\n        /* \"#utility.yul\":27613:27979   */\n      swap2\n      swap1\n      pop\n      jump\t// out\n        /* \"#utility.yul\":27985:28404   */\n    tag_230:\n        /* \"#utility.yul\":28151:28155   */\n      0x00\n        /* \"#utility.yul\":28189:28191   */\n      0x20\n        /* \"#utility.yul\":28178:28187   */\n      dup3\n        /* \"#utility.yul\":28174:28192   */\n      add\n        /* \"#utility.yul\":28166:28192   */\n      swap1\n      pop\n        /* \"#utility.yul\":28238:28247   */\n      dup2\n        /* \"#utility.yul\":28232:28236   */\n      dup2\n        /* \"#utility.yul\":28228:28248   */\n      sub\n        /* \"#utility.yul\":28224:28225   */\n      0x00\n        /* \"#utility.yul\":28213:28222   */\n      dup4\n        /* \"#utility.yul\":28209:28226   */\n      add\n        /* \"#utility.yul\":28202:28249   */\n      mstore\n        /* \"#utility.yul\":28266:28397   */\n      tag_658\n        /* \"#utility.yul\":28392:28396   */\n      dup2\n        /* \"#utility.yul\":28266:28397   */\n      tag_382\n      jump\t// in\n    tag_658:\n        /* \"#utility.yul\":28258:28397   */\n      swap1\n      pop\n        /* \"#utility.yul\":27985:28404   */\n      swap2\n      swap1\n      pop\n      jump\t// out\n        /* \"#utility.yul\":28410:28632   */\n    tag_232:\n        /* \"#utility.yul\":28503:28507   */\n      0x00\n        /* \"#utility.yul\":28541:28543   */\n      0x20\n        /* \"#utility.yul\":28530:28539   */\n      dup3\n        /* \"#utility.yul\":28526:28544   */\n      add\n        /* \"#utility.yul\":28518:28544   */\n      swap1\n      pop\n        /* \"#utility.yul\":28554:28625   */\n      tag_660\n        /* \"#utility.yul\":28622:28623   */\n      0x00\n        /* \"#utility.yul\":28611:28620   */\n      dup4\n        /* \"#utility.yul\":28607:28624   */\n      add\n        /* \"#utility.yul\":28598:28604   */\n      dup5\n        /* \"#utility.yul\":28554:28625   */\n      tag_356\n      jump\t// in\n    tag_660:\n        /* \"#utility.yul\":28410:28632   */\n      swap3\n      swap2\n      pop\n      pop\n      jump\t// out\n        /* \"#utility.yul\":28638:28814   */\n    tag_383:\n        /* \"#utility.yul\":28778:28806   */\n      0x496e73756666696369656e7420746f6b656e2062616c616e6365000000000000\n        /* \"#utility.yul\":28774:28775   */\n      0x00\n        /* \"#utility.yul\":28766:28772   */\n      dup3\n        /* \"#utility.yul\":28762:28776   */\n      add\n        /* \"#utility.yul\":28755:28807   */\n      mstore\n        /* \"#utility.yul\":28638:28814   */\n      pop\n      jump\t// out\n        /* \"#utility.yul\":28820:29186   */\n    tag_384:\n        /* \"#utility.yul\":28962:28965   */\n      0x00\n        /* \"#utility.yul\":28983:29050   */\n      tag_663\n        /* \"#utility.yul\":29047:29049   */\n      0x1a\n        /* \"#utility.yul\":29042:29045   */\n      dup4\n        /* \"#utility.yul\":28983:29050   */\n      tag_351\n      jump\t// in\n    tag_663:\n        /* \"#utility.yul\":28976:29050   */\n      swap2\n      pop\n        /* \"#utility.yul\":29059:29152   */\n      tag_664\n        /* \"#utility.yul\":29148:29151   */\n      dup3\n        /* \"#utility.yul\":29059:29152   */\n      tag_383\n      jump\t// in\n    tag_664:\n        /* \"#utility.yul\":29177:29179   */\n      0x20\n        /* \"#utility.yul\":29172:29175   */\n      dup3\n        /* \"#utility.yul\":29168:29180   */\n      add\n        /* \"#utility.yul\":29161:29180   */\n      swap1\n      pop\n        /* \"#utility.yul\":28820:29186   */\n      swap2\n      swap1\n      pop\n      jump\t// out\n        /* \"#utility.yul\":29192:29611   */\n    tag_238:\n        /* \"#utility.yul\":29358:29362   */\n      0x00\n        /* \"#utility.yul\":29396:29398   */\n      0x20\n        /* \"#utility.yul\":29385:29394   */\n      dup3\n        /* \"#utility.yul\":29381:29399   */\n      add\n        /* \"#utility.yul\":29373:29399   */\n      swap1\n      pop\n        /* \"#utility.yul\":29445:29454   */\n      dup2\n        /* \"#utility.yul\":29439:29443   */\n      dup2\n        /* \"#utility.yul\":29435:29455   */\n      sub\n        /* \"#utility.yul\":29431:29432   */\n      0x00\n        /* \"#utility.yul\":29420:29429   */\n      dup4\n        /* \"#utility.yul\":29416:29433   */\n      add\n        /* \"#utility.yul\":29409:29456   */\n      mstore\n        /* \"#utility.yul\":29473:29604   */\n      tag_666\n        /* \"#utility.yul\":29599:29603   */\n      dup2\n        /* \"#utility.yul\":29473:29604   */\n      tag_384\n      jump\t// in\n    tag_666:\n        /* \"#utility.yul\":29465:29604   */\n      swap1\n      pop\n        /* \"#utility.yul\":29192:29611   */\n      swap2\n      swap1\n      pop\n      jump\t// out\n        /* \"#utility.yul\":29617:30059   */\n    tag_240:\n        /* \"#utility.yul\":29766:29770   */\n      0x00\n        /* \"#utility.yul\":29804:29806   */\n      0x60\n        /* \"#utility.yul\":29793:29802   */\n      dup3\n        /* \"#utility.yul\":29789:29807   */\n      add\n        /* \"#utility.yul\":29781:29807   */\n      swap1\n      pop\n        /* \"#utility.yul\":29817:29888   */\n      tag_668\n        /* \"#utility.yul\":29885:29886   */\n      0x00\n        /* \"#utility.yul\":29874:29883   */\n      dup4\n        /* \"#utility.yul\":29870:29887   */\n      add\n        /* \"#utility.yul\":29861:29867   */\n      dup7\n        /* \"#utility.yul\":29817:29888   */\n      tag_356\n      jump\t// in\n    tag_668:\n        /* \"#utility.yul\":29898:29970   */\n      tag_669\n        /* \"#utility.yul\":29966:29968   */\n      0x20\n        /* \"#utility.yul\":29955:29964   */\n      dup4\n        /* \"#utility.yul\":29951:29969   */\n      add\n        /* \"#utility.yul\":29942:29948   */\n      dup6\n        /* \"#utility.yul\":29898:29970   */\n      tag_356\n      jump\t// in\n    tag_669:\n        /* \"#utility.yul\":29980:30052   */\n      tag_670\n        /* \"#utility.yul\":30048:30050   */\n      0x40\n        /* \"#utility.yul\":30037:30046   */\n      dup4\n        /* \"#utility.yul\":30033:30051   */\n      add\n        /* \"#utility.yul\":30024:30030   */\n      dup5\n        /* \"#utility.yul\":29980:30052   */\n      tag_334\n      jump\t// in\n    tag_670:\n        /* \"#utility.yul\":29617:30059   */\n      swap5\n      swap4\n      pop\n      pop\n      pop\n      pop\n      jump\t// out\n        /* \"#utility.yul\":30065:30239   */\n    tag_385:\n        /* \"#utility.yul\":30205:30231   */\n      0x4368616c6c656e676520646f6573206e6f742065786973740000000000000000\n        /* \"#utility.yul\":30201:30202   */\n      0x00\n        /* \"#utility.yul\":30193:30199   */\n      dup3\n        /* \"#utility.yul\":30189:30203   */\n      add\n        /* \"#utility.yul\":30182:30232   */\n      mstore\n        /* \"#utility.yul\":30065:30239   */\n      pop\n      jump\t// out\n        /* \"#utility.yul\":30245:30611   */\n    tag_386:\n        /* \"#utility.yul\":30387:30390   */\n      0x00\n        /* \"#utility.yul\":30408:30475   */\n      tag_673\n        /* \"#utility.yul\":30472:30474   */\n      0x18\n        /* \"#utility.yul\":30467:30470   */\n      dup4\n        /* \"#utility.yul\":30408:30475   */\n      tag_351\n      jump\t// in\n    tag_673:\n        /* \"#utility.yul\":30401:30475   */\n      swap2\n      pop\n        /* \"#utility.yul\":30484:30577   */\n      tag_674\n        /* \"#utility.yul\":30573:30576   */\n      dup3\n        /* \"#utility.yul\":30484:30577   */\n      tag_385\n      jump\t// in\n    tag_674:\n        /* \"#utility.yul\":30602:30604   */\n      0x20\n        /* \"#utility.yul\":30597:30600   */\n      dup3\n        /* \"#utility.yul\":30593:30605   */\n      add\n        /* \"#utility.yul\":30586:30605   */\n      swap1\n      pop\n        /* \"#utility.yul\":30245:30611   */\n      swap2\n      swap1\n      pop\n      jump\t// out\n        /* \"#utility.yul\":30617:31036   */\n    tag_260:\n        /* \"#utility.yul\":30783:30787   */\n      0x00\n        /* \"#utility.yul\":30821:30823   */\n      0x20\n        /* \"#utility.yul\":30810:30819   */\n      dup3\n        /* \"#utility.yul\":30806:30824   */\n      add\n        /* \"#utility.yul\":30798:30824   */\n      swap1\n      pop\n        /* \"#utility.yul\":30870:30879   */\n      dup2\n        /* \"#utility.yul\":30864:30868   */\n      dup2\n        /* \"#utility.yul\":30860:30880   */\n      sub\n        /* \"#utility.yul\":30856:30857   */\n      0x00\n        /* \"#utility.yul\":30845:30854   */\n      dup4\n        /* \"#utility.yul\":30841:30858   */\n      add\n        /* \"#utility.yul\":30834:30881   */\n      mstore\n        /* \"#utility.yul\":30898:31029   */\n      tag_676\n        /* \"#utility.yul\":31024:31028   */\n      dup2\n        /* \"#utility.yul\":30898:31029   */\n      tag_386\n      jump\t// in\n    tag_676:\n        /* \"#utility.yul\":30890:31029   */\n      swap1\n      pop\n        /* \"#utility.yul\":30617:31036   */\n      swap2\n      swap1\n      pop\n      jump\t// out\n        /* \"#utility.yul\":31042:31190   */\n    tag_387:\n        /* \"#utility.yul\":31144:31155   */\n      0x00\n        /* \"#utility.yul\":31181:31184   */\n      dup2\n        /* \"#utility.yul\":31166:31184   */\n      swap1\n      pop\n        /* \"#utility.yul\":31042:31190   */\n      swap3\n      swap2\n      pop\n      pop\n      jump\t// out\n        /* \"#utility.yul\":31196:31369   */\n    tag_388:\n        /* \"#utility.yul\":31336:31361   */\n      0x416363657373436f6e74726f6c3a206163636f756e7420000000000000000000\n        /* \"#utility.yul\":31332:31333   */\n      0x00\n        /* \"#utility.yul\":31324:31330   */\n      dup3\n        /* \"#utility.yul\":31320:31334   */\n      add\n        /* \"#utility.yul\":31313:31362   */\n      mstore\n        /* \"#utility.yul\":31196:31369   */\n      pop\n      jump\t// out\n        /* \"#utility.yul\":31375:31777   */\n    tag_389:\n        /* \"#utility.yul\":31535:31538   */\n      0x00\n        /* \"#utility.yul\":31556:31641   */\n      tag_680\n        /* \"#utility.yul\":31638:31640   */\n      0x17\n        /* \"#utility.yul\":31633:31636   */\n      dup4\n        /* \"#utility.yul\":31556:31641   */\n      tag_387\n      jump\t// in\n    tag_680:\n        /* \"#utility.yul\":31549:31641   */\n      swap2\n      pop\n        /* \"#utility.yul\":31650:31743   */\n      tag_681\n        /* \"#utility.yul\":31739:31742   */\n      dup3\n        /* \"#utility.yul\":31650:31743   */\n      tag_388\n      jump\t// in\n    tag_681:\n        /* \"#utility.yul\":31768:31770   */\n      0x17\n        /* \"#utility.yul\":31763:31766   */\n      dup3\n        /* \"#utility.yul\":31759:31771   */\n      add\n        /* \"#utility.yul\":31752:31771   */\n      swap1\n      pop\n        /* \"#utility.yul\":31375:31777   */\n      swap2\n      swap1\n      pop\n      jump\t// out\n        /* \"#utility.yul\":31783:31882   */\n    tag_390:\n        /* \"#utility.yul\":31835:31841   */\n      0x00\n        /* \"#utility.yul\":31869:31874   */\n      dup2\n        /* \"#utility.yul\":31863:31875   */\n      mload\n        /* \"#utility.yul\":31853:31875   */\n      swap1\n      pop\n        /* \"#utility.yul\":31783:31882   */\n      swap2\n      swap1\n      pop\n      jump\t// out\n        /* \"#utility.yul\":31888:32027   */\n    tag_391:\n        /* \"#utility.yul\":31977:31983   */\n      dup3\n        /* \"#utility.yul\":31972:31975   */\n      dup2\n        /* \"#utility.yul\":31967:31970   */\n      dup4\n        /* \"#utility.yul\":31961:31984   */\n      mcopy\n        /* \"#utility.yul\":32018:32019   */\n      0x00\n        /* \"#utility.yul\":32009:32015   */\n      dup4\n        /* \"#utility.yul\":32004:32007   */\n      dup4\n        /* \"#utility.yul\":32000:32016   */\n      add\n        /* \"#utility.yul\":31993:32020   */\n      mstore\n        /* \"#utility.yul\":31888:32027   */\n      pop\n      pop\n      pop\n      jump\t// out\n        /* \"#utility.yul\":32033:32423   */\n    tag_392:\n        /* \"#utility.yul\":32139:32142   */\n      0x00\n        /* \"#utility.yul\":32167:32206   */\n      tag_685\n        /* \"#utility.yul\":32200:32205   */\n      dup3\n        /* \"#utility.yul\":32167:32206   */\n      tag_390\n      jump\t// in\n    tag_685:\n        /* \"#utility.yul\":32222:32311   */\n      tag_686\n        /* \"#utility.yul\":32304:32310   */\n      dup2\n        /* \"#utility.yul\":32299:32302   */\n      dup6\n        /* \"#utility.yul\":32222:32311   */\n      tag_387\n      jump\t// in\n    tag_686:\n        /* \"#utility.yul\":32215:32311   */\n      swap4\n      pop\n        /* \"#utility.yul\":32320:32385   */\n      tag_687\n        /* \"#utility.yul\":32378:32384   */\n      dup2\n        /* \"#utility.yul\":32373:32376   */\n      dup6\n        /* \"#utility.yul\":32366:32370   */\n      0x20\n        /* \"#utility.yul\":32359:32364   */\n      dup7\n        /* \"#utility.yul\":32355:32371   */\n      add\n        /* \"#utility.yul\":32320:32385   */\n      tag_391\n      jump\t// in\n    tag_687:\n        /* \"#utility.yul\":32410:32416   */\n      dup1\n        /* \"#utility.yul\":32405:32408   */\n      dup5\n        /* \"#utility.yul\":32401:32417   */\n      add\n        /* \"#utility.yul\":32394:32417   */\n      swap2\n      pop\n        /* \"#utility.yul\":32143:32423   */\n      pop\n        /* \"#utility.yul\":32033:32423   */\n      swap3\n      swap2\n      pop\n      pop\n      jump\t// out\n        /* \"#utility.yul\":32429:32596   */\n    tag_393:\n        /* \"#utility.yul\":32569:32588   */\n      0x206973206d697373696e6720726f6c6520000000000000000000000000000000\n        /* \"#utility.yul\":32565:32566   */\n      0x00\n        /* \"#utility.yul\":32557:32563   */\n      dup3\n        /* \"#utility.yul\":32553:32567   */\n      add\n        /* \"#utility.yul\":32546:32589   */\n      mstore\n        /* \"#utility.yul\":32429:32596   */\n      pop\n      jump\t// out\n        /* \"#utility.yul\":32602:33004   */\n    tag_394:\n        /* \"#utility.yul\":32762:32765   */\n      0x00\n        /* \"#utility.yul\":32783:32868   */\n      tag_690\n        /* \"#utility.yul\":32865:32867   */\n      0x11\n        /* \"#utility.yul\":32860:32863   */\n      dup4\n        /* \"#utility.yul\":32783:32868   */\n      tag_387\n      jump\t// in\n    tag_690:\n        /* \"#utility.yul\":32776:32868   */\n      swap2\n      pop\n        /* \"#utility.yul\":32877:32970   */\n      tag_691\n        /* \"#utility.yul\":32966:32969   */\n      dup3\n        /* \"#utility.yul\":32877:32970   */\n      tag_393\n      jump\t// in\n    tag_691:\n        /* \"#utility.yul\":32995:32997   */\n      0x11\n        /* \"#utility.yul\":32990:32993   */\n      dup3\n        /* \"#utility.yul\":32986:32998   */\n      add\n        /* \"#utility.yul\":32979:32998   */\n      swap1\n      pop\n        /* \"#utility.yul\":32602:33004   */\n      swap2\n      swap1\n      pop\n      jump\t// out\n        /* \"#utility.yul\":33010:33977   */\n    tag_285:\n        /* \"#utility.yul\":33392:33395   */\n      0x00\n        /* \"#utility.yul\":33414:33562   */\n      tag_693\n        /* \"#utility.yul\":33558:33561   */\n      dup3\n        /* \"#utility.yul\":33414:33562   */\n      tag_389\n      jump\t// in\n    tag_693:\n        /* \"#utility.yul\":33407:33562   */\n      swap2\n      pop\n        /* \"#utility.yul\":33579:33674   */\n      tag_694\n        /* \"#utility.yul\":33670:33673   */\n      dup3\n        /* \"#utility.yul\":33661:33667   */\n      dup6\n        /* \"#utility.yul\":33579:33674   */\n      tag_392\n      jump\t// in\n    tag_694:\n        /* \"#utility.yul\":33572:33674   */\n      swap2\n      pop\n        /* \"#utility.yul\":33691:33839   */\n      tag_695\n        /* \"#utility.yul\":33835:33838   */\n      dup3\n        /* \"#utility.yul\":33691:33839   */\n      tag_394\n      jump\t// in\n    tag_695:\n        /* \"#utility.yul\":33684:33839   */\n      swap2\n      pop\n        /* \"#utility.yul\":33856:33951   */\n      tag_696\n        /* \"#utility.yul\":33947:33950   */\n      dup3\n        /* \"#utility.yul\":33938:33944   */\n      dup5\n        /* \"#utility.yul\":33856:33951   */\n      tag_392\n      jump\t// in\n    tag_696:\n        /* \"#utility.yul\":33849:33951   */\n      swap2\n      pop\n        /* \"#utility.yul\":33968:33971   */\n      dup2\n        /* \"#utility.yul\":33961:33971   */\n      swap1\n      pop\n        /* \"#utility.yul\":33010:33977   */\n      swap4\n      swap3\n      pop\n      pop\n      pop\n      jump\t// out\n        /* \"#utility.yul\":33983:34085   */\n    tag_395:\n        /* \"#utility.yul\":34024:34030   */\n      0x00\n        /* \"#utility.yul\":34075:34077   */\n      0x1f\n        /* \"#utility.yul\":34071:34078   */\n      not\n        /* \"#utility.yul\":34066:34068   */\n      0x1f\n        /* \"#utility.yul\":34059:34064   */\n      dup4\n        /* \"#utility.yul\":34055:34069   */\n      add\n        /* \"#utility.yul\":34051:34079   */\n      and\n        /* \"#utility.yul\":34041:34079   */\n      swap1\n      pop\n        /* \"#utility.yul\":33983:34085   */\n      swap2\n      swap1\n      pop\n      jump\t// out\n        /* \"#utility.yul\":34091:34468   */\n    tag_396:\n        /* \"#utility.yul\":34179:34182   */\n      0x00\n        /* \"#utility.yul\":34207:34246   */\n      tag_699\n        /* \"#utility.yul\":34240:34245   */\n      dup3\n        /* \"#utility.yul\":34207:34246   */\n      tag_390\n      jump\t// in\n    tag_699:\n        /* \"#utility.yul\":34262:34333   */\n      tag_700\n        /* \"#utility.yul\":34326:34332   */\n      dup2\n        /* \"#utility.yul\":34321:34324   */\n      dup6\n        /* \"#utility.yul\":34262:34333   */\n      tag_351\n      jump\t// in\n    tag_700:\n        /* \"#utility.yul\":34255:34333   */\n      swap4\n      pop\n        /* \"#utility.yul\":34342:34407   */\n      tag_701\n        /* \"#utility.yul\":34400:34406   */\n      dup2\n        /* \"#utility.yul\":34395:34398   */\n      dup6\n        /* \"#utility.yul\":34388:34392   */\n      0x20\n        /* \"#utility.yul\":34381:34386   */\n      dup7\n        /* \"#utility.yul\":34377:34393   */\n      add\n        /* \"#utility.yul\":34342:34407   */\n      tag_391\n      jump\t// in\n    tag_701:\n        /* \"#utility.yul\":34432:34461   */\n      tag_702\n        /* \"#utility.yul\":34454:34460   */\n      dup2\n        /* \"#utility.yul\":34432:34461   */\n      tag_395\n      jump\t// in\n    tag_702:\n        /* \"#utility.yul\":34427:34430   */\n      dup5\n        /* \"#utility.yul\":34423:34462   */\n      add\n        /* \"#utility.yul\":34416:34462   */\n      swap2\n      pop\n        /* \"#utility.yul\":34183:34468   */\n      pop\n        /* \"#utility.yul\":34091:34468   */\n      swap3\n      swap2\n      pop\n      pop\n      jump\t// out\n        /* \"#utility.yul\":34474:34787   */\n    tag_287:\n        /* \"#utility.yul\":34587:34591   */\n      0x00\n        /* \"#utility.yul\":34625:34627   */\n      0x20\n        /* \"#utility.yul\":34614:34623   */\n      dup3\n        /* \"#utility.yul\":34610:34628   */\n      add\n        /* \"#utility.yul\":34602:34628   */\n      swap1\n      pop\n        /* \"#utility.yul\":34674:34683   */\n      dup2\n        /* \"#utility.yul\":34668:34672   */\n      dup2\n        /* \"#utility.yul\":34664:34684   */\n      sub\n        /* \"#utility.yul\":34660:34661   */\n      0x00\n        /* \"#utility.yul\":34649:34658   */\n      dup4\n        /* \"#utility.yul\":34645:34662   */\n      add\n        /* \"#utility.yul\":34638:34685   */\n      mstore\n        /* \"#utility.yul\":34702:34780   */\n      tag_704\n        /* \"#utility.yul\":34775:34779   */\n      dup2\n        /* \"#utility.yul\":34766:34772   */\n      dup5\n        /* \"#utility.yul\":34702:34780   */\n      tag_396\n      jump\t// in\n    tag_704:\n        /* \"#utility.yul\":34694:34780   */\n      swap1\n      pop\n        /* \"#utility.yul\":34474:34787   */\n      swap3\n      swap2\n      pop\n      pop\n      jump\t// out\n        /* \"#utility.yul\":34793:34973   */\n    tag_397:\n        /* \"#utility.yul\":34841:34918   */\n      0x4e487b7100000000000000000000000000000000000000000000000000000000\n        /* \"#utility.yul\":34838:34839   */\n      0x00\n        /* \"#utility.yul\":34831:34919   */\n      mstore\n        /* \"#utility.yul\":34938:34942   */\n      0x11\n        /* \"#utility.yul\":34935:34936   */\n      0x04\n        /* \"#utility.yul\":34928:34943   */\n      mstore\n        /* \"#utility.yul\":34962:34966   */\n      0x24\n        /* \"#utility.yul\":34959:34960   */\n      0x00\n        /* \"#utility.yul\":34952:34967   */\n      revert\n        /* \"#utility.yul\":34979:35389   */\n    tag_292:\n        /* \"#utility.yul\":35019:35026   */\n      0x00\n        /* \"#utility.yul\":35042:35062   */\n      tag_707\n        /* \"#utility.yul\":35060:35061   */\n      dup3\n        /* \"#utility.yul\":35042:35062   */\n      tag_331\n      jump\t// in\n    tag_707:\n        /* \"#utility.yul\":35037:35062   */\n      swap2\n      pop\n        /* \"#utility.yul\":35076:35096   */\n      tag_708\n        /* \"#utility.yul\":35094:35095   */\n      dup4\n        /* \"#utility.yul\":35076:35096   */\n      tag_331\n      jump\t// in\n    tag_708:\n        /* \"#utility.yul\":35071:35096   */\n      swap3\n      pop\n        /* \"#utility.yul\":35131:35132   */\n      dup3\n        /* \"#utility.yul\":35128:35129   */\n      dup3\n        /* \"#utility.yul\":35124:35133   */\n      mul\n        /* \"#utility.yul\":35153:35183   */\n      tag_709\n        /* \"#utility.yul\":35171:35182   */\n      dup2\n        /* \"#utility.yul\":35153:35183   */\n      tag_331\n      jump\t// in\n    tag_709:\n        /* \"#utility.yul\":35142:35183   */\n      swap2\n      pop\n        /* \"#utility.yul\":35332:35333   */\n      dup3\n        /* \"#utility.yul\":35323:35330   */\n      dup3\n        /* \"#utility.yul\":35319:35334   */\n      div\n        /* \"#utility.yul\":35316:35317   */\n      dup5\n        /* \"#utility.yul\":35313:35335   */\n      eq\n        /* \"#utility.yul\":35293:35294   */\n      dup4\n        /* \"#utility.yul\":35286:35295   */\n      iszero\n        /* \"#utility.yul\":35266:35349   */\n      or\n        /* \"#utility.yul\":35243:35382   */\n      tag_710\n      jumpi\n        /* \"#utility.yul\":35362:35380   */\n      tag_711\n      tag_397\n      jump\t// in\n    tag_711:\n        /* \"#utility.yul\":35243:35382   */\n    tag_710:\n        /* \"#utility.yul\":35027:35389   */\n      pop\n        /* \"#utility.yul\":34979:35389   */\n      swap3\n      swap2\n      pop\n      pop\n      jump\t// out\n        /* \"#utility.yul\":35395:35586   */\n    tag_294:\n        /* \"#utility.yul\":35435:35438   */\n      0x00\n        /* \"#utility.yul\":35454:35474   */\n      tag_713\n        /* \"#utility.yul\":35472:35473   */\n      dup3\n        /* \"#utility.yul\":35454:35474   */\n      tag_331\n      jump\t// in\n    tag_713:\n        /* \"#utility.yul\":35449:35474   */\n      swap2\n      pop\n        /* \"#utility.yul\":35488:35508   */\n      tag_714\n        /* \"#utility.yul\":35506:35507   */\n      dup4\n        /* \"#utility.yul\":35488:35508   */\n      tag_331\n      jump\t// in\n    tag_714:\n        /* \"#utility.yul\":35483:35508   */\n      swap3\n      pop\n        /* \"#utility.yul\":35531:35532   */\n      dup3\n        /* \"#utility.yul\":35528:35529   */\n      dup3\n        /* \"#utility.yul\":35524:35533   */\n      add\n        /* \"#utility.yul\":35517:35533   */\n      swap1\n      pop\n        /* \"#utility.yul\":35552:35555   */\n      dup1\n        /* \"#utility.yul\":35549:35550   */\n      dup3\n        /* \"#utility.yul\":35546:35556   */\n      gt\n        /* \"#utility.yul\":35543:35579   */\n      iszero\n      tag_715\n      jumpi\n        /* \"#utility.yul\":35559:35577   */\n      tag_716\n      tag_397\n      jump\t// in\n    tag_716:\n        /* \"#utility.yul\":35543:35579   */\n    tag_715:\n        /* \"#utility.yul\":35395:35586   */\n      swap3\n      swap2\n      pop\n      pop\n      jump\t// out\n        /* \"#utility.yul\":35592:35772   */\n    tag_297:\n        /* \"#utility.yul\":35640:35717   */\n      0x4e487b7100000000000000000000000000000000000000000000000000000000\n        /* \"#utility.yul\":35637:35638   */\n      0x00\n        /* \"#utility.yul\":35630:35718   */\n      mstore\n        /* \"#utility.yul\":35737:35741   */\n      0x41\n        /* \"#utility.yul\":35734:35735   */\n      0x04\n        /* \"#utility.yul\":35727:35742   */\n      mstore\n        /* \"#utility.yul\":35761:35765   */\n      0x24\n        /* \"#utility.yul\":35758:35759   */\n      0x00\n        /* \"#utility.yul\":35751:35766   */\n      revert\n        /* \"#utility.yul\":35778:35949   */\n    tag_313:\n        /* \"#utility.yul\":35817:35820   */\n      0x00\n        /* \"#utility.yul\":35840:35864   */\n      tag_719\n        /* \"#utility.yul\":35858:35863   */\n      dup3\n        /* \"#utility.yul\":35840:35864   */\n      tag_331\n      jump\t// in\n    tag_719:\n        /* \"#utility.yul\":35831:35864   */\n      swap2\n      pop\n        /* \"#utility.yul\":35886:35890   */\n      0x00\n        /* \"#utility.yul\":35879:35884   */\n      dup3\n        /* \"#utility.yul\":35876:35891   */\n      sub\n        /* \"#utility.yul\":35873:35914   */\n      tag_720\n      jumpi\n        /* \"#utility.yul\":35894:35912   */\n      tag_721\n      tag_397\n      jump\t// in\n    tag_721:\n        /* \"#utility.yul\":35873:35914   */\n    tag_720:\n        /* \"#utility.yul\":35941:35942   */\n      0x01\n        /* \"#utility.yul\":35934:35939   */\n      dup3\n        /* \"#utility.yul\":35930:35943   */\n      sub\n        /* \"#utility.yul\":35923:35943   */\n      swap1\n      pop\n        /* \"#utility.yul\":35778:35949   */\n      swap2\n      swap1\n      pop\n      jump\t// out\n        /* \"#utility.yul\":35955:36137   */\n    tag_398:\n        /* \"#utility.yul\":36095:36129   */\n      0x537472696e67733a20686578206c656e67746820696e73756666696369656e74\n        /* \"#utility.yul\":36091:36092   */\n      0x00\n        /* \"#utility.yul\":36083:36089   */\n      dup3\n        /* \"#utility.yul\":36079:36093   */\n      add\n        /* \"#utility.yul\":36072:36130   */\n      mstore\n        /* \"#utility.yul\":35955:36137   */\n      pop\n      jump\t// out\n        /* \"#utility.yul\":36143:36509   */\n    tag_399:\n        /* \"#utility.yul\":36285:36288   */\n      0x00\n        /* \"#utility.yul\":36306:36373   */\n      tag_724\n        /* \"#utility.yul\":36370:36372   */\n      0x20\n        /* \"#utility.yul\":36365:36368   */\n      dup4\n        /* \"#utility.yul\":36306:36373   */\n      tag_351\n      jump\t// in\n    tag_724:\n        /* \"#utility.yul\":36299:36373   */\n      swap2\n      pop\n        /* \"#utility.yul\":36382:36475   */\n      tag_725\n        /* \"#utility.yul\":36471:36474   */\n      dup3\n        /* \"#utility.yul\":36382:36475   */\n      tag_398\n      jump\t// in\n    tag_725:\n        /* \"#utility.yul\":36500:36502   */\n      0x20\n        /* \"#utility.yul\":36495:36498   */\n      dup3\n        /* \"#utility.yul\":36491:36503   */\n      add\n        /* \"#utility.yul\":36484:36503   */\n      swap1\n      pop\n        /* \"#utility.yul\":36143:36509   */\n      swap2\n      swap1\n      pop\n      jump\t// out\n        /* \"#utility.yul\":36515:36934   */\n    tag_316:\n        /* \"#utility.yul\":36681:36685   */\n      0x00\n        /* \"#utility.yul\":36719:36721   */\n      0x20\n        /* \"#utility.yul\":36708:36717   */\n      dup3\n        /* \"#utility.yul\":36704:36722   */\n      add\n        /* \"#utility.yul\":36696:36722   */\n      swap1\n      pop\n        /* \"#utility.yul\":36768:36777   */\n      dup2\n        /* \"#utility.yul\":36762:36766   */\n      dup2\n        /* \"#utility.yul\":36758:36778   */\n      sub\n        /* \"#utility.yul\":36754:36755   */\n      0x00\n        /* \"#utility.yul\":36743:36752   */\n      dup4\n        /* \"#utility.yul\":36739:36756   */\n      add\n        /* \"#utility.yul\":36732:36779   */\n      mstore\n        /* \"#utility.yul\":36796:36927   */\n      tag_727\n        /* \"#utility.yul\":36922:36926   */\n      dup2\n        /* \"#utility.yul\":36796:36927   */\n      tag_399\n      jump\t// in\n    tag_727:\n        /* \"#utility.yul\":36788:36927   */\n      swap1\n      pop\n        /* \"#utility.yul\":36515:36934   */\n      swap2\n      swap1\n      pop\n      jump\t// out\n\n    auxdata: 0xa2646970667358221220c40e082eb1320500b8147df8e7dd48b506202c5a55e0051d7a13c525fdec0d3a64736f6c634300081a0033\n}\n",
				"bytecode": {
					"linkReferences": {},
					"object": "608060405234801561000f575f80fd5b50604051612efc380380612efc833981810160405281019061003191906102bc565b8160015f6101000a81548173ffffffffffffffffffffffffffffffffffffffff021916908373ffffffffffffffffffffffffffffffffffffffff1602179055508060025f6101000a81548173ffffffffffffffffffffffffffffffffffffffff021916908373ffffffffffffffffffffffffffffffffffffffff1602179055506100c35f801b336100fa60201b60201c565b6100f37fa49807205ce4d355092ef5a8a18f56e8913cf4a201fbe287825b095693c21775336100fa60201b60201c565b50506102fa565b61010a828261010e60201b60201c565b5050565b61011e82826101f460201b60201c565b6101f05760015f808481526020019081526020015f205f015f8373ffffffffffffffffffffffffffffffffffffffff1673ffffffffffffffffffffffffffffffffffffffff1681526020019081526020015f205f6101000a81548160ff02191690831515021790555061019561025760201b60201c565b73ffffffffffffffffffffffffffffffffffffffff168173ffffffffffffffffffffffffffffffffffffffff16837f2f8788117e7eff1d82e926ec794901d17c78024a50270940304540a733656f0d60405160405180910390a45b5050565b5f805f8481526020019081526020015f205f015f8373ffffffffffffffffffffffffffffffffffffffff1673ffffffffffffffffffffffffffffffffffffffff1681526020019081526020015f205f9054906101000a900460ff16905092915050565b5f33905090565b5f80fd5b5f73ffffffffffffffffffffffffffffffffffffffff82169050919050565b5f61028b82610262565b9050919050565b61029b81610281565b81146102a5575f80fd5b50565b5f815190506102b681610292565b92915050565b5f80604083850312156102d2576102d161025e565b5b5f6102df858286016102a8565b92505060206102f0858286016102a8565b9150509250929050565b612bf5806103075f395ff3fe608060405234801561000f575f80fd5b5060043610610156575f3560e01c80639a19c7b0116100c1578063c634b78e1161007a578063c634b78e14610413578063ca1c996f1461042f578063cbc7854e1461044b578063d547741f14610467578063dd0c808214610483578063dd7d2b9f146104a157610156565b80639a19c7b01461032d578063a217fddf14610349578063ae99aa3c14610367578063aea0873414610397578063b5b0e48a146103b3578063bb10ab0f146103e357610156565b806336568abe1161011357806336568abe14610258578063406a378a1461027457806375b238fc146102905780638525ea16146102ae5780638afac670146102ca57806391d14854146102fd57610156565b806301ffc9a71461015a5780631b72fa3a1461018a5780631fd3c85b146101a8578063248a9ca3146101d85780632f2ff15d14610208578063355b9d3f14610224575b5f80fd5b610174600480360381019061016f9190611ace565b6104bd565b6040516101819190611b13565b60405180910390f35b610192610536565b60405161019f9190611ba6565b60405180910390f35b6101c260048036038101906101bd9190611bf2565b61055b565b6040516101cf9190611c2c565b60405180910390f35b6101f260048036038101906101ed9190611c78565b61057b565b6040516101ff9190611cb2565b60405180910390f35b610222600480360381019061021d9190611d06565b610597565b005b61023e60048036038101906102399190611d44565b6105b8565b60405161024f959493929190611d94565b60405180910390f35b610272600480360381019061026d9190611d06565b61060c565b005b61028e60048036038101906102899190611e9b565b61068f565b005b61029861087b565b6040516102a59190611cb2565b60405180910390f35b6102c860048036038101906102c39190611f19565b61089f565b005b6102e460048036038101906102df9190611d44565b610a56565b6040516102f49493929190611f7d565b60405180910390f35b61031760048036038101906103129190611d06565b610aa4565b6040516103249190611b13565b60405180910390f35b61034760048036038101906103429190611fc0565b610b07565b005b610351610b41565b60405161035e9190611cb2565b60405180910390f35b610381600480360381019061037c9190611bf2565b610b47565b60405161038e9190612014565b60405180910390f35b6103b160048036038101906103ac919061202d565b610bd0565b005b6103cd60048036038101906103c89190611d44565b610d68565b6040516103da91906120f2565b60405180910390f35b6103fd60048036038101906103f89190611bf2565b610e72565b60405161040a9190611c2c565b60405180910390f35b61042d60048036038101906104289190611fc0565b610e8c565b005b61044960048036038101906104449190611f19565b610ec6565b005b6104656004803603810190610460919061210b565b6112c5565b005b610481600480360381019061047c9190611d06565b611374565b005b61048b611395565b6040516104989190611ba6565b60405180910390f35b6104bb60048036038101906104b69190611f19565b6113ba565b005b5f7f7965db0b000000000000000000000000000000000000000000000000000000007bffffffffffffffffffffffffffffffffffffffffffffffffffffffff1916827bffffffffffffffffffffffffffffffffffffffffffffffffffffffff1916148061052f575061052e82611515565b5b9050919050565b60025f9054906101000a900473ffffffffffffffffffffffffffffffffffffffff1681565b6004818154811061056a575f80fd5b905f5260205f20015f915090505481565b5f805f8381526020019081526020015f20600101549050919050565b6105a08261057b565b6105a98161157e565b6105b38383611592565b505050565b6006602052825f5260405f20602052815f5260405f20602052805f5260405f205f925092505050805f015490806001015490806002015490806003015490806004015f9054906101000a900460ff16905085565b61061461166c565b73ffffffffffffffffffffffffffffffffffffffff168173ffffffffffffffffffffffffffffffffffffffff1614610681576040517f08c379a0000000000000000000000000000000000000000000000000000000008152600401610678906121c9565b60405180910390fd5b61068b8282611673565b5050565b7fa49807205ce4d355092ef5a8a18f56e8913cf4a201fbe287825b095693c217756106b98161157e565b828290508585905014610701576040517f08c379a00000000000000000000000000000000000000000000000000000000081526004016106f890612257565b60405180910390fd5b5f5b858590508110156108365760025f9054906101000a900473ffffffffffffffffffffffffffffffffffffffff1673ffffffffffffffffffffffffffffffffffffffff1663a9059cbb87878481811061075e5761075d612275565b5b90506020020160208101906107739190611fc0565b86868581811061078657610785612275565b5b905060200201356040518363ffffffff1660e01b81526004016107aa9291906122b1565b6020604051808303815f875af11580156107c6573d5f803e3d5ffd5b505050506040513d601f19601f820116820180604052508101906107ea9190612302565b610829576040517f08c379a000000000000000000000000000000000000000000000000000000000815260040161082090612377565b60405180910390fd5b8080600101915050610703565b507ffa3b7284ecb3a03e8f238b69b61f5645294c15019ea509bd4aaee604d60fdc348585858560405161086c94939291906124c9565b60405180910390a15050505050565b7fa49807205ce4d355092ef5a8a18f56e8913cf4a201fbe287825b095693c2177581565b7fa49807205ce4d355092ef5a8a18f56e8913cf4a201fbe287825b095693c217756108c98161157e565b60055f8681526020019081526020015f205f8581526020019081526020015f205f8481526020019081526020015f206003015f9054906101000a900460ff166109a25760405180608001604052808581526020018481526020015f81526020016001151581525060055f8781526020019081526020015f205f8681526020019081526020015f205f8581526020019081526020015f205f820151815f015560208201518160010155604082015181600201556060820151816003015f6101000a81548160ff021916908315150217905550905050610a15565b60055f8681526020019081526020015f205f8581526020019081526020015f205f8481526020019081526020015f2060020154821115610a14578160055f8781526020019081526020015f205f8681526020019081526020015f205f8581526020019081526020015f20600201819055505b5b8284867fa8f9cf476e5bcc627f5ed22b5ba54bd7fff333cd851bc754d924fe3eb28752fb85604051610a479190611c2c565b60405180910390a45050505050565b6005602052825f5260405f20602052815f5260405f20602052805f5260405f205f925092505050805f015490806001015490806002015490806003015f9054906101000a900460ff16905084565b5f805f8481526020019081526020015f205f015f8373ffffffffffffffffffffffffffffffffffffffff1673ffffffffffffffffffffffffffffffffffffffff1681526020019081526020015f205f9054906101000a900460ff16905092915050565b5f801b610b138161157e565b610b3d7fa49807205ce4d355092ef5a8a18f56e8913cf4a201fbe287825b095693c2177583611374565b5050565b5f801b81565b610b4f611a33565b5f60035f8481526020019081526020015f205f015411610ba4576040517f08c379a0000000000000000000000000000000000000000000000000000000008152600401610b9b9061254c565b60405180910390fd5b60035f8381526020019081526020015f206040518060200160405290815f820154815250509050919050565b7fa49807205ce4d355092ef5a8a18f56e8913cf4a201fbe287825b095693c21775610bfa8161157e565b5f60035f8681526020019081526020015f205f015414610c4f576040517f08c379a0000000000000000000000000000000000000000000000000000000008152600401610c46906125b4565b60405180910390fd5b60405180602001604052808581525060035f8681526020019081526020015f205f820151815f0155905050600484908060018154018082558091505060019003905f5260205f20015f909190919091505560015f9054906101000a900473ffffffffffffffffffffffffffffffffffffffff1673ffffffffffffffffffffffffffffffffffffffff166340c10f1984846040518363ffffffff1660e01b8152600401610cfc9291906122b1565b5f604051808303815f87803b158015610d13575f80fd5b505af1158015610d25573d5f803e3d5ffd5b505050507f5a92c2530f207992057b9c3e544108ffce3beda4a63719f316967c49bf6159d28483604051610d5a9291906125d2565b60405180910390a150505050565b610d70611a45565b60065f8581526020019081526020015f205f8481526020019081526020015f205f8381526020019081526020015f206004015f9054906101000a900460ff16610dee576040517f08c379a0000000000000000000000000000000000000000000000000000000008152600401610de590612643565b60405180910390fd5b60065f8581526020019081526020015f205f8481526020019081526020015f205f8381526020019081526020015f206040518060a00160405290815f8201548152602001600182015481526020016002820154815260200160038201548152602001600482015f9054906101000a900460ff16151515158152505090509392505050565b6003602052805f5260405f205f91509050805f0154905081565b5f801b610e988161157e565b610ec27fa49807205ce4d355092ef5a8a18f56e8913cf4a201fbe287825b095693c2177583610597565b5050565b60065f8581526020019081526020015f205f8481526020019081526020015f205f8381526020019081526020015f206004015f9054906101000a900460ff1615610f45576040517f08c379a0000000000000000000000000000000000000000000000000000000008152600401610f3c906126d1565b60405180910390fd5b5f60015f9054906101000a900473ffffffffffffffffffffffffffffffffffffffff1673ffffffffffffffffffffffffffffffffffffffff1663dd62ed3e33306040518363ffffffff1660e01b8152600401610fa29291906126ef565b602060405180830381865afa158015610fbd573d5f803e3d5ffd5b505050506040513d601f19601f82011682018060405250810190610fe1919061272a565b905081811015611026576040517f08c379a000000000000000000000000000000000000000000000000000000000815260040161101d9061279f565b60405180910390fd5b5f60015f9054906101000a900473ffffffffffffffffffffffffffffffffffffffff1673ffffffffffffffffffffffffffffffffffffffff166370a08231336040518263ffffffff1660e01b815260040161108191906127bd565b602060405180830381865afa15801561109c573d5f803e3d5ffd5b505050506040513d601f19601f820116820180604052508101906110c0919061272a565b905082811015611105576040517f08c379a00000000000000000000000000000000000000000000000000000000081526004016110fc90612820565b60405180910390fd5b60015f9054906101000a900473ffffffffffffffffffffffffffffffffffffffff1673ffffffffffffffffffffffffffffffffffffffff166323b872dd3330866040518463ffffffff1660e01b81526004016111639392919061283e565b6020604051808303815f875af115801561117f573d5f803e3d5ffd5b505050506040513d601f19601f820116820180604052508101906111a39190612302565b6111e2576040517f08c379a00000000000000000000000000000000000000000000000000000000081526004016111d990612377565b60405180910390fd5b6040518060a001604052808681526020018581526020018481526020015f81526020016001151581525060065f8881526020019081526020015f205f8781526020019081526020015f205f8681526020019081526020015f205f820151815f01556020820151816001015560408201518160020155606082015181600301556080820151816004015f6101000a81548160ff0219169083151502179055509050508385877f7bbca5efeebbed029b1684066d1a6e0ade8efe8c578ab0890d4b223e6ec5e50e866040516112b59190611c2c565b60405180910390a4505050505050565b7fa49807205ce4d355092ef5a8a18f56e8913cf4a201fbe287825b095693c217756112ef8161157e565b8260015f6101000a81548173ffffffffffffffffffffffffffffffffffffffff021916908373ffffffffffffffffffffffffffffffffffffffff1602179055508160025f6101000a81548173ffffffffffffffffffffffffffffffffffffffff021916908373ffffffffffffffffffffffffffffffffffffffff160217905550505050565b61137d8261057b565b6113868161157e565b6113908383611673565b505050565b60015f9054906101000a900473ffffffffffffffffffffffffffffffffffffffff1681565b7fa49807205ce4d355092ef5a8a18f56e8913cf4a201fbe287825b095693c217756113e48161157e565b60065f8681526020019081526020015f205f8581526020019081526020015f205f8481526020019081526020015f206004015f9054906101000a900460ff16611462576040517f08c379a0000000000000000000000000000000000000000000000000000000008152600401611459906128bd565b60405180910390fd5b60065f8681526020019081526020015f205f8581526020019081526020015f205f8481526020019081526020015f20600301548211156114d4578160065f8781526020019081526020015f205f8681526020019081526020015f205f8581526020019081526020015f20600301819055505b8284867f2bbc9ad1871f4b99168aa3febe254b9069558ff96ed7746d1677869afa38243f856040516115069190611c2c565b60405180910390a45050505050565b5f7f01ffc9a7000000000000000000000000000000000000000000000000000000007bffffffffffffffffffffffffffffffffffffffffffffffffffffffff1916827bffffffffffffffffffffffffffffffffffffffffffffffffffffffff1916149050919050565b61158f8161158a61166c565b61174d565b50565b61159c8282610aa4565b6116685760015f808481526020019081526020015f205f015f8373ffffffffffffffffffffffffffffffffffffffff1673ffffffffffffffffffffffffffffffffffffffff1681526020019081526020015f205f6101000a81548160ff02191690831515021790555061160d61166c565b73ffffffffffffffffffffffffffffffffffffffff168173ffffffffffffffffffffffffffffffffffffffff16837f2f8788117e7eff1d82e926ec794901d17c78024a50270940304540a733656f0d60405160405180910390a45b5050565b5f33905090565b61167d8282610aa4565b15611749575f805f8481526020019081526020015f205f015f8373ffffffffffffffffffffffffffffffffffffffff1673ffffffffffffffffffffffffffffffffffffffff1681526020019081526020015f205f6101000a81548160ff0219169083151502179055506116ee61166c565b73ffffffffffffffffffffffffffffffffffffffff168173ffffffffffffffffffffffffffffffffffffffff16837ff6391f5c32d9c69d2a47ea670b442974b53935d1edc7fd64eb21e047a839171b60405160405180910390a45b5050565b6117578282610aa4565b6117cd57611764816117d1565b611771835f1c60206117fe565b6040516020016117829291906129c1565b6040516020818303038152906040526040517f08c379a00000000000000000000000000000000000000000000000000000000081526004016117c49190612a42565b60405180910390fd5b5050565b60606117f78273ffffffffffffffffffffffffffffffffffffffff16601460ff166117fe565b9050919050565b60605f60028360026118109190612a8f565b61181a9190612ad0565b67ffffffffffffffff81111561183357611832612b03565b5b6040519080825280601f01601f1916602001820160405280156118655781602001600182028036833780820191505090505b5090507f3000000000000000000000000000000000000000000000000000000000000000815f8151811061189c5761189b612275565b5b60200101907effffffffffffffffffffffffffffffffffffffffffffffffffffffffffffff191690815f1a9053507f7800000000000000000000000000000000000000000000000000000000000000816001815181106118ff576118fe612275565b5b60200101907effffffffffffffffffffffffffffffffffffffffffffffffffffffffffffff191690815f1a9053505f600184600261193d9190612a8f565b6119479190612ad0565b90505b60018111156119e6577f3031323334353637383961626364656600000000000000000000000000000000600f86166010811061198957611988612275565b5b1a60f81b8282815181106119a05761199f612275565b5b60200101907effffffffffffffffffffffffffffffffffffffffffffffffffffffffffffff191690815f1a905350600485901c9450806119df90612b30565b905061194a565b505f8414611a29576040517f08c379a0000000000000000000000000000000000000000000000000000000008152600401611a2090612ba1565b60405180910390fd5b8091505092915050565b60405180602001604052805f81525090565b6040518060a001604052805f81526020015f81526020015f81526020015f81526020015f151581525090565b5f80fd5b5f80fd5b5f7fffffffff0000000000000000000000000000000000000000000000000000000082169050919050565b611aad81611a79565b8114611ab7575f80fd5b50565b5f81359050611ac881611aa4565b92915050565b5f60208284031215611ae357611ae2611a71565b5b5f611af084828501611aba565b91505092915050565b5f8115159050919050565b611b0d81611af9565b82525050565b5f602082019050611b265f830184611b04565b92915050565b5f73ffffffffffffffffffffffffffffffffffffffff82169050919050565b5f819050919050565b5f611b6e611b69611b6484611b2c565b611b4b565b611b2c565b9050919050565b5f611b7f82611b54565b9050919050565b5f611b9082611b75565b9050919050565b611ba081611b86565b82525050565b5f602082019050611bb95f830184611b97565b92915050565b5f819050919050565b611bd181611bbf565b8114611bdb575f80fd5b50565b5f81359050611bec81611bc8565b92915050565b5f60208284031215611c0757611c06611a71565b5b5f611c1484828501611bde565b91505092915050565b611c2681611bbf565b82525050565b5f602082019050611c3f5f830184611c1d565b92915050565b5f819050919050565b611c5781611c45565b8114611c61575f80fd5b50565b5f81359050611c7281611c4e565b92915050565b5f60208284031215611c8d57611c8c611a71565b5b5f611c9a84828501611c64565b91505092915050565b611cac81611c45565b82525050565b5f602082019050611cc55f830184611ca3565b92915050565b5f611cd582611b2c565b9050919050565b611ce581611ccb565b8114611cef575f80fd5b50565b5f81359050611d0081611cdc565b92915050565b5f8060408385031215611d1c57611d1b611a71565b5b5f611d2985828601611c64565b9250506020611d3a85828601611cf2565b9150509250929050565b5f805f60608486031215611d5b57611d5a611a71565b5b5f611d6886828701611bde565b9350506020611d7986828701611bde565b9250506040611d8a86828701611bde565b9150509250925092565b5f60a082019050611da75f830188611c1d565b611db46020830187611c1d565b611dc16040830186611c1d565b611dce6060830185611c1d565b611ddb6080830184611b04565b9695505050505050565b5f80fd5b5f80fd5b5f80fd5b5f8083601f840112611e0657611e05611de5565b5b8235905067ffffffffffffffff811115611e2357611e22611de9565b5b602083019150836020820283011115611e3f57611e3e611ded565b5b9250929050565b5f8083601f840112611e5b57611e5a611de5565b5b8235905067ffffffffffffffff811115611e7857611e77611de9565b5b602083019150836020820283011115611e9457611e93611ded565b5b9250929050565b5f805f8060408587031215611eb357611eb2611a71565b5b5f85013567ffffffffffffffff811115611ed057611ecf611a75565b5b611edc87828801611df1565b9450945050602085013567ffffffffffffffff811115611eff57611efe611a75565b5b611f0b87828801611e46565b925092505092959194509250565b5f805f8060808587031215611f3157611f30611a71565b5b5f611f3e87828801611bde565b9450506020611f4f87828801611bde565b9350506040611f6087828801611bde565b9250506060611f7187828801611bde565b91505092959194509250565b5f608082019050611f905f830187611c1d565b611f9d6020830186611c1d565b611faa6040830185611c1d565b611fb76060830184611b04565b95945050505050565b5f60208284031215611fd557611fd4611a71565b5b5f611fe284828501611cf2565b91505092915050565b611ff481611bbf565b82525050565b602082015f82015161200e5f850182611feb565b50505050565b5f6020820190506120275f830184611ffa565b92915050565b5f805f6060848603121561204457612043611a71565b5b5f61205186828701611bde565b935050602061206286828701611cf2565b925050604061207386828701611bde565b9150509250925092565b61208681611af9565b82525050565b60a082015f8201516120a05f850182611feb565b5060208201516120b36020850182611feb565b5060408201516120c66040850182611feb565b5060608201516120d96060850182611feb565b5060808201516120ec608085018261207d565b50505050565b5f60a0820190506121055f83018461208c565b92915050565b5f806040838503121561212157612120611a71565b5b5f61212e85828601611cf2565b925050602061213f85828601611cf2565b9150509250929050565b5f82825260208201905092915050565b7f416363657373436f6e74726f6c3a2063616e206f6e6c792072656e6f756e63655f8201527f20726f6c657320666f722073656c660000000000000000000000000000000000602082015250565b5f6121b3602f83612149565b91506121be82612159565b604082019050919050565b5f6020820190508181035f8301526121e0816121a7565b9050919050565b7f526563697069656e747320616e6420746f6b656e20616d6f756e7473206c656e5f8201527f677468206d69736d617463680000000000000000000000000000000000000000602082015250565b5f612241602c83612149565b915061224c826121e7565b604082019050919050565b5f6020820190508181035f83015261226e81612235565b9050919050565b7f4e487b71000000000000000000000000000000000000000000000000000000005f52603260045260245ffd5b6122ab81611ccb565b82525050565b5f6040820190506122c45f8301856122a2565b6122d16020830184611c1d565b9392505050565b6122e181611af9565b81146122eb575f80fd5b50565b5f815190506122fc816122d8565b92915050565b5f6020828403121561231757612316611a71565b5b5f612324848285016122ee565b91505092915050565b7f546f6b656e207472616e73666572206661696c656400000000000000000000005f82015250565b5f612361601583612149565b915061236c8261232d565b602082019050919050565b5f6020820190508181035f83015261238e81612355565b9050919050565b5f82825260208201905092915050565b5f819050919050565b6123b781611ccb565b82525050565b5f6123c883836123ae565b60208301905092915050565b5f6123e26020840184611cf2565b905092915050565b5f602082019050919050565b5f6124018385612395565b935061240c826123a5565b805f5b858110156124445761242182846123d4565b61242b88826123bd565b9750612436836123ea565b92505060018101905061240f565b5085925050509392505050565b5f82825260208201905092915050565b5f80fd5b82818337505050565b5f6124798385612451565b93507f07ffffffffffffffffffffffffffffffffffffffffffffffffffffffffffffff8311156124ac576124ab612461565b5b6020830292506124bd838584612465565b82840190509392505050565b5f6040820190508181035f8301526124e28186886123f6565b905081810360208301526124f781848661246e565b905095945050505050565b7f4d656d62657220646f6573206e6f7420657869737400000000000000000000005f82015250565b5f612536601583612149565b915061254182612502565b602082019050919050565b5f6020820190508181035f8301526125638161252a565b9050919050565b7f4d656d62657220616c72656164792072656769737465726564000000000000005f82015250565b5f61259e601983612149565b91506125a98261256a565b602082019050919050565b5f6020820190508181035f8301526125cb81612592565b9050919050565b5f6040820190506125e55f830185611c1d565b6125f26020830184611c1d565b9392505050565b7f4368616c6c656e67652073636f726520646f6573206e6f7420657869737400005f82015250565b5f61262d601e83612149565b9150612638826125f9565b602082019050919050565b5f6020820190508181035f83015261265a81612621565b9050919050565b7f4368616c6c656e676520616c72656164792065786973747320666f72207468695f8201527f73206d656d6265722c20646174652c20616e642067616d650000000000000000602082015250565b5f6126bb603883612149565b91506126c682612661565b604082019050919050565b5f6020820190508181035f8301526126e8816126af565b9050919050565b5f6040820190506127025f8301856122a2565b61270f60208301846122a2565b9392505050565b5f8151905061272481611bc8565b92915050565b5f6020828403121561273f5761273e611a71565b5b5f61274c84828501612716565b91505092915050565b7f496e73756666696369656e7420746f6b656e20616c6c6f77616e6365000000005f82015250565b5f612789601c83612149565b915061279482612755565b602082019050919050565b5f6020820190508181035f8301526127b68161277d565b9050919050565b5f6020820190506127d05f8301846122a2565b92915050565b7f496e73756666696369656e7420746f6b656e2062616c616e63650000000000005f82015250565b5f61280a601a83612149565b9150612815826127d6565b602082019050919050565b5f6020820190508181035f830152612837816127fe565b9050919050565b5f6060820190506128515f8301866122a2565b61285e60208301856122a2565b61286b6040830184611c1d565b949350505050565b7f4368616c6c656e676520646f6573206e6f7420657869737400000000000000005f82015250565b5f6128a7601883612149565b91506128b282612873565b602082019050919050565b5f6020820190508181035f8301526128d48161289b565b9050919050565b5f81905092915050565b7f416363657373436f6e74726f6c3a206163636f756e74200000000000000000005f82015250565b5f6129196017836128db565b9150612924826128e5565b601782019050919050565b5f81519050919050565b8281835e5f83830152505050565b5f6129518261292f565b61295b81856128db565b935061296b818560208601612939565b80840191505092915050565b7f206973206d697373696e6720726f6c65200000000000000000000000000000005f82015250565b5f6129ab6011836128db565b91506129b682612977565b601182019050919050565b5f6129cb8261290d565b91506129d78285612947565b91506129e28261299f565b91506129ee8284612947565b91508190509392505050565b5f601f19601f8301169050919050565b5f612a148261292f565b612a1e8185612149565b9350612a2e818560208601612939565b612a37816129fa565b840191505092915050565b5f6020820190508181035f830152612a5a8184612a0a565b905092915050565b7f4e487b71000000000000000000000000000000000000000000000000000000005f52601160045260245ffd5b5f612a9982611bbf565b9150612aa483611bbf565b9250828202612ab281611bbf565b91508282048414831517612ac957612ac8612a62565b5b5092915050565b5f612ada82611bbf565b9150612ae583611bbf565b9250828201905080821115612afd57612afc612a62565b5b92915050565b7f4e487b71000000000000000000000000000000000000000000000000000000005f52604160045260245ffd5b5f612b3a82611bbf565b91505f8203612b4c57612b4b612a62565b5b600182039050919050565b7f537472696e67733a20686578206c656e67746820696e73756666696369656e745f82015250565b5f612b8b602083612149565b9150612b9682612b57565b602082019050919050565b5f6020820190508181035f830152612bb881612b7f565b905091905056fea2646970667358221220c40e082eb1320500b8147df8e7dd48b506202c5a55e0051d7a13c525fdec0d3a64736f6c634300081a0033",
					"opcodes": "PUSH1 0x80 PUSH1 0x40 MSTORE CALLVALUE DUP1 ISZERO PUSH2 0xF JUMPI PUSH0 DUP1 REVERT JUMPDEST POP PUSH1 0x40 MLOAD PUSH2 0x2EFC CODESIZE SUB DUP1 PUSH2 0x2EFC DUP4 CODECOPY DUP2 DUP2 ADD PUSH1 0x40 MSTORE DUP2 ADD SWAP1 PUSH2 0x31 SWAP2 SWAP1 PUSH2 0x2BC JUMP JUMPDEST DUP2 PUSH1 0x1 PUSH0 PUSH2 0x100 EXP DUP2 SLOAD DUP2 PUSH20 0xFFFFFFFFFFFFFFFFFFFFFFFFFFFFFFFFFFFFFFFF MUL NOT AND SWAP1 DUP4 PUSH20 0xFFFFFFFFFFFFFFFFFFFFFFFFFFFFFFFFFFFFFFFF AND MUL OR SWAP1 SSTORE POP DUP1 PUSH1 0x2 PUSH0 PUSH2 0x100 EXP DUP2 SLOAD DUP2 PUSH20 0xFFFFFFFFFFFFFFFFFFFFFFFFFFFFFFFFFFFFFFFF MUL NOT AND SWAP1 DUP4 PUSH20 0xFFFFFFFFFFFFFFFFFFFFFFFFFFFFFFFFFFFFFFFF AND MUL OR SWAP1 SSTORE POP PUSH2 0xC3 PUSH0 DUP1 SHL CALLER PUSH2 0xFA PUSH1 0x20 SHL PUSH1 0x20 SHR JUMP JUMPDEST PUSH2 0xF3 PUSH32 0xA49807205CE4D355092EF5A8A18F56E8913CF4A201FBE287825B095693C21775 CALLER PUSH2 0xFA PUSH1 0x20 SHL PUSH1 0x20 SHR JUMP JUMPDEST POP POP PUSH2 0x2FA JUMP JUMPDEST PUSH2 0x10A DUP3 DUP3 PUSH2 0x10E PUSH1 0x20 SHL PUSH1 0x20 SHR JUMP JUMPDEST POP POP JUMP JUMPDEST PUSH2 0x11E DUP3 DUP3 PUSH2 0x1F4 PUSH1 0x20 SHL PUSH1 0x20 SHR JUMP JUMPDEST PUSH2 0x1F0 JUMPI PUSH1 0x1 PUSH0 DUP1 DUP5 DUP2 MSTORE PUSH1 0x20 ADD SWAP1 DUP2 MSTORE PUSH1 0x20 ADD PUSH0 KECCAK256 PUSH0 ADD PUSH0 DUP4 PUSH20 0xFFFFFFFFFFFFFFFFFFFFFFFFFFFFFFFFFFFFFFFF AND PUSH20 0xFFFFFFFFFFFFFFFFFFFFFFFFFFFFFFFFFFFFFFFF AND DUP2 MSTORE PUSH1 0x20 ADD SWAP1 DUP2 MSTORE PUSH1 0x20 ADD PUSH0 KECCAK256 PUSH0 PUSH2 0x100 EXP DUP2 SLOAD DUP2 PUSH1 0xFF MUL NOT AND SWAP1 DUP4 ISZERO ISZERO MUL OR SWAP1 SSTORE POP PUSH2 0x195 PUSH2 0x257 PUSH1 0x20 SHL PUSH1 0x20 SHR JUMP JUMPDEST PUSH20 0xFFFFFFFFFFFFFFFFFFFFFFFFFFFFFFFFFFFFFFFF AND DUP2 PUSH20 0xFFFFFFFFFFFFFFFFFFFFFFFFFFFFFFFFFFFFFFFF AND DUP4 PUSH32 0x2F8788117E7EFF1D82E926EC794901D17C78024A50270940304540A733656F0D PUSH1 0x40 MLOAD PUSH1 0x40 MLOAD DUP1 SWAP2 SUB SWAP1 LOG4 JUMPDEST POP POP JUMP JUMPDEST PUSH0 DUP1 PUSH0 DUP5 DUP2 MSTORE PUSH1 0x20 ADD SWAP1 DUP2 MSTORE PUSH1 0x20 ADD PUSH0 KECCAK256 PUSH0 ADD PUSH0 DUP4 PUSH20 0xFFFFFFFFFFFFFFFFFFFFFFFFFFFFFFFFFFFFFFFF AND PUSH20 0xFFFFFFFFFFFFFFFFFFFFFFFFFFFFFFFFFFFFFFFF AND DUP2 MSTORE PUSH1 0x20 ADD SWAP1 DUP2 MSTORE PUSH1 0x20 ADD PUSH0 KECCAK256 PUSH0 SWAP1 SLOAD SWAP1 PUSH2 0x100 EXP SWAP1 DIV PUSH1 0xFF AND SWAP1 POP SWAP3 SWAP2 POP POP JUMP JUMPDEST PUSH0 CALLER SWAP1 POP SWAP1 JUMP JUMPDEST PUSH0 DUP1 REVERT JUMPDEST PUSH0 PUSH20 0xFFFFFFFFFFFFFFFFFFFFFFFFFFFFFFFFFFFFFFFF DUP3 AND SWAP1 POP SWAP2 SWAP1 POP JUMP JUMPDEST PUSH0 PUSH2 0x28B DUP3 PUSH2 0x262 JUMP JUMPDEST SWAP1 POP SWAP2 SWAP1 POP JUMP JUMPDEST PUSH2 0x29B DUP2 PUSH2 0x281 JUMP JUMPDEST DUP2 EQ PUSH2 0x2A5 JUMPI PUSH0 DUP1 REVERT JUMPDEST POP JUMP JUMPDEST PUSH0 DUP2 MLOAD SWAP1 POP PUSH2 0x2B6 DUP2 PUSH2 0x292 JUMP JUMPDEST SWAP3 SWAP2 POP POP JUMP JUMPDEST PUSH0 DUP1 PUSH1 0x40 DUP4 DUP6 SUB SLT ISZERO PUSH2 0x2D2 JUMPI PUSH2 0x2D1 PUSH2 0x25E JUMP JUMPDEST JUMPDEST PUSH0 PUSH2 0x2DF DUP6 DUP3 DUP7 ADD PUSH2 0x2A8 JUMP JUMPDEST SWAP3 POP POP PUSH1 0x20 PUSH2 0x2F0 DUP6 DUP3 DUP7 ADD PUSH2 0x2A8 JUMP JUMPDEST SWAP2 POP POP SWAP3 POP SWAP3 SWAP1 POP JUMP JUMPDEST PUSH2 0x2BF5 DUP1 PUSH2 0x307 PUSH0 CODECOPY PUSH0 RETURN INVALID PUSH1 0x80 PUSH1 0x40 MSTORE CALLVALUE DUP1 ISZERO PUSH2 0xF JUMPI PUSH0 DUP1 REVERT JUMPDEST POP PUSH1 0x4 CALLDATASIZE LT PUSH2 0x156 JUMPI PUSH0 CALLDATALOAD PUSH1 0xE0 SHR DUP1 PUSH4 0x9A19C7B0 GT PUSH2 0xC1 JUMPI DUP1 PUSH4 0xC634B78E GT PUSH2 0x7A JUMPI DUP1 PUSH4 0xC634B78E EQ PUSH2 0x413 JUMPI DUP1 PUSH4 0xCA1C996F EQ PUSH2 0x42F JUMPI DUP1 PUSH4 0xCBC7854E EQ PUSH2 0x44B JUMPI DUP1 PUSH4 0xD547741F EQ PUSH2 0x467 JUMPI DUP1 PUSH4 0xDD0C8082 EQ PUSH2 0x483 JUMPI DUP1 PUSH4 0xDD7D2B9F EQ PUSH2 0x4A1 JUMPI PUSH2 0x156 JUMP JUMPDEST DUP1 PUSH4 0x9A19C7B0 EQ PUSH2 0x32D JUMPI DUP1 PUSH4 0xA217FDDF EQ PUSH2 0x349 JUMPI DUP1 PUSH4 0xAE99AA3C EQ PUSH2 0x367 JUMPI DUP1 PUSH4 0xAEA08734 EQ PUSH2 0x397 JUMPI DUP1 PUSH4 0xB5B0E48A EQ PUSH2 0x3B3 JUMPI DUP1 PUSH4 0xBB10AB0F EQ PUSH2 0x3E3 JUMPI PUSH2 0x156 JUMP JUMPDEST DUP1 PUSH4 0x36568ABE GT PUSH2 0x113 JUMPI DUP1 PUSH4 0x36568ABE EQ PUSH2 0x258 JUMPI DUP1 PUSH4 0x406A378A EQ PUSH2 0x274 JUMPI DUP1 PUSH4 0x75B238FC EQ PUSH2 0x290 JUMPI DUP1 PUSH4 0x8525EA16 EQ PUSH2 0x2AE JUMPI DUP1 PUSH4 0x8AFAC670 EQ PUSH2 0x2CA JUMPI DUP1 PUSH4 0x91D14854 EQ PUSH2 0x2FD JUMPI PUSH2 0x156 JUMP JUMPDEST DUP1 PUSH4 0x1FFC9A7 EQ PUSH2 0x15A JUMPI DUP1 PUSH4 0x1B72FA3A EQ PUSH2 0x18A JUMPI DUP1 PUSH4 0x1FD3C85B EQ PUSH2 0x1A8 JUMPI DUP1 PUSH4 0x248A9CA3 EQ PUSH2 0x1D8 JUMPI DUP1 PUSH4 0x2F2FF15D EQ PUSH2 0x208 JUMPI DUP1 PUSH4 0x355B9D3F EQ PUSH2 0x224 JUMPI JUMPDEST PUSH0 DUP1 REVERT JUMPDEST PUSH2 0x174 PUSH1 0x4 DUP1 CALLDATASIZE SUB DUP2 ADD SWAP1 PUSH2 0x16F SWAP2 SWAP1 PUSH2 0x1ACE JUMP JUMPDEST PUSH2 0x4BD JUMP JUMPDEST PUSH1 0x40 MLOAD PUSH2 0x181 SWAP2 SWAP1 PUSH2 0x1B13 JUMP JUMPDEST PUSH1 0x40 MLOAD DUP1 SWAP2 SUB SWAP1 RETURN JUMPDEST PUSH2 0x192 PUSH2 0x536 JUMP JUMPDEST PUSH1 0x40 MLOAD PUSH2 0x19F SWAP2 SWAP1 PUSH2 0x1BA6 JUMP JUMPDEST PUSH1 0x40 MLOAD DUP1 SWAP2 SUB SWAP1 RETURN JUMPDEST PUSH2 0x1C2 PUSH1 0x4 DUP1 CALLDATASIZE SUB DUP2 ADD SWAP1 PUSH2 0x1BD SWAP2 SWAP1 PUSH2 0x1BF2 JUMP JUMPDEST PUSH2 0x55B JUMP JUMPDEST PUSH1 0x40 MLOAD PUSH2 0x1CF SWAP2 SWAP1 PUSH2 0x1C2C JUMP JUMPDEST PUSH1 0x40 MLOAD DUP1 SWAP2 SUB SWAP1 RETURN JUMPDEST PUSH2 0x1F2 PUSH1 0x4 DUP1 CALLDATASIZE SUB DUP2 ADD SWAP1 PUSH2 0x1ED SWAP2 SWAP1 PUSH2 0x1C78 JUMP JUMPDEST PUSH2 0x57B JUMP JUMPDEST PUSH1 0x40 MLOAD PUSH2 0x1FF SWAP2 SWAP1 PUSH2 0x1CB2 JUMP JUMPDEST PUSH1 0x40 MLOAD DUP1 SWAP2 SUB SWAP1 RETURN JUMPDEST PUSH2 0x222 PUSH1 0x4 DUP1 CALLDATASIZE SUB DUP2 ADD SWAP1 PUSH2 0x21D SWAP2 SWAP1 PUSH2 0x1D06 JUMP JUMPDEST PUSH2 0x597 JUMP JUMPDEST STOP JUMPDEST PUSH2 0x23E PUSH1 0x4 DUP1 CALLDATASIZE SUB DUP2 ADD SWAP1 PUSH2 0x239 SWAP2 SWAP1 PUSH2 0x1D44 JUMP JUMPDEST PUSH2 0x5B8 JUMP JUMPDEST PUSH1 0x40 MLOAD PUSH2 0x24F SWAP6 SWAP5 SWAP4 SWAP3 SWAP2 SWAP1 PUSH2 0x1D94 JUMP JUMPDEST PUSH1 0x40 MLOAD DUP1 SWAP2 SUB SWAP1 RETURN JUMPDEST PUSH2 0x272 PUSH1 0x4 DUP1 CALLDATASIZE SUB DUP2 ADD SWAP1 PUSH2 0x26D SWAP2 SWAP1 PUSH2 0x1D06 JUMP JUMPDEST PUSH2 0x60C JUMP JUMPDEST STOP JUMPDEST PUSH2 0x28E PUSH1 0x4 DUP1 CALLDATASIZE SUB DUP2 ADD SWAP1 PUSH2 0x289 SWAP2 SWAP1 PUSH2 0x1E9B JUMP JUMPDEST PUSH2 0x68F JUMP JUMPDEST STOP JUMPDEST PUSH2 0x298 PUSH2 0x87B JUMP JUMPDEST PUSH1 0x40 MLOAD PUSH2 0x2A5 SWAP2 SWAP1 PUSH2 0x1CB2 JUMP JUMPDEST PUSH1 0x40 MLOAD DUP1 SWAP2 SUB SWAP1 RETURN JUMPDEST PUSH2 0x2C8 PUSH1 0x4 DUP1 CALLDATASIZE SUB DUP2 ADD SWAP1 PUSH2 0x2C3 SWAP2 SWAP1 PUSH2 0x1F19 JUMP JUMPDEST PUSH2 0x89F JUMP JUMPDEST STOP JUMPDEST PUSH2 0x2E4 PUSH1 0x4 DUP1 CALLDATASIZE SUB DUP2 ADD SWAP1 PUSH2 0x2DF SWAP2 SWAP1 PUSH2 0x1D44 JUMP JUMPDEST PUSH2 0xA56 JUMP JUMPDEST PUSH1 0x40 MLOAD PUSH2 0x2F4 SWAP5 SWAP4 SWAP3 SWAP2 SWAP1 PUSH2 0x1F7D JUMP JUMPDEST PUSH1 0x40 MLOAD DUP1 SWAP2 SUB SWAP1 RETURN JUMPDEST PUSH2 0x317 PUSH1 0x4 DUP1 CALLDATASIZE SUB DUP2 ADD SWAP1 PUSH2 0x312 SWAP2 SWAP1 PUSH2 0x1D06 JUMP JUMPDEST PUSH2 0xAA4 JUMP JUMPDEST PUSH1 0x40 MLOAD PUSH2 0x324 SWAP2 SWAP1 PUSH2 0x1B13 JUMP JUMPDEST PUSH1 0x40 MLOAD DUP1 SWAP2 SUB SWAP1 RETURN JUMPDEST PUSH2 0x347 PUSH1 0x4 DUP1 CALLDATASIZE SUB DUP2 ADD SWAP1 PUSH2 0x342 SWAP2 SWAP1 PUSH2 0x1FC0 JUMP JUMPDEST PUSH2 0xB07 JUMP JUMPDEST STOP JUMPDEST PUSH2 0x351 PUSH2 0xB41 JUMP JUMPDEST PUSH1 0x40 MLOAD PUSH2 0x35E SWAP2 SWAP1 PUSH2 0x1CB2 JUMP JUMPDEST PUSH1 0x40 MLOAD DUP1 SWAP2 SUB SWAP1 RETURN JUMPDEST PUSH2 0x381 PUSH1 0x4 DUP1 CALLDATASIZE SUB DUP2 ADD SWAP1 PUSH2 0x37C SWAP2 SWAP1 PUSH2 0x1BF2 JUMP JUMPDEST PUSH2 0xB47 JUMP JUMPDEST PUSH1 0x40 MLOAD PUSH2 0x38E SWAP2 SWAP1 PUSH2 0x2014 JUMP JUMPDEST PUSH1 0x40 MLOAD DUP1 SWAP2 SUB SWAP1 RETURN JUMPDEST PUSH2 0x3B1 PUSH1 0x4 DUP1 CALLDATASIZE SUB DUP2 ADD SWAP1 PUSH2 0x3AC SWAP2 SWAP1 PUSH2 0x202D JUMP JUMPDEST PUSH2 0xBD0 JUMP JUMPDEST STOP JUMPDEST PUSH2 0x3CD PUSH1 0x4 DUP1 CALLDATASIZE SUB DUP2 ADD SWAP1 PUSH2 0x3C8 SWAP2 SWAP1 PUSH2 0x1D44 JUMP JUMPDEST PUSH2 0xD68 JUMP JUMPDEST PUSH1 0x40 MLOAD PUSH2 0x3DA SWAP2 SWAP1 PUSH2 0x20F2 JUMP JUMPDEST PUSH1 0x40 MLOAD DUP1 SWAP2 SUB SWAP1 RETURN JUMPDEST PUSH2 0x3FD PUSH1 0x4 DUP1 CALLDATASIZE SUB DUP2 ADD SWAP1 PUSH2 0x3F8 SWAP2 SWAP1 PUSH2 0x1BF2 JUMP JUMPDEST PUSH2 0xE72 JUMP JUMPDEST PUSH1 0x40 MLOAD PUSH2 0x40A SWAP2 SWAP1 PUSH2 0x1C2C JUMP JUMPDEST PUSH1 0x40 MLOAD DUP1 SWAP2 SUB SWAP1 RETURN JUMPDEST PUSH2 0x42D PUSH1 0x4 DUP1 CALLDATASIZE SUB DUP2 ADD SWAP1 PUSH2 0x428 SWAP2 SWAP1 PUSH2 0x1FC0 JUMP JUMPDEST PUSH2 0xE8C JUMP JUMPDEST STOP JUMPDEST PUSH2 0x449 PUSH1 0x4 DUP1 CALLDATASIZE SUB DUP2 ADD SWAP1 PUSH2 0x444 SWAP2 SWAP1 PUSH2 0x1F19 JUMP JUMPDEST PUSH2 0xEC6 JUMP JUMPDEST STOP JUMPDEST PUSH2 0x465 PUSH1 0x4 DUP1 CALLDATASIZE SUB DUP2 ADD SWAP1 PUSH2 0x460 SWAP2 SWAP1 PUSH2 0x210B JUMP JUMPDEST PUSH2 0x12C5 JUMP JUMPDEST STOP JUMPDEST PUSH2 0x481 PUSH1 0x4 DUP1 CALLDATASIZE SUB DUP2 ADD SWAP1 PUSH2 0x47C SWAP2 SWAP1 PUSH2 0x1D06 JUMP JUMPDEST PUSH2 0x1374 JUMP JUMPDEST STOP JUMPDEST PUSH2 0x48B PUSH2 0x1395 JUMP JUMPDEST PUSH1 0x40 MLOAD PUSH2 0x498 SWAP2 SWAP1 PUSH2 0x1BA6 JUMP JUMPDEST PUSH1 0x40 MLOAD DUP1 SWAP2 SUB SWAP1 RETURN JUMPDEST PUSH2 0x4BB PUSH1 0x4 DUP1 CALLDATASIZE SUB DUP2 ADD SWAP1 PUSH2 0x4B6 SWAP2 SWAP1 PUSH2 0x1F19 JUMP JUMPDEST PUSH2 0x13BA JUMP JUMPDEST STOP JUMPDEST PUSH0 PUSH32 0x7965DB0B00000000000000000000000000000000000000000000000000000000 PUSH28 0xFFFFFFFFFFFFFFFFFFFFFFFFFFFFFFFFFFFFFFFFFFFFFFFFFFFFFFFF NOT AND DUP3 PUSH28 0xFFFFFFFFFFFFFFFFFFFFFFFFFFFFFFFFFFFFFFFFFFFFFFFFFFFFFFFF NOT AND EQ DUP1 PUSH2 0x52F JUMPI POP PUSH2 0x52E DUP3 PUSH2 0x1515 JUMP JUMPDEST JUMPDEST SWAP1 POP SWAP2 SWAP1 POP JUMP JUMPDEST PUSH1 0x2 PUSH0 SWAP1 SLOAD SWAP1 PUSH2 0x100 EXP SWAP1 DIV PUSH20 0xFFFFFFFFFFFFFFFFFFFFFFFFFFFFFFFFFFFFFFFF AND DUP2 JUMP JUMPDEST PUSH1 0x4 DUP2 DUP2 SLOAD DUP2 LT PUSH2 0x56A JUMPI PUSH0 DUP1 REVERT JUMPDEST SWAP1 PUSH0 MSTORE PUSH1 0x20 PUSH0 KECCAK256 ADD PUSH0 SWAP2 POP SWAP1 POP SLOAD DUP2 JUMP JUMPDEST PUSH0 DUP1 PUSH0 DUP4 DUP2 MSTORE PUSH1 0x20 ADD SWAP1 DUP2 MSTORE PUSH1 0x20 ADD PUSH0 KECCAK256 PUSH1 0x1 ADD SLOAD SWAP1 POP SWAP2 SWAP1 POP JUMP JUMPDEST PUSH2 0x5A0 DUP3 PUSH2 0x57B JUMP JUMPDEST PUSH2 0x5A9 DUP2 PUSH2 0x157E JUMP JUMPDEST PUSH2 0x5B3 DUP4 DUP4 PUSH2 0x1592 JUMP JUMPDEST POP POP POP JUMP JUMPDEST PUSH1 0x6 PUSH1 0x20 MSTORE DUP3 PUSH0 MSTORE PUSH1 0x40 PUSH0 KECCAK256 PUSH1 0x20 MSTORE DUP2 PUSH0 MSTORE PUSH1 0x40 PUSH0 KECCAK256 PUSH1 0x20 MSTORE DUP1 PUSH0 MSTORE PUSH1 0x40 PUSH0 KECCAK256 PUSH0 SWAP3 POP SWAP3 POP POP POP DUP1 PUSH0 ADD SLOAD SWAP1 DUP1 PUSH1 0x1 ADD SLOAD SWAP1 DUP1 PUSH1 0x2 ADD SLOAD SWAP1 DUP1 PUSH1 0x3 ADD SLOAD SWAP1 DUP1 PUSH1 0x4 ADD PUSH0 SWAP1 SLOAD SWAP1 PUSH2 0x100 EXP SWAP1 DIV PUSH1 0xFF AND SWAP1 POP DUP6 JUMP JUMPDEST PUSH2 0x614 PUSH2 0x166C JUMP JUMPDEST PUSH20 0xFFFFFFFFFFFFFFFFFFFFFFFFFFFFFFFFFFFFFFFF AND DUP2 PUSH20 0xFFFFFFFFFFFFFFFFFFFFFFFFFFFFFFFFFFFFFFFF AND EQ PUSH2 0x681 JUMPI PUSH1 0x40 MLOAD PUSH32 0x8C379A000000000000000000000000000000000000000000000000000000000 DUP2 MSTORE PUSH1 0x4 ADD PUSH2 0x678 SWAP1 PUSH2 0x21C9 JUMP JUMPDEST PUSH1 0x40 MLOAD DUP1 SWAP2 SUB SWAP1 REVERT JUMPDEST PUSH2 0x68B DUP3 DUP3 PUSH2 0x1673 JUMP JUMPDEST POP POP JUMP JUMPDEST PUSH32 0xA49807205CE4D355092EF5A8A18F56E8913CF4A201FBE287825B095693C21775 PUSH2 0x6B9 DUP2 PUSH2 0x157E JUMP JUMPDEST DUP3 DUP3 SWAP1 POP DUP6 DUP6 SWAP1 POP EQ PUSH2 0x701 JUMPI PUSH1 0x40 MLOAD PUSH32 0x8C379A000000000000000000000000000000000000000000000000000000000 DUP2 MSTORE PUSH1 0x4 ADD PUSH2 0x6F8 SWAP1 PUSH2 0x2257 JUMP JUMPDEST PUSH1 0x40 MLOAD DUP1 SWAP2 SUB SWAP1 REVERT JUMPDEST PUSH0 JUMPDEST DUP6 DUP6 SWAP1 POP DUP2 LT ISZERO PUSH2 0x836 JUMPI PUSH1 0x2 PUSH0 SWAP1 SLOAD SWAP1 PUSH2 0x100 EXP SWAP1 DIV PUSH20 0xFFFFFFFFFFFFFFFFFFFFFFFFFFFFFFFFFFFFFFFF AND PUSH20 0xFFFFFFFFFFFFFFFFFFFFFFFFFFFFFFFFFFFFFFFF AND PUSH4 0xA9059CBB DUP8 DUP8 DUP5 DUP2 DUP2 LT PUSH2 0x75E JUMPI PUSH2 0x75D PUSH2 0x2275 JUMP JUMPDEST JUMPDEST SWAP1 POP PUSH1 0x20 MUL ADD PUSH1 0x20 DUP2 ADD SWAP1 PUSH2 0x773 SWAP2 SWAP1 PUSH2 0x1FC0 JUMP JUMPDEST DUP7 DUP7 DUP6 DUP2 DUP2 LT PUSH2 0x786 JUMPI PUSH2 0x785 PUSH2 0x2275 JUMP JUMPDEST JUMPDEST SWAP1 POP PUSH1 0x20 MUL ADD CALLDATALOAD PUSH1 0x40 MLOAD DUP4 PUSH4 0xFFFFFFFF AND PUSH1 0xE0 SHL DUP2 MSTORE PUSH1 0x4 ADD PUSH2 0x7AA SWAP3 SWAP2 SWAP1 PUSH2 0x22B1 JUMP JUMPDEST PUSH1 0x20 PUSH1 0x40 MLOAD DUP1 DUP4 SUB DUP2 PUSH0 DUP8 GAS CALL ISZERO DUP1 ISZERO PUSH2 0x7C6 JUMPI RETURNDATASIZE PUSH0 DUP1 RETURNDATACOPY RETURNDATASIZE PUSH0 REVERT JUMPDEST POP POP POP POP PUSH1 0x40 MLOAD RETURNDATASIZE PUSH1 0x1F NOT PUSH1 0x1F DUP3 ADD AND DUP3 ADD DUP1 PUSH1 0x40 MSTORE POP DUP2 ADD SWAP1 PUSH2 0x7EA SWAP2 SWAP1 PUSH2 0x2302 JUMP JUMPDEST PUSH2 0x829 JUMPI PUSH1 0x40 MLOAD PUSH32 0x8C379A000000000000000000000000000000000000000000000000000000000 DUP2 MSTORE PUSH1 0x4 ADD PUSH2 0x820 SWAP1 PUSH2 0x2377 JUMP JUMPDEST PUSH1 0x40 MLOAD DUP1 SWAP2 SUB SWAP1 REVERT JUMPDEST DUP1 DUP1 PUSH1 0x1 ADD SWAP2 POP POP PUSH2 0x703 JUMP JUMPDEST POP PUSH32 0xFA3B7284ECB3A03E8F238B69B61F5645294C15019EA509BD4AAEE604D60FDC34 DUP6 DUP6 DUP6 DUP6 PUSH1 0x40 MLOAD PUSH2 0x86C SWAP5 SWAP4 SWAP3 SWAP2 SWAP1 PUSH2 0x24C9 JUMP JUMPDEST PUSH1 0x40 MLOAD DUP1 SWAP2 SUB SWAP1 LOG1 POP POP POP POP POP JUMP JUMPDEST PUSH32 0xA49807205CE4D355092EF5A8A18F56E8913CF4A201FBE287825B095693C21775 DUP2 JUMP JUMPDEST PUSH32 0xA49807205CE4D355092EF5A8A18F56E8913CF4A201FBE287825B095693C21775 PUSH2 0x8C9 DUP2 PUSH2 0x157E JUMP JUMPDEST PUSH1 0x5 PUSH0 DUP7 DUP2 MSTORE PUSH1 0x20 ADD SWAP1 DUP2 MSTORE PUSH1 0x20 ADD PUSH0 KECCAK256 PUSH0 DUP6 DUP2 MSTORE PUSH1 0x20 ADD SWAP1 DUP2 MSTORE PUSH1 0x20 ADD PUSH0 KECCAK256 PUSH0 DUP5 DUP2 MSTORE PUSH1 0x20 ADD SWAP1 DUP2 MSTORE PUSH1 0x20 ADD PUSH0 KECCAK256 PUSH1 0x3 ADD PUSH0 SWAP1 SLOAD SWAP1 PUSH2 0x100 EXP SWAP1 DIV PUSH1 0xFF AND PUSH2 0x9A2 JUMPI PUSH1 0x40 MLOAD DUP1 PUSH1 0x80 ADD PUSH1 0x40 MSTORE DUP1 DUP6 DUP2 MSTORE PUSH1 0x20 ADD DUP5 DUP2 MSTORE PUSH1 0x20 ADD PUSH0 DUP2 MSTORE PUSH1 0x20 ADD PUSH1 0x1 ISZERO ISZERO DUP2 MSTORE POP PUSH1 0x5 PUSH0 DUP8 DUP2 MSTORE PUSH1 0x20 ADD SWAP1 DUP2 MSTORE PUSH1 0x20 ADD PUSH0 KECCAK256 PUSH0 DUP7 DUP2 MSTORE PUSH1 0x20 ADD SWAP1 DUP2 MSTORE PUSH1 0x20 ADD PUSH0 KECCAK256 PUSH0 DUP6 DUP2 MSTORE PUSH1 0x20 ADD SWAP1 DUP2 MSTORE PUSH1 0x20 ADD PUSH0 KECCAK256 PUSH0 DUP3 ADD MLOAD DUP2 PUSH0 ADD SSTORE PUSH1 0x20 DUP3 ADD MLOAD DUP2 PUSH1 0x1 ADD SSTORE PUSH1 0x40 DUP3 ADD MLOAD DUP2 PUSH1 0x2 ADD SSTORE PUSH1 0x60 DUP3 ADD MLOAD DUP2 PUSH1 0x3 ADD PUSH0 PUSH2 0x100 EXP DUP2 SLOAD DUP2 PUSH1 0xFF MUL NOT AND SWAP1 DUP4 ISZERO ISZERO MUL OR SWAP1 SSTORE POP SWAP1 POP POP PUSH2 0xA15 JUMP JUMPDEST PUSH1 0x5 PUSH0 DUP7 DUP2 MSTORE PUSH1 0x20 ADD SWAP1 DUP2 MSTORE PUSH1 0x20 ADD PUSH0 KECCAK256 PUSH0 DUP6 DUP2 MSTORE PUSH1 0x20 ADD SWAP1 DUP2 MSTORE PUSH1 0x20 ADD PUSH0 KECCAK256 PUSH0 DUP5 DUP2 MSTORE PUSH1 0x20 ADD SWAP1 DUP2 MSTORE PUSH1 0x20 ADD PUSH0 KECCAK256 PUSH1 0x2 ADD SLOAD DUP3 GT ISZERO PUSH2 0xA14 JUMPI DUP2 PUSH1 0x5 PUSH0 DUP8 DUP2 MSTORE PUSH1 0x20 ADD SWAP1 DUP2 MSTORE PUSH1 0x20 ADD PUSH0 KECCAK256 PUSH0 DUP7 DUP2 MSTORE PUSH1 0x20 ADD SWAP1 DUP2 MSTORE PUSH1 0x20 ADD PUSH0 KECCAK256 PUSH0 DUP6 DUP2 MSTORE PUSH1 0x20 ADD SWAP1 DUP2 MSTORE PUSH1 0x20 ADD PUSH0 KECCAK256 PUSH1 0x2 ADD DUP2 SWAP1 SSTORE POP JUMPDEST JUMPDEST DUP3 DUP5 DUP7 PUSH32 0xA8F9CF476E5BCC627F5ED22B5BA54BD7FFF333CD851BC754D924FE3EB28752FB DUP6 PUSH1 0x40 MLOAD PUSH2 0xA47 SWAP2 SWAP1 PUSH2 0x1C2C JUMP JUMPDEST PUSH1 0x40 MLOAD DUP1 SWAP2 SUB SWAP1 LOG4 POP POP POP POP POP JUMP JUMPDEST PUSH1 0x5 PUSH1 0x20 MSTORE DUP3 PUSH0 MSTORE PUSH1 0x40 PUSH0 KECCAK256 PUSH1 0x20 MSTORE DUP2 PUSH0 MSTORE PUSH1 0x40 PUSH0 KECCAK256 PUSH1 0x20 MSTORE DUP1 PUSH0 MSTORE PUSH1 0x40 PUSH0 KECCAK256 PUSH0 SWAP3 POP SWAP3 POP POP POP DUP1 PUSH0 ADD SLOAD SWAP1 DUP1 PUSH1 0x1 ADD SLOAD SWAP1 DUP1 PUSH1 0x2 ADD SLOAD SWAP1 DUP1 PUSH1 0x3 ADD PUSH0 SWAP1 SLOAD SWAP1 PUSH2 0x100 EXP SWAP1 DIV PUSH1 0xFF AND SWAP1 POP DUP5 JUMP JUMPDEST PUSH0 DUP1 PUSH0 DUP5 DUP2 MSTORE PUSH1 0x20 ADD SWAP1 DUP2 MSTORE PUSH1 0x20 ADD PUSH0 KECCAK256 PUSH0 ADD PUSH0 DUP4 PUSH20 0xFFFFFFFFFFFFFFFFFFFFFFFFFFFFFFFFFFFFFFFF AND PUSH20 0xFFFFFFFFFFFFFFFFFFFFFFFFFFFFFFFFFFFFFFFF AND DUP2 MSTORE PUSH1 0x20 ADD SWAP1 DUP2 MSTORE PUSH1 0x20 ADD PUSH0 KECCAK256 PUSH0 SWAP1 SLOAD SWAP1 PUSH2 0x100 EXP SWAP1 DIV PUSH1 0xFF AND SWAP1 POP SWAP3 SWAP2 POP POP JUMP JUMPDEST PUSH0 DUP1 SHL PUSH2 0xB13 DUP2 PUSH2 0x157E JUMP JUMPDEST PUSH2 0xB3D PUSH32 0xA49807205CE4D355092EF5A8A18F56E8913CF4A201FBE287825B095693C21775 DUP4 PUSH2 0x1374 JUMP JUMPDEST POP POP JUMP JUMPDEST PUSH0 DUP1 SHL DUP2 JUMP JUMPDEST PUSH2 0xB4F PUSH2 0x1A33 JUMP JUMPDEST PUSH0 PUSH1 0x3 PUSH0 DUP5 DUP2 MSTORE PUSH1 0x20 ADD SWAP1 DUP2 MSTORE PUSH1 0x20 ADD PUSH0 KECCAK256 PUSH0 ADD SLOAD GT PUSH2 0xBA4 JUMPI PUSH1 0x40 MLOAD PUSH32 0x8C379A000000000000000000000000000000000000000000000000000000000 DUP2 MSTORE PUSH1 0x4 ADD PUSH2 0xB9B SWAP1 PUSH2 0x254C JUMP JUMPDEST PUSH1 0x40 MLOAD DUP1 SWAP2 SUB SWAP1 REVERT JUMPDEST PUSH1 0x3 PUSH0 DUP4 DUP2 MSTORE PUSH1 0x20 ADD SWAP1 DUP2 MSTORE PUSH1 0x20 ADD PUSH0 KECCAK256 PUSH1 0x40 MLOAD DUP1 PUSH1 0x20 ADD PUSH1 0x40 MSTORE SWAP1 DUP2 PUSH0 DUP3 ADD SLOAD DUP2 MSTORE POP POP SWAP1 POP SWAP2 SWAP1 POP JUMP JUMPDEST PUSH32 0xA49807205CE4D355092EF5A8A18F56E8913CF4A201FBE287825B095693C21775 PUSH2 0xBFA DUP2 PUSH2 0x157E JUMP JUMPDEST PUSH0 PUSH1 0x3 PUSH0 DUP7 DUP2 MSTORE PUSH1 0x20 ADD SWAP1 DUP2 MSTORE PUSH1 0x20 ADD PUSH0 KECCAK256 PUSH0 ADD SLOAD EQ PUSH2 0xC4F JUMPI PUSH1 0x40 MLOAD PUSH32 0x8C379A000000000000000000000000000000000000000000000000000000000 DUP2 MSTORE PUSH1 0x4 ADD PUSH2 0xC46 SWAP1 PUSH2 0x25B4 JUMP JUMPDEST PUSH1 0x40 MLOAD DUP1 SWAP2 SUB SWAP1 REVERT JUMPDEST PUSH1 0x40 MLOAD DUP1 PUSH1 0x20 ADD PUSH1 0x40 MSTORE DUP1 DUP6 DUP2 MSTORE POP PUSH1 0x3 PUSH0 DUP7 DUP2 MSTORE PUSH1 0x20 ADD SWAP1 DUP2 MSTORE PUSH1 0x20 ADD PUSH0 KECCAK256 PUSH0 DUP3 ADD MLOAD DUP2 PUSH0 ADD SSTORE SWAP1 POP POP PUSH1 0x4 DUP5 SWAP1 DUP1 PUSH1 0x1 DUP2 SLOAD ADD DUP1 DUP3 SSTORE DUP1 SWAP2 POP POP PUSH1 0x1 SWAP1 SUB SWAP1 PUSH0 MSTORE PUSH1 0x20 PUSH0 KECCAK256 ADD PUSH0 SWAP1 SWAP2 SWAP1 SWAP2 SWAP1 SWAP2 POP SSTORE PUSH1 0x1 PUSH0 SWAP1 SLOAD SWAP1 PUSH2 0x100 EXP SWAP1 DIV PUSH20 0xFFFFFFFFFFFFFFFFFFFFFFFFFFFFFFFFFFFFFFFF AND PUSH20 0xFFFFFFFFFFFFFFFFFFFFFFFFFFFFFFFFFFFFFFFF AND PUSH4 0x40C10F19 DUP5 DUP5 PUSH1 0x40 MLOAD DUP4 PUSH4 0xFFFFFFFF AND PUSH1 0xE0 SHL DUP2 MSTORE PUSH1 0x4 ADD PUSH2 0xCFC SWAP3 SWAP2 SWAP1 PUSH2 0x22B1 JUMP JUMPDEST PUSH0 PUSH1 0x40 MLOAD DUP1 DUP4 SUB DUP2 PUSH0 DUP8 DUP1 EXTCODESIZE ISZERO DUP1 ISZERO PUSH2 0xD13 JUMPI PUSH0 DUP1 REVERT JUMPDEST POP GAS CALL ISZERO DUP1 ISZERO PUSH2 0xD25 JUMPI RETURNDATASIZE PUSH0 DUP1 RETURNDATACOPY RETURNDATASIZE PUSH0 REVERT JUMPDEST POP POP POP POP PUSH32 0x5A92C2530F207992057B9C3E544108FFCE3BEDA4A63719F316967C49BF6159D2 DUP5 DUP4 PUSH1 0x40 MLOAD PUSH2 0xD5A SWAP3 SWAP2 SWAP1 PUSH2 0x25D2 JUMP JUMPDEST PUSH1 0x40 MLOAD DUP1 SWAP2 SUB SWAP1 LOG1 POP POP POP POP JUMP JUMPDEST PUSH2 0xD70 PUSH2 0x1A45 JUMP JUMPDEST PUSH1 0x6 PUSH0 DUP6 DUP2 MSTORE PUSH1 0x20 ADD SWAP1 DUP2 MSTORE PUSH1 0x20 ADD PUSH0 KECCAK256 PUSH0 DUP5 DUP2 MSTORE PUSH1 0x20 ADD SWAP1 DUP2 MSTORE PUSH1 0x20 ADD PUSH0 KECCAK256 PUSH0 DUP4 DUP2 MSTORE PUSH1 0x20 ADD SWAP1 DUP2 MSTORE PUSH1 0x20 ADD PUSH0 KECCAK256 PUSH1 0x4 ADD PUSH0 SWAP1 SLOAD SWAP1 PUSH2 0x100 EXP SWAP1 DIV PUSH1 0xFF AND PUSH2 0xDEE JUMPI PUSH1 0x40 MLOAD PUSH32 0x8C379A000000000000000000000000000000000000000000000000000000000 DUP2 MSTORE PUSH1 0x4 ADD PUSH2 0xDE5 SWAP1 PUSH2 0x2643 JUMP JUMPDEST PUSH1 0x40 MLOAD DUP1 SWAP2 SUB SWAP1 REVERT JUMPDEST PUSH1 0x6 PUSH0 DUP6 DUP2 MSTORE PUSH1 0x20 ADD SWAP1 DUP2 MSTORE PUSH1 0x20 ADD PUSH0 KECCAK256 PUSH0 DUP5 DUP2 MSTORE PUSH1 0x20 ADD SWAP1 DUP2 MSTORE PUSH1 0x20 ADD PUSH0 KECCAK256 PUSH0 DUP4 DUP2 MSTORE PUSH1 0x20 ADD SWAP1 DUP2 MSTORE PUSH1 0x20 ADD PUSH0 KECCAK256 PUSH1 0x40 MLOAD DUP1 PUSH1 0xA0 ADD PUSH1 0x40 MSTORE SWAP1 DUP2 PUSH0 DUP3 ADD SLOAD DUP2 MSTORE PUSH1 0x20 ADD PUSH1 0x1 DUP3 ADD SLOAD DUP2 MSTORE PUSH1 0x20 ADD PUSH1 0x2 DUP3 ADD SLOAD DUP2 MSTORE PUSH1 0x20 ADD PUSH1 0x3 DUP3 ADD SLOAD DUP2 MSTORE PUSH1 0x20 ADD PUSH1 0x4 DUP3 ADD PUSH0 SWAP1 SLOAD SWAP1 PUSH2 0x100 EXP SWAP1 DIV PUSH1 0xFF AND ISZERO ISZERO ISZERO ISZERO DUP2 MSTORE POP POP SWAP1 POP SWAP4 SWAP3 POP POP POP JUMP JUMPDEST PUSH1 0x3 PUSH1 0x20 MSTORE DUP1 PUSH0 MSTORE PUSH1 0x40 PUSH0 KECCAK256 PUSH0 SWAP2 POP SWAP1 POP DUP1 PUSH0 ADD SLOAD SWAP1 POP DUP2 JUMP JUMPDEST PUSH0 DUP1 SHL PUSH2 0xE98 DUP2 PUSH2 0x157E JUMP JUMPDEST PUSH2 0xEC2 PUSH32 0xA49807205CE4D355092EF5A8A18F56E8913CF4A201FBE287825B095693C21775 DUP4 PUSH2 0x597 JUMP JUMPDEST POP POP JUMP JUMPDEST PUSH1 0x6 PUSH0 DUP6 DUP2 MSTORE PUSH1 0x20 ADD SWAP1 DUP2 MSTORE PUSH1 0x20 ADD PUSH0 KECCAK256 PUSH0 DUP5 DUP2 MSTORE PUSH1 0x20 ADD SWAP1 DUP2 MSTORE PUSH1 0x20 ADD PUSH0 KECCAK256 PUSH0 DUP4 DUP2 MSTORE PUSH1 0x20 ADD SWAP1 DUP2 MSTORE PUSH1 0x20 ADD PUSH0 KECCAK256 PUSH1 0x4 ADD PUSH0 SWAP1 SLOAD SWAP1 PUSH2 0x100 EXP SWAP1 DIV PUSH1 0xFF AND ISZERO PUSH2 0xF45 JUMPI PUSH1 0x40 MLOAD PUSH32 0x8C379A000000000000000000000000000000000000000000000000000000000 DUP2 MSTORE PUSH1 0x4 ADD PUSH2 0xF3C SWAP1 PUSH2 0x26D1 JUMP JUMPDEST PUSH1 0x40 MLOAD DUP1 SWAP2 SUB SWAP1 REVERT JUMPDEST PUSH0 PUSH1 0x1 PUSH0 SWAP1 SLOAD SWAP1 PUSH2 0x100 EXP SWAP1 DIV PUSH20 0xFFFFFFFFFFFFFFFFFFFFFFFFFFFFFFFFFFFFFFFF AND PUSH20 0xFFFFFFFFFFFFFFFFFFFFFFFFFFFFFFFFFFFFFFFF AND PUSH4 0xDD62ED3E CALLER ADDRESS PUSH1 0x40 MLOAD DUP4 PUSH4 0xFFFFFFFF AND PUSH1 0xE0 SHL DUP2 MSTORE PUSH1 0x4 ADD PUSH2 0xFA2 SWAP3 SWAP2 SWAP1 PUSH2 0x26EF JUMP JUMPDEST PUSH1 0x20 PUSH1 0x40 MLOAD DUP1 DUP4 SUB DUP2 DUP7 GAS STATICCALL ISZERO DUP1 ISZERO PUSH2 0xFBD JUMPI RETURNDATASIZE PUSH0 DUP1 RETURNDATACOPY RETURNDATASIZE PUSH0 REVERT JUMPDEST POP POP POP POP PUSH1 0x40 MLOAD RETURNDATASIZE PUSH1 0x1F NOT PUSH1 0x1F DUP3 ADD AND DUP3 ADD DUP1 PUSH1 0x40 MSTORE POP DUP2 ADD SWAP1 PUSH2 0xFE1 SWAP2 SWAP1 PUSH2 0x272A JUMP JUMPDEST SWAP1 POP DUP2 DUP2 LT ISZERO PUSH2 0x1026 JUMPI PUSH1 0x40 MLOAD PUSH32 0x8C379A000000000000000000000000000000000000000000000000000000000 DUP2 MSTORE PUSH1 0x4 ADD PUSH2 0x101D SWAP1 PUSH2 0x279F JUMP JUMPDEST PUSH1 0x40 MLOAD DUP1 SWAP2 SUB SWAP1 REVERT JUMPDEST PUSH0 PUSH1 0x1 PUSH0 SWAP1 SLOAD SWAP1 PUSH2 0x100 EXP SWAP1 DIV PUSH20 0xFFFFFFFFFFFFFFFFFFFFFFFFFFFFFFFFFFFFFFFF AND PUSH20 0xFFFFFFFFFFFFFFFFFFFFFFFFFFFFFFFFFFFFFFFF AND PUSH4 0x70A08231 CALLER PUSH1 0x40 MLOAD DUP3 PUSH4 0xFFFFFFFF AND PUSH1 0xE0 SHL DUP2 MSTORE PUSH1 0x4 ADD PUSH2 0x1081 SWAP2 SWAP1 PUSH2 0x27BD JUMP JUMPDEST PUSH1 0x20 PUSH1 0x40 MLOAD DUP1 DUP4 SUB DUP2 DUP7 GAS STATICCALL ISZERO DUP1 ISZERO PUSH2 0x109C JUMPI RETURNDATASIZE PUSH0 DUP1 RETURNDATACOPY RETURNDATASIZE PUSH0 REVERT JUMPDEST POP POP POP POP PUSH1 0x40 MLOAD RETURNDATASIZE PUSH1 0x1F NOT PUSH1 0x1F DUP3 ADD AND DUP3 ADD DUP1 PUSH1 0x40 MSTORE POP DUP2 ADD SWAP1 PUSH2 0x10C0 SWAP2 SWAP1 PUSH2 0x272A JUMP JUMPDEST SWAP1 POP DUP3 DUP2 LT ISZERO PUSH2 0x1105 JUMPI PUSH1 0x40 MLOAD PUSH32 0x8C379A000000000000000000000000000000000000000000000000000000000 DUP2 MSTORE PUSH1 0x4 ADD PUSH2 0x10FC SWAP1 PUSH2 0x2820 JUMP JUMPDEST PUSH1 0x40 MLOAD DUP1 SWAP2 SUB SWAP1 REVERT JUMPDEST PUSH1 0x1 PUSH0 SWAP1 SLOAD SWAP1 PUSH2 0x100 EXP SWAP1 DIV PUSH20 0xFFFFFFFFFFFFFFFFFFFFFFFFFFFFFFFFFFFFFFFF AND PUSH20 0xFFFFFFFFFFFFFFFFFFFFFFFFFFFFFFFFFFFFFFFF AND PUSH4 0x23B872DD CALLER ADDRESS DUP7 PUSH1 0x40 MLOAD DUP5 PUSH4 0xFFFFFFFF AND PUSH1 0xE0 SHL DUP2 MSTORE PUSH1 0x4 ADD PUSH2 0x1163 SWAP4 SWAP3 SWAP2 SWAP1 PUSH2 0x283E JUMP JUMPDEST PUSH1 0x20 PUSH1 0x40 MLOAD DUP1 DUP4 SUB DUP2 PUSH0 DUP8 GAS CALL ISZERO DUP1 ISZERO PUSH2 0x117F JUMPI RETURNDATASIZE PUSH0 DUP1 RETURNDATACOPY RETURNDATASIZE PUSH0 REVERT JUMPDEST POP POP POP POP PUSH1 0x40 MLOAD RETURNDATASIZE PUSH1 0x1F NOT PUSH1 0x1F DUP3 ADD AND DUP3 ADD DUP1 PUSH1 0x40 MSTORE POP DUP2 ADD SWAP1 PUSH2 0x11A3 SWAP2 SWAP1 PUSH2 0x2302 JUMP JUMPDEST PUSH2 0x11E2 JUMPI PUSH1 0x40 MLOAD PUSH32 0x8C379A000000000000000000000000000000000000000000000000000000000 DUP2 MSTORE PUSH1 0x4 ADD PUSH2 0x11D9 SWAP1 PUSH2 0x2377 JUMP JUMPDEST PUSH1 0x40 MLOAD DUP1 SWAP2 SUB SWAP1 REVERT JUMPDEST PUSH1 0x40 MLOAD DUP1 PUSH1 0xA0 ADD PUSH1 0x40 MSTORE DUP1 DUP7 DUP2 MSTORE PUSH1 0x20 ADD DUP6 DUP2 MSTORE PUSH1 0x20 ADD DUP5 DUP2 MSTORE PUSH1 0x20 ADD PUSH0 DUP2 MSTORE PUSH1 0x20 ADD PUSH1 0x1 ISZERO ISZERO DUP2 MSTORE POP PUSH1 0x6 PUSH0 DUP9 DUP2 MSTORE PUSH1 0x20 ADD SWAP1 DUP2 MSTORE PUSH1 0x20 ADD PUSH0 KECCAK256 PUSH0 DUP8 DUP2 MSTORE PUSH1 0x20 ADD SWAP1 DUP2 MSTORE PUSH1 0x20 ADD PUSH0 KECCAK256 PUSH0 DUP7 DUP2 MSTORE PUSH1 0x20 ADD SWAP1 DUP2 MSTORE PUSH1 0x20 ADD PUSH0 KECCAK256 PUSH0 DUP3 ADD MLOAD DUP2 PUSH0 ADD SSTORE PUSH1 0x20 DUP3 ADD MLOAD DUP2 PUSH1 0x1 ADD SSTORE PUSH1 0x40 DUP3 ADD MLOAD DUP2 PUSH1 0x2 ADD SSTORE PUSH1 0x60 DUP3 ADD MLOAD DUP2 PUSH1 0x3 ADD SSTORE PUSH1 0x80 DUP3 ADD MLOAD DUP2 PUSH1 0x4 ADD PUSH0 PUSH2 0x100 EXP DUP2 SLOAD DUP2 PUSH1 0xFF MUL NOT AND SWAP1 DUP4 ISZERO ISZERO MUL OR SWAP1 SSTORE POP SWAP1 POP POP DUP4 DUP6 DUP8 PUSH32 0x7BBCA5EFEEBBED029B1684066D1A6E0ADE8EFE8C578AB0890D4B223E6EC5E50E DUP7 PUSH1 0x40 MLOAD PUSH2 0x12B5 SWAP2 SWAP1 PUSH2 0x1C2C JUMP JUMPDEST PUSH1 0x40 MLOAD DUP1 SWAP2 SUB SWAP1 LOG4 POP POP POP POP POP POP JUMP JUMPDEST PUSH32 0xA49807205CE4D355092EF5A8A18F56E8913CF4A201FBE287825B095693C21775 PUSH2 0x12EF DUP2 PUSH2 0x157E JUMP JUMPDEST DUP3 PUSH1 0x1 PUSH0 PUSH2 0x100 EXP DUP2 SLOAD DUP2 PUSH20 0xFFFFFFFFFFFFFFFFFFFFFFFFFFFFFFFFFFFFFFFF MUL NOT AND SWAP1 DUP4 PUSH20 0xFFFFFFFFFFFFFFFFFFFFFFFFFFFFFFFFFFFFFFFF AND MUL OR SWAP1 SSTORE POP DUP2 PUSH1 0x2 PUSH0 PUSH2 0x100 EXP DUP2 SLOAD DUP2 PUSH20 0xFFFFFFFFFFFFFFFFFFFFFFFFFFFFFFFFFFFFFFFF MUL NOT AND SWAP1 DUP4 PUSH20 0xFFFFFFFFFFFFFFFFFFFFFFFFFFFFFFFFFFFFFFFF AND MUL OR SWAP1 SSTORE POP POP POP POP JUMP JUMPDEST PUSH2 0x137D DUP3 PUSH2 0x57B JUMP JUMPDEST PUSH2 0x1386 DUP2 PUSH2 0x157E JUMP JUMPDEST PUSH2 0x1390 DUP4 DUP4 PUSH2 0x1673 JUMP JUMPDEST POP POP POP JUMP JUMPDEST PUSH1 0x1 PUSH0 SWAP1 SLOAD SWAP1 PUSH2 0x100 EXP SWAP1 DIV PUSH20 0xFFFFFFFFFFFFFFFFFFFFFFFFFFFFFFFFFFFFFFFF AND DUP2 JUMP JUMPDEST PUSH32 0xA49807205CE4D355092EF5A8A18F56E8913CF4A201FBE287825B095693C21775 PUSH2 0x13E4 DUP2 PUSH2 0x157E JUMP JUMPDEST PUSH1 0x6 PUSH0 DUP7 DUP2 MSTORE PUSH1 0x20 ADD SWAP1 DUP2 MSTORE PUSH1 0x20 ADD PUSH0 KECCAK256 PUSH0 DUP6 DUP2 MSTORE PUSH1 0x20 ADD SWAP1 DUP2 MSTORE PUSH1 0x20 ADD PUSH0 KECCAK256 PUSH0 DUP5 DUP2 MSTORE PUSH1 0x20 ADD SWAP1 DUP2 MSTORE PUSH1 0x20 ADD PUSH0 KECCAK256 PUSH1 0x4 ADD PUSH0 SWAP1 SLOAD SWAP1 PUSH2 0x100 EXP SWAP1 DIV PUSH1 0xFF AND PUSH2 0x1462 JUMPI PUSH1 0x40 MLOAD PUSH32 0x8C379A000000000000000000000000000000000000000000000000000000000 DUP2 MSTORE PUSH1 0x4 ADD PUSH2 0x1459 SWAP1 PUSH2 0x28BD JUMP JUMPDEST PUSH1 0x40 MLOAD DUP1 SWAP2 SUB SWAP1 REVERT JUMPDEST PUSH1 0x6 PUSH0 DUP7 DUP2 MSTORE PUSH1 0x20 ADD SWAP1 DUP2 MSTORE PUSH1 0x20 ADD PUSH0 KECCAK256 PUSH0 DUP6 DUP2 MSTORE PUSH1 0x20 ADD SWAP1 DUP2 MSTORE PUSH1 0x20 ADD PUSH0 KECCAK256 PUSH0 DUP5 DUP2 MSTORE PUSH1 0x20 ADD SWAP1 DUP2 MSTORE PUSH1 0x20 ADD PUSH0 KECCAK256 PUSH1 0x3 ADD SLOAD DUP3 GT ISZERO PUSH2 0x14D4 JUMPI DUP2 PUSH1 0x6 PUSH0 DUP8 DUP2 MSTORE PUSH1 0x20 ADD SWAP1 DUP2 MSTORE PUSH1 0x20 ADD PUSH0 KECCAK256 PUSH0 DUP7 DUP2 MSTORE PUSH1 0x20 ADD SWAP1 DUP2 MSTORE PUSH1 0x20 ADD PUSH0 KECCAK256 PUSH0 DUP6 DUP2 MSTORE PUSH1 0x20 ADD SWAP1 DUP2 MSTORE PUSH1 0x20 ADD PUSH0 KECCAK256 PUSH1 0x3 ADD DUP2 SWAP1 SSTORE POP JUMPDEST DUP3 DUP5 DUP7 PUSH32 0x2BBC9AD1871F4B99168AA3FEBE254B9069558FF96ED7746D1677869AFA38243F DUP6 PUSH1 0x40 MLOAD PUSH2 0x1506 SWAP2 SWAP1 PUSH2 0x1C2C JUMP JUMPDEST PUSH1 0x40 MLOAD DUP1 SWAP2 SUB SWAP1 LOG4 POP POP POP POP POP JUMP JUMPDEST PUSH0 PUSH32 0x1FFC9A700000000000000000000000000000000000000000000000000000000 PUSH28 0xFFFFFFFFFFFFFFFFFFFFFFFFFFFFFFFFFFFFFFFFFFFFFFFFFFFFFFFF NOT AND DUP3 PUSH28 0xFFFFFFFFFFFFFFFFFFFFFFFFFFFFFFFFFFFFFFFFFFFFFFFFFFFFFFFF NOT AND EQ SWAP1 POP SWAP2 SWAP1 POP JUMP JUMPDEST PUSH2 0x158F DUP2 PUSH2 0x158A PUSH2 0x166C JUMP JUMPDEST PUSH2 0x174D JUMP JUMPDEST POP JUMP JUMPDEST PUSH2 0x159C DUP3 DUP3 PUSH2 0xAA4 JUMP JUMPDEST PUSH2 0x1668 JUMPI PUSH1 0x1 PUSH0 DUP1 DUP5 DUP2 MSTORE PUSH1 0x20 ADD SWAP1 DUP2 MSTORE PUSH1 0x20 ADD PUSH0 KECCAK256 PUSH0 ADD PUSH0 DUP4 PUSH20 0xFFFFFFFFFFFFFFFFFFFFFFFFFFFFFFFFFFFFFFFF AND PUSH20 0xFFFFFFFFFFFFFFFFFFFFFFFFFFFFFFFFFFFFFFFF AND DUP2 MSTORE PUSH1 0x20 ADD SWAP1 DUP2 MSTORE PUSH1 0x20 ADD PUSH0 KECCAK256 PUSH0 PUSH2 0x100 EXP DUP2 SLOAD DUP2 PUSH1 0xFF MUL NOT AND SWAP1 DUP4 ISZERO ISZERO MUL OR SWAP1 SSTORE POP PUSH2 0x160D PUSH2 0x166C JUMP JUMPDEST PUSH20 0xFFFFFFFFFFFFFFFFFFFFFFFFFFFFFFFFFFFFFFFF AND DUP2 PUSH20 0xFFFFFFFFFFFFFFFFFFFFFFFFFFFFFFFFFFFFFFFF AND DUP4 PUSH32 0x2F8788117E7EFF1D82E926EC794901D17C78024A50270940304540A733656F0D PUSH1 0x40 MLOAD PUSH1 0x40 MLOAD DUP1 SWAP2 SUB SWAP1 LOG4 JUMPDEST POP POP JUMP JUMPDEST PUSH0 CALLER SWAP1 POP SWAP1 JUMP JUMPDEST PUSH2 0x167D DUP3 DUP3 PUSH2 0xAA4 JUMP JUMPDEST ISZERO PUSH2 0x1749 JUMPI PUSH0 DUP1 PUSH0 DUP5 DUP2 MSTORE PUSH1 0x20 ADD SWAP1 DUP2 MSTORE PUSH1 0x20 ADD PUSH0 KECCAK256 PUSH0 ADD PUSH0 DUP4 PUSH20 0xFFFFFFFFFFFFFFFFFFFFFFFFFFFFFFFFFFFFFFFF AND PUSH20 0xFFFFFFFFFFFFFFFFFFFFFFFFFFFFFFFFFFFFFFFF AND DUP2 MSTORE PUSH1 0x20 ADD SWAP1 DUP2 MSTORE PUSH1 0x20 ADD PUSH0 KECCAK256 PUSH0 PUSH2 0x100 EXP DUP2 SLOAD DUP2 PUSH1 0xFF MUL NOT AND SWAP1 DUP4 ISZERO ISZERO MUL OR SWAP1 SSTORE POP PUSH2 0x16EE PUSH2 0x166C JUMP JUMPDEST PUSH20 0xFFFFFFFFFFFFFFFFFFFFFFFFFFFFFFFFFFFFFFFF AND DUP2 PUSH20 0xFFFFFFFFFFFFFFFFFFFFFFFFFFFFFFFFFFFFFFFF AND DUP4 PUSH32 0xF6391F5C32D9C69D2A47EA670B442974B53935D1EDC7FD64EB21E047A839171B PUSH1 0x40 MLOAD PUSH1 0x40 MLOAD DUP1 SWAP2 SUB SWAP1 LOG4 JUMPDEST POP POP JUMP JUMPDEST PUSH2 0x1757 DUP3 DUP3 PUSH2 0xAA4 JUMP JUMPDEST PUSH2 0x17CD JUMPI PUSH2 0x1764 DUP2 PUSH2 0x17D1 JUMP JUMPDEST PUSH2 0x1771 DUP4 PUSH0 SHR PUSH1 0x20 PUSH2 0x17FE JUMP JUMPDEST PUSH1 0x40 MLOAD PUSH1 0x20 ADD PUSH2 0x1782 SWAP3 SWAP2 SWAP1 PUSH2 0x29C1 JUMP JUMPDEST PUSH1 0x40 MLOAD PUSH1 0x20 DUP2 DUP4 SUB SUB DUP2 MSTORE SWAP1 PUSH1 0x40 MSTORE PUSH1 0x40 MLOAD PUSH32 0x8C379A000000000000000000000000000000000000000000000000000000000 DUP2 MSTORE PUSH1 0x4 ADD PUSH2 0x17C4 SWAP2 SWAP1 PUSH2 0x2A42 JUMP JUMPDEST PUSH1 0x40 MLOAD DUP1 SWAP2 SUB SWAP1 REVERT JUMPDEST POP POP JUMP JUMPDEST PUSH1 0x60 PUSH2 0x17F7 DUP3 PUSH20 0xFFFFFFFFFFFFFFFFFFFFFFFFFFFFFFFFFFFFFFFF AND PUSH1 0x14 PUSH1 0xFF AND PUSH2 0x17FE JUMP JUMPDEST SWAP1 POP SWAP2 SWAP1 POP JUMP JUMPDEST PUSH1 0x60 PUSH0 PUSH1 0x2 DUP4 PUSH1 0x2 PUSH2 0x1810 SWAP2 SWAP1 PUSH2 0x2A8F JUMP JUMPDEST PUSH2 0x181A SWAP2 SWAP1 PUSH2 0x2AD0 JUMP JUMPDEST PUSH8 0xFFFFFFFFFFFFFFFF DUP2 GT ISZERO PUSH2 0x1833 JUMPI PUSH2 0x1832 PUSH2 0x2B03 JUMP JUMPDEST JUMPDEST PUSH1 0x40 MLOAD SWAP1 DUP1 DUP3 MSTORE DUP1 PUSH1 0x1F ADD PUSH1 0x1F NOT AND PUSH1 0x20 ADD DUP3 ADD PUSH1 0x40 MSTORE DUP1 ISZERO PUSH2 0x1865 JUMPI DUP2 PUSH1 0x20 ADD PUSH1 0x1 DUP3 MUL DUP1 CALLDATASIZE DUP4 CALLDATACOPY DUP1 DUP3 ADD SWAP2 POP POP SWAP1 POP JUMPDEST POP SWAP1 POP PUSH32 0x3000000000000000000000000000000000000000000000000000000000000000 DUP2 PUSH0 DUP2 MLOAD DUP2 LT PUSH2 0x189C JUMPI PUSH2 0x189B PUSH2 0x2275 JUMP JUMPDEST JUMPDEST PUSH1 0x20 ADD ADD SWAP1 PUSH31 0xFFFFFFFFFFFFFFFFFFFFFFFFFFFFFFFFFFFFFFFFFFFFFFFFFFFFFFFFFFFFFF NOT AND SWAP1 DUP2 PUSH0 BYTE SWAP1 MSTORE8 POP PUSH32 0x7800000000000000000000000000000000000000000000000000000000000000 DUP2 PUSH1 0x1 DUP2 MLOAD DUP2 LT PUSH2 0x18FF JUMPI PUSH2 0x18FE PUSH2 0x2275 JUMP JUMPDEST JUMPDEST PUSH1 0x20 ADD ADD SWAP1 PUSH31 0xFFFFFFFFFFFFFFFFFFFFFFFFFFFFFFFFFFFFFFFFFFFFFFFFFFFFFFFFFFFFFF NOT AND SWAP1 DUP2 PUSH0 BYTE SWAP1 MSTORE8 POP PUSH0 PUSH1 0x1 DUP5 PUSH1 0x2 PUSH2 0x193D SWAP2 SWAP1 PUSH2 0x2A8F JUMP JUMPDEST PUSH2 0x1947 SWAP2 SWAP1 PUSH2 0x2AD0 JUMP JUMPDEST SWAP1 POP JUMPDEST PUSH1 0x1 DUP2 GT ISZERO PUSH2 0x19E6 JUMPI PUSH32 0x3031323334353637383961626364656600000000000000000000000000000000 PUSH1 0xF DUP7 AND PUSH1 0x10 DUP2 LT PUSH2 0x1989 JUMPI PUSH2 0x1988 PUSH2 0x2275 JUMP JUMPDEST JUMPDEST BYTE PUSH1 0xF8 SHL DUP3 DUP3 DUP2 MLOAD DUP2 LT PUSH2 0x19A0 JUMPI PUSH2 0x199F PUSH2 0x2275 JUMP JUMPDEST JUMPDEST PUSH1 0x20 ADD ADD SWAP1 PUSH31 0xFFFFFFFFFFFFFFFFFFFFFFFFFFFFFFFFFFFFFFFFFFFFFFFFFFFFFFFFFFFFFF NOT AND SWAP1 DUP2 PUSH0 BYTE SWAP1 MSTORE8 POP PUSH1 0x4 DUP6 SWAP1 SHR SWAP5 POP DUP1 PUSH2 0x19DF SWAP1 PUSH2 0x2B30 JUMP JUMPDEST SWAP1 POP PUSH2 0x194A JUMP JUMPDEST POP PUSH0 DUP5 EQ PUSH2 0x1A29 JUMPI PUSH1 0x40 MLOAD PUSH32 0x8C379A000000000000000000000000000000000000000000000000000000000 DUP2 MSTORE PUSH1 0x4 ADD PUSH2 0x1A20 SWAP1 PUSH2 0x2BA1 JUMP JUMPDEST PUSH1 0x40 MLOAD DUP1 SWAP2 SUB SWAP1 REVERT JUMPDEST DUP1 SWAP2 POP POP SWAP3 SWAP2 POP POP JUMP JUMPDEST PUSH1 0x40 MLOAD DUP1 PUSH1 0x20 ADD PUSH1 0x40 MSTORE DUP1 PUSH0 DUP2 MSTORE POP SWAP1 JUMP JUMPDEST PUSH1 0x40 MLOAD DUP1 PUSH1 0xA0 ADD PUSH1 0x40 MSTORE DUP1 PUSH0 DUP2 MSTORE PUSH1 0x20 ADD PUSH0 DUP2 MSTORE PUSH1 0x20 ADD PUSH0 DUP2 MSTORE PUSH1 0x20 ADD PUSH0 DUP2 MSTORE PUSH1 0x20 ADD PUSH0 ISZERO ISZERO DUP2 MSTORE POP SWAP1 JUMP JUMPDEST PUSH0 DUP1 REVERT JUMPDEST PUSH0 DUP1 REVERT JUMPDEST PUSH0 PUSH32 0xFFFFFFFF00000000000000000000000000000000000000000000000000000000 DUP3 AND SWAP1 POP SWAP2 SWAP1 POP JUMP JUMPDEST PUSH2 0x1AAD DUP2 PUSH2 0x1A79 JUMP JUMPDEST DUP2 EQ PUSH2 0x1AB7 JUMPI PUSH0 DUP1 REVERT JUMPDEST POP JUMP JUMPDEST PUSH0 DUP2 CALLDATALOAD SWAP1 POP PUSH2 0x1AC8 DUP2 PUSH2 0x1AA4 JUMP JUMPDEST SWAP3 SWAP2 POP POP JUMP JUMPDEST PUSH0 PUSH1 0x20 DUP3 DUP5 SUB SLT ISZERO PUSH2 0x1AE3 JUMPI PUSH2 0x1AE2 PUSH2 0x1A71 JUMP JUMPDEST JUMPDEST PUSH0 PUSH2 0x1AF0 DUP5 DUP3 DUP6 ADD PUSH2 0x1ABA JUMP JUMPDEST SWAP2 POP POP SWAP3 SWAP2 POP POP JUMP JUMPDEST PUSH0 DUP2 ISZERO ISZERO SWAP1 POP SWAP2 SWAP1 POP JUMP JUMPDEST PUSH2 0x1B0D DUP2 PUSH2 0x1AF9 JUMP JUMPDEST DUP3 MSTORE POP POP JUMP JUMPDEST PUSH0 PUSH1 0x20 DUP3 ADD SWAP1 POP PUSH2 0x1B26 PUSH0 DUP4 ADD DUP5 PUSH2 0x1B04 JUMP JUMPDEST SWAP3 SWAP2 POP POP JUMP JUMPDEST PUSH0 PUSH20 0xFFFFFFFFFFFFFFFFFFFFFFFFFFFFFFFFFFFFFFFF DUP3 AND SWAP1 POP SWAP2 SWAP1 POP JUMP JUMPDEST PUSH0 DUP2 SWAP1 POP SWAP2 SWAP1 POP JUMP JUMPDEST PUSH0 PUSH2 0x1B6E PUSH2 0x1B69 PUSH2 0x1B64 DUP5 PUSH2 0x1B2C JUMP JUMPDEST PUSH2 0x1B4B JUMP JUMPDEST PUSH2 0x1B2C JUMP JUMPDEST SWAP1 POP SWAP2 SWAP1 POP JUMP JUMPDEST PUSH0 PUSH2 0x1B7F DUP3 PUSH2 0x1B54 JUMP JUMPDEST SWAP1 POP SWAP2 SWAP1 POP JUMP JUMPDEST PUSH0 PUSH2 0x1B90 DUP3 PUSH2 0x1B75 JUMP JUMPDEST SWAP1 POP SWAP2 SWAP1 POP JUMP JUMPDEST PUSH2 0x1BA0 DUP2 PUSH2 0x1B86 JUMP JUMPDEST DUP3 MSTORE POP POP JUMP JUMPDEST PUSH0 PUSH1 0x20 DUP3 ADD SWAP1 POP PUSH2 0x1BB9 PUSH0 DUP4 ADD DUP5 PUSH2 0x1B97 JUMP JUMPDEST SWAP3 SWAP2 POP POP JUMP JUMPDEST PUSH0 DUP2 SWAP1 POP SWAP2 SWAP1 POP JUMP JUMPDEST PUSH2 0x1BD1 DUP2 PUSH2 0x1BBF JUMP JUMPDEST DUP2 EQ PUSH2 0x1BDB JUMPI PUSH0 DUP1 REVERT JUMPDEST POP JUMP JUMPDEST PUSH0 DUP2 CALLDATALOAD SWAP1 POP PUSH2 0x1BEC DUP2 PUSH2 0x1BC8 JUMP JUMPDEST SWAP3 SWAP2 POP POP JUMP JUMPDEST PUSH0 PUSH1 0x20 DUP3 DUP5 SUB SLT ISZERO PUSH2 0x1C07 JUMPI PUSH2 0x1C06 PUSH2 0x1A71 JUMP JUMPDEST JUMPDEST PUSH0 PUSH2 0x1C14 DUP5 DUP3 DUP6 ADD PUSH2 0x1BDE JUMP JUMPDEST SWAP2 POP POP SWAP3 SWAP2 POP POP JUMP JUMPDEST PUSH2 0x1C26 DUP2 PUSH2 0x1BBF JUMP JUMPDEST DUP3 MSTORE POP POP JUMP JUMPDEST PUSH0 PUSH1 0x20 DUP3 ADD SWAP1 POP PUSH2 0x1C3F PUSH0 DUP4 ADD DUP5 PUSH2 0x1C1D JUMP JUMPDEST SWAP3 SWAP2 POP POP JUMP JUMPDEST PUSH0 DUP2 SWAP1 POP SWAP2 SWAP1 POP JUMP JUMPDEST PUSH2 0x1C57 DUP2 PUSH2 0x1C45 JUMP JUMPDEST DUP2 EQ PUSH2 0x1C61 JUMPI PUSH0 DUP1 REVERT JUMPDEST POP JUMP JUMPDEST PUSH0 DUP2 CALLDATALOAD SWAP1 POP PUSH2 0x1C72 DUP2 PUSH2 0x1C4E JUMP JUMPDEST SWAP3 SWAP2 POP POP JUMP JUMPDEST PUSH0 PUSH1 0x20 DUP3 DUP5 SUB SLT ISZERO PUSH2 0x1C8D JUMPI PUSH2 0x1C8C PUSH2 0x1A71 JUMP JUMPDEST JUMPDEST PUSH0 PUSH2 0x1C9A DUP5 DUP3 DUP6 ADD PUSH2 0x1C64 JUMP JUMPDEST SWAP2 POP POP SWAP3 SWAP2 POP POP JUMP JUMPDEST PUSH2 0x1CAC DUP2 PUSH2 0x1C45 JUMP JUMPDEST DUP3 MSTORE POP POP JUMP JUMPDEST PUSH0 PUSH1 0x20 DUP3 ADD SWAP1 POP PUSH2 0x1CC5 PUSH0 DUP4 ADD DUP5 PUSH2 0x1CA3 JUMP JUMPDEST SWAP3 SWAP2 POP POP JUMP JUMPDEST PUSH0 PUSH2 0x1CD5 DUP3 PUSH2 0x1B2C JUMP JUMPDEST SWAP1 POP SWAP2 SWAP1 POP JUMP JUMPDEST PUSH2 0x1CE5 DUP2 PUSH2 0x1CCB JUMP JUMPDEST DUP2 EQ PUSH2 0x1CEF JUMPI PUSH0 DUP1 REVERT JUMPDEST POP JUMP JUMPDEST PUSH0 DUP2 CALLDATALOAD SWAP1 POP PUSH2 0x1D00 DUP2 PUSH2 0x1CDC JUMP JUMPDEST SWAP3 SWAP2 POP POP JUMP JUMPDEST PUSH0 DUP1 PUSH1 0x40 DUP4 DUP6 SUB SLT ISZERO PUSH2 0x1D1C JUMPI PUSH2 0x1D1B PUSH2 0x1A71 JUMP JUMPDEST JUMPDEST PUSH0 PUSH2 0x1D29 DUP6 DUP3 DUP7 ADD PUSH2 0x1C64 JUMP JUMPDEST SWAP3 POP POP PUSH1 0x20 PUSH2 0x1D3A DUP6 DUP3 DUP7 ADD PUSH2 0x1CF2 JUMP JUMPDEST SWAP2 POP POP SWAP3 POP SWAP3 SWAP1 POP JUMP JUMPDEST PUSH0 DUP1 PUSH0 PUSH1 0x60 DUP5 DUP7 SUB SLT ISZERO PUSH2 0x1D5B JUMPI PUSH2 0x1D5A PUSH2 0x1A71 JUMP JUMPDEST JUMPDEST PUSH0 PUSH2 0x1D68 DUP7 DUP3 DUP8 ADD PUSH2 0x1BDE JUMP JUMPDEST SWAP4 POP POP PUSH1 0x20 PUSH2 0x1D79 DUP7 DUP3 DUP8 ADD PUSH2 0x1BDE JUMP JUMPDEST SWAP3 POP POP PUSH1 0x40 PUSH2 0x1D8A DUP7 DUP3 DUP8 ADD PUSH2 0x1BDE JUMP JUMPDEST SWAP2 POP POP SWAP3 POP SWAP3 POP SWAP3 JUMP JUMPDEST PUSH0 PUSH1 0xA0 DUP3 ADD SWAP1 POP PUSH2 0x1DA7 PUSH0 DUP4 ADD DUP9 PUSH2 0x1C1D JUMP JUMPDEST PUSH2 0x1DB4 PUSH1 0x20 DUP4 ADD DUP8 PUSH2 0x1C1D JUMP JUMPDEST PUSH2 0x1DC1 PUSH1 0x40 DUP4 ADD DUP7 PUSH2 0x1C1D JUMP JUMPDEST PUSH2 0x1DCE PUSH1 0x60 DUP4 ADD DUP6 PUSH2 0x1C1D JUMP JUMPDEST PUSH2 0x1DDB PUSH1 0x80 DUP4 ADD DUP5 PUSH2 0x1B04 JUMP JUMPDEST SWAP7 SWAP6 POP POP POP POP POP POP JUMP JUMPDEST PUSH0 DUP1 REVERT JUMPDEST PUSH0 DUP1 REVERT JUMPDEST PUSH0 DUP1 REVERT JUMPDEST PUSH0 DUP1 DUP4 PUSH1 0x1F DUP5 ADD SLT PUSH2 0x1E06 JUMPI PUSH2 0x1E05 PUSH2 0x1DE5 JUMP JUMPDEST JUMPDEST DUP3 CALLDATALOAD SWAP1 POP PUSH8 0xFFFFFFFFFFFFFFFF DUP2 GT ISZERO PUSH2 0x1E23 JUMPI PUSH2 0x1E22 PUSH2 0x1DE9 JUMP JUMPDEST JUMPDEST PUSH1 0x20 DUP4 ADD SWAP2 POP DUP4 PUSH1 0x20 DUP3 MUL DUP4 ADD GT ISZERO PUSH2 0x1E3F JUMPI PUSH2 0x1E3E PUSH2 0x1DED JUMP JUMPDEST JUMPDEST SWAP3 POP SWAP3 SWAP1 POP JUMP JUMPDEST PUSH0 DUP1 DUP4 PUSH1 0x1F DUP5 ADD SLT PUSH2 0x1E5B JUMPI PUSH2 0x1E5A PUSH2 0x1DE5 JUMP JUMPDEST JUMPDEST DUP3 CALLDATALOAD SWAP1 POP PUSH8 0xFFFFFFFFFFFFFFFF DUP2 GT ISZERO PUSH2 0x1E78 JUMPI PUSH2 0x1E77 PUSH2 0x1DE9 JUMP JUMPDEST JUMPDEST PUSH1 0x20 DUP4 ADD SWAP2 POP DUP4 PUSH1 0x20 DUP3 MUL DUP4 ADD GT ISZERO PUSH2 0x1E94 JUMPI PUSH2 0x1E93 PUSH2 0x1DED JUMP JUMPDEST JUMPDEST SWAP3 POP SWAP3 SWAP1 POP JUMP JUMPDEST PUSH0 DUP1 PUSH0 DUP1 PUSH1 0x40 DUP6 DUP8 SUB SLT ISZERO PUSH2 0x1EB3 JUMPI PUSH2 0x1EB2 PUSH2 0x1A71 JUMP JUMPDEST JUMPDEST PUSH0 DUP6 ADD CALLDATALOAD PUSH8 0xFFFFFFFFFFFFFFFF DUP2 GT ISZERO PUSH2 0x1ED0 JUMPI PUSH2 0x1ECF PUSH2 0x1A75 JUMP JUMPDEST JUMPDEST PUSH2 0x1EDC DUP8 DUP3 DUP9 ADD PUSH2 0x1DF1 JUMP JUMPDEST SWAP5 POP SWAP5 POP POP PUSH1 0x20 DUP6 ADD CALLDATALOAD PUSH8 0xFFFFFFFFFFFFFFFF DUP2 GT ISZERO PUSH2 0x1EFF JUMPI PUSH2 0x1EFE PUSH2 0x1A75 JUMP JUMPDEST JUMPDEST PUSH2 0x1F0B DUP8 DUP3 DUP9 ADD PUSH2 0x1E46 JUMP JUMPDEST SWAP3 POP SWAP3 POP POP SWAP3 SWAP6 SWAP2 SWAP5 POP SWAP3 POP JUMP JUMPDEST PUSH0 DUP1 PUSH0 DUP1 PUSH1 0x80 DUP6 DUP8 SUB SLT ISZERO PUSH2 0x1F31 JUMPI PUSH2 0x1F30 PUSH2 0x1A71 JUMP JUMPDEST JUMPDEST PUSH0 PUSH2 0x1F3E DUP8 DUP3 DUP9 ADD PUSH2 0x1BDE JUMP JUMPDEST SWAP5 POP POP PUSH1 0x20 PUSH2 0x1F4F DUP8 DUP3 DUP9 ADD PUSH2 0x1BDE JUMP JUMPDEST SWAP4 POP POP PUSH1 0x40 PUSH2 0x1F60 DUP8 DUP3 DUP9 ADD PUSH2 0x1BDE JUMP JUMPDEST SWAP3 POP POP PUSH1 0x60 PUSH2 0x1F71 DUP8 DUP3 DUP9 ADD PUSH2 0x1BDE JUMP JUMPDEST SWAP2 POP POP SWAP3 SWAP6 SWAP2 SWAP5 POP SWAP3 POP JUMP JUMPDEST PUSH0 PUSH1 0x80 DUP3 ADD SWAP1 POP PUSH2 0x1F90 PUSH0 DUP4 ADD DUP8 PUSH2 0x1C1D JUMP JUMPDEST PUSH2 0x1F9D PUSH1 0x20 DUP4 ADD DUP7 PUSH2 0x1C1D JUMP JUMPDEST PUSH2 0x1FAA PUSH1 0x40 DUP4 ADD DUP6 PUSH2 0x1C1D JUMP JUMPDEST PUSH2 0x1FB7 PUSH1 0x60 DUP4 ADD DUP5 PUSH2 0x1B04 JUMP JUMPDEST SWAP6 SWAP5 POP POP POP POP POP JUMP JUMPDEST PUSH0 PUSH1 0x20 DUP3 DUP5 SUB SLT ISZERO PUSH2 0x1FD5 JUMPI PUSH2 0x1FD4 PUSH2 0x1A71 JUMP JUMPDEST JUMPDEST PUSH0 PUSH2 0x1FE2 DUP5 DUP3 DUP6 ADD PUSH2 0x1CF2 JUMP JUMPDEST SWAP2 POP POP SWAP3 SWAP2 POP POP JUMP JUMPDEST PUSH2 0x1FF4 DUP2 PUSH2 0x1BBF JUMP JUMPDEST DUP3 MSTORE POP POP JUMP JUMPDEST PUSH1 0x20 DUP3 ADD PUSH0 DUP3 ADD MLOAD PUSH2 0x200E PUSH0 DUP6 ADD DUP3 PUSH2 0x1FEB JUMP JUMPDEST POP POP POP POP JUMP JUMPDEST PUSH0 PUSH1 0x20 DUP3 ADD SWAP1 POP PUSH2 0x2027 PUSH0 DUP4 ADD DUP5 PUSH2 0x1FFA JUMP JUMPDEST SWAP3 SWAP2 POP POP JUMP JUMPDEST PUSH0 DUP1 PUSH0 PUSH1 0x60 DUP5 DUP7 SUB SLT ISZERO PUSH2 0x2044 JUMPI PUSH2 0x2043 PUSH2 0x1A71 JUMP JUMPDEST JUMPDEST PUSH0 PUSH2 0x2051 DUP7 DUP3 DUP8 ADD PUSH2 0x1BDE JUMP JUMPDEST SWAP4 POP POP PUSH1 0x20 PUSH2 0x2062 DUP7 DUP3 DUP8 ADD PUSH2 0x1CF2 JUMP JUMPDEST SWAP3 POP POP PUSH1 0x40 PUSH2 0x2073 DUP7 DUP3 DUP8 ADD PUSH2 0x1BDE JUMP JUMPDEST SWAP2 POP POP SWAP3 POP SWAP3 POP SWAP3 JUMP JUMPDEST PUSH2 0x2086 DUP2 PUSH2 0x1AF9 JUMP JUMPDEST DUP3 MSTORE POP POP JUMP JUMPDEST PUSH1 0xA0 DUP3 ADD PUSH0 DUP3 ADD MLOAD PUSH2 0x20A0 PUSH0 DUP6 ADD DUP3 PUSH2 0x1FEB JUMP JUMPDEST POP PUSH1 0x20 DUP3 ADD MLOAD PUSH2 0x20B3 PUSH1 0x20 DUP6 ADD DUP3 PUSH2 0x1FEB JUMP JUMPDEST POP PUSH1 0x40 DUP3 ADD MLOAD PUSH2 0x20C6 PUSH1 0x40 DUP6 ADD DUP3 PUSH2 0x1FEB JUMP JUMPDEST POP PUSH1 0x60 DUP3 ADD MLOAD PUSH2 0x20D9 PUSH1 0x60 DUP6 ADD DUP3 PUSH2 0x1FEB JUMP JUMPDEST POP PUSH1 0x80 DUP3 ADD MLOAD PUSH2 0x20EC PUSH1 0x80 DUP6 ADD DUP3 PUSH2 0x207D JUMP JUMPDEST POP POP POP POP JUMP JUMPDEST PUSH0 PUSH1 0xA0 DUP3 ADD SWAP1 POP PUSH2 0x2105 PUSH0 DUP4 ADD DUP5 PUSH2 0x208C JUMP JUMPDEST SWAP3 SWAP2 POP POP JUMP JUMPDEST PUSH0 DUP1 PUSH1 0x40 DUP4 DUP6 SUB SLT ISZERO PUSH2 0x2121 JUMPI PUSH2 0x2120 PUSH2 0x1A71 JUMP JUMPDEST JUMPDEST PUSH0 PUSH2 0x212E DUP6 DUP3 DUP7 ADD PUSH2 0x1CF2 JUMP JUMPDEST SWAP3 POP POP PUSH1 0x20 PUSH2 0x213F DUP6 DUP3 DUP7 ADD PUSH2 0x1CF2 JUMP JUMPDEST SWAP2 POP POP SWAP3 POP SWAP3 SWAP1 POP JUMP JUMPDEST PUSH0 DUP3 DUP3 MSTORE PUSH1 0x20 DUP3 ADD SWAP1 POP SWAP3 SWAP2 POP POP JUMP JUMPDEST PUSH32 0x416363657373436F6E74726F6C3A2063616E206F6E6C792072656E6F756E6365 PUSH0 DUP3 ADD MSTORE PUSH32 0x20726F6C657320666F722073656C660000000000000000000000000000000000 PUSH1 0x20 DUP3 ADD MSTORE POP JUMP JUMPDEST PUSH0 PUSH2 0x21B3 PUSH1 0x2F DUP4 PUSH2 0x2149 JUMP JUMPDEST SWAP2 POP PUSH2 0x21BE DUP3 PUSH2 0x2159 JUMP JUMPDEST PUSH1 0x40 DUP3 ADD SWAP1 POP SWAP2 SWAP1 POP JUMP JUMPDEST PUSH0 PUSH1 0x20 DUP3 ADD SWAP1 POP DUP2 DUP2 SUB PUSH0 DUP4 ADD MSTORE PUSH2 0x21E0 DUP2 PUSH2 0x21A7 JUMP JUMPDEST SWAP1 POP SWAP2 SWAP1 POP JUMP JUMPDEST PUSH32 0x526563697069656E747320616E6420746F6B656E20616D6F756E7473206C656E PUSH0 DUP3 ADD MSTORE PUSH32 0x677468206D69736D617463680000000000000000000000000000000000000000 PUSH1 0x20 DUP3 ADD MSTORE POP JUMP JUMPDEST PUSH0 PUSH2 0x2241 PUSH1 0x2C DUP4 PUSH2 0x2149 JUMP JUMPDEST SWAP2 POP PUSH2 0x224C DUP3 PUSH2 0x21E7 JUMP JUMPDEST PUSH1 0x40 DUP3 ADD SWAP1 POP SWAP2 SWAP1 POP JUMP JUMPDEST PUSH0 PUSH1 0x20 DUP3 ADD SWAP1 POP DUP2 DUP2 SUB PUSH0 DUP4 ADD MSTORE PUSH2 0x226E DUP2 PUSH2 0x2235 JUMP JUMPDEST SWAP1 POP SWAP2 SWAP1 POP JUMP JUMPDEST PUSH32 0x4E487B7100000000000000000000000000000000000000000000000000000000 PUSH0 MSTORE PUSH1 0x32 PUSH1 0x4 MSTORE PUSH1 0x24 PUSH0 REVERT JUMPDEST PUSH2 0x22AB DUP2 PUSH2 0x1CCB JUMP JUMPDEST DUP3 MSTORE POP POP JUMP JUMPDEST PUSH0 PUSH1 0x40 DUP3 ADD SWAP1 POP PUSH2 0x22C4 PUSH0 DUP4 ADD DUP6 PUSH2 0x22A2 JUMP JUMPDEST PUSH2 0x22D1 PUSH1 0x20 DUP4 ADD DUP5 PUSH2 0x1C1D JUMP JUMPDEST SWAP4 SWAP3 POP POP POP JUMP JUMPDEST PUSH2 0x22E1 DUP2 PUSH2 0x1AF9 JUMP JUMPDEST DUP2 EQ PUSH2 0x22EB JUMPI PUSH0 DUP1 REVERT JUMPDEST POP JUMP JUMPDEST PUSH0 DUP2 MLOAD SWAP1 POP PUSH2 0x22FC DUP2 PUSH2 0x22D8 JUMP JUMPDEST SWAP3 SWAP2 POP POP JUMP JUMPDEST PUSH0 PUSH1 0x20 DUP3 DUP5 SUB SLT ISZERO PUSH2 0x2317 JUMPI PUSH2 0x2316 PUSH2 0x1A71 JUMP JUMPDEST JUMPDEST PUSH0 PUSH2 0x2324 DUP5 DUP3 DUP6 ADD PUSH2 0x22EE JUMP JUMPDEST SWAP2 POP POP SWAP3 SWAP2 POP POP JUMP JUMPDEST PUSH32 0x546F6B656E207472616E73666572206661696C65640000000000000000000000 PUSH0 DUP3 ADD MSTORE POP JUMP JUMPDEST PUSH0 PUSH2 0x2361 PUSH1 0x15 DUP4 PUSH2 0x2149 JUMP JUMPDEST SWAP2 POP PUSH2 0x236C DUP3 PUSH2 0x232D JUMP JUMPDEST PUSH1 0x20 DUP3 ADD SWAP1 POP SWAP2 SWAP1 POP JUMP JUMPDEST PUSH0 PUSH1 0x20 DUP3 ADD SWAP1 POP DUP2 DUP2 SUB PUSH0 DUP4 ADD MSTORE PUSH2 0x238E DUP2 PUSH2 0x2355 JUMP JUMPDEST SWAP1 POP SWAP2 SWAP1 POP JUMP JUMPDEST PUSH0 DUP3 DUP3 MSTORE PUSH1 0x20 DUP3 ADD SWAP1 POP SWAP3 SWAP2 POP POP JUMP JUMPDEST PUSH0 DUP2 SWAP1 POP SWAP2 SWAP1 POP JUMP JUMPDEST PUSH2 0x23B7 DUP2 PUSH2 0x1CCB JUMP JUMPDEST DUP3 MSTORE POP POP JUMP JUMPDEST PUSH0 PUSH2 0x23C8 DUP4 DUP4 PUSH2 0x23AE JUMP JUMPDEST PUSH1 0x20 DUP4 ADD SWAP1 POP SWAP3 SWAP2 POP POP JUMP JUMPDEST PUSH0 PUSH2 0x23E2 PUSH1 0x20 DUP5 ADD DUP5 PUSH2 0x1CF2 JUMP JUMPDEST SWAP1 POP SWAP3 SWAP2 POP POP JUMP JUMPDEST PUSH0 PUSH1 0x20 DUP3 ADD SWAP1 POP SWAP2 SWAP1 POP JUMP JUMPDEST PUSH0 PUSH2 0x2401 DUP4 DUP6 PUSH2 0x2395 JUMP JUMPDEST SWAP4 POP PUSH2 0x240C DUP3 PUSH2 0x23A5 JUMP JUMPDEST DUP1 PUSH0 JUMPDEST DUP6 DUP2 LT ISZERO PUSH2 0x2444 JUMPI PUSH2 0x2421 DUP3 DUP5 PUSH2 0x23D4 JUMP JUMPDEST PUSH2 0x242B DUP9 DUP3 PUSH2 0x23BD JUMP JUMPDEST SWAP8 POP PUSH2 0x2436 DUP4 PUSH2 0x23EA JUMP JUMPDEST SWAP3 POP POP PUSH1 0x1 DUP2 ADD SWAP1 POP PUSH2 0x240F JUMP JUMPDEST POP DUP6 SWAP3 POP POP POP SWAP4 SWAP3 POP POP POP JUMP JUMPDEST PUSH0 DUP3 DUP3 MSTORE PUSH1 0x20 DUP3 ADD SWAP1 POP SWAP3 SWAP2 POP POP JUMP JUMPDEST PUSH0 DUP1 REVERT JUMPDEST DUP3 DUP2 DUP4 CALLDATACOPY POP POP POP JUMP JUMPDEST PUSH0 PUSH2 0x2479 DUP4 DUP6 PUSH2 0x2451 JUMP JUMPDEST SWAP4 POP PUSH32 0x7FFFFFFFFFFFFFFFFFFFFFFFFFFFFFFFFFFFFFFFFFFFFFFFFFFFFFFFFFFFFFF DUP4 GT ISZERO PUSH2 0x24AC JUMPI PUSH2 0x24AB PUSH2 0x2461 JUMP JUMPDEST JUMPDEST PUSH1 0x20 DUP4 MUL SWAP3 POP PUSH2 0x24BD DUP4 DUP6 DUP5 PUSH2 0x2465 JUMP JUMPDEST DUP3 DUP5 ADD SWAP1 POP SWAP4 SWAP3 POP POP POP JUMP JUMPDEST PUSH0 PUSH1 0x40 DUP3 ADD SWAP1 POP DUP2 DUP2 SUB PUSH0 DUP4 ADD MSTORE PUSH2 0x24E2 DUP2 DUP7 DUP9 PUSH2 0x23F6 JUMP JUMPDEST SWAP1 POP DUP2 DUP2 SUB PUSH1 0x20 DUP4 ADD MSTORE PUSH2 0x24F7 DUP2 DUP5 DUP7 PUSH2 0x246E JUMP JUMPDEST SWAP1 POP SWAP6 SWAP5 POP POP POP POP POP JUMP JUMPDEST PUSH32 0x4D656D62657220646F6573206E6F742065786973740000000000000000000000 PUSH0 DUP3 ADD MSTORE POP JUMP JUMPDEST PUSH0 PUSH2 0x2536 PUSH1 0x15 DUP4 PUSH2 0x2149 JUMP JUMPDEST SWAP2 POP PUSH2 0x2541 DUP3 PUSH2 0x2502 JUMP JUMPDEST PUSH1 0x20 DUP3 ADD SWAP1 POP SWAP2 SWAP1 POP JUMP JUMPDEST PUSH0 PUSH1 0x20 DUP3 ADD SWAP1 POP DUP2 DUP2 SUB PUSH0 DUP4 ADD MSTORE PUSH2 0x2563 DUP2 PUSH2 0x252A JUMP JUMPDEST SWAP1 POP SWAP2 SWAP1 POP JUMP JUMPDEST PUSH32 0x4D656D62657220616C7265616479207265676973746572656400000000000000 PUSH0 DUP3 ADD MSTORE POP JUMP JUMPDEST PUSH0 PUSH2 0x259E PUSH1 0x19 DUP4 PUSH2 0x2149 JUMP JUMPDEST SWAP2 POP PUSH2 0x25A9 DUP3 PUSH2 0x256A JUMP JUMPDEST PUSH1 0x20 DUP3 ADD SWAP1 POP SWAP2 SWAP1 POP JUMP JUMPDEST PUSH0 PUSH1 0x20 DUP3 ADD SWAP1 POP DUP2 DUP2 SUB PUSH0 DUP4 ADD MSTORE PUSH2 0x25CB DUP2 PUSH2 0x2592 JUMP JUMPDEST SWAP1 POP SWAP2 SWAP1 POP JUMP JUMPDEST PUSH0 PUSH1 0x40 DUP3 ADD SWAP1 POP PUSH2 0x25E5 PUSH0 DUP4 ADD DUP6 PUSH2 0x1C1D JUMP JUMPDEST PUSH2 0x25F2 PUSH1 0x20 DUP4 ADD DUP5 PUSH2 0x1C1D JUMP JUMPDEST SWAP4 SWAP3 POP POP POP JUMP JUMPDEST PUSH32 0x4368616C6C656E67652073636F726520646F6573206E6F742065786973740000 PUSH0 DUP3 ADD MSTORE POP JUMP JUMPDEST PUSH0 PUSH2 0x262D PUSH1 0x1E DUP4 PUSH2 0x2149 JUMP JUMPDEST SWAP2 POP PUSH2 0x2638 DUP3 PUSH2 0x25F9 JUMP JUMPDEST PUSH1 0x20 DUP3 ADD SWAP1 POP SWAP2 SWAP1 POP JUMP JUMPDEST PUSH0 PUSH1 0x20 DUP3 ADD SWAP1 POP DUP2 DUP2 SUB PUSH0 DUP4 ADD MSTORE PUSH2 0x265A DUP2 PUSH2 0x2621 JUMP JUMPDEST SWAP1 POP SWAP2 SWAP1 POP JUMP JUMPDEST PUSH32 0x4368616C6C656E676520616C72656164792065786973747320666F7220746869 PUSH0 DUP3 ADD MSTORE PUSH32 0x73206D656D6265722C20646174652C20616E642067616D650000000000000000 PUSH1 0x20 DUP3 ADD MSTORE POP JUMP JUMPDEST PUSH0 PUSH2 0x26BB PUSH1 0x38 DUP4 PUSH2 0x2149 JUMP JUMPDEST SWAP2 POP PUSH2 0x26C6 DUP3 PUSH2 0x2661 JUMP JUMPDEST PUSH1 0x40 DUP3 ADD SWAP1 POP SWAP2 SWAP1 POP JUMP JUMPDEST PUSH0 PUSH1 0x20 DUP3 ADD SWAP1 POP DUP2 DUP2 SUB PUSH0 DUP4 ADD MSTORE PUSH2 0x26E8 DUP2 PUSH2 0x26AF JUMP JUMPDEST SWAP1 POP SWAP2 SWAP1 POP JUMP JUMPDEST PUSH0 PUSH1 0x40 DUP3 ADD SWAP1 POP PUSH2 0x2702 PUSH0 DUP4 ADD DUP6 PUSH2 0x22A2 JUMP JUMPDEST PUSH2 0x270F PUSH1 0x20 DUP4 ADD DUP5 PUSH2 0x22A2 JUMP JUMPDEST SWAP4 SWAP3 POP POP POP JUMP JUMPDEST PUSH0 DUP2 MLOAD SWAP1 POP PUSH2 0x2724 DUP2 PUSH2 0x1BC8 JUMP JUMPDEST SWAP3 SWAP2 POP POP JUMP JUMPDEST PUSH0 PUSH1 0x20 DUP3 DUP5 SUB SLT ISZERO PUSH2 0x273F JUMPI PUSH2 0x273E PUSH2 0x1A71 JUMP JUMPDEST JUMPDEST PUSH0 PUSH2 0x274C DUP5 DUP3 DUP6 ADD PUSH2 0x2716 JUMP JUMPDEST SWAP2 POP POP SWAP3 SWAP2 POP POP JUMP JUMPDEST PUSH32 0x496E73756666696369656E7420746F6B656E20616C6C6F77616E636500000000 PUSH0 DUP3 ADD MSTORE POP JUMP JUMPDEST PUSH0 PUSH2 0x2789 PUSH1 0x1C DUP4 PUSH2 0x2149 JUMP JUMPDEST SWAP2 POP PUSH2 0x2794 DUP3 PUSH2 0x2755 JUMP JUMPDEST PUSH1 0x20 DUP3 ADD SWAP1 POP SWAP2 SWAP1 POP JUMP JUMPDEST PUSH0 PUSH1 0x20 DUP3 ADD SWAP1 POP DUP2 DUP2 SUB PUSH0 DUP4 ADD MSTORE PUSH2 0x27B6 DUP2 PUSH2 0x277D JUMP JUMPDEST SWAP1 POP SWAP2 SWAP1 POP JUMP JUMPDEST PUSH0 PUSH1 0x20 DUP3 ADD SWAP1 POP PUSH2 0x27D0 PUSH0 DUP4 ADD DUP5 PUSH2 0x22A2 JUMP JUMPDEST SWAP3 SWAP2 POP POP JUMP JUMPDEST PUSH32 0x496E73756666696369656E7420746F6B656E2062616C616E6365000000000000 PUSH0 DUP3 ADD MSTORE POP JUMP JUMPDEST PUSH0 PUSH2 0x280A PUSH1 0x1A DUP4 PUSH2 0x2149 JUMP JUMPDEST SWAP2 POP PUSH2 0x2815 DUP3 PUSH2 0x27D6 JUMP JUMPDEST PUSH1 0x20 DUP3 ADD SWAP1 POP SWAP2 SWAP1 POP JUMP JUMPDEST PUSH0 PUSH1 0x20 DUP3 ADD SWAP1 POP DUP2 DUP2 SUB PUSH0 DUP4 ADD MSTORE PUSH2 0x2837 DUP2 PUSH2 0x27FE JUMP JUMPDEST SWAP1 POP SWAP2 SWAP1 POP JUMP JUMPDEST PUSH0 PUSH1 0x60 DUP3 ADD SWAP1 POP PUSH2 0x2851 PUSH0 DUP4 ADD DUP7 PUSH2 0x22A2 JUMP JUMPDEST PUSH2 0x285E PUSH1 0x20 DUP4 ADD DUP6 PUSH2 0x22A2 JUMP JUMPDEST PUSH2 0x286B PUSH1 0x40 DUP4 ADD DUP5 PUSH2 0x1C1D JUMP JUMPDEST SWAP5 SWAP4 POP POP POP POP JUMP JUMPDEST PUSH32 0x4368616C6C656E676520646F6573206E6F742065786973740000000000000000 PUSH0 DUP3 ADD MSTORE POP JUMP JUMPDEST PUSH0 PUSH2 0x28A7 PUSH1 0x18 DUP4 PUSH2 0x2149 JUMP JUMPDEST SWAP2 POP PUSH2 0x28B2 DUP3 PUSH2 0x2873 JUMP JUMPDEST PUSH1 0x20 DUP3 ADD SWAP1 POP SWAP2 SWAP1 POP JUMP JUMPDEST PUSH0 PUSH1 0x20 DUP3 ADD SWAP1 POP DUP2 DUP2 SUB PUSH0 DUP4 ADD MSTORE PUSH2 0x28D4 DUP2 PUSH2 0x289B JUMP JUMPDEST SWAP1 POP SWAP2 SWAP1 POP JUMP JUMPDEST PUSH0 DUP2 SWAP1 POP SWAP3 SWAP2 POP POP JUMP JUMPDEST PUSH32 0x416363657373436F6E74726F6C3A206163636F756E7420000000000000000000 PUSH0 DUP3 ADD MSTORE POP JUMP JUMPDEST PUSH0 PUSH2 0x2919 PUSH1 0x17 DUP4 PUSH2 0x28DB JUMP JUMPDEST SWAP2 POP PUSH2 0x2924 DUP3 PUSH2 0x28E5 JUMP JUMPDEST PUSH1 0x17 DUP3 ADD SWAP1 POP SWAP2 SWAP1 POP JUMP JUMPDEST PUSH0 DUP2 MLOAD SWAP1 POP SWAP2 SWAP1 POP JUMP JUMPDEST DUP3 DUP2 DUP4 MCOPY PUSH0 DUP4 DUP4 ADD MSTORE POP POP POP JUMP JUMPDEST PUSH0 PUSH2 0x2951 DUP3 PUSH2 0x292F JUMP JUMPDEST PUSH2 0x295B DUP2 DUP6 PUSH2 0x28DB JUMP JUMPDEST SWAP4 POP PUSH2 0x296B DUP2 DUP6 PUSH1 0x20 DUP7 ADD PUSH2 0x2939 JUMP JUMPDEST DUP1 DUP5 ADD SWAP2 POP POP SWAP3 SWAP2 POP POP JUMP JUMPDEST PUSH32 0x206973206D697373696E6720726F6C6520000000000000000000000000000000 PUSH0 DUP3 ADD MSTORE POP JUMP JUMPDEST PUSH0 PUSH2 0x29AB PUSH1 0x11 DUP4 PUSH2 0x28DB JUMP JUMPDEST SWAP2 POP PUSH2 0x29B6 DUP3 PUSH2 0x2977 JUMP JUMPDEST PUSH1 0x11 DUP3 ADD SWAP1 POP SWAP2 SWAP1 POP JUMP JUMPDEST PUSH0 PUSH2 0x29CB DUP3 PUSH2 0x290D JUMP JUMPDEST SWAP2 POP PUSH2 0x29D7 DUP3 DUP6 PUSH2 0x2947 JUMP JUMPDEST SWAP2 POP PUSH2 0x29E2 DUP3 PUSH2 0x299F JUMP JUMPDEST SWAP2 POP PUSH2 0x29EE DUP3 DUP5 PUSH2 0x2947 JUMP JUMPDEST SWAP2 POP DUP2 SWAP1 POP SWAP4 SWAP3 POP POP POP JUMP JUMPDEST PUSH0 PUSH1 0x1F NOT PUSH1 0x1F DUP4 ADD AND SWAP1 POP SWAP2 SWAP1 POP JUMP JUMPDEST PUSH0 PUSH2 0x2A14 DUP3 PUSH2 0x292F JUMP JUMPDEST PUSH2 0x2A1E DUP2 DUP6 PUSH2 0x2149 JUMP JUMPDEST SWAP4 POP PUSH2 0x2A2E DUP2 DUP6 PUSH1 0x20 DUP7 ADD PUSH2 0x2939 JUMP JUMPDEST PUSH2 0x2A37 DUP2 PUSH2 0x29FA JUMP JUMPDEST DUP5 ADD SWAP2 POP POP SWAP3 SWAP2 POP POP JUMP JUMPDEST PUSH0 PUSH1 0x20 DUP3 ADD SWAP1 POP DUP2 DUP2 SUB PUSH0 DUP4 ADD MSTORE PUSH2 0x2A5A DUP2 DUP5 PUSH2 0x2A0A JUMP JUMPDEST SWAP1 POP SWAP3 SWAP2 POP POP JUMP JUMPDEST PUSH32 0x4E487B7100000000000000000000000000000000000000000000000000000000 PUSH0 MSTORE PUSH1 0x11 PUSH1 0x4 MSTORE PUSH1 0x24 PUSH0 REVERT JUMPDEST PUSH0 PUSH2 0x2A99 DUP3 PUSH2 0x1BBF JUMP JUMPDEST SWAP2 POP PUSH2 0x2AA4 DUP4 PUSH2 0x1BBF JUMP JUMPDEST SWAP3 POP DUP3 DUP3 MUL PUSH2 0x2AB2 DUP2 PUSH2 0x1BBF JUMP JUMPDEST SWAP2 POP DUP3 DUP3 DIV DUP5 EQ DUP4 ISZERO OR PUSH2 0x2AC9 JUMPI PUSH2 0x2AC8 PUSH2 0x2A62 JUMP JUMPDEST JUMPDEST POP SWAP3 SWAP2 POP POP JUMP JUMPDEST PUSH0 PUSH2 0x2ADA DUP3 PUSH2 0x1BBF JUMP JUMPDEST SWAP2 POP PUSH2 0x2AE5 DUP4 PUSH2 0x1BBF JUMP JUMPDEST SWAP3 POP DUP3 DUP3 ADD SWAP1 POP DUP1 DUP3 GT ISZERO PUSH2 0x2AFD JUMPI PUSH2 0x2AFC PUSH2 0x2A62 JUMP JUMPDEST JUMPDEST SWAP3 SWAP2 POP POP JUMP JUMPDEST PUSH32 0x4E487B7100000000000000000000000000000000000000000000000000000000 PUSH0 MSTORE PUSH1 0x41 PUSH1 0x4 MSTORE PUSH1 0x24 PUSH0 REVERT JUMPDEST PUSH0 PUSH2 0x2B3A DUP3 PUSH2 0x1BBF JUMP JUMPDEST SWAP2 POP PUSH0 DUP3 SUB PUSH2 0x2B4C JUMPI PUSH2 0x2B4B PUSH2 0x2A62 JUMP JUMPDEST JUMPDEST PUSH1 0x1 DUP3 SUB SWAP1 POP SWAP2 SWAP1 POP JUMP JUMPDEST PUSH32 0x537472696E67733A20686578206C656E67746820696E73756666696369656E74 PUSH0 DUP3 ADD MSTORE POP JUMP JUMPDEST PUSH0 PUSH2 0x2B8B PUSH1 0x20 DUP4 PUSH2 0x2149 JUMP JUMPDEST SWAP2 POP PUSH2 0x2B96 DUP3 PUSH2 0x2B57 JUMP JUMPDEST PUSH1 0x20 DUP3 ADD SWAP1 POP SWAP2 SWAP1 POP JUMP JUMPDEST PUSH0 PUSH1 0x20 DUP3 ADD SWAP1 POP DUP2 DUP2 SUB PUSH0 DUP4 ADD MSTORE PUSH2 0x2BB8 DUP2 PUSH2 0x2B7F JUMP JUMPDEST SWAP1 POP SWAP2 SWAP1 POP JUMP INVALID LOG2 PUSH5 0x6970667358 0x22 SLT KECCAK256 0xC4 0xE ADDMOD 0x2E 0xB1 ORIGIN SDIV STOP 0xB8 EQ PUSH30 0xF8E7DD48B506202C5A55E0051D7A13C525FDEC0D3A64736F6C634300081A STOP CALLER "
				},
				"gasEstimates": {
					"creation": {
						"codeDepositCost": "2250600",
						"executionCost": "infinite",
						"totalCost": "infinite"
					},
					"external": {
						"ADMIN_ROLE()": "392",
						"DEFAULT_ADMIN_ROLE()": "375",
						"challengeRegister(uint256,uint256,uint256,uint256)": "infinite",
						"challengeScores(uint256,uint256,uint256)": "infinite",
						"distributePrizes(address[],uint256[])": "infinite",
						"entToken()": "infinite",
						"getChallengeScore(uint256,uint256,uint256)": "infinite",
						"getMemberInfo(uint256)": "infinite",
						"getRoleAdmin(bytes32)": "infinite",
						"grantAdminRole(address)": "infinite",
						"grantRole(bytes32,address)": "infinite",
						"hasRole(bytes32,address)": "3255",
						"memberIds(uint256)": "infinite",
						"memberInfos(uint256)": "infinite",
						"memberRegister(uint256,address,uint256)": "infinite",
						"normalScores(uint256,uint256,uint256)": "infinite",
						"rankScoreUpdateChallenge(uint256,uint256,uint256,uint256)": "infinite",
						"rankScoreUpdateNormal(uint256,uint256,uint256,uint256)": "infinite",
						"renounceRole(bytes32,address)": "infinite",
						"revokeAdminRole(address)": "infinite",
						"revokeRole(bytes32,address)": "infinite",
						"rptToken()": "infinite",
						"setTokens(address,address)": "infinite",
						"supportsInterface(bytes4)": "741"
					}
				},
				"methodIdentifiers": {
					"ADMIN_ROLE()": "75b238fc",
					"DEFAULT_ADMIN_ROLE()": "a217fddf",
					"challengeRegister(uint256,uint256,uint256,uint256)": "ca1c996f",
					"challengeScores(uint256,uint256,uint256)": "355b9d3f",
					"distributePrizes(address[],uint256[])": "406a378a",
					"entToken()": "dd0c8082",
					"getChallengeScore(uint256,uint256,uint256)": "b5b0e48a",
					"getMemberInfo(uint256)": "ae99aa3c",
					"getRoleAdmin(bytes32)": "248a9ca3",
					"grantAdminRole(address)": "c634b78e",
					"grantRole(bytes32,address)": "2f2ff15d",
					"hasRole(bytes32,address)": "91d14854",
					"memberIds(uint256)": "1fd3c85b",
					"memberInfos(uint256)": "bb10ab0f",
					"memberRegister(uint256,address,uint256)": "aea08734",
					"normalScores(uint256,uint256,uint256)": "8afac670",
					"rankScoreUpdateChallenge(uint256,uint256,uint256,uint256)": "dd7d2b9f",
					"rankScoreUpdateNormal(uint256,uint256,uint256,uint256)": "8525ea16",
					"renounceRole(bytes32,address)": "36568abe",
					"revokeAdminRole(address)": "9a19c7b0",
					"revokeRole(bytes32,address)": "d547741f",
					"rptToken()": "1b72fa3a",
					"setTokens(address,address)": "cbc7854e",
					"supportsInterface(bytes4)": "01ffc9a7"
				}
			},
			"storageLayout": {
				"storage": [
					{
						"astId": 610,
						"contract": "contracts/v2/TikTrixEscrow.sol:TikTrixEscrow",
						"label": "_roles",
						"offset": 0,
						"slot": "0",
						"type": "t_mapping(t_bytes32,t_struct(RoleData)605_storage)"
					},
					{
						"astId": 23,
						"contract": "contracts/v2/TikTrixEscrow.sol:TikTrixEscrow",
						"label": "entToken",
						"offset": 0,
						"slot": "1",
						"type": "t_contract(IERC20Mintable)13"
					},
					{
						"astId": 26,
						"contract": "contracts/v2/TikTrixEscrow.sol:TikTrixEscrow",
						"label": "rptToken",
						"offset": 0,
						"slot": "2",
						"type": "t_contract(IERC20Mintable)13"
					},
					{
						"astId": 54,
						"contract": "contracts/v2/TikTrixEscrow.sol:TikTrixEscrow",
						"label": "memberInfos",
						"offset": 0,
						"slot": "3",
						"type": "t_mapping(t_uint256,t_struct(MemberInfo)29_storage)"
					},
					{
						"astId": 57,
						"contract": "contracts/v2/TikTrixEscrow.sol:TikTrixEscrow",
						"label": "memberIds",
						"offset": 0,
						"slot": "4",
						"type": "t_array(t_uint256)dyn_storage"
					},
					{
						"astId": 66,
						"contract": "contracts/v2/TikTrixEscrow.sol:TikTrixEscrow",
						"label": "normalScores",
						"offset": 0,
						"slot": "5",
						"type": "t_mapping(t_uint256,t_mapping(t_uint256,t_mapping(t_uint256,t_struct(NormalScore)38_storage)))"
					},
					{
						"astId": 75,
						"contract": "contracts/v2/TikTrixEscrow.sol:TikTrixEscrow",
						"label": "challengeScores",
						"offset": 0,
						"slot": "6",
						"type": "t_mapping(t_uint256,t_mapping(t_uint256,t_mapping(t_uint256,t_struct(ChallengeScore)49_storage)))"
					}
				],
				"types": {
					"t_address": {
						"encoding": "inplace",
						"label": "address",
						"numberOfBytes": "20"
					},
					"t_array(t_uint256)dyn_storage": {
						"base": "t_uint256",
						"encoding": "dynamic_array",
						"label": "uint256[]",
						"numberOfBytes": "32"
					},
					"t_bool": {
						"encoding": "inplace",
						"label": "bool",
						"numberOfBytes": "1"
					},
					"t_bytes32": {
						"encoding": "inplace",
						"label": "bytes32",
						"numberOfBytes": "32"
					},
					"t_contract(IERC20Mintable)13": {
						"encoding": "inplace",
						"label": "contract IERC20Mintable",
						"numberOfBytes": "20"
					},
					"t_mapping(t_address,t_bool)": {
						"encoding": "mapping",
						"key": "t_address",
						"label": "mapping(address => bool)",
						"numberOfBytes": "32",
						"value": "t_bool"
					},
					"t_mapping(t_bytes32,t_struct(RoleData)605_storage)": {
						"encoding": "mapping",
						"key": "t_bytes32",
						"label": "mapping(bytes32 => struct AccessControl.RoleData)",
						"numberOfBytes": "32",
						"value": "t_struct(RoleData)605_storage"
					},
					"t_mapping(t_uint256,t_mapping(t_uint256,t_mapping(t_uint256,t_struct(ChallengeScore)49_storage)))": {
						"encoding": "mapping",
						"key": "t_uint256",
						"label": "mapping(uint256 => mapping(uint256 => mapping(uint256 => struct TikTrixEscrow.ChallengeScore)))",
						"numberOfBytes": "32",
						"value": "t_mapping(t_uint256,t_mapping(t_uint256,t_struct(ChallengeScore)49_storage))"
					},
					"t_mapping(t_uint256,t_mapping(t_uint256,t_mapping(t_uint256,t_struct(NormalScore)38_storage)))": {
						"encoding": "mapping",
						"key": "t_uint256",
						"label": "mapping(uint256 => mapping(uint256 => mapping(uint256 => struct TikTrixEscrow.NormalScore)))",
						"numberOfBytes": "32",
						"value": "t_mapping(t_uint256,t_mapping(t_uint256,t_struct(NormalScore)38_storage))"
					},
					"t_mapping(t_uint256,t_mapping(t_uint256,t_struct(ChallengeScore)49_storage))": {
						"encoding": "mapping",
						"key": "t_uint256",
						"label": "mapping(uint256 => mapping(uint256 => struct TikTrixEscrow.ChallengeScore))",
						"numberOfBytes": "32",
						"value": "t_mapping(t_uint256,t_struct(ChallengeScore)49_storage)"
					},
					"t_mapping(t_uint256,t_mapping(t_uint256,t_struct(NormalScore)38_storage))": {
						"encoding": "mapping",
						"key": "t_uint256",
						"label": "mapping(uint256 => mapping(uint256 => struct TikTrixEscrow.NormalScore))",
						"numberOfBytes": "32",
						"value": "t_mapping(t_uint256,t_struct(NormalScore)38_storage)"
					},
					"t_mapping(t_uint256,t_struct(ChallengeScore)49_storage)": {
						"encoding": "mapping",
						"key": "t_uint256",
						"label": "mapping(uint256 => struct TikTrixEscrow.ChallengeScore)",
						"numberOfBytes": "32",
						"value": "t_struct(ChallengeScore)49_storage"
					},
					"t_mapping(t_uint256,t_struct(MemberInfo)29_storage)": {
						"encoding": "mapping",
						"key": "t_uint256",
						"label": "mapping(uint256 => struct TikTrixEscrow.MemberInfo)",
						"numberOfBytes": "32",
						"value": "t_struct(MemberInfo)29_storage"
					},
					"t_mapping(t_uint256,t_struct(NormalScore)38_storage)": {
						"encoding": "mapping",
						"key": "t_uint256",
						"label": "mapping(uint256 => struct TikTrixEscrow.NormalScore)",
						"numberOfBytes": "32",
						"value": "t_struct(NormalScore)38_storage"
					},
					"t_struct(ChallengeScore)49_storage": {
						"encoding": "inplace",
						"label": "struct TikTrixEscrow.ChallengeScore",
						"members": [
							{
								"astId": 40,
								"contract": "contracts/v2/TikTrixEscrow.sol:TikTrixEscrow",
								"label": "gameSeq",
								"offset": 0,
								"slot": "0",
								"type": "t_uint256"
							},
							{
								"astId": 42,
								"contract": "contracts/v2/TikTrixEscrow.sol:TikTrixEscrow",
								"label": "memberSeq",
								"offset": 0,
								"slot": "1",
								"type": "t_uint256"
							},
							{
								"astId": 44,
								"contract": "contracts/v2/TikTrixEscrow.sol:TikTrixEscrow",
								"label": "tokenAmount",
								"offset": 0,
								"slot": "2",
								"type": "t_uint256"
							},
							{
								"astId": 46,
								"contract": "contracts/v2/TikTrixEscrow.sol:TikTrixEscrow",
								"label": "score",
								"offset": 0,
								"slot": "3",
								"type": "t_uint256"
							},
							{
								"astId": 48,
								"contract": "contracts/v2/TikTrixEscrow.sol:TikTrixEscrow",
								"label": "exists",
								"offset": 0,
								"slot": "4",
								"type": "t_bool"
							}
						],
						"numberOfBytes": "160"
					},
					"t_struct(MemberInfo)29_storage": {
						"encoding": "inplace",
						"label": "struct TikTrixEscrow.MemberInfo",
						"members": [
							{
								"astId": 28,
								"contract": "contracts/v2/TikTrixEscrow.sol:TikTrixEscrow",
								"label": "memberSeq",
								"offset": 0,
								"slot": "0",
								"type": "t_uint256"
							}
						],
						"numberOfBytes": "32"
					},
					"t_struct(NormalScore)38_storage": {
						"encoding": "inplace",
						"label": "struct TikTrixEscrow.NormalScore",
						"members": [
							{
								"astId": 31,
								"contract": "contracts/v2/TikTrixEscrow.sol:TikTrixEscrow",
								"label": "gameSeq",
								"offset": 0,
								"slot": "0",
								"type": "t_uint256"
							},
							{
								"astId": 33,
								"contract": "contracts/v2/TikTrixEscrow.sol:TikTrixEscrow",
								"label": "memberSeq",
								"offset": 0,
								"slot": "1",
								"type": "t_uint256"
							},
							{
								"astId": 35,
								"contract": "contracts/v2/TikTrixEscrow.sol:TikTrixEscrow",
								"label": "score",
								"offset": 0,
								"slot": "2",
								"type": "t_uint256"
							},
							{
								"astId": 37,
								"contract": "contracts/v2/TikTrixEscrow.sol:TikTrixEscrow",
								"label": "exists",
								"offset": 0,
								"slot": "3",
								"type": "t_bool"
							}
						],
						"numberOfBytes": "128"
					},
					"t_struct(RoleData)605_storage": {
						"encoding": "inplace",
						"label": "struct AccessControl.RoleData",
						"members": [
							{
								"astId": 602,
								"contract": "contracts/v2/TikTrixEscrow.sol:TikTrixEscrow",
								"label": "members",
								"offset": 0,
								"slot": "0",
								"type": "t_mapping(t_address,t_bool)"
							},
							{
								"astId": 604,
								"contract": "contracts/v2/TikTrixEscrow.sol:TikTrixEscrow",
								"label": "adminRole",
								"offset": 0,
								"slot": "1",
								"type": "t_bytes32"
							}
						],
						"numberOfBytes": "64"
					},
					"t_uint256": {
						"encoding": "inplace",
						"label": "uint256",
						"numberOfBytes": "32"
					}
				}
			},
			"userdoc": {
				"kind": "user",
				"methods": {},
				"version": 1
			}
		}
	}
}