{
	"contracts/v2/TikTrix.sol": {
		"TikTrix": {
			"abi": [
				{
					"inputs": [
						{
							"internalType": "address",
							"name": "entTokenAddress",
							"type": "address"
						}
					],
					"stateMutability": "nonpayable",
					"type": "constructor"
				},
				{
					"anonymous": false,
					"inputs": [
						{
							"indexed": true,
							"internalType": "uint256",
							"name": "gameSeq",
							"type": "uint256"
						}
					],
					"name": "GameDeleted",
					"type": "event"
				},
				{
					"anonymous": false,
					"inputs": [
						{
							"indexed": false,
							"internalType": "uint256",
							"name": "developerSeq",
							"type": "uint256"
						},
						{
							"indexed": false,
							"internalType": "uint256",
							"name": "gameSeq",
							"type": "uint256"
						},
						{
							"indexed": false,
							"internalType": "string",
							"name": "title",
							"type": "string"
						}
					],
					"name": "GameRegistered",
					"type": "event"
				},
				{
					"anonymous": false,
					"inputs": [
						{
							"indexed": false,
							"internalType": "uint256",
							"name": "developerSeq",
							"type": "uint256"
						},
						{
							"indexed": false,
							"internalType": "uint256",
							"name": "gameSeq",
							"type": "uint256"
						},
						{
							"indexed": false,
							"internalType": "string",
							"name": "title",
							"type": "string"
						}
					],
					"name": "GameUpdated",
					"type": "event"
				},
				{
					"anonymous": false,
					"inputs": [
						{
							"indexed": false,
							"internalType": "uint256",
							"name": "memberSeq",
							"type": "uint256"
						},
						{
							"indexed": false,
							"internalType": "uint256",
							"name": "tokenAmount",
							"type": "uint256"
						}
					],
					"name": "MemberRegistered",
					"type": "event"
				},
				{
					"anonymous": false,
					"inputs": [
						{
							"indexed": true,
							"internalType": "bytes32",
							"name": "role",
							"type": "bytes32"
						},
						{
							"indexed": true,
							"internalType": "bytes32",
							"name": "previousAdminRole",
							"type": "bytes32"
						},
						{
							"indexed": true,
							"internalType": "bytes32",
							"name": "newAdminRole",
							"type": "bytes32"
						}
					],
					"name": "RoleAdminChanged",
					"type": "event"
				},
				{
					"anonymous": false,
					"inputs": [
						{
							"indexed": true,
							"internalType": "bytes32",
							"name": "role",
							"type": "bytes32"
						},
						{
							"indexed": true,
							"internalType": "address",
							"name": "account",
							"type": "address"
						},
						{
							"indexed": true,
							"internalType": "address",
							"name": "sender",
							"type": "address"
						}
					],
					"name": "RoleGranted",
					"type": "event"
				},
				{
					"anonymous": false,
					"inputs": [
						{
							"indexed": true,
							"internalType": "bytes32",
							"name": "role",
							"type": "bytes32"
						},
						{
							"indexed": true,
							"internalType": "address",
							"name": "account",
							"type": "address"
						},
						{
							"indexed": true,
							"internalType": "address",
							"name": "sender",
							"type": "address"
						}
					],
					"name": "RoleRevoked",
					"type": "event"
				},
				{
					"inputs": [],
					"name": "ADMIN_ROLE",
					"outputs": [
						{
							"internalType": "bytes32",
							"name": "",
							"type": "bytes32"
						}
					],
					"stateMutability": "view",
					"type": "function"
				},
				{
					"inputs": [],
					"name": "DEFAULT_ADMIN_ROLE",
					"outputs": [
						{
							"internalType": "bytes32",
							"name": "",
							"type": "bytes32"
						}
					],
					"stateMutability": "view",
					"type": "function"
				},
				{
					"inputs": [],
					"name": "entToken",
					"outputs": [
						{
							"internalType": "contract IERC20Mintable",
							"name": "",
							"type": "address"
						}
					],
					"stateMutability": "view",
					"type": "function"
				},
				{
					"inputs": [
						{
							"internalType": "uint256",
							"name": "gameSeq",
							"type": "uint256"
						}
					],
					"name": "gameDelete",
					"outputs": [],
					"stateMutability": "nonpayable",
					"type": "function"
				},
				{
					"inputs": [
						{
							"internalType": "uint256",
							"name": "",
							"type": "uint256"
						}
					],
					"name": "gameInfos",
					"outputs": [
						{
							"internalType": "uint256",
							"name": "developerSeq",
							"type": "uint256"
						},
						{
							"internalType": "uint256",
							"name": "gameSeq",
							"type": "uint256"
						},
						{
							"internalType": "string",
							"name": "title",
							"type": "string"
						},
						{
							"internalType": "bool",
							"name": "exists",
							"type": "bool"
						}
					],
					"stateMutability": "view",
					"type": "function"
				},
				{
					"inputs": [
						{
							"internalType": "uint256",
							"name": "developerSeq",
							"type": "uint256"
						},
						{
							"internalType": "uint256",
							"name": "gameSeq",
							"type": "uint256"
						},
						{
							"internalType": "string",
							"name": "title",
							"type": "string"
						}
					],
					"name": "gameRegister",
					"outputs": [],
					"stateMutability": "nonpayable",
					"type": "function"
				},
				{
					"inputs": [
						{
							"internalType": "uint256",
							"name": "developerSeq",
							"type": "uint256"
						},
						{
							"internalType": "uint256",
							"name": "gameSeq",
							"type": "uint256"
						},
						{
							"internalType": "string",
							"name": "title",
							"type": "string"
						}
					],
					"name": "gameUpdate",
					"outputs": [],
					"stateMutability": "nonpayable",
					"type": "function"
				},
				{
					"inputs": [
						{
							"internalType": "uint256",
							"name": "gameSeq",
							"type": "uint256"
						}
					],
					"name": "getGameInfo",
					"outputs": [
						{
							"components": [
								{
									"internalType": "uint256",
									"name": "developerSeq",
									"type": "uint256"
								},
								{
									"internalType": "uint256",
									"name": "gameSeq",
									"type": "uint256"
								},
								{
									"internalType": "string",
									"name": "title",
									"type": "string"
								},
								{
									"internalType": "bool",
									"name": "exists",
									"type": "bool"
								}
							],
							"internalType": "struct TikTrix.GameInfo",
							"name": "",
							"type": "tuple"
						}
					],
					"stateMutability": "view",
					"type": "function"
				},
				{
					"inputs": [
						{
							"internalType": "uint256",
							"name": "memberSeq",
							"type": "uint256"
						}
					],
					"name": "getMemberInfo",
					"outputs": [
						{
							"components": [
								{
									"internalType": "uint256",
									"name": "memberSeq",
									"type": "uint256"
								}
							],
							"internalType": "struct TikTrix.MemberInfo",
							"name": "",
							"type": "tuple"
						}
					],
					"stateMutability": "view",
					"type": "function"
				},
				{
					"inputs": [
						{
							"internalType": "bytes32",
							"name": "role",
							"type": "bytes32"
						}
					],
					"name": "getRoleAdmin",
					"outputs": [
						{
							"internalType": "bytes32",
							"name": "",
							"type": "bytes32"
						}
					],
					"stateMutability": "view",
					"type": "function"
				},
				{
					"inputs": [
						{
							"internalType": "address",
							"name": "account",
							"type": "address"
						}
					],
					"name": "grantAdminRole",
					"outputs": [],
					"stateMutability": "nonpayable",
					"type": "function"
				},
				{
					"inputs": [
						{
							"internalType": "bytes32",
							"name": "role",
							"type": "bytes32"
						},
						{
							"internalType": "address",
							"name": "account",
							"type": "address"
						}
					],
					"name": "grantRole",
					"outputs": [],
					"stateMutability": "nonpayable",
					"type": "function"
				},
				{
					"inputs": [
						{
							"internalType": "bytes32",
							"name": "role",
							"type": "bytes32"
						},
						{
							"internalType": "address",
							"name": "account",
							"type": "address"
						}
					],
					"name": "hasRole",
					"outputs": [
						{
							"internalType": "bool",
							"name": "",
							"type": "bool"
						}
					],
					"stateMutability": "view",
					"type": "function"
				},
				{
					"inputs": [
						{
							"internalType": "uint256",
							"name": "",
							"type": "uint256"
						}
					],
					"name": "memberInfos",
					"outputs": [
						{
							"internalType": "uint256",
							"name": "memberSeq",
							"type": "uint256"
						}
					],
					"stateMutability": "view",
					"type": "function"
				},
				{
					"inputs": [
						{
							"internalType": "uint256",
							"name": "memberSeq",
							"type": "uint256"
						},
						{
							"internalType": "address",
							"name": "mintAddress",
							"type": "address"
						},
						{
							"internalType": "uint256",
							"name": "tokenAmount",
							"type": "uint256"
						}
					],
					"name": "memberRegister",
					"outputs": [],
					"stateMutability": "nonpayable",
					"type": "function"
				},
				{
					"inputs": [
						{
							"internalType": "bytes32",
							"name": "role",
							"type": "bytes32"
						},
						{
							"internalType": "address",
							"name": "account",
							"type": "address"
						}
					],
					"name": "renounceRole",
					"outputs": [],
					"stateMutability": "nonpayable",
					"type": "function"
				},
				{
					"inputs": [
						{
							"internalType": "address",
							"name": "account",
							"type": "address"
						}
					],
					"name": "revokeAdminRole",
					"outputs": [],
					"stateMutability": "nonpayable",
					"type": "function"
				},
				{
					"inputs": [
						{
							"internalType": "bytes32",
							"name": "role",
							"type": "bytes32"
						},
						{
							"internalType": "address",
							"name": "account",
							"type": "address"
						}
					],
					"name": "revokeRole",
					"outputs": [],
					"stateMutability": "nonpayable",
					"type": "function"
				},
				{
					"inputs": [
						{
							"internalType": "address",
							"name": "entTokenAddress",
							"type": "address"
						}
					],
					"name": "setTokens",
					"outputs": [],
					"stateMutability": "nonpayable",
					"type": "function"
				},
				{
					"inputs": [
						{
							"internalType": "bytes4",
							"name": "interfaceId",
							"type": "bytes4"
						}
					],
					"name": "supportsInterface",
					"outputs": [
						{
							"internalType": "bool",
							"name": "",
							"type": "bool"
						}
					],
					"stateMutability": "view",
					"type": "function"
				}
			],
			"devdoc": {
				"events": {
					"RoleAdminChanged(bytes32,bytes32,bytes32)": {
						"details": "Emitted when `newAdminRole` is set as ``role``'s admin role, replacing `previousAdminRole` `DEFAULT_ADMIN_ROLE` is the starting admin for all roles, despite {RoleAdminChanged} not being emitted signaling this. _Available since v3.1._"
					},
					"RoleGranted(bytes32,address,address)": {
						"details": "Emitted when `account` is granted `role`. `sender` is the account that originated the contract call, an admin role bearer except when using {AccessControl-_setupRole}."
					},
					"RoleRevoked(bytes32,address,address)": {
						"details": "Emitted when `account` is revoked `role`. `sender` is the account that originated the contract call:   - if using `revokeRole`, it is the admin role bearer   - if using `renounceRole`, it is the role bearer (i.e. `account`)"
					}
				},
				"kind": "dev",
				"methods": {
					"getRoleAdmin(bytes32)": {
						"details": "Returns the admin role that controls `role`. See {grantRole} and {revokeRole}. To change a role's admin, use {_setRoleAdmin}."
					},
					"grantRole(bytes32,address)": {
						"details": "Grants `role` to `account`. If `account` had not been already granted `role`, emits a {RoleGranted} event. Requirements: - the caller must have ``role``'s admin role. May emit a {RoleGranted} event."
					},
					"hasRole(bytes32,address)": {
						"details": "Returns `true` if `account` has been granted `role`."
					},
					"renounceRole(bytes32,address)": {
						"details": "Revokes `role` from the calling account. Roles are often managed via {grantRole} and {revokeRole}: this function's purpose is to provide a mechanism for accounts to lose their privileges if they are compromised (such as when a trusted device is misplaced). If the calling account had been revoked `role`, emits a {RoleRevoked} event. Requirements: - the caller must be `account`. May emit a {RoleRevoked} event."
					},
					"revokeRole(bytes32,address)": {
						"details": "Revokes `role` from `account`. If `account` had been granted `role`, emits a {RoleRevoked} event. Requirements: - the caller must have ``role``'s admin role. May emit a {RoleRevoked} event."
					},
					"supportsInterface(bytes4)": {
						"details": "See {IERC165-supportsInterface}."
					}
				},
				"version": 1
			},
			"evm": {
				"assembly": "    /* \"contracts/v2/TikTrix.sol\":428:3544  contract TikTrix is AccessControl {... */\n  mstore(0x40, 0x80)\n    /* \"contracts/v2/TikTrix.sol\":1136:1328  constructor(address entTokenAddress) {... */\n  callvalue\n  dup1\n  iszero\n  tag_1\n  jumpi\n  0x00\n  dup1\n  revert\ntag_1:\n  pop\n  mload(0x40)\n  sub(codesize, bytecodeSize)\n  dup1\n  bytecodeSize\n  dup4\n  codecopy\n  dup2\n  dup2\n  add\n  0x40\n  mstore\n  dup2\n  add\n  swap1\n  tag_2\n  swap2\n  swap1\n  tag_3\n  jump\t// in\ntag_2:\n    /* \"contracts/v2/TikTrix.sol\":1209:1224  entTokenAddress */\n  dup1\n    /* \"contracts/v2/TikTrix.sol\":1183:1191  entToken */\n  0x01\n  0x00\n    /* \"contracts/v2/TikTrix.sol\":1183:1225  entToken = IERC20Mintable(entTokenAddress) */\n  0x0100\n  exp\n  dup2\n  sload\n  dup2\n  0xffffffffffffffffffffffffffffffffffffffff\n  mul\n  not\n  and\n  swap1\n  dup4\n  0xffffffffffffffffffffffffffffffffffffffff\n  and\n  mul\n  or\n  swap1\n  sstore\n  pop\n    /* \"contracts/v2/TikTrix.sol\":1235:1277  _setupRole(DEFAULT_ADMIN_ROLE, msg.sender) */\n  tag_6\n    /* \"https://github.com/OpenZeppelin/openzeppelin-contracts/blob/v4.8.0/contracts/access/AccessControl.sol\":2072:2076  0x00 */\n  0x00\n    /* \"contracts/v2/TikTrix.sol\":1246:1264  DEFAULT_ADMIN_ROLE */\n  dup1\n  shl\n    /* \"contracts/v2/TikTrix.sol\":1266:1276  msg.sender */\n  caller\n    /* \"contracts/v2/TikTrix.sol\":1235:1245  _setupRole */\n  shl(0x20, tag_7)\n    /* \"contracts/v2/TikTrix.sol\":1235:1277  _setupRole(DEFAULT_ADMIN_ROLE, msg.sender) */\n  0x20\n  shr\n  jump\t// in\ntag_6:\n    /* \"contracts/v2/TikTrix.sol\":1287:1321  _setupRole(ADMIN_ROLE, msg.sender) */\n  tag_8\n    /* \"contracts/v2/TikTrix.sol\":505:528  keccak256(\"ADMIN_ROLE\") */\n  0xa49807205ce4d355092ef5a8a18f56e8913cf4a201fbe287825b095693c21775\n    /* \"contracts/v2/TikTrix.sol\":1310:1320  msg.sender */\n  caller\n    /* \"contracts/v2/TikTrix.sol\":1287:1297  _setupRole */\n  shl(0x20, tag_7)\n    /* \"contracts/v2/TikTrix.sol\":1287:1321  _setupRole(ADMIN_ROLE, msg.sender) */\n  0x20\n  shr\n  jump\t// in\ntag_8:\n    /* \"contracts/v2/TikTrix.sol\":1136:1328  constructor(address entTokenAddress) {... */\n  pop\n    /* \"contracts/v2/TikTrix.sol\":428:3544  contract TikTrix is AccessControl {... */\n  jump(tag_9)\n    /* \"https://github.com/OpenZeppelin/openzeppelin-contracts/blob/v4.8.0/contracts/access/AccessControl.sol\":6811:6921  function _setupRole(bytes32 role, address account) internal virtual {... */\ntag_7:\n    /* \"https://github.com/OpenZeppelin/openzeppelin-contracts/blob/v4.8.0/contracts/access/AccessControl.sol\":6889:6914  _grantRole(role, account) */\n  tag_11\n    /* \"https://github.com/OpenZeppelin/openzeppelin-contracts/blob/v4.8.0/contracts/access/AccessControl.sol\":6900:6904  role */\n  dup3\n    /* \"https://github.com/OpenZeppelin/openzeppelin-contracts/blob/v4.8.0/contracts/access/AccessControl.sol\":6906:6913  account */\n  dup3\n    /* \"https://github.com/OpenZeppelin/openzeppelin-contracts/blob/v4.8.0/contracts/access/AccessControl.sol\":6889:6899  _grantRole */\n  shl(0x20, tag_12)\n    /* \"https://github.com/OpenZeppelin/openzeppelin-contracts/blob/v4.8.0/contracts/access/AccessControl.sol\":6889:6914  _grantRole(role, account) */\n  0x20\n  shr\n  jump\t// in\ntag_11:\n    /* \"https://github.com/OpenZeppelin/openzeppelin-contracts/blob/v4.8.0/contracts/access/AccessControl.sol\":6811:6921  function _setupRole(bytes32 role, address account) internal virtual {... */\n  pop\n  pop\n  jump\t// out\n    /* \"https://github.com/OpenZeppelin/openzeppelin-contracts/blob/v4.8.0/contracts/access/AccessControl.sol\":7461:7694  function _grantRole(bytes32 role, address account) internal virtual {... */\ntag_12:\n    /* \"https://github.com/OpenZeppelin/openzeppelin-contracts/blob/v4.8.0/contracts/access/AccessControl.sol\":7544:7566  hasRole(role, account) */\n  tag_14\n    /* \"https://github.com/OpenZeppelin/openzeppelin-contracts/blob/v4.8.0/contracts/access/AccessControl.sol\":7552:7556  role */\n  dup3\n    /* \"https://github.com/OpenZeppelin/openzeppelin-contracts/blob/v4.8.0/contracts/access/AccessControl.sol\":7558:7565  account */\n  dup3\n    /* \"https://github.com/OpenZeppelin/openzeppelin-contracts/blob/v4.8.0/contracts/access/AccessControl.sol\":7544:7551  hasRole */\n  shl(0x20, tag_15)\n    /* \"https://github.com/OpenZeppelin/openzeppelin-contracts/blob/v4.8.0/contracts/access/AccessControl.sol\":7544:7566  hasRole(role, account) */\n  0x20\n  shr\n  jump\t// in\ntag_14:\n    /* \"https://github.com/OpenZeppelin/openzeppelin-contracts/blob/v4.8.0/contracts/access/AccessControl.sol\":7539:7688  if (!hasRole(role, account)) {... */\n  tag_16\n  jumpi\n    /* \"https://github.com/OpenZeppelin/openzeppelin-contracts/blob/v4.8.0/contracts/access/AccessControl.sol\":7614:7618  true */\n  0x01\n    /* \"https://github.com/OpenZeppelin/openzeppelin-contracts/blob/v4.8.0/contracts/access/AccessControl.sol\":7582:7588  _roles */\n  0x00\n    /* \"https://github.com/OpenZeppelin/openzeppelin-contracts/blob/v4.8.0/contracts/access/AccessControl.sol\":7582:7594  _roles[role] */\n  dup1\n    /* \"https://github.com/OpenZeppelin/openzeppelin-contracts/blob/v4.8.0/contracts/access/AccessControl.sol\":7589:7593  role */\n  dup5\n    /* \"https://github.com/OpenZeppelin/openzeppelin-contracts/blob/v4.8.0/contracts/access/AccessControl.sol\":7582:7594  _roles[role] */\n  dup2\n  mstore\n  0x20\n  add\n  swap1\n  dup2\n  mstore\n  0x20\n  add\n  0x00\n  keccak256\n    /* \"https://github.com/OpenZeppelin/openzeppelin-contracts/blob/v4.8.0/contracts/access/AccessControl.sol\":7582:7602  _roles[role].members */\n  0x00\n  add\n    /* \"https://github.com/OpenZeppelin/openzeppelin-contracts/blob/v4.8.0/contracts/access/AccessControl.sol\":7582:7611  _roles[role].members[account] */\n  0x00\n    /* \"https://github.com/OpenZeppelin/openzeppelin-contracts/blob/v4.8.0/contracts/access/AccessControl.sol\":7603:7610  account */\n  dup4\n    /* \"https://github.com/OpenZeppelin/openzeppelin-contracts/blob/v4.8.0/contracts/access/AccessControl.sol\":7582:7611  _roles[role].members[account] */\n  0xffffffffffffffffffffffffffffffffffffffff\n  and\n  0xffffffffffffffffffffffffffffffffffffffff\n  and\n  dup2\n  mstore\n  0x20\n  add\n  swap1\n  dup2\n  mstore\n  0x20\n  add\n  0x00\n  keccak256\n  0x00\n    /* \"https://github.com/OpenZeppelin/openzeppelin-contracts/blob/v4.8.0/contracts/access/AccessControl.sol\":7582:7618  _roles[role].members[account] = true */\n  0x0100\n  exp\n  dup2\n  sload\n  dup2\n  0xff\n  mul\n  not\n  and\n  swap1\n  dup4\n  iszero\n  iszero\n  mul\n  or\n  swap1\n  sstore\n  pop\n    /* \"https://github.com/OpenZeppelin/openzeppelin-contracts/blob/v4.8.0/contracts/access/AccessControl.sol\":7664:7676  _msgSender() */\n  tag_17\n    /* \"https://github.com/OpenZeppelin/openzeppelin-contracts/blob/v4.8.0/contracts/access/AccessControl.sol\":7664:7674  _msgSender */\n  shl(0x20, tag_18)\n    /* \"https://github.com/OpenZeppelin/openzeppelin-contracts/blob/v4.8.0/contracts/access/AccessControl.sol\":7664:7676  _msgSender() */\n  0x20\n  shr\n  jump\t// in\ntag_17:\n    /* \"https://github.com/OpenZeppelin/openzeppelin-contracts/blob/v4.8.0/contracts/access/AccessControl.sol\":7637:7677  RoleGranted(role, account, _msgSender()) */\n  0xffffffffffffffffffffffffffffffffffffffff\n  and\n    /* \"https://github.com/OpenZeppelin/openzeppelin-contracts/blob/v4.8.0/contracts/access/AccessControl.sol\":7655:7662  account */\n  dup2\n    /* \"https://github.com/OpenZeppelin/openzeppelin-contracts/blob/v4.8.0/contracts/access/AccessControl.sol\":7637:7677  RoleGranted(role, account, _msgSender()) */\n  0xffffffffffffffffffffffffffffffffffffffff\n  and\n    /* \"https://github.com/OpenZeppelin/openzeppelin-contracts/blob/v4.8.0/contracts/access/AccessControl.sol\":7649:7653  role */\n  dup4\n    /* \"https://github.com/OpenZeppelin/openzeppelin-contracts/blob/v4.8.0/contracts/access/AccessControl.sol\":7637:7677  RoleGranted(role, account, _msgSender()) */\n  0x2f8788117e7eff1d82e926ec794901d17c78024a50270940304540a733656f0d\n  mload(0x40)\n  mload(0x40)\n  dup1\n  swap2\n  sub\n  swap1\n  log4\n    /* \"https://github.com/OpenZeppelin/openzeppelin-contracts/blob/v4.8.0/contracts/access/AccessControl.sol\":7539:7688  if (!hasRole(role, account)) {... */\ntag_16:\n    /* \"https://github.com/OpenZeppelin/openzeppelin-contracts/blob/v4.8.0/contracts/access/AccessControl.sol\":7461:7694  function _grantRole(bytes32 role, address account) internal virtual {... */\n  pop\n  pop\n  jump\t// out\n    /* \"https://github.com/OpenZeppelin/openzeppelin-contracts/blob/v4.8.0/contracts/access/AccessControl.sol\":2895:3040  function hasRole(bytes32 role, address account) public view virtual override returns (bool) {... */\ntag_15:\n    /* \"https://github.com/OpenZeppelin/openzeppelin-contracts/blob/v4.8.0/contracts/access/AccessControl.sol\":2981:2985  bool */\n  0x00\n    /* \"https://github.com/OpenZeppelin/openzeppelin-contracts/blob/v4.8.0/contracts/access/AccessControl.sol\":3004:3010  _roles */\n  dup1\n    /* \"https://github.com/OpenZeppelin/openzeppelin-contracts/blob/v4.8.0/contracts/access/AccessControl.sol\":3004:3016  _roles[role] */\n  0x00\n    /* \"https://github.com/OpenZeppelin/openzeppelin-contracts/blob/v4.8.0/contracts/access/AccessControl.sol\":3011:3015  role */\n  dup5\n    /* \"https://github.com/OpenZeppelin/openzeppelin-contracts/blob/v4.8.0/contracts/access/AccessControl.sol\":3004:3016  _roles[role] */\n  dup2\n  mstore\n  0x20\n  add\n  swap1\n  dup2\n  mstore\n  0x20\n  add\n  0x00\n  keccak256\n    /* \"https://github.com/OpenZeppelin/openzeppelin-contracts/blob/v4.8.0/contracts/access/AccessControl.sol\":3004:3024  _roles[role].members */\n  0x00\n  add\n    /* \"https://github.com/OpenZeppelin/openzeppelin-contracts/blob/v4.8.0/contracts/access/AccessControl.sol\":3004:3033  _roles[role].members[account] */\n  0x00\n    /* \"https://github.com/OpenZeppelin/openzeppelin-contracts/blob/v4.8.0/contracts/access/AccessControl.sol\":3025:3032  account */\n  dup4\n    /* \"https://github.com/OpenZeppelin/openzeppelin-contracts/blob/v4.8.0/contracts/access/AccessControl.sol\":3004:3033  _roles[role].members[account] */\n  0xffffffffffffffffffffffffffffffffffffffff\n  and\n  0xffffffffffffffffffffffffffffffffffffffff\n  and\n  dup2\n  mstore\n  0x20\n  add\n  swap1\n  dup2\n  mstore\n  0x20\n  add\n  0x00\n  keccak256\n  0x00\n  swap1\n  sload\n  swap1\n  0x0100\n  exp\n  swap1\n  div\n  0xff\n  and\n    /* \"https://github.com/OpenZeppelin/openzeppelin-contracts/blob/v4.8.0/contracts/access/AccessControl.sol\":2997:3033  return _roles[role].members[account] */\n  swap1\n  pop\n    /* \"https://github.com/OpenZeppelin/openzeppelin-contracts/blob/v4.8.0/contracts/access/AccessControl.sol\":2895:3040  function hasRole(bytes32 role, address account) public view virtual override returns (bool) {... */\n  swap3\n  swap2\n  pop\n  pop\n  jump\t// out\n    /* \"https://github.com/OpenZeppelin/openzeppelin-contracts/blob/v4.8.0/contracts/utils/Context.sol\":640:736  function _msgSender() internal view virtual returns (address) {... */\ntag_18:\n    /* \"https://github.com/OpenZeppelin/openzeppelin-contracts/blob/v4.8.0/contracts/utils/Context.sol\":693:700  address */\n  0x00\n    /* \"https://github.com/OpenZeppelin/openzeppelin-contracts/blob/v4.8.0/contracts/utils/Context.sol\":719:729  msg.sender */\n  caller\n    /* \"https://github.com/OpenZeppelin/openzeppelin-contracts/blob/v4.8.0/contracts/utils/Context.sol\":712:729  return msg.sender */\n  swap1\n  pop\n    /* \"https://github.com/OpenZeppelin/openzeppelin-contracts/blob/v4.8.0/contracts/utils/Context.sol\":640:736  function _msgSender() internal view virtual returns (address) {... */\n  swap1\n  jump\t// out\n    /* \"#utility.yul\":88:205   */\ntag_22:\n    /* \"#utility.yul\":197:198   */\n  0x00\n    /* \"#utility.yul\":194:195   */\n  dup1\n    /* \"#utility.yul\":187:199   */\n  revert\n    /* \"#utility.yul\":334:460   */\ntag_24:\n    /* \"#utility.yul\":371:378   */\n  0x00\n    /* \"#utility.yul\":411:453   */\n  0xffffffffffffffffffffffffffffffffffffffff\n    /* \"#utility.yul\":404:409   */\n  dup3\n    /* \"#utility.yul\":400:454   */\n  and\n    /* \"#utility.yul\":389:454   */\n  swap1\n  pop\n    /* \"#utility.yul\":334:460   */\n  swap2\n  swap1\n  pop\n  jump\t// out\n    /* \"#utility.yul\":466:562   */\ntag_25:\n    /* \"#utility.yul\":503:510   */\n  0x00\n    /* \"#utility.yul\":532:556   */\n  tag_34\n    /* \"#utility.yul\":550:555   */\n  dup3\n    /* \"#utility.yul\":532:556   */\n  tag_24\n  jump\t// in\ntag_34:\n    /* \"#utility.yul\":521:556   */\n  swap1\n  pop\n    /* \"#utility.yul\":466:562   */\n  swap2\n  swap1\n  pop\n  jump\t// out\n    /* \"#utility.yul\":568:690   */\ntag_26:\n    /* \"#utility.yul\":641:665   */\n  tag_36\n    /* \"#utility.yul\":659:664   */\n  dup2\n    /* \"#utility.yul\":641:665   */\n  tag_25\n  jump\t// in\ntag_36:\n    /* \"#utility.yul\":634:639   */\n  dup2\n    /* \"#utility.yul\":631:666   */\n  eq\n    /* \"#utility.yul\":621:684   */\n  tag_37\n  jumpi\n    /* \"#utility.yul\":680:681   */\n  0x00\n    /* \"#utility.yul\":677:678   */\n  dup1\n    /* \"#utility.yul\":670:682   */\n  revert\n    /* \"#utility.yul\":621:684   */\ntag_37:\n    /* \"#utility.yul\":568:690   */\n  pop\n  jump\t// out\n    /* \"#utility.yul\":696:839   */\ntag_27:\n    /* \"#utility.yul\":753:758   */\n  0x00\n    /* \"#utility.yul\":784:790   */\n  dup2\n    /* \"#utility.yul\":778:791   */\n  mload\n    /* \"#utility.yul\":769:791   */\n  swap1\n  pop\n    /* \"#utility.yul\":800:833   */\n  tag_39\n    /* \"#utility.yul\":827:832   */\n  dup2\n    /* \"#utility.yul\":800:833   */\n  tag_26\n  jump\t// in\ntag_39:\n    /* \"#utility.yul\":696:839   */\n  swap3\n  swap2\n  pop\n  pop\n  jump\t// out\n    /* \"#utility.yul\":845:1196   */\ntag_3:\n    /* \"#utility.yul\":915:921   */\n  0x00\n    /* \"#utility.yul\":964:966   */\n  0x20\n    /* \"#utility.yul\":952:961   */\n  dup3\n    /* \"#utility.yul\":943:950   */\n  dup5\n    /* \"#utility.yul\":939:962   */\n  sub\n    /* \"#utility.yul\":935:967   */\n  slt\n    /* \"#utility.yul\":932:1051   */\n  iszero\n  tag_41\n  jumpi\n    /* \"#utility.yul\":970:1049   */\n  tag_42\n  tag_22\n  jump\t// in\ntag_42:\n    /* \"#utility.yul\":932:1051   */\ntag_41:\n    /* \"#utility.yul\":1090:1091   */\n  0x00\n    /* \"#utility.yul\":1115:1179   */\n  tag_43\n    /* \"#utility.yul\":1171:1178   */\n  dup5\n    /* \"#utility.yul\":1162:1168   */\n  dup3\n    /* \"#utility.yul\":1151:1160   */\n  dup6\n    /* \"#utility.yul\":1147:1169   */\n  add\n    /* \"#utility.yul\":1115:1179   */\n  tag_27\n  jump\t// in\ntag_43:\n    /* \"#utility.yul\":1105:1179   */\n  swap2\n  pop\n    /* \"#utility.yul\":1061:1189   */\n  pop\n    /* \"#utility.yul\":845:1196   */\n  swap3\n  swap2\n  pop\n  pop\n  jump\t// out\n    /* \"contracts/v2/TikTrix.sol\":428:3544  contract TikTrix is AccessControl {... */\ntag_9:\n  dataSize(sub_0)\n  dup1\n  dataOffset(sub_0)\n  0x00\n  codecopy\n  0x00\n  return\nstop\n\nsub_0: assembly {\n        /* \"contracts/v2/TikTrix.sol\":428:3544  contract TikTrix is AccessControl {... */\n      mstore(0x40, 0x80)\n      callvalue\n      dup1\n      iszero\n      tag_1\n      jumpi\n      0x00\n      dup1\n      revert\n    tag_1:\n      pop\n      jumpi(tag_2, lt(calldatasize, 0x04))\n      shr(0xe0, calldataload(0x00))\n      dup1\n      0x9a19c7b0\n      gt\n      tag_23\n      jumpi\n      dup1\n      0xb3558075\n      gt\n      tag_24\n      jumpi\n      dup1\n      0xb3558075\n      eq\n      tag_18\n      jumpi\n      dup1\n      0xbb10ab0f\n      eq\n      tag_19\n      jumpi\n      dup1\n      0xc634b78e\n      eq\n      tag_20\n      jumpi\n      dup1\n      0xd547741f\n      eq\n      tag_21\n      jumpi\n      dup1\n      0xdd0c8082\n      eq\n      tag_22\n      jumpi\n      jump(tag_2)\n    tag_24:\n      dup1\n      0x9a19c7b0\n      eq\n      tag_13\n      jumpi\n      dup1\n      0xa217fddf\n      eq\n      tag_14\n      jumpi\n      dup1\n      0xa639eb4d\n      eq\n      tag_15\n      jumpi\n      dup1\n      0xae99aa3c\n      eq\n      tag_16\n      jumpi\n      dup1\n      0xaea08734\n      eq\n      tag_17\n      jumpi\n      jump(tag_2)\n    tag_23:\n      dup1\n      0x75b238fc\n      gt\n      tag_25\n      jumpi\n      dup1\n      0x75b238fc\n      eq\n      tag_8\n      jumpi\n      dup1\n      0x7d1b4687\n      eq\n      tag_9\n      jumpi\n      dup1\n      0x8164586e\n      eq\n      tag_10\n      jumpi\n      dup1\n      0x89b2c8e7\n      eq\n      tag_11\n      jumpi\n      dup1\n      0x91d14854\n      eq\n      tag_12\n      jumpi\n      jump(tag_2)\n    tag_25:\n      dup1\n      0x01ffc9a7\n      eq\n      tag_3\n      jumpi\n      dup1\n      0x248a9ca3\n      eq\n      tag_4\n      jumpi\n      dup1\n      0x2f2ff15d\n      eq\n      tag_5\n      jumpi\n      dup1\n      0x36568abe\n      eq\n      tag_6\n      jumpi\n      dup1\n      0x47e1d550\n      eq\n      tag_7\n      jumpi\n    tag_2:\n      0x00\n      dup1\n      revert\n        /* \"https://github.com/OpenZeppelin/openzeppelin-contracts/blob/v4.8.0/contracts/access/AccessControl.sol\":2606:2808  function supportsInterface(bytes4 interfaceId) public view virtual override returns (bool) {... */\n    tag_3:\n      tag_26\n      0x04\n      dup1\n      calldatasize\n      sub\n      dup2\n      add\n      swap1\n      tag_27\n      swap2\n      swap1\n      tag_28\n      jump\t// in\n    tag_27:\n      tag_29\n      jump\t// in\n    tag_26:\n      mload(0x40)\n      tag_30\n      swap2\n      swap1\n      tag_31\n      jump\t// in\n    tag_30:\n      mload(0x40)\n      dup1\n      swap2\n      sub\n      swap1\n      return\n        /* \"https://github.com/OpenZeppelin/openzeppelin-contracts/blob/v4.8.0/contracts/access/AccessControl.sol\":4378:4507  function getRoleAdmin(bytes32 role) public view virtual override returns (bytes32) {... */\n    tag_4:\n      tag_32\n      0x04\n      dup1\n      calldatasize\n      sub\n      dup2\n      add\n      swap1\n      tag_33\n      swap2\n      swap1\n      tag_34\n      jump\t// in\n    tag_33:\n      tag_35\n      jump\t// in\n    tag_32:\n      mload(0x40)\n      tag_36\n      swap2\n      swap1\n      tag_37\n      jump\t// in\n    tag_36:\n      mload(0x40)\n      dup1\n      swap2\n      sub\n      swap1\n      return\n        /* \"https://github.com/OpenZeppelin/openzeppelin-contracts/blob/v4.8.0/contracts/access/AccessControl.sol\":4803:4948  function grantRole(bytes32 role, address account) public virtual override onlyRole(getRoleAdmin(role)) {... */\n    tag_5:\n      tag_38\n      0x04\n      dup1\n      calldatasize\n      sub\n      dup2\n      add\n      swap1\n      tag_39\n      swap2\n      swap1\n      tag_40\n      jump\t// in\n    tag_39:\n      tag_41\n      jump\t// in\n    tag_38:\n      stop\n        /* \"https://github.com/OpenZeppelin/openzeppelin-contracts/blob/v4.8.0/contracts/access/AccessControl.sol\":5912:6126  function renounceRole(bytes32 role, address account) public virtual override {... */\n    tag_6:\n      tag_42\n      0x04\n      dup1\n      calldatasize\n      sub\n      dup2\n      add\n      swap1\n      tag_43\n      swap2\n      swap1\n      tag_40\n      jump\t// in\n    tag_43:\n      tag_44\n      jump\t// in\n    tag_42:\n      stop\n        /* \"contracts/v2/TikTrix.sol\":3139:3326  function getGameInfo(uint256 gameSeq) external view returns (GameInfo memory) {... */\n    tag_7:\n      tag_45\n      0x04\n      dup1\n      calldatasize\n      sub\n      dup2\n      add\n      swap1\n      tag_46\n      swap2\n      swap1\n      tag_47\n      jump\t// in\n    tag_46:\n      tag_48\n      jump\t// in\n    tag_45:\n      mload(0x40)\n      tag_49\n      swap2\n      swap1\n      tag_50\n      jump\t// in\n    tag_49:\n      mload(0x40)\n      dup1\n      swap2\n      sub\n      swap1\n      return\n        /* \"contracts/v2/TikTrix.sol\":468:528  bytes32 public constant ADMIN_ROLE = keccak256(\"ADMIN_ROLE\") */\n    tag_8:\n      tag_51\n      tag_52\n      jump\t// in\n    tag_51:\n      mload(0x40)\n      tag_53\n      swap2\n      swap1\n      tag_37\n      jump\t// in\n    tag_53:\n      mload(0x40)\n      dup1\n      swap2\n      sub\n      swap1\n      return\n        /* \"contracts/v2/TikTrix.sol\":757:802  mapping(uint256 => GameInfo) public gameInfos */\n    tag_9:\n      tag_54\n      0x04\n      dup1\n      calldatasize\n      sub\n      dup2\n      add\n      swap1\n      tag_55\n      swap2\n      swap1\n      tag_47\n      jump\t// in\n    tag_55:\n      tag_56\n      jump\t// in\n    tag_54:\n      mload(0x40)\n      tag_57\n      swap5\n      swap4\n      swap3\n      swap2\n      swap1\n      tag_58\n      jump\t// in\n    tag_57:\n      mload(0x40)\n      dup1\n      swap2\n      sub\n      swap1\n      return\n        /* \"contracts/v2/TikTrix.sol\":1735:2087  function gameRegister(uint256 developerSeq, uint256 gameSeq, string memory title) external onlyRole(ADMIN_ROLE) {... */\n    tag_10:\n      tag_59\n      0x04\n      dup1\n      calldatasize\n      sub\n      dup2\n      add\n      swap1\n      tag_60\n      swap2\n      swap1\n      tag_61\n      jump\t// in\n    tag_60:\n      tag_62\n      jump\t// in\n    tag_59:\n      stop\n        /* \"contracts/v2/TikTrix.sol\":2511:2722  function gameDelete(uint256 gameSeq) external onlyRole(ADMIN_ROLE) {... */\n    tag_11:\n      tag_63\n      0x04\n      dup1\n      calldatasize\n      sub\n      dup2\n      add\n      swap1\n      tag_64\n      swap2\n      swap1\n      tag_47\n      jump\t// in\n    tag_64:\n      tag_65\n      jump\t// in\n    tag_63:\n      stop\n        /* \"https://github.com/OpenZeppelin/openzeppelin-contracts/blob/v4.8.0/contracts/access/AccessControl.sol\":2895:3040  function hasRole(bytes32 role, address account) public view virtual override returns (bool) {... */\n    tag_12:\n      tag_66\n      0x04\n      dup1\n      calldatasize\n      sub\n      dup2\n      add\n      swap1\n      tag_67\n      swap2\n      swap1\n      tag_40\n      jump\t// in\n    tag_67:\n      tag_68\n      jump\t// in\n    tag_66:\n      mload(0x40)\n      tag_69\n      swap2\n      swap1\n      tag_31\n      jump\t// in\n    tag_69:\n      mload(0x40)\n      dup1\n      swap2\n      sub\n      swap1\n      return\n        /* \"contracts/v2/TikTrix.sol\":1603:1729  function revokeAdminRole(address account) public onlyRole(DEFAULT_ADMIN_ROLE) {... */\n    tag_13:\n      tag_70\n      0x04\n      dup1\n      calldatasize\n      sub\n      dup2\n      add\n      swap1\n      tag_71\n      swap2\n      swap1\n      tag_72\n      jump\t// in\n    tag_71:\n      tag_73\n      jump\t// in\n    tag_70:\n      stop\n        /* \"https://github.com/OpenZeppelin/openzeppelin-contracts/blob/v4.8.0/contracts/access/AccessControl.sol\":2027:2076  bytes32 public constant DEFAULT_ADMIN_ROLE = 0x00 */\n    tag_14:\n      tag_74\n      tag_75\n      jump\t// in\n    tag_74:\n      mload(0x40)\n      tag_76\n      swap2\n      swap1\n      tag_37\n      jump\t// in\n    tag_76:\n      mload(0x40)\n      dup1\n      swap2\n      sub\n      swap1\n      return\n        /* \"contracts/v2/TikTrix.sol\":1334:1467  function setTokens(address entTokenAddress) external onlyRole(ADMIN_ROLE) {... */\n    tag_15:\n      tag_77\n      0x04\n      dup1\n      calldatasize\n      sub\n      dup2\n      add\n      swap1\n      tag_78\n      swap2\n      swap1\n      tag_72\n      jump\t// in\n    tag_78:\n      tag_79\n      jump\t// in\n    tag_77:\n      stop\n        /* \"contracts/v2/TikTrix.sol\":3332:3542  function getMemberInfo(uint256 memberSeq) external view returns (MemberInfo memory) {... */\n    tag_16:\n      tag_80\n      0x04\n      dup1\n      calldatasize\n      sub\n      dup2\n      add\n      swap1\n      tag_81\n      swap2\n      swap1\n      tag_47\n      jump\t// in\n    tag_81:\n      tag_82\n      jump\t// in\n    tag_80:\n      mload(0x40)\n      tag_83\n      swap2\n      swap1\n      tag_84\n      jump\t// in\n    tag_83:\n      mload(0x40)\n      dup1\n      swap2\n      sub\n      swap1\n      return\n        /* \"contracts/v2/TikTrix.sol\":2728:3133  function memberRegister(uint256 memberSeq, address mintAddress, uint256 tokenAmount) external onlyRole(ADMIN_ROLE) {... */\n    tag_17:\n      tag_85\n      0x04\n      dup1\n      calldatasize\n      sub\n      dup2\n      add\n      swap1\n      tag_86\n      swap2\n      swap1\n      tag_87\n      jump\t// in\n    tag_86:\n      tag_88\n      jump\t// in\n    tag_85:\n      stop\n        /* \"contracts/v2/TikTrix.sol\":2093:2505  function gameUpdate(uint256 developerSeq, uint256 gameSeq, string memory title) external onlyRole(ADMIN_ROLE) {... */\n    tag_18:\n      tag_89\n      0x04\n      dup1\n      calldatasize\n      sub\n      dup2\n      add\n      swap1\n      tag_90\n      swap2\n      swap1\n      tag_61\n      jump\t// in\n    tag_90:\n      tag_91\n      jump\t// in\n    tag_89:\n      stop\n        /* \"contracts/v2/TikTrix.sol\":808:857  mapping(uint256 => MemberInfo) public memberInfos */\n    tag_19:\n      tag_92\n      0x04\n      dup1\n      calldatasize\n      sub\n      dup2\n      add\n      swap1\n      tag_93\n      swap2\n      swap1\n      tag_47\n      jump\t// in\n    tag_93:\n      tag_94\n      jump\t// in\n    tag_92:\n      mload(0x40)\n      tag_95\n      swap2\n      swap1\n      tag_96\n      jump\t// in\n    tag_95:\n      mload(0x40)\n      dup1\n      swap2\n      sub\n      swap1\n      return\n        /* \"contracts/v2/TikTrix.sol\":1473:1597  function grantAdminRole(address account) public onlyRole(DEFAULT_ADMIN_ROLE) {... */\n    tag_20:\n      tag_97\n      0x04\n      dup1\n      calldatasize\n      sub\n      dup2\n      add\n      swap1\n      tag_98\n      swap2\n      swap1\n      tag_72\n      jump\t// in\n    tag_98:\n      tag_99\n      jump\t// in\n    tag_97:\n      stop\n        /* \"https://github.com/OpenZeppelin/openzeppelin-contracts/blob/v4.8.0/contracts/access/AccessControl.sol\":5228:5375  function revokeRole(bytes32 role, address account) public virtual override onlyRole(getRoleAdmin(role)) {... */\n    tag_21:\n      tag_100\n      0x04\n      dup1\n      calldatasize\n      sub\n      dup2\n      add\n      swap1\n      tag_101\n      swap2\n      swap1\n      tag_40\n      jump\t// in\n    tag_101:\n      tag_102\n      jump\t// in\n    tag_100:\n      stop\n        /* \"contracts/v2/TikTrix.sol\":535:565  IERC20Mintable public entToken */\n    tag_22:\n      tag_103\n      tag_104\n      jump\t// in\n    tag_103:\n      mload(0x40)\n      tag_105\n      swap2\n      swap1\n      tag_106\n      jump\t// in\n    tag_105:\n      mload(0x40)\n      dup1\n      swap2\n      sub\n      swap1\n      return\n        /* \"https://github.com/OpenZeppelin/openzeppelin-contracts/blob/v4.8.0/contracts/access/AccessControl.sol\":2606:2808  function supportsInterface(bytes4 interfaceId) public view virtual override returns (bool) {... */\n    tag_29:\n        /* \"https://github.com/OpenZeppelin/openzeppelin-contracts/blob/v4.8.0/contracts/access/AccessControl.sol\":2691:2695  bool */\n      0x00\n        /* \"https://github.com/OpenZeppelin/openzeppelin-contracts/blob/v4.8.0/contracts/access/AccessControl.sol\":2729:2761  type(IAccessControl).interfaceId */\n      0x7965db0b00000000000000000000000000000000000000000000000000000000\n        /* \"https://github.com/OpenZeppelin/openzeppelin-contracts/blob/v4.8.0/contracts/access/AccessControl.sol\":2714:2761  interfaceId == type(IAccessControl).interfaceId */\n      not(0xffffffffffffffffffffffffffffffffffffffffffffffffffffffff)\n      and\n        /* \"https://github.com/OpenZeppelin/openzeppelin-contracts/blob/v4.8.0/contracts/access/AccessControl.sol\":2714:2725  interfaceId */\n      dup3\n        /* \"https://github.com/OpenZeppelin/openzeppelin-contracts/blob/v4.8.0/contracts/access/AccessControl.sol\":2714:2761  interfaceId == type(IAccessControl).interfaceId */\n      not(0xffffffffffffffffffffffffffffffffffffffffffffffffffffffff)\n      and\n      eq\n        /* \"https://github.com/OpenZeppelin/openzeppelin-contracts/blob/v4.8.0/contracts/access/AccessControl.sol\":2714:2801  interfaceId == type(IAccessControl).interfaceId || super.supportsInterface(interfaceId) */\n      dup1\n      tag_108\n      jumpi\n      pop\n        /* \"https://github.com/OpenZeppelin/openzeppelin-contracts/blob/v4.8.0/contracts/access/AccessControl.sol\":2765:2801  super.supportsInterface(interfaceId) */\n      tag_109\n        /* \"https://github.com/OpenZeppelin/openzeppelin-contracts/blob/v4.8.0/contracts/access/AccessControl.sol\":2789:2800  interfaceId */\n      dup3\n        /* \"https://github.com/OpenZeppelin/openzeppelin-contracts/blob/v4.8.0/contracts/access/AccessControl.sol\":2765:2788  super.supportsInterface */\n      tag_110\n        /* \"https://github.com/OpenZeppelin/openzeppelin-contracts/blob/v4.8.0/contracts/access/AccessControl.sol\":2765:2801  super.supportsInterface(interfaceId) */\n      jump\t// in\n    tag_109:\n        /* \"https://github.com/OpenZeppelin/openzeppelin-contracts/blob/v4.8.0/contracts/access/AccessControl.sol\":2714:2801  interfaceId == type(IAccessControl).interfaceId || super.supportsInterface(interfaceId) */\n    tag_108:\n        /* \"https://github.com/OpenZeppelin/openzeppelin-contracts/blob/v4.8.0/contracts/access/AccessControl.sol\":2707:2801  return interfaceId == type(IAccessControl).interfaceId || super.supportsInterface(interfaceId) */\n      swap1\n      pop\n        /* \"https://github.com/OpenZeppelin/openzeppelin-contracts/blob/v4.8.0/contracts/access/AccessControl.sol\":2606:2808  function supportsInterface(bytes4 interfaceId) public view virtual override returns (bool) {... */\n      swap2\n      swap1\n      pop\n      jump\t// out\n        /* \"https://github.com/OpenZeppelin/openzeppelin-contracts/blob/v4.8.0/contracts/access/AccessControl.sol\":4378:4507  function getRoleAdmin(bytes32 role) public view virtual override returns (bytes32) {... */\n    tag_35:\n        /* \"https://github.com/OpenZeppelin/openzeppelin-contracts/blob/v4.8.0/contracts/access/AccessControl.sol\":4452:4459  bytes32 */\n      0x00\n        /* \"https://github.com/OpenZeppelin/openzeppelin-contracts/blob/v4.8.0/contracts/access/AccessControl.sol\":4478:4484  _roles */\n      dup1\n        /* \"https://github.com/OpenZeppelin/openzeppelin-contracts/blob/v4.8.0/contracts/access/AccessControl.sol\":4478:4490  _roles[role] */\n      0x00\n        /* \"https://github.com/OpenZeppelin/openzeppelin-contracts/blob/v4.8.0/contracts/access/AccessControl.sol\":4485:4489  role */\n      dup4\n        /* \"https://github.com/OpenZeppelin/openzeppelin-contracts/blob/v4.8.0/contracts/access/AccessControl.sol\":4478:4490  _roles[role] */\n      dup2\n      mstore\n      0x20\n      add\n      swap1\n      dup2\n      mstore\n      0x20\n      add\n      0x00\n      keccak256\n        /* \"https://github.com/OpenZeppelin/openzeppelin-contracts/blob/v4.8.0/contracts/access/AccessControl.sol\":4478:4500  _roles[role].adminRole */\n      0x01\n      add\n      sload\n        /* \"https://github.com/OpenZeppelin/openzeppelin-contracts/blob/v4.8.0/contracts/access/AccessControl.sol\":4471:4500  return _roles[role].adminRole */\n      swap1\n      pop\n        /* \"https://github.com/OpenZeppelin/openzeppelin-contracts/blob/v4.8.0/contracts/access/AccessControl.sol\":4378:4507  function getRoleAdmin(bytes32 role) public view virtual override returns (bytes32) {... */\n      swap2\n      swap1\n      pop\n      jump\t// out\n        /* \"https://github.com/OpenZeppelin/openzeppelin-contracts/blob/v4.8.0/contracts/access/AccessControl.sol\":4803:4948  function grantRole(bytes32 role, address account) public virtual override onlyRole(getRoleAdmin(role)) {... */\n    tag_41:\n        /* \"https://github.com/OpenZeppelin/openzeppelin-contracts/blob/v4.8.0/contracts/access/AccessControl.sol\":4886:4904  getRoleAdmin(role) */\n      tag_112\n        /* \"https://github.com/OpenZeppelin/openzeppelin-contracts/blob/v4.8.0/contracts/access/AccessControl.sol\":4899:4903  role */\n      dup3\n        /* \"https://github.com/OpenZeppelin/openzeppelin-contracts/blob/v4.8.0/contracts/access/AccessControl.sol\":4886:4898  getRoleAdmin */\n      tag_35\n        /* \"https://github.com/OpenZeppelin/openzeppelin-contracts/blob/v4.8.0/contracts/access/AccessControl.sol\":4886:4904  getRoleAdmin(role) */\n      jump\t// in\n    tag_112:\n        /* \"https://github.com/OpenZeppelin/openzeppelin-contracts/blob/v4.8.0/contracts/access/AccessControl.sol\":2505:2521  _checkRole(role) */\n      tag_114\n        /* \"https://github.com/OpenZeppelin/openzeppelin-contracts/blob/v4.8.0/contracts/access/AccessControl.sol\":2516:2520  role */\n      dup2\n        /* \"https://github.com/OpenZeppelin/openzeppelin-contracts/blob/v4.8.0/contracts/access/AccessControl.sol\":2505:2515  _checkRole */\n      tag_115\n        /* \"https://github.com/OpenZeppelin/openzeppelin-contracts/blob/v4.8.0/contracts/access/AccessControl.sol\":2505:2521  _checkRole(role) */\n      jump\t// in\n    tag_114:\n        /* \"https://github.com/OpenZeppelin/openzeppelin-contracts/blob/v4.8.0/contracts/access/AccessControl.sol\":4916:4941  _grantRole(role, account) */\n      tag_117\n        /* \"https://github.com/OpenZeppelin/openzeppelin-contracts/blob/v4.8.0/contracts/access/AccessControl.sol\":4927:4931  role */\n      dup4\n        /* \"https://github.com/OpenZeppelin/openzeppelin-contracts/blob/v4.8.0/contracts/access/AccessControl.sol\":4933:4940  account */\n      dup4\n        /* \"https://github.com/OpenZeppelin/openzeppelin-contracts/blob/v4.8.0/contracts/access/AccessControl.sol\":4916:4926  _grantRole */\n      tag_118\n        /* \"https://github.com/OpenZeppelin/openzeppelin-contracts/blob/v4.8.0/contracts/access/AccessControl.sol\":4916:4941  _grantRole(role, account) */\n      jump\t// in\n    tag_117:\n        /* \"https://github.com/OpenZeppelin/openzeppelin-contracts/blob/v4.8.0/contracts/access/AccessControl.sol\":4803:4948  function grantRole(bytes32 role, address account) public virtual override onlyRole(getRoleAdmin(role)) {... */\n      pop\n      pop\n      pop\n      jump\t// out\n        /* \"https://github.com/OpenZeppelin/openzeppelin-contracts/blob/v4.8.0/contracts/access/AccessControl.sol\":5912:6126  function renounceRole(bytes32 role, address account) public virtual override {... */\n    tag_44:\n        /* \"https://github.com/OpenZeppelin/openzeppelin-contracts/blob/v4.8.0/contracts/access/AccessControl.sol\":6018:6030  _msgSender() */\n      tag_120\n        /* \"https://github.com/OpenZeppelin/openzeppelin-contracts/blob/v4.8.0/contracts/access/AccessControl.sol\":6018:6028  _msgSender */\n      tag_121\n        /* \"https://github.com/OpenZeppelin/openzeppelin-contracts/blob/v4.8.0/contracts/access/AccessControl.sol\":6018:6030  _msgSender() */\n      jump\t// in\n    tag_120:\n        /* \"https://github.com/OpenZeppelin/openzeppelin-contracts/blob/v4.8.0/contracts/access/AccessControl.sol\":6007:6030  account == _msgSender() */\n      0xffffffffffffffffffffffffffffffffffffffff\n      and\n        /* \"https://github.com/OpenZeppelin/openzeppelin-contracts/blob/v4.8.0/contracts/access/AccessControl.sol\":6007:6014  account */\n      dup2\n        /* \"https://github.com/OpenZeppelin/openzeppelin-contracts/blob/v4.8.0/contracts/access/AccessControl.sol\":6007:6030  account == _msgSender() */\n      0xffffffffffffffffffffffffffffffffffffffff\n      and\n      eq\n        /* \"https://github.com/OpenZeppelin/openzeppelin-contracts/blob/v4.8.0/contracts/access/AccessControl.sol\":5999:6082  require(account == _msgSender(), \"AccessControl: can only renounce roles for self\") */\n      tag_122\n      jumpi\n      mload(0x40)\n      0x08c379a000000000000000000000000000000000000000000000000000000000\n      dup2\n      mstore\n      0x04\n      add\n      tag_123\n      swap1\n      tag_124\n      jump\t// in\n    tag_123:\n      mload(0x40)\n      dup1\n      swap2\n      sub\n      swap1\n      revert\n    tag_122:\n        /* \"https://github.com/OpenZeppelin/openzeppelin-contracts/blob/v4.8.0/contracts/access/AccessControl.sol\":6093:6119  _revokeRole(role, account) */\n      tag_125\n        /* \"https://github.com/OpenZeppelin/openzeppelin-contracts/blob/v4.8.0/contracts/access/AccessControl.sol\":6105:6109  role */\n      dup3\n        /* \"https://github.com/OpenZeppelin/openzeppelin-contracts/blob/v4.8.0/contracts/access/AccessControl.sol\":6111:6118  account */\n      dup3\n        /* \"https://github.com/OpenZeppelin/openzeppelin-contracts/blob/v4.8.0/contracts/access/AccessControl.sol\":6093:6104  _revokeRole */\n      tag_126\n        /* \"https://github.com/OpenZeppelin/openzeppelin-contracts/blob/v4.8.0/contracts/access/AccessControl.sol\":6093:6119  _revokeRole(role, account) */\n      jump\t// in\n    tag_125:\n        /* \"https://github.com/OpenZeppelin/openzeppelin-contracts/blob/v4.8.0/contracts/access/AccessControl.sol\":5912:6126  function renounceRole(bytes32 role, address account) public virtual override {... */\n      pop\n      pop\n      jump\t// out\n        /* \"contracts/v2/TikTrix.sol\":3139:3326  function getGameInfo(uint256 gameSeq) external view returns (GameInfo memory) {... */\n    tag_48:\n        /* \"contracts/v2/TikTrix.sol\":3200:3215  GameInfo memory */\n      tag_127\n      tag_128\n      jump\t// in\n    tag_127:\n        /* \"contracts/v2/TikTrix.sol\":3235:3244  gameInfos */\n      0x02\n        /* \"contracts/v2/TikTrix.sol\":3235:3253  gameInfos[gameSeq] */\n      0x00\n        /* \"contracts/v2/TikTrix.sol\":3245:3252  gameSeq */\n      dup4\n        /* \"contracts/v2/TikTrix.sol\":3235:3253  gameInfos[gameSeq] */\n      dup2\n      mstore\n      0x20\n      add\n      swap1\n      dup2\n      mstore\n      0x20\n      add\n      0x00\n      keccak256\n        /* \"contracts/v2/TikTrix.sol\":3235:3260  gameInfos[gameSeq].exists */\n      0x03\n      add\n      0x00\n      swap1\n      sload\n      swap1\n      0x0100\n      exp\n      swap1\n      div\n      0xff\n      and\n        /* \"contracts/v2/TikTrix.sol\":3227:3284  require(gameInfos[gameSeq].exists, \"Game does not exist\") */\n      tag_130\n      jumpi\n      mload(0x40)\n      0x08c379a000000000000000000000000000000000000000000000000000000000\n      dup2\n      mstore\n      0x04\n      add\n      tag_131\n      swap1\n      tag_132\n      jump\t// in\n    tag_131:\n      mload(0x40)\n      dup1\n      swap2\n      sub\n      swap1\n      revert\n    tag_130:\n        /* \"contracts/v2/TikTrix.sol\":3301:3310  gameInfos */\n      0x02\n        /* \"contracts/v2/TikTrix.sol\":3301:3319  gameInfos[gameSeq] */\n      0x00\n        /* \"contracts/v2/TikTrix.sol\":3311:3318  gameSeq */\n      dup4\n        /* \"contracts/v2/TikTrix.sol\":3301:3319  gameInfos[gameSeq] */\n      dup2\n      mstore\n      0x20\n      add\n      swap1\n      dup2\n      mstore\n      0x20\n      add\n      0x00\n      keccak256\n        /* \"contracts/v2/TikTrix.sol\":3294:3319  return gameInfos[gameSeq] */\n      mload(0x40)\n      dup1\n      0x80\n      add\n      0x40\n      mstore\n      swap1\n      dup2\n      0x00\n      dup3\n      add\n      sload\n      dup2\n      mstore\n      0x20\n      add\n      0x01\n      dup3\n      add\n      sload\n      dup2\n      mstore\n      0x20\n      add\n      0x02\n      dup3\n      add\n      dup1\n      sload\n      tag_133\n      swap1\n      tag_134\n      jump\t// in\n    tag_133:\n      dup1\n      0x1f\n      add\n      0x20\n      dup1\n      swap2\n      div\n      mul\n      0x20\n      add\n      mload(0x40)\n      swap1\n      dup2\n      add\n      0x40\n      mstore\n      dup1\n      swap3\n      swap2\n      swap1\n      dup2\n      dup2\n      mstore\n      0x20\n      add\n      dup3\n      dup1\n      sload\n      tag_135\n      swap1\n      tag_134\n      jump\t// in\n    tag_135:\n      dup1\n      iszero\n      tag_136\n      jumpi\n      dup1\n      0x1f\n      lt\n      tag_137\n      jumpi\n      0x0100\n      dup1\n      dup4\n      sload\n      div\n      mul\n      dup4\n      mstore\n      swap2\n      0x20\n      add\n      swap2\n      jump(tag_136)\n    tag_137:\n      dup3\n      add\n      swap2\n      swap1\n      0x00\n      mstore\n      keccak256(0x00, 0x20)\n      swap1\n    tag_138:\n      dup2\n      sload\n      dup2\n      mstore\n      swap1\n      0x01\n      add\n      swap1\n      0x20\n      add\n      dup1\n      dup4\n      gt\n      tag_138\n      jumpi\n      dup3\n      swap1\n      sub\n      0x1f\n      and\n      dup3\n      add\n      swap2\n    tag_136:\n      pop\n      pop\n      pop\n      pop\n      pop\n      dup2\n      mstore\n      0x20\n      add\n      0x03\n      dup3\n      add\n      0x00\n      swap1\n      sload\n      swap1\n      0x0100\n      exp\n      swap1\n      div\n      0xff\n      and\n      iszero\n      iszero\n      iszero\n      iszero\n      dup2\n      mstore\n      pop\n      pop\n      swap1\n      pop\n        /* \"contracts/v2/TikTrix.sol\":3139:3326  function getGameInfo(uint256 gameSeq) external view returns (GameInfo memory) {... */\n      swap2\n      swap1\n      pop\n      jump\t// out\n        /* \"contracts/v2/TikTrix.sol\":468:528  bytes32 public constant ADMIN_ROLE = keccak256(\"ADMIN_ROLE\") */\n    tag_52:\n        /* \"contracts/v2/TikTrix.sol\":505:528  keccak256(\"ADMIN_ROLE\") */\n      0xa49807205ce4d355092ef5a8a18f56e8913cf4a201fbe287825b095693c21775\n        /* \"contracts/v2/TikTrix.sol\":468:528  bytes32 public constant ADMIN_ROLE = keccak256(\"ADMIN_ROLE\") */\n      dup2\n      jump\t// out\n        /* \"contracts/v2/TikTrix.sol\":757:802  mapping(uint256 => GameInfo) public gameInfos */\n    tag_56:\n      mstore(0x20, 0x02)\n      dup1\n      0x00\n      mstore\n      keccak256(0x00, 0x40)\n      0x00\n      swap2\n      pop\n      swap1\n      pop\n      dup1\n      0x00\n      add\n      sload\n      swap1\n      dup1\n      0x01\n      add\n      sload\n      swap1\n      dup1\n      0x02\n      add\n      dup1\n      sload\n      tag_139\n      swap1\n      tag_134\n      jump\t// in\n    tag_139:\n      dup1\n      0x1f\n      add\n      0x20\n      dup1\n      swap2\n      div\n      mul\n      0x20\n      add\n      mload(0x40)\n      swap1\n      dup2\n      add\n      0x40\n      mstore\n      dup1\n      swap3\n      swap2\n      swap1\n      dup2\n      dup2\n      mstore\n      0x20\n      add\n      dup3\n      dup1\n      sload\n      tag_140\n      swap1\n      tag_134\n      jump\t// in\n    tag_140:\n      dup1\n      iszero\n      tag_141\n      jumpi\n      dup1\n      0x1f\n      lt\n      tag_142\n      jumpi\n      0x0100\n      dup1\n      dup4\n      sload\n      div\n      mul\n      dup4\n      mstore\n      swap2\n      0x20\n      add\n      swap2\n      jump(tag_141)\n    tag_142:\n      dup3\n      add\n      swap2\n      swap1\n      0x00\n      mstore\n      keccak256(0x00, 0x20)\n      swap1\n    tag_143:\n      dup2\n      sload\n      dup2\n      mstore\n      swap1\n      0x01\n      add\n      swap1\n      0x20\n      add\n      dup1\n      dup4\n      gt\n      tag_143\n      jumpi\n      dup3\n      swap1\n      sub\n      0x1f\n      and\n      dup3\n      add\n      swap2\n    tag_141:\n      pop\n      pop\n      pop\n      pop\n      pop\n      swap1\n      dup1\n      0x03\n      add\n      0x00\n      swap1\n      sload\n      swap1\n      0x0100\n      exp\n      swap1\n      div\n      0xff\n      and\n      swap1\n      pop\n      dup5\n      jump\t// out\n        /* \"contracts/v2/TikTrix.sol\":1735:2087  function gameRegister(uint256 developerSeq, uint256 gameSeq, string memory title) external onlyRole(ADMIN_ROLE) {... */\n    tag_62:\n        /* \"contracts/v2/TikTrix.sol\":505:528  keccak256(\"ADMIN_ROLE\") */\n      0xa49807205ce4d355092ef5a8a18f56e8913cf4a201fbe287825b095693c21775\n        /* \"https://github.com/OpenZeppelin/openzeppelin-contracts/blob/v4.8.0/contracts/access/AccessControl.sol\":2505:2521  _checkRole(role) */\n      tag_145\n        /* \"https://github.com/OpenZeppelin/openzeppelin-contracts/blob/v4.8.0/contracts/access/AccessControl.sol\":2516:2520  role */\n      dup2\n        /* \"https://github.com/OpenZeppelin/openzeppelin-contracts/blob/v4.8.0/contracts/access/AccessControl.sol\":2505:2515  _checkRole */\n      tag_115\n        /* \"https://github.com/OpenZeppelin/openzeppelin-contracts/blob/v4.8.0/contracts/access/AccessControl.sol\":2505:2521  _checkRole(role) */\n      jump\t// in\n    tag_145:\n        /* \"contracts/v2/TikTrix.sol\":1878:2020  GameInfo({... */\n      mload(0x40)\n      dup1\n      0x80\n      add\n      0x40\n      mstore\n      dup1\n        /* \"contracts/v2/TikTrix.sol\":1915:1927  developerSeq */\n      dup6\n        /* \"contracts/v2/TikTrix.sol\":1878:2020  GameInfo({... */\n      dup2\n      mstore\n      0x20\n      add\n        /* \"contracts/v2/TikTrix.sol\":1950:1957  gameSeq */\n      dup5\n        /* \"contracts/v2/TikTrix.sol\":1878:2020  GameInfo({... */\n      dup2\n      mstore\n      0x20\n      add\n        /* \"contracts/v2/TikTrix.sol\":1978:1983  title */\n      dup4\n        /* \"contracts/v2/TikTrix.sol\":1878:2020  GameInfo({... */\n      dup2\n      mstore\n      0x20\n      add\n        /* \"contracts/v2/TikTrix.sol\":2005:2009  true */\n      0x01\n        /* \"contracts/v2/TikTrix.sol\":1878:2020  GameInfo({... */\n      iszero\n      iszero\n      dup2\n      mstore\n      pop\n        /* \"contracts/v2/TikTrix.sol\":1857:1866  gameInfos */\n      0x02\n        /* \"contracts/v2/TikTrix.sol\":1857:1875  gameInfos[gameSeq] */\n      0x00\n        /* \"contracts/v2/TikTrix.sol\":1867:1874  gameSeq */\n      dup6\n        /* \"contracts/v2/TikTrix.sol\":1857:1875  gameInfos[gameSeq] */\n      dup2\n      mstore\n      0x20\n      add\n      swap1\n      dup2\n      mstore\n      0x20\n      add\n      0x00\n      keccak256\n        /* \"contracts/v2/TikTrix.sol\":1857:2020  gameInfos[gameSeq] = GameInfo({... */\n      0x00\n      dup3\n      add\n      mload\n      dup2\n      0x00\n      add\n      sstore\n      0x20\n      dup3\n      add\n      mload\n      dup2\n      0x01\n      add\n      sstore\n      0x40\n      dup3\n      add\n      mload\n      dup2\n      0x02\n      add\n      swap1\n      dup2\n      tag_147\n      swap2\n      swap1\n      tag_148\n      jump\t// in\n    tag_147:\n      pop\n      0x60\n      dup3\n      add\n      mload\n      dup2\n      0x03\n      add\n      exp(0x0100, 0x00)\n      dup2\n      sload\n      dup2\n      0xff\n      mul\n      not\n      and\n      swap1\n      dup4\n      iszero\n      iszero\n      mul\n      or\n      swap1\n      sstore\n      pop\n      swap1\n      pop\n      pop\n        /* \"contracts/v2/TikTrix.sol\":2036:2080  GameRegistered(developerSeq, gameSeq, title) */\n      0xd8e2cd0473b83461e66f336b5655c077dbd1203e041ad68b1d6f2c4c5ec2593d\n        /* \"contracts/v2/TikTrix.sol\":2051:2063  developerSeq */\n      dup5\n        /* \"contracts/v2/TikTrix.sol\":2065:2072  gameSeq */\n      dup5\n        /* \"contracts/v2/TikTrix.sol\":2074:2079  title */\n      dup5\n        /* \"contracts/v2/TikTrix.sol\":2036:2080  GameRegistered(developerSeq, gameSeq, title) */\n      mload(0x40)\n      tag_149\n      swap4\n      swap3\n      swap2\n      swap1\n      tag_150\n      jump\t// in\n    tag_149:\n      mload(0x40)\n      dup1\n      swap2\n      sub\n      swap1\n      log1\n        /* \"contracts/v2/TikTrix.sol\":1735:2087  function gameRegister(uint256 developerSeq, uint256 gameSeq, string memory title) external onlyRole(ADMIN_ROLE) {... */\n      pop\n      pop\n      pop\n      pop\n      jump\t// out\n        /* \"contracts/v2/TikTrix.sol\":2511:2722  function gameDelete(uint256 gameSeq) external onlyRole(ADMIN_ROLE) {... */\n    tag_65:\n        /* \"contracts/v2/TikTrix.sol\":505:528  keccak256(\"ADMIN_ROLE\") */\n      0xa49807205ce4d355092ef5a8a18f56e8913cf4a201fbe287825b095693c21775\n        /* \"https://github.com/OpenZeppelin/openzeppelin-contracts/blob/v4.8.0/contracts/access/AccessControl.sol\":2505:2521  _checkRole(role) */\n      tag_152\n        /* \"https://github.com/OpenZeppelin/openzeppelin-contracts/blob/v4.8.0/contracts/access/AccessControl.sol\":2516:2520  role */\n      dup2\n        /* \"https://github.com/OpenZeppelin/openzeppelin-contracts/blob/v4.8.0/contracts/access/AccessControl.sol\":2505:2515  _checkRole */\n      tag_115\n        /* \"https://github.com/OpenZeppelin/openzeppelin-contracts/blob/v4.8.0/contracts/access/AccessControl.sol\":2505:2521  _checkRole(role) */\n      jump\t// in\n    tag_152:\n        /* \"contracts/v2/TikTrix.sol\":2596:2605  gameInfos */\n      0x02\n        /* \"contracts/v2/TikTrix.sol\":2596:2614  gameInfos[gameSeq] */\n      0x00\n        /* \"contracts/v2/TikTrix.sol\":2606:2613  gameSeq */\n      dup4\n        /* \"contracts/v2/TikTrix.sol\":2596:2614  gameInfos[gameSeq] */\n      dup2\n      mstore\n      0x20\n      add\n      swap1\n      dup2\n      mstore\n      0x20\n      add\n      0x00\n      keccak256\n        /* \"contracts/v2/TikTrix.sol\":2596:2621  gameInfos[gameSeq].exists */\n      0x03\n      add\n      0x00\n      swap1\n      sload\n      swap1\n      0x0100\n      exp\n      swap1\n      div\n      0xff\n      and\n        /* \"contracts/v2/TikTrix.sol\":2588:2645  require(gameInfos[gameSeq].exists, \"Game does not exist\") */\n      tag_154\n      jumpi\n      mload(0x40)\n      0x08c379a000000000000000000000000000000000000000000000000000000000\n      dup2\n      mstore\n      0x04\n      add\n      tag_155\n      swap1\n      tag_132\n      jump\t// in\n    tag_155:\n      mload(0x40)\n      dup1\n      swap2\n      sub\n      swap1\n      revert\n    tag_154:\n        /* \"contracts/v2/TikTrix.sol\":2662:2671  gameInfos */\n      0x02\n        /* \"contracts/v2/TikTrix.sol\":2662:2680  gameInfos[gameSeq] */\n      0x00\n        /* \"contracts/v2/TikTrix.sol\":2672:2679  gameSeq */\n      dup4\n        /* \"contracts/v2/TikTrix.sol\":2662:2680  gameInfos[gameSeq] */\n      dup2\n      mstore\n      0x20\n      add\n      swap1\n      dup2\n      mstore\n      0x20\n      add\n      0x00\n      keccak256\n      0x00\n        /* \"contracts/v2/TikTrix.sol\":2655:2680  delete gameInfos[gameSeq] */\n      dup1\n      dup3\n      add\n      0x00\n      swap1\n      sstore\n      0x01\n      dup3\n      add\n      0x00\n      swap1\n      sstore\n      0x02\n      dup3\n      add\n      0x00\n      tag_156\n      swap2\n      swap1\n      tag_157\n      jump\t// in\n    tag_156:\n      0x03\n      dup3\n      add\n      exp(0x0100, 0x00)\n      dup2\n      sload\n      swap1\n      0xff\n      mul\n      not\n      and\n      swap1\n      sstore\n      pop\n      pop\n        /* \"contracts/v2/TikTrix.sol\":2707:2714  gameSeq */\n      dup2\n        /* \"contracts/v2/TikTrix.sol\":2695:2715  GameDeleted(gameSeq) */\n      0x5ef6221cc1c069a8c723210c08d526c7ca88540ee8d66470cf01844efaae0b94\n      mload(0x40)\n      mload(0x40)\n      dup1\n      swap2\n      sub\n      swap1\n      log2\n        /* \"contracts/v2/TikTrix.sol\":2511:2722  function gameDelete(uint256 gameSeq) external onlyRole(ADMIN_ROLE) {... */\n      pop\n      pop\n      jump\t// out\n        /* \"https://github.com/OpenZeppelin/openzeppelin-contracts/blob/v4.8.0/contracts/access/AccessControl.sol\":2895:3040  function hasRole(bytes32 role, address account) public view virtual override returns (bool) {... */\n    tag_68:\n        /* \"https://github.com/OpenZeppelin/openzeppelin-contracts/blob/v4.8.0/contracts/access/AccessControl.sol\":2981:2985  bool */\n      0x00\n        /* \"https://github.com/OpenZeppelin/openzeppelin-contracts/blob/v4.8.0/contracts/access/AccessControl.sol\":3004:3010  _roles */\n      dup1\n        /* \"https://github.com/OpenZeppelin/openzeppelin-contracts/blob/v4.8.0/contracts/access/AccessControl.sol\":3004:3016  _roles[role] */\n      0x00\n        /* \"https://github.com/OpenZeppelin/openzeppelin-contracts/blob/v4.8.0/contracts/access/AccessControl.sol\":3011:3015  role */\n      dup5\n        /* \"https://github.com/OpenZeppelin/openzeppelin-contracts/blob/v4.8.0/contracts/access/AccessControl.sol\":3004:3016  _roles[role] */\n      dup2\n      mstore\n      0x20\n      add\n      swap1\n      dup2\n      mstore\n      0x20\n      add\n      0x00\n      keccak256\n        /* \"https://github.com/OpenZeppelin/openzeppelin-contracts/blob/v4.8.0/contracts/access/AccessControl.sol\":3004:3024  _roles[role].members */\n      0x00\n      add\n        /* \"https://github.com/OpenZeppelin/openzeppelin-contracts/blob/v4.8.0/contracts/access/AccessControl.sol\":3004:3033  _roles[role].members[account] */\n      0x00\n        /* \"https://github.com/OpenZeppelin/openzeppelin-contracts/blob/v4.8.0/contracts/access/AccessControl.sol\":3025:3032  account */\n      dup4\n        /* \"https://github.com/OpenZeppelin/openzeppelin-contracts/blob/v4.8.0/contracts/access/AccessControl.sol\":3004:3033  _roles[role].members[account] */\n      0xffffffffffffffffffffffffffffffffffffffff\n      and\n      0xffffffffffffffffffffffffffffffffffffffff\n      and\n      dup2\n      mstore\n      0x20\n      add\n      swap1\n      dup2\n      mstore\n      0x20\n      add\n      0x00\n      keccak256\n      0x00\n      swap1\n      sload\n      swap1\n      0x0100\n      exp\n      swap1\n      div\n      0xff\n      and\n        /* \"https://github.com/OpenZeppelin/openzeppelin-contracts/blob/v4.8.0/contracts/access/AccessControl.sol\":2997:3033  return _roles[role].members[account] */\n      swap1\n      pop\n        /* \"https://github.com/OpenZeppelin/openzeppelin-contracts/blob/v4.8.0/contracts/access/AccessControl.sol\":2895:3040  function hasRole(bytes32 role, address account) public view virtual override returns (bool) {... */\n      swap3\n      swap2\n      pop\n      pop\n      jump\t// out\n        /* \"contracts/v2/TikTrix.sol\":1603:1729  function revokeAdminRole(address account) public onlyRole(DEFAULT_ADMIN_ROLE) {... */\n    tag_73:\n        /* \"https://github.com/OpenZeppelin/openzeppelin-contracts/blob/v4.8.0/contracts/access/AccessControl.sol\":2072:2076  0x00 */\n      0x00\n        /* \"contracts/v2/TikTrix.sol\":1661:1679  DEFAULT_ADMIN_ROLE */\n      dup1\n      shl\n        /* \"https://github.com/OpenZeppelin/openzeppelin-contracts/blob/v4.8.0/contracts/access/AccessControl.sol\":2505:2521  _checkRole(role) */\n      tag_160\n        /* \"https://github.com/OpenZeppelin/openzeppelin-contracts/blob/v4.8.0/contracts/access/AccessControl.sol\":2516:2520  role */\n      dup2\n        /* \"https://github.com/OpenZeppelin/openzeppelin-contracts/blob/v4.8.0/contracts/access/AccessControl.sol\":2505:2515  _checkRole */\n      tag_115\n        /* \"https://github.com/OpenZeppelin/openzeppelin-contracts/blob/v4.8.0/contracts/access/AccessControl.sol\":2505:2521  _checkRole(role) */\n      jump\t// in\n    tag_160:\n        /* \"contracts/v2/TikTrix.sol\":1691:1722  revokeRole(ADMIN_ROLE, account) */\n      tag_162\n        /* \"contracts/v2/TikTrix.sol\":505:528  keccak256(\"ADMIN_ROLE\") */\n      0xa49807205ce4d355092ef5a8a18f56e8913cf4a201fbe287825b095693c21775\n        /* \"contracts/v2/TikTrix.sol\":1714:1721  account */\n      dup4\n        /* \"contracts/v2/TikTrix.sol\":1691:1701  revokeRole */\n      tag_102\n        /* \"contracts/v2/TikTrix.sol\":1691:1722  revokeRole(ADMIN_ROLE, account) */\n      jump\t// in\n    tag_162:\n        /* \"contracts/v2/TikTrix.sol\":1603:1729  function revokeAdminRole(address account) public onlyRole(DEFAULT_ADMIN_ROLE) {... */\n      pop\n      pop\n      jump\t// out\n        /* \"https://github.com/OpenZeppelin/openzeppelin-contracts/blob/v4.8.0/contracts/access/AccessControl.sol\":2027:2076  bytes32 public constant DEFAULT_ADMIN_ROLE = 0x00 */\n    tag_75:\n        /* \"https://github.com/OpenZeppelin/openzeppelin-contracts/blob/v4.8.0/contracts/access/AccessControl.sol\":2072:2076  0x00 */\n      0x00\n        /* \"https://github.com/OpenZeppelin/openzeppelin-contracts/blob/v4.8.0/contracts/access/AccessControl.sol\":2027:2076  bytes32 public constant DEFAULT_ADMIN_ROLE = 0x00 */\n      dup1\n      shl\n      dup2\n      jump\t// out\n        /* \"contracts/v2/TikTrix.sol\":1334:1467  function setTokens(address entTokenAddress) external onlyRole(ADMIN_ROLE) {... */\n    tag_79:\n        /* \"contracts/v2/TikTrix.sol\":505:528  keccak256(\"ADMIN_ROLE\") */\n      0xa49807205ce4d355092ef5a8a18f56e8913cf4a201fbe287825b095693c21775\n        /* \"https://github.com/OpenZeppelin/openzeppelin-contracts/blob/v4.8.0/contracts/access/AccessControl.sol\":2505:2521  _checkRole(role) */\n      tag_164\n        /* \"https://github.com/OpenZeppelin/openzeppelin-contracts/blob/v4.8.0/contracts/access/AccessControl.sol\":2516:2520  role */\n      dup2\n        /* \"https://github.com/OpenZeppelin/openzeppelin-contracts/blob/v4.8.0/contracts/access/AccessControl.sol\":2505:2515  _checkRole */\n      tag_115\n        /* \"https://github.com/OpenZeppelin/openzeppelin-contracts/blob/v4.8.0/contracts/access/AccessControl.sol\":2505:2521  _checkRole(role) */\n      jump\t// in\n    tag_164:\n        /* \"contracts/v2/TikTrix.sol\":1444:1459  entTokenAddress */\n      dup2\n        /* \"contracts/v2/TikTrix.sol\":1418:1426  entToken */\n      0x01\n      0x00\n        /* \"contracts/v2/TikTrix.sol\":1418:1460  entToken = IERC20Mintable(entTokenAddress) */\n      0x0100\n      exp\n      dup2\n      sload\n      dup2\n      0xffffffffffffffffffffffffffffffffffffffff\n      mul\n      not\n      and\n      swap1\n      dup4\n      0xffffffffffffffffffffffffffffffffffffffff\n      and\n      mul\n      or\n      swap1\n      sstore\n      pop\n        /* \"contracts/v2/TikTrix.sol\":1334:1467  function setTokens(address entTokenAddress) external onlyRole(ADMIN_ROLE) {... */\n      pop\n      pop\n      jump\t// out\n        /* \"contracts/v2/TikTrix.sol\":3332:3542  function getMemberInfo(uint256 memberSeq) external view returns (MemberInfo memory) {... */\n    tag_82:\n        /* \"contracts/v2/TikTrix.sol\":3397:3414  MemberInfo memory */\n      tag_166\n      tag_167\n      jump\t// in\n    tag_166:\n        /* \"contracts/v2/TikTrix.sol\":3469:3470  0 */\n      0x00\n        /* \"contracts/v2/TikTrix.sol\":3434:3445  memberInfos */\n      0x03\n        /* \"contracts/v2/TikTrix.sol\":3434:3456  memberInfos[memberSeq] */\n      0x00\n        /* \"contracts/v2/TikTrix.sol\":3446:3455  memberSeq */\n      dup5\n        /* \"contracts/v2/TikTrix.sol\":3434:3456  memberInfos[memberSeq] */\n      dup2\n      mstore\n      0x20\n      add\n      swap1\n      dup2\n      mstore\n      0x20\n      add\n      0x00\n      keccak256\n        /* \"contracts/v2/TikTrix.sol\":3434:3466  memberInfos[memberSeq].memberSeq */\n      0x00\n      add\n      sload\n        /* \"contracts/v2/TikTrix.sol\":3434:3470  memberInfos[memberSeq].memberSeq > 0 */\n      gt\n        /* \"contracts/v2/TikTrix.sol\":3426:3496  require(memberInfos[memberSeq].memberSeq > 0, \"Member does not exist\") */\n      tag_169\n      jumpi\n      mload(0x40)\n      0x08c379a000000000000000000000000000000000000000000000000000000000\n      dup2\n      mstore\n      0x04\n      add\n      tag_170\n      swap1\n      tag_171\n      jump\t// in\n    tag_170:\n      mload(0x40)\n      dup1\n      swap2\n      sub\n      swap1\n      revert\n    tag_169:\n        /* \"contracts/v2/TikTrix.sol\":3513:3524  memberInfos */\n      0x03\n        /* \"contracts/v2/TikTrix.sol\":3513:3535  memberInfos[memberSeq] */\n      0x00\n        /* \"contracts/v2/TikTrix.sol\":3525:3534  memberSeq */\n      dup4\n        /* \"contracts/v2/TikTrix.sol\":3513:3535  memberInfos[memberSeq] */\n      dup2\n      mstore\n      0x20\n      add\n      swap1\n      dup2\n      mstore\n      0x20\n      add\n      0x00\n      keccak256\n        /* \"contracts/v2/TikTrix.sol\":3506:3535  return memberInfos[memberSeq] */\n      mload(0x40)\n      dup1\n      0x20\n      add\n      0x40\n      mstore\n      swap1\n      dup2\n      0x00\n      dup3\n      add\n      sload\n      dup2\n      mstore\n      pop\n      pop\n      swap1\n      pop\n        /* \"contracts/v2/TikTrix.sol\":3332:3542  function getMemberInfo(uint256 memberSeq) external view returns (MemberInfo memory) {... */\n      swap2\n      swap1\n      pop\n      jump\t// out\n        /* \"contracts/v2/TikTrix.sol\":2728:3133  function memberRegister(uint256 memberSeq, address mintAddress, uint256 tokenAmount) external onlyRole(ADMIN_ROLE) {... */\n    tag_88:\n        /* \"contracts/v2/TikTrix.sol\":505:528  keccak256(\"ADMIN_ROLE\") */\n      0xa49807205ce4d355092ef5a8a18f56e8913cf4a201fbe287825b095693c21775\n        /* \"https://github.com/OpenZeppelin/openzeppelin-contracts/blob/v4.8.0/contracts/access/AccessControl.sol\":2505:2521  _checkRole(role) */\n      tag_173\n        /* \"https://github.com/OpenZeppelin/openzeppelin-contracts/blob/v4.8.0/contracts/access/AccessControl.sol\":2516:2520  role */\n      dup2\n        /* \"https://github.com/OpenZeppelin/openzeppelin-contracts/blob/v4.8.0/contracts/access/AccessControl.sol\":2505:2515  _checkRole */\n      tag_115\n        /* \"https://github.com/OpenZeppelin/openzeppelin-contracts/blob/v4.8.0/contracts/access/AccessControl.sol\":2505:2521  _checkRole(role) */\n      jump\t// in\n    tag_173:\n        /* \"contracts/v2/TikTrix.sol\":2897:2898  0 */\n      0x00\n        /* \"contracts/v2/TikTrix.sol\":2861:2872  memberInfos */\n      0x03\n        /* \"contracts/v2/TikTrix.sol\":2861:2883  memberInfos[memberSeq] */\n      0x00\n        /* \"contracts/v2/TikTrix.sol\":2873:2882  memberSeq */\n      dup7\n        /* \"contracts/v2/TikTrix.sol\":2861:2883  memberInfos[memberSeq] */\n      dup2\n      mstore\n      0x20\n      add\n      swap1\n      dup2\n      mstore\n      0x20\n      add\n      0x00\n      keccak256\n        /* \"contracts/v2/TikTrix.sol\":2861:2893  memberInfos[memberSeq].memberSeq */\n      0x00\n      add\n      sload\n        /* \"contracts/v2/TikTrix.sol\":2861:2898  memberInfos[memberSeq].memberSeq == 0 */\n      eq\n        /* \"contracts/v2/TikTrix.sol\":2853:2928  require(memberInfos[memberSeq].memberSeq == 0, \"Member already registered\") */\n      tag_175\n      jumpi\n      mload(0x40)\n      0x08c379a000000000000000000000000000000000000000000000000000000000\n      dup2\n      mstore\n      0x04\n      add\n      tag_176\n      swap1\n      tag_177\n      jump\t// in\n    tag_176:\n      mload(0x40)\n      dup1\n      swap2\n      sub\n      swap1\n      revert\n    tag_175:\n        /* \"contracts/v2/TikTrix.sol\":2964:3020  MemberInfo({... */\n      mload(0x40)\n      dup1\n      0x20\n      add\n      0x40\n      mstore\n      dup1\n        /* \"contracts/v2/TikTrix.sol\":3000:3009  memberSeq */\n      dup6\n        /* \"contracts/v2/TikTrix.sol\":2964:3020  MemberInfo({... */\n      dup2\n      mstore\n      pop\n        /* \"contracts/v2/TikTrix.sol\":2939:2950  memberInfos */\n      0x03\n        /* \"contracts/v2/TikTrix.sol\":2939:2961  memberInfos[memberSeq] */\n      0x00\n        /* \"contracts/v2/TikTrix.sol\":2951:2960  memberSeq */\n      dup7\n        /* \"contracts/v2/TikTrix.sol\":2939:2961  memberInfos[memberSeq] */\n      dup2\n      mstore\n      0x20\n      add\n      swap1\n      dup2\n      mstore\n      0x20\n      add\n      0x00\n      keccak256\n        /* \"contracts/v2/TikTrix.sol\":2939:3020  memberInfos[memberSeq] = MemberInfo({... */\n      0x00\n      dup3\n      add\n      mload\n      dup2\n      0x00\n      add\n      sstore\n      swap1\n      pop\n      pop\n        /* \"contracts/v2/TikTrix.sol\":3031:3039  entToken */\n      0x01\n      0x00\n      swap1\n      sload\n      swap1\n      0x0100\n      exp\n      swap1\n      div\n      0xffffffffffffffffffffffffffffffffffffffff\n      and\n        /* \"contracts/v2/TikTrix.sol\":3031:3044  entToken.mint */\n      0xffffffffffffffffffffffffffffffffffffffff\n      and\n      0x40c10f19\n        /* \"contracts/v2/TikTrix.sol\":3045:3056  mintAddress */\n      dup5\n        /* \"contracts/v2/TikTrix.sol\":3058:3069  tokenAmount */\n      dup5\n        /* \"contracts/v2/TikTrix.sol\":3031:3070  entToken.mint(mintAddress, tokenAmount) */\n      mload(0x40)\n      dup4\n      0xffffffff\n      and\n      0xe0\n      shl\n      dup2\n      mstore\n      0x04\n      add\n      tag_178\n      swap3\n      swap2\n      swap1\n      tag_179\n      jump\t// in\n    tag_178:\n      0x00\n      mload(0x40)\n      dup1\n      dup4\n      sub\n      dup2\n      0x00\n      dup8\n      dup1\n      extcodesize\n      iszero\n      dup1\n      iszero\n      tag_180\n      jumpi\n      0x00\n      dup1\n      revert\n    tag_180:\n      pop\n      gas\n      call\n      iszero\n      dup1\n      iszero\n      tag_182\n      jumpi\n      returndatasize\n      0x00\n      dup1\n      returndatacopy\n      revert(0x00, returndatasize)\n    tag_182:\n      pop\n      pop\n      pop\n      pop\n        /* \"contracts/v2/TikTrix.sol\":3086:3126  MemberRegistered(memberSeq, tokenAmount) */\n      0x5a92c2530f207992057b9c3e544108ffce3beda4a63719f316967c49bf6159d2\n        /* \"contracts/v2/TikTrix.sol\":3103:3112  memberSeq */\n      dup5\n        /* \"contracts/v2/TikTrix.sol\":3114:3125  tokenAmount */\n      dup4\n        /* \"contracts/v2/TikTrix.sol\":3086:3126  MemberRegistered(memberSeq, tokenAmount) */\n      mload(0x40)\n      tag_183\n      swap3\n      swap2\n      swap1\n      tag_184\n      jump\t// in\n    tag_183:\n      mload(0x40)\n      dup1\n      swap2\n      sub\n      swap1\n      log1\n        /* \"contracts/v2/TikTrix.sol\":2728:3133  function memberRegister(uint256 memberSeq, address mintAddress, uint256 tokenAmount) external onlyRole(ADMIN_ROLE) {... */\n      pop\n      pop\n      pop\n      pop\n      jump\t// out\n        /* \"contracts/v2/TikTrix.sol\":2093:2505  function gameUpdate(uint256 developerSeq, uint256 gameSeq, string memory title) external onlyRole(ADMIN_ROLE) {... */\n    tag_91:\n        /* \"contracts/v2/TikTrix.sol\":505:528  keccak256(\"ADMIN_ROLE\") */\n      0xa49807205ce4d355092ef5a8a18f56e8913cf4a201fbe287825b095693c21775\n        /* \"https://github.com/OpenZeppelin/openzeppelin-contracts/blob/v4.8.0/contracts/access/AccessControl.sol\":2505:2521  _checkRole(role) */\n      tag_186\n        /* \"https://github.com/OpenZeppelin/openzeppelin-contracts/blob/v4.8.0/contracts/access/AccessControl.sol\":2516:2520  role */\n      dup2\n        /* \"https://github.com/OpenZeppelin/openzeppelin-contracts/blob/v4.8.0/contracts/access/AccessControl.sol\":2505:2515  _checkRole */\n      tag_115\n        /* \"https://github.com/OpenZeppelin/openzeppelin-contracts/blob/v4.8.0/contracts/access/AccessControl.sol\":2505:2521  _checkRole(role) */\n      jump\t// in\n    tag_186:\n        /* \"contracts/v2/TikTrix.sol\":2221:2230  gameInfos */\n      0x02\n        /* \"contracts/v2/TikTrix.sol\":2221:2239  gameInfos[gameSeq] */\n      0x00\n        /* \"contracts/v2/TikTrix.sol\":2231:2238  gameSeq */\n      dup5\n        /* \"contracts/v2/TikTrix.sol\":2221:2239  gameInfos[gameSeq] */\n      dup2\n      mstore\n      0x20\n      add\n      swap1\n      dup2\n      mstore\n      0x20\n      add\n      0x00\n      keccak256\n        /* \"contracts/v2/TikTrix.sol\":2221:2246  gameInfos[gameSeq].exists */\n      0x03\n      add\n      0x00\n      swap1\n      sload\n      swap1\n      0x0100\n      exp\n      swap1\n      div\n      0xff\n      and\n        /* \"contracts/v2/TikTrix.sol\":2213:2270  require(gameInfos[gameSeq].exists, \"Game does not exist\") */\n      tag_188\n      jumpi\n      mload(0x40)\n      0x08c379a000000000000000000000000000000000000000000000000000000000\n      dup2\n      mstore\n      0x04\n      add\n      tag_189\n      swap1\n      tag_132\n      jump\t// in\n    tag_189:\n      mload(0x40)\n      dup1\n      swap2\n      sub\n      swap1\n      revert\n    tag_188:\n        /* \"contracts/v2/TikTrix.sol\":2281:2306  GameInfo storage gameInfo */\n      0x00\n        /* \"contracts/v2/TikTrix.sol\":2309:2318  gameInfos */\n      0x02\n        /* \"contracts/v2/TikTrix.sol\":2309:2327  gameInfos[gameSeq] */\n      0x00\n        /* \"contracts/v2/TikTrix.sol\":2319:2326  gameSeq */\n      dup6\n        /* \"contracts/v2/TikTrix.sol\":2309:2327  gameInfos[gameSeq] */\n      dup2\n      mstore\n      0x20\n      add\n      swap1\n      dup2\n      mstore\n      0x20\n      add\n      0x00\n      keccak256\n        /* \"contracts/v2/TikTrix.sol\":2281:2327  GameInfo storage gameInfo = gameInfos[gameSeq] */\n      swap1\n      pop\n        /* \"contracts/v2/TikTrix.sol\":2361:2373  developerSeq */\n      dup5\n        /* \"contracts/v2/TikTrix.sol\":2337:2345  gameInfo */\n      dup2\n        /* \"contracts/v2/TikTrix.sol\":2337:2358  gameInfo.developerSeq */\n      0x00\n      add\n        /* \"contracts/v2/TikTrix.sol\":2337:2373  gameInfo.developerSeq = developerSeq */\n      dup2\n      swap1\n      sstore\n      pop\n        /* \"contracts/v2/TikTrix.sol\":2402:2409  gameSeq */\n      dup4\n        /* \"contracts/v2/TikTrix.sol\":2383:2391  gameInfo */\n      dup2\n        /* \"contracts/v2/TikTrix.sol\":2383:2399  gameInfo.gameSeq */\n      0x01\n      add\n        /* \"contracts/v2/TikTrix.sol\":2383:2409  gameInfo.gameSeq = gameSeq */\n      dup2\n      swap1\n      sstore\n      pop\n        /* \"contracts/v2/TikTrix.sol\":2436:2441  title */\n      dup3\n        /* \"contracts/v2/TikTrix.sol\":2419:2427  gameInfo */\n      dup2\n        /* \"contracts/v2/TikTrix.sol\":2419:2433  gameInfo.title */\n      0x02\n      add\n        /* \"contracts/v2/TikTrix.sol\":2419:2441  gameInfo.title = title */\n      swap1\n      dup2\n      tag_190\n      swap2\n      swap1\n      tag_148\n      jump\t// in\n    tag_190:\n      pop\n        /* \"contracts/v2/TikTrix.sol\":2457:2498  GameUpdated(developerSeq, gameSeq, title) */\n      0x279760c089dcaf505489fffb102c4bf947fb1847e8a7febd514bd92ffe977bc2\n        /* \"contracts/v2/TikTrix.sol\":2469:2481  developerSeq */\n      dup6\n        /* \"contracts/v2/TikTrix.sol\":2483:2490  gameSeq */\n      dup6\n        /* \"contracts/v2/TikTrix.sol\":2492:2497  title */\n      dup6\n        /* \"contracts/v2/TikTrix.sol\":2457:2498  GameUpdated(developerSeq, gameSeq, title) */\n      mload(0x40)\n      tag_191\n      swap4\n      swap3\n      swap2\n      swap1\n      tag_150\n      jump\t// in\n    tag_191:\n      mload(0x40)\n      dup1\n      swap2\n      sub\n      swap1\n      log1\n        /* \"contracts/v2/TikTrix.sol\":2203:2505  {... */\n      pop\n        /* \"contracts/v2/TikTrix.sol\":2093:2505  function gameUpdate(uint256 developerSeq, uint256 gameSeq, string memory title) external onlyRole(ADMIN_ROLE) {... */\n      pop\n      pop\n      pop\n      pop\n      jump\t// out\n        /* \"contracts/v2/TikTrix.sol\":808:857  mapping(uint256 => MemberInfo) public memberInfos */\n    tag_94:\n      mstore(0x20, 0x03)\n      dup1\n      0x00\n      mstore\n      keccak256(0x00, 0x40)\n      0x00\n      swap2\n      pop\n      swap1\n      pop\n      dup1\n      0x00\n      add\n      sload\n      swap1\n      pop\n      dup2\n      jump\t// out\n        /* \"contracts/v2/TikTrix.sol\":1473:1597  function grantAdminRole(address account) public onlyRole(DEFAULT_ADMIN_ROLE) {... */\n    tag_99:\n        /* \"https://github.com/OpenZeppelin/openzeppelin-contracts/blob/v4.8.0/contracts/access/AccessControl.sol\":2072:2076  0x00 */\n      0x00\n        /* \"contracts/v2/TikTrix.sol\":1530:1548  DEFAULT_ADMIN_ROLE */\n      dup1\n      shl\n        /* \"https://github.com/OpenZeppelin/openzeppelin-contracts/blob/v4.8.0/contracts/access/AccessControl.sol\":2505:2521  _checkRole(role) */\n      tag_193\n        /* \"https://github.com/OpenZeppelin/openzeppelin-contracts/blob/v4.8.0/contracts/access/AccessControl.sol\":2516:2520  role */\n      dup2\n        /* \"https://github.com/OpenZeppelin/openzeppelin-contracts/blob/v4.8.0/contracts/access/AccessControl.sol\":2505:2515  _checkRole */\n      tag_115\n        /* \"https://github.com/OpenZeppelin/openzeppelin-contracts/blob/v4.8.0/contracts/access/AccessControl.sol\":2505:2521  _checkRole(role) */\n      jump\t// in\n    tag_193:\n        /* \"contracts/v2/TikTrix.sol\":1560:1590  grantRole(ADMIN_ROLE, account) */\n      tag_195\n        /* \"contracts/v2/TikTrix.sol\":505:528  keccak256(\"ADMIN_ROLE\") */\n      0xa49807205ce4d355092ef5a8a18f56e8913cf4a201fbe287825b095693c21775\n        /* \"contracts/v2/TikTrix.sol\":1582:1589  account */\n      dup4\n        /* \"contracts/v2/TikTrix.sol\":1560:1569  grantRole */\n      tag_41\n        /* \"contracts/v2/TikTrix.sol\":1560:1590  grantRole(ADMIN_ROLE, account) */\n      jump\t// in\n    tag_195:\n        /* \"contracts/v2/TikTrix.sol\":1473:1597  function grantAdminRole(address account) public onlyRole(DEFAULT_ADMIN_ROLE) {... */\n      pop\n      pop\n      jump\t// out\n        /* \"https://github.com/OpenZeppelin/openzeppelin-contracts/blob/v4.8.0/contracts/access/AccessControl.sol\":5228:5375  function revokeRole(bytes32 role, address account) public virtual override onlyRole(getRoleAdmin(role)) {... */\n    tag_102:\n        /* \"https://github.com/OpenZeppelin/openzeppelin-contracts/blob/v4.8.0/contracts/access/AccessControl.sol\":5312:5330  getRoleAdmin(role) */\n      tag_196\n        /* \"https://github.com/OpenZeppelin/openzeppelin-contracts/blob/v4.8.0/contracts/access/AccessControl.sol\":5325:5329  role */\n      dup3\n        /* \"https://github.com/OpenZeppelin/openzeppelin-contracts/blob/v4.8.0/contracts/access/AccessControl.sol\":5312:5324  getRoleAdmin */\n      tag_35\n        /* \"https://github.com/OpenZeppelin/openzeppelin-contracts/blob/v4.8.0/contracts/access/AccessControl.sol\":5312:5330  getRoleAdmin(role) */\n      jump\t// in\n    tag_196:\n        /* \"https://github.com/OpenZeppelin/openzeppelin-contracts/blob/v4.8.0/contracts/access/AccessControl.sol\":2505:2521  _checkRole(role) */\n      tag_198\n        /* \"https://github.com/OpenZeppelin/openzeppelin-contracts/blob/v4.8.0/contracts/access/AccessControl.sol\":2516:2520  role */\n      dup2\n        /* \"https://github.com/OpenZeppelin/openzeppelin-contracts/blob/v4.8.0/contracts/access/AccessControl.sol\":2505:2515  _checkRole */\n      tag_115\n        /* \"https://github.com/OpenZeppelin/openzeppelin-contracts/blob/v4.8.0/contracts/access/AccessControl.sol\":2505:2521  _checkRole(role) */\n      jump\t// in\n    tag_198:\n        /* \"https://github.com/OpenZeppelin/openzeppelin-contracts/blob/v4.8.0/contracts/access/AccessControl.sol\":5342:5368  _revokeRole(role, account) */\n      tag_200\n        /* \"https://github.com/OpenZeppelin/openzeppelin-contracts/blob/v4.8.0/contracts/access/AccessControl.sol\":5354:5358  role */\n      dup4\n        /* \"https://github.com/OpenZeppelin/openzeppelin-contracts/blob/v4.8.0/contracts/access/AccessControl.sol\":5360:5367  account */\n      dup4\n        /* \"https://github.com/OpenZeppelin/openzeppelin-contracts/blob/v4.8.0/contracts/access/AccessControl.sol\":5342:5353  _revokeRole */\n      tag_126\n        /* \"https://github.com/OpenZeppelin/openzeppelin-contracts/blob/v4.8.0/contracts/access/AccessControl.sol\":5342:5368  _revokeRole(role, account) */\n      jump\t// in\n    tag_200:\n        /* \"https://github.com/OpenZeppelin/openzeppelin-contracts/blob/v4.8.0/contracts/access/AccessControl.sol\":5228:5375  function revokeRole(bytes32 role, address account) public virtual override onlyRole(getRoleAdmin(role)) {... */\n      pop\n      pop\n      pop\n      jump\t// out\n        /* \"contracts/v2/TikTrix.sol\":535:565  IERC20Mintable public entToken */\n    tag_104:\n      0x01\n      0x00\n      swap1\n      sload\n      swap1\n      0x0100\n      exp\n      swap1\n      div\n      0xffffffffffffffffffffffffffffffffffffffff\n      and\n      dup2\n      jump\t// out\n        /* \"https://github.com/OpenZeppelin/openzeppelin-contracts/blob/v4.8.0/contracts/utils/introspection/ERC165.sol\":829:984  function supportsInterface(bytes4 interfaceId) public view virtual override returns (bool) {... */\n    tag_110:\n        /* \"https://github.com/OpenZeppelin/openzeppelin-contracts/blob/v4.8.0/contracts/utils/introspection/ERC165.sol\":914:918  bool */\n      0x00\n        /* \"https://github.com/OpenZeppelin/openzeppelin-contracts/blob/v4.8.0/contracts/utils/introspection/ERC165.sol\":952:977  type(IERC165).interfaceId */\n      0x01ffc9a700000000000000000000000000000000000000000000000000000000\n        /* \"https://github.com/OpenZeppelin/openzeppelin-contracts/blob/v4.8.0/contracts/utils/introspection/ERC165.sol\":937:977  interfaceId == type(IERC165).interfaceId */\n      not(0xffffffffffffffffffffffffffffffffffffffffffffffffffffffff)\n      and\n        /* \"https://github.com/OpenZeppelin/openzeppelin-contracts/blob/v4.8.0/contracts/utils/introspection/ERC165.sol\":937:948  interfaceId */\n      dup3\n        /* \"https://github.com/OpenZeppelin/openzeppelin-contracts/blob/v4.8.0/contracts/utils/introspection/ERC165.sol\":937:977  interfaceId == type(IERC165).interfaceId */\n      not(0xffffffffffffffffffffffffffffffffffffffffffffffffffffffff)\n      and\n      eq\n        /* \"https://github.com/OpenZeppelin/openzeppelin-contracts/blob/v4.8.0/contracts/utils/introspection/ERC165.sol\":930:977  return interfaceId == type(IERC165).interfaceId */\n      swap1\n      pop\n        /* \"https://github.com/OpenZeppelin/openzeppelin-contracts/blob/v4.8.0/contracts/utils/introspection/ERC165.sol\":829:984  function supportsInterface(bytes4 interfaceId) public view virtual override returns (bool) {... */\n      swap2\n      swap1\n      pop\n      jump\t// out\n        /* \"https://github.com/OpenZeppelin/openzeppelin-contracts/blob/v4.8.0/contracts/access/AccessControl.sol\":3334:3437  function _checkRole(bytes32 role) internal view virtual {... */\n    tag_115:\n        /* \"https://github.com/OpenZeppelin/openzeppelin-contracts/blob/v4.8.0/contracts/access/AccessControl.sol\":3400:3430  _checkRole(role, _msgSender()) */\n      tag_203\n        /* \"https://github.com/OpenZeppelin/openzeppelin-contracts/blob/v4.8.0/contracts/access/AccessControl.sol\":3411:3415  role */\n      dup2\n        /* \"https://github.com/OpenZeppelin/openzeppelin-contracts/blob/v4.8.0/contracts/access/AccessControl.sol\":3417:3429  _msgSender() */\n      tag_204\n        /* \"https://github.com/OpenZeppelin/openzeppelin-contracts/blob/v4.8.0/contracts/access/AccessControl.sol\":3417:3427  _msgSender */\n      tag_121\n        /* \"https://github.com/OpenZeppelin/openzeppelin-contracts/blob/v4.8.0/contracts/access/AccessControl.sol\":3417:3429  _msgSender() */\n      jump\t// in\n    tag_204:\n        /* \"https://github.com/OpenZeppelin/openzeppelin-contracts/blob/v4.8.0/contracts/access/AccessControl.sol\":3400:3410  _checkRole */\n      tag_205\n        /* \"https://github.com/OpenZeppelin/openzeppelin-contracts/blob/v4.8.0/contracts/access/AccessControl.sol\":3400:3430  _checkRole(role, _msgSender()) */\n      jump\t// in\n    tag_203:\n        /* \"https://github.com/OpenZeppelin/openzeppelin-contracts/blob/v4.8.0/contracts/access/AccessControl.sol\":3334:3437  function _checkRole(bytes32 role) internal view virtual {... */\n      pop\n      jump\t// out\n        /* \"https://github.com/OpenZeppelin/openzeppelin-contracts/blob/v4.8.0/contracts/access/AccessControl.sol\":7461:7694  function _grantRole(bytes32 role, address account) internal virtual {... */\n    tag_118:\n        /* \"https://github.com/OpenZeppelin/openzeppelin-contracts/blob/v4.8.0/contracts/access/AccessControl.sol\":7544:7566  hasRole(role, account) */\n      tag_207\n        /* \"https://github.com/OpenZeppelin/openzeppelin-contracts/blob/v4.8.0/contracts/access/AccessControl.sol\":7552:7556  role */\n      dup3\n        /* \"https://github.com/OpenZeppelin/openzeppelin-contracts/blob/v4.8.0/contracts/access/AccessControl.sol\":7558:7565  account */\n      dup3\n        /* \"https://github.com/OpenZeppelin/openzeppelin-contracts/blob/v4.8.0/contracts/access/AccessControl.sol\":7544:7551  hasRole */\n      tag_68\n        /* \"https://github.com/OpenZeppelin/openzeppelin-contracts/blob/v4.8.0/contracts/access/AccessControl.sol\":7544:7566  hasRole(role, account) */\n      jump\t// in\n    tag_207:\n        /* \"https://github.com/OpenZeppelin/openzeppelin-contracts/blob/v4.8.0/contracts/access/AccessControl.sol\":7539:7688  if (!hasRole(role, account)) {... */\n      tag_208\n      jumpi\n        /* \"https://github.com/OpenZeppelin/openzeppelin-contracts/blob/v4.8.0/contracts/access/AccessControl.sol\":7614:7618  true */\n      0x01\n        /* \"https://github.com/OpenZeppelin/openzeppelin-contracts/blob/v4.8.0/contracts/access/AccessControl.sol\":7582:7588  _roles */\n      0x00\n        /* \"https://github.com/OpenZeppelin/openzeppelin-contracts/blob/v4.8.0/contracts/access/AccessControl.sol\":7582:7594  _roles[role] */\n      dup1\n        /* \"https://github.com/OpenZeppelin/openzeppelin-contracts/blob/v4.8.0/contracts/access/AccessControl.sol\":7589:7593  role */\n      dup5\n        /* \"https://github.com/OpenZeppelin/openzeppelin-contracts/blob/v4.8.0/contracts/access/AccessControl.sol\":7582:7594  _roles[role] */\n      dup2\n      mstore\n      0x20\n      add\n      swap1\n      dup2\n      mstore\n      0x20\n      add\n      0x00\n      keccak256\n        /* \"https://github.com/OpenZeppelin/openzeppelin-contracts/blob/v4.8.0/contracts/access/AccessControl.sol\":7582:7602  _roles[role].members */\n      0x00\n      add\n        /* \"https://github.com/OpenZeppelin/openzeppelin-contracts/blob/v4.8.0/contracts/access/AccessControl.sol\":7582:7611  _roles[role].members[account] */\n      0x00\n        /* \"https://github.com/OpenZeppelin/openzeppelin-contracts/blob/v4.8.0/contracts/access/AccessControl.sol\":7603:7610  account */\n      dup4\n        /* \"https://github.com/OpenZeppelin/openzeppelin-contracts/blob/v4.8.0/contracts/access/AccessControl.sol\":7582:7611  _roles[role].members[account] */\n      0xffffffffffffffffffffffffffffffffffffffff\n      and\n      0xffffffffffffffffffffffffffffffffffffffff\n      and\n      dup2\n      mstore\n      0x20\n      add\n      swap1\n      dup2\n      mstore\n      0x20\n      add\n      0x00\n      keccak256\n      0x00\n        /* \"https://github.com/OpenZeppelin/openzeppelin-contracts/blob/v4.8.0/contracts/access/AccessControl.sol\":7582:7618  _roles[role].members[account] = true */\n      0x0100\n      exp\n      dup2\n      sload\n      dup2\n      0xff\n      mul\n      not\n      and\n      swap1\n      dup4\n      iszero\n      iszero\n      mul\n      or\n      swap1\n      sstore\n      pop\n        /* \"https://github.com/OpenZeppelin/openzeppelin-contracts/blob/v4.8.0/contracts/access/AccessControl.sol\":7664:7676  _msgSender() */\n      tag_209\n        /* \"https://github.com/OpenZeppelin/openzeppelin-contracts/blob/v4.8.0/contracts/access/AccessControl.sol\":7664:7674  _msgSender */\n      tag_121\n        /* \"https://github.com/OpenZeppelin/openzeppelin-contracts/blob/v4.8.0/contracts/access/AccessControl.sol\":7664:7676  _msgSender() */\n      jump\t// in\n    tag_209:\n        /* \"https://github.com/OpenZeppelin/openzeppelin-contracts/blob/v4.8.0/contracts/access/AccessControl.sol\":7637:7677  RoleGranted(role, account, _msgSender()) */\n      0xffffffffffffffffffffffffffffffffffffffff\n      and\n        /* \"https://github.com/OpenZeppelin/openzeppelin-contracts/blob/v4.8.0/contracts/access/AccessControl.sol\":7655:7662  account */\n      dup2\n        /* \"https://github.com/OpenZeppelin/openzeppelin-contracts/blob/v4.8.0/contracts/access/AccessControl.sol\":7637:7677  RoleGranted(role, account, _msgSender()) */\n      0xffffffffffffffffffffffffffffffffffffffff\n      and\n        /* \"https://github.com/OpenZeppelin/openzeppelin-contracts/blob/v4.8.0/contracts/access/AccessControl.sol\":7649:7653  role */\n      dup4\n        /* \"https://github.com/OpenZeppelin/openzeppelin-contracts/blob/v4.8.0/contracts/access/AccessControl.sol\":7637:7677  RoleGranted(role, account, _msgSender()) */\n      0x2f8788117e7eff1d82e926ec794901d17c78024a50270940304540a733656f0d\n      mload(0x40)\n      mload(0x40)\n      dup1\n      swap2\n      sub\n      swap1\n      log4\n        /* \"https://github.com/OpenZeppelin/openzeppelin-contracts/blob/v4.8.0/contracts/access/AccessControl.sol\":7539:7688  if (!hasRole(role, account)) {... */\n    tag_208:\n        /* \"https://github.com/OpenZeppelin/openzeppelin-contracts/blob/v4.8.0/contracts/access/AccessControl.sol\":7461:7694  function _grantRole(bytes32 role, address account) internal virtual {... */\n      pop\n      pop\n      jump\t// out\n        /* \"https://github.com/OpenZeppelin/openzeppelin-contracts/blob/v4.8.0/contracts/utils/Context.sol\":640:736  function _msgSender() internal view virtual returns (address) {... */\n    tag_121:\n        /* \"https://github.com/OpenZeppelin/openzeppelin-contracts/blob/v4.8.0/contracts/utils/Context.sol\":693:700  address */\n      0x00\n        /* \"https://github.com/OpenZeppelin/openzeppelin-contracts/blob/v4.8.0/contracts/utils/Context.sol\":719:729  msg.sender */\n      caller\n        /* \"https://github.com/OpenZeppelin/openzeppelin-contracts/blob/v4.8.0/contracts/utils/Context.sol\":712:729  return msg.sender */\n      swap1\n      pop\n        /* \"https://github.com/OpenZeppelin/openzeppelin-contracts/blob/v4.8.0/contracts/utils/Context.sol\":640:736  function _msgSender() internal view virtual returns (address) {... */\n      swap1\n      jump\t// out\n        /* \"https://github.com/OpenZeppelin/openzeppelin-contracts/blob/v4.8.0/contracts/access/AccessControl.sol\":7865:8099  function _revokeRole(bytes32 role, address account) internal virtual {... */\n    tag_126:\n        /* \"https://github.com/OpenZeppelin/openzeppelin-contracts/blob/v4.8.0/contracts/access/AccessControl.sol\":7948:7970  hasRole(role, account) */\n      tag_212\n        /* \"https://github.com/OpenZeppelin/openzeppelin-contracts/blob/v4.8.0/contracts/access/AccessControl.sol\":7956:7960  role */\n      dup3\n        /* \"https://github.com/OpenZeppelin/openzeppelin-contracts/blob/v4.8.0/contracts/access/AccessControl.sol\":7962:7969  account */\n      dup3\n        /* \"https://github.com/OpenZeppelin/openzeppelin-contracts/blob/v4.8.0/contracts/access/AccessControl.sol\":7948:7955  hasRole */\n      tag_68\n        /* \"https://github.com/OpenZeppelin/openzeppelin-contracts/blob/v4.8.0/contracts/access/AccessControl.sol\":7948:7970  hasRole(role, account) */\n      jump\t// in\n    tag_212:\n        /* \"https://github.com/OpenZeppelin/openzeppelin-contracts/blob/v4.8.0/contracts/access/AccessControl.sol\":7944:8093  if (hasRole(role, account)) {... */\n      iszero\n      tag_213\n      jumpi\n        /* \"https://github.com/OpenZeppelin/openzeppelin-contracts/blob/v4.8.0/contracts/access/AccessControl.sol\":8018:8023  false */\n      0x00\n        /* \"https://github.com/OpenZeppelin/openzeppelin-contracts/blob/v4.8.0/contracts/access/AccessControl.sol\":7986:7992  _roles */\n      dup1\n        /* \"https://github.com/OpenZeppelin/openzeppelin-contracts/blob/v4.8.0/contracts/access/AccessControl.sol\":7986:7998  _roles[role] */\n      0x00\n        /* \"https://github.com/OpenZeppelin/openzeppelin-contracts/blob/v4.8.0/contracts/access/AccessControl.sol\":7993:7997  role */\n      dup5\n        /* \"https://github.com/OpenZeppelin/openzeppelin-contracts/blob/v4.8.0/contracts/access/AccessControl.sol\":7986:7998  _roles[role] */\n      dup2\n      mstore\n      0x20\n      add\n      swap1\n      dup2\n      mstore\n      0x20\n      add\n      0x00\n      keccak256\n        /* \"https://github.com/OpenZeppelin/openzeppelin-contracts/blob/v4.8.0/contracts/access/AccessControl.sol\":7986:8006  _roles[role].members */\n      0x00\n      add\n        /* \"https://github.com/OpenZeppelin/openzeppelin-contracts/blob/v4.8.0/contracts/access/AccessControl.sol\":7986:8015  _roles[role].members[account] */\n      0x00\n        /* \"https://github.com/OpenZeppelin/openzeppelin-contracts/blob/v4.8.0/contracts/access/AccessControl.sol\":8007:8014  account */\n      dup4\n        /* \"https://github.com/OpenZeppelin/openzeppelin-contracts/blob/v4.8.0/contracts/access/AccessControl.sol\":7986:8015  _roles[role].members[account] */\n      0xffffffffffffffffffffffffffffffffffffffff\n      and\n      0xffffffffffffffffffffffffffffffffffffffff\n      and\n      dup2\n      mstore\n      0x20\n      add\n      swap1\n      dup2\n      mstore\n      0x20\n      add\n      0x00\n      keccak256\n      0x00\n        /* \"https://github.com/OpenZeppelin/openzeppelin-contracts/blob/v4.8.0/contracts/access/AccessControl.sol\":7986:8023  _roles[role].members[account] = false */\n      0x0100\n      exp\n      dup2\n      sload\n      dup2\n      0xff\n      mul\n      not\n      and\n      swap1\n      dup4\n      iszero\n      iszero\n      mul\n      or\n      swap1\n      sstore\n      pop\n        /* \"https://github.com/OpenZeppelin/openzeppelin-contracts/blob/v4.8.0/contracts/access/AccessControl.sol\":8069:8081  _msgSender() */\n      tag_214\n        /* \"https://github.com/OpenZeppelin/openzeppelin-contracts/blob/v4.8.0/contracts/access/AccessControl.sol\":8069:8079  _msgSender */\n      tag_121\n        /* \"https://github.com/OpenZeppelin/openzeppelin-contracts/blob/v4.8.0/contracts/access/AccessControl.sol\":8069:8081  _msgSender() */\n      jump\t// in\n    tag_214:\n        /* \"https://github.com/OpenZeppelin/openzeppelin-contracts/blob/v4.8.0/contracts/access/AccessControl.sol\":8042:8082  RoleRevoked(role, account, _msgSender()) */\n      0xffffffffffffffffffffffffffffffffffffffff\n      and\n        /* \"https://github.com/OpenZeppelin/openzeppelin-contracts/blob/v4.8.0/contracts/access/AccessControl.sol\":8060:8067  account */\n      dup2\n        /* \"https://github.com/OpenZeppelin/openzeppelin-contracts/blob/v4.8.0/contracts/access/AccessControl.sol\":8042:8082  RoleRevoked(role, account, _msgSender()) */\n      0xffffffffffffffffffffffffffffffffffffffff\n      and\n        /* \"https://github.com/OpenZeppelin/openzeppelin-contracts/blob/v4.8.0/contracts/access/AccessControl.sol\":8054:8058  role */\n      dup4\n        /* \"https://github.com/OpenZeppelin/openzeppelin-contracts/blob/v4.8.0/contracts/access/AccessControl.sol\":8042:8082  RoleRevoked(role, account, _msgSender()) */\n      0xf6391f5c32d9c69d2a47ea670b442974b53935d1edc7fd64eb21e047a839171b\n      mload(0x40)\n      mload(0x40)\n      dup1\n      swap2\n      sub\n      swap1\n      log4\n        /* \"https://github.com/OpenZeppelin/openzeppelin-contracts/blob/v4.8.0/contracts/access/AccessControl.sol\":7944:8093  if (hasRole(role, account)) {... */\n    tag_213:\n        /* \"https://github.com/OpenZeppelin/openzeppelin-contracts/blob/v4.8.0/contracts/access/AccessControl.sol\":7865:8099  function _revokeRole(bytes32 role, address account) internal virtual {... */\n      pop\n      pop\n      jump\t// out\n        /* \"https://github.com/OpenZeppelin/openzeppelin-contracts/blob/v4.8.0/contracts/access/AccessControl.sol\":3718:4197  function _checkRole(bytes32 role, address account) internal view virtual {... */\n    tag_205:\n        /* \"https://github.com/OpenZeppelin/openzeppelin-contracts/blob/v4.8.0/contracts/access/AccessControl.sol\":3806:3828  hasRole(role, account) */\n      tag_216\n        /* \"https://github.com/OpenZeppelin/openzeppelin-contracts/blob/v4.8.0/contracts/access/AccessControl.sol\":3814:3818  role */\n      dup3\n        /* \"https://github.com/OpenZeppelin/openzeppelin-contracts/blob/v4.8.0/contracts/access/AccessControl.sol\":3820:3827  account */\n      dup3\n        /* \"https://github.com/OpenZeppelin/openzeppelin-contracts/blob/v4.8.0/contracts/access/AccessControl.sol\":3806:3813  hasRole */\n      tag_68\n        /* \"https://github.com/OpenZeppelin/openzeppelin-contracts/blob/v4.8.0/contracts/access/AccessControl.sol\":3806:3828  hasRole(role, account) */\n      jump\t// in\n    tag_216:\n        /* \"https://github.com/OpenZeppelin/openzeppelin-contracts/blob/v4.8.0/contracts/access/AccessControl.sol\":3801:4191  if (!hasRole(role, account)) {... */\n      tag_217\n      jumpi\n        /* \"https://github.com/OpenZeppelin/openzeppelin-contracts/blob/v4.8.0/contracts/access/AccessControl.sol\":3989:4017  Strings.toHexString(account) */\n      tag_218\n        /* \"https://github.com/OpenZeppelin/openzeppelin-contracts/blob/v4.8.0/contracts/access/AccessControl.sol\":4009:4016  account */\n      dup2\n        /* \"https://github.com/OpenZeppelin/openzeppelin-contracts/blob/v4.8.0/contracts/access/AccessControl.sol\":3989:4008  Strings.toHexString */\n      tag_219\n        /* \"https://github.com/OpenZeppelin/openzeppelin-contracts/blob/v4.8.0/contracts/access/AccessControl.sol\":3989:4017  Strings.toHexString(account) */\n      jump\t// in\n    tag_218:\n        /* \"https://github.com/OpenZeppelin/openzeppelin-contracts/blob/v4.8.0/contracts/access/AccessControl.sol\":4088:4126  Strings.toHexString(uint256(role), 32) */\n      tag_220\n        /* \"https://github.com/OpenZeppelin/openzeppelin-contracts/blob/v4.8.0/contracts/access/AccessControl.sol\":4116:4120  role */\n      dup4\n        /* \"https://github.com/OpenZeppelin/openzeppelin-contracts/blob/v4.8.0/contracts/access/AccessControl.sol\":4108:4121  uint256(role) */\n      0x00\n      shr\n        /* \"https://github.com/OpenZeppelin/openzeppelin-contracts/blob/v4.8.0/contracts/access/AccessControl.sol\":4123:4125  32 */\n      0x20\n        /* \"https://github.com/OpenZeppelin/openzeppelin-contracts/blob/v4.8.0/contracts/access/AccessControl.sol\":4088:4107  Strings.toHexString */\n      tag_221\n        /* \"https://github.com/OpenZeppelin/openzeppelin-contracts/blob/v4.8.0/contracts/access/AccessControl.sol\":4088:4126  Strings.toHexString(uint256(role), 32) */\n      jump\t// in\n    tag_220:\n        /* \"https://github.com/OpenZeppelin/openzeppelin-contracts/blob/v4.8.0/contracts/access/AccessControl.sol\":3896:4148  abi.encodePacked(... */\n      add(0x20, mload(0x40))\n      tag_222\n      swap3\n      swap2\n      swap1\n      tag_223\n      jump\t// in\n    tag_222:\n      mload(0x40)\n      0x20\n      dup2\n      dup4\n      sub\n      sub\n      dup2\n      mstore\n      swap1\n      0x40\n      mstore\n        /* \"https://github.com/OpenZeppelin/openzeppelin-contracts/blob/v4.8.0/contracts/access/AccessControl.sol\":3844:4180  revert(... */\n      mload(0x40)\n      0x08c379a000000000000000000000000000000000000000000000000000000000\n      dup2\n      mstore\n      0x04\n      add\n      tag_224\n      swap2\n      swap1\n      tag_225\n      jump\t// in\n    tag_224:\n      mload(0x40)\n      dup1\n      swap2\n      sub\n      swap1\n      revert\n        /* \"https://github.com/OpenZeppelin/openzeppelin-contracts/blob/v4.8.0/contracts/access/AccessControl.sol\":3801:4191  if (!hasRole(role, account)) {... */\n    tag_217:\n        /* \"https://github.com/OpenZeppelin/openzeppelin-contracts/blob/v4.8.0/contracts/access/AccessControl.sol\":3718:4197  function _checkRole(bytes32 role, address account) internal view virtual {... */\n      pop\n      pop\n      jump\t// out\n        /* \"https://github.com/OpenZeppelin/openzeppelin-contracts/blob/v4.8.0/contracts/utils/Strings.sol\":2102:2251  function toHexString(address addr) internal pure returns (string memory) {... */\n    tag_219:\n        /* \"https://github.com/OpenZeppelin/openzeppelin-contracts/blob/v4.8.0/contracts/utils/Strings.sol\":2160:2173  string memory */\n      0x60\n        /* \"https://github.com/OpenZeppelin/openzeppelin-contracts/blob/v4.8.0/contracts/utils/Strings.sol\":2192:2244  toHexString(uint256(uint160(addr)), _ADDRESS_LENGTH) */\n      tag_227\n        /* \"https://github.com/OpenZeppelin/openzeppelin-contracts/blob/v4.8.0/contracts/utils/Strings.sol\":2220:2224  addr */\n      dup3\n        /* \"https://github.com/OpenZeppelin/openzeppelin-contracts/blob/v4.8.0/contracts/utils/Strings.sol\":2204:2226  uint256(uint160(addr)) */\n      0xffffffffffffffffffffffffffffffffffffffff\n      and\n        /* \"https://github.com/OpenZeppelin/openzeppelin-contracts/blob/v4.8.0/contracts/utils/Strings.sol\":311:313  20 */\n      0x14\n        /* \"https://github.com/OpenZeppelin/openzeppelin-contracts/blob/v4.8.0/contracts/utils/Strings.sol\":2192:2244  toHexString(uint256(uint160(addr)), _ADDRESS_LENGTH) */\n      0xff\n      and\n        /* \"https://github.com/OpenZeppelin/openzeppelin-contracts/blob/v4.8.0/contracts/utils/Strings.sol\":2192:2203  toHexString */\n      tag_221\n        /* \"https://github.com/OpenZeppelin/openzeppelin-contracts/blob/v4.8.0/contracts/utils/Strings.sol\":2192:2244  toHexString(uint256(uint160(addr)), _ADDRESS_LENGTH) */\n      jump\t// in\n    tag_227:\n        /* \"https://github.com/OpenZeppelin/openzeppelin-contracts/blob/v4.8.0/contracts/utils/Strings.sol\":2185:2244  return toHexString(uint256(uint160(addr)), _ADDRESS_LENGTH) */\n      swap1\n      pop\n        /* \"https://github.com/OpenZeppelin/openzeppelin-contracts/blob/v4.8.0/contracts/utils/Strings.sol\":2102:2251  function toHexString(address addr) internal pure returns (string memory) {... */\n      swap2\n      swap1\n      pop\n      jump\t// out\n        /* \"https://github.com/OpenZeppelin/openzeppelin-contracts/blob/v4.8.0/contracts/utils/Strings.sol\":1513:1950  function toHexString(uint256 value, uint256 length) internal pure returns (string memory) {... */\n    tag_221:\n        /* \"https://github.com/OpenZeppelin/openzeppelin-contracts/blob/v4.8.0/contracts/utils/Strings.sol\":1588:1601  string memory */\n      0x60\n        /* \"https://github.com/OpenZeppelin/openzeppelin-contracts/blob/v4.8.0/contracts/utils/Strings.sol\":1613:1632  bytes memory buffer */\n      0x00\n        /* \"https://github.com/OpenZeppelin/openzeppelin-contracts/blob/v4.8.0/contracts/utils/Strings.sol\":1658:1659  2 */\n      0x02\n        /* \"https://github.com/OpenZeppelin/openzeppelin-contracts/blob/v4.8.0/contracts/utils/Strings.sol\":1649:1655  length */\n      dup4\n        /* \"https://github.com/OpenZeppelin/openzeppelin-contracts/blob/v4.8.0/contracts/utils/Strings.sol\":1645:1646  2 */\n      0x02\n        /* \"https://github.com/OpenZeppelin/openzeppelin-contracts/blob/v4.8.0/contracts/utils/Strings.sol\":1645:1655  2 * length */\n      tag_229\n      swap2\n      swap1\n      tag_230\n      jump\t// in\n    tag_229:\n        /* \"https://github.com/OpenZeppelin/openzeppelin-contracts/blob/v4.8.0/contracts/utils/Strings.sol\":1645:1659  2 * length + 2 */\n      tag_231\n      swap2\n      swap1\n      tag_232\n      jump\t// in\n    tag_231:\n        /* \"https://github.com/OpenZeppelin/openzeppelin-contracts/blob/v4.8.0/contracts/utils/Strings.sol\":1635:1660  new bytes(2 * length + 2) */\n      0xffffffffffffffff\n      dup2\n      gt\n      iszero\n      tag_233\n      jumpi\n      tag_234\n      tag_235\n      jump\t// in\n    tag_234:\n    tag_233:\n      mload(0x40)\n      swap1\n      dup1\n      dup3\n      mstore\n      dup1\n      0x1f\n      add\n      not(0x1f)\n      and\n      0x20\n      add\n      dup3\n      add\n      0x40\n      mstore\n      dup1\n      iszero\n      tag_236\n      jumpi\n      dup2\n      0x20\n      add\n      0x01\n      dup3\n      mul\n      dup1\n      calldatasize\n      dup4\n      calldatacopy\n      dup1\n      dup3\n      add\n      swap2\n      pop\n      pop\n      swap1\n      pop\n    tag_236:\n      pop\n        /* \"https://github.com/OpenZeppelin/openzeppelin-contracts/blob/v4.8.0/contracts/utils/Strings.sol\":1613:1660  bytes memory buffer = new bytes(2 * length + 2) */\n      swap1\n      pop\n        /* \"https://github.com/OpenZeppelin/openzeppelin-contracts/blob/v4.8.0/contracts/utils/Strings.sol\":1670:1685  buffer[0] = \"0\" */\n      0x3000000000000000000000000000000000000000000000000000000000000000\n        /* \"https://github.com/OpenZeppelin/openzeppelin-contracts/blob/v4.8.0/contracts/utils/Strings.sol\":1670:1676  buffer */\n      dup2\n        /* \"https://github.com/OpenZeppelin/openzeppelin-contracts/blob/v4.8.0/contracts/utils/Strings.sol\":1677:1678  0 */\n      0x00\n        /* \"https://github.com/OpenZeppelin/openzeppelin-contracts/blob/v4.8.0/contracts/utils/Strings.sol\":1670:1679  buffer[0] */\n      dup2\n      mload\n      dup2\n      lt\n      tag_237\n      jumpi\n      tag_238\n      tag_239\n      jump\t// in\n    tag_238:\n    tag_237:\n      0x20\n      add\n      add\n        /* \"https://github.com/OpenZeppelin/openzeppelin-contracts/blob/v4.8.0/contracts/utils/Strings.sol\":1670:1685  buffer[0] = \"0\" */\n      swap1\n      not(0xffffffffffffffffffffffffffffffffffffffffffffffffffffffffffffff)\n      and\n      swap1\n      dup2\n      0x00\n      byte\n      swap1\n      mstore8\n      pop\n        /* \"https://github.com/OpenZeppelin/openzeppelin-contracts/blob/v4.8.0/contracts/utils/Strings.sol\":1695:1710  buffer[1] = \"x\" */\n      0x7800000000000000000000000000000000000000000000000000000000000000\n        /* \"https://github.com/OpenZeppelin/openzeppelin-contracts/blob/v4.8.0/contracts/utils/Strings.sol\":1695:1701  buffer */\n      dup2\n        /* \"https://github.com/OpenZeppelin/openzeppelin-contracts/blob/v4.8.0/contracts/utils/Strings.sol\":1702:1703  1 */\n      0x01\n        /* \"https://github.com/OpenZeppelin/openzeppelin-contracts/blob/v4.8.0/contracts/utils/Strings.sol\":1695:1704  buffer[1] */\n      dup2\n      mload\n      dup2\n      lt\n      tag_240\n      jumpi\n      tag_241\n      tag_239\n      jump\t// in\n    tag_241:\n    tag_240:\n      0x20\n      add\n      add\n        /* \"https://github.com/OpenZeppelin/openzeppelin-contracts/blob/v4.8.0/contracts/utils/Strings.sol\":1695:1710  buffer[1] = \"x\" */\n      swap1\n      not(0xffffffffffffffffffffffffffffffffffffffffffffffffffffffffffffff)\n      and\n      swap1\n      dup2\n      0x00\n      byte\n      swap1\n      mstore8\n      pop\n        /* \"https://github.com/OpenZeppelin/openzeppelin-contracts/blob/v4.8.0/contracts/utils/Strings.sol\":1725:1734  uint256 i */\n      0x00\n        /* \"https://github.com/OpenZeppelin/openzeppelin-contracts/blob/v4.8.0/contracts/utils/Strings.sol\":1750:1751  1 */\n      0x01\n        /* \"https://github.com/OpenZeppelin/openzeppelin-contracts/blob/v4.8.0/contracts/utils/Strings.sol\":1741:1747  length */\n      dup5\n        /* \"https://github.com/OpenZeppelin/openzeppelin-contracts/blob/v4.8.0/contracts/utils/Strings.sol\":1737:1738  2 */\n      0x02\n        /* \"https://github.com/OpenZeppelin/openzeppelin-contracts/blob/v4.8.0/contracts/utils/Strings.sol\":1737:1747  2 * length */\n      tag_245\n      swap2\n      swap1\n      tag_230\n      jump\t// in\n    tag_245:\n        /* \"https://github.com/OpenZeppelin/openzeppelin-contracts/blob/v4.8.0/contracts/utils/Strings.sol\":1737:1751  2 * length + 1 */\n      tag_246\n      swap2\n      swap1\n      tag_232\n      jump\t// in\n    tag_246:\n        /* \"https://github.com/OpenZeppelin/openzeppelin-contracts/blob/v4.8.0/contracts/utils/Strings.sol\":1725:1751  uint256 i = 2 * length + 1 */\n      swap1\n      pop\n        /* \"https://github.com/OpenZeppelin/openzeppelin-contracts/blob/v4.8.0/contracts/utils/Strings.sol\":1720:1848  for (uint256 i = 2 * length + 1; i > 1; --i) {... */\n    tag_242:\n        /* \"https://github.com/OpenZeppelin/openzeppelin-contracts/blob/v4.8.0/contracts/utils/Strings.sol\":1757:1758  1 */\n      0x01\n        /* \"https://github.com/OpenZeppelin/openzeppelin-contracts/blob/v4.8.0/contracts/utils/Strings.sol\":1753:1754  i */\n      dup2\n        /* \"https://github.com/OpenZeppelin/openzeppelin-contracts/blob/v4.8.0/contracts/utils/Strings.sol\":1753:1758  i > 1 */\n      gt\n        /* \"https://github.com/OpenZeppelin/openzeppelin-contracts/blob/v4.8.0/contracts/utils/Strings.sol\":1720:1848  for (uint256 i = 2 * length + 1; i > 1; --i) {... */\n      iszero\n      tag_243\n      jumpi\n        /* \"https://github.com/OpenZeppelin/openzeppelin-contracts/blob/v4.8.0/contracts/utils/Strings.sol\":1791:1799  _SYMBOLS */\n      0x3031323334353637383961626364656600000000000000000000000000000000\n        /* \"https://github.com/OpenZeppelin/openzeppelin-contracts/blob/v4.8.0/contracts/utils/Strings.sol\":1808:1811  0xf */\n      0x0f\n        /* \"https://github.com/OpenZeppelin/openzeppelin-contracts/blob/v4.8.0/contracts/utils/Strings.sol\":1800:1805  value */\n      dup7\n        /* \"https://github.com/OpenZeppelin/openzeppelin-contracts/blob/v4.8.0/contracts/utils/Strings.sol\":1800:1811  value & 0xf */\n      and\n        /* \"https://github.com/OpenZeppelin/openzeppelin-contracts/blob/v4.8.0/contracts/utils/Strings.sol\":1791:1812  _SYMBOLS[value & 0xf] */\n      0x10\n      dup2\n      lt\n      tag_247\n      jumpi\n      tag_248\n      tag_239\n      jump\t// in\n    tag_248:\n    tag_247:\n      byte\n      0xf8\n      shl\n        /* \"https://github.com/OpenZeppelin/openzeppelin-contracts/blob/v4.8.0/contracts/utils/Strings.sol\":1779:1785  buffer */\n      dup3\n        /* \"https://github.com/OpenZeppelin/openzeppelin-contracts/blob/v4.8.0/contracts/utils/Strings.sol\":1786:1787  i */\n      dup3\n        /* \"https://github.com/OpenZeppelin/openzeppelin-contracts/blob/v4.8.0/contracts/utils/Strings.sol\":1779:1788  buffer[i] */\n      dup2\n      mload\n      dup2\n      lt\n      tag_249\n      jumpi\n      tag_250\n      tag_239\n      jump\t// in\n    tag_250:\n    tag_249:\n      0x20\n      add\n      add\n        /* \"https://github.com/OpenZeppelin/openzeppelin-contracts/blob/v4.8.0/contracts/utils/Strings.sol\":1779:1812  buffer[i] = _SYMBOLS[value & 0xf] */\n      swap1\n      not(0xffffffffffffffffffffffffffffffffffffffffffffffffffffffffffffff)\n      and\n      swap1\n      dup2\n      0x00\n      byte\n      swap1\n      mstore8\n      pop\n        /* \"https://github.com/OpenZeppelin/openzeppelin-contracts/blob/v4.8.0/contracts/utils/Strings.sol\":1836:1837  4 */\n      0x04\n        /* \"https://github.com/OpenZeppelin/openzeppelin-contracts/blob/v4.8.0/contracts/utils/Strings.sol\":1826:1837  value >>= 4 */\n      dup6\n      swap1\n      shr\n      swap5\n      pop\n        /* \"https://github.com/OpenZeppelin/openzeppelin-contracts/blob/v4.8.0/contracts/utils/Strings.sol\":1760:1763  --i */\n      dup1\n      tag_251\n      swap1\n      tag_252\n      jump\t// in\n    tag_251:\n      swap1\n      pop\n        /* \"https://github.com/OpenZeppelin/openzeppelin-contracts/blob/v4.8.0/contracts/utils/Strings.sol\":1720:1848  for (uint256 i = 2 * length + 1; i > 1; --i) {... */\n      jump(tag_242)\n    tag_243:\n      pop\n        /* \"https://github.com/OpenZeppelin/openzeppelin-contracts/blob/v4.8.0/contracts/utils/Strings.sol\":1874:1875  0 */\n      0x00\n        /* \"https://github.com/OpenZeppelin/openzeppelin-contracts/blob/v4.8.0/contracts/utils/Strings.sol\":1865:1870  value */\n      dup5\n        /* \"https://github.com/OpenZeppelin/openzeppelin-contracts/blob/v4.8.0/contracts/utils/Strings.sol\":1865:1875  value == 0 */\n      eq\n        /* \"https://github.com/OpenZeppelin/openzeppelin-contracts/blob/v4.8.0/contracts/utils/Strings.sol\":1857:1912  require(value == 0, \"Strings: hex length insufficient\") */\n      tag_253\n      jumpi\n      mload(0x40)\n      0x08c379a000000000000000000000000000000000000000000000000000000000\n      dup2\n      mstore\n      0x04\n      add\n      tag_254\n      swap1\n      tag_255\n      jump\t// in\n    tag_254:\n      mload(0x40)\n      dup1\n      swap2\n      sub\n      swap1\n      revert\n    tag_253:\n        /* \"https://github.com/OpenZeppelin/openzeppelin-contracts/blob/v4.8.0/contracts/utils/Strings.sol\":1936:1942  buffer */\n      dup1\n        /* \"https://github.com/OpenZeppelin/openzeppelin-contracts/blob/v4.8.0/contracts/utils/Strings.sol\":1922:1943  return string(buffer) */\n      swap2\n      pop\n      pop\n        /* \"https://github.com/OpenZeppelin/openzeppelin-contracts/blob/v4.8.0/contracts/utils/Strings.sol\":1513:1950  function toHexString(uint256 value, uint256 length) internal pure returns (string memory) {... */\n      swap3\n      swap2\n      pop\n      pop\n      jump\t// out\n    tag_128:\n      mload(0x40)\n      dup1\n      0x80\n      add\n      0x40\n      mstore\n      dup1\n      0x00\n      dup2\n      mstore\n      0x20\n      add\n      0x00\n      dup2\n      mstore\n      0x20\n      add\n      0x60\n      dup2\n      mstore\n      0x20\n      add\n      iszero(iszero(0x00))\n      dup2\n      mstore\n      pop\n      swap1\n      jump\t// out\n    tag_157:\n      pop\n      dup1\n      sload\n      tag_256\n      swap1\n      tag_134\n      jump\t// in\n    tag_256:\n      0x00\n      dup3\n      sstore\n      dup1\n      0x1f\n      lt\n      tag_258\n      jumpi\n      pop\n      jump(tag_257)\n    tag_258:\n      0x1f\n      add\n      0x20\n      swap1\n      div\n      swap1\n      0x00\n      mstore\n      keccak256(0x00, 0x20)\n      swap1\n      dup2\n      add\n      swap1\n      tag_259\n      swap2\n      swap1\n      tag_260\n      jump\t// in\n    tag_259:\n    tag_257:\n      pop\n      jump\t// out\n    tag_167:\n      mload(0x40)\n      dup1\n      0x20\n      add\n      0x40\n      mstore\n      dup1\n      0x00\n      dup2\n      mstore\n      pop\n      swap1\n      jump\t// out\n    tag_260:\n    tag_261:\n      dup1\n      dup3\n      gt\n      iszero\n      tag_262\n      jumpi\n      0x00\n      dup2\n      0x00\n      swap1\n      sstore\n      pop\n      0x01\n      add\n      jump(tag_261)\n    tag_262:\n      pop\n      swap1\n      jump\t// out\n        /* \"#utility.yul\":7:82   */\n    tag_263:\n        /* \"#utility.yul\":40:46   */\n      0x00\n        /* \"#utility.yul\":73:75   */\n      0x40\n        /* \"#utility.yul\":67:76   */\n      mload\n        /* \"#utility.yul\":57:76   */\n      swap1\n      pop\n        /* \"#utility.yul\":7:82   */\n      swap1\n      jump\t// out\n        /* \"#utility.yul\":88:205   */\n    tag_264:\n        /* \"#utility.yul\":197:198   */\n      0x00\n        /* \"#utility.yul\":194:195   */\n      dup1\n        /* \"#utility.yul\":187:199   */\n      revert\n        /* \"#utility.yul\":211:328   */\n    tag_265:\n        /* \"#utility.yul\":320:321   */\n      0x00\n        /* \"#utility.yul\":317:318   */\n      dup1\n        /* \"#utility.yul\":310:322   */\n      revert\n        /* \"#utility.yul\":334:483   */\n    tag_266:\n        /* \"#utility.yul\":370:377   */\n      0x00\n        /* \"#utility.yul\":410:476   */\n      0xffffffff00000000000000000000000000000000000000000000000000000000\n        /* \"#utility.yul\":403:408   */\n      dup3\n        /* \"#utility.yul\":399:477   */\n      and\n        /* \"#utility.yul\":388:477   */\n      swap1\n      pop\n        /* \"#utility.yul\":334:483   */\n      swap2\n      swap1\n      pop\n      jump\t// out\n        /* \"#utility.yul\":489:609   */\n    tag_267:\n        /* \"#utility.yul\":561:584   */\n      tag_346\n        /* \"#utility.yul\":578:583   */\n      dup2\n        /* \"#utility.yul\":561:584   */\n      tag_266\n      jump\t// in\n    tag_346:\n        /* \"#utility.yul\":554:559   */\n      dup2\n        /* \"#utility.yul\":551:585   */\n      eq\n        /* \"#utility.yul\":541:603   */\n      tag_347\n      jumpi\n        /* \"#utility.yul\":599:600   */\n      0x00\n        /* \"#utility.yul\":596:597   */\n      dup1\n        /* \"#utility.yul\":589:601   */\n      revert\n        /* \"#utility.yul\":541:603   */\n    tag_347:\n        /* \"#utility.yul\":489:609   */\n      pop\n      jump\t// out\n        /* \"#utility.yul\":615:752   */\n    tag_268:\n        /* \"#utility.yul\":660:665   */\n      0x00\n        /* \"#utility.yul\":698:704   */\n      dup2\n        /* \"#utility.yul\":685:705   */\n      calldataload\n        /* \"#utility.yul\":676:705   */\n      swap1\n      pop\n        /* \"#utility.yul\":714:746   */\n      tag_349\n        /* \"#utility.yul\":740:745   */\n      dup2\n        /* \"#utility.yul\":714:746   */\n      tag_267\n      jump\t// in\n    tag_349:\n        /* \"#utility.yul\":615:752   */\n      swap3\n      swap2\n      pop\n      pop\n      jump\t// out\n        /* \"#utility.yul\":758:1085   */\n    tag_28:\n        /* \"#utility.yul\":816:822   */\n      0x00\n        /* \"#utility.yul\":865:867   */\n      0x20\n        /* \"#utility.yul\":853:862   */\n      dup3\n        /* \"#utility.yul\":844:851   */\n      dup5\n        /* \"#utility.yul\":840:863   */\n      sub\n        /* \"#utility.yul\":836:868   */\n      slt\n        /* \"#utility.yul\":833:952   */\n      iszero\n      tag_351\n      jumpi\n        /* \"#utility.yul\":871:950   */\n      tag_352\n      tag_264\n      jump\t// in\n    tag_352:\n        /* \"#utility.yul\":833:952   */\n    tag_351:\n        /* \"#utility.yul\":991:992   */\n      0x00\n        /* \"#utility.yul\":1016:1068   */\n      tag_353\n        /* \"#utility.yul\":1060:1067   */\n      dup5\n        /* \"#utility.yul\":1051:1057   */\n      dup3\n        /* \"#utility.yul\":1040:1049   */\n      dup6\n        /* \"#utility.yul\":1036:1058   */\n      add\n        /* \"#utility.yul\":1016:1068   */\n      tag_268\n      jump\t// in\n    tag_353:\n        /* \"#utility.yul\":1006:1068   */\n      swap2\n      pop\n        /* \"#utility.yul\":962:1078   */\n      pop\n        /* \"#utility.yul\":758:1085   */\n      swap3\n      swap2\n      pop\n      pop\n      jump\t// out\n        /* \"#utility.yul\":1091:1181   */\n    tag_269:\n        /* \"#utility.yul\":1125:1132   */\n      0x00\n        /* \"#utility.yul\":1168:1173   */\n      dup2\n        /* \"#utility.yul\":1161:1174   */\n      iszero\n        /* \"#utility.yul\":1154:1175   */\n      iszero\n        /* \"#utility.yul\":1143:1175   */\n      swap1\n      pop\n        /* \"#utility.yul\":1091:1181   */\n      swap2\n      swap1\n      pop\n      jump\t// out\n        /* \"#utility.yul\":1187:1296   */\n    tag_270:\n        /* \"#utility.yul\":1268:1289   */\n      tag_356\n        /* \"#utility.yul\":1283:1288   */\n      dup2\n        /* \"#utility.yul\":1268:1289   */\n      tag_269\n      jump\t// in\n    tag_356:\n        /* \"#utility.yul\":1263:1266   */\n      dup3\n        /* \"#utility.yul\":1256:1290   */\n      mstore\n        /* \"#utility.yul\":1187:1296   */\n      pop\n      pop\n      jump\t// out\n        /* \"#utility.yul\":1302:1512   */\n    tag_31:\n        /* \"#utility.yul\":1389:1393   */\n      0x00\n        /* \"#utility.yul\":1427:1429   */\n      0x20\n        /* \"#utility.yul\":1416:1425   */\n      dup3\n        /* \"#utility.yul\":1412:1430   */\n      add\n        /* \"#utility.yul\":1404:1430   */\n      swap1\n      pop\n        /* \"#utility.yul\":1440:1505   */\n      tag_358\n        /* \"#utility.yul\":1502:1503   */\n      0x00\n        /* \"#utility.yul\":1491:1500   */\n      dup4\n        /* \"#utility.yul\":1487:1504   */\n      add\n        /* \"#utility.yul\":1478:1484   */\n      dup5\n        /* \"#utility.yul\":1440:1505   */\n      tag_270\n      jump\t// in\n    tag_358:\n        /* \"#utility.yul\":1302:1512   */\n      swap3\n      swap2\n      pop\n      pop\n      jump\t// out\n        /* \"#utility.yul\":1518:1595   */\n    tag_271:\n        /* \"#utility.yul\":1555:1562   */\n      0x00\n        /* \"#utility.yul\":1584:1589   */\n      dup2\n        /* \"#utility.yul\":1573:1589   */\n      swap1\n      pop\n        /* \"#utility.yul\":1518:1595   */\n      swap2\n      swap1\n      pop\n      jump\t// out\n        /* \"#utility.yul\":1601:1723   */\n    tag_272:\n        /* \"#utility.yul\":1674:1698   */\n      tag_361\n        /* \"#utility.yul\":1692:1697   */\n      dup2\n        /* \"#utility.yul\":1674:1698   */\n      tag_271\n      jump\t// in\n    tag_361:\n        /* \"#utility.yul\":1667:1672   */\n      dup2\n        /* \"#utility.yul\":1664:1699   */\n      eq\n        /* \"#utility.yul\":1654:1717   */\n      tag_362\n      jumpi\n        /* \"#utility.yul\":1713:1714   */\n      0x00\n        /* \"#utility.yul\":1710:1711   */\n      dup1\n        /* \"#utility.yul\":1703:1715   */\n      revert\n        /* \"#utility.yul\":1654:1717   */\n    tag_362:\n        /* \"#utility.yul\":1601:1723   */\n      pop\n      jump\t// out\n        /* \"#utility.yul\":1729:1868   */\n    tag_273:\n        /* \"#utility.yul\":1775:1780   */\n      0x00\n        /* \"#utility.yul\":1813:1819   */\n      dup2\n        /* \"#utility.yul\":1800:1820   */\n      calldataload\n        /* \"#utility.yul\":1791:1820   */\n      swap1\n      pop\n        /* \"#utility.yul\":1829:1862   */\n      tag_364\n        /* \"#utility.yul\":1856:1861   */\n      dup2\n        /* \"#utility.yul\":1829:1862   */\n      tag_272\n      jump\t// in\n    tag_364:\n        /* \"#utility.yul\":1729:1868   */\n      swap3\n      swap2\n      pop\n      pop\n      jump\t// out\n        /* \"#utility.yul\":1874:2203   */\n    tag_34:\n        /* \"#utility.yul\":1933:1939   */\n      0x00\n        /* \"#utility.yul\":1982:1984   */\n      0x20\n        /* \"#utility.yul\":1970:1979   */\n      dup3\n        /* \"#utility.yul\":1961:1968   */\n      dup5\n        /* \"#utility.yul\":1957:1980   */\n      sub\n        /* \"#utility.yul\":1953:1985   */\n      slt\n        /* \"#utility.yul\":1950:2069   */\n      iszero\n      tag_366\n      jumpi\n        /* \"#utility.yul\":1988:2067   */\n      tag_367\n      tag_264\n      jump\t// in\n    tag_367:\n        /* \"#utility.yul\":1950:2069   */\n    tag_366:\n        /* \"#utility.yul\":2108:2109   */\n      0x00\n        /* \"#utility.yul\":2133:2186   */\n      tag_368\n        /* \"#utility.yul\":2178:2185   */\n      dup5\n        /* \"#utility.yul\":2169:2175   */\n      dup3\n        /* \"#utility.yul\":2158:2167   */\n      dup6\n        /* \"#utility.yul\":2154:2176   */\n      add\n        /* \"#utility.yul\":2133:2186   */\n      tag_273\n      jump\t// in\n    tag_368:\n        /* \"#utility.yul\":2123:2186   */\n      swap2\n      pop\n        /* \"#utility.yul\":2079:2196   */\n      pop\n        /* \"#utility.yul\":1874:2203   */\n      swap3\n      swap2\n      pop\n      pop\n      jump\t// out\n        /* \"#utility.yul\":2209:2327   */\n    tag_274:\n        /* \"#utility.yul\":2296:2320   */\n      tag_370\n        /* \"#utility.yul\":2314:2319   */\n      dup2\n        /* \"#utility.yul\":2296:2320   */\n      tag_271\n      jump\t// in\n    tag_370:\n        /* \"#utility.yul\":2291:2294   */\n      dup3\n        /* \"#utility.yul\":2284:2321   */\n      mstore\n        /* \"#utility.yul\":2209:2327   */\n      pop\n      pop\n      jump\t// out\n        /* \"#utility.yul\":2333:2555   */\n    tag_37:\n        /* \"#utility.yul\":2426:2430   */\n      0x00\n        /* \"#utility.yul\":2464:2466   */\n      0x20\n        /* \"#utility.yul\":2453:2462   */\n      dup3\n        /* \"#utility.yul\":2449:2467   */\n      add\n        /* \"#utility.yul\":2441:2467   */\n      swap1\n      pop\n        /* \"#utility.yul\":2477:2548   */\n      tag_372\n        /* \"#utility.yul\":2545:2546   */\n      0x00\n        /* \"#utility.yul\":2534:2543   */\n      dup4\n        /* \"#utility.yul\":2530:2547   */\n      add\n        /* \"#utility.yul\":2521:2527   */\n      dup5\n        /* \"#utility.yul\":2477:2548   */\n      tag_274\n      jump\t// in\n    tag_372:\n        /* \"#utility.yul\":2333:2555   */\n      swap3\n      swap2\n      pop\n      pop\n      jump\t// out\n        /* \"#utility.yul\":2561:2687   */\n    tag_275:\n        /* \"#utility.yul\":2598:2605   */\n      0x00\n        /* \"#utility.yul\":2638:2680   */\n      0xffffffffffffffffffffffffffffffffffffffff\n        /* \"#utility.yul\":2631:2636   */\n      dup3\n        /* \"#utility.yul\":2627:2681   */\n      and\n        /* \"#utility.yul\":2616:2681   */\n      swap1\n      pop\n        /* \"#utility.yul\":2561:2687   */\n      swap2\n      swap1\n      pop\n      jump\t// out\n        /* \"#utility.yul\":2693:2789   */\n    tag_276:\n        /* \"#utility.yul\":2730:2737   */\n      0x00\n        /* \"#utility.yul\":2759:2783   */\n      tag_375\n        /* \"#utility.yul\":2777:2782   */\n      dup3\n        /* \"#utility.yul\":2759:2783   */\n      tag_275\n      jump\t// in\n    tag_375:\n        /* \"#utility.yul\":2748:2783   */\n      swap1\n      pop\n        /* \"#utility.yul\":2693:2789   */\n      swap2\n      swap1\n      pop\n      jump\t// out\n        /* \"#utility.yul\":2795:2917   */\n    tag_277:\n        /* \"#utility.yul\":2868:2892   */\n      tag_377\n        /* \"#utility.yul\":2886:2891   */\n      dup2\n        /* \"#utility.yul\":2868:2892   */\n      tag_276\n      jump\t// in\n    tag_377:\n        /* \"#utility.yul\":2861:2866   */\n      dup2\n        /* \"#utility.yul\":2858:2893   */\n      eq\n        /* \"#utility.yul\":2848:2911   */\n      tag_378\n      jumpi\n        /* \"#utility.yul\":2907:2908   */\n      0x00\n        /* \"#utility.yul\":2904:2905   */\n      dup1\n        /* \"#utility.yul\":2897:2909   */\n      revert\n        /* \"#utility.yul\":2848:2911   */\n    tag_378:\n        /* \"#utility.yul\":2795:2917   */\n      pop\n      jump\t// out\n        /* \"#utility.yul\":2923:3062   */\n    tag_278:\n        /* \"#utility.yul\":2969:2974   */\n      0x00\n        /* \"#utility.yul\":3007:3013   */\n      dup2\n        /* \"#utility.yul\":2994:3014   */\n      calldataload\n        /* \"#utility.yul\":2985:3014   */\n      swap1\n      pop\n        /* \"#utility.yul\":3023:3056   */\n      tag_380\n        /* \"#utility.yul\":3050:3055   */\n      dup2\n        /* \"#utility.yul\":3023:3056   */\n      tag_277\n      jump\t// in\n    tag_380:\n        /* \"#utility.yul\":2923:3062   */\n      swap3\n      swap2\n      pop\n      pop\n      jump\t// out\n        /* \"#utility.yul\":3068:3542   */\n    tag_40:\n        /* \"#utility.yul\":3136:3142   */\n      0x00\n        /* \"#utility.yul\":3144:3150   */\n      dup1\n        /* \"#utility.yul\":3193:3195   */\n      0x40\n        /* \"#utility.yul\":3181:3190   */\n      dup4\n        /* \"#utility.yul\":3172:3179   */\n      dup6\n        /* \"#utility.yul\":3168:3191   */\n      sub\n        /* \"#utility.yul\":3164:3196   */\n      slt\n        /* \"#utility.yul\":3161:3280   */\n      iszero\n      tag_382\n      jumpi\n        /* \"#utility.yul\":3199:3278   */\n      tag_383\n      tag_264\n      jump\t// in\n    tag_383:\n        /* \"#utility.yul\":3161:3280   */\n    tag_382:\n        /* \"#utility.yul\":3319:3320   */\n      0x00\n        /* \"#utility.yul\":3344:3397   */\n      tag_384\n        /* \"#utility.yul\":3389:3396   */\n      dup6\n        /* \"#utility.yul\":3380:3386   */\n      dup3\n        /* \"#utility.yul\":3369:3378   */\n      dup7\n        /* \"#utility.yul\":3365:3387   */\n      add\n        /* \"#utility.yul\":3344:3397   */\n      tag_273\n      jump\t// in\n    tag_384:\n        /* \"#utility.yul\":3334:3397   */\n      swap3\n      pop\n        /* \"#utility.yul\":3290:3407   */\n      pop\n        /* \"#utility.yul\":3446:3448   */\n      0x20\n        /* \"#utility.yul\":3472:3525   */\n      tag_385\n        /* \"#utility.yul\":3517:3524   */\n      dup6\n        /* \"#utility.yul\":3508:3514   */\n      dup3\n        /* \"#utility.yul\":3497:3506   */\n      dup7\n        /* \"#utility.yul\":3493:3515   */\n      add\n        /* \"#utility.yul\":3472:3525   */\n      tag_278\n      jump\t// in\n    tag_385:\n        /* \"#utility.yul\":3462:3525   */\n      swap2\n      pop\n        /* \"#utility.yul\":3417:3535   */\n      pop\n        /* \"#utility.yul\":3068:3542   */\n      swap3\n      pop\n      swap3\n      swap1\n      pop\n      jump\t// out\n        /* \"#utility.yul\":3548:3625   */\n    tag_279:\n        /* \"#utility.yul\":3585:3592   */\n      0x00\n        /* \"#utility.yul\":3614:3619   */\n      dup2\n        /* \"#utility.yul\":3603:3619   */\n      swap1\n      pop\n        /* \"#utility.yul\":3548:3625   */\n      swap2\n      swap1\n      pop\n      jump\t// out\n        /* \"#utility.yul\":3631:3753   */\n    tag_280:\n        /* \"#utility.yul\":3704:3728   */\n      tag_388\n        /* \"#utility.yul\":3722:3727   */\n      dup2\n        /* \"#utility.yul\":3704:3728   */\n      tag_279\n      jump\t// in\n    tag_388:\n        /* \"#utility.yul\":3697:3702   */\n      dup2\n        /* \"#utility.yul\":3694:3729   */\n      eq\n        /* \"#utility.yul\":3684:3747   */\n      tag_389\n      jumpi\n        /* \"#utility.yul\":3743:3744   */\n      0x00\n        /* \"#utility.yul\":3740:3741   */\n      dup1\n        /* \"#utility.yul\":3733:3745   */\n      revert\n        /* \"#utility.yul\":3684:3747   */\n    tag_389:\n        /* \"#utility.yul\":3631:3753   */\n      pop\n      jump\t// out\n        /* \"#utility.yul\":3759:3898   */\n    tag_281:\n        /* \"#utility.yul\":3805:3810   */\n      0x00\n        /* \"#utility.yul\":3843:3849   */\n      dup2\n        /* \"#utility.yul\":3830:3850   */\n      calldataload\n        /* \"#utility.yul\":3821:3850   */\n      swap1\n      pop\n        /* \"#utility.yul\":3859:3892   */\n      tag_391\n        /* \"#utility.yul\":3886:3891   */\n      dup2\n        /* \"#utility.yul\":3859:3892   */\n      tag_280\n      jump\t// in\n    tag_391:\n        /* \"#utility.yul\":3759:3898   */\n      swap3\n      swap2\n      pop\n      pop\n      jump\t// out\n        /* \"#utility.yul\":3904:4233   */\n    tag_47:\n        /* \"#utility.yul\":3963:3969   */\n      0x00\n        /* \"#utility.yul\":4012:4014   */\n      0x20\n        /* \"#utility.yul\":4000:4009   */\n      dup3\n        /* \"#utility.yul\":3991:3998   */\n      dup5\n        /* \"#utility.yul\":3987:4010   */\n      sub\n        /* \"#utility.yul\":3983:4015   */\n      slt\n        /* \"#utility.yul\":3980:4099   */\n      iszero\n      tag_393\n      jumpi\n        /* \"#utility.yul\":4018:4097   */\n      tag_394\n      tag_264\n      jump\t// in\n    tag_394:\n        /* \"#utility.yul\":3980:4099   */\n    tag_393:\n        /* \"#utility.yul\":4138:4139   */\n      0x00\n        /* \"#utility.yul\":4163:4216   */\n      tag_395\n        /* \"#utility.yul\":4208:4215   */\n      dup5\n        /* \"#utility.yul\":4199:4205   */\n      dup3\n        /* \"#utility.yul\":4188:4197   */\n      dup6\n        /* \"#utility.yul\":4184:4206   */\n      add\n        /* \"#utility.yul\":4163:4216   */\n      tag_281\n      jump\t// in\n    tag_395:\n        /* \"#utility.yul\":4153:4216   */\n      swap2\n      pop\n        /* \"#utility.yul\":4109:4226   */\n      pop\n        /* \"#utility.yul\":3904:4233   */\n      swap3\n      swap2\n      pop\n      pop\n      jump\t// out\n        /* \"#utility.yul\":4239:4347   */\n    tag_282:\n        /* \"#utility.yul\":4316:4340   */\n      tag_397\n        /* \"#utility.yul\":4334:4339   */\n      dup2\n        /* \"#utility.yul\":4316:4340   */\n      tag_279\n      jump\t// in\n    tag_397:\n        /* \"#utility.yul\":4311:4314   */\n      dup3\n        /* \"#utility.yul\":4304:4341   */\n      mstore\n        /* \"#utility.yul\":4239:4347   */\n      pop\n      pop\n      jump\t// out\n        /* \"#utility.yul\":4353:4452   */\n    tag_283:\n        /* \"#utility.yul\":4405:4411   */\n      0x00\n        /* \"#utility.yul\":4439:4444   */\n      dup2\n        /* \"#utility.yul\":4433:4445   */\n      mload\n        /* \"#utility.yul\":4423:4445   */\n      swap1\n      pop\n        /* \"#utility.yul\":4353:4452   */\n      swap2\n      swap1\n      pop\n      jump\t// out\n        /* \"#utility.yul\":4458:4617   */\n    tag_284:\n        /* \"#utility.yul\":4532:4543   */\n      0x00\n        /* \"#utility.yul\":4566:4572   */\n      dup3\n        /* \"#utility.yul\":4561:4564   */\n      dup3\n        /* \"#utility.yul\":4554:4573   */\n      mstore\n        /* \"#utility.yul\":4606:4610   */\n      0x20\n        /* \"#utility.yul\":4601:4604   */\n      dup3\n        /* \"#utility.yul\":4597:4611   */\n      add\n        /* \"#utility.yul\":4582:4611   */\n      swap1\n      pop\n        /* \"#utility.yul\":4458:4617   */\n      swap3\n      swap2\n      pop\n      pop\n      jump\t// out\n        /* \"#utility.yul\":4623:4762   */\n    tag_285:\n        /* \"#utility.yul\":4712:4718   */\n      dup3\n        /* \"#utility.yul\":4707:4710   */\n      dup2\n        /* \"#utility.yul\":4702:4705   */\n      dup4\n        /* \"#utility.yul\":4696:4719   */\n      mcopy\n        /* \"#utility.yul\":4753:4754   */\n      0x00\n        /* \"#utility.yul\":4744:4750   */\n      dup4\n        /* \"#utility.yul\":4739:4742   */\n      dup4\n        /* \"#utility.yul\":4735:4751   */\n      add\n        /* \"#utility.yul\":4728:4755   */\n      mstore\n        /* \"#utility.yul\":4623:4762   */\n      pop\n      pop\n      pop\n      jump\t// out\n        /* \"#utility.yul\":4768:4870   */\n    tag_286:\n        /* \"#utility.yul\":4809:4815   */\n      0x00\n        /* \"#utility.yul\":4860:4862   */\n      0x1f\n        /* \"#utility.yul\":4856:4863   */\n      not\n        /* \"#utility.yul\":4851:4853   */\n      0x1f\n        /* \"#utility.yul\":4844:4849   */\n      dup4\n        /* \"#utility.yul\":4840:4854   */\n      add\n        /* \"#utility.yul\":4836:4864   */\n      and\n        /* \"#utility.yul\":4826:4864   */\n      swap1\n      pop\n        /* \"#utility.yul\":4768:4870   */\n      swap2\n      swap1\n      pop\n      jump\t// out\n        /* \"#utility.yul\":4876:5233   */\n    tag_287:\n        /* \"#utility.yul\":4954:4957   */\n      0x00\n        /* \"#utility.yul\":4982:5021   */\n      tag_403\n        /* \"#utility.yul\":5015:5020   */\n      dup3\n        /* \"#utility.yul\":4982:5021   */\n      tag_283\n      jump\t// in\n    tag_403:\n        /* \"#utility.yul\":5037:5098   */\n      tag_404\n        /* \"#utility.yul\":5091:5097   */\n      dup2\n        /* \"#utility.yul\":5086:5089   */\n      dup6\n        /* \"#utility.yul\":5037:5098   */\n      tag_284\n      jump\t// in\n    tag_404:\n        /* \"#utility.yul\":5030:5098   */\n      swap4\n      pop\n        /* \"#utility.yul\":5107:5172   */\n      tag_405\n        /* \"#utility.yul\":5165:5171   */\n      dup2\n        /* \"#utility.yul\":5160:5163   */\n      dup6\n        /* \"#utility.yul\":5153:5157   */\n      0x20\n        /* \"#utility.yul\":5146:5151   */\n      dup7\n        /* \"#utility.yul\":5142:5158   */\n      add\n        /* \"#utility.yul\":5107:5172   */\n      tag_285\n      jump\t// in\n    tag_405:\n        /* \"#utility.yul\":5197:5226   */\n      tag_406\n        /* \"#utility.yul\":5219:5225   */\n      dup2\n        /* \"#utility.yul\":5197:5226   */\n      tag_286\n      jump\t// in\n    tag_406:\n        /* \"#utility.yul\":5192:5195   */\n      dup5\n        /* \"#utility.yul\":5188:5227   */\n      add\n        /* \"#utility.yul\":5181:5227   */\n      swap2\n      pop\n        /* \"#utility.yul\":4958:5233   */\n      pop\n        /* \"#utility.yul\":4876:5233   */\n      swap3\n      swap2\n      pop\n      pop\n      jump\t// out\n        /* \"#utility.yul\":5239:5338   */\n    tag_288:\n        /* \"#utility.yul\":5310:5331   */\n      tag_408\n        /* \"#utility.yul\":5325:5330   */\n      dup2\n        /* \"#utility.yul\":5310:5331   */\n      tag_269\n      jump\t// in\n    tag_408:\n        /* \"#utility.yul\":5305:5308   */\n      dup3\n        /* \"#utility.yul\":5298:5332   */\n      mstore\n        /* \"#utility.yul\":5239:5338   */\n      pop\n      pop\n      jump\t// out\n        /* \"#utility.yul\":5402:6362   */\n    tag_289:\n        /* \"#utility.yul\":5519:5522   */\n      0x00\n        /* \"#utility.yul\":5555:5559   */\n      0x80\n        /* \"#utility.yul\":5550:5553   */\n      dup4\n        /* \"#utility.yul\":5546:5560   */\n      add\n        /* \"#utility.yul\":5650:5654   */\n      0x00\n        /* \"#utility.yul\":5643:5648   */\n      dup4\n        /* \"#utility.yul\":5639:5655   */\n      add\n        /* \"#utility.yul\":5633:5656   */\n      mload\n        /* \"#utility.yul\":5669:5732   */\n      tag_410\n        /* \"#utility.yul\":5726:5730   */\n      0x00\n        /* \"#utility.yul\":5721:5724   */\n      dup7\n        /* \"#utility.yul\":5717:5731   */\n      add\n        /* \"#utility.yul\":5703:5715   */\n      dup3\n        /* \"#utility.yul\":5669:5732   */\n      tag_282\n      jump\t// in\n    tag_410:\n        /* \"#utility.yul\":5570:5742   */\n      pop\n        /* \"#utility.yul\":5827:5831   */\n      0x20\n        /* \"#utility.yul\":5820:5825   */\n      dup4\n        /* \"#utility.yul\":5816:5832   */\n      add\n        /* \"#utility.yul\":5810:5833   */\n      mload\n        /* \"#utility.yul\":5846:5909   */\n      tag_411\n        /* \"#utility.yul\":5903:5907   */\n      0x20\n        /* \"#utility.yul\":5898:5901   */\n      dup7\n        /* \"#utility.yul\":5894:5908   */\n      add\n        /* \"#utility.yul\":5880:5892   */\n      dup3\n        /* \"#utility.yul\":5846:5909   */\n      tag_282\n      jump\t// in\n    tag_411:\n        /* \"#utility.yul\":5752:5919   */\n      pop\n        /* \"#utility.yul\":6002:6006   */\n      0x40\n        /* \"#utility.yul\":5995:6000   */\n      dup4\n        /* \"#utility.yul\":5991:6007   */\n      add\n        /* \"#utility.yul\":5985:6008   */\n      mload\n        /* \"#utility.yul\":6055:6058   */\n      dup5\n        /* \"#utility.yul\":6049:6053   */\n      dup3\n        /* \"#utility.yul\":6045:6059   */\n      sub\n        /* \"#utility.yul\":6038:6042   */\n      0x40\n        /* \"#utility.yul\":6033:6036   */\n      dup7\n        /* \"#utility.yul\":6029:6043   */\n      add\n        /* \"#utility.yul\":6022:6060   */\n      mstore\n        /* \"#utility.yul\":6081:6154   */\n      tag_412\n        /* \"#utility.yul\":6149:6153   */\n      dup3\n        /* \"#utility.yul\":6135:6147   */\n      dup3\n        /* \"#utility.yul\":6081:6154   */\n      tag_287\n      jump\t// in\n    tag_412:\n        /* \"#utility.yul\":6073:6154   */\n      swap2\n      pop\n        /* \"#utility.yul\":5929:6165   */\n      pop\n        /* \"#utility.yul\":6249:6253   */\n      0x60\n        /* \"#utility.yul\":6242:6247   */\n      dup4\n        /* \"#utility.yul\":6238:6254   */\n      add\n        /* \"#utility.yul\":6232:6255   */\n      mload\n        /* \"#utility.yul\":6268:6325   */\n      tag_413\n        /* \"#utility.yul\":6319:6323   */\n      0x60\n        /* \"#utility.yul\":6314:6317   */\n      dup7\n        /* \"#utility.yul\":6310:6324   */\n      add\n        /* \"#utility.yul\":6296:6308   */\n      dup3\n        /* \"#utility.yul\":6268:6325   */\n      tag_288\n      jump\t// in\n    tag_413:\n        /* \"#utility.yul\":6175:6335   */\n      pop\n        /* \"#utility.yul\":6352:6356   */\n      dup1\n        /* \"#utility.yul\":6345:6356   */\n      swap2\n      pop\n        /* \"#utility.yul\":5524:6362   */\n      pop\n        /* \"#utility.yul\":5402:6362   */\n      swap3\n      swap2\n      pop\n      pop\n      jump\t// out\n        /* \"#utility.yul\":6368:6737   */\n    tag_50:\n        /* \"#utility.yul\":6509:6513   */\n      0x00\n        /* \"#utility.yul\":6547:6549   */\n      0x20\n        /* \"#utility.yul\":6536:6545   */\n      dup3\n        /* \"#utility.yul\":6532:6550   */\n      add\n        /* \"#utility.yul\":6524:6550   */\n      swap1\n      pop\n        /* \"#utility.yul\":6596:6605   */\n      dup2\n        /* \"#utility.yul\":6590:6594   */\n      dup2\n        /* \"#utility.yul\":6586:6606   */\n      sub\n        /* \"#utility.yul\":6582:6583   */\n      0x00\n        /* \"#utility.yul\":6571:6580   */\n      dup4\n        /* \"#utility.yul\":6567:6584   */\n      add\n        /* \"#utility.yul\":6560:6607   */\n      mstore\n        /* \"#utility.yul\":6624:6730   */\n      tag_415\n        /* \"#utility.yul\":6725:6729   */\n      dup2\n        /* \"#utility.yul\":6716:6722   */\n      dup5\n        /* \"#utility.yul\":6624:6730   */\n      tag_289\n      jump\t// in\n    tag_415:\n        /* \"#utility.yul\":6616:6730   */\n      swap1\n      pop\n        /* \"#utility.yul\":6368:6737   */\n      swap3\n      swap2\n      pop\n      pop\n      jump\t// out\n        /* \"#utility.yul\":6743:6861   */\n    tag_290:\n        /* \"#utility.yul\":6830:6854   */\n      tag_417\n        /* \"#utility.yul\":6848:6853   */\n      dup2\n        /* \"#utility.yul\":6830:6854   */\n      tag_279\n      jump\t// in\n    tag_417:\n        /* \"#utility.yul\":6825:6828   */\n      dup3\n        /* \"#utility.yul\":6818:6855   */\n      mstore\n        /* \"#utility.yul\":6743:6861   */\n      pop\n      pop\n      jump\t// out\n        /* \"#utility.yul\":6867:7036   */\n    tag_291:\n        /* \"#utility.yul\":6951:6962   */\n      0x00\n        /* \"#utility.yul\":6985:6991   */\n      dup3\n        /* \"#utility.yul\":6980:6983   */\n      dup3\n        /* \"#utility.yul\":6973:6992   */\n      mstore\n        /* \"#utility.yul\":7025:7029   */\n      0x20\n        /* \"#utility.yul\":7020:7023   */\n      dup3\n        /* \"#utility.yul\":7016:7030   */\n      add\n        /* \"#utility.yul\":7001:7030   */\n      swap1\n      pop\n        /* \"#utility.yul\":6867:7036   */\n      swap3\n      swap2\n      pop\n      pop\n      jump\t// out\n        /* \"#utility.yul\":7042:7419   */\n    tag_292:\n        /* \"#utility.yul\":7130:7133   */\n      0x00\n        /* \"#utility.yul\":7158:7197   */\n      tag_420\n        /* \"#utility.yul\":7191:7196   */\n      dup3\n        /* \"#utility.yul\":7158:7197   */\n      tag_283\n      jump\t// in\n    tag_420:\n        /* \"#utility.yul\":7213:7284   */\n      tag_421\n        /* \"#utility.yul\":7277:7283   */\n      dup2\n        /* \"#utility.yul\":7272:7275   */\n      dup6\n        /* \"#utility.yul\":7213:7284   */\n      tag_291\n      jump\t// in\n    tag_421:\n        /* \"#utility.yul\":7206:7284   */\n      swap4\n      pop\n        /* \"#utility.yul\":7293:7358   */\n      tag_422\n        /* \"#utility.yul\":7351:7357   */\n      dup2\n        /* \"#utility.yul\":7346:7349   */\n      dup6\n        /* \"#utility.yul\":7339:7343   */\n      0x20\n        /* \"#utility.yul\":7332:7337   */\n      dup7\n        /* \"#utility.yul\":7328:7344   */\n      add\n        /* \"#utility.yul\":7293:7358   */\n      tag_285\n      jump\t// in\n    tag_422:\n        /* \"#utility.yul\":7383:7412   */\n      tag_423\n        /* \"#utility.yul\":7405:7411   */\n      dup2\n        /* \"#utility.yul\":7383:7412   */\n      tag_286\n      jump\t// in\n    tag_423:\n        /* \"#utility.yul\":7378:7381   */\n      dup5\n        /* \"#utility.yul\":7374:7413   */\n      add\n        /* \"#utility.yul\":7367:7413   */\n      swap2\n      pop\n        /* \"#utility.yul\":7134:7419   */\n      pop\n        /* \"#utility.yul\":7042:7419   */\n      swap3\n      swap2\n      pop\n      pop\n      jump\t// out\n        /* \"#utility.yul\":7425:8057   */\n    tag_58:\n        /* \"#utility.yul\":7616:7620   */\n      0x00\n        /* \"#utility.yul\":7654:7657   */\n      0x80\n        /* \"#utility.yul\":7643:7652   */\n      dup3\n        /* \"#utility.yul\":7639:7658   */\n      add\n        /* \"#utility.yul\":7631:7658   */\n      swap1\n      pop\n        /* \"#utility.yul\":7668:7739   */\n      tag_425\n        /* \"#utility.yul\":7736:7737   */\n      0x00\n        /* \"#utility.yul\":7725:7734   */\n      dup4\n        /* \"#utility.yul\":7721:7738   */\n      add\n        /* \"#utility.yul\":7712:7718   */\n      dup8\n        /* \"#utility.yul\":7668:7739   */\n      tag_290\n      jump\t// in\n    tag_425:\n        /* \"#utility.yul\":7749:7821   */\n      tag_426\n        /* \"#utility.yul\":7817:7819   */\n      0x20\n        /* \"#utility.yul\":7806:7815   */\n      dup4\n        /* \"#utility.yul\":7802:7820   */\n      add\n        /* \"#utility.yul\":7793:7799   */\n      dup7\n        /* \"#utility.yul\":7749:7821   */\n      tag_290\n      jump\t// in\n    tag_426:\n        /* \"#utility.yul\":7868:7877   */\n      dup2\n        /* \"#utility.yul\":7862:7866   */\n      dup2\n        /* \"#utility.yul\":7858:7878   */\n      sub\n        /* \"#utility.yul\":7853:7855   */\n      0x40\n        /* \"#utility.yul\":7842:7851   */\n      dup4\n        /* \"#utility.yul\":7838:7856   */\n      add\n        /* \"#utility.yul\":7831:7879   */\n      mstore\n        /* \"#utility.yul\":7896:7974   */\n      tag_427\n        /* \"#utility.yul\":7969:7973   */\n      dup2\n        /* \"#utility.yul\":7960:7966   */\n      dup6\n        /* \"#utility.yul\":7896:7974   */\n      tag_292\n      jump\t// in\n    tag_427:\n        /* \"#utility.yul\":7888:7974   */\n      swap1\n      pop\n        /* \"#utility.yul\":7984:8050   */\n      tag_428\n        /* \"#utility.yul\":8046:8048   */\n      0x60\n        /* \"#utility.yul\":8035:8044   */\n      dup4\n        /* \"#utility.yul\":8031:8049   */\n      add\n        /* \"#utility.yul\":8022:8028   */\n      dup5\n        /* \"#utility.yul\":7984:8050   */\n      tag_270\n      jump\t// in\n    tag_428:\n        /* \"#utility.yul\":7425:8057   */\n      swap6\n      swap5\n      pop\n      pop\n      pop\n      pop\n      pop\n      jump\t// out\n        /* \"#utility.yul\":8063:8180   */\n    tag_293:\n        /* \"#utility.yul\":8172:8173   */\n      0x00\n        /* \"#utility.yul\":8169:8170   */\n      dup1\n        /* \"#utility.yul\":8162:8174   */\n      revert\n        /* \"#utility.yul\":8186:8303   */\n    tag_294:\n        /* \"#utility.yul\":8295:8296   */\n      0x00\n        /* \"#utility.yul\":8292:8293   */\n      dup1\n        /* \"#utility.yul\":8285:8297   */\n      revert\n        /* \"#utility.yul\":8309:8489   */\n    tag_235:\n        /* \"#utility.yul\":8357:8434   */\n      0x4e487b7100000000000000000000000000000000000000000000000000000000\n        /* \"#utility.yul\":8354:8355   */\n      0x00\n        /* \"#utility.yul\":8347:8435   */\n      mstore\n        /* \"#utility.yul\":8454:8458   */\n      0x41\n        /* \"#utility.yul\":8451:8452   */\n      0x04\n        /* \"#utility.yul\":8444:8459   */\n      mstore\n        /* \"#utility.yul\":8478:8482   */\n      0x24\n        /* \"#utility.yul\":8475:8476   */\n      0x00\n        /* \"#utility.yul\":8468:8483   */\n      revert\n        /* \"#utility.yul\":8495:8776   */\n    tag_295:\n        /* \"#utility.yul\":8578:8605   */\n      tag_433\n        /* \"#utility.yul\":8600:8604   */\n      dup3\n        /* \"#utility.yul\":8578:8605   */\n      tag_286\n      jump\t// in\n    tag_433:\n        /* \"#utility.yul\":8570:8576   */\n      dup2\n        /* \"#utility.yul\":8566:8606   */\n      add\n        /* \"#utility.yul\":8708:8714   */\n      dup2\n        /* \"#utility.yul\":8696:8706   */\n      dup2\n        /* \"#utility.yul\":8693:8715   */\n      lt\n        /* \"#utility.yul\":8672:8690   */\n      0xffffffffffffffff\n        /* \"#utility.yul\":8660:8670   */\n      dup3\n        /* \"#utility.yul\":8657:8691   */\n      gt\n        /* \"#utility.yul\":8654:8716   */\n      or\n        /* \"#utility.yul\":8651:8739   */\n      iszero\n      tag_434\n      jumpi\n        /* \"#utility.yul\":8719:8737   */\n      tag_435\n      tag_235\n      jump\t// in\n    tag_435:\n        /* \"#utility.yul\":8651:8739   */\n    tag_434:\n        /* \"#utility.yul\":8759:8769   */\n      dup1\n        /* \"#utility.yul\":8755:8757   */\n      0x40\n        /* \"#utility.yul\":8748:8770   */\n      mstore\n        /* \"#utility.yul\":8538:8776   */\n      pop\n        /* \"#utility.yul\":8495:8776   */\n      pop\n      pop\n      jump\t// out\n        /* \"#utility.yul\":8782:8911   */\n    tag_296:\n        /* \"#utility.yul\":8816:8822   */\n      0x00\n        /* \"#utility.yul\":8843:8863   */\n      tag_437\n      tag_263\n      jump\t// in\n    tag_437:\n        /* \"#utility.yul\":8833:8863   */\n      swap1\n      pop\n        /* \"#utility.yul\":8872:8905   */\n      tag_438\n        /* \"#utility.yul\":8900:8904   */\n      dup3\n        /* \"#utility.yul\":8892:8898   */\n      dup3\n        /* \"#utility.yul\":8872:8905   */\n      tag_295\n      jump\t// in\n    tag_438:\n        /* \"#utility.yul\":8782:8911   */\n      swap2\n      swap1\n      pop\n      jump\t// out\n        /* \"#utility.yul\":8917:9225   */\n    tag_297:\n        /* \"#utility.yul\":8979:8983   */\n      0x00\n        /* \"#utility.yul\":9069:9087   */\n      0xffffffffffffffff\n        /* \"#utility.yul\":9061:9067   */\n      dup3\n        /* \"#utility.yul\":9058:9088   */\n      gt\n        /* \"#utility.yul\":9055:9111   */\n      iszero\n      tag_440\n      jumpi\n        /* \"#utility.yul\":9091:9109   */\n      tag_441\n      tag_235\n      jump\t// in\n    tag_441:\n        /* \"#utility.yul\":9055:9111   */\n    tag_440:\n        /* \"#utility.yul\":9129:9158   */\n      tag_442\n        /* \"#utility.yul\":9151:9157   */\n      dup3\n        /* \"#utility.yul\":9129:9158   */\n      tag_286\n      jump\t// in\n    tag_442:\n        /* \"#utility.yul\":9121:9158   */\n      swap1\n      pop\n        /* \"#utility.yul\":9213:9217   */\n      0x20\n        /* \"#utility.yul\":9207:9211   */\n      dup2\n        /* \"#utility.yul\":9203:9218   */\n      add\n        /* \"#utility.yul\":9195:9218   */\n      swap1\n      pop\n        /* \"#utility.yul\":8917:9225   */\n      swap2\n      swap1\n      pop\n      jump\t// out\n        /* \"#utility.yul\":9231:9379   */\n    tag_298:\n        /* \"#utility.yul\":9329:9335   */\n      dup3\n        /* \"#utility.yul\":9324:9327   */\n      dup2\n        /* \"#utility.yul\":9319:9322   */\n      dup4\n        /* \"#utility.yul\":9306:9336   */\n      calldatacopy\n        /* \"#utility.yul\":9370:9371   */\n      0x00\n        /* \"#utility.yul\":9361:9367   */\n      dup4\n        /* \"#utility.yul\":9356:9359   */\n      dup4\n        /* \"#utility.yul\":9352:9368   */\n      add\n        /* \"#utility.yul\":9345:9372   */\n      mstore\n        /* \"#utility.yul\":9231:9379   */\n      pop\n      pop\n      pop\n      jump\t// out\n        /* \"#utility.yul\":9385:9810   */\n    tag_299:\n        /* \"#utility.yul\":9463:9468   */\n      0x00\n        /* \"#utility.yul\":9488:9554   */\n      tag_445\n        /* \"#utility.yul\":9504:9553   */\n      tag_446\n        /* \"#utility.yul\":9546:9552   */\n      dup5\n        /* \"#utility.yul\":9504:9553   */\n      tag_297\n      jump\t// in\n    tag_446:\n        /* \"#utility.yul\":9488:9554   */\n      tag_296\n      jump\t// in\n    tag_445:\n        /* \"#utility.yul\":9479:9554   */\n      swap1\n      pop\n        /* \"#utility.yul\":9577:9583   */\n      dup3\n        /* \"#utility.yul\":9570:9575   */\n      dup2\n        /* \"#utility.yul\":9563:9584   */\n      mstore\n        /* \"#utility.yul\":9615:9619   */\n      0x20\n        /* \"#utility.yul\":9608:9613   */\n      dup2\n        /* \"#utility.yul\":9604:9620   */\n      add\n        /* \"#utility.yul\":9653:9656   */\n      dup5\n        /* \"#utility.yul\":9644:9650   */\n      dup5\n        /* \"#utility.yul\":9639:9642   */\n      dup5\n        /* \"#utility.yul\":9635:9651   */\n      add\n        /* \"#utility.yul\":9632:9657   */\n      gt\n        /* \"#utility.yul\":9629:9741   */\n      iszero\n      tag_447\n      jumpi\n        /* \"#utility.yul\":9660:9739   */\n      tag_448\n      tag_294\n      jump\t// in\n    tag_448:\n        /* \"#utility.yul\":9629:9741   */\n    tag_447:\n        /* \"#utility.yul\":9750:9804   */\n      tag_449\n        /* \"#utility.yul\":9797:9803   */\n      dup5\n        /* \"#utility.yul\":9792:9795   */\n      dup3\n        /* \"#utility.yul\":9787:9790   */\n      dup6\n        /* \"#utility.yul\":9750:9804   */\n      tag_298\n      jump\t// in\n    tag_449:\n        /* \"#utility.yul\":9469:9810   */\n      pop\n        /* \"#utility.yul\":9385:9810   */\n      swap4\n      swap3\n      pop\n      pop\n      pop\n      jump\t// out\n        /* \"#utility.yul\":9830:10170   */\n    tag_300:\n        /* \"#utility.yul\":9886:9891   */\n      0x00\n        /* \"#utility.yul\":9935:9938   */\n      dup3\n        /* \"#utility.yul\":9928:9932   */\n      0x1f\n        /* \"#utility.yul\":9920:9926   */\n      dup4\n        /* \"#utility.yul\":9916:9933   */\n      add\n        /* \"#utility.yul\":9912:9939   */\n      slt\n        /* \"#utility.yul\":9902:10024   */\n      tag_451\n      jumpi\n        /* \"#utility.yul\":9943:10022   */\n      tag_452\n      tag_293\n      jump\t// in\n    tag_452:\n        /* \"#utility.yul\":9902:10024   */\n    tag_451:\n        /* \"#utility.yul\":10060:10066   */\n      dup2\n        /* \"#utility.yul\":10047:10067   */\n      calldataload\n        /* \"#utility.yul\":10085:10164   */\n      tag_453\n        /* \"#utility.yul\":10160:10163   */\n      dup5\n        /* \"#utility.yul\":10152:10158   */\n      dup3\n        /* \"#utility.yul\":10145:10149   */\n      0x20\n        /* \"#utility.yul\":10137:10143   */\n      dup7\n        /* \"#utility.yul\":10133:10150   */\n      add\n        /* \"#utility.yul\":10085:10164   */\n      tag_299\n      jump\t// in\n    tag_453:\n        /* \"#utility.yul\":10076:10164   */\n      swap2\n      pop\n        /* \"#utility.yul\":9892:10170   */\n      pop\n        /* \"#utility.yul\":9830:10170   */\n      swap3\n      swap2\n      pop\n      pop\n      jump\t// out\n        /* \"#utility.yul\":10176:10975   */\n    tag_61:\n        /* \"#utility.yul\":10263:10269   */\n      0x00\n        /* \"#utility.yul\":10271:10277   */\n      dup1\n        /* \"#utility.yul\":10279:10285   */\n      0x00\n        /* \"#utility.yul\":10328:10330   */\n      0x60\n        /* \"#utility.yul\":10316:10325   */\n      dup5\n        /* \"#utility.yul\":10307:10314   */\n      dup7\n        /* \"#utility.yul\":10303:10326   */\n      sub\n        /* \"#utility.yul\":10299:10331   */\n      slt\n        /* \"#utility.yul\":10296:10415   */\n      iszero\n      tag_455\n      jumpi\n        /* \"#utility.yul\":10334:10413   */\n      tag_456\n      tag_264\n      jump\t// in\n    tag_456:\n        /* \"#utility.yul\":10296:10415   */\n    tag_455:\n        /* \"#utility.yul\":10454:10455   */\n      0x00\n        /* \"#utility.yul\":10479:10532   */\n      tag_457\n        /* \"#utility.yul\":10524:10531   */\n      dup7\n        /* \"#utility.yul\":10515:10521   */\n      dup3\n        /* \"#utility.yul\":10504:10513   */\n      dup8\n        /* \"#utility.yul\":10500:10522   */\n      add\n        /* \"#utility.yul\":10479:10532   */\n      tag_281\n      jump\t// in\n    tag_457:\n        /* \"#utility.yul\":10469:10532   */\n      swap4\n      pop\n        /* \"#utility.yul\":10425:10542   */\n      pop\n        /* \"#utility.yul\":10581:10583   */\n      0x20\n        /* \"#utility.yul\":10607:10660   */\n      tag_458\n        /* \"#utility.yul\":10652:10659   */\n      dup7\n        /* \"#utility.yul\":10643:10649   */\n      dup3\n        /* \"#utility.yul\":10632:10641   */\n      dup8\n        /* \"#utility.yul\":10628:10650   */\n      add\n        /* \"#utility.yul\":10607:10660   */\n      tag_281\n      jump\t// in\n    tag_458:\n        /* \"#utility.yul\":10597:10660   */\n      swap3\n      pop\n        /* \"#utility.yul\":10552:10670   */\n      pop\n        /* \"#utility.yul\":10737:10739   */\n      0x40\n        /* \"#utility.yul\":10726:10735   */\n      dup5\n        /* \"#utility.yul\":10722:10740   */\n      add\n        /* \"#utility.yul\":10709:10741   */\n      calldataload\n        /* \"#utility.yul\":10768:10786   */\n      0xffffffffffffffff\n        /* \"#utility.yul\":10760:10766   */\n      dup2\n        /* \"#utility.yul\":10757:10787   */\n      gt\n        /* \"#utility.yul\":10754:10871   */\n      iszero\n      tag_459\n      jumpi\n        /* \"#utility.yul\":10790:10869   */\n      tag_460\n      tag_265\n      jump\t// in\n    tag_460:\n        /* \"#utility.yul\":10754:10871   */\n    tag_459:\n        /* \"#utility.yul\":10895:10958   */\n      tag_461\n        /* \"#utility.yul\":10950:10957   */\n      dup7\n        /* \"#utility.yul\":10941:10947   */\n      dup3\n        /* \"#utility.yul\":10930:10939   */\n      dup8\n        /* \"#utility.yul\":10926:10948   */\n      add\n        /* \"#utility.yul\":10895:10958   */\n      tag_300\n      jump\t// in\n    tag_461:\n        /* \"#utility.yul\":10885:10958   */\n      swap2\n      pop\n        /* \"#utility.yul\":10680:10968   */\n      pop\n        /* \"#utility.yul\":10176:10975   */\n      swap3\n      pop\n      swap3\n      pop\n      swap3\n      jump\t// out\n        /* \"#utility.yul\":10981:11310   */\n    tag_72:\n        /* \"#utility.yul\":11040:11046   */\n      0x00\n        /* \"#utility.yul\":11089:11091   */\n      0x20\n        /* \"#utility.yul\":11077:11086   */\n      dup3\n        /* \"#utility.yul\":11068:11075   */\n      dup5\n        /* \"#utility.yul\":11064:11087   */\n      sub\n        /* \"#utility.yul\":11060:11092   */\n      slt\n        /* \"#utility.yul\":11057:11176   */\n      iszero\n      tag_463\n      jumpi\n        /* \"#utility.yul\":11095:11174   */\n      tag_464\n      tag_264\n      jump\t// in\n    tag_464:\n        /* \"#utility.yul\":11057:11176   */\n    tag_463:\n        /* \"#utility.yul\":11215:11216   */\n      0x00\n        /* \"#utility.yul\":11240:11293   */\n      tag_465\n        /* \"#utility.yul\":11285:11292   */\n      dup5\n        /* \"#utility.yul\":11276:11282   */\n      dup3\n        /* \"#utility.yul\":11265:11274   */\n      dup6\n        /* \"#utility.yul\":11261:11283   */\n      add\n        /* \"#utility.yul\":11240:11293   */\n      tag_278\n      jump\t// in\n    tag_465:\n        /* \"#utility.yul\":11230:11293   */\n      swap2\n      pop\n        /* \"#utility.yul\":11186:11303   */\n      pop\n        /* \"#utility.yul\":10981:11310   */\n      swap3\n      swap2\n      pop\n      pop\n      jump\t// out\n        /* \"#utility.yul\":11378:11718   */\n    tag_301:\n        /* \"#utility.yul\":11527:11531   */\n      0x20\n        /* \"#utility.yul\":11522:11525   */\n      dup3\n        /* \"#utility.yul\":11518:11532   */\n      add\n        /* \"#utility.yul\":11619:11623   */\n      0x00\n        /* \"#utility.yul\":11612:11617   */\n      dup3\n        /* \"#utility.yul\":11608:11624   */\n      add\n        /* \"#utility.yul\":11602:11625   */\n      mload\n        /* \"#utility.yul\":11638:11701   */\n      tag_467\n        /* \"#utility.yul\":11695:11699   */\n      0x00\n        /* \"#utility.yul\":11690:11693   */\n      dup6\n        /* \"#utility.yul\":11686:11700   */\n      add\n        /* \"#utility.yul\":11672:11684   */\n      dup3\n        /* \"#utility.yul\":11638:11701   */\n      tag_282\n      jump\t// in\n    tag_467:\n        /* \"#utility.yul\":11542:11711   */\n      pop\n        /* \"#utility.yul\":11496:11718   */\n      pop\n        /* \"#utility.yul\":11378:11718   */\n      pop\n      pop\n      jump\t// out\n        /* \"#utility.yul\":11724:12050   */\n    tag_84:\n        /* \"#utility.yul\":11869:11873   */\n      0x00\n        /* \"#utility.yul\":11907:11909   */\n      0x20\n        /* \"#utility.yul\":11896:11905   */\n      dup3\n        /* \"#utility.yul\":11892:11910   */\n      add\n        /* \"#utility.yul\":11884:11910   */\n      swap1\n      pop\n        /* \"#utility.yul\":11920:12043   */\n      tag_469\n        /* \"#utility.yul\":12040:12041   */\n      0x00\n        /* \"#utility.yul\":12029:12038   */\n      dup4\n        /* \"#utility.yul\":12025:12042   */\n      add\n        /* \"#utility.yul\":12016:12022   */\n      dup5\n        /* \"#utility.yul\":11920:12043   */\n      tag_301\n      jump\t// in\n    tag_469:\n        /* \"#utility.yul\":11724:12050   */\n      swap3\n      swap2\n      pop\n      pop\n      jump\t// out\n        /* \"#utility.yul\":12056:12675   */\n    tag_87:\n        /* \"#utility.yul\":12133:12139   */\n      0x00\n        /* \"#utility.yul\":12141:12147   */\n      dup1\n        /* \"#utility.yul\":12149:12155   */\n      0x00\n        /* \"#utility.yul\":12198:12200   */\n      0x60\n        /* \"#utility.yul\":12186:12195   */\n      dup5\n        /* \"#utility.yul\":12177:12184   */\n      dup7\n        /* \"#utility.yul\":12173:12196   */\n      sub\n        /* \"#utility.yul\":12169:12201   */\n      slt\n        /* \"#utility.yul\":12166:12285   */\n      iszero\n      tag_471\n      jumpi\n        /* \"#utility.yul\":12204:12283   */\n      tag_472\n      tag_264\n      jump\t// in\n    tag_472:\n        /* \"#utility.yul\":12166:12285   */\n    tag_471:\n        /* \"#utility.yul\":12324:12325   */\n      0x00\n        /* \"#utility.yul\":12349:12402   */\n      tag_473\n        /* \"#utility.yul\":12394:12401   */\n      dup7\n        /* \"#utility.yul\":12385:12391   */\n      dup3\n        /* \"#utility.yul\":12374:12383   */\n      dup8\n        /* \"#utility.yul\":12370:12392   */\n      add\n        /* \"#utility.yul\":12349:12402   */\n      tag_281\n      jump\t// in\n    tag_473:\n        /* \"#utility.yul\":12339:12402   */\n      swap4\n      pop\n        /* \"#utility.yul\":12295:12412   */\n      pop\n        /* \"#utility.yul\":12451:12453   */\n      0x20\n        /* \"#utility.yul\":12477:12530   */\n      tag_474\n        /* \"#utility.yul\":12522:12529   */\n      dup7\n        /* \"#utility.yul\":12513:12519   */\n      dup3\n        /* \"#utility.yul\":12502:12511   */\n      dup8\n        /* \"#utility.yul\":12498:12520   */\n      add\n        /* \"#utility.yul\":12477:12530   */\n      tag_278\n      jump\t// in\n    tag_474:\n        /* \"#utility.yul\":12467:12530   */\n      swap3\n      pop\n        /* \"#utility.yul\":12422:12540   */\n      pop\n        /* \"#utility.yul\":12579:12581   */\n      0x40\n        /* \"#utility.yul\":12605:12658   */\n      tag_475\n        /* \"#utility.yul\":12650:12657   */\n      dup7\n        /* \"#utility.yul\":12641:12647   */\n      dup3\n        /* \"#utility.yul\":12630:12639   */\n      dup8\n        /* \"#utility.yul\":12626:12648   */\n      add\n        /* \"#utility.yul\":12605:12658   */\n      tag_281\n      jump\t// in\n    tag_475:\n        /* \"#utility.yul\":12595:12658   */\n      swap2\n      pop\n        /* \"#utility.yul\":12550:12668   */\n      pop\n        /* \"#utility.yul\":12056:12675   */\n      swap3\n      pop\n      swap3\n      pop\n      swap3\n      jump\t// out\n        /* \"#utility.yul\":12681:12903   */\n    tag_96:\n        /* \"#utility.yul\":12774:12778   */\n      0x00\n        /* \"#utility.yul\":12812:12814   */\n      0x20\n        /* \"#utility.yul\":12801:12810   */\n      dup3\n        /* \"#utility.yul\":12797:12815   */\n      add\n        /* \"#utility.yul\":12789:12815   */\n      swap1\n      pop\n        /* \"#utility.yul\":12825:12896   */\n      tag_477\n        /* \"#utility.yul\":12893:12894   */\n      0x00\n        /* \"#utility.yul\":12882:12891   */\n      dup4\n        /* \"#utility.yul\":12878:12895   */\n      add\n        /* \"#utility.yul\":12869:12875   */\n      dup5\n        /* \"#utility.yul\":12825:12896   */\n      tag_290\n      jump\t// in\n    tag_477:\n        /* \"#utility.yul\":12681:12903   */\n      swap3\n      swap2\n      pop\n      pop\n      jump\t// out\n        /* \"#utility.yul\":12909:12969   */\n    tag_302:\n        /* \"#utility.yul\":12937:12940   */\n      0x00\n        /* \"#utility.yul\":12958:12963   */\n      dup2\n        /* \"#utility.yul\":12951:12963   */\n      swap1\n      pop\n        /* \"#utility.yul\":12909:12969   */\n      swap2\n      swap1\n      pop\n      jump\t// out\n        /* \"#utility.yul\":12975:13117   */\n    tag_303:\n        /* \"#utility.yul\":13025:13034   */\n      0x00\n        /* \"#utility.yul\":13058:13111   */\n      tag_480\n        /* \"#utility.yul\":13076:13110   */\n      tag_481\n        /* \"#utility.yul\":13085:13109   */\n      tag_482\n        /* \"#utility.yul\":13103:13108   */\n      dup5\n        /* \"#utility.yul\":13085:13109   */\n      tag_275\n      jump\t// in\n    tag_482:\n        /* \"#utility.yul\":13076:13110   */\n      tag_302\n      jump\t// in\n    tag_481:\n        /* \"#utility.yul\":13058:13111   */\n      tag_275\n      jump\t// in\n    tag_480:\n        /* \"#utility.yul\":13045:13111   */\n      swap1\n      pop\n        /* \"#utility.yul\":12975:13117   */\n      swap2\n      swap1\n      pop\n      jump\t// out\n        /* \"#utility.yul\":13123:13249   */\n    tag_304:\n        /* \"#utility.yul\":13173:13182   */\n      0x00\n        /* \"#utility.yul\":13206:13243   */\n      tag_484\n        /* \"#utility.yul\":13237:13242   */\n      dup3\n        /* \"#utility.yul\":13206:13243   */\n      tag_303\n      jump\t// in\n    tag_484:\n        /* \"#utility.yul\":13193:13243   */\n      swap1\n      pop\n        /* \"#utility.yul\":13123:13249   */\n      swap2\n      swap1\n      pop\n      jump\t// out\n        /* \"#utility.yul\":13255:13402   */\n    tag_305:\n        /* \"#utility.yul\":13326:13335   */\n      0x00\n        /* \"#utility.yul\":13359:13396   */\n      tag_486\n        /* \"#utility.yul\":13390:13395   */\n      dup3\n        /* \"#utility.yul\":13359:13396   */\n      tag_304\n      jump\t// in\n    tag_486:\n        /* \"#utility.yul\":13346:13396   */\n      swap1\n      pop\n        /* \"#utility.yul\":13255:13402   */\n      swap2\n      swap1\n      pop\n      jump\t// out\n        /* \"#utility.yul\":13408:13581   */\n    tag_306:\n        /* \"#utility.yul\":13516:13574   */\n      tag_488\n        /* \"#utility.yul\":13568:13573   */\n      dup2\n        /* \"#utility.yul\":13516:13574   */\n      tag_305\n      jump\t// in\n    tag_488:\n        /* \"#utility.yul\":13511:13514   */\n      dup3\n        /* \"#utility.yul\":13504:13575   */\n      mstore\n        /* \"#utility.yul\":13408:13581   */\n      pop\n      pop\n      jump\t// out\n        /* \"#utility.yul\":13587:13851   */\n    tag_106:\n        /* \"#utility.yul\":13701:13705   */\n      0x00\n        /* \"#utility.yul\":13739:13741   */\n      0x20\n        /* \"#utility.yul\":13728:13737   */\n      dup3\n        /* \"#utility.yul\":13724:13742   */\n      add\n        /* \"#utility.yul\":13716:13742   */\n      swap1\n      pop\n        /* \"#utility.yul\":13752:13844   */\n      tag_490\n        /* \"#utility.yul\":13841:13842   */\n      0x00\n        /* \"#utility.yul\":13830:13839   */\n      dup4\n        /* \"#utility.yul\":13826:13843   */\n      add\n        /* \"#utility.yul\":13817:13823   */\n      dup5\n        /* \"#utility.yul\":13752:13844   */\n      tag_306\n      jump\t// in\n    tag_490:\n        /* \"#utility.yul\":13587:13851   */\n      swap3\n      swap2\n      pop\n      pop\n      jump\t// out\n        /* \"#utility.yul\":13857:14091   */\n    tag_307:\n        /* \"#utility.yul\":13997:14031   */\n      0x416363657373436f6e74726f6c3a2063616e206f6e6c792072656e6f756e6365\n        /* \"#utility.yul\":13993:13994   */\n      0x00\n        /* \"#utility.yul\":13985:13991   */\n      dup3\n        /* \"#utility.yul\":13981:13995   */\n      add\n        /* \"#utility.yul\":13974:14032   */\n      mstore\n        /* \"#utility.yul\":14066:14083   */\n      0x20726f6c657320666f722073656c660000000000000000000000000000000000\n        /* \"#utility.yul\":14061:14063   */\n      0x20\n        /* \"#utility.yul\":14053:14059   */\n      dup3\n        /* \"#utility.yul\":14049:14064   */\n      add\n        /* \"#utility.yul\":14042:14084   */\n      mstore\n        /* \"#utility.yul\":13857:14091   */\n      pop\n      jump\t// out\n        /* \"#utility.yul\":14097:14463   */\n    tag_308:\n        /* \"#utility.yul\":14239:14242   */\n      0x00\n        /* \"#utility.yul\":14260:14327   */\n      tag_493\n        /* \"#utility.yul\":14324:14326   */\n      0x2f\n        /* \"#utility.yul\":14319:14322   */\n      dup4\n        /* \"#utility.yul\":14260:14327   */\n      tag_291\n      jump\t// in\n    tag_493:\n        /* \"#utility.yul\":14253:14327   */\n      swap2\n      pop\n        /* \"#utility.yul\":14336:14429   */\n      tag_494\n        /* \"#utility.yul\":14425:14428   */\n      dup3\n        /* \"#utility.yul\":14336:14429   */\n      tag_307\n      jump\t// in\n    tag_494:\n        /* \"#utility.yul\":14454:14456   */\n      0x40\n        /* \"#utility.yul\":14449:14452   */\n      dup3\n        /* \"#utility.yul\":14445:14457   */\n      add\n        /* \"#utility.yul\":14438:14457   */\n      swap1\n      pop\n        /* \"#utility.yul\":14097:14463   */\n      swap2\n      swap1\n      pop\n      jump\t// out\n        /* \"#utility.yul\":14469:14888   */\n    tag_124:\n        /* \"#utility.yul\":14635:14639   */\n      0x00\n        /* \"#utility.yul\":14673:14675   */\n      0x20\n        /* \"#utility.yul\":14662:14671   */\n      dup3\n        /* \"#utility.yul\":14658:14676   */\n      add\n        /* \"#utility.yul\":14650:14676   */\n      swap1\n      pop\n        /* \"#utility.yul\":14722:14731   */\n      dup2\n        /* \"#utility.yul\":14716:14720   */\n      dup2\n        /* \"#utility.yul\":14712:14732   */\n      sub\n        /* \"#utility.yul\":14708:14709   */\n      0x00\n        /* \"#utility.yul\":14697:14706   */\n      dup4\n        /* \"#utility.yul\":14693:14710   */\n      add\n        /* \"#utility.yul\":14686:14733   */\n      mstore\n        /* \"#utility.yul\":14750:14881   */\n      tag_496\n        /* \"#utility.yul\":14876:14880   */\n      dup2\n        /* \"#utility.yul\":14750:14881   */\n      tag_308\n      jump\t// in\n    tag_496:\n        /* \"#utility.yul\":14742:14881   */\n      swap1\n      pop\n        /* \"#utility.yul\":14469:14888   */\n      swap2\n      swap1\n      pop\n      jump\t// out\n        /* \"#utility.yul\":14894:15063   */\n    tag_309:\n        /* \"#utility.yul\":15034:15055   */\n      0x47616d6520646f6573206e6f7420657869737400000000000000000000000000\n        /* \"#utility.yul\":15030:15031   */\n      0x00\n        /* \"#utility.yul\":15022:15028   */\n      dup3\n        /* \"#utility.yul\":15018:15032   */\n      add\n        /* \"#utility.yul\":15011:15056   */\n      mstore\n        /* \"#utility.yul\":14894:15063   */\n      pop\n      jump\t// out\n        /* \"#utility.yul\":15069:15435   */\n    tag_310:\n        /* \"#utility.yul\":15211:15214   */\n      0x00\n        /* \"#utility.yul\":15232:15299   */\n      tag_499\n        /* \"#utility.yul\":15296:15298   */\n      0x13\n        /* \"#utility.yul\":15291:15294   */\n      dup4\n        /* \"#utility.yul\":15232:15299   */\n      tag_291\n      jump\t// in\n    tag_499:\n        /* \"#utility.yul\":15225:15299   */\n      swap2\n      pop\n        /* \"#utility.yul\":15308:15401   */\n      tag_500\n        /* \"#utility.yul\":15397:15400   */\n      dup3\n        /* \"#utility.yul\":15308:15401   */\n      tag_309\n      jump\t// in\n    tag_500:\n        /* \"#utility.yul\":15426:15428   */\n      0x20\n        /* \"#utility.yul\":15421:15424   */\n      dup3\n        /* \"#utility.yul\":15417:15429   */\n      add\n        /* \"#utility.yul\":15410:15429   */\n      swap1\n      pop\n        /* \"#utility.yul\":15069:15435   */\n      swap2\n      swap1\n      pop\n      jump\t// out\n        /* \"#utility.yul\":15441:15860   */\n    tag_132:\n        /* \"#utility.yul\":15607:15611   */\n      0x00\n        /* \"#utility.yul\":15645:15647   */\n      0x20\n        /* \"#utility.yul\":15634:15643   */\n      dup3\n        /* \"#utility.yul\":15630:15648   */\n      add\n        /* \"#utility.yul\":15622:15648   */\n      swap1\n      pop\n        /* \"#utility.yul\":15694:15703   */\n      dup2\n        /* \"#utility.yul\":15688:15692   */\n      dup2\n        /* \"#utility.yul\":15684:15704   */\n      sub\n        /* \"#utility.yul\":15680:15681   */\n      0x00\n        /* \"#utility.yul\":15669:15678   */\n      dup4\n        /* \"#utility.yul\":15665:15682   */\n      add\n        /* \"#utility.yul\":15658:15705   */\n      mstore\n        /* \"#utility.yul\":15722:15853   */\n      tag_502\n        /* \"#utility.yul\":15848:15852   */\n      dup2\n        /* \"#utility.yul\":15722:15853   */\n      tag_310\n      jump\t// in\n    tag_502:\n        /* \"#utility.yul\":15714:15853   */\n      swap1\n      pop\n        /* \"#utility.yul\":15441:15860   */\n      swap2\n      swap1\n      pop\n      jump\t// out\n        /* \"#utility.yul\":15866:16046   */\n    tag_311:\n        /* \"#utility.yul\":15914:15991   */\n      0x4e487b7100000000000000000000000000000000000000000000000000000000\n        /* \"#utility.yul\":15911:15912   */\n      0x00\n        /* \"#utility.yul\":15904:15992   */\n      mstore\n        /* \"#utility.yul\":16011:16015   */\n      0x22\n        /* \"#utility.yul\":16008:16009   */\n      0x04\n        /* \"#utility.yul\":16001:16016   */\n      mstore\n        /* \"#utility.yul\":16035:16039   */\n      0x24\n        /* \"#utility.yul\":16032:16033   */\n      0x00\n        /* \"#utility.yul\":16025:16040   */\n      revert\n        /* \"#utility.yul\":16052:16372   */\n    tag_134:\n        /* \"#utility.yul\":16096:16102   */\n      0x00\n        /* \"#utility.yul\":16133:16134   */\n      0x02\n        /* \"#utility.yul\":16127:16131   */\n      dup3\n        /* \"#utility.yul\":16123:16135   */\n      div\n        /* \"#utility.yul\":16113:16135   */\n      swap1\n      pop\n        /* \"#utility.yul\":16180:16181   */\n      0x01\n        /* \"#utility.yul\":16174:16178   */\n      dup3\n        /* \"#utility.yul\":16170:16182   */\n      and\n        /* \"#utility.yul\":16201:16219   */\n      dup1\n        /* \"#utility.yul\":16191:16272   */\n      tag_505\n      jumpi\n        /* \"#utility.yul\":16257:16261   */\n      0x7f\n        /* \"#utility.yul\":16249:16255   */\n      dup3\n        /* \"#utility.yul\":16245:16262   */\n      and\n        /* \"#utility.yul\":16235:16262   */\n      swap2\n      pop\n        /* \"#utility.yul\":16191:16272   */\n    tag_505:\n        /* \"#utility.yul\":16319:16321   */\n      0x20\n        /* \"#utility.yul\":16311:16317   */\n      dup3\n        /* \"#utility.yul\":16308:16322   */\n      lt\n        /* \"#utility.yul\":16288:16306   */\n      dup2\n        /* \"#utility.yul\":16285:16323   */\n      sub\n        /* \"#utility.yul\":16282:16366   */\n      tag_506\n      jumpi\n        /* \"#utility.yul\":16338:16356   */\n      tag_507\n      tag_311\n      jump\t// in\n    tag_507:\n        /* \"#utility.yul\":16282:16366   */\n    tag_506:\n        /* \"#utility.yul\":16103:16372   */\n      pop\n        /* \"#utility.yul\":16052:16372   */\n      swap2\n      swap1\n      pop\n      jump\t// out\n        /* \"#utility.yul\":16378:16519   */\n    tag_312:\n        /* \"#utility.yul\":16427:16431   */\n      0x00\n        /* \"#utility.yul\":16450:16453   */\n      dup2\n        /* \"#utility.yul\":16442:16453   */\n      swap1\n      pop\n        /* \"#utility.yul\":16473:16476   */\n      dup2\n        /* \"#utility.yul\":16470:16471   */\n      0x00\n        /* \"#utility.yul\":16463:16477   */\n      mstore\n        /* \"#utility.yul\":16507:16511   */\n      0x20\n        /* \"#utility.yul\":16504:16505   */\n      0x00\n        /* \"#utility.yul\":16494:16512   */\n      keccak256\n        /* \"#utility.yul\":16486:16512   */\n      swap1\n      pop\n        /* \"#utility.yul\":16378:16519   */\n      swap2\n      swap1\n      pop\n      jump\t// out\n        /* \"#utility.yul\":16525:16618   */\n    tag_313:\n        /* \"#utility.yul\":16562:16568   */\n      0x00\n        /* \"#utility.yul\":16609:16611   */\n      0x20\n        /* \"#utility.yul\":16604:16606   */\n      0x1f\n        /* \"#utility.yul\":16597:16602   */\n      dup4\n        /* \"#utility.yul\":16593:16607   */\n      add\n        /* \"#utility.yul\":16589:16612   */\n      div\n        /* \"#utility.yul\":16579:16612   */\n      swap1\n      pop\n        /* \"#utility.yul\":16525:16618   */\n      swap2\n      swap1\n      pop\n      jump\t// out\n        /* \"#utility.yul\":16624:16731   */\n    tag_314:\n        /* \"#utility.yul\":16668:16676   */\n      0x00\n        /* \"#utility.yul\":16718:16723   */\n      dup3\n        /* \"#utility.yul\":16712:16716   */\n      dup3\n        /* \"#utility.yul\":16708:16724   */\n      shl\n        /* \"#utility.yul\":16687:16724   */\n      swap1\n      pop\n        /* \"#utility.yul\":16624:16731   */\n      swap3\n      swap2\n      pop\n      pop\n      jump\t// out\n        /* \"#utility.yul\":16737:17130   */\n    tag_315:\n        /* \"#utility.yul\":16806:16812   */\n      0x00\n        /* \"#utility.yul\":16856:16857   */\n      0x08\n        /* \"#utility.yul\":16844:16854   */\n      dup4\n        /* \"#utility.yul\":16840:16858   */\n      mul\n        /* \"#utility.yul\":16879:16976   */\n      tag_512\n        /* \"#utility.yul\":16909:16975   */\n      0xffffffffffffffffffffffffffffffffffffffffffffffffffffffffffffffff\n        /* \"#utility.yul\":16898:16907   */\n      dup3\n        /* \"#utility.yul\":16879:16976   */\n      tag_314\n      jump\t// in\n    tag_512:\n        /* \"#utility.yul\":16997:17036   */\n      tag_513\n        /* \"#utility.yul\":17027:17035   */\n      dup7\n        /* \"#utility.yul\":17016:17025   */\n      dup4\n        /* \"#utility.yul\":16997:17036   */\n      tag_314\n      jump\t// in\n    tag_513:\n        /* \"#utility.yul\":16985:17036   */\n      swap6\n      pop\n        /* \"#utility.yul\":17069:17073   */\n      dup1\n        /* \"#utility.yul\":17065:17074   */\n      not\n        /* \"#utility.yul\":17058:17063   */\n      dup5\n        /* \"#utility.yul\":17054:17075   */\n      and\n        /* \"#utility.yul\":17045:17075   */\n      swap4\n      pop\n        /* \"#utility.yul\":17118:17122   */\n      dup1\n        /* \"#utility.yul\":17108:17116   */\n      dup7\n        /* \"#utility.yul\":17104:17123   */\n      and\n        /* \"#utility.yul\":17097:17102   */\n      dup5\n        /* \"#utility.yul\":17094:17124   */\n      or\n        /* \"#utility.yul\":17084:17124   */\n      swap3\n      pop\n        /* \"#utility.yul\":16813:17130   */\n      pop\n      pop\n        /* \"#utility.yul\":16737:17130   */\n      swap4\n      swap3\n      pop\n      pop\n      pop\n      jump\t// out\n        /* \"#utility.yul\":17136:17278   */\n    tag_316:\n        /* \"#utility.yul\":17186:17195   */\n      0x00\n        /* \"#utility.yul\":17219:17272   */\n      tag_515\n        /* \"#utility.yul\":17237:17271   */\n      tag_516\n        /* \"#utility.yul\":17246:17270   */\n      tag_517\n        /* \"#utility.yul\":17264:17269   */\n      dup5\n        /* \"#utility.yul\":17246:17270   */\n      tag_279\n      jump\t// in\n    tag_517:\n        /* \"#utility.yul\":17237:17271   */\n      tag_302\n      jump\t// in\n    tag_516:\n        /* \"#utility.yul\":17219:17272   */\n      tag_279\n      jump\t// in\n    tag_515:\n        /* \"#utility.yul\":17206:17272   */\n      swap1\n      pop\n        /* \"#utility.yul\":17136:17278   */\n      swap2\n      swap1\n      pop\n      jump\t// out\n        /* \"#utility.yul\":17284:17359   */\n    tag_317:\n        /* \"#utility.yul\":17327:17330   */\n      0x00\n        /* \"#utility.yul\":17348:17353   */\n      dup2\n        /* \"#utility.yul\":17341:17353   */\n      swap1\n      pop\n        /* \"#utility.yul\":17284:17359   */\n      swap2\n      swap1\n      pop\n      jump\t// out\n        /* \"#utility.yul\":17365:17634   */\n    tag_318:\n        /* \"#utility.yul\":17475:17514   */\n      tag_520\n        /* \"#utility.yul\":17506:17513   */\n      dup4\n        /* \"#utility.yul\":17475:17514   */\n      tag_316\n      jump\t// in\n    tag_520:\n        /* \"#utility.yul\":17536:17627   */\n      tag_521\n        /* \"#utility.yul\":17585:17626   */\n      tag_522\n        /* \"#utility.yul\":17609:17625   */\n      dup3\n        /* \"#utility.yul\":17585:17626   */\n      tag_317\n      jump\t// in\n    tag_522:\n        /* \"#utility.yul\":17577:17583   */\n      dup5\n        /* \"#utility.yul\":17570:17574   */\n      dup5\n        /* \"#utility.yul\":17564:17575   */\n      sload\n        /* \"#utility.yul\":17536:17627   */\n      tag_315\n      jump\t// in\n    tag_521:\n        /* \"#utility.yul\":17530:17534   */\n      dup3\n        /* \"#utility.yul\":17523:17628   */\n      sstore\n        /* \"#utility.yul\":17441:17634   */\n      pop\n        /* \"#utility.yul\":17365:17634   */\n      pop\n      pop\n      pop\n      jump\t// out\n        /* \"#utility.yul\":17640:17713   */\n    tag_319:\n        /* \"#utility.yul\":17685:17688   */\n      0x00\n        /* \"#utility.yul\":17640:17713   */\n      swap1\n      jump\t// out\n        /* \"#utility.yul\":17719:17908   */\n    tag_320:\n        /* \"#utility.yul\":17796:17828   */\n      tag_525\n      tag_319\n      jump\t// in\n    tag_525:\n        /* \"#utility.yul\":17837:17902   */\n      tag_526\n        /* \"#utility.yul\":17895:17901   */\n      dup2\n        /* \"#utility.yul\":17887:17893   */\n      dup5\n        /* \"#utility.yul\":17881:17885   */\n      dup5\n        /* \"#utility.yul\":17837:17902   */\n      tag_318\n      jump\t// in\n    tag_526:\n        /* \"#utility.yul\":17772:17908   */\n      pop\n        /* \"#utility.yul\":17719:17908   */\n      pop\n      pop\n      jump\t// out\n        /* \"#utility.yul\":17914:18100   */\n    tag_321:\n        /* \"#utility.yul\":17974:18094   */\n    tag_528:\n        /* \"#utility.yul\":17991:17994   */\n      dup2\n        /* \"#utility.yul\":17984:17989   */\n      dup2\n        /* \"#utility.yul\":17981:17995   */\n      lt\n        /* \"#utility.yul\":17974:18094   */\n      iszero\n      tag_530\n      jumpi\n        /* \"#utility.yul\":18045:18084   */\n      tag_531\n        /* \"#utility.yul\":18082:18083   */\n      0x00\n        /* \"#utility.yul\":18075:18080   */\n      dup3\n        /* \"#utility.yul\":18045:18084   */\n      tag_320\n      jump\t// in\n    tag_531:\n        /* \"#utility.yul\":18018:18019   */\n      0x01\n        /* \"#utility.yul\":18011:18016   */\n      dup2\n        /* \"#utility.yul\":18007:18020   */\n      add\n        /* \"#utility.yul\":17998:18020   */\n      swap1\n      pop\n        /* \"#utility.yul\":17974:18094   */\n      jump(tag_528)\n    tag_530:\n        /* \"#utility.yul\":17914:18100   */\n      pop\n      pop\n      jump\t// out\n        /* \"#utility.yul\":18106:18649   */\n    tag_322:\n        /* \"#utility.yul\":18207:18209   */\n      0x1f\n        /* \"#utility.yul\":18202:18205   */\n      dup3\n        /* \"#utility.yul\":18199:18210   */\n      gt\n        /* \"#utility.yul\":18196:18642   */\n      iszero\n      tag_533\n      jumpi\n        /* \"#utility.yul\":18241:18279   */\n      tag_534\n        /* \"#utility.yul\":18273:18278   */\n      dup2\n        /* \"#utility.yul\":18241:18279   */\n      tag_312\n      jump\t// in\n    tag_534:\n        /* \"#utility.yul\":18325:18354   */\n      tag_535\n        /* \"#utility.yul\":18343:18353   */\n      dup5\n        /* \"#utility.yul\":18325:18354   */\n      tag_313\n      jump\t// in\n    tag_535:\n        /* \"#utility.yul\":18315:18323   */\n      dup2\n        /* \"#utility.yul\":18311:18355   */\n      add\n        /* \"#utility.yul\":18508:18510   */\n      0x20\n        /* \"#utility.yul\":18496:18506   */\n      dup6\n        /* \"#utility.yul\":18493:18511   */\n      lt\n        /* \"#utility.yul\":18490:18539   */\n      iszero\n      tag_536\n      jumpi\n        /* \"#utility.yul\":18529:18537   */\n      dup2\n        /* \"#utility.yul\":18514:18537   */\n      swap1\n      pop\n        /* \"#utility.yul\":18490:18539   */\n    tag_536:\n        /* \"#utility.yul\":18552:18632   */\n      tag_537\n        /* \"#utility.yul\":18608:18630   */\n      tag_538\n        /* \"#utility.yul\":18626:18629   */\n      dup6\n        /* \"#utility.yul\":18608:18630   */\n      tag_313\n      jump\t// in\n    tag_538:\n        /* \"#utility.yul\":18598:18606   */\n      dup4\n        /* \"#utility.yul\":18594:18631   */\n      add\n        /* \"#utility.yul\":18581:18592   */\n      dup3\n        /* \"#utility.yul\":18552:18632   */\n      tag_321\n      jump\t// in\n    tag_537:\n        /* \"#utility.yul\":18211:18642   */\n      pop\n      pop\n        /* \"#utility.yul\":18196:18642   */\n    tag_533:\n        /* \"#utility.yul\":18106:18649   */\n      pop\n      pop\n      pop\n      jump\t// out\n        /* \"#utility.yul\":18655:18772   */\n    tag_323:\n        /* \"#utility.yul\":18709:18717   */\n      0x00\n        /* \"#utility.yul\":18759:18764   */\n      dup3\n        /* \"#utility.yul\":18753:18757   */\n      dup3\n        /* \"#utility.yul\":18749:18765   */\n      shr\n        /* \"#utility.yul\":18728:18765   */\n      swap1\n      pop\n        /* \"#utility.yul\":18655:18772   */\n      swap3\n      swap2\n      pop\n      pop\n      jump\t// out\n        /* \"#utility.yul\":18778:18947   */\n    tag_324:\n        /* \"#utility.yul\":18822:18828   */\n      0x00\n        /* \"#utility.yul\":18855:18906   */\n      tag_541\n        /* \"#utility.yul\":18903:18904   */\n      0x00\n        /* \"#utility.yul\":18899:18905   */\n      not\n        /* \"#utility.yul\":18891:18896   */\n      dup5\n        /* \"#utility.yul\":18888:18889   */\n      0x08\n        /* \"#utility.yul\":18884:18897   */\n      mul\n        /* \"#utility.yul\":18855:18906   */\n      tag_323\n      jump\t// in\n    tag_541:\n        /* \"#utility.yul\":18851:18907   */\n      not\n        /* \"#utility.yul\":18936:18940   */\n      dup1\n        /* \"#utility.yul\":18930:18934   */\n      dup4\n        /* \"#utility.yul\":18926:18941   */\n      and\n        /* \"#utility.yul\":18916:18941   */\n      swap2\n      pop\n        /* \"#utility.yul\":18829:18947   */\n      pop\n        /* \"#utility.yul\":18778:18947   */\n      swap3\n      swap2\n      pop\n      pop\n      jump\t// out\n        /* \"#utility.yul\":18952:19247   */\n    tag_325:\n        /* \"#utility.yul\":19028:19032   */\n      0x00\n        /* \"#utility.yul\":19174:19203   */\n      tag_543\n        /* \"#utility.yul\":19199:19202   */\n      dup4\n        /* \"#utility.yul\":19193:19197   */\n      dup4\n        /* \"#utility.yul\":19174:19203   */\n      tag_324\n      jump\t// in\n    tag_543:\n        /* \"#utility.yul\":19166:19203   */\n      swap2\n      pop\n        /* \"#utility.yul\":19236:19239   */\n      dup3\n        /* \"#utility.yul\":19233:19234   */\n      0x02\n        /* \"#utility.yul\":19229:19240   */\n      mul\n        /* \"#utility.yul\":19223:19227   */\n      dup3\n        /* \"#utility.yul\":19220:19241   */\n      or\n        /* \"#utility.yul\":19212:19241   */\n      swap1\n      pop\n        /* \"#utility.yul\":18952:19247   */\n      swap3\n      swap2\n      pop\n      pop\n      jump\t// out\n        /* \"#utility.yul\":19252:20647   */\n    tag_148:\n        /* \"#utility.yul\":19369:19406   */\n      tag_545\n        /* \"#utility.yul\":19402:19405   */\n      dup3\n        /* \"#utility.yul\":19369:19406   */\n      tag_283\n      jump\t// in\n    tag_545:\n        /* \"#utility.yul\":19471:19489   */\n      0xffffffffffffffff\n        /* \"#utility.yul\":19463:19469   */\n      dup2\n        /* \"#utility.yul\":19460:19490   */\n      gt\n        /* \"#utility.yul\":19457:19513   */\n      iszero\n      tag_546\n      jumpi\n        /* \"#utility.yul\":19493:19511   */\n      tag_547\n      tag_235\n      jump\t// in\n    tag_547:\n        /* \"#utility.yul\":19457:19513   */\n    tag_546:\n        /* \"#utility.yul\":19537:19575   */\n      tag_548\n        /* \"#utility.yul\":19569:19573   */\n      dup3\n        /* \"#utility.yul\":19563:19574   */\n      sload\n        /* \"#utility.yul\":19537:19575   */\n      tag_134\n      jump\t// in\n    tag_548:\n        /* \"#utility.yul\":19622:19689   */\n      tag_549\n        /* \"#utility.yul\":19682:19688   */\n      dup3\n        /* \"#utility.yul\":19674:19680   */\n      dup3\n        /* \"#utility.yul\":19668:19672   */\n      dup6\n        /* \"#utility.yul\":19622:19689   */\n      tag_322\n      jump\t// in\n    tag_549:\n        /* \"#utility.yul\":19716:19717   */\n      0x00\n        /* \"#utility.yul\":19740:19744   */\n      0x20\n        /* \"#utility.yul\":19727:19744   */\n      swap1\n      pop\n        /* \"#utility.yul\":19772:19774   */\n      0x1f\n        /* \"#utility.yul\":19764:19770   */\n      dup4\n        /* \"#utility.yul\":19761:19775   */\n      gt\n        /* \"#utility.yul\":19789:19790   */\n      0x01\n        /* \"#utility.yul\":19784:20402   */\n      dup2\n      eq\n      tag_551\n      jumpi\n        /* \"#utility.yul\":20446:20447   */\n      0x00\n        /* \"#utility.yul\":20463:20469   */\n      dup5\n        /* \"#utility.yul\":20460:20537   */\n      iszero\n      tag_552\n      jumpi\n        /* \"#utility.yul\":20512:20521   */\n      dup3\n        /* \"#utility.yul\":20507:20510   */\n      dup8\n        /* \"#utility.yul\":20503:20522   */\n      add\n        /* \"#utility.yul\":20497:20523   */\n      mload\n        /* \"#utility.yul\":20488:20523   */\n      swap1\n      pop\n        /* \"#utility.yul\":20460:20537   */\n    tag_552:\n        /* \"#utility.yul\":20563:20630   */\n      tag_553\n        /* \"#utility.yul\":20623:20629   */\n      dup6\n        /* \"#utility.yul\":20616:20621   */\n      dup3\n        /* \"#utility.yul\":20563:20630   */\n      tag_325\n      jump\t// in\n    tag_553:\n        /* \"#utility.yul\":20557:20561   */\n      dup7\n        /* \"#utility.yul\":20550:20631   */\n      sstore\n        /* \"#utility.yul\":20419:20641   */\n      pop\n        /* \"#utility.yul\":19754:20641   */\n      jump(tag_550)\n        /* \"#utility.yul\":19784:20402   */\n    tag_551:\n        /* \"#utility.yul\":19836:19840   */\n      0x1f\n        /* \"#utility.yul\":19832:19841   */\n      not\n        /* \"#utility.yul\":19824:19830   */\n      dup5\n        /* \"#utility.yul\":19820:19842   */\n      and\n        /* \"#utility.yul\":19870:19907   */\n      tag_554\n        /* \"#utility.yul\":19902:19906   */\n      dup7\n        /* \"#utility.yul\":19870:19907   */\n      tag_312\n      jump\t// in\n    tag_554:\n        /* \"#utility.yul\":19929:19930   */\n      0x00\n        /* \"#utility.yul\":19943:20151   */\n    tag_555:\n        /* \"#utility.yul\":19957:19964   */\n      dup3\n        /* \"#utility.yul\":19954:19955   */\n      dup2\n        /* \"#utility.yul\":19951:19965   */\n      lt\n        /* \"#utility.yul\":19943:20151   */\n      iszero\n      tag_557\n      jumpi\n        /* \"#utility.yul\":20036:20045   */\n      dup5\n        /* \"#utility.yul\":20031:20034   */\n      dup10\n        /* \"#utility.yul\":20027:20046   */\n      add\n        /* \"#utility.yul\":20021:20047   */\n      mload\n        /* \"#utility.yul\":20013:20019   */\n      dup3\n        /* \"#utility.yul\":20006:20048   */\n      sstore\n        /* \"#utility.yul\":20087:20088   */\n      0x01\n        /* \"#utility.yul\":20079:20085   */\n      dup3\n        /* \"#utility.yul\":20075:20089   */\n      add\n        /* \"#utility.yul\":20065:20089   */\n      swap2\n      pop\n        /* \"#utility.yul\":20134:20136   */\n      0x20\n        /* \"#utility.yul\":20123:20132   */\n      dup6\n        /* \"#utility.yul\":20119:20137   */\n      add\n        /* \"#utility.yul\":20106:20137   */\n      swap5\n      pop\n        /* \"#utility.yul\":19980:19984   */\n      0x20\n        /* \"#utility.yul\":19977:19978   */\n      dup2\n        /* \"#utility.yul\":19973:19985   */\n      add\n        /* \"#utility.yul\":19968:19985   */\n      swap1\n      pop\n        /* \"#utility.yul\":19943:20151   */\n      jump(tag_555)\n    tag_557:\n        /* \"#utility.yul\":20179:20185   */\n      dup7\n        /* \"#utility.yul\":20170:20177   */\n      dup4\n        /* \"#utility.yul\":20167:20186   */\n      lt\n        /* \"#utility.yul\":20164:20343   */\n      iszero\n      tag_558\n      jumpi\n        /* \"#utility.yul\":20237:20246   */\n      dup5\n        /* \"#utility.yul\":20232:20235   */\n      dup10\n        /* \"#utility.yul\":20228:20247   */\n      add\n        /* \"#utility.yul\":20222:20248   */\n      mload\n        /* \"#utility.yul\":20280:20328   */\n      tag_559\n        /* \"#utility.yul\":20322:20326   */\n      0x1f\n        /* \"#utility.yul\":20314:20320   */\n      dup10\n        /* \"#utility.yul\":20310:20327   */\n      and\n        /* \"#utility.yul\":20299:20308   */\n      dup3\n        /* \"#utility.yul\":20280:20328   */\n      tag_324\n      jump\t// in\n    tag_559:\n        /* \"#utility.yul\":20272:20278   */\n      dup4\n        /* \"#utility.yul\":20265:20329   */\n      sstore\n        /* \"#utility.yul\":20187:20343   */\n      pop\n        /* \"#utility.yul\":20164:20343   */\n    tag_558:\n        /* \"#utility.yul\":20389:20390   */\n      0x01\n        /* \"#utility.yul\":20385:20386   */\n      0x02\n        /* \"#utility.yul\":20377:20383   */\n      dup9\n        /* \"#utility.yul\":20373:20387   */\n      mul\n        /* \"#utility.yul\":20369:20391   */\n      add\n        /* \"#utility.yul\":20363:20367   */\n      dup9\n        /* \"#utility.yul\":20356:20392   */\n      sstore\n        /* \"#utility.yul\":19791:20402   */\n      pop\n      pop\n      pop\n        /* \"#utility.yul\":19754:20641   */\n    tag_550:\n      pop\n        /* \"#utility.yul\":19344:20647   */\n      pop\n      pop\n      pop\n        /* \"#utility.yul\":19252:20647   */\n      pop\n      pop\n      jump\t// out\n        /* \"#utility.yul\":20653:21186   */\n    tag_150:\n        /* \"#utility.yul\":20822:20826   */\n      0x00\n        /* \"#utility.yul\":20860:20862   */\n      0x60\n        /* \"#utility.yul\":20849:20858   */\n      dup3\n        /* \"#utility.yul\":20845:20863   */\n      add\n        /* \"#utility.yul\":20837:20863   */\n      swap1\n      pop\n        /* \"#utility.yul\":20873:20944   */\n      tag_561\n        /* \"#utility.yul\":20941:20942   */\n      0x00\n        /* \"#utility.yul\":20930:20939   */\n      dup4\n        /* \"#utility.yul\":20926:20943   */\n      add\n        /* \"#utility.yul\":20917:20923   */\n      dup7\n        /* \"#utility.yul\":20873:20944   */\n      tag_290\n      jump\t// in\n    tag_561:\n        /* \"#utility.yul\":20954:21026   */\n      tag_562\n        /* \"#utility.yul\":21022:21024   */\n      0x20\n        /* \"#utility.yul\":21011:21020   */\n      dup4\n        /* \"#utility.yul\":21007:21025   */\n      add\n        /* \"#utility.yul\":20998:21004   */\n      dup6\n        /* \"#utility.yul\":20954:21026   */\n      tag_290\n      jump\t// in\n    tag_562:\n        /* \"#utility.yul\":21073:21082   */\n      dup2\n        /* \"#utility.yul\":21067:21071   */\n      dup2\n        /* \"#utility.yul\":21063:21083   */\n      sub\n        /* \"#utility.yul\":21058:21060   */\n      0x40\n        /* \"#utility.yul\":21047:21056   */\n      dup4\n        /* \"#utility.yul\":21043:21061   */\n      add\n        /* \"#utility.yul\":21036:21084   */\n      mstore\n        /* \"#utility.yul\":21101:21179   */\n      tag_563\n        /* \"#utility.yul\":21174:21178   */\n      dup2\n        /* \"#utility.yul\":21165:21171   */\n      dup5\n        /* \"#utility.yul\":21101:21179   */\n      tag_292\n      jump\t// in\n    tag_563:\n        /* \"#utility.yul\":21093:21179   */\n      swap1\n      pop\n        /* \"#utility.yul\":20653:21186   */\n      swap5\n      swap4\n      pop\n      pop\n      pop\n      pop\n      jump\t// out\n        /* \"#utility.yul\":21192:21363   */\n    tag_326:\n        /* \"#utility.yul\":21332:21355   */\n      0x4d656d62657220646f6573206e6f742065786973740000000000000000000000\n        /* \"#utility.yul\":21328:21329   */\n      0x00\n        /* \"#utility.yul\":21320:21326   */\n      dup3\n        /* \"#utility.yul\":21316:21330   */\n      add\n        /* \"#utility.yul\":21309:21356   */\n      mstore\n        /* \"#utility.yul\":21192:21363   */\n      pop\n      jump\t// out\n        /* \"#utility.yul\":21369:21735   */\n    tag_327:\n        /* \"#utility.yul\":21511:21514   */\n      0x00\n        /* \"#utility.yul\":21532:21599   */\n      tag_566\n        /* \"#utility.yul\":21596:21598   */\n      0x15\n        /* \"#utility.yul\":21591:21594   */\n      dup4\n        /* \"#utility.yul\":21532:21599   */\n      tag_291\n      jump\t// in\n    tag_566:\n        /* \"#utility.yul\":21525:21599   */\n      swap2\n      pop\n        /* \"#utility.yul\":21608:21701   */\n      tag_567\n        /* \"#utility.yul\":21697:21700   */\n      dup3\n        /* \"#utility.yul\":21608:21701   */\n      tag_326\n      jump\t// in\n    tag_567:\n        /* \"#utility.yul\":21726:21728   */\n      0x20\n        /* \"#utility.yul\":21721:21724   */\n      dup3\n        /* \"#utility.yul\":21717:21729   */\n      add\n        /* \"#utility.yul\":21710:21729   */\n      swap1\n      pop\n        /* \"#utility.yul\":21369:21735   */\n      swap2\n      swap1\n      pop\n      jump\t// out\n        /* \"#utility.yul\":21741:22160   */\n    tag_171:\n        /* \"#utility.yul\":21907:21911   */\n      0x00\n        /* \"#utility.yul\":21945:21947   */\n      0x20\n        /* \"#utility.yul\":21934:21943   */\n      dup3\n        /* \"#utility.yul\":21930:21948   */\n      add\n        /* \"#utility.yul\":21922:21948   */\n      swap1\n      pop\n        /* \"#utility.yul\":21994:22003   */\n      dup2\n        /* \"#utility.yul\":21988:21992   */\n      dup2\n        /* \"#utility.yul\":21984:22004   */\n      sub\n        /* \"#utility.yul\":21980:21981   */\n      0x00\n        /* \"#utility.yul\":21969:21978   */\n      dup4\n        /* \"#utility.yul\":21965:21982   */\n      add\n        /* \"#utility.yul\":21958:22005   */\n      mstore\n        /* \"#utility.yul\":22022:22153   */\n      tag_569\n        /* \"#utility.yul\":22148:22152   */\n      dup2\n        /* \"#utility.yul\":22022:22153   */\n      tag_327\n      jump\t// in\n    tag_569:\n        /* \"#utility.yul\":22014:22153   */\n      swap1\n      pop\n        /* \"#utility.yul\":21741:22160   */\n      swap2\n      swap1\n      pop\n      jump\t// out\n        /* \"#utility.yul\":22166:22341   */\n    tag_328:\n        /* \"#utility.yul\":22306:22333   */\n      0x4d656d62657220616c7265616479207265676973746572656400000000000000\n        /* \"#utility.yul\":22302:22303   */\n      0x00\n        /* \"#utility.yul\":22294:22300   */\n      dup3\n        /* \"#utility.yul\":22290:22304   */\n      add\n        /* \"#utility.yul\":22283:22334   */\n      mstore\n        /* \"#utility.yul\":22166:22341   */\n      pop\n      jump\t// out\n        /* \"#utility.yul\":22347:22713   */\n    tag_329:\n        /* \"#utility.yul\":22489:22492   */\n      0x00\n        /* \"#utility.yul\":22510:22577   */\n      tag_572\n        /* \"#utility.yul\":22574:22576   */\n      0x19\n        /* \"#utility.yul\":22569:22572   */\n      dup4\n        /* \"#utility.yul\":22510:22577   */\n      tag_291\n      jump\t// in\n    tag_572:\n        /* \"#utility.yul\":22503:22577   */\n      swap2\n      pop\n        /* \"#utility.yul\":22586:22679   */\n      tag_573\n        /* \"#utility.yul\":22675:22678   */\n      dup3\n        /* \"#utility.yul\":22586:22679   */\n      tag_328\n      jump\t// in\n    tag_573:\n        /* \"#utility.yul\":22704:22706   */\n      0x20\n        /* \"#utility.yul\":22699:22702   */\n      dup3\n        /* \"#utility.yul\":22695:22707   */\n      add\n        /* \"#utility.yul\":22688:22707   */\n      swap1\n      pop\n        /* \"#utility.yul\":22347:22713   */\n      swap2\n      swap1\n      pop\n      jump\t// out\n        /* \"#utility.yul\":22719:23138   */\n    tag_177:\n        /* \"#utility.yul\":22885:22889   */\n      0x00\n        /* \"#utility.yul\":22923:22925   */\n      0x20\n        /* \"#utility.yul\":22912:22921   */\n      dup3\n        /* \"#utility.yul\":22908:22926   */\n      add\n        /* \"#utility.yul\":22900:22926   */\n      swap1\n      pop\n        /* \"#utility.yul\":22972:22981   */\n      dup2\n        /* \"#utility.yul\":22966:22970   */\n      dup2\n        /* \"#utility.yul\":22962:22982   */\n      sub\n        /* \"#utility.yul\":22958:22959   */\n      0x00\n        /* \"#utility.yul\":22947:22956   */\n      dup4\n        /* \"#utility.yul\":22943:22960   */\n      add\n        /* \"#utility.yul\":22936:22983   */\n      mstore\n        /* \"#utility.yul\":23000:23131   */\n      tag_575\n        /* \"#utility.yul\":23126:23130   */\n      dup2\n        /* \"#utility.yul\":23000:23131   */\n      tag_329\n      jump\t// in\n    tag_575:\n        /* \"#utility.yul\":22992:23131   */\n      swap1\n      pop\n        /* \"#utility.yul\":22719:23138   */\n      swap2\n      swap1\n      pop\n      jump\t// out\n        /* \"#utility.yul\":23144:23262   */\n    tag_330:\n        /* \"#utility.yul\":23231:23255   */\n      tag_577\n        /* \"#utility.yul\":23249:23254   */\n      dup2\n        /* \"#utility.yul\":23231:23255   */\n      tag_276\n      jump\t// in\n    tag_577:\n        /* \"#utility.yul\":23226:23229   */\n      dup3\n        /* \"#utility.yul\":23219:23256   */\n      mstore\n        /* \"#utility.yul\":23144:23262   */\n      pop\n      pop\n      jump\t// out\n        /* \"#utility.yul\":23268:23600   */\n    tag_179:\n        /* \"#utility.yul\":23389:23393   */\n      0x00\n        /* \"#utility.yul\":23427:23429   */\n      0x40\n        /* \"#utility.yul\":23416:23425   */\n      dup3\n        /* \"#utility.yul\":23412:23430   */\n      add\n        /* \"#utility.yul\":23404:23430   */\n      swap1\n      pop\n        /* \"#utility.yul\":23440:23511   */\n      tag_579\n        /* \"#utility.yul\":23508:23509   */\n      0x00\n        /* \"#utility.yul\":23497:23506   */\n      dup4\n        /* \"#utility.yul\":23493:23510   */\n      add\n        /* \"#utility.yul\":23484:23490   */\n      dup6\n        /* \"#utility.yul\":23440:23511   */\n      tag_330\n      jump\t// in\n    tag_579:\n        /* \"#utility.yul\":23521:23593   */\n      tag_580\n        /* \"#utility.yul\":23589:23591   */\n      0x20\n        /* \"#utility.yul\":23578:23587   */\n      dup4\n        /* \"#utility.yul\":23574:23592   */\n      add\n        /* \"#utility.yul\":23565:23571   */\n      dup5\n        /* \"#utility.yul\":23521:23593   */\n      tag_290\n      jump\t// in\n    tag_580:\n        /* \"#utility.yul\":23268:23600   */\n      swap4\n      swap3\n      pop\n      pop\n      pop\n      jump\t// out\n        /* \"#utility.yul\":23606:23938   */\n    tag_184:\n        /* \"#utility.yul\":23727:23731   */\n      0x00\n        /* \"#utility.yul\":23765:23767   */\n      0x40\n        /* \"#utility.yul\":23754:23763   */\n      dup3\n        /* \"#utility.yul\":23750:23768   */\n      add\n        /* \"#utility.yul\":23742:23768   */\n      swap1\n      pop\n        /* \"#utility.yul\":23778:23849   */\n      tag_582\n        /* \"#utility.yul\":23846:23847   */\n      0x00\n        /* \"#utility.yul\":23835:23844   */\n      dup4\n        /* \"#utility.yul\":23831:23848   */\n      add\n        /* \"#utility.yul\":23822:23828   */\n      dup6\n        /* \"#utility.yul\":23778:23849   */\n      tag_290\n      jump\t// in\n    tag_582:\n        /* \"#utility.yul\":23859:23931   */\n      tag_583\n        /* \"#utility.yul\":23927:23929   */\n      0x20\n        /* \"#utility.yul\":23916:23925   */\n      dup4\n        /* \"#utility.yul\":23912:23930   */\n      add\n        /* \"#utility.yul\":23903:23909   */\n      dup5\n        /* \"#utility.yul\":23859:23931   */\n      tag_290\n      jump\t// in\n    tag_583:\n        /* \"#utility.yul\":23606:23938   */\n      swap4\n      swap3\n      pop\n      pop\n      pop\n      jump\t// out\n        /* \"#utility.yul\":23944:24092   */\n    tag_331:\n        /* \"#utility.yul\":24046:24057   */\n      0x00\n        /* \"#utility.yul\":24083:24086   */\n      dup2\n        /* \"#utility.yul\":24068:24086   */\n      swap1\n      pop\n        /* \"#utility.yul\":23944:24092   */\n      swap3\n      swap2\n      pop\n      pop\n      jump\t// out\n        /* \"#utility.yul\":24098:24271   */\n    tag_332:\n        /* \"#utility.yul\":24238:24263   */\n      0x416363657373436f6e74726f6c3a206163636f756e7420000000000000000000\n        /* \"#utility.yul\":24234:24235   */\n      0x00\n        /* \"#utility.yul\":24226:24232   */\n      dup3\n        /* \"#utility.yul\":24222:24236   */\n      add\n        /* \"#utility.yul\":24215:24264   */\n      mstore\n        /* \"#utility.yul\":24098:24271   */\n      pop\n      jump\t// out\n        /* \"#utility.yul\":24277:24679   */\n    tag_333:\n        /* \"#utility.yul\":24437:24440   */\n      0x00\n        /* \"#utility.yul\":24458:24543   */\n      tag_587\n        /* \"#utility.yul\":24540:24542   */\n      0x17\n        /* \"#utility.yul\":24535:24538   */\n      dup4\n        /* \"#utility.yul\":24458:24543   */\n      tag_331\n      jump\t// in\n    tag_587:\n        /* \"#utility.yul\":24451:24543   */\n      swap2\n      pop\n        /* \"#utility.yul\":24552:24645   */\n      tag_588\n        /* \"#utility.yul\":24641:24644   */\n      dup3\n        /* \"#utility.yul\":24552:24645   */\n      tag_332\n      jump\t// in\n    tag_588:\n        /* \"#utility.yul\":24670:24672   */\n      0x17\n        /* \"#utility.yul\":24665:24668   */\n      dup3\n        /* \"#utility.yul\":24661:24673   */\n      add\n        /* \"#utility.yul\":24654:24673   */\n      swap1\n      pop\n        /* \"#utility.yul\":24277:24679   */\n      swap2\n      swap1\n      pop\n      jump\t// out\n        /* \"#utility.yul\":24685:25075   */\n    tag_334:\n        /* \"#utility.yul\":24791:24794   */\n      0x00\n        /* \"#utility.yul\":24819:24858   */\n      tag_590\n        /* \"#utility.yul\":24852:24857   */\n      dup3\n        /* \"#utility.yul\":24819:24858   */\n      tag_283\n      jump\t// in\n    tag_590:\n        /* \"#utility.yul\":24874:24963   */\n      tag_591\n        /* \"#utility.yul\":24956:24962   */\n      dup2\n        /* \"#utility.yul\":24951:24954   */\n      dup6\n        /* \"#utility.yul\":24874:24963   */\n      tag_331\n      jump\t// in\n    tag_591:\n        /* \"#utility.yul\":24867:24963   */\n      swap4\n      pop\n        /* \"#utility.yul\":24972:25037   */\n      tag_592\n        /* \"#utility.yul\":25030:25036   */\n      dup2\n        /* \"#utility.yul\":25025:25028   */\n      dup6\n        /* \"#utility.yul\":25018:25022   */\n      0x20\n        /* \"#utility.yul\":25011:25016   */\n      dup7\n        /* \"#utility.yul\":25007:25023   */\n      add\n        /* \"#utility.yul\":24972:25037   */\n      tag_285\n      jump\t// in\n    tag_592:\n        /* \"#utility.yul\":25062:25068   */\n      dup1\n        /* \"#utility.yul\":25057:25060   */\n      dup5\n        /* \"#utility.yul\":25053:25069   */\n      add\n        /* \"#utility.yul\":25046:25069   */\n      swap2\n      pop\n        /* \"#utility.yul\":24795:25075   */\n      pop\n        /* \"#utility.yul\":24685:25075   */\n      swap3\n      swap2\n      pop\n      pop\n      jump\t// out\n        /* \"#utility.yul\":25081:25248   */\n    tag_335:\n        /* \"#utility.yul\":25221:25240   */\n      0x206973206d697373696e6720726f6c6520000000000000000000000000000000\n        /* \"#utility.yul\":25217:25218   */\n      0x00\n        /* \"#utility.yul\":25209:25215   */\n      dup3\n        /* \"#utility.yul\":25205:25219   */\n      add\n        /* \"#utility.yul\":25198:25241   */\n      mstore\n        /* \"#utility.yul\":25081:25248   */\n      pop\n      jump\t// out\n        /* \"#utility.yul\":25254:25656   */\n    tag_336:\n        /* \"#utility.yul\":25414:25417   */\n      0x00\n        /* \"#utility.yul\":25435:25520   */\n      tag_595\n        /* \"#utility.yul\":25517:25519   */\n      0x11\n        /* \"#utility.yul\":25512:25515   */\n      dup4\n        /* \"#utility.yul\":25435:25520   */\n      tag_331\n      jump\t// in\n    tag_595:\n        /* \"#utility.yul\":25428:25520   */\n      swap2\n      pop\n        /* \"#utility.yul\":25529:25622   */\n      tag_596\n        /* \"#utility.yul\":25618:25621   */\n      dup3\n        /* \"#utility.yul\":25529:25622   */\n      tag_335\n      jump\t// in\n    tag_596:\n        /* \"#utility.yul\":25647:25649   */\n      0x11\n        /* \"#utility.yul\":25642:25645   */\n      dup3\n        /* \"#utility.yul\":25638:25650   */\n      add\n        /* \"#utility.yul\":25631:25650   */\n      swap1\n      pop\n        /* \"#utility.yul\":25254:25656   */\n      swap2\n      swap1\n      pop\n      jump\t// out\n        /* \"#utility.yul\":25662:26629   */\n    tag_223:\n        /* \"#utility.yul\":26044:26047   */\n      0x00\n        /* \"#utility.yul\":26066:26214   */\n      tag_598\n        /* \"#utility.yul\":26210:26213   */\n      dup3\n        /* \"#utility.yul\":26066:26214   */\n      tag_333\n      jump\t// in\n    tag_598:\n        /* \"#utility.yul\":26059:26214   */\n      swap2\n      pop\n        /* \"#utility.yul\":26231:26326   */\n      tag_599\n        /* \"#utility.yul\":26322:26325   */\n      dup3\n        /* \"#utility.yul\":26313:26319   */\n      dup6\n        /* \"#utility.yul\":26231:26326   */\n      tag_334\n      jump\t// in\n    tag_599:\n        /* \"#utility.yul\":26224:26326   */\n      swap2\n      pop\n        /* \"#utility.yul\":26343:26491   */\n      tag_600\n        /* \"#utility.yul\":26487:26490   */\n      dup3\n        /* \"#utility.yul\":26343:26491   */\n      tag_336\n      jump\t// in\n    tag_600:\n        /* \"#utility.yul\":26336:26491   */\n      swap2\n      pop\n        /* \"#utility.yul\":26508:26603   */\n      tag_601\n        /* \"#utility.yul\":26599:26602   */\n      dup3\n        /* \"#utility.yul\":26590:26596   */\n      dup5\n        /* \"#utility.yul\":26508:26603   */\n      tag_334\n      jump\t// in\n    tag_601:\n        /* \"#utility.yul\":26501:26603   */\n      swap2\n      pop\n        /* \"#utility.yul\":26620:26623   */\n      dup2\n        /* \"#utility.yul\":26613:26623   */\n      swap1\n      pop\n        /* \"#utility.yul\":25662:26629   */\n      swap4\n      swap3\n      pop\n      pop\n      pop\n      jump\t// out\n        /* \"#utility.yul\":26635:26948   */\n    tag_225:\n        /* \"#utility.yul\":26748:26752   */\n      0x00\n        /* \"#utility.yul\":26786:26788   */\n      0x20\n        /* \"#utility.yul\":26775:26784   */\n      dup3\n        /* \"#utility.yul\":26771:26789   */\n      add\n        /* \"#utility.yul\":26763:26789   */\n      swap1\n      pop\n        /* \"#utility.yul\":26835:26844   */\n      dup2\n        /* \"#utility.yul\":26829:26833   */\n      dup2\n        /* \"#utility.yul\":26825:26845   */\n      sub\n        /* \"#utility.yul\":26821:26822   */\n      0x00\n        /* \"#utility.yul\":26810:26819   */\n      dup4\n        /* \"#utility.yul\":26806:26823   */\n      add\n        /* \"#utility.yul\":26799:26846   */\n      mstore\n        /* \"#utility.yul\":26863:26941   */\n      tag_603\n        /* \"#utility.yul\":26936:26940   */\n      dup2\n        /* \"#utility.yul\":26927:26933   */\n      dup5\n        /* \"#utility.yul\":26863:26941   */\n      tag_292\n      jump\t// in\n    tag_603:\n        /* \"#utility.yul\":26855:26941   */\n      swap1\n      pop\n        /* \"#utility.yul\":26635:26948   */\n      swap3\n      swap2\n      pop\n      pop\n      jump\t// out\n        /* \"#utility.yul\":26954:27134   */\n    tag_337:\n        /* \"#utility.yul\":27002:27079   */\n      0x4e487b7100000000000000000000000000000000000000000000000000000000\n        /* \"#utility.yul\":26999:27000   */\n      0x00\n        /* \"#utility.yul\":26992:27080   */\n      mstore\n        /* \"#utility.yul\":27099:27103   */\n      0x11\n        /* \"#utility.yul\":27096:27097   */\n      0x04\n        /* \"#utility.yul\":27089:27104   */\n      mstore\n        /* \"#utility.yul\":27123:27127   */\n      0x24\n        /* \"#utility.yul\":27120:27121   */\n      0x00\n        /* \"#utility.yul\":27113:27128   */\n      revert\n        /* \"#utility.yul\":27140:27550   */\n    tag_230:\n        /* \"#utility.yul\":27180:27187   */\n      0x00\n        /* \"#utility.yul\":27203:27223   */\n      tag_606\n        /* \"#utility.yul\":27221:27222   */\n      dup3\n        /* \"#utility.yul\":27203:27223   */\n      tag_279\n      jump\t// in\n    tag_606:\n        /* \"#utility.yul\":27198:27223   */\n      swap2\n      pop\n        /* \"#utility.yul\":27237:27257   */\n      tag_607\n        /* \"#utility.yul\":27255:27256   */\n      dup4\n        /* \"#utility.yul\":27237:27257   */\n      tag_279\n      jump\t// in\n    tag_607:\n        /* \"#utility.yul\":27232:27257   */\n      swap3\n      pop\n        /* \"#utility.yul\":27292:27293   */\n      dup3\n        /* \"#utility.yul\":27289:27290   */\n      dup3\n        /* \"#utility.yul\":27285:27294   */\n      mul\n        /* \"#utility.yul\":27314:27344   */\n      tag_608\n        /* \"#utility.yul\":27332:27343   */\n      dup2\n        /* \"#utility.yul\":27314:27344   */\n      tag_279\n      jump\t// in\n    tag_608:\n        /* \"#utility.yul\":27303:27344   */\n      swap2\n      pop\n        /* \"#utility.yul\":27493:27494   */\n      dup3\n        /* \"#utility.yul\":27484:27491   */\n      dup3\n        /* \"#utility.yul\":27480:27495   */\n      div\n        /* \"#utility.yul\":27477:27478   */\n      dup5\n        /* \"#utility.yul\":27474:27496   */\n      eq\n        /* \"#utility.yul\":27454:27455   */\n      dup4\n        /* \"#utility.yul\":27447:27456   */\n      iszero\n        /* \"#utility.yul\":27427:27510   */\n      or\n        /* \"#utility.yul\":27404:27543   */\n      tag_609\n      jumpi\n        /* \"#utility.yul\":27523:27541   */\n      tag_610\n      tag_337\n      jump\t// in\n    tag_610:\n        /* \"#utility.yul\":27404:27543   */\n    tag_609:\n        /* \"#utility.yul\":27188:27550   */\n      pop\n        /* \"#utility.yul\":27140:27550   */\n      swap3\n      swap2\n      pop\n      pop\n      jump\t// out\n        /* \"#utility.yul\":27556:27747   */\n    tag_232:\n        /* \"#utility.yul\":27596:27599   */\n      0x00\n        /* \"#utility.yul\":27615:27635   */\n      tag_612\n        /* \"#utility.yul\":27633:27634   */\n      dup3\n        /* \"#utility.yul\":27615:27635   */\n      tag_279\n      jump\t// in\n    tag_612:\n        /* \"#utility.yul\":27610:27635   */\n      swap2\n      pop\n        /* \"#utility.yul\":27649:27669   */\n      tag_613\n        /* \"#utility.yul\":27667:27668   */\n      dup4\n        /* \"#utility.yul\":27649:27669   */\n      tag_279\n      jump\t// in\n    tag_613:\n        /* \"#utility.yul\":27644:27669   */\n      swap3\n      pop\n        /* \"#utility.yul\":27692:27693   */\n      dup3\n        /* \"#utility.yul\":27689:27690   */\n      dup3\n        /* \"#utility.yul\":27685:27694   */\n      add\n        /* \"#utility.yul\":27678:27694   */\n      swap1\n      pop\n        /* \"#utility.yul\":27713:27716   */\n      dup1\n        /* \"#utility.yul\":27710:27711   */\n      dup3\n        /* \"#utility.yul\":27707:27717   */\n      gt\n        /* \"#utility.yul\":27704:27740   */\n      iszero\n      tag_614\n      jumpi\n        /* \"#utility.yul\":27720:27738   */\n      tag_615\n      tag_337\n      jump\t// in\n    tag_615:\n        /* \"#utility.yul\":27704:27740   */\n    tag_614:\n        /* \"#utility.yul\":27556:27747   */\n      swap3\n      swap2\n      pop\n      pop\n      jump\t// out\n        /* \"#utility.yul\":27753:27933   */\n    tag_239:\n        /* \"#utility.yul\":27801:27878   */\n      0x4e487b7100000000000000000000000000000000000000000000000000000000\n        /* \"#utility.yul\":27798:27799   */\n      0x00\n        /* \"#utility.yul\":27791:27879   */\n      mstore\n        /* \"#utility.yul\":27898:27902   */\n      0x32\n        /* \"#utility.yul\":27895:27896   */\n      0x04\n        /* \"#utility.yul\":27888:27903   */\n      mstore\n        /* \"#utility.yul\":27922:27926   */\n      0x24\n        /* \"#utility.yul\":27919:27920   */\n      0x00\n        /* \"#utility.yul\":27912:27927   */\n      revert\n        /* \"#utility.yul\":27939:28110   */\n    tag_252:\n        /* \"#utility.yul\":27978:27981   */\n      0x00\n        /* \"#utility.yul\":28001:28025   */\n      tag_618\n        /* \"#utility.yul\":28019:28024   */\n      dup3\n        /* \"#utility.yul\":28001:28025   */\n      tag_279\n      jump\t// in\n    tag_618:\n        /* \"#utility.yul\":27992:28025   */\n      swap2\n      pop\n        /* \"#utility.yul\":28047:28051   */\n      0x00\n        /* \"#utility.yul\":28040:28045   */\n      dup3\n        /* \"#utility.yul\":28037:28052   */\n      sub\n        /* \"#utility.yul\":28034:28075   */\n      tag_619\n      jumpi\n        /* \"#utility.yul\":28055:28073   */\n      tag_620\n      tag_337\n      jump\t// in\n    tag_620:\n        /* \"#utility.yul\":28034:28075   */\n    tag_619:\n        /* \"#utility.yul\":28102:28103   */\n      0x01\n        /* \"#utility.yul\":28095:28100   */\n      dup3\n        /* \"#utility.yul\":28091:28104   */\n      sub\n        /* \"#utility.yul\":28084:28104   */\n      swap1\n      pop\n        /* \"#utility.yul\":27939:28110   */\n      swap2\n      swap1\n      pop\n      jump\t// out\n        /* \"#utility.yul\":28116:28298   */\n    tag_338:\n        /* \"#utility.yul\":28256:28290   */\n      0x537472696e67733a20686578206c656e67746820696e73756666696369656e74\n        /* \"#utility.yul\":28252:28253   */\n      0x00\n        /* \"#utility.yul\":28244:28250   */\n      dup3\n        /* \"#utility.yul\":28240:28254   */\n      add\n        /* \"#utility.yul\":28233:28291   */\n      mstore\n        /* \"#utility.yul\":28116:28298   */\n      pop\n      jump\t// out\n        /* \"#utility.yul\":28304:28670   */\n    tag_339:\n        /* \"#utility.yul\":28446:28449   */\n      0x00\n        /* \"#utility.yul\":28467:28534   */\n      tag_623\n        /* \"#utility.yul\":28531:28533   */\n      0x20\n        /* \"#utility.yul\":28526:28529   */\n      dup4\n        /* \"#utility.yul\":28467:28534   */\n      tag_291\n      jump\t// in\n    tag_623:\n        /* \"#utility.yul\":28460:28534   */\n      swap2\n      pop\n        /* \"#utility.yul\":28543:28636   */\n      tag_624\n        /* \"#utility.yul\":28632:28635   */\n      dup3\n        /* \"#utility.yul\":28543:28636   */\n      tag_338\n      jump\t// in\n    tag_624:\n        /* \"#utility.yul\":28661:28663   */\n      0x20\n        /* \"#utility.yul\":28656:28659   */\n      dup3\n        /* \"#utility.yul\":28652:28664   */\n      add\n        /* \"#utility.yul\":28645:28664   */\n      swap1\n      pop\n        /* \"#utility.yul\":28304:28670   */\n      swap2\n      swap1\n      pop\n      jump\t// out\n        /* \"#utility.yul\":28676:29095   */\n    tag_255:\n        /* \"#utility.yul\":28842:28846   */\n      0x00\n        /* \"#utility.yul\":28880:28882   */\n      0x20\n        /* \"#utility.yul\":28869:28878   */\n      dup3\n        /* \"#utility.yul\":28865:28883   */\n      add\n        /* \"#utility.yul\":28857:28883   */\n      swap1\n      pop\n        /* \"#utility.yul\":28929:28938   */\n      dup2\n        /* \"#utility.yul\":28923:28927   */\n      dup2\n        /* \"#utility.yul\":28919:28939   */\n      sub\n        /* \"#utility.yul\":28915:28916   */\n      0x00\n        /* \"#utility.yul\":28904:28913   */\n      dup4\n        /* \"#utility.yul\":28900:28917   */\n      add\n        /* \"#utility.yul\":28893:28940   */\n      mstore\n        /* \"#utility.yul\":28957:29088   */\n      tag_626\n        /* \"#utility.yul\":29083:29087   */\n      dup2\n        /* \"#utility.yul\":28957:29088   */\n      tag_339\n      jump\t// in\n    tag_626:\n        /* \"#utility.yul\":28949:29088   */\n      swap1\n      pop\n        /* \"#utility.yul\":28676:29095   */\n      swap2\n      swap1\n      pop\n      jump\t// out\n\n    auxdata: 0xa264697066735822122064f89d0ae7236f4aa93b6254b9af8efbdcd3ed1eeb26189178d006787798acab64736f6c634300081a0033\n}\n",
				"bytecode": {
					"linkReferences": {},
					"object": "608060405234801561000f575f80fd5b506040516124e43803806124e48339818101604052810190610031919061027b565b8060015f6101000a81548173ffffffffffffffffffffffffffffffffffffffff021916908373ffffffffffffffffffffffffffffffffffffffff1602179055506100835f801b336100b960201b60201c565b6100b37fa49807205ce4d355092ef5a8a18f56e8913cf4a201fbe287825b095693c21775336100b960201b60201c565b506102a6565b6100c982826100cd60201b60201c565b5050565b6100dd82826101b360201b60201c565b6101af5760015f808481526020019081526020015f205f015f8373ffffffffffffffffffffffffffffffffffffffff1673ffffffffffffffffffffffffffffffffffffffff1681526020019081526020015f205f6101000a81548160ff02191690831515021790555061015461021660201b60201c565b73ffffffffffffffffffffffffffffffffffffffff168173ffffffffffffffffffffffffffffffffffffffff16837f2f8788117e7eff1d82e926ec794901d17c78024a50270940304540a733656f0d60405160405180910390a45b5050565b5f805f8481526020019081526020015f205f015f8373ffffffffffffffffffffffffffffffffffffffff1673ffffffffffffffffffffffffffffffffffffffff1681526020019081526020015f205f9054906101000a900460ff16905092915050565b5f33905090565b5f80fd5b5f73ffffffffffffffffffffffffffffffffffffffff82169050919050565b5f61024a82610221565b9050919050565b61025a81610240565b8114610264575f80fd5b50565b5f8151905061027581610251565b92915050565b5f602082840312156102905761028f61021d565b5b5f61029d84828501610267565b91505092915050565b612231806102b35f395ff3fe608060405234801561000f575f80fd5b506004361061012a575f3560e01c80639a19c7b0116100ab578063b35580751161006f578063b355807514610351578063bb10ab0f1461036d578063c634b78e1461039d578063d547741f146103b9578063dd0c8082146103d55761012a565b80639a19c7b0146102af578063a217fddf146102cb578063a639eb4d146102e9578063ae99aa3c14610305578063aea08734146103355761012a565b806375b238fc116100f257806375b238fc146101f65780637d1b4687146102145780638164586e1461024757806389b2c8e71461026357806391d148541461027f5761012a565b806301ffc9a71461012e578063248a9ca31461015e5780632f2ff15d1461018e57806336568abe146101aa57806347e1d550146101c6575b5f80fd5b610148600480360381019061014391906113fc565b6103f3565b6040516101559190611441565b60405180910390f35b6101786004803603810190610173919061148d565b61046c565b60405161018591906114c7565b60405180910390f35b6101a860048036038101906101a3919061153a565b610488565b005b6101c460048036038101906101bf919061153a565b6104a9565b005b6101e060048036038101906101db91906115ab565b61052c565b6040516101ed91906116c4565b60405180910390f35b6101fe610674565b60405161020b91906114c7565b60405180910390f35b61022e600480360381019061022991906115ab565b610698565b60405161023e949392919061173b565b60405180910390f35b610261600480360381019061025c91906118b1565b610756565b005b61027d600480360381019061027891906115ab565b610840565b005b6102996004803603810190610294919061153a565b61093e565b6040516102a69190611441565b60405180910390f35b6102c960048036038101906102c4919061191d565b6109a1565b005b6102d36109db565b6040516102e091906114c7565b60405180910390f35b61030360048036038101906102fe919061191d565b6109e1565b005b61031f600480360381019061031a91906115ab565b610a4f565b60405161032c9190611962565b60405180910390f35b61034f600480360381019061034a919061197b565b610ad8565b005b61036b600480360381019061036691906118b1565b610c4a565b005b610387600480360381019061038291906115ab565b610d4d565b60405161039491906119cb565b60405180910390f35b6103b760048036038101906103b2919061191d565b610d67565b005b6103d360048036038101906103ce919061153a565b610da1565b005b6103dd610dc2565b6040516103ea9190611a3f565b60405180910390f35b5f7f7965db0b000000000000000000000000000000000000000000000000000000007bffffffffffffffffffffffffffffffffffffffffffffffffffffffff1916827bffffffffffffffffffffffffffffffffffffffffffffffffffffffff19161480610465575061046482610de7565b5b9050919050565b5f805f8381526020019081526020015f20600101549050919050565b6104918261046c565b61049a81610e50565b6104a48383610e64565b505050565b6104b1610f3e565b73ffffffffffffffffffffffffffffffffffffffff168173ffffffffffffffffffffffffffffffffffffffff161461051e576040517f08c379a000000000000000000000000000000000000000000000000000000000815260040161051590611ac8565b60405180910390fd5b6105288282610f45565b5050565b610534611305565b60025f8381526020019081526020015f206003015f9054906101000a900460ff16610594576040517f08c379a000000000000000000000000000000000000000000000000000000000815260040161058b90611b30565b60405180910390fd5b60025f8381526020019081526020015f206040518060800160405290815f8201548152602001600182015481526020016002820180546105d390611b7b565b80601f01602080910402602001604051908101604052809291908181526020018280546105ff90611b7b565b801561064a5780601f106106215761010080835404028352916020019161064a565b820191905f5260205f20905b81548152906001019060200180831161062d57829003601f168201915b50505050508152602001600382015f9054906101000a900460ff1615151515815250509050919050565b7fa49807205ce4d355092ef5a8a18f56e8913cf4a201fbe287825b095693c2177581565b6002602052805f5260405f205f91509050805f0154908060010154908060020180546106c390611b7b565b80601f01602080910402602001604051908101604052809291908181526020018280546106ef90611b7b565b801561073a5780601f106107115761010080835404028352916020019161073a565b820191905f5260205f20905b81548152906001019060200180831161071d57829003601f168201915b505050505090806003015f9054906101000a900460ff16905084565b7fa49807205ce4d355092ef5a8a18f56e8913cf4a201fbe287825b095693c2177561078081610e50565b60405180608001604052808581526020018481526020018381526020016001151581525060025f8581526020019081526020015f205f820151815f01556020820151816001015560408201518160020190816107dc9190611d3f565b506060820151816003015f6101000a81548160ff0219169083151502179055509050507fd8e2cd0473b83461e66f336b5655c077dbd1203e041ad68b1d6f2c4c5ec2593d84848460405161083293929190611e0e565b60405180910390a150505050565b7fa49807205ce4d355092ef5a8a18f56e8913cf4a201fbe287825b095693c2177561086a81610e50565b60025f8381526020019081526020015f206003015f9054906101000a900460ff166108ca576040517f08c379a00000000000000000000000000000000000000000000000000000000081526004016108c190611b30565b60405180910390fd5b60025f8381526020019081526020015f205f8082015f9055600182015f9055600282015f6108f8919061132c565b600382015f6101000a81549060ff02191690555050817f5ef6221cc1c069a8c723210c08d526c7ca88540ee8d66470cf01844efaae0b9460405160405180910390a25050565b5f805f8481526020019081526020015f205f015f8373ffffffffffffffffffffffffffffffffffffffff1673ffffffffffffffffffffffffffffffffffffffff1681526020019081526020015f205f9054906101000a900460ff16905092915050565b5f801b6109ad81610e50565b6109d77fa49807205ce4d355092ef5a8a18f56e8913cf4a201fbe287825b095693c2177583610da1565b5050565b5f801b81565b7fa49807205ce4d355092ef5a8a18f56e8913cf4a201fbe287825b095693c21775610a0b81610e50565b8160015f6101000a81548173ffffffffffffffffffffffffffffffffffffffff021916908373ffffffffffffffffffffffffffffffffffffffff1602179055505050565b610a57611369565b5f60035f8481526020019081526020015f205f015411610aac576040517f08c379a0000000000000000000000000000000000000000000000000000000008152600401610aa390611e94565b60405180910390fd5b60035f8381526020019081526020015f206040518060200160405290815f820154815250509050919050565b7fa49807205ce4d355092ef5a8a18f56e8913cf4a201fbe287825b095693c21775610b0281610e50565b5f60035f8681526020019081526020015f205f015414610b57576040517f08c379a0000000000000000000000000000000000000000000000000000000008152600401610b4e90611efc565b60405180910390fd5b60405180602001604052808581525060035f8681526020019081526020015f205f820151815f015590505060015f9054906101000a900473ffffffffffffffffffffffffffffffffffffffff1673ffffffffffffffffffffffffffffffffffffffff166340c10f1984846040518363ffffffff1660e01b8152600401610bde929190611f29565b5f604051808303815f87803b158015610bf5575f80fd5b505af1158015610c07573d5f803e3d5ffd5b505050507f5a92c2530f207992057b9c3e544108ffce3beda4a63719f316967c49bf6159d28483604051610c3c929190611f50565b60405180910390a150505050565b7fa49807205ce4d355092ef5a8a18f56e8913cf4a201fbe287825b095693c21775610c7481610e50565b60025f8481526020019081526020015f206003015f9054906101000a900460ff16610cd4576040517f08c379a0000000000000000000000000000000000000000000000000000000008152600401610ccb90611b30565b60405180910390fd5b5f60025f8581526020019081526020015f20905084815f018190555083816001018190555082816002019081610d0a9190611d3f565b507f279760c089dcaf505489fffb102c4bf947fb1847e8a7febd514bd92ffe977bc2858585604051610d3e93929190611e0e565b60405180910390a15050505050565b6003602052805f5260405f205f91509050805f0154905081565b5f801b610d7381610e50565b610d9d7fa49807205ce4d355092ef5a8a18f56e8913cf4a201fbe287825b095693c2177583610488565b5050565b610daa8261046c565b610db381610e50565b610dbd8383610f45565b505050565b60015f9054906101000a900473ffffffffffffffffffffffffffffffffffffffff1681565b5f7f01ffc9a7000000000000000000000000000000000000000000000000000000007bffffffffffffffffffffffffffffffffffffffffffffffffffffffff1916827bffffffffffffffffffffffffffffffffffffffffffffffffffffffff1916149050919050565b610e6181610e5c610f3e565b61101f565b50565b610e6e828261093e565b610f3a5760015f808481526020019081526020015f205f015f8373ffffffffffffffffffffffffffffffffffffffff1673ffffffffffffffffffffffffffffffffffffffff1681526020019081526020015f205f6101000a81548160ff021916908315150217905550610edf610f3e565b73ffffffffffffffffffffffffffffffffffffffff168173ffffffffffffffffffffffffffffffffffffffff16837f2f8788117e7eff1d82e926ec794901d17c78024a50270940304540a733656f0d60405160405180910390a45b5050565b5f33905090565b610f4f828261093e565b1561101b575f805f8481526020019081526020015f205f015f8373ffffffffffffffffffffffffffffffffffffffff1673ffffffffffffffffffffffffffffffffffffffff1681526020019081526020015f205f6101000a81548160ff021916908315150217905550610fc0610f3e565b73ffffffffffffffffffffffffffffffffffffffff168173ffffffffffffffffffffffffffffffffffffffff16837ff6391f5c32d9c69d2a47ea670b442974b53935d1edc7fd64eb21e047a839171b60405160405180910390a45b5050565b611029828261093e565b61109f57611036816110a3565b611043835f1c60206110d0565b604051602001611054929190612045565b6040516020818303038152906040526040517f08c379a0000000000000000000000000000000000000000000000000000000008152600401611096919061207e565b60405180910390fd5b5050565b60606110c98273ffffffffffffffffffffffffffffffffffffffff16601460ff166110d0565b9050919050565b60605f60028360026110e291906120cb565b6110ec919061210c565b67ffffffffffffffff8111156111055761110461178d565b5b6040519080825280601f01601f1916602001820160405280156111375781602001600182028036833780820191505090505b5090507f3000000000000000000000000000000000000000000000000000000000000000815f8151811061116e5761116d61213f565b5b60200101907effffffffffffffffffffffffffffffffffffffffffffffffffffffffffffff191690815f1a9053507f7800000000000000000000000000000000000000000000000000000000000000816001815181106111d1576111d061213f565b5b60200101907effffffffffffffffffffffffffffffffffffffffffffffffffffffffffffff191690815f1a9053505f600184600261120f91906120cb565b611219919061210c565b90505b60018111156112b8577f3031323334353637383961626364656600000000000000000000000000000000600f86166010811061125b5761125a61213f565b5b1a60f81b8282815181106112725761127161213f565b5b60200101907effffffffffffffffffffffffffffffffffffffffffffffffffffffffffffff191690815f1a905350600485901c9450806112b19061216c565b905061121c565b505f84146112fb576040517f08c379a00000000000000000000000000000000000000000000000000000000081526004016112f2906121dd565b60405180910390fd5b8091505092915050565b60405180608001604052805f81526020015f8152602001606081526020015f151581525090565b50805461133890611b7b565b5f825580601f106113495750611366565b601f0160209004905f5260205f2090810190611365919061137b565b5b50565b60405180602001604052805f81525090565b5b80821115611392575f815f90555060010161137c565b5090565b5f604051905090565b5f80fd5b5f80fd5b5f7fffffffff0000000000000000000000000000000000000000000000000000000082169050919050565b6113db816113a7565b81146113e5575f80fd5b50565b5f813590506113f6816113d2565b92915050565b5f602082840312156114115761141061139f565b5b5f61141e848285016113e8565b91505092915050565b5f8115159050919050565b61143b81611427565b82525050565b5f6020820190506114545f830184611432565b92915050565b5f819050919050565b61146c8161145a565b8114611476575f80fd5b50565b5f8135905061148781611463565b92915050565b5f602082840312156114a2576114a161139f565b5b5f6114af84828501611479565b91505092915050565b6114c18161145a565b82525050565b5f6020820190506114da5f8301846114b8565b92915050565b5f73ffffffffffffffffffffffffffffffffffffffff82169050919050565b5f611509826114e0565b9050919050565b611519816114ff565b8114611523575f80fd5b50565b5f8135905061153481611510565b92915050565b5f80604083850312156115505761154f61139f565b5b5f61155d85828601611479565b925050602061156e85828601611526565b9150509250929050565b5f819050919050565b61158a81611578565b8114611594575f80fd5b50565b5f813590506115a581611581565b92915050565b5f602082840312156115c0576115bf61139f565b5b5f6115cd84828501611597565b91505092915050565b6115df81611578565b82525050565b5f81519050919050565b5f82825260208201905092915050565b8281835e5f83830152505050565b5f601f19601f8301169050919050565b5f611627826115e5565b61163181856115ef565b93506116418185602086016115ff565b61164a8161160d565b840191505092915050565b61165e81611427565b82525050565b5f608083015f8301516116795f8601826115d6565b50602083015161168c60208601826115d6565b50604083015184820360408601526116a4828261161d565b91505060608301516116b96060860182611655565b508091505092915050565b5f6020820190508181035f8301526116dc8184611664565b905092915050565b6116ed81611578565b82525050565b5f82825260208201905092915050565b5f61170d826115e5565b61171781856116f3565b93506117278185602086016115ff565b6117308161160d565b840191505092915050565b5f60808201905061174e5f8301876116e4565b61175b60208301866116e4565b818103604083015261176d8185611703565b905061177c6060830184611432565b95945050505050565b5f80fd5b5f80fd5b7f4e487b71000000000000000000000000000000000000000000000000000000005f52604160045260245ffd5b6117c38261160d565b810181811067ffffffffffffffff821117156117e2576117e161178d565b5b80604052505050565b5f6117f4611396565b905061180082826117ba565b919050565b5f67ffffffffffffffff82111561181f5761181e61178d565b5b6118288261160d565b9050602081019050919050565b828183375f83830152505050565b5f61185561185084611805565b6117eb565b90508281526020810184848401111561187157611870611789565b5b61187c848285611835565b509392505050565b5f82601f83011261189857611897611785565b5b81356118a8848260208601611843565b91505092915050565b5f805f606084860312156118c8576118c761139f565b5b5f6118d586828701611597565b93505060206118e686828701611597565b925050604084013567ffffffffffffffff811115611907576119066113a3565b5b61191386828701611884565b9150509250925092565b5f602082840312156119325761193161139f565b5b5f61193f84828501611526565b91505092915050565b602082015f82015161195c5f8501826115d6565b50505050565b5f6020820190506119755f830184611948565b92915050565b5f805f606084860312156119925761199161139f565b5b5f61199f86828701611597565b93505060206119b086828701611526565b92505060406119c186828701611597565b9150509250925092565b5f6020820190506119de5f8301846116e4565b92915050565b5f819050919050565b5f611a07611a026119fd846114e0565b6119e4565b6114e0565b9050919050565b5f611a18826119ed565b9050919050565b5f611a2982611a0e565b9050919050565b611a3981611a1f565b82525050565b5f602082019050611a525f830184611a30565b92915050565b7f416363657373436f6e74726f6c3a2063616e206f6e6c792072656e6f756e63655f8201527f20726f6c657320666f722073656c660000000000000000000000000000000000602082015250565b5f611ab2602f836116f3565b9150611abd82611a58565b604082019050919050565b5f6020820190508181035f830152611adf81611aa6565b9050919050565b7f47616d6520646f6573206e6f74206578697374000000000000000000000000005f82015250565b5f611b1a6013836116f3565b9150611b2582611ae6565b602082019050919050565b5f6020820190508181035f830152611b4781611b0e565b9050919050565b7f4e487b71000000000000000000000000000000000000000000000000000000005f52602260045260245ffd5b5f6002820490506001821680611b9257607f821691505b602082108103611ba557611ba4611b4e565b5b50919050565b5f819050815f5260205f209050919050565b5f6020601f8301049050919050565b5f82821b905092915050565b5f60088302611c077fffffffffffffffffffffffffffffffffffffffffffffffffffffffffffffffff82611bcc565b611c118683611bcc565b95508019841693508086168417925050509392505050565b5f611c43611c3e611c3984611578565b6119e4565b611578565b9050919050565b5f819050919050565b611c5c83611c29565b611c70611c6882611c4a565b848454611bd8565b825550505050565b5f90565b611c84611c78565b611c8f818484611c53565b505050565b5b81811015611cb257611ca75f82611c7c565b600181019050611c95565b5050565b601f821115611cf757611cc881611bab565b611cd184611bbd565b81016020851015611ce0578190505b611cf4611cec85611bbd565b830182611c94565b50505b505050565b5f82821c905092915050565b5f611d175f1984600802611cfc565b1980831691505092915050565b5f611d2f8383611d08565b9150826002028217905092915050565b611d48826115e5565b67ffffffffffffffff811115611d6157611d6061178d565b5b611d6b8254611b7b565b611d76828285611cb6565b5f60209050601f831160018114611da7575f8415611d95578287015190505b611d9f8582611d24565b865550611e06565b601f198416611db586611bab565b5f5b82811015611ddc57848901518255600182019150602085019450602081019050611db7565b86831015611df95784890151611df5601f891682611d08565b8355505b6001600288020188555050505b505050505050565b5f606082019050611e215f8301866116e4565b611e2e60208301856116e4565b8181036040830152611e408184611703565b9050949350505050565b7f4d656d62657220646f6573206e6f7420657869737400000000000000000000005f82015250565b5f611e7e6015836116f3565b9150611e8982611e4a565b602082019050919050565b5f6020820190508181035f830152611eab81611e72565b9050919050565b7f4d656d62657220616c72656164792072656769737465726564000000000000005f82015250565b5f611ee66019836116f3565b9150611ef182611eb2565b602082019050919050565b5f6020820190508181035f830152611f1381611eda565b9050919050565b611f23816114ff565b82525050565b5f604082019050611f3c5f830185611f1a565b611f4960208301846116e4565b9392505050565b5f604082019050611f635f8301856116e4565b611f7060208301846116e4565b9392505050565b5f81905092915050565b7f416363657373436f6e74726f6c3a206163636f756e74200000000000000000005f82015250565b5f611fb5601783611f77565b9150611fc082611f81565b601782019050919050565b5f611fd5826115e5565b611fdf8185611f77565b9350611fef8185602086016115ff565b80840191505092915050565b7f206973206d697373696e6720726f6c65200000000000000000000000000000005f82015250565b5f61202f601183611f77565b915061203a82611ffb565b601182019050919050565b5f61204f82611fa9565b915061205b8285611fcb565b915061206682612023565b91506120728284611fcb565b91508190509392505050565b5f6020820190508181035f8301526120968184611703565b905092915050565b7f4e487b71000000000000000000000000000000000000000000000000000000005f52601160045260245ffd5b5f6120d582611578565b91506120e083611578565b92508282026120ee81611578565b915082820484148315176121055761210461209e565b5b5092915050565b5f61211682611578565b915061212183611578565b92508282019050808211156121395761213861209e565b5b92915050565b7f4e487b71000000000000000000000000000000000000000000000000000000005f52603260045260245ffd5b5f61217682611578565b91505f82036121885761218761209e565b5b600182039050919050565b7f537472696e67733a20686578206c656e67746820696e73756666696369656e745f82015250565b5f6121c76020836116f3565b91506121d282612193565b602082019050919050565b5f6020820190508181035f8301526121f4816121bb565b905091905056fea264697066735822122064f89d0ae7236f4aa93b6254b9af8efbdcd3ed1eeb26189178d006787798acab64736f6c634300081a0033",
					"opcodes": "PUSH1 0x80 PUSH1 0x40 MSTORE CALLVALUE DUP1 ISZERO PUSH2 0xF JUMPI PUSH0 DUP1 REVERT JUMPDEST POP PUSH1 0x40 MLOAD PUSH2 0x24E4 CODESIZE SUB DUP1 PUSH2 0x24E4 DUP4 CODECOPY DUP2 DUP2 ADD PUSH1 0x40 MSTORE DUP2 ADD SWAP1 PUSH2 0x31 SWAP2 SWAP1 PUSH2 0x27B JUMP JUMPDEST DUP1 PUSH1 0x1 PUSH0 PUSH2 0x100 EXP DUP2 SLOAD DUP2 PUSH20 0xFFFFFFFFFFFFFFFFFFFFFFFFFFFFFFFFFFFFFFFF MUL NOT AND SWAP1 DUP4 PUSH20 0xFFFFFFFFFFFFFFFFFFFFFFFFFFFFFFFFFFFFFFFF AND MUL OR SWAP1 SSTORE POP PUSH2 0x83 PUSH0 DUP1 SHL CALLER PUSH2 0xB9 PUSH1 0x20 SHL PUSH1 0x20 SHR JUMP JUMPDEST PUSH2 0xB3 PUSH32 0xA49807205CE4D355092EF5A8A18F56E8913CF4A201FBE287825B095693C21775 CALLER PUSH2 0xB9 PUSH1 0x20 SHL PUSH1 0x20 SHR JUMP JUMPDEST POP PUSH2 0x2A6 JUMP JUMPDEST PUSH2 0xC9 DUP3 DUP3 PUSH2 0xCD PUSH1 0x20 SHL PUSH1 0x20 SHR JUMP JUMPDEST POP POP JUMP JUMPDEST PUSH2 0xDD DUP3 DUP3 PUSH2 0x1B3 PUSH1 0x20 SHL PUSH1 0x20 SHR JUMP JUMPDEST PUSH2 0x1AF JUMPI PUSH1 0x1 PUSH0 DUP1 DUP5 DUP2 MSTORE PUSH1 0x20 ADD SWAP1 DUP2 MSTORE PUSH1 0x20 ADD PUSH0 KECCAK256 PUSH0 ADD PUSH0 DUP4 PUSH20 0xFFFFFFFFFFFFFFFFFFFFFFFFFFFFFFFFFFFFFFFF AND PUSH20 0xFFFFFFFFFFFFFFFFFFFFFFFFFFFFFFFFFFFFFFFF AND DUP2 MSTORE PUSH1 0x20 ADD SWAP1 DUP2 MSTORE PUSH1 0x20 ADD PUSH0 KECCAK256 PUSH0 PUSH2 0x100 EXP DUP2 SLOAD DUP2 PUSH1 0xFF MUL NOT AND SWAP1 DUP4 ISZERO ISZERO MUL OR SWAP1 SSTORE POP PUSH2 0x154 PUSH2 0x216 PUSH1 0x20 SHL PUSH1 0x20 SHR JUMP JUMPDEST PUSH20 0xFFFFFFFFFFFFFFFFFFFFFFFFFFFFFFFFFFFFFFFF AND DUP2 PUSH20 0xFFFFFFFFFFFFFFFFFFFFFFFFFFFFFFFFFFFFFFFF AND DUP4 PUSH32 0x2F8788117E7EFF1D82E926EC794901D17C78024A50270940304540A733656F0D PUSH1 0x40 MLOAD PUSH1 0x40 MLOAD DUP1 SWAP2 SUB SWAP1 LOG4 JUMPDEST POP POP JUMP JUMPDEST PUSH0 DUP1 PUSH0 DUP5 DUP2 MSTORE PUSH1 0x20 ADD SWAP1 DUP2 MSTORE PUSH1 0x20 ADD PUSH0 KECCAK256 PUSH0 ADD PUSH0 DUP4 PUSH20 0xFFFFFFFFFFFFFFFFFFFFFFFFFFFFFFFFFFFFFFFF AND PUSH20 0xFFFFFFFFFFFFFFFFFFFFFFFFFFFFFFFFFFFFFFFF AND DUP2 MSTORE PUSH1 0x20 ADD SWAP1 DUP2 MSTORE PUSH1 0x20 ADD PUSH0 KECCAK256 PUSH0 SWAP1 SLOAD SWAP1 PUSH2 0x100 EXP SWAP1 DIV PUSH1 0xFF AND SWAP1 POP SWAP3 SWAP2 POP POP JUMP JUMPDEST PUSH0 CALLER SWAP1 POP SWAP1 JUMP JUMPDEST PUSH0 DUP1 REVERT JUMPDEST PUSH0 PUSH20 0xFFFFFFFFFFFFFFFFFFFFFFFFFFFFFFFFFFFFFFFF DUP3 AND SWAP1 POP SWAP2 SWAP1 POP JUMP JUMPDEST PUSH0 PUSH2 0x24A DUP3 PUSH2 0x221 JUMP JUMPDEST SWAP1 POP SWAP2 SWAP1 POP JUMP JUMPDEST PUSH2 0x25A DUP2 PUSH2 0x240 JUMP JUMPDEST DUP2 EQ PUSH2 0x264 JUMPI PUSH0 DUP1 REVERT JUMPDEST POP JUMP JUMPDEST PUSH0 DUP2 MLOAD SWAP1 POP PUSH2 0x275 DUP2 PUSH2 0x251 JUMP JUMPDEST SWAP3 SWAP2 POP POP JUMP JUMPDEST PUSH0 PUSH1 0x20 DUP3 DUP5 SUB SLT ISZERO PUSH2 0x290 JUMPI PUSH2 0x28F PUSH2 0x21D JUMP JUMPDEST JUMPDEST PUSH0 PUSH2 0x29D DUP5 DUP3 DUP6 ADD PUSH2 0x267 JUMP JUMPDEST SWAP2 POP POP SWAP3 SWAP2 POP POP JUMP JUMPDEST PUSH2 0x2231 DUP1 PUSH2 0x2B3 PUSH0 CODECOPY PUSH0 RETURN INVALID PUSH1 0x80 PUSH1 0x40 MSTORE CALLVALUE DUP1 ISZERO PUSH2 0xF JUMPI PUSH0 DUP1 REVERT JUMPDEST POP PUSH1 0x4 CALLDATASIZE LT PUSH2 0x12A JUMPI PUSH0 CALLDATALOAD PUSH1 0xE0 SHR DUP1 PUSH4 0x9A19C7B0 GT PUSH2 0xAB JUMPI DUP1 PUSH4 0xB3558075 GT PUSH2 0x6F JUMPI DUP1 PUSH4 0xB3558075 EQ PUSH2 0x351 JUMPI DUP1 PUSH4 0xBB10AB0F EQ PUSH2 0x36D JUMPI DUP1 PUSH4 0xC634B78E EQ PUSH2 0x39D JUMPI DUP1 PUSH4 0xD547741F EQ PUSH2 0x3B9 JUMPI DUP1 PUSH4 0xDD0C8082 EQ PUSH2 0x3D5 JUMPI PUSH2 0x12A JUMP JUMPDEST DUP1 PUSH4 0x9A19C7B0 EQ PUSH2 0x2AF JUMPI DUP1 PUSH4 0xA217FDDF EQ PUSH2 0x2CB JUMPI DUP1 PUSH4 0xA639EB4D EQ PUSH2 0x2E9 JUMPI DUP1 PUSH4 0xAE99AA3C EQ PUSH2 0x305 JUMPI DUP1 PUSH4 0xAEA08734 EQ PUSH2 0x335 JUMPI PUSH2 0x12A JUMP JUMPDEST DUP1 PUSH4 0x75B238FC GT PUSH2 0xF2 JUMPI DUP1 PUSH4 0x75B238FC EQ PUSH2 0x1F6 JUMPI DUP1 PUSH4 0x7D1B4687 EQ PUSH2 0x214 JUMPI DUP1 PUSH4 0x8164586E EQ PUSH2 0x247 JUMPI DUP1 PUSH4 0x89B2C8E7 EQ PUSH2 0x263 JUMPI DUP1 PUSH4 0x91D14854 EQ PUSH2 0x27F JUMPI PUSH2 0x12A JUMP JUMPDEST DUP1 PUSH4 0x1FFC9A7 EQ PUSH2 0x12E JUMPI DUP1 PUSH4 0x248A9CA3 EQ PUSH2 0x15E JUMPI DUP1 PUSH4 0x2F2FF15D EQ PUSH2 0x18E JUMPI DUP1 PUSH4 0x36568ABE EQ PUSH2 0x1AA JUMPI DUP1 PUSH4 0x47E1D550 EQ PUSH2 0x1C6 JUMPI JUMPDEST PUSH0 DUP1 REVERT JUMPDEST PUSH2 0x148 PUSH1 0x4 DUP1 CALLDATASIZE SUB DUP2 ADD SWAP1 PUSH2 0x143 SWAP2 SWAP1 PUSH2 0x13FC JUMP JUMPDEST PUSH2 0x3F3 JUMP JUMPDEST PUSH1 0x40 MLOAD PUSH2 0x155 SWAP2 SWAP1 PUSH2 0x1441 JUMP JUMPDEST PUSH1 0x40 MLOAD DUP1 SWAP2 SUB SWAP1 RETURN JUMPDEST PUSH2 0x178 PUSH1 0x4 DUP1 CALLDATASIZE SUB DUP2 ADD SWAP1 PUSH2 0x173 SWAP2 SWAP1 PUSH2 0x148D JUMP JUMPDEST PUSH2 0x46C JUMP JUMPDEST PUSH1 0x40 MLOAD PUSH2 0x185 SWAP2 SWAP1 PUSH2 0x14C7 JUMP JUMPDEST PUSH1 0x40 MLOAD DUP1 SWAP2 SUB SWAP1 RETURN JUMPDEST PUSH2 0x1A8 PUSH1 0x4 DUP1 CALLDATASIZE SUB DUP2 ADD SWAP1 PUSH2 0x1A3 SWAP2 SWAP1 PUSH2 0x153A JUMP JUMPDEST PUSH2 0x488 JUMP JUMPDEST STOP JUMPDEST PUSH2 0x1C4 PUSH1 0x4 DUP1 CALLDATASIZE SUB DUP2 ADD SWAP1 PUSH2 0x1BF SWAP2 SWAP1 PUSH2 0x153A JUMP JUMPDEST PUSH2 0x4A9 JUMP JUMPDEST STOP JUMPDEST PUSH2 0x1E0 PUSH1 0x4 DUP1 CALLDATASIZE SUB DUP2 ADD SWAP1 PUSH2 0x1DB SWAP2 SWAP1 PUSH2 0x15AB JUMP JUMPDEST PUSH2 0x52C JUMP JUMPDEST PUSH1 0x40 MLOAD PUSH2 0x1ED SWAP2 SWAP1 PUSH2 0x16C4 JUMP JUMPDEST PUSH1 0x40 MLOAD DUP1 SWAP2 SUB SWAP1 RETURN JUMPDEST PUSH2 0x1FE PUSH2 0x674 JUMP JUMPDEST PUSH1 0x40 MLOAD PUSH2 0x20B SWAP2 SWAP1 PUSH2 0x14C7 JUMP JUMPDEST PUSH1 0x40 MLOAD DUP1 SWAP2 SUB SWAP1 RETURN JUMPDEST PUSH2 0x22E PUSH1 0x4 DUP1 CALLDATASIZE SUB DUP2 ADD SWAP1 PUSH2 0x229 SWAP2 SWAP1 PUSH2 0x15AB JUMP JUMPDEST PUSH2 0x698 JUMP JUMPDEST PUSH1 0x40 MLOAD PUSH2 0x23E SWAP5 SWAP4 SWAP3 SWAP2 SWAP1 PUSH2 0x173B JUMP JUMPDEST PUSH1 0x40 MLOAD DUP1 SWAP2 SUB SWAP1 RETURN JUMPDEST PUSH2 0x261 PUSH1 0x4 DUP1 CALLDATASIZE SUB DUP2 ADD SWAP1 PUSH2 0x25C SWAP2 SWAP1 PUSH2 0x18B1 JUMP JUMPDEST PUSH2 0x756 JUMP JUMPDEST STOP JUMPDEST PUSH2 0x27D PUSH1 0x4 DUP1 CALLDATASIZE SUB DUP2 ADD SWAP1 PUSH2 0x278 SWAP2 SWAP1 PUSH2 0x15AB JUMP JUMPDEST PUSH2 0x840 JUMP JUMPDEST STOP JUMPDEST PUSH2 0x299 PUSH1 0x4 DUP1 CALLDATASIZE SUB DUP2 ADD SWAP1 PUSH2 0x294 SWAP2 SWAP1 PUSH2 0x153A JUMP JUMPDEST PUSH2 0x93E JUMP JUMPDEST PUSH1 0x40 MLOAD PUSH2 0x2A6 SWAP2 SWAP1 PUSH2 0x1441 JUMP JUMPDEST PUSH1 0x40 MLOAD DUP1 SWAP2 SUB SWAP1 RETURN JUMPDEST PUSH2 0x2C9 PUSH1 0x4 DUP1 CALLDATASIZE SUB DUP2 ADD SWAP1 PUSH2 0x2C4 SWAP2 SWAP1 PUSH2 0x191D JUMP JUMPDEST PUSH2 0x9A1 JUMP JUMPDEST STOP JUMPDEST PUSH2 0x2D3 PUSH2 0x9DB JUMP JUMPDEST PUSH1 0x40 MLOAD PUSH2 0x2E0 SWAP2 SWAP1 PUSH2 0x14C7 JUMP JUMPDEST PUSH1 0x40 MLOAD DUP1 SWAP2 SUB SWAP1 RETURN JUMPDEST PUSH2 0x303 PUSH1 0x4 DUP1 CALLDATASIZE SUB DUP2 ADD SWAP1 PUSH2 0x2FE SWAP2 SWAP1 PUSH2 0x191D JUMP JUMPDEST PUSH2 0x9E1 JUMP JUMPDEST STOP JUMPDEST PUSH2 0x31F PUSH1 0x4 DUP1 CALLDATASIZE SUB DUP2 ADD SWAP1 PUSH2 0x31A SWAP2 SWAP1 PUSH2 0x15AB JUMP JUMPDEST PUSH2 0xA4F JUMP JUMPDEST PUSH1 0x40 MLOAD PUSH2 0x32C SWAP2 SWAP1 PUSH2 0x1962 JUMP JUMPDEST PUSH1 0x40 MLOAD DUP1 SWAP2 SUB SWAP1 RETURN JUMPDEST PUSH2 0x34F PUSH1 0x4 DUP1 CALLDATASIZE SUB DUP2 ADD SWAP1 PUSH2 0x34A SWAP2 SWAP1 PUSH2 0x197B JUMP JUMPDEST PUSH2 0xAD8 JUMP JUMPDEST STOP JUMPDEST PUSH2 0x36B PUSH1 0x4 DUP1 CALLDATASIZE SUB DUP2 ADD SWAP1 PUSH2 0x366 SWAP2 SWAP1 PUSH2 0x18B1 JUMP JUMPDEST PUSH2 0xC4A JUMP JUMPDEST STOP JUMPDEST PUSH2 0x387 PUSH1 0x4 DUP1 CALLDATASIZE SUB DUP2 ADD SWAP1 PUSH2 0x382 SWAP2 SWAP1 PUSH2 0x15AB JUMP JUMPDEST PUSH2 0xD4D JUMP JUMPDEST PUSH1 0x40 MLOAD PUSH2 0x394 SWAP2 SWAP1 PUSH2 0x19CB JUMP JUMPDEST PUSH1 0x40 MLOAD DUP1 SWAP2 SUB SWAP1 RETURN JUMPDEST PUSH2 0x3B7 PUSH1 0x4 DUP1 CALLDATASIZE SUB DUP2 ADD SWAP1 PUSH2 0x3B2 SWAP2 SWAP1 PUSH2 0x191D JUMP JUMPDEST PUSH2 0xD67 JUMP JUMPDEST STOP JUMPDEST PUSH2 0x3D3 PUSH1 0x4 DUP1 CALLDATASIZE SUB DUP2 ADD SWAP1 PUSH2 0x3CE SWAP2 SWAP1 PUSH2 0x153A JUMP JUMPDEST PUSH2 0xDA1 JUMP JUMPDEST STOP JUMPDEST PUSH2 0x3DD PUSH2 0xDC2 JUMP JUMPDEST PUSH1 0x40 MLOAD PUSH2 0x3EA SWAP2 SWAP1 PUSH2 0x1A3F JUMP JUMPDEST PUSH1 0x40 MLOAD DUP1 SWAP2 SUB SWAP1 RETURN JUMPDEST PUSH0 PUSH32 0x7965DB0B00000000000000000000000000000000000000000000000000000000 PUSH28 0xFFFFFFFFFFFFFFFFFFFFFFFFFFFFFFFFFFFFFFFFFFFFFFFFFFFFFFFF NOT AND DUP3 PUSH28 0xFFFFFFFFFFFFFFFFFFFFFFFFFFFFFFFFFFFFFFFFFFFFFFFFFFFFFFFF NOT AND EQ DUP1 PUSH2 0x465 JUMPI POP PUSH2 0x464 DUP3 PUSH2 0xDE7 JUMP JUMPDEST JUMPDEST SWAP1 POP SWAP2 SWAP1 POP JUMP JUMPDEST PUSH0 DUP1 PUSH0 DUP4 DUP2 MSTORE PUSH1 0x20 ADD SWAP1 DUP2 MSTORE PUSH1 0x20 ADD PUSH0 KECCAK256 PUSH1 0x1 ADD SLOAD SWAP1 POP SWAP2 SWAP1 POP JUMP JUMPDEST PUSH2 0x491 DUP3 PUSH2 0x46C JUMP JUMPDEST PUSH2 0x49A DUP2 PUSH2 0xE50 JUMP JUMPDEST PUSH2 0x4A4 DUP4 DUP4 PUSH2 0xE64 JUMP JUMPDEST POP POP POP JUMP JUMPDEST PUSH2 0x4B1 PUSH2 0xF3E JUMP JUMPDEST PUSH20 0xFFFFFFFFFFFFFFFFFFFFFFFFFFFFFFFFFFFFFFFF AND DUP2 PUSH20 0xFFFFFFFFFFFFFFFFFFFFFFFFFFFFFFFFFFFFFFFF AND EQ PUSH2 0x51E JUMPI PUSH1 0x40 MLOAD PUSH32 0x8C379A000000000000000000000000000000000000000000000000000000000 DUP2 MSTORE PUSH1 0x4 ADD PUSH2 0x515 SWAP1 PUSH2 0x1AC8 JUMP JUMPDEST PUSH1 0x40 MLOAD DUP1 SWAP2 SUB SWAP1 REVERT JUMPDEST PUSH2 0x528 DUP3 DUP3 PUSH2 0xF45 JUMP JUMPDEST POP POP JUMP JUMPDEST PUSH2 0x534 PUSH2 0x1305 JUMP JUMPDEST PUSH1 0x2 PUSH0 DUP4 DUP2 MSTORE PUSH1 0x20 ADD SWAP1 DUP2 MSTORE PUSH1 0x20 ADD PUSH0 KECCAK256 PUSH1 0x3 ADD PUSH0 SWAP1 SLOAD SWAP1 PUSH2 0x100 EXP SWAP1 DIV PUSH1 0xFF AND PUSH2 0x594 JUMPI PUSH1 0x40 MLOAD PUSH32 0x8C379A000000000000000000000000000000000000000000000000000000000 DUP2 MSTORE PUSH1 0x4 ADD PUSH2 0x58B SWAP1 PUSH2 0x1B30 JUMP JUMPDEST PUSH1 0x40 MLOAD DUP1 SWAP2 SUB SWAP1 REVERT JUMPDEST PUSH1 0x2 PUSH0 DUP4 DUP2 MSTORE PUSH1 0x20 ADD SWAP1 DUP2 MSTORE PUSH1 0x20 ADD PUSH0 KECCAK256 PUSH1 0x40 MLOAD DUP1 PUSH1 0x80 ADD PUSH1 0x40 MSTORE SWAP1 DUP2 PUSH0 DUP3 ADD SLOAD DUP2 MSTORE PUSH1 0x20 ADD PUSH1 0x1 DUP3 ADD SLOAD DUP2 MSTORE PUSH1 0x20 ADD PUSH1 0x2 DUP3 ADD DUP1 SLOAD PUSH2 0x5D3 SWAP1 PUSH2 0x1B7B JUMP JUMPDEST DUP1 PUSH1 0x1F ADD PUSH1 0x20 DUP1 SWAP2 DIV MUL PUSH1 0x20 ADD PUSH1 0x40 MLOAD SWAP1 DUP2 ADD PUSH1 0x40 MSTORE DUP1 SWAP3 SWAP2 SWAP1 DUP2 DUP2 MSTORE PUSH1 0x20 ADD DUP3 DUP1 SLOAD PUSH2 0x5FF SWAP1 PUSH2 0x1B7B JUMP JUMPDEST DUP1 ISZERO PUSH2 0x64A JUMPI DUP1 PUSH1 0x1F LT PUSH2 0x621 JUMPI PUSH2 0x100 DUP1 DUP4 SLOAD DIV MUL DUP4 MSTORE SWAP2 PUSH1 0x20 ADD SWAP2 PUSH2 0x64A JUMP JUMPDEST DUP3 ADD SWAP2 SWAP1 PUSH0 MSTORE PUSH1 0x20 PUSH0 KECCAK256 SWAP1 JUMPDEST DUP2 SLOAD DUP2 MSTORE SWAP1 PUSH1 0x1 ADD SWAP1 PUSH1 0x20 ADD DUP1 DUP4 GT PUSH2 0x62D JUMPI DUP3 SWAP1 SUB PUSH1 0x1F AND DUP3 ADD SWAP2 JUMPDEST POP POP POP POP POP DUP2 MSTORE PUSH1 0x20 ADD PUSH1 0x3 DUP3 ADD PUSH0 SWAP1 SLOAD SWAP1 PUSH2 0x100 EXP SWAP1 DIV PUSH1 0xFF AND ISZERO ISZERO ISZERO ISZERO DUP2 MSTORE POP POP SWAP1 POP SWAP2 SWAP1 POP JUMP JUMPDEST PUSH32 0xA49807205CE4D355092EF5A8A18F56E8913CF4A201FBE287825B095693C21775 DUP2 JUMP JUMPDEST PUSH1 0x2 PUSH1 0x20 MSTORE DUP1 PUSH0 MSTORE PUSH1 0x40 PUSH0 KECCAK256 PUSH0 SWAP2 POP SWAP1 POP DUP1 PUSH0 ADD SLOAD SWAP1 DUP1 PUSH1 0x1 ADD SLOAD SWAP1 DUP1 PUSH1 0x2 ADD DUP1 SLOAD PUSH2 0x6C3 SWAP1 PUSH2 0x1B7B JUMP JUMPDEST DUP1 PUSH1 0x1F ADD PUSH1 0x20 DUP1 SWAP2 DIV MUL PUSH1 0x20 ADD PUSH1 0x40 MLOAD SWAP1 DUP2 ADD PUSH1 0x40 MSTORE DUP1 SWAP3 SWAP2 SWAP1 DUP2 DUP2 MSTORE PUSH1 0x20 ADD DUP3 DUP1 SLOAD PUSH2 0x6EF SWAP1 PUSH2 0x1B7B JUMP JUMPDEST DUP1 ISZERO PUSH2 0x73A JUMPI DUP1 PUSH1 0x1F LT PUSH2 0x711 JUMPI PUSH2 0x100 DUP1 DUP4 SLOAD DIV MUL DUP4 MSTORE SWAP2 PUSH1 0x20 ADD SWAP2 PUSH2 0x73A JUMP JUMPDEST DUP3 ADD SWAP2 SWAP1 PUSH0 MSTORE PUSH1 0x20 PUSH0 KECCAK256 SWAP1 JUMPDEST DUP2 SLOAD DUP2 MSTORE SWAP1 PUSH1 0x1 ADD SWAP1 PUSH1 0x20 ADD DUP1 DUP4 GT PUSH2 0x71D JUMPI DUP3 SWAP1 SUB PUSH1 0x1F AND DUP3 ADD SWAP2 JUMPDEST POP POP POP POP POP SWAP1 DUP1 PUSH1 0x3 ADD PUSH0 SWAP1 SLOAD SWAP1 PUSH2 0x100 EXP SWAP1 DIV PUSH1 0xFF AND SWAP1 POP DUP5 JUMP JUMPDEST PUSH32 0xA49807205CE4D355092EF5A8A18F56E8913CF4A201FBE287825B095693C21775 PUSH2 0x780 DUP2 PUSH2 0xE50 JUMP JUMPDEST PUSH1 0x40 MLOAD DUP1 PUSH1 0x80 ADD PUSH1 0x40 MSTORE DUP1 DUP6 DUP2 MSTORE PUSH1 0x20 ADD DUP5 DUP2 MSTORE PUSH1 0x20 ADD DUP4 DUP2 MSTORE PUSH1 0x20 ADD PUSH1 0x1 ISZERO ISZERO DUP2 MSTORE POP PUSH1 0x2 PUSH0 DUP6 DUP2 MSTORE PUSH1 0x20 ADD SWAP1 DUP2 MSTORE PUSH1 0x20 ADD PUSH0 KECCAK256 PUSH0 DUP3 ADD MLOAD DUP2 PUSH0 ADD SSTORE PUSH1 0x20 DUP3 ADD MLOAD DUP2 PUSH1 0x1 ADD SSTORE PUSH1 0x40 DUP3 ADD MLOAD DUP2 PUSH1 0x2 ADD SWAP1 DUP2 PUSH2 0x7DC SWAP2 SWAP1 PUSH2 0x1D3F JUMP JUMPDEST POP PUSH1 0x60 DUP3 ADD MLOAD DUP2 PUSH1 0x3 ADD PUSH0 PUSH2 0x100 EXP DUP2 SLOAD DUP2 PUSH1 0xFF MUL NOT AND SWAP1 DUP4 ISZERO ISZERO MUL OR SWAP1 SSTORE POP SWAP1 POP POP PUSH32 0xD8E2CD0473B83461E66F336B5655C077DBD1203E041AD68B1D6F2C4C5EC2593D DUP5 DUP5 DUP5 PUSH1 0x40 MLOAD PUSH2 0x832 SWAP4 SWAP3 SWAP2 SWAP1 PUSH2 0x1E0E JUMP JUMPDEST PUSH1 0x40 MLOAD DUP1 SWAP2 SUB SWAP1 LOG1 POP POP POP POP JUMP JUMPDEST PUSH32 0xA49807205CE4D355092EF5A8A18F56E8913CF4A201FBE287825B095693C21775 PUSH2 0x86A DUP2 PUSH2 0xE50 JUMP JUMPDEST PUSH1 0x2 PUSH0 DUP4 DUP2 MSTORE PUSH1 0x20 ADD SWAP1 DUP2 MSTORE PUSH1 0x20 ADD PUSH0 KECCAK256 PUSH1 0x3 ADD PUSH0 SWAP1 SLOAD SWAP1 PUSH2 0x100 EXP SWAP1 DIV PUSH1 0xFF AND PUSH2 0x8CA JUMPI PUSH1 0x40 MLOAD PUSH32 0x8C379A000000000000000000000000000000000000000000000000000000000 DUP2 MSTORE PUSH1 0x4 ADD PUSH2 0x8C1 SWAP1 PUSH2 0x1B30 JUMP JUMPDEST PUSH1 0x40 MLOAD DUP1 SWAP2 SUB SWAP1 REVERT JUMPDEST PUSH1 0x2 PUSH0 DUP4 DUP2 MSTORE PUSH1 0x20 ADD SWAP1 DUP2 MSTORE PUSH1 0x20 ADD PUSH0 KECCAK256 PUSH0 DUP1 DUP3 ADD PUSH0 SWAP1 SSTORE PUSH1 0x1 DUP3 ADD PUSH0 SWAP1 SSTORE PUSH1 0x2 DUP3 ADD PUSH0 PUSH2 0x8F8 SWAP2 SWAP1 PUSH2 0x132C JUMP JUMPDEST PUSH1 0x3 DUP3 ADD PUSH0 PUSH2 0x100 EXP DUP2 SLOAD SWAP1 PUSH1 0xFF MUL NOT AND SWAP1 SSTORE POP POP DUP2 PUSH32 0x5EF6221CC1C069A8C723210C08D526C7CA88540EE8D66470CF01844EFAAE0B94 PUSH1 0x40 MLOAD PUSH1 0x40 MLOAD DUP1 SWAP2 SUB SWAP1 LOG2 POP POP JUMP JUMPDEST PUSH0 DUP1 PUSH0 DUP5 DUP2 MSTORE PUSH1 0x20 ADD SWAP1 DUP2 MSTORE PUSH1 0x20 ADD PUSH0 KECCAK256 PUSH0 ADD PUSH0 DUP4 PUSH20 0xFFFFFFFFFFFFFFFFFFFFFFFFFFFFFFFFFFFFFFFF AND PUSH20 0xFFFFFFFFFFFFFFFFFFFFFFFFFFFFFFFFFFFFFFFF AND DUP2 MSTORE PUSH1 0x20 ADD SWAP1 DUP2 MSTORE PUSH1 0x20 ADD PUSH0 KECCAK256 PUSH0 SWAP1 SLOAD SWAP1 PUSH2 0x100 EXP SWAP1 DIV PUSH1 0xFF AND SWAP1 POP SWAP3 SWAP2 POP POP JUMP JUMPDEST PUSH0 DUP1 SHL PUSH2 0x9AD DUP2 PUSH2 0xE50 JUMP JUMPDEST PUSH2 0x9D7 PUSH32 0xA49807205CE4D355092EF5A8A18F56E8913CF4A201FBE287825B095693C21775 DUP4 PUSH2 0xDA1 JUMP JUMPDEST POP POP JUMP JUMPDEST PUSH0 DUP1 SHL DUP2 JUMP JUMPDEST PUSH32 0xA49807205CE4D355092EF5A8A18F56E8913CF4A201FBE287825B095693C21775 PUSH2 0xA0B DUP2 PUSH2 0xE50 JUMP JUMPDEST DUP2 PUSH1 0x1 PUSH0 PUSH2 0x100 EXP DUP2 SLOAD DUP2 PUSH20 0xFFFFFFFFFFFFFFFFFFFFFFFFFFFFFFFFFFFFFFFF MUL NOT AND SWAP1 DUP4 PUSH20 0xFFFFFFFFFFFFFFFFFFFFFFFFFFFFFFFFFFFFFFFF AND MUL OR SWAP1 SSTORE POP POP POP JUMP JUMPDEST PUSH2 0xA57 PUSH2 0x1369 JUMP JUMPDEST PUSH0 PUSH1 0x3 PUSH0 DUP5 DUP2 MSTORE PUSH1 0x20 ADD SWAP1 DUP2 MSTORE PUSH1 0x20 ADD PUSH0 KECCAK256 PUSH0 ADD SLOAD GT PUSH2 0xAAC JUMPI PUSH1 0x40 MLOAD PUSH32 0x8C379A000000000000000000000000000000000000000000000000000000000 DUP2 MSTORE PUSH1 0x4 ADD PUSH2 0xAA3 SWAP1 PUSH2 0x1E94 JUMP JUMPDEST PUSH1 0x40 MLOAD DUP1 SWAP2 SUB SWAP1 REVERT JUMPDEST PUSH1 0x3 PUSH0 DUP4 DUP2 MSTORE PUSH1 0x20 ADD SWAP1 DUP2 MSTORE PUSH1 0x20 ADD PUSH0 KECCAK256 PUSH1 0x40 MLOAD DUP1 PUSH1 0x20 ADD PUSH1 0x40 MSTORE SWAP1 DUP2 PUSH0 DUP3 ADD SLOAD DUP2 MSTORE POP POP SWAP1 POP SWAP2 SWAP1 POP JUMP JUMPDEST PUSH32 0xA49807205CE4D355092EF5A8A18F56E8913CF4A201FBE287825B095693C21775 PUSH2 0xB02 DUP2 PUSH2 0xE50 JUMP JUMPDEST PUSH0 PUSH1 0x3 PUSH0 DUP7 DUP2 MSTORE PUSH1 0x20 ADD SWAP1 DUP2 MSTORE PUSH1 0x20 ADD PUSH0 KECCAK256 PUSH0 ADD SLOAD EQ PUSH2 0xB57 JUMPI PUSH1 0x40 MLOAD PUSH32 0x8C379A000000000000000000000000000000000000000000000000000000000 DUP2 MSTORE PUSH1 0x4 ADD PUSH2 0xB4E SWAP1 PUSH2 0x1EFC JUMP JUMPDEST PUSH1 0x40 MLOAD DUP1 SWAP2 SUB SWAP1 REVERT JUMPDEST PUSH1 0x40 MLOAD DUP1 PUSH1 0x20 ADD PUSH1 0x40 MSTORE DUP1 DUP6 DUP2 MSTORE POP PUSH1 0x3 PUSH0 DUP7 DUP2 MSTORE PUSH1 0x20 ADD SWAP1 DUP2 MSTORE PUSH1 0x20 ADD PUSH0 KECCAK256 PUSH0 DUP3 ADD MLOAD DUP2 PUSH0 ADD SSTORE SWAP1 POP POP PUSH1 0x1 PUSH0 SWAP1 SLOAD SWAP1 PUSH2 0x100 EXP SWAP1 DIV PUSH20 0xFFFFFFFFFFFFFFFFFFFFFFFFFFFFFFFFFFFFFFFF AND PUSH20 0xFFFFFFFFFFFFFFFFFFFFFFFFFFFFFFFFFFFFFFFF AND PUSH4 0x40C10F19 DUP5 DUP5 PUSH1 0x40 MLOAD DUP4 PUSH4 0xFFFFFFFF AND PUSH1 0xE0 SHL DUP2 MSTORE PUSH1 0x4 ADD PUSH2 0xBDE SWAP3 SWAP2 SWAP1 PUSH2 0x1F29 JUMP JUMPDEST PUSH0 PUSH1 0x40 MLOAD DUP1 DUP4 SUB DUP2 PUSH0 DUP8 DUP1 EXTCODESIZE ISZERO DUP1 ISZERO PUSH2 0xBF5 JUMPI PUSH0 DUP1 REVERT JUMPDEST POP GAS CALL ISZERO DUP1 ISZERO PUSH2 0xC07 JUMPI RETURNDATASIZE PUSH0 DUP1 RETURNDATACOPY RETURNDATASIZE PUSH0 REVERT JUMPDEST POP POP POP POP PUSH32 0x5A92C2530F207992057B9C3E544108FFCE3BEDA4A63719F316967C49BF6159D2 DUP5 DUP4 PUSH1 0x40 MLOAD PUSH2 0xC3C SWAP3 SWAP2 SWAP1 PUSH2 0x1F50 JUMP JUMPDEST PUSH1 0x40 MLOAD DUP1 SWAP2 SUB SWAP1 LOG1 POP POP POP POP JUMP JUMPDEST PUSH32 0xA49807205CE4D355092EF5A8A18F56E8913CF4A201FBE287825B095693C21775 PUSH2 0xC74 DUP2 PUSH2 0xE50 JUMP JUMPDEST PUSH1 0x2 PUSH0 DUP5 DUP2 MSTORE PUSH1 0x20 ADD SWAP1 DUP2 MSTORE PUSH1 0x20 ADD PUSH0 KECCAK256 PUSH1 0x3 ADD PUSH0 SWAP1 SLOAD SWAP1 PUSH2 0x100 EXP SWAP1 DIV PUSH1 0xFF AND PUSH2 0xCD4 JUMPI PUSH1 0x40 MLOAD PUSH32 0x8C379A000000000000000000000000000000000000000000000000000000000 DUP2 MSTORE PUSH1 0x4 ADD PUSH2 0xCCB SWAP1 PUSH2 0x1B30 JUMP JUMPDEST PUSH1 0x40 MLOAD DUP1 SWAP2 SUB SWAP1 REVERT JUMPDEST PUSH0 PUSH1 0x2 PUSH0 DUP6 DUP2 MSTORE PUSH1 0x20 ADD SWAP1 DUP2 MSTORE PUSH1 0x20 ADD PUSH0 KECCAK256 SWAP1 POP DUP5 DUP2 PUSH0 ADD DUP2 SWAP1 SSTORE POP DUP4 DUP2 PUSH1 0x1 ADD DUP2 SWAP1 SSTORE POP DUP3 DUP2 PUSH1 0x2 ADD SWAP1 DUP2 PUSH2 0xD0A SWAP2 SWAP1 PUSH2 0x1D3F JUMP JUMPDEST POP PUSH32 0x279760C089DCAF505489FFFB102C4BF947FB1847E8A7FEBD514BD92FFE977BC2 DUP6 DUP6 DUP6 PUSH1 0x40 MLOAD PUSH2 0xD3E SWAP4 SWAP3 SWAP2 SWAP1 PUSH2 0x1E0E JUMP JUMPDEST PUSH1 0x40 MLOAD DUP1 SWAP2 SUB SWAP1 LOG1 POP POP POP POP POP JUMP JUMPDEST PUSH1 0x3 PUSH1 0x20 MSTORE DUP1 PUSH0 MSTORE PUSH1 0x40 PUSH0 KECCAK256 PUSH0 SWAP2 POP SWAP1 POP DUP1 PUSH0 ADD SLOAD SWAP1 POP DUP2 JUMP JUMPDEST PUSH0 DUP1 SHL PUSH2 0xD73 DUP2 PUSH2 0xE50 JUMP JUMPDEST PUSH2 0xD9D PUSH32 0xA49807205CE4D355092EF5A8A18F56E8913CF4A201FBE287825B095693C21775 DUP4 PUSH2 0x488 JUMP JUMPDEST POP POP JUMP JUMPDEST PUSH2 0xDAA DUP3 PUSH2 0x46C JUMP JUMPDEST PUSH2 0xDB3 DUP2 PUSH2 0xE50 JUMP JUMPDEST PUSH2 0xDBD DUP4 DUP4 PUSH2 0xF45 JUMP JUMPDEST POP POP POP JUMP JUMPDEST PUSH1 0x1 PUSH0 SWAP1 SLOAD SWAP1 PUSH2 0x100 EXP SWAP1 DIV PUSH20 0xFFFFFFFFFFFFFFFFFFFFFFFFFFFFFFFFFFFFFFFF AND DUP2 JUMP JUMPDEST PUSH0 PUSH32 0x1FFC9A700000000000000000000000000000000000000000000000000000000 PUSH28 0xFFFFFFFFFFFFFFFFFFFFFFFFFFFFFFFFFFFFFFFFFFFFFFFFFFFFFFFF NOT AND DUP3 PUSH28 0xFFFFFFFFFFFFFFFFFFFFFFFFFFFFFFFFFFFFFFFFFFFFFFFFFFFFFFFF NOT AND EQ SWAP1 POP SWAP2 SWAP1 POP JUMP JUMPDEST PUSH2 0xE61 DUP2 PUSH2 0xE5C PUSH2 0xF3E JUMP JUMPDEST PUSH2 0x101F JUMP JUMPDEST POP JUMP JUMPDEST PUSH2 0xE6E DUP3 DUP3 PUSH2 0x93E JUMP JUMPDEST PUSH2 0xF3A JUMPI PUSH1 0x1 PUSH0 DUP1 DUP5 DUP2 MSTORE PUSH1 0x20 ADD SWAP1 DUP2 MSTORE PUSH1 0x20 ADD PUSH0 KECCAK256 PUSH0 ADD PUSH0 DUP4 PUSH20 0xFFFFFFFFFFFFFFFFFFFFFFFFFFFFFFFFFFFFFFFF AND PUSH20 0xFFFFFFFFFFFFFFFFFFFFFFFFFFFFFFFFFFFFFFFF AND DUP2 MSTORE PUSH1 0x20 ADD SWAP1 DUP2 MSTORE PUSH1 0x20 ADD PUSH0 KECCAK256 PUSH0 PUSH2 0x100 EXP DUP2 SLOAD DUP2 PUSH1 0xFF MUL NOT AND SWAP1 DUP4 ISZERO ISZERO MUL OR SWAP1 SSTORE POP PUSH2 0xEDF PUSH2 0xF3E JUMP JUMPDEST PUSH20 0xFFFFFFFFFFFFFFFFFFFFFFFFFFFFFFFFFFFFFFFF AND DUP2 PUSH20 0xFFFFFFFFFFFFFFFFFFFFFFFFFFFFFFFFFFFFFFFF AND DUP4 PUSH32 0x2F8788117E7EFF1D82E926EC794901D17C78024A50270940304540A733656F0D PUSH1 0x40 MLOAD PUSH1 0x40 MLOAD DUP1 SWAP2 SUB SWAP1 LOG4 JUMPDEST POP POP JUMP JUMPDEST PUSH0 CALLER SWAP1 POP SWAP1 JUMP JUMPDEST PUSH2 0xF4F DUP3 DUP3 PUSH2 0x93E JUMP JUMPDEST ISZERO PUSH2 0x101B JUMPI PUSH0 DUP1 PUSH0 DUP5 DUP2 MSTORE PUSH1 0x20 ADD SWAP1 DUP2 MSTORE PUSH1 0x20 ADD PUSH0 KECCAK256 PUSH0 ADD PUSH0 DUP4 PUSH20 0xFFFFFFFFFFFFFFFFFFFFFFFFFFFFFFFFFFFFFFFF AND PUSH20 0xFFFFFFFFFFFFFFFFFFFFFFFFFFFFFFFFFFFFFFFF AND DUP2 MSTORE PUSH1 0x20 ADD SWAP1 DUP2 MSTORE PUSH1 0x20 ADD PUSH0 KECCAK256 PUSH0 PUSH2 0x100 EXP DUP2 SLOAD DUP2 PUSH1 0xFF MUL NOT AND SWAP1 DUP4 ISZERO ISZERO MUL OR SWAP1 SSTORE POP PUSH2 0xFC0 PUSH2 0xF3E JUMP JUMPDEST PUSH20 0xFFFFFFFFFFFFFFFFFFFFFFFFFFFFFFFFFFFFFFFF AND DUP2 PUSH20 0xFFFFFFFFFFFFFFFFFFFFFFFFFFFFFFFFFFFFFFFF AND DUP4 PUSH32 0xF6391F5C32D9C69D2A47EA670B442974B53935D1EDC7FD64EB21E047A839171B PUSH1 0x40 MLOAD PUSH1 0x40 MLOAD DUP1 SWAP2 SUB SWAP1 LOG4 JUMPDEST POP POP JUMP JUMPDEST PUSH2 0x1029 DUP3 DUP3 PUSH2 0x93E JUMP JUMPDEST PUSH2 0x109F JUMPI PUSH2 0x1036 DUP2 PUSH2 0x10A3 JUMP JUMPDEST PUSH2 0x1043 DUP4 PUSH0 SHR PUSH1 0x20 PUSH2 0x10D0 JUMP JUMPDEST PUSH1 0x40 MLOAD PUSH1 0x20 ADD PUSH2 0x1054 SWAP3 SWAP2 SWAP1 PUSH2 0x2045 JUMP JUMPDEST PUSH1 0x40 MLOAD PUSH1 0x20 DUP2 DUP4 SUB SUB DUP2 MSTORE SWAP1 PUSH1 0x40 MSTORE PUSH1 0x40 MLOAD PUSH32 0x8C379A000000000000000000000000000000000000000000000000000000000 DUP2 MSTORE PUSH1 0x4 ADD PUSH2 0x1096 SWAP2 SWAP1 PUSH2 0x207E JUMP JUMPDEST PUSH1 0x40 MLOAD DUP1 SWAP2 SUB SWAP1 REVERT JUMPDEST POP POP JUMP JUMPDEST PUSH1 0x60 PUSH2 0x10C9 DUP3 PUSH20 0xFFFFFFFFFFFFFFFFFFFFFFFFFFFFFFFFFFFFFFFF AND PUSH1 0x14 PUSH1 0xFF AND PUSH2 0x10D0 JUMP JUMPDEST SWAP1 POP SWAP2 SWAP1 POP JUMP JUMPDEST PUSH1 0x60 PUSH0 PUSH1 0x2 DUP4 PUSH1 0x2 PUSH2 0x10E2 SWAP2 SWAP1 PUSH2 0x20CB JUMP JUMPDEST PUSH2 0x10EC SWAP2 SWAP1 PUSH2 0x210C JUMP JUMPDEST PUSH8 0xFFFFFFFFFFFFFFFF DUP2 GT ISZERO PUSH2 0x1105 JUMPI PUSH2 0x1104 PUSH2 0x178D JUMP JUMPDEST JUMPDEST PUSH1 0x40 MLOAD SWAP1 DUP1 DUP3 MSTORE DUP1 PUSH1 0x1F ADD PUSH1 0x1F NOT AND PUSH1 0x20 ADD DUP3 ADD PUSH1 0x40 MSTORE DUP1 ISZERO PUSH2 0x1137 JUMPI DUP2 PUSH1 0x20 ADD PUSH1 0x1 DUP3 MUL DUP1 CALLDATASIZE DUP4 CALLDATACOPY DUP1 DUP3 ADD SWAP2 POP POP SWAP1 POP JUMPDEST POP SWAP1 POP PUSH32 0x3000000000000000000000000000000000000000000000000000000000000000 DUP2 PUSH0 DUP2 MLOAD DUP2 LT PUSH2 0x116E JUMPI PUSH2 0x116D PUSH2 0x213F JUMP JUMPDEST JUMPDEST PUSH1 0x20 ADD ADD SWAP1 PUSH31 0xFFFFFFFFFFFFFFFFFFFFFFFFFFFFFFFFFFFFFFFFFFFFFFFFFFFFFFFFFFFFFF NOT AND SWAP1 DUP2 PUSH0 BYTE SWAP1 MSTORE8 POP PUSH32 0x7800000000000000000000000000000000000000000000000000000000000000 DUP2 PUSH1 0x1 DUP2 MLOAD DUP2 LT PUSH2 0x11D1 JUMPI PUSH2 0x11D0 PUSH2 0x213F JUMP JUMPDEST JUMPDEST PUSH1 0x20 ADD ADD SWAP1 PUSH31 0xFFFFFFFFFFFFFFFFFFFFFFFFFFFFFFFFFFFFFFFFFFFFFFFFFFFFFFFFFFFFFF NOT AND SWAP1 DUP2 PUSH0 BYTE SWAP1 MSTORE8 POP PUSH0 PUSH1 0x1 DUP5 PUSH1 0x2 PUSH2 0x120F SWAP2 SWAP1 PUSH2 0x20CB JUMP JUMPDEST PUSH2 0x1219 SWAP2 SWAP1 PUSH2 0x210C JUMP JUMPDEST SWAP1 POP JUMPDEST PUSH1 0x1 DUP2 GT ISZERO PUSH2 0x12B8 JUMPI PUSH32 0x3031323334353637383961626364656600000000000000000000000000000000 PUSH1 0xF DUP7 AND PUSH1 0x10 DUP2 LT PUSH2 0x125B JUMPI PUSH2 0x125A PUSH2 0x213F JUMP JUMPDEST JUMPDEST BYTE PUSH1 0xF8 SHL DUP3 DUP3 DUP2 MLOAD DUP2 LT PUSH2 0x1272 JUMPI PUSH2 0x1271 PUSH2 0x213F JUMP JUMPDEST JUMPDEST PUSH1 0x20 ADD ADD SWAP1 PUSH31 0xFFFFFFFFFFFFFFFFFFFFFFFFFFFFFFFFFFFFFFFFFFFFFFFFFFFFFFFFFFFFFF NOT AND SWAP1 DUP2 PUSH0 BYTE SWAP1 MSTORE8 POP PUSH1 0x4 DUP6 SWAP1 SHR SWAP5 POP DUP1 PUSH2 0x12B1 SWAP1 PUSH2 0x216C JUMP JUMPDEST SWAP1 POP PUSH2 0x121C JUMP JUMPDEST POP PUSH0 DUP5 EQ PUSH2 0x12FB JUMPI PUSH1 0x40 MLOAD PUSH32 0x8C379A000000000000000000000000000000000000000000000000000000000 DUP2 MSTORE PUSH1 0x4 ADD PUSH2 0x12F2 SWAP1 PUSH2 0x21DD JUMP JUMPDEST PUSH1 0x40 MLOAD DUP1 SWAP2 SUB SWAP1 REVERT JUMPDEST DUP1 SWAP2 POP POP SWAP3 SWAP2 POP POP JUMP JUMPDEST PUSH1 0x40 MLOAD DUP1 PUSH1 0x80 ADD PUSH1 0x40 MSTORE DUP1 PUSH0 DUP2 MSTORE PUSH1 0x20 ADD PUSH0 DUP2 MSTORE PUSH1 0x20 ADD PUSH1 0x60 DUP2 MSTORE PUSH1 0x20 ADD PUSH0 ISZERO ISZERO DUP2 MSTORE POP SWAP1 JUMP JUMPDEST POP DUP1 SLOAD PUSH2 0x1338 SWAP1 PUSH2 0x1B7B JUMP JUMPDEST PUSH0 DUP3 SSTORE DUP1 PUSH1 0x1F LT PUSH2 0x1349 JUMPI POP PUSH2 0x1366 JUMP JUMPDEST PUSH1 0x1F ADD PUSH1 0x20 SWAP1 DIV SWAP1 PUSH0 MSTORE PUSH1 0x20 PUSH0 KECCAK256 SWAP1 DUP2 ADD SWAP1 PUSH2 0x1365 SWAP2 SWAP1 PUSH2 0x137B JUMP JUMPDEST JUMPDEST POP JUMP JUMPDEST PUSH1 0x40 MLOAD DUP1 PUSH1 0x20 ADD PUSH1 0x40 MSTORE DUP1 PUSH0 DUP2 MSTORE POP SWAP1 JUMP JUMPDEST JUMPDEST DUP1 DUP3 GT ISZERO PUSH2 0x1392 JUMPI PUSH0 DUP2 PUSH0 SWAP1 SSTORE POP PUSH1 0x1 ADD PUSH2 0x137C JUMP JUMPDEST POP SWAP1 JUMP JUMPDEST PUSH0 PUSH1 0x40 MLOAD SWAP1 POP SWAP1 JUMP JUMPDEST PUSH0 DUP1 REVERT JUMPDEST PUSH0 DUP1 REVERT JUMPDEST PUSH0 PUSH32 0xFFFFFFFF00000000000000000000000000000000000000000000000000000000 DUP3 AND SWAP1 POP SWAP2 SWAP1 POP JUMP JUMPDEST PUSH2 0x13DB DUP2 PUSH2 0x13A7 JUMP JUMPDEST DUP2 EQ PUSH2 0x13E5 JUMPI PUSH0 DUP1 REVERT JUMPDEST POP JUMP JUMPDEST PUSH0 DUP2 CALLDATALOAD SWAP1 POP PUSH2 0x13F6 DUP2 PUSH2 0x13D2 JUMP JUMPDEST SWAP3 SWAP2 POP POP JUMP JUMPDEST PUSH0 PUSH1 0x20 DUP3 DUP5 SUB SLT ISZERO PUSH2 0x1411 JUMPI PUSH2 0x1410 PUSH2 0x139F JUMP JUMPDEST JUMPDEST PUSH0 PUSH2 0x141E DUP5 DUP3 DUP6 ADD PUSH2 0x13E8 JUMP JUMPDEST SWAP2 POP POP SWAP3 SWAP2 POP POP JUMP JUMPDEST PUSH0 DUP2 ISZERO ISZERO SWAP1 POP SWAP2 SWAP1 POP JUMP JUMPDEST PUSH2 0x143B DUP2 PUSH2 0x1427 JUMP JUMPDEST DUP3 MSTORE POP POP JUMP JUMPDEST PUSH0 PUSH1 0x20 DUP3 ADD SWAP1 POP PUSH2 0x1454 PUSH0 DUP4 ADD DUP5 PUSH2 0x1432 JUMP JUMPDEST SWAP3 SWAP2 POP POP JUMP JUMPDEST PUSH0 DUP2 SWAP1 POP SWAP2 SWAP1 POP JUMP JUMPDEST PUSH2 0x146C DUP2 PUSH2 0x145A JUMP JUMPDEST DUP2 EQ PUSH2 0x1476 JUMPI PUSH0 DUP1 REVERT JUMPDEST POP JUMP JUMPDEST PUSH0 DUP2 CALLDATALOAD SWAP1 POP PUSH2 0x1487 DUP2 PUSH2 0x1463 JUMP JUMPDEST SWAP3 SWAP2 POP POP JUMP JUMPDEST PUSH0 PUSH1 0x20 DUP3 DUP5 SUB SLT ISZERO PUSH2 0x14A2 JUMPI PUSH2 0x14A1 PUSH2 0x139F JUMP JUMPDEST JUMPDEST PUSH0 PUSH2 0x14AF DUP5 DUP3 DUP6 ADD PUSH2 0x1479 JUMP JUMPDEST SWAP2 POP POP SWAP3 SWAP2 POP POP JUMP JUMPDEST PUSH2 0x14C1 DUP2 PUSH2 0x145A JUMP JUMPDEST DUP3 MSTORE POP POP JUMP JUMPDEST PUSH0 PUSH1 0x20 DUP3 ADD SWAP1 POP PUSH2 0x14DA PUSH0 DUP4 ADD DUP5 PUSH2 0x14B8 JUMP JUMPDEST SWAP3 SWAP2 POP POP JUMP JUMPDEST PUSH0 PUSH20 0xFFFFFFFFFFFFFFFFFFFFFFFFFFFFFFFFFFFFFFFF DUP3 AND SWAP1 POP SWAP2 SWAP1 POP JUMP JUMPDEST PUSH0 PUSH2 0x1509 DUP3 PUSH2 0x14E0 JUMP JUMPDEST SWAP1 POP SWAP2 SWAP1 POP JUMP JUMPDEST PUSH2 0x1519 DUP2 PUSH2 0x14FF JUMP JUMPDEST DUP2 EQ PUSH2 0x1523 JUMPI PUSH0 DUP1 REVERT JUMPDEST POP JUMP JUMPDEST PUSH0 DUP2 CALLDATALOAD SWAP1 POP PUSH2 0x1534 DUP2 PUSH2 0x1510 JUMP JUMPDEST SWAP3 SWAP2 POP POP JUMP JUMPDEST PUSH0 DUP1 PUSH1 0x40 DUP4 DUP6 SUB SLT ISZERO PUSH2 0x1550 JUMPI PUSH2 0x154F PUSH2 0x139F JUMP JUMPDEST JUMPDEST PUSH0 PUSH2 0x155D DUP6 DUP3 DUP7 ADD PUSH2 0x1479 JUMP JUMPDEST SWAP3 POP POP PUSH1 0x20 PUSH2 0x156E DUP6 DUP3 DUP7 ADD PUSH2 0x1526 JUMP JUMPDEST SWAP2 POP POP SWAP3 POP SWAP3 SWAP1 POP JUMP JUMPDEST PUSH0 DUP2 SWAP1 POP SWAP2 SWAP1 POP JUMP JUMPDEST PUSH2 0x158A DUP2 PUSH2 0x1578 JUMP JUMPDEST DUP2 EQ PUSH2 0x1594 JUMPI PUSH0 DUP1 REVERT JUMPDEST POP JUMP JUMPDEST PUSH0 DUP2 CALLDATALOAD SWAP1 POP PUSH2 0x15A5 DUP2 PUSH2 0x1581 JUMP JUMPDEST SWAP3 SWAP2 POP POP JUMP JUMPDEST PUSH0 PUSH1 0x20 DUP3 DUP5 SUB SLT ISZERO PUSH2 0x15C0 JUMPI PUSH2 0x15BF PUSH2 0x139F JUMP JUMPDEST JUMPDEST PUSH0 PUSH2 0x15CD DUP5 DUP3 DUP6 ADD PUSH2 0x1597 JUMP JUMPDEST SWAP2 POP POP SWAP3 SWAP2 POP POP JUMP JUMPDEST PUSH2 0x15DF DUP2 PUSH2 0x1578 JUMP JUMPDEST DUP3 MSTORE POP POP JUMP JUMPDEST PUSH0 DUP2 MLOAD SWAP1 POP SWAP2 SWAP1 POP JUMP JUMPDEST PUSH0 DUP3 DUP3 MSTORE PUSH1 0x20 DUP3 ADD SWAP1 POP SWAP3 SWAP2 POP POP JUMP JUMPDEST DUP3 DUP2 DUP4 MCOPY PUSH0 DUP4 DUP4 ADD MSTORE POP POP POP JUMP JUMPDEST PUSH0 PUSH1 0x1F NOT PUSH1 0x1F DUP4 ADD AND SWAP1 POP SWAP2 SWAP1 POP JUMP JUMPDEST PUSH0 PUSH2 0x1627 DUP3 PUSH2 0x15E5 JUMP JUMPDEST PUSH2 0x1631 DUP2 DUP6 PUSH2 0x15EF JUMP JUMPDEST SWAP4 POP PUSH2 0x1641 DUP2 DUP6 PUSH1 0x20 DUP7 ADD PUSH2 0x15FF JUMP JUMPDEST PUSH2 0x164A DUP2 PUSH2 0x160D JUMP JUMPDEST DUP5 ADD SWAP2 POP POP SWAP3 SWAP2 POP POP JUMP JUMPDEST PUSH2 0x165E DUP2 PUSH2 0x1427 JUMP JUMPDEST DUP3 MSTORE POP POP JUMP JUMPDEST PUSH0 PUSH1 0x80 DUP4 ADD PUSH0 DUP4 ADD MLOAD PUSH2 0x1679 PUSH0 DUP7 ADD DUP3 PUSH2 0x15D6 JUMP JUMPDEST POP PUSH1 0x20 DUP4 ADD MLOAD PUSH2 0x168C PUSH1 0x20 DUP7 ADD DUP3 PUSH2 0x15D6 JUMP JUMPDEST POP PUSH1 0x40 DUP4 ADD MLOAD DUP5 DUP3 SUB PUSH1 0x40 DUP7 ADD MSTORE PUSH2 0x16A4 DUP3 DUP3 PUSH2 0x161D JUMP JUMPDEST SWAP2 POP POP PUSH1 0x60 DUP4 ADD MLOAD PUSH2 0x16B9 PUSH1 0x60 DUP7 ADD DUP3 PUSH2 0x1655 JUMP JUMPDEST POP DUP1 SWAP2 POP POP SWAP3 SWAP2 POP POP JUMP JUMPDEST PUSH0 PUSH1 0x20 DUP3 ADD SWAP1 POP DUP2 DUP2 SUB PUSH0 DUP4 ADD MSTORE PUSH2 0x16DC DUP2 DUP5 PUSH2 0x1664 JUMP JUMPDEST SWAP1 POP SWAP3 SWAP2 POP POP JUMP JUMPDEST PUSH2 0x16ED DUP2 PUSH2 0x1578 JUMP JUMPDEST DUP3 MSTORE POP POP JUMP JUMPDEST PUSH0 DUP3 DUP3 MSTORE PUSH1 0x20 DUP3 ADD SWAP1 POP SWAP3 SWAP2 POP POP JUMP JUMPDEST PUSH0 PUSH2 0x170D DUP3 PUSH2 0x15E5 JUMP JUMPDEST PUSH2 0x1717 DUP2 DUP6 PUSH2 0x16F3 JUMP JUMPDEST SWAP4 POP PUSH2 0x1727 DUP2 DUP6 PUSH1 0x20 DUP7 ADD PUSH2 0x15FF JUMP JUMPDEST PUSH2 0x1730 DUP2 PUSH2 0x160D JUMP JUMPDEST DUP5 ADD SWAP2 POP POP SWAP3 SWAP2 POP POP JUMP JUMPDEST PUSH0 PUSH1 0x80 DUP3 ADD SWAP1 POP PUSH2 0x174E PUSH0 DUP4 ADD DUP8 PUSH2 0x16E4 JUMP JUMPDEST PUSH2 0x175B PUSH1 0x20 DUP4 ADD DUP7 PUSH2 0x16E4 JUMP JUMPDEST DUP2 DUP2 SUB PUSH1 0x40 DUP4 ADD MSTORE PUSH2 0x176D DUP2 DUP6 PUSH2 0x1703 JUMP JUMPDEST SWAP1 POP PUSH2 0x177C PUSH1 0x60 DUP4 ADD DUP5 PUSH2 0x1432 JUMP JUMPDEST SWAP6 SWAP5 POP POP POP POP POP JUMP JUMPDEST PUSH0 DUP1 REVERT JUMPDEST PUSH0 DUP1 REVERT JUMPDEST PUSH32 0x4E487B7100000000000000000000000000000000000000000000000000000000 PUSH0 MSTORE PUSH1 0x41 PUSH1 0x4 MSTORE PUSH1 0x24 PUSH0 REVERT JUMPDEST PUSH2 0x17C3 DUP3 PUSH2 0x160D JUMP JUMPDEST DUP2 ADD DUP2 DUP2 LT PUSH8 0xFFFFFFFFFFFFFFFF DUP3 GT OR ISZERO PUSH2 0x17E2 JUMPI PUSH2 0x17E1 PUSH2 0x178D JUMP JUMPDEST JUMPDEST DUP1 PUSH1 0x40 MSTORE POP POP POP JUMP JUMPDEST PUSH0 PUSH2 0x17F4 PUSH2 0x1396 JUMP JUMPDEST SWAP1 POP PUSH2 0x1800 DUP3 DUP3 PUSH2 0x17BA JUMP JUMPDEST SWAP2 SWAP1 POP JUMP JUMPDEST PUSH0 PUSH8 0xFFFFFFFFFFFFFFFF DUP3 GT ISZERO PUSH2 0x181F JUMPI PUSH2 0x181E PUSH2 0x178D JUMP JUMPDEST JUMPDEST PUSH2 0x1828 DUP3 PUSH2 0x160D JUMP JUMPDEST SWAP1 POP PUSH1 0x20 DUP2 ADD SWAP1 POP SWAP2 SWAP1 POP JUMP JUMPDEST DUP3 DUP2 DUP4 CALLDATACOPY PUSH0 DUP4 DUP4 ADD MSTORE POP POP POP JUMP JUMPDEST PUSH0 PUSH2 0x1855 PUSH2 0x1850 DUP5 PUSH2 0x1805 JUMP JUMPDEST PUSH2 0x17EB JUMP JUMPDEST SWAP1 POP DUP3 DUP2 MSTORE PUSH1 0x20 DUP2 ADD DUP5 DUP5 DUP5 ADD GT ISZERO PUSH2 0x1871 JUMPI PUSH2 0x1870 PUSH2 0x1789 JUMP JUMPDEST JUMPDEST PUSH2 0x187C DUP5 DUP3 DUP6 PUSH2 0x1835 JUMP JUMPDEST POP SWAP4 SWAP3 POP POP POP JUMP JUMPDEST PUSH0 DUP3 PUSH1 0x1F DUP4 ADD SLT PUSH2 0x1898 JUMPI PUSH2 0x1897 PUSH2 0x1785 JUMP JUMPDEST JUMPDEST DUP2 CALLDATALOAD PUSH2 0x18A8 DUP5 DUP3 PUSH1 0x20 DUP7 ADD PUSH2 0x1843 JUMP JUMPDEST SWAP2 POP POP SWAP3 SWAP2 POP POP JUMP JUMPDEST PUSH0 DUP1 PUSH0 PUSH1 0x60 DUP5 DUP7 SUB SLT ISZERO PUSH2 0x18C8 JUMPI PUSH2 0x18C7 PUSH2 0x139F JUMP JUMPDEST JUMPDEST PUSH0 PUSH2 0x18D5 DUP7 DUP3 DUP8 ADD PUSH2 0x1597 JUMP JUMPDEST SWAP4 POP POP PUSH1 0x20 PUSH2 0x18E6 DUP7 DUP3 DUP8 ADD PUSH2 0x1597 JUMP JUMPDEST SWAP3 POP POP PUSH1 0x40 DUP5 ADD CALLDATALOAD PUSH8 0xFFFFFFFFFFFFFFFF DUP2 GT ISZERO PUSH2 0x1907 JUMPI PUSH2 0x1906 PUSH2 0x13A3 JUMP JUMPDEST JUMPDEST PUSH2 0x1913 DUP7 DUP3 DUP8 ADD PUSH2 0x1884 JUMP JUMPDEST SWAP2 POP POP SWAP3 POP SWAP3 POP SWAP3 JUMP JUMPDEST PUSH0 PUSH1 0x20 DUP3 DUP5 SUB SLT ISZERO PUSH2 0x1932 JUMPI PUSH2 0x1931 PUSH2 0x139F JUMP JUMPDEST JUMPDEST PUSH0 PUSH2 0x193F DUP5 DUP3 DUP6 ADD PUSH2 0x1526 JUMP JUMPDEST SWAP2 POP POP SWAP3 SWAP2 POP POP JUMP JUMPDEST PUSH1 0x20 DUP3 ADD PUSH0 DUP3 ADD MLOAD PUSH2 0x195C PUSH0 DUP6 ADD DUP3 PUSH2 0x15D6 JUMP JUMPDEST POP POP POP POP JUMP JUMPDEST PUSH0 PUSH1 0x20 DUP3 ADD SWAP1 POP PUSH2 0x1975 PUSH0 DUP4 ADD DUP5 PUSH2 0x1948 JUMP JUMPDEST SWAP3 SWAP2 POP POP JUMP JUMPDEST PUSH0 DUP1 PUSH0 PUSH1 0x60 DUP5 DUP7 SUB SLT ISZERO PUSH2 0x1992 JUMPI PUSH2 0x1991 PUSH2 0x139F JUMP JUMPDEST JUMPDEST PUSH0 PUSH2 0x199F DUP7 DUP3 DUP8 ADD PUSH2 0x1597 JUMP JUMPDEST SWAP4 POP POP PUSH1 0x20 PUSH2 0x19B0 DUP7 DUP3 DUP8 ADD PUSH2 0x1526 JUMP JUMPDEST SWAP3 POP POP PUSH1 0x40 PUSH2 0x19C1 DUP7 DUP3 DUP8 ADD PUSH2 0x1597 JUMP JUMPDEST SWAP2 POP POP SWAP3 POP SWAP3 POP SWAP3 JUMP JUMPDEST PUSH0 PUSH1 0x20 DUP3 ADD SWAP1 POP PUSH2 0x19DE PUSH0 DUP4 ADD DUP5 PUSH2 0x16E4 JUMP JUMPDEST SWAP3 SWAP2 POP POP JUMP JUMPDEST PUSH0 DUP2 SWAP1 POP SWAP2 SWAP1 POP JUMP JUMPDEST PUSH0 PUSH2 0x1A07 PUSH2 0x1A02 PUSH2 0x19FD DUP5 PUSH2 0x14E0 JUMP JUMPDEST PUSH2 0x19E4 JUMP JUMPDEST PUSH2 0x14E0 JUMP JUMPDEST SWAP1 POP SWAP2 SWAP1 POP JUMP JUMPDEST PUSH0 PUSH2 0x1A18 DUP3 PUSH2 0x19ED JUMP JUMPDEST SWAP1 POP SWAP2 SWAP1 POP JUMP JUMPDEST PUSH0 PUSH2 0x1A29 DUP3 PUSH2 0x1A0E JUMP JUMPDEST SWAP1 POP SWAP2 SWAP1 POP JUMP JUMPDEST PUSH2 0x1A39 DUP2 PUSH2 0x1A1F JUMP JUMPDEST DUP3 MSTORE POP POP JUMP JUMPDEST PUSH0 PUSH1 0x20 DUP3 ADD SWAP1 POP PUSH2 0x1A52 PUSH0 DUP4 ADD DUP5 PUSH2 0x1A30 JUMP JUMPDEST SWAP3 SWAP2 POP POP JUMP JUMPDEST PUSH32 0x416363657373436F6E74726F6C3A2063616E206F6E6C792072656E6F756E6365 PUSH0 DUP3 ADD MSTORE PUSH32 0x20726F6C657320666F722073656C660000000000000000000000000000000000 PUSH1 0x20 DUP3 ADD MSTORE POP JUMP JUMPDEST PUSH0 PUSH2 0x1AB2 PUSH1 0x2F DUP4 PUSH2 0x16F3 JUMP JUMPDEST SWAP2 POP PUSH2 0x1ABD DUP3 PUSH2 0x1A58 JUMP JUMPDEST PUSH1 0x40 DUP3 ADD SWAP1 POP SWAP2 SWAP1 POP JUMP JUMPDEST PUSH0 PUSH1 0x20 DUP3 ADD SWAP1 POP DUP2 DUP2 SUB PUSH0 DUP4 ADD MSTORE PUSH2 0x1ADF DUP2 PUSH2 0x1AA6 JUMP JUMPDEST SWAP1 POP SWAP2 SWAP1 POP JUMP JUMPDEST PUSH32 0x47616D6520646F6573206E6F7420657869737400000000000000000000000000 PUSH0 DUP3 ADD MSTORE POP JUMP JUMPDEST PUSH0 PUSH2 0x1B1A PUSH1 0x13 DUP4 PUSH2 0x16F3 JUMP JUMPDEST SWAP2 POP PUSH2 0x1B25 DUP3 PUSH2 0x1AE6 JUMP JUMPDEST PUSH1 0x20 DUP3 ADD SWAP1 POP SWAP2 SWAP1 POP JUMP JUMPDEST PUSH0 PUSH1 0x20 DUP3 ADD SWAP1 POP DUP2 DUP2 SUB PUSH0 DUP4 ADD MSTORE PUSH2 0x1B47 DUP2 PUSH2 0x1B0E JUMP JUMPDEST SWAP1 POP SWAP2 SWAP1 POP JUMP JUMPDEST PUSH32 0x4E487B7100000000000000000000000000000000000000000000000000000000 PUSH0 MSTORE PUSH1 0x22 PUSH1 0x4 MSTORE PUSH1 0x24 PUSH0 REVERT JUMPDEST PUSH0 PUSH1 0x2 DUP3 DIV SWAP1 POP PUSH1 0x1 DUP3 AND DUP1 PUSH2 0x1B92 JUMPI PUSH1 0x7F DUP3 AND SWAP2 POP JUMPDEST PUSH1 0x20 DUP3 LT DUP2 SUB PUSH2 0x1BA5 JUMPI PUSH2 0x1BA4 PUSH2 0x1B4E JUMP JUMPDEST JUMPDEST POP SWAP2 SWAP1 POP JUMP JUMPDEST PUSH0 DUP2 SWAP1 POP DUP2 PUSH0 MSTORE PUSH1 0x20 PUSH0 KECCAK256 SWAP1 POP SWAP2 SWAP1 POP JUMP JUMPDEST PUSH0 PUSH1 0x20 PUSH1 0x1F DUP4 ADD DIV SWAP1 POP SWAP2 SWAP1 POP JUMP JUMPDEST PUSH0 DUP3 DUP3 SHL SWAP1 POP SWAP3 SWAP2 POP POP JUMP JUMPDEST PUSH0 PUSH1 0x8 DUP4 MUL PUSH2 0x1C07 PUSH32 0xFFFFFFFFFFFFFFFFFFFFFFFFFFFFFFFFFFFFFFFFFFFFFFFFFFFFFFFFFFFFFFFF DUP3 PUSH2 0x1BCC JUMP JUMPDEST PUSH2 0x1C11 DUP7 DUP4 PUSH2 0x1BCC JUMP JUMPDEST SWAP6 POP DUP1 NOT DUP5 AND SWAP4 POP DUP1 DUP7 AND DUP5 OR SWAP3 POP POP POP SWAP4 SWAP3 POP POP POP JUMP JUMPDEST PUSH0 PUSH2 0x1C43 PUSH2 0x1C3E PUSH2 0x1C39 DUP5 PUSH2 0x1578 JUMP JUMPDEST PUSH2 0x19E4 JUMP JUMPDEST PUSH2 0x1578 JUMP JUMPDEST SWAP1 POP SWAP2 SWAP1 POP JUMP JUMPDEST PUSH0 DUP2 SWAP1 POP SWAP2 SWAP1 POP JUMP JUMPDEST PUSH2 0x1C5C DUP4 PUSH2 0x1C29 JUMP JUMPDEST PUSH2 0x1C70 PUSH2 0x1C68 DUP3 PUSH2 0x1C4A JUMP JUMPDEST DUP5 DUP5 SLOAD PUSH2 0x1BD8 JUMP JUMPDEST DUP3 SSTORE POP POP POP POP JUMP JUMPDEST PUSH0 SWAP1 JUMP JUMPDEST PUSH2 0x1C84 PUSH2 0x1C78 JUMP JUMPDEST PUSH2 0x1C8F DUP2 DUP5 DUP5 PUSH2 0x1C53 JUMP JUMPDEST POP POP POP JUMP JUMPDEST JUMPDEST DUP2 DUP2 LT ISZERO PUSH2 0x1CB2 JUMPI PUSH2 0x1CA7 PUSH0 DUP3 PUSH2 0x1C7C JUMP JUMPDEST PUSH1 0x1 DUP2 ADD SWAP1 POP PUSH2 0x1C95 JUMP JUMPDEST POP POP JUMP JUMPDEST PUSH1 0x1F DUP3 GT ISZERO PUSH2 0x1CF7 JUMPI PUSH2 0x1CC8 DUP2 PUSH2 0x1BAB JUMP JUMPDEST PUSH2 0x1CD1 DUP5 PUSH2 0x1BBD JUMP JUMPDEST DUP2 ADD PUSH1 0x20 DUP6 LT ISZERO PUSH2 0x1CE0 JUMPI DUP2 SWAP1 POP JUMPDEST PUSH2 0x1CF4 PUSH2 0x1CEC DUP6 PUSH2 0x1BBD JUMP JUMPDEST DUP4 ADD DUP3 PUSH2 0x1C94 JUMP JUMPDEST POP POP JUMPDEST POP POP POP JUMP JUMPDEST PUSH0 DUP3 DUP3 SHR SWAP1 POP SWAP3 SWAP2 POP POP JUMP JUMPDEST PUSH0 PUSH2 0x1D17 PUSH0 NOT DUP5 PUSH1 0x8 MUL PUSH2 0x1CFC JUMP JUMPDEST NOT DUP1 DUP4 AND SWAP2 POP POP SWAP3 SWAP2 POP POP JUMP JUMPDEST PUSH0 PUSH2 0x1D2F DUP4 DUP4 PUSH2 0x1D08 JUMP JUMPDEST SWAP2 POP DUP3 PUSH1 0x2 MUL DUP3 OR SWAP1 POP SWAP3 SWAP2 POP POP JUMP JUMPDEST PUSH2 0x1D48 DUP3 PUSH2 0x15E5 JUMP JUMPDEST PUSH8 0xFFFFFFFFFFFFFFFF DUP2 GT ISZERO PUSH2 0x1D61 JUMPI PUSH2 0x1D60 PUSH2 0x178D JUMP JUMPDEST JUMPDEST PUSH2 0x1D6B DUP3 SLOAD PUSH2 0x1B7B JUMP JUMPDEST PUSH2 0x1D76 DUP3 DUP3 DUP6 PUSH2 0x1CB6 JUMP JUMPDEST PUSH0 PUSH1 0x20 SWAP1 POP PUSH1 0x1F DUP4 GT PUSH1 0x1 DUP2 EQ PUSH2 0x1DA7 JUMPI PUSH0 DUP5 ISZERO PUSH2 0x1D95 JUMPI DUP3 DUP8 ADD MLOAD SWAP1 POP JUMPDEST PUSH2 0x1D9F DUP6 DUP3 PUSH2 0x1D24 JUMP JUMPDEST DUP7 SSTORE POP PUSH2 0x1E06 JUMP JUMPDEST PUSH1 0x1F NOT DUP5 AND PUSH2 0x1DB5 DUP7 PUSH2 0x1BAB JUMP JUMPDEST PUSH0 JUMPDEST DUP3 DUP2 LT ISZERO PUSH2 0x1DDC JUMPI DUP5 DUP10 ADD MLOAD DUP3 SSTORE PUSH1 0x1 DUP3 ADD SWAP2 POP PUSH1 0x20 DUP6 ADD SWAP5 POP PUSH1 0x20 DUP2 ADD SWAP1 POP PUSH2 0x1DB7 JUMP JUMPDEST DUP7 DUP4 LT ISZERO PUSH2 0x1DF9 JUMPI DUP5 DUP10 ADD MLOAD PUSH2 0x1DF5 PUSH1 0x1F DUP10 AND DUP3 PUSH2 0x1D08 JUMP JUMPDEST DUP4 SSTORE POP JUMPDEST PUSH1 0x1 PUSH1 0x2 DUP9 MUL ADD DUP9 SSTORE POP POP POP JUMPDEST POP POP POP POP POP POP JUMP JUMPDEST PUSH0 PUSH1 0x60 DUP3 ADD SWAP1 POP PUSH2 0x1E21 PUSH0 DUP4 ADD DUP7 PUSH2 0x16E4 JUMP JUMPDEST PUSH2 0x1E2E PUSH1 0x20 DUP4 ADD DUP6 PUSH2 0x16E4 JUMP JUMPDEST DUP2 DUP2 SUB PUSH1 0x40 DUP4 ADD MSTORE PUSH2 0x1E40 DUP2 DUP5 PUSH2 0x1703 JUMP JUMPDEST SWAP1 POP SWAP5 SWAP4 POP POP POP POP JUMP JUMPDEST PUSH32 0x4D656D62657220646F6573206E6F742065786973740000000000000000000000 PUSH0 DUP3 ADD MSTORE POP JUMP JUMPDEST PUSH0 PUSH2 0x1E7E PUSH1 0x15 DUP4 PUSH2 0x16F3 JUMP JUMPDEST SWAP2 POP PUSH2 0x1E89 DUP3 PUSH2 0x1E4A JUMP JUMPDEST PUSH1 0x20 DUP3 ADD SWAP1 POP SWAP2 SWAP1 POP JUMP JUMPDEST PUSH0 PUSH1 0x20 DUP3 ADD SWAP1 POP DUP2 DUP2 SUB PUSH0 DUP4 ADD MSTORE PUSH2 0x1EAB DUP2 PUSH2 0x1E72 JUMP JUMPDEST SWAP1 POP SWAP2 SWAP1 POP JUMP JUMPDEST PUSH32 0x4D656D62657220616C7265616479207265676973746572656400000000000000 PUSH0 DUP3 ADD MSTORE POP JUMP JUMPDEST PUSH0 PUSH2 0x1EE6 PUSH1 0x19 DUP4 PUSH2 0x16F3 JUMP JUMPDEST SWAP2 POP PUSH2 0x1EF1 DUP3 PUSH2 0x1EB2 JUMP JUMPDEST PUSH1 0x20 DUP3 ADD SWAP1 POP SWAP2 SWAP1 POP JUMP JUMPDEST PUSH0 PUSH1 0x20 DUP3 ADD SWAP1 POP DUP2 DUP2 SUB PUSH0 DUP4 ADD MSTORE PUSH2 0x1F13 DUP2 PUSH2 0x1EDA JUMP JUMPDEST SWAP1 POP SWAP2 SWAP1 POP JUMP JUMPDEST PUSH2 0x1F23 DUP2 PUSH2 0x14FF JUMP JUMPDEST DUP3 MSTORE POP POP JUMP JUMPDEST PUSH0 PUSH1 0x40 DUP3 ADD SWAP1 POP PUSH2 0x1F3C PUSH0 DUP4 ADD DUP6 PUSH2 0x1F1A JUMP JUMPDEST PUSH2 0x1F49 PUSH1 0x20 DUP4 ADD DUP5 PUSH2 0x16E4 JUMP JUMPDEST SWAP4 SWAP3 POP POP POP JUMP JUMPDEST PUSH0 PUSH1 0x40 DUP3 ADD SWAP1 POP PUSH2 0x1F63 PUSH0 DUP4 ADD DUP6 PUSH2 0x16E4 JUMP JUMPDEST PUSH2 0x1F70 PUSH1 0x20 DUP4 ADD DUP5 PUSH2 0x16E4 JUMP JUMPDEST SWAP4 SWAP3 POP POP POP JUMP JUMPDEST PUSH0 DUP2 SWAP1 POP SWAP3 SWAP2 POP POP JUMP JUMPDEST PUSH32 0x416363657373436F6E74726F6C3A206163636F756E7420000000000000000000 PUSH0 DUP3 ADD MSTORE POP JUMP JUMPDEST PUSH0 PUSH2 0x1FB5 PUSH1 0x17 DUP4 PUSH2 0x1F77 JUMP JUMPDEST SWAP2 POP PUSH2 0x1FC0 DUP3 PUSH2 0x1F81 JUMP JUMPDEST PUSH1 0x17 DUP3 ADD SWAP1 POP SWAP2 SWAP1 POP JUMP JUMPDEST PUSH0 PUSH2 0x1FD5 DUP3 PUSH2 0x15E5 JUMP JUMPDEST PUSH2 0x1FDF DUP2 DUP6 PUSH2 0x1F77 JUMP JUMPDEST SWAP4 POP PUSH2 0x1FEF DUP2 DUP6 PUSH1 0x20 DUP7 ADD PUSH2 0x15FF JUMP JUMPDEST DUP1 DUP5 ADD SWAP2 POP POP SWAP3 SWAP2 POP POP JUMP JUMPDEST PUSH32 0x206973206D697373696E6720726F6C6520000000000000000000000000000000 PUSH0 DUP3 ADD MSTORE POP JUMP JUMPDEST PUSH0 PUSH2 0x202F PUSH1 0x11 DUP4 PUSH2 0x1F77 JUMP JUMPDEST SWAP2 POP PUSH2 0x203A DUP3 PUSH2 0x1FFB JUMP JUMPDEST PUSH1 0x11 DUP3 ADD SWAP1 POP SWAP2 SWAP1 POP JUMP JUMPDEST PUSH0 PUSH2 0x204F DUP3 PUSH2 0x1FA9 JUMP JUMPDEST SWAP2 POP PUSH2 0x205B DUP3 DUP6 PUSH2 0x1FCB JUMP JUMPDEST SWAP2 POP PUSH2 0x2066 DUP3 PUSH2 0x2023 JUMP JUMPDEST SWAP2 POP PUSH2 0x2072 DUP3 DUP5 PUSH2 0x1FCB JUMP JUMPDEST SWAP2 POP DUP2 SWAP1 POP SWAP4 SWAP3 POP POP POP JUMP JUMPDEST PUSH0 PUSH1 0x20 DUP3 ADD SWAP1 POP DUP2 DUP2 SUB PUSH0 DUP4 ADD MSTORE PUSH2 0x2096 DUP2 DUP5 PUSH2 0x1703 JUMP JUMPDEST SWAP1 POP SWAP3 SWAP2 POP POP JUMP JUMPDEST PUSH32 0x4E487B7100000000000000000000000000000000000000000000000000000000 PUSH0 MSTORE PUSH1 0x11 PUSH1 0x4 MSTORE PUSH1 0x24 PUSH0 REVERT JUMPDEST PUSH0 PUSH2 0x20D5 DUP3 PUSH2 0x1578 JUMP JUMPDEST SWAP2 POP PUSH2 0x20E0 DUP4 PUSH2 0x1578 JUMP JUMPDEST SWAP3 POP DUP3 DUP3 MUL PUSH2 0x20EE DUP2 PUSH2 0x1578 JUMP JUMPDEST SWAP2 POP DUP3 DUP3 DIV DUP5 EQ DUP4 ISZERO OR PUSH2 0x2105 JUMPI PUSH2 0x2104 PUSH2 0x209E JUMP JUMPDEST JUMPDEST POP SWAP3 SWAP2 POP POP JUMP JUMPDEST PUSH0 PUSH2 0x2116 DUP3 PUSH2 0x1578 JUMP JUMPDEST SWAP2 POP PUSH2 0x2121 DUP4 PUSH2 0x1578 JUMP JUMPDEST SWAP3 POP DUP3 DUP3 ADD SWAP1 POP DUP1 DUP3 GT ISZERO PUSH2 0x2139 JUMPI PUSH2 0x2138 PUSH2 0x209E JUMP JUMPDEST JUMPDEST SWAP3 SWAP2 POP POP JUMP JUMPDEST PUSH32 0x4E487B7100000000000000000000000000000000000000000000000000000000 PUSH0 MSTORE PUSH1 0x32 PUSH1 0x4 MSTORE PUSH1 0x24 PUSH0 REVERT JUMPDEST PUSH0 PUSH2 0x2176 DUP3 PUSH2 0x1578 JUMP JUMPDEST SWAP2 POP PUSH0 DUP3 SUB PUSH2 0x2188 JUMPI PUSH2 0x2187 PUSH2 0x209E JUMP JUMPDEST JUMPDEST PUSH1 0x1 DUP3 SUB SWAP1 POP SWAP2 SWAP1 POP JUMP JUMPDEST PUSH32 0x537472696E67733A20686578206C656E67746820696E73756666696369656E74 PUSH0 DUP3 ADD MSTORE POP JUMP JUMPDEST PUSH0 PUSH2 0x21C7 PUSH1 0x20 DUP4 PUSH2 0x16F3 JUMP JUMPDEST SWAP2 POP PUSH2 0x21D2 DUP3 PUSH2 0x2193 JUMP JUMPDEST PUSH1 0x20 DUP3 ADD SWAP1 POP SWAP2 SWAP1 POP JUMP JUMPDEST PUSH0 PUSH1 0x20 DUP3 ADD SWAP1 POP DUP2 DUP2 SUB PUSH0 DUP4 ADD MSTORE PUSH2 0x21F4 DUP2 PUSH2 0x21BB JUMP JUMPDEST SWAP1 POP SWAP2 SWAP1 POP JUMP INVALID LOG2 PUSH5 0x6970667358 0x22 SLT KECCAK256 PUSH5 0xF89D0AE723 PUSH16 0x4AA93B6254B9AF8EFBDCD3ED1EEB2618 SWAP2 PUSH25 0xD006787798ACAB64736F6C634300081A003300000000000000 "
				},
				"gasEstimates": {
					"creation": {
						"codeDepositCost": "1750600",
						"executionCost": "infinite",
						"totalCost": "infinite"
					},
					"external": {
						"ADMIN_ROLE()": "348",
						"DEFAULT_ADMIN_ROLE()": "375",
						"entToken()": "infinite",
						"gameDelete(uint256)": "infinite",
						"gameInfos(uint256)": "infinite",
						"gameRegister(uint256,uint256,string)": "infinite",
						"gameUpdate(uint256,uint256,string)": "infinite",
						"getGameInfo(uint256)": "infinite",
						"getMemberInfo(uint256)": "infinite",
						"getRoleAdmin(bytes32)": "infinite",
						"grantAdminRole(address)": "infinite",
						"grantRole(bytes32,address)": "infinite",
						"hasRole(bytes32,address)": "3233",
						"memberInfos(uint256)": "infinite",
						"memberRegister(uint256,address,uint256)": "infinite",
						"renounceRole(bytes32,address)": "infinite",
						"revokeAdminRole(address)": "infinite",
						"revokeRole(bytes32,address)": "infinite",
						"setTokens(address)": "infinite",
						"supportsInterface(bytes4)": "741"
					}
				},
				"methodIdentifiers": {
					"ADMIN_ROLE()": "75b238fc",
					"DEFAULT_ADMIN_ROLE()": "a217fddf",
					"entToken()": "dd0c8082",
					"gameDelete(uint256)": "89b2c8e7",
					"gameInfos(uint256)": "7d1b4687",
					"gameRegister(uint256,uint256,string)": "8164586e",
					"gameUpdate(uint256,uint256,string)": "b3558075",
					"getGameInfo(uint256)": "47e1d550",
					"getMemberInfo(uint256)": "ae99aa3c",
					"getRoleAdmin(bytes32)": "248a9ca3",
					"grantAdminRole(address)": "c634b78e",
					"grantRole(bytes32,address)": "2f2ff15d",
					"hasRole(bytes32,address)": "91d14854",
					"memberInfos(uint256)": "bb10ab0f",
					"memberRegister(uint256,address,uint256)": "aea08734",
					"renounceRole(bytes32,address)": "36568abe",
					"revokeAdminRole(address)": "9a19c7b0",
					"revokeRole(bytes32,address)": "d547741f",
					"setTokens(address)": "a639eb4d",
					"supportsInterface(bytes4)": "01ffc9a7"
				}
			},
			"storageLayout": {
				"storage": [
					{
						"astId": 359,
						"contract": "contracts/v2/TikTrix.sol:TikTrix",
						"label": "_roles",
						"offset": 0,
						"slot": "0",
						"type": "t_mapping(t_bytes32,t_struct(RoleData)354_storage)"
					},
					{
						"astId": 23,
						"contract": "contracts/v2/TikTrix.sol:TikTrix",
						"label": "entToken",
						"offset": 0,
						"slot": "1",
						"type": "t_contract(IERC20Mintable)13"
					},
					{
						"astId": 40,
						"contract": "contracts/v2/TikTrix.sol:TikTrix",
						"label": "gameInfos",
						"offset": 0,
						"slot": "2",
						"type": "t_mapping(t_uint256,t_struct(GameInfo)32_storage)"
					},
					{
						"astId": 45,
						"contract": "contracts/v2/TikTrix.sol:TikTrix",
						"label": "memberInfos",
						"offset": 0,
						"slot": "3",
						"type": "t_mapping(t_uint256,t_struct(MemberInfo)35_storage)"
					}
				],
				"types": {
					"t_address": {
						"encoding": "inplace",
						"label": "address",
						"numberOfBytes": "20"
					},
					"t_bool": {
						"encoding": "inplace",
						"label": "bool",
						"numberOfBytes": "1"
					},
					"t_bytes32": {
						"encoding": "inplace",
						"label": "bytes32",
						"numberOfBytes": "32"
					},
					"t_contract(IERC20Mintable)13": {
						"encoding": "inplace",
						"label": "contract IERC20Mintable",
						"numberOfBytes": "20"
					},
					"t_mapping(t_address,t_bool)": {
						"encoding": "mapping",
						"key": "t_address",
						"label": "mapping(address => bool)",
						"numberOfBytes": "32",
						"value": "t_bool"
					},
					"t_mapping(t_bytes32,t_struct(RoleData)354_storage)": {
						"encoding": "mapping",
						"key": "t_bytes32",
						"label": "mapping(bytes32 => struct AccessControl.RoleData)",
						"numberOfBytes": "32",
						"value": "t_struct(RoleData)354_storage"
					},
					"t_mapping(t_uint256,t_struct(GameInfo)32_storage)": {
						"encoding": "mapping",
						"key": "t_uint256",
						"label": "mapping(uint256 => struct TikTrix.GameInfo)",
						"numberOfBytes": "32",
						"value": "t_struct(GameInfo)32_storage"
					},
					"t_mapping(t_uint256,t_struct(MemberInfo)35_storage)": {
						"encoding": "mapping",
						"key": "t_uint256",
						"label": "mapping(uint256 => struct TikTrix.MemberInfo)",
						"numberOfBytes": "32",
						"value": "t_struct(MemberInfo)35_storage"
					},
					"t_string_storage": {
						"encoding": "bytes",
						"label": "string",
						"numberOfBytes": "32"
					},
					"t_struct(GameInfo)32_storage": {
						"encoding": "inplace",
						"label": "struct TikTrix.GameInfo",
						"members": [
							{
								"astId": 25,
								"contract": "contracts/v2/TikTrix.sol:TikTrix",
								"label": "developerSeq",
								"offset": 0,
								"slot": "0",
								"type": "t_uint256"
							},
							{
								"astId": 27,
								"contract": "contracts/v2/TikTrix.sol:TikTrix",
								"label": "gameSeq",
								"offset": 0,
								"slot": "1",
								"type": "t_uint256"
							},
							{
								"astId": 29,
								"contract": "contracts/v2/TikTrix.sol:TikTrix",
								"label": "title",
								"offset": 0,
								"slot": "2",
								"type": "t_string_storage"
							},
							{
								"astId": 31,
								"contract": "contracts/v2/TikTrix.sol:TikTrix",
								"label": "exists",
								"offset": 0,
								"slot": "3",
								"type": "t_bool"
							}
						],
						"numberOfBytes": "128"
					},
					"t_struct(MemberInfo)35_storage": {
						"encoding": "inplace",
						"label": "struct TikTrix.MemberInfo",
						"members": [
							{
								"astId": 34,
								"contract": "contracts/v2/TikTrix.sol:TikTrix",
								"label": "memberSeq",
								"offset": 0,
								"slot": "0",
								"type": "t_uint256"
							}
						],
						"numberOfBytes": "32"
					},
					"t_struct(RoleData)354_storage": {
						"encoding": "inplace",
						"label": "struct AccessControl.RoleData",
						"members": [
							{
								"astId": 351,
								"contract": "contracts/v2/TikTrix.sol:TikTrix",
								"label": "members",
								"offset": 0,
								"slot": "0",
								"type": "t_mapping(t_address,t_bool)"
							},
							{
								"astId": 353,
								"contract": "contracts/v2/TikTrix.sol:TikTrix",
								"label": "adminRole",
								"offset": 0,
								"slot": "1",
								"type": "t_bytes32"
							}
						],
						"numberOfBytes": "64"
					},
					"t_uint256": {
						"encoding": "inplace",
						"label": "uint256",
						"numberOfBytes": "32"
					}
				}
			},
			"userdoc": {
				"kind": "user",
				"methods": {},
				"version": 1
			}
		}
	}
}