{
	"contracts/v2/TikTrixEscrow.sol": {
		"TikTrixEscrow": {
			"abi": [
				{
					"inputs": [
						{
							"internalType": "address",
							"name": "entTokenAddress",
							"type": "address"
						},
						{
							"internalType": "address",
							"name": "rptTokenAddress",
							"type": "address"
						}
					],
					"stateMutability": "nonpayable",
					"type": "constructor"
				},
				{
					"anonymous": false,
					"inputs": [
						{
							"indexed": true,
							"internalType": "uint256",
							"name": "yyyymmdd",
							"type": "uint256"
						},
						{
							"indexed": true,
							"internalType": "uint256",
							"name": "gameSeq",
							"type": "uint256"
						},
						{
							"indexed": true,
							"internalType": "uint256",
							"name": "memberSeq",
							"type": "uint256"
						},
						{
							"indexed": false,
							"internalType": "uint256",
							"name": "tokenAmount",
							"type": "uint256"
						}
					],
					"name": "ChallengeRegisterd",
					"type": "event"
				},
				{
					"anonymous": false,
					"inputs": [
						{
							"indexed": false,
							"internalType": "uint256",
							"name": "memberSeq",
							"type": "uint256"
						},
						{
							"indexed": false,
							"internalType": "uint256",
							"name": "tokenAmount",
							"type": "uint256"
						}
					],
					"name": "MemberRegistered",
					"type": "event"
				},
				{
					"anonymous": false,
					"inputs": [
						{
							"indexed": false,
							"internalType": "address[]",
							"name": "recipients",
							"type": "address[]"
						},
						{
							"indexed": false,
							"internalType": "uint256[]",
							"name": "tokenAmounts",
							"type": "uint256[]"
						}
					],
					"name": "PrizesDistributed",
					"type": "event"
				},
				{
					"anonymous": false,
					"inputs": [
						{
							"indexed": true,
							"internalType": "uint256",
							"name": "yyyymmdd",
							"type": "uint256"
						},
						{
							"indexed": true,
							"internalType": "uint256",
							"name": "gameSeq",
							"type": "uint256"
						},
						{
							"indexed": true,
							"internalType": "uint256",
							"name": "memberSeq",
							"type": "uint256"
						},
						{
							"indexed": false,
							"internalType": "uint256",
							"name": "newScore",
							"type": "uint256"
						}
					],
					"name": "RankScoreUpdateChallenge",
					"type": "event"
				},
				{
					"anonymous": false,
					"inputs": [
						{
							"indexed": true,
							"internalType": "uint256",
							"name": "yyyymmdd",
							"type": "uint256"
						},
						{
							"indexed": true,
							"internalType": "uint256",
							"name": "gameSeq",
							"type": "uint256"
						},
						{
							"indexed": true,
							"internalType": "uint256",
							"name": "memberSeq",
							"type": "uint256"
						},
						{
							"indexed": false,
							"internalType": "uint256",
							"name": "newScore",
							"type": "uint256"
						}
					],
					"name": "RankScoreUpdateNormal",
					"type": "event"
				},
				{
					"anonymous": false,
					"inputs": [
						{
							"indexed": true,
							"internalType": "bytes32",
							"name": "role",
							"type": "bytes32"
						},
						{
							"indexed": true,
							"internalType": "bytes32",
							"name": "previousAdminRole",
							"type": "bytes32"
						},
						{
							"indexed": true,
							"internalType": "bytes32",
							"name": "newAdminRole",
							"type": "bytes32"
						}
					],
					"name": "RoleAdminChanged",
					"type": "event"
				},
				{
					"anonymous": false,
					"inputs": [
						{
							"indexed": true,
							"internalType": "bytes32",
							"name": "role",
							"type": "bytes32"
						},
						{
							"indexed": true,
							"internalType": "address",
							"name": "account",
							"type": "address"
						},
						{
							"indexed": true,
							"internalType": "address",
							"name": "sender",
							"type": "address"
						}
					],
					"name": "RoleGranted",
					"type": "event"
				},
				{
					"anonymous": false,
					"inputs": [
						{
							"indexed": true,
							"internalType": "bytes32",
							"name": "role",
							"type": "bytes32"
						},
						{
							"indexed": true,
							"internalType": "address",
							"name": "account",
							"type": "address"
						},
						{
							"indexed": true,
							"internalType": "address",
							"name": "sender",
							"type": "address"
						}
					],
					"name": "RoleRevoked",
					"type": "event"
				},
				{
					"inputs": [],
					"name": "ADMIN_ROLE",
					"outputs": [
						{
							"internalType": "bytes32",
							"name": "",
							"type": "bytes32"
						}
					],
					"stateMutability": "view",
					"type": "function"
				},
				{
					"inputs": [],
					"name": "DEFAULT_ADMIN_ROLE",
					"outputs": [
						{
							"internalType": "bytes32",
							"name": "",
							"type": "bytes32"
						}
					],
					"stateMutability": "view",
					"type": "function"
				},
				{
					"inputs": [
						{
							"internalType": "uint256",
							"name": "yyyymmdd",
							"type": "uint256"
						},
						{
							"internalType": "uint256",
							"name": "gameSeq",
							"type": "uint256"
						},
						{
							"internalType": "uint256",
							"name": "memberSeq",
							"type": "uint256"
						},
						{
							"internalType": "uint256",
							"name": "tokenAmount",
							"type": "uint256"
						}
					],
					"name": "challengeRegister",
					"outputs": [],
					"stateMutability": "nonpayable",
					"type": "function"
				},
				{
					"inputs": [
						{
							"internalType": "uint256",
							"name": "",
							"type": "uint256"
						},
						{
							"internalType": "uint256",
							"name": "",
							"type": "uint256"
						},
						{
							"internalType": "uint256",
							"name": "",
							"type": "uint256"
						}
					],
					"name": "challengeScores",
					"outputs": [
						{
							"internalType": "uint256",
							"name": "gameSeq",
							"type": "uint256"
						},
						{
							"internalType": "uint256",
							"name": "memberSeq",
							"type": "uint256"
						},
						{
							"internalType": "uint256",
							"name": "tokenAmount",
							"type": "uint256"
						},
						{
							"internalType": "uint256",
							"name": "score",
							"type": "uint256"
						},
						{
							"internalType": "bool",
							"name": "exists",
							"type": "bool"
						}
					],
					"stateMutability": "view",
					"type": "function"
				},
				{
					"inputs": [
						{
							"internalType": "address[]",
							"name": "recipients",
							"type": "address[]"
						},
						{
							"internalType": "uint256[]",
							"name": "tokenAmounts",
							"type": "uint256[]"
						}
					],
					"name": "distributePrizes",
					"outputs": [],
					"stateMutability": "nonpayable",
					"type": "function"
				},
				{
					"inputs": [],
					"name": "entToken",
					"outputs": [
						{
							"internalType": "contract IERC20Mintable",
							"name": "",
							"type": "address"
						}
					],
					"stateMutability": "view",
					"type": "function"
				},
				{
					"inputs": [
						{
							"internalType": "uint256",
							"name": "yyyymmdd",
							"type": "uint256"
						},
						{
							"internalType": "uint256",
							"name": "gameSeq",
							"type": "uint256"
						},
						{
							"internalType": "uint256",
							"name": "memberSeq",
							"type": "uint256"
						}
					],
					"name": "getChallengeScore",
					"outputs": [
						{
							"components": [
								{
									"internalType": "uint256",
									"name": "gameSeq",
									"type": "uint256"
								},
								{
									"internalType": "uint256",
									"name": "memberSeq",
									"type": "uint256"
								},
								{
									"internalType": "uint256",
									"name": "tokenAmount",
									"type": "uint256"
								},
								{
									"internalType": "uint256",
									"name": "score",
									"type": "uint256"
								},
								{
									"internalType": "bool",
									"name": "exists",
									"type": "bool"
								}
							],
							"internalType": "struct TikTrixEscrow.ChallengeScore",
							"name": "",
							"type": "tuple"
						}
					],
					"stateMutability": "view",
					"type": "function"
				},
				{
					"inputs": [
						{
							"internalType": "uint256",
							"name": "memberSeq",
							"type": "uint256"
						}
					],
					"name": "getMemberInfo",
					"outputs": [
						{
							"components": [
								{
									"internalType": "uint256",
									"name": "memberSeq",
									"type": "uint256"
								}
							],
							"internalType": "struct TikTrixEscrow.MemberInfo",
							"name": "",
							"type": "tuple"
						}
					],
					"stateMutability": "view",
					"type": "function"
				},
				{
					"inputs": [
						{
							"internalType": "bytes32",
							"name": "role",
							"type": "bytes32"
						}
					],
					"name": "getRoleAdmin",
					"outputs": [
						{
							"internalType": "bytes32",
							"name": "",
							"type": "bytes32"
						}
					],
					"stateMutability": "view",
					"type": "function"
				},
				{
					"inputs": [
						{
							"internalType": "address",
							"name": "account",
							"type": "address"
						}
					],
					"name": "grantAdminRole",
					"outputs": [],
					"stateMutability": "nonpayable",
					"type": "function"
				},
				{
					"inputs": [
						{
							"internalType": "bytes32",
							"name": "role",
							"type": "bytes32"
						},
						{
							"internalType": "address",
							"name": "account",
							"type": "address"
						}
					],
					"name": "grantRole",
					"outputs": [],
					"stateMutability": "nonpayable",
					"type": "function"
				},
				{
					"inputs": [
						{
							"internalType": "bytes32",
							"name": "role",
							"type": "bytes32"
						},
						{
							"internalType": "address",
							"name": "account",
							"type": "address"
						}
					],
					"name": "hasRole",
					"outputs": [
						{
							"internalType": "bool",
							"name": "",
							"type": "bool"
						}
					],
					"stateMutability": "view",
					"type": "function"
				},
				{
					"inputs": [
						{
							"internalType": "uint256",
							"name": "",
							"type": "uint256"
						}
					],
					"name": "memberIds",
					"outputs": [
						{
							"internalType": "uint256",
							"name": "",
							"type": "uint256"
						}
					],
					"stateMutability": "view",
					"type": "function"
				},
				{
					"inputs": [
						{
							"internalType": "uint256",
							"name": "",
							"type": "uint256"
						}
					],
					"name": "memberInfos",
					"outputs": [
						{
							"internalType": "uint256",
							"name": "memberSeq",
							"type": "uint256"
						}
					],
					"stateMutability": "view",
					"type": "function"
				},
				{
					"inputs": [
						{
							"internalType": "uint256",
							"name": "memberSeq",
							"type": "uint256"
						},
						{
							"internalType": "address",
							"name": "mintAddress",
							"type": "address"
						},
						{
							"internalType": "uint256",
							"name": "tokenAmount",
							"type": "uint256"
						}
					],
					"name": "memberRegister",
					"outputs": [],
					"stateMutability": "nonpayable",
					"type": "function"
				},
				{
					"inputs": [
						{
							"internalType": "uint256",
							"name": "yyyymmdd",
							"type": "uint256"
						},
						{
							"internalType": "uint256",
							"name": "gameSeq",
							"type": "uint256"
						},
						{
							"internalType": "uint256",
							"name": "memberSeq",
							"type": "uint256"
						},
						{
							"internalType": "uint256",
							"name": "newScore",
							"type": "uint256"
						}
					],
					"name": "rankScoreUpdateChallenge",
					"outputs": [],
					"stateMutability": "nonpayable",
					"type": "function"
				},
				{
					"inputs": [
						{
							"internalType": "uint256",
							"name": "yyyymmdd",
							"type": "uint256"
						},
						{
							"internalType": "uint256",
							"name": "gameSeq",
							"type": "uint256"
						},
						{
							"internalType": "uint256",
							"name": "memberSeq",
							"type": "uint256"
						},
						{
							"internalType": "uint256",
							"name": "newScore",
							"type": "uint256"
						}
					],
					"name": "rankScoreUpdateNormal",
					"outputs": [],
					"stateMutability": "nonpayable",
					"type": "function"
				},
				{
					"inputs": [
						{
							"internalType": "bytes32",
							"name": "role",
							"type": "bytes32"
						},
						{
							"internalType": "address",
							"name": "account",
							"type": "address"
						}
					],
					"name": "renounceRole",
					"outputs": [],
					"stateMutability": "nonpayable",
					"type": "function"
				},
				{
					"inputs": [
						{
							"internalType": "address",
							"name": "account",
							"type": "address"
						}
					],
					"name": "revokeAdminRole",
					"outputs": [],
					"stateMutability": "nonpayable",
					"type": "function"
				},
				{
					"inputs": [
						{
							"internalType": "bytes32",
							"name": "role",
							"type": "bytes32"
						},
						{
							"internalType": "address",
							"name": "account",
							"type": "address"
						}
					],
					"name": "revokeRole",
					"outputs": [],
					"stateMutability": "nonpayable",
					"type": "function"
				},
				{
					"inputs": [],
					"name": "rptToken",
					"outputs": [
						{
							"internalType": "contract IERC20Mintable",
							"name": "",
							"type": "address"
						}
					],
					"stateMutability": "view",
					"type": "function"
				},
				{
					"inputs": [
						{
							"internalType": "address",
							"name": "entTokenAddress",
							"type": "address"
						},
						{
							"internalType": "address",
							"name": "rptTokenAddress",
							"type": "address"
						}
					],
					"name": "setTokens",
					"outputs": [],
					"stateMutability": "nonpayable",
					"type": "function"
				},
				{
					"inputs": [
						{
							"internalType": "bytes4",
							"name": "interfaceId",
							"type": "bytes4"
						}
					],
					"name": "supportsInterface",
					"outputs": [
						{
							"internalType": "bool",
							"name": "",
							"type": "bool"
						}
					],
					"stateMutability": "view",
					"type": "function"
				}
			],
			"devdoc": {
				"events": {
					"RoleAdminChanged(bytes32,bytes32,bytes32)": {
						"details": "Emitted when `newAdminRole` is set as ``role``'s admin role, replacing `previousAdminRole` `DEFAULT_ADMIN_ROLE` is the starting admin for all roles, despite {RoleAdminChanged} not being emitted signaling this. _Available since v3.1._"
					},
					"RoleGranted(bytes32,address,address)": {
						"details": "Emitted when `account` is granted `role`. `sender` is the account that originated the contract call, an admin role bearer except when using {AccessControl-_setupRole}."
					},
					"RoleRevoked(bytes32,address,address)": {
						"details": "Emitted when `account` is revoked `role`. `sender` is the account that originated the contract call:   - if using `revokeRole`, it is the admin role bearer   - if using `renounceRole`, it is the role bearer (i.e. `account`)"
					}
				},
				"kind": "dev",
				"methods": {
					"getRoleAdmin(bytes32)": {
						"details": "Returns the admin role that controls `role`. See {grantRole} and {revokeRole}. To change a role's admin, use {_setRoleAdmin}."
					},
					"grantRole(bytes32,address)": {
						"details": "Grants `role` to `account`. If `account` had not been already granted `role`, emits a {RoleGranted} event. Requirements: - the caller must have ``role``'s admin role. May emit a {RoleGranted} event."
					},
					"hasRole(bytes32,address)": {
						"details": "Returns `true` if `account` has been granted `role`."
					},
					"renounceRole(bytes32,address)": {
						"details": "Revokes `role` from the calling account. Roles are often managed via {grantRole} and {revokeRole}: this function's purpose is to provide a mechanism for accounts to lose their privileges if they are compromised (such as when a trusted device is misplaced). If the calling account had been revoked `role`, emits a {RoleRevoked} event. Requirements: - the caller must be `account`. May emit a {RoleRevoked} event."
					},
					"revokeRole(bytes32,address)": {
						"details": "Revokes `role` from `account`. If `account` had been granted `role`, emits a {RoleRevoked} event. Requirements: - the caller must have ``role``'s admin role. May emit a {RoleRevoked} event."
					},
					"supportsInterface(bytes4)": {
						"details": "See {IERC165-supportsInterface}."
					}
				},
				"version": 1
			},
			"evm": {
				"assembly": "    /* \"contracts/v2/TikTrixEscrow.sol\":428:5667  contract TikTrixEscrow is AccessControl {... */\n  mstore(0x40, 0x80)\n    /* \"contracts/v2/TikTrixEscrow.sol\":1598:1867  constructor(address entTokenAddress, address rptTokenAddress) {... */\n  callvalue\n  dup1\n  iszero\n  tag_1\n  jumpi\n  0x00\n  dup1\n  revert\ntag_1:\n  pop\n  mload(0x40)\n  sub(codesize, bytecodeSize)\n  dup1\n  bytecodeSize\n  dup4\n  codecopy\n  dup2\n  dup2\n  add\n  0x40\n  mstore\n  dup2\n  add\n  swap1\n  tag_2\n  swap2\n  swap1\n  tag_3\n  jump\t// in\ntag_2:\n    /* \"contracts/v2/TikTrixEscrow.sol\":1696:1711  entTokenAddress */\n  dup2\n    /* \"contracts/v2/TikTrixEscrow.sol\":1670:1678  entToken */\n  0x01\n  0x00\n    /* \"contracts/v2/TikTrixEscrow.sol\":1670:1712  entToken = IERC20Mintable(entTokenAddress) */\n  0x0100\n  exp\n  dup2\n  sload\n  dup2\n  0xffffffffffffffffffffffffffffffffffffffff\n  mul\n  not\n  and\n  swap1\n  dup4\n  0xffffffffffffffffffffffffffffffffffffffff\n  and\n  mul\n  or\n  swap1\n  sstore\n  pop\n    /* \"contracts/v2/TikTrixEscrow.sol\":1748:1763  rptTokenAddress */\n  dup1\n    /* \"contracts/v2/TikTrixEscrow.sol\":1722:1730  rptToken */\n  0x02\n  0x00\n    /* \"contracts/v2/TikTrixEscrow.sol\":1722:1764  rptToken = IERC20Mintable(rptTokenAddress) */\n  0x0100\n  exp\n  dup2\n  sload\n  dup2\n  0xffffffffffffffffffffffffffffffffffffffff\n  mul\n  not\n  and\n  swap1\n  dup4\n  0xffffffffffffffffffffffffffffffffffffffff\n  and\n  mul\n  or\n  swap1\n  sstore\n  pop\n    /* \"contracts/v2/TikTrixEscrow.sol\":1774:1816  _setupRole(DEFAULT_ADMIN_ROLE, msg.sender) */\n  tag_6\n    /* \"https://github.com/OpenZeppelin/openzeppelin-contracts/blob/v4.8.0/contracts/access/AccessControl.sol\":2072:2076  0x00 */\n  0x00\n    /* \"contracts/v2/TikTrixEscrow.sol\":1785:1803  DEFAULT_ADMIN_ROLE */\n  dup1\n  shl\n    /* \"contracts/v2/TikTrixEscrow.sol\":1805:1815  msg.sender */\n  caller\n    /* \"contracts/v2/TikTrixEscrow.sol\":1774:1784  _setupRole */\n  shl(0x20, tag_7)\n    /* \"contracts/v2/TikTrixEscrow.sol\":1774:1816  _setupRole(DEFAULT_ADMIN_ROLE, msg.sender) */\n  0x20\n  shr\n  jump\t// in\ntag_6:\n    /* \"contracts/v2/TikTrixEscrow.sol\":1826:1860  _setupRole(ADMIN_ROLE, msg.sender) */\n  tag_8\n    /* \"contracts/v2/TikTrixEscrow.sol\":511:534  keccak256(\"ADMIN_ROLE\") */\n  0xa49807205ce4d355092ef5a8a18f56e8913cf4a201fbe287825b095693c21775\n    /* \"contracts/v2/TikTrixEscrow.sol\":1849:1859  msg.sender */\n  caller\n    /* \"contracts/v2/TikTrixEscrow.sol\":1826:1836  _setupRole */\n  shl(0x20, tag_7)\n    /* \"contracts/v2/TikTrixEscrow.sol\":1826:1860  _setupRole(ADMIN_ROLE, msg.sender) */\n  0x20\n  shr\n  jump\t// in\ntag_8:\n    /* \"contracts/v2/TikTrixEscrow.sol\":1598:1867  constructor(address entTokenAddress, address rptTokenAddress) {... */\n  pop\n  pop\n    /* \"contracts/v2/TikTrixEscrow.sol\":428:5667  contract TikTrixEscrow is AccessControl {... */\n  jump(tag_9)\n    /* \"https://github.com/OpenZeppelin/openzeppelin-contracts/blob/v4.8.0/contracts/access/AccessControl.sol\":6811:6921  function _setupRole(bytes32 role, address account) internal virtual {... */\ntag_7:\n    /* \"https://github.com/OpenZeppelin/openzeppelin-contracts/blob/v4.8.0/contracts/access/AccessControl.sol\":6889:6914  _grantRole(role, account) */\n  tag_11\n    /* \"https://github.com/OpenZeppelin/openzeppelin-contracts/blob/v4.8.0/contracts/access/AccessControl.sol\":6900:6904  role */\n  dup3\n    /* \"https://github.com/OpenZeppelin/openzeppelin-contracts/blob/v4.8.0/contracts/access/AccessControl.sol\":6906:6913  account */\n  dup3\n    /* \"https://github.com/OpenZeppelin/openzeppelin-contracts/blob/v4.8.0/contracts/access/AccessControl.sol\":6889:6899  _grantRole */\n  shl(0x20, tag_12)\n    /* \"https://github.com/OpenZeppelin/openzeppelin-contracts/blob/v4.8.0/contracts/access/AccessControl.sol\":6889:6914  _grantRole(role, account) */\n  0x20\n  shr\n  jump\t// in\ntag_11:\n    /* \"https://github.com/OpenZeppelin/openzeppelin-contracts/blob/v4.8.0/contracts/access/AccessControl.sol\":6811:6921  function _setupRole(bytes32 role, address account) internal virtual {... */\n  pop\n  pop\n  jump\t// out\n    /* \"https://github.com/OpenZeppelin/openzeppelin-contracts/blob/v4.8.0/contracts/access/AccessControl.sol\":7461:7694  function _grantRole(bytes32 role, address account) internal virtual {... */\ntag_12:\n    /* \"https://github.com/OpenZeppelin/openzeppelin-contracts/blob/v4.8.0/contracts/access/AccessControl.sol\":7544:7566  hasRole(role, account) */\n  tag_14\n    /* \"https://github.com/OpenZeppelin/openzeppelin-contracts/blob/v4.8.0/contracts/access/AccessControl.sol\":7552:7556  role */\n  dup3\n    /* \"https://github.com/OpenZeppelin/openzeppelin-contracts/blob/v4.8.0/contracts/access/AccessControl.sol\":7558:7565  account */\n  dup3\n    /* \"https://github.com/OpenZeppelin/openzeppelin-contracts/blob/v4.8.0/contracts/access/AccessControl.sol\":7544:7551  hasRole */\n  shl(0x20, tag_15)\n    /* \"https://github.com/OpenZeppelin/openzeppelin-contracts/blob/v4.8.0/contracts/access/AccessControl.sol\":7544:7566  hasRole(role, account) */\n  0x20\n  shr\n  jump\t// in\ntag_14:\n    /* \"https://github.com/OpenZeppelin/openzeppelin-contracts/blob/v4.8.0/contracts/access/AccessControl.sol\":7539:7688  if (!hasRole(role, account)) {... */\n  tag_16\n  jumpi\n    /* \"https://github.com/OpenZeppelin/openzeppelin-contracts/blob/v4.8.0/contracts/access/AccessControl.sol\":7614:7618  true */\n  0x01\n    /* \"https://github.com/OpenZeppelin/openzeppelin-contracts/blob/v4.8.0/contracts/access/AccessControl.sol\":7582:7588  _roles */\n  0x00\n    /* \"https://github.com/OpenZeppelin/openzeppelin-contracts/blob/v4.8.0/contracts/access/AccessControl.sol\":7582:7594  _roles[role] */\n  dup1\n    /* \"https://github.com/OpenZeppelin/openzeppelin-contracts/blob/v4.8.0/contracts/access/AccessControl.sol\":7589:7593  role */\n  dup5\n    /* \"https://github.com/OpenZeppelin/openzeppelin-contracts/blob/v4.8.0/contracts/access/AccessControl.sol\":7582:7594  _roles[role] */\n  dup2\n  mstore\n  0x20\n  add\n  swap1\n  dup2\n  mstore\n  0x20\n  add\n  0x00\n  keccak256\n    /* \"https://github.com/OpenZeppelin/openzeppelin-contracts/blob/v4.8.0/contracts/access/AccessControl.sol\":7582:7602  _roles[role].members */\n  0x00\n  add\n    /* \"https://github.com/OpenZeppelin/openzeppelin-contracts/blob/v4.8.0/contracts/access/AccessControl.sol\":7582:7611  _roles[role].members[account] */\n  0x00\n    /* \"https://github.com/OpenZeppelin/openzeppelin-contracts/blob/v4.8.0/contracts/access/AccessControl.sol\":7603:7610  account */\n  dup4\n    /* \"https://github.com/OpenZeppelin/openzeppelin-contracts/blob/v4.8.0/contracts/access/AccessControl.sol\":7582:7611  _roles[role].members[account] */\n  0xffffffffffffffffffffffffffffffffffffffff\n  and\n  0xffffffffffffffffffffffffffffffffffffffff\n  and\n  dup2\n  mstore\n  0x20\n  add\n  swap1\n  dup2\n  mstore\n  0x20\n  add\n  0x00\n  keccak256\n  0x00\n    /* \"https://github.com/OpenZeppelin/openzeppelin-contracts/blob/v4.8.0/contracts/access/AccessControl.sol\":7582:7618  _roles[role].members[account] = true */\n  0x0100\n  exp\n  dup2\n  sload\n  dup2\n  0xff\n  mul\n  not\n  and\n  swap1\n  dup4\n  iszero\n  iszero\n  mul\n  or\n  swap1\n  sstore\n  pop\n    /* \"https://github.com/OpenZeppelin/openzeppelin-contracts/blob/v4.8.0/contracts/access/AccessControl.sol\":7664:7676  _msgSender() */\n  tag_17\n    /* \"https://github.com/OpenZeppelin/openzeppelin-contracts/blob/v4.8.0/contracts/access/AccessControl.sol\":7664:7674  _msgSender */\n  shl(0x20, tag_18)\n    /* \"https://github.com/OpenZeppelin/openzeppelin-contracts/blob/v4.8.0/contracts/access/AccessControl.sol\":7664:7676  _msgSender() */\n  0x20\n  shr\n  jump\t// in\ntag_17:\n    /* \"https://github.com/OpenZeppelin/openzeppelin-contracts/blob/v4.8.0/contracts/access/AccessControl.sol\":7637:7677  RoleGranted(role, account, _msgSender()) */\n  0xffffffffffffffffffffffffffffffffffffffff\n  and\n    /* \"https://github.com/OpenZeppelin/openzeppelin-contracts/blob/v4.8.0/contracts/access/AccessControl.sol\":7655:7662  account */\n  dup2\n    /* \"https://github.com/OpenZeppelin/openzeppelin-contracts/blob/v4.8.0/contracts/access/AccessControl.sol\":7637:7677  RoleGranted(role, account, _msgSender()) */\n  0xffffffffffffffffffffffffffffffffffffffff\n  and\n    /* \"https://github.com/OpenZeppelin/openzeppelin-contracts/blob/v4.8.0/contracts/access/AccessControl.sol\":7649:7653  role */\n  dup4\n    /* \"https://github.com/OpenZeppelin/openzeppelin-contracts/blob/v4.8.0/contracts/access/AccessControl.sol\":7637:7677  RoleGranted(role, account, _msgSender()) */\n  0x2f8788117e7eff1d82e926ec794901d17c78024a50270940304540a733656f0d\n  mload(0x40)\n  mload(0x40)\n  dup1\n  swap2\n  sub\n  swap1\n  log4\n    /* \"https://github.com/OpenZeppelin/openzeppelin-contracts/blob/v4.8.0/contracts/access/AccessControl.sol\":7539:7688  if (!hasRole(role, account)) {... */\ntag_16:\n    /* \"https://github.com/OpenZeppelin/openzeppelin-contracts/blob/v4.8.0/contracts/access/AccessControl.sol\":7461:7694  function _grantRole(bytes32 role, address account) internal virtual {... */\n  pop\n  pop\n  jump\t// out\n    /* \"https://github.com/OpenZeppelin/openzeppelin-contracts/blob/v4.8.0/contracts/access/AccessControl.sol\":2895:3040  function hasRole(bytes32 role, address account) public view virtual override returns (bool) {... */\ntag_15:\n    /* \"https://github.com/OpenZeppelin/openzeppelin-contracts/blob/v4.8.0/contracts/access/AccessControl.sol\":2981:2985  bool */\n  0x00\n    /* \"https://github.com/OpenZeppelin/openzeppelin-contracts/blob/v4.8.0/contracts/access/AccessControl.sol\":3004:3010  _roles */\n  dup1\n    /* \"https://github.com/OpenZeppelin/openzeppelin-contracts/blob/v4.8.0/contracts/access/AccessControl.sol\":3004:3016  _roles[role] */\n  0x00\n    /* \"https://github.com/OpenZeppelin/openzeppelin-contracts/blob/v4.8.0/contracts/access/AccessControl.sol\":3011:3015  role */\n  dup5\n    /* \"https://github.com/OpenZeppelin/openzeppelin-contracts/blob/v4.8.0/contracts/access/AccessControl.sol\":3004:3016  _roles[role] */\n  dup2\n  mstore\n  0x20\n  add\n  swap1\n  dup2\n  mstore\n  0x20\n  add\n  0x00\n  keccak256\n    /* \"https://github.com/OpenZeppelin/openzeppelin-contracts/blob/v4.8.0/contracts/access/AccessControl.sol\":3004:3024  _roles[role].members */\n  0x00\n  add\n    /* \"https://github.com/OpenZeppelin/openzeppelin-contracts/blob/v4.8.0/contracts/access/AccessControl.sol\":3004:3033  _roles[role].members[account] */\n  0x00\n    /* \"https://github.com/OpenZeppelin/openzeppelin-contracts/blob/v4.8.0/contracts/access/AccessControl.sol\":3025:3032  account */\n  dup4\n    /* \"https://github.com/OpenZeppelin/openzeppelin-contracts/blob/v4.8.0/contracts/access/AccessControl.sol\":3004:3033  _roles[role].members[account] */\n  0xffffffffffffffffffffffffffffffffffffffff\n  and\n  0xffffffffffffffffffffffffffffffffffffffff\n  and\n  dup2\n  mstore\n  0x20\n  add\n  swap1\n  dup2\n  mstore\n  0x20\n  add\n  0x00\n  keccak256\n  0x00\n  swap1\n  sload\n  swap1\n  0x0100\n  exp\n  swap1\n  div\n  0xff\n  and\n    /* \"https://github.com/OpenZeppelin/openzeppelin-contracts/blob/v4.8.0/contracts/access/AccessControl.sol\":2997:3033  return _roles[role].members[account] */\n  swap1\n  pop\n    /* \"https://github.com/OpenZeppelin/openzeppelin-contracts/blob/v4.8.0/contracts/access/AccessControl.sol\":2895:3040  function hasRole(bytes32 role, address account) public view virtual override returns (bool) {... */\n  swap3\n  swap2\n  pop\n  pop\n  jump\t// out\n    /* \"https://github.com/OpenZeppelin/openzeppelin-contracts/blob/v4.8.0/contracts/utils/Context.sol\":640:736  function _msgSender() internal view virtual returns (address) {... */\ntag_18:\n    /* \"https://github.com/OpenZeppelin/openzeppelin-contracts/blob/v4.8.0/contracts/utils/Context.sol\":693:700  address */\n  0x00\n    /* \"https://github.com/OpenZeppelin/openzeppelin-contracts/blob/v4.8.0/contracts/utils/Context.sol\":719:729  msg.sender */\n  caller\n    /* \"https://github.com/OpenZeppelin/openzeppelin-contracts/blob/v4.8.0/contracts/utils/Context.sol\":712:729  return msg.sender */\n  swap1\n  pop\n    /* \"https://github.com/OpenZeppelin/openzeppelin-contracts/blob/v4.8.0/contracts/utils/Context.sol\":640:736  function _msgSender() internal view virtual returns (address) {... */\n  swap1\n  jump\t// out\n    /* \"#utility.yul\":88:205   */\ntag_22:\n    /* \"#utility.yul\":197:198   */\n  0x00\n    /* \"#utility.yul\":194:195   */\n  dup1\n    /* \"#utility.yul\":187:199   */\n  revert\n    /* \"#utility.yul\":334:460   */\ntag_24:\n    /* \"#utility.yul\":371:378   */\n  0x00\n    /* \"#utility.yul\":411:453   */\n  0xffffffffffffffffffffffffffffffffffffffff\n    /* \"#utility.yul\":404:409   */\n  dup3\n    /* \"#utility.yul\":400:454   */\n  and\n    /* \"#utility.yul\":389:454   */\n  swap1\n  pop\n    /* \"#utility.yul\":334:460   */\n  swap2\n  swap1\n  pop\n  jump\t// out\n    /* \"#utility.yul\":466:562   */\ntag_25:\n    /* \"#utility.yul\":503:510   */\n  0x00\n    /* \"#utility.yul\":532:556   */\n  tag_34\n    /* \"#utility.yul\":550:555   */\n  dup3\n    /* \"#utility.yul\":532:556   */\n  tag_24\n  jump\t// in\ntag_34:\n    /* \"#utility.yul\":521:556   */\n  swap1\n  pop\n    /* \"#utility.yul\":466:562   */\n  swap2\n  swap1\n  pop\n  jump\t// out\n    /* \"#utility.yul\":568:690   */\ntag_26:\n    /* \"#utility.yul\":641:665   */\n  tag_36\n    /* \"#utility.yul\":659:664   */\n  dup2\n    /* \"#utility.yul\":641:665   */\n  tag_25\n  jump\t// in\ntag_36:\n    /* \"#utility.yul\":634:639   */\n  dup2\n    /* \"#utility.yul\":631:666   */\n  eq\n    /* \"#utility.yul\":621:684   */\n  tag_37\n  jumpi\n    /* \"#utility.yul\":680:681   */\n  0x00\n    /* \"#utility.yul\":677:678   */\n  dup1\n    /* \"#utility.yul\":670:682   */\n  revert\n    /* \"#utility.yul\":621:684   */\ntag_37:\n    /* \"#utility.yul\":568:690   */\n  pop\n  jump\t// out\n    /* \"#utility.yul\":696:839   */\ntag_27:\n    /* \"#utility.yul\":753:758   */\n  0x00\n    /* \"#utility.yul\":784:790   */\n  dup2\n    /* \"#utility.yul\":778:791   */\n  mload\n    /* \"#utility.yul\":769:791   */\n  swap1\n  pop\n    /* \"#utility.yul\":800:833   */\n  tag_39\n    /* \"#utility.yul\":827:832   */\n  dup2\n    /* \"#utility.yul\":800:833   */\n  tag_26\n  jump\t// in\ntag_39:\n    /* \"#utility.yul\":696:839   */\n  swap3\n  swap2\n  pop\n  pop\n  jump\t// out\n    /* \"#utility.yul\":845:1352   */\ntag_3:\n    /* \"#utility.yul\":924:930   */\n  0x00\n    /* \"#utility.yul\":932:938   */\n  dup1\n    /* \"#utility.yul\":981:983   */\n  0x40\n    /* \"#utility.yul\":969:978   */\n  dup4\n    /* \"#utility.yul\":960:967   */\n  dup6\n    /* \"#utility.yul\":956:979   */\n  sub\n    /* \"#utility.yul\":952:984   */\n  slt\n    /* \"#utility.yul\":949:1068   */\n  iszero\n  tag_41\n  jumpi\n    /* \"#utility.yul\":987:1066   */\n  tag_42\n  tag_22\n  jump\t// in\ntag_42:\n    /* \"#utility.yul\":949:1068   */\ntag_41:\n    /* \"#utility.yul\":1107:1108   */\n  0x00\n    /* \"#utility.yul\":1132:1196   */\n  tag_43\n    /* \"#utility.yul\":1188:1195   */\n  dup6\n    /* \"#utility.yul\":1179:1185   */\n  dup3\n    /* \"#utility.yul\":1168:1177   */\n  dup7\n    /* \"#utility.yul\":1164:1186   */\n  add\n    /* \"#utility.yul\":1132:1196   */\n  tag_27\n  jump\t// in\ntag_43:\n    /* \"#utility.yul\":1122:1196   */\n  swap3\n  pop\n    /* \"#utility.yul\":1078:1206   */\n  pop\n    /* \"#utility.yul\":1245:1247   */\n  0x20\n    /* \"#utility.yul\":1271:1335   */\n  tag_44\n    /* \"#utility.yul\":1327:1334   */\n  dup6\n    /* \"#utility.yul\":1318:1324   */\n  dup3\n    /* \"#utility.yul\":1307:1316   */\n  dup7\n    /* \"#utility.yul\":1303:1325   */\n  add\n    /* \"#utility.yul\":1271:1335   */\n  tag_27\n  jump\t// in\ntag_44:\n    /* \"#utility.yul\":1261:1335   */\n  swap2\n  pop\n    /* \"#utility.yul\":1216:1345   */\n  pop\n    /* \"#utility.yul\":845:1352   */\n  swap3\n  pop\n  swap3\n  swap1\n  pop\n  jump\t// out\n    /* \"contracts/v2/TikTrixEscrow.sol\":428:5667  contract TikTrixEscrow is AccessControl {... */\ntag_9:\n  dataSize(sub_0)\n  dup1\n  dataOffset(sub_0)\n  0x00\n  codecopy\n  0x00\n  return\nstop\n\nsub_0: assembly {\n        /* \"contracts/v2/TikTrixEscrow.sol\":428:5667  contract TikTrixEscrow is AccessControl {... */\n      mstore(0x40, 0x80)\n      callvalue\n      dup1\n      iszero\n      tag_1\n      jumpi\n      0x00\n      dup1\n      revert\n    tag_1:\n      pop\n      jumpi(tag_2, lt(calldatasize, 0x04))\n      shr(0xe0, calldataload(0x00))\n      dup1\n      0x9a19c7b0\n      gt\n      tag_26\n      jumpi\n      dup1\n      0xc634b78e\n      gt\n      tag_27\n      jumpi\n      dup1\n      0xc634b78e\n      eq\n      tag_20\n      jumpi\n      dup1\n      0xca1c996f\n      eq\n      tag_21\n      jumpi\n      dup1\n      0xcbc7854e\n      eq\n      tag_22\n      jumpi\n      dup1\n      0xd547741f\n      eq\n      tag_23\n      jumpi\n      dup1\n      0xdd0c8082\n      eq\n      tag_24\n      jumpi\n      dup1\n      0xdd7d2b9f\n      eq\n      tag_25\n      jumpi\n      jump(tag_2)\n    tag_27:\n      dup1\n      0x9a19c7b0\n      eq\n      tag_14\n      jumpi\n      dup1\n      0xa217fddf\n      eq\n      tag_15\n      jumpi\n      dup1\n      0xae99aa3c\n      eq\n      tag_16\n      jumpi\n      dup1\n      0xaea08734\n      eq\n      tag_17\n      jumpi\n      dup1\n      0xb5b0e48a\n      eq\n      tag_18\n      jumpi\n      dup1\n      0xbb10ab0f\n      eq\n      tag_19\n      jumpi\n      jump(tag_2)\n    tag_26:\n      dup1\n      0x355b9d3f\n      gt\n      tag_28\n      jumpi\n      dup1\n      0x355b9d3f\n      eq\n      tag_8\n      jumpi\n      dup1\n      0x36568abe\n      eq\n      tag_9\n      jumpi\n      dup1\n      0x406a378a\n      eq\n      tag_10\n      jumpi\n      dup1\n      0x75b238fc\n      eq\n      tag_11\n      jumpi\n      dup1\n      0x8525ea16\n      eq\n      tag_12\n      jumpi\n      dup1\n      0x91d14854\n      eq\n      tag_13\n      jumpi\n      jump(tag_2)\n    tag_28:\n      dup1\n      0x01ffc9a7\n      eq\n      tag_3\n      jumpi\n      dup1\n      0x1b72fa3a\n      eq\n      tag_4\n      jumpi\n      dup1\n      0x1fd3c85b\n      eq\n      tag_5\n      jumpi\n      dup1\n      0x248a9ca3\n      eq\n      tag_6\n      jumpi\n      dup1\n      0x2f2ff15d\n      eq\n      tag_7\n      jumpi\n    tag_2:\n      0x00\n      dup1\n      revert\n        /* \"https://github.com/OpenZeppelin/openzeppelin-contracts/blob/v4.8.0/contracts/access/AccessControl.sol\":2606:2808  function supportsInterface(bytes4 interfaceId) public view virtual override returns (bool) {... */\n    tag_3:\n      tag_29\n      0x04\n      dup1\n      calldatasize\n      sub\n      dup2\n      add\n      swap1\n      tag_30\n      swap2\n      swap1\n      tag_31\n      jump\t// in\n    tag_30:\n      tag_32\n      jump\t// in\n    tag_29:\n      mload(0x40)\n      tag_33\n      swap2\n      swap1\n      tag_34\n      jump\t// in\n    tag_33:\n      mload(0x40)\n      dup1\n      swap2\n      sub\n      swap1\n      return\n        /* \"contracts/v2/TikTrixEscrow.sol\":577:607  IERC20Mintable public rptToken */\n    tag_4:\n      tag_35\n      tag_36\n      jump\t// in\n    tag_35:\n      mload(0x40)\n      tag_37\n      swap2\n      swap1\n      tag_38\n      jump\t// in\n    tag_37:\n      mload(0x40)\n      dup1\n      swap2\n      sub\n      swap1\n      return\n        /* \"contracts/v2/TikTrixEscrow.sol\":887:913  uint256[] public memberIds */\n    tag_5:\n      tag_39\n      0x04\n      dup1\n      calldatasize\n      sub\n      dup2\n      add\n      swap1\n      tag_40\n      swap2\n      swap1\n      tag_41\n      jump\t// in\n    tag_40:\n      tag_42\n      jump\t// in\n    tag_39:\n      mload(0x40)\n      tag_43\n      swap2\n      swap1\n      tag_44\n      jump\t// in\n    tag_43:\n      mload(0x40)\n      dup1\n      swap2\n      sub\n      swap1\n      return\n        /* \"https://github.com/OpenZeppelin/openzeppelin-contracts/blob/v4.8.0/contracts/access/AccessControl.sol\":4378:4507  function getRoleAdmin(bytes32 role) public view virtual override returns (bytes32) {... */\n    tag_6:\n      tag_45\n      0x04\n      dup1\n      calldatasize\n      sub\n      dup2\n      add\n      swap1\n      tag_46\n      swap2\n      swap1\n      tag_47\n      jump\t// in\n    tag_46:\n      tag_48\n      jump\t// in\n    tag_45:\n      mload(0x40)\n      tag_49\n      swap2\n      swap1\n      tag_50\n      jump\t// in\n    tag_49:\n      mload(0x40)\n      dup1\n      swap2\n      sub\n      swap1\n      return\n        /* \"https://github.com/OpenZeppelin/openzeppelin-contracts/blob/v4.8.0/contracts/access/AccessControl.sol\":4803:4948  function grantRole(bytes32 role, address account) public virtual override onlyRole(getRoleAdmin(role)) {... */\n    tag_7:\n      tag_51\n      0x04\n      dup1\n      calldatasize\n      sub\n      dup2\n      add\n      swap1\n      tag_52\n      swap2\n      swap1\n      tag_53\n      jump\t// in\n    tag_52:\n      tag_54\n      jump\t// in\n    tag_51:\n      stop\n        /* \"contracts/v2/TikTrixEscrow.sol\":960:1057  mapping(uint256 => mapping(uint256 => mapping(uint256 => ChallengeScore))) public challengeScores */\n    tag_8:\n      tag_55\n      0x04\n      dup1\n      calldatasize\n      sub\n      dup2\n      add\n      swap1\n      tag_56\n      swap2\n      swap1\n      tag_57\n      jump\t// in\n    tag_56:\n      tag_58\n      jump\t// in\n    tag_55:\n      mload(0x40)\n      tag_59\n      swap6\n      swap5\n      swap4\n      swap3\n      swap2\n      swap1\n      tag_60\n      jump\t// in\n    tag_59:\n      mload(0x40)\n      dup1\n      swap2\n      sub\n      swap1\n      return\n        /* \"https://github.com/OpenZeppelin/openzeppelin-contracts/blob/v4.8.0/contracts/access/AccessControl.sol\":5912:6126  function renounceRole(bytes32 role, address account) public virtual override {... */\n    tag_9:\n      tag_61\n      0x04\n      dup1\n      calldatasize\n      sub\n      dup2\n      add\n      swap1\n      tag_62\n      swap2\n      swap1\n      tag_53\n      jump\t// in\n    tag_62:\n      tag_63\n      jump\t// in\n    tag_61:\n      stop\n        /* \"contracts/v2/TikTrixEscrow.sol\":4589:5141  function distributePrizes(address[] calldata recipients, uint256[] calldata tokenAmounts) external onlyRole(ADMIN_ROLE) {... */\n    tag_10:\n      tag_64\n      0x04\n      dup1\n      calldatasize\n      sub\n      dup2\n      add\n      swap1\n      tag_65\n      swap2\n      swap1\n      tag_66\n      jump\t// in\n    tag_65:\n      tag_67\n      jump\t// in\n    tag_64:\n      stop\n        /* \"contracts/v2/TikTrixEscrow.sol\":474:534  bytes32 public constant ADMIN_ROLE = keccak256(\"ADMIN_ROLE\") */\n    tag_11:\n      tag_68\n      tag_69\n      jump\t// in\n    tag_68:\n      mload(0x40)\n      tag_70\n      swap2\n      swap1\n      tag_50\n      jump\t// in\n    tag_70:\n      mload(0x40)\n      dup1\n      swap2\n      sub\n      swap1\n      return\n        /* \"contracts/v2/TikTrixEscrow.sol\":3790:4052  function rankScoreUpdateNormal(... */\n    tag_12:\n      tag_71\n      0x04\n      dup1\n      calldatasize\n      sub\n      dup2\n      add\n      swap1\n      tag_72\n      swap2\n      swap1\n      tag_73\n      jump\t// in\n    tag_72:\n      tag_74\n      jump\t// in\n    tag_71:\n      stop\n        /* \"https://github.com/OpenZeppelin/openzeppelin-contracts/blob/v4.8.0/contracts/access/AccessControl.sol\":2895:3040  function hasRole(bytes32 role, address account) public view virtual override returns (bool) {... */\n    tag_13:\n      tag_75\n      0x04\n      dup1\n      calldatasize\n      sub\n      dup2\n      add\n      swap1\n      tag_76\n      swap2\n      swap1\n      tag_53\n      jump\t// in\n    tag_76:\n      tag_77\n      jump\t// in\n    tag_75:\n      mload(0x40)\n      tag_78\n      swap2\n      swap1\n      tag_34\n      jump\t// in\n    tag_78:\n      mload(0x40)\n      dup1\n      swap2\n      sub\n      swap1\n      return\n        /* \"contracts/v2/TikTrixEscrow.sol\":2003:2129  function revokeAdminRole(address account) public onlyRole(DEFAULT_ADMIN_ROLE) {... */\n    tag_14:\n      tag_79\n      0x04\n      dup1\n      calldatasize\n      sub\n      dup2\n      add\n      swap1\n      tag_80\n      swap2\n      swap1\n      tag_81\n      jump\t// in\n    tag_80:\n      tag_82\n      jump\t// in\n    tag_79:\n      stop\n        /* \"https://github.com/OpenZeppelin/openzeppelin-contracts/blob/v4.8.0/contracts/access/AccessControl.sol\":2027:2076  bytes32 public constant DEFAULT_ADMIN_ROLE = 0x00 */\n    tag_15:\n      tag_83\n      tag_84\n      jump\t// in\n    tag_83:\n      mload(0x40)\n      tag_85\n      swap2\n      swap1\n      tag_50\n      jump\t// in\n    tag_85:\n      mload(0x40)\n      dup1\n      swap2\n      sub\n      swap1\n      return\n        /* \"contracts/v2/TikTrixEscrow.sol\":5147:5357  function getMemberInfo(uint256 memberSeq) external view returns (MemberInfo memory) {... */\n    tag_16:\n      tag_86\n      0x04\n      dup1\n      calldatasize\n      sub\n      dup2\n      add\n      swap1\n      tag_87\n      swap2\n      swap1\n      tag_41\n      jump\t// in\n    tag_87:\n      tag_88\n      jump\t// in\n    tag_86:\n      mload(0x40)\n      tag_89\n      swap2\n      swap1\n      tag_90\n      jump\t// in\n    tag_89:\n      mload(0x40)\n      dup1\n      swap2\n      sub\n      swap1\n      return\n        /* \"contracts/v2/TikTrixEscrow.sol\":2351:2791  function memberRegister(uint256 memberSeq, address mintAddress, uint256 tokenAmount) external onlyRole(ADMIN_ROLE) {... */\n    tag_17:\n      tag_91\n      0x04\n      dup1\n      calldatasize\n      sub\n      dup2\n      add\n      swap1\n      tag_92\n      swap2\n      swap1\n      tag_93\n      jump\t// in\n    tag_92:\n      tag_94\n      jump\t// in\n    tag_91:\n      stop\n        /* \"contracts/v2/TikTrixEscrow.sol\":5363:5664  function getChallengeScore(uint256 yyyymmdd, uint256 gameSeq, uint256 memberSeq) external view returns (ChallengeScore memory) {... */\n    tag_18:\n      tag_95\n      0x04\n      dup1\n      calldatasize\n      sub\n      dup2\n      add\n      swap1\n      tag_96\n      swap2\n      swap1\n      tag_57\n      jump\t// in\n    tag_96:\n      tag_97\n      jump\t// in\n    tag_95:\n      mload(0x40)\n      tag_98\n      swap2\n      swap1\n      tag_99\n      jump\t// in\n    tag_98:\n      mload(0x40)\n      dup1\n      swap2\n      sub\n      swap1\n      return\n        /* \"contracts/v2/TikTrixEscrow.sol\":832:881  mapping(uint256 => MemberInfo) public memberInfos */\n    tag_19:\n      tag_100\n      0x04\n      dup1\n      calldatasize\n      sub\n      dup2\n      add\n      swap1\n      tag_101\n      swap2\n      swap1\n      tag_41\n      jump\t// in\n    tag_101:\n      tag_102\n      jump\t// in\n    tag_100:\n      mload(0x40)\n      tag_103\n      swap2\n      swap1\n      tag_44\n      jump\t// in\n    tag_103:\n      mload(0x40)\n      dup1\n      swap2\n      sub\n      swap1\n      return\n        /* \"contracts/v2/TikTrixEscrow.sol\":1873:1997  function grantAdminRole(address account) public onlyRole(DEFAULT_ADMIN_ROLE) {... */\n    tag_20:\n      tag_104\n      0x04\n      dup1\n      calldatasize\n      sub\n      dup2\n      add\n      swap1\n      tag_105\n      swap2\n      swap1\n      tag_81\n      jump\t// in\n    tag_105:\n      tag_106\n      jump\t// in\n    tag_104:\n      stop\n        /* \"contracts/v2/TikTrixEscrow.sol\":2797:3784  function challengeRegister(... */\n    tag_21:\n      tag_107\n      0x04\n      dup1\n      calldatasize\n      sub\n      dup2\n      add\n      swap1\n      tag_108\n      swap2\n      swap1\n      tag_73\n      jump\t// in\n    tag_108:\n      tag_109\n      jump\t// in\n    tag_107:\n      stop\n        /* \"contracts/v2/TikTrixEscrow.sol\":2135:2345  function setTokens(address entTokenAddress, address rptTokenAddress) external onlyRole(ADMIN_ROLE) {... */\n    tag_22:\n      tag_110\n      0x04\n      dup1\n      calldatasize\n      sub\n      dup2\n      add\n      swap1\n      tag_111\n      swap2\n      swap1\n      tag_112\n      jump\t// in\n    tag_111:\n      tag_113\n      jump\t// in\n    tag_110:\n      stop\n        /* \"https://github.com/OpenZeppelin/openzeppelin-contracts/blob/v4.8.0/contracts/access/AccessControl.sol\":5228:5375  function revokeRole(bytes32 role, address account) public virtual override onlyRole(getRoleAdmin(role)) {... */\n    tag_23:\n      tag_114\n      0x04\n      dup1\n      calldatasize\n      sub\n      dup2\n      add\n      swap1\n      tag_115\n      swap2\n      swap1\n      tag_53\n      jump\t// in\n    tag_115:\n      tag_116\n      jump\t// in\n    tag_114:\n      stop\n        /* \"contracts/v2/TikTrixEscrow.sol\":541:571  IERC20Mintable public entToken */\n    tag_24:\n      tag_117\n      tag_118\n      jump\t// in\n    tag_117:\n      mload(0x40)\n      tag_119\n      swap2\n      swap1\n      tag_38\n      jump\t// in\n    tag_119:\n      mload(0x40)\n      dup1\n      swap2\n      sub\n      swap1\n      return\n        /* \"contracts/v2/TikTrixEscrow.sol\":4058:4583  function rankScoreUpdateChallenge(... */\n    tag_25:\n      tag_120\n      0x04\n      dup1\n      calldatasize\n      sub\n      dup2\n      add\n      swap1\n      tag_121\n      swap2\n      swap1\n      tag_73\n      jump\t// in\n    tag_121:\n      tag_122\n      jump\t// in\n    tag_120:\n      stop\n        /* \"https://github.com/OpenZeppelin/openzeppelin-contracts/blob/v4.8.0/contracts/access/AccessControl.sol\":2606:2808  function supportsInterface(bytes4 interfaceId) public view virtual override returns (bool) {... */\n    tag_32:\n        /* \"https://github.com/OpenZeppelin/openzeppelin-contracts/blob/v4.8.0/contracts/access/AccessControl.sol\":2691:2695  bool */\n      0x00\n        /* \"https://github.com/OpenZeppelin/openzeppelin-contracts/blob/v4.8.0/contracts/access/AccessControl.sol\":2729:2761  type(IAccessControl).interfaceId */\n      0x7965db0b00000000000000000000000000000000000000000000000000000000\n        /* \"https://github.com/OpenZeppelin/openzeppelin-contracts/blob/v4.8.0/contracts/access/AccessControl.sol\":2714:2761  interfaceId == type(IAccessControl).interfaceId */\n      not(0xffffffffffffffffffffffffffffffffffffffffffffffffffffffff)\n      and\n        /* \"https://github.com/OpenZeppelin/openzeppelin-contracts/blob/v4.8.0/contracts/access/AccessControl.sol\":2714:2725  interfaceId */\n      dup3\n        /* \"https://github.com/OpenZeppelin/openzeppelin-contracts/blob/v4.8.0/contracts/access/AccessControl.sol\":2714:2761  interfaceId == type(IAccessControl).interfaceId */\n      not(0xffffffffffffffffffffffffffffffffffffffffffffffffffffffff)\n      and\n      eq\n        /* \"https://github.com/OpenZeppelin/openzeppelin-contracts/blob/v4.8.0/contracts/access/AccessControl.sol\":2714:2801  interfaceId == type(IAccessControl).interfaceId || super.supportsInterface(interfaceId) */\n      dup1\n      tag_124\n      jumpi\n      pop\n        /* \"https://github.com/OpenZeppelin/openzeppelin-contracts/blob/v4.8.0/contracts/access/AccessControl.sol\":2765:2801  super.supportsInterface(interfaceId) */\n      tag_125\n        /* \"https://github.com/OpenZeppelin/openzeppelin-contracts/blob/v4.8.0/contracts/access/AccessControl.sol\":2789:2800  interfaceId */\n      dup3\n        /* \"https://github.com/OpenZeppelin/openzeppelin-contracts/blob/v4.8.0/contracts/access/AccessControl.sol\":2765:2788  super.supportsInterface */\n      tag_126\n        /* \"https://github.com/OpenZeppelin/openzeppelin-contracts/blob/v4.8.0/contracts/access/AccessControl.sol\":2765:2801  super.supportsInterface(interfaceId) */\n      jump\t// in\n    tag_125:\n        /* \"https://github.com/OpenZeppelin/openzeppelin-contracts/blob/v4.8.0/contracts/access/AccessControl.sol\":2714:2801  interfaceId == type(IAccessControl).interfaceId || super.supportsInterface(interfaceId) */\n    tag_124:\n        /* \"https://github.com/OpenZeppelin/openzeppelin-contracts/blob/v4.8.0/contracts/access/AccessControl.sol\":2707:2801  return interfaceId == type(IAccessControl).interfaceId || super.supportsInterface(interfaceId) */\n      swap1\n      pop\n        /* \"https://github.com/OpenZeppelin/openzeppelin-contracts/blob/v4.8.0/contracts/access/AccessControl.sol\":2606:2808  function supportsInterface(bytes4 interfaceId) public view virtual override returns (bool) {... */\n      swap2\n      swap1\n      pop\n      jump\t// out\n        /* \"contracts/v2/TikTrixEscrow.sol\":577:607  IERC20Mintable public rptToken */\n    tag_36:\n      0x02\n      0x00\n      swap1\n      sload\n      swap1\n      0x0100\n      exp\n      swap1\n      div\n      0xffffffffffffffffffffffffffffffffffffffff\n      and\n      dup2\n      jump\t// out\n        /* \"contracts/v2/TikTrixEscrow.sol\":887:913  uint256[] public memberIds */\n    tag_42:\n      0x04\n      dup2\n      dup2\n      sload\n      dup2\n      lt\n      tag_127\n      jumpi\n      0x00\n      dup1\n      revert\n    tag_127:\n      swap1\n      0x00\n      mstore\n      keccak256(0x00, 0x20)\n      add\n      0x00\n      swap2\n      pop\n      swap1\n      pop\n      sload\n      dup2\n      jump\t// out\n        /* \"https://github.com/OpenZeppelin/openzeppelin-contracts/blob/v4.8.0/contracts/access/AccessControl.sol\":4378:4507  function getRoleAdmin(bytes32 role) public view virtual override returns (bytes32) {... */\n    tag_48:\n        /* \"https://github.com/OpenZeppelin/openzeppelin-contracts/blob/v4.8.0/contracts/access/AccessControl.sol\":4452:4459  bytes32 */\n      0x00\n        /* \"https://github.com/OpenZeppelin/openzeppelin-contracts/blob/v4.8.0/contracts/access/AccessControl.sol\":4478:4484  _roles */\n      dup1\n        /* \"https://github.com/OpenZeppelin/openzeppelin-contracts/blob/v4.8.0/contracts/access/AccessControl.sol\":4478:4490  _roles[role] */\n      0x00\n        /* \"https://github.com/OpenZeppelin/openzeppelin-contracts/blob/v4.8.0/contracts/access/AccessControl.sol\":4485:4489  role */\n      dup4\n        /* \"https://github.com/OpenZeppelin/openzeppelin-contracts/blob/v4.8.0/contracts/access/AccessControl.sol\":4478:4490  _roles[role] */\n      dup2\n      mstore\n      0x20\n      add\n      swap1\n      dup2\n      mstore\n      0x20\n      add\n      0x00\n      keccak256\n        /* \"https://github.com/OpenZeppelin/openzeppelin-contracts/blob/v4.8.0/contracts/access/AccessControl.sol\":4478:4500  _roles[role].adminRole */\n      0x01\n      add\n      sload\n        /* \"https://github.com/OpenZeppelin/openzeppelin-contracts/blob/v4.8.0/contracts/access/AccessControl.sol\":4471:4500  return _roles[role].adminRole */\n      swap1\n      pop\n        /* \"https://github.com/OpenZeppelin/openzeppelin-contracts/blob/v4.8.0/contracts/access/AccessControl.sol\":4378:4507  function getRoleAdmin(bytes32 role) public view virtual override returns (bytes32) {... */\n      swap2\n      swap1\n      pop\n      jump\t// out\n        /* \"https://github.com/OpenZeppelin/openzeppelin-contracts/blob/v4.8.0/contracts/access/AccessControl.sol\":4803:4948  function grantRole(bytes32 role, address account) public virtual override onlyRole(getRoleAdmin(role)) {... */\n    tag_54:\n        /* \"https://github.com/OpenZeppelin/openzeppelin-contracts/blob/v4.8.0/contracts/access/AccessControl.sol\":4886:4904  getRoleAdmin(role) */\n      tag_130\n        /* \"https://github.com/OpenZeppelin/openzeppelin-contracts/blob/v4.8.0/contracts/access/AccessControl.sol\":4899:4903  role */\n      dup3\n        /* \"https://github.com/OpenZeppelin/openzeppelin-contracts/blob/v4.8.0/contracts/access/AccessControl.sol\":4886:4898  getRoleAdmin */\n      tag_48\n        /* \"https://github.com/OpenZeppelin/openzeppelin-contracts/blob/v4.8.0/contracts/access/AccessControl.sol\":4886:4904  getRoleAdmin(role) */\n      jump\t// in\n    tag_130:\n        /* \"https://github.com/OpenZeppelin/openzeppelin-contracts/blob/v4.8.0/contracts/access/AccessControl.sol\":2505:2521  _checkRole(role) */\n      tag_132\n        /* \"https://github.com/OpenZeppelin/openzeppelin-contracts/blob/v4.8.0/contracts/access/AccessControl.sol\":2516:2520  role */\n      dup2\n        /* \"https://github.com/OpenZeppelin/openzeppelin-contracts/blob/v4.8.0/contracts/access/AccessControl.sol\":2505:2515  _checkRole */\n      tag_133\n        /* \"https://github.com/OpenZeppelin/openzeppelin-contracts/blob/v4.8.0/contracts/access/AccessControl.sol\":2505:2521  _checkRole(role) */\n      jump\t// in\n    tag_132:\n        /* \"https://github.com/OpenZeppelin/openzeppelin-contracts/blob/v4.8.0/contracts/access/AccessControl.sol\":4916:4941  _grantRole(role, account) */\n      tag_135\n        /* \"https://github.com/OpenZeppelin/openzeppelin-contracts/blob/v4.8.0/contracts/access/AccessControl.sol\":4927:4931  role */\n      dup4\n        /* \"https://github.com/OpenZeppelin/openzeppelin-contracts/blob/v4.8.0/contracts/access/AccessControl.sol\":4933:4940  account */\n      dup4\n        /* \"https://github.com/OpenZeppelin/openzeppelin-contracts/blob/v4.8.0/contracts/access/AccessControl.sol\":4916:4926  _grantRole */\n      tag_136\n        /* \"https://github.com/OpenZeppelin/openzeppelin-contracts/blob/v4.8.0/contracts/access/AccessControl.sol\":4916:4941  _grantRole(role, account) */\n      jump\t// in\n    tag_135:\n        /* \"https://github.com/OpenZeppelin/openzeppelin-contracts/blob/v4.8.0/contracts/access/AccessControl.sol\":4803:4948  function grantRole(bytes32 role, address account) public virtual override onlyRole(getRoleAdmin(role)) {... */\n      pop\n      pop\n      pop\n      jump\t// out\n        /* \"contracts/v2/TikTrixEscrow.sol\":960:1057  mapping(uint256 => mapping(uint256 => mapping(uint256 => ChallengeScore))) public challengeScores */\n    tag_58:\n      mstore(0x20, 0x05)\n      dup3\n      0x00\n      mstore\n      mstore(0x20, keccak256(0x00, 0x40))\n      dup2\n      0x00\n      mstore\n      mstore(0x20, keccak256(0x00, 0x40))\n      dup1\n      0x00\n      mstore\n      keccak256(0x00, 0x40)\n      0x00\n      swap3\n      pop\n      swap3\n      pop\n      pop\n      pop\n      dup1\n      0x00\n      add\n      sload\n      swap1\n      dup1\n      0x01\n      add\n      sload\n      swap1\n      dup1\n      0x02\n      add\n      sload\n      swap1\n      dup1\n      0x03\n      add\n      sload\n      swap1\n      dup1\n      0x04\n      add\n      0x00\n      swap1\n      sload\n      swap1\n      0x0100\n      exp\n      swap1\n      div\n      0xff\n      and\n      swap1\n      pop\n      dup6\n      jump\t// out\n        /* \"https://github.com/OpenZeppelin/openzeppelin-contracts/blob/v4.8.0/contracts/access/AccessControl.sol\":5912:6126  function renounceRole(bytes32 role, address account) public virtual override {... */\n    tag_63:\n        /* \"https://github.com/OpenZeppelin/openzeppelin-contracts/blob/v4.8.0/contracts/access/AccessControl.sol\":6018:6030  _msgSender() */\n      tag_138\n        /* \"https://github.com/OpenZeppelin/openzeppelin-contracts/blob/v4.8.0/contracts/access/AccessControl.sol\":6018:6028  _msgSender */\n      tag_139\n        /* \"https://github.com/OpenZeppelin/openzeppelin-contracts/blob/v4.8.0/contracts/access/AccessControl.sol\":6018:6030  _msgSender() */\n      jump\t// in\n    tag_138:\n        /* \"https://github.com/OpenZeppelin/openzeppelin-contracts/blob/v4.8.0/contracts/access/AccessControl.sol\":6007:6030  account == _msgSender() */\n      0xffffffffffffffffffffffffffffffffffffffff\n      and\n        /* \"https://github.com/OpenZeppelin/openzeppelin-contracts/blob/v4.8.0/contracts/access/AccessControl.sol\":6007:6014  account */\n      dup2\n        /* \"https://github.com/OpenZeppelin/openzeppelin-contracts/blob/v4.8.0/contracts/access/AccessControl.sol\":6007:6030  account == _msgSender() */\n      0xffffffffffffffffffffffffffffffffffffffff\n      and\n      eq\n        /* \"https://github.com/OpenZeppelin/openzeppelin-contracts/blob/v4.8.0/contracts/access/AccessControl.sol\":5999:6082  require(account == _msgSender(), \"AccessControl: can only renounce roles for self\") */\n      tag_140\n      jumpi\n      mload(0x40)\n      0x08c379a000000000000000000000000000000000000000000000000000000000\n      dup2\n      mstore\n      0x04\n      add\n      tag_141\n      swap1\n      tag_142\n      jump\t// in\n    tag_141:\n      mload(0x40)\n      dup1\n      swap2\n      sub\n      swap1\n      revert\n    tag_140:\n        /* \"https://github.com/OpenZeppelin/openzeppelin-contracts/blob/v4.8.0/contracts/access/AccessControl.sol\":6093:6119  _revokeRole(role, account) */\n      tag_143\n        /* \"https://github.com/OpenZeppelin/openzeppelin-contracts/blob/v4.8.0/contracts/access/AccessControl.sol\":6105:6109  role */\n      dup3\n        /* \"https://github.com/OpenZeppelin/openzeppelin-contracts/blob/v4.8.0/contracts/access/AccessControl.sol\":6111:6118  account */\n      dup3\n        /* \"https://github.com/OpenZeppelin/openzeppelin-contracts/blob/v4.8.0/contracts/access/AccessControl.sol\":6093:6104  _revokeRole */\n      tag_144\n        /* \"https://github.com/OpenZeppelin/openzeppelin-contracts/blob/v4.8.0/contracts/access/AccessControl.sol\":6093:6119  _revokeRole(role, account) */\n      jump\t// in\n    tag_143:\n        /* \"https://github.com/OpenZeppelin/openzeppelin-contracts/blob/v4.8.0/contracts/access/AccessControl.sol\":5912:6126  function renounceRole(bytes32 role, address account) public virtual override {... */\n      pop\n      pop\n      jump\t// out\n        /* \"contracts/v2/TikTrixEscrow.sol\":4589:5141  function distributePrizes(address[] calldata recipients, uint256[] calldata tokenAmounts) external onlyRole(ADMIN_ROLE) {... */\n    tag_67:\n        /* \"contracts/v2/TikTrixEscrow.sol\":511:534  keccak256(\"ADMIN_ROLE\") */\n      0xa49807205ce4d355092ef5a8a18f56e8913cf4a201fbe287825b095693c21775\n        /* \"https://github.com/OpenZeppelin/openzeppelin-contracts/blob/v4.8.0/contracts/access/AccessControl.sol\":2505:2521  _checkRole(role) */\n      tag_146\n        /* \"https://github.com/OpenZeppelin/openzeppelin-contracts/blob/v4.8.0/contracts/access/AccessControl.sol\":2516:2520  role */\n      dup2\n        /* \"https://github.com/OpenZeppelin/openzeppelin-contracts/blob/v4.8.0/contracts/access/AccessControl.sol\":2505:2515  _checkRole */\n      tag_133\n        /* \"https://github.com/OpenZeppelin/openzeppelin-contracts/blob/v4.8.0/contracts/access/AccessControl.sol\":2505:2521  _checkRole(role) */\n      jump\t// in\n    tag_146:\n        /* \"contracts/v2/TikTrixEscrow.sol\":4748:4760  tokenAmounts */\n      dup3\n      dup3\n        /* \"contracts/v2/TikTrixEscrow.sol\":4748:4767  tokenAmounts.length */\n      swap1\n      pop\n        /* \"contracts/v2/TikTrixEscrow.sol\":4727:4737  recipients */\n      dup6\n      dup6\n        /* \"contracts/v2/TikTrixEscrow.sol\":4727:4744  recipients.length */\n      swap1\n      pop\n        /* \"contracts/v2/TikTrixEscrow.sol\":4727:4767  recipients.length == tokenAmounts.length */\n      eq\n        /* \"contracts/v2/TikTrixEscrow.sol\":4719:4816  require(recipients.length == tokenAmounts.length, \"Recipients and token amounts length mismatch\") */\n      tag_148\n      jumpi\n      mload(0x40)\n      0x08c379a000000000000000000000000000000000000000000000000000000000\n      dup2\n      mstore\n      0x04\n      add\n      tag_149\n      swap1\n      tag_150\n      jump\t// in\n    tag_149:\n      mload(0x40)\n      dup1\n      swap2\n      sub\n      swap1\n      revert\n    tag_148:\n        /* \"contracts/v2/TikTrixEscrow.sol\":4832:4841  uint256 i */\n      0x00\n        /* \"contracts/v2/TikTrixEscrow.sol\":4827:5076  for (uint256 i = 0; i < recipients.length; i++) {... */\n    tag_151:\n        /* \"contracts/v2/TikTrixEscrow.sol\":4851:4861  recipients */\n      dup6\n      dup6\n        /* \"contracts/v2/TikTrixEscrow.sol\":4851:4868  recipients.length */\n      swap1\n      pop\n        /* \"contracts/v2/TikTrixEscrow.sol\":4847:4848  i */\n      dup2\n        /* \"contracts/v2/TikTrixEscrow.sol\":4847:4868  i < recipients.length */\n      lt\n        /* \"contracts/v2/TikTrixEscrow.sol\":4827:5076  for (uint256 i = 0; i < recipients.length; i++) {... */\n      iszero\n      tag_152\n      jumpi\n        /* \"contracts/v2/TikTrixEscrow.sol\":4893:4901  rptToken */\n      0x02\n      0x00\n      swap1\n      sload\n      swap1\n      0x0100\n      exp\n      swap1\n      div\n      0xffffffffffffffffffffffffffffffffffffffff\n      and\n        /* \"contracts/v2/TikTrixEscrow.sol\":4893:4906  rptToken.mint */\n      0xffffffffffffffffffffffffffffffffffffffff\n      and\n      0x40c10f19\n        /* \"contracts/v2/TikTrixEscrow.sol\":4907:4917  recipients */\n      dup8\n      dup8\n        /* \"contracts/v2/TikTrixEscrow.sol\":4918:4919  i */\n      dup5\n        /* \"contracts/v2/TikTrixEscrow.sol\":4907:4920  recipients[i] */\n      dup2\n      dup2\n      lt\n      tag_154\n      jumpi\n      tag_155\n      tag_156\n      jump\t// in\n    tag_155:\n    tag_154:\n      swap1\n      pop\n      0x20\n      mul\n      add\n      0x20\n      dup2\n      add\n      swap1\n      tag_157\n      swap2\n      swap1\n      tag_81\n      jump\t// in\n    tag_157:\n        /* \"contracts/v2/TikTrixEscrow.sol\":4922:4934  tokenAmounts */\n      dup7\n      dup7\n        /* \"contracts/v2/TikTrixEscrow.sol\":4935:4936  i */\n      dup6\n        /* \"contracts/v2/TikTrixEscrow.sol\":4922:4937  tokenAmounts[i] */\n      dup2\n      dup2\n      lt\n      tag_158\n      jumpi\n      tag_159\n      tag_156\n      jump\t// in\n    tag_159:\n    tag_158:\n      swap1\n      pop\n      0x20\n      mul\n      add\n      calldataload\n        /* \"contracts/v2/TikTrixEscrow.sol\":4893:4938  rptToken.mint(recipients[i], tokenAmounts[i]) */\n      mload(0x40)\n      dup4\n      0xffffffff\n      and\n      0xe0\n      shl\n      dup2\n      mstore\n      0x04\n      add\n      tag_160\n      swap3\n      swap2\n      swap1\n      tag_161\n      jump\t// in\n    tag_160:\n      0x00\n      mload(0x40)\n      dup1\n      dup4\n      sub\n      dup2\n      0x00\n      dup8\n      dup1\n      extcodesize\n      iszero\n      dup1\n      iszero\n      tag_162\n      jumpi\n      0x00\n      dup1\n      revert\n    tag_162:\n      pop\n      gas\n      call\n      swap3\n      pop\n      pop\n      pop\n      dup1\n      iszero\n      tag_163\n      jumpi\n      pop\n      0x01\n    tag_163:\n        /* \"contracts/v2/TikTrixEscrow.sol\":4889:5066  try rptToken.mint(recipients[i], tokenAmounts[i]) {... */\n      tag_164\n      jumpi\n        /* \"contracts/v2/TikTrixEscrow.sol\":5013:5051  revert(\"Minting failed for recipient\") */\n      mload(0x40)\n      0x08c379a000000000000000000000000000000000000000000000000000000000\n      dup2\n      mstore\n      0x04\n      add\n      tag_168\n      swap1\n      tag_169\n      jump\t// in\n    tag_168:\n      mload(0x40)\n      dup1\n      swap2\n      sub\n      swap1\n      revert\n        /* \"contracts/v2/TikTrixEscrow.sol\":4889:5066  try rptToken.mint(recipients[i], tokenAmounts[i]) {... */\n    tag_164:\n        /* \"contracts/v2/TikTrixEscrow.sol\":4870:4873  i++ */\n      dup1\n      dup1\n      0x01\n      add\n      swap2\n      pop\n      pop\n        /* \"contracts/v2/TikTrixEscrow.sol\":4827:5076  for (uint256 i = 0; i < recipients.length; i++) {... */\n      jump(tag_151)\n    tag_152:\n      pop\n        /* \"contracts/v2/TikTrixEscrow.sol\":5091:5134  PrizesDistributed(recipients, tokenAmounts) */\n      0xfa3b7284ecb3a03e8f238b69b61f5645294c15019ea509bd4aaee604d60fdc34\n        /* \"contracts/v2/TikTrixEscrow.sol\":5109:5119  recipients */\n      dup6\n      dup6\n        /* \"contracts/v2/TikTrixEscrow.sol\":5121:5133  tokenAmounts */\n      dup6\n      dup6\n        /* \"contracts/v2/TikTrixEscrow.sol\":5091:5134  PrizesDistributed(recipients, tokenAmounts) */\n      mload(0x40)\n      tag_171\n      swap5\n      swap4\n      swap3\n      swap2\n      swap1\n      tag_172\n      jump\t// in\n    tag_171:\n      mload(0x40)\n      dup1\n      swap2\n      sub\n      swap1\n      log1\n        /* \"contracts/v2/TikTrixEscrow.sol\":4589:5141  function distributePrizes(address[] calldata recipients, uint256[] calldata tokenAmounts) external onlyRole(ADMIN_ROLE) {... */\n      pop\n      pop\n      pop\n      pop\n      pop\n      jump\t// out\n        /* \"contracts/v2/TikTrixEscrow.sol\":474:534  bytes32 public constant ADMIN_ROLE = keccak256(\"ADMIN_ROLE\") */\n    tag_69:\n        /* \"contracts/v2/TikTrixEscrow.sol\":511:534  keccak256(\"ADMIN_ROLE\") */\n      0xa49807205ce4d355092ef5a8a18f56e8913cf4a201fbe287825b095693c21775\n        /* \"contracts/v2/TikTrixEscrow.sol\":474:534  bytes32 public constant ADMIN_ROLE = keccak256(\"ADMIN_ROLE\") */\n      dup2\n      jump\t// out\n        /* \"contracts/v2/TikTrixEscrow.sol\":3790:4052  function rankScoreUpdateNormal(... */\n    tag_74:\n        /* \"contracts/v2/TikTrixEscrow.sol\":511:534  keccak256(\"ADMIN_ROLE\") */\n      0xa49807205ce4d355092ef5a8a18f56e8913cf4a201fbe287825b095693c21775\n        /* \"https://github.com/OpenZeppelin/openzeppelin-contracts/blob/v4.8.0/contracts/access/AccessControl.sol\":2505:2521  _checkRole(role) */\n      tag_174\n        /* \"https://github.com/OpenZeppelin/openzeppelin-contracts/blob/v4.8.0/contracts/access/AccessControl.sol\":2516:2520  role */\n      dup2\n        /* \"https://github.com/OpenZeppelin/openzeppelin-contracts/blob/v4.8.0/contracts/access/AccessControl.sol\":2505:2515  _checkRole */\n      tag_133\n        /* \"https://github.com/OpenZeppelin/openzeppelin-contracts/blob/v4.8.0/contracts/access/AccessControl.sol\":2505:2521  _checkRole(role) */\n      jump\t// in\n    tag_174:\n        /* \"contracts/v2/TikTrixEscrow.sol\":4025:4034  memberSeq */\n      dup3\n        /* \"contracts/v2/TikTrixEscrow.sol\":4016:4023  gameSeq */\n      dup5\n        /* \"contracts/v2/TikTrixEscrow.sol\":4006:4014  yyyymmdd */\n      dup7\n        /* \"contracts/v2/TikTrixEscrow.sol\":3984:4045  RankScoreUpdateNormal(yyyymmdd, gameSeq, memberSeq, newScore) */\n      0x056253fe63ca8b57ba2974cd5dd75f8d5f4f4bc99e0798022a4773599cbfc362\n        /* \"contracts/v2/TikTrixEscrow.sol\":4036:4044  newScore */\n      dup6\n        /* \"contracts/v2/TikTrixEscrow.sol\":3984:4045  RankScoreUpdateNormal(yyyymmdd, gameSeq, memberSeq, newScore) */\n      mload(0x40)\n      tag_176\n      swap2\n      swap1\n      tag_44\n      jump\t// in\n    tag_176:\n      mload(0x40)\n      dup1\n      swap2\n      sub\n      swap1\n      log4\n        /* \"contracts/v2/TikTrixEscrow.sol\":3790:4052  function rankScoreUpdateNormal(... */\n      pop\n      pop\n      pop\n      pop\n      pop\n      jump\t// out\n        /* \"https://github.com/OpenZeppelin/openzeppelin-contracts/blob/v4.8.0/contracts/access/AccessControl.sol\":2895:3040  function hasRole(bytes32 role, address account) public view virtual override returns (bool) {... */\n    tag_77:\n        /* \"https://github.com/OpenZeppelin/openzeppelin-contracts/blob/v4.8.0/contracts/access/AccessControl.sol\":2981:2985  bool */\n      0x00\n        /* \"https://github.com/OpenZeppelin/openzeppelin-contracts/blob/v4.8.0/contracts/access/AccessControl.sol\":3004:3010  _roles */\n      dup1\n        /* \"https://github.com/OpenZeppelin/openzeppelin-contracts/blob/v4.8.0/contracts/access/AccessControl.sol\":3004:3016  _roles[role] */\n      0x00\n        /* \"https://github.com/OpenZeppelin/openzeppelin-contracts/blob/v4.8.0/contracts/access/AccessControl.sol\":3011:3015  role */\n      dup5\n        /* \"https://github.com/OpenZeppelin/openzeppelin-contracts/blob/v4.8.0/contracts/access/AccessControl.sol\":3004:3016  _roles[role] */\n      dup2\n      mstore\n      0x20\n      add\n      swap1\n      dup2\n      mstore\n      0x20\n      add\n      0x00\n      keccak256\n        /* \"https://github.com/OpenZeppelin/openzeppelin-contracts/blob/v4.8.0/contracts/access/AccessControl.sol\":3004:3024  _roles[role].members */\n      0x00\n      add\n        /* \"https://github.com/OpenZeppelin/openzeppelin-contracts/blob/v4.8.0/contracts/access/AccessControl.sol\":3004:3033  _roles[role].members[account] */\n      0x00\n        /* \"https://github.com/OpenZeppelin/openzeppelin-contracts/blob/v4.8.0/contracts/access/AccessControl.sol\":3025:3032  account */\n      dup4\n        /* \"https://github.com/OpenZeppelin/openzeppelin-contracts/blob/v4.8.0/contracts/access/AccessControl.sol\":3004:3033  _roles[role].members[account] */\n      0xffffffffffffffffffffffffffffffffffffffff\n      and\n      0xffffffffffffffffffffffffffffffffffffffff\n      and\n      dup2\n      mstore\n      0x20\n      add\n      swap1\n      dup2\n      mstore\n      0x20\n      add\n      0x00\n      keccak256\n      0x00\n      swap1\n      sload\n      swap1\n      0x0100\n      exp\n      swap1\n      div\n      0xff\n      and\n        /* \"https://github.com/OpenZeppelin/openzeppelin-contracts/blob/v4.8.0/contracts/access/AccessControl.sol\":2997:3033  return _roles[role].members[account] */\n      swap1\n      pop\n        /* \"https://github.com/OpenZeppelin/openzeppelin-contracts/blob/v4.8.0/contracts/access/AccessControl.sol\":2895:3040  function hasRole(bytes32 role, address account) public view virtual override returns (bool) {... */\n      swap3\n      swap2\n      pop\n      pop\n      jump\t// out\n        /* \"contracts/v2/TikTrixEscrow.sol\":2003:2129  function revokeAdminRole(address account) public onlyRole(DEFAULT_ADMIN_ROLE) {... */\n    tag_82:\n        /* \"https://github.com/OpenZeppelin/openzeppelin-contracts/blob/v4.8.0/contracts/access/AccessControl.sol\":2072:2076  0x00 */\n      0x00\n        /* \"contracts/v2/TikTrixEscrow.sol\":2061:2079  DEFAULT_ADMIN_ROLE */\n      dup1\n      shl\n        /* \"https://github.com/OpenZeppelin/openzeppelin-contracts/blob/v4.8.0/contracts/access/AccessControl.sol\":2505:2521  _checkRole(role) */\n      tag_179\n        /* \"https://github.com/OpenZeppelin/openzeppelin-contracts/blob/v4.8.0/contracts/access/AccessControl.sol\":2516:2520  role */\n      dup2\n        /* \"https://github.com/OpenZeppelin/openzeppelin-contracts/blob/v4.8.0/contracts/access/AccessControl.sol\":2505:2515  _checkRole */\n      tag_133\n        /* \"https://github.com/OpenZeppelin/openzeppelin-contracts/blob/v4.8.0/contracts/access/AccessControl.sol\":2505:2521  _checkRole(role) */\n      jump\t// in\n    tag_179:\n        /* \"contracts/v2/TikTrixEscrow.sol\":2091:2122  revokeRole(ADMIN_ROLE, account) */\n      tag_181\n        /* \"contracts/v2/TikTrixEscrow.sol\":511:534  keccak256(\"ADMIN_ROLE\") */\n      0xa49807205ce4d355092ef5a8a18f56e8913cf4a201fbe287825b095693c21775\n        /* \"contracts/v2/TikTrixEscrow.sol\":2114:2121  account */\n      dup4\n        /* \"contracts/v2/TikTrixEscrow.sol\":2091:2101  revokeRole */\n      tag_116\n        /* \"contracts/v2/TikTrixEscrow.sol\":2091:2122  revokeRole(ADMIN_ROLE, account) */\n      jump\t// in\n    tag_181:\n        /* \"contracts/v2/TikTrixEscrow.sol\":2003:2129  function revokeAdminRole(address account) public onlyRole(DEFAULT_ADMIN_ROLE) {... */\n      pop\n      pop\n      jump\t// out\n        /* \"https://github.com/OpenZeppelin/openzeppelin-contracts/blob/v4.8.0/contracts/access/AccessControl.sol\":2027:2076  bytes32 public constant DEFAULT_ADMIN_ROLE = 0x00 */\n    tag_84:\n        /* \"https://github.com/OpenZeppelin/openzeppelin-contracts/blob/v4.8.0/contracts/access/AccessControl.sol\":2072:2076  0x00 */\n      0x00\n        /* \"https://github.com/OpenZeppelin/openzeppelin-contracts/blob/v4.8.0/contracts/access/AccessControl.sol\":2027:2076  bytes32 public constant DEFAULT_ADMIN_ROLE = 0x00 */\n      dup1\n      shl\n      dup2\n      jump\t// out\n        /* \"contracts/v2/TikTrixEscrow.sol\":5147:5357  function getMemberInfo(uint256 memberSeq) external view returns (MemberInfo memory) {... */\n    tag_88:\n        /* \"contracts/v2/TikTrixEscrow.sol\":5212:5229  MemberInfo memory */\n      tag_182\n      tag_183\n      jump\t// in\n    tag_182:\n        /* \"contracts/v2/TikTrixEscrow.sol\":5284:5285  0 */\n      0x00\n        /* \"contracts/v2/TikTrixEscrow.sol\":5249:5260  memberInfos */\n      0x03\n        /* \"contracts/v2/TikTrixEscrow.sol\":5249:5271  memberInfos[memberSeq] */\n      0x00\n        /* \"contracts/v2/TikTrixEscrow.sol\":5261:5270  memberSeq */\n      dup5\n        /* \"contracts/v2/TikTrixEscrow.sol\":5249:5271  memberInfos[memberSeq] */\n      dup2\n      mstore\n      0x20\n      add\n      swap1\n      dup2\n      mstore\n      0x20\n      add\n      0x00\n      keccak256\n        /* \"contracts/v2/TikTrixEscrow.sol\":5249:5281  memberInfos[memberSeq].memberSeq */\n      0x00\n      add\n      sload\n        /* \"contracts/v2/TikTrixEscrow.sol\":5249:5285  memberInfos[memberSeq].memberSeq > 0 */\n      gt\n        /* \"contracts/v2/TikTrixEscrow.sol\":5241:5311  require(memberInfos[memberSeq].memberSeq > 0, \"Member does not exist\") */\n      tag_185\n      jumpi\n      mload(0x40)\n      0x08c379a000000000000000000000000000000000000000000000000000000000\n      dup2\n      mstore\n      0x04\n      add\n      tag_186\n      swap1\n      tag_187\n      jump\t// in\n    tag_186:\n      mload(0x40)\n      dup1\n      swap2\n      sub\n      swap1\n      revert\n    tag_185:\n        /* \"contracts/v2/TikTrixEscrow.sol\":5328:5339  memberInfos */\n      0x03\n        /* \"contracts/v2/TikTrixEscrow.sol\":5328:5350  memberInfos[memberSeq] */\n      0x00\n        /* \"contracts/v2/TikTrixEscrow.sol\":5340:5349  memberSeq */\n      dup4\n        /* \"contracts/v2/TikTrixEscrow.sol\":5328:5350  memberInfos[memberSeq] */\n      dup2\n      mstore\n      0x20\n      add\n      swap1\n      dup2\n      mstore\n      0x20\n      add\n      0x00\n      keccak256\n        /* \"contracts/v2/TikTrixEscrow.sol\":5321:5350  return memberInfos[memberSeq] */\n      mload(0x40)\n      dup1\n      0x20\n      add\n      0x40\n      mstore\n      swap1\n      dup2\n      0x00\n      dup3\n      add\n      sload\n      dup2\n      mstore\n      pop\n      pop\n      swap1\n      pop\n        /* \"contracts/v2/TikTrixEscrow.sol\":5147:5357  function getMemberInfo(uint256 memberSeq) external view returns (MemberInfo memory) {... */\n      swap2\n      swap1\n      pop\n      jump\t// out\n        /* \"contracts/v2/TikTrixEscrow.sol\":2351:2791  function memberRegister(uint256 memberSeq, address mintAddress, uint256 tokenAmount) external onlyRole(ADMIN_ROLE) {... */\n    tag_94:\n        /* \"contracts/v2/TikTrixEscrow.sol\":511:534  keccak256(\"ADMIN_ROLE\") */\n      0xa49807205ce4d355092ef5a8a18f56e8913cf4a201fbe287825b095693c21775\n        /* \"https://github.com/OpenZeppelin/openzeppelin-contracts/blob/v4.8.0/contracts/access/AccessControl.sol\":2505:2521  _checkRole(role) */\n      tag_189\n        /* \"https://github.com/OpenZeppelin/openzeppelin-contracts/blob/v4.8.0/contracts/access/AccessControl.sol\":2516:2520  role */\n      dup2\n        /* \"https://github.com/OpenZeppelin/openzeppelin-contracts/blob/v4.8.0/contracts/access/AccessControl.sol\":2505:2515  _checkRole */\n      tag_133\n        /* \"https://github.com/OpenZeppelin/openzeppelin-contracts/blob/v4.8.0/contracts/access/AccessControl.sol\":2505:2521  _checkRole(role) */\n      jump\t// in\n    tag_189:\n        /* \"contracts/v2/TikTrixEscrow.sol\":2520:2521  0 */\n      0x00\n        /* \"contracts/v2/TikTrixEscrow.sol\":2484:2495  memberInfos */\n      0x03\n        /* \"contracts/v2/TikTrixEscrow.sol\":2484:2506  memberInfos[memberSeq] */\n      0x00\n        /* \"contracts/v2/TikTrixEscrow.sol\":2496:2505  memberSeq */\n      dup7\n        /* \"contracts/v2/TikTrixEscrow.sol\":2484:2506  memberInfos[memberSeq] */\n      dup2\n      mstore\n      0x20\n      add\n      swap1\n      dup2\n      mstore\n      0x20\n      add\n      0x00\n      keccak256\n        /* \"contracts/v2/TikTrixEscrow.sol\":2484:2516  memberInfos[memberSeq].memberSeq */\n      0x00\n      add\n      sload\n        /* \"contracts/v2/TikTrixEscrow.sol\":2484:2521  memberInfos[memberSeq].memberSeq == 0 */\n      eq\n        /* \"contracts/v2/TikTrixEscrow.sol\":2476:2551  require(memberInfos[memberSeq].memberSeq == 0, \"Member already registered\") */\n      tag_191\n      jumpi\n      mload(0x40)\n      0x08c379a000000000000000000000000000000000000000000000000000000000\n      dup2\n      mstore\n      0x04\n      add\n      tag_192\n      swap1\n      tag_193\n      jump\t// in\n    tag_192:\n      mload(0x40)\n      dup1\n      swap2\n      sub\n      swap1\n      revert\n    tag_191:\n        /* \"contracts/v2/TikTrixEscrow.sol\":2587:2643  MemberInfo({... */\n      mload(0x40)\n      dup1\n      0x20\n      add\n      0x40\n      mstore\n      dup1\n        /* \"contracts/v2/TikTrixEscrow.sol\":2623:2632  memberSeq */\n      dup6\n        /* \"contracts/v2/TikTrixEscrow.sol\":2587:2643  MemberInfo({... */\n      dup2\n      mstore\n      pop\n        /* \"contracts/v2/TikTrixEscrow.sol\":2562:2573  memberInfos */\n      0x03\n        /* \"contracts/v2/TikTrixEscrow.sol\":2562:2584  memberInfos[memberSeq] */\n      0x00\n        /* \"contracts/v2/TikTrixEscrow.sol\":2574:2583  memberSeq */\n      dup7\n        /* \"contracts/v2/TikTrixEscrow.sol\":2562:2584  memberInfos[memberSeq] */\n      dup2\n      mstore\n      0x20\n      add\n      swap1\n      dup2\n      mstore\n      0x20\n      add\n      0x00\n      keccak256\n        /* \"contracts/v2/TikTrixEscrow.sol\":2562:2643  memberInfos[memberSeq] = MemberInfo({... */\n      0x00\n      dup3\n      add\n      mload\n      dup2\n      0x00\n      add\n      sstore\n      swap1\n      pop\n      pop\n        /* \"contracts/v2/TikTrixEscrow.sol\":2653:2662  memberIds */\n      0x04\n        /* \"contracts/v2/TikTrixEscrow.sol\":2668:2677  memberSeq */\n      dup5\n        /* \"contracts/v2/TikTrixEscrow.sol\":2653:2678  memberIds.push(memberSeq) */\n      swap1\n      dup1\n      0x01\n      dup2\n      sload\n      add\n      dup1\n      dup3\n      sstore\n      dup1\n      swap2\n      pop\n      pop\n      0x01\n      swap1\n      sub\n      swap1\n      0x00\n      mstore\n      keccak256(0x00, 0x20)\n      add\n      0x00\n      swap1\n      swap2\n      swap1\n      swap2\n      swap1\n      swap2\n      pop\n      sstore\n        /* \"contracts/v2/TikTrixEscrow.sol\":2689:2697  entToken */\n      0x01\n      0x00\n      swap1\n      sload\n      swap1\n      0x0100\n      exp\n      swap1\n      div\n      0xffffffffffffffffffffffffffffffffffffffff\n      and\n        /* \"contracts/v2/TikTrixEscrow.sol\":2689:2702  entToken.mint */\n      0xffffffffffffffffffffffffffffffffffffffff\n      and\n      0x40c10f19\n        /* \"contracts/v2/TikTrixEscrow.sol\":2703:2714  mintAddress */\n      dup5\n        /* \"contracts/v2/TikTrixEscrow.sol\":2716:2727  tokenAmount */\n      dup5\n        /* \"contracts/v2/TikTrixEscrow.sol\":2689:2728  entToken.mint(mintAddress, tokenAmount) */\n      mload(0x40)\n      dup4\n      0xffffffff\n      and\n      0xe0\n      shl\n      dup2\n      mstore\n      0x04\n      add\n      tag_195\n      swap3\n      swap2\n      swap1\n      tag_161\n      jump\t// in\n    tag_195:\n      0x00\n      mload(0x40)\n      dup1\n      dup4\n      sub\n      dup2\n      0x00\n      dup8\n      dup1\n      extcodesize\n      iszero\n      dup1\n      iszero\n      tag_196\n      jumpi\n      0x00\n      dup1\n      revert\n    tag_196:\n      pop\n      gas\n      call\n      iszero\n      dup1\n      iszero\n      tag_198\n      jumpi\n      returndatasize\n      0x00\n      dup1\n      returndatacopy\n      revert(0x00, returndatasize)\n    tag_198:\n      pop\n      pop\n      pop\n      pop\n        /* \"contracts/v2/TikTrixEscrow.sol\":2744:2784  MemberRegistered(memberSeq, tokenAmount) */\n      0x5a92c2530f207992057b9c3e544108ffce3beda4a63719f316967c49bf6159d2\n        /* \"contracts/v2/TikTrixEscrow.sol\":2761:2770  memberSeq */\n      dup5\n        /* \"contracts/v2/TikTrixEscrow.sol\":2772:2783  tokenAmount */\n      dup4\n        /* \"contracts/v2/TikTrixEscrow.sol\":2744:2784  MemberRegistered(memberSeq, tokenAmount) */\n      mload(0x40)\n      tag_199\n      swap3\n      swap2\n      swap1\n      tag_200\n      jump\t// in\n    tag_199:\n      mload(0x40)\n      dup1\n      swap2\n      sub\n      swap1\n      log1\n        /* \"contracts/v2/TikTrixEscrow.sol\":2351:2791  function memberRegister(uint256 memberSeq, address mintAddress, uint256 tokenAmount) external onlyRole(ADMIN_ROLE) {... */\n      pop\n      pop\n      pop\n      pop\n      jump\t// out\n        /* \"contracts/v2/TikTrixEscrow.sol\":5363:5664  function getChallengeScore(uint256 yyyymmdd, uint256 gameSeq, uint256 memberSeq) external view returns (ChallengeScore memory) {... */\n    tag_97:\n        /* \"contracts/v2/TikTrixEscrow.sol\":5467:5488  ChallengeScore memory */\n      tag_201\n      tag_202\n      jump\t// in\n    tag_201:\n        /* \"contracts/v2/TikTrixEscrow.sol\":5508:5523  challengeScores */\n      0x05\n        /* \"contracts/v2/TikTrixEscrow.sol\":5508:5533  challengeScores[yyyymmdd] */\n      0x00\n        /* \"contracts/v2/TikTrixEscrow.sol\":5524:5532  yyyymmdd */\n      dup6\n        /* \"contracts/v2/TikTrixEscrow.sol\":5508:5533  challengeScores[yyyymmdd] */\n      dup2\n      mstore\n      0x20\n      add\n      swap1\n      dup2\n      mstore\n      0x20\n      add\n      0x00\n      keccak256\n        /* \"contracts/v2/TikTrixEscrow.sol\":5508:5542  challengeScores[yyyymmdd][gameSeq] */\n      0x00\n        /* \"contracts/v2/TikTrixEscrow.sol\":5534:5541  gameSeq */\n      dup5\n        /* \"contracts/v2/TikTrixEscrow.sol\":5508:5542  challengeScores[yyyymmdd][gameSeq] */\n      dup2\n      mstore\n      0x20\n      add\n      swap1\n      dup2\n      mstore\n      0x20\n      add\n      0x00\n      keccak256\n        /* \"contracts/v2/TikTrixEscrow.sol\":5508:5553  challengeScores[yyyymmdd][gameSeq][memberSeq] */\n      0x00\n        /* \"contracts/v2/TikTrixEscrow.sol\":5543:5552  memberSeq */\n      dup4\n        /* \"contracts/v2/TikTrixEscrow.sol\":5508:5553  challengeScores[yyyymmdd][gameSeq][memberSeq] */\n      dup2\n      mstore\n      0x20\n      add\n      swap1\n      dup2\n      mstore\n      0x20\n      add\n      0x00\n      keccak256\n        /* \"contracts/v2/TikTrixEscrow.sol\":5508:5560  challengeScores[yyyymmdd][gameSeq][memberSeq].exists */\n      0x04\n      add\n      0x00\n      swap1\n      sload\n      swap1\n      0x0100\n      exp\n      swap1\n      div\n      0xff\n      and\n        /* \"contracts/v2/TikTrixEscrow.sol\":5500:5595  require(challengeScores[yyyymmdd][gameSeq][memberSeq].exists, \"Challenge score does not exist\") */\n      tag_204\n      jumpi\n      mload(0x40)\n      0x08c379a000000000000000000000000000000000000000000000000000000000\n      dup2\n      mstore\n      0x04\n      add\n      tag_205\n      swap1\n      tag_206\n      jump\t// in\n    tag_205:\n      mload(0x40)\n      dup1\n      swap2\n      sub\n      swap1\n      revert\n    tag_204:\n        /* \"contracts/v2/TikTrixEscrow.sol\":5612:5627  challengeScores */\n      0x05\n        /* \"contracts/v2/TikTrixEscrow.sol\":5612:5637  challengeScores[yyyymmdd] */\n      0x00\n        /* \"contracts/v2/TikTrixEscrow.sol\":5628:5636  yyyymmdd */\n      dup6\n        /* \"contracts/v2/TikTrixEscrow.sol\":5612:5637  challengeScores[yyyymmdd] */\n      dup2\n      mstore\n      0x20\n      add\n      swap1\n      dup2\n      mstore\n      0x20\n      add\n      0x00\n      keccak256\n        /* \"contracts/v2/TikTrixEscrow.sol\":5612:5646  challengeScores[yyyymmdd][gameSeq] */\n      0x00\n        /* \"contracts/v2/TikTrixEscrow.sol\":5638:5645  gameSeq */\n      dup5\n        /* \"contracts/v2/TikTrixEscrow.sol\":5612:5646  challengeScores[yyyymmdd][gameSeq] */\n      dup2\n      mstore\n      0x20\n      add\n      swap1\n      dup2\n      mstore\n      0x20\n      add\n      0x00\n      keccak256\n        /* \"contracts/v2/TikTrixEscrow.sol\":5612:5657  challengeScores[yyyymmdd][gameSeq][memberSeq] */\n      0x00\n        /* \"contracts/v2/TikTrixEscrow.sol\":5647:5656  memberSeq */\n      dup4\n        /* \"contracts/v2/TikTrixEscrow.sol\":5612:5657  challengeScores[yyyymmdd][gameSeq][memberSeq] */\n      dup2\n      mstore\n      0x20\n      add\n      swap1\n      dup2\n      mstore\n      0x20\n      add\n      0x00\n      keccak256\n        /* \"contracts/v2/TikTrixEscrow.sol\":5605:5657  return challengeScores[yyyymmdd][gameSeq][memberSeq] */\n      mload(0x40)\n      dup1\n      0xa0\n      add\n      0x40\n      mstore\n      swap1\n      dup2\n      0x00\n      dup3\n      add\n      sload\n      dup2\n      mstore\n      0x20\n      add\n      0x01\n      dup3\n      add\n      sload\n      dup2\n      mstore\n      0x20\n      add\n      0x02\n      dup3\n      add\n      sload\n      dup2\n      mstore\n      0x20\n      add\n      0x03\n      dup3\n      add\n      sload\n      dup2\n      mstore\n      0x20\n      add\n      0x04\n      dup3\n      add\n      0x00\n      swap1\n      sload\n      swap1\n      0x0100\n      exp\n      swap1\n      div\n      0xff\n      and\n      iszero\n      iszero\n      iszero\n      iszero\n      dup2\n      mstore\n      pop\n      pop\n      swap1\n      pop\n        /* \"contracts/v2/TikTrixEscrow.sol\":5363:5664  function getChallengeScore(uint256 yyyymmdd, uint256 gameSeq, uint256 memberSeq) external view returns (ChallengeScore memory) {... */\n      swap4\n      swap3\n      pop\n      pop\n      pop\n      jump\t// out\n        /* \"contracts/v2/TikTrixEscrow.sol\":832:881  mapping(uint256 => MemberInfo) public memberInfos */\n    tag_102:\n      mstore(0x20, 0x03)\n      dup1\n      0x00\n      mstore\n      keccak256(0x00, 0x40)\n      0x00\n      swap2\n      pop\n      swap1\n      pop\n      dup1\n      0x00\n      add\n      sload\n      swap1\n      pop\n      dup2\n      jump\t// out\n        /* \"contracts/v2/TikTrixEscrow.sol\":1873:1997  function grantAdminRole(address account) public onlyRole(DEFAULT_ADMIN_ROLE) {... */\n    tag_106:\n        /* \"https://github.com/OpenZeppelin/openzeppelin-contracts/blob/v4.8.0/contracts/access/AccessControl.sol\":2072:2076  0x00 */\n      0x00\n        /* \"contracts/v2/TikTrixEscrow.sol\":1930:1948  DEFAULT_ADMIN_ROLE */\n      dup1\n      shl\n        /* \"https://github.com/OpenZeppelin/openzeppelin-contracts/blob/v4.8.0/contracts/access/AccessControl.sol\":2505:2521  _checkRole(role) */\n      tag_208\n        /* \"https://github.com/OpenZeppelin/openzeppelin-contracts/blob/v4.8.0/contracts/access/AccessControl.sol\":2516:2520  role */\n      dup2\n        /* \"https://github.com/OpenZeppelin/openzeppelin-contracts/blob/v4.8.0/contracts/access/AccessControl.sol\":2505:2515  _checkRole */\n      tag_133\n        /* \"https://github.com/OpenZeppelin/openzeppelin-contracts/blob/v4.8.0/contracts/access/AccessControl.sol\":2505:2521  _checkRole(role) */\n      jump\t// in\n    tag_208:\n        /* \"contracts/v2/TikTrixEscrow.sol\":1960:1990  grantRole(ADMIN_ROLE, account) */\n      tag_210\n        /* \"contracts/v2/TikTrixEscrow.sol\":511:534  keccak256(\"ADMIN_ROLE\") */\n      0xa49807205ce4d355092ef5a8a18f56e8913cf4a201fbe287825b095693c21775\n        /* \"contracts/v2/TikTrixEscrow.sol\":1982:1989  account */\n      dup4\n        /* \"contracts/v2/TikTrixEscrow.sol\":1960:1969  grantRole */\n      tag_54\n        /* \"contracts/v2/TikTrixEscrow.sol\":1960:1990  grantRole(ADMIN_ROLE, account) */\n      jump\t// in\n    tag_210:\n        /* \"contracts/v2/TikTrixEscrow.sol\":1873:1997  function grantAdminRole(address account) public onlyRole(DEFAULT_ADMIN_ROLE) {... */\n      pop\n      pop\n      jump\t// out\n        /* \"contracts/v2/TikTrixEscrow.sol\":2797:3784  function challengeRegister(... */\n    tag_109:\n        /* \"contracts/v2/TikTrixEscrow.sol\":2965:2980  challengeScores */\n      0x05\n        /* \"contracts/v2/TikTrixEscrow.sol\":2965:2990  challengeScores[yyyymmdd] */\n      0x00\n        /* \"contracts/v2/TikTrixEscrow.sol\":2981:2989  yyyymmdd */\n      dup6\n        /* \"contracts/v2/TikTrixEscrow.sol\":2965:2990  challengeScores[yyyymmdd] */\n      dup2\n      mstore\n      0x20\n      add\n      swap1\n      dup2\n      mstore\n      0x20\n      add\n      0x00\n      keccak256\n        /* \"contracts/v2/TikTrixEscrow.sol\":2965:2999  challengeScores[yyyymmdd][gameSeq] */\n      0x00\n        /* \"contracts/v2/TikTrixEscrow.sol\":2991:2998  gameSeq */\n      dup5\n        /* \"contracts/v2/TikTrixEscrow.sol\":2965:2999  challengeScores[yyyymmdd][gameSeq] */\n      dup2\n      mstore\n      0x20\n      add\n      swap1\n      dup2\n      mstore\n      0x20\n      add\n      0x00\n      keccak256\n        /* \"contracts/v2/TikTrixEscrow.sol\":2965:3010  challengeScores[yyyymmdd][gameSeq][memberSeq] */\n      0x00\n        /* \"contracts/v2/TikTrixEscrow.sol\":3000:3009  memberSeq */\n      dup4\n        /* \"contracts/v2/TikTrixEscrow.sol\":2965:3010  challengeScores[yyyymmdd][gameSeq][memberSeq] */\n      dup2\n      mstore\n      0x20\n      add\n      swap1\n      dup2\n      mstore\n      0x20\n      add\n      0x00\n      keccak256\n        /* \"contracts/v2/TikTrixEscrow.sol\":2965:3017  challengeScores[yyyymmdd][gameSeq][memberSeq].exists */\n      0x04\n      add\n      0x00\n      swap1\n      sload\n      swap1\n      0x0100\n      exp\n      swap1\n      div\n      0xff\n      and\n        /* \"contracts/v2/TikTrixEscrow.sol\":2964:3017  !challengeScores[yyyymmdd][gameSeq][memberSeq].exists */\n      iszero\n        /* \"contracts/v2/TikTrixEscrow.sol\":2956:3078  require(!challengeScores[yyyymmdd][gameSeq][memberSeq].exists, \"Challenge already exists for this member, date, and game\") */\n      tag_212\n      jumpi\n      mload(0x40)\n      0x08c379a000000000000000000000000000000000000000000000000000000000\n      dup2\n      mstore\n      0x04\n      add\n      tag_213\n      swap1\n      tag_214\n      jump\t// in\n    tag_213:\n      mload(0x40)\n      dup1\n      swap2\n      sub\n      swap1\n      revert\n    tag_212:\n        /* \"contracts/v2/TikTrixEscrow.sol\":3089:3106  uint256 allowance */\n      0x00\n        /* \"contracts/v2/TikTrixEscrow.sol\":3109:3117  entToken */\n      0x01\n      0x00\n      swap1\n      sload\n      swap1\n      0x0100\n      exp\n      swap1\n      div\n      0xffffffffffffffffffffffffffffffffffffffff\n      and\n        /* \"contracts/v2/TikTrixEscrow.sol\":3109:3127  entToken.allowance */\n      0xffffffffffffffffffffffffffffffffffffffff\n      and\n      0xdd62ed3e\n        /* \"contracts/v2/TikTrixEscrow.sol\":3128:3138  msg.sender */\n      caller\n        /* \"contracts/v2/TikTrixEscrow.sol\":3148:3152  this */\n      address\n        /* \"contracts/v2/TikTrixEscrow.sol\":3109:3154  entToken.allowance(msg.sender, address(this)) */\n      mload(0x40)\n      dup4\n      0xffffffff\n      and\n      0xe0\n      shl\n      dup2\n      mstore\n      0x04\n      add\n      tag_215\n      swap3\n      swap2\n      swap1\n      tag_216\n      jump\t// in\n    tag_215:\n      0x20\n      mload(0x40)\n      dup1\n      dup4\n      sub\n      dup2\n      dup7\n      gas\n      staticcall\n      iszero\n      dup1\n      iszero\n      tag_218\n      jumpi\n      returndatasize\n      0x00\n      dup1\n      returndatacopy\n      revert(0x00, returndatasize)\n    tag_218:\n      pop\n      pop\n      pop\n      pop\n      mload(0x40)\n      returndatasize\n      not(0x1f)\n      0x1f\n      dup3\n      add\n      and\n      dup3\n      add\n      dup1\n      0x40\n      mstore\n      pop\n      dup2\n      add\n      swap1\n      tag_219\n      swap2\n      swap1\n      tag_220\n      jump\t// in\n    tag_219:\n        /* \"contracts/v2/TikTrixEscrow.sol\":3089:3154  uint256 allowance = entToken.allowance(msg.sender, address(this)) */\n      swap1\n      pop\n        /* \"contracts/v2/TikTrixEscrow.sol\":3185:3196  tokenAmount */\n      dup2\n        /* \"contracts/v2/TikTrixEscrow.sol\":3172:3181  allowance */\n      dup2\n        /* \"contracts/v2/TikTrixEscrow.sol\":3172:3196  allowance >= tokenAmount */\n      lt\n      iszero\n        /* \"contracts/v2/TikTrixEscrow.sol\":3164:3229  require(allowance >= tokenAmount, \"Insufficient token allowance\") */\n      tag_221\n      jumpi\n      mload(0x40)\n      0x08c379a000000000000000000000000000000000000000000000000000000000\n      dup2\n      mstore\n      0x04\n      add\n      tag_222\n      swap1\n      tag_223\n      jump\t// in\n    tag_222:\n      mload(0x40)\n      dup1\n      swap2\n      sub\n      swap1\n      revert\n    tag_221:\n        /* \"contracts/v2/TikTrixEscrow.sol\":3240:3255  uint256 balance */\n      0x00\n        /* \"contracts/v2/TikTrixEscrow.sol\":3258:3266  entToken */\n      0x01\n      0x00\n      swap1\n      sload\n      swap1\n      0x0100\n      exp\n      swap1\n      div\n      0xffffffffffffffffffffffffffffffffffffffff\n      and\n        /* \"contracts/v2/TikTrixEscrow.sol\":3258:3276  entToken.balanceOf */\n      0xffffffffffffffffffffffffffffffffffffffff\n      and\n      0x70a08231\n        /* \"contracts/v2/TikTrixEscrow.sol\":3277:3287  msg.sender */\n      caller\n        /* \"contracts/v2/TikTrixEscrow.sol\":3258:3288  entToken.balanceOf(msg.sender) */\n      mload(0x40)\n      dup3\n      0xffffffff\n      and\n      0xe0\n      shl\n      dup2\n      mstore\n      0x04\n      add\n      tag_224\n      swap2\n      swap1\n      tag_225\n      jump\t// in\n    tag_224:\n      0x20\n      mload(0x40)\n      dup1\n      dup4\n      sub\n      dup2\n      dup7\n      gas\n      staticcall\n      iszero\n      dup1\n      iszero\n      tag_227\n      jumpi\n      returndatasize\n      0x00\n      dup1\n      returndatacopy\n      revert(0x00, returndatasize)\n    tag_227:\n      pop\n      pop\n      pop\n      pop\n      mload(0x40)\n      returndatasize\n      not(0x1f)\n      0x1f\n      dup3\n      add\n      and\n      dup3\n      add\n      dup1\n      0x40\n      mstore\n      pop\n      dup2\n      add\n      swap1\n      tag_228\n      swap2\n      swap1\n      tag_220\n      jump\t// in\n    tag_228:\n        /* \"contracts/v2/TikTrixEscrow.sol\":3240:3288  uint256 balance = entToken.balanceOf(msg.sender) */\n      swap1\n      pop\n        /* \"contracts/v2/TikTrixEscrow.sol\":3317:3328  tokenAmount */\n      dup3\n        /* \"contracts/v2/TikTrixEscrow.sol\":3306:3313  balance */\n      dup2\n        /* \"contracts/v2/TikTrixEscrow.sol\":3306:3328  balance >= tokenAmount */\n      lt\n      iszero\n        /* \"contracts/v2/TikTrixEscrow.sol\":3298:3359  require(balance >= tokenAmount, \"Insufficient token balance\") */\n      tag_229\n      jumpi\n      mload(0x40)\n      0x08c379a000000000000000000000000000000000000000000000000000000000\n      dup2\n      mstore\n      0x04\n      add\n      tag_230\n      swap1\n      tag_231\n      jump\t// in\n    tag_230:\n      mload(0x40)\n      dup1\n      swap2\n      sub\n      swap1\n      revert\n    tag_229:\n        /* \"contracts/v2/TikTrixEscrow.sol\":3378:3386  entToken */\n      0x01\n      0x00\n      swap1\n      sload\n      swap1\n      0x0100\n      exp\n      swap1\n      div\n      0xffffffffffffffffffffffffffffffffffffffff\n      and\n        /* \"contracts/v2/TikTrixEscrow.sol\":3378:3399  entToken.transferFrom */\n      0xffffffffffffffffffffffffffffffffffffffff\n      and\n      0x23b872dd\n        /* \"contracts/v2/TikTrixEscrow.sol\":3400:3410  msg.sender */\n      caller\n        /* \"contracts/v2/TikTrixEscrow.sol\":3420:3424  this */\n      address\n        /* \"contracts/v2/TikTrixEscrow.sol\":3427:3438  tokenAmount */\n      dup7\n        /* \"contracts/v2/TikTrixEscrow.sol\":3378:3439  entToken.transferFrom(msg.sender, address(this), tokenAmount) */\n      mload(0x40)\n      dup5\n      0xffffffff\n      and\n      0xe0\n      shl\n      dup2\n      mstore\n      0x04\n      add\n      tag_232\n      swap4\n      swap3\n      swap2\n      swap1\n      tag_233\n      jump\t// in\n    tag_232:\n      0x20\n      mload(0x40)\n      dup1\n      dup4\n      sub\n      dup2\n      0x00\n      dup8\n      gas\n      call\n      iszero\n      dup1\n      iszero\n      tag_235\n      jumpi\n      returndatasize\n      0x00\n      dup1\n      returndatacopy\n      revert(0x00, returndatasize)\n    tag_235:\n      pop\n      pop\n      pop\n      pop\n      mload(0x40)\n      returndatasize\n      not(0x1f)\n      0x1f\n      dup3\n      add\n      and\n      dup3\n      add\n      dup1\n      0x40\n      mstore\n      pop\n      dup2\n      add\n      swap1\n      tag_236\n      swap2\n      swap1\n      tag_237\n      jump\t// in\n    tag_236:\n        /* \"contracts/v2/TikTrixEscrow.sol\":3370:3465  require(entToken.transferFrom(msg.sender, address(this), tokenAmount), \"Token transfer failed\") */\n      tag_238\n      jumpi\n      mload(0x40)\n      0x08c379a000000000000000000000000000000000000000000000000000000000\n      dup2\n      mstore\n      0x04\n      add\n      tag_239\n      swap1\n      tag_240\n      jump\t// in\n    tag_239:\n      mload(0x40)\n      dup1\n      swap2\n      sub\n      swap1\n      revert\n    tag_238:\n        /* \"contracts/v2/TikTrixEscrow.sol\":3524:3700  ChallengeScore({... */\n      mload(0x40)\n      dup1\n      0xa0\n      add\n      0x40\n      mstore\n      dup1\n        /* \"contracts/v2/TikTrixEscrow.sol\":3562:3569  gameSeq */\n      dup7\n        /* \"contracts/v2/TikTrixEscrow.sol\":3524:3700  ChallengeScore({... */\n      dup2\n      mstore\n      0x20\n      add\n        /* \"contracts/v2/TikTrixEscrow.sol\":3594:3603  memberSeq */\n      dup6\n        /* \"contracts/v2/TikTrixEscrow.sol\":3524:3700  ChallengeScore({... */\n      dup2\n      mstore\n      0x20\n      add\n        /* \"contracts/v2/TikTrixEscrow.sol\":3630:3641  tokenAmount */\n      dup5\n        /* \"contracts/v2/TikTrixEscrow.sol\":3524:3700  ChallengeScore({... */\n      dup2\n      mstore\n      0x20\n      add\n        /* \"contracts/v2/TikTrixEscrow.sol\":3662:3663  0 */\n      0x00\n        /* \"contracts/v2/TikTrixEscrow.sol\":3524:3700  ChallengeScore({... */\n      dup2\n      mstore\n      0x20\n      add\n        /* \"contracts/v2/TikTrixEscrow.sol\":3685:3689  true */\n      0x01\n        /* \"contracts/v2/TikTrixEscrow.sol\":3524:3700  ChallengeScore({... */\n      iszero\n      iszero\n      dup2\n      mstore\n      pop\n        /* \"contracts/v2/TikTrixEscrow.sol\":3476:3491  challengeScores */\n      0x05\n        /* \"contracts/v2/TikTrixEscrow.sol\":3476:3501  challengeScores[yyyymmdd] */\n      0x00\n        /* \"contracts/v2/TikTrixEscrow.sol\":3492:3500  yyyymmdd */\n      dup9\n        /* \"contracts/v2/TikTrixEscrow.sol\":3476:3501  challengeScores[yyyymmdd] */\n      dup2\n      mstore\n      0x20\n      add\n      swap1\n      dup2\n      mstore\n      0x20\n      add\n      0x00\n      keccak256\n        /* \"contracts/v2/TikTrixEscrow.sol\":3476:3510  challengeScores[yyyymmdd][gameSeq] */\n      0x00\n        /* \"contracts/v2/TikTrixEscrow.sol\":3502:3509  gameSeq */\n      dup8\n        /* \"contracts/v2/TikTrixEscrow.sol\":3476:3510  challengeScores[yyyymmdd][gameSeq] */\n      dup2\n      mstore\n      0x20\n      add\n      swap1\n      dup2\n      mstore\n      0x20\n      add\n      0x00\n      keccak256\n        /* \"contracts/v2/TikTrixEscrow.sol\":3476:3521  challengeScores[yyyymmdd][gameSeq][memberSeq] */\n      0x00\n        /* \"contracts/v2/TikTrixEscrow.sol\":3511:3520  memberSeq */\n      dup7\n        /* \"contracts/v2/TikTrixEscrow.sol\":3476:3521  challengeScores[yyyymmdd][gameSeq][memberSeq] */\n      dup2\n      mstore\n      0x20\n      add\n      swap1\n      dup2\n      mstore\n      0x20\n      add\n      0x00\n      keccak256\n        /* \"contracts/v2/TikTrixEscrow.sol\":3476:3700  challengeScores[yyyymmdd][gameSeq][memberSeq] = ChallengeScore({... */\n      0x00\n      dup3\n      add\n      mload\n      dup2\n      0x00\n      add\n      sstore\n      0x20\n      dup3\n      add\n      mload\n      dup2\n      0x01\n      add\n      sstore\n      0x40\n      dup3\n      add\n      mload\n      dup2\n      0x02\n      add\n      sstore\n      0x60\n      dup3\n      add\n      mload\n      dup2\n      0x03\n      add\n      sstore\n      0x80\n      dup3\n      add\n      mload\n      dup2\n      0x04\n      add\n      exp(0x0100, 0x00)\n      dup2\n      sload\n      dup2\n      0xff\n      mul\n      not\n      and\n      swap1\n      dup4\n      iszero\n      iszero\n      mul\n      or\n      swap1\n      sstore\n      pop\n      swap1\n      pop\n      pop\n        /* \"contracts/v2/TikTrixEscrow.sol\":3754:3763  memberSeq */\n      dup4\n        /* \"contracts/v2/TikTrixEscrow.sol\":3745:3752  gameSeq */\n      dup6\n        /* \"contracts/v2/TikTrixEscrow.sol\":3735:3743  yyyymmdd */\n      dup8\n        /* \"contracts/v2/TikTrixEscrow.sol\":3716:3777  ChallengeRegisterd(yyyymmdd, gameSeq, memberSeq, tokenAmount) */\n      0x12b60ec834dbe4f634b415a94d1638892226674971f72a0fb5e7893d8379c274\n        /* \"contracts/v2/TikTrixEscrow.sol\":3765:3776  tokenAmount */\n      dup7\n        /* \"contracts/v2/TikTrixEscrow.sol\":3716:3777  ChallengeRegisterd(yyyymmdd, gameSeq, memberSeq, tokenAmount) */\n      mload(0x40)\n      tag_241\n      swap2\n      swap1\n      tag_44\n      jump\t// in\n    tag_241:\n      mload(0x40)\n      dup1\n      swap2\n      sub\n      swap1\n      log4\n        /* \"contracts/v2/TikTrixEscrow.sol\":2946:3784  {... */\n      pop\n      pop\n        /* \"contracts/v2/TikTrixEscrow.sol\":2797:3784  function challengeRegister(... */\n      pop\n      pop\n      pop\n      pop\n      jump\t// out\n        /* \"contracts/v2/TikTrixEscrow.sol\":2135:2345  function setTokens(address entTokenAddress, address rptTokenAddress) external onlyRole(ADMIN_ROLE) {... */\n    tag_113:\n        /* \"contracts/v2/TikTrixEscrow.sol\":511:534  keccak256(\"ADMIN_ROLE\") */\n      0xa49807205ce4d355092ef5a8a18f56e8913cf4a201fbe287825b095693c21775\n        /* \"https://github.com/OpenZeppelin/openzeppelin-contracts/blob/v4.8.0/contracts/access/AccessControl.sol\":2505:2521  _checkRole(role) */\n      tag_243\n        /* \"https://github.com/OpenZeppelin/openzeppelin-contracts/blob/v4.8.0/contracts/access/AccessControl.sol\":2516:2520  role */\n      dup2\n        /* \"https://github.com/OpenZeppelin/openzeppelin-contracts/blob/v4.8.0/contracts/access/AccessControl.sol\":2505:2515  _checkRole */\n      tag_133\n        /* \"https://github.com/OpenZeppelin/openzeppelin-contracts/blob/v4.8.0/contracts/access/AccessControl.sol\":2505:2521  _checkRole(role) */\n      jump\t// in\n    tag_243:\n        /* \"contracts/v2/TikTrixEscrow.sol\":2270:2285  entTokenAddress */\n      dup3\n        /* \"contracts/v2/TikTrixEscrow.sol\":2244:2252  entToken */\n      0x01\n      0x00\n        /* \"contracts/v2/TikTrixEscrow.sol\":2244:2286  entToken = IERC20Mintable(entTokenAddress) */\n      0x0100\n      exp\n      dup2\n      sload\n      dup2\n      0xffffffffffffffffffffffffffffffffffffffff\n      mul\n      not\n      and\n      swap1\n      dup4\n      0xffffffffffffffffffffffffffffffffffffffff\n      and\n      mul\n      or\n      swap1\n      sstore\n      pop\n        /* \"contracts/v2/TikTrixEscrow.sol\":2322:2337  rptTokenAddress */\n      dup2\n        /* \"contracts/v2/TikTrixEscrow.sol\":2296:2304  rptToken */\n      0x02\n      0x00\n        /* \"contracts/v2/TikTrixEscrow.sol\":2296:2338  rptToken = IERC20Mintable(rptTokenAddress) */\n      0x0100\n      exp\n      dup2\n      sload\n      dup2\n      0xffffffffffffffffffffffffffffffffffffffff\n      mul\n      not\n      and\n      swap1\n      dup4\n      0xffffffffffffffffffffffffffffffffffffffff\n      and\n      mul\n      or\n      swap1\n      sstore\n      pop\n        /* \"contracts/v2/TikTrixEscrow.sol\":2135:2345  function setTokens(address entTokenAddress, address rptTokenAddress) external onlyRole(ADMIN_ROLE) {... */\n      pop\n      pop\n      pop\n      jump\t// out\n        /* \"https://github.com/OpenZeppelin/openzeppelin-contracts/blob/v4.8.0/contracts/access/AccessControl.sol\":5228:5375  function revokeRole(bytes32 role, address account) public virtual override onlyRole(getRoleAdmin(role)) {... */\n    tag_116:\n        /* \"https://github.com/OpenZeppelin/openzeppelin-contracts/blob/v4.8.0/contracts/access/AccessControl.sol\":5312:5330  getRoleAdmin(role) */\n      tag_245\n        /* \"https://github.com/OpenZeppelin/openzeppelin-contracts/blob/v4.8.0/contracts/access/AccessControl.sol\":5325:5329  role */\n      dup3\n        /* \"https://github.com/OpenZeppelin/openzeppelin-contracts/blob/v4.8.0/contracts/access/AccessControl.sol\":5312:5324  getRoleAdmin */\n      tag_48\n        /* \"https://github.com/OpenZeppelin/openzeppelin-contracts/blob/v4.8.0/contracts/access/AccessControl.sol\":5312:5330  getRoleAdmin(role) */\n      jump\t// in\n    tag_245:\n        /* \"https://github.com/OpenZeppelin/openzeppelin-contracts/blob/v4.8.0/contracts/access/AccessControl.sol\":2505:2521  _checkRole(role) */\n      tag_247\n        /* \"https://github.com/OpenZeppelin/openzeppelin-contracts/blob/v4.8.0/contracts/access/AccessControl.sol\":2516:2520  role */\n      dup2\n        /* \"https://github.com/OpenZeppelin/openzeppelin-contracts/blob/v4.8.0/contracts/access/AccessControl.sol\":2505:2515  _checkRole */\n      tag_133\n        /* \"https://github.com/OpenZeppelin/openzeppelin-contracts/blob/v4.8.0/contracts/access/AccessControl.sol\":2505:2521  _checkRole(role) */\n      jump\t// in\n    tag_247:\n        /* \"https://github.com/OpenZeppelin/openzeppelin-contracts/blob/v4.8.0/contracts/access/AccessControl.sol\":5342:5368  _revokeRole(role, account) */\n      tag_249\n        /* \"https://github.com/OpenZeppelin/openzeppelin-contracts/blob/v4.8.0/contracts/access/AccessControl.sol\":5354:5358  role */\n      dup4\n        /* \"https://github.com/OpenZeppelin/openzeppelin-contracts/blob/v4.8.0/contracts/access/AccessControl.sol\":5360:5367  account */\n      dup4\n        /* \"https://github.com/OpenZeppelin/openzeppelin-contracts/blob/v4.8.0/contracts/access/AccessControl.sol\":5342:5353  _revokeRole */\n      tag_144\n        /* \"https://github.com/OpenZeppelin/openzeppelin-contracts/blob/v4.8.0/contracts/access/AccessControl.sol\":5342:5368  _revokeRole(role, account) */\n      jump\t// in\n    tag_249:\n        /* \"https://github.com/OpenZeppelin/openzeppelin-contracts/blob/v4.8.0/contracts/access/AccessControl.sol\":5228:5375  function revokeRole(bytes32 role, address account) public virtual override onlyRole(getRoleAdmin(role)) {... */\n      pop\n      pop\n      pop\n      jump\t// out\n        /* \"contracts/v2/TikTrixEscrow.sol\":541:571  IERC20Mintable public entToken */\n    tag_118:\n      0x01\n      0x00\n      swap1\n      sload\n      swap1\n      0x0100\n      exp\n      swap1\n      div\n      0xffffffffffffffffffffffffffffffffffffffff\n      and\n      dup2\n      jump\t// out\n        /* \"contracts/v2/TikTrixEscrow.sol\":4058:4583  function rankScoreUpdateChallenge(... */\n    tag_122:\n        /* \"contracts/v2/TikTrixEscrow.sol\":511:534  keccak256(\"ADMIN_ROLE\") */\n      0xa49807205ce4d355092ef5a8a18f56e8913cf4a201fbe287825b095693c21775\n        /* \"https://github.com/OpenZeppelin/openzeppelin-contracts/blob/v4.8.0/contracts/access/AccessControl.sol\":2505:2521  _checkRole(role) */\n      tag_251\n        /* \"https://github.com/OpenZeppelin/openzeppelin-contracts/blob/v4.8.0/contracts/access/AccessControl.sol\":2516:2520  role */\n      dup2\n        /* \"https://github.com/OpenZeppelin/openzeppelin-contracts/blob/v4.8.0/contracts/access/AccessControl.sol\":2505:2515  _checkRole */\n      tag_133\n        /* \"https://github.com/OpenZeppelin/openzeppelin-contracts/blob/v4.8.0/contracts/access/AccessControl.sol\":2505:2521  _checkRole(role) */\n      jump\t// in\n    tag_251:\n        /* \"contracts/v2/TikTrixEscrow.sol\":4250:4265  challengeScores */\n      0x05\n        /* \"contracts/v2/TikTrixEscrow.sol\":4250:4275  challengeScores[yyyymmdd] */\n      0x00\n        /* \"contracts/v2/TikTrixEscrow.sol\":4266:4274  yyyymmdd */\n      dup7\n        /* \"contracts/v2/TikTrixEscrow.sol\":4250:4275  challengeScores[yyyymmdd] */\n      dup2\n      mstore\n      0x20\n      add\n      swap1\n      dup2\n      mstore\n      0x20\n      add\n      0x00\n      keccak256\n        /* \"contracts/v2/TikTrixEscrow.sol\":4250:4284  challengeScores[yyyymmdd][gameSeq] */\n      0x00\n        /* \"contracts/v2/TikTrixEscrow.sol\":4276:4283  gameSeq */\n      dup6\n        /* \"contracts/v2/TikTrixEscrow.sol\":4250:4284  challengeScores[yyyymmdd][gameSeq] */\n      dup2\n      mstore\n      0x20\n      add\n      swap1\n      dup2\n      mstore\n      0x20\n      add\n      0x00\n      keccak256\n        /* \"contracts/v2/TikTrixEscrow.sol\":4250:4295  challengeScores[yyyymmdd][gameSeq][memberSeq] */\n      0x00\n        /* \"contracts/v2/TikTrixEscrow.sol\":4285:4294  memberSeq */\n      dup5\n        /* \"contracts/v2/TikTrixEscrow.sol\":4250:4295  challengeScores[yyyymmdd][gameSeq][memberSeq] */\n      dup2\n      mstore\n      0x20\n      add\n      swap1\n      dup2\n      mstore\n      0x20\n      add\n      0x00\n      keccak256\n        /* \"contracts/v2/TikTrixEscrow.sol\":4250:4302  challengeScores[yyyymmdd][gameSeq][memberSeq].exists */\n      0x04\n      add\n      0x00\n      swap1\n      sload\n      swap1\n      0x0100\n      exp\n      swap1\n      div\n      0xff\n      and\n        /* \"contracts/v2/TikTrixEscrow.sol\":4242:4331  require(challengeScores[yyyymmdd][gameSeq][memberSeq].exists, \"Challenge does not exist\") */\n      tag_253\n      jumpi\n      mload(0x40)\n      0x08c379a000000000000000000000000000000000000000000000000000000000\n      dup2\n      mstore\n      0x04\n      add\n      tag_254\n      swap1\n      tag_255\n      jump\t// in\n    tag_254:\n      mload(0x40)\n      dup1\n      swap2\n      sub\n      swap1\n      revert\n    tag_253:\n        /* \"contracts/v2/TikTrixEscrow.sol\":4357:4372  challengeScores */\n      0x05\n        /* \"contracts/v2/TikTrixEscrow.sol\":4357:4382  challengeScores[yyyymmdd] */\n      0x00\n        /* \"contracts/v2/TikTrixEscrow.sol\":4373:4381  yyyymmdd */\n      dup7\n        /* \"contracts/v2/TikTrixEscrow.sol\":4357:4382  challengeScores[yyyymmdd] */\n      dup2\n      mstore\n      0x20\n      add\n      swap1\n      dup2\n      mstore\n      0x20\n      add\n      0x00\n      keccak256\n        /* \"contracts/v2/TikTrixEscrow.sol\":4357:4391  challengeScores[yyyymmdd][gameSeq] */\n      0x00\n        /* \"contracts/v2/TikTrixEscrow.sol\":4383:4390  gameSeq */\n      dup6\n        /* \"contracts/v2/TikTrixEscrow.sol\":4357:4391  challengeScores[yyyymmdd][gameSeq] */\n      dup2\n      mstore\n      0x20\n      add\n      swap1\n      dup2\n      mstore\n      0x20\n      add\n      0x00\n      keccak256\n        /* \"contracts/v2/TikTrixEscrow.sol\":4357:4402  challengeScores[yyyymmdd][gameSeq][memberSeq] */\n      0x00\n        /* \"contracts/v2/TikTrixEscrow.sol\":4392:4401  memberSeq */\n      dup5\n        /* \"contracts/v2/TikTrixEscrow.sol\":4357:4402  challengeScores[yyyymmdd][gameSeq][memberSeq] */\n      dup2\n      mstore\n      0x20\n      add\n      swap1\n      dup2\n      mstore\n      0x20\n      add\n      0x00\n      keccak256\n        /* \"contracts/v2/TikTrixEscrow.sol\":4357:4408  challengeScores[yyyymmdd][gameSeq][memberSeq].score */\n      0x03\n      add\n      sload\n        /* \"contracts/v2/TikTrixEscrow.sol\":4346:4354  newScore */\n      dup3\n        /* \"contracts/v2/TikTrixEscrow.sol\":4346:4408  newScore > challengeScores[yyyymmdd][gameSeq][memberSeq].score */\n      gt\n        /* \"contracts/v2/TikTrixEscrow.sol\":4342:4497  if (newScore > challengeScores[yyyymmdd][gameSeq][memberSeq].score) {... */\n      iszero\n      tag_256\n      jumpi\n        /* \"contracts/v2/TikTrixEscrow.sol\":4478:4486  newScore */\n      dup2\n        /* \"contracts/v2/TikTrixEscrow.sol\":4424:4439  challengeScores */\n      0x05\n        /* \"contracts/v2/TikTrixEscrow.sol\":4424:4449  challengeScores[yyyymmdd] */\n      0x00\n        /* \"contracts/v2/TikTrixEscrow.sol\":4440:4448  yyyymmdd */\n      dup8\n        /* \"contracts/v2/TikTrixEscrow.sol\":4424:4449  challengeScores[yyyymmdd] */\n      dup2\n      mstore\n      0x20\n      add\n      swap1\n      dup2\n      mstore\n      0x20\n      add\n      0x00\n      keccak256\n        /* \"contracts/v2/TikTrixEscrow.sol\":4424:4458  challengeScores[yyyymmdd][gameSeq] */\n      0x00\n        /* \"contracts/v2/TikTrixEscrow.sol\":4450:4457  gameSeq */\n      dup7\n        /* \"contracts/v2/TikTrixEscrow.sol\":4424:4458  challengeScores[yyyymmdd][gameSeq] */\n      dup2\n      mstore\n      0x20\n      add\n      swap1\n      dup2\n      mstore\n      0x20\n      add\n      0x00\n      keccak256\n        /* \"contracts/v2/TikTrixEscrow.sol\":4424:4469  challengeScores[yyyymmdd][gameSeq][memberSeq] */\n      0x00\n        /* \"contracts/v2/TikTrixEscrow.sol\":4459:4468  memberSeq */\n      dup6\n        /* \"contracts/v2/TikTrixEscrow.sol\":4424:4469  challengeScores[yyyymmdd][gameSeq][memberSeq] */\n      dup2\n      mstore\n      0x20\n      add\n      swap1\n      dup2\n      mstore\n      0x20\n      add\n      0x00\n      keccak256\n        /* \"contracts/v2/TikTrixEscrow.sol\":4424:4475  challengeScores[yyyymmdd][gameSeq][memberSeq].score */\n      0x03\n      add\n        /* \"contracts/v2/TikTrixEscrow.sol\":4424:4486  challengeScores[yyyymmdd][gameSeq][memberSeq].score = newScore */\n      dup2\n      swap1\n      sstore\n      pop\n        /* \"contracts/v2/TikTrixEscrow.sol\":4342:4497  if (newScore > challengeScores[yyyymmdd][gameSeq][memberSeq].score) {... */\n    tag_256:\n        /* \"contracts/v2/TikTrixEscrow.sol\":4556:4565  memberSeq */\n      dup3\n        /* \"contracts/v2/TikTrixEscrow.sol\":4547:4554  gameSeq */\n      dup5\n        /* \"contracts/v2/TikTrixEscrow.sol\":4537:4545  yyyymmdd */\n      dup7\n        /* \"contracts/v2/TikTrixEscrow.sol\":4512:4576  RankScoreUpdateChallenge(yyyymmdd, gameSeq, memberSeq, newScore) */\n      0x2bbc9ad1871f4b99168aa3febe254b9069558ff96ed7746d1677869afa38243f\n        /* \"contracts/v2/TikTrixEscrow.sol\":4567:4575  newScore */\n      dup6\n        /* \"contracts/v2/TikTrixEscrow.sol\":4512:4576  RankScoreUpdateChallenge(yyyymmdd, gameSeq, memberSeq, newScore) */\n      mload(0x40)\n      tag_257\n      swap2\n      swap1\n      tag_44\n      jump\t// in\n    tag_257:\n      mload(0x40)\n      dup1\n      swap2\n      sub\n      swap1\n      log4\n        /* \"contracts/v2/TikTrixEscrow.sol\":4058:4583  function rankScoreUpdateChallenge(... */\n      pop\n      pop\n      pop\n      pop\n      pop\n      jump\t// out\n        /* \"https://github.com/OpenZeppelin/openzeppelin-contracts/blob/v4.8.0/contracts/utils/introspection/ERC165.sol\":829:984  function supportsInterface(bytes4 interfaceId) public view virtual override returns (bool) {... */\n    tag_126:\n        /* \"https://github.com/OpenZeppelin/openzeppelin-contracts/blob/v4.8.0/contracts/utils/introspection/ERC165.sol\":914:918  bool */\n      0x00\n        /* \"https://github.com/OpenZeppelin/openzeppelin-contracts/blob/v4.8.0/contracts/utils/introspection/ERC165.sol\":952:977  type(IERC165).interfaceId */\n      0x01ffc9a700000000000000000000000000000000000000000000000000000000\n        /* \"https://github.com/OpenZeppelin/openzeppelin-contracts/blob/v4.8.0/contracts/utils/introspection/ERC165.sol\":937:977  interfaceId == type(IERC165).interfaceId */\n      not(0xffffffffffffffffffffffffffffffffffffffffffffffffffffffff)\n      and\n        /* \"https://github.com/OpenZeppelin/openzeppelin-contracts/blob/v4.8.0/contracts/utils/introspection/ERC165.sol\":937:948  interfaceId */\n      dup3\n        /* \"https://github.com/OpenZeppelin/openzeppelin-contracts/blob/v4.8.0/contracts/utils/introspection/ERC165.sol\":937:977  interfaceId == type(IERC165).interfaceId */\n      not(0xffffffffffffffffffffffffffffffffffffffffffffffffffffffff)\n      and\n      eq\n        /* \"https://github.com/OpenZeppelin/openzeppelin-contracts/blob/v4.8.0/contracts/utils/introspection/ERC165.sol\":930:977  return interfaceId == type(IERC165).interfaceId */\n      swap1\n      pop\n        /* \"https://github.com/OpenZeppelin/openzeppelin-contracts/blob/v4.8.0/contracts/utils/introspection/ERC165.sol\":829:984  function supportsInterface(bytes4 interfaceId) public view virtual override returns (bool) {... */\n      swap2\n      swap1\n      pop\n      jump\t// out\n        /* \"https://github.com/OpenZeppelin/openzeppelin-contracts/blob/v4.8.0/contracts/access/AccessControl.sol\":3334:3437  function _checkRole(bytes32 role) internal view virtual {... */\n    tag_133:\n        /* \"https://github.com/OpenZeppelin/openzeppelin-contracts/blob/v4.8.0/contracts/access/AccessControl.sol\":3400:3430  _checkRole(role, _msgSender()) */\n      tag_260\n        /* \"https://github.com/OpenZeppelin/openzeppelin-contracts/blob/v4.8.0/contracts/access/AccessControl.sol\":3411:3415  role */\n      dup2\n        /* \"https://github.com/OpenZeppelin/openzeppelin-contracts/blob/v4.8.0/contracts/access/AccessControl.sol\":3417:3429  _msgSender() */\n      tag_261\n        /* \"https://github.com/OpenZeppelin/openzeppelin-contracts/blob/v4.8.0/contracts/access/AccessControl.sol\":3417:3427  _msgSender */\n      tag_139\n        /* \"https://github.com/OpenZeppelin/openzeppelin-contracts/blob/v4.8.0/contracts/access/AccessControl.sol\":3417:3429  _msgSender() */\n      jump\t// in\n    tag_261:\n        /* \"https://github.com/OpenZeppelin/openzeppelin-contracts/blob/v4.8.0/contracts/access/AccessControl.sol\":3400:3410  _checkRole */\n      tag_262\n        /* \"https://github.com/OpenZeppelin/openzeppelin-contracts/blob/v4.8.0/contracts/access/AccessControl.sol\":3400:3430  _checkRole(role, _msgSender()) */\n      jump\t// in\n    tag_260:\n        /* \"https://github.com/OpenZeppelin/openzeppelin-contracts/blob/v4.8.0/contracts/access/AccessControl.sol\":3334:3437  function _checkRole(bytes32 role) internal view virtual {... */\n      pop\n      jump\t// out\n        /* \"https://github.com/OpenZeppelin/openzeppelin-contracts/blob/v4.8.0/contracts/access/AccessControl.sol\":7461:7694  function _grantRole(bytes32 role, address account) internal virtual {... */\n    tag_136:\n        /* \"https://github.com/OpenZeppelin/openzeppelin-contracts/blob/v4.8.0/contracts/access/AccessControl.sol\":7544:7566  hasRole(role, account) */\n      tag_264\n        /* \"https://github.com/OpenZeppelin/openzeppelin-contracts/blob/v4.8.0/contracts/access/AccessControl.sol\":7552:7556  role */\n      dup3\n        /* \"https://github.com/OpenZeppelin/openzeppelin-contracts/blob/v4.8.0/contracts/access/AccessControl.sol\":7558:7565  account */\n      dup3\n        /* \"https://github.com/OpenZeppelin/openzeppelin-contracts/blob/v4.8.0/contracts/access/AccessControl.sol\":7544:7551  hasRole */\n      tag_77\n        /* \"https://github.com/OpenZeppelin/openzeppelin-contracts/blob/v4.8.0/contracts/access/AccessControl.sol\":7544:7566  hasRole(role, account) */\n      jump\t// in\n    tag_264:\n        /* \"https://github.com/OpenZeppelin/openzeppelin-contracts/blob/v4.8.0/contracts/access/AccessControl.sol\":7539:7688  if (!hasRole(role, account)) {... */\n      tag_265\n      jumpi\n        /* \"https://github.com/OpenZeppelin/openzeppelin-contracts/blob/v4.8.0/contracts/access/AccessControl.sol\":7614:7618  true */\n      0x01\n        /* \"https://github.com/OpenZeppelin/openzeppelin-contracts/blob/v4.8.0/contracts/access/AccessControl.sol\":7582:7588  _roles */\n      0x00\n        /* \"https://github.com/OpenZeppelin/openzeppelin-contracts/blob/v4.8.0/contracts/access/AccessControl.sol\":7582:7594  _roles[role] */\n      dup1\n        /* \"https://github.com/OpenZeppelin/openzeppelin-contracts/blob/v4.8.0/contracts/access/AccessControl.sol\":7589:7593  role */\n      dup5\n        /* \"https://github.com/OpenZeppelin/openzeppelin-contracts/blob/v4.8.0/contracts/access/AccessControl.sol\":7582:7594  _roles[role] */\n      dup2\n      mstore\n      0x20\n      add\n      swap1\n      dup2\n      mstore\n      0x20\n      add\n      0x00\n      keccak256\n        /* \"https://github.com/OpenZeppelin/openzeppelin-contracts/blob/v4.8.0/contracts/access/AccessControl.sol\":7582:7602  _roles[role].members */\n      0x00\n      add\n        /* \"https://github.com/OpenZeppelin/openzeppelin-contracts/blob/v4.8.0/contracts/access/AccessControl.sol\":7582:7611  _roles[role].members[account] */\n      0x00\n        /* \"https://github.com/OpenZeppelin/openzeppelin-contracts/blob/v4.8.0/contracts/access/AccessControl.sol\":7603:7610  account */\n      dup4\n        /* \"https://github.com/OpenZeppelin/openzeppelin-contracts/blob/v4.8.0/contracts/access/AccessControl.sol\":7582:7611  _roles[role].members[account] */\n      0xffffffffffffffffffffffffffffffffffffffff\n      and\n      0xffffffffffffffffffffffffffffffffffffffff\n      and\n      dup2\n      mstore\n      0x20\n      add\n      swap1\n      dup2\n      mstore\n      0x20\n      add\n      0x00\n      keccak256\n      0x00\n        /* \"https://github.com/OpenZeppelin/openzeppelin-contracts/blob/v4.8.0/contracts/access/AccessControl.sol\":7582:7618  _roles[role].members[account] = true */\n      0x0100\n      exp\n      dup2\n      sload\n      dup2\n      0xff\n      mul\n      not\n      and\n      swap1\n      dup4\n      iszero\n      iszero\n      mul\n      or\n      swap1\n      sstore\n      pop\n        /* \"https://github.com/OpenZeppelin/openzeppelin-contracts/blob/v4.8.0/contracts/access/AccessControl.sol\":7664:7676  _msgSender() */\n      tag_266\n        /* \"https://github.com/OpenZeppelin/openzeppelin-contracts/blob/v4.8.0/contracts/access/AccessControl.sol\":7664:7674  _msgSender */\n      tag_139\n        /* \"https://github.com/OpenZeppelin/openzeppelin-contracts/blob/v4.8.0/contracts/access/AccessControl.sol\":7664:7676  _msgSender() */\n      jump\t// in\n    tag_266:\n        /* \"https://github.com/OpenZeppelin/openzeppelin-contracts/blob/v4.8.0/contracts/access/AccessControl.sol\":7637:7677  RoleGranted(role, account, _msgSender()) */\n      0xffffffffffffffffffffffffffffffffffffffff\n      and\n        /* \"https://github.com/OpenZeppelin/openzeppelin-contracts/blob/v4.8.0/contracts/access/AccessControl.sol\":7655:7662  account */\n      dup2\n        /* \"https://github.com/OpenZeppelin/openzeppelin-contracts/blob/v4.8.0/contracts/access/AccessControl.sol\":7637:7677  RoleGranted(role, account, _msgSender()) */\n      0xffffffffffffffffffffffffffffffffffffffff\n      and\n        /* \"https://github.com/OpenZeppelin/openzeppelin-contracts/blob/v4.8.0/contracts/access/AccessControl.sol\":7649:7653  role */\n      dup4\n        /* \"https://github.com/OpenZeppelin/openzeppelin-contracts/blob/v4.8.0/contracts/access/AccessControl.sol\":7637:7677  RoleGranted(role, account, _msgSender()) */\n      0x2f8788117e7eff1d82e926ec794901d17c78024a50270940304540a733656f0d\n      mload(0x40)\n      mload(0x40)\n      dup1\n      swap2\n      sub\n      swap1\n      log4\n        /* \"https://github.com/OpenZeppelin/openzeppelin-contracts/blob/v4.8.0/contracts/access/AccessControl.sol\":7539:7688  if (!hasRole(role, account)) {... */\n    tag_265:\n        /* \"https://github.com/OpenZeppelin/openzeppelin-contracts/blob/v4.8.0/contracts/access/AccessControl.sol\":7461:7694  function _grantRole(bytes32 role, address account) internal virtual {... */\n      pop\n      pop\n      jump\t// out\n        /* \"https://github.com/OpenZeppelin/openzeppelin-contracts/blob/v4.8.0/contracts/utils/Context.sol\":640:736  function _msgSender() internal view virtual returns (address) {... */\n    tag_139:\n        /* \"https://github.com/OpenZeppelin/openzeppelin-contracts/blob/v4.8.0/contracts/utils/Context.sol\":693:700  address */\n      0x00\n        /* \"https://github.com/OpenZeppelin/openzeppelin-contracts/blob/v4.8.0/contracts/utils/Context.sol\":719:729  msg.sender */\n      caller\n        /* \"https://github.com/OpenZeppelin/openzeppelin-contracts/blob/v4.8.0/contracts/utils/Context.sol\":712:729  return msg.sender */\n      swap1\n      pop\n        /* \"https://github.com/OpenZeppelin/openzeppelin-contracts/blob/v4.8.0/contracts/utils/Context.sol\":640:736  function _msgSender() internal view virtual returns (address) {... */\n      swap1\n      jump\t// out\n        /* \"https://github.com/OpenZeppelin/openzeppelin-contracts/blob/v4.8.0/contracts/access/AccessControl.sol\":7865:8099  function _revokeRole(bytes32 role, address account) internal virtual {... */\n    tag_144:\n        /* \"https://github.com/OpenZeppelin/openzeppelin-contracts/blob/v4.8.0/contracts/access/AccessControl.sol\":7948:7970  hasRole(role, account) */\n      tag_269\n        /* \"https://github.com/OpenZeppelin/openzeppelin-contracts/blob/v4.8.0/contracts/access/AccessControl.sol\":7956:7960  role */\n      dup3\n        /* \"https://github.com/OpenZeppelin/openzeppelin-contracts/blob/v4.8.0/contracts/access/AccessControl.sol\":7962:7969  account */\n      dup3\n        /* \"https://github.com/OpenZeppelin/openzeppelin-contracts/blob/v4.8.0/contracts/access/AccessControl.sol\":7948:7955  hasRole */\n      tag_77\n        /* \"https://github.com/OpenZeppelin/openzeppelin-contracts/blob/v4.8.0/contracts/access/AccessControl.sol\":7948:7970  hasRole(role, account) */\n      jump\t// in\n    tag_269:\n        /* \"https://github.com/OpenZeppelin/openzeppelin-contracts/blob/v4.8.0/contracts/access/AccessControl.sol\":7944:8093  if (hasRole(role, account)) {... */\n      iszero\n      tag_270\n      jumpi\n        /* \"https://github.com/OpenZeppelin/openzeppelin-contracts/blob/v4.8.0/contracts/access/AccessControl.sol\":8018:8023  false */\n      0x00\n        /* \"https://github.com/OpenZeppelin/openzeppelin-contracts/blob/v4.8.0/contracts/access/AccessControl.sol\":7986:7992  _roles */\n      dup1\n        /* \"https://github.com/OpenZeppelin/openzeppelin-contracts/blob/v4.8.0/contracts/access/AccessControl.sol\":7986:7998  _roles[role] */\n      0x00\n        /* \"https://github.com/OpenZeppelin/openzeppelin-contracts/blob/v4.8.0/contracts/access/AccessControl.sol\":7993:7997  role */\n      dup5\n        /* \"https://github.com/OpenZeppelin/openzeppelin-contracts/blob/v4.8.0/contracts/access/AccessControl.sol\":7986:7998  _roles[role] */\n      dup2\n      mstore\n      0x20\n      add\n      swap1\n      dup2\n      mstore\n      0x20\n      add\n      0x00\n      keccak256\n        /* \"https://github.com/OpenZeppelin/openzeppelin-contracts/blob/v4.8.0/contracts/access/AccessControl.sol\":7986:8006  _roles[role].members */\n      0x00\n      add\n        /* \"https://github.com/OpenZeppelin/openzeppelin-contracts/blob/v4.8.0/contracts/access/AccessControl.sol\":7986:8015  _roles[role].members[account] */\n      0x00\n        /* \"https://github.com/OpenZeppelin/openzeppelin-contracts/blob/v4.8.0/contracts/access/AccessControl.sol\":8007:8014  account */\n      dup4\n        /* \"https://github.com/OpenZeppelin/openzeppelin-contracts/blob/v4.8.0/contracts/access/AccessControl.sol\":7986:8015  _roles[role].members[account] */\n      0xffffffffffffffffffffffffffffffffffffffff\n      and\n      0xffffffffffffffffffffffffffffffffffffffff\n      and\n      dup2\n      mstore\n      0x20\n      add\n      swap1\n      dup2\n      mstore\n      0x20\n      add\n      0x00\n      keccak256\n      0x00\n        /* \"https://github.com/OpenZeppelin/openzeppelin-contracts/blob/v4.8.0/contracts/access/AccessControl.sol\":7986:8023  _roles[role].members[account] = false */\n      0x0100\n      exp\n      dup2\n      sload\n      dup2\n      0xff\n      mul\n      not\n      and\n      swap1\n      dup4\n      iszero\n      iszero\n      mul\n      or\n      swap1\n      sstore\n      pop\n        /* \"https://github.com/OpenZeppelin/openzeppelin-contracts/blob/v4.8.0/contracts/access/AccessControl.sol\":8069:8081  _msgSender() */\n      tag_271\n        /* \"https://github.com/OpenZeppelin/openzeppelin-contracts/blob/v4.8.0/contracts/access/AccessControl.sol\":8069:8079  _msgSender */\n      tag_139\n        /* \"https://github.com/OpenZeppelin/openzeppelin-contracts/blob/v4.8.0/contracts/access/AccessControl.sol\":8069:8081  _msgSender() */\n      jump\t// in\n    tag_271:\n        /* \"https://github.com/OpenZeppelin/openzeppelin-contracts/blob/v4.8.0/contracts/access/AccessControl.sol\":8042:8082  RoleRevoked(role, account, _msgSender()) */\n      0xffffffffffffffffffffffffffffffffffffffff\n      and\n        /* \"https://github.com/OpenZeppelin/openzeppelin-contracts/blob/v4.8.0/contracts/access/AccessControl.sol\":8060:8067  account */\n      dup2\n        /* \"https://github.com/OpenZeppelin/openzeppelin-contracts/blob/v4.8.0/contracts/access/AccessControl.sol\":8042:8082  RoleRevoked(role, account, _msgSender()) */\n      0xffffffffffffffffffffffffffffffffffffffff\n      and\n        /* \"https://github.com/OpenZeppelin/openzeppelin-contracts/blob/v4.8.0/contracts/access/AccessControl.sol\":8054:8058  role */\n      dup4\n        /* \"https://github.com/OpenZeppelin/openzeppelin-contracts/blob/v4.8.0/contracts/access/AccessControl.sol\":8042:8082  RoleRevoked(role, account, _msgSender()) */\n      0xf6391f5c32d9c69d2a47ea670b442974b53935d1edc7fd64eb21e047a839171b\n      mload(0x40)\n      mload(0x40)\n      dup1\n      swap2\n      sub\n      swap1\n      log4\n        /* \"https://github.com/OpenZeppelin/openzeppelin-contracts/blob/v4.8.0/contracts/access/AccessControl.sol\":7944:8093  if (hasRole(role, account)) {... */\n    tag_270:\n        /* \"https://github.com/OpenZeppelin/openzeppelin-contracts/blob/v4.8.0/contracts/access/AccessControl.sol\":7865:8099  function _revokeRole(bytes32 role, address account) internal virtual {... */\n      pop\n      pop\n      jump\t// out\n        /* \"https://github.com/OpenZeppelin/openzeppelin-contracts/blob/v4.8.0/contracts/access/AccessControl.sol\":3718:4197  function _checkRole(bytes32 role, address account) internal view virtual {... */\n    tag_262:\n        /* \"https://github.com/OpenZeppelin/openzeppelin-contracts/blob/v4.8.0/contracts/access/AccessControl.sol\":3806:3828  hasRole(role, account) */\n      tag_273\n        /* \"https://github.com/OpenZeppelin/openzeppelin-contracts/blob/v4.8.0/contracts/access/AccessControl.sol\":3814:3818  role */\n      dup3\n        /* \"https://github.com/OpenZeppelin/openzeppelin-contracts/blob/v4.8.0/contracts/access/AccessControl.sol\":3820:3827  account */\n      dup3\n        /* \"https://github.com/OpenZeppelin/openzeppelin-contracts/blob/v4.8.0/contracts/access/AccessControl.sol\":3806:3813  hasRole */\n      tag_77\n        /* \"https://github.com/OpenZeppelin/openzeppelin-contracts/blob/v4.8.0/contracts/access/AccessControl.sol\":3806:3828  hasRole(role, account) */\n      jump\t// in\n    tag_273:\n        /* \"https://github.com/OpenZeppelin/openzeppelin-contracts/blob/v4.8.0/contracts/access/AccessControl.sol\":3801:4191  if (!hasRole(role, account)) {... */\n      tag_274\n      jumpi\n        /* \"https://github.com/OpenZeppelin/openzeppelin-contracts/blob/v4.8.0/contracts/access/AccessControl.sol\":3989:4017  Strings.toHexString(account) */\n      tag_275\n        /* \"https://github.com/OpenZeppelin/openzeppelin-contracts/blob/v4.8.0/contracts/access/AccessControl.sol\":4009:4016  account */\n      dup2\n        /* \"https://github.com/OpenZeppelin/openzeppelin-contracts/blob/v4.8.0/contracts/access/AccessControl.sol\":3989:4008  Strings.toHexString */\n      tag_276\n        /* \"https://github.com/OpenZeppelin/openzeppelin-contracts/blob/v4.8.0/contracts/access/AccessControl.sol\":3989:4017  Strings.toHexString(account) */\n      jump\t// in\n    tag_275:\n        /* \"https://github.com/OpenZeppelin/openzeppelin-contracts/blob/v4.8.0/contracts/access/AccessControl.sol\":4088:4126  Strings.toHexString(uint256(role), 32) */\n      tag_277\n        /* \"https://github.com/OpenZeppelin/openzeppelin-contracts/blob/v4.8.0/contracts/access/AccessControl.sol\":4116:4120  role */\n      dup4\n        /* \"https://github.com/OpenZeppelin/openzeppelin-contracts/blob/v4.8.0/contracts/access/AccessControl.sol\":4108:4121  uint256(role) */\n      0x00\n      shr\n        /* \"https://github.com/OpenZeppelin/openzeppelin-contracts/blob/v4.8.0/contracts/access/AccessControl.sol\":4123:4125  32 */\n      0x20\n        /* \"https://github.com/OpenZeppelin/openzeppelin-contracts/blob/v4.8.0/contracts/access/AccessControl.sol\":4088:4107  Strings.toHexString */\n      tag_278\n        /* \"https://github.com/OpenZeppelin/openzeppelin-contracts/blob/v4.8.0/contracts/access/AccessControl.sol\":4088:4126  Strings.toHexString(uint256(role), 32) */\n      jump\t// in\n    tag_277:\n        /* \"https://github.com/OpenZeppelin/openzeppelin-contracts/blob/v4.8.0/contracts/access/AccessControl.sol\":3896:4148  abi.encodePacked(... */\n      add(0x20, mload(0x40))\n      tag_279\n      swap3\n      swap2\n      swap1\n      tag_280\n      jump\t// in\n    tag_279:\n      mload(0x40)\n      0x20\n      dup2\n      dup4\n      sub\n      sub\n      dup2\n      mstore\n      swap1\n      0x40\n      mstore\n        /* \"https://github.com/OpenZeppelin/openzeppelin-contracts/blob/v4.8.0/contracts/access/AccessControl.sol\":3844:4180  revert(... */\n      mload(0x40)\n      0x08c379a000000000000000000000000000000000000000000000000000000000\n      dup2\n      mstore\n      0x04\n      add\n      tag_281\n      swap2\n      swap1\n      tag_282\n      jump\t// in\n    tag_281:\n      mload(0x40)\n      dup1\n      swap2\n      sub\n      swap1\n      revert\n        /* \"https://github.com/OpenZeppelin/openzeppelin-contracts/blob/v4.8.0/contracts/access/AccessControl.sol\":3801:4191  if (!hasRole(role, account)) {... */\n    tag_274:\n        /* \"https://github.com/OpenZeppelin/openzeppelin-contracts/blob/v4.8.0/contracts/access/AccessControl.sol\":3718:4197  function _checkRole(bytes32 role, address account) internal view virtual {... */\n      pop\n      pop\n      jump\t// out\n        /* \"https://github.com/OpenZeppelin/openzeppelin-contracts/blob/v4.8.0/contracts/utils/Strings.sol\":2102:2251  function toHexString(address addr) internal pure returns (string memory) {... */\n    tag_276:\n        /* \"https://github.com/OpenZeppelin/openzeppelin-contracts/blob/v4.8.0/contracts/utils/Strings.sol\":2160:2173  string memory */\n      0x60\n        /* \"https://github.com/OpenZeppelin/openzeppelin-contracts/blob/v4.8.0/contracts/utils/Strings.sol\":2192:2244  toHexString(uint256(uint160(addr)), _ADDRESS_LENGTH) */\n      tag_284\n        /* \"https://github.com/OpenZeppelin/openzeppelin-contracts/blob/v4.8.0/contracts/utils/Strings.sol\":2220:2224  addr */\n      dup3\n        /* \"https://github.com/OpenZeppelin/openzeppelin-contracts/blob/v4.8.0/contracts/utils/Strings.sol\":2204:2226  uint256(uint160(addr)) */\n      0xffffffffffffffffffffffffffffffffffffffff\n      and\n        /* \"https://github.com/OpenZeppelin/openzeppelin-contracts/blob/v4.8.0/contracts/utils/Strings.sol\":311:313  20 */\n      0x14\n        /* \"https://github.com/OpenZeppelin/openzeppelin-contracts/blob/v4.8.0/contracts/utils/Strings.sol\":2192:2244  toHexString(uint256(uint160(addr)), _ADDRESS_LENGTH) */\n      0xff\n      and\n        /* \"https://github.com/OpenZeppelin/openzeppelin-contracts/blob/v4.8.0/contracts/utils/Strings.sol\":2192:2203  toHexString */\n      tag_278\n        /* \"https://github.com/OpenZeppelin/openzeppelin-contracts/blob/v4.8.0/contracts/utils/Strings.sol\":2192:2244  toHexString(uint256(uint160(addr)), _ADDRESS_LENGTH) */\n      jump\t// in\n    tag_284:\n        /* \"https://github.com/OpenZeppelin/openzeppelin-contracts/blob/v4.8.0/contracts/utils/Strings.sol\":2185:2244  return toHexString(uint256(uint160(addr)), _ADDRESS_LENGTH) */\n      swap1\n      pop\n        /* \"https://github.com/OpenZeppelin/openzeppelin-contracts/blob/v4.8.0/contracts/utils/Strings.sol\":2102:2251  function toHexString(address addr) internal pure returns (string memory) {... */\n      swap2\n      swap1\n      pop\n      jump\t// out\n        /* \"https://github.com/OpenZeppelin/openzeppelin-contracts/blob/v4.8.0/contracts/utils/Strings.sol\":1513:1950  function toHexString(uint256 value, uint256 length) internal pure returns (string memory) {... */\n    tag_278:\n        /* \"https://github.com/OpenZeppelin/openzeppelin-contracts/blob/v4.8.0/contracts/utils/Strings.sol\":1588:1601  string memory */\n      0x60\n        /* \"https://github.com/OpenZeppelin/openzeppelin-contracts/blob/v4.8.0/contracts/utils/Strings.sol\":1613:1632  bytes memory buffer */\n      0x00\n        /* \"https://github.com/OpenZeppelin/openzeppelin-contracts/blob/v4.8.0/contracts/utils/Strings.sol\":1658:1659  2 */\n      0x02\n        /* \"https://github.com/OpenZeppelin/openzeppelin-contracts/blob/v4.8.0/contracts/utils/Strings.sol\":1649:1655  length */\n      dup4\n        /* \"https://github.com/OpenZeppelin/openzeppelin-contracts/blob/v4.8.0/contracts/utils/Strings.sol\":1645:1646  2 */\n      0x02\n        /* \"https://github.com/OpenZeppelin/openzeppelin-contracts/blob/v4.8.0/contracts/utils/Strings.sol\":1645:1655  2 * length */\n      tag_286\n      swap2\n      swap1\n      tag_287\n      jump\t// in\n    tag_286:\n        /* \"https://github.com/OpenZeppelin/openzeppelin-contracts/blob/v4.8.0/contracts/utils/Strings.sol\":1645:1659  2 * length + 2 */\n      tag_288\n      swap2\n      swap1\n      tag_289\n      jump\t// in\n    tag_288:\n        /* \"https://github.com/OpenZeppelin/openzeppelin-contracts/blob/v4.8.0/contracts/utils/Strings.sol\":1635:1660  new bytes(2 * length + 2) */\n      0xffffffffffffffff\n      dup2\n      gt\n      iszero\n      tag_290\n      jumpi\n      tag_291\n      tag_292\n      jump\t// in\n    tag_291:\n    tag_290:\n      mload(0x40)\n      swap1\n      dup1\n      dup3\n      mstore\n      dup1\n      0x1f\n      add\n      not(0x1f)\n      and\n      0x20\n      add\n      dup3\n      add\n      0x40\n      mstore\n      dup1\n      iszero\n      tag_293\n      jumpi\n      dup2\n      0x20\n      add\n      0x01\n      dup3\n      mul\n      dup1\n      calldatasize\n      dup4\n      calldatacopy\n      dup1\n      dup3\n      add\n      swap2\n      pop\n      pop\n      swap1\n      pop\n    tag_293:\n      pop\n        /* \"https://github.com/OpenZeppelin/openzeppelin-contracts/blob/v4.8.0/contracts/utils/Strings.sol\":1613:1660  bytes memory buffer = new bytes(2 * length + 2) */\n      swap1\n      pop\n        /* \"https://github.com/OpenZeppelin/openzeppelin-contracts/blob/v4.8.0/contracts/utils/Strings.sol\":1670:1685  buffer[0] = \"0\" */\n      0x3000000000000000000000000000000000000000000000000000000000000000\n        /* \"https://github.com/OpenZeppelin/openzeppelin-contracts/blob/v4.8.0/contracts/utils/Strings.sol\":1670:1676  buffer */\n      dup2\n        /* \"https://github.com/OpenZeppelin/openzeppelin-contracts/blob/v4.8.0/contracts/utils/Strings.sol\":1677:1678  0 */\n      0x00\n        /* \"https://github.com/OpenZeppelin/openzeppelin-contracts/blob/v4.8.0/contracts/utils/Strings.sol\":1670:1679  buffer[0] */\n      dup2\n      mload\n      dup2\n      lt\n      tag_294\n      jumpi\n      tag_295\n      tag_156\n      jump\t// in\n    tag_295:\n    tag_294:\n      0x20\n      add\n      add\n        /* \"https://github.com/OpenZeppelin/openzeppelin-contracts/blob/v4.8.0/contracts/utils/Strings.sol\":1670:1685  buffer[0] = \"0\" */\n      swap1\n      not(0xffffffffffffffffffffffffffffffffffffffffffffffffffffffffffffff)\n      and\n      swap1\n      dup2\n      0x00\n      byte\n      swap1\n      mstore8\n      pop\n        /* \"https://github.com/OpenZeppelin/openzeppelin-contracts/blob/v4.8.0/contracts/utils/Strings.sol\":1695:1710  buffer[1] = \"x\" */\n      0x7800000000000000000000000000000000000000000000000000000000000000\n        /* \"https://github.com/OpenZeppelin/openzeppelin-contracts/blob/v4.8.0/contracts/utils/Strings.sol\":1695:1701  buffer */\n      dup2\n        /* \"https://github.com/OpenZeppelin/openzeppelin-contracts/blob/v4.8.0/contracts/utils/Strings.sol\":1702:1703  1 */\n      0x01\n        /* \"https://github.com/OpenZeppelin/openzeppelin-contracts/blob/v4.8.0/contracts/utils/Strings.sol\":1695:1704  buffer[1] */\n      dup2\n      mload\n      dup2\n      lt\n      tag_296\n      jumpi\n      tag_297\n      tag_156\n      jump\t// in\n    tag_297:\n    tag_296:\n      0x20\n      add\n      add\n        /* \"https://github.com/OpenZeppelin/openzeppelin-contracts/blob/v4.8.0/contracts/utils/Strings.sol\":1695:1710  buffer[1] = \"x\" */\n      swap1\n      not(0xffffffffffffffffffffffffffffffffffffffffffffffffffffffffffffff)\n      and\n      swap1\n      dup2\n      0x00\n      byte\n      swap1\n      mstore8\n      pop\n        /* \"https://github.com/OpenZeppelin/openzeppelin-contracts/blob/v4.8.0/contracts/utils/Strings.sol\":1725:1734  uint256 i */\n      0x00\n        /* \"https://github.com/OpenZeppelin/openzeppelin-contracts/blob/v4.8.0/contracts/utils/Strings.sol\":1750:1751  1 */\n      0x01\n        /* \"https://github.com/OpenZeppelin/openzeppelin-contracts/blob/v4.8.0/contracts/utils/Strings.sol\":1741:1747  length */\n      dup5\n        /* \"https://github.com/OpenZeppelin/openzeppelin-contracts/blob/v4.8.0/contracts/utils/Strings.sol\":1737:1738  2 */\n      0x02\n        /* \"https://github.com/OpenZeppelin/openzeppelin-contracts/blob/v4.8.0/contracts/utils/Strings.sol\":1737:1747  2 * length */\n      tag_301\n      swap2\n      swap1\n      tag_287\n      jump\t// in\n    tag_301:\n        /* \"https://github.com/OpenZeppelin/openzeppelin-contracts/blob/v4.8.0/contracts/utils/Strings.sol\":1737:1751  2 * length + 1 */\n      tag_302\n      swap2\n      swap1\n      tag_289\n      jump\t// in\n    tag_302:\n        /* \"https://github.com/OpenZeppelin/openzeppelin-contracts/blob/v4.8.0/contracts/utils/Strings.sol\":1725:1751  uint256 i = 2 * length + 1 */\n      swap1\n      pop\n        /* \"https://github.com/OpenZeppelin/openzeppelin-contracts/blob/v4.8.0/contracts/utils/Strings.sol\":1720:1848  for (uint256 i = 2 * length + 1; i > 1; --i) {... */\n    tag_298:\n        /* \"https://github.com/OpenZeppelin/openzeppelin-contracts/blob/v4.8.0/contracts/utils/Strings.sol\":1757:1758  1 */\n      0x01\n        /* \"https://github.com/OpenZeppelin/openzeppelin-contracts/blob/v4.8.0/contracts/utils/Strings.sol\":1753:1754  i */\n      dup2\n        /* \"https://github.com/OpenZeppelin/openzeppelin-contracts/blob/v4.8.0/contracts/utils/Strings.sol\":1753:1758  i > 1 */\n      gt\n        /* \"https://github.com/OpenZeppelin/openzeppelin-contracts/blob/v4.8.0/contracts/utils/Strings.sol\":1720:1848  for (uint256 i = 2 * length + 1; i > 1; --i) {... */\n      iszero\n      tag_299\n      jumpi\n        /* \"https://github.com/OpenZeppelin/openzeppelin-contracts/blob/v4.8.0/contracts/utils/Strings.sol\":1791:1799  _SYMBOLS */\n      0x3031323334353637383961626364656600000000000000000000000000000000\n        /* \"https://github.com/OpenZeppelin/openzeppelin-contracts/blob/v4.8.0/contracts/utils/Strings.sol\":1808:1811  0xf */\n      0x0f\n        /* \"https://github.com/OpenZeppelin/openzeppelin-contracts/blob/v4.8.0/contracts/utils/Strings.sol\":1800:1805  value */\n      dup7\n        /* \"https://github.com/OpenZeppelin/openzeppelin-contracts/blob/v4.8.0/contracts/utils/Strings.sol\":1800:1811  value & 0xf */\n      and\n        /* \"https://github.com/OpenZeppelin/openzeppelin-contracts/blob/v4.8.0/contracts/utils/Strings.sol\":1791:1812  _SYMBOLS[value & 0xf] */\n      0x10\n      dup2\n      lt\n      tag_303\n      jumpi\n      tag_304\n      tag_156\n      jump\t// in\n    tag_304:\n    tag_303:\n      byte\n      0xf8\n      shl\n        /* \"https://github.com/OpenZeppelin/openzeppelin-contracts/blob/v4.8.0/contracts/utils/Strings.sol\":1779:1785  buffer */\n      dup3\n        /* \"https://github.com/OpenZeppelin/openzeppelin-contracts/blob/v4.8.0/contracts/utils/Strings.sol\":1786:1787  i */\n      dup3\n        /* \"https://github.com/OpenZeppelin/openzeppelin-contracts/blob/v4.8.0/contracts/utils/Strings.sol\":1779:1788  buffer[i] */\n      dup2\n      mload\n      dup2\n      lt\n      tag_305\n      jumpi\n      tag_306\n      tag_156\n      jump\t// in\n    tag_306:\n    tag_305:\n      0x20\n      add\n      add\n        /* \"https://github.com/OpenZeppelin/openzeppelin-contracts/blob/v4.8.0/contracts/utils/Strings.sol\":1779:1812  buffer[i] = _SYMBOLS[value & 0xf] */\n      swap1\n      not(0xffffffffffffffffffffffffffffffffffffffffffffffffffffffffffffff)\n      and\n      swap1\n      dup2\n      0x00\n      byte\n      swap1\n      mstore8\n      pop\n        /* \"https://github.com/OpenZeppelin/openzeppelin-contracts/blob/v4.8.0/contracts/utils/Strings.sol\":1836:1837  4 */\n      0x04\n        /* \"https://github.com/OpenZeppelin/openzeppelin-contracts/blob/v4.8.0/contracts/utils/Strings.sol\":1826:1837  value >>= 4 */\n      dup6\n      swap1\n      shr\n      swap5\n      pop\n        /* \"https://github.com/OpenZeppelin/openzeppelin-contracts/blob/v4.8.0/contracts/utils/Strings.sol\":1760:1763  --i */\n      dup1\n      tag_307\n      swap1\n      tag_308\n      jump\t// in\n    tag_307:\n      swap1\n      pop\n        /* \"https://github.com/OpenZeppelin/openzeppelin-contracts/blob/v4.8.0/contracts/utils/Strings.sol\":1720:1848  for (uint256 i = 2 * length + 1; i > 1; --i) {... */\n      jump(tag_298)\n    tag_299:\n      pop\n        /* \"https://github.com/OpenZeppelin/openzeppelin-contracts/blob/v4.8.0/contracts/utils/Strings.sol\":1874:1875  0 */\n      0x00\n        /* \"https://github.com/OpenZeppelin/openzeppelin-contracts/blob/v4.8.0/contracts/utils/Strings.sol\":1865:1870  value */\n      dup5\n        /* \"https://github.com/OpenZeppelin/openzeppelin-contracts/blob/v4.8.0/contracts/utils/Strings.sol\":1865:1875  value == 0 */\n      eq\n        /* \"https://github.com/OpenZeppelin/openzeppelin-contracts/blob/v4.8.0/contracts/utils/Strings.sol\":1857:1912  require(value == 0, \"Strings: hex length insufficient\") */\n      tag_309\n      jumpi\n      mload(0x40)\n      0x08c379a000000000000000000000000000000000000000000000000000000000\n      dup2\n      mstore\n      0x04\n      add\n      tag_310\n      swap1\n      tag_311\n      jump\t// in\n    tag_310:\n      mload(0x40)\n      dup1\n      swap2\n      sub\n      swap1\n      revert\n    tag_309:\n        /* \"https://github.com/OpenZeppelin/openzeppelin-contracts/blob/v4.8.0/contracts/utils/Strings.sol\":1936:1942  buffer */\n      dup1\n        /* \"https://github.com/OpenZeppelin/openzeppelin-contracts/blob/v4.8.0/contracts/utils/Strings.sol\":1922:1943  return string(buffer) */\n      swap2\n      pop\n      pop\n        /* \"https://github.com/OpenZeppelin/openzeppelin-contracts/blob/v4.8.0/contracts/utils/Strings.sol\":1513:1950  function toHexString(uint256 value, uint256 length) internal pure returns (string memory) {... */\n      swap3\n      swap2\n      pop\n      pop\n      jump\t// out\n    tag_183:\n      mload(0x40)\n      dup1\n      0x20\n      add\n      0x40\n      mstore\n      dup1\n      0x00\n      dup2\n      mstore\n      pop\n      swap1\n      jump\t// out\n    tag_202:\n      mload(0x40)\n      dup1\n      0xa0\n      add\n      0x40\n      mstore\n      dup1\n      0x00\n      dup2\n      mstore\n      0x20\n      add\n      0x00\n      dup2\n      mstore\n      0x20\n      add\n      0x00\n      dup2\n      mstore\n      0x20\n      add\n      0x00\n      dup2\n      mstore\n      0x20\n      add\n      iszero(iszero(0x00))\n      dup2\n      mstore\n      pop\n      swap1\n      jump\t// out\n        /* \"#utility.yul\":88:205   */\n    tag_313:\n        /* \"#utility.yul\":197:198   */\n      0x00\n        /* \"#utility.yul\":194:195   */\n      dup1\n        /* \"#utility.yul\":187:199   */\n      revert\n        /* \"#utility.yul\":211:328   */\n    tag_314:\n        /* \"#utility.yul\":320:321   */\n      0x00\n        /* \"#utility.yul\":317:318   */\n      dup1\n        /* \"#utility.yul\":310:322   */\n      revert\n        /* \"#utility.yul\":334:483   */\n    tag_315:\n        /* \"#utility.yul\":370:377   */\n      0x00\n        /* \"#utility.yul\":410:476   */\n      0xffffffff00000000000000000000000000000000000000000000000000000000\n        /* \"#utility.yul\":403:408   */\n      dup3\n        /* \"#utility.yul\":399:477   */\n      and\n        /* \"#utility.yul\":388:477   */\n      swap1\n      pop\n        /* \"#utility.yul\":334:483   */\n      swap2\n      swap1\n      pop\n      jump\t// out\n        /* \"#utility.yul\":489:609   */\n    tag_316:\n        /* \"#utility.yul\":561:584   */\n      tag_403\n        /* \"#utility.yul\":578:583   */\n      dup2\n        /* \"#utility.yul\":561:584   */\n      tag_315\n      jump\t// in\n    tag_403:\n        /* \"#utility.yul\":554:559   */\n      dup2\n        /* \"#utility.yul\":551:585   */\n      eq\n        /* \"#utility.yul\":541:603   */\n      tag_404\n      jumpi\n        /* \"#utility.yul\":599:600   */\n      0x00\n        /* \"#utility.yul\":596:597   */\n      dup1\n        /* \"#utility.yul\":589:601   */\n      revert\n        /* \"#utility.yul\":541:603   */\n    tag_404:\n        /* \"#utility.yul\":489:609   */\n      pop\n      jump\t// out\n        /* \"#utility.yul\":615:752   */\n    tag_317:\n        /* \"#utility.yul\":660:665   */\n      0x00\n        /* \"#utility.yul\":698:704   */\n      dup2\n        /* \"#utility.yul\":685:705   */\n      calldataload\n        /* \"#utility.yul\":676:705   */\n      swap1\n      pop\n        /* \"#utility.yul\":714:746   */\n      tag_406\n        /* \"#utility.yul\":740:745   */\n      dup2\n        /* \"#utility.yul\":714:746   */\n      tag_316\n      jump\t// in\n    tag_406:\n        /* \"#utility.yul\":615:752   */\n      swap3\n      swap2\n      pop\n      pop\n      jump\t// out\n        /* \"#utility.yul\":758:1085   */\n    tag_31:\n        /* \"#utility.yul\":816:822   */\n      0x00\n        /* \"#utility.yul\":865:867   */\n      0x20\n        /* \"#utility.yul\":853:862   */\n      dup3\n        /* \"#utility.yul\":844:851   */\n      dup5\n        /* \"#utility.yul\":840:863   */\n      sub\n        /* \"#utility.yul\":836:868   */\n      slt\n        /* \"#utility.yul\":833:952   */\n      iszero\n      tag_408\n      jumpi\n        /* \"#utility.yul\":871:950   */\n      tag_409\n      tag_313\n      jump\t// in\n    tag_409:\n        /* \"#utility.yul\":833:952   */\n    tag_408:\n        /* \"#utility.yul\":991:992   */\n      0x00\n        /* \"#utility.yul\":1016:1068   */\n      tag_410\n        /* \"#utility.yul\":1060:1067   */\n      dup5\n        /* \"#utility.yul\":1051:1057   */\n      dup3\n        /* \"#utility.yul\":1040:1049   */\n      dup6\n        /* \"#utility.yul\":1036:1058   */\n      add\n        /* \"#utility.yul\":1016:1068   */\n      tag_317\n      jump\t// in\n    tag_410:\n        /* \"#utility.yul\":1006:1068   */\n      swap2\n      pop\n        /* \"#utility.yul\":962:1078   */\n      pop\n        /* \"#utility.yul\":758:1085   */\n      swap3\n      swap2\n      pop\n      pop\n      jump\t// out\n        /* \"#utility.yul\":1091:1181   */\n    tag_318:\n        /* \"#utility.yul\":1125:1132   */\n      0x00\n        /* \"#utility.yul\":1168:1173   */\n      dup2\n        /* \"#utility.yul\":1161:1174   */\n      iszero\n        /* \"#utility.yul\":1154:1175   */\n      iszero\n        /* \"#utility.yul\":1143:1175   */\n      swap1\n      pop\n        /* \"#utility.yul\":1091:1181   */\n      swap2\n      swap1\n      pop\n      jump\t// out\n        /* \"#utility.yul\":1187:1296   */\n    tag_319:\n        /* \"#utility.yul\":1268:1289   */\n      tag_413\n        /* \"#utility.yul\":1283:1288   */\n      dup2\n        /* \"#utility.yul\":1268:1289   */\n      tag_318\n      jump\t// in\n    tag_413:\n        /* \"#utility.yul\":1263:1266   */\n      dup3\n        /* \"#utility.yul\":1256:1290   */\n      mstore\n        /* \"#utility.yul\":1187:1296   */\n      pop\n      pop\n      jump\t// out\n        /* \"#utility.yul\":1302:1512   */\n    tag_34:\n        /* \"#utility.yul\":1389:1393   */\n      0x00\n        /* \"#utility.yul\":1427:1429   */\n      0x20\n        /* \"#utility.yul\":1416:1425   */\n      dup3\n        /* \"#utility.yul\":1412:1430   */\n      add\n        /* \"#utility.yul\":1404:1430   */\n      swap1\n      pop\n        /* \"#utility.yul\":1440:1505   */\n      tag_415\n        /* \"#utility.yul\":1502:1503   */\n      0x00\n        /* \"#utility.yul\":1491:1500   */\n      dup4\n        /* \"#utility.yul\":1487:1504   */\n      add\n        /* \"#utility.yul\":1478:1484   */\n      dup5\n        /* \"#utility.yul\":1440:1505   */\n      tag_319\n      jump\t// in\n    tag_415:\n        /* \"#utility.yul\":1302:1512   */\n      swap3\n      swap2\n      pop\n      pop\n      jump\t// out\n        /* \"#utility.yul\":1518:1644   */\n    tag_320:\n        /* \"#utility.yul\":1555:1562   */\n      0x00\n        /* \"#utility.yul\":1595:1637   */\n      0xffffffffffffffffffffffffffffffffffffffff\n        /* \"#utility.yul\":1588:1593   */\n      dup3\n        /* \"#utility.yul\":1584:1638   */\n      and\n        /* \"#utility.yul\":1573:1638   */\n      swap1\n      pop\n        /* \"#utility.yul\":1518:1644   */\n      swap2\n      swap1\n      pop\n      jump\t// out\n        /* \"#utility.yul\":1650:1710   */\n    tag_321:\n        /* \"#utility.yul\":1678:1681   */\n      0x00\n        /* \"#utility.yul\":1699:1704   */\n      dup2\n        /* \"#utility.yul\":1692:1704   */\n      swap1\n      pop\n        /* \"#utility.yul\":1650:1710   */\n      swap2\n      swap1\n      pop\n      jump\t// out\n        /* \"#utility.yul\":1716:1858   */\n    tag_322:\n        /* \"#utility.yul\":1766:1775   */\n      0x00\n        /* \"#utility.yul\":1799:1852   */\n      tag_419\n        /* \"#utility.yul\":1817:1851   */\n      tag_420\n        /* \"#utility.yul\":1826:1850   */\n      tag_421\n        /* \"#utility.yul\":1844:1849   */\n      dup5\n        /* \"#utility.yul\":1826:1850   */\n      tag_320\n      jump\t// in\n    tag_421:\n        /* \"#utility.yul\":1817:1851   */\n      tag_321\n      jump\t// in\n    tag_420:\n        /* \"#utility.yul\":1799:1852   */\n      tag_320\n      jump\t// in\n    tag_419:\n        /* \"#utility.yul\":1786:1852   */\n      swap1\n      pop\n        /* \"#utility.yul\":1716:1858   */\n      swap2\n      swap1\n      pop\n      jump\t// out\n        /* \"#utility.yul\":1864:1990   */\n    tag_323:\n        /* \"#utility.yul\":1914:1923   */\n      0x00\n        /* \"#utility.yul\":1947:1984   */\n      tag_423\n        /* \"#utility.yul\":1978:1983   */\n      dup3\n        /* \"#utility.yul\":1947:1984   */\n      tag_322\n      jump\t// in\n    tag_423:\n        /* \"#utility.yul\":1934:1984   */\n      swap1\n      pop\n        /* \"#utility.yul\":1864:1990   */\n      swap2\n      swap1\n      pop\n      jump\t// out\n        /* \"#utility.yul\":1996:2143   */\n    tag_324:\n        /* \"#utility.yul\":2067:2076   */\n      0x00\n        /* \"#utility.yul\":2100:2137   */\n      tag_425\n        /* \"#utility.yul\":2131:2136   */\n      dup3\n        /* \"#utility.yul\":2100:2137   */\n      tag_323\n      jump\t// in\n    tag_425:\n        /* \"#utility.yul\":2087:2137   */\n      swap1\n      pop\n        /* \"#utility.yul\":1996:2143   */\n      swap2\n      swap1\n      pop\n      jump\t// out\n        /* \"#utility.yul\":2149:2322   */\n    tag_325:\n        /* \"#utility.yul\":2257:2315   */\n      tag_427\n        /* \"#utility.yul\":2309:2314   */\n      dup2\n        /* \"#utility.yul\":2257:2315   */\n      tag_324\n      jump\t// in\n    tag_427:\n        /* \"#utility.yul\":2252:2255   */\n      dup3\n        /* \"#utility.yul\":2245:2316   */\n      mstore\n        /* \"#utility.yul\":2149:2322   */\n      pop\n      pop\n      jump\t// out\n        /* \"#utility.yul\":2328:2592   */\n    tag_38:\n        /* \"#utility.yul\":2442:2446   */\n      0x00\n        /* \"#utility.yul\":2480:2482   */\n      0x20\n        /* \"#utility.yul\":2469:2478   */\n      dup3\n        /* \"#utility.yul\":2465:2483   */\n      add\n        /* \"#utility.yul\":2457:2483   */\n      swap1\n      pop\n        /* \"#utility.yul\":2493:2585   */\n      tag_429\n        /* \"#utility.yul\":2582:2583   */\n      0x00\n        /* \"#utility.yul\":2571:2580   */\n      dup4\n        /* \"#utility.yul\":2567:2584   */\n      add\n        /* \"#utility.yul\":2558:2564   */\n      dup5\n        /* \"#utility.yul\":2493:2585   */\n      tag_325\n      jump\t// in\n    tag_429:\n        /* \"#utility.yul\":2328:2592   */\n      swap3\n      swap2\n      pop\n      pop\n      jump\t// out\n        /* \"#utility.yul\":2598:2675   */\n    tag_326:\n        /* \"#utility.yul\":2635:2642   */\n      0x00\n        /* \"#utility.yul\":2664:2669   */\n      dup2\n        /* \"#utility.yul\":2653:2669   */\n      swap1\n      pop\n        /* \"#utility.yul\":2598:2675   */\n      swap2\n      swap1\n      pop\n      jump\t// out\n        /* \"#utility.yul\":2681:2803   */\n    tag_327:\n        /* \"#utility.yul\":2754:2778   */\n      tag_432\n        /* \"#utility.yul\":2772:2777   */\n      dup2\n        /* \"#utility.yul\":2754:2778   */\n      tag_326\n      jump\t// in\n    tag_432:\n        /* \"#utility.yul\":2747:2752   */\n      dup2\n        /* \"#utility.yul\":2744:2779   */\n      eq\n        /* \"#utility.yul\":2734:2797   */\n      tag_433\n      jumpi\n        /* \"#utility.yul\":2793:2794   */\n      0x00\n        /* \"#utility.yul\":2790:2791   */\n      dup1\n        /* \"#utility.yul\":2783:2795   */\n      revert\n        /* \"#utility.yul\":2734:2797   */\n    tag_433:\n        /* \"#utility.yul\":2681:2803   */\n      pop\n      jump\t// out\n        /* \"#utility.yul\":2809:2948   */\n    tag_328:\n        /* \"#utility.yul\":2855:2860   */\n      0x00\n        /* \"#utility.yul\":2893:2899   */\n      dup2\n        /* \"#utility.yul\":2880:2900   */\n      calldataload\n        /* \"#utility.yul\":2871:2900   */\n      swap1\n      pop\n        /* \"#utility.yul\":2909:2942   */\n      tag_435\n        /* \"#utility.yul\":2936:2941   */\n      dup2\n        /* \"#utility.yul\":2909:2942   */\n      tag_327\n      jump\t// in\n    tag_435:\n        /* \"#utility.yul\":2809:2948   */\n      swap3\n      swap2\n      pop\n      pop\n      jump\t// out\n        /* \"#utility.yul\":2954:3283   */\n    tag_41:\n        /* \"#utility.yul\":3013:3019   */\n      0x00\n        /* \"#utility.yul\":3062:3064   */\n      0x20\n        /* \"#utility.yul\":3050:3059   */\n      dup3\n        /* \"#utility.yul\":3041:3048   */\n      dup5\n        /* \"#utility.yul\":3037:3060   */\n      sub\n        /* \"#utility.yul\":3033:3065   */\n      slt\n        /* \"#utility.yul\":3030:3149   */\n      iszero\n      tag_437\n      jumpi\n        /* \"#utility.yul\":3068:3147   */\n      tag_438\n      tag_313\n      jump\t// in\n    tag_438:\n        /* \"#utility.yul\":3030:3149   */\n    tag_437:\n        /* \"#utility.yul\":3188:3189   */\n      0x00\n        /* \"#utility.yul\":3213:3266   */\n      tag_439\n        /* \"#utility.yul\":3258:3265   */\n      dup5\n        /* \"#utility.yul\":3249:3255   */\n      dup3\n        /* \"#utility.yul\":3238:3247   */\n      dup6\n        /* \"#utility.yul\":3234:3256   */\n      add\n        /* \"#utility.yul\":3213:3266   */\n      tag_328\n      jump\t// in\n    tag_439:\n        /* \"#utility.yul\":3203:3266   */\n      swap2\n      pop\n        /* \"#utility.yul\":3159:3276   */\n      pop\n        /* \"#utility.yul\":2954:3283   */\n      swap3\n      swap2\n      pop\n      pop\n      jump\t// out\n        /* \"#utility.yul\":3289:3407   */\n    tag_329:\n        /* \"#utility.yul\":3376:3400   */\n      tag_441\n        /* \"#utility.yul\":3394:3399   */\n      dup2\n        /* \"#utility.yul\":3376:3400   */\n      tag_326\n      jump\t// in\n    tag_441:\n        /* \"#utility.yul\":3371:3374   */\n      dup3\n        /* \"#utility.yul\":3364:3401   */\n      mstore\n        /* \"#utility.yul\":3289:3407   */\n      pop\n      pop\n      jump\t// out\n        /* \"#utility.yul\":3413:3635   */\n    tag_44:\n        /* \"#utility.yul\":3506:3510   */\n      0x00\n        /* \"#utility.yul\":3544:3546   */\n      0x20\n        /* \"#utility.yul\":3533:3542   */\n      dup3\n        /* \"#utility.yul\":3529:3547   */\n      add\n        /* \"#utility.yul\":3521:3547   */\n      swap1\n      pop\n        /* \"#utility.yul\":3557:3628   */\n      tag_443\n        /* \"#utility.yul\":3625:3626   */\n      0x00\n        /* \"#utility.yul\":3614:3623   */\n      dup4\n        /* \"#utility.yul\":3610:3627   */\n      add\n        /* \"#utility.yul\":3601:3607   */\n      dup5\n        /* \"#utility.yul\":3557:3628   */\n      tag_329\n      jump\t// in\n    tag_443:\n        /* \"#utility.yul\":3413:3635   */\n      swap3\n      swap2\n      pop\n      pop\n      jump\t// out\n        /* \"#utility.yul\":3641:3718   */\n    tag_330:\n        /* \"#utility.yul\":3678:3685   */\n      0x00\n        /* \"#utility.yul\":3707:3712   */\n      dup2\n        /* \"#utility.yul\":3696:3712   */\n      swap1\n      pop\n        /* \"#utility.yul\":3641:3718   */\n      swap2\n      swap1\n      pop\n      jump\t// out\n        /* \"#utility.yul\":3724:3846   */\n    tag_331:\n        /* \"#utility.yul\":3797:3821   */\n      tag_446\n        /* \"#utility.yul\":3815:3820   */\n      dup2\n        /* \"#utility.yul\":3797:3821   */\n      tag_330\n      jump\t// in\n    tag_446:\n        /* \"#utility.yul\":3790:3795   */\n      dup2\n        /* \"#utility.yul\":3787:3822   */\n      eq\n        /* \"#utility.yul\":3777:3840   */\n      tag_447\n      jumpi\n        /* \"#utility.yul\":3836:3837   */\n      0x00\n        /* \"#utility.yul\":3833:3834   */\n      dup1\n        /* \"#utility.yul\":3826:3838   */\n      revert\n        /* \"#utility.yul\":3777:3840   */\n    tag_447:\n        /* \"#utility.yul\":3724:3846   */\n      pop\n      jump\t// out\n        /* \"#utility.yul\":3852:3991   */\n    tag_332:\n        /* \"#utility.yul\":3898:3903   */\n      0x00\n        /* \"#utility.yul\":3936:3942   */\n      dup2\n        /* \"#utility.yul\":3923:3943   */\n      calldataload\n        /* \"#utility.yul\":3914:3943   */\n      swap1\n      pop\n        /* \"#utility.yul\":3952:3985   */\n      tag_449\n        /* \"#utility.yul\":3979:3984   */\n      dup2\n        /* \"#utility.yul\":3952:3985   */\n      tag_331\n      jump\t// in\n    tag_449:\n        /* \"#utility.yul\":3852:3991   */\n      swap3\n      swap2\n      pop\n      pop\n      jump\t// out\n        /* \"#utility.yul\":3997:4326   */\n    tag_47:\n        /* \"#utility.yul\":4056:4062   */\n      0x00\n        /* \"#utility.yul\":4105:4107   */\n      0x20\n        /* \"#utility.yul\":4093:4102   */\n      dup3\n        /* \"#utility.yul\":4084:4091   */\n      dup5\n        /* \"#utility.yul\":4080:4103   */\n      sub\n        /* \"#utility.yul\":4076:4108   */\n      slt\n        /* \"#utility.yul\":4073:4192   */\n      iszero\n      tag_451\n      jumpi\n        /* \"#utility.yul\":4111:4190   */\n      tag_452\n      tag_313\n      jump\t// in\n    tag_452:\n        /* \"#utility.yul\":4073:4192   */\n    tag_451:\n        /* \"#utility.yul\":4231:4232   */\n      0x00\n        /* \"#utility.yul\":4256:4309   */\n      tag_453\n        /* \"#utility.yul\":4301:4308   */\n      dup5\n        /* \"#utility.yul\":4292:4298   */\n      dup3\n        /* \"#utility.yul\":4281:4290   */\n      dup6\n        /* \"#utility.yul\":4277:4299   */\n      add\n        /* \"#utility.yul\":4256:4309   */\n      tag_332\n      jump\t// in\n    tag_453:\n        /* \"#utility.yul\":4246:4309   */\n      swap2\n      pop\n        /* \"#utility.yul\":4202:4319   */\n      pop\n        /* \"#utility.yul\":3997:4326   */\n      swap3\n      swap2\n      pop\n      pop\n      jump\t// out\n        /* \"#utility.yul\":4332:4450   */\n    tag_333:\n        /* \"#utility.yul\":4419:4443   */\n      tag_455\n        /* \"#utility.yul\":4437:4442   */\n      dup2\n        /* \"#utility.yul\":4419:4443   */\n      tag_330\n      jump\t// in\n    tag_455:\n        /* \"#utility.yul\":4414:4417   */\n      dup3\n        /* \"#utility.yul\":4407:4444   */\n      mstore\n        /* \"#utility.yul\":4332:4450   */\n      pop\n      pop\n      jump\t// out\n        /* \"#utility.yul\":4456:4678   */\n    tag_50:\n        /* \"#utility.yul\":4549:4553   */\n      0x00\n        /* \"#utility.yul\":4587:4589   */\n      0x20\n        /* \"#utility.yul\":4576:4585   */\n      dup3\n        /* \"#utility.yul\":4572:4590   */\n      add\n        /* \"#utility.yul\":4564:4590   */\n      swap1\n      pop\n        /* \"#utility.yul\":4600:4671   */\n      tag_457\n        /* \"#utility.yul\":4668:4669   */\n      0x00\n        /* \"#utility.yul\":4657:4666   */\n      dup4\n        /* \"#utility.yul\":4653:4670   */\n      add\n        /* \"#utility.yul\":4644:4650   */\n      dup5\n        /* \"#utility.yul\":4600:4671   */\n      tag_333\n      jump\t// in\n    tag_457:\n        /* \"#utility.yul\":4456:4678   */\n      swap3\n      swap2\n      pop\n      pop\n      jump\t// out\n        /* \"#utility.yul\":4684:4780   */\n    tag_334:\n        /* \"#utility.yul\":4721:4728   */\n      0x00\n        /* \"#utility.yul\":4750:4774   */\n      tag_459\n        /* \"#utility.yul\":4768:4773   */\n      dup3\n        /* \"#utility.yul\":4750:4774   */\n      tag_320\n      jump\t// in\n    tag_459:\n        /* \"#utility.yul\":4739:4774   */\n      swap1\n      pop\n        /* \"#utility.yul\":4684:4780   */\n      swap2\n      swap1\n      pop\n      jump\t// out\n        /* \"#utility.yul\":4786:4908   */\n    tag_335:\n        /* \"#utility.yul\":4859:4883   */\n      tag_461\n        /* \"#utility.yul\":4877:4882   */\n      dup2\n        /* \"#utility.yul\":4859:4883   */\n      tag_334\n      jump\t// in\n    tag_461:\n        /* \"#utility.yul\":4852:4857   */\n      dup2\n        /* \"#utility.yul\":4849:4884   */\n      eq\n        /* \"#utility.yul\":4839:4902   */\n      tag_462\n      jumpi\n        /* \"#utility.yul\":4898:4899   */\n      0x00\n        /* \"#utility.yul\":4895:4896   */\n      dup1\n        /* \"#utility.yul\":4888:4900   */\n      revert\n        /* \"#utility.yul\":4839:4902   */\n    tag_462:\n        /* \"#utility.yul\":4786:4908   */\n      pop\n      jump\t// out\n        /* \"#utility.yul\":4914:5053   */\n    tag_336:\n        /* \"#utility.yul\":4960:4965   */\n      0x00\n        /* \"#utility.yul\":4998:5004   */\n      dup2\n        /* \"#utility.yul\":4985:5005   */\n      calldataload\n        /* \"#utility.yul\":4976:5005   */\n      swap1\n      pop\n        /* \"#utility.yul\":5014:5047   */\n      tag_464\n        /* \"#utility.yul\":5041:5046   */\n      dup2\n        /* \"#utility.yul\":5014:5047   */\n      tag_335\n      jump\t// in\n    tag_464:\n        /* \"#utility.yul\":4914:5053   */\n      swap3\n      swap2\n      pop\n      pop\n      jump\t// out\n        /* \"#utility.yul\":5059:5533   */\n    tag_53:\n        /* \"#utility.yul\":5127:5133   */\n      0x00\n        /* \"#utility.yul\":5135:5141   */\n      dup1\n        /* \"#utility.yul\":5184:5186   */\n      0x40\n        /* \"#utility.yul\":5172:5181   */\n      dup4\n        /* \"#utility.yul\":5163:5170   */\n      dup6\n        /* \"#utility.yul\":5159:5182   */\n      sub\n        /* \"#utility.yul\":5155:5187   */\n      slt\n        /* \"#utility.yul\":5152:5271   */\n      iszero\n      tag_466\n      jumpi\n        /* \"#utility.yul\":5190:5269   */\n      tag_467\n      tag_313\n      jump\t// in\n    tag_467:\n        /* \"#utility.yul\":5152:5271   */\n    tag_466:\n        /* \"#utility.yul\":5310:5311   */\n      0x00\n        /* \"#utility.yul\":5335:5388   */\n      tag_468\n        /* \"#utility.yul\":5380:5387   */\n      dup6\n        /* \"#utility.yul\":5371:5377   */\n      dup3\n        /* \"#utility.yul\":5360:5369   */\n      dup7\n        /* \"#utility.yul\":5356:5378   */\n      add\n        /* \"#utility.yul\":5335:5388   */\n      tag_332\n      jump\t// in\n    tag_468:\n        /* \"#utility.yul\":5325:5388   */\n      swap3\n      pop\n        /* \"#utility.yul\":5281:5398   */\n      pop\n        /* \"#utility.yul\":5437:5439   */\n      0x20\n        /* \"#utility.yul\":5463:5516   */\n      tag_469\n        /* \"#utility.yul\":5508:5515   */\n      dup6\n        /* \"#utility.yul\":5499:5505   */\n      dup3\n        /* \"#utility.yul\":5488:5497   */\n      dup7\n        /* \"#utility.yul\":5484:5506   */\n      add\n        /* \"#utility.yul\":5463:5516   */\n      tag_336\n      jump\t// in\n    tag_469:\n        /* \"#utility.yul\":5453:5516   */\n      swap2\n      pop\n        /* \"#utility.yul\":5408:5526   */\n      pop\n        /* \"#utility.yul\":5059:5533   */\n      swap3\n      pop\n      swap3\n      swap1\n      pop\n      jump\t// out\n        /* \"#utility.yul\":5539:6158   */\n    tag_57:\n        /* \"#utility.yul\":5616:5622   */\n      0x00\n        /* \"#utility.yul\":5624:5630   */\n      dup1\n        /* \"#utility.yul\":5632:5638   */\n      0x00\n        /* \"#utility.yul\":5681:5683   */\n      0x60\n        /* \"#utility.yul\":5669:5678   */\n      dup5\n        /* \"#utility.yul\":5660:5667   */\n      dup7\n        /* \"#utility.yul\":5656:5679   */\n      sub\n        /* \"#utility.yul\":5652:5684   */\n      slt\n        /* \"#utility.yul\":5649:5768   */\n      iszero\n      tag_471\n      jumpi\n        /* \"#utility.yul\":5687:5766   */\n      tag_472\n      tag_313\n      jump\t// in\n    tag_472:\n        /* \"#utility.yul\":5649:5768   */\n    tag_471:\n        /* \"#utility.yul\":5807:5808   */\n      0x00\n        /* \"#utility.yul\":5832:5885   */\n      tag_473\n        /* \"#utility.yul\":5877:5884   */\n      dup7\n        /* \"#utility.yul\":5868:5874   */\n      dup3\n        /* \"#utility.yul\":5857:5866   */\n      dup8\n        /* \"#utility.yul\":5853:5875   */\n      add\n        /* \"#utility.yul\":5832:5885   */\n      tag_328\n      jump\t// in\n    tag_473:\n        /* \"#utility.yul\":5822:5885   */\n      swap4\n      pop\n        /* \"#utility.yul\":5778:5895   */\n      pop\n        /* \"#utility.yul\":5934:5936   */\n      0x20\n        /* \"#utility.yul\":5960:6013   */\n      tag_474\n        /* \"#utility.yul\":6005:6012   */\n      dup7\n        /* \"#utility.yul\":5996:6002   */\n      dup3\n        /* \"#utility.yul\":5985:5994   */\n      dup8\n        /* \"#utility.yul\":5981:6003   */\n      add\n        /* \"#utility.yul\":5960:6013   */\n      tag_328\n      jump\t// in\n    tag_474:\n        /* \"#utility.yul\":5950:6013   */\n      swap3\n      pop\n        /* \"#utility.yul\":5905:6023   */\n      pop\n        /* \"#utility.yul\":6062:6064   */\n      0x40\n        /* \"#utility.yul\":6088:6141   */\n      tag_475\n        /* \"#utility.yul\":6133:6140   */\n      dup7\n        /* \"#utility.yul\":6124:6130   */\n      dup3\n        /* \"#utility.yul\":6113:6122   */\n      dup8\n        /* \"#utility.yul\":6109:6131   */\n      add\n        /* \"#utility.yul\":6088:6141   */\n      tag_328\n      jump\t// in\n    tag_475:\n        /* \"#utility.yul\":6078:6141   */\n      swap2\n      pop\n        /* \"#utility.yul\":6033:6151   */\n      pop\n        /* \"#utility.yul\":5539:6158   */\n      swap3\n      pop\n      swap3\n      pop\n      swap3\n      jump\t// out\n        /* \"#utility.yul\":6164:6816   */\n    tag_60:\n        /* \"#utility.yul\":6363:6367   */\n      0x00\n        /* \"#utility.yul\":6401:6404   */\n      0xa0\n        /* \"#utility.yul\":6390:6399   */\n      dup3\n        /* \"#utility.yul\":6386:6405   */\n      add\n        /* \"#utility.yul\":6378:6405   */\n      swap1\n      pop\n        /* \"#utility.yul\":6415:6486   */\n      tag_477\n        /* \"#utility.yul\":6483:6484   */\n      0x00\n        /* \"#utility.yul\":6472:6481   */\n      dup4\n        /* \"#utility.yul\":6468:6485   */\n      add\n        /* \"#utility.yul\":6459:6465   */\n      dup9\n        /* \"#utility.yul\":6415:6486   */\n      tag_329\n      jump\t// in\n    tag_477:\n        /* \"#utility.yul\":6496:6568   */\n      tag_478\n        /* \"#utility.yul\":6564:6566   */\n      0x20\n        /* \"#utility.yul\":6553:6562   */\n      dup4\n        /* \"#utility.yul\":6549:6567   */\n      add\n        /* \"#utility.yul\":6540:6546   */\n      dup8\n        /* \"#utility.yul\":6496:6568   */\n      tag_329\n      jump\t// in\n    tag_478:\n        /* \"#utility.yul\":6578:6650   */\n      tag_479\n        /* \"#utility.yul\":6646:6648   */\n      0x40\n        /* \"#utility.yul\":6635:6644   */\n      dup4\n        /* \"#utility.yul\":6631:6649   */\n      add\n        /* \"#utility.yul\":6622:6628   */\n      dup7\n        /* \"#utility.yul\":6578:6650   */\n      tag_329\n      jump\t// in\n    tag_479:\n        /* \"#utility.yul\":6660:6732   */\n      tag_480\n        /* \"#utility.yul\":6728:6730   */\n      0x60\n        /* \"#utility.yul\":6717:6726   */\n      dup4\n        /* \"#utility.yul\":6713:6731   */\n      add\n        /* \"#utility.yul\":6704:6710   */\n      dup6\n        /* \"#utility.yul\":6660:6732   */\n      tag_329\n      jump\t// in\n    tag_480:\n        /* \"#utility.yul\":6742:6809   */\n      tag_481\n        /* \"#utility.yul\":6804:6807   */\n      0x80\n        /* \"#utility.yul\":6793:6802   */\n      dup4\n        /* \"#utility.yul\":6789:6808   */\n      add\n        /* \"#utility.yul\":6780:6786   */\n      dup5\n        /* \"#utility.yul\":6742:6809   */\n      tag_319\n      jump\t// in\n    tag_481:\n        /* \"#utility.yul\":6164:6816   */\n      swap7\n      swap6\n      pop\n      pop\n      pop\n      pop\n      pop\n      pop\n      jump\t// out\n        /* \"#utility.yul\":6822:6939   */\n    tag_337:\n        /* \"#utility.yul\":6931:6932   */\n      0x00\n        /* \"#utility.yul\":6928:6929   */\n      dup1\n        /* \"#utility.yul\":6921:6933   */\n      revert\n        /* \"#utility.yul\":6945:7062   */\n    tag_338:\n        /* \"#utility.yul\":7054:7055   */\n      0x00\n        /* \"#utility.yul\":7051:7052   */\n      dup1\n        /* \"#utility.yul\":7044:7056   */\n      revert\n        /* \"#utility.yul\":7068:7185   */\n    tag_339:\n        /* \"#utility.yul\":7177:7178   */\n      0x00\n        /* \"#utility.yul\":7174:7175   */\n      dup1\n        /* \"#utility.yul\":7167:7179   */\n      revert\n        /* \"#utility.yul\":7208:7776   */\n    tag_340:\n        /* \"#utility.yul\":7281:7289   */\n      0x00\n        /* \"#utility.yul\":7291:7297   */\n      dup1\n        /* \"#utility.yul\":7341:7344   */\n      dup4\n        /* \"#utility.yul\":7334:7338   */\n      0x1f\n        /* \"#utility.yul\":7326:7332   */\n      dup5\n        /* \"#utility.yul\":7322:7339   */\n      add\n        /* \"#utility.yul\":7318:7345   */\n      slt\n        /* \"#utility.yul\":7308:7430   */\n      tag_486\n      jumpi\n        /* \"#utility.yul\":7349:7428   */\n      tag_487\n      tag_337\n      jump\t// in\n    tag_487:\n        /* \"#utility.yul\":7308:7430   */\n    tag_486:\n        /* \"#utility.yul\":7462:7468   */\n      dup3\n        /* \"#utility.yul\":7449:7469   */\n      calldataload\n        /* \"#utility.yul\":7439:7469   */\n      swap1\n      pop\n        /* \"#utility.yul\":7492:7510   */\n      0xffffffffffffffff\n        /* \"#utility.yul\":7484:7490   */\n      dup2\n        /* \"#utility.yul\":7481:7511   */\n      gt\n        /* \"#utility.yul\":7478:7595   */\n      iszero\n      tag_488\n      jumpi\n        /* \"#utility.yul\":7514:7593   */\n      tag_489\n      tag_338\n      jump\t// in\n    tag_489:\n        /* \"#utility.yul\":7478:7595   */\n    tag_488:\n        /* \"#utility.yul\":7628:7632   */\n      0x20\n        /* \"#utility.yul\":7620:7626   */\n      dup4\n        /* \"#utility.yul\":7616:7633   */\n      add\n        /* \"#utility.yul\":7604:7633   */\n      swap2\n      pop\n        /* \"#utility.yul\":7682:7685   */\n      dup4\n        /* \"#utility.yul\":7674:7678   */\n      0x20\n        /* \"#utility.yul\":7666:7672   */\n      dup3\n        /* \"#utility.yul\":7662:7679   */\n      mul\n        /* \"#utility.yul\":7652:7660   */\n      dup4\n        /* \"#utility.yul\":7648:7680   */\n      add\n        /* \"#utility.yul\":7645:7686   */\n      gt\n        /* \"#utility.yul\":7642:7770   */\n      iszero\n      tag_490\n      jumpi\n        /* \"#utility.yul\":7689:7768   */\n      tag_491\n      tag_339\n      jump\t// in\n    tag_491:\n        /* \"#utility.yul\":7642:7770   */\n    tag_490:\n        /* \"#utility.yul\":7208:7776   */\n      swap3\n      pop\n      swap3\n      swap1\n      pop\n      jump\t// out\n        /* \"#utility.yul\":7799:8367   */\n    tag_341:\n        /* \"#utility.yul\":7872:7880   */\n      0x00\n        /* \"#utility.yul\":7882:7888   */\n      dup1\n        /* \"#utility.yul\":7932:7935   */\n      dup4\n        /* \"#utility.yul\":7925:7929   */\n      0x1f\n        /* \"#utility.yul\":7917:7923   */\n      dup5\n        /* \"#utility.yul\":7913:7930   */\n      add\n        /* \"#utility.yul\":7909:7936   */\n      slt\n        /* \"#utility.yul\":7899:8021   */\n      tag_493\n      jumpi\n        /* \"#utility.yul\":7940:8019   */\n      tag_494\n      tag_337\n      jump\t// in\n    tag_494:\n        /* \"#utility.yul\":7899:8021   */\n    tag_493:\n        /* \"#utility.yul\":8053:8059   */\n      dup3\n        /* \"#utility.yul\":8040:8060   */\n      calldataload\n        /* \"#utility.yul\":8030:8060   */\n      swap1\n      pop\n        /* \"#utility.yul\":8083:8101   */\n      0xffffffffffffffff\n        /* \"#utility.yul\":8075:8081   */\n      dup2\n        /* \"#utility.yul\":8072:8102   */\n      gt\n        /* \"#utility.yul\":8069:8186   */\n      iszero\n      tag_495\n      jumpi\n        /* \"#utility.yul\":8105:8184   */\n      tag_496\n      tag_338\n      jump\t// in\n    tag_496:\n        /* \"#utility.yul\":8069:8186   */\n    tag_495:\n        /* \"#utility.yul\":8219:8223   */\n      0x20\n        /* \"#utility.yul\":8211:8217   */\n      dup4\n        /* \"#utility.yul\":8207:8224   */\n      add\n        /* \"#utility.yul\":8195:8224   */\n      swap2\n      pop\n        /* \"#utility.yul\":8273:8276   */\n      dup4\n        /* \"#utility.yul\":8265:8269   */\n      0x20\n        /* \"#utility.yul\":8257:8263   */\n      dup3\n        /* \"#utility.yul\":8253:8270   */\n      mul\n        /* \"#utility.yul\":8243:8251   */\n      dup4\n        /* \"#utility.yul\":8239:8271   */\n      add\n        /* \"#utility.yul\":8236:8277   */\n      gt\n        /* \"#utility.yul\":8233:8361   */\n      iszero\n      tag_497\n      jumpi\n        /* \"#utility.yul\":8280:8359   */\n      tag_498\n      tag_339\n      jump\t// in\n    tag_498:\n        /* \"#utility.yul\":8233:8361   */\n    tag_497:\n        /* \"#utility.yul\":7799:8367   */\n      swap3\n      pop\n      swap3\n      swap1\n      pop\n      jump\t// out\n        /* \"#utility.yul\":8373:9307   */\n    tag_66:\n        /* \"#utility.yul\":8495:8501   */\n      0x00\n        /* \"#utility.yul\":8503:8509   */\n      dup1\n        /* \"#utility.yul\":8511:8517   */\n      0x00\n        /* \"#utility.yul\":8519:8525   */\n      dup1\n        /* \"#utility.yul\":8568:8570   */\n      0x40\n        /* \"#utility.yul\":8556:8565   */\n      dup6\n        /* \"#utility.yul\":8547:8554   */\n      dup8\n        /* \"#utility.yul\":8543:8566   */\n      sub\n        /* \"#utility.yul\":8539:8571   */\n      slt\n        /* \"#utility.yul\":8536:8655   */\n      iszero\n      tag_500\n      jumpi\n        /* \"#utility.yul\":8574:8653   */\n      tag_501\n      tag_313\n      jump\t// in\n    tag_501:\n        /* \"#utility.yul\":8536:8655   */\n    tag_500:\n        /* \"#utility.yul\":8722:8723   */\n      0x00\n        /* \"#utility.yul\":8711:8720   */\n      dup6\n        /* \"#utility.yul\":8707:8724   */\n      add\n        /* \"#utility.yul\":8694:8725   */\n      calldataload\n        /* \"#utility.yul\":8752:8770   */\n      0xffffffffffffffff\n        /* \"#utility.yul\":8744:8750   */\n      dup2\n        /* \"#utility.yul\":8741:8771   */\n      gt\n        /* \"#utility.yul\":8738:8855   */\n      iszero\n      tag_502\n      jumpi\n        /* \"#utility.yul\":8774:8853   */\n      tag_503\n      tag_314\n      jump\t// in\n    tag_503:\n        /* \"#utility.yul\":8738:8855   */\n    tag_502:\n        /* \"#utility.yul\":8887:8967   */\n      tag_504\n        /* \"#utility.yul\":8959:8966   */\n      dup8\n        /* \"#utility.yul\":8950:8956   */\n      dup3\n        /* \"#utility.yul\":8939:8948   */\n      dup9\n        /* \"#utility.yul\":8935:8957   */\n      add\n        /* \"#utility.yul\":8887:8967   */\n      tag_340\n      jump\t// in\n    tag_504:\n        /* \"#utility.yul\":8869:8967   */\n      swap5\n      pop\n      swap5\n      pop\n        /* \"#utility.yul\":8665:8977   */\n      pop\n        /* \"#utility.yul\":9044:9046   */\n      0x20\n        /* \"#utility.yul\":9033:9042   */\n      dup6\n        /* \"#utility.yul\":9029:9047   */\n      add\n        /* \"#utility.yul\":9016:9048   */\n      calldataload\n        /* \"#utility.yul\":9075:9093   */\n      0xffffffffffffffff\n        /* \"#utility.yul\":9067:9073   */\n      dup2\n        /* \"#utility.yul\":9064:9094   */\n      gt\n        /* \"#utility.yul\":9061:9178   */\n      iszero\n      tag_505\n      jumpi\n        /* \"#utility.yul\":9097:9176   */\n      tag_506\n      tag_314\n      jump\t// in\n    tag_506:\n        /* \"#utility.yul\":9061:9178   */\n    tag_505:\n        /* \"#utility.yul\":9210:9290   */\n      tag_507\n        /* \"#utility.yul\":9282:9289   */\n      dup8\n        /* \"#utility.yul\":9273:9279   */\n      dup3\n        /* \"#utility.yul\":9262:9271   */\n      dup9\n        /* \"#utility.yul\":9258:9280   */\n      add\n        /* \"#utility.yul\":9210:9290   */\n      tag_341\n      jump\t// in\n    tag_507:\n        /* \"#utility.yul\":9192:9290   */\n      swap3\n      pop\n      swap3\n      pop\n        /* \"#utility.yul\":8987:9300   */\n      pop\n        /* \"#utility.yul\":8373:9307   */\n      swap3\n      swap6\n      swap2\n      swap5\n      pop\n      swap3\n      pop\n      jump\t// out\n        /* \"#utility.yul\":9313:10078   */\n    tag_73:\n        /* \"#utility.yul\":9399:9405   */\n      0x00\n        /* \"#utility.yul\":9407:9413   */\n      dup1\n        /* \"#utility.yul\":9415:9421   */\n      0x00\n        /* \"#utility.yul\":9423:9429   */\n      dup1\n        /* \"#utility.yul\":9472:9475   */\n      0x80\n        /* \"#utility.yul\":9460:9469   */\n      dup6\n        /* \"#utility.yul\":9451:9458   */\n      dup8\n        /* \"#utility.yul\":9447:9470   */\n      sub\n        /* \"#utility.yul\":9443:9476   */\n      slt\n        /* \"#utility.yul\":9440:9560   */\n      iszero\n      tag_509\n      jumpi\n        /* \"#utility.yul\":9479:9558   */\n      tag_510\n      tag_313\n      jump\t// in\n    tag_510:\n        /* \"#utility.yul\":9440:9560   */\n    tag_509:\n        /* \"#utility.yul\":9599:9600   */\n      0x00\n        /* \"#utility.yul\":9624:9677   */\n      tag_511\n        /* \"#utility.yul\":9669:9676   */\n      dup8\n        /* \"#utility.yul\":9660:9666   */\n      dup3\n        /* \"#utility.yul\":9649:9658   */\n      dup9\n        /* \"#utility.yul\":9645:9667   */\n      add\n        /* \"#utility.yul\":9624:9677   */\n      tag_328\n      jump\t// in\n    tag_511:\n        /* \"#utility.yul\":9614:9677   */\n      swap5\n      pop\n        /* \"#utility.yul\":9570:9687   */\n      pop\n        /* \"#utility.yul\":9726:9728   */\n      0x20\n        /* \"#utility.yul\":9752:9805   */\n      tag_512\n        /* \"#utility.yul\":9797:9804   */\n      dup8\n        /* \"#utility.yul\":9788:9794   */\n      dup3\n        /* \"#utility.yul\":9777:9786   */\n      dup9\n        /* \"#utility.yul\":9773:9795   */\n      add\n        /* \"#utility.yul\":9752:9805   */\n      tag_328\n      jump\t// in\n    tag_512:\n        /* \"#utility.yul\":9742:9805   */\n      swap4\n      pop\n        /* \"#utility.yul\":9697:9815   */\n      pop\n        /* \"#utility.yul\":9854:9856   */\n      0x40\n        /* \"#utility.yul\":9880:9933   */\n      tag_513\n        /* \"#utility.yul\":9925:9932   */\n      dup8\n        /* \"#utility.yul\":9916:9922   */\n      dup3\n        /* \"#utility.yul\":9905:9914   */\n      dup9\n        /* \"#utility.yul\":9901:9923   */\n      add\n        /* \"#utility.yul\":9880:9933   */\n      tag_328\n      jump\t// in\n    tag_513:\n        /* \"#utility.yul\":9870:9933   */\n      swap3\n      pop\n        /* \"#utility.yul\":9825:9943   */\n      pop\n        /* \"#utility.yul\":9982:9984   */\n      0x60\n        /* \"#utility.yul\":10008:10061   */\n      tag_514\n        /* \"#utility.yul\":10053:10060   */\n      dup8\n        /* \"#utility.yul\":10044:10050   */\n      dup3\n        /* \"#utility.yul\":10033:10042   */\n      dup9\n        /* \"#utility.yul\":10029:10051   */\n      add\n        /* \"#utility.yul\":10008:10061   */\n      tag_328\n      jump\t// in\n    tag_514:\n        /* \"#utility.yul\":9998:10061   */\n      swap2\n      pop\n        /* \"#utility.yul\":9953:10071   */\n      pop\n        /* \"#utility.yul\":9313:10078   */\n      swap3\n      swap6\n      swap2\n      swap5\n      pop\n      swap3\n      pop\n      jump\t// out\n        /* \"#utility.yul\":10084:10413   */\n    tag_81:\n        /* \"#utility.yul\":10143:10149   */\n      0x00\n        /* \"#utility.yul\":10192:10194   */\n      0x20\n        /* \"#utility.yul\":10180:10189   */\n      dup3\n        /* \"#utility.yul\":10171:10178   */\n      dup5\n        /* \"#utility.yul\":10167:10190   */\n      sub\n        /* \"#utility.yul\":10163:10195   */\n      slt\n        /* \"#utility.yul\":10160:10279   */\n      iszero\n      tag_516\n      jumpi\n        /* \"#utility.yul\":10198:10277   */\n      tag_517\n      tag_313\n      jump\t// in\n    tag_517:\n        /* \"#utility.yul\":10160:10279   */\n    tag_516:\n        /* \"#utility.yul\":10318:10319   */\n      0x00\n        /* \"#utility.yul\":10343:10396   */\n      tag_518\n        /* \"#utility.yul\":10388:10395   */\n      dup5\n        /* \"#utility.yul\":10379:10385   */\n      dup3\n        /* \"#utility.yul\":10368:10377   */\n      dup6\n        /* \"#utility.yul\":10364:10386   */\n      add\n        /* \"#utility.yul\":10343:10396   */\n      tag_336\n      jump\t// in\n    tag_518:\n        /* \"#utility.yul\":10333:10396   */\n      swap2\n      pop\n        /* \"#utility.yul\":10289:10406   */\n      pop\n        /* \"#utility.yul\":10084:10413   */\n      swap3\n      swap2\n      pop\n      pop\n      jump\t// out\n        /* \"#utility.yul\":10419:10527   */\n    tag_342:\n        /* \"#utility.yul\":10496:10520   */\n      tag_520\n        /* \"#utility.yul\":10514:10519   */\n      dup2\n        /* \"#utility.yul\":10496:10520   */\n      tag_326\n      jump\t// in\n    tag_520:\n        /* \"#utility.yul\":10491:10494   */\n      dup3\n        /* \"#utility.yul\":10484:10521   */\n      mstore\n        /* \"#utility.yul\":10419:10527   */\n      pop\n      pop\n      jump\t// out\n        /* \"#utility.yul\":10607:10947   */\n    tag_343:\n        /* \"#utility.yul\":10756:10760   */\n      0x20\n        /* \"#utility.yul\":10751:10754   */\n      dup3\n        /* \"#utility.yul\":10747:10761   */\n      add\n        /* \"#utility.yul\":10848:10852   */\n      0x00\n        /* \"#utility.yul\":10841:10846   */\n      dup3\n        /* \"#utility.yul\":10837:10853   */\n      add\n        /* \"#utility.yul\":10831:10854   */\n      mload\n        /* \"#utility.yul\":10867:10930   */\n      tag_522\n        /* \"#utility.yul\":10924:10928   */\n      0x00\n        /* \"#utility.yul\":10919:10922   */\n      dup6\n        /* \"#utility.yul\":10915:10929   */\n      add\n        /* \"#utility.yul\":10901:10913   */\n      dup3\n        /* \"#utility.yul\":10867:10930   */\n      tag_342\n      jump\t// in\n    tag_522:\n        /* \"#utility.yul\":10771:10940   */\n      pop\n        /* \"#utility.yul\":10725:10947   */\n      pop\n        /* \"#utility.yul\":10607:10947   */\n      pop\n      pop\n      jump\t// out\n        /* \"#utility.yul\":10953:11279   */\n    tag_90:\n        /* \"#utility.yul\":11098:11102   */\n      0x00\n        /* \"#utility.yul\":11136:11138   */\n      0x20\n        /* \"#utility.yul\":11125:11134   */\n      dup3\n        /* \"#utility.yul\":11121:11139   */\n      add\n        /* \"#utility.yul\":11113:11139   */\n      swap1\n      pop\n        /* \"#utility.yul\":11149:11272   */\n      tag_524\n        /* \"#utility.yul\":11269:11270   */\n      0x00\n        /* \"#utility.yul\":11258:11267   */\n      dup4\n        /* \"#utility.yul\":11254:11271   */\n      add\n        /* \"#utility.yul\":11245:11251   */\n      dup5\n        /* \"#utility.yul\":11149:11272   */\n      tag_343\n      jump\t// in\n    tag_524:\n        /* \"#utility.yul\":10953:11279   */\n      swap3\n      swap2\n      pop\n      pop\n      jump\t// out\n        /* \"#utility.yul\":11285:11904   */\n    tag_93:\n        /* \"#utility.yul\":11362:11368   */\n      0x00\n        /* \"#utility.yul\":11370:11376   */\n      dup1\n        /* \"#utility.yul\":11378:11384   */\n      0x00\n        /* \"#utility.yul\":11427:11429   */\n      0x60\n        /* \"#utility.yul\":11415:11424   */\n      dup5\n        /* \"#utility.yul\":11406:11413   */\n      dup7\n        /* \"#utility.yul\":11402:11425   */\n      sub\n        /* \"#utility.yul\":11398:11430   */\n      slt\n        /* \"#utility.yul\":11395:11514   */\n      iszero\n      tag_526\n      jumpi\n        /* \"#utility.yul\":11433:11512   */\n      tag_527\n      tag_313\n      jump\t// in\n    tag_527:\n        /* \"#utility.yul\":11395:11514   */\n    tag_526:\n        /* \"#utility.yul\":11553:11554   */\n      0x00\n        /* \"#utility.yul\":11578:11631   */\n      tag_528\n        /* \"#utility.yul\":11623:11630   */\n      dup7\n        /* \"#utility.yul\":11614:11620   */\n      dup3\n        /* \"#utility.yul\":11603:11612   */\n      dup8\n        /* \"#utility.yul\":11599:11621   */\n      add\n        /* \"#utility.yul\":11578:11631   */\n      tag_328\n      jump\t// in\n    tag_528:\n        /* \"#utility.yul\":11568:11631   */\n      swap4\n      pop\n        /* \"#utility.yul\":11524:11641   */\n      pop\n        /* \"#utility.yul\":11680:11682   */\n      0x20\n        /* \"#utility.yul\":11706:11759   */\n      tag_529\n        /* \"#utility.yul\":11751:11758   */\n      dup7\n        /* \"#utility.yul\":11742:11748   */\n      dup3\n        /* \"#utility.yul\":11731:11740   */\n      dup8\n        /* \"#utility.yul\":11727:11749   */\n      add\n        /* \"#utility.yul\":11706:11759   */\n      tag_336\n      jump\t// in\n    tag_529:\n        /* \"#utility.yul\":11696:11759   */\n      swap3\n      pop\n        /* \"#utility.yul\":11651:11769   */\n      pop\n        /* \"#utility.yul\":11808:11810   */\n      0x40\n        /* \"#utility.yul\":11834:11887   */\n      tag_530\n        /* \"#utility.yul\":11879:11886   */\n      dup7\n        /* \"#utility.yul\":11870:11876   */\n      dup3\n        /* \"#utility.yul\":11859:11868   */\n      dup8\n        /* \"#utility.yul\":11855:11877   */\n      add\n        /* \"#utility.yul\":11834:11887   */\n      tag_328\n      jump\t// in\n    tag_530:\n        /* \"#utility.yul\":11824:11887   */\n      swap2\n      pop\n        /* \"#utility.yul\":11779:11897   */\n      pop\n        /* \"#utility.yul\":11285:11904   */\n      swap3\n      pop\n      swap3\n      pop\n      swap3\n      jump\t// out\n        /* \"#utility.yul\":11910:12009   */\n    tag_344:\n        /* \"#utility.yul\":11981:12002   */\n      tag_532\n        /* \"#utility.yul\":11996:12001   */\n      dup2\n        /* \"#utility.yul\":11981:12002   */\n      tag_318\n      jump\t// in\n    tag_532:\n        /* \"#utility.yul\":11976:11979   */\n      dup3\n        /* \"#utility.yul\":11969:12003   */\n      mstore\n        /* \"#utility.yul\":11910:12009   */\n      pop\n      pop\n      jump\t// out\n        /* \"#utility.yul\":12097:13148   */\n    tag_345:\n        /* \"#utility.yul\":12254:12258   */\n      0xa0\n        /* \"#utility.yul\":12249:12252   */\n      dup3\n        /* \"#utility.yul\":12245:12259   */\n      add\n        /* \"#utility.yul\":12344:12348   */\n      0x00\n        /* \"#utility.yul\":12337:12342   */\n      dup3\n        /* \"#utility.yul\":12333:12349   */\n      add\n        /* \"#utility.yul\":12327:12350   */\n      mload\n        /* \"#utility.yul\":12363:12426   */\n      tag_534\n        /* \"#utility.yul\":12420:12424   */\n      0x00\n        /* \"#utility.yul\":12415:12418   */\n      dup6\n        /* \"#utility.yul\":12411:12425   */\n      add\n        /* \"#utility.yul\":12397:12409   */\n      dup3\n        /* \"#utility.yul\":12363:12426   */\n      tag_342\n      jump\t// in\n    tag_534:\n        /* \"#utility.yul\":12269:12436   */\n      pop\n        /* \"#utility.yul\":12523:12527   */\n      0x20\n        /* \"#utility.yul\":12516:12521   */\n      dup3\n        /* \"#utility.yul\":12512:12528   */\n      add\n        /* \"#utility.yul\":12506:12529   */\n      mload\n        /* \"#utility.yul\":12542:12605   */\n      tag_535\n        /* \"#utility.yul\":12599:12603   */\n      0x20\n        /* \"#utility.yul\":12594:12597   */\n      dup6\n        /* \"#utility.yul\":12590:12604   */\n      add\n        /* \"#utility.yul\":12576:12588   */\n      dup3\n        /* \"#utility.yul\":12542:12605   */\n      tag_342\n      jump\t// in\n    tag_535:\n        /* \"#utility.yul\":12446:12615   */\n      pop\n        /* \"#utility.yul\":12704:12708   */\n      0x40\n        /* \"#utility.yul\":12697:12702   */\n      dup3\n        /* \"#utility.yul\":12693:12709   */\n      add\n        /* \"#utility.yul\":12687:12710   */\n      mload\n        /* \"#utility.yul\":12723:12786   */\n      tag_536\n        /* \"#utility.yul\":12780:12784   */\n      0x40\n        /* \"#utility.yul\":12775:12778   */\n      dup6\n        /* \"#utility.yul\":12771:12785   */\n      add\n        /* \"#utility.yul\":12757:12769   */\n      dup3\n        /* \"#utility.yul\":12723:12786   */\n      tag_342\n      jump\t// in\n    tag_536:\n        /* \"#utility.yul\":12625:12796   */\n      pop\n        /* \"#utility.yul\":12879:12883   */\n      0x60\n        /* \"#utility.yul\":12872:12877   */\n      dup3\n        /* \"#utility.yul\":12868:12884   */\n      add\n        /* \"#utility.yul\":12862:12885   */\n      mload\n        /* \"#utility.yul\":12898:12961   */\n      tag_537\n        /* \"#utility.yul\":12955:12959   */\n      0x60\n        /* \"#utility.yul\":12950:12953   */\n      dup6\n        /* \"#utility.yul\":12946:12960   */\n      add\n        /* \"#utility.yul\":12932:12944   */\n      dup3\n        /* \"#utility.yul\":12898:12961   */\n      tag_342\n      jump\t// in\n    tag_537:\n        /* \"#utility.yul\":12806:12971   */\n      pop\n        /* \"#utility.yul\":13055:13059   */\n      0x80\n        /* \"#utility.yul\":13048:13053   */\n      dup3\n        /* \"#utility.yul\":13044:13060   */\n      add\n        /* \"#utility.yul\":13038:13061   */\n      mload\n        /* \"#utility.yul\":13074:13131   */\n      tag_538\n        /* \"#utility.yul\":13125:13129   */\n      0x80\n        /* \"#utility.yul\":13120:13123   */\n      dup6\n        /* \"#utility.yul\":13116:13130   */\n      add\n        /* \"#utility.yul\":13102:13114   */\n      dup3\n        /* \"#utility.yul\":13074:13131   */\n      tag_344\n      jump\t// in\n    tag_538:\n        /* \"#utility.yul\":12981:13141   */\n      pop\n        /* \"#utility.yul\":12223:13148   */\n      pop\n        /* \"#utility.yul\":12097:13148   */\n      pop\n      pop\n      jump\t// out\n        /* \"#utility.yul\":13154:13497   */\n    tag_99:\n        /* \"#utility.yul\":13307:13311   */\n      0x00\n        /* \"#utility.yul\":13345:13348   */\n      0xa0\n        /* \"#utility.yul\":13334:13343   */\n      dup3\n        /* \"#utility.yul\":13330:13349   */\n      add\n        /* \"#utility.yul\":13322:13349   */\n      swap1\n      pop\n        /* \"#utility.yul\":13359:13490   */\n      tag_540\n        /* \"#utility.yul\":13487:13488   */\n      0x00\n        /* \"#utility.yul\":13476:13485   */\n      dup4\n        /* \"#utility.yul\":13472:13489   */\n      add\n        /* \"#utility.yul\":13463:13469   */\n      dup5\n        /* \"#utility.yul\":13359:13490   */\n      tag_345\n      jump\t// in\n    tag_540:\n        /* \"#utility.yul\":13154:13497   */\n      swap3\n      swap2\n      pop\n      pop\n      jump\t// out\n        /* \"#utility.yul\":13503:13977   */\n    tag_112:\n        /* \"#utility.yul\":13571:13577   */\n      0x00\n        /* \"#utility.yul\":13579:13585   */\n      dup1\n        /* \"#utility.yul\":13628:13630   */\n      0x40\n        /* \"#utility.yul\":13616:13625   */\n      dup4\n        /* \"#utility.yul\":13607:13614   */\n      dup6\n        /* \"#utility.yul\":13603:13626   */\n      sub\n        /* \"#utility.yul\":13599:13631   */\n      slt\n        /* \"#utility.yul\":13596:13715   */\n      iszero\n      tag_542\n      jumpi\n        /* \"#utility.yul\":13634:13713   */\n      tag_543\n      tag_313\n      jump\t// in\n    tag_543:\n        /* \"#utility.yul\":13596:13715   */\n    tag_542:\n        /* \"#utility.yul\":13754:13755   */\n      0x00\n        /* \"#utility.yul\":13779:13832   */\n      tag_544\n        /* \"#utility.yul\":13824:13831   */\n      dup6\n        /* \"#utility.yul\":13815:13821   */\n      dup3\n        /* \"#utility.yul\":13804:13813   */\n      dup7\n        /* \"#utility.yul\":13800:13822   */\n      add\n        /* \"#utility.yul\":13779:13832   */\n      tag_336\n      jump\t// in\n    tag_544:\n        /* \"#utility.yul\":13769:13832   */\n      swap3\n      pop\n        /* \"#utility.yul\":13725:13842   */\n      pop\n        /* \"#utility.yul\":13881:13883   */\n      0x20\n        /* \"#utility.yul\":13907:13960   */\n      tag_545\n        /* \"#utility.yul\":13952:13959   */\n      dup6\n        /* \"#utility.yul\":13943:13949   */\n      dup3\n        /* \"#utility.yul\":13932:13941   */\n      dup7\n        /* \"#utility.yul\":13928:13950   */\n      add\n        /* \"#utility.yul\":13907:13960   */\n      tag_336\n      jump\t// in\n    tag_545:\n        /* \"#utility.yul\":13897:13960   */\n      swap2\n      pop\n        /* \"#utility.yul\":13852:13970   */\n      pop\n        /* \"#utility.yul\":13503:13977   */\n      swap3\n      pop\n      swap3\n      swap1\n      pop\n      jump\t// out\n        /* \"#utility.yul\":13983:14152   */\n    tag_346:\n        /* \"#utility.yul\":14067:14078   */\n      0x00\n        /* \"#utility.yul\":14101:14107   */\n      dup3\n        /* \"#utility.yul\":14096:14099   */\n      dup3\n        /* \"#utility.yul\":14089:14108   */\n      mstore\n        /* \"#utility.yul\":14141:14145   */\n      0x20\n        /* \"#utility.yul\":14136:14139   */\n      dup3\n        /* \"#utility.yul\":14132:14146   */\n      add\n        /* \"#utility.yul\":14117:14146   */\n      swap1\n      pop\n        /* \"#utility.yul\":13983:14152   */\n      swap3\n      swap2\n      pop\n      pop\n      jump\t// out\n        /* \"#utility.yul\":14158:14392   */\n    tag_347:\n        /* \"#utility.yul\":14298:14332   */\n      0x416363657373436f6e74726f6c3a2063616e206f6e6c792072656e6f756e6365\n        /* \"#utility.yul\":14294:14295   */\n      0x00\n        /* \"#utility.yul\":14286:14292   */\n      dup3\n        /* \"#utility.yul\":14282:14296   */\n      add\n        /* \"#utility.yul\":14275:14333   */\n      mstore\n        /* \"#utility.yul\":14367:14384   */\n      0x20726f6c657320666f722073656c660000000000000000000000000000000000\n        /* \"#utility.yul\":14362:14364   */\n      0x20\n        /* \"#utility.yul\":14354:14360   */\n      dup3\n        /* \"#utility.yul\":14350:14365   */\n      add\n        /* \"#utility.yul\":14343:14385   */\n      mstore\n        /* \"#utility.yul\":14158:14392   */\n      pop\n      jump\t// out\n        /* \"#utility.yul\":14398:14764   */\n    tag_348:\n        /* \"#utility.yul\":14540:14543   */\n      0x00\n        /* \"#utility.yul\":14561:14628   */\n      tag_549\n        /* \"#utility.yul\":14625:14627   */\n      0x2f\n        /* \"#utility.yul\":14620:14623   */\n      dup4\n        /* \"#utility.yul\":14561:14628   */\n      tag_346\n      jump\t// in\n    tag_549:\n        /* \"#utility.yul\":14554:14628   */\n      swap2\n      pop\n        /* \"#utility.yul\":14637:14730   */\n      tag_550\n        /* \"#utility.yul\":14726:14729   */\n      dup3\n        /* \"#utility.yul\":14637:14730   */\n      tag_347\n      jump\t// in\n    tag_550:\n        /* \"#utility.yul\":14755:14757   */\n      0x40\n        /* \"#utility.yul\":14750:14753   */\n      dup3\n        /* \"#utility.yul\":14746:14758   */\n      add\n        /* \"#utility.yul\":14739:14758   */\n      swap1\n      pop\n        /* \"#utility.yul\":14398:14764   */\n      swap2\n      swap1\n      pop\n      jump\t// out\n        /* \"#utility.yul\":14770:15189   */\n    tag_142:\n        /* \"#utility.yul\":14936:14940   */\n      0x00\n        /* \"#utility.yul\":14974:14976   */\n      0x20\n        /* \"#utility.yul\":14963:14972   */\n      dup3\n        /* \"#utility.yul\":14959:14977   */\n      add\n        /* \"#utility.yul\":14951:14977   */\n      swap1\n      pop\n        /* \"#utility.yul\":15023:15032   */\n      dup2\n        /* \"#utility.yul\":15017:15021   */\n      dup2\n        /* \"#utility.yul\":15013:15033   */\n      sub\n        /* \"#utility.yul\":15009:15010   */\n      0x00\n        /* \"#utility.yul\":14998:15007   */\n      dup4\n        /* \"#utility.yul\":14994:15011   */\n      add\n        /* \"#utility.yul\":14987:15034   */\n      mstore\n        /* \"#utility.yul\":15051:15182   */\n      tag_552\n        /* \"#utility.yul\":15177:15181   */\n      dup2\n        /* \"#utility.yul\":15051:15182   */\n      tag_348\n      jump\t// in\n    tag_552:\n        /* \"#utility.yul\":15043:15182   */\n      swap1\n      pop\n        /* \"#utility.yul\":14770:15189   */\n      swap2\n      swap1\n      pop\n      jump\t// out\n        /* \"#utility.yul\":15195:15426   */\n    tag_349:\n        /* \"#utility.yul\":15335:15369   */\n      0x526563697069656e747320616e6420746f6b656e20616d6f756e7473206c656e\n        /* \"#utility.yul\":15331:15332   */\n      0x00\n        /* \"#utility.yul\":15323:15329   */\n      dup3\n        /* \"#utility.yul\":15319:15333   */\n      add\n        /* \"#utility.yul\":15312:15370   */\n      mstore\n        /* \"#utility.yul\":15404:15418   */\n      0x677468206d69736d617463680000000000000000000000000000000000000000\n        /* \"#utility.yul\":15399:15401   */\n      0x20\n        /* \"#utility.yul\":15391:15397   */\n      dup3\n        /* \"#utility.yul\":15387:15402   */\n      add\n        /* \"#utility.yul\":15380:15419   */\n      mstore\n        /* \"#utility.yul\":15195:15426   */\n      pop\n      jump\t// out\n        /* \"#utility.yul\":15432:15798   */\n    tag_350:\n        /* \"#utility.yul\":15574:15577   */\n      0x00\n        /* \"#utility.yul\":15595:15662   */\n      tag_555\n        /* \"#utility.yul\":15659:15661   */\n      0x2c\n        /* \"#utility.yul\":15654:15657   */\n      dup4\n        /* \"#utility.yul\":15595:15662   */\n      tag_346\n      jump\t// in\n    tag_555:\n        /* \"#utility.yul\":15588:15662   */\n      swap2\n      pop\n        /* \"#utility.yul\":15671:15764   */\n      tag_556\n        /* \"#utility.yul\":15760:15763   */\n      dup3\n        /* \"#utility.yul\":15671:15764   */\n      tag_349\n      jump\t// in\n    tag_556:\n        /* \"#utility.yul\":15789:15791   */\n      0x40\n        /* \"#utility.yul\":15784:15787   */\n      dup3\n        /* \"#utility.yul\":15780:15792   */\n      add\n        /* \"#utility.yul\":15773:15792   */\n      swap1\n      pop\n        /* \"#utility.yul\":15432:15798   */\n      swap2\n      swap1\n      pop\n      jump\t// out\n        /* \"#utility.yul\":15804:16223   */\n    tag_150:\n        /* \"#utility.yul\":15970:15974   */\n      0x00\n        /* \"#utility.yul\":16008:16010   */\n      0x20\n        /* \"#utility.yul\":15997:16006   */\n      dup3\n        /* \"#utility.yul\":15993:16011   */\n      add\n        /* \"#utility.yul\":15985:16011   */\n      swap1\n      pop\n        /* \"#utility.yul\":16057:16066   */\n      dup2\n        /* \"#utility.yul\":16051:16055   */\n      dup2\n        /* \"#utility.yul\":16047:16067   */\n      sub\n        /* \"#utility.yul\":16043:16044   */\n      0x00\n        /* \"#utility.yul\":16032:16041   */\n      dup4\n        /* \"#utility.yul\":16028:16045   */\n      add\n        /* \"#utility.yul\":16021:16068   */\n      mstore\n        /* \"#utility.yul\":16085:16216   */\n      tag_558\n        /* \"#utility.yul\":16211:16215   */\n      dup2\n        /* \"#utility.yul\":16085:16216   */\n      tag_350\n      jump\t// in\n    tag_558:\n        /* \"#utility.yul\":16077:16216   */\n      swap1\n      pop\n        /* \"#utility.yul\":15804:16223   */\n      swap2\n      swap1\n      pop\n      jump\t// out\n        /* \"#utility.yul\":16229:16409   */\n    tag_156:\n        /* \"#utility.yul\":16277:16354   */\n      0x4e487b7100000000000000000000000000000000000000000000000000000000\n        /* \"#utility.yul\":16274:16275   */\n      0x00\n        /* \"#utility.yul\":16267:16355   */\n      mstore\n        /* \"#utility.yul\":16374:16378   */\n      0x32\n        /* \"#utility.yul\":16371:16372   */\n      0x04\n        /* \"#utility.yul\":16364:16379   */\n      mstore\n        /* \"#utility.yul\":16398:16402   */\n      0x24\n        /* \"#utility.yul\":16395:16396   */\n      0x00\n        /* \"#utility.yul\":16388:16403   */\n      revert\n        /* \"#utility.yul\":16415:16533   */\n    tag_351:\n        /* \"#utility.yul\":16502:16526   */\n      tag_561\n        /* \"#utility.yul\":16520:16525   */\n      dup2\n        /* \"#utility.yul\":16502:16526   */\n      tag_334\n      jump\t// in\n    tag_561:\n        /* \"#utility.yul\":16497:16500   */\n      dup3\n        /* \"#utility.yul\":16490:16527   */\n      mstore\n        /* \"#utility.yul\":16415:16533   */\n      pop\n      pop\n      jump\t// out\n        /* \"#utility.yul\":16539:16871   */\n    tag_161:\n        /* \"#utility.yul\":16660:16664   */\n      0x00\n        /* \"#utility.yul\":16698:16700   */\n      0x40\n        /* \"#utility.yul\":16687:16696   */\n      dup3\n        /* \"#utility.yul\":16683:16701   */\n      add\n        /* \"#utility.yul\":16675:16701   */\n      swap1\n      pop\n        /* \"#utility.yul\":16711:16782   */\n      tag_563\n        /* \"#utility.yul\":16779:16780   */\n      0x00\n        /* \"#utility.yul\":16768:16777   */\n      dup4\n        /* \"#utility.yul\":16764:16781   */\n      add\n        /* \"#utility.yul\":16755:16761   */\n      dup6\n        /* \"#utility.yul\":16711:16782   */\n      tag_351\n      jump\t// in\n    tag_563:\n        /* \"#utility.yul\":16792:16864   */\n      tag_564\n        /* \"#utility.yul\":16860:16862   */\n      0x20\n        /* \"#utility.yul\":16849:16858   */\n      dup4\n        /* \"#utility.yul\":16845:16863   */\n      add\n        /* \"#utility.yul\":16836:16842   */\n      dup5\n        /* \"#utility.yul\":16792:16864   */\n      tag_329\n      jump\t// in\n    tag_564:\n        /* \"#utility.yul\":16539:16871   */\n      swap4\n      swap3\n      pop\n      pop\n      pop\n      jump\t// out\n        /* \"#utility.yul\":16877:17055   */\n    tag_352:\n        /* \"#utility.yul\":17017:17047   */\n      0x4d696e74696e67206661696c656420666f7220726563697069656e7400000000\n        /* \"#utility.yul\":17013:17014   */\n      0x00\n        /* \"#utility.yul\":17005:17011   */\n      dup3\n        /* \"#utility.yul\":17001:17015   */\n      add\n        /* \"#utility.yul\":16994:17048   */\n      mstore\n        /* \"#utility.yul\":16877:17055   */\n      pop\n      jump\t// out\n        /* \"#utility.yul\":17061:17427   */\n    tag_353:\n        /* \"#utility.yul\":17203:17206   */\n      0x00\n        /* \"#utility.yul\":17224:17291   */\n      tag_567\n        /* \"#utility.yul\":17288:17290   */\n      0x1c\n        /* \"#utility.yul\":17283:17286   */\n      dup4\n        /* \"#utility.yul\":17224:17291   */\n      tag_346\n      jump\t// in\n    tag_567:\n        /* \"#utility.yul\":17217:17291   */\n      swap2\n      pop\n        /* \"#utility.yul\":17300:17393   */\n      tag_568\n        /* \"#utility.yul\":17389:17392   */\n      dup3\n        /* \"#utility.yul\":17300:17393   */\n      tag_352\n      jump\t// in\n    tag_568:\n        /* \"#utility.yul\":17418:17420   */\n      0x20\n        /* \"#utility.yul\":17413:17416   */\n      dup3\n        /* \"#utility.yul\":17409:17421   */\n      add\n        /* \"#utility.yul\":17402:17421   */\n      swap1\n      pop\n        /* \"#utility.yul\":17061:17427   */\n      swap2\n      swap1\n      pop\n      jump\t// out\n        /* \"#utility.yul\":17433:17852   */\n    tag_169:\n        /* \"#utility.yul\":17599:17603   */\n      0x00\n        /* \"#utility.yul\":17637:17639   */\n      0x20\n        /* \"#utility.yul\":17626:17635   */\n      dup3\n        /* \"#utility.yul\":17622:17640   */\n      add\n        /* \"#utility.yul\":17614:17640   */\n      swap1\n      pop\n        /* \"#utility.yul\":17686:17695   */\n      dup2\n        /* \"#utility.yul\":17680:17684   */\n      dup2\n        /* \"#utility.yul\":17676:17696   */\n      sub\n        /* \"#utility.yul\":17672:17673   */\n      0x00\n        /* \"#utility.yul\":17661:17670   */\n      dup4\n        /* \"#utility.yul\":17657:17674   */\n      add\n        /* \"#utility.yul\":17650:17697   */\n      mstore\n        /* \"#utility.yul\":17714:17845   */\n      tag_570\n        /* \"#utility.yul\":17840:17844   */\n      dup2\n        /* \"#utility.yul\":17714:17845   */\n      tag_353\n      jump\t// in\n    tag_570:\n        /* \"#utility.yul\":17706:17845   */\n      swap1\n      pop\n        /* \"#utility.yul\":17433:17852   */\n      swap2\n      swap1\n      pop\n      jump\t// out\n        /* \"#utility.yul\":17858:18042   */\n    tag_354:\n        /* \"#utility.yul\":17957:17968   */\n      0x00\n        /* \"#utility.yul\":17991:17997   */\n      dup3\n        /* \"#utility.yul\":17986:17989   */\n      dup3\n        /* \"#utility.yul\":17979:17998   */\n      mstore\n        /* \"#utility.yul\":18031:18035   */\n      0x20\n        /* \"#utility.yul\":18026:18029   */\n      dup3\n        /* \"#utility.yul\":18022:18036   */\n      add\n        /* \"#utility.yul\":18007:18036   */\n      swap1\n      pop\n        /* \"#utility.yul\":17858:18042   */\n      swap3\n      swap2\n      pop\n      pop\n      jump\t// out\n        /* \"#utility.yul\":18048:18150   */\n    tag_355:\n        /* \"#utility.yul\":18117:18121   */\n      0x00\n        /* \"#utility.yul\":18140:18143   */\n      dup2\n        /* \"#utility.yul\":18132:18143   */\n      swap1\n      pop\n        /* \"#utility.yul\":18048:18150   */\n      swap2\n      swap1\n      pop\n      jump\t// out\n        /* \"#utility.yul\":18156:18264   */\n    tag_356:\n        /* \"#utility.yul\":18233:18257   */\n      tag_574\n        /* \"#utility.yul\":18251:18256   */\n      dup2\n        /* \"#utility.yul\":18233:18257   */\n      tag_334\n      jump\t// in\n    tag_574:\n        /* \"#utility.yul\":18228:18231   */\n      dup3\n        /* \"#utility.yul\":18221:18258   */\n      mstore\n        /* \"#utility.yul\":18156:18264   */\n      pop\n      pop\n      jump\t// out\n        /* \"#utility.yul\":18270:18449   */\n    tag_357:\n        /* \"#utility.yul\":18339:18349   */\n      0x00\n        /* \"#utility.yul\":18360:18406   */\n      tag_576\n        /* \"#utility.yul\":18402:18405   */\n      dup4\n        /* \"#utility.yul\":18394:18400   */\n      dup4\n        /* \"#utility.yul\":18360:18406   */\n      tag_356\n      jump\t// in\n    tag_576:\n        /* \"#utility.yul\":18438:18442   */\n      0x20\n        /* \"#utility.yul\":18433:18436   */\n      dup4\n        /* \"#utility.yul\":18429:18443   */\n      add\n        /* \"#utility.yul\":18415:18443   */\n      swap1\n      pop\n        /* \"#utility.yul\":18270:18449   */\n      swap3\n      swap2\n      pop\n      pop\n      jump\t// out\n        /* \"#utility.yul\":18455:18577   */\n    tag_358:\n        /* \"#utility.yul\":18507:18512   */\n      0x00\n        /* \"#utility.yul\":18532:18571   */\n      tag_578\n        /* \"#utility.yul\":18567:18569   */\n      0x20\n        /* \"#utility.yul\":18562:18565   */\n      dup5\n        /* \"#utility.yul\":18558:18570   */\n      add\n        /* \"#utility.yul\":18553:18556   */\n      dup5\n        /* \"#utility.yul\":18532:18571   */\n      tag_336\n      jump\t// in\n    tag_578:\n        /* \"#utility.yul\":18523:18571   */\n      swap1\n      pop\n        /* \"#utility.yul\":18455:18577   */\n      swap3\n      swap2\n      pop\n      pop\n      jump\t// out\n        /* \"#utility.yul\":18583:18698   */\n    tag_359:\n        /* \"#utility.yul\":18655:18659   */\n      0x00\n        /* \"#utility.yul\":18687:18691   */\n      0x20\n        /* \"#utility.yul\":18682:18685   */\n      dup3\n        /* \"#utility.yul\":18678:18692   */\n      add\n        /* \"#utility.yul\":18670:18692   */\n      swap1\n      pop\n        /* \"#utility.yul\":18583:18698   */\n      swap2\n      swap1\n      pop\n      jump\t// out\n        /* \"#utility.yul\":18734:19433   */\n    tag_360:\n        /* \"#utility.yul\":18863:18866   */\n      0x00\n        /* \"#utility.yul\":18886:18972   */\n      tag_581\n        /* \"#utility.yul\":18965:18971   */\n      dup4\n        /* \"#utility.yul\":18960:18963   */\n      dup6\n        /* \"#utility.yul\":18886:18972   */\n      tag_354\n      jump\t// in\n    tag_581:\n        /* \"#utility.yul\":18879:18972   */\n      swap4\n      pop\n        /* \"#utility.yul\":18996:19054   */\n      tag_582\n        /* \"#utility.yul\":19048:19053   */\n      dup3\n        /* \"#utility.yul\":18996:19054   */\n      tag_355\n      jump\t// in\n    tag_582:\n        /* \"#utility.yul\":19077:19084   */\n      dup1\n        /* \"#utility.yul\":19108:19109   */\n      0x00\n        /* \"#utility.yul\":19093:19408   */\n    tag_583:\n        /* \"#utility.yul\":19118:19124   */\n      dup6\n        /* \"#utility.yul\":19115:19116   */\n      dup2\n        /* \"#utility.yul\":19112:19125   */\n      lt\n        /* \"#utility.yul\":19093:19408   */\n      iszero\n      tag_585\n      jumpi\n        /* \"#utility.yul\":19188:19230   */\n      tag_586\n        /* \"#utility.yul\":19223:19229   */\n      dup3\n        /* \"#utility.yul\":19214:19221   */\n      dup5\n        /* \"#utility.yul\":19188:19230   */\n      tag_358\n      jump\t// in\n    tag_586:\n        /* \"#utility.yul\":19250:19313   */\n      tag_587\n        /* \"#utility.yul\":19309:19312   */\n      dup9\n        /* \"#utility.yul\":19294:19307   */\n      dup3\n        /* \"#utility.yul\":19250:19313   */\n      tag_357\n      jump\t// in\n    tag_587:\n        /* \"#utility.yul\":19243:19313   */\n      swap8\n      pop\n        /* \"#utility.yul\":19336:19398   */\n      tag_588\n        /* \"#utility.yul\":19391:19397   */\n      dup4\n        /* \"#utility.yul\":19336:19398   */\n      tag_359\n      jump\t// in\n    tag_588:\n        /* \"#utility.yul\":19326:19398   */\n      swap3\n      pop\n        /* \"#utility.yul\":19153:19408   */\n      pop\n        /* \"#utility.yul\":19140:19141   */\n      0x01\n        /* \"#utility.yul\":19137:19138   */\n      dup2\n        /* \"#utility.yul\":19133:19142   */\n      add\n        /* \"#utility.yul\":19128:19142   */\n      swap1\n      pop\n        /* \"#utility.yul\":19093:19408   */\n      jump(tag_583)\n    tag_585:\n        /* \"#utility.yul\":19097:19111   */\n      pop\n        /* \"#utility.yul\":19424:19427   */\n      dup6\n        /* \"#utility.yul\":19417:19427   */\n      swap3\n      pop\n        /* \"#utility.yul\":18868:19433   */\n      pop\n      pop\n        /* \"#utility.yul\":18734:19433   */\n      swap4\n      swap3\n      pop\n      pop\n      pop\n      jump\t// out\n        /* \"#utility.yul\":19439:19623   */\n    tag_361:\n        /* \"#utility.yul\":19538:19549   */\n      0x00\n        /* \"#utility.yul\":19572:19578   */\n      dup3\n        /* \"#utility.yul\":19567:19570   */\n      dup3\n        /* \"#utility.yul\":19560:19579   */\n      mstore\n        /* \"#utility.yul\":19612:19616   */\n      0x20\n        /* \"#utility.yul\":19607:19610   */\n      dup3\n        /* \"#utility.yul\":19603:19617   */\n      add\n        /* \"#utility.yul\":19588:19617   */\n      swap1\n      pop\n        /* \"#utility.yul\":19439:19623   */\n      swap3\n      swap2\n      pop\n      pop\n      jump\t// out\n        /* \"#utility.yul\":19629:19746   */\n    tag_362:\n        /* \"#utility.yul\":19738:19739   */\n      0x00\n        /* \"#utility.yul\":19735:19736   */\n      dup1\n        /* \"#utility.yul\":19728:19740   */\n      revert\n        /* \"#utility.yul\":19752:19851   */\n    tag_363:\n        /* \"#utility.yul\":19837:19843   */\n      dup3\n        /* \"#utility.yul\":19832:19835   */\n      dup2\n        /* \"#utility.yul\":19827:19830   */\n      dup4\n        /* \"#utility.yul\":19814:19844   */\n      calldatacopy\n        /* \"#utility.yul\":19752:19851   */\n      pop\n      pop\n      pop\n      jump\t// out\n        /* \"#utility.yul\":19887:20424   */\n    tag_364:\n        /* \"#utility.yul\":20015:20018   */\n      0x00\n        /* \"#utility.yul\":20036:20122   */\n      tag_593\n        /* \"#utility.yul\":20115:20121   */\n      dup4\n        /* \"#utility.yul\":20110:20113   */\n      dup6\n        /* \"#utility.yul\":20036:20122   */\n      tag_361\n      jump\t// in\n    tag_593:\n        /* \"#utility.yul\":20029:20122   */\n      swap4\n      pop\n        /* \"#utility.yul\":20146:20212   */\n      0x07ffffffffffffffffffffffffffffffffffffffffffffffffffffffffffffff\n        /* \"#utility.yul\":20138:20144   */\n      dup4\n        /* \"#utility.yul\":20135:20213   */\n      gt\n        /* \"#utility.yul\":20132:20297   */\n      iszero\n      tag_594\n      jumpi\n        /* \"#utility.yul\":20216:20295   */\n      tag_595\n      tag_362\n      jump\t// in\n    tag_595:\n        /* \"#utility.yul\":20132:20297   */\n    tag_594:\n        /* \"#utility.yul\":20328:20332   */\n      0x20\n        /* \"#utility.yul\":20320:20326   */\n      dup4\n        /* \"#utility.yul\":20316:20333   */\n      mul\n        /* \"#utility.yul\":20306:20333   */\n      swap3\n      pop\n        /* \"#utility.yul\":20343:20386   */\n      tag_596\n        /* \"#utility.yul\":20379:20385   */\n      dup4\n        /* \"#utility.yul\":20374:20377   */\n      dup6\n        /* \"#utility.yul\":20367:20372   */\n      dup5\n        /* \"#utility.yul\":20343:20386   */\n      tag_363\n      jump\t// in\n    tag_596:\n        /* \"#utility.yul\":20411:20417   */\n      dup3\n        /* \"#utility.yul\":20406:20409   */\n      dup5\n        /* \"#utility.yul\":20402:20418   */\n      add\n        /* \"#utility.yul\":20395:20418   */\n      swap1\n      pop\n        /* \"#utility.yul\":19887:20424   */\n      swap4\n      swap3\n      pop\n      pop\n      pop\n      jump\t// out\n        /* \"#utility.yul\":20430:21104   */\n    tag_172:\n        /* \"#utility.yul\":20671:20675   */\n      0x00\n        /* \"#utility.yul\":20709:20711   */\n      0x40\n        /* \"#utility.yul\":20698:20707   */\n      dup3\n        /* \"#utility.yul\":20694:20712   */\n      add\n        /* \"#utility.yul\":20686:20712   */\n      swap1\n      pop\n        /* \"#utility.yul\":20758:20767   */\n      dup2\n        /* \"#utility.yul\":20752:20756   */\n      dup2\n        /* \"#utility.yul\":20748:20768   */\n      sub\n        /* \"#utility.yul\":20744:20745   */\n      0x00\n        /* \"#utility.yul\":20733:20742   */\n      dup4\n        /* \"#utility.yul\":20729:20746   */\n      add\n        /* \"#utility.yul\":20722:20769   */\n      mstore\n        /* \"#utility.yul\":20786:20904   */\n      tag_598\n        /* \"#utility.yul\":20899:20903   */\n      dup2\n        /* \"#utility.yul\":20890:20896   */\n      dup7\n        /* \"#utility.yul\":20882:20888   */\n      dup9\n        /* \"#utility.yul\":20786:20904   */\n      tag_360\n      jump\t// in\n    tag_598:\n        /* \"#utility.yul\":20778:20904   */\n      swap1\n      pop\n        /* \"#utility.yul\":20951:20960   */\n      dup2\n        /* \"#utility.yul\":20945:20949   */\n      dup2\n        /* \"#utility.yul\":20941:20961   */\n      sub\n        /* \"#utility.yul\":20936:20938   */\n      0x20\n        /* \"#utility.yul\":20925:20934   */\n      dup4\n        /* \"#utility.yul\":20921:20939   */\n      add\n        /* \"#utility.yul\":20914:20962   */\n      mstore\n        /* \"#utility.yul\":20979:21097   */\n      tag_599\n        /* \"#utility.yul\":21092:21096   */\n      dup2\n        /* \"#utility.yul\":21083:21089   */\n      dup5\n        /* \"#utility.yul\":21075:21081   */\n      dup7\n        /* \"#utility.yul\":20979:21097   */\n      tag_364\n      jump\t// in\n    tag_599:\n        /* \"#utility.yul\":20971:21097   */\n      swap1\n      pop\n        /* \"#utility.yul\":20430:21104   */\n      swap6\n      swap5\n      pop\n      pop\n      pop\n      pop\n      pop\n      jump\t// out\n        /* \"#utility.yul\":21110:21281   */\n    tag_365:\n        /* \"#utility.yul\":21250:21273   */\n      0x4d656d62657220646f6573206e6f742065786973740000000000000000000000\n        /* \"#utility.yul\":21246:21247   */\n      0x00\n        /* \"#utility.yul\":21238:21244   */\n      dup3\n        /* \"#utility.yul\":21234:21248   */\n      add\n        /* \"#utility.yul\":21227:21274   */\n      mstore\n        /* \"#utility.yul\":21110:21281   */\n      pop\n      jump\t// out\n        /* \"#utility.yul\":21287:21653   */\n    tag_366:\n        /* \"#utility.yul\":21429:21432   */\n      0x00\n        /* \"#utility.yul\":21450:21517   */\n      tag_602\n        /* \"#utility.yul\":21514:21516   */\n      0x15\n        /* \"#utility.yul\":21509:21512   */\n      dup4\n        /* \"#utility.yul\":21450:21517   */\n      tag_346\n      jump\t// in\n    tag_602:\n        /* \"#utility.yul\":21443:21517   */\n      swap2\n      pop\n        /* \"#utility.yul\":21526:21619   */\n      tag_603\n        /* \"#utility.yul\":21615:21618   */\n      dup3\n        /* \"#utility.yul\":21526:21619   */\n      tag_365\n      jump\t// in\n    tag_603:\n        /* \"#utility.yul\":21644:21646   */\n      0x20\n        /* \"#utility.yul\":21639:21642   */\n      dup3\n        /* \"#utility.yul\":21635:21647   */\n      add\n        /* \"#utility.yul\":21628:21647   */\n      swap1\n      pop\n        /* \"#utility.yul\":21287:21653   */\n      swap2\n      swap1\n      pop\n      jump\t// out\n        /* \"#utility.yul\":21659:22078   */\n    tag_187:\n        /* \"#utility.yul\":21825:21829   */\n      0x00\n        /* \"#utility.yul\":21863:21865   */\n      0x20\n        /* \"#utility.yul\":21852:21861   */\n      dup3\n        /* \"#utility.yul\":21848:21866   */\n      add\n        /* \"#utility.yul\":21840:21866   */\n      swap1\n      pop\n        /* \"#utility.yul\":21912:21921   */\n      dup2\n        /* \"#utility.yul\":21906:21910   */\n      dup2\n        /* \"#utility.yul\":21902:21922   */\n      sub\n        /* \"#utility.yul\":21898:21899   */\n      0x00\n        /* \"#utility.yul\":21887:21896   */\n      dup4\n        /* \"#utility.yul\":21883:21900   */\n      add\n        /* \"#utility.yul\":21876:21923   */\n      mstore\n        /* \"#utility.yul\":21940:22071   */\n      tag_605\n        /* \"#utility.yul\":22066:22070   */\n      dup2\n        /* \"#utility.yul\":21940:22071   */\n      tag_366\n      jump\t// in\n    tag_605:\n        /* \"#utility.yul\":21932:22071   */\n      swap1\n      pop\n        /* \"#utility.yul\":21659:22078   */\n      swap2\n      swap1\n      pop\n      jump\t// out\n        /* \"#utility.yul\":22084:22259   */\n    tag_367:\n        /* \"#utility.yul\":22224:22251   */\n      0x4d656d62657220616c7265616479207265676973746572656400000000000000\n        /* \"#utility.yul\":22220:22221   */\n      0x00\n        /* \"#utility.yul\":22212:22218   */\n      dup3\n        /* \"#utility.yul\":22208:22222   */\n      add\n        /* \"#utility.yul\":22201:22252   */\n      mstore\n        /* \"#utility.yul\":22084:22259   */\n      pop\n      jump\t// out\n        /* \"#utility.yul\":22265:22631   */\n    tag_368:\n        /* \"#utility.yul\":22407:22410   */\n      0x00\n        /* \"#utility.yul\":22428:22495   */\n      tag_608\n        /* \"#utility.yul\":22492:22494   */\n      0x19\n        /* \"#utility.yul\":22487:22490   */\n      dup4\n        /* \"#utility.yul\":22428:22495   */\n      tag_346\n      jump\t// in\n    tag_608:\n        /* \"#utility.yul\":22421:22495   */\n      swap2\n      pop\n        /* \"#utility.yul\":22504:22597   */\n      tag_609\n        /* \"#utility.yul\":22593:22596   */\n      dup3\n        /* \"#utility.yul\":22504:22597   */\n      tag_367\n      jump\t// in\n    tag_609:\n        /* \"#utility.yul\":22622:22624   */\n      0x20\n        /* \"#utility.yul\":22617:22620   */\n      dup3\n        /* \"#utility.yul\":22613:22625   */\n      add\n        /* \"#utility.yul\":22606:22625   */\n      swap1\n      pop\n        /* \"#utility.yul\":22265:22631   */\n      swap2\n      swap1\n      pop\n      jump\t// out\n        /* \"#utility.yul\":22637:23056   */\n    tag_193:\n        /* \"#utility.yul\":22803:22807   */\n      0x00\n        /* \"#utility.yul\":22841:22843   */\n      0x20\n        /* \"#utility.yul\":22830:22839   */\n      dup3\n        /* \"#utility.yul\":22826:22844   */\n      add\n        /* \"#utility.yul\":22818:22844   */\n      swap1\n      pop\n        /* \"#utility.yul\":22890:22899   */\n      dup2\n        /* \"#utility.yul\":22884:22888   */\n      dup2\n        /* \"#utility.yul\":22880:22900   */\n      sub\n        /* \"#utility.yul\":22876:22877   */\n      0x00\n        /* \"#utility.yul\":22865:22874   */\n      dup4\n        /* \"#utility.yul\":22861:22878   */\n      add\n        /* \"#utility.yul\":22854:22901   */\n      mstore\n        /* \"#utility.yul\":22918:23049   */\n      tag_611\n        /* \"#utility.yul\":23044:23048   */\n      dup2\n        /* \"#utility.yul\":22918:23049   */\n      tag_368\n      jump\t// in\n    tag_611:\n        /* \"#utility.yul\":22910:23049   */\n      swap1\n      pop\n        /* \"#utility.yul\":22637:23056   */\n      swap2\n      swap1\n      pop\n      jump\t// out\n        /* \"#utility.yul\":23062:23394   */\n    tag_200:\n        /* \"#utility.yul\":23183:23187   */\n      0x00\n        /* \"#utility.yul\":23221:23223   */\n      0x40\n        /* \"#utility.yul\":23210:23219   */\n      dup3\n        /* \"#utility.yul\":23206:23224   */\n      add\n        /* \"#utility.yul\":23198:23224   */\n      swap1\n      pop\n        /* \"#utility.yul\":23234:23305   */\n      tag_613\n        /* \"#utility.yul\":23302:23303   */\n      0x00\n        /* \"#utility.yul\":23291:23300   */\n      dup4\n        /* \"#utility.yul\":23287:23304   */\n      add\n        /* \"#utility.yul\":23278:23284   */\n      dup6\n        /* \"#utility.yul\":23234:23305   */\n      tag_329\n      jump\t// in\n    tag_613:\n        /* \"#utility.yul\":23315:23387   */\n      tag_614\n        /* \"#utility.yul\":23383:23385   */\n      0x20\n        /* \"#utility.yul\":23372:23381   */\n      dup4\n        /* \"#utility.yul\":23368:23386   */\n      add\n        /* \"#utility.yul\":23359:23365   */\n      dup5\n        /* \"#utility.yul\":23315:23387   */\n      tag_329\n      jump\t// in\n    tag_614:\n        /* \"#utility.yul\":23062:23394   */\n      swap4\n      swap3\n      pop\n      pop\n      pop\n      jump\t// out\n        /* \"#utility.yul\":23400:23580   */\n    tag_369:\n        /* \"#utility.yul\":23540:23572   */\n      0x4368616c6c656e67652073636f726520646f6573206e6f742065786973740000\n        /* \"#utility.yul\":23536:23537   */\n      0x00\n        /* \"#utility.yul\":23528:23534   */\n      dup3\n        /* \"#utility.yul\":23524:23538   */\n      add\n        /* \"#utility.yul\":23517:23573   */\n      mstore\n        /* \"#utility.yul\":23400:23580   */\n      pop\n      jump\t// out\n        /* \"#utility.yul\":23586:23952   */\n    tag_370:\n        /* \"#utility.yul\":23728:23731   */\n      0x00\n        /* \"#utility.yul\":23749:23816   */\n      tag_617\n        /* \"#utility.yul\":23813:23815   */\n      0x1e\n        /* \"#utility.yul\":23808:23811   */\n      dup4\n        /* \"#utility.yul\":23749:23816   */\n      tag_346\n      jump\t// in\n    tag_617:\n        /* \"#utility.yul\":23742:23816   */\n      swap2\n      pop\n        /* \"#utility.yul\":23825:23918   */\n      tag_618\n        /* \"#utility.yul\":23914:23917   */\n      dup3\n        /* \"#utility.yul\":23825:23918   */\n      tag_369\n      jump\t// in\n    tag_618:\n        /* \"#utility.yul\":23943:23945   */\n      0x20\n        /* \"#utility.yul\":23938:23941   */\n      dup3\n        /* \"#utility.yul\":23934:23946   */\n      add\n        /* \"#utility.yul\":23927:23946   */\n      swap1\n      pop\n        /* \"#utility.yul\":23586:23952   */\n      swap2\n      swap1\n      pop\n      jump\t// out\n        /* \"#utility.yul\":23958:24377   */\n    tag_206:\n        /* \"#utility.yul\":24124:24128   */\n      0x00\n        /* \"#utility.yul\":24162:24164   */\n      0x20\n        /* \"#utility.yul\":24151:24160   */\n      dup3\n        /* \"#utility.yul\":24147:24165   */\n      add\n        /* \"#utility.yul\":24139:24165   */\n      swap1\n      pop\n        /* \"#utility.yul\":24211:24220   */\n      dup2\n        /* \"#utility.yul\":24205:24209   */\n      dup2\n        /* \"#utility.yul\":24201:24221   */\n      sub\n        /* \"#utility.yul\":24197:24198   */\n      0x00\n        /* \"#utility.yul\":24186:24195   */\n      dup4\n        /* \"#utility.yul\":24182:24199   */\n      add\n        /* \"#utility.yul\":24175:24222   */\n      mstore\n        /* \"#utility.yul\":24239:24370   */\n      tag_620\n        /* \"#utility.yul\":24365:24369   */\n      dup2\n        /* \"#utility.yul\":24239:24370   */\n      tag_370\n      jump\t// in\n    tag_620:\n        /* \"#utility.yul\":24231:24370   */\n      swap1\n      pop\n        /* \"#utility.yul\":23958:24377   */\n      swap2\n      swap1\n      pop\n      jump\t// out\n        /* \"#utility.yul\":24383:24626   */\n    tag_371:\n        /* \"#utility.yul\":24523:24557   */\n      0x4368616c6c656e676520616c72656164792065786973747320666f7220746869\n        /* \"#utility.yul\":24519:24520   */\n      0x00\n        /* \"#utility.yul\":24511:24517   */\n      dup3\n        /* \"#utility.yul\":24507:24521   */\n      add\n        /* \"#utility.yul\":24500:24558   */\n      mstore\n        /* \"#utility.yul\":24592:24618   */\n      0x73206d656d6265722c20646174652c20616e642067616d650000000000000000\n        /* \"#utility.yul\":24587:24589   */\n      0x20\n        /* \"#utility.yul\":24579:24585   */\n      dup3\n        /* \"#utility.yul\":24575:24590   */\n      add\n        /* \"#utility.yul\":24568:24619   */\n      mstore\n        /* \"#utility.yul\":24383:24626   */\n      pop\n      jump\t// out\n        /* \"#utility.yul\":24632:24998   */\n    tag_372:\n        /* \"#utility.yul\":24774:24777   */\n      0x00\n        /* \"#utility.yul\":24795:24862   */\n      tag_623\n        /* \"#utility.yul\":24859:24861   */\n      0x38\n        /* \"#utility.yul\":24854:24857   */\n      dup4\n        /* \"#utility.yul\":24795:24862   */\n      tag_346\n      jump\t// in\n    tag_623:\n        /* \"#utility.yul\":24788:24862   */\n      swap2\n      pop\n        /* \"#utility.yul\":24871:24964   */\n      tag_624\n        /* \"#utility.yul\":24960:24963   */\n      dup3\n        /* \"#utility.yul\":24871:24964   */\n      tag_371\n      jump\t// in\n    tag_624:\n        /* \"#utility.yul\":24989:24991   */\n      0x40\n        /* \"#utility.yul\":24984:24987   */\n      dup3\n        /* \"#utility.yul\":24980:24992   */\n      add\n        /* \"#utility.yul\":24973:24992   */\n      swap1\n      pop\n        /* \"#utility.yul\":24632:24998   */\n      swap2\n      swap1\n      pop\n      jump\t// out\n        /* \"#utility.yul\":25004:25423   */\n    tag_214:\n        /* \"#utility.yul\":25170:25174   */\n      0x00\n        /* \"#utility.yul\":25208:25210   */\n      0x20\n        /* \"#utility.yul\":25197:25206   */\n      dup3\n        /* \"#utility.yul\":25193:25211   */\n      add\n        /* \"#utility.yul\":25185:25211   */\n      swap1\n      pop\n        /* \"#utility.yul\":25257:25266   */\n      dup2\n        /* \"#utility.yul\":25251:25255   */\n      dup2\n        /* \"#utility.yul\":25247:25267   */\n      sub\n        /* \"#utility.yul\":25243:25244   */\n      0x00\n        /* \"#utility.yul\":25232:25241   */\n      dup4\n        /* \"#utility.yul\":25228:25245   */\n      add\n        /* \"#utility.yul\":25221:25268   */\n      mstore\n        /* \"#utility.yul\":25285:25416   */\n      tag_626\n        /* \"#utility.yul\":25411:25415   */\n      dup2\n        /* \"#utility.yul\":25285:25416   */\n      tag_372\n      jump\t// in\n    tag_626:\n        /* \"#utility.yul\":25277:25416   */\n      swap1\n      pop\n        /* \"#utility.yul\":25004:25423   */\n      swap2\n      swap1\n      pop\n      jump\t// out\n        /* \"#utility.yul\":25429:25761   */\n    tag_216:\n        /* \"#utility.yul\":25550:25554   */\n      0x00\n        /* \"#utility.yul\":25588:25590   */\n      0x40\n        /* \"#utility.yul\":25577:25586   */\n      dup3\n        /* \"#utility.yul\":25573:25591   */\n      add\n        /* \"#utility.yul\":25565:25591   */\n      swap1\n      pop\n        /* \"#utility.yul\":25601:25672   */\n      tag_628\n        /* \"#utility.yul\":25669:25670   */\n      0x00\n        /* \"#utility.yul\":25658:25667   */\n      dup4\n        /* \"#utility.yul\":25654:25671   */\n      add\n        /* \"#utility.yul\":25645:25651   */\n      dup6\n        /* \"#utility.yul\":25601:25672   */\n      tag_351\n      jump\t// in\n    tag_628:\n        /* \"#utility.yul\":25682:25754   */\n      tag_629\n        /* \"#utility.yul\":25750:25752   */\n      0x20\n        /* \"#utility.yul\":25739:25748   */\n      dup4\n        /* \"#utility.yul\":25735:25753   */\n      add\n        /* \"#utility.yul\":25726:25732   */\n      dup5\n        /* \"#utility.yul\":25682:25754   */\n      tag_351\n      jump\t// in\n    tag_629:\n        /* \"#utility.yul\":25429:25761   */\n      swap4\n      swap3\n      pop\n      pop\n      pop\n      jump\t// out\n        /* \"#utility.yul\":25767:25910   */\n    tag_373:\n        /* \"#utility.yul\":25824:25829   */\n      0x00\n        /* \"#utility.yul\":25855:25861   */\n      dup2\n        /* \"#utility.yul\":25849:25862   */\n      mload\n        /* \"#utility.yul\":25840:25862   */\n      swap1\n      pop\n        /* \"#utility.yul\":25871:25904   */\n      tag_631\n        /* \"#utility.yul\":25898:25903   */\n      dup2\n        /* \"#utility.yul\":25871:25904   */\n      tag_327\n      jump\t// in\n    tag_631:\n        /* \"#utility.yul\":25767:25910   */\n      swap3\n      swap2\n      pop\n      pop\n      jump\t// out\n        /* \"#utility.yul\":25916:26267   */\n    tag_220:\n        /* \"#utility.yul\":25986:25992   */\n      0x00\n        /* \"#utility.yul\":26035:26037   */\n      0x20\n        /* \"#utility.yul\":26023:26032   */\n      dup3\n        /* \"#utility.yul\":26014:26021   */\n      dup5\n        /* \"#utility.yul\":26010:26033   */\n      sub\n        /* \"#utility.yul\":26006:26038   */\n      slt\n        /* \"#utility.yul\":26003:26122   */\n      iszero\n      tag_633\n      jumpi\n        /* \"#utility.yul\":26041:26120   */\n      tag_634\n      tag_313\n      jump\t// in\n    tag_634:\n        /* \"#utility.yul\":26003:26122   */\n    tag_633:\n        /* \"#utility.yul\":26161:26162   */\n      0x00\n        /* \"#utility.yul\":26186:26250   */\n      tag_635\n        /* \"#utility.yul\":26242:26249   */\n      dup5\n        /* \"#utility.yul\":26233:26239   */\n      dup3\n        /* \"#utility.yul\":26222:26231   */\n      dup6\n        /* \"#utility.yul\":26218:26240   */\n      add\n        /* \"#utility.yul\":26186:26250   */\n      tag_373\n      jump\t// in\n    tag_635:\n        /* \"#utility.yul\":26176:26250   */\n      swap2\n      pop\n        /* \"#utility.yul\":26132:26260   */\n      pop\n        /* \"#utility.yul\":25916:26267   */\n      swap3\n      swap2\n      pop\n      pop\n      jump\t// out\n        /* \"#utility.yul\":26273:26451   */\n    tag_374:\n        /* \"#utility.yul\":26413:26443   */\n      0x496e73756666696369656e7420746f6b656e20616c6c6f77616e636500000000\n        /* \"#utility.yul\":26409:26410   */\n      0x00\n        /* \"#utility.yul\":26401:26407   */\n      dup3\n        /* \"#utility.yul\":26397:26411   */\n      add\n        /* \"#utility.yul\":26390:26444   */\n      mstore\n        /* \"#utility.yul\":26273:26451   */\n      pop\n      jump\t// out\n        /* \"#utility.yul\":26457:26823   */\n    tag_375:\n        /* \"#utility.yul\":26599:26602   */\n      0x00\n        /* \"#utility.yul\":26620:26687   */\n      tag_638\n        /* \"#utility.yul\":26684:26686   */\n      0x1c\n        /* \"#utility.yul\":26679:26682   */\n      dup4\n        /* \"#utility.yul\":26620:26687   */\n      tag_346\n      jump\t// in\n    tag_638:\n        /* \"#utility.yul\":26613:26687   */\n      swap2\n      pop\n        /* \"#utility.yul\":26696:26789   */\n      tag_639\n        /* \"#utility.yul\":26785:26788   */\n      dup3\n        /* \"#utility.yul\":26696:26789   */\n      tag_374\n      jump\t// in\n    tag_639:\n        /* \"#utility.yul\":26814:26816   */\n      0x20\n        /* \"#utility.yul\":26809:26812   */\n      dup3\n        /* \"#utility.yul\":26805:26817   */\n      add\n        /* \"#utility.yul\":26798:26817   */\n      swap1\n      pop\n        /* \"#utility.yul\":26457:26823   */\n      swap2\n      swap1\n      pop\n      jump\t// out\n        /* \"#utility.yul\":26829:27248   */\n    tag_223:\n        /* \"#utility.yul\":26995:26999   */\n      0x00\n        /* \"#utility.yul\":27033:27035   */\n      0x20\n        /* \"#utility.yul\":27022:27031   */\n      dup3\n        /* \"#utility.yul\":27018:27036   */\n      add\n        /* \"#utility.yul\":27010:27036   */\n      swap1\n      pop\n        /* \"#utility.yul\":27082:27091   */\n      dup2\n        /* \"#utility.yul\":27076:27080   */\n      dup2\n        /* \"#utility.yul\":27072:27092   */\n      sub\n        /* \"#utility.yul\":27068:27069   */\n      0x00\n        /* \"#utility.yul\":27057:27066   */\n      dup4\n        /* \"#utility.yul\":27053:27070   */\n      add\n        /* \"#utility.yul\":27046:27093   */\n      mstore\n        /* \"#utility.yul\":27110:27241   */\n      tag_641\n        /* \"#utility.yul\":27236:27240   */\n      dup2\n        /* \"#utility.yul\":27110:27241   */\n      tag_375\n      jump\t// in\n    tag_641:\n        /* \"#utility.yul\":27102:27241   */\n      swap1\n      pop\n        /* \"#utility.yul\":26829:27248   */\n      swap2\n      swap1\n      pop\n      jump\t// out\n        /* \"#utility.yul\":27254:27476   */\n    tag_225:\n        /* \"#utility.yul\":27347:27351   */\n      0x00\n        /* \"#utility.yul\":27385:27387   */\n      0x20\n        /* \"#utility.yul\":27374:27383   */\n      dup3\n        /* \"#utility.yul\":27370:27388   */\n      add\n        /* \"#utility.yul\":27362:27388   */\n      swap1\n      pop\n        /* \"#utility.yul\":27398:27469   */\n      tag_643\n        /* \"#utility.yul\":27466:27467   */\n      0x00\n        /* \"#utility.yul\":27455:27464   */\n      dup4\n        /* \"#utility.yul\":27451:27468   */\n      add\n        /* \"#utility.yul\":27442:27448   */\n      dup5\n        /* \"#utility.yul\":27398:27469   */\n      tag_351\n      jump\t// in\n    tag_643:\n        /* \"#utility.yul\":27254:27476   */\n      swap3\n      swap2\n      pop\n      pop\n      jump\t// out\n        /* \"#utility.yul\":27482:27658   */\n    tag_376:\n        /* \"#utility.yul\":27622:27650   */\n      0x496e73756666696369656e7420746f6b656e2062616c616e6365000000000000\n        /* \"#utility.yul\":27618:27619   */\n      0x00\n        /* \"#utility.yul\":27610:27616   */\n      dup3\n        /* \"#utility.yul\":27606:27620   */\n      add\n        /* \"#utility.yul\":27599:27651   */\n      mstore\n        /* \"#utility.yul\":27482:27658   */\n      pop\n      jump\t// out\n        /* \"#utility.yul\":27664:28030   */\n    tag_377:\n        /* \"#utility.yul\":27806:27809   */\n      0x00\n        /* \"#utility.yul\":27827:27894   */\n      tag_646\n        /* \"#utility.yul\":27891:27893   */\n      0x1a\n        /* \"#utility.yul\":27886:27889   */\n      dup4\n        /* \"#utility.yul\":27827:27894   */\n      tag_346\n      jump\t// in\n    tag_646:\n        /* \"#utility.yul\":27820:27894   */\n      swap2\n      pop\n        /* \"#utility.yul\":27903:27996   */\n      tag_647\n        /* \"#utility.yul\":27992:27995   */\n      dup3\n        /* \"#utility.yul\":27903:27996   */\n      tag_376\n      jump\t// in\n    tag_647:\n        /* \"#utility.yul\":28021:28023   */\n      0x20\n        /* \"#utility.yul\":28016:28019   */\n      dup3\n        /* \"#utility.yul\":28012:28024   */\n      add\n        /* \"#utility.yul\":28005:28024   */\n      swap1\n      pop\n        /* \"#utility.yul\":27664:28030   */\n      swap2\n      swap1\n      pop\n      jump\t// out\n        /* \"#utility.yul\":28036:28455   */\n    tag_231:\n        /* \"#utility.yul\":28202:28206   */\n      0x00\n        /* \"#utility.yul\":28240:28242   */\n      0x20\n        /* \"#utility.yul\":28229:28238   */\n      dup3\n        /* \"#utility.yul\":28225:28243   */\n      add\n        /* \"#utility.yul\":28217:28243   */\n      swap1\n      pop\n        /* \"#utility.yul\":28289:28298   */\n      dup2\n        /* \"#utility.yul\":28283:28287   */\n      dup2\n        /* \"#utility.yul\":28279:28299   */\n      sub\n        /* \"#utility.yul\":28275:28276   */\n      0x00\n        /* \"#utility.yul\":28264:28273   */\n      dup4\n        /* \"#utility.yul\":28260:28277   */\n      add\n        /* \"#utility.yul\":28253:28300   */\n      mstore\n        /* \"#utility.yul\":28317:28448   */\n      tag_649\n        /* \"#utility.yul\":28443:28447   */\n      dup2\n        /* \"#utility.yul\":28317:28448   */\n      tag_377\n      jump\t// in\n    tag_649:\n        /* \"#utility.yul\":28309:28448   */\n      swap1\n      pop\n        /* \"#utility.yul\":28036:28455   */\n      swap2\n      swap1\n      pop\n      jump\t// out\n        /* \"#utility.yul\":28461:28903   */\n    tag_233:\n        /* \"#utility.yul\":28610:28614   */\n      0x00\n        /* \"#utility.yul\":28648:28650   */\n      0x60\n        /* \"#utility.yul\":28637:28646   */\n      dup3\n        /* \"#utility.yul\":28633:28651   */\n      add\n        /* \"#utility.yul\":28625:28651   */\n      swap1\n      pop\n        /* \"#utility.yul\":28661:28732   */\n      tag_651\n        /* \"#utility.yul\":28729:28730   */\n      0x00\n        /* \"#utility.yul\":28718:28727   */\n      dup4\n        /* \"#utility.yul\":28714:28731   */\n      add\n        /* \"#utility.yul\":28705:28711   */\n      dup7\n        /* \"#utility.yul\":28661:28732   */\n      tag_351\n      jump\t// in\n    tag_651:\n        /* \"#utility.yul\":28742:28814   */\n      tag_652\n        /* \"#utility.yul\":28810:28812   */\n      0x20\n        /* \"#utility.yul\":28799:28808   */\n      dup4\n        /* \"#utility.yul\":28795:28813   */\n      add\n        /* \"#utility.yul\":28786:28792   */\n      dup6\n        /* \"#utility.yul\":28742:28814   */\n      tag_351\n      jump\t// in\n    tag_652:\n        /* \"#utility.yul\":28824:28896   */\n      tag_653\n        /* \"#utility.yul\":28892:28894   */\n      0x40\n        /* \"#utility.yul\":28881:28890   */\n      dup4\n        /* \"#utility.yul\":28877:28895   */\n      add\n        /* \"#utility.yul\":28868:28874   */\n      dup5\n        /* \"#utility.yul\":28824:28896   */\n      tag_329\n      jump\t// in\n    tag_653:\n        /* \"#utility.yul\":28461:28903   */\n      swap5\n      swap4\n      pop\n      pop\n      pop\n      pop\n      jump\t// out\n        /* \"#utility.yul\":28909:29025   */\n    tag_378:\n        /* \"#utility.yul\":28979:29000   */\n      tag_655\n        /* \"#utility.yul\":28994:28999   */\n      dup2\n        /* \"#utility.yul\":28979:29000   */\n      tag_318\n      jump\t// in\n    tag_655:\n        /* \"#utility.yul\":28972:28977   */\n      dup2\n        /* \"#utility.yul\":28969:29001   */\n      eq\n        /* \"#utility.yul\":28959:29019   */\n      tag_656\n      jumpi\n        /* \"#utility.yul\":29015:29016   */\n      0x00\n        /* \"#utility.yul\":29012:29013   */\n      dup1\n        /* \"#utility.yul\":29005:29017   */\n      revert\n        /* \"#utility.yul\":28959:29019   */\n    tag_656:\n        /* \"#utility.yul\":28909:29025   */\n      pop\n      jump\t// out\n        /* \"#utility.yul\":29031:29168   */\n    tag_379:\n        /* \"#utility.yul\":29085:29090   */\n      0x00\n        /* \"#utility.yul\":29116:29122   */\n      dup2\n        /* \"#utility.yul\":29110:29123   */\n      mload\n        /* \"#utility.yul\":29101:29123   */\n      swap1\n      pop\n        /* \"#utility.yul\":29132:29162   */\n      tag_658\n        /* \"#utility.yul\":29156:29161   */\n      dup2\n        /* \"#utility.yul\":29132:29162   */\n      tag_378\n      jump\t// in\n    tag_658:\n        /* \"#utility.yul\":29031:29168   */\n      swap3\n      swap2\n      pop\n      pop\n      jump\t// out\n        /* \"#utility.yul\":29174:29519   */\n    tag_237:\n        /* \"#utility.yul\":29241:29247   */\n      0x00\n        /* \"#utility.yul\":29290:29292   */\n      0x20\n        /* \"#utility.yul\":29278:29287   */\n      dup3\n        /* \"#utility.yul\":29269:29276   */\n      dup5\n        /* \"#utility.yul\":29265:29288   */\n      sub\n        /* \"#utility.yul\":29261:29293   */\n      slt\n        /* \"#utility.yul\":29258:29377   */\n      iszero\n      tag_660\n      jumpi\n        /* \"#utility.yul\":29296:29375   */\n      tag_661\n      tag_313\n      jump\t// in\n    tag_661:\n        /* \"#utility.yul\":29258:29377   */\n    tag_660:\n        /* \"#utility.yul\":29416:29417   */\n      0x00\n        /* \"#utility.yul\":29441:29502   */\n      tag_662\n        /* \"#utility.yul\":29494:29501   */\n      dup5\n        /* \"#utility.yul\":29485:29491   */\n      dup3\n        /* \"#utility.yul\":29474:29483   */\n      dup6\n        /* \"#utility.yul\":29470:29492   */\n      add\n        /* \"#utility.yul\":29441:29502   */\n      tag_379\n      jump\t// in\n    tag_662:\n        /* \"#utility.yul\":29431:29502   */\n      swap2\n      pop\n        /* \"#utility.yul\":29387:29512   */\n      pop\n        /* \"#utility.yul\":29174:29519   */\n      swap3\n      swap2\n      pop\n      pop\n      jump\t// out\n        /* \"#utility.yul\":29525:29696   */\n    tag_380:\n        /* \"#utility.yul\":29665:29688   */\n      0x546f6b656e207472616e73666572206661696c65640000000000000000000000\n        /* \"#utility.yul\":29661:29662   */\n      0x00\n        /* \"#utility.yul\":29653:29659   */\n      dup3\n        /* \"#utility.yul\":29649:29663   */\n      add\n        /* \"#utility.yul\":29642:29689   */\n      mstore\n        /* \"#utility.yul\":29525:29696   */\n      pop\n      jump\t// out\n        /* \"#utility.yul\":29702:30068   */\n    tag_381:\n        /* \"#utility.yul\":29844:29847   */\n      0x00\n        /* \"#utility.yul\":29865:29932   */\n      tag_665\n        /* \"#utility.yul\":29929:29931   */\n      0x15\n        /* \"#utility.yul\":29924:29927   */\n      dup4\n        /* \"#utility.yul\":29865:29932   */\n      tag_346\n      jump\t// in\n    tag_665:\n        /* \"#utility.yul\":29858:29932   */\n      swap2\n      pop\n        /* \"#utility.yul\":29941:30034   */\n      tag_666\n        /* \"#utility.yul\":30030:30033   */\n      dup3\n        /* \"#utility.yul\":29941:30034   */\n      tag_380\n      jump\t// in\n    tag_666:\n        /* \"#utility.yul\":30059:30061   */\n      0x20\n        /* \"#utility.yul\":30054:30057   */\n      dup3\n        /* \"#utility.yul\":30050:30062   */\n      add\n        /* \"#utility.yul\":30043:30062   */\n      swap1\n      pop\n        /* \"#utility.yul\":29702:30068   */\n      swap2\n      swap1\n      pop\n      jump\t// out\n        /* \"#utility.yul\":30074:30493   */\n    tag_240:\n        /* \"#utility.yul\":30240:30244   */\n      0x00\n        /* \"#utility.yul\":30278:30280   */\n      0x20\n        /* \"#utility.yul\":30267:30276   */\n      dup3\n        /* \"#utility.yul\":30263:30281   */\n      add\n        /* \"#utility.yul\":30255:30281   */\n      swap1\n      pop\n        /* \"#utility.yul\":30327:30336   */\n      dup2\n        /* \"#utility.yul\":30321:30325   */\n      dup2\n        /* \"#utility.yul\":30317:30337   */\n      sub\n        /* \"#utility.yul\":30313:30314   */\n      0x00\n        /* \"#utility.yul\":30302:30311   */\n      dup4\n        /* \"#utility.yul\":30298:30315   */\n      add\n        /* \"#utility.yul\":30291:30338   */\n      mstore\n        /* \"#utility.yul\":30355:30486   */\n      tag_668\n        /* \"#utility.yul\":30481:30485   */\n      dup2\n        /* \"#utility.yul\":30355:30486   */\n      tag_381\n      jump\t// in\n    tag_668:\n        /* \"#utility.yul\":30347:30486   */\n      swap1\n      pop\n        /* \"#utility.yul\":30074:30493   */\n      swap2\n      swap1\n      pop\n      jump\t// out\n        /* \"#utility.yul\":30499:30673   */\n    tag_382:\n        /* \"#utility.yul\":30639:30665   */\n      0x4368616c6c656e676520646f6573206e6f742065786973740000000000000000\n        /* \"#utility.yul\":30635:30636   */\n      0x00\n        /* \"#utility.yul\":30627:30633   */\n      dup3\n        /* \"#utility.yul\":30623:30637   */\n      add\n        /* \"#utility.yul\":30616:30666   */\n      mstore\n        /* \"#utility.yul\":30499:30673   */\n      pop\n      jump\t// out\n        /* \"#utility.yul\":30679:31045   */\n    tag_383:\n        /* \"#utility.yul\":30821:30824   */\n      0x00\n        /* \"#utility.yul\":30842:30909   */\n      tag_671\n        /* \"#utility.yul\":30906:30908   */\n      0x18\n        /* \"#utility.yul\":30901:30904   */\n      dup4\n        /* \"#utility.yul\":30842:30909   */\n      tag_346\n      jump\t// in\n    tag_671:\n        /* \"#utility.yul\":30835:30909   */\n      swap2\n      pop\n        /* \"#utility.yul\":30918:31011   */\n      tag_672\n        /* \"#utility.yul\":31007:31010   */\n      dup3\n        /* \"#utility.yul\":30918:31011   */\n      tag_382\n      jump\t// in\n    tag_672:\n        /* \"#utility.yul\":31036:31038   */\n      0x20\n        /* \"#utility.yul\":31031:31034   */\n      dup3\n        /* \"#utility.yul\":31027:31039   */\n      add\n        /* \"#utility.yul\":31020:31039   */\n      swap1\n      pop\n        /* \"#utility.yul\":30679:31045   */\n      swap2\n      swap1\n      pop\n      jump\t// out\n        /* \"#utility.yul\":31051:31470   */\n    tag_255:\n        /* \"#utility.yul\":31217:31221   */\n      0x00\n        /* \"#utility.yul\":31255:31257   */\n      0x20\n        /* \"#utility.yul\":31244:31253   */\n      dup3\n        /* \"#utility.yul\":31240:31258   */\n      add\n        /* \"#utility.yul\":31232:31258   */\n      swap1\n      pop\n        /* \"#utility.yul\":31304:31313   */\n      dup2\n        /* \"#utility.yul\":31298:31302   */\n      dup2\n        /* \"#utility.yul\":31294:31314   */\n      sub\n        /* \"#utility.yul\":31290:31291   */\n      0x00\n        /* \"#utility.yul\":31279:31288   */\n      dup4\n        /* \"#utility.yul\":31275:31292   */\n      add\n        /* \"#utility.yul\":31268:31315   */\n      mstore\n        /* \"#utility.yul\":31332:31463   */\n      tag_674\n        /* \"#utility.yul\":31458:31462   */\n      dup2\n        /* \"#utility.yul\":31332:31463   */\n      tag_383\n      jump\t// in\n    tag_674:\n        /* \"#utility.yul\":31324:31463   */\n      swap1\n      pop\n        /* \"#utility.yul\":31051:31470   */\n      swap2\n      swap1\n      pop\n      jump\t// out\n        /* \"#utility.yul\":31476:31624   */\n    tag_384:\n        /* \"#utility.yul\":31578:31589   */\n      0x00\n        /* \"#utility.yul\":31615:31618   */\n      dup2\n        /* \"#utility.yul\":31600:31618   */\n      swap1\n      pop\n        /* \"#utility.yul\":31476:31624   */\n      swap3\n      swap2\n      pop\n      pop\n      jump\t// out\n        /* \"#utility.yul\":31630:31803   */\n    tag_385:\n        /* \"#utility.yul\":31770:31795   */\n      0x416363657373436f6e74726f6c3a206163636f756e7420000000000000000000\n        /* \"#utility.yul\":31766:31767   */\n      0x00\n        /* \"#utility.yul\":31758:31764   */\n      dup3\n        /* \"#utility.yul\":31754:31768   */\n      add\n        /* \"#utility.yul\":31747:31796   */\n      mstore\n        /* \"#utility.yul\":31630:31803   */\n      pop\n      jump\t// out\n        /* \"#utility.yul\":31809:32211   */\n    tag_386:\n        /* \"#utility.yul\":31969:31972   */\n      0x00\n        /* \"#utility.yul\":31990:32075   */\n      tag_678\n        /* \"#utility.yul\":32072:32074   */\n      0x17\n        /* \"#utility.yul\":32067:32070   */\n      dup4\n        /* \"#utility.yul\":31990:32075   */\n      tag_384\n      jump\t// in\n    tag_678:\n        /* \"#utility.yul\":31983:32075   */\n      swap2\n      pop\n        /* \"#utility.yul\":32084:32177   */\n      tag_679\n        /* \"#utility.yul\":32173:32176   */\n      dup3\n        /* \"#utility.yul\":32084:32177   */\n      tag_385\n      jump\t// in\n    tag_679:\n        /* \"#utility.yul\":32202:32204   */\n      0x17\n        /* \"#utility.yul\":32197:32200   */\n      dup3\n        /* \"#utility.yul\":32193:32205   */\n      add\n        /* \"#utility.yul\":32186:32205   */\n      swap1\n      pop\n        /* \"#utility.yul\":31809:32211   */\n      swap2\n      swap1\n      pop\n      jump\t// out\n        /* \"#utility.yul\":32217:32316   */\n    tag_387:\n        /* \"#utility.yul\":32269:32275   */\n      0x00\n        /* \"#utility.yul\":32303:32308   */\n      dup2\n        /* \"#utility.yul\":32297:32309   */\n      mload\n        /* \"#utility.yul\":32287:32309   */\n      swap1\n      pop\n        /* \"#utility.yul\":32217:32316   */\n      swap2\n      swap1\n      pop\n      jump\t// out\n        /* \"#utility.yul\":32322:32461   */\n    tag_388:\n        /* \"#utility.yul\":32411:32417   */\n      dup3\n        /* \"#utility.yul\":32406:32409   */\n      dup2\n        /* \"#utility.yul\":32401:32404   */\n      dup4\n        /* \"#utility.yul\":32395:32418   */\n      mcopy\n        /* \"#utility.yul\":32452:32453   */\n      0x00\n        /* \"#utility.yul\":32443:32449   */\n      dup4\n        /* \"#utility.yul\":32438:32441   */\n      dup4\n        /* \"#utility.yul\":32434:32450   */\n      add\n        /* \"#utility.yul\":32427:32454   */\n      mstore\n        /* \"#utility.yul\":32322:32461   */\n      pop\n      pop\n      pop\n      jump\t// out\n        /* \"#utility.yul\":32467:32857   */\n    tag_389:\n        /* \"#utility.yul\":32573:32576   */\n      0x00\n        /* \"#utility.yul\":32601:32640   */\n      tag_683\n        /* \"#utility.yul\":32634:32639   */\n      dup3\n        /* \"#utility.yul\":32601:32640   */\n      tag_387\n      jump\t// in\n    tag_683:\n        /* \"#utility.yul\":32656:32745   */\n      tag_684\n        /* \"#utility.yul\":32738:32744   */\n      dup2\n        /* \"#utility.yul\":32733:32736   */\n      dup6\n        /* \"#utility.yul\":32656:32745   */\n      tag_384\n      jump\t// in\n    tag_684:\n        /* \"#utility.yul\":32649:32745   */\n      swap4\n      pop\n        /* \"#utility.yul\":32754:32819   */\n      tag_685\n        /* \"#utility.yul\":32812:32818   */\n      dup2\n        /* \"#utility.yul\":32807:32810   */\n      dup6\n        /* \"#utility.yul\":32800:32804   */\n      0x20\n        /* \"#utility.yul\":32793:32798   */\n      dup7\n        /* \"#utility.yul\":32789:32805   */\n      add\n        /* \"#utility.yul\":32754:32819   */\n      tag_388\n      jump\t// in\n    tag_685:\n        /* \"#utility.yul\":32844:32850   */\n      dup1\n        /* \"#utility.yul\":32839:32842   */\n      dup5\n        /* \"#utility.yul\":32835:32851   */\n      add\n        /* \"#utility.yul\":32828:32851   */\n      swap2\n      pop\n        /* \"#utility.yul\":32577:32857   */\n      pop\n        /* \"#utility.yul\":32467:32857   */\n      swap3\n      swap2\n      pop\n      pop\n      jump\t// out\n        /* \"#utility.yul\":32863:33030   */\n    tag_390:\n        /* \"#utility.yul\":33003:33022   */\n      0x206973206d697373696e6720726f6c6520000000000000000000000000000000\n        /* \"#utility.yul\":32999:33000   */\n      0x00\n        /* \"#utility.yul\":32991:32997   */\n      dup3\n        /* \"#utility.yul\":32987:33001   */\n      add\n        /* \"#utility.yul\":32980:33023   */\n      mstore\n        /* \"#utility.yul\":32863:33030   */\n      pop\n      jump\t// out\n        /* \"#utility.yul\":33036:33438   */\n    tag_391:\n        /* \"#utility.yul\":33196:33199   */\n      0x00\n        /* \"#utility.yul\":33217:33302   */\n      tag_688\n        /* \"#utility.yul\":33299:33301   */\n      0x11\n        /* \"#utility.yul\":33294:33297   */\n      dup4\n        /* \"#utility.yul\":33217:33302   */\n      tag_384\n      jump\t// in\n    tag_688:\n        /* \"#utility.yul\":33210:33302   */\n      swap2\n      pop\n        /* \"#utility.yul\":33311:33404   */\n      tag_689\n        /* \"#utility.yul\":33400:33403   */\n      dup3\n        /* \"#utility.yul\":33311:33404   */\n      tag_390\n      jump\t// in\n    tag_689:\n        /* \"#utility.yul\":33429:33431   */\n      0x11\n        /* \"#utility.yul\":33424:33427   */\n      dup3\n        /* \"#utility.yul\":33420:33432   */\n      add\n        /* \"#utility.yul\":33413:33432   */\n      swap1\n      pop\n        /* \"#utility.yul\":33036:33438   */\n      swap2\n      swap1\n      pop\n      jump\t// out\n        /* \"#utility.yul\":33444:34411   */\n    tag_280:\n        /* \"#utility.yul\":33826:33829   */\n      0x00\n        /* \"#utility.yul\":33848:33996   */\n      tag_691\n        /* \"#utility.yul\":33992:33995   */\n      dup3\n        /* \"#utility.yul\":33848:33996   */\n      tag_386\n      jump\t// in\n    tag_691:\n        /* \"#utility.yul\":33841:33996   */\n      swap2\n      pop\n        /* \"#utility.yul\":34013:34108   */\n      tag_692\n        /* \"#utility.yul\":34104:34107   */\n      dup3\n        /* \"#utility.yul\":34095:34101   */\n      dup6\n        /* \"#utility.yul\":34013:34108   */\n      tag_389\n      jump\t// in\n    tag_692:\n        /* \"#utility.yul\":34006:34108   */\n      swap2\n      pop\n        /* \"#utility.yul\":34125:34273   */\n      tag_693\n        /* \"#utility.yul\":34269:34272   */\n      dup3\n        /* \"#utility.yul\":34125:34273   */\n      tag_391\n      jump\t// in\n    tag_693:\n        /* \"#utility.yul\":34118:34273   */\n      swap2\n      pop\n        /* \"#utility.yul\":34290:34385   */\n      tag_694\n        /* \"#utility.yul\":34381:34384   */\n      dup3\n        /* \"#utility.yul\":34372:34378   */\n      dup5\n        /* \"#utility.yul\":34290:34385   */\n      tag_389\n      jump\t// in\n    tag_694:\n        /* \"#utility.yul\":34283:34385   */\n      swap2\n      pop\n        /* \"#utility.yul\":34402:34405   */\n      dup2\n        /* \"#utility.yul\":34395:34405   */\n      swap1\n      pop\n        /* \"#utility.yul\":33444:34411   */\n      swap4\n      swap3\n      pop\n      pop\n      pop\n      jump\t// out\n        /* \"#utility.yul\":34417:34519   */\n    tag_392:\n        /* \"#utility.yul\":34458:34464   */\n      0x00\n        /* \"#utility.yul\":34509:34511   */\n      0x1f\n        /* \"#utility.yul\":34505:34512   */\n      not\n        /* \"#utility.yul\":34500:34502   */\n      0x1f\n        /* \"#utility.yul\":34493:34498   */\n      dup4\n        /* \"#utility.yul\":34489:34503   */\n      add\n        /* \"#utility.yul\":34485:34513   */\n      and\n        /* \"#utility.yul\":34475:34513   */\n      swap1\n      pop\n        /* \"#utility.yul\":34417:34519   */\n      swap2\n      swap1\n      pop\n      jump\t// out\n        /* \"#utility.yul\":34525:34902   */\n    tag_393:\n        /* \"#utility.yul\":34613:34616   */\n      0x00\n        /* \"#utility.yul\":34641:34680   */\n      tag_697\n        /* \"#utility.yul\":34674:34679   */\n      dup3\n        /* \"#utility.yul\":34641:34680   */\n      tag_387\n      jump\t// in\n    tag_697:\n        /* \"#utility.yul\":34696:34767   */\n      tag_698\n        /* \"#utility.yul\":34760:34766   */\n      dup2\n        /* \"#utility.yul\":34755:34758   */\n      dup6\n        /* \"#utility.yul\":34696:34767   */\n      tag_346\n      jump\t// in\n    tag_698:\n        /* \"#utility.yul\":34689:34767   */\n      swap4\n      pop\n        /* \"#utility.yul\":34776:34841   */\n      tag_699\n        /* \"#utility.yul\":34834:34840   */\n      dup2\n        /* \"#utility.yul\":34829:34832   */\n      dup6\n        /* \"#utility.yul\":34822:34826   */\n      0x20\n        /* \"#utility.yul\":34815:34820   */\n      dup7\n        /* \"#utility.yul\":34811:34827   */\n      add\n        /* \"#utility.yul\":34776:34841   */\n      tag_388\n      jump\t// in\n    tag_699:\n        /* \"#utility.yul\":34866:34895   */\n      tag_700\n        /* \"#utility.yul\":34888:34894   */\n      dup2\n        /* \"#utility.yul\":34866:34895   */\n      tag_392\n      jump\t// in\n    tag_700:\n        /* \"#utility.yul\":34861:34864   */\n      dup5\n        /* \"#utility.yul\":34857:34896   */\n      add\n        /* \"#utility.yul\":34850:34896   */\n      swap2\n      pop\n        /* \"#utility.yul\":34617:34902   */\n      pop\n        /* \"#utility.yul\":34525:34902   */\n      swap3\n      swap2\n      pop\n      pop\n      jump\t// out\n        /* \"#utility.yul\":34908:35221   */\n    tag_282:\n        /* \"#utility.yul\":35021:35025   */\n      0x00\n        /* \"#utility.yul\":35059:35061   */\n      0x20\n        /* \"#utility.yul\":35048:35057   */\n      dup3\n        /* \"#utility.yul\":35044:35062   */\n      add\n        /* \"#utility.yul\":35036:35062   */\n      swap1\n      pop\n        /* \"#utility.yul\":35108:35117   */\n      dup2\n        /* \"#utility.yul\":35102:35106   */\n      dup2\n        /* \"#utility.yul\":35098:35118   */\n      sub\n        /* \"#utility.yul\":35094:35095   */\n      0x00\n        /* \"#utility.yul\":35083:35092   */\n      dup4\n        /* \"#utility.yul\":35079:35096   */\n      add\n        /* \"#utility.yul\":35072:35119   */\n      mstore\n        /* \"#utility.yul\":35136:35214   */\n      tag_702\n        /* \"#utility.yul\":35209:35213   */\n      dup2\n        /* \"#utility.yul\":35200:35206   */\n      dup5\n        /* \"#utility.yul\":35136:35214   */\n      tag_393\n      jump\t// in\n    tag_702:\n        /* \"#utility.yul\":35128:35214   */\n      swap1\n      pop\n        /* \"#utility.yul\":34908:35221   */\n      swap3\n      swap2\n      pop\n      pop\n      jump\t// out\n        /* \"#utility.yul\":35227:35407   */\n    tag_394:\n        /* \"#utility.yul\":35275:35352   */\n      0x4e487b7100000000000000000000000000000000000000000000000000000000\n        /* \"#utility.yul\":35272:35273   */\n      0x00\n        /* \"#utility.yul\":35265:35353   */\n      mstore\n        /* \"#utility.yul\":35372:35376   */\n      0x11\n        /* \"#utility.yul\":35369:35370   */\n      0x04\n        /* \"#utility.yul\":35362:35377   */\n      mstore\n        /* \"#utility.yul\":35396:35400   */\n      0x24\n        /* \"#utility.yul\":35393:35394   */\n      0x00\n        /* \"#utility.yul\":35386:35401   */\n      revert\n        /* \"#utility.yul\":35413:35823   */\n    tag_287:\n        /* \"#utility.yul\":35453:35460   */\n      0x00\n        /* \"#utility.yul\":35476:35496   */\n      tag_705\n        /* \"#utility.yul\":35494:35495   */\n      dup3\n        /* \"#utility.yul\":35476:35496   */\n      tag_326\n      jump\t// in\n    tag_705:\n        /* \"#utility.yul\":35471:35496   */\n      swap2\n      pop\n        /* \"#utility.yul\":35510:35530   */\n      tag_706\n        /* \"#utility.yul\":35528:35529   */\n      dup4\n        /* \"#utility.yul\":35510:35530   */\n      tag_326\n      jump\t// in\n    tag_706:\n        /* \"#utility.yul\":35505:35530   */\n      swap3\n      pop\n        /* \"#utility.yul\":35565:35566   */\n      dup3\n        /* \"#utility.yul\":35562:35563   */\n      dup3\n        /* \"#utility.yul\":35558:35567   */\n      mul\n        /* \"#utility.yul\":35587:35617   */\n      tag_707\n        /* \"#utility.yul\":35605:35616   */\n      dup2\n        /* \"#utility.yul\":35587:35617   */\n      tag_326\n      jump\t// in\n    tag_707:\n        /* \"#utility.yul\":35576:35617   */\n      swap2\n      pop\n        /* \"#utility.yul\":35766:35767   */\n      dup3\n        /* \"#utility.yul\":35757:35764   */\n      dup3\n        /* \"#utility.yul\":35753:35768   */\n      div\n        /* \"#utility.yul\":35750:35751   */\n      dup5\n        /* \"#utility.yul\":35747:35769   */\n      eq\n        /* \"#utility.yul\":35727:35728   */\n      dup4\n        /* \"#utility.yul\":35720:35729   */\n      iszero\n        /* \"#utility.yul\":35700:35783   */\n      or\n        /* \"#utility.yul\":35677:35816   */\n      tag_708\n      jumpi\n        /* \"#utility.yul\":35796:35814   */\n      tag_709\n      tag_394\n      jump\t// in\n    tag_709:\n        /* \"#utility.yul\":35677:35816   */\n    tag_708:\n        /* \"#utility.yul\":35461:35823   */\n      pop\n        /* \"#utility.yul\":35413:35823   */\n      swap3\n      swap2\n      pop\n      pop\n      jump\t// out\n        /* \"#utility.yul\":35829:36020   */\n    tag_289:\n        /* \"#utility.yul\":35869:35872   */\n      0x00\n        /* \"#utility.yul\":35888:35908   */\n      tag_711\n        /* \"#utility.yul\":35906:35907   */\n      dup3\n        /* \"#utility.yul\":35888:35908   */\n      tag_326\n      jump\t// in\n    tag_711:\n        /* \"#utility.yul\":35883:35908   */\n      swap2\n      pop\n        /* \"#utility.yul\":35922:35942   */\n      tag_712\n        /* \"#utility.yul\":35940:35941   */\n      dup4\n        /* \"#utility.yul\":35922:35942   */\n      tag_326\n      jump\t// in\n    tag_712:\n        /* \"#utility.yul\":35917:35942   */\n      swap3\n      pop\n        /* \"#utility.yul\":35965:35966   */\n      dup3\n        /* \"#utility.yul\":35962:35963   */\n      dup3\n        /* \"#utility.yul\":35958:35967   */\n      add\n        /* \"#utility.yul\":35951:35967   */\n      swap1\n      pop\n        /* \"#utility.yul\":35986:35989   */\n      dup1\n        /* \"#utility.yul\":35983:35984   */\n      dup3\n        /* \"#utility.yul\":35980:35990   */\n      gt\n        /* \"#utility.yul\":35977:36013   */\n      iszero\n      tag_713\n      jumpi\n        /* \"#utility.yul\":35993:36011   */\n      tag_714\n      tag_394\n      jump\t// in\n    tag_714:\n        /* \"#utility.yul\":35977:36013   */\n    tag_713:\n        /* \"#utility.yul\":35829:36020   */\n      swap3\n      swap2\n      pop\n      pop\n      jump\t// out\n        /* \"#utility.yul\":36026:36206   */\n    tag_292:\n        /* \"#utility.yul\":36074:36151   */\n      0x4e487b7100000000000000000000000000000000000000000000000000000000\n        /* \"#utility.yul\":36071:36072   */\n      0x00\n        /* \"#utility.yul\":36064:36152   */\n      mstore\n        /* \"#utility.yul\":36171:36175   */\n      0x41\n        /* \"#utility.yul\":36168:36169   */\n      0x04\n        /* \"#utility.yul\":36161:36176   */\n      mstore\n        /* \"#utility.yul\":36195:36199   */\n      0x24\n        /* \"#utility.yul\":36192:36193   */\n      0x00\n        /* \"#utility.yul\":36185:36200   */\n      revert\n        /* \"#utility.yul\":36212:36383   */\n    tag_308:\n        /* \"#utility.yul\":36251:36254   */\n      0x00\n        /* \"#utility.yul\":36274:36298   */\n      tag_717\n        /* \"#utility.yul\":36292:36297   */\n      dup3\n        /* \"#utility.yul\":36274:36298   */\n      tag_326\n      jump\t// in\n    tag_717:\n        /* \"#utility.yul\":36265:36298   */\n      swap2\n      pop\n        /* \"#utility.yul\":36320:36324   */\n      0x00\n        /* \"#utility.yul\":36313:36318   */\n      dup3\n        /* \"#utility.yul\":36310:36325   */\n      sub\n        /* \"#utility.yul\":36307:36348   */\n      tag_718\n      jumpi\n        /* \"#utility.yul\":36328:36346   */\n      tag_719\n      tag_394\n      jump\t// in\n    tag_719:\n        /* \"#utility.yul\":36307:36348   */\n    tag_718:\n        /* \"#utility.yul\":36375:36376   */\n      0x01\n        /* \"#utility.yul\":36368:36373   */\n      dup3\n        /* \"#utility.yul\":36364:36377   */\n      sub\n        /* \"#utility.yul\":36357:36377   */\n      swap1\n      pop\n        /* \"#utility.yul\":36212:36383   */\n      swap2\n      swap1\n      pop\n      jump\t// out\n        /* \"#utility.yul\":36389:36571   */\n    tag_395:\n        /* \"#utility.yul\":36529:36563   */\n      0x537472696e67733a20686578206c656e67746820696e73756666696369656e74\n        /* \"#utility.yul\":36525:36526   */\n      0x00\n        /* \"#utility.yul\":36517:36523   */\n      dup3\n        /* \"#utility.yul\":36513:36527   */\n      add\n        /* \"#utility.yul\":36506:36564   */\n      mstore\n        /* \"#utility.yul\":36389:36571   */\n      pop\n      jump\t// out\n        /* \"#utility.yul\":36577:36943   */\n    tag_396:\n        /* \"#utility.yul\":36719:36722   */\n      0x00\n        /* \"#utility.yul\":36740:36807   */\n      tag_722\n        /* \"#utility.yul\":36804:36806   */\n      0x20\n        /* \"#utility.yul\":36799:36802   */\n      dup4\n        /* \"#utility.yul\":36740:36807   */\n      tag_346\n      jump\t// in\n    tag_722:\n        /* \"#utility.yul\":36733:36807   */\n      swap2\n      pop\n        /* \"#utility.yul\":36816:36909   */\n      tag_723\n        /* \"#utility.yul\":36905:36908   */\n      dup3\n        /* \"#utility.yul\":36816:36909   */\n      tag_395\n      jump\t// in\n    tag_723:\n        /* \"#utility.yul\":36934:36936   */\n      0x20\n        /* \"#utility.yul\":36929:36932   */\n      dup3\n        /* \"#utility.yul\":36925:36937   */\n      add\n        /* \"#utility.yul\":36918:36937   */\n      swap1\n      pop\n        /* \"#utility.yul\":36577:36943   */\n      swap2\n      swap1\n      pop\n      jump\t// out\n        /* \"#utility.yul\":36949:37368   */\n    tag_311:\n        /* \"#utility.yul\":37115:37119   */\n      0x00\n        /* \"#utility.yul\":37153:37155   */\n      0x20\n        /* \"#utility.yul\":37142:37151   */\n      dup3\n        /* \"#utility.yul\":37138:37156   */\n      add\n        /* \"#utility.yul\":37130:37156   */\n      swap1\n      pop\n        /* \"#utility.yul\":37202:37211   */\n      dup2\n        /* \"#utility.yul\":37196:37200   */\n      dup2\n        /* \"#utility.yul\":37192:37212   */\n      sub\n        /* \"#utility.yul\":37188:37189   */\n      0x00\n        /* \"#utility.yul\":37177:37186   */\n      dup4\n        /* \"#utility.yul\":37173:37190   */\n      add\n        /* \"#utility.yul\":37166:37213   */\n      mstore\n        /* \"#utility.yul\":37230:37361   */\n      tag_725\n        /* \"#utility.yul\":37356:37360   */\n      dup2\n        /* \"#utility.yul\":37230:37361   */\n      tag_396\n      jump\t// in\n    tag_725:\n        /* \"#utility.yul\":37222:37361   */\n      swap1\n      pop\n        /* \"#utility.yul\":36949:37368   */\n      swap2\n      swap1\n      pop\n      jump\t// out\n\n    auxdata: 0xa26469706673582212205943d815dbe1ec7cb165c80c50455a9c069eb5a03dcdaff5c6fbb957b63937e664736f6c634300081a0033\n}\n",
				"bytecode": {
					"linkReferences": {},
					"object": "608060405234801561000f575f80fd5b50604051612d31380380612d31833981810160405281019061003191906102bc565b8160015f6101000a81548173ffffffffffffffffffffffffffffffffffffffff021916908373ffffffffffffffffffffffffffffffffffffffff1602179055508060025f6101000a81548173ffffffffffffffffffffffffffffffffffffffff021916908373ffffffffffffffffffffffffffffffffffffffff1602179055506100c35f801b336100fa60201b60201c565b6100f37fa49807205ce4d355092ef5a8a18f56e8913cf4a201fbe287825b095693c21775336100fa60201b60201c565b50506102fa565b61010a828261010e60201b60201c565b5050565b61011e82826101f460201b60201c565b6101f05760015f808481526020019081526020015f205f015f8373ffffffffffffffffffffffffffffffffffffffff1673ffffffffffffffffffffffffffffffffffffffff1681526020019081526020015f205f6101000a81548160ff02191690831515021790555061019561025760201b60201c565b73ffffffffffffffffffffffffffffffffffffffff168173ffffffffffffffffffffffffffffffffffffffff16837f2f8788117e7eff1d82e926ec794901d17c78024a50270940304540a733656f0d60405160405180910390a45b5050565b5f805f8481526020019081526020015f205f015f8373ffffffffffffffffffffffffffffffffffffffff1673ffffffffffffffffffffffffffffffffffffffff1681526020019081526020015f205f9054906101000a900460ff16905092915050565b5f33905090565b5f80fd5b5f73ffffffffffffffffffffffffffffffffffffffff82169050919050565b5f61028b82610262565b9050919050565b61029b81610281565b81146102a5575f80fd5b50565b5f815190506102b681610292565b92915050565b5f80604083850312156102d2576102d161025e565b5b5f6102df858286016102a8565b92505060206102f0858286016102a8565b9150509250929050565b612a2a806103075f395ff3fe608060405234801561000f575f80fd5b506004361061014b575f3560e01c80639a19c7b0116100c1578063c634b78e1161007a578063c634b78e146103d5578063ca1c996f146103f1578063cbc7854e1461040d578063d547741f14610429578063dd0c808214610445578063dd7d2b9f146104635761014b565b80639a19c7b0146102ef578063a217fddf1461030b578063ae99aa3c14610329578063aea0873414610359578063b5b0e48a14610375578063bb10ab0f146103a55761014b565b8063355b9d3f11610113578063355b9d3f1461021957806336568abe1461024d578063406a378a1461026957806375b238fc146102855780638525ea16146102a357806391d14854146102bf5761014b565b806301ffc9a71461014f5780631b72fa3a1461017f5780631fd3c85b1461019d578063248a9ca3146101cd5780632f2ff15d146101fd575b5f80fd5b610169600480360381019061016491906118de565b61047f565b6040516101769190611923565b60405180910390f35b6101876104f8565b60405161019491906119b6565b60405180910390f35b6101b760048036038101906101b29190611a02565b61051d565b6040516101c49190611a3c565b60405180910390f35b6101e760048036038101906101e29190611a88565b61053d565b6040516101f49190611ac2565b60405180910390f35b61021760048036038101906102129190611b16565b610559565b005b610233600480360381019061022e9190611b54565b61057a565b604051610244959493929190611ba4565b60405180910390f35b61026760048036038101906102629190611b16565b6105ce565b005b610283600480360381019061027e9190611cab565b610651565b005b61028d610825565b60405161029a9190611ac2565b60405180910390f35b6102bd60048036038101906102b89190611d29565b610849565b005b6102d960048036038101906102d49190611b16565b6108b4565b6040516102e69190611923565b60405180910390f35b61030960048036038101906103049190611d8d565b610917565b005b610313610951565b6040516103209190611ac2565b60405180910390f35b610343600480360381019061033e9190611a02565b610957565b6040516103509190611de1565b60405180910390f35b610373600480360381019061036e9190611dfa565b6109e0565b005b61038f600480360381019061038a9190611b54565b610b78565b60405161039c9190611ebf565b60405180910390f35b6103bf60048036038101906103ba9190611a02565b610c82565b6040516103cc9190611a3c565b60405180910390f35b6103ef60048036038101906103ea9190611d8d565b610c9c565b005b61040b60048036038101906104069190611d29565b610cd6565b005b61042760048036038101906104229190611ed8565b6110d5565b005b610443600480360381019061043e9190611b16565b611184565b005b61044d6111a5565b60405161045a91906119b6565b60405180910390f35b61047d60048036038101906104789190611d29565b6111ca565b005b5f7f7965db0b000000000000000000000000000000000000000000000000000000007bffffffffffffffffffffffffffffffffffffffffffffffffffffffff1916827bffffffffffffffffffffffffffffffffffffffffffffffffffffffff191614806104f157506104f082611325565b5b9050919050565b60025f9054906101000a900473ffffffffffffffffffffffffffffffffffffffff1681565b6004818154811061052c575f80fd5b905f5260205f20015f915090505481565b5f805f8381526020019081526020015f20600101549050919050565b6105628261053d565b61056b8161138e565b61057583836113a2565b505050565b6005602052825f5260405f20602052815f5260405f20602052805f5260405f205f925092505050805f015490806001015490806002015490806003015490806004015f9054906101000a900460ff16905085565b6105d661147c565b73ffffffffffffffffffffffffffffffffffffffff168173ffffffffffffffffffffffffffffffffffffffff1614610643576040517f08c379a000000000000000000000000000000000000000000000000000000000815260040161063a90611f96565b60405180910390fd5b61064d8282611483565b5050565b7fa49807205ce4d355092ef5a8a18f56e8913cf4a201fbe287825b095693c2177561067b8161138e565b8282905085859050146106c3576040517f08c379a00000000000000000000000000000000000000000000000000000000081526004016106ba90612024565b60405180910390fd5b5f5b858590508110156107e05760025f9054906101000a900473ffffffffffffffffffffffffffffffffffffffff1673ffffffffffffffffffffffffffffffffffffffff166340c10f198787848181106107205761071f612042565b5b90506020020160208101906107359190611d8d565b86868581811061074857610747612042565b5b905060200201356040518363ffffffff1660e01b815260040161076c92919061207e565b5f604051808303815f87803b158015610783575f80fd5b505af1925050508015610794575060015b6107d3576040517f08c379a00000000000000000000000000000000000000000000000000000000081526004016107ca906120ef565b60405180910390fd5b80806001019150506106c5565b507ffa3b7284ecb3a03e8f238b69b61f5645294c15019ea509bd4aaee604d60fdc34858585856040516108169493929190612241565b60405180910390a15050505050565b7fa49807205ce4d355092ef5a8a18f56e8913cf4a201fbe287825b095693c2177581565b7fa49807205ce4d355092ef5a8a18f56e8913cf4a201fbe287825b095693c217756108738161138e565b8284867f056253fe63ca8b57ba2974cd5dd75f8d5f4f4bc99e0798022a4773599cbfc362856040516108a59190611a3c565b60405180910390a45050505050565b5f805f8481526020019081526020015f205f015f8373ffffffffffffffffffffffffffffffffffffffff1673ffffffffffffffffffffffffffffffffffffffff1681526020019081526020015f205f9054906101000a900460ff16905092915050565b5f801b6109238161138e565b61094d7fa49807205ce4d355092ef5a8a18f56e8913cf4a201fbe287825b095693c2177583611184565b5050565b5f801b81565b61095f611843565b5f60035f8481526020019081526020015f205f0154116109b4576040517f08c379a00000000000000000000000000000000000000000000000000000000081526004016109ab906122c4565b60405180910390fd5b60035f8381526020019081526020015f206040518060200160405290815f820154815250509050919050565b7fa49807205ce4d355092ef5a8a18f56e8913cf4a201fbe287825b095693c21775610a0a8161138e565b5f60035f8681526020019081526020015f205f015414610a5f576040517f08c379a0000000000000000000000000000000000000000000000000000000008152600401610a569061232c565b60405180910390fd5b60405180602001604052808581525060035f8681526020019081526020015f205f820151815f0155905050600484908060018154018082558091505060019003905f5260205f20015f909190919091505560015f9054906101000a900473ffffffffffffffffffffffffffffffffffffffff1673ffffffffffffffffffffffffffffffffffffffff166340c10f1984846040518363ffffffff1660e01b8152600401610b0c92919061207e565b5f604051808303815f87803b158015610b23575f80fd5b505af1158015610b35573d5f803e3d5ffd5b505050507f5a92c2530f207992057b9c3e544108ffce3beda4a63719f316967c49bf6159d28483604051610b6a92919061234a565b60405180910390a150505050565b610b80611855565b60055f8581526020019081526020015f205f8481526020019081526020015f205f8381526020019081526020015f206004015f9054906101000a900460ff16610bfe576040517f08c379a0000000000000000000000000000000000000000000000000000000008152600401610bf5906123bb565b60405180910390fd5b60055f8581526020019081526020015f205f8481526020019081526020015f205f8381526020019081526020015f206040518060a00160405290815f8201548152602001600182015481526020016002820154815260200160038201548152602001600482015f9054906101000a900460ff16151515158152505090509392505050565b6003602052805f5260405f205f91509050805f0154905081565b5f801b610ca88161138e565b610cd27fa49807205ce4d355092ef5a8a18f56e8913cf4a201fbe287825b095693c2177583610559565b5050565b60055f8581526020019081526020015f205f8481526020019081526020015f205f8381526020019081526020015f206004015f9054906101000a900460ff1615610d55576040517f08c379a0000000000000000000000000000000000000000000000000000000008152600401610d4c90612449565b60405180910390fd5b5f60015f9054906101000a900473ffffffffffffffffffffffffffffffffffffffff1673ffffffffffffffffffffffffffffffffffffffff1663dd62ed3e33306040518363ffffffff1660e01b8152600401610db2929190612467565b602060405180830381865afa158015610dcd573d5f803e3d5ffd5b505050506040513d601f19601f82011682018060405250810190610df191906124a2565b905081811015610e36576040517f08c379a0000000000000000000000000000000000000000000000000000000008152600401610e2d90612517565b60405180910390fd5b5f60015f9054906101000a900473ffffffffffffffffffffffffffffffffffffffff1673ffffffffffffffffffffffffffffffffffffffff166370a08231336040518263ffffffff1660e01b8152600401610e919190612535565b602060405180830381865afa158015610eac573d5f803e3d5ffd5b505050506040513d601f19601f82011682018060405250810190610ed091906124a2565b905082811015610f15576040517f08c379a0000000000000000000000000000000000000000000000000000000008152600401610f0c90612598565b60405180910390fd5b60015f9054906101000a900473ffffffffffffffffffffffffffffffffffffffff1673ffffffffffffffffffffffffffffffffffffffff166323b872dd3330866040518463ffffffff1660e01b8152600401610f73939291906125b6565b6020604051808303815f875af1158015610f8f573d5f803e3d5ffd5b505050506040513d601f19601f82011682018060405250810190610fb39190612615565b610ff2576040517f08c379a0000000000000000000000000000000000000000000000000000000008152600401610fe99061268a565b60405180910390fd5b6040518060a001604052808681526020018581526020018481526020015f81526020016001151581525060055f8881526020019081526020015f205f8781526020019081526020015f205f8681526020019081526020015f205f820151815f01556020820151816001015560408201518160020155606082015181600301556080820151816004015f6101000a81548160ff0219169083151502179055509050508385877f12b60ec834dbe4f634b415a94d1638892226674971f72a0fb5e7893d8379c274866040516110c59190611a3c565b60405180910390a4505050505050565b7fa49807205ce4d355092ef5a8a18f56e8913cf4a201fbe287825b095693c217756110ff8161138e565b8260015f6101000a81548173ffffffffffffffffffffffffffffffffffffffff021916908373ffffffffffffffffffffffffffffffffffffffff1602179055508160025f6101000a81548173ffffffffffffffffffffffffffffffffffffffff021916908373ffffffffffffffffffffffffffffffffffffffff160217905550505050565b61118d8261053d565b6111968161138e565b6111a08383611483565b505050565b60015f9054906101000a900473ffffffffffffffffffffffffffffffffffffffff1681565b7fa49807205ce4d355092ef5a8a18f56e8913cf4a201fbe287825b095693c217756111f48161138e565b60055f8681526020019081526020015f205f8581526020019081526020015f205f8481526020019081526020015f206004015f9054906101000a900460ff16611272576040517f08c379a0000000000000000000000000000000000000000000000000000000008152600401611269906126f2565b60405180910390fd5b60055f8681526020019081526020015f205f8581526020019081526020015f205f8481526020019081526020015f20600301548211156112e4578160055f8781526020019081526020015f205f8681526020019081526020015f205f8581526020019081526020015f20600301819055505b8284867f2bbc9ad1871f4b99168aa3febe254b9069558ff96ed7746d1677869afa38243f856040516113169190611a3c565b60405180910390a45050505050565b5f7f01ffc9a7000000000000000000000000000000000000000000000000000000007bffffffffffffffffffffffffffffffffffffffffffffffffffffffff1916827bffffffffffffffffffffffffffffffffffffffffffffffffffffffff1916149050919050565b61139f8161139a61147c565b61155d565b50565b6113ac82826108b4565b6114785760015f808481526020019081526020015f205f015f8373ffffffffffffffffffffffffffffffffffffffff1673ffffffffffffffffffffffffffffffffffffffff1681526020019081526020015f205f6101000a81548160ff02191690831515021790555061141d61147c565b73ffffffffffffffffffffffffffffffffffffffff168173ffffffffffffffffffffffffffffffffffffffff16837f2f8788117e7eff1d82e926ec794901d17c78024a50270940304540a733656f0d60405160405180910390a45b5050565b5f33905090565b61148d82826108b4565b15611559575f805f8481526020019081526020015f205f015f8373ffffffffffffffffffffffffffffffffffffffff1673ffffffffffffffffffffffffffffffffffffffff1681526020019081526020015f205f6101000a81548160ff0219169083151502179055506114fe61147c565b73ffffffffffffffffffffffffffffffffffffffff168173ffffffffffffffffffffffffffffffffffffffff16837ff6391f5c32d9c69d2a47ea670b442974b53935d1edc7fd64eb21e047a839171b60405160405180910390a45b5050565b61156782826108b4565b6115dd57611574816115e1565b611581835f1c602061160e565b6040516020016115929291906127f6565b6040516020818303038152906040526040517f08c379a00000000000000000000000000000000000000000000000000000000081526004016115d49190612877565b60405180910390fd5b5050565b60606116078273ffffffffffffffffffffffffffffffffffffffff16601460ff1661160e565b9050919050565b60605f600283600261162091906128c4565b61162a9190612905565b67ffffffffffffffff81111561164357611642612938565b5b6040519080825280601f01601f1916602001820160405280156116755781602001600182028036833780820191505090505b5090507f3000000000000000000000000000000000000000000000000000000000000000815f815181106116ac576116ab612042565b5b60200101907effffffffffffffffffffffffffffffffffffffffffffffffffffffffffffff191690815f1a9053507f78000000000000000000000000000000000000000000000000000000000000008160018151811061170f5761170e612042565b5b60200101907effffffffffffffffffffffffffffffffffffffffffffffffffffffffffffff191690815f1a9053505f600184600261174d91906128c4565b6117579190612905565b90505b60018111156117f6577f3031323334353637383961626364656600000000000000000000000000000000600f86166010811061179957611798612042565b5b1a60f81b8282815181106117b0576117af612042565b5b60200101907effffffffffffffffffffffffffffffffffffffffffffffffffffffffffffff191690815f1a905350600485901c9450806117ef90612965565b905061175a565b505f8414611839576040517f08c379a0000000000000000000000000000000000000000000000000000000008152600401611830906129d6565b60405180910390fd5b8091505092915050565b60405180602001604052805f81525090565b6040518060a001604052805f81526020015f81526020015f81526020015f81526020015f151581525090565b5f80fd5b5f80fd5b5f7fffffffff0000000000000000000000000000000000000000000000000000000082169050919050565b6118bd81611889565b81146118c7575f80fd5b50565b5f813590506118d8816118b4565b92915050565b5f602082840312156118f3576118f2611881565b5b5f611900848285016118ca565b91505092915050565b5f8115159050919050565b61191d81611909565b82525050565b5f6020820190506119365f830184611914565b92915050565b5f73ffffffffffffffffffffffffffffffffffffffff82169050919050565b5f819050919050565b5f61197e6119796119748461193c565b61195b565b61193c565b9050919050565b5f61198f82611964565b9050919050565b5f6119a082611985565b9050919050565b6119b081611996565b82525050565b5f6020820190506119c95f8301846119a7565b92915050565b5f819050919050565b6119e1816119cf565b81146119eb575f80fd5b50565b5f813590506119fc816119d8565b92915050565b5f60208284031215611a1757611a16611881565b5b5f611a24848285016119ee565b91505092915050565b611a36816119cf565b82525050565b5f602082019050611a4f5f830184611a2d565b92915050565b5f819050919050565b611a6781611a55565b8114611a71575f80fd5b50565b5f81359050611a8281611a5e565b92915050565b5f60208284031215611a9d57611a9c611881565b5b5f611aaa84828501611a74565b91505092915050565b611abc81611a55565b82525050565b5f602082019050611ad55f830184611ab3565b92915050565b5f611ae58261193c565b9050919050565b611af581611adb565b8114611aff575f80fd5b50565b5f81359050611b1081611aec565b92915050565b5f8060408385031215611b2c57611b2b611881565b5b5f611b3985828601611a74565b9250506020611b4a85828601611b02565b9150509250929050565b5f805f60608486031215611b6b57611b6a611881565b5b5f611b78868287016119ee565b9350506020611b89868287016119ee565b9250506040611b9a868287016119ee565b9150509250925092565b5f60a082019050611bb75f830188611a2d565b611bc46020830187611a2d565b611bd16040830186611a2d565b611bde6060830185611a2d565b611beb6080830184611914565b9695505050505050565b5f80fd5b5f80fd5b5f80fd5b5f8083601f840112611c1657611c15611bf5565b5b8235905067ffffffffffffffff811115611c3357611c32611bf9565b5b602083019150836020820283011115611c4f57611c4e611bfd565b5b9250929050565b5f8083601f840112611c6b57611c6a611bf5565b5b8235905067ffffffffffffffff811115611c8857611c87611bf9565b5b602083019150836020820283011115611ca457611ca3611bfd565b5b9250929050565b5f805f8060408587031215611cc357611cc2611881565b5b5f85013567ffffffffffffffff811115611ce057611cdf611885565b5b611cec87828801611c01565b9450945050602085013567ffffffffffffffff811115611d0f57611d0e611885565b5b611d1b87828801611c56565b925092505092959194509250565b5f805f8060808587031215611d4157611d40611881565b5b5f611d4e878288016119ee565b9450506020611d5f878288016119ee565b9350506040611d70878288016119ee565b9250506060611d81878288016119ee565b91505092959194509250565b5f60208284031215611da257611da1611881565b5b5f611daf84828501611b02565b91505092915050565b611dc1816119cf565b82525050565b602082015f820151611ddb5f850182611db8565b50505050565b5f602082019050611df45f830184611dc7565b92915050565b5f805f60608486031215611e1157611e10611881565b5b5f611e1e868287016119ee565b9350506020611e2f86828701611b02565b9250506040611e40868287016119ee565b9150509250925092565b611e5381611909565b82525050565b60a082015f820151611e6d5f850182611db8565b506020820151611e806020850182611db8565b506040820151611e936040850182611db8565b506060820151611ea66060850182611db8565b506080820151611eb96080850182611e4a565b50505050565b5f60a082019050611ed25f830184611e59565b92915050565b5f8060408385031215611eee57611eed611881565b5b5f611efb85828601611b02565b9250506020611f0c85828601611b02565b9150509250929050565b5f82825260208201905092915050565b7f416363657373436f6e74726f6c3a2063616e206f6e6c792072656e6f756e63655f8201527f20726f6c657320666f722073656c660000000000000000000000000000000000602082015250565b5f611f80602f83611f16565b9150611f8b82611f26565b604082019050919050565b5f6020820190508181035f830152611fad81611f74565b9050919050565b7f526563697069656e747320616e6420746f6b656e20616d6f756e7473206c656e5f8201527f677468206d69736d617463680000000000000000000000000000000000000000602082015250565b5f61200e602c83611f16565b915061201982611fb4565b604082019050919050565b5f6020820190508181035f83015261203b81612002565b9050919050565b7f4e487b71000000000000000000000000000000000000000000000000000000005f52603260045260245ffd5b61207881611adb565b82525050565b5f6040820190506120915f83018561206f565b61209e6020830184611a2d565b9392505050565b7f4d696e74696e67206661696c656420666f7220726563697069656e74000000005f82015250565b5f6120d9601c83611f16565b91506120e4826120a5565b602082019050919050565b5f6020820190508181035f830152612106816120cd565b9050919050565b5f82825260208201905092915050565b5f819050919050565b61212f81611adb565b82525050565b5f6121408383612126565b60208301905092915050565b5f61215a6020840184611b02565b905092915050565b5f602082019050919050565b5f612179838561210d565b93506121848261211d565b805f5b858110156121bc57612199828461214c565b6121a38882612135565b97506121ae83612162565b925050600181019050612187565b5085925050509392505050565b5f82825260208201905092915050565b5f80fd5b82818337505050565b5f6121f183856121c9565b93507f07ffffffffffffffffffffffffffffffffffffffffffffffffffffffffffffff831115612224576122236121d9565b5b6020830292506122358385846121dd565b82840190509392505050565b5f6040820190508181035f83015261225a81868861216e565b9050818103602083015261226f8184866121e6565b905095945050505050565b7f4d656d62657220646f6573206e6f7420657869737400000000000000000000005f82015250565b5f6122ae601583611f16565b91506122b98261227a565b602082019050919050565b5f6020820190508181035f8301526122db816122a2565b9050919050565b7f4d656d62657220616c72656164792072656769737465726564000000000000005f82015250565b5f612316601983611f16565b9150612321826122e2565b602082019050919050565b5f6020820190508181035f8301526123438161230a565b9050919050565b5f60408201905061235d5f830185611a2d565b61236a6020830184611a2d565b9392505050565b7f4368616c6c656e67652073636f726520646f6573206e6f7420657869737400005f82015250565b5f6123a5601e83611f16565b91506123b082612371565b602082019050919050565b5f6020820190508181035f8301526123d281612399565b9050919050565b7f4368616c6c656e676520616c72656164792065786973747320666f72207468695f8201527f73206d656d6265722c20646174652c20616e642067616d650000000000000000602082015250565b5f612433603883611f16565b915061243e826123d9565b604082019050919050565b5f6020820190508181035f83015261246081612427565b9050919050565b5f60408201905061247a5f83018561206f565b612487602083018461206f565b9392505050565b5f8151905061249c816119d8565b92915050565b5f602082840312156124b7576124b6611881565b5b5f6124c48482850161248e565b91505092915050565b7f496e73756666696369656e7420746f6b656e20616c6c6f77616e6365000000005f82015250565b5f612501601c83611f16565b915061250c826124cd565b602082019050919050565b5f6020820190508181035f83015261252e816124f5565b9050919050565b5f6020820190506125485f83018461206f565b92915050565b7f496e73756666696369656e7420746f6b656e2062616c616e63650000000000005f82015250565b5f612582601a83611f16565b915061258d8261254e565b602082019050919050565b5f6020820190508181035f8301526125af81612576565b9050919050565b5f6060820190506125c95f83018661206f565b6125d6602083018561206f565b6125e36040830184611a2d565b949350505050565b6125f481611909565b81146125fe575f80fd5b50565b5f8151905061260f816125eb565b92915050565b5f6020828403121561262a57612629611881565b5b5f61263784828501612601565b91505092915050565b7f546f6b656e207472616e73666572206661696c656400000000000000000000005f82015250565b5f612674601583611f16565b915061267f82612640565b602082019050919050565b5f6020820190508181035f8301526126a181612668565b9050919050565b7f4368616c6c656e676520646f6573206e6f7420657869737400000000000000005f82015250565b5f6126dc601883611f16565b91506126e7826126a8565b602082019050919050565b5f6020820190508181035f830152612709816126d0565b9050919050565b5f81905092915050565b7f416363657373436f6e74726f6c3a206163636f756e74200000000000000000005f82015250565b5f61274e601783612710565b91506127598261271a565b601782019050919050565b5f81519050919050565b8281835e5f83830152505050565b5f61278682612764565b6127908185612710565b93506127a081856020860161276e565b80840191505092915050565b7f206973206d697373696e6720726f6c65200000000000000000000000000000005f82015250565b5f6127e0601183612710565b91506127eb826127ac565b601182019050919050565b5f61280082612742565b915061280c828561277c565b9150612817826127d4565b9150612823828461277c565b91508190509392505050565b5f601f19601f8301169050919050565b5f61284982612764565b6128538185611f16565b935061286381856020860161276e565b61286c8161282f565b840191505092915050565b5f6020820190508181035f83015261288f818461283f565b905092915050565b7f4e487b71000000000000000000000000000000000000000000000000000000005f52601160045260245ffd5b5f6128ce826119cf565b91506128d9836119cf565b92508282026128e7816119cf565b915082820484148315176128fe576128fd612897565b5b5092915050565b5f61290f826119cf565b915061291a836119cf565b925082820190508082111561293257612931612897565b5b92915050565b7f4e487b71000000000000000000000000000000000000000000000000000000005f52604160045260245ffd5b5f61296f826119cf565b91505f820361298157612980612897565b5b600182039050919050565b7f537472696e67733a20686578206c656e67746820696e73756666696369656e745f82015250565b5f6129c0602083611f16565b91506129cb8261298c565b602082019050919050565b5f6020820190508181035f8301526129ed816129b4565b905091905056fea26469706673582212205943d815dbe1ec7cb165c80c50455a9c069eb5a03dcdaff5c6fbb957b63937e664736f6c634300081a0033",
					"opcodes": "PUSH1 0x80 PUSH1 0x40 MSTORE CALLVALUE DUP1 ISZERO PUSH2 0xF JUMPI PUSH0 DUP1 REVERT JUMPDEST POP PUSH1 0x40 MLOAD PUSH2 0x2D31 CODESIZE SUB DUP1 PUSH2 0x2D31 DUP4 CODECOPY DUP2 DUP2 ADD PUSH1 0x40 MSTORE DUP2 ADD SWAP1 PUSH2 0x31 SWAP2 SWAP1 PUSH2 0x2BC JUMP JUMPDEST DUP2 PUSH1 0x1 PUSH0 PUSH2 0x100 EXP DUP2 SLOAD DUP2 PUSH20 0xFFFFFFFFFFFFFFFFFFFFFFFFFFFFFFFFFFFFFFFF MUL NOT AND SWAP1 DUP4 PUSH20 0xFFFFFFFFFFFFFFFFFFFFFFFFFFFFFFFFFFFFFFFF AND MUL OR SWAP1 SSTORE POP DUP1 PUSH1 0x2 PUSH0 PUSH2 0x100 EXP DUP2 SLOAD DUP2 PUSH20 0xFFFFFFFFFFFFFFFFFFFFFFFFFFFFFFFFFFFFFFFF MUL NOT AND SWAP1 DUP4 PUSH20 0xFFFFFFFFFFFFFFFFFFFFFFFFFFFFFFFFFFFFFFFF AND MUL OR SWAP1 SSTORE POP PUSH2 0xC3 PUSH0 DUP1 SHL CALLER PUSH2 0xFA PUSH1 0x20 SHL PUSH1 0x20 SHR JUMP JUMPDEST PUSH2 0xF3 PUSH32 0xA49807205CE4D355092EF5A8A18F56E8913CF4A201FBE287825B095693C21775 CALLER PUSH2 0xFA PUSH1 0x20 SHL PUSH1 0x20 SHR JUMP JUMPDEST POP POP PUSH2 0x2FA JUMP JUMPDEST PUSH2 0x10A DUP3 DUP3 PUSH2 0x10E PUSH1 0x20 SHL PUSH1 0x20 SHR JUMP JUMPDEST POP POP JUMP JUMPDEST PUSH2 0x11E DUP3 DUP3 PUSH2 0x1F4 PUSH1 0x20 SHL PUSH1 0x20 SHR JUMP JUMPDEST PUSH2 0x1F0 JUMPI PUSH1 0x1 PUSH0 DUP1 DUP5 DUP2 MSTORE PUSH1 0x20 ADD SWAP1 DUP2 MSTORE PUSH1 0x20 ADD PUSH0 KECCAK256 PUSH0 ADD PUSH0 DUP4 PUSH20 0xFFFFFFFFFFFFFFFFFFFFFFFFFFFFFFFFFFFFFFFF AND PUSH20 0xFFFFFFFFFFFFFFFFFFFFFFFFFFFFFFFFFFFFFFFF AND DUP2 MSTORE PUSH1 0x20 ADD SWAP1 DUP2 MSTORE PUSH1 0x20 ADD PUSH0 KECCAK256 PUSH0 PUSH2 0x100 EXP DUP2 SLOAD DUP2 PUSH1 0xFF MUL NOT AND SWAP1 DUP4 ISZERO ISZERO MUL OR SWAP1 SSTORE POP PUSH2 0x195 PUSH2 0x257 PUSH1 0x20 SHL PUSH1 0x20 SHR JUMP JUMPDEST PUSH20 0xFFFFFFFFFFFFFFFFFFFFFFFFFFFFFFFFFFFFFFFF AND DUP2 PUSH20 0xFFFFFFFFFFFFFFFFFFFFFFFFFFFFFFFFFFFFFFFF AND DUP4 PUSH32 0x2F8788117E7EFF1D82E926EC794901D17C78024A50270940304540A733656F0D PUSH1 0x40 MLOAD PUSH1 0x40 MLOAD DUP1 SWAP2 SUB SWAP1 LOG4 JUMPDEST POP POP JUMP JUMPDEST PUSH0 DUP1 PUSH0 DUP5 DUP2 MSTORE PUSH1 0x20 ADD SWAP1 DUP2 MSTORE PUSH1 0x20 ADD PUSH0 KECCAK256 PUSH0 ADD PUSH0 DUP4 PUSH20 0xFFFFFFFFFFFFFFFFFFFFFFFFFFFFFFFFFFFFFFFF AND PUSH20 0xFFFFFFFFFFFFFFFFFFFFFFFFFFFFFFFFFFFFFFFF AND DUP2 MSTORE PUSH1 0x20 ADD SWAP1 DUP2 MSTORE PUSH1 0x20 ADD PUSH0 KECCAK256 PUSH0 SWAP1 SLOAD SWAP1 PUSH2 0x100 EXP SWAP1 DIV PUSH1 0xFF AND SWAP1 POP SWAP3 SWAP2 POP POP JUMP JUMPDEST PUSH0 CALLER SWAP1 POP SWAP1 JUMP JUMPDEST PUSH0 DUP1 REVERT JUMPDEST PUSH0 PUSH20 0xFFFFFFFFFFFFFFFFFFFFFFFFFFFFFFFFFFFFFFFF DUP3 AND SWAP1 POP SWAP2 SWAP1 POP JUMP JUMPDEST PUSH0 PUSH2 0x28B DUP3 PUSH2 0x262 JUMP JUMPDEST SWAP1 POP SWAP2 SWAP1 POP JUMP JUMPDEST PUSH2 0x29B DUP2 PUSH2 0x281 JUMP JUMPDEST DUP2 EQ PUSH2 0x2A5 JUMPI PUSH0 DUP1 REVERT JUMPDEST POP JUMP JUMPDEST PUSH0 DUP2 MLOAD SWAP1 POP PUSH2 0x2B6 DUP2 PUSH2 0x292 JUMP JUMPDEST SWAP3 SWAP2 POP POP JUMP JUMPDEST PUSH0 DUP1 PUSH1 0x40 DUP4 DUP6 SUB SLT ISZERO PUSH2 0x2D2 JUMPI PUSH2 0x2D1 PUSH2 0x25E JUMP JUMPDEST JUMPDEST PUSH0 PUSH2 0x2DF DUP6 DUP3 DUP7 ADD PUSH2 0x2A8 JUMP JUMPDEST SWAP3 POP POP PUSH1 0x20 PUSH2 0x2F0 DUP6 DUP3 DUP7 ADD PUSH2 0x2A8 JUMP JUMPDEST SWAP2 POP POP SWAP3 POP SWAP3 SWAP1 POP JUMP JUMPDEST PUSH2 0x2A2A DUP1 PUSH2 0x307 PUSH0 CODECOPY PUSH0 RETURN INVALID PUSH1 0x80 PUSH1 0x40 MSTORE CALLVALUE DUP1 ISZERO PUSH2 0xF JUMPI PUSH0 DUP1 REVERT JUMPDEST POP PUSH1 0x4 CALLDATASIZE LT PUSH2 0x14B JUMPI PUSH0 CALLDATALOAD PUSH1 0xE0 SHR DUP1 PUSH4 0x9A19C7B0 GT PUSH2 0xC1 JUMPI DUP1 PUSH4 0xC634B78E GT PUSH2 0x7A JUMPI DUP1 PUSH4 0xC634B78E EQ PUSH2 0x3D5 JUMPI DUP1 PUSH4 0xCA1C996F EQ PUSH2 0x3F1 JUMPI DUP1 PUSH4 0xCBC7854E EQ PUSH2 0x40D JUMPI DUP1 PUSH4 0xD547741F EQ PUSH2 0x429 JUMPI DUP1 PUSH4 0xDD0C8082 EQ PUSH2 0x445 JUMPI DUP1 PUSH4 0xDD7D2B9F EQ PUSH2 0x463 JUMPI PUSH2 0x14B JUMP JUMPDEST DUP1 PUSH4 0x9A19C7B0 EQ PUSH2 0x2EF JUMPI DUP1 PUSH4 0xA217FDDF EQ PUSH2 0x30B JUMPI DUP1 PUSH4 0xAE99AA3C EQ PUSH2 0x329 JUMPI DUP1 PUSH4 0xAEA08734 EQ PUSH2 0x359 JUMPI DUP1 PUSH4 0xB5B0E48A EQ PUSH2 0x375 JUMPI DUP1 PUSH4 0xBB10AB0F EQ PUSH2 0x3A5 JUMPI PUSH2 0x14B JUMP JUMPDEST DUP1 PUSH4 0x355B9D3F GT PUSH2 0x113 JUMPI DUP1 PUSH4 0x355B9D3F EQ PUSH2 0x219 JUMPI DUP1 PUSH4 0x36568ABE EQ PUSH2 0x24D JUMPI DUP1 PUSH4 0x406A378A EQ PUSH2 0x269 JUMPI DUP1 PUSH4 0x75B238FC EQ PUSH2 0x285 JUMPI DUP1 PUSH4 0x8525EA16 EQ PUSH2 0x2A3 JUMPI DUP1 PUSH4 0x91D14854 EQ PUSH2 0x2BF JUMPI PUSH2 0x14B JUMP JUMPDEST DUP1 PUSH4 0x1FFC9A7 EQ PUSH2 0x14F JUMPI DUP1 PUSH4 0x1B72FA3A EQ PUSH2 0x17F JUMPI DUP1 PUSH4 0x1FD3C85B EQ PUSH2 0x19D JUMPI DUP1 PUSH4 0x248A9CA3 EQ PUSH2 0x1CD JUMPI DUP1 PUSH4 0x2F2FF15D EQ PUSH2 0x1FD JUMPI JUMPDEST PUSH0 DUP1 REVERT JUMPDEST PUSH2 0x169 PUSH1 0x4 DUP1 CALLDATASIZE SUB DUP2 ADD SWAP1 PUSH2 0x164 SWAP2 SWAP1 PUSH2 0x18DE JUMP JUMPDEST PUSH2 0x47F JUMP JUMPDEST PUSH1 0x40 MLOAD PUSH2 0x176 SWAP2 SWAP1 PUSH2 0x1923 JUMP JUMPDEST PUSH1 0x40 MLOAD DUP1 SWAP2 SUB SWAP1 RETURN JUMPDEST PUSH2 0x187 PUSH2 0x4F8 JUMP JUMPDEST PUSH1 0x40 MLOAD PUSH2 0x194 SWAP2 SWAP1 PUSH2 0x19B6 JUMP JUMPDEST PUSH1 0x40 MLOAD DUP1 SWAP2 SUB SWAP1 RETURN JUMPDEST PUSH2 0x1B7 PUSH1 0x4 DUP1 CALLDATASIZE SUB DUP2 ADD SWAP1 PUSH2 0x1B2 SWAP2 SWAP1 PUSH2 0x1A02 JUMP JUMPDEST PUSH2 0x51D JUMP JUMPDEST PUSH1 0x40 MLOAD PUSH2 0x1C4 SWAP2 SWAP1 PUSH2 0x1A3C JUMP JUMPDEST PUSH1 0x40 MLOAD DUP1 SWAP2 SUB SWAP1 RETURN JUMPDEST PUSH2 0x1E7 PUSH1 0x4 DUP1 CALLDATASIZE SUB DUP2 ADD SWAP1 PUSH2 0x1E2 SWAP2 SWAP1 PUSH2 0x1A88 JUMP JUMPDEST PUSH2 0x53D JUMP JUMPDEST PUSH1 0x40 MLOAD PUSH2 0x1F4 SWAP2 SWAP1 PUSH2 0x1AC2 JUMP JUMPDEST PUSH1 0x40 MLOAD DUP1 SWAP2 SUB SWAP1 RETURN JUMPDEST PUSH2 0x217 PUSH1 0x4 DUP1 CALLDATASIZE SUB DUP2 ADD SWAP1 PUSH2 0x212 SWAP2 SWAP1 PUSH2 0x1B16 JUMP JUMPDEST PUSH2 0x559 JUMP JUMPDEST STOP JUMPDEST PUSH2 0x233 PUSH1 0x4 DUP1 CALLDATASIZE SUB DUP2 ADD SWAP1 PUSH2 0x22E SWAP2 SWAP1 PUSH2 0x1B54 JUMP JUMPDEST PUSH2 0x57A JUMP JUMPDEST PUSH1 0x40 MLOAD PUSH2 0x244 SWAP6 SWAP5 SWAP4 SWAP3 SWAP2 SWAP1 PUSH2 0x1BA4 JUMP JUMPDEST PUSH1 0x40 MLOAD DUP1 SWAP2 SUB SWAP1 RETURN JUMPDEST PUSH2 0x267 PUSH1 0x4 DUP1 CALLDATASIZE SUB DUP2 ADD SWAP1 PUSH2 0x262 SWAP2 SWAP1 PUSH2 0x1B16 JUMP JUMPDEST PUSH2 0x5CE JUMP JUMPDEST STOP JUMPDEST PUSH2 0x283 PUSH1 0x4 DUP1 CALLDATASIZE SUB DUP2 ADD SWAP1 PUSH2 0x27E SWAP2 SWAP1 PUSH2 0x1CAB JUMP JUMPDEST PUSH2 0x651 JUMP JUMPDEST STOP JUMPDEST PUSH2 0x28D PUSH2 0x825 JUMP JUMPDEST PUSH1 0x40 MLOAD PUSH2 0x29A SWAP2 SWAP1 PUSH2 0x1AC2 JUMP JUMPDEST PUSH1 0x40 MLOAD DUP1 SWAP2 SUB SWAP1 RETURN JUMPDEST PUSH2 0x2BD PUSH1 0x4 DUP1 CALLDATASIZE SUB DUP2 ADD SWAP1 PUSH2 0x2B8 SWAP2 SWAP1 PUSH2 0x1D29 JUMP JUMPDEST PUSH2 0x849 JUMP JUMPDEST STOP JUMPDEST PUSH2 0x2D9 PUSH1 0x4 DUP1 CALLDATASIZE SUB DUP2 ADD SWAP1 PUSH2 0x2D4 SWAP2 SWAP1 PUSH2 0x1B16 JUMP JUMPDEST PUSH2 0x8B4 JUMP JUMPDEST PUSH1 0x40 MLOAD PUSH2 0x2E6 SWAP2 SWAP1 PUSH2 0x1923 JUMP JUMPDEST PUSH1 0x40 MLOAD DUP1 SWAP2 SUB SWAP1 RETURN JUMPDEST PUSH2 0x309 PUSH1 0x4 DUP1 CALLDATASIZE SUB DUP2 ADD SWAP1 PUSH2 0x304 SWAP2 SWAP1 PUSH2 0x1D8D JUMP JUMPDEST PUSH2 0x917 JUMP JUMPDEST STOP JUMPDEST PUSH2 0x313 PUSH2 0x951 JUMP JUMPDEST PUSH1 0x40 MLOAD PUSH2 0x320 SWAP2 SWAP1 PUSH2 0x1AC2 JUMP JUMPDEST PUSH1 0x40 MLOAD DUP1 SWAP2 SUB SWAP1 RETURN JUMPDEST PUSH2 0x343 PUSH1 0x4 DUP1 CALLDATASIZE SUB DUP2 ADD SWAP1 PUSH2 0x33E SWAP2 SWAP1 PUSH2 0x1A02 JUMP JUMPDEST PUSH2 0x957 JUMP JUMPDEST PUSH1 0x40 MLOAD PUSH2 0x350 SWAP2 SWAP1 PUSH2 0x1DE1 JUMP JUMPDEST PUSH1 0x40 MLOAD DUP1 SWAP2 SUB SWAP1 RETURN JUMPDEST PUSH2 0x373 PUSH1 0x4 DUP1 CALLDATASIZE SUB DUP2 ADD SWAP1 PUSH2 0x36E SWAP2 SWAP1 PUSH2 0x1DFA JUMP JUMPDEST PUSH2 0x9E0 JUMP JUMPDEST STOP JUMPDEST PUSH2 0x38F PUSH1 0x4 DUP1 CALLDATASIZE SUB DUP2 ADD SWAP1 PUSH2 0x38A SWAP2 SWAP1 PUSH2 0x1B54 JUMP JUMPDEST PUSH2 0xB78 JUMP JUMPDEST PUSH1 0x40 MLOAD PUSH2 0x39C SWAP2 SWAP1 PUSH2 0x1EBF JUMP JUMPDEST PUSH1 0x40 MLOAD DUP1 SWAP2 SUB SWAP1 RETURN JUMPDEST PUSH2 0x3BF PUSH1 0x4 DUP1 CALLDATASIZE SUB DUP2 ADD SWAP1 PUSH2 0x3BA SWAP2 SWAP1 PUSH2 0x1A02 JUMP JUMPDEST PUSH2 0xC82 JUMP JUMPDEST PUSH1 0x40 MLOAD PUSH2 0x3CC SWAP2 SWAP1 PUSH2 0x1A3C JUMP JUMPDEST PUSH1 0x40 MLOAD DUP1 SWAP2 SUB SWAP1 RETURN JUMPDEST PUSH2 0x3EF PUSH1 0x4 DUP1 CALLDATASIZE SUB DUP2 ADD SWAP1 PUSH2 0x3EA SWAP2 SWAP1 PUSH2 0x1D8D JUMP JUMPDEST PUSH2 0xC9C JUMP JUMPDEST STOP JUMPDEST PUSH2 0x40B PUSH1 0x4 DUP1 CALLDATASIZE SUB DUP2 ADD SWAP1 PUSH2 0x406 SWAP2 SWAP1 PUSH2 0x1D29 JUMP JUMPDEST PUSH2 0xCD6 JUMP JUMPDEST STOP JUMPDEST PUSH2 0x427 PUSH1 0x4 DUP1 CALLDATASIZE SUB DUP2 ADD SWAP1 PUSH2 0x422 SWAP2 SWAP1 PUSH2 0x1ED8 JUMP JUMPDEST PUSH2 0x10D5 JUMP JUMPDEST STOP JUMPDEST PUSH2 0x443 PUSH1 0x4 DUP1 CALLDATASIZE SUB DUP2 ADD SWAP1 PUSH2 0x43E SWAP2 SWAP1 PUSH2 0x1B16 JUMP JUMPDEST PUSH2 0x1184 JUMP JUMPDEST STOP JUMPDEST PUSH2 0x44D PUSH2 0x11A5 JUMP JUMPDEST PUSH1 0x40 MLOAD PUSH2 0x45A SWAP2 SWAP1 PUSH2 0x19B6 JUMP JUMPDEST PUSH1 0x40 MLOAD DUP1 SWAP2 SUB SWAP1 RETURN JUMPDEST PUSH2 0x47D PUSH1 0x4 DUP1 CALLDATASIZE SUB DUP2 ADD SWAP1 PUSH2 0x478 SWAP2 SWAP1 PUSH2 0x1D29 JUMP JUMPDEST PUSH2 0x11CA JUMP JUMPDEST STOP JUMPDEST PUSH0 PUSH32 0x7965DB0B00000000000000000000000000000000000000000000000000000000 PUSH28 0xFFFFFFFFFFFFFFFFFFFFFFFFFFFFFFFFFFFFFFFFFFFFFFFFFFFFFFFF NOT AND DUP3 PUSH28 0xFFFFFFFFFFFFFFFFFFFFFFFFFFFFFFFFFFFFFFFFFFFFFFFFFFFFFFFF NOT AND EQ DUP1 PUSH2 0x4F1 JUMPI POP PUSH2 0x4F0 DUP3 PUSH2 0x1325 JUMP JUMPDEST JUMPDEST SWAP1 POP SWAP2 SWAP1 POP JUMP JUMPDEST PUSH1 0x2 PUSH0 SWAP1 SLOAD SWAP1 PUSH2 0x100 EXP SWAP1 DIV PUSH20 0xFFFFFFFFFFFFFFFFFFFFFFFFFFFFFFFFFFFFFFFF AND DUP2 JUMP JUMPDEST PUSH1 0x4 DUP2 DUP2 SLOAD DUP2 LT PUSH2 0x52C JUMPI PUSH0 DUP1 REVERT JUMPDEST SWAP1 PUSH0 MSTORE PUSH1 0x20 PUSH0 KECCAK256 ADD PUSH0 SWAP2 POP SWAP1 POP SLOAD DUP2 JUMP JUMPDEST PUSH0 DUP1 PUSH0 DUP4 DUP2 MSTORE PUSH1 0x20 ADD SWAP1 DUP2 MSTORE PUSH1 0x20 ADD PUSH0 KECCAK256 PUSH1 0x1 ADD SLOAD SWAP1 POP SWAP2 SWAP1 POP JUMP JUMPDEST PUSH2 0x562 DUP3 PUSH2 0x53D JUMP JUMPDEST PUSH2 0x56B DUP2 PUSH2 0x138E JUMP JUMPDEST PUSH2 0x575 DUP4 DUP4 PUSH2 0x13A2 JUMP JUMPDEST POP POP POP JUMP JUMPDEST PUSH1 0x5 PUSH1 0x20 MSTORE DUP3 PUSH0 MSTORE PUSH1 0x40 PUSH0 KECCAK256 PUSH1 0x20 MSTORE DUP2 PUSH0 MSTORE PUSH1 0x40 PUSH0 KECCAK256 PUSH1 0x20 MSTORE DUP1 PUSH0 MSTORE PUSH1 0x40 PUSH0 KECCAK256 PUSH0 SWAP3 POP SWAP3 POP POP POP DUP1 PUSH0 ADD SLOAD SWAP1 DUP1 PUSH1 0x1 ADD SLOAD SWAP1 DUP1 PUSH1 0x2 ADD SLOAD SWAP1 DUP1 PUSH1 0x3 ADD SLOAD SWAP1 DUP1 PUSH1 0x4 ADD PUSH0 SWAP1 SLOAD SWAP1 PUSH2 0x100 EXP SWAP1 DIV PUSH1 0xFF AND SWAP1 POP DUP6 JUMP JUMPDEST PUSH2 0x5D6 PUSH2 0x147C JUMP JUMPDEST PUSH20 0xFFFFFFFFFFFFFFFFFFFFFFFFFFFFFFFFFFFFFFFF AND DUP2 PUSH20 0xFFFFFFFFFFFFFFFFFFFFFFFFFFFFFFFFFFFFFFFF AND EQ PUSH2 0x643 JUMPI PUSH1 0x40 MLOAD PUSH32 0x8C379A000000000000000000000000000000000000000000000000000000000 DUP2 MSTORE PUSH1 0x4 ADD PUSH2 0x63A SWAP1 PUSH2 0x1F96 JUMP JUMPDEST PUSH1 0x40 MLOAD DUP1 SWAP2 SUB SWAP1 REVERT JUMPDEST PUSH2 0x64D DUP3 DUP3 PUSH2 0x1483 JUMP JUMPDEST POP POP JUMP JUMPDEST PUSH32 0xA49807205CE4D355092EF5A8A18F56E8913CF4A201FBE287825B095693C21775 PUSH2 0x67B DUP2 PUSH2 0x138E JUMP JUMPDEST DUP3 DUP3 SWAP1 POP DUP6 DUP6 SWAP1 POP EQ PUSH2 0x6C3 JUMPI PUSH1 0x40 MLOAD PUSH32 0x8C379A000000000000000000000000000000000000000000000000000000000 DUP2 MSTORE PUSH1 0x4 ADD PUSH2 0x6BA SWAP1 PUSH2 0x2024 JUMP JUMPDEST PUSH1 0x40 MLOAD DUP1 SWAP2 SUB SWAP1 REVERT JUMPDEST PUSH0 JUMPDEST DUP6 DUP6 SWAP1 POP DUP2 LT ISZERO PUSH2 0x7E0 JUMPI PUSH1 0x2 PUSH0 SWAP1 SLOAD SWAP1 PUSH2 0x100 EXP SWAP1 DIV PUSH20 0xFFFFFFFFFFFFFFFFFFFFFFFFFFFFFFFFFFFFFFFF AND PUSH20 0xFFFFFFFFFFFFFFFFFFFFFFFFFFFFFFFFFFFFFFFF AND PUSH4 0x40C10F19 DUP8 DUP8 DUP5 DUP2 DUP2 LT PUSH2 0x720 JUMPI PUSH2 0x71F PUSH2 0x2042 JUMP JUMPDEST JUMPDEST SWAP1 POP PUSH1 0x20 MUL ADD PUSH1 0x20 DUP2 ADD SWAP1 PUSH2 0x735 SWAP2 SWAP1 PUSH2 0x1D8D JUMP JUMPDEST DUP7 DUP7 DUP6 DUP2 DUP2 LT PUSH2 0x748 JUMPI PUSH2 0x747 PUSH2 0x2042 JUMP JUMPDEST JUMPDEST SWAP1 POP PUSH1 0x20 MUL ADD CALLDATALOAD PUSH1 0x40 MLOAD DUP4 PUSH4 0xFFFFFFFF AND PUSH1 0xE0 SHL DUP2 MSTORE PUSH1 0x4 ADD PUSH2 0x76C SWAP3 SWAP2 SWAP1 PUSH2 0x207E JUMP JUMPDEST PUSH0 PUSH1 0x40 MLOAD DUP1 DUP4 SUB DUP2 PUSH0 DUP8 DUP1 EXTCODESIZE ISZERO DUP1 ISZERO PUSH2 0x783 JUMPI PUSH0 DUP1 REVERT JUMPDEST POP GAS CALL SWAP3 POP POP POP DUP1 ISZERO PUSH2 0x794 JUMPI POP PUSH1 0x1 JUMPDEST PUSH2 0x7D3 JUMPI PUSH1 0x40 MLOAD PUSH32 0x8C379A000000000000000000000000000000000000000000000000000000000 DUP2 MSTORE PUSH1 0x4 ADD PUSH2 0x7CA SWAP1 PUSH2 0x20EF JUMP JUMPDEST PUSH1 0x40 MLOAD DUP1 SWAP2 SUB SWAP1 REVERT JUMPDEST DUP1 DUP1 PUSH1 0x1 ADD SWAP2 POP POP PUSH2 0x6C5 JUMP JUMPDEST POP PUSH32 0xFA3B7284ECB3A03E8F238B69B61F5645294C15019EA509BD4AAEE604D60FDC34 DUP6 DUP6 DUP6 DUP6 PUSH1 0x40 MLOAD PUSH2 0x816 SWAP5 SWAP4 SWAP3 SWAP2 SWAP1 PUSH2 0x2241 JUMP JUMPDEST PUSH1 0x40 MLOAD DUP1 SWAP2 SUB SWAP1 LOG1 POP POP POP POP POP JUMP JUMPDEST PUSH32 0xA49807205CE4D355092EF5A8A18F56E8913CF4A201FBE287825B095693C21775 DUP2 JUMP JUMPDEST PUSH32 0xA49807205CE4D355092EF5A8A18F56E8913CF4A201FBE287825B095693C21775 PUSH2 0x873 DUP2 PUSH2 0x138E JUMP JUMPDEST DUP3 DUP5 DUP7 PUSH32 0x56253FE63CA8B57BA2974CD5DD75F8D5F4F4BC99E0798022A4773599CBFC362 DUP6 PUSH1 0x40 MLOAD PUSH2 0x8A5 SWAP2 SWAP1 PUSH2 0x1A3C JUMP JUMPDEST PUSH1 0x40 MLOAD DUP1 SWAP2 SUB SWAP1 LOG4 POP POP POP POP POP JUMP JUMPDEST PUSH0 DUP1 PUSH0 DUP5 DUP2 MSTORE PUSH1 0x20 ADD SWAP1 DUP2 MSTORE PUSH1 0x20 ADD PUSH0 KECCAK256 PUSH0 ADD PUSH0 DUP4 PUSH20 0xFFFFFFFFFFFFFFFFFFFFFFFFFFFFFFFFFFFFFFFF AND PUSH20 0xFFFFFFFFFFFFFFFFFFFFFFFFFFFFFFFFFFFFFFFF AND DUP2 MSTORE PUSH1 0x20 ADD SWAP1 DUP2 MSTORE PUSH1 0x20 ADD PUSH0 KECCAK256 PUSH0 SWAP1 SLOAD SWAP1 PUSH2 0x100 EXP SWAP1 DIV PUSH1 0xFF AND SWAP1 POP SWAP3 SWAP2 POP POP JUMP JUMPDEST PUSH0 DUP1 SHL PUSH2 0x923 DUP2 PUSH2 0x138E JUMP JUMPDEST PUSH2 0x94D PUSH32 0xA49807205CE4D355092EF5A8A18F56E8913CF4A201FBE287825B095693C21775 DUP4 PUSH2 0x1184 JUMP JUMPDEST POP POP JUMP JUMPDEST PUSH0 DUP1 SHL DUP2 JUMP JUMPDEST PUSH2 0x95F PUSH2 0x1843 JUMP JUMPDEST PUSH0 PUSH1 0x3 PUSH0 DUP5 DUP2 MSTORE PUSH1 0x20 ADD SWAP1 DUP2 MSTORE PUSH1 0x20 ADD PUSH0 KECCAK256 PUSH0 ADD SLOAD GT PUSH2 0x9B4 JUMPI PUSH1 0x40 MLOAD PUSH32 0x8C379A000000000000000000000000000000000000000000000000000000000 DUP2 MSTORE PUSH1 0x4 ADD PUSH2 0x9AB SWAP1 PUSH2 0x22C4 JUMP JUMPDEST PUSH1 0x40 MLOAD DUP1 SWAP2 SUB SWAP1 REVERT JUMPDEST PUSH1 0x3 PUSH0 DUP4 DUP2 MSTORE PUSH1 0x20 ADD SWAP1 DUP2 MSTORE PUSH1 0x20 ADD PUSH0 KECCAK256 PUSH1 0x40 MLOAD DUP1 PUSH1 0x20 ADD PUSH1 0x40 MSTORE SWAP1 DUP2 PUSH0 DUP3 ADD SLOAD DUP2 MSTORE POP POP SWAP1 POP SWAP2 SWAP1 POP JUMP JUMPDEST PUSH32 0xA49807205CE4D355092EF5A8A18F56E8913CF4A201FBE287825B095693C21775 PUSH2 0xA0A DUP2 PUSH2 0x138E JUMP JUMPDEST PUSH0 PUSH1 0x3 PUSH0 DUP7 DUP2 MSTORE PUSH1 0x20 ADD SWAP1 DUP2 MSTORE PUSH1 0x20 ADD PUSH0 KECCAK256 PUSH0 ADD SLOAD EQ PUSH2 0xA5F JUMPI PUSH1 0x40 MLOAD PUSH32 0x8C379A000000000000000000000000000000000000000000000000000000000 DUP2 MSTORE PUSH1 0x4 ADD PUSH2 0xA56 SWAP1 PUSH2 0x232C JUMP JUMPDEST PUSH1 0x40 MLOAD DUP1 SWAP2 SUB SWAP1 REVERT JUMPDEST PUSH1 0x40 MLOAD DUP1 PUSH1 0x20 ADD PUSH1 0x40 MSTORE DUP1 DUP6 DUP2 MSTORE POP PUSH1 0x3 PUSH0 DUP7 DUP2 MSTORE PUSH1 0x20 ADD SWAP1 DUP2 MSTORE PUSH1 0x20 ADD PUSH0 KECCAK256 PUSH0 DUP3 ADD MLOAD DUP2 PUSH0 ADD SSTORE SWAP1 POP POP PUSH1 0x4 DUP5 SWAP1 DUP1 PUSH1 0x1 DUP2 SLOAD ADD DUP1 DUP3 SSTORE DUP1 SWAP2 POP POP PUSH1 0x1 SWAP1 SUB SWAP1 PUSH0 MSTORE PUSH1 0x20 PUSH0 KECCAK256 ADD PUSH0 SWAP1 SWAP2 SWAP1 SWAP2 SWAP1 SWAP2 POP SSTORE PUSH1 0x1 PUSH0 SWAP1 SLOAD SWAP1 PUSH2 0x100 EXP SWAP1 DIV PUSH20 0xFFFFFFFFFFFFFFFFFFFFFFFFFFFFFFFFFFFFFFFF AND PUSH20 0xFFFFFFFFFFFFFFFFFFFFFFFFFFFFFFFFFFFFFFFF AND PUSH4 0x40C10F19 DUP5 DUP5 PUSH1 0x40 MLOAD DUP4 PUSH4 0xFFFFFFFF AND PUSH1 0xE0 SHL DUP2 MSTORE PUSH1 0x4 ADD PUSH2 0xB0C SWAP3 SWAP2 SWAP1 PUSH2 0x207E JUMP JUMPDEST PUSH0 PUSH1 0x40 MLOAD DUP1 DUP4 SUB DUP2 PUSH0 DUP8 DUP1 EXTCODESIZE ISZERO DUP1 ISZERO PUSH2 0xB23 JUMPI PUSH0 DUP1 REVERT JUMPDEST POP GAS CALL ISZERO DUP1 ISZERO PUSH2 0xB35 JUMPI RETURNDATASIZE PUSH0 DUP1 RETURNDATACOPY RETURNDATASIZE PUSH0 REVERT JUMPDEST POP POP POP POP PUSH32 0x5A92C2530F207992057B9C3E544108FFCE3BEDA4A63719F316967C49BF6159D2 DUP5 DUP4 PUSH1 0x40 MLOAD PUSH2 0xB6A SWAP3 SWAP2 SWAP1 PUSH2 0x234A JUMP JUMPDEST PUSH1 0x40 MLOAD DUP1 SWAP2 SUB SWAP1 LOG1 POP POP POP POP JUMP JUMPDEST PUSH2 0xB80 PUSH2 0x1855 JUMP JUMPDEST PUSH1 0x5 PUSH0 DUP6 DUP2 MSTORE PUSH1 0x20 ADD SWAP1 DUP2 MSTORE PUSH1 0x20 ADD PUSH0 KECCAK256 PUSH0 DUP5 DUP2 MSTORE PUSH1 0x20 ADD SWAP1 DUP2 MSTORE PUSH1 0x20 ADD PUSH0 KECCAK256 PUSH0 DUP4 DUP2 MSTORE PUSH1 0x20 ADD SWAP1 DUP2 MSTORE PUSH1 0x20 ADD PUSH0 KECCAK256 PUSH1 0x4 ADD PUSH0 SWAP1 SLOAD SWAP1 PUSH2 0x100 EXP SWAP1 DIV PUSH1 0xFF AND PUSH2 0xBFE JUMPI PUSH1 0x40 MLOAD PUSH32 0x8C379A000000000000000000000000000000000000000000000000000000000 DUP2 MSTORE PUSH1 0x4 ADD PUSH2 0xBF5 SWAP1 PUSH2 0x23BB JUMP JUMPDEST PUSH1 0x40 MLOAD DUP1 SWAP2 SUB SWAP1 REVERT JUMPDEST PUSH1 0x5 PUSH0 DUP6 DUP2 MSTORE PUSH1 0x20 ADD SWAP1 DUP2 MSTORE PUSH1 0x20 ADD PUSH0 KECCAK256 PUSH0 DUP5 DUP2 MSTORE PUSH1 0x20 ADD SWAP1 DUP2 MSTORE PUSH1 0x20 ADD PUSH0 KECCAK256 PUSH0 DUP4 DUP2 MSTORE PUSH1 0x20 ADD SWAP1 DUP2 MSTORE PUSH1 0x20 ADD PUSH0 KECCAK256 PUSH1 0x40 MLOAD DUP1 PUSH1 0xA0 ADD PUSH1 0x40 MSTORE SWAP1 DUP2 PUSH0 DUP3 ADD SLOAD DUP2 MSTORE PUSH1 0x20 ADD PUSH1 0x1 DUP3 ADD SLOAD DUP2 MSTORE PUSH1 0x20 ADD PUSH1 0x2 DUP3 ADD SLOAD DUP2 MSTORE PUSH1 0x20 ADD PUSH1 0x3 DUP3 ADD SLOAD DUP2 MSTORE PUSH1 0x20 ADD PUSH1 0x4 DUP3 ADD PUSH0 SWAP1 SLOAD SWAP1 PUSH2 0x100 EXP SWAP1 DIV PUSH1 0xFF AND ISZERO ISZERO ISZERO ISZERO DUP2 MSTORE POP POP SWAP1 POP SWAP4 SWAP3 POP POP POP JUMP JUMPDEST PUSH1 0x3 PUSH1 0x20 MSTORE DUP1 PUSH0 MSTORE PUSH1 0x40 PUSH0 KECCAK256 PUSH0 SWAP2 POP SWAP1 POP DUP1 PUSH0 ADD SLOAD SWAP1 POP DUP2 JUMP JUMPDEST PUSH0 DUP1 SHL PUSH2 0xCA8 DUP2 PUSH2 0x138E JUMP JUMPDEST PUSH2 0xCD2 PUSH32 0xA49807205CE4D355092EF5A8A18F56E8913CF4A201FBE287825B095693C21775 DUP4 PUSH2 0x559 JUMP JUMPDEST POP POP JUMP JUMPDEST PUSH1 0x5 PUSH0 DUP6 DUP2 MSTORE PUSH1 0x20 ADD SWAP1 DUP2 MSTORE PUSH1 0x20 ADD PUSH0 KECCAK256 PUSH0 DUP5 DUP2 MSTORE PUSH1 0x20 ADD SWAP1 DUP2 MSTORE PUSH1 0x20 ADD PUSH0 KECCAK256 PUSH0 DUP4 DUP2 MSTORE PUSH1 0x20 ADD SWAP1 DUP2 MSTORE PUSH1 0x20 ADD PUSH0 KECCAK256 PUSH1 0x4 ADD PUSH0 SWAP1 SLOAD SWAP1 PUSH2 0x100 EXP SWAP1 DIV PUSH1 0xFF AND ISZERO PUSH2 0xD55 JUMPI PUSH1 0x40 MLOAD PUSH32 0x8C379A000000000000000000000000000000000000000000000000000000000 DUP2 MSTORE PUSH1 0x4 ADD PUSH2 0xD4C SWAP1 PUSH2 0x2449 JUMP JUMPDEST PUSH1 0x40 MLOAD DUP1 SWAP2 SUB SWAP1 REVERT JUMPDEST PUSH0 PUSH1 0x1 PUSH0 SWAP1 SLOAD SWAP1 PUSH2 0x100 EXP SWAP1 DIV PUSH20 0xFFFFFFFFFFFFFFFFFFFFFFFFFFFFFFFFFFFFFFFF AND PUSH20 0xFFFFFFFFFFFFFFFFFFFFFFFFFFFFFFFFFFFFFFFF AND PUSH4 0xDD62ED3E CALLER ADDRESS PUSH1 0x40 MLOAD DUP4 PUSH4 0xFFFFFFFF AND PUSH1 0xE0 SHL DUP2 MSTORE PUSH1 0x4 ADD PUSH2 0xDB2 SWAP3 SWAP2 SWAP1 PUSH2 0x2467 JUMP JUMPDEST PUSH1 0x20 PUSH1 0x40 MLOAD DUP1 DUP4 SUB DUP2 DUP7 GAS STATICCALL ISZERO DUP1 ISZERO PUSH2 0xDCD JUMPI RETURNDATASIZE PUSH0 DUP1 RETURNDATACOPY RETURNDATASIZE PUSH0 REVERT JUMPDEST POP POP POP POP PUSH1 0x40 MLOAD RETURNDATASIZE PUSH1 0x1F NOT PUSH1 0x1F DUP3 ADD AND DUP3 ADD DUP1 PUSH1 0x40 MSTORE POP DUP2 ADD SWAP1 PUSH2 0xDF1 SWAP2 SWAP1 PUSH2 0x24A2 JUMP JUMPDEST SWAP1 POP DUP2 DUP2 LT ISZERO PUSH2 0xE36 JUMPI PUSH1 0x40 MLOAD PUSH32 0x8C379A000000000000000000000000000000000000000000000000000000000 DUP2 MSTORE PUSH1 0x4 ADD PUSH2 0xE2D SWAP1 PUSH2 0x2517 JUMP JUMPDEST PUSH1 0x40 MLOAD DUP1 SWAP2 SUB SWAP1 REVERT JUMPDEST PUSH0 PUSH1 0x1 PUSH0 SWAP1 SLOAD SWAP1 PUSH2 0x100 EXP SWAP1 DIV PUSH20 0xFFFFFFFFFFFFFFFFFFFFFFFFFFFFFFFFFFFFFFFF AND PUSH20 0xFFFFFFFFFFFFFFFFFFFFFFFFFFFFFFFFFFFFFFFF AND PUSH4 0x70A08231 CALLER PUSH1 0x40 MLOAD DUP3 PUSH4 0xFFFFFFFF AND PUSH1 0xE0 SHL DUP2 MSTORE PUSH1 0x4 ADD PUSH2 0xE91 SWAP2 SWAP1 PUSH2 0x2535 JUMP JUMPDEST PUSH1 0x20 PUSH1 0x40 MLOAD DUP1 DUP4 SUB DUP2 DUP7 GAS STATICCALL ISZERO DUP1 ISZERO PUSH2 0xEAC JUMPI RETURNDATASIZE PUSH0 DUP1 RETURNDATACOPY RETURNDATASIZE PUSH0 REVERT JUMPDEST POP POP POP POP PUSH1 0x40 MLOAD RETURNDATASIZE PUSH1 0x1F NOT PUSH1 0x1F DUP3 ADD AND DUP3 ADD DUP1 PUSH1 0x40 MSTORE POP DUP2 ADD SWAP1 PUSH2 0xED0 SWAP2 SWAP1 PUSH2 0x24A2 JUMP JUMPDEST SWAP1 POP DUP3 DUP2 LT ISZERO PUSH2 0xF15 JUMPI PUSH1 0x40 MLOAD PUSH32 0x8C379A000000000000000000000000000000000000000000000000000000000 DUP2 MSTORE PUSH1 0x4 ADD PUSH2 0xF0C SWAP1 PUSH2 0x2598 JUMP JUMPDEST PUSH1 0x40 MLOAD DUP1 SWAP2 SUB SWAP1 REVERT JUMPDEST PUSH1 0x1 PUSH0 SWAP1 SLOAD SWAP1 PUSH2 0x100 EXP SWAP1 DIV PUSH20 0xFFFFFFFFFFFFFFFFFFFFFFFFFFFFFFFFFFFFFFFF AND PUSH20 0xFFFFFFFFFFFFFFFFFFFFFFFFFFFFFFFFFFFFFFFF AND PUSH4 0x23B872DD CALLER ADDRESS DUP7 PUSH1 0x40 MLOAD DUP5 PUSH4 0xFFFFFFFF AND PUSH1 0xE0 SHL DUP2 MSTORE PUSH1 0x4 ADD PUSH2 0xF73 SWAP4 SWAP3 SWAP2 SWAP1 PUSH2 0x25B6 JUMP JUMPDEST PUSH1 0x20 PUSH1 0x40 MLOAD DUP1 DUP4 SUB DUP2 PUSH0 DUP8 GAS CALL ISZERO DUP1 ISZERO PUSH2 0xF8F JUMPI RETURNDATASIZE PUSH0 DUP1 RETURNDATACOPY RETURNDATASIZE PUSH0 REVERT JUMPDEST POP POP POP POP PUSH1 0x40 MLOAD RETURNDATASIZE PUSH1 0x1F NOT PUSH1 0x1F DUP3 ADD AND DUP3 ADD DUP1 PUSH1 0x40 MSTORE POP DUP2 ADD SWAP1 PUSH2 0xFB3 SWAP2 SWAP1 PUSH2 0x2615 JUMP JUMPDEST PUSH2 0xFF2 JUMPI PUSH1 0x40 MLOAD PUSH32 0x8C379A000000000000000000000000000000000000000000000000000000000 DUP2 MSTORE PUSH1 0x4 ADD PUSH2 0xFE9 SWAP1 PUSH2 0x268A JUMP JUMPDEST PUSH1 0x40 MLOAD DUP1 SWAP2 SUB SWAP1 REVERT JUMPDEST PUSH1 0x40 MLOAD DUP1 PUSH1 0xA0 ADD PUSH1 0x40 MSTORE DUP1 DUP7 DUP2 MSTORE PUSH1 0x20 ADD DUP6 DUP2 MSTORE PUSH1 0x20 ADD DUP5 DUP2 MSTORE PUSH1 0x20 ADD PUSH0 DUP2 MSTORE PUSH1 0x20 ADD PUSH1 0x1 ISZERO ISZERO DUP2 MSTORE POP PUSH1 0x5 PUSH0 DUP9 DUP2 MSTORE PUSH1 0x20 ADD SWAP1 DUP2 MSTORE PUSH1 0x20 ADD PUSH0 KECCAK256 PUSH0 DUP8 DUP2 MSTORE PUSH1 0x20 ADD SWAP1 DUP2 MSTORE PUSH1 0x20 ADD PUSH0 KECCAK256 PUSH0 DUP7 DUP2 MSTORE PUSH1 0x20 ADD SWAP1 DUP2 MSTORE PUSH1 0x20 ADD PUSH0 KECCAK256 PUSH0 DUP3 ADD MLOAD DUP2 PUSH0 ADD SSTORE PUSH1 0x20 DUP3 ADD MLOAD DUP2 PUSH1 0x1 ADD SSTORE PUSH1 0x40 DUP3 ADD MLOAD DUP2 PUSH1 0x2 ADD SSTORE PUSH1 0x60 DUP3 ADD MLOAD DUP2 PUSH1 0x3 ADD SSTORE PUSH1 0x80 DUP3 ADD MLOAD DUP2 PUSH1 0x4 ADD PUSH0 PUSH2 0x100 EXP DUP2 SLOAD DUP2 PUSH1 0xFF MUL NOT AND SWAP1 DUP4 ISZERO ISZERO MUL OR SWAP1 SSTORE POP SWAP1 POP POP DUP4 DUP6 DUP8 PUSH32 0x12B60EC834DBE4F634B415A94D1638892226674971F72A0FB5E7893D8379C274 DUP7 PUSH1 0x40 MLOAD PUSH2 0x10C5 SWAP2 SWAP1 PUSH2 0x1A3C JUMP JUMPDEST PUSH1 0x40 MLOAD DUP1 SWAP2 SUB SWAP1 LOG4 POP POP POP POP POP POP JUMP JUMPDEST PUSH32 0xA49807205CE4D355092EF5A8A18F56E8913CF4A201FBE287825B095693C21775 PUSH2 0x10FF DUP2 PUSH2 0x138E JUMP JUMPDEST DUP3 PUSH1 0x1 PUSH0 PUSH2 0x100 EXP DUP2 SLOAD DUP2 PUSH20 0xFFFFFFFFFFFFFFFFFFFFFFFFFFFFFFFFFFFFFFFF MUL NOT AND SWAP1 DUP4 PUSH20 0xFFFFFFFFFFFFFFFFFFFFFFFFFFFFFFFFFFFFFFFF AND MUL OR SWAP1 SSTORE POP DUP2 PUSH1 0x2 PUSH0 PUSH2 0x100 EXP DUP2 SLOAD DUP2 PUSH20 0xFFFFFFFFFFFFFFFFFFFFFFFFFFFFFFFFFFFFFFFF MUL NOT AND SWAP1 DUP4 PUSH20 0xFFFFFFFFFFFFFFFFFFFFFFFFFFFFFFFFFFFFFFFF AND MUL OR SWAP1 SSTORE POP POP POP POP JUMP JUMPDEST PUSH2 0x118D DUP3 PUSH2 0x53D JUMP JUMPDEST PUSH2 0x1196 DUP2 PUSH2 0x138E JUMP JUMPDEST PUSH2 0x11A0 DUP4 DUP4 PUSH2 0x1483 JUMP JUMPDEST POP POP POP JUMP JUMPDEST PUSH1 0x1 PUSH0 SWAP1 SLOAD SWAP1 PUSH2 0x100 EXP SWAP1 DIV PUSH20 0xFFFFFFFFFFFFFFFFFFFFFFFFFFFFFFFFFFFFFFFF AND DUP2 JUMP JUMPDEST PUSH32 0xA49807205CE4D355092EF5A8A18F56E8913CF4A201FBE287825B095693C21775 PUSH2 0x11F4 DUP2 PUSH2 0x138E JUMP JUMPDEST PUSH1 0x5 PUSH0 DUP7 DUP2 MSTORE PUSH1 0x20 ADD SWAP1 DUP2 MSTORE PUSH1 0x20 ADD PUSH0 KECCAK256 PUSH0 DUP6 DUP2 MSTORE PUSH1 0x20 ADD SWAP1 DUP2 MSTORE PUSH1 0x20 ADD PUSH0 KECCAK256 PUSH0 DUP5 DUP2 MSTORE PUSH1 0x20 ADD SWAP1 DUP2 MSTORE PUSH1 0x20 ADD PUSH0 KECCAK256 PUSH1 0x4 ADD PUSH0 SWAP1 SLOAD SWAP1 PUSH2 0x100 EXP SWAP1 DIV PUSH1 0xFF AND PUSH2 0x1272 JUMPI PUSH1 0x40 MLOAD PUSH32 0x8C379A000000000000000000000000000000000000000000000000000000000 DUP2 MSTORE PUSH1 0x4 ADD PUSH2 0x1269 SWAP1 PUSH2 0x26F2 JUMP JUMPDEST PUSH1 0x40 MLOAD DUP1 SWAP2 SUB SWAP1 REVERT JUMPDEST PUSH1 0x5 PUSH0 DUP7 DUP2 MSTORE PUSH1 0x20 ADD SWAP1 DUP2 MSTORE PUSH1 0x20 ADD PUSH0 KECCAK256 PUSH0 DUP6 DUP2 MSTORE PUSH1 0x20 ADD SWAP1 DUP2 MSTORE PUSH1 0x20 ADD PUSH0 KECCAK256 PUSH0 DUP5 DUP2 MSTORE PUSH1 0x20 ADD SWAP1 DUP2 MSTORE PUSH1 0x20 ADD PUSH0 KECCAK256 PUSH1 0x3 ADD SLOAD DUP3 GT ISZERO PUSH2 0x12E4 JUMPI DUP2 PUSH1 0x5 PUSH0 DUP8 DUP2 MSTORE PUSH1 0x20 ADD SWAP1 DUP2 MSTORE PUSH1 0x20 ADD PUSH0 KECCAK256 PUSH0 DUP7 DUP2 MSTORE PUSH1 0x20 ADD SWAP1 DUP2 MSTORE PUSH1 0x20 ADD PUSH0 KECCAK256 PUSH0 DUP6 DUP2 MSTORE PUSH1 0x20 ADD SWAP1 DUP2 MSTORE PUSH1 0x20 ADD PUSH0 KECCAK256 PUSH1 0x3 ADD DUP2 SWAP1 SSTORE POP JUMPDEST DUP3 DUP5 DUP7 PUSH32 0x2BBC9AD1871F4B99168AA3FEBE254B9069558FF96ED7746D1677869AFA38243F DUP6 PUSH1 0x40 MLOAD PUSH2 0x1316 SWAP2 SWAP1 PUSH2 0x1A3C JUMP JUMPDEST PUSH1 0x40 MLOAD DUP1 SWAP2 SUB SWAP1 LOG4 POP POP POP POP POP JUMP JUMPDEST PUSH0 PUSH32 0x1FFC9A700000000000000000000000000000000000000000000000000000000 PUSH28 0xFFFFFFFFFFFFFFFFFFFFFFFFFFFFFFFFFFFFFFFFFFFFFFFFFFFFFFFF NOT AND DUP3 PUSH28 0xFFFFFFFFFFFFFFFFFFFFFFFFFFFFFFFFFFFFFFFFFFFFFFFFFFFFFFFF NOT AND EQ SWAP1 POP SWAP2 SWAP1 POP JUMP JUMPDEST PUSH2 0x139F DUP2 PUSH2 0x139A PUSH2 0x147C JUMP JUMPDEST PUSH2 0x155D JUMP JUMPDEST POP JUMP JUMPDEST PUSH2 0x13AC DUP3 DUP3 PUSH2 0x8B4 JUMP JUMPDEST PUSH2 0x1478 JUMPI PUSH1 0x1 PUSH0 DUP1 DUP5 DUP2 MSTORE PUSH1 0x20 ADD SWAP1 DUP2 MSTORE PUSH1 0x20 ADD PUSH0 KECCAK256 PUSH0 ADD PUSH0 DUP4 PUSH20 0xFFFFFFFFFFFFFFFFFFFFFFFFFFFFFFFFFFFFFFFF AND PUSH20 0xFFFFFFFFFFFFFFFFFFFFFFFFFFFFFFFFFFFFFFFF AND DUP2 MSTORE PUSH1 0x20 ADD SWAP1 DUP2 MSTORE PUSH1 0x20 ADD PUSH0 KECCAK256 PUSH0 PUSH2 0x100 EXP DUP2 SLOAD DUP2 PUSH1 0xFF MUL NOT AND SWAP1 DUP4 ISZERO ISZERO MUL OR SWAP1 SSTORE POP PUSH2 0x141D PUSH2 0x147C JUMP JUMPDEST PUSH20 0xFFFFFFFFFFFFFFFFFFFFFFFFFFFFFFFFFFFFFFFF AND DUP2 PUSH20 0xFFFFFFFFFFFFFFFFFFFFFFFFFFFFFFFFFFFFFFFF AND DUP4 PUSH32 0x2F8788117E7EFF1D82E926EC794901D17C78024A50270940304540A733656F0D PUSH1 0x40 MLOAD PUSH1 0x40 MLOAD DUP1 SWAP2 SUB SWAP1 LOG4 JUMPDEST POP POP JUMP JUMPDEST PUSH0 CALLER SWAP1 POP SWAP1 JUMP JUMPDEST PUSH2 0x148D DUP3 DUP3 PUSH2 0x8B4 JUMP JUMPDEST ISZERO PUSH2 0x1559 JUMPI PUSH0 DUP1 PUSH0 DUP5 DUP2 MSTORE PUSH1 0x20 ADD SWAP1 DUP2 MSTORE PUSH1 0x20 ADD PUSH0 KECCAK256 PUSH0 ADD PUSH0 DUP4 PUSH20 0xFFFFFFFFFFFFFFFFFFFFFFFFFFFFFFFFFFFFFFFF AND PUSH20 0xFFFFFFFFFFFFFFFFFFFFFFFFFFFFFFFFFFFFFFFF AND DUP2 MSTORE PUSH1 0x20 ADD SWAP1 DUP2 MSTORE PUSH1 0x20 ADD PUSH0 KECCAK256 PUSH0 PUSH2 0x100 EXP DUP2 SLOAD DUP2 PUSH1 0xFF MUL NOT AND SWAP1 DUP4 ISZERO ISZERO MUL OR SWAP1 SSTORE POP PUSH2 0x14FE PUSH2 0x147C JUMP JUMPDEST PUSH20 0xFFFFFFFFFFFFFFFFFFFFFFFFFFFFFFFFFFFFFFFF AND DUP2 PUSH20 0xFFFFFFFFFFFFFFFFFFFFFFFFFFFFFFFFFFFFFFFF AND DUP4 PUSH32 0xF6391F5C32D9C69D2A47EA670B442974B53935D1EDC7FD64EB21E047A839171B PUSH1 0x40 MLOAD PUSH1 0x40 MLOAD DUP1 SWAP2 SUB SWAP1 LOG4 JUMPDEST POP POP JUMP JUMPDEST PUSH2 0x1567 DUP3 DUP3 PUSH2 0x8B4 JUMP JUMPDEST PUSH2 0x15DD JUMPI PUSH2 0x1574 DUP2 PUSH2 0x15E1 JUMP JUMPDEST PUSH2 0x1581 DUP4 PUSH0 SHR PUSH1 0x20 PUSH2 0x160E JUMP JUMPDEST PUSH1 0x40 MLOAD PUSH1 0x20 ADD PUSH2 0x1592 SWAP3 SWAP2 SWAP1 PUSH2 0x27F6 JUMP JUMPDEST PUSH1 0x40 MLOAD PUSH1 0x20 DUP2 DUP4 SUB SUB DUP2 MSTORE SWAP1 PUSH1 0x40 MSTORE PUSH1 0x40 MLOAD PUSH32 0x8C379A000000000000000000000000000000000000000000000000000000000 DUP2 MSTORE PUSH1 0x4 ADD PUSH2 0x15D4 SWAP2 SWAP1 PUSH2 0x2877 JUMP JUMPDEST PUSH1 0x40 MLOAD DUP1 SWAP2 SUB SWAP1 REVERT JUMPDEST POP POP JUMP JUMPDEST PUSH1 0x60 PUSH2 0x1607 DUP3 PUSH20 0xFFFFFFFFFFFFFFFFFFFFFFFFFFFFFFFFFFFFFFFF AND PUSH1 0x14 PUSH1 0xFF AND PUSH2 0x160E JUMP JUMPDEST SWAP1 POP SWAP2 SWAP1 POP JUMP JUMPDEST PUSH1 0x60 PUSH0 PUSH1 0x2 DUP4 PUSH1 0x2 PUSH2 0x1620 SWAP2 SWAP1 PUSH2 0x28C4 JUMP JUMPDEST PUSH2 0x162A SWAP2 SWAP1 PUSH2 0x2905 JUMP JUMPDEST PUSH8 0xFFFFFFFFFFFFFFFF DUP2 GT ISZERO PUSH2 0x1643 JUMPI PUSH2 0x1642 PUSH2 0x2938 JUMP JUMPDEST JUMPDEST PUSH1 0x40 MLOAD SWAP1 DUP1 DUP3 MSTORE DUP1 PUSH1 0x1F ADD PUSH1 0x1F NOT AND PUSH1 0x20 ADD DUP3 ADD PUSH1 0x40 MSTORE DUP1 ISZERO PUSH2 0x1675 JUMPI DUP2 PUSH1 0x20 ADD PUSH1 0x1 DUP3 MUL DUP1 CALLDATASIZE DUP4 CALLDATACOPY DUP1 DUP3 ADD SWAP2 POP POP SWAP1 POP JUMPDEST POP SWAP1 POP PUSH32 0x3000000000000000000000000000000000000000000000000000000000000000 DUP2 PUSH0 DUP2 MLOAD DUP2 LT PUSH2 0x16AC JUMPI PUSH2 0x16AB PUSH2 0x2042 JUMP JUMPDEST JUMPDEST PUSH1 0x20 ADD ADD SWAP1 PUSH31 0xFFFFFFFFFFFFFFFFFFFFFFFFFFFFFFFFFFFFFFFFFFFFFFFFFFFFFFFFFFFFFF NOT AND SWAP1 DUP2 PUSH0 BYTE SWAP1 MSTORE8 POP PUSH32 0x7800000000000000000000000000000000000000000000000000000000000000 DUP2 PUSH1 0x1 DUP2 MLOAD DUP2 LT PUSH2 0x170F JUMPI PUSH2 0x170E PUSH2 0x2042 JUMP JUMPDEST JUMPDEST PUSH1 0x20 ADD ADD SWAP1 PUSH31 0xFFFFFFFFFFFFFFFFFFFFFFFFFFFFFFFFFFFFFFFFFFFFFFFFFFFFFFFFFFFFFF NOT AND SWAP1 DUP2 PUSH0 BYTE SWAP1 MSTORE8 POP PUSH0 PUSH1 0x1 DUP5 PUSH1 0x2 PUSH2 0x174D SWAP2 SWAP1 PUSH2 0x28C4 JUMP JUMPDEST PUSH2 0x1757 SWAP2 SWAP1 PUSH2 0x2905 JUMP JUMPDEST SWAP1 POP JUMPDEST PUSH1 0x1 DUP2 GT ISZERO PUSH2 0x17F6 JUMPI PUSH32 0x3031323334353637383961626364656600000000000000000000000000000000 PUSH1 0xF DUP7 AND PUSH1 0x10 DUP2 LT PUSH2 0x1799 JUMPI PUSH2 0x1798 PUSH2 0x2042 JUMP JUMPDEST JUMPDEST BYTE PUSH1 0xF8 SHL DUP3 DUP3 DUP2 MLOAD DUP2 LT PUSH2 0x17B0 JUMPI PUSH2 0x17AF PUSH2 0x2042 JUMP JUMPDEST JUMPDEST PUSH1 0x20 ADD ADD SWAP1 PUSH31 0xFFFFFFFFFFFFFFFFFFFFFFFFFFFFFFFFFFFFFFFFFFFFFFFFFFFFFFFFFFFFFF NOT AND SWAP1 DUP2 PUSH0 BYTE SWAP1 MSTORE8 POP PUSH1 0x4 DUP6 SWAP1 SHR SWAP5 POP DUP1 PUSH2 0x17EF SWAP1 PUSH2 0x2965 JUMP JUMPDEST SWAP1 POP PUSH2 0x175A JUMP JUMPDEST POP PUSH0 DUP5 EQ PUSH2 0x1839 JUMPI PUSH1 0x40 MLOAD PUSH32 0x8C379A000000000000000000000000000000000000000000000000000000000 DUP2 MSTORE PUSH1 0x4 ADD PUSH2 0x1830 SWAP1 PUSH2 0x29D6 JUMP JUMPDEST PUSH1 0x40 MLOAD DUP1 SWAP2 SUB SWAP1 REVERT JUMPDEST DUP1 SWAP2 POP POP SWAP3 SWAP2 POP POP JUMP JUMPDEST PUSH1 0x40 MLOAD DUP1 PUSH1 0x20 ADD PUSH1 0x40 MSTORE DUP1 PUSH0 DUP2 MSTORE POP SWAP1 JUMP JUMPDEST PUSH1 0x40 MLOAD DUP1 PUSH1 0xA0 ADD PUSH1 0x40 MSTORE DUP1 PUSH0 DUP2 MSTORE PUSH1 0x20 ADD PUSH0 DUP2 MSTORE PUSH1 0x20 ADD PUSH0 DUP2 MSTORE PUSH1 0x20 ADD PUSH0 DUP2 MSTORE PUSH1 0x20 ADD PUSH0 ISZERO ISZERO DUP2 MSTORE POP SWAP1 JUMP JUMPDEST PUSH0 DUP1 REVERT JUMPDEST PUSH0 DUP1 REVERT JUMPDEST PUSH0 PUSH32 0xFFFFFFFF00000000000000000000000000000000000000000000000000000000 DUP3 AND SWAP1 POP SWAP2 SWAP1 POP JUMP JUMPDEST PUSH2 0x18BD DUP2 PUSH2 0x1889 JUMP JUMPDEST DUP2 EQ PUSH2 0x18C7 JUMPI PUSH0 DUP1 REVERT JUMPDEST POP JUMP JUMPDEST PUSH0 DUP2 CALLDATALOAD SWAP1 POP PUSH2 0x18D8 DUP2 PUSH2 0x18B4 JUMP JUMPDEST SWAP3 SWAP2 POP POP JUMP JUMPDEST PUSH0 PUSH1 0x20 DUP3 DUP5 SUB SLT ISZERO PUSH2 0x18F3 JUMPI PUSH2 0x18F2 PUSH2 0x1881 JUMP JUMPDEST JUMPDEST PUSH0 PUSH2 0x1900 DUP5 DUP3 DUP6 ADD PUSH2 0x18CA JUMP JUMPDEST SWAP2 POP POP SWAP3 SWAP2 POP POP JUMP JUMPDEST PUSH0 DUP2 ISZERO ISZERO SWAP1 POP SWAP2 SWAP1 POP JUMP JUMPDEST PUSH2 0x191D DUP2 PUSH2 0x1909 JUMP JUMPDEST DUP3 MSTORE POP POP JUMP JUMPDEST PUSH0 PUSH1 0x20 DUP3 ADD SWAP1 POP PUSH2 0x1936 PUSH0 DUP4 ADD DUP5 PUSH2 0x1914 JUMP JUMPDEST SWAP3 SWAP2 POP POP JUMP JUMPDEST PUSH0 PUSH20 0xFFFFFFFFFFFFFFFFFFFFFFFFFFFFFFFFFFFFFFFF DUP3 AND SWAP1 POP SWAP2 SWAP1 POP JUMP JUMPDEST PUSH0 DUP2 SWAP1 POP SWAP2 SWAP1 POP JUMP JUMPDEST PUSH0 PUSH2 0x197E PUSH2 0x1979 PUSH2 0x1974 DUP5 PUSH2 0x193C JUMP JUMPDEST PUSH2 0x195B JUMP JUMPDEST PUSH2 0x193C JUMP JUMPDEST SWAP1 POP SWAP2 SWAP1 POP JUMP JUMPDEST PUSH0 PUSH2 0x198F DUP3 PUSH2 0x1964 JUMP JUMPDEST SWAP1 POP SWAP2 SWAP1 POP JUMP JUMPDEST PUSH0 PUSH2 0x19A0 DUP3 PUSH2 0x1985 JUMP JUMPDEST SWAP1 POP SWAP2 SWAP1 POP JUMP JUMPDEST PUSH2 0x19B0 DUP2 PUSH2 0x1996 JUMP JUMPDEST DUP3 MSTORE POP POP JUMP JUMPDEST PUSH0 PUSH1 0x20 DUP3 ADD SWAP1 POP PUSH2 0x19C9 PUSH0 DUP4 ADD DUP5 PUSH2 0x19A7 JUMP JUMPDEST SWAP3 SWAP2 POP POP JUMP JUMPDEST PUSH0 DUP2 SWAP1 POP SWAP2 SWAP1 POP JUMP JUMPDEST PUSH2 0x19E1 DUP2 PUSH2 0x19CF JUMP JUMPDEST DUP2 EQ PUSH2 0x19EB JUMPI PUSH0 DUP1 REVERT JUMPDEST POP JUMP JUMPDEST PUSH0 DUP2 CALLDATALOAD SWAP1 POP PUSH2 0x19FC DUP2 PUSH2 0x19D8 JUMP JUMPDEST SWAP3 SWAP2 POP POP JUMP JUMPDEST PUSH0 PUSH1 0x20 DUP3 DUP5 SUB SLT ISZERO PUSH2 0x1A17 JUMPI PUSH2 0x1A16 PUSH2 0x1881 JUMP JUMPDEST JUMPDEST PUSH0 PUSH2 0x1A24 DUP5 DUP3 DUP6 ADD PUSH2 0x19EE JUMP JUMPDEST SWAP2 POP POP SWAP3 SWAP2 POP POP JUMP JUMPDEST PUSH2 0x1A36 DUP2 PUSH2 0x19CF JUMP JUMPDEST DUP3 MSTORE POP POP JUMP JUMPDEST PUSH0 PUSH1 0x20 DUP3 ADD SWAP1 POP PUSH2 0x1A4F PUSH0 DUP4 ADD DUP5 PUSH2 0x1A2D JUMP JUMPDEST SWAP3 SWAP2 POP POP JUMP JUMPDEST PUSH0 DUP2 SWAP1 POP SWAP2 SWAP1 POP JUMP JUMPDEST PUSH2 0x1A67 DUP2 PUSH2 0x1A55 JUMP JUMPDEST DUP2 EQ PUSH2 0x1A71 JUMPI PUSH0 DUP1 REVERT JUMPDEST POP JUMP JUMPDEST PUSH0 DUP2 CALLDATALOAD SWAP1 POP PUSH2 0x1A82 DUP2 PUSH2 0x1A5E JUMP JUMPDEST SWAP3 SWAP2 POP POP JUMP JUMPDEST PUSH0 PUSH1 0x20 DUP3 DUP5 SUB SLT ISZERO PUSH2 0x1A9D JUMPI PUSH2 0x1A9C PUSH2 0x1881 JUMP JUMPDEST JUMPDEST PUSH0 PUSH2 0x1AAA DUP5 DUP3 DUP6 ADD PUSH2 0x1A74 JUMP JUMPDEST SWAP2 POP POP SWAP3 SWAP2 POP POP JUMP JUMPDEST PUSH2 0x1ABC DUP2 PUSH2 0x1A55 JUMP JUMPDEST DUP3 MSTORE POP POP JUMP JUMPDEST PUSH0 PUSH1 0x20 DUP3 ADD SWAP1 POP PUSH2 0x1AD5 PUSH0 DUP4 ADD DUP5 PUSH2 0x1AB3 JUMP JUMPDEST SWAP3 SWAP2 POP POP JUMP JUMPDEST PUSH0 PUSH2 0x1AE5 DUP3 PUSH2 0x193C JUMP JUMPDEST SWAP1 POP SWAP2 SWAP1 POP JUMP JUMPDEST PUSH2 0x1AF5 DUP2 PUSH2 0x1ADB JUMP JUMPDEST DUP2 EQ PUSH2 0x1AFF JUMPI PUSH0 DUP1 REVERT JUMPDEST POP JUMP JUMPDEST PUSH0 DUP2 CALLDATALOAD SWAP1 POP PUSH2 0x1B10 DUP2 PUSH2 0x1AEC JUMP JUMPDEST SWAP3 SWAP2 POP POP JUMP JUMPDEST PUSH0 DUP1 PUSH1 0x40 DUP4 DUP6 SUB SLT ISZERO PUSH2 0x1B2C JUMPI PUSH2 0x1B2B PUSH2 0x1881 JUMP JUMPDEST JUMPDEST PUSH0 PUSH2 0x1B39 DUP6 DUP3 DUP7 ADD PUSH2 0x1A74 JUMP JUMPDEST SWAP3 POP POP PUSH1 0x20 PUSH2 0x1B4A DUP6 DUP3 DUP7 ADD PUSH2 0x1B02 JUMP JUMPDEST SWAP2 POP POP SWAP3 POP SWAP3 SWAP1 POP JUMP JUMPDEST PUSH0 DUP1 PUSH0 PUSH1 0x60 DUP5 DUP7 SUB SLT ISZERO PUSH2 0x1B6B JUMPI PUSH2 0x1B6A PUSH2 0x1881 JUMP JUMPDEST JUMPDEST PUSH0 PUSH2 0x1B78 DUP7 DUP3 DUP8 ADD PUSH2 0x19EE JUMP JUMPDEST SWAP4 POP POP PUSH1 0x20 PUSH2 0x1B89 DUP7 DUP3 DUP8 ADD PUSH2 0x19EE JUMP JUMPDEST SWAP3 POP POP PUSH1 0x40 PUSH2 0x1B9A DUP7 DUP3 DUP8 ADD PUSH2 0x19EE JUMP JUMPDEST SWAP2 POP POP SWAP3 POP SWAP3 POP SWAP3 JUMP JUMPDEST PUSH0 PUSH1 0xA0 DUP3 ADD SWAP1 POP PUSH2 0x1BB7 PUSH0 DUP4 ADD DUP9 PUSH2 0x1A2D JUMP JUMPDEST PUSH2 0x1BC4 PUSH1 0x20 DUP4 ADD DUP8 PUSH2 0x1A2D JUMP JUMPDEST PUSH2 0x1BD1 PUSH1 0x40 DUP4 ADD DUP7 PUSH2 0x1A2D JUMP JUMPDEST PUSH2 0x1BDE PUSH1 0x60 DUP4 ADD DUP6 PUSH2 0x1A2D JUMP JUMPDEST PUSH2 0x1BEB PUSH1 0x80 DUP4 ADD DUP5 PUSH2 0x1914 JUMP JUMPDEST SWAP7 SWAP6 POP POP POP POP POP POP JUMP JUMPDEST PUSH0 DUP1 REVERT JUMPDEST PUSH0 DUP1 REVERT JUMPDEST PUSH0 DUP1 REVERT JUMPDEST PUSH0 DUP1 DUP4 PUSH1 0x1F DUP5 ADD SLT PUSH2 0x1C16 JUMPI PUSH2 0x1C15 PUSH2 0x1BF5 JUMP JUMPDEST JUMPDEST DUP3 CALLDATALOAD SWAP1 POP PUSH8 0xFFFFFFFFFFFFFFFF DUP2 GT ISZERO PUSH2 0x1C33 JUMPI PUSH2 0x1C32 PUSH2 0x1BF9 JUMP JUMPDEST JUMPDEST PUSH1 0x20 DUP4 ADD SWAP2 POP DUP4 PUSH1 0x20 DUP3 MUL DUP4 ADD GT ISZERO PUSH2 0x1C4F JUMPI PUSH2 0x1C4E PUSH2 0x1BFD JUMP JUMPDEST JUMPDEST SWAP3 POP SWAP3 SWAP1 POP JUMP JUMPDEST PUSH0 DUP1 DUP4 PUSH1 0x1F DUP5 ADD SLT PUSH2 0x1C6B JUMPI PUSH2 0x1C6A PUSH2 0x1BF5 JUMP JUMPDEST JUMPDEST DUP3 CALLDATALOAD SWAP1 POP PUSH8 0xFFFFFFFFFFFFFFFF DUP2 GT ISZERO PUSH2 0x1C88 JUMPI PUSH2 0x1C87 PUSH2 0x1BF9 JUMP JUMPDEST JUMPDEST PUSH1 0x20 DUP4 ADD SWAP2 POP DUP4 PUSH1 0x20 DUP3 MUL DUP4 ADD GT ISZERO PUSH2 0x1CA4 JUMPI PUSH2 0x1CA3 PUSH2 0x1BFD JUMP JUMPDEST JUMPDEST SWAP3 POP SWAP3 SWAP1 POP JUMP JUMPDEST PUSH0 DUP1 PUSH0 DUP1 PUSH1 0x40 DUP6 DUP8 SUB SLT ISZERO PUSH2 0x1CC3 JUMPI PUSH2 0x1CC2 PUSH2 0x1881 JUMP JUMPDEST JUMPDEST PUSH0 DUP6 ADD CALLDATALOAD PUSH8 0xFFFFFFFFFFFFFFFF DUP2 GT ISZERO PUSH2 0x1CE0 JUMPI PUSH2 0x1CDF PUSH2 0x1885 JUMP JUMPDEST JUMPDEST PUSH2 0x1CEC DUP8 DUP3 DUP9 ADD PUSH2 0x1C01 JUMP JUMPDEST SWAP5 POP SWAP5 POP POP PUSH1 0x20 DUP6 ADD CALLDATALOAD PUSH8 0xFFFFFFFFFFFFFFFF DUP2 GT ISZERO PUSH2 0x1D0F JUMPI PUSH2 0x1D0E PUSH2 0x1885 JUMP JUMPDEST JUMPDEST PUSH2 0x1D1B DUP8 DUP3 DUP9 ADD PUSH2 0x1C56 JUMP JUMPDEST SWAP3 POP SWAP3 POP POP SWAP3 SWAP6 SWAP2 SWAP5 POP SWAP3 POP JUMP JUMPDEST PUSH0 DUP1 PUSH0 DUP1 PUSH1 0x80 DUP6 DUP8 SUB SLT ISZERO PUSH2 0x1D41 JUMPI PUSH2 0x1D40 PUSH2 0x1881 JUMP JUMPDEST JUMPDEST PUSH0 PUSH2 0x1D4E DUP8 DUP3 DUP9 ADD PUSH2 0x19EE JUMP JUMPDEST SWAP5 POP POP PUSH1 0x20 PUSH2 0x1D5F DUP8 DUP3 DUP9 ADD PUSH2 0x19EE JUMP JUMPDEST SWAP4 POP POP PUSH1 0x40 PUSH2 0x1D70 DUP8 DUP3 DUP9 ADD PUSH2 0x19EE JUMP JUMPDEST SWAP3 POP POP PUSH1 0x60 PUSH2 0x1D81 DUP8 DUP3 DUP9 ADD PUSH2 0x19EE JUMP JUMPDEST SWAP2 POP POP SWAP3 SWAP6 SWAP2 SWAP5 POP SWAP3 POP JUMP JUMPDEST PUSH0 PUSH1 0x20 DUP3 DUP5 SUB SLT ISZERO PUSH2 0x1DA2 JUMPI PUSH2 0x1DA1 PUSH2 0x1881 JUMP JUMPDEST JUMPDEST PUSH0 PUSH2 0x1DAF DUP5 DUP3 DUP6 ADD PUSH2 0x1B02 JUMP JUMPDEST SWAP2 POP POP SWAP3 SWAP2 POP POP JUMP JUMPDEST PUSH2 0x1DC1 DUP2 PUSH2 0x19CF JUMP JUMPDEST DUP3 MSTORE POP POP JUMP JUMPDEST PUSH1 0x20 DUP3 ADD PUSH0 DUP3 ADD MLOAD PUSH2 0x1DDB PUSH0 DUP6 ADD DUP3 PUSH2 0x1DB8 JUMP JUMPDEST POP POP POP POP JUMP JUMPDEST PUSH0 PUSH1 0x20 DUP3 ADD SWAP1 POP PUSH2 0x1DF4 PUSH0 DUP4 ADD DUP5 PUSH2 0x1DC7 JUMP JUMPDEST SWAP3 SWAP2 POP POP JUMP JUMPDEST PUSH0 DUP1 PUSH0 PUSH1 0x60 DUP5 DUP7 SUB SLT ISZERO PUSH2 0x1E11 JUMPI PUSH2 0x1E10 PUSH2 0x1881 JUMP JUMPDEST JUMPDEST PUSH0 PUSH2 0x1E1E DUP7 DUP3 DUP8 ADD PUSH2 0x19EE JUMP JUMPDEST SWAP4 POP POP PUSH1 0x20 PUSH2 0x1E2F DUP7 DUP3 DUP8 ADD PUSH2 0x1B02 JUMP JUMPDEST SWAP3 POP POP PUSH1 0x40 PUSH2 0x1E40 DUP7 DUP3 DUP8 ADD PUSH2 0x19EE JUMP JUMPDEST SWAP2 POP POP SWAP3 POP SWAP3 POP SWAP3 JUMP JUMPDEST PUSH2 0x1E53 DUP2 PUSH2 0x1909 JUMP JUMPDEST DUP3 MSTORE POP POP JUMP JUMPDEST PUSH1 0xA0 DUP3 ADD PUSH0 DUP3 ADD MLOAD PUSH2 0x1E6D PUSH0 DUP6 ADD DUP3 PUSH2 0x1DB8 JUMP JUMPDEST POP PUSH1 0x20 DUP3 ADD MLOAD PUSH2 0x1E80 PUSH1 0x20 DUP6 ADD DUP3 PUSH2 0x1DB8 JUMP JUMPDEST POP PUSH1 0x40 DUP3 ADD MLOAD PUSH2 0x1E93 PUSH1 0x40 DUP6 ADD DUP3 PUSH2 0x1DB8 JUMP JUMPDEST POP PUSH1 0x60 DUP3 ADD MLOAD PUSH2 0x1EA6 PUSH1 0x60 DUP6 ADD DUP3 PUSH2 0x1DB8 JUMP JUMPDEST POP PUSH1 0x80 DUP3 ADD MLOAD PUSH2 0x1EB9 PUSH1 0x80 DUP6 ADD DUP3 PUSH2 0x1E4A JUMP JUMPDEST POP POP POP POP JUMP JUMPDEST PUSH0 PUSH1 0xA0 DUP3 ADD SWAP1 POP PUSH2 0x1ED2 PUSH0 DUP4 ADD DUP5 PUSH2 0x1E59 JUMP JUMPDEST SWAP3 SWAP2 POP POP JUMP JUMPDEST PUSH0 DUP1 PUSH1 0x40 DUP4 DUP6 SUB SLT ISZERO PUSH2 0x1EEE JUMPI PUSH2 0x1EED PUSH2 0x1881 JUMP JUMPDEST JUMPDEST PUSH0 PUSH2 0x1EFB DUP6 DUP3 DUP7 ADD PUSH2 0x1B02 JUMP JUMPDEST SWAP3 POP POP PUSH1 0x20 PUSH2 0x1F0C DUP6 DUP3 DUP7 ADD PUSH2 0x1B02 JUMP JUMPDEST SWAP2 POP POP SWAP3 POP SWAP3 SWAP1 POP JUMP JUMPDEST PUSH0 DUP3 DUP3 MSTORE PUSH1 0x20 DUP3 ADD SWAP1 POP SWAP3 SWAP2 POP POP JUMP JUMPDEST PUSH32 0x416363657373436F6E74726F6C3A2063616E206F6E6C792072656E6F756E6365 PUSH0 DUP3 ADD MSTORE PUSH32 0x20726F6C657320666F722073656C660000000000000000000000000000000000 PUSH1 0x20 DUP3 ADD MSTORE POP JUMP JUMPDEST PUSH0 PUSH2 0x1F80 PUSH1 0x2F DUP4 PUSH2 0x1F16 JUMP JUMPDEST SWAP2 POP PUSH2 0x1F8B DUP3 PUSH2 0x1F26 JUMP JUMPDEST PUSH1 0x40 DUP3 ADD SWAP1 POP SWAP2 SWAP1 POP JUMP JUMPDEST PUSH0 PUSH1 0x20 DUP3 ADD SWAP1 POP DUP2 DUP2 SUB PUSH0 DUP4 ADD MSTORE PUSH2 0x1FAD DUP2 PUSH2 0x1F74 JUMP JUMPDEST SWAP1 POP SWAP2 SWAP1 POP JUMP JUMPDEST PUSH32 0x526563697069656E747320616E6420746F6B656E20616D6F756E7473206C656E PUSH0 DUP3 ADD MSTORE PUSH32 0x677468206D69736D617463680000000000000000000000000000000000000000 PUSH1 0x20 DUP3 ADD MSTORE POP JUMP JUMPDEST PUSH0 PUSH2 0x200E PUSH1 0x2C DUP4 PUSH2 0x1F16 JUMP JUMPDEST SWAP2 POP PUSH2 0x2019 DUP3 PUSH2 0x1FB4 JUMP JUMPDEST PUSH1 0x40 DUP3 ADD SWAP1 POP SWAP2 SWAP1 POP JUMP JUMPDEST PUSH0 PUSH1 0x20 DUP3 ADD SWAP1 POP DUP2 DUP2 SUB PUSH0 DUP4 ADD MSTORE PUSH2 0x203B DUP2 PUSH2 0x2002 JUMP JUMPDEST SWAP1 POP SWAP2 SWAP1 POP JUMP JUMPDEST PUSH32 0x4E487B7100000000000000000000000000000000000000000000000000000000 PUSH0 MSTORE PUSH1 0x32 PUSH1 0x4 MSTORE PUSH1 0x24 PUSH0 REVERT JUMPDEST PUSH2 0x2078 DUP2 PUSH2 0x1ADB JUMP JUMPDEST DUP3 MSTORE POP POP JUMP JUMPDEST PUSH0 PUSH1 0x40 DUP3 ADD SWAP1 POP PUSH2 0x2091 PUSH0 DUP4 ADD DUP6 PUSH2 0x206F JUMP JUMPDEST PUSH2 0x209E PUSH1 0x20 DUP4 ADD DUP5 PUSH2 0x1A2D JUMP JUMPDEST SWAP4 SWAP3 POP POP POP JUMP JUMPDEST PUSH32 0x4D696E74696E67206661696C656420666F7220726563697069656E7400000000 PUSH0 DUP3 ADD MSTORE POP JUMP JUMPDEST PUSH0 PUSH2 0x20D9 PUSH1 0x1C DUP4 PUSH2 0x1F16 JUMP JUMPDEST SWAP2 POP PUSH2 0x20E4 DUP3 PUSH2 0x20A5 JUMP JUMPDEST PUSH1 0x20 DUP3 ADD SWAP1 POP SWAP2 SWAP1 POP JUMP JUMPDEST PUSH0 PUSH1 0x20 DUP3 ADD SWAP1 POP DUP2 DUP2 SUB PUSH0 DUP4 ADD MSTORE PUSH2 0x2106 DUP2 PUSH2 0x20CD JUMP JUMPDEST SWAP1 POP SWAP2 SWAP1 POP JUMP JUMPDEST PUSH0 DUP3 DUP3 MSTORE PUSH1 0x20 DUP3 ADD SWAP1 POP SWAP3 SWAP2 POP POP JUMP JUMPDEST PUSH0 DUP2 SWAP1 POP SWAP2 SWAP1 POP JUMP JUMPDEST PUSH2 0x212F DUP2 PUSH2 0x1ADB JUMP JUMPDEST DUP3 MSTORE POP POP JUMP JUMPDEST PUSH0 PUSH2 0x2140 DUP4 DUP4 PUSH2 0x2126 JUMP JUMPDEST PUSH1 0x20 DUP4 ADD SWAP1 POP SWAP3 SWAP2 POP POP JUMP JUMPDEST PUSH0 PUSH2 0x215A PUSH1 0x20 DUP5 ADD DUP5 PUSH2 0x1B02 JUMP JUMPDEST SWAP1 POP SWAP3 SWAP2 POP POP JUMP JUMPDEST PUSH0 PUSH1 0x20 DUP3 ADD SWAP1 POP SWAP2 SWAP1 POP JUMP JUMPDEST PUSH0 PUSH2 0x2179 DUP4 DUP6 PUSH2 0x210D JUMP JUMPDEST SWAP4 POP PUSH2 0x2184 DUP3 PUSH2 0x211D JUMP JUMPDEST DUP1 PUSH0 JUMPDEST DUP6 DUP2 LT ISZERO PUSH2 0x21BC JUMPI PUSH2 0x2199 DUP3 DUP5 PUSH2 0x214C JUMP JUMPDEST PUSH2 0x21A3 DUP9 DUP3 PUSH2 0x2135 JUMP JUMPDEST SWAP8 POP PUSH2 0x21AE DUP4 PUSH2 0x2162 JUMP JUMPDEST SWAP3 POP POP PUSH1 0x1 DUP2 ADD SWAP1 POP PUSH2 0x2187 JUMP JUMPDEST POP DUP6 SWAP3 POP POP POP SWAP4 SWAP3 POP POP POP JUMP JUMPDEST PUSH0 DUP3 DUP3 MSTORE PUSH1 0x20 DUP3 ADD SWAP1 POP SWAP3 SWAP2 POP POP JUMP JUMPDEST PUSH0 DUP1 REVERT JUMPDEST DUP3 DUP2 DUP4 CALLDATACOPY POP POP POP JUMP JUMPDEST PUSH0 PUSH2 0x21F1 DUP4 DUP6 PUSH2 0x21C9 JUMP JUMPDEST SWAP4 POP PUSH32 0x7FFFFFFFFFFFFFFFFFFFFFFFFFFFFFFFFFFFFFFFFFFFFFFFFFFFFFFFFFFFFFF DUP4 GT ISZERO PUSH2 0x2224 JUMPI PUSH2 0x2223 PUSH2 0x21D9 JUMP JUMPDEST JUMPDEST PUSH1 0x20 DUP4 MUL SWAP3 POP PUSH2 0x2235 DUP4 DUP6 DUP5 PUSH2 0x21DD JUMP JUMPDEST DUP3 DUP5 ADD SWAP1 POP SWAP4 SWAP3 POP POP POP JUMP JUMPDEST PUSH0 PUSH1 0x40 DUP3 ADD SWAP1 POP DUP2 DUP2 SUB PUSH0 DUP4 ADD MSTORE PUSH2 0x225A DUP2 DUP7 DUP9 PUSH2 0x216E JUMP JUMPDEST SWAP1 POP DUP2 DUP2 SUB PUSH1 0x20 DUP4 ADD MSTORE PUSH2 0x226F DUP2 DUP5 DUP7 PUSH2 0x21E6 JUMP JUMPDEST SWAP1 POP SWAP6 SWAP5 POP POP POP POP POP JUMP JUMPDEST PUSH32 0x4D656D62657220646F6573206E6F742065786973740000000000000000000000 PUSH0 DUP3 ADD MSTORE POP JUMP JUMPDEST PUSH0 PUSH2 0x22AE PUSH1 0x15 DUP4 PUSH2 0x1F16 JUMP JUMPDEST SWAP2 POP PUSH2 0x22B9 DUP3 PUSH2 0x227A JUMP JUMPDEST PUSH1 0x20 DUP3 ADD SWAP1 POP SWAP2 SWAP1 POP JUMP JUMPDEST PUSH0 PUSH1 0x20 DUP3 ADD SWAP1 POP DUP2 DUP2 SUB PUSH0 DUP4 ADD MSTORE PUSH2 0x22DB DUP2 PUSH2 0x22A2 JUMP JUMPDEST SWAP1 POP SWAP2 SWAP1 POP JUMP JUMPDEST PUSH32 0x4D656D62657220616C7265616479207265676973746572656400000000000000 PUSH0 DUP3 ADD MSTORE POP JUMP JUMPDEST PUSH0 PUSH2 0x2316 PUSH1 0x19 DUP4 PUSH2 0x1F16 JUMP JUMPDEST SWAP2 POP PUSH2 0x2321 DUP3 PUSH2 0x22E2 JUMP JUMPDEST PUSH1 0x20 DUP3 ADD SWAP1 POP SWAP2 SWAP1 POP JUMP JUMPDEST PUSH0 PUSH1 0x20 DUP3 ADD SWAP1 POP DUP2 DUP2 SUB PUSH0 DUP4 ADD MSTORE PUSH2 0x2343 DUP2 PUSH2 0x230A JUMP JUMPDEST SWAP1 POP SWAP2 SWAP1 POP JUMP JUMPDEST PUSH0 PUSH1 0x40 DUP3 ADD SWAP1 POP PUSH2 0x235D PUSH0 DUP4 ADD DUP6 PUSH2 0x1A2D JUMP JUMPDEST PUSH2 0x236A PUSH1 0x20 DUP4 ADD DUP5 PUSH2 0x1A2D JUMP JUMPDEST SWAP4 SWAP3 POP POP POP JUMP JUMPDEST PUSH32 0x4368616C6C656E67652073636F726520646F6573206E6F742065786973740000 PUSH0 DUP3 ADD MSTORE POP JUMP JUMPDEST PUSH0 PUSH2 0x23A5 PUSH1 0x1E DUP4 PUSH2 0x1F16 JUMP JUMPDEST SWAP2 POP PUSH2 0x23B0 DUP3 PUSH2 0x2371 JUMP JUMPDEST PUSH1 0x20 DUP3 ADD SWAP1 POP SWAP2 SWAP1 POP JUMP JUMPDEST PUSH0 PUSH1 0x20 DUP3 ADD SWAP1 POP DUP2 DUP2 SUB PUSH0 DUP4 ADD MSTORE PUSH2 0x23D2 DUP2 PUSH2 0x2399 JUMP JUMPDEST SWAP1 POP SWAP2 SWAP1 POP JUMP JUMPDEST PUSH32 0x4368616C6C656E676520616C72656164792065786973747320666F7220746869 PUSH0 DUP3 ADD MSTORE PUSH32 0x73206D656D6265722C20646174652C20616E642067616D650000000000000000 PUSH1 0x20 DUP3 ADD MSTORE POP JUMP JUMPDEST PUSH0 PUSH2 0x2433 PUSH1 0x38 DUP4 PUSH2 0x1F16 JUMP JUMPDEST SWAP2 POP PUSH2 0x243E DUP3 PUSH2 0x23D9 JUMP JUMPDEST PUSH1 0x40 DUP3 ADD SWAP1 POP SWAP2 SWAP1 POP JUMP JUMPDEST PUSH0 PUSH1 0x20 DUP3 ADD SWAP1 POP DUP2 DUP2 SUB PUSH0 DUP4 ADD MSTORE PUSH2 0x2460 DUP2 PUSH2 0x2427 JUMP JUMPDEST SWAP1 POP SWAP2 SWAP1 POP JUMP JUMPDEST PUSH0 PUSH1 0x40 DUP3 ADD SWAP1 POP PUSH2 0x247A PUSH0 DUP4 ADD DUP6 PUSH2 0x206F JUMP JUMPDEST PUSH2 0x2487 PUSH1 0x20 DUP4 ADD DUP5 PUSH2 0x206F JUMP JUMPDEST SWAP4 SWAP3 POP POP POP JUMP JUMPDEST PUSH0 DUP2 MLOAD SWAP1 POP PUSH2 0x249C DUP2 PUSH2 0x19D8 JUMP JUMPDEST SWAP3 SWAP2 POP POP JUMP JUMPDEST PUSH0 PUSH1 0x20 DUP3 DUP5 SUB SLT ISZERO PUSH2 0x24B7 JUMPI PUSH2 0x24B6 PUSH2 0x1881 JUMP JUMPDEST JUMPDEST PUSH0 PUSH2 0x24C4 DUP5 DUP3 DUP6 ADD PUSH2 0x248E JUMP JUMPDEST SWAP2 POP POP SWAP3 SWAP2 POP POP JUMP JUMPDEST PUSH32 0x496E73756666696369656E7420746F6B656E20616C6C6F77616E636500000000 PUSH0 DUP3 ADD MSTORE POP JUMP JUMPDEST PUSH0 PUSH2 0x2501 PUSH1 0x1C DUP4 PUSH2 0x1F16 JUMP JUMPDEST SWAP2 POP PUSH2 0x250C DUP3 PUSH2 0x24CD JUMP JUMPDEST PUSH1 0x20 DUP3 ADD SWAP1 POP SWAP2 SWAP1 POP JUMP JUMPDEST PUSH0 PUSH1 0x20 DUP3 ADD SWAP1 POP DUP2 DUP2 SUB PUSH0 DUP4 ADD MSTORE PUSH2 0x252E DUP2 PUSH2 0x24F5 JUMP JUMPDEST SWAP1 POP SWAP2 SWAP1 POP JUMP JUMPDEST PUSH0 PUSH1 0x20 DUP3 ADD SWAP1 POP PUSH2 0x2548 PUSH0 DUP4 ADD DUP5 PUSH2 0x206F JUMP JUMPDEST SWAP3 SWAP2 POP POP JUMP JUMPDEST PUSH32 0x496E73756666696369656E7420746F6B656E2062616C616E6365000000000000 PUSH0 DUP3 ADD MSTORE POP JUMP JUMPDEST PUSH0 PUSH2 0x2582 PUSH1 0x1A DUP4 PUSH2 0x1F16 JUMP JUMPDEST SWAP2 POP PUSH2 0x258D DUP3 PUSH2 0x254E JUMP JUMPDEST PUSH1 0x20 DUP3 ADD SWAP1 POP SWAP2 SWAP1 POP JUMP JUMPDEST PUSH0 PUSH1 0x20 DUP3 ADD SWAP1 POP DUP2 DUP2 SUB PUSH0 DUP4 ADD MSTORE PUSH2 0x25AF DUP2 PUSH2 0x2576 JUMP JUMPDEST SWAP1 POP SWAP2 SWAP1 POP JUMP JUMPDEST PUSH0 PUSH1 0x60 DUP3 ADD SWAP1 POP PUSH2 0x25C9 PUSH0 DUP4 ADD DUP7 PUSH2 0x206F JUMP JUMPDEST PUSH2 0x25D6 PUSH1 0x20 DUP4 ADD DUP6 PUSH2 0x206F JUMP JUMPDEST PUSH2 0x25E3 PUSH1 0x40 DUP4 ADD DUP5 PUSH2 0x1A2D JUMP JUMPDEST SWAP5 SWAP4 POP POP POP POP JUMP JUMPDEST PUSH2 0x25F4 DUP2 PUSH2 0x1909 JUMP JUMPDEST DUP2 EQ PUSH2 0x25FE JUMPI PUSH0 DUP1 REVERT JUMPDEST POP JUMP JUMPDEST PUSH0 DUP2 MLOAD SWAP1 POP PUSH2 0x260F DUP2 PUSH2 0x25EB JUMP JUMPDEST SWAP3 SWAP2 POP POP JUMP JUMPDEST PUSH0 PUSH1 0x20 DUP3 DUP5 SUB SLT ISZERO PUSH2 0x262A JUMPI PUSH2 0x2629 PUSH2 0x1881 JUMP JUMPDEST JUMPDEST PUSH0 PUSH2 0x2637 DUP5 DUP3 DUP6 ADD PUSH2 0x2601 JUMP JUMPDEST SWAP2 POP POP SWAP3 SWAP2 POP POP JUMP JUMPDEST PUSH32 0x546F6B656E207472616E73666572206661696C65640000000000000000000000 PUSH0 DUP3 ADD MSTORE POP JUMP JUMPDEST PUSH0 PUSH2 0x2674 PUSH1 0x15 DUP4 PUSH2 0x1F16 JUMP JUMPDEST SWAP2 POP PUSH2 0x267F DUP3 PUSH2 0x2640 JUMP JUMPDEST PUSH1 0x20 DUP3 ADD SWAP1 POP SWAP2 SWAP1 POP JUMP JUMPDEST PUSH0 PUSH1 0x20 DUP3 ADD SWAP1 POP DUP2 DUP2 SUB PUSH0 DUP4 ADD MSTORE PUSH2 0x26A1 DUP2 PUSH2 0x2668 JUMP JUMPDEST SWAP1 POP SWAP2 SWAP1 POP JUMP JUMPDEST PUSH32 0x4368616C6C656E676520646F6573206E6F742065786973740000000000000000 PUSH0 DUP3 ADD MSTORE POP JUMP JUMPDEST PUSH0 PUSH2 0x26DC PUSH1 0x18 DUP4 PUSH2 0x1F16 JUMP JUMPDEST SWAP2 POP PUSH2 0x26E7 DUP3 PUSH2 0x26A8 JUMP JUMPDEST PUSH1 0x20 DUP3 ADD SWAP1 POP SWAP2 SWAP1 POP JUMP JUMPDEST PUSH0 PUSH1 0x20 DUP3 ADD SWAP1 POP DUP2 DUP2 SUB PUSH0 DUP4 ADD MSTORE PUSH2 0x2709 DUP2 PUSH2 0x26D0 JUMP JUMPDEST SWAP1 POP SWAP2 SWAP1 POP JUMP JUMPDEST PUSH0 DUP2 SWAP1 POP SWAP3 SWAP2 POP POP JUMP JUMPDEST PUSH32 0x416363657373436F6E74726F6C3A206163636F756E7420000000000000000000 PUSH0 DUP3 ADD MSTORE POP JUMP JUMPDEST PUSH0 PUSH2 0x274E PUSH1 0x17 DUP4 PUSH2 0x2710 JUMP JUMPDEST SWAP2 POP PUSH2 0x2759 DUP3 PUSH2 0x271A JUMP JUMPDEST PUSH1 0x17 DUP3 ADD SWAP1 POP SWAP2 SWAP1 POP JUMP JUMPDEST PUSH0 DUP2 MLOAD SWAP1 POP SWAP2 SWAP1 POP JUMP JUMPDEST DUP3 DUP2 DUP4 MCOPY PUSH0 DUP4 DUP4 ADD MSTORE POP POP POP JUMP JUMPDEST PUSH0 PUSH2 0x2786 DUP3 PUSH2 0x2764 JUMP JUMPDEST PUSH2 0x2790 DUP2 DUP6 PUSH2 0x2710 JUMP JUMPDEST SWAP4 POP PUSH2 0x27A0 DUP2 DUP6 PUSH1 0x20 DUP7 ADD PUSH2 0x276E JUMP JUMPDEST DUP1 DUP5 ADD SWAP2 POP POP SWAP3 SWAP2 POP POP JUMP JUMPDEST PUSH32 0x206973206D697373696E6720726F6C6520000000000000000000000000000000 PUSH0 DUP3 ADD MSTORE POP JUMP JUMPDEST PUSH0 PUSH2 0x27E0 PUSH1 0x11 DUP4 PUSH2 0x2710 JUMP JUMPDEST SWAP2 POP PUSH2 0x27EB DUP3 PUSH2 0x27AC JUMP JUMPDEST PUSH1 0x11 DUP3 ADD SWAP1 POP SWAP2 SWAP1 POP JUMP JUMPDEST PUSH0 PUSH2 0x2800 DUP3 PUSH2 0x2742 JUMP JUMPDEST SWAP2 POP PUSH2 0x280C DUP3 DUP6 PUSH2 0x277C JUMP JUMPDEST SWAP2 POP PUSH2 0x2817 DUP3 PUSH2 0x27D4 JUMP JUMPDEST SWAP2 POP PUSH2 0x2823 DUP3 DUP5 PUSH2 0x277C JUMP JUMPDEST SWAP2 POP DUP2 SWAP1 POP SWAP4 SWAP3 POP POP POP JUMP JUMPDEST PUSH0 PUSH1 0x1F NOT PUSH1 0x1F DUP4 ADD AND SWAP1 POP SWAP2 SWAP1 POP JUMP JUMPDEST PUSH0 PUSH2 0x2849 DUP3 PUSH2 0x2764 JUMP JUMPDEST PUSH2 0x2853 DUP2 DUP6 PUSH2 0x1F16 JUMP JUMPDEST SWAP4 POP PUSH2 0x2863 DUP2 DUP6 PUSH1 0x20 DUP7 ADD PUSH2 0x276E JUMP JUMPDEST PUSH2 0x286C DUP2 PUSH2 0x282F JUMP JUMPDEST DUP5 ADD SWAP2 POP POP SWAP3 SWAP2 POP POP JUMP JUMPDEST PUSH0 PUSH1 0x20 DUP3 ADD SWAP1 POP DUP2 DUP2 SUB PUSH0 DUP4 ADD MSTORE PUSH2 0x288F DUP2 DUP5 PUSH2 0x283F JUMP JUMPDEST SWAP1 POP SWAP3 SWAP2 POP POP JUMP JUMPDEST PUSH32 0x4E487B7100000000000000000000000000000000000000000000000000000000 PUSH0 MSTORE PUSH1 0x11 PUSH1 0x4 MSTORE PUSH1 0x24 PUSH0 REVERT JUMPDEST PUSH0 PUSH2 0x28CE DUP3 PUSH2 0x19CF JUMP JUMPDEST SWAP2 POP PUSH2 0x28D9 DUP4 PUSH2 0x19CF JUMP JUMPDEST SWAP3 POP DUP3 DUP3 MUL PUSH2 0x28E7 DUP2 PUSH2 0x19CF JUMP JUMPDEST SWAP2 POP DUP3 DUP3 DIV DUP5 EQ DUP4 ISZERO OR PUSH2 0x28FE JUMPI PUSH2 0x28FD PUSH2 0x2897 JUMP JUMPDEST JUMPDEST POP SWAP3 SWAP2 POP POP JUMP JUMPDEST PUSH0 PUSH2 0x290F DUP3 PUSH2 0x19CF JUMP JUMPDEST SWAP2 POP PUSH2 0x291A DUP4 PUSH2 0x19CF JUMP JUMPDEST SWAP3 POP DUP3 DUP3 ADD SWAP1 POP DUP1 DUP3 GT ISZERO PUSH2 0x2932 JUMPI PUSH2 0x2931 PUSH2 0x2897 JUMP JUMPDEST JUMPDEST SWAP3 SWAP2 POP POP JUMP JUMPDEST PUSH32 0x4E487B7100000000000000000000000000000000000000000000000000000000 PUSH0 MSTORE PUSH1 0x41 PUSH1 0x4 MSTORE PUSH1 0x24 PUSH0 REVERT JUMPDEST PUSH0 PUSH2 0x296F DUP3 PUSH2 0x19CF JUMP JUMPDEST SWAP2 POP PUSH0 DUP3 SUB PUSH2 0x2981 JUMPI PUSH2 0x2980 PUSH2 0x2897 JUMP JUMPDEST JUMPDEST PUSH1 0x1 DUP3 SUB SWAP1 POP SWAP2 SWAP1 POP JUMP JUMPDEST PUSH32 0x537472696E67733A20686578206C656E67746820696E73756666696369656E74 PUSH0 DUP3 ADD MSTORE POP JUMP JUMPDEST PUSH0 PUSH2 0x29C0 PUSH1 0x20 DUP4 PUSH2 0x1F16 JUMP JUMPDEST SWAP2 POP PUSH2 0x29CB DUP3 PUSH2 0x298C JUMP JUMPDEST PUSH1 0x20 DUP3 ADD SWAP1 POP SWAP2 SWAP1 POP JUMP JUMPDEST PUSH0 PUSH1 0x20 DUP3 ADD SWAP1 POP DUP2 DUP2 SUB PUSH0 DUP4 ADD MSTORE PUSH2 0x29ED DUP2 PUSH2 0x29B4 JUMP JUMPDEST SWAP1 POP SWAP2 SWAP1 POP JUMP INVALID LOG2 PUSH5 0x6970667358 0x22 SLT KECCAK256 MSIZE NUMBER 0xD8 ISZERO 0xDB 0xE1 0xEC PUSH29 0xB165C80C50455A9C069EB5A03DCDAFF5C6FBB957B63937E664736F6C63 NUMBER STOP ADDMOD BYTE STOP CALLER "
				},
				"gasEstimates": {
					"creation": {
						"codeDepositCost": "2158800",
						"executionCost": "infinite",
						"totalCost": "infinite"
					},
					"external": {
						"ADMIN_ROLE()": "414",
						"DEFAULT_ADMIN_ROLE()": "375",
						"challengeRegister(uint256,uint256,uint256,uint256)": "infinite",
						"challengeScores(uint256,uint256,uint256)": "infinite",
						"distributePrizes(address[],uint256[])": "infinite",
						"entToken()": "infinite",
						"getChallengeScore(uint256,uint256,uint256)": "infinite",
						"getMemberInfo(uint256)": "infinite",
						"getRoleAdmin(bytes32)": "infinite",
						"grantAdminRole(address)": "infinite",
						"grantRole(bytes32,address)": "infinite",
						"hasRole(bytes32,address)": "3255",
						"memberIds(uint256)": "infinite",
						"memberInfos(uint256)": "infinite",
						"memberRegister(uint256,address,uint256)": "infinite",
						"rankScoreUpdateChallenge(uint256,uint256,uint256,uint256)": "infinite",
						"rankScoreUpdateNormal(uint256,uint256,uint256,uint256)": "infinite",
						"renounceRole(bytes32,address)": "infinite",
						"revokeAdminRole(address)": "infinite",
						"revokeRole(bytes32,address)": "infinite",
						"rptToken()": "infinite",
						"setTokens(address,address)": "infinite",
						"supportsInterface(bytes4)": "741"
					}
				},
				"methodIdentifiers": {
					"ADMIN_ROLE()": "75b238fc",
					"DEFAULT_ADMIN_ROLE()": "a217fddf",
					"challengeRegister(uint256,uint256,uint256,uint256)": "ca1c996f",
					"challengeScores(uint256,uint256,uint256)": "355b9d3f",
					"distributePrizes(address[],uint256[])": "406a378a",
					"entToken()": "dd0c8082",
					"getChallengeScore(uint256,uint256,uint256)": "b5b0e48a",
					"getMemberInfo(uint256)": "ae99aa3c",
					"getRoleAdmin(bytes32)": "248a9ca3",
					"grantAdminRole(address)": "c634b78e",
					"grantRole(bytes32,address)": "2f2ff15d",
					"hasRole(bytes32,address)": "91d14854",
					"memberIds(uint256)": "1fd3c85b",
					"memberInfos(uint256)": "bb10ab0f",
					"memberRegister(uint256,address,uint256)": "aea08734",
					"rankScoreUpdateChallenge(uint256,uint256,uint256,uint256)": "dd7d2b9f",
					"rankScoreUpdateNormal(uint256,uint256,uint256,uint256)": "8525ea16",
					"renounceRole(bytes32,address)": "36568abe",
					"revokeAdminRole(address)": "9a19c7b0",
					"revokeRole(bytes32,address)": "d547741f",
					"rptToken()": "1b72fa3a",
					"setTokens(address,address)": "cbc7854e",
					"supportsInterface(bytes4)": "01ffc9a7"
				}
			},
			"storageLayout": {
				"storage": [
					{
						"astId": 548,
						"contract": "contracts/v2/TikTrixEscrow.sol:TikTrixEscrow",
						"label": "_roles",
						"offset": 0,
						"slot": "0",
						"type": "t_mapping(t_bytes32,t_struct(RoleData)543_storage)"
					},
					{
						"astId": 23,
						"contract": "contracts/v2/TikTrixEscrow.sol:TikTrixEscrow",
						"label": "entToken",
						"offset": 0,
						"slot": "1",
						"type": "t_contract(IERC20Mintable)13"
					},
					{
						"astId": 26,
						"contract": "contracts/v2/TikTrixEscrow.sol:TikTrixEscrow",
						"label": "rptToken",
						"offset": 0,
						"slot": "2",
						"type": "t_contract(IERC20Mintable)13"
					},
					{
						"astId": 45,
						"contract": "contracts/v2/TikTrixEscrow.sol:TikTrixEscrow",
						"label": "memberInfos",
						"offset": 0,
						"slot": "3",
						"type": "t_mapping(t_uint256,t_struct(MemberInfo)29_storage)"
					},
					{
						"astId": 48,
						"contract": "contracts/v2/TikTrixEscrow.sol:TikTrixEscrow",
						"label": "memberIds",
						"offset": 0,
						"slot": "4",
						"type": "t_array(t_uint256)dyn_storage"
					},
					{
						"astId": 57,
						"contract": "contracts/v2/TikTrixEscrow.sol:TikTrixEscrow",
						"label": "challengeScores",
						"offset": 0,
						"slot": "5",
						"type": "t_mapping(t_uint256,t_mapping(t_uint256,t_mapping(t_uint256,t_struct(ChallengeScore)40_storage)))"
					}
				],
				"types": {
					"t_address": {
						"encoding": "inplace",
						"label": "address",
						"numberOfBytes": "20"
					},
					"t_array(t_uint256)dyn_storage": {
						"base": "t_uint256",
						"encoding": "dynamic_array",
						"label": "uint256[]",
						"numberOfBytes": "32"
					},
					"t_bool": {
						"encoding": "inplace",
						"label": "bool",
						"numberOfBytes": "1"
					},
					"t_bytes32": {
						"encoding": "inplace",
						"label": "bytes32",
						"numberOfBytes": "32"
					},
					"t_contract(IERC20Mintable)13": {
						"encoding": "inplace",
						"label": "contract IERC20Mintable",
						"numberOfBytes": "20"
					},
					"t_mapping(t_address,t_bool)": {
						"encoding": "mapping",
						"key": "t_address",
						"label": "mapping(address => bool)",
						"numberOfBytes": "32",
						"value": "t_bool"
					},
					"t_mapping(t_bytes32,t_struct(RoleData)543_storage)": {
						"encoding": "mapping",
						"key": "t_bytes32",
						"label": "mapping(bytes32 => struct AccessControl.RoleData)",
						"numberOfBytes": "32",
						"value": "t_struct(RoleData)543_storage"
					},
					"t_mapping(t_uint256,t_mapping(t_uint256,t_mapping(t_uint256,t_struct(ChallengeScore)40_storage)))": {
						"encoding": "mapping",
						"key": "t_uint256",
						"label": "mapping(uint256 => mapping(uint256 => mapping(uint256 => struct TikTrixEscrow.ChallengeScore)))",
						"numberOfBytes": "32",
						"value": "t_mapping(t_uint256,t_mapping(t_uint256,t_struct(ChallengeScore)40_storage))"
					},
					"t_mapping(t_uint256,t_mapping(t_uint256,t_struct(ChallengeScore)40_storage))": {
						"encoding": "mapping",
						"key": "t_uint256",
						"label": "mapping(uint256 => mapping(uint256 => struct TikTrixEscrow.ChallengeScore))",
						"numberOfBytes": "32",
						"value": "t_mapping(t_uint256,t_struct(ChallengeScore)40_storage)"
					},
					"t_mapping(t_uint256,t_struct(ChallengeScore)40_storage)": {
						"encoding": "mapping",
						"key": "t_uint256",
						"label": "mapping(uint256 => struct TikTrixEscrow.ChallengeScore)",
						"numberOfBytes": "32",
						"value": "t_struct(ChallengeScore)40_storage"
					},
					"t_mapping(t_uint256,t_struct(MemberInfo)29_storage)": {
						"encoding": "mapping",
						"key": "t_uint256",
						"label": "mapping(uint256 => struct TikTrixEscrow.MemberInfo)",
						"numberOfBytes": "32",
						"value": "t_struct(MemberInfo)29_storage"
					},
					"t_struct(ChallengeScore)40_storage": {
						"encoding": "inplace",
						"label": "struct TikTrixEscrow.ChallengeScore",
						"members": [
							{
								"astId": 31,
								"contract": "contracts/v2/TikTrixEscrow.sol:TikTrixEscrow",
								"label": "gameSeq",
								"offset": 0,
								"slot": "0",
								"type": "t_uint256"
							},
							{
								"astId": 33,
								"contract": "contracts/v2/TikTrixEscrow.sol:TikTrixEscrow",
								"label": "memberSeq",
								"offset": 0,
								"slot": "1",
								"type": "t_uint256"
							},
							{
								"astId": 35,
								"contract": "contracts/v2/TikTrixEscrow.sol:TikTrixEscrow",
								"label": "tokenAmount",
								"offset": 0,
								"slot": "2",
								"type": "t_uint256"
							},
							{
								"astId": 37,
								"contract": "contracts/v2/TikTrixEscrow.sol:TikTrixEscrow",
								"label": "score",
								"offset": 0,
								"slot": "3",
								"type": "t_uint256"
							},
							{
								"astId": 39,
								"contract": "contracts/v2/TikTrixEscrow.sol:TikTrixEscrow",
								"label": "exists",
								"offset": 0,
								"slot": "4",
								"type": "t_bool"
							}
						],
						"numberOfBytes": "160"
					},
					"t_struct(MemberInfo)29_storage": {
						"encoding": "inplace",
						"label": "struct TikTrixEscrow.MemberInfo",
						"members": [
							{
								"astId": 28,
								"contract": "contracts/v2/TikTrixEscrow.sol:TikTrixEscrow",
								"label": "memberSeq",
								"offset": 0,
								"slot": "0",
								"type": "t_uint256"
							}
						],
						"numberOfBytes": "32"
					},
					"t_struct(RoleData)543_storage": {
						"encoding": "inplace",
						"label": "struct AccessControl.RoleData",
						"members": [
							{
								"astId": 540,
								"contract": "contracts/v2/TikTrixEscrow.sol:TikTrixEscrow",
								"label": "members",
								"offset": 0,
								"slot": "0",
								"type": "t_mapping(t_address,t_bool)"
							},
							{
								"astId": 542,
								"contract": "contracts/v2/TikTrixEscrow.sol:TikTrixEscrow",
								"label": "adminRole",
								"offset": 0,
								"slot": "1",
								"type": "t_bytes32"
							}
						],
						"numberOfBytes": "64"
					},
					"t_uint256": {
						"encoding": "inplace",
						"label": "uint256",
						"numberOfBytes": "32"
					}
				}
			},
			"userdoc": {
				"kind": "user",
				"methods": {},
				"version": 1
			}
		}
	}
}