{
	"contracts/v2/TikTrixEscrow.sol": {
		"TikTrixEscrow": {
			"abi": [
				{
					"inputs": [
						{
							"internalType": "address",
							"name": "entTokenAddress",
							"type": "address"
						},
						{
							"internalType": "address",
							"name": "rptTokenAddress",
							"type": "address"
						}
					],
					"stateMutability": "nonpayable",
					"type": "constructor"
				},
				{
					"anonymous": false,
					"inputs": [
						{
							"indexed": true,
							"internalType": "uint256",
							"name": "yyyymmdd",
							"type": "uint256"
						},
						{
							"indexed": true,
							"internalType": "uint256",
							"name": "gameSeq",
							"type": "uint256"
						},
						{
							"indexed": true,
							"internalType": "uint256",
							"name": "memberSeq",
							"type": "uint256"
						},
						{
							"indexed": false,
							"internalType": "uint256",
							"name": "tokenAmount",
							"type": "uint256"
						}
					],
					"name": "ChallengeRegistred",
					"type": "event"
				},
				{
					"anonymous": false,
					"inputs": [
						{
							"indexed": false,
							"internalType": "uint256",
							"name": "memberSeq",
							"type": "uint256"
						},
						{
							"indexed": false,
							"internalType": "uint256",
							"name": "tokenAmount",
							"type": "uint256"
						}
					],
					"name": "MemberRegistered",
					"type": "event"
				},
				{
					"anonymous": false,
					"inputs": [
						{
							"indexed": false,
							"internalType": "address[]",
							"name": "recipients",
							"type": "address[]"
						},
						{
							"indexed": false,
							"internalType": "uint256[]",
							"name": "tokenAmounts",
							"type": "uint256[]"
						}
					],
					"name": "PrizesDistributed",
					"type": "event"
				},
				{
					"anonymous": false,
					"inputs": [
						{
							"indexed": true,
							"internalType": "uint256",
							"name": "yyyymmdd",
							"type": "uint256"
						},
						{
							"indexed": true,
							"internalType": "uint256",
							"name": "gameSeq",
							"type": "uint256"
						},
						{
							"indexed": true,
							"internalType": "uint256",
							"name": "memberSeq",
							"type": "uint256"
						},
						{
							"indexed": false,
							"internalType": "uint256",
							"name": "newScore",
							"type": "uint256"
						}
					],
					"name": "RankScoreUpdateChallenge",
					"type": "event"
				},
				{
					"anonymous": false,
					"inputs": [
						{
							"indexed": true,
							"internalType": "uint256",
							"name": "yyyymmdd",
							"type": "uint256"
						},
						{
							"indexed": true,
							"internalType": "uint256",
							"name": "gameSeq",
							"type": "uint256"
						},
						{
							"indexed": true,
							"internalType": "uint256",
							"name": "memberSeq",
							"type": "uint256"
						},
						{
							"indexed": false,
							"internalType": "uint256",
							"name": "newScore",
							"type": "uint256"
						}
					],
					"name": "RankScoreUpdateNoraml",
					"type": "event"
				},
				{
					"anonymous": false,
					"inputs": [
						{
							"indexed": true,
							"internalType": "bytes32",
							"name": "role",
							"type": "bytes32"
						},
						{
							"indexed": true,
							"internalType": "bytes32",
							"name": "previousAdminRole",
							"type": "bytes32"
						},
						{
							"indexed": true,
							"internalType": "bytes32",
							"name": "newAdminRole",
							"type": "bytes32"
						}
					],
					"name": "RoleAdminChanged",
					"type": "event"
				},
				{
					"anonymous": false,
					"inputs": [
						{
							"indexed": true,
							"internalType": "bytes32",
							"name": "role",
							"type": "bytes32"
						},
						{
							"indexed": true,
							"internalType": "address",
							"name": "account",
							"type": "address"
						},
						{
							"indexed": true,
							"internalType": "address",
							"name": "sender",
							"type": "address"
						}
					],
					"name": "RoleGranted",
					"type": "event"
				},
				{
					"anonymous": false,
					"inputs": [
						{
							"indexed": true,
							"internalType": "bytes32",
							"name": "role",
							"type": "bytes32"
						},
						{
							"indexed": true,
							"internalType": "address",
							"name": "account",
							"type": "address"
						},
						{
							"indexed": true,
							"internalType": "address",
							"name": "sender",
							"type": "address"
						}
					],
					"name": "RoleRevoked",
					"type": "event"
				},
				{
					"inputs": [],
					"name": "ADMIN_ROLE",
					"outputs": [
						{
							"internalType": "bytes32",
							"name": "",
							"type": "bytes32"
						}
					],
					"stateMutability": "view",
					"type": "function"
				},
				{
					"inputs": [],
					"name": "DEFAULT_ADMIN_ROLE",
					"outputs": [
						{
							"internalType": "bytes32",
							"name": "",
							"type": "bytes32"
						}
					],
					"stateMutability": "view",
					"type": "function"
				},
				{
					"inputs": [
						{
							"internalType": "uint256",
							"name": "yyyymmdd",
							"type": "uint256"
						},
						{
							"internalType": "uint256",
							"name": "gameSeq",
							"type": "uint256"
						},
						{
							"internalType": "uint256",
							"name": "memberSeq",
							"type": "uint256"
						},
						{
							"internalType": "uint256",
							"name": "tokenAmount",
							"type": "uint256"
						}
					],
					"name": "challengeRegister",
					"outputs": [],
					"stateMutability": "nonpayable",
					"type": "function"
				},
				{
					"inputs": [
						{
							"internalType": "uint256",
							"name": "",
							"type": "uint256"
						},
						{
							"internalType": "uint256",
							"name": "",
							"type": "uint256"
						},
						{
							"internalType": "uint256",
							"name": "",
							"type": "uint256"
						}
					],
					"name": "challengeScores",
					"outputs": [
						{
							"internalType": "uint256",
							"name": "gameSeq",
							"type": "uint256"
						},
						{
							"internalType": "uint256",
							"name": "memberSeq",
							"type": "uint256"
						},
						{
							"internalType": "uint256",
							"name": "tokenAmount",
							"type": "uint256"
						},
						{
							"internalType": "uint256",
							"name": "score",
							"type": "uint256"
						},
						{
							"internalType": "bool",
							"name": "exists",
							"type": "bool"
						}
					],
					"stateMutability": "view",
					"type": "function"
				},
				{
					"inputs": [
						{
							"internalType": "address[]",
							"name": "recipients",
							"type": "address[]"
						},
						{
							"internalType": "uint256[]",
							"name": "tokenAmounts",
							"type": "uint256[]"
						}
					],
					"name": "distributePrizes",
					"outputs": [],
					"stateMutability": "nonpayable",
					"type": "function"
				},
				{
					"inputs": [],
					"name": "entToken",
					"outputs": [
						{
							"internalType": "contract IERC20Mintable",
							"name": "",
							"type": "address"
						}
					],
					"stateMutability": "view",
					"type": "function"
				},
				{
					"inputs": [
						{
							"internalType": "uint256",
							"name": "memberSeq",
							"type": "uint256"
						}
					],
					"name": "getMemberInfo",
					"outputs": [
						{
							"components": [
								{
									"internalType": "uint256",
									"name": "memberSeq",
									"type": "uint256"
								}
							],
							"internalType": "struct TikTrixEscrow.MemberInfo",
							"name": "",
							"type": "tuple"
						}
					],
					"stateMutability": "view",
					"type": "function"
				},
				{
					"inputs": [
						{
							"internalType": "bytes32",
							"name": "role",
							"type": "bytes32"
						}
					],
					"name": "getRoleAdmin",
					"outputs": [
						{
							"internalType": "bytes32",
							"name": "",
							"type": "bytes32"
						}
					],
					"stateMutability": "view",
					"type": "function"
				},
				{
					"inputs": [
						{
							"internalType": "address",
							"name": "account",
							"type": "address"
						}
					],
					"name": "grantAdminRole",
					"outputs": [],
					"stateMutability": "nonpayable",
					"type": "function"
				},
				{
					"inputs": [
						{
							"internalType": "bytes32",
							"name": "role",
							"type": "bytes32"
						},
						{
							"internalType": "address",
							"name": "account",
							"type": "address"
						}
					],
					"name": "grantRole",
					"outputs": [],
					"stateMutability": "nonpayable",
					"type": "function"
				},
				{
					"inputs": [
						{
							"internalType": "bytes32",
							"name": "role",
							"type": "bytes32"
						},
						{
							"internalType": "address",
							"name": "account",
							"type": "address"
						}
					],
					"name": "hasRole",
					"outputs": [
						{
							"internalType": "bool",
							"name": "",
							"type": "bool"
						}
					],
					"stateMutability": "view",
					"type": "function"
				},
				{
					"inputs": [
						{
							"internalType": "uint256",
							"name": "",
							"type": "uint256"
						}
					],
					"name": "memberInfos",
					"outputs": [
						{
							"internalType": "uint256",
							"name": "memberSeq",
							"type": "uint256"
						}
					],
					"stateMutability": "view",
					"type": "function"
				},
				{
					"inputs": [
						{
							"internalType": "uint256",
							"name": "memberSeq",
							"type": "uint256"
						},
						{
							"internalType": "address",
							"name": "mintAddress",
							"type": "address"
						},
						{
							"internalType": "uint256",
							"name": "tokenAmount",
							"type": "uint256"
						}
					],
					"name": "memberRegister",
					"outputs": [],
					"stateMutability": "nonpayable",
					"type": "function"
				},
				{
					"inputs": [
						{
							"internalType": "uint256",
							"name": "",
							"type": "uint256"
						},
						{
							"internalType": "uint256",
							"name": "",
							"type": "uint256"
						},
						{
							"internalType": "uint256",
							"name": "",
							"type": "uint256"
						}
					],
					"name": "normalScores",
					"outputs": [
						{
							"internalType": "uint256",
							"name": "gameSeq",
							"type": "uint256"
						},
						{
							"internalType": "uint256",
							"name": "memberSeq",
							"type": "uint256"
						},
						{
							"internalType": "uint256",
							"name": "score",
							"type": "uint256"
						},
						{
							"internalType": "bool",
							"name": "exists",
							"type": "bool"
						}
					],
					"stateMutability": "view",
					"type": "function"
				},
				{
					"inputs": [
						{
							"internalType": "uint256",
							"name": "yyyymmdd",
							"type": "uint256"
						},
						{
							"internalType": "uint256",
							"name": "gameSeq",
							"type": "uint256"
						},
						{
							"internalType": "uint256",
							"name": "memberSeq",
							"type": "uint256"
						},
						{
							"internalType": "uint256",
							"name": "newScore",
							"type": "uint256"
						}
					],
					"name": "rankScoreUpdateChallenge",
					"outputs": [],
					"stateMutability": "nonpayable",
					"type": "function"
				},
				{
					"inputs": [
						{
							"internalType": "uint256",
							"name": "yyyymmdd",
							"type": "uint256"
						},
						{
							"internalType": "uint256",
							"name": "gameSeq",
							"type": "uint256"
						},
						{
							"internalType": "uint256",
							"name": "memberSeq",
							"type": "uint256"
						},
						{
							"internalType": "uint256",
							"name": "newScore",
							"type": "uint256"
						}
					],
					"name": "rankScoreUpdateNormal",
					"outputs": [],
					"stateMutability": "nonpayable",
					"type": "function"
				},
				{
					"inputs": [
						{
							"internalType": "bytes32",
							"name": "role",
							"type": "bytes32"
						},
						{
							"internalType": "address",
							"name": "account",
							"type": "address"
						}
					],
					"name": "renounceRole",
					"outputs": [],
					"stateMutability": "nonpayable",
					"type": "function"
				},
				{
					"inputs": [
						{
							"internalType": "address",
							"name": "account",
							"type": "address"
						}
					],
					"name": "revokeAdminRole",
					"outputs": [],
					"stateMutability": "nonpayable",
					"type": "function"
				},
				{
					"inputs": [
						{
							"internalType": "bytes32",
							"name": "role",
							"type": "bytes32"
						},
						{
							"internalType": "address",
							"name": "account",
							"type": "address"
						}
					],
					"name": "revokeRole",
					"outputs": [],
					"stateMutability": "nonpayable",
					"type": "function"
				},
				{
					"inputs": [],
					"name": "rptToken",
					"outputs": [
						{
							"internalType": "contract IERC20Mintable",
							"name": "",
							"type": "address"
						}
					],
					"stateMutability": "view",
					"type": "function"
				},
				{
					"inputs": [
						{
							"internalType": "address",
							"name": "entTokenAddress",
							"type": "address"
						},
						{
							"internalType": "address",
							"name": "rptTokenAddress",
							"type": "address"
						}
					],
					"name": "setTokens",
					"outputs": [],
					"stateMutability": "nonpayable",
					"type": "function"
				},
				{
					"inputs": [
						{
							"internalType": "bytes4",
							"name": "interfaceId",
							"type": "bytes4"
						}
					],
					"name": "supportsInterface",
					"outputs": [
						{
							"internalType": "bool",
							"name": "",
							"type": "bool"
						}
					],
					"stateMutability": "view",
					"type": "function"
				}
			],
			"devdoc": {
				"events": {
					"RoleAdminChanged(bytes32,bytes32,bytes32)": {
						"details": "Emitted when `newAdminRole` is set as ``role``'s admin role, replacing `previousAdminRole` `DEFAULT_ADMIN_ROLE` is the starting admin for all roles, despite {RoleAdminChanged} not being emitted signaling this. _Available since v3.1._"
					},
					"RoleGranted(bytes32,address,address)": {
						"details": "Emitted when `account` is granted `role`. `sender` is the account that originated the contract call, an admin role bearer except when using {AccessControl-_setupRole}."
					},
					"RoleRevoked(bytes32,address,address)": {
						"details": "Emitted when `account` is revoked `role`. `sender` is the account that originated the contract call:   - if using `revokeRole`, it is the admin role bearer   - if using `renounceRole`, it is the role bearer (i.e. `account`)"
					}
				},
				"kind": "dev",
				"methods": {
					"getRoleAdmin(bytes32)": {
						"details": "Returns the admin role that controls `role`. See {grantRole} and {revokeRole}. To change a role's admin, use {_setRoleAdmin}."
					},
					"grantRole(bytes32,address)": {
						"details": "Grants `role` to `account`. If `account` had not been already granted `role`, emits a {RoleGranted} event. Requirements: - the caller must have ``role``'s admin role. May emit a {RoleGranted} event."
					},
					"hasRole(bytes32,address)": {
						"details": "Returns `true` if `account` has been granted `role`."
					},
					"renounceRole(bytes32,address)": {
						"details": "Revokes `role` from the calling account. Roles are often managed via {grantRole} and {revokeRole}: this function's purpose is to provide a mechanism for accounts to lose their privileges if they are compromised (such as when a trusted device is misplaced). If the calling account had been revoked `role`, emits a {RoleRevoked} event. Requirements: - the caller must be `account`. May emit a {RoleRevoked} event."
					},
					"revokeRole(bytes32,address)": {
						"details": "Revokes `role` from `account`. If `account` had been granted `role`, emits a {RoleRevoked} event. Requirements: - the caller must have ``role``'s admin role. May emit a {RoleRevoked} event."
					},
					"supportsInterface(bytes4)": {
						"details": "See {IERC165-supportsInterface}."
					}
				},
				"version": 1
			},
			"evm": {
				"assembly": "    /* \"contracts/v2/TikTrixEscrow.sol\":428:5823  contract TikTrixEscrow is AccessControl {... */\n  mstore(0x40, 0x80)\n    /* \"contracts/v2/TikTrixEscrow.sol\":1750:2019  constructor(address entTokenAddress, address rptTokenAddress) {... */\n  callvalue\n  dup1\n  iszero\n  tag_1\n  jumpi\n  0x00\n  dup1\n  revert\ntag_1:\n  pop\n  mload(0x40)\n  sub(codesize, bytecodeSize)\n  dup1\n  bytecodeSize\n  dup4\n  codecopy\n  dup2\n  dup2\n  add\n  0x40\n  mstore\n  dup2\n  add\n  swap1\n  tag_2\n  swap2\n  swap1\n  tag_3\n  jump\t// in\ntag_2:\n    /* \"contracts/v2/TikTrixEscrow.sol\":1848:1863  entTokenAddress */\n  dup2\n    /* \"contracts/v2/TikTrixEscrow.sol\":1822:1830  entToken */\n  0x01\n  0x00\n    /* \"contracts/v2/TikTrixEscrow.sol\":1822:1864  entToken = IERC20Mintable(entTokenAddress) */\n  0x0100\n  exp\n  dup2\n  sload\n  dup2\n  0xffffffffffffffffffffffffffffffffffffffff\n  mul\n  not\n  and\n  swap1\n  dup4\n  0xffffffffffffffffffffffffffffffffffffffff\n  and\n  mul\n  or\n  swap1\n  sstore\n  pop\n    /* \"contracts/v2/TikTrixEscrow.sol\":1900:1915  rptTokenAddress */\n  dup1\n    /* \"contracts/v2/TikTrixEscrow.sol\":1874:1882  rptToken */\n  0x02\n  0x00\n    /* \"contracts/v2/TikTrixEscrow.sol\":1874:1916  rptToken = IERC20Mintable(rptTokenAddress) */\n  0x0100\n  exp\n  dup2\n  sload\n  dup2\n  0xffffffffffffffffffffffffffffffffffffffff\n  mul\n  not\n  and\n  swap1\n  dup4\n  0xffffffffffffffffffffffffffffffffffffffff\n  and\n  mul\n  or\n  swap1\n  sstore\n  pop\n    /* \"contracts/v2/TikTrixEscrow.sol\":1926:1968  _setupRole(DEFAULT_ADMIN_ROLE, msg.sender) */\n  tag_6\n    /* \"https://github.com/OpenZeppelin/openzeppelin-contracts/blob/v4.8.0/contracts/access/AccessControl.sol\":2072:2076  0x00 */\n  0x00\n    /* \"contracts/v2/TikTrixEscrow.sol\":1937:1955  DEFAULT_ADMIN_ROLE */\n  dup1\n  shl\n    /* \"contracts/v2/TikTrixEscrow.sol\":1957:1967  msg.sender */\n  caller\n    /* \"contracts/v2/TikTrixEscrow.sol\":1926:1936  _setupRole */\n  shl(0x20, tag_7)\n    /* \"contracts/v2/TikTrixEscrow.sol\":1926:1968  _setupRole(DEFAULT_ADMIN_ROLE, msg.sender) */\n  0x20\n  shr\n  jump\t// in\ntag_6:\n    /* \"contracts/v2/TikTrixEscrow.sol\":1978:2012  _setupRole(ADMIN_ROLE, msg.sender) */\n  tag_8\n    /* \"contracts/v2/TikTrixEscrow.sol\":511:534  keccak256(\"ADMIN_ROLE\") */\n  0xa49807205ce4d355092ef5a8a18f56e8913cf4a201fbe287825b095693c21775\n    /* \"contracts/v2/TikTrixEscrow.sol\":2001:2011  msg.sender */\n  caller\n    /* \"contracts/v2/TikTrixEscrow.sol\":1978:1988  _setupRole */\n  shl(0x20, tag_7)\n    /* \"contracts/v2/TikTrixEscrow.sol\":1978:2012  _setupRole(ADMIN_ROLE, msg.sender) */\n  0x20\n  shr\n  jump\t// in\ntag_8:\n    /* \"contracts/v2/TikTrixEscrow.sol\":1750:2019  constructor(address entTokenAddress, address rptTokenAddress) {... */\n  pop\n  pop\n    /* \"contracts/v2/TikTrixEscrow.sol\":428:5823  contract TikTrixEscrow is AccessControl {... */\n  jump(tag_9)\n    /* \"https://github.com/OpenZeppelin/openzeppelin-contracts/blob/v4.8.0/contracts/access/AccessControl.sol\":6811:6921  function _setupRole(bytes32 role, address account) internal virtual {... */\ntag_7:\n    /* \"https://github.com/OpenZeppelin/openzeppelin-contracts/blob/v4.8.0/contracts/access/AccessControl.sol\":6889:6914  _grantRole(role, account) */\n  tag_11\n    /* \"https://github.com/OpenZeppelin/openzeppelin-contracts/blob/v4.8.0/contracts/access/AccessControl.sol\":6900:6904  role */\n  dup3\n    /* \"https://github.com/OpenZeppelin/openzeppelin-contracts/blob/v4.8.0/contracts/access/AccessControl.sol\":6906:6913  account */\n  dup3\n    /* \"https://github.com/OpenZeppelin/openzeppelin-contracts/blob/v4.8.0/contracts/access/AccessControl.sol\":6889:6899  _grantRole */\n  shl(0x20, tag_12)\n    /* \"https://github.com/OpenZeppelin/openzeppelin-contracts/blob/v4.8.0/contracts/access/AccessControl.sol\":6889:6914  _grantRole(role, account) */\n  0x20\n  shr\n  jump\t// in\ntag_11:\n    /* \"https://github.com/OpenZeppelin/openzeppelin-contracts/blob/v4.8.0/contracts/access/AccessControl.sol\":6811:6921  function _setupRole(bytes32 role, address account) internal virtual {... */\n  pop\n  pop\n  jump\t// out\n    /* \"https://github.com/OpenZeppelin/openzeppelin-contracts/blob/v4.8.0/contracts/access/AccessControl.sol\":7461:7694  function _grantRole(bytes32 role, address account) internal virtual {... */\ntag_12:\n    /* \"https://github.com/OpenZeppelin/openzeppelin-contracts/blob/v4.8.0/contracts/access/AccessControl.sol\":7544:7566  hasRole(role, account) */\n  tag_14\n    /* \"https://github.com/OpenZeppelin/openzeppelin-contracts/blob/v4.8.0/contracts/access/AccessControl.sol\":7552:7556  role */\n  dup3\n    /* \"https://github.com/OpenZeppelin/openzeppelin-contracts/blob/v4.8.0/contracts/access/AccessControl.sol\":7558:7565  account */\n  dup3\n    /* \"https://github.com/OpenZeppelin/openzeppelin-contracts/blob/v4.8.0/contracts/access/AccessControl.sol\":7544:7551  hasRole */\n  shl(0x20, tag_15)\n    /* \"https://github.com/OpenZeppelin/openzeppelin-contracts/blob/v4.8.0/contracts/access/AccessControl.sol\":7544:7566  hasRole(role, account) */\n  0x20\n  shr\n  jump\t// in\ntag_14:\n    /* \"https://github.com/OpenZeppelin/openzeppelin-contracts/blob/v4.8.0/contracts/access/AccessControl.sol\":7539:7688  if (!hasRole(role, account)) {... */\n  tag_16\n  jumpi\n    /* \"https://github.com/OpenZeppelin/openzeppelin-contracts/blob/v4.8.0/contracts/access/AccessControl.sol\":7614:7618  true */\n  0x01\n    /* \"https://github.com/OpenZeppelin/openzeppelin-contracts/blob/v4.8.0/contracts/access/AccessControl.sol\":7582:7588  _roles */\n  0x00\n    /* \"https://github.com/OpenZeppelin/openzeppelin-contracts/blob/v4.8.0/contracts/access/AccessControl.sol\":7582:7594  _roles[role] */\n  dup1\n    /* \"https://github.com/OpenZeppelin/openzeppelin-contracts/blob/v4.8.0/contracts/access/AccessControl.sol\":7589:7593  role */\n  dup5\n    /* \"https://github.com/OpenZeppelin/openzeppelin-contracts/blob/v4.8.0/contracts/access/AccessControl.sol\":7582:7594  _roles[role] */\n  dup2\n  mstore\n  0x20\n  add\n  swap1\n  dup2\n  mstore\n  0x20\n  add\n  0x00\n  keccak256\n    /* \"https://github.com/OpenZeppelin/openzeppelin-contracts/blob/v4.8.0/contracts/access/AccessControl.sol\":7582:7602  _roles[role].members */\n  0x00\n  add\n    /* \"https://github.com/OpenZeppelin/openzeppelin-contracts/blob/v4.8.0/contracts/access/AccessControl.sol\":7582:7611  _roles[role].members[account] */\n  0x00\n    /* \"https://github.com/OpenZeppelin/openzeppelin-contracts/blob/v4.8.0/contracts/access/AccessControl.sol\":7603:7610  account */\n  dup4\n    /* \"https://github.com/OpenZeppelin/openzeppelin-contracts/blob/v4.8.0/contracts/access/AccessControl.sol\":7582:7611  _roles[role].members[account] */\n  0xffffffffffffffffffffffffffffffffffffffff\n  and\n  0xffffffffffffffffffffffffffffffffffffffff\n  and\n  dup2\n  mstore\n  0x20\n  add\n  swap1\n  dup2\n  mstore\n  0x20\n  add\n  0x00\n  keccak256\n  0x00\n    /* \"https://github.com/OpenZeppelin/openzeppelin-contracts/blob/v4.8.0/contracts/access/AccessControl.sol\":7582:7618  _roles[role].members[account] = true */\n  0x0100\n  exp\n  dup2\n  sload\n  dup2\n  0xff\n  mul\n  not\n  and\n  swap1\n  dup4\n  iszero\n  iszero\n  mul\n  or\n  swap1\n  sstore\n  pop\n    /* \"https://github.com/OpenZeppelin/openzeppelin-contracts/blob/v4.8.0/contracts/access/AccessControl.sol\":7664:7676  _msgSender() */\n  tag_17\n    /* \"https://github.com/OpenZeppelin/openzeppelin-contracts/blob/v4.8.0/contracts/access/AccessControl.sol\":7664:7674  _msgSender */\n  shl(0x20, tag_18)\n    /* \"https://github.com/OpenZeppelin/openzeppelin-contracts/blob/v4.8.0/contracts/access/AccessControl.sol\":7664:7676  _msgSender() */\n  0x20\n  shr\n  jump\t// in\ntag_17:\n    /* \"https://github.com/OpenZeppelin/openzeppelin-contracts/blob/v4.8.0/contracts/access/AccessControl.sol\":7637:7677  RoleGranted(role, account, _msgSender()) */\n  0xffffffffffffffffffffffffffffffffffffffff\n  and\n    /* \"https://github.com/OpenZeppelin/openzeppelin-contracts/blob/v4.8.0/contracts/access/AccessControl.sol\":7655:7662  account */\n  dup2\n    /* \"https://github.com/OpenZeppelin/openzeppelin-contracts/blob/v4.8.0/contracts/access/AccessControl.sol\":7637:7677  RoleGranted(role, account, _msgSender()) */\n  0xffffffffffffffffffffffffffffffffffffffff\n  and\n    /* \"https://github.com/OpenZeppelin/openzeppelin-contracts/blob/v4.8.0/contracts/access/AccessControl.sol\":7649:7653  role */\n  dup4\n    /* \"https://github.com/OpenZeppelin/openzeppelin-contracts/blob/v4.8.0/contracts/access/AccessControl.sol\":7637:7677  RoleGranted(role, account, _msgSender()) */\n  0x2f8788117e7eff1d82e926ec794901d17c78024a50270940304540a733656f0d\n  mload(0x40)\n  mload(0x40)\n  dup1\n  swap2\n  sub\n  swap1\n  log4\n    /* \"https://github.com/OpenZeppelin/openzeppelin-contracts/blob/v4.8.0/contracts/access/AccessControl.sol\":7539:7688  if (!hasRole(role, account)) {... */\ntag_16:\n    /* \"https://github.com/OpenZeppelin/openzeppelin-contracts/blob/v4.8.0/contracts/access/AccessControl.sol\":7461:7694  function _grantRole(bytes32 role, address account) internal virtual {... */\n  pop\n  pop\n  jump\t// out\n    /* \"https://github.com/OpenZeppelin/openzeppelin-contracts/blob/v4.8.0/contracts/access/AccessControl.sol\":2895:3040  function hasRole(bytes32 role, address account) public view virtual override returns (bool) {... */\ntag_15:\n    /* \"https://github.com/OpenZeppelin/openzeppelin-contracts/blob/v4.8.0/contracts/access/AccessControl.sol\":2981:2985  bool */\n  0x00\n    /* \"https://github.com/OpenZeppelin/openzeppelin-contracts/blob/v4.8.0/contracts/access/AccessControl.sol\":3004:3010  _roles */\n  dup1\n    /* \"https://github.com/OpenZeppelin/openzeppelin-contracts/blob/v4.8.0/contracts/access/AccessControl.sol\":3004:3016  _roles[role] */\n  0x00\n    /* \"https://github.com/OpenZeppelin/openzeppelin-contracts/blob/v4.8.0/contracts/access/AccessControl.sol\":3011:3015  role */\n  dup5\n    /* \"https://github.com/OpenZeppelin/openzeppelin-contracts/blob/v4.8.0/contracts/access/AccessControl.sol\":3004:3016  _roles[role] */\n  dup2\n  mstore\n  0x20\n  add\n  swap1\n  dup2\n  mstore\n  0x20\n  add\n  0x00\n  keccak256\n    /* \"https://github.com/OpenZeppelin/openzeppelin-contracts/blob/v4.8.0/contracts/access/AccessControl.sol\":3004:3024  _roles[role].members */\n  0x00\n  add\n    /* \"https://github.com/OpenZeppelin/openzeppelin-contracts/blob/v4.8.0/contracts/access/AccessControl.sol\":3004:3033  _roles[role].members[account] */\n  0x00\n    /* \"https://github.com/OpenZeppelin/openzeppelin-contracts/blob/v4.8.0/contracts/access/AccessControl.sol\":3025:3032  account */\n  dup4\n    /* \"https://github.com/OpenZeppelin/openzeppelin-contracts/blob/v4.8.0/contracts/access/AccessControl.sol\":3004:3033  _roles[role].members[account] */\n  0xffffffffffffffffffffffffffffffffffffffff\n  and\n  0xffffffffffffffffffffffffffffffffffffffff\n  and\n  dup2\n  mstore\n  0x20\n  add\n  swap1\n  dup2\n  mstore\n  0x20\n  add\n  0x00\n  keccak256\n  0x00\n  swap1\n  sload\n  swap1\n  0x0100\n  exp\n  swap1\n  div\n  0xff\n  and\n    /* \"https://github.com/OpenZeppelin/openzeppelin-contracts/blob/v4.8.0/contracts/access/AccessControl.sol\":2997:3033  return _roles[role].members[account] */\n  swap1\n  pop\n    /* \"https://github.com/OpenZeppelin/openzeppelin-contracts/blob/v4.8.0/contracts/access/AccessControl.sol\":2895:3040  function hasRole(bytes32 role, address account) public view virtual override returns (bool) {... */\n  swap3\n  swap2\n  pop\n  pop\n  jump\t// out\n    /* \"https://github.com/OpenZeppelin/openzeppelin-contracts/blob/v4.8.0/contracts/utils/Context.sol\":640:736  function _msgSender() internal view virtual returns (address) {... */\ntag_18:\n    /* \"https://github.com/OpenZeppelin/openzeppelin-contracts/blob/v4.8.0/contracts/utils/Context.sol\":693:700  address */\n  0x00\n    /* \"https://github.com/OpenZeppelin/openzeppelin-contracts/blob/v4.8.0/contracts/utils/Context.sol\":719:729  msg.sender */\n  caller\n    /* \"https://github.com/OpenZeppelin/openzeppelin-contracts/blob/v4.8.0/contracts/utils/Context.sol\":712:729  return msg.sender */\n  swap1\n  pop\n    /* \"https://github.com/OpenZeppelin/openzeppelin-contracts/blob/v4.8.0/contracts/utils/Context.sol\":640:736  function _msgSender() internal view virtual returns (address) {... */\n  swap1\n  jump\t// out\n    /* \"#utility.yul\":88:205   */\ntag_22:\n    /* \"#utility.yul\":197:198   */\n  0x00\n    /* \"#utility.yul\":194:195   */\n  dup1\n    /* \"#utility.yul\":187:199   */\n  revert\n    /* \"#utility.yul\":334:460   */\ntag_24:\n    /* \"#utility.yul\":371:378   */\n  0x00\n    /* \"#utility.yul\":411:453   */\n  0xffffffffffffffffffffffffffffffffffffffff\n    /* \"#utility.yul\":404:409   */\n  dup3\n    /* \"#utility.yul\":400:454   */\n  and\n    /* \"#utility.yul\":389:454   */\n  swap1\n  pop\n    /* \"#utility.yul\":334:460   */\n  swap2\n  swap1\n  pop\n  jump\t// out\n    /* \"#utility.yul\":466:562   */\ntag_25:\n    /* \"#utility.yul\":503:510   */\n  0x00\n    /* \"#utility.yul\":532:556   */\n  tag_34\n    /* \"#utility.yul\":550:555   */\n  dup3\n    /* \"#utility.yul\":532:556   */\n  tag_24\n  jump\t// in\ntag_34:\n    /* \"#utility.yul\":521:556   */\n  swap1\n  pop\n    /* \"#utility.yul\":466:562   */\n  swap2\n  swap1\n  pop\n  jump\t// out\n    /* \"#utility.yul\":568:690   */\ntag_26:\n    /* \"#utility.yul\":641:665   */\n  tag_36\n    /* \"#utility.yul\":659:664   */\n  dup2\n    /* \"#utility.yul\":641:665   */\n  tag_25\n  jump\t// in\ntag_36:\n    /* \"#utility.yul\":634:639   */\n  dup2\n    /* \"#utility.yul\":631:666   */\n  eq\n    /* \"#utility.yul\":621:684   */\n  tag_37\n  jumpi\n    /* \"#utility.yul\":680:681   */\n  0x00\n    /* \"#utility.yul\":677:678   */\n  dup1\n    /* \"#utility.yul\":670:682   */\n  revert\n    /* \"#utility.yul\":621:684   */\ntag_37:\n    /* \"#utility.yul\":568:690   */\n  pop\n  jump\t// out\n    /* \"#utility.yul\":696:839   */\ntag_27:\n    /* \"#utility.yul\":753:758   */\n  0x00\n    /* \"#utility.yul\":784:790   */\n  dup2\n    /* \"#utility.yul\":778:791   */\n  mload\n    /* \"#utility.yul\":769:791   */\n  swap1\n  pop\n    /* \"#utility.yul\":800:833   */\n  tag_39\n    /* \"#utility.yul\":827:832   */\n  dup2\n    /* \"#utility.yul\":800:833   */\n  tag_26\n  jump\t// in\ntag_39:\n    /* \"#utility.yul\":696:839   */\n  swap3\n  swap2\n  pop\n  pop\n  jump\t// out\n    /* \"#utility.yul\":845:1352   */\ntag_3:\n    /* \"#utility.yul\":924:930   */\n  0x00\n    /* \"#utility.yul\":932:938   */\n  dup1\n    /* \"#utility.yul\":981:983   */\n  0x40\n    /* \"#utility.yul\":969:978   */\n  dup4\n    /* \"#utility.yul\":960:967   */\n  dup6\n    /* \"#utility.yul\":956:979   */\n  sub\n    /* \"#utility.yul\":952:984   */\n  slt\n    /* \"#utility.yul\":949:1068   */\n  iszero\n  tag_41\n  jumpi\n    /* \"#utility.yul\":987:1066   */\n  tag_42\n  tag_22\n  jump\t// in\ntag_42:\n    /* \"#utility.yul\":949:1068   */\ntag_41:\n    /* \"#utility.yul\":1107:1108   */\n  0x00\n    /* \"#utility.yul\":1132:1196   */\n  tag_43\n    /* \"#utility.yul\":1188:1195   */\n  dup6\n    /* \"#utility.yul\":1179:1185   */\n  dup3\n    /* \"#utility.yul\":1168:1177   */\n  dup7\n    /* \"#utility.yul\":1164:1186   */\n  add\n    /* \"#utility.yul\":1132:1196   */\n  tag_27\n  jump\t// in\ntag_43:\n    /* \"#utility.yul\":1122:1196   */\n  swap3\n  pop\n    /* \"#utility.yul\":1078:1206   */\n  pop\n    /* \"#utility.yul\":1245:1247   */\n  0x20\n    /* \"#utility.yul\":1271:1335   */\n  tag_44\n    /* \"#utility.yul\":1327:1334   */\n  dup6\n    /* \"#utility.yul\":1318:1324   */\n  dup3\n    /* \"#utility.yul\":1307:1316   */\n  dup7\n    /* \"#utility.yul\":1303:1325   */\n  add\n    /* \"#utility.yul\":1271:1335   */\n  tag_27\n  jump\t// in\ntag_44:\n    /* \"#utility.yul\":1261:1335   */\n  swap2\n  pop\n    /* \"#utility.yul\":1216:1345   */\n  pop\n    /* \"#utility.yul\":845:1352   */\n  swap3\n  pop\n  swap3\n  swap1\n  pop\n  jump\t// out\n    /* \"contracts/v2/TikTrixEscrow.sol\":428:5823  contract TikTrixEscrow is AccessControl {... */\ntag_9:\n  dataSize(sub_0)\n  dup1\n  dataOffset(sub_0)\n  0x00\n  codecopy\n  0x00\n  return\nstop\n\nsub_0: assembly {\n        /* \"contracts/v2/TikTrixEscrow.sol\":428:5823  contract TikTrixEscrow is AccessControl {... */\n      mstore(0x40, 0x80)\n      callvalue\n      dup1\n      iszero\n      tag_1\n      jumpi\n      0x00\n      dup1\n      revert\n    tag_1:\n      pop\n      jumpi(tag_2, lt(calldatasize, 0x04))\n      shr(0xe0, calldataload(0x00))\n      dup1\n      0x9a19c7b0\n      gt\n      tag_25\n      jumpi\n      dup1\n      0xc634b78e\n      gt\n      tag_26\n      jumpi\n      dup1\n      0xc634b78e\n      eq\n      tag_19\n      jumpi\n      dup1\n      0xca1c996f\n      eq\n      tag_20\n      jumpi\n      dup1\n      0xcbc7854e\n      eq\n      tag_21\n      jumpi\n      dup1\n      0xd547741f\n      eq\n      tag_22\n      jumpi\n      dup1\n      0xdd0c8082\n      eq\n      tag_23\n      jumpi\n      dup1\n      0xdd7d2b9f\n      eq\n      tag_24\n      jumpi\n      jump(tag_2)\n    tag_26:\n      dup1\n      0x9a19c7b0\n      eq\n      tag_14\n      jumpi\n      dup1\n      0xa217fddf\n      eq\n      tag_15\n      jumpi\n      dup1\n      0xae99aa3c\n      eq\n      tag_16\n      jumpi\n      dup1\n      0xaea08734\n      eq\n      tag_17\n      jumpi\n      dup1\n      0xbb10ab0f\n      eq\n      tag_18\n      jumpi\n      jump(tag_2)\n    tag_25:\n      dup1\n      0x36568abe\n      gt\n      tag_27\n      jumpi\n      dup1\n      0x36568abe\n      eq\n      tag_8\n      jumpi\n      dup1\n      0x406a378a\n      eq\n      tag_9\n      jumpi\n      dup1\n      0x75b238fc\n      eq\n      tag_10\n      jumpi\n      dup1\n      0x8525ea16\n      eq\n      tag_11\n      jumpi\n      dup1\n      0x8afac670\n      eq\n      tag_12\n      jumpi\n      dup1\n      0x91d14854\n      eq\n      tag_13\n      jumpi\n      jump(tag_2)\n    tag_27:\n      dup1\n      0x01ffc9a7\n      eq\n      tag_3\n      jumpi\n      dup1\n      0x1b72fa3a\n      eq\n      tag_4\n      jumpi\n      dup1\n      0x248a9ca3\n      eq\n      tag_5\n      jumpi\n      dup1\n      0x2f2ff15d\n      eq\n      tag_6\n      jumpi\n      dup1\n      0x355b9d3f\n      eq\n      tag_7\n      jumpi\n    tag_2:\n      0x00\n      dup1\n      revert\n        /* \"https://github.com/OpenZeppelin/openzeppelin-contracts/blob/v4.8.0/contracts/access/AccessControl.sol\":2606:2808  function supportsInterface(bytes4 interfaceId) public view virtual override returns (bool) {... */\n    tag_3:\n      tag_28\n      0x04\n      dup1\n      calldatasize\n      sub\n      dup2\n      add\n      swap1\n      tag_29\n      swap2\n      swap1\n      tag_30\n      jump\t// in\n    tag_29:\n      tag_31\n      jump\t// in\n    tag_28:\n      mload(0x40)\n      tag_32\n      swap2\n      swap1\n      tag_33\n      jump\t// in\n    tag_32:\n      mload(0x40)\n      dup1\n      swap2\n      sub\n      swap1\n      return\n        /* \"contracts/v2/TikTrixEscrow.sol\":577:607  IERC20Mintable public rptToken */\n    tag_4:\n      tag_34\n      tag_35\n      jump\t// in\n    tag_34:\n      mload(0x40)\n      tag_36\n      swap2\n      swap1\n      tag_37\n      jump\t// in\n    tag_36:\n      mload(0x40)\n      dup1\n      swap2\n      sub\n      swap1\n      return\n        /* \"https://github.com/OpenZeppelin/openzeppelin-contracts/blob/v4.8.0/contracts/access/AccessControl.sol\":4378:4507  function getRoleAdmin(bytes32 role) public view virtual override returns (bytes32) {... */\n    tag_5:\n      tag_38\n      0x04\n      dup1\n      calldatasize\n      sub\n      dup2\n      add\n      swap1\n      tag_39\n      swap2\n      swap1\n      tag_40\n      jump\t// in\n    tag_39:\n      tag_41\n      jump\t// in\n    tag_38:\n      mload(0x40)\n      tag_42\n      swap2\n      swap1\n      tag_43\n      jump\t// in\n    tag_42:\n      mload(0x40)\n      dup1\n      swap2\n      sub\n      swap1\n      return\n        /* \"https://github.com/OpenZeppelin/openzeppelin-contracts/blob/v4.8.0/contracts/access/AccessControl.sol\":4803:4948  function grantRole(bytes32 role, address account) public virtual override onlyRole(getRoleAdmin(role)) {... */\n    tag_6:\n      tag_44\n      0x04\n      dup1\n      calldatasize\n      sub\n      dup2\n      add\n      swap1\n      tag_45\n      swap2\n      swap1\n      tag_46\n      jump\t// in\n    tag_45:\n      tag_47\n      jump\t// in\n    tag_44:\n      stop\n        /* \"contracts/v2/TikTrixEscrow.sol\":1112:1209  mapping(uint256 => mapping(uint256 => mapping(uint256 => ChallengeScore))) public challengeScores */\n    tag_7:\n      tag_48\n      0x04\n      dup1\n      calldatasize\n      sub\n      dup2\n      add\n      swap1\n      tag_49\n      swap2\n      swap1\n      tag_50\n      jump\t// in\n    tag_49:\n      tag_51\n      jump\t// in\n    tag_48:\n      mload(0x40)\n      tag_52\n      swap6\n      swap5\n      swap4\n      swap3\n      swap2\n      swap1\n      tag_53\n      jump\t// in\n    tag_52:\n      mload(0x40)\n      dup1\n      swap2\n      sub\n      swap1\n      return\n        /* \"https://github.com/OpenZeppelin/openzeppelin-contracts/blob/v4.8.0/contracts/access/AccessControl.sol\":5912:6126  function renounceRole(bytes32 role, address account) public virtual override {... */\n    tag_8:\n      tag_54\n      0x04\n      dup1\n      calldatasize\n      sub\n      dup2\n      add\n      swap1\n      tag_55\n      swap2\n      swap1\n      tag_46\n      jump\t// in\n    tag_55:\n      tag_56\n      jump\t// in\n    tag_54:\n      stop\n        /* \"contracts/v2/TikTrixEscrow.sol\":5361:5820  function distributePrizes(address[] calldata recipients, uint256[] calldata tokenAmounts) external onlyRole(ADMIN_ROLE) {... */\n    tag_9:\n      tag_57\n      0x04\n      dup1\n      calldatasize\n      sub\n      dup2\n      add\n      swap1\n      tag_58\n      swap2\n      swap1\n      tag_59\n      jump\t// in\n    tag_58:\n      tag_60\n      jump\t// in\n    tag_57:\n      stop\n        /* \"contracts/v2/TikTrixEscrow.sol\":474:534  bytes32 public constant ADMIN_ROLE = keccak256(\"ADMIN_ROLE\") */\n    tag_10:\n      tag_61\n      tag_62\n      jump\t// in\n    tag_61:\n      mload(0x40)\n      tag_63\n      swap2\n      swap1\n      tag_43\n      jump\t// in\n    tag_63:\n      mload(0x40)\n      dup1\n      swap2\n      sub\n      swap1\n      return\n        /* \"contracts/v2/TikTrixEscrow.sol\":4123:4824  function rankScoreUpdateNormal(... */\n    tag_11:\n      tag_64\n      0x04\n      dup1\n      calldatasize\n      sub\n      dup2\n      add\n      swap1\n      tag_65\n      swap2\n      swap1\n      tag_66\n      jump\t// in\n    tag_65:\n      tag_67\n      jump\t// in\n    tag_64:\n      stop\n        /* \"contracts/v2/TikTrixEscrow.sol\":1015:1106  mapping(uint256 => mapping(uint256 => mapping(uint256 => NormalScore))) public normalScores */\n    tag_12:\n      tag_68\n      0x04\n      dup1\n      calldatasize\n      sub\n      dup2\n      add\n      swap1\n      tag_69\n      swap2\n      swap1\n      tag_50\n      jump\t// in\n    tag_69:\n      tag_70\n      jump\t// in\n    tag_68:\n      mload(0x40)\n      tag_71\n      swap5\n      swap4\n      swap3\n      swap2\n      swap1\n      tag_72\n      jump\t// in\n    tag_71:\n      mload(0x40)\n      dup1\n      swap2\n      sub\n      swap1\n      return\n        /* \"https://github.com/OpenZeppelin/openzeppelin-contracts/blob/v4.8.0/contracts/access/AccessControl.sol\":2895:3040  function hasRole(bytes32 role, address account) public view virtual override returns (bool) {... */\n    tag_13:\n      tag_73\n      0x04\n      dup1\n      calldatasize\n      sub\n      dup2\n      add\n      swap1\n      tag_74\n      swap2\n      swap1\n      tag_46\n      jump\t// in\n    tag_74:\n      tag_75\n      jump\t// in\n    tag_73:\n      mload(0x40)\n      tag_76\n      swap2\n      swap1\n      tag_33\n      jump\t// in\n    tag_76:\n      mload(0x40)\n      dup1\n      swap2\n      sub\n      swap1\n      return\n        /* \"contracts/v2/TikTrixEscrow.sol\":2155:2281  function revokeAdminRole(address account) public onlyRole(DEFAULT_ADMIN_ROLE) {... */\n    tag_14:\n      tag_77\n      0x04\n      dup1\n      calldatasize\n      sub\n      dup2\n      add\n      swap1\n      tag_78\n      swap2\n      swap1\n      tag_79\n      jump\t// in\n    tag_78:\n      tag_80\n      jump\t// in\n    tag_77:\n      stop\n        /* \"https://github.com/OpenZeppelin/openzeppelin-contracts/blob/v4.8.0/contracts/access/AccessControl.sol\":2027:2076  bytes32 public constant DEFAULT_ADMIN_ROLE = 0x00 */\n    tag_15:\n      tag_81\n      tag_82\n      jump\t// in\n    tag_81:\n      mload(0x40)\n      tag_83\n      swap2\n      swap1\n      tag_43\n      jump\t// in\n    tag_83:\n      mload(0x40)\n      dup1\n      swap2\n      sub\n      swap1\n      return\n        /* \"contracts/v2/TikTrixEscrow.sol\":2914:3124  function getMemberInfo(uint256 memberSeq) external view returns (MemberInfo memory) {... */\n    tag_16:\n      tag_84\n      0x04\n      dup1\n      calldatasize\n      sub\n      dup2\n      add\n      swap1\n      tag_85\n      swap2\n      swap1\n      tag_86\n      jump\t// in\n    tag_85:\n      tag_87\n      jump\t// in\n    tag_84:\n      mload(0x40)\n      tag_88\n      swap2\n      swap1\n      tag_89\n      jump\t// in\n    tag_88:\n      mload(0x40)\n      dup1\n      swap2\n      sub\n      swap1\n      return\n        /* \"contracts/v2/TikTrixEscrow.sol\":2503:2908  function memberRegister(uint256 memberSeq, address mintAddress, uint256 tokenAmount) external onlyRole(ADMIN_ROLE) {... */\n    tag_17:\n      tag_90\n      0x04\n      dup1\n      calldatasize\n      sub\n      dup2\n      add\n      swap1\n      tag_91\n      swap2\n      swap1\n      tag_92\n      jump\t// in\n    tag_91:\n      tag_93\n      jump\t// in\n    tag_90:\n      stop\n        /* \"contracts/v2/TikTrixEscrow.sol\":960:1009  mapping(uint256 => MemberInfo) public memberInfos */\n    tag_18:\n      tag_94\n      0x04\n      dup1\n      calldatasize\n      sub\n      dup2\n      add\n      swap1\n      tag_95\n      swap2\n      swap1\n      tag_86\n      jump\t// in\n    tag_95:\n      tag_96\n      jump\t// in\n    tag_94:\n      mload(0x40)\n      tag_97\n      swap2\n      swap1\n      tag_98\n      jump\t// in\n    tag_97:\n      mload(0x40)\n      dup1\n      swap2\n      sub\n      swap1\n      return\n        /* \"contracts/v2/TikTrixEscrow.sol\":2025:2149  function grantAdminRole(address account) public onlyRole(DEFAULT_ADMIN_ROLE) {... */\n    tag_19:\n      tag_99\n      0x04\n      dup1\n      calldatasize\n      sub\n      dup2\n      add\n      swap1\n      tag_100\n      swap2\n      swap1\n      tag_79\n      jump\t// in\n    tag_100:\n      tag_101\n      jump\t// in\n    tag_99:\n      stop\n        /* \"contracts/v2/TikTrixEscrow.sol\":3130:4117  function challengeRegister(... */\n    tag_20:\n      tag_102\n      0x04\n      dup1\n      calldatasize\n      sub\n      dup2\n      add\n      swap1\n      tag_103\n      swap2\n      swap1\n      tag_66\n      jump\t// in\n    tag_103:\n      tag_104\n      jump\t// in\n    tag_102:\n      stop\n        /* \"contracts/v2/TikTrixEscrow.sol\":2287:2497  function setTokens(address entTokenAddress, address rptTokenAddress) external onlyRole(ADMIN_ROLE) {... */\n    tag_21:\n      tag_105\n      0x04\n      dup1\n      calldatasize\n      sub\n      dup2\n      add\n      swap1\n      tag_106\n      swap2\n      swap1\n      tag_107\n      jump\t// in\n    tag_106:\n      tag_108\n      jump\t// in\n    tag_105:\n      stop\n        /* \"https://github.com/OpenZeppelin/openzeppelin-contracts/blob/v4.8.0/contracts/access/AccessControl.sol\":5228:5375  function revokeRole(bytes32 role, address account) public virtual override onlyRole(getRoleAdmin(role)) {... */\n    tag_22:\n      tag_109\n      0x04\n      dup1\n      calldatasize\n      sub\n      dup2\n      add\n      swap1\n      tag_110\n      swap2\n      swap1\n      tag_46\n      jump\t// in\n    tag_110:\n      tag_111\n      jump\t// in\n    tag_109:\n      stop\n        /* \"contracts/v2/TikTrixEscrow.sol\":541:571  IERC20Mintable public entToken */\n    tag_23:\n      tag_112\n      tag_113\n      jump\t// in\n    tag_112:\n      mload(0x40)\n      tag_114\n      swap2\n      swap1\n      tag_37\n      jump\t// in\n    tag_114:\n      mload(0x40)\n      dup1\n      swap2\n      sub\n      swap1\n      return\n        /* \"contracts/v2/TikTrixEscrow.sol\":4830:5355  function rankScoreUpdateChallenge(... */\n    tag_24:\n      tag_115\n      0x04\n      dup1\n      calldatasize\n      sub\n      dup2\n      add\n      swap1\n      tag_116\n      swap2\n      swap1\n      tag_66\n      jump\t// in\n    tag_116:\n      tag_117\n      jump\t// in\n    tag_115:\n      stop\n        /* \"https://github.com/OpenZeppelin/openzeppelin-contracts/blob/v4.8.0/contracts/access/AccessControl.sol\":2606:2808  function supportsInterface(bytes4 interfaceId) public view virtual override returns (bool) {... */\n    tag_31:\n        /* \"https://github.com/OpenZeppelin/openzeppelin-contracts/blob/v4.8.0/contracts/access/AccessControl.sol\":2691:2695  bool */\n      0x00\n        /* \"https://github.com/OpenZeppelin/openzeppelin-contracts/blob/v4.8.0/contracts/access/AccessControl.sol\":2729:2761  type(IAccessControl).interfaceId */\n      0x7965db0b00000000000000000000000000000000000000000000000000000000\n        /* \"https://github.com/OpenZeppelin/openzeppelin-contracts/blob/v4.8.0/contracts/access/AccessControl.sol\":2714:2761  interfaceId == type(IAccessControl).interfaceId */\n      not(0xffffffffffffffffffffffffffffffffffffffffffffffffffffffff)\n      and\n        /* \"https://github.com/OpenZeppelin/openzeppelin-contracts/blob/v4.8.0/contracts/access/AccessControl.sol\":2714:2725  interfaceId */\n      dup3\n        /* \"https://github.com/OpenZeppelin/openzeppelin-contracts/blob/v4.8.0/contracts/access/AccessControl.sol\":2714:2761  interfaceId == type(IAccessControl).interfaceId */\n      not(0xffffffffffffffffffffffffffffffffffffffffffffffffffffffff)\n      and\n      eq\n        /* \"https://github.com/OpenZeppelin/openzeppelin-contracts/blob/v4.8.0/contracts/access/AccessControl.sol\":2714:2801  interfaceId == type(IAccessControl).interfaceId || super.supportsInterface(interfaceId) */\n      dup1\n      tag_119\n      jumpi\n      pop\n        /* \"https://github.com/OpenZeppelin/openzeppelin-contracts/blob/v4.8.0/contracts/access/AccessControl.sol\":2765:2801  super.supportsInterface(interfaceId) */\n      tag_120\n        /* \"https://github.com/OpenZeppelin/openzeppelin-contracts/blob/v4.8.0/contracts/access/AccessControl.sol\":2789:2800  interfaceId */\n      dup3\n        /* \"https://github.com/OpenZeppelin/openzeppelin-contracts/blob/v4.8.0/contracts/access/AccessControl.sol\":2765:2788  super.supportsInterface */\n      tag_121\n        /* \"https://github.com/OpenZeppelin/openzeppelin-contracts/blob/v4.8.0/contracts/access/AccessControl.sol\":2765:2801  super.supportsInterface(interfaceId) */\n      jump\t// in\n    tag_120:\n        /* \"https://github.com/OpenZeppelin/openzeppelin-contracts/blob/v4.8.0/contracts/access/AccessControl.sol\":2714:2801  interfaceId == type(IAccessControl).interfaceId || super.supportsInterface(interfaceId) */\n    tag_119:\n        /* \"https://github.com/OpenZeppelin/openzeppelin-contracts/blob/v4.8.0/contracts/access/AccessControl.sol\":2707:2801  return interfaceId == type(IAccessControl).interfaceId || super.supportsInterface(interfaceId) */\n      swap1\n      pop\n        /* \"https://github.com/OpenZeppelin/openzeppelin-contracts/blob/v4.8.0/contracts/access/AccessControl.sol\":2606:2808  function supportsInterface(bytes4 interfaceId) public view virtual override returns (bool) {... */\n      swap2\n      swap1\n      pop\n      jump\t// out\n        /* \"contracts/v2/TikTrixEscrow.sol\":577:607  IERC20Mintable public rptToken */\n    tag_35:\n      0x02\n      0x00\n      swap1\n      sload\n      swap1\n      0x0100\n      exp\n      swap1\n      div\n      0xffffffffffffffffffffffffffffffffffffffff\n      and\n      dup2\n      jump\t// out\n        /* \"https://github.com/OpenZeppelin/openzeppelin-contracts/blob/v4.8.0/contracts/access/AccessControl.sol\":4378:4507  function getRoleAdmin(bytes32 role) public view virtual override returns (bytes32) {... */\n    tag_41:\n        /* \"https://github.com/OpenZeppelin/openzeppelin-contracts/blob/v4.8.0/contracts/access/AccessControl.sol\":4452:4459  bytes32 */\n      0x00\n        /* \"https://github.com/OpenZeppelin/openzeppelin-contracts/blob/v4.8.0/contracts/access/AccessControl.sol\":4478:4484  _roles */\n      dup1\n        /* \"https://github.com/OpenZeppelin/openzeppelin-contracts/blob/v4.8.0/contracts/access/AccessControl.sol\":4478:4490  _roles[role] */\n      0x00\n        /* \"https://github.com/OpenZeppelin/openzeppelin-contracts/blob/v4.8.0/contracts/access/AccessControl.sol\":4485:4489  role */\n      dup4\n        /* \"https://github.com/OpenZeppelin/openzeppelin-contracts/blob/v4.8.0/contracts/access/AccessControl.sol\":4478:4490  _roles[role] */\n      dup2\n      mstore\n      0x20\n      add\n      swap1\n      dup2\n      mstore\n      0x20\n      add\n      0x00\n      keccak256\n        /* \"https://github.com/OpenZeppelin/openzeppelin-contracts/blob/v4.8.0/contracts/access/AccessControl.sol\":4478:4500  _roles[role].adminRole */\n      0x01\n      add\n      sload\n        /* \"https://github.com/OpenZeppelin/openzeppelin-contracts/blob/v4.8.0/contracts/access/AccessControl.sol\":4471:4500  return _roles[role].adminRole */\n      swap1\n      pop\n        /* \"https://github.com/OpenZeppelin/openzeppelin-contracts/blob/v4.8.0/contracts/access/AccessControl.sol\":4378:4507  function getRoleAdmin(bytes32 role) public view virtual override returns (bytes32) {... */\n      swap2\n      swap1\n      pop\n      jump\t// out\n        /* \"https://github.com/OpenZeppelin/openzeppelin-contracts/blob/v4.8.0/contracts/access/AccessControl.sol\":4803:4948  function grantRole(bytes32 role, address account) public virtual override onlyRole(getRoleAdmin(role)) {... */\n    tag_47:\n        /* \"https://github.com/OpenZeppelin/openzeppelin-contracts/blob/v4.8.0/contracts/access/AccessControl.sol\":4886:4904  getRoleAdmin(role) */\n      tag_123\n        /* \"https://github.com/OpenZeppelin/openzeppelin-contracts/blob/v4.8.0/contracts/access/AccessControl.sol\":4899:4903  role */\n      dup3\n        /* \"https://github.com/OpenZeppelin/openzeppelin-contracts/blob/v4.8.0/contracts/access/AccessControl.sol\":4886:4898  getRoleAdmin */\n      tag_41\n        /* \"https://github.com/OpenZeppelin/openzeppelin-contracts/blob/v4.8.0/contracts/access/AccessControl.sol\":4886:4904  getRoleAdmin(role) */\n      jump\t// in\n    tag_123:\n        /* \"https://github.com/OpenZeppelin/openzeppelin-contracts/blob/v4.8.0/contracts/access/AccessControl.sol\":2505:2521  _checkRole(role) */\n      tag_125\n        /* \"https://github.com/OpenZeppelin/openzeppelin-contracts/blob/v4.8.0/contracts/access/AccessControl.sol\":2516:2520  role */\n      dup2\n        /* \"https://github.com/OpenZeppelin/openzeppelin-contracts/blob/v4.8.0/contracts/access/AccessControl.sol\":2505:2515  _checkRole */\n      tag_126\n        /* \"https://github.com/OpenZeppelin/openzeppelin-contracts/blob/v4.8.0/contracts/access/AccessControl.sol\":2505:2521  _checkRole(role) */\n      jump\t// in\n    tag_125:\n        /* \"https://github.com/OpenZeppelin/openzeppelin-contracts/blob/v4.8.0/contracts/access/AccessControl.sol\":4916:4941  _grantRole(role, account) */\n      tag_128\n        /* \"https://github.com/OpenZeppelin/openzeppelin-contracts/blob/v4.8.0/contracts/access/AccessControl.sol\":4927:4931  role */\n      dup4\n        /* \"https://github.com/OpenZeppelin/openzeppelin-contracts/blob/v4.8.0/contracts/access/AccessControl.sol\":4933:4940  account */\n      dup4\n        /* \"https://github.com/OpenZeppelin/openzeppelin-contracts/blob/v4.8.0/contracts/access/AccessControl.sol\":4916:4926  _grantRole */\n      tag_129\n        /* \"https://github.com/OpenZeppelin/openzeppelin-contracts/blob/v4.8.0/contracts/access/AccessControl.sol\":4916:4941  _grantRole(role, account) */\n      jump\t// in\n    tag_128:\n        /* \"https://github.com/OpenZeppelin/openzeppelin-contracts/blob/v4.8.0/contracts/access/AccessControl.sol\":4803:4948  function grantRole(bytes32 role, address account) public virtual override onlyRole(getRoleAdmin(role)) {... */\n      pop\n      pop\n      pop\n      jump\t// out\n        /* \"contracts/v2/TikTrixEscrow.sol\":1112:1209  mapping(uint256 => mapping(uint256 => mapping(uint256 => ChallengeScore))) public challengeScores */\n    tag_51:\n      mstore(0x20, 0x05)\n      dup3\n      0x00\n      mstore\n      mstore(0x20, keccak256(0x00, 0x40))\n      dup2\n      0x00\n      mstore\n      mstore(0x20, keccak256(0x00, 0x40))\n      dup1\n      0x00\n      mstore\n      keccak256(0x00, 0x40)\n      0x00\n      swap3\n      pop\n      swap3\n      pop\n      pop\n      pop\n      dup1\n      0x00\n      add\n      sload\n      swap1\n      dup1\n      0x01\n      add\n      sload\n      swap1\n      dup1\n      0x02\n      add\n      sload\n      swap1\n      dup1\n      0x03\n      add\n      sload\n      swap1\n      dup1\n      0x04\n      add\n      0x00\n      swap1\n      sload\n      swap1\n      0x0100\n      exp\n      swap1\n      div\n      0xff\n      and\n      swap1\n      pop\n      dup6\n      jump\t// out\n        /* \"https://github.com/OpenZeppelin/openzeppelin-contracts/blob/v4.8.0/contracts/access/AccessControl.sol\":5912:6126  function renounceRole(bytes32 role, address account) public virtual override {... */\n    tag_56:\n        /* \"https://github.com/OpenZeppelin/openzeppelin-contracts/blob/v4.8.0/contracts/access/AccessControl.sol\":6018:6030  _msgSender() */\n      tag_131\n        /* \"https://github.com/OpenZeppelin/openzeppelin-contracts/blob/v4.8.0/contracts/access/AccessControl.sol\":6018:6028  _msgSender */\n      tag_132\n        /* \"https://github.com/OpenZeppelin/openzeppelin-contracts/blob/v4.8.0/contracts/access/AccessControl.sol\":6018:6030  _msgSender() */\n      jump\t// in\n    tag_131:\n        /* \"https://github.com/OpenZeppelin/openzeppelin-contracts/blob/v4.8.0/contracts/access/AccessControl.sol\":6007:6030  account == _msgSender() */\n      0xffffffffffffffffffffffffffffffffffffffff\n      and\n        /* \"https://github.com/OpenZeppelin/openzeppelin-contracts/blob/v4.8.0/contracts/access/AccessControl.sol\":6007:6014  account */\n      dup2\n        /* \"https://github.com/OpenZeppelin/openzeppelin-contracts/blob/v4.8.0/contracts/access/AccessControl.sol\":6007:6030  account == _msgSender() */\n      0xffffffffffffffffffffffffffffffffffffffff\n      and\n      eq\n        /* \"https://github.com/OpenZeppelin/openzeppelin-contracts/blob/v4.8.0/contracts/access/AccessControl.sol\":5999:6082  require(account == _msgSender(), \"AccessControl: can only renounce roles for self\") */\n      tag_133\n      jumpi\n      mload(0x40)\n      0x08c379a000000000000000000000000000000000000000000000000000000000\n      dup2\n      mstore\n      0x04\n      add\n      tag_134\n      swap1\n      tag_135\n      jump\t// in\n    tag_134:\n      mload(0x40)\n      dup1\n      swap2\n      sub\n      swap1\n      revert\n    tag_133:\n        /* \"https://github.com/OpenZeppelin/openzeppelin-contracts/blob/v4.8.0/contracts/access/AccessControl.sol\":6093:6119  _revokeRole(role, account) */\n      tag_136\n        /* \"https://github.com/OpenZeppelin/openzeppelin-contracts/blob/v4.8.0/contracts/access/AccessControl.sol\":6105:6109  role */\n      dup3\n        /* \"https://github.com/OpenZeppelin/openzeppelin-contracts/blob/v4.8.0/contracts/access/AccessControl.sol\":6111:6118  account */\n      dup3\n        /* \"https://github.com/OpenZeppelin/openzeppelin-contracts/blob/v4.8.0/contracts/access/AccessControl.sol\":6093:6104  _revokeRole */\n      tag_137\n        /* \"https://github.com/OpenZeppelin/openzeppelin-contracts/blob/v4.8.0/contracts/access/AccessControl.sol\":6093:6119  _revokeRole(role, account) */\n      jump\t// in\n    tag_136:\n        /* \"https://github.com/OpenZeppelin/openzeppelin-contracts/blob/v4.8.0/contracts/access/AccessControl.sol\":5912:6126  function renounceRole(bytes32 role, address account) public virtual override {... */\n      pop\n      pop\n      jump\t// out\n        /* \"contracts/v2/TikTrixEscrow.sol\":5361:5820  function distributePrizes(address[] calldata recipients, uint256[] calldata tokenAmounts) external onlyRole(ADMIN_ROLE) {... */\n    tag_60:\n        /* \"contracts/v2/TikTrixEscrow.sol\":511:534  keccak256(\"ADMIN_ROLE\") */\n      0xa49807205ce4d355092ef5a8a18f56e8913cf4a201fbe287825b095693c21775\n        /* \"https://github.com/OpenZeppelin/openzeppelin-contracts/blob/v4.8.0/contracts/access/AccessControl.sol\":2505:2521  _checkRole(role) */\n      tag_139\n        /* \"https://github.com/OpenZeppelin/openzeppelin-contracts/blob/v4.8.0/contracts/access/AccessControl.sol\":2516:2520  role */\n      dup2\n        /* \"https://github.com/OpenZeppelin/openzeppelin-contracts/blob/v4.8.0/contracts/access/AccessControl.sol\":2505:2515  _checkRole */\n      tag_126\n        /* \"https://github.com/OpenZeppelin/openzeppelin-contracts/blob/v4.8.0/contracts/access/AccessControl.sol\":2505:2521  _checkRole(role) */\n      jump\t// in\n    tag_139:\n        /* \"contracts/v2/TikTrixEscrow.sol\":5520:5532  tokenAmounts */\n      dup3\n      dup3\n        /* \"contracts/v2/TikTrixEscrow.sol\":5520:5539  tokenAmounts.length */\n      swap1\n      pop\n        /* \"contracts/v2/TikTrixEscrow.sol\":5499:5509  recipients */\n      dup6\n      dup6\n        /* \"contracts/v2/TikTrixEscrow.sol\":5499:5516  recipients.length */\n      swap1\n      pop\n        /* \"contracts/v2/TikTrixEscrow.sol\":5499:5539  recipients.length == tokenAmounts.length */\n      eq\n        /* \"contracts/v2/TikTrixEscrow.sol\":5491:5588  require(recipients.length == tokenAmounts.length, \"Recipients and token amounts length mismatch\") */\n      tag_141\n      jumpi\n      mload(0x40)\n      0x08c379a000000000000000000000000000000000000000000000000000000000\n      dup2\n      mstore\n      0x04\n      add\n      tag_142\n      swap1\n      tag_143\n      jump\t// in\n    tag_142:\n      mload(0x40)\n      dup1\n      swap2\n      sub\n      swap1\n      revert\n    tag_141:\n        /* \"contracts/v2/TikTrixEscrow.sol\":5604:5613  uint256 i */\n      0x00\n        /* \"contracts/v2/TikTrixEscrow.sol\":5599:5755  for (uint256 i = 0; i < recipients.length; i++) {... */\n    tag_144:\n        /* \"contracts/v2/TikTrixEscrow.sol\":5623:5633  recipients */\n      dup6\n      dup6\n        /* \"contracts/v2/TikTrixEscrow.sol\":5623:5640  recipients.length */\n      swap1\n      pop\n        /* \"contracts/v2/TikTrixEscrow.sol\":5619:5620  i */\n      dup2\n        /* \"contracts/v2/TikTrixEscrow.sol\":5619:5640  i < recipients.length */\n      lt\n        /* \"contracts/v2/TikTrixEscrow.sol\":5599:5755  for (uint256 i = 0; i < recipients.length; i++) {... */\n      iszero\n      tag_145\n      jumpi\n        /* \"contracts/v2/TikTrixEscrow.sol\":5669:5677  rptToken */\n      0x02\n      0x00\n      swap1\n      sload\n      swap1\n      0x0100\n      exp\n      swap1\n      div\n      0xffffffffffffffffffffffffffffffffffffffff\n      and\n        /* \"contracts/v2/TikTrixEscrow.sol\":5669:5686  rptToken.transfer */\n      0xffffffffffffffffffffffffffffffffffffffff\n      and\n      0xa9059cbb\n        /* \"contracts/v2/TikTrixEscrow.sol\":5687:5697  recipients */\n      dup8\n      dup8\n        /* \"contracts/v2/TikTrixEscrow.sol\":5698:5699  i */\n      dup5\n        /* \"contracts/v2/TikTrixEscrow.sol\":5687:5700  recipients[i] */\n      dup2\n      dup2\n      lt\n      tag_147\n      jumpi\n      tag_148\n      tag_149\n      jump\t// in\n    tag_148:\n    tag_147:\n      swap1\n      pop\n      0x20\n      mul\n      add\n      0x20\n      dup2\n      add\n      swap1\n      tag_150\n      swap2\n      swap1\n      tag_79\n      jump\t// in\n    tag_150:\n        /* \"contracts/v2/TikTrixEscrow.sol\":5702:5714  tokenAmounts */\n      dup7\n      dup7\n        /* \"contracts/v2/TikTrixEscrow.sol\":5715:5716  i */\n      dup6\n        /* \"contracts/v2/TikTrixEscrow.sol\":5702:5717  tokenAmounts[i] */\n      dup2\n      dup2\n      lt\n      tag_151\n      jumpi\n      tag_152\n      tag_149\n      jump\t// in\n    tag_152:\n    tag_151:\n      swap1\n      pop\n      0x20\n      mul\n      add\n      calldataload\n        /* \"contracts/v2/TikTrixEscrow.sol\":5669:5718  rptToken.transfer(recipients[i], tokenAmounts[i]) */\n      mload(0x40)\n      dup4\n      0xffffffff\n      and\n      0xe0\n      shl\n      dup2\n      mstore\n      0x04\n      add\n      tag_153\n      swap3\n      swap2\n      swap1\n      tag_154\n      jump\t// in\n    tag_153:\n      0x20\n      mload(0x40)\n      dup1\n      dup4\n      sub\n      dup2\n      0x00\n      dup8\n      gas\n      call\n      iszero\n      dup1\n      iszero\n      tag_156\n      jumpi\n      returndatasize\n      0x00\n      dup1\n      returndatacopy\n      revert(0x00, returndatasize)\n    tag_156:\n      pop\n      pop\n      pop\n      pop\n      mload(0x40)\n      returndatasize\n      not(0x1f)\n      0x1f\n      dup3\n      add\n      and\n      dup3\n      add\n      dup1\n      0x40\n      mstore\n      pop\n      dup2\n      add\n      swap1\n      tag_157\n      swap2\n      swap1\n      tag_158\n      jump\t// in\n    tag_157:\n        /* \"contracts/v2/TikTrixEscrow.sol\":5661:5744  require(rptToken.transfer(recipients[i], tokenAmounts[i]), \"Token transfer failed\") */\n      tag_159\n      jumpi\n      mload(0x40)\n      0x08c379a000000000000000000000000000000000000000000000000000000000\n      dup2\n      mstore\n      0x04\n      add\n      tag_160\n      swap1\n      tag_161\n      jump\t// in\n    tag_160:\n      mload(0x40)\n      dup1\n      swap2\n      sub\n      swap1\n      revert\n    tag_159:\n        /* \"contracts/v2/TikTrixEscrow.sol\":5642:5645  i++ */\n      dup1\n      dup1\n      0x01\n      add\n      swap2\n      pop\n      pop\n        /* \"contracts/v2/TikTrixEscrow.sol\":5599:5755  for (uint256 i = 0; i < recipients.length; i++) {... */\n      jump(tag_144)\n    tag_145:\n      pop\n        /* \"contracts/v2/TikTrixEscrow.sol\":5770:5813  PrizesDistributed(recipients, tokenAmounts) */\n      0xfa3b7284ecb3a03e8f238b69b61f5645294c15019ea509bd4aaee604d60fdc34\n        /* \"contracts/v2/TikTrixEscrow.sol\":5788:5798  recipients */\n      dup6\n      dup6\n        /* \"contracts/v2/TikTrixEscrow.sol\":5800:5812  tokenAmounts */\n      dup6\n      dup6\n        /* \"contracts/v2/TikTrixEscrow.sol\":5770:5813  PrizesDistributed(recipients, tokenAmounts) */\n      mload(0x40)\n      tag_162\n      swap5\n      swap4\n      swap3\n      swap2\n      swap1\n      tag_163\n      jump\t// in\n    tag_162:\n      mload(0x40)\n      dup1\n      swap2\n      sub\n      swap1\n      log1\n        /* \"contracts/v2/TikTrixEscrow.sol\":5361:5820  function distributePrizes(address[] calldata recipients, uint256[] calldata tokenAmounts) external onlyRole(ADMIN_ROLE) {... */\n      pop\n      pop\n      pop\n      pop\n      pop\n      jump\t// out\n        /* \"contracts/v2/TikTrixEscrow.sol\":474:534  bytes32 public constant ADMIN_ROLE = keccak256(\"ADMIN_ROLE\") */\n    tag_62:\n        /* \"contracts/v2/TikTrixEscrow.sol\":511:534  keccak256(\"ADMIN_ROLE\") */\n      0xa49807205ce4d355092ef5a8a18f56e8913cf4a201fbe287825b095693c21775\n        /* \"contracts/v2/TikTrixEscrow.sol\":474:534  bytes32 public constant ADMIN_ROLE = keccak256(\"ADMIN_ROLE\") */\n      dup2\n      jump\t// out\n        /* \"contracts/v2/TikTrixEscrow.sol\":4123:4824  function rankScoreUpdateNormal(... */\n    tag_67:\n        /* \"contracts/v2/TikTrixEscrow.sol\":511:534  keccak256(\"ADMIN_ROLE\") */\n      0xa49807205ce4d355092ef5a8a18f56e8913cf4a201fbe287825b095693c21775\n        /* \"https://github.com/OpenZeppelin/openzeppelin-contracts/blob/v4.8.0/contracts/access/AccessControl.sol\":2505:2521  _checkRole(role) */\n      tag_165\n        /* \"https://github.com/OpenZeppelin/openzeppelin-contracts/blob/v4.8.0/contracts/access/AccessControl.sol\":2516:2520  role */\n      dup2\n        /* \"https://github.com/OpenZeppelin/openzeppelin-contracts/blob/v4.8.0/contracts/access/AccessControl.sol\":2505:2515  _checkRole */\n      tag_126\n        /* \"https://github.com/OpenZeppelin/openzeppelin-contracts/blob/v4.8.0/contracts/access/AccessControl.sol\":2505:2521  _checkRole(role) */\n      jump\t// in\n    tag_165:\n        /* \"contracts/v2/TikTrixEscrow.sol\":4310:4322  normalScores */\n      0x04\n        /* \"contracts/v2/TikTrixEscrow.sol\":4310:4332  normalScores[yyyymmdd] */\n      0x00\n        /* \"contracts/v2/TikTrixEscrow.sol\":4323:4331  yyyymmdd */\n      dup7\n        /* \"contracts/v2/TikTrixEscrow.sol\":4310:4332  normalScores[yyyymmdd] */\n      dup2\n      mstore\n      0x20\n      add\n      swap1\n      dup2\n      mstore\n      0x20\n      add\n      0x00\n      keccak256\n        /* \"contracts/v2/TikTrixEscrow.sol\":4310:4341  normalScores[yyyymmdd][gameSeq] */\n      0x00\n        /* \"contracts/v2/TikTrixEscrow.sol\":4333:4340  gameSeq */\n      dup6\n        /* \"contracts/v2/TikTrixEscrow.sol\":4310:4341  normalScores[yyyymmdd][gameSeq] */\n      dup2\n      mstore\n      0x20\n      add\n      swap1\n      dup2\n      mstore\n      0x20\n      add\n      0x00\n      keccak256\n        /* \"contracts/v2/TikTrixEscrow.sol\":4310:4352  normalScores[yyyymmdd][gameSeq][memberSeq] */\n      0x00\n        /* \"contracts/v2/TikTrixEscrow.sol\":4342:4351  memberSeq */\n      dup5\n        /* \"contracts/v2/TikTrixEscrow.sol\":4310:4352  normalScores[yyyymmdd][gameSeq][memberSeq] */\n      dup2\n      mstore\n      0x20\n      add\n      swap1\n      dup2\n      mstore\n      0x20\n      add\n      0x00\n      keccak256\n        /* \"contracts/v2/TikTrixEscrow.sol\":4310:4359  normalScores[yyyymmdd][gameSeq][memberSeq].exists */\n      0x03\n      add\n      0x00\n      swap1\n      sload\n      swap1\n      0x0100\n      exp\n      swap1\n      div\n      0xff\n      and\n        /* \"contracts/v2/TikTrixEscrow.sol\":4305:4741  if (!normalScores[yyyymmdd][gameSeq][memberSeq].exists) {... */\n      tag_167\n      jumpi\n        /* \"contracts/v2/TikTrixEscrow.sol\":4420:4575  NormalScore({... */\n      mload(0x40)\n      dup1\n      0x80\n      add\n      0x40\n      mstore\n      dup1\n        /* \"contracts/v2/TikTrixEscrow.sol\":4459:4466  gameSeq */\n      dup6\n        /* \"contracts/v2/TikTrixEscrow.sol\":4420:4575  NormalScore({... */\n      dup2\n      mstore\n      0x20\n      add\n        /* \"contracts/v2/TikTrixEscrow.sol\":4495:4504  memberSeq */\n      dup5\n        /* \"contracts/v2/TikTrixEscrow.sol\":4420:4575  NormalScore({... */\n      dup2\n      mstore\n      0x20\n      add\n        /* \"contracts/v2/TikTrixEscrow.sol\":4529:4530  0 */\n      0x00\n        /* \"contracts/v2/TikTrixEscrow.sol\":4420:4575  NormalScore({... */\n      dup2\n      mstore\n      0x20\n      add\n        /* \"contracts/v2/TikTrixEscrow.sol\":4556:4560  true */\n      0x01\n        /* \"contracts/v2/TikTrixEscrow.sol\":4420:4575  NormalScore({... */\n      iszero\n      iszero\n      dup2\n      mstore\n      pop\n        /* \"contracts/v2/TikTrixEscrow.sol\":4375:4387  normalScores */\n      0x04\n        /* \"contracts/v2/TikTrixEscrow.sol\":4375:4397  normalScores[yyyymmdd] */\n      0x00\n        /* \"contracts/v2/TikTrixEscrow.sol\":4388:4396  yyyymmdd */\n      dup8\n        /* \"contracts/v2/TikTrixEscrow.sol\":4375:4397  normalScores[yyyymmdd] */\n      dup2\n      mstore\n      0x20\n      add\n      swap1\n      dup2\n      mstore\n      0x20\n      add\n      0x00\n      keccak256\n        /* \"contracts/v2/TikTrixEscrow.sol\":4375:4406  normalScores[yyyymmdd][gameSeq] */\n      0x00\n        /* \"contracts/v2/TikTrixEscrow.sol\":4398:4405  gameSeq */\n      dup7\n        /* \"contracts/v2/TikTrixEscrow.sol\":4375:4406  normalScores[yyyymmdd][gameSeq] */\n      dup2\n      mstore\n      0x20\n      add\n      swap1\n      dup2\n      mstore\n      0x20\n      add\n      0x00\n      keccak256\n        /* \"contracts/v2/TikTrixEscrow.sol\":4375:4417  normalScores[yyyymmdd][gameSeq][memberSeq] */\n      0x00\n        /* \"contracts/v2/TikTrixEscrow.sol\":4407:4416  memberSeq */\n      dup6\n        /* \"contracts/v2/TikTrixEscrow.sol\":4375:4417  normalScores[yyyymmdd][gameSeq][memberSeq] */\n      dup2\n      mstore\n      0x20\n      add\n      swap1\n      dup2\n      mstore\n      0x20\n      add\n      0x00\n      keccak256\n        /* \"contracts/v2/TikTrixEscrow.sol\":4375:4575  normalScores[yyyymmdd][gameSeq][memberSeq] = NormalScore({... */\n      0x00\n      dup3\n      add\n      mload\n      dup2\n      0x00\n      add\n      sstore\n      0x20\n      dup3\n      add\n      mload\n      dup2\n      0x01\n      add\n      sstore\n      0x40\n      dup3\n      add\n      mload\n      dup2\n      0x02\n      add\n      sstore\n      0x60\n      dup3\n      add\n      mload\n      dup2\n      0x03\n      add\n      exp(0x0100, 0x00)\n      dup2\n      sload\n      dup2\n      0xff\n      mul\n      not\n      and\n      swap1\n      dup4\n      iszero\n      iszero\n      mul\n      or\n      swap1\n      sstore\n      pop\n      swap1\n      pop\n      pop\n        /* \"contracts/v2/TikTrixEscrow.sol\":4305:4741  if (!normalScores[yyyymmdd][gameSeq][memberSeq].exists) {... */\n      jump(tag_168)\n    tag_167:\n        /* \"contracts/v2/TikTrixEscrow.sol\":4607:4619  normalScores */\n      0x04\n        /* \"contracts/v2/TikTrixEscrow.sol\":4607:4629  normalScores[yyyymmdd] */\n      0x00\n        /* \"contracts/v2/TikTrixEscrow.sol\":4620:4628  yyyymmdd */\n      dup7\n        /* \"contracts/v2/TikTrixEscrow.sol\":4607:4629  normalScores[yyyymmdd] */\n      dup2\n      mstore\n      0x20\n      add\n      swap1\n      dup2\n      mstore\n      0x20\n      add\n      0x00\n      keccak256\n        /* \"contracts/v2/TikTrixEscrow.sol\":4607:4638  normalScores[yyyymmdd][gameSeq] */\n      0x00\n        /* \"contracts/v2/TikTrixEscrow.sol\":4630:4637  gameSeq */\n      dup6\n        /* \"contracts/v2/TikTrixEscrow.sol\":4607:4638  normalScores[yyyymmdd][gameSeq] */\n      dup2\n      mstore\n      0x20\n      add\n      swap1\n      dup2\n      mstore\n      0x20\n      add\n      0x00\n      keccak256\n        /* \"contracts/v2/TikTrixEscrow.sol\":4607:4649  normalScores[yyyymmdd][gameSeq][memberSeq] */\n      0x00\n        /* \"contracts/v2/TikTrixEscrow.sol\":4639:4648  memberSeq */\n      dup5\n        /* \"contracts/v2/TikTrixEscrow.sol\":4607:4649  normalScores[yyyymmdd][gameSeq][memberSeq] */\n      dup2\n      mstore\n      0x20\n      add\n      swap1\n      dup2\n      mstore\n      0x20\n      add\n      0x00\n      keccak256\n        /* \"contracts/v2/TikTrixEscrow.sol\":4607:4655  normalScores[yyyymmdd][gameSeq][memberSeq].score */\n      0x02\n      add\n      sload\n        /* \"contracts/v2/TikTrixEscrow.sol\":4596:4604  newScore */\n      dup3\n        /* \"contracts/v2/TikTrixEscrow.sol\":4596:4655  newScore > normalScores[yyyymmdd][gameSeq][memberSeq].score */\n      gt\n        /* \"contracts/v2/TikTrixEscrow.sol\":4592:4741  if (newScore > normalScores[yyyymmdd][gameSeq][memberSeq].score) {... */\n      iszero\n      tag_169\n      jumpi\n        /* \"contracts/v2/TikTrixEscrow.sol\":4722:4730  newScore */\n      dup2\n        /* \"contracts/v2/TikTrixEscrow.sol\":4671:4683  normalScores */\n      0x04\n        /* \"contracts/v2/TikTrixEscrow.sol\":4671:4693  normalScores[yyyymmdd] */\n      0x00\n        /* \"contracts/v2/TikTrixEscrow.sol\":4684:4692  yyyymmdd */\n      dup8\n        /* \"contracts/v2/TikTrixEscrow.sol\":4671:4693  normalScores[yyyymmdd] */\n      dup2\n      mstore\n      0x20\n      add\n      swap1\n      dup2\n      mstore\n      0x20\n      add\n      0x00\n      keccak256\n        /* \"contracts/v2/TikTrixEscrow.sol\":4671:4702  normalScores[yyyymmdd][gameSeq] */\n      0x00\n        /* \"contracts/v2/TikTrixEscrow.sol\":4694:4701  gameSeq */\n      dup7\n        /* \"contracts/v2/TikTrixEscrow.sol\":4671:4702  normalScores[yyyymmdd][gameSeq] */\n      dup2\n      mstore\n      0x20\n      add\n      swap1\n      dup2\n      mstore\n      0x20\n      add\n      0x00\n      keccak256\n        /* \"contracts/v2/TikTrixEscrow.sol\":4671:4713  normalScores[yyyymmdd][gameSeq][memberSeq] */\n      0x00\n        /* \"contracts/v2/TikTrixEscrow.sol\":4703:4712  memberSeq */\n      dup6\n        /* \"contracts/v2/TikTrixEscrow.sol\":4671:4713  normalScores[yyyymmdd][gameSeq][memberSeq] */\n      dup2\n      mstore\n      0x20\n      add\n      swap1\n      dup2\n      mstore\n      0x20\n      add\n      0x00\n      keccak256\n        /* \"contracts/v2/TikTrixEscrow.sol\":4671:4719  normalScores[yyyymmdd][gameSeq][memberSeq].score */\n      0x02\n      add\n        /* \"contracts/v2/TikTrixEscrow.sol\":4671:4730  normalScores[yyyymmdd][gameSeq][memberSeq].score = newScore */\n      dup2\n      swap1\n      sstore\n      pop\n        /* \"contracts/v2/TikTrixEscrow.sol\":4592:4741  if (newScore > normalScores[yyyymmdd][gameSeq][memberSeq].score) {... */\n    tag_169:\n        /* \"contracts/v2/TikTrixEscrow.sol\":4305:4741  if (!normalScores[yyyymmdd][gameSeq][memberSeq].exists) {... */\n    tag_168:\n        /* \"contracts/v2/TikTrixEscrow.sol\":4797:4806  memberSeq */\n      dup3\n        /* \"contracts/v2/TikTrixEscrow.sol\":4788:4795  gameSeq */\n      dup5\n        /* \"contracts/v2/TikTrixEscrow.sol\":4778:4786  yyyymmdd */\n      dup7\n        /* \"contracts/v2/TikTrixEscrow.sol\":4756:4817  RankScoreUpdateNoraml(yyyymmdd, gameSeq, memberSeq, newScore) */\n      0xa8f9cf476e5bcc627f5ed22b5ba54bd7fff333cd851bc754d924fe3eb28752fb\n        /* \"contracts/v2/TikTrixEscrow.sol\":4808:4816  newScore */\n      dup6\n        /* \"contracts/v2/TikTrixEscrow.sol\":4756:4817  RankScoreUpdateNoraml(yyyymmdd, gameSeq, memberSeq, newScore) */\n      mload(0x40)\n      tag_170\n      swap2\n      swap1\n      tag_98\n      jump\t// in\n    tag_170:\n      mload(0x40)\n      dup1\n      swap2\n      sub\n      swap1\n      log4\n        /* \"contracts/v2/TikTrixEscrow.sol\":4123:4824  function rankScoreUpdateNormal(... */\n      pop\n      pop\n      pop\n      pop\n      pop\n      jump\t// out\n        /* \"contracts/v2/TikTrixEscrow.sol\":1015:1106  mapping(uint256 => mapping(uint256 => mapping(uint256 => NormalScore))) public normalScores */\n    tag_70:\n      mstore(0x20, 0x04)\n      dup3\n      0x00\n      mstore\n      mstore(0x20, keccak256(0x00, 0x40))\n      dup2\n      0x00\n      mstore\n      mstore(0x20, keccak256(0x00, 0x40))\n      dup1\n      0x00\n      mstore\n      keccak256(0x00, 0x40)\n      0x00\n      swap3\n      pop\n      swap3\n      pop\n      pop\n      pop\n      dup1\n      0x00\n      add\n      sload\n      swap1\n      dup1\n      0x01\n      add\n      sload\n      swap1\n      dup1\n      0x02\n      add\n      sload\n      swap1\n      dup1\n      0x03\n      add\n      0x00\n      swap1\n      sload\n      swap1\n      0x0100\n      exp\n      swap1\n      div\n      0xff\n      and\n      swap1\n      pop\n      dup5\n      jump\t// out\n        /* \"https://github.com/OpenZeppelin/openzeppelin-contracts/blob/v4.8.0/contracts/access/AccessControl.sol\":2895:3040  function hasRole(bytes32 role, address account) public view virtual override returns (bool) {... */\n    tag_75:\n        /* \"https://github.com/OpenZeppelin/openzeppelin-contracts/blob/v4.8.0/contracts/access/AccessControl.sol\":2981:2985  bool */\n      0x00\n        /* \"https://github.com/OpenZeppelin/openzeppelin-contracts/blob/v4.8.0/contracts/access/AccessControl.sol\":3004:3010  _roles */\n      dup1\n        /* \"https://github.com/OpenZeppelin/openzeppelin-contracts/blob/v4.8.0/contracts/access/AccessControl.sol\":3004:3016  _roles[role] */\n      0x00\n        /* \"https://github.com/OpenZeppelin/openzeppelin-contracts/blob/v4.8.0/contracts/access/AccessControl.sol\":3011:3015  role */\n      dup5\n        /* \"https://github.com/OpenZeppelin/openzeppelin-contracts/blob/v4.8.0/contracts/access/AccessControl.sol\":3004:3016  _roles[role] */\n      dup2\n      mstore\n      0x20\n      add\n      swap1\n      dup2\n      mstore\n      0x20\n      add\n      0x00\n      keccak256\n        /* \"https://github.com/OpenZeppelin/openzeppelin-contracts/blob/v4.8.0/contracts/access/AccessControl.sol\":3004:3024  _roles[role].members */\n      0x00\n      add\n        /* \"https://github.com/OpenZeppelin/openzeppelin-contracts/blob/v4.8.0/contracts/access/AccessControl.sol\":3004:3033  _roles[role].members[account] */\n      0x00\n        /* \"https://github.com/OpenZeppelin/openzeppelin-contracts/blob/v4.8.0/contracts/access/AccessControl.sol\":3025:3032  account */\n      dup4\n        /* \"https://github.com/OpenZeppelin/openzeppelin-contracts/blob/v4.8.0/contracts/access/AccessControl.sol\":3004:3033  _roles[role].members[account] */\n      0xffffffffffffffffffffffffffffffffffffffff\n      and\n      0xffffffffffffffffffffffffffffffffffffffff\n      and\n      dup2\n      mstore\n      0x20\n      add\n      swap1\n      dup2\n      mstore\n      0x20\n      add\n      0x00\n      keccak256\n      0x00\n      swap1\n      sload\n      swap1\n      0x0100\n      exp\n      swap1\n      div\n      0xff\n      and\n        /* \"https://github.com/OpenZeppelin/openzeppelin-contracts/blob/v4.8.0/contracts/access/AccessControl.sol\":2997:3033  return _roles[role].members[account] */\n      swap1\n      pop\n        /* \"https://github.com/OpenZeppelin/openzeppelin-contracts/blob/v4.8.0/contracts/access/AccessControl.sol\":2895:3040  function hasRole(bytes32 role, address account) public view virtual override returns (bool) {... */\n      swap3\n      swap2\n      pop\n      pop\n      jump\t// out\n        /* \"contracts/v2/TikTrixEscrow.sol\":2155:2281  function revokeAdminRole(address account) public onlyRole(DEFAULT_ADMIN_ROLE) {... */\n    tag_80:\n        /* \"https://github.com/OpenZeppelin/openzeppelin-contracts/blob/v4.8.0/contracts/access/AccessControl.sol\":2072:2076  0x00 */\n      0x00\n        /* \"contracts/v2/TikTrixEscrow.sol\":2213:2231  DEFAULT_ADMIN_ROLE */\n      dup1\n      shl\n        /* \"https://github.com/OpenZeppelin/openzeppelin-contracts/blob/v4.8.0/contracts/access/AccessControl.sol\":2505:2521  _checkRole(role) */\n      tag_173\n        /* \"https://github.com/OpenZeppelin/openzeppelin-contracts/blob/v4.8.0/contracts/access/AccessControl.sol\":2516:2520  role */\n      dup2\n        /* \"https://github.com/OpenZeppelin/openzeppelin-contracts/blob/v4.8.0/contracts/access/AccessControl.sol\":2505:2515  _checkRole */\n      tag_126\n        /* \"https://github.com/OpenZeppelin/openzeppelin-contracts/blob/v4.8.0/contracts/access/AccessControl.sol\":2505:2521  _checkRole(role) */\n      jump\t// in\n    tag_173:\n        /* \"contracts/v2/TikTrixEscrow.sol\":2243:2274  revokeRole(ADMIN_ROLE, account) */\n      tag_175\n        /* \"contracts/v2/TikTrixEscrow.sol\":511:534  keccak256(\"ADMIN_ROLE\") */\n      0xa49807205ce4d355092ef5a8a18f56e8913cf4a201fbe287825b095693c21775\n        /* \"contracts/v2/TikTrixEscrow.sol\":2266:2273  account */\n      dup4\n        /* \"contracts/v2/TikTrixEscrow.sol\":2243:2253  revokeRole */\n      tag_111\n        /* \"contracts/v2/TikTrixEscrow.sol\":2243:2274  revokeRole(ADMIN_ROLE, account) */\n      jump\t// in\n    tag_175:\n        /* \"contracts/v2/TikTrixEscrow.sol\":2155:2281  function revokeAdminRole(address account) public onlyRole(DEFAULT_ADMIN_ROLE) {... */\n      pop\n      pop\n      jump\t// out\n        /* \"https://github.com/OpenZeppelin/openzeppelin-contracts/blob/v4.8.0/contracts/access/AccessControl.sol\":2027:2076  bytes32 public constant DEFAULT_ADMIN_ROLE = 0x00 */\n    tag_82:\n        /* \"https://github.com/OpenZeppelin/openzeppelin-contracts/blob/v4.8.0/contracts/access/AccessControl.sol\":2072:2076  0x00 */\n      0x00\n        /* \"https://github.com/OpenZeppelin/openzeppelin-contracts/blob/v4.8.0/contracts/access/AccessControl.sol\":2027:2076  bytes32 public constant DEFAULT_ADMIN_ROLE = 0x00 */\n      dup1\n      shl\n      dup2\n      jump\t// out\n        /* \"contracts/v2/TikTrixEscrow.sol\":2914:3124  function getMemberInfo(uint256 memberSeq) external view returns (MemberInfo memory) {... */\n    tag_87:\n        /* \"contracts/v2/TikTrixEscrow.sol\":2979:2996  MemberInfo memory */\n      tag_176\n      tag_177\n      jump\t// in\n    tag_176:\n        /* \"contracts/v2/TikTrixEscrow.sol\":3051:3052  0 */\n      0x00\n        /* \"contracts/v2/TikTrixEscrow.sol\":3016:3027  memberInfos */\n      0x03\n        /* \"contracts/v2/TikTrixEscrow.sol\":3016:3038  memberInfos[memberSeq] */\n      0x00\n        /* \"contracts/v2/TikTrixEscrow.sol\":3028:3037  memberSeq */\n      dup5\n        /* \"contracts/v2/TikTrixEscrow.sol\":3016:3038  memberInfos[memberSeq] */\n      dup2\n      mstore\n      0x20\n      add\n      swap1\n      dup2\n      mstore\n      0x20\n      add\n      0x00\n      keccak256\n        /* \"contracts/v2/TikTrixEscrow.sol\":3016:3048  memberInfos[memberSeq].memberSeq */\n      0x00\n      add\n      sload\n        /* \"contracts/v2/TikTrixEscrow.sol\":3016:3052  memberInfos[memberSeq].memberSeq > 0 */\n      gt\n        /* \"contracts/v2/TikTrixEscrow.sol\":3008:3078  require(memberInfos[memberSeq].memberSeq > 0, \"Member does not exist\") */\n      tag_179\n      jumpi\n      mload(0x40)\n      0x08c379a000000000000000000000000000000000000000000000000000000000\n      dup2\n      mstore\n      0x04\n      add\n      tag_180\n      swap1\n      tag_181\n      jump\t// in\n    tag_180:\n      mload(0x40)\n      dup1\n      swap2\n      sub\n      swap1\n      revert\n    tag_179:\n        /* \"contracts/v2/TikTrixEscrow.sol\":3095:3106  memberInfos */\n      0x03\n        /* \"contracts/v2/TikTrixEscrow.sol\":3095:3117  memberInfos[memberSeq] */\n      0x00\n        /* \"contracts/v2/TikTrixEscrow.sol\":3107:3116  memberSeq */\n      dup4\n        /* \"contracts/v2/TikTrixEscrow.sol\":3095:3117  memberInfos[memberSeq] */\n      dup2\n      mstore\n      0x20\n      add\n      swap1\n      dup2\n      mstore\n      0x20\n      add\n      0x00\n      keccak256\n        /* \"contracts/v2/TikTrixEscrow.sol\":3088:3117  return memberInfos[memberSeq] */\n      mload(0x40)\n      dup1\n      0x20\n      add\n      0x40\n      mstore\n      swap1\n      dup2\n      0x00\n      dup3\n      add\n      sload\n      dup2\n      mstore\n      pop\n      pop\n      swap1\n      pop\n        /* \"contracts/v2/TikTrixEscrow.sol\":2914:3124  function getMemberInfo(uint256 memberSeq) external view returns (MemberInfo memory) {... */\n      swap2\n      swap1\n      pop\n      jump\t// out\n        /* \"contracts/v2/TikTrixEscrow.sol\":2503:2908  function memberRegister(uint256 memberSeq, address mintAddress, uint256 tokenAmount) external onlyRole(ADMIN_ROLE) {... */\n    tag_93:\n        /* \"contracts/v2/TikTrixEscrow.sol\":511:534  keccak256(\"ADMIN_ROLE\") */\n      0xa49807205ce4d355092ef5a8a18f56e8913cf4a201fbe287825b095693c21775\n        /* \"https://github.com/OpenZeppelin/openzeppelin-contracts/blob/v4.8.0/contracts/access/AccessControl.sol\":2505:2521  _checkRole(role) */\n      tag_183\n        /* \"https://github.com/OpenZeppelin/openzeppelin-contracts/blob/v4.8.0/contracts/access/AccessControl.sol\":2516:2520  role */\n      dup2\n        /* \"https://github.com/OpenZeppelin/openzeppelin-contracts/blob/v4.8.0/contracts/access/AccessControl.sol\":2505:2515  _checkRole */\n      tag_126\n        /* \"https://github.com/OpenZeppelin/openzeppelin-contracts/blob/v4.8.0/contracts/access/AccessControl.sol\":2505:2521  _checkRole(role) */\n      jump\t// in\n    tag_183:\n        /* \"contracts/v2/TikTrixEscrow.sol\":2672:2673  0 */\n      0x00\n        /* \"contracts/v2/TikTrixEscrow.sol\":2636:2647  memberInfos */\n      0x03\n        /* \"contracts/v2/TikTrixEscrow.sol\":2636:2658  memberInfos[memberSeq] */\n      0x00\n        /* \"contracts/v2/TikTrixEscrow.sol\":2648:2657  memberSeq */\n      dup7\n        /* \"contracts/v2/TikTrixEscrow.sol\":2636:2658  memberInfos[memberSeq] */\n      dup2\n      mstore\n      0x20\n      add\n      swap1\n      dup2\n      mstore\n      0x20\n      add\n      0x00\n      keccak256\n        /* \"contracts/v2/TikTrixEscrow.sol\":2636:2668  memberInfos[memberSeq].memberSeq */\n      0x00\n      add\n      sload\n        /* \"contracts/v2/TikTrixEscrow.sol\":2636:2673  memberInfos[memberSeq].memberSeq == 0 */\n      eq\n        /* \"contracts/v2/TikTrixEscrow.sol\":2628:2703  require(memberInfos[memberSeq].memberSeq == 0, \"Member already registered\") */\n      tag_185\n      jumpi\n      mload(0x40)\n      0x08c379a000000000000000000000000000000000000000000000000000000000\n      dup2\n      mstore\n      0x04\n      add\n      tag_186\n      swap1\n      tag_187\n      jump\t// in\n    tag_186:\n      mload(0x40)\n      dup1\n      swap2\n      sub\n      swap1\n      revert\n    tag_185:\n        /* \"contracts/v2/TikTrixEscrow.sol\":2739:2795  MemberInfo({... */\n      mload(0x40)\n      dup1\n      0x20\n      add\n      0x40\n      mstore\n      dup1\n        /* \"contracts/v2/TikTrixEscrow.sol\":2775:2784  memberSeq */\n      dup6\n        /* \"contracts/v2/TikTrixEscrow.sol\":2739:2795  MemberInfo({... */\n      dup2\n      mstore\n      pop\n        /* \"contracts/v2/TikTrixEscrow.sol\":2714:2725  memberInfos */\n      0x03\n        /* \"contracts/v2/TikTrixEscrow.sol\":2714:2736  memberInfos[memberSeq] */\n      0x00\n        /* \"contracts/v2/TikTrixEscrow.sol\":2726:2735  memberSeq */\n      dup7\n        /* \"contracts/v2/TikTrixEscrow.sol\":2714:2736  memberInfos[memberSeq] */\n      dup2\n      mstore\n      0x20\n      add\n      swap1\n      dup2\n      mstore\n      0x20\n      add\n      0x00\n      keccak256\n        /* \"contracts/v2/TikTrixEscrow.sol\":2714:2795  memberInfos[memberSeq] = MemberInfo({... */\n      0x00\n      dup3\n      add\n      mload\n      dup2\n      0x00\n      add\n      sstore\n      swap1\n      pop\n      pop\n        /* \"contracts/v2/TikTrixEscrow.sol\":2806:2814  entToken */\n      0x01\n      0x00\n      swap1\n      sload\n      swap1\n      0x0100\n      exp\n      swap1\n      div\n      0xffffffffffffffffffffffffffffffffffffffff\n      and\n        /* \"contracts/v2/TikTrixEscrow.sol\":2806:2819  entToken.mint */\n      0xffffffffffffffffffffffffffffffffffffffff\n      and\n      0x40c10f19\n        /* \"contracts/v2/TikTrixEscrow.sol\":2820:2831  mintAddress */\n      dup5\n        /* \"contracts/v2/TikTrixEscrow.sol\":2833:2844  tokenAmount */\n      dup5\n        /* \"contracts/v2/TikTrixEscrow.sol\":2806:2845  entToken.mint(mintAddress, tokenAmount) */\n      mload(0x40)\n      dup4\n      0xffffffff\n      and\n      0xe0\n      shl\n      dup2\n      mstore\n      0x04\n      add\n      tag_188\n      swap3\n      swap2\n      swap1\n      tag_154\n      jump\t// in\n    tag_188:\n      0x00\n      mload(0x40)\n      dup1\n      dup4\n      sub\n      dup2\n      0x00\n      dup8\n      dup1\n      extcodesize\n      iszero\n      dup1\n      iszero\n      tag_189\n      jumpi\n      0x00\n      dup1\n      revert\n    tag_189:\n      pop\n      gas\n      call\n      iszero\n      dup1\n      iszero\n      tag_191\n      jumpi\n      returndatasize\n      0x00\n      dup1\n      returndatacopy\n      revert(0x00, returndatasize)\n    tag_191:\n      pop\n      pop\n      pop\n      pop\n        /* \"contracts/v2/TikTrixEscrow.sol\":2861:2901  MemberRegistered(memberSeq, tokenAmount) */\n      0x5a92c2530f207992057b9c3e544108ffce3beda4a63719f316967c49bf6159d2\n        /* \"contracts/v2/TikTrixEscrow.sol\":2878:2887  memberSeq */\n      dup5\n        /* \"contracts/v2/TikTrixEscrow.sol\":2889:2900  tokenAmount */\n      dup4\n        /* \"contracts/v2/TikTrixEscrow.sol\":2861:2901  MemberRegistered(memberSeq, tokenAmount) */\n      mload(0x40)\n      tag_192\n      swap3\n      swap2\n      swap1\n      tag_193\n      jump\t// in\n    tag_192:\n      mload(0x40)\n      dup1\n      swap2\n      sub\n      swap1\n      log1\n        /* \"contracts/v2/TikTrixEscrow.sol\":2503:2908  function memberRegister(uint256 memberSeq, address mintAddress, uint256 tokenAmount) external onlyRole(ADMIN_ROLE) {... */\n      pop\n      pop\n      pop\n      pop\n      jump\t// out\n        /* \"contracts/v2/TikTrixEscrow.sol\":960:1009  mapping(uint256 => MemberInfo) public memberInfos */\n    tag_96:\n      mstore(0x20, 0x03)\n      dup1\n      0x00\n      mstore\n      keccak256(0x00, 0x40)\n      0x00\n      swap2\n      pop\n      swap1\n      pop\n      dup1\n      0x00\n      add\n      sload\n      swap1\n      pop\n      dup2\n      jump\t// out\n        /* \"contracts/v2/TikTrixEscrow.sol\":2025:2149  function grantAdminRole(address account) public onlyRole(DEFAULT_ADMIN_ROLE) {... */\n    tag_101:\n        /* \"https://github.com/OpenZeppelin/openzeppelin-contracts/blob/v4.8.0/contracts/access/AccessControl.sol\":2072:2076  0x00 */\n      0x00\n        /* \"contracts/v2/TikTrixEscrow.sol\":2082:2100  DEFAULT_ADMIN_ROLE */\n      dup1\n      shl\n        /* \"https://github.com/OpenZeppelin/openzeppelin-contracts/blob/v4.8.0/contracts/access/AccessControl.sol\":2505:2521  _checkRole(role) */\n      tag_195\n        /* \"https://github.com/OpenZeppelin/openzeppelin-contracts/blob/v4.8.0/contracts/access/AccessControl.sol\":2516:2520  role */\n      dup2\n        /* \"https://github.com/OpenZeppelin/openzeppelin-contracts/blob/v4.8.0/contracts/access/AccessControl.sol\":2505:2515  _checkRole */\n      tag_126\n        /* \"https://github.com/OpenZeppelin/openzeppelin-contracts/blob/v4.8.0/contracts/access/AccessControl.sol\":2505:2521  _checkRole(role) */\n      jump\t// in\n    tag_195:\n        /* \"contracts/v2/TikTrixEscrow.sol\":2112:2142  grantRole(ADMIN_ROLE, account) */\n      tag_197\n        /* \"contracts/v2/TikTrixEscrow.sol\":511:534  keccak256(\"ADMIN_ROLE\") */\n      0xa49807205ce4d355092ef5a8a18f56e8913cf4a201fbe287825b095693c21775\n        /* \"contracts/v2/TikTrixEscrow.sol\":2134:2141  account */\n      dup4\n        /* \"contracts/v2/TikTrixEscrow.sol\":2112:2121  grantRole */\n      tag_47\n        /* \"contracts/v2/TikTrixEscrow.sol\":2112:2142  grantRole(ADMIN_ROLE, account) */\n      jump\t// in\n    tag_197:\n        /* \"contracts/v2/TikTrixEscrow.sol\":2025:2149  function grantAdminRole(address account) public onlyRole(DEFAULT_ADMIN_ROLE) {... */\n      pop\n      pop\n      jump\t// out\n        /* \"contracts/v2/TikTrixEscrow.sol\":3130:4117  function challengeRegister(... */\n    tag_104:\n        /* \"contracts/v2/TikTrixEscrow.sol\":3298:3313  challengeScores */\n      0x05\n        /* \"contracts/v2/TikTrixEscrow.sol\":3298:3323  challengeScores[yyyymmdd] */\n      0x00\n        /* \"contracts/v2/TikTrixEscrow.sol\":3314:3322  yyyymmdd */\n      dup6\n        /* \"contracts/v2/TikTrixEscrow.sol\":3298:3323  challengeScores[yyyymmdd] */\n      dup2\n      mstore\n      0x20\n      add\n      swap1\n      dup2\n      mstore\n      0x20\n      add\n      0x00\n      keccak256\n        /* \"contracts/v2/TikTrixEscrow.sol\":3298:3332  challengeScores[yyyymmdd][gameSeq] */\n      0x00\n        /* \"contracts/v2/TikTrixEscrow.sol\":3324:3331  gameSeq */\n      dup5\n        /* \"contracts/v2/TikTrixEscrow.sol\":3298:3332  challengeScores[yyyymmdd][gameSeq] */\n      dup2\n      mstore\n      0x20\n      add\n      swap1\n      dup2\n      mstore\n      0x20\n      add\n      0x00\n      keccak256\n        /* \"contracts/v2/TikTrixEscrow.sol\":3298:3343  challengeScores[yyyymmdd][gameSeq][memberSeq] */\n      0x00\n        /* \"contracts/v2/TikTrixEscrow.sol\":3333:3342  memberSeq */\n      dup4\n        /* \"contracts/v2/TikTrixEscrow.sol\":3298:3343  challengeScores[yyyymmdd][gameSeq][memberSeq] */\n      dup2\n      mstore\n      0x20\n      add\n      swap1\n      dup2\n      mstore\n      0x20\n      add\n      0x00\n      keccak256\n        /* \"contracts/v2/TikTrixEscrow.sol\":3298:3350  challengeScores[yyyymmdd][gameSeq][memberSeq].exists */\n      0x04\n      add\n      0x00\n      swap1\n      sload\n      swap1\n      0x0100\n      exp\n      swap1\n      div\n      0xff\n      and\n        /* \"contracts/v2/TikTrixEscrow.sol\":3297:3350  !challengeScores[yyyymmdd][gameSeq][memberSeq].exists */\n      iszero\n        /* \"contracts/v2/TikTrixEscrow.sol\":3289:3411  require(!challengeScores[yyyymmdd][gameSeq][memberSeq].exists, \"Challenge already exists for this member, date, and game\") */\n      tag_199\n      jumpi\n      mload(0x40)\n      0x08c379a000000000000000000000000000000000000000000000000000000000\n      dup2\n      mstore\n      0x04\n      add\n      tag_200\n      swap1\n      tag_201\n      jump\t// in\n    tag_200:\n      mload(0x40)\n      dup1\n      swap2\n      sub\n      swap1\n      revert\n    tag_199:\n        /* \"contracts/v2/TikTrixEscrow.sol\":3422:3439  uint256 allowance */\n      0x00\n        /* \"contracts/v2/TikTrixEscrow.sol\":3442:3450  entToken */\n      0x01\n      0x00\n      swap1\n      sload\n      swap1\n      0x0100\n      exp\n      swap1\n      div\n      0xffffffffffffffffffffffffffffffffffffffff\n      and\n        /* \"contracts/v2/TikTrixEscrow.sol\":3442:3460  entToken.allowance */\n      0xffffffffffffffffffffffffffffffffffffffff\n      and\n      0xdd62ed3e\n        /* \"contracts/v2/TikTrixEscrow.sol\":3461:3471  msg.sender */\n      caller\n        /* \"contracts/v2/TikTrixEscrow.sol\":3481:3485  this */\n      address\n        /* \"contracts/v2/TikTrixEscrow.sol\":3442:3487  entToken.allowance(msg.sender, address(this)) */\n      mload(0x40)\n      dup4\n      0xffffffff\n      and\n      0xe0\n      shl\n      dup2\n      mstore\n      0x04\n      add\n      tag_202\n      swap3\n      swap2\n      swap1\n      tag_203\n      jump\t// in\n    tag_202:\n      0x20\n      mload(0x40)\n      dup1\n      dup4\n      sub\n      dup2\n      dup7\n      gas\n      staticcall\n      iszero\n      dup1\n      iszero\n      tag_205\n      jumpi\n      returndatasize\n      0x00\n      dup1\n      returndatacopy\n      revert(0x00, returndatasize)\n    tag_205:\n      pop\n      pop\n      pop\n      pop\n      mload(0x40)\n      returndatasize\n      not(0x1f)\n      0x1f\n      dup3\n      add\n      and\n      dup3\n      add\n      dup1\n      0x40\n      mstore\n      pop\n      dup2\n      add\n      swap1\n      tag_206\n      swap2\n      swap1\n      tag_207\n      jump\t// in\n    tag_206:\n        /* \"contracts/v2/TikTrixEscrow.sol\":3422:3487  uint256 allowance = entToken.allowance(msg.sender, address(this)) */\n      swap1\n      pop\n        /* \"contracts/v2/TikTrixEscrow.sol\":3518:3529  tokenAmount */\n      dup2\n        /* \"contracts/v2/TikTrixEscrow.sol\":3505:3514  allowance */\n      dup2\n        /* \"contracts/v2/TikTrixEscrow.sol\":3505:3529  allowance >= tokenAmount */\n      lt\n      iszero\n        /* \"contracts/v2/TikTrixEscrow.sol\":3497:3562  require(allowance >= tokenAmount, \"Insufficient token allowance\") */\n      tag_208\n      jumpi\n      mload(0x40)\n      0x08c379a000000000000000000000000000000000000000000000000000000000\n      dup2\n      mstore\n      0x04\n      add\n      tag_209\n      swap1\n      tag_210\n      jump\t// in\n    tag_209:\n      mload(0x40)\n      dup1\n      swap2\n      sub\n      swap1\n      revert\n    tag_208:\n        /* \"contracts/v2/TikTrixEscrow.sol\":3573:3588  uint256 balance */\n      0x00\n        /* \"contracts/v2/TikTrixEscrow.sol\":3591:3599  entToken */\n      0x01\n      0x00\n      swap1\n      sload\n      swap1\n      0x0100\n      exp\n      swap1\n      div\n      0xffffffffffffffffffffffffffffffffffffffff\n      and\n        /* \"contracts/v2/TikTrixEscrow.sol\":3591:3609  entToken.balanceOf */\n      0xffffffffffffffffffffffffffffffffffffffff\n      and\n      0x70a08231\n        /* \"contracts/v2/TikTrixEscrow.sol\":3610:3620  msg.sender */\n      caller\n        /* \"contracts/v2/TikTrixEscrow.sol\":3591:3621  entToken.balanceOf(msg.sender) */\n      mload(0x40)\n      dup3\n      0xffffffff\n      and\n      0xe0\n      shl\n      dup2\n      mstore\n      0x04\n      add\n      tag_211\n      swap2\n      swap1\n      tag_212\n      jump\t// in\n    tag_211:\n      0x20\n      mload(0x40)\n      dup1\n      dup4\n      sub\n      dup2\n      dup7\n      gas\n      staticcall\n      iszero\n      dup1\n      iszero\n      tag_214\n      jumpi\n      returndatasize\n      0x00\n      dup1\n      returndatacopy\n      revert(0x00, returndatasize)\n    tag_214:\n      pop\n      pop\n      pop\n      pop\n      mload(0x40)\n      returndatasize\n      not(0x1f)\n      0x1f\n      dup3\n      add\n      and\n      dup3\n      add\n      dup1\n      0x40\n      mstore\n      pop\n      dup2\n      add\n      swap1\n      tag_215\n      swap2\n      swap1\n      tag_207\n      jump\t// in\n    tag_215:\n        /* \"contracts/v2/TikTrixEscrow.sol\":3573:3621  uint256 balance = entToken.balanceOf(msg.sender) */\n      swap1\n      pop\n        /* \"contracts/v2/TikTrixEscrow.sol\":3650:3661  tokenAmount */\n      dup3\n        /* \"contracts/v2/TikTrixEscrow.sol\":3639:3646  balance */\n      dup2\n        /* \"contracts/v2/TikTrixEscrow.sol\":3639:3661  balance >= tokenAmount */\n      lt\n      iszero\n        /* \"contracts/v2/TikTrixEscrow.sol\":3631:3692  require(balance >= tokenAmount, \"Insufficient token balance\") */\n      tag_216\n      jumpi\n      mload(0x40)\n      0x08c379a000000000000000000000000000000000000000000000000000000000\n      dup2\n      mstore\n      0x04\n      add\n      tag_217\n      swap1\n      tag_218\n      jump\t// in\n    tag_217:\n      mload(0x40)\n      dup1\n      swap2\n      sub\n      swap1\n      revert\n    tag_216:\n        /* \"contracts/v2/TikTrixEscrow.sol\":3711:3719  entToken */\n      0x01\n      0x00\n      swap1\n      sload\n      swap1\n      0x0100\n      exp\n      swap1\n      div\n      0xffffffffffffffffffffffffffffffffffffffff\n      and\n        /* \"contracts/v2/TikTrixEscrow.sol\":3711:3732  entToken.transferFrom */\n      0xffffffffffffffffffffffffffffffffffffffff\n      and\n      0x23b872dd\n        /* \"contracts/v2/TikTrixEscrow.sol\":3733:3743  msg.sender */\n      caller\n        /* \"contracts/v2/TikTrixEscrow.sol\":3753:3757  this */\n      address\n        /* \"contracts/v2/TikTrixEscrow.sol\":3760:3771  tokenAmount */\n      dup7\n        /* \"contracts/v2/TikTrixEscrow.sol\":3711:3772  entToken.transferFrom(msg.sender, address(this), tokenAmount) */\n      mload(0x40)\n      dup5\n      0xffffffff\n      and\n      0xe0\n      shl\n      dup2\n      mstore\n      0x04\n      add\n      tag_219\n      swap4\n      swap3\n      swap2\n      swap1\n      tag_220\n      jump\t// in\n    tag_219:\n      0x20\n      mload(0x40)\n      dup1\n      dup4\n      sub\n      dup2\n      0x00\n      dup8\n      gas\n      call\n      iszero\n      dup1\n      iszero\n      tag_222\n      jumpi\n      returndatasize\n      0x00\n      dup1\n      returndatacopy\n      revert(0x00, returndatasize)\n    tag_222:\n      pop\n      pop\n      pop\n      pop\n      mload(0x40)\n      returndatasize\n      not(0x1f)\n      0x1f\n      dup3\n      add\n      and\n      dup3\n      add\n      dup1\n      0x40\n      mstore\n      pop\n      dup2\n      add\n      swap1\n      tag_223\n      swap2\n      swap1\n      tag_158\n      jump\t// in\n    tag_223:\n        /* \"contracts/v2/TikTrixEscrow.sol\":3703:3798  require(entToken.transferFrom(msg.sender, address(this), tokenAmount), \"Token transfer failed\") */\n      tag_224\n      jumpi\n      mload(0x40)\n      0x08c379a000000000000000000000000000000000000000000000000000000000\n      dup2\n      mstore\n      0x04\n      add\n      tag_225\n      swap1\n      tag_161\n      jump\t// in\n    tag_225:\n      mload(0x40)\n      dup1\n      swap2\n      sub\n      swap1\n      revert\n    tag_224:\n        /* \"contracts/v2/TikTrixEscrow.sol\":3857:4033  ChallengeScore({... */\n      mload(0x40)\n      dup1\n      0xa0\n      add\n      0x40\n      mstore\n      dup1\n        /* \"contracts/v2/TikTrixEscrow.sol\":3895:3902  gameSeq */\n      dup7\n        /* \"contracts/v2/TikTrixEscrow.sol\":3857:4033  ChallengeScore({... */\n      dup2\n      mstore\n      0x20\n      add\n        /* \"contracts/v2/TikTrixEscrow.sol\":3927:3936  memberSeq */\n      dup6\n        /* \"contracts/v2/TikTrixEscrow.sol\":3857:4033  ChallengeScore({... */\n      dup2\n      mstore\n      0x20\n      add\n        /* \"contracts/v2/TikTrixEscrow.sol\":3963:3974  tokenAmount */\n      dup5\n        /* \"contracts/v2/TikTrixEscrow.sol\":3857:4033  ChallengeScore({... */\n      dup2\n      mstore\n      0x20\n      add\n        /* \"contracts/v2/TikTrixEscrow.sol\":3995:3996  0 */\n      0x00\n        /* \"contracts/v2/TikTrixEscrow.sol\":3857:4033  ChallengeScore({... */\n      dup2\n      mstore\n      0x20\n      add\n        /* \"contracts/v2/TikTrixEscrow.sol\":4018:4022  true */\n      0x01\n        /* \"contracts/v2/TikTrixEscrow.sol\":3857:4033  ChallengeScore({... */\n      iszero\n      iszero\n      dup2\n      mstore\n      pop\n        /* \"contracts/v2/TikTrixEscrow.sol\":3809:3824  challengeScores */\n      0x05\n        /* \"contracts/v2/TikTrixEscrow.sol\":3809:3834  challengeScores[yyyymmdd] */\n      0x00\n        /* \"contracts/v2/TikTrixEscrow.sol\":3825:3833  yyyymmdd */\n      dup9\n        /* \"contracts/v2/TikTrixEscrow.sol\":3809:3834  challengeScores[yyyymmdd] */\n      dup2\n      mstore\n      0x20\n      add\n      swap1\n      dup2\n      mstore\n      0x20\n      add\n      0x00\n      keccak256\n        /* \"contracts/v2/TikTrixEscrow.sol\":3809:3843  challengeScores[yyyymmdd][gameSeq] */\n      0x00\n        /* \"contracts/v2/TikTrixEscrow.sol\":3835:3842  gameSeq */\n      dup8\n        /* \"contracts/v2/TikTrixEscrow.sol\":3809:3843  challengeScores[yyyymmdd][gameSeq] */\n      dup2\n      mstore\n      0x20\n      add\n      swap1\n      dup2\n      mstore\n      0x20\n      add\n      0x00\n      keccak256\n        /* \"contracts/v2/TikTrixEscrow.sol\":3809:3854  challengeScores[yyyymmdd][gameSeq][memberSeq] */\n      0x00\n        /* \"contracts/v2/TikTrixEscrow.sol\":3844:3853  memberSeq */\n      dup7\n        /* \"contracts/v2/TikTrixEscrow.sol\":3809:3854  challengeScores[yyyymmdd][gameSeq][memberSeq] */\n      dup2\n      mstore\n      0x20\n      add\n      swap1\n      dup2\n      mstore\n      0x20\n      add\n      0x00\n      keccak256\n        /* \"contracts/v2/TikTrixEscrow.sol\":3809:4033  challengeScores[yyyymmdd][gameSeq][memberSeq] = ChallengeScore({... */\n      0x00\n      dup3\n      add\n      mload\n      dup2\n      0x00\n      add\n      sstore\n      0x20\n      dup3\n      add\n      mload\n      dup2\n      0x01\n      add\n      sstore\n      0x40\n      dup3\n      add\n      mload\n      dup2\n      0x02\n      add\n      sstore\n      0x60\n      dup3\n      add\n      mload\n      dup2\n      0x03\n      add\n      sstore\n      0x80\n      dup3\n      add\n      mload\n      dup2\n      0x04\n      add\n      exp(0x0100, 0x00)\n      dup2\n      sload\n      dup2\n      0xff\n      mul\n      not\n      and\n      swap1\n      dup4\n      iszero\n      iszero\n      mul\n      or\n      swap1\n      sstore\n      pop\n      swap1\n      pop\n      pop\n        /* \"contracts/v2/TikTrixEscrow.sol\":4087:4096  memberSeq */\n      dup4\n        /* \"contracts/v2/TikTrixEscrow.sol\":4078:4085  gameSeq */\n      dup6\n        /* \"contracts/v2/TikTrixEscrow.sol\":4068:4076  yyyymmdd */\n      dup8\n        /* \"contracts/v2/TikTrixEscrow.sol\":4049:4110  ChallengeRegistred(yyyymmdd, gameSeq, memberSeq, tokenAmount) */\n      0x7bbca5efeebbed029b1684066d1a6e0ade8efe8c578ab0890d4b223e6ec5e50e\n        /* \"contracts/v2/TikTrixEscrow.sol\":4098:4109  tokenAmount */\n      dup7\n        /* \"contracts/v2/TikTrixEscrow.sol\":4049:4110  ChallengeRegistred(yyyymmdd, gameSeq, memberSeq, tokenAmount) */\n      mload(0x40)\n      tag_226\n      swap2\n      swap1\n      tag_98\n      jump\t// in\n    tag_226:\n      mload(0x40)\n      dup1\n      swap2\n      sub\n      swap1\n      log4\n        /* \"contracts/v2/TikTrixEscrow.sol\":3279:4117  {... */\n      pop\n      pop\n        /* \"contracts/v2/TikTrixEscrow.sol\":3130:4117  function challengeRegister(... */\n      pop\n      pop\n      pop\n      pop\n      jump\t// out\n        /* \"contracts/v2/TikTrixEscrow.sol\":2287:2497  function setTokens(address entTokenAddress, address rptTokenAddress) external onlyRole(ADMIN_ROLE) {... */\n    tag_108:\n        /* \"contracts/v2/TikTrixEscrow.sol\":511:534  keccak256(\"ADMIN_ROLE\") */\n      0xa49807205ce4d355092ef5a8a18f56e8913cf4a201fbe287825b095693c21775\n        /* \"https://github.com/OpenZeppelin/openzeppelin-contracts/blob/v4.8.0/contracts/access/AccessControl.sol\":2505:2521  _checkRole(role) */\n      tag_228\n        /* \"https://github.com/OpenZeppelin/openzeppelin-contracts/blob/v4.8.0/contracts/access/AccessControl.sol\":2516:2520  role */\n      dup2\n        /* \"https://github.com/OpenZeppelin/openzeppelin-contracts/blob/v4.8.0/contracts/access/AccessControl.sol\":2505:2515  _checkRole */\n      tag_126\n        /* \"https://github.com/OpenZeppelin/openzeppelin-contracts/blob/v4.8.0/contracts/access/AccessControl.sol\":2505:2521  _checkRole(role) */\n      jump\t// in\n    tag_228:\n        /* \"contracts/v2/TikTrixEscrow.sol\":2422:2437  entTokenAddress */\n      dup3\n        /* \"contracts/v2/TikTrixEscrow.sol\":2396:2404  entToken */\n      0x01\n      0x00\n        /* \"contracts/v2/TikTrixEscrow.sol\":2396:2438  entToken = IERC20Mintable(entTokenAddress) */\n      0x0100\n      exp\n      dup2\n      sload\n      dup2\n      0xffffffffffffffffffffffffffffffffffffffff\n      mul\n      not\n      and\n      swap1\n      dup4\n      0xffffffffffffffffffffffffffffffffffffffff\n      and\n      mul\n      or\n      swap1\n      sstore\n      pop\n        /* \"contracts/v2/TikTrixEscrow.sol\":2474:2489  rptTokenAddress */\n      dup2\n        /* \"contracts/v2/TikTrixEscrow.sol\":2448:2456  rptToken */\n      0x02\n      0x00\n        /* \"contracts/v2/TikTrixEscrow.sol\":2448:2490  rptToken = IERC20Mintable(rptTokenAddress) */\n      0x0100\n      exp\n      dup2\n      sload\n      dup2\n      0xffffffffffffffffffffffffffffffffffffffff\n      mul\n      not\n      and\n      swap1\n      dup4\n      0xffffffffffffffffffffffffffffffffffffffff\n      and\n      mul\n      or\n      swap1\n      sstore\n      pop\n        /* \"contracts/v2/TikTrixEscrow.sol\":2287:2497  function setTokens(address entTokenAddress, address rptTokenAddress) external onlyRole(ADMIN_ROLE) {... */\n      pop\n      pop\n      pop\n      jump\t// out\n        /* \"https://github.com/OpenZeppelin/openzeppelin-contracts/blob/v4.8.0/contracts/access/AccessControl.sol\":5228:5375  function revokeRole(bytes32 role, address account) public virtual override onlyRole(getRoleAdmin(role)) {... */\n    tag_111:\n        /* \"https://github.com/OpenZeppelin/openzeppelin-contracts/blob/v4.8.0/contracts/access/AccessControl.sol\":5312:5330  getRoleAdmin(role) */\n      tag_230\n        /* \"https://github.com/OpenZeppelin/openzeppelin-contracts/blob/v4.8.0/contracts/access/AccessControl.sol\":5325:5329  role */\n      dup3\n        /* \"https://github.com/OpenZeppelin/openzeppelin-contracts/blob/v4.8.0/contracts/access/AccessControl.sol\":5312:5324  getRoleAdmin */\n      tag_41\n        /* \"https://github.com/OpenZeppelin/openzeppelin-contracts/blob/v4.8.0/contracts/access/AccessControl.sol\":5312:5330  getRoleAdmin(role) */\n      jump\t// in\n    tag_230:\n        /* \"https://github.com/OpenZeppelin/openzeppelin-contracts/blob/v4.8.0/contracts/access/AccessControl.sol\":2505:2521  _checkRole(role) */\n      tag_232\n        /* \"https://github.com/OpenZeppelin/openzeppelin-contracts/blob/v4.8.0/contracts/access/AccessControl.sol\":2516:2520  role */\n      dup2\n        /* \"https://github.com/OpenZeppelin/openzeppelin-contracts/blob/v4.8.0/contracts/access/AccessControl.sol\":2505:2515  _checkRole */\n      tag_126\n        /* \"https://github.com/OpenZeppelin/openzeppelin-contracts/blob/v4.8.0/contracts/access/AccessControl.sol\":2505:2521  _checkRole(role) */\n      jump\t// in\n    tag_232:\n        /* \"https://github.com/OpenZeppelin/openzeppelin-contracts/blob/v4.8.0/contracts/access/AccessControl.sol\":5342:5368  _revokeRole(role, account) */\n      tag_234\n        /* \"https://github.com/OpenZeppelin/openzeppelin-contracts/blob/v4.8.0/contracts/access/AccessControl.sol\":5354:5358  role */\n      dup4\n        /* \"https://github.com/OpenZeppelin/openzeppelin-contracts/blob/v4.8.0/contracts/access/AccessControl.sol\":5360:5367  account */\n      dup4\n        /* \"https://github.com/OpenZeppelin/openzeppelin-contracts/blob/v4.8.0/contracts/access/AccessControl.sol\":5342:5353  _revokeRole */\n      tag_137\n        /* \"https://github.com/OpenZeppelin/openzeppelin-contracts/blob/v4.8.0/contracts/access/AccessControl.sol\":5342:5368  _revokeRole(role, account) */\n      jump\t// in\n    tag_234:\n        /* \"https://github.com/OpenZeppelin/openzeppelin-contracts/blob/v4.8.0/contracts/access/AccessControl.sol\":5228:5375  function revokeRole(bytes32 role, address account) public virtual override onlyRole(getRoleAdmin(role)) {... */\n      pop\n      pop\n      pop\n      jump\t// out\n        /* \"contracts/v2/TikTrixEscrow.sol\":541:571  IERC20Mintable public entToken */\n    tag_113:\n      0x01\n      0x00\n      swap1\n      sload\n      swap1\n      0x0100\n      exp\n      swap1\n      div\n      0xffffffffffffffffffffffffffffffffffffffff\n      and\n      dup2\n      jump\t// out\n        /* \"contracts/v2/TikTrixEscrow.sol\":4830:5355  function rankScoreUpdateChallenge(... */\n    tag_117:\n        /* \"contracts/v2/TikTrixEscrow.sol\":511:534  keccak256(\"ADMIN_ROLE\") */\n      0xa49807205ce4d355092ef5a8a18f56e8913cf4a201fbe287825b095693c21775\n        /* \"https://github.com/OpenZeppelin/openzeppelin-contracts/blob/v4.8.0/contracts/access/AccessControl.sol\":2505:2521  _checkRole(role) */\n      tag_236\n        /* \"https://github.com/OpenZeppelin/openzeppelin-contracts/blob/v4.8.0/contracts/access/AccessControl.sol\":2516:2520  role */\n      dup2\n        /* \"https://github.com/OpenZeppelin/openzeppelin-contracts/blob/v4.8.0/contracts/access/AccessControl.sol\":2505:2515  _checkRole */\n      tag_126\n        /* \"https://github.com/OpenZeppelin/openzeppelin-contracts/blob/v4.8.0/contracts/access/AccessControl.sol\":2505:2521  _checkRole(role) */\n      jump\t// in\n    tag_236:\n        /* \"contracts/v2/TikTrixEscrow.sol\":5022:5037  challengeScores */\n      0x05\n        /* \"contracts/v2/TikTrixEscrow.sol\":5022:5047  challengeScores[yyyymmdd] */\n      0x00\n        /* \"contracts/v2/TikTrixEscrow.sol\":5038:5046  yyyymmdd */\n      dup7\n        /* \"contracts/v2/TikTrixEscrow.sol\":5022:5047  challengeScores[yyyymmdd] */\n      dup2\n      mstore\n      0x20\n      add\n      swap1\n      dup2\n      mstore\n      0x20\n      add\n      0x00\n      keccak256\n        /* \"contracts/v2/TikTrixEscrow.sol\":5022:5056  challengeScores[yyyymmdd][gameSeq] */\n      0x00\n        /* \"contracts/v2/TikTrixEscrow.sol\":5048:5055  gameSeq */\n      dup6\n        /* \"contracts/v2/TikTrixEscrow.sol\":5022:5056  challengeScores[yyyymmdd][gameSeq] */\n      dup2\n      mstore\n      0x20\n      add\n      swap1\n      dup2\n      mstore\n      0x20\n      add\n      0x00\n      keccak256\n        /* \"contracts/v2/TikTrixEscrow.sol\":5022:5067  challengeScores[yyyymmdd][gameSeq][memberSeq] */\n      0x00\n        /* \"contracts/v2/TikTrixEscrow.sol\":5057:5066  memberSeq */\n      dup5\n        /* \"contracts/v2/TikTrixEscrow.sol\":5022:5067  challengeScores[yyyymmdd][gameSeq][memberSeq] */\n      dup2\n      mstore\n      0x20\n      add\n      swap1\n      dup2\n      mstore\n      0x20\n      add\n      0x00\n      keccak256\n        /* \"contracts/v2/TikTrixEscrow.sol\":5022:5074  challengeScores[yyyymmdd][gameSeq][memberSeq].exists */\n      0x04\n      add\n      0x00\n      swap1\n      sload\n      swap1\n      0x0100\n      exp\n      swap1\n      div\n      0xff\n      and\n        /* \"contracts/v2/TikTrixEscrow.sol\":5014:5103  require(challengeScores[yyyymmdd][gameSeq][memberSeq].exists, \"Challenge does not exist\") */\n      tag_238\n      jumpi\n      mload(0x40)\n      0x08c379a000000000000000000000000000000000000000000000000000000000\n      dup2\n      mstore\n      0x04\n      add\n      tag_239\n      swap1\n      tag_240\n      jump\t// in\n    tag_239:\n      mload(0x40)\n      dup1\n      swap2\n      sub\n      swap1\n      revert\n    tag_238:\n        /* \"contracts/v2/TikTrixEscrow.sol\":5129:5144  challengeScores */\n      0x05\n        /* \"contracts/v2/TikTrixEscrow.sol\":5129:5154  challengeScores[yyyymmdd] */\n      0x00\n        /* \"contracts/v2/TikTrixEscrow.sol\":5145:5153  yyyymmdd */\n      dup7\n        /* \"contracts/v2/TikTrixEscrow.sol\":5129:5154  challengeScores[yyyymmdd] */\n      dup2\n      mstore\n      0x20\n      add\n      swap1\n      dup2\n      mstore\n      0x20\n      add\n      0x00\n      keccak256\n        /* \"contracts/v2/TikTrixEscrow.sol\":5129:5163  challengeScores[yyyymmdd][gameSeq] */\n      0x00\n        /* \"contracts/v2/TikTrixEscrow.sol\":5155:5162  gameSeq */\n      dup6\n        /* \"contracts/v2/TikTrixEscrow.sol\":5129:5163  challengeScores[yyyymmdd][gameSeq] */\n      dup2\n      mstore\n      0x20\n      add\n      swap1\n      dup2\n      mstore\n      0x20\n      add\n      0x00\n      keccak256\n        /* \"contracts/v2/TikTrixEscrow.sol\":5129:5174  challengeScores[yyyymmdd][gameSeq][memberSeq] */\n      0x00\n        /* \"contracts/v2/TikTrixEscrow.sol\":5164:5173  memberSeq */\n      dup5\n        /* \"contracts/v2/TikTrixEscrow.sol\":5129:5174  challengeScores[yyyymmdd][gameSeq][memberSeq] */\n      dup2\n      mstore\n      0x20\n      add\n      swap1\n      dup2\n      mstore\n      0x20\n      add\n      0x00\n      keccak256\n        /* \"contracts/v2/TikTrixEscrow.sol\":5129:5180  challengeScores[yyyymmdd][gameSeq][memberSeq].score */\n      0x03\n      add\n      sload\n        /* \"contracts/v2/TikTrixEscrow.sol\":5118:5126  newScore */\n      dup3\n        /* \"contracts/v2/TikTrixEscrow.sol\":5118:5180  newScore > challengeScores[yyyymmdd][gameSeq][memberSeq].score */\n      gt\n        /* \"contracts/v2/TikTrixEscrow.sol\":5114:5269  if (newScore > challengeScores[yyyymmdd][gameSeq][memberSeq].score) {... */\n      iszero\n      tag_241\n      jumpi\n        /* \"contracts/v2/TikTrixEscrow.sol\":5250:5258  newScore */\n      dup2\n        /* \"contracts/v2/TikTrixEscrow.sol\":5196:5211  challengeScores */\n      0x05\n        /* \"contracts/v2/TikTrixEscrow.sol\":5196:5221  challengeScores[yyyymmdd] */\n      0x00\n        /* \"contracts/v2/TikTrixEscrow.sol\":5212:5220  yyyymmdd */\n      dup8\n        /* \"contracts/v2/TikTrixEscrow.sol\":5196:5221  challengeScores[yyyymmdd] */\n      dup2\n      mstore\n      0x20\n      add\n      swap1\n      dup2\n      mstore\n      0x20\n      add\n      0x00\n      keccak256\n        /* \"contracts/v2/TikTrixEscrow.sol\":5196:5230  challengeScores[yyyymmdd][gameSeq] */\n      0x00\n        /* \"contracts/v2/TikTrixEscrow.sol\":5222:5229  gameSeq */\n      dup7\n        /* \"contracts/v2/TikTrixEscrow.sol\":5196:5230  challengeScores[yyyymmdd][gameSeq] */\n      dup2\n      mstore\n      0x20\n      add\n      swap1\n      dup2\n      mstore\n      0x20\n      add\n      0x00\n      keccak256\n        /* \"contracts/v2/TikTrixEscrow.sol\":5196:5241  challengeScores[yyyymmdd][gameSeq][memberSeq] */\n      0x00\n        /* \"contracts/v2/TikTrixEscrow.sol\":5231:5240  memberSeq */\n      dup6\n        /* \"contracts/v2/TikTrixEscrow.sol\":5196:5241  challengeScores[yyyymmdd][gameSeq][memberSeq] */\n      dup2\n      mstore\n      0x20\n      add\n      swap1\n      dup2\n      mstore\n      0x20\n      add\n      0x00\n      keccak256\n        /* \"contracts/v2/TikTrixEscrow.sol\":5196:5247  challengeScores[yyyymmdd][gameSeq][memberSeq].score */\n      0x03\n      add\n        /* \"contracts/v2/TikTrixEscrow.sol\":5196:5258  challengeScores[yyyymmdd][gameSeq][memberSeq].score = newScore */\n      dup2\n      swap1\n      sstore\n      pop\n        /* \"contracts/v2/TikTrixEscrow.sol\":5114:5269  if (newScore > challengeScores[yyyymmdd][gameSeq][memberSeq].score) {... */\n    tag_241:\n        /* \"contracts/v2/TikTrixEscrow.sol\":5328:5337  memberSeq */\n      dup3\n        /* \"contracts/v2/TikTrixEscrow.sol\":5319:5326  gameSeq */\n      dup5\n        /* \"contracts/v2/TikTrixEscrow.sol\":5309:5317  yyyymmdd */\n      dup7\n        /* \"contracts/v2/TikTrixEscrow.sol\":5284:5348  RankScoreUpdateChallenge(yyyymmdd, gameSeq, memberSeq, newScore) */\n      0x2bbc9ad1871f4b99168aa3febe254b9069558ff96ed7746d1677869afa38243f\n        /* \"contracts/v2/TikTrixEscrow.sol\":5339:5347  newScore */\n      dup6\n        /* \"contracts/v2/TikTrixEscrow.sol\":5284:5348  RankScoreUpdateChallenge(yyyymmdd, gameSeq, memberSeq, newScore) */\n      mload(0x40)\n      tag_242\n      swap2\n      swap1\n      tag_98\n      jump\t// in\n    tag_242:\n      mload(0x40)\n      dup1\n      swap2\n      sub\n      swap1\n      log4\n        /* \"contracts/v2/TikTrixEscrow.sol\":4830:5355  function rankScoreUpdateChallenge(... */\n      pop\n      pop\n      pop\n      pop\n      pop\n      jump\t// out\n        /* \"https://github.com/OpenZeppelin/openzeppelin-contracts/blob/v4.8.0/contracts/utils/introspection/ERC165.sol\":829:984  function supportsInterface(bytes4 interfaceId) public view virtual override returns (bool) {... */\n    tag_121:\n        /* \"https://github.com/OpenZeppelin/openzeppelin-contracts/blob/v4.8.0/contracts/utils/introspection/ERC165.sol\":914:918  bool */\n      0x00\n        /* \"https://github.com/OpenZeppelin/openzeppelin-contracts/blob/v4.8.0/contracts/utils/introspection/ERC165.sol\":952:977  type(IERC165).interfaceId */\n      0x01ffc9a700000000000000000000000000000000000000000000000000000000\n        /* \"https://github.com/OpenZeppelin/openzeppelin-contracts/blob/v4.8.0/contracts/utils/introspection/ERC165.sol\":937:977  interfaceId == type(IERC165).interfaceId */\n      not(0xffffffffffffffffffffffffffffffffffffffffffffffffffffffff)\n      and\n        /* \"https://github.com/OpenZeppelin/openzeppelin-contracts/blob/v4.8.0/contracts/utils/introspection/ERC165.sol\":937:948  interfaceId */\n      dup3\n        /* \"https://github.com/OpenZeppelin/openzeppelin-contracts/blob/v4.8.0/contracts/utils/introspection/ERC165.sol\":937:977  interfaceId == type(IERC165).interfaceId */\n      not(0xffffffffffffffffffffffffffffffffffffffffffffffffffffffff)\n      and\n      eq\n        /* \"https://github.com/OpenZeppelin/openzeppelin-contracts/blob/v4.8.0/contracts/utils/introspection/ERC165.sol\":930:977  return interfaceId == type(IERC165).interfaceId */\n      swap1\n      pop\n        /* \"https://github.com/OpenZeppelin/openzeppelin-contracts/blob/v4.8.0/contracts/utils/introspection/ERC165.sol\":829:984  function supportsInterface(bytes4 interfaceId) public view virtual override returns (bool) {... */\n      swap2\n      swap1\n      pop\n      jump\t// out\n        /* \"https://github.com/OpenZeppelin/openzeppelin-contracts/blob/v4.8.0/contracts/access/AccessControl.sol\":3334:3437  function _checkRole(bytes32 role) internal view virtual {... */\n    tag_126:\n        /* \"https://github.com/OpenZeppelin/openzeppelin-contracts/blob/v4.8.0/contracts/access/AccessControl.sol\":3400:3430  _checkRole(role, _msgSender()) */\n      tag_245\n        /* \"https://github.com/OpenZeppelin/openzeppelin-contracts/blob/v4.8.0/contracts/access/AccessControl.sol\":3411:3415  role */\n      dup2\n        /* \"https://github.com/OpenZeppelin/openzeppelin-contracts/blob/v4.8.0/contracts/access/AccessControl.sol\":3417:3429  _msgSender() */\n      tag_246\n        /* \"https://github.com/OpenZeppelin/openzeppelin-contracts/blob/v4.8.0/contracts/access/AccessControl.sol\":3417:3427  _msgSender */\n      tag_132\n        /* \"https://github.com/OpenZeppelin/openzeppelin-contracts/blob/v4.8.0/contracts/access/AccessControl.sol\":3417:3429  _msgSender() */\n      jump\t// in\n    tag_246:\n        /* \"https://github.com/OpenZeppelin/openzeppelin-contracts/blob/v4.8.0/contracts/access/AccessControl.sol\":3400:3410  _checkRole */\n      tag_247\n        /* \"https://github.com/OpenZeppelin/openzeppelin-contracts/blob/v4.8.0/contracts/access/AccessControl.sol\":3400:3430  _checkRole(role, _msgSender()) */\n      jump\t// in\n    tag_245:\n        /* \"https://github.com/OpenZeppelin/openzeppelin-contracts/blob/v4.8.0/contracts/access/AccessControl.sol\":3334:3437  function _checkRole(bytes32 role) internal view virtual {... */\n      pop\n      jump\t// out\n        /* \"https://github.com/OpenZeppelin/openzeppelin-contracts/blob/v4.8.0/contracts/access/AccessControl.sol\":7461:7694  function _grantRole(bytes32 role, address account) internal virtual {... */\n    tag_129:\n        /* \"https://github.com/OpenZeppelin/openzeppelin-contracts/blob/v4.8.0/contracts/access/AccessControl.sol\":7544:7566  hasRole(role, account) */\n      tag_249\n        /* \"https://github.com/OpenZeppelin/openzeppelin-contracts/blob/v4.8.0/contracts/access/AccessControl.sol\":7552:7556  role */\n      dup3\n        /* \"https://github.com/OpenZeppelin/openzeppelin-contracts/blob/v4.8.0/contracts/access/AccessControl.sol\":7558:7565  account */\n      dup3\n        /* \"https://github.com/OpenZeppelin/openzeppelin-contracts/blob/v4.8.0/contracts/access/AccessControl.sol\":7544:7551  hasRole */\n      tag_75\n        /* \"https://github.com/OpenZeppelin/openzeppelin-contracts/blob/v4.8.0/contracts/access/AccessControl.sol\":7544:7566  hasRole(role, account) */\n      jump\t// in\n    tag_249:\n        /* \"https://github.com/OpenZeppelin/openzeppelin-contracts/blob/v4.8.0/contracts/access/AccessControl.sol\":7539:7688  if (!hasRole(role, account)) {... */\n      tag_250\n      jumpi\n        /* \"https://github.com/OpenZeppelin/openzeppelin-contracts/blob/v4.8.0/contracts/access/AccessControl.sol\":7614:7618  true */\n      0x01\n        /* \"https://github.com/OpenZeppelin/openzeppelin-contracts/blob/v4.8.0/contracts/access/AccessControl.sol\":7582:7588  _roles */\n      0x00\n        /* \"https://github.com/OpenZeppelin/openzeppelin-contracts/blob/v4.8.0/contracts/access/AccessControl.sol\":7582:7594  _roles[role] */\n      dup1\n        /* \"https://github.com/OpenZeppelin/openzeppelin-contracts/blob/v4.8.0/contracts/access/AccessControl.sol\":7589:7593  role */\n      dup5\n        /* \"https://github.com/OpenZeppelin/openzeppelin-contracts/blob/v4.8.0/contracts/access/AccessControl.sol\":7582:7594  _roles[role] */\n      dup2\n      mstore\n      0x20\n      add\n      swap1\n      dup2\n      mstore\n      0x20\n      add\n      0x00\n      keccak256\n        /* \"https://github.com/OpenZeppelin/openzeppelin-contracts/blob/v4.8.0/contracts/access/AccessControl.sol\":7582:7602  _roles[role].members */\n      0x00\n      add\n        /* \"https://github.com/OpenZeppelin/openzeppelin-contracts/blob/v4.8.0/contracts/access/AccessControl.sol\":7582:7611  _roles[role].members[account] */\n      0x00\n        /* \"https://github.com/OpenZeppelin/openzeppelin-contracts/blob/v4.8.0/contracts/access/AccessControl.sol\":7603:7610  account */\n      dup4\n        /* \"https://github.com/OpenZeppelin/openzeppelin-contracts/blob/v4.8.0/contracts/access/AccessControl.sol\":7582:7611  _roles[role].members[account] */\n      0xffffffffffffffffffffffffffffffffffffffff\n      and\n      0xffffffffffffffffffffffffffffffffffffffff\n      and\n      dup2\n      mstore\n      0x20\n      add\n      swap1\n      dup2\n      mstore\n      0x20\n      add\n      0x00\n      keccak256\n      0x00\n        /* \"https://github.com/OpenZeppelin/openzeppelin-contracts/blob/v4.8.0/contracts/access/AccessControl.sol\":7582:7618  _roles[role].members[account] = true */\n      0x0100\n      exp\n      dup2\n      sload\n      dup2\n      0xff\n      mul\n      not\n      and\n      swap1\n      dup4\n      iszero\n      iszero\n      mul\n      or\n      swap1\n      sstore\n      pop\n        /* \"https://github.com/OpenZeppelin/openzeppelin-contracts/blob/v4.8.0/contracts/access/AccessControl.sol\":7664:7676  _msgSender() */\n      tag_251\n        /* \"https://github.com/OpenZeppelin/openzeppelin-contracts/blob/v4.8.0/contracts/access/AccessControl.sol\":7664:7674  _msgSender */\n      tag_132\n        /* \"https://github.com/OpenZeppelin/openzeppelin-contracts/blob/v4.8.0/contracts/access/AccessControl.sol\":7664:7676  _msgSender() */\n      jump\t// in\n    tag_251:\n        /* \"https://github.com/OpenZeppelin/openzeppelin-contracts/blob/v4.8.0/contracts/access/AccessControl.sol\":7637:7677  RoleGranted(role, account, _msgSender()) */\n      0xffffffffffffffffffffffffffffffffffffffff\n      and\n        /* \"https://github.com/OpenZeppelin/openzeppelin-contracts/blob/v4.8.0/contracts/access/AccessControl.sol\":7655:7662  account */\n      dup2\n        /* \"https://github.com/OpenZeppelin/openzeppelin-contracts/blob/v4.8.0/contracts/access/AccessControl.sol\":7637:7677  RoleGranted(role, account, _msgSender()) */\n      0xffffffffffffffffffffffffffffffffffffffff\n      and\n        /* \"https://github.com/OpenZeppelin/openzeppelin-contracts/blob/v4.8.0/contracts/access/AccessControl.sol\":7649:7653  role */\n      dup4\n        /* \"https://github.com/OpenZeppelin/openzeppelin-contracts/blob/v4.8.0/contracts/access/AccessControl.sol\":7637:7677  RoleGranted(role, account, _msgSender()) */\n      0x2f8788117e7eff1d82e926ec794901d17c78024a50270940304540a733656f0d\n      mload(0x40)\n      mload(0x40)\n      dup1\n      swap2\n      sub\n      swap1\n      log4\n        /* \"https://github.com/OpenZeppelin/openzeppelin-contracts/blob/v4.8.0/contracts/access/AccessControl.sol\":7539:7688  if (!hasRole(role, account)) {... */\n    tag_250:\n        /* \"https://github.com/OpenZeppelin/openzeppelin-contracts/blob/v4.8.0/contracts/access/AccessControl.sol\":7461:7694  function _grantRole(bytes32 role, address account) internal virtual {... */\n      pop\n      pop\n      jump\t// out\n        /* \"https://github.com/OpenZeppelin/openzeppelin-contracts/blob/v4.8.0/contracts/utils/Context.sol\":640:736  function _msgSender() internal view virtual returns (address) {... */\n    tag_132:\n        /* \"https://github.com/OpenZeppelin/openzeppelin-contracts/blob/v4.8.0/contracts/utils/Context.sol\":693:700  address */\n      0x00\n        /* \"https://github.com/OpenZeppelin/openzeppelin-contracts/blob/v4.8.0/contracts/utils/Context.sol\":719:729  msg.sender */\n      caller\n        /* \"https://github.com/OpenZeppelin/openzeppelin-contracts/blob/v4.8.0/contracts/utils/Context.sol\":712:729  return msg.sender */\n      swap1\n      pop\n        /* \"https://github.com/OpenZeppelin/openzeppelin-contracts/blob/v4.8.0/contracts/utils/Context.sol\":640:736  function _msgSender() internal view virtual returns (address) {... */\n      swap1\n      jump\t// out\n        /* \"https://github.com/OpenZeppelin/openzeppelin-contracts/blob/v4.8.0/contracts/access/AccessControl.sol\":7865:8099  function _revokeRole(bytes32 role, address account) internal virtual {... */\n    tag_137:\n        /* \"https://github.com/OpenZeppelin/openzeppelin-contracts/blob/v4.8.0/contracts/access/AccessControl.sol\":7948:7970  hasRole(role, account) */\n      tag_254\n        /* \"https://github.com/OpenZeppelin/openzeppelin-contracts/blob/v4.8.0/contracts/access/AccessControl.sol\":7956:7960  role */\n      dup3\n        /* \"https://github.com/OpenZeppelin/openzeppelin-contracts/blob/v4.8.0/contracts/access/AccessControl.sol\":7962:7969  account */\n      dup3\n        /* \"https://github.com/OpenZeppelin/openzeppelin-contracts/blob/v4.8.0/contracts/access/AccessControl.sol\":7948:7955  hasRole */\n      tag_75\n        /* \"https://github.com/OpenZeppelin/openzeppelin-contracts/blob/v4.8.0/contracts/access/AccessControl.sol\":7948:7970  hasRole(role, account) */\n      jump\t// in\n    tag_254:\n        /* \"https://github.com/OpenZeppelin/openzeppelin-contracts/blob/v4.8.0/contracts/access/AccessControl.sol\":7944:8093  if (hasRole(role, account)) {... */\n      iszero\n      tag_255\n      jumpi\n        /* \"https://github.com/OpenZeppelin/openzeppelin-contracts/blob/v4.8.0/contracts/access/AccessControl.sol\":8018:8023  false */\n      0x00\n        /* \"https://github.com/OpenZeppelin/openzeppelin-contracts/blob/v4.8.0/contracts/access/AccessControl.sol\":7986:7992  _roles */\n      dup1\n        /* \"https://github.com/OpenZeppelin/openzeppelin-contracts/blob/v4.8.0/contracts/access/AccessControl.sol\":7986:7998  _roles[role] */\n      0x00\n        /* \"https://github.com/OpenZeppelin/openzeppelin-contracts/blob/v4.8.0/contracts/access/AccessControl.sol\":7993:7997  role */\n      dup5\n        /* \"https://github.com/OpenZeppelin/openzeppelin-contracts/blob/v4.8.0/contracts/access/AccessControl.sol\":7986:7998  _roles[role] */\n      dup2\n      mstore\n      0x20\n      add\n      swap1\n      dup2\n      mstore\n      0x20\n      add\n      0x00\n      keccak256\n        /* \"https://github.com/OpenZeppelin/openzeppelin-contracts/blob/v4.8.0/contracts/access/AccessControl.sol\":7986:8006  _roles[role].members */\n      0x00\n      add\n        /* \"https://github.com/OpenZeppelin/openzeppelin-contracts/blob/v4.8.0/contracts/access/AccessControl.sol\":7986:8015  _roles[role].members[account] */\n      0x00\n        /* \"https://github.com/OpenZeppelin/openzeppelin-contracts/blob/v4.8.0/contracts/access/AccessControl.sol\":8007:8014  account */\n      dup4\n        /* \"https://github.com/OpenZeppelin/openzeppelin-contracts/blob/v4.8.0/contracts/access/AccessControl.sol\":7986:8015  _roles[role].members[account] */\n      0xffffffffffffffffffffffffffffffffffffffff\n      and\n      0xffffffffffffffffffffffffffffffffffffffff\n      and\n      dup2\n      mstore\n      0x20\n      add\n      swap1\n      dup2\n      mstore\n      0x20\n      add\n      0x00\n      keccak256\n      0x00\n        /* \"https://github.com/OpenZeppelin/openzeppelin-contracts/blob/v4.8.0/contracts/access/AccessControl.sol\":7986:8023  _roles[role].members[account] = false */\n      0x0100\n      exp\n      dup2\n      sload\n      dup2\n      0xff\n      mul\n      not\n      and\n      swap1\n      dup4\n      iszero\n      iszero\n      mul\n      or\n      swap1\n      sstore\n      pop\n        /* \"https://github.com/OpenZeppelin/openzeppelin-contracts/blob/v4.8.0/contracts/access/AccessControl.sol\":8069:8081  _msgSender() */\n      tag_256\n        /* \"https://github.com/OpenZeppelin/openzeppelin-contracts/blob/v4.8.0/contracts/access/AccessControl.sol\":8069:8079  _msgSender */\n      tag_132\n        /* \"https://github.com/OpenZeppelin/openzeppelin-contracts/blob/v4.8.0/contracts/access/AccessControl.sol\":8069:8081  _msgSender() */\n      jump\t// in\n    tag_256:\n        /* \"https://github.com/OpenZeppelin/openzeppelin-contracts/blob/v4.8.0/contracts/access/AccessControl.sol\":8042:8082  RoleRevoked(role, account, _msgSender()) */\n      0xffffffffffffffffffffffffffffffffffffffff\n      and\n        /* \"https://github.com/OpenZeppelin/openzeppelin-contracts/blob/v4.8.0/contracts/access/AccessControl.sol\":8060:8067  account */\n      dup2\n        /* \"https://github.com/OpenZeppelin/openzeppelin-contracts/blob/v4.8.0/contracts/access/AccessControl.sol\":8042:8082  RoleRevoked(role, account, _msgSender()) */\n      0xffffffffffffffffffffffffffffffffffffffff\n      and\n        /* \"https://github.com/OpenZeppelin/openzeppelin-contracts/blob/v4.8.0/contracts/access/AccessControl.sol\":8054:8058  role */\n      dup4\n        /* \"https://github.com/OpenZeppelin/openzeppelin-contracts/blob/v4.8.0/contracts/access/AccessControl.sol\":8042:8082  RoleRevoked(role, account, _msgSender()) */\n      0xf6391f5c32d9c69d2a47ea670b442974b53935d1edc7fd64eb21e047a839171b\n      mload(0x40)\n      mload(0x40)\n      dup1\n      swap2\n      sub\n      swap1\n      log4\n        /* \"https://github.com/OpenZeppelin/openzeppelin-contracts/blob/v4.8.0/contracts/access/AccessControl.sol\":7944:8093  if (hasRole(role, account)) {... */\n    tag_255:\n        /* \"https://github.com/OpenZeppelin/openzeppelin-contracts/blob/v4.8.0/contracts/access/AccessControl.sol\":7865:8099  function _revokeRole(bytes32 role, address account) internal virtual {... */\n      pop\n      pop\n      jump\t// out\n        /* \"https://github.com/OpenZeppelin/openzeppelin-contracts/blob/v4.8.0/contracts/access/AccessControl.sol\":3718:4197  function _checkRole(bytes32 role, address account) internal view virtual {... */\n    tag_247:\n        /* \"https://github.com/OpenZeppelin/openzeppelin-contracts/blob/v4.8.0/contracts/access/AccessControl.sol\":3806:3828  hasRole(role, account) */\n      tag_258\n        /* \"https://github.com/OpenZeppelin/openzeppelin-contracts/blob/v4.8.0/contracts/access/AccessControl.sol\":3814:3818  role */\n      dup3\n        /* \"https://github.com/OpenZeppelin/openzeppelin-contracts/blob/v4.8.0/contracts/access/AccessControl.sol\":3820:3827  account */\n      dup3\n        /* \"https://github.com/OpenZeppelin/openzeppelin-contracts/blob/v4.8.0/contracts/access/AccessControl.sol\":3806:3813  hasRole */\n      tag_75\n        /* \"https://github.com/OpenZeppelin/openzeppelin-contracts/blob/v4.8.0/contracts/access/AccessControl.sol\":3806:3828  hasRole(role, account) */\n      jump\t// in\n    tag_258:\n        /* \"https://github.com/OpenZeppelin/openzeppelin-contracts/blob/v4.8.0/contracts/access/AccessControl.sol\":3801:4191  if (!hasRole(role, account)) {... */\n      tag_259\n      jumpi\n        /* \"https://github.com/OpenZeppelin/openzeppelin-contracts/blob/v4.8.0/contracts/access/AccessControl.sol\":3989:4017  Strings.toHexString(account) */\n      tag_260\n        /* \"https://github.com/OpenZeppelin/openzeppelin-contracts/blob/v4.8.0/contracts/access/AccessControl.sol\":4009:4016  account */\n      dup2\n        /* \"https://github.com/OpenZeppelin/openzeppelin-contracts/blob/v4.8.0/contracts/access/AccessControl.sol\":3989:4008  Strings.toHexString */\n      tag_261\n        /* \"https://github.com/OpenZeppelin/openzeppelin-contracts/blob/v4.8.0/contracts/access/AccessControl.sol\":3989:4017  Strings.toHexString(account) */\n      jump\t// in\n    tag_260:\n        /* \"https://github.com/OpenZeppelin/openzeppelin-contracts/blob/v4.8.0/contracts/access/AccessControl.sol\":4088:4126  Strings.toHexString(uint256(role), 32) */\n      tag_262\n        /* \"https://github.com/OpenZeppelin/openzeppelin-contracts/blob/v4.8.0/contracts/access/AccessControl.sol\":4116:4120  role */\n      dup4\n        /* \"https://github.com/OpenZeppelin/openzeppelin-contracts/blob/v4.8.0/contracts/access/AccessControl.sol\":4108:4121  uint256(role) */\n      0x00\n      shr\n        /* \"https://github.com/OpenZeppelin/openzeppelin-contracts/blob/v4.8.0/contracts/access/AccessControl.sol\":4123:4125  32 */\n      0x20\n        /* \"https://github.com/OpenZeppelin/openzeppelin-contracts/blob/v4.8.0/contracts/access/AccessControl.sol\":4088:4107  Strings.toHexString */\n      tag_263\n        /* \"https://github.com/OpenZeppelin/openzeppelin-contracts/blob/v4.8.0/contracts/access/AccessControl.sol\":4088:4126  Strings.toHexString(uint256(role), 32) */\n      jump\t// in\n    tag_262:\n        /* \"https://github.com/OpenZeppelin/openzeppelin-contracts/blob/v4.8.0/contracts/access/AccessControl.sol\":3896:4148  abi.encodePacked(... */\n      add(0x20, mload(0x40))\n      tag_264\n      swap3\n      swap2\n      swap1\n      tag_265\n      jump\t// in\n    tag_264:\n      mload(0x40)\n      0x20\n      dup2\n      dup4\n      sub\n      sub\n      dup2\n      mstore\n      swap1\n      0x40\n      mstore\n        /* \"https://github.com/OpenZeppelin/openzeppelin-contracts/blob/v4.8.0/contracts/access/AccessControl.sol\":3844:4180  revert(... */\n      mload(0x40)\n      0x08c379a000000000000000000000000000000000000000000000000000000000\n      dup2\n      mstore\n      0x04\n      add\n      tag_266\n      swap2\n      swap1\n      tag_267\n      jump\t// in\n    tag_266:\n      mload(0x40)\n      dup1\n      swap2\n      sub\n      swap1\n      revert\n        /* \"https://github.com/OpenZeppelin/openzeppelin-contracts/blob/v4.8.0/contracts/access/AccessControl.sol\":3801:4191  if (!hasRole(role, account)) {... */\n    tag_259:\n        /* \"https://github.com/OpenZeppelin/openzeppelin-contracts/blob/v4.8.0/contracts/access/AccessControl.sol\":3718:4197  function _checkRole(bytes32 role, address account) internal view virtual {... */\n      pop\n      pop\n      jump\t// out\n        /* \"https://github.com/OpenZeppelin/openzeppelin-contracts/blob/v4.8.0/contracts/utils/Strings.sol\":2102:2251  function toHexString(address addr) internal pure returns (string memory) {... */\n    tag_261:\n        /* \"https://github.com/OpenZeppelin/openzeppelin-contracts/blob/v4.8.0/contracts/utils/Strings.sol\":2160:2173  string memory */\n      0x60\n        /* \"https://github.com/OpenZeppelin/openzeppelin-contracts/blob/v4.8.0/contracts/utils/Strings.sol\":2192:2244  toHexString(uint256(uint160(addr)), _ADDRESS_LENGTH) */\n      tag_269\n        /* \"https://github.com/OpenZeppelin/openzeppelin-contracts/blob/v4.8.0/contracts/utils/Strings.sol\":2220:2224  addr */\n      dup3\n        /* \"https://github.com/OpenZeppelin/openzeppelin-contracts/blob/v4.8.0/contracts/utils/Strings.sol\":2204:2226  uint256(uint160(addr)) */\n      0xffffffffffffffffffffffffffffffffffffffff\n      and\n        /* \"https://github.com/OpenZeppelin/openzeppelin-contracts/blob/v4.8.0/contracts/utils/Strings.sol\":311:313  20 */\n      0x14\n        /* \"https://github.com/OpenZeppelin/openzeppelin-contracts/blob/v4.8.0/contracts/utils/Strings.sol\":2192:2244  toHexString(uint256(uint160(addr)), _ADDRESS_LENGTH) */\n      0xff\n      and\n        /* \"https://github.com/OpenZeppelin/openzeppelin-contracts/blob/v4.8.0/contracts/utils/Strings.sol\":2192:2203  toHexString */\n      tag_263\n        /* \"https://github.com/OpenZeppelin/openzeppelin-contracts/blob/v4.8.0/contracts/utils/Strings.sol\":2192:2244  toHexString(uint256(uint160(addr)), _ADDRESS_LENGTH) */\n      jump\t// in\n    tag_269:\n        /* \"https://github.com/OpenZeppelin/openzeppelin-contracts/blob/v4.8.0/contracts/utils/Strings.sol\":2185:2244  return toHexString(uint256(uint160(addr)), _ADDRESS_LENGTH) */\n      swap1\n      pop\n        /* \"https://github.com/OpenZeppelin/openzeppelin-contracts/blob/v4.8.0/contracts/utils/Strings.sol\":2102:2251  function toHexString(address addr) internal pure returns (string memory) {... */\n      swap2\n      swap1\n      pop\n      jump\t// out\n        /* \"https://github.com/OpenZeppelin/openzeppelin-contracts/blob/v4.8.0/contracts/utils/Strings.sol\":1513:1950  function toHexString(uint256 value, uint256 length) internal pure returns (string memory) {... */\n    tag_263:\n        /* \"https://github.com/OpenZeppelin/openzeppelin-contracts/blob/v4.8.0/contracts/utils/Strings.sol\":1588:1601  string memory */\n      0x60\n        /* \"https://github.com/OpenZeppelin/openzeppelin-contracts/blob/v4.8.0/contracts/utils/Strings.sol\":1613:1632  bytes memory buffer */\n      0x00\n        /* \"https://github.com/OpenZeppelin/openzeppelin-contracts/blob/v4.8.0/contracts/utils/Strings.sol\":1658:1659  2 */\n      0x02\n        /* \"https://github.com/OpenZeppelin/openzeppelin-contracts/blob/v4.8.0/contracts/utils/Strings.sol\":1649:1655  length */\n      dup4\n        /* \"https://github.com/OpenZeppelin/openzeppelin-contracts/blob/v4.8.0/contracts/utils/Strings.sol\":1645:1646  2 */\n      0x02\n        /* \"https://github.com/OpenZeppelin/openzeppelin-contracts/blob/v4.8.0/contracts/utils/Strings.sol\":1645:1655  2 * length */\n      tag_271\n      swap2\n      swap1\n      tag_272\n      jump\t// in\n    tag_271:\n        /* \"https://github.com/OpenZeppelin/openzeppelin-contracts/blob/v4.8.0/contracts/utils/Strings.sol\":1645:1659  2 * length + 2 */\n      tag_273\n      swap2\n      swap1\n      tag_274\n      jump\t// in\n    tag_273:\n        /* \"https://github.com/OpenZeppelin/openzeppelin-contracts/blob/v4.8.0/contracts/utils/Strings.sol\":1635:1660  new bytes(2 * length + 2) */\n      0xffffffffffffffff\n      dup2\n      gt\n      iszero\n      tag_275\n      jumpi\n      tag_276\n      tag_277\n      jump\t// in\n    tag_276:\n    tag_275:\n      mload(0x40)\n      swap1\n      dup1\n      dup3\n      mstore\n      dup1\n      0x1f\n      add\n      not(0x1f)\n      and\n      0x20\n      add\n      dup3\n      add\n      0x40\n      mstore\n      dup1\n      iszero\n      tag_278\n      jumpi\n      dup2\n      0x20\n      add\n      0x01\n      dup3\n      mul\n      dup1\n      calldatasize\n      dup4\n      calldatacopy\n      dup1\n      dup3\n      add\n      swap2\n      pop\n      pop\n      swap1\n      pop\n    tag_278:\n      pop\n        /* \"https://github.com/OpenZeppelin/openzeppelin-contracts/blob/v4.8.0/contracts/utils/Strings.sol\":1613:1660  bytes memory buffer = new bytes(2 * length + 2) */\n      swap1\n      pop\n        /* \"https://github.com/OpenZeppelin/openzeppelin-contracts/blob/v4.8.0/contracts/utils/Strings.sol\":1670:1685  buffer[0] = \"0\" */\n      0x3000000000000000000000000000000000000000000000000000000000000000\n        /* \"https://github.com/OpenZeppelin/openzeppelin-contracts/blob/v4.8.0/contracts/utils/Strings.sol\":1670:1676  buffer */\n      dup2\n        /* \"https://github.com/OpenZeppelin/openzeppelin-contracts/blob/v4.8.0/contracts/utils/Strings.sol\":1677:1678  0 */\n      0x00\n        /* \"https://github.com/OpenZeppelin/openzeppelin-contracts/blob/v4.8.0/contracts/utils/Strings.sol\":1670:1679  buffer[0] */\n      dup2\n      mload\n      dup2\n      lt\n      tag_279\n      jumpi\n      tag_280\n      tag_149\n      jump\t// in\n    tag_280:\n    tag_279:\n      0x20\n      add\n      add\n        /* \"https://github.com/OpenZeppelin/openzeppelin-contracts/blob/v4.8.0/contracts/utils/Strings.sol\":1670:1685  buffer[0] = \"0\" */\n      swap1\n      not(0xffffffffffffffffffffffffffffffffffffffffffffffffffffffffffffff)\n      and\n      swap1\n      dup2\n      0x00\n      byte\n      swap1\n      mstore8\n      pop\n        /* \"https://github.com/OpenZeppelin/openzeppelin-contracts/blob/v4.8.0/contracts/utils/Strings.sol\":1695:1710  buffer[1] = \"x\" */\n      0x7800000000000000000000000000000000000000000000000000000000000000\n        /* \"https://github.com/OpenZeppelin/openzeppelin-contracts/blob/v4.8.0/contracts/utils/Strings.sol\":1695:1701  buffer */\n      dup2\n        /* \"https://github.com/OpenZeppelin/openzeppelin-contracts/blob/v4.8.0/contracts/utils/Strings.sol\":1702:1703  1 */\n      0x01\n        /* \"https://github.com/OpenZeppelin/openzeppelin-contracts/blob/v4.8.0/contracts/utils/Strings.sol\":1695:1704  buffer[1] */\n      dup2\n      mload\n      dup2\n      lt\n      tag_281\n      jumpi\n      tag_282\n      tag_149\n      jump\t// in\n    tag_282:\n    tag_281:\n      0x20\n      add\n      add\n        /* \"https://github.com/OpenZeppelin/openzeppelin-contracts/blob/v4.8.0/contracts/utils/Strings.sol\":1695:1710  buffer[1] = \"x\" */\n      swap1\n      not(0xffffffffffffffffffffffffffffffffffffffffffffffffffffffffffffff)\n      and\n      swap1\n      dup2\n      0x00\n      byte\n      swap1\n      mstore8\n      pop\n        /* \"https://github.com/OpenZeppelin/openzeppelin-contracts/blob/v4.8.0/contracts/utils/Strings.sol\":1725:1734  uint256 i */\n      0x00\n        /* \"https://github.com/OpenZeppelin/openzeppelin-contracts/blob/v4.8.0/contracts/utils/Strings.sol\":1750:1751  1 */\n      0x01\n        /* \"https://github.com/OpenZeppelin/openzeppelin-contracts/blob/v4.8.0/contracts/utils/Strings.sol\":1741:1747  length */\n      dup5\n        /* \"https://github.com/OpenZeppelin/openzeppelin-contracts/blob/v4.8.0/contracts/utils/Strings.sol\":1737:1738  2 */\n      0x02\n        /* \"https://github.com/OpenZeppelin/openzeppelin-contracts/blob/v4.8.0/contracts/utils/Strings.sol\":1737:1747  2 * length */\n      tag_286\n      swap2\n      swap1\n      tag_272\n      jump\t// in\n    tag_286:\n        /* \"https://github.com/OpenZeppelin/openzeppelin-contracts/blob/v4.8.0/contracts/utils/Strings.sol\":1737:1751  2 * length + 1 */\n      tag_287\n      swap2\n      swap1\n      tag_274\n      jump\t// in\n    tag_287:\n        /* \"https://github.com/OpenZeppelin/openzeppelin-contracts/blob/v4.8.0/contracts/utils/Strings.sol\":1725:1751  uint256 i = 2 * length + 1 */\n      swap1\n      pop\n        /* \"https://github.com/OpenZeppelin/openzeppelin-contracts/blob/v4.8.0/contracts/utils/Strings.sol\":1720:1848  for (uint256 i = 2 * length + 1; i > 1; --i) {... */\n    tag_283:\n        /* \"https://github.com/OpenZeppelin/openzeppelin-contracts/blob/v4.8.0/contracts/utils/Strings.sol\":1757:1758  1 */\n      0x01\n        /* \"https://github.com/OpenZeppelin/openzeppelin-contracts/blob/v4.8.0/contracts/utils/Strings.sol\":1753:1754  i */\n      dup2\n        /* \"https://github.com/OpenZeppelin/openzeppelin-contracts/blob/v4.8.0/contracts/utils/Strings.sol\":1753:1758  i > 1 */\n      gt\n        /* \"https://github.com/OpenZeppelin/openzeppelin-contracts/blob/v4.8.0/contracts/utils/Strings.sol\":1720:1848  for (uint256 i = 2 * length + 1; i > 1; --i) {... */\n      iszero\n      tag_284\n      jumpi\n        /* \"https://github.com/OpenZeppelin/openzeppelin-contracts/blob/v4.8.0/contracts/utils/Strings.sol\":1791:1799  _SYMBOLS */\n      0x3031323334353637383961626364656600000000000000000000000000000000\n        /* \"https://github.com/OpenZeppelin/openzeppelin-contracts/blob/v4.8.0/contracts/utils/Strings.sol\":1808:1811  0xf */\n      0x0f\n        /* \"https://github.com/OpenZeppelin/openzeppelin-contracts/blob/v4.8.0/contracts/utils/Strings.sol\":1800:1805  value */\n      dup7\n        /* \"https://github.com/OpenZeppelin/openzeppelin-contracts/blob/v4.8.0/contracts/utils/Strings.sol\":1800:1811  value & 0xf */\n      and\n        /* \"https://github.com/OpenZeppelin/openzeppelin-contracts/blob/v4.8.0/contracts/utils/Strings.sol\":1791:1812  _SYMBOLS[value & 0xf] */\n      0x10\n      dup2\n      lt\n      tag_288\n      jumpi\n      tag_289\n      tag_149\n      jump\t// in\n    tag_289:\n    tag_288:\n      byte\n      0xf8\n      shl\n        /* \"https://github.com/OpenZeppelin/openzeppelin-contracts/blob/v4.8.0/contracts/utils/Strings.sol\":1779:1785  buffer */\n      dup3\n        /* \"https://github.com/OpenZeppelin/openzeppelin-contracts/blob/v4.8.0/contracts/utils/Strings.sol\":1786:1787  i */\n      dup3\n        /* \"https://github.com/OpenZeppelin/openzeppelin-contracts/blob/v4.8.0/contracts/utils/Strings.sol\":1779:1788  buffer[i] */\n      dup2\n      mload\n      dup2\n      lt\n      tag_290\n      jumpi\n      tag_291\n      tag_149\n      jump\t// in\n    tag_291:\n    tag_290:\n      0x20\n      add\n      add\n        /* \"https://github.com/OpenZeppelin/openzeppelin-contracts/blob/v4.8.0/contracts/utils/Strings.sol\":1779:1812  buffer[i] = _SYMBOLS[value & 0xf] */\n      swap1\n      not(0xffffffffffffffffffffffffffffffffffffffffffffffffffffffffffffff)\n      and\n      swap1\n      dup2\n      0x00\n      byte\n      swap1\n      mstore8\n      pop\n        /* \"https://github.com/OpenZeppelin/openzeppelin-contracts/blob/v4.8.0/contracts/utils/Strings.sol\":1836:1837  4 */\n      0x04\n        /* \"https://github.com/OpenZeppelin/openzeppelin-contracts/blob/v4.8.0/contracts/utils/Strings.sol\":1826:1837  value >>= 4 */\n      dup6\n      swap1\n      shr\n      swap5\n      pop\n        /* \"https://github.com/OpenZeppelin/openzeppelin-contracts/blob/v4.8.0/contracts/utils/Strings.sol\":1760:1763  --i */\n      dup1\n      tag_292\n      swap1\n      tag_293\n      jump\t// in\n    tag_292:\n      swap1\n      pop\n        /* \"https://github.com/OpenZeppelin/openzeppelin-contracts/blob/v4.8.0/contracts/utils/Strings.sol\":1720:1848  for (uint256 i = 2 * length + 1; i > 1; --i) {... */\n      jump(tag_283)\n    tag_284:\n      pop\n        /* \"https://github.com/OpenZeppelin/openzeppelin-contracts/blob/v4.8.0/contracts/utils/Strings.sol\":1874:1875  0 */\n      0x00\n        /* \"https://github.com/OpenZeppelin/openzeppelin-contracts/blob/v4.8.0/contracts/utils/Strings.sol\":1865:1870  value */\n      dup5\n        /* \"https://github.com/OpenZeppelin/openzeppelin-contracts/blob/v4.8.0/contracts/utils/Strings.sol\":1865:1875  value == 0 */\n      eq\n        /* \"https://github.com/OpenZeppelin/openzeppelin-contracts/blob/v4.8.0/contracts/utils/Strings.sol\":1857:1912  require(value == 0, \"Strings: hex length insufficient\") */\n      tag_294\n      jumpi\n      mload(0x40)\n      0x08c379a000000000000000000000000000000000000000000000000000000000\n      dup2\n      mstore\n      0x04\n      add\n      tag_295\n      swap1\n      tag_296\n      jump\t// in\n    tag_295:\n      mload(0x40)\n      dup1\n      swap2\n      sub\n      swap1\n      revert\n    tag_294:\n        /* \"https://github.com/OpenZeppelin/openzeppelin-contracts/blob/v4.8.0/contracts/utils/Strings.sol\":1936:1942  buffer */\n      dup1\n        /* \"https://github.com/OpenZeppelin/openzeppelin-contracts/blob/v4.8.0/contracts/utils/Strings.sol\":1922:1943  return string(buffer) */\n      swap2\n      pop\n      pop\n        /* \"https://github.com/OpenZeppelin/openzeppelin-contracts/blob/v4.8.0/contracts/utils/Strings.sol\":1513:1950  function toHexString(uint256 value, uint256 length) internal pure returns (string memory) {... */\n      swap3\n      swap2\n      pop\n      pop\n      jump\t// out\n    tag_177:\n      mload(0x40)\n      dup1\n      0x20\n      add\n      0x40\n      mstore\n      dup1\n      0x00\n      dup2\n      mstore\n      pop\n      swap1\n      jump\t// out\n        /* \"#utility.yul\":88:205   */\n    tag_298:\n        /* \"#utility.yul\":197:198   */\n      0x00\n        /* \"#utility.yul\":194:195   */\n      dup1\n        /* \"#utility.yul\":187:199   */\n      revert\n        /* \"#utility.yul\":211:328   */\n    tag_299:\n        /* \"#utility.yul\":320:321   */\n      0x00\n        /* \"#utility.yul\":317:318   */\n      dup1\n        /* \"#utility.yul\":310:322   */\n      revert\n        /* \"#utility.yul\":334:483   */\n    tag_300:\n        /* \"#utility.yul\":370:377   */\n      0x00\n        /* \"#utility.yul\":410:476   */\n      0xffffffff00000000000000000000000000000000000000000000000000000000\n        /* \"#utility.yul\":403:408   */\n      dup3\n        /* \"#utility.yul\":399:477   */\n      and\n        /* \"#utility.yul\":388:477   */\n      swap1\n      pop\n        /* \"#utility.yul\":334:483   */\n      swap2\n      swap1\n      pop\n      jump\t// out\n        /* \"#utility.yul\":489:609   */\n    tag_301:\n        /* \"#utility.yul\":561:584   */\n      tag_382\n        /* \"#utility.yul\":578:583   */\n      dup2\n        /* \"#utility.yul\":561:584   */\n      tag_300\n      jump\t// in\n    tag_382:\n        /* \"#utility.yul\":554:559   */\n      dup2\n        /* \"#utility.yul\":551:585   */\n      eq\n        /* \"#utility.yul\":541:603   */\n      tag_383\n      jumpi\n        /* \"#utility.yul\":599:600   */\n      0x00\n        /* \"#utility.yul\":596:597   */\n      dup1\n        /* \"#utility.yul\":589:601   */\n      revert\n        /* \"#utility.yul\":541:603   */\n    tag_383:\n        /* \"#utility.yul\":489:609   */\n      pop\n      jump\t// out\n        /* \"#utility.yul\":615:752   */\n    tag_302:\n        /* \"#utility.yul\":660:665   */\n      0x00\n        /* \"#utility.yul\":698:704   */\n      dup2\n        /* \"#utility.yul\":685:705   */\n      calldataload\n        /* \"#utility.yul\":676:705   */\n      swap1\n      pop\n        /* \"#utility.yul\":714:746   */\n      tag_385\n        /* \"#utility.yul\":740:745   */\n      dup2\n        /* \"#utility.yul\":714:746   */\n      tag_301\n      jump\t// in\n    tag_385:\n        /* \"#utility.yul\":615:752   */\n      swap3\n      swap2\n      pop\n      pop\n      jump\t// out\n        /* \"#utility.yul\":758:1085   */\n    tag_30:\n        /* \"#utility.yul\":816:822   */\n      0x00\n        /* \"#utility.yul\":865:867   */\n      0x20\n        /* \"#utility.yul\":853:862   */\n      dup3\n        /* \"#utility.yul\":844:851   */\n      dup5\n        /* \"#utility.yul\":840:863   */\n      sub\n        /* \"#utility.yul\":836:868   */\n      slt\n        /* \"#utility.yul\":833:952   */\n      iszero\n      tag_387\n      jumpi\n        /* \"#utility.yul\":871:950   */\n      tag_388\n      tag_298\n      jump\t// in\n    tag_388:\n        /* \"#utility.yul\":833:952   */\n    tag_387:\n        /* \"#utility.yul\":991:992   */\n      0x00\n        /* \"#utility.yul\":1016:1068   */\n      tag_389\n        /* \"#utility.yul\":1060:1067   */\n      dup5\n        /* \"#utility.yul\":1051:1057   */\n      dup3\n        /* \"#utility.yul\":1040:1049   */\n      dup6\n        /* \"#utility.yul\":1036:1058   */\n      add\n        /* \"#utility.yul\":1016:1068   */\n      tag_302\n      jump\t// in\n    tag_389:\n        /* \"#utility.yul\":1006:1068   */\n      swap2\n      pop\n        /* \"#utility.yul\":962:1078   */\n      pop\n        /* \"#utility.yul\":758:1085   */\n      swap3\n      swap2\n      pop\n      pop\n      jump\t// out\n        /* \"#utility.yul\":1091:1181   */\n    tag_303:\n        /* \"#utility.yul\":1125:1132   */\n      0x00\n        /* \"#utility.yul\":1168:1173   */\n      dup2\n        /* \"#utility.yul\":1161:1174   */\n      iszero\n        /* \"#utility.yul\":1154:1175   */\n      iszero\n        /* \"#utility.yul\":1143:1175   */\n      swap1\n      pop\n        /* \"#utility.yul\":1091:1181   */\n      swap2\n      swap1\n      pop\n      jump\t// out\n        /* \"#utility.yul\":1187:1296   */\n    tag_304:\n        /* \"#utility.yul\":1268:1289   */\n      tag_392\n        /* \"#utility.yul\":1283:1288   */\n      dup2\n        /* \"#utility.yul\":1268:1289   */\n      tag_303\n      jump\t// in\n    tag_392:\n        /* \"#utility.yul\":1263:1266   */\n      dup3\n        /* \"#utility.yul\":1256:1290   */\n      mstore\n        /* \"#utility.yul\":1187:1296   */\n      pop\n      pop\n      jump\t// out\n        /* \"#utility.yul\":1302:1512   */\n    tag_33:\n        /* \"#utility.yul\":1389:1393   */\n      0x00\n        /* \"#utility.yul\":1427:1429   */\n      0x20\n        /* \"#utility.yul\":1416:1425   */\n      dup3\n        /* \"#utility.yul\":1412:1430   */\n      add\n        /* \"#utility.yul\":1404:1430   */\n      swap1\n      pop\n        /* \"#utility.yul\":1440:1505   */\n      tag_394\n        /* \"#utility.yul\":1502:1503   */\n      0x00\n        /* \"#utility.yul\":1491:1500   */\n      dup4\n        /* \"#utility.yul\":1487:1504   */\n      add\n        /* \"#utility.yul\":1478:1484   */\n      dup5\n        /* \"#utility.yul\":1440:1505   */\n      tag_304\n      jump\t// in\n    tag_394:\n        /* \"#utility.yul\":1302:1512   */\n      swap3\n      swap2\n      pop\n      pop\n      jump\t// out\n        /* \"#utility.yul\":1518:1644   */\n    tag_305:\n        /* \"#utility.yul\":1555:1562   */\n      0x00\n        /* \"#utility.yul\":1595:1637   */\n      0xffffffffffffffffffffffffffffffffffffffff\n        /* \"#utility.yul\":1588:1593   */\n      dup3\n        /* \"#utility.yul\":1584:1638   */\n      and\n        /* \"#utility.yul\":1573:1638   */\n      swap1\n      pop\n        /* \"#utility.yul\":1518:1644   */\n      swap2\n      swap1\n      pop\n      jump\t// out\n        /* \"#utility.yul\":1650:1710   */\n    tag_306:\n        /* \"#utility.yul\":1678:1681   */\n      0x00\n        /* \"#utility.yul\":1699:1704   */\n      dup2\n        /* \"#utility.yul\":1692:1704   */\n      swap1\n      pop\n        /* \"#utility.yul\":1650:1710   */\n      swap2\n      swap1\n      pop\n      jump\t// out\n        /* \"#utility.yul\":1716:1858   */\n    tag_307:\n        /* \"#utility.yul\":1766:1775   */\n      0x00\n        /* \"#utility.yul\":1799:1852   */\n      tag_398\n        /* \"#utility.yul\":1817:1851   */\n      tag_399\n        /* \"#utility.yul\":1826:1850   */\n      tag_400\n        /* \"#utility.yul\":1844:1849   */\n      dup5\n        /* \"#utility.yul\":1826:1850   */\n      tag_305\n      jump\t// in\n    tag_400:\n        /* \"#utility.yul\":1817:1851   */\n      tag_306\n      jump\t// in\n    tag_399:\n        /* \"#utility.yul\":1799:1852   */\n      tag_305\n      jump\t// in\n    tag_398:\n        /* \"#utility.yul\":1786:1852   */\n      swap1\n      pop\n        /* \"#utility.yul\":1716:1858   */\n      swap2\n      swap1\n      pop\n      jump\t// out\n        /* \"#utility.yul\":1864:1990   */\n    tag_308:\n        /* \"#utility.yul\":1914:1923   */\n      0x00\n        /* \"#utility.yul\":1947:1984   */\n      tag_402\n        /* \"#utility.yul\":1978:1983   */\n      dup3\n        /* \"#utility.yul\":1947:1984   */\n      tag_307\n      jump\t// in\n    tag_402:\n        /* \"#utility.yul\":1934:1984   */\n      swap1\n      pop\n        /* \"#utility.yul\":1864:1990   */\n      swap2\n      swap1\n      pop\n      jump\t// out\n        /* \"#utility.yul\":1996:2143   */\n    tag_309:\n        /* \"#utility.yul\":2067:2076   */\n      0x00\n        /* \"#utility.yul\":2100:2137   */\n      tag_404\n        /* \"#utility.yul\":2131:2136   */\n      dup3\n        /* \"#utility.yul\":2100:2137   */\n      tag_308\n      jump\t// in\n    tag_404:\n        /* \"#utility.yul\":2087:2137   */\n      swap1\n      pop\n        /* \"#utility.yul\":1996:2143   */\n      swap2\n      swap1\n      pop\n      jump\t// out\n        /* \"#utility.yul\":2149:2322   */\n    tag_310:\n        /* \"#utility.yul\":2257:2315   */\n      tag_406\n        /* \"#utility.yul\":2309:2314   */\n      dup2\n        /* \"#utility.yul\":2257:2315   */\n      tag_309\n      jump\t// in\n    tag_406:\n        /* \"#utility.yul\":2252:2255   */\n      dup3\n        /* \"#utility.yul\":2245:2316   */\n      mstore\n        /* \"#utility.yul\":2149:2322   */\n      pop\n      pop\n      jump\t// out\n        /* \"#utility.yul\":2328:2592   */\n    tag_37:\n        /* \"#utility.yul\":2442:2446   */\n      0x00\n        /* \"#utility.yul\":2480:2482   */\n      0x20\n        /* \"#utility.yul\":2469:2478   */\n      dup3\n        /* \"#utility.yul\":2465:2483   */\n      add\n        /* \"#utility.yul\":2457:2483   */\n      swap1\n      pop\n        /* \"#utility.yul\":2493:2585   */\n      tag_408\n        /* \"#utility.yul\":2582:2583   */\n      0x00\n        /* \"#utility.yul\":2571:2580   */\n      dup4\n        /* \"#utility.yul\":2567:2584   */\n      add\n        /* \"#utility.yul\":2558:2564   */\n      dup5\n        /* \"#utility.yul\":2493:2585   */\n      tag_310\n      jump\t// in\n    tag_408:\n        /* \"#utility.yul\":2328:2592   */\n      swap3\n      swap2\n      pop\n      pop\n      jump\t// out\n        /* \"#utility.yul\":2598:2675   */\n    tag_311:\n        /* \"#utility.yul\":2635:2642   */\n      0x00\n        /* \"#utility.yul\":2664:2669   */\n      dup2\n        /* \"#utility.yul\":2653:2669   */\n      swap1\n      pop\n        /* \"#utility.yul\":2598:2675   */\n      swap2\n      swap1\n      pop\n      jump\t// out\n        /* \"#utility.yul\":2681:2803   */\n    tag_312:\n        /* \"#utility.yul\":2754:2778   */\n      tag_411\n        /* \"#utility.yul\":2772:2777   */\n      dup2\n        /* \"#utility.yul\":2754:2778   */\n      tag_311\n      jump\t// in\n    tag_411:\n        /* \"#utility.yul\":2747:2752   */\n      dup2\n        /* \"#utility.yul\":2744:2779   */\n      eq\n        /* \"#utility.yul\":2734:2797   */\n      tag_412\n      jumpi\n        /* \"#utility.yul\":2793:2794   */\n      0x00\n        /* \"#utility.yul\":2790:2791   */\n      dup1\n        /* \"#utility.yul\":2783:2795   */\n      revert\n        /* \"#utility.yul\":2734:2797   */\n    tag_412:\n        /* \"#utility.yul\":2681:2803   */\n      pop\n      jump\t// out\n        /* \"#utility.yul\":2809:2948   */\n    tag_313:\n        /* \"#utility.yul\":2855:2860   */\n      0x00\n        /* \"#utility.yul\":2893:2899   */\n      dup2\n        /* \"#utility.yul\":2880:2900   */\n      calldataload\n        /* \"#utility.yul\":2871:2900   */\n      swap1\n      pop\n        /* \"#utility.yul\":2909:2942   */\n      tag_414\n        /* \"#utility.yul\":2936:2941   */\n      dup2\n        /* \"#utility.yul\":2909:2942   */\n      tag_312\n      jump\t// in\n    tag_414:\n        /* \"#utility.yul\":2809:2948   */\n      swap3\n      swap2\n      pop\n      pop\n      jump\t// out\n        /* \"#utility.yul\":2954:3283   */\n    tag_40:\n        /* \"#utility.yul\":3013:3019   */\n      0x00\n        /* \"#utility.yul\":3062:3064   */\n      0x20\n        /* \"#utility.yul\":3050:3059   */\n      dup3\n        /* \"#utility.yul\":3041:3048   */\n      dup5\n        /* \"#utility.yul\":3037:3060   */\n      sub\n        /* \"#utility.yul\":3033:3065   */\n      slt\n        /* \"#utility.yul\":3030:3149   */\n      iszero\n      tag_416\n      jumpi\n        /* \"#utility.yul\":3068:3147   */\n      tag_417\n      tag_298\n      jump\t// in\n    tag_417:\n        /* \"#utility.yul\":3030:3149   */\n    tag_416:\n        /* \"#utility.yul\":3188:3189   */\n      0x00\n        /* \"#utility.yul\":3213:3266   */\n      tag_418\n        /* \"#utility.yul\":3258:3265   */\n      dup5\n        /* \"#utility.yul\":3249:3255   */\n      dup3\n        /* \"#utility.yul\":3238:3247   */\n      dup6\n        /* \"#utility.yul\":3234:3256   */\n      add\n        /* \"#utility.yul\":3213:3266   */\n      tag_313\n      jump\t// in\n    tag_418:\n        /* \"#utility.yul\":3203:3266   */\n      swap2\n      pop\n        /* \"#utility.yul\":3159:3276   */\n      pop\n        /* \"#utility.yul\":2954:3283   */\n      swap3\n      swap2\n      pop\n      pop\n      jump\t// out\n        /* \"#utility.yul\":3289:3407   */\n    tag_314:\n        /* \"#utility.yul\":3376:3400   */\n      tag_420\n        /* \"#utility.yul\":3394:3399   */\n      dup2\n        /* \"#utility.yul\":3376:3400   */\n      tag_311\n      jump\t// in\n    tag_420:\n        /* \"#utility.yul\":3371:3374   */\n      dup3\n        /* \"#utility.yul\":3364:3401   */\n      mstore\n        /* \"#utility.yul\":3289:3407   */\n      pop\n      pop\n      jump\t// out\n        /* \"#utility.yul\":3413:3635   */\n    tag_43:\n        /* \"#utility.yul\":3506:3510   */\n      0x00\n        /* \"#utility.yul\":3544:3546   */\n      0x20\n        /* \"#utility.yul\":3533:3542   */\n      dup3\n        /* \"#utility.yul\":3529:3547   */\n      add\n        /* \"#utility.yul\":3521:3547   */\n      swap1\n      pop\n        /* \"#utility.yul\":3557:3628   */\n      tag_422\n        /* \"#utility.yul\":3625:3626   */\n      0x00\n        /* \"#utility.yul\":3614:3623   */\n      dup4\n        /* \"#utility.yul\":3610:3627   */\n      add\n        /* \"#utility.yul\":3601:3607   */\n      dup5\n        /* \"#utility.yul\":3557:3628   */\n      tag_314\n      jump\t// in\n    tag_422:\n        /* \"#utility.yul\":3413:3635   */\n      swap3\n      swap2\n      pop\n      pop\n      jump\t// out\n        /* \"#utility.yul\":3641:3737   */\n    tag_315:\n        /* \"#utility.yul\":3678:3685   */\n      0x00\n        /* \"#utility.yul\":3707:3731   */\n      tag_424\n        /* \"#utility.yul\":3725:3730   */\n      dup3\n        /* \"#utility.yul\":3707:3731   */\n      tag_305\n      jump\t// in\n    tag_424:\n        /* \"#utility.yul\":3696:3731   */\n      swap1\n      pop\n        /* \"#utility.yul\":3641:3737   */\n      swap2\n      swap1\n      pop\n      jump\t// out\n        /* \"#utility.yul\":3743:3865   */\n    tag_316:\n        /* \"#utility.yul\":3816:3840   */\n      tag_426\n        /* \"#utility.yul\":3834:3839   */\n      dup2\n        /* \"#utility.yul\":3816:3840   */\n      tag_315\n      jump\t// in\n    tag_426:\n        /* \"#utility.yul\":3809:3814   */\n      dup2\n        /* \"#utility.yul\":3806:3841   */\n      eq\n        /* \"#utility.yul\":3796:3859   */\n      tag_427\n      jumpi\n        /* \"#utility.yul\":3855:3856   */\n      0x00\n        /* \"#utility.yul\":3852:3853   */\n      dup1\n        /* \"#utility.yul\":3845:3857   */\n      revert\n        /* \"#utility.yul\":3796:3859   */\n    tag_427:\n        /* \"#utility.yul\":3743:3865   */\n      pop\n      jump\t// out\n        /* \"#utility.yul\":3871:4010   */\n    tag_317:\n        /* \"#utility.yul\":3917:3922   */\n      0x00\n        /* \"#utility.yul\":3955:3961   */\n      dup2\n        /* \"#utility.yul\":3942:3962   */\n      calldataload\n        /* \"#utility.yul\":3933:3962   */\n      swap1\n      pop\n        /* \"#utility.yul\":3971:4004   */\n      tag_429\n        /* \"#utility.yul\":3998:4003   */\n      dup2\n        /* \"#utility.yul\":3971:4004   */\n      tag_316\n      jump\t// in\n    tag_429:\n        /* \"#utility.yul\":3871:4010   */\n      swap3\n      swap2\n      pop\n      pop\n      jump\t// out\n        /* \"#utility.yul\":4016:4490   */\n    tag_46:\n        /* \"#utility.yul\":4084:4090   */\n      0x00\n        /* \"#utility.yul\":4092:4098   */\n      dup1\n        /* \"#utility.yul\":4141:4143   */\n      0x40\n        /* \"#utility.yul\":4129:4138   */\n      dup4\n        /* \"#utility.yul\":4120:4127   */\n      dup6\n        /* \"#utility.yul\":4116:4139   */\n      sub\n        /* \"#utility.yul\":4112:4144   */\n      slt\n        /* \"#utility.yul\":4109:4228   */\n      iszero\n      tag_431\n      jumpi\n        /* \"#utility.yul\":4147:4226   */\n      tag_432\n      tag_298\n      jump\t// in\n    tag_432:\n        /* \"#utility.yul\":4109:4228   */\n    tag_431:\n        /* \"#utility.yul\":4267:4268   */\n      0x00\n        /* \"#utility.yul\":4292:4345   */\n      tag_433\n        /* \"#utility.yul\":4337:4344   */\n      dup6\n        /* \"#utility.yul\":4328:4334   */\n      dup3\n        /* \"#utility.yul\":4317:4326   */\n      dup7\n        /* \"#utility.yul\":4313:4335   */\n      add\n        /* \"#utility.yul\":4292:4345   */\n      tag_313\n      jump\t// in\n    tag_433:\n        /* \"#utility.yul\":4282:4345   */\n      swap3\n      pop\n        /* \"#utility.yul\":4238:4355   */\n      pop\n        /* \"#utility.yul\":4394:4396   */\n      0x20\n        /* \"#utility.yul\":4420:4473   */\n      tag_434\n        /* \"#utility.yul\":4465:4472   */\n      dup6\n        /* \"#utility.yul\":4456:4462   */\n      dup3\n        /* \"#utility.yul\":4445:4454   */\n      dup7\n        /* \"#utility.yul\":4441:4463   */\n      add\n        /* \"#utility.yul\":4420:4473   */\n      tag_317\n      jump\t// in\n    tag_434:\n        /* \"#utility.yul\":4410:4473   */\n      swap2\n      pop\n        /* \"#utility.yul\":4365:4483   */\n      pop\n        /* \"#utility.yul\":4016:4490   */\n      swap3\n      pop\n      swap3\n      swap1\n      pop\n      jump\t// out\n        /* \"#utility.yul\":4496:4573   */\n    tag_318:\n        /* \"#utility.yul\":4533:4540   */\n      0x00\n        /* \"#utility.yul\":4562:4567   */\n      dup2\n        /* \"#utility.yul\":4551:4567   */\n      swap1\n      pop\n        /* \"#utility.yul\":4496:4573   */\n      swap2\n      swap1\n      pop\n      jump\t// out\n        /* \"#utility.yul\":4579:4701   */\n    tag_319:\n        /* \"#utility.yul\":4652:4676   */\n      tag_437\n        /* \"#utility.yul\":4670:4675   */\n      dup2\n        /* \"#utility.yul\":4652:4676   */\n      tag_318\n      jump\t// in\n    tag_437:\n        /* \"#utility.yul\":4645:4650   */\n      dup2\n        /* \"#utility.yul\":4642:4677   */\n      eq\n        /* \"#utility.yul\":4632:4695   */\n      tag_438\n      jumpi\n        /* \"#utility.yul\":4691:4692   */\n      0x00\n        /* \"#utility.yul\":4688:4689   */\n      dup1\n        /* \"#utility.yul\":4681:4693   */\n      revert\n        /* \"#utility.yul\":4632:4695   */\n    tag_438:\n        /* \"#utility.yul\":4579:4701   */\n      pop\n      jump\t// out\n        /* \"#utility.yul\":4707:4846   */\n    tag_320:\n        /* \"#utility.yul\":4753:4758   */\n      0x00\n        /* \"#utility.yul\":4791:4797   */\n      dup2\n        /* \"#utility.yul\":4778:4798   */\n      calldataload\n        /* \"#utility.yul\":4769:4798   */\n      swap1\n      pop\n        /* \"#utility.yul\":4807:4840   */\n      tag_440\n        /* \"#utility.yul\":4834:4839   */\n      dup2\n        /* \"#utility.yul\":4807:4840   */\n      tag_319\n      jump\t// in\n    tag_440:\n        /* \"#utility.yul\":4707:4846   */\n      swap3\n      swap2\n      pop\n      pop\n      jump\t// out\n        /* \"#utility.yul\":4852:5471   */\n    tag_50:\n        /* \"#utility.yul\":4929:4935   */\n      0x00\n        /* \"#utility.yul\":4937:4943   */\n      dup1\n        /* \"#utility.yul\":4945:4951   */\n      0x00\n        /* \"#utility.yul\":4994:4996   */\n      0x60\n        /* \"#utility.yul\":4982:4991   */\n      dup5\n        /* \"#utility.yul\":4973:4980   */\n      dup7\n        /* \"#utility.yul\":4969:4992   */\n      sub\n        /* \"#utility.yul\":4965:4997   */\n      slt\n        /* \"#utility.yul\":4962:5081   */\n      iszero\n      tag_442\n      jumpi\n        /* \"#utility.yul\":5000:5079   */\n      tag_443\n      tag_298\n      jump\t// in\n    tag_443:\n        /* \"#utility.yul\":4962:5081   */\n    tag_442:\n        /* \"#utility.yul\":5120:5121   */\n      0x00\n        /* \"#utility.yul\":5145:5198   */\n      tag_444\n        /* \"#utility.yul\":5190:5197   */\n      dup7\n        /* \"#utility.yul\":5181:5187   */\n      dup3\n        /* \"#utility.yul\":5170:5179   */\n      dup8\n        /* \"#utility.yul\":5166:5188   */\n      add\n        /* \"#utility.yul\":5145:5198   */\n      tag_320\n      jump\t// in\n    tag_444:\n        /* \"#utility.yul\":5135:5198   */\n      swap4\n      pop\n        /* \"#utility.yul\":5091:5208   */\n      pop\n        /* \"#utility.yul\":5247:5249   */\n      0x20\n        /* \"#utility.yul\":5273:5326   */\n      tag_445\n        /* \"#utility.yul\":5318:5325   */\n      dup7\n        /* \"#utility.yul\":5309:5315   */\n      dup3\n        /* \"#utility.yul\":5298:5307   */\n      dup8\n        /* \"#utility.yul\":5294:5316   */\n      add\n        /* \"#utility.yul\":5273:5326   */\n      tag_320\n      jump\t// in\n    tag_445:\n        /* \"#utility.yul\":5263:5326   */\n      swap3\n      pop\n        /* \"#utility.yul\":5218:5336   */\n      pop\n        /* \"#utility.yul\":5375:5377   */\n      0x40\n        /* \"#utility.yul\":5401:5454   */\n      tag_446\n        /* \"#utility.yul\":5446:5453   */\n      dup7\n        /* \"#utility.yul\":5437:5443   */\n      dup3\n        /* \"#utility.yul\":5426:5435   */\n      dup8\n        /* \"#utility.yul\":5422:5444   */\n      add\n        /* \"#utility.yul\":5401:5454   */\n      tag_320\n      jump\t// in\n    tag_446:\n        /* \"#utility.yul\":5391:5454   */\n      swap2\n      pop\n        /* \"#utility.yul\":5346:5464   */\n      pop\n        /* \"#utility.yul\":4852:5471   */\n      swap3\n      pop\n      swap3\n      pop\n      swap3\n      jump\t// out\n        /* \"#utility.yul\":5477:5595   */\n    tag_321:\n        /* \"#utility.yul\":5564:5588   */\n      tag_448\n        /* \"#utility.yul\":5582:5587   */\n      dup2\n        /* \"#utility.yul\":5564:5588   */\n      tag_318\n      jump\t// in\n    tag_448:\n        /* \"#utility.yul\":5559:5562   */\n      dup3\n        /* \"#utility.yul\":5552:5589   */\n      mstore\n        /* \"#utility.yul\":5477:5595   */\n      pop\n      pop\n      jump\t// out\n        /* \"#utility.yul\":5601:6253   */\n    tag_53:\n        /* \"#utility.yul\":5800:5804   */\n      0x00\n        /* \"#utility.yul\":5838:5841   */\n      0xa0\n        /* \"#utility.yul\":5827:5836   */\n      dup3\n        /* \"#utility.yul\":5823:5842   */\n      add\n        /* \"#utility.yul\":5815:5842   */\n      swap1\n      pop\n        /* \"#utility.yul\":5852:5923   */\n      tag_450\n        /* \"#utility.yul\":5920:5921   */\n      0x00\n        /* \"#utility.yul\":5909:5918   */\n      dup4\n        /* \"#utility.yul\":5905:5922   */\n      add\n        /* \"#utility.yul\":5896:5902   */\n      dup9\n        /* \"#utility.yul\":5852:5923   */\n      tag_321\n      jump\t// in\n    tag_450:\n        /* \"#utility.yul\":5933:6005   */\n      tag_451\n        /* \"#utility.yul\":6001:6003   */\n      0x20\n        /* \"#utility.yul\":5990:5999   */\n      dup4\n        /* \"#utility.yul\":5986:6004   */\n      add\n        /* \"#utility.yul\":5977:5983   */\n      dup8\n        /* \"#utility.yul\":5933:6005   */\n      tag_321\n      jump\t// in\n    tag_451:\n        /* \"#utility.yul\":6015:6087   */\n      tag_452\n        /* \"#utility.yul\":6083:6085   */\n      0x40\n        /* \"#utility.yul\":6072:6081   */\n      dup4\n        /* \"#utility.yul\":6068:6086   */\n      add\n        /* \"#utility.yul\":6059:6065   */\n      dup7\n        /* \"#utility.yul\":6015:6087   */\n      tag_321\n      jump\t// in\n    tag_452:\n        /* \"#utility.yul\":6097:6169   */\n      tag_453\n        /* \"#utility.yul\":6165:6167   */\n      0x60\n        /* \"#utility.yul\":6154:6163   */\n      dup4\n        /* \"#utility.yul\":6150:6168   */\n      add\n        /* \"#utility.yul\":6141:6147   */\n      dup6\n        /* \"#utility.yul\":6097:6169   */\n      tag_321\n      jump\t// in\n    tag_453:\n        /* \"#utility.yul\":6179:6246   */\n      tag_454\n        /* \"#utility.yul\":6241:6244   */\n      0x80\n        /* \"#utility.yul\":6230:6239   */\n      dup4\n        /* \"#utility.yul\":6226:6245   */\n      add\n        /* \"#utility.yul\":6217:6223   */\n      dup5\n        /* \"#utility.yul\":6179:6246   */\n      tag_304\n      jump\t// in\n    tag_454:\n        /* \"#utility.yul\":5601:6253   */\n      swap7\n      swap6\n      pop\n      pop\n      pop\n      pop\n      pop\n      pop\n      jump\t// out\n        /* \"#utility.yul\":6259:6376   */\n    tag_322:\n        /* \"#utility.yul\":6368:6369   */\n      0x00\n        /* \"#utility.yul\":6365:6366   */\n      dup1\n        /* \"#utility.yul\":6358:6370   */\n      revert\n        /* \"#utility.yul\":6382:6499   */\n    tag_323:\n        /* \"#utility.yul\":6491:6492   */\n      0x00\n        /* \"#utility.yul\":6488:6489   */\n      dup1\n        /* \"#utility.yul\":6481:6493   */\n      revert\n        /* \"#utility.yul\":6505:6622   */\n    tag_324:\n        /* \"#utility.yul\":6614:6615   */\n      0x00\n        /* \"#utility.yul\":6611:6612   */\n      dup1\n        /* \"#utility.yul\":6604:6616   */\n      revert\n        /* \"#utility.yul\":6645:7213   */\n    tag_325:\n        /* \"#utility.yul\":6718:6726   */\n      0x00\n        /* \"#utility.yul\":6728:6734   */\n      dup1\n        /* \"#utility.yul\":6778:6781   */\n      dup4\n        /* \"#utility.yul\":6771:6775   */\n      0x1f\n        /* \"#utility.yul\":6763:6769   */\n      dup5\n        /* \"#utility.yul\":6759:6776   */\n      add\n        /* \"#utility.yul\":6755:6782   */\n      slt\n        /* \"#utility.yul\":6745:6867   */\n      tag_459\n      jumpi\n        /* \"#utility.yul\":6786:6865   */\n      tag_460\n      tag_322\n      jump\t// in\n    tag_460:\n        /* \"#utility.yul\":6745:6867   */\n    tag_459:\n        /* \"#utility.yul\":6899:6905   */\n      dup3\n        /* \"#utility.yul\":6886:6906   */\n      calldataload\n        /* \"#utility.yul\":6876:6906   */\n      swap1\n      pop\n        /* \"#utility.yul\":6929:6947   */\n      0xffffffffffffffff\n        /* \"#utility.yul\":6921:6927   */\n      dup2\n        /* \"#utility.yul\":6918:6948   */\n      gt\n        /* \"#utility.yul\":6915:7032   */\n      iszero\n      tag_461\n      jumpi\n        /* \"#utility.yul\":6951:7030   */\n      tag_462\n      tag_323\n      jump\t// in\n    tag_462:\n        /* \"#utility.yul\":6915:7032   */\n    tag_461:\n        /* \"#utility.yul\":7065:7069   */\n      0x20\n        /* \"#utility.yul\":7057:7063   */\n      dup4\n        /* \"#utility.yul\":7053:7070   */\n      add\n        /* \"#utility.yul\":7041:7070   */\n      swap2\n      pop\n        /* \"#utility.yul\":7119:7122   */\n      dup4\n        /* \"#utility.yul\":7111:7115   */\n      0x20\n        /* \"#utility.yul\":7103:7109   */\n      dup3\n        /* \"#utility.yul\":7099:7116   */\n      mul\n        /* \"#utility.yul\":7089:7097   */\n      dup4\n        /* \"#utility.yul\":7085:7117   */\n      add\n        /* \"#utility.yul\":7082:7123   */\n      gt\n        /* \"#utility.yul\":7079:7207   */\n      iszero\n      tag_463\n      jumpi\n        /* \"#utility.yul\":7126:7205   */\n      tag_464\n      tag_324\n      jump\t// in\n    tag_464:\n        /* \"#utility.yul\":7079:7207   */\n    tag_463:\n        /* \"#utility.yul\":6645:7213   */\n      swap3\n      pop\n      swap3\n      swap1\n      pop\n      jump\t// out\n        /* \"#utility.yul\":7236:7804   */\n    tag_326:\n        /* \"#utility.yul\":7309:7317   */\n      0x00\n        /* \"#utility.yul\":7319:7325   */\n      dup1\n        /* \"#utility.yul\":7369:7372   */\n      dup4\n        /* \"#utility.yul\":7362:7366   */\n      0x1f\n        /* \"#utility.yul\":7354:7360   */\n      dup5\n        /* \"#utility.yul\":7350:7367   */\n      add\n        /* \"#utility.yul\":7346:7373   */\n      slt\n        /* \"#utility.yul\":7336:7458   */\n      tag_466\n      jumpi\n        /* \"#utility.yul\":7377:7456   */\n      tag_467\n      tag_322\n      jump\t// in\n    tag_467:\n        /* \"#utility.yul\":7336:7458   */\n    tag_466:\n        /* \"#utility.yul\":7490:7496   */\n      dup3\n        /* \"#utility.yul\":7477:7497   */\n      calldataload\n        /* \"#utility.yul\":7467:7497   */\n      swap1\n      pop\n        /* \"#utility.yul\":7520:7538   */\n      0xffffffffffffffff\n        /* \"#utility.yul\":7512:7518   */\n      dup2\n        /* \"#utility.yul\":7509:7539   */\n      gt\n        /* \"#utility.yul\":7506:7623   */\n      iszero\n      tag_468\n      jumpi\n        /* \"#utility.yul\":7542:7621   */\n      tag_469\n      tag_323\n      jump\t// in\n    tag_469:\n        /* \"#utility.yul\":7506:7623   */\n    tag_468:\n        /* \"#utility.yul\":7656:7660   */\n      0x20\n        /* \"#utility.yul\":7648:7654   */\n      dup4\n        /* \"#utility.yul\":7644:7661   */\n      add\n        /* \"#utility.yul\":7632:7661   */\n      swap2\n      pop\n        /* \"#utility.yul\":7710:7713   */\n      dup4\n        /* \"#utility.yul\":7702:7706   */\n      0x20\n        /* \"#utility.yul\":7694:7700   */\n      dup3\n        /* \"#utility.yul\":7690:7707   */\n      mul\n        /* \"#utility.yul\":7680:7688   */\n      dup4\n        /* \"#utility.yul\":7676:7708   */\n      add\n        /* \"#utility.yul\":7673:7714   */\n      gt\n        /* \"#utility.yul\":7670:7798   */\n      iszero\n      tag_470\n      jumpi\n        /* \"#utility.yul\":7717:7796   */\n      tag_471\n      tag_324\n      jump\t// in\n    tag_471:\n        /* \"#utility.yul\":7670:7798   */\n    tag_470:\n        /* \"#utility.yul\":7236:7804   */\n      swap3\n      pop\n      swap3\n      swap1\n      pop\n      jump\t// out\n        /* \"#utility.yul\":7810:8744   */\n    tag_59:\n        /* \"#utility.yul\":7932:7938   */\n      0x00\n        /* \"#utility.yul\":7940:7946   */\n      dup1\n        /* \"#utility.yul\":7948:7954   */\n      0x00\n        /* \"#utility.yul\":7956:7962   */\n      dup1\n        /* \"#utility.yul\":8005:8007   */\n      0x40\n        /* \"#utility.yul\":7993:8002   */\n      dup6\n        /* \"#utility.yul\":7984:7991   */\n      dup8\n        /* \"#utility.yul\":7980:8003   */\n      sub\n        /* \"#utility.yul\":7976:8008   */\n      slt\n        /* \"#utility.yul\":7973:8092   */\n      iszero\n      tag_473\n      jumpi\n        /* \"#utility.yul\":8011:8090   */\n      tag_474\n      tag_298\n      jump\t// in\n    tag_474:\n        /* \"#utility.yul\":7973:8092   */\n    tag_473:\n        /* \"#utility.yul\":8159:8160   */\n      0x00\n        /* \"#utility.yul\":8148:8157   */\n      dup6\n        /* \"#utility.yul\":8144:8161   */\n      add\n        /* \"#utility.yul\":8131:8162   */\n      calldataload\n        /* \"#utility.yul\":8189:8207   */\n      0xffffffffffffffff\n        /* \"#utility.yul\":8181:8187   */\n      dup2\n        /* \"#utility.yul\":8178:8208   */\n      gt\n        /* \"#utility.yul\":8175:8292   */\n      iszero\n      tag_475\n      jumpi\n        /* \"#utility.yul\":8211:8290   */\n      tag_476\n      tag_299\n      jump\t// in\n    tag_476:\n        /* \"#utility.yul\":8175:8292   */\n    tag_475:\n        /* \"#utility.yul\":8324:8404   */\n      tag_477\n        /* \"#utility.yul\":8396:8403   */\n      dup8\n        /* \"#utility.yul\":8387:8393   */\n      dup3\n        /* \"#utility.yul\":8376:8385   */\n      dup9\n        /* \"#utility.yul\":8372:8394   */\n      add\n        /* \"#utility.yul\":8324:8404   */\n      tag_325\n      jump\t// in\n    tag_477:\n        /* \"#utility.yul\":8306:8404   */\n      swap5\n      pop\n      swap5\n      pop\n        /* \"#utility.yul\":8102:8414   */\n      pop\n        /* \"#utility.yul\":8481:8483   */\n      0x20\n        /* \"#utility.yul\":8470:8479   */\n      dup6\n        /* \"#utility.yul\":8466:8484   */\n      add\n        /* \"#utility.yul\":8453:8485   */\n      calldataload\n        /* \"#utility.yul\":8512:8530   */\n      0xffffffffffffffff\n        /* \"#utility.yul\":8504:8510   */\n      dup2\n        /* \"#utility.yul\":8501:8531   */\n      gt\n        /* \"#utility.yul\":8498:8615   */\n      iszero\n      tag_478\n      jumpi\n        /* \"#utility.yul\":8534:8613   */\n      tag_479\n      tag_299\n      jump\t// in\n    tag_479:\n        /* \"#utility.yul\":8498:8615   */\n    tag_478:\n        /* \"#utility.yul\":8647:8727   */\n      tag_480\n        /* \"#utility.yul\":8719:8726   */\n      dup8\n        /* \"#utility.yul\":8710:8716   */\n      dup3\n        /* \"#utility.yul\":8699:8708   */\n      dup9\n        /* \"#utility.yul\":8695:8717   */\n      add\n        /* \"#utility.yul\":8647:8727   */\n      tag_326\n      jump\t// in\n    tag_480:\n        /* \"#utility.yul\":8629:8727   */\n      swap3\n      pop\n      swap3\n      pop\n        /* \"#utility.yul\":8424:8737   */\n      pop\n        /* \"#utility.yul\":7810:8744   */\n      swap3\n      swap6\n      swap2\n      swap5\n      pop\n      swap3\n      pop\n      jump\t// out\n        /* \"#utility.yul\":8750:9515   */\n    tag_66:\n        /* \"#utility.yul\":8836:8842   */\n      0x00\n        /* \"#utility.yul\":8844:8850   */\n      dup1\n        /* \"#utility.yul\":8852:8858   */\n      0x00\n        /* \"#utility.yul\":8860:8866   */\n      dup1\n        /* \"#utility.yul\":8909:8912   */\n      0x80\n        /* \"#utility.yul\":8897:8906   */\n      dup6\n        /* \"#utility.yul\":8888:8895   */\n      dup8\n        /* \"#utility.yul\":8884:8907   */\n      sub\n        /* \"#utility.yul\":8880:8913   */\n      slt\n        /* \"#utility.yul\":8877:8997   */\n      iszero\n      tag_482\n      jumpi\n        /* \"#utility.yul\":8916:8995   */\n      tag_483\n      tag_298\n      jump\t// in\n    tag_483:\n        /* \"#utility.yul\":8877:8997   */\n    tag_482:\n        /* \"#utility.yul\":9036:9037   */\n      0x00\n        /* \"#utility.yul\":9061:9114   */\n      tag_484\n        /* \"#utility.yul\":9106:9113   */\n      dup8\n        /* \"#utility.yul\":9097:9103   */\n      dup3\n        /* \"#utility.yul\":9086:9095   */\n      dup9\n        /* \"#utility.yul\":9082:9104   */\n      add\n        /* \"#utility.yul\":9061:9114   */\n      tag_320\n      jump\t// in\n    tag_484:\n        /* \"#utility.yul\":9051:9114   */\n      swap5\n      pop\n        /* \"#utility.yul\":9007:9124   */\n      pop\n        /* \"#utility.yul\":9163:9165   */\n      0x20\n        /* \"#utility.yul\":9189:9242   */\n      tag_485\n        /* \"#utility.yul\":9234:9241   */\n      dup8\n        /* \"#utility.yul\":9225:9231   */\n      dup3\n        /* \"#utility.yul\":9214:9223   */\n      dup9\n        /* \"#utility.yul\":9210:9232   */\n      add\n        /* \"#utility.yul\":9189:9242   */\n      tag_320\n      jump\t// in\n    tag_485:\n        /* \"#utility.yul\":9179:9242   */\n      swap4\n      pop\n        /* \"#utility.yul\":9134:9252   */\n      pop\n        /* \"#utility.yul\":9291:9293   */\n      0x40\n        /* \"#utility.yul\":9317:9370   */\n      tag_486\n        /* \"#utility.yul\":9362:9369   */\n      dup8\n        /* \"#utility.yul\":9353:9359   */\n      dup3\n        /* \"#utility.yul\":9342:9351   */\n      dup9\n        /* \"#utility.yul\":9338:9360   */\n      add\n        /* \"#utility.yul\":9317:9370   */\n      tag_320\n      jump\t// in\n    tag_486:\n        /* \"#utility.yul\":9307:9370   */\n      swap3\n      pop\n        /* \"#utility.yul\":9262:9380   */\n      pop\n        /* \"#utility.yul\":9419:9421   */\n      0x60\n        /* \"#utility.yul\":9445:9498   */\n      tag_487\n        /* \"#utility.yul\":9490:9497   */\n      dup8\n        /* \"#utility.yul\":9481:9487   */\n      dup3\n        /* \"#utility.yul\":9470:9479   */\n      dup9\n        /* \"#utility.yul\":9466:9488   */\n      add\n        /* \"#utility.yul\":9445:9498   */\n      tag_320\n      jump\t// in\n    tag_487:\n        /* \"#utility.yul\":9435:9498   */\n      swap2\n      pop\n        /* \"#utility.yul\":9390:9508   */\n      pop\n        /* \"#utility.yul\":8750:9515   */\n      swap3\n      swap6\n      swap2\n      swap5\n      pop\n      swap3\n      pop\n      jump\t// out\n        /* \"#utility.yul\":9521:10062   */\n    tag_72:\n        /* \"#utility.yul\":9692:9696   */\n      0x00\n        /* \"#utility.yul\":9730:9733   */\n      0x80\n        /* \"#utility.yul\":9719:9728   */\n      dup3\n        /* \"#utility.yul\":9715:9734   */\n      add\n        /* \"#utility.yul\":9707:9734   */\n      swap1\n      pop\n        /* \"#utility.yul\":9744:9815   */\n      tag_489\n        /* \"#utility.yul\":9812:9813   */\n      0x00\n        /* \"#utility.yul\":9801:9810   */\n      dup4\n        /* \"#utility.yul\":9797:9814   */\n      add\n        /* \"#utility.yul\":9788:9794   */\n      dup8\n        /* \"#utility.yul\":9744:9815   */\n      tag_321\n      jump\t// in\n    tag_489:\n        /* \"#utility.yul\":9825:9897   */\n      tag_490\n        /* \"#utility.yul\":9893:9895   */\n      0x20\n        /* \"#utility.yul\":9882:9891   */\n      dup4\n        /* \"#utility.yul\":9878:9896   */\n      add\n        /* \"#utility.yul\":9869:9875   */\n      dup7\n        /* \"#utility.yul\":9825:9897   */\n      tag_321\n      jump\t// in\n    tag_490:\n        /* \"#utility.yul\":9907:9979   */\n      tag_491\n        /* \"#utility.yul\":9975:9977   */\n      0x40\n        /* \"#utility.yul\":9964:9973   */\n      dup4\n        /* \"#utility.yul\":9960:9978   */\n      add\n        /* \"#utility.yul\":9951:9957   */\n      dup6\n        /* \"#utility.yul\":9907:9979   */\n      tag_321\n      jump\t// in\n    tag_491:\n        /* \"#utility.yul\":9989:10055   */\n      tag_492\n        /* \"#utility.yul\":10051:10053   */\n      0x60\n        /* \"#utility.yul\":10040:10049   */\n      dup4\n        /* \"#utility.yul\":10036:10054   */\n      add\n        /* \"#utility.yul\":10027:10033   */\n      dup5\n        /* \"#utility.yul\":9989:10055   */\n      tag_304\n      jump\t// in\n    tag_492:\n        /* \"#utility.yul\":9521:10062   */\n      swap6\n      swap5\n      pop\n      pop\n      pop\n      pop\n      pop\n      jump\t// out\n        /* \"#utility.yul\":10068:10397   */\n    tag_79:\n        /* \"#utility.yul\":10127:10133   */\n      0x00\n        /* \"#utility.yul\":10176:10178   */\n      0x20\n        /* \"#utility.yul\":10164:10173   */\n      dup3\n        /* \"#utility.yul\":10155:10162   */\n      dup5\n        /* \"#utility.yul\":10151:10174   */\n      sub\n        /* \"#utility.yul\":10147:10179   */\n      slt\n        /* \"#utility.yul\":10144:10263   */\n      iszero\n      tag_494\n      jumpi\n        /* \"#utility.yul\":10182:10261   */\n      tag_495\n      tag_298\n      jump\t// in\n    tag_495:\n        /* \"#utility.yul\":10144:10263   */\n    tag_494:\n        /* \"#utility.yul\":10302:10303   */\n      0x00\n        /* \"#utility.yul\":10327:10380   */\n      tag_496\n        /* \"#utility.yul\":10372:10379   */\n      dup5\n        /* \"#utility.yul\":10363:10369   */\n      dup3\n        /* \"#utility.yul\":10352:10361   */\n      dup6\n        /* \"#utility.yul\":10348:10370   */\n      add\n        /* \"#utility.yul\":10327:10380   */\n      tag_317\n      jump\t// in\n    tag_496:\n        /* \"#utility.yul\":10317:10380   */\n      swap2\n      pop\n        /* \"#utility.yul\":10273:10390   */\n      pop\n        /* \"#utility.yul\":10068:10397   */\n      swap3\n      swap2\n      pop\n      pop\n      jump\t// out\n        /* \"#utility.yul\":10403:10732   */\n    tag_86:\n        /* \"#utility.yul\":10462:10468   */\n      0x00\n        /* \"#utility.yul\":10511:10513   */\n      0x20\n        /* \"#utility.yul\":10499:10508   */\n      dup3\n        /* \"#utility.yul\":10490:10497   */\n      dup5\n        /* \"#utility.yul\":10486:10509   */\n      sub\n        /* \"#utility.yul\":10482:10514   */\n      slt\n        /* \"#utility.yul\":10479:10598   */\n      iszero\n      tag_498\n      jumpi\n        /* \"#utility.yul\":10517:10596   */\n      tag_499\n      tag_298\n      jump\t// in\n    tag_499:\n        /* \"#utility.yul\":10479:10598   */\n    tag_498:\n        /* \"#utility.yul\":10637:10638   */\n      0x00\n        /* \"#utility.yul\":10662:10715   */\n      tag_500\n        /* \"#utility.yul\":10707:10714   */\n      dup5\n        /* \"#utility.yul\":10698:10704   */\n      dup3\n        /* \"#utility.yul\":10687:10696   */\n      dup6\n        /* \"#utility.yul\":10683:10705   */\n      add\n        /* \"#utility.yul\":10662:10715   */\n      tag_320\n      jump\t// in\n    tag_500:\n        /* \"#utility.yul\":10652:10715   */\n      swap2\n      pop\n        /* \"#utility.yul\":10608:10725   */\n      pop\n        /* \"#utility.yul\":10403:10732   */\n      swap3\n      swap2\n      pop\n      pop\n      jump\t// out\n        /* \"#utility.yul\":10738:10846   */\n    tag_327:\n        /* \"#utility.yul\":10815:10839   */\n      tag_502\n        /* \"#utility.yul\":10833:10838   */\n      dup2\n        /* \"#utility.yul\":10815:10839   */\n      tag_318\n      jump\t// in\n    tag_502:\n        /* \"#utility.yul\":10810:10813   */\n      dup3\n        /* \"#utility.yul\":10803:10840   */\n      mstore\n        /* \"#utility.yul\":10738:10846   */\n      pop\n      pop\n      jump\t// out\n        /* \"#utility.yul\":10926:11266   */\n    tag_328:\n        /* \"#utility.yul\":11075:11079   */\n      0x20\n        /* \"#utility.yul\":11070:11073   */\n      dup3\n        /* \"#utility.yul\":11066:11080   */\n      add\n        /* \"#utility.yul\":11167:11171   */\n      0x00\n        /* \"#utility.yul\":11160:11165   */\n      dup3\n        /* \"#utility.yul\":11156:11172   */\n      add\n        /* \"#utility.yul\":11150:11173   */\n      mload\n        /* \"#utility.yul\":11186:11249   */\n      tag_504\n        /* \"#utility.yul\":11243:11247   */\n      0x00\n        /* \"#utility.yul\":11238:11241   */\n      dup6\n        /* \"#utility.yul\":11234:11248   */\n      add\n        /* \"#utility.yul\":11220:11232   */\n      dup3\n        /* \"#utility.yul\":11186:11249   */\n      tag_327\n      jump\t// in\n    tag_504:\n        /* \"#utility.yul\":11090:11259   */\n      pop\n        /* \"#utility.yul\":11044:11266   */\n      pop\n        /* \"#utility.yul\":10926:11266   */\n      pop\n      pop\n      jump\t// out\n        /* \"#utility.yul\":11272:11598   */\n    tag_89:\n        /* \"#utility.yul\":11417:11421   */\n      0x00\n        /* \"#utility.yul\":11455:11457   */\n      0x20\n        /* \"#utility.yul\":11444:11453   */\n      dup3\n        /* \"#utility.yul\":11440:11458   */\n      add\n        /* \"#utility.yul\":11432:11458   */\n      swap1\n      pop\n        /* \"#utility.yul\":11468:11591   */\n      tag_506\n        /* \"#utility.yul\":11588:11589   */\n      0x00\n        /* \"#utility.yul\":11577:11586   */\n      dup4\n        /* \"#utility.yul\":11573:11590   */\n      add\n        /* \"#utility.yul\":11564:11570   */\n      dup5\n        /* \"#utility.yul\":11468:11591   */\n      tag_328\n      jump\t// in\n    tag_506:\n        /* \"#utility.yul\":11272:11598   */\n      swap3\n      swap2\n      pop\n      pop\n      jump\t// out\n        /* \"#utility.yul\":11604:12223   */\n    tag_92:\n        /* \"#utility.yul\":11681:11687   */\n      0x00\n        /* \"#utility.yul\":11689:11695   */\n      dup1\n        /* \"#utility.yul\":11697:11703   */\n      0x00\n        /* \"#utility.yul\":11746:11748   */\n      0x60\n        /* \"#utility.yul\":11734:11743   */\n      dup5\n        /* \"#utility.yul\":11725:11732   */\n      dup7\n        /* \"#utility.yul\":11721:11744   */\n      sub\n        /* \"#utility.yul\":11717:11749   */\n      slt\n        /* \"#utility.yul\":11714:11833   */\n      iszero\n      tag_508\n      jumpi\n        /* \"#utility.yul\":11752:11831   */\n      tag_509\n      tag_298\n      jump\t// in\n    tag_509:\n        /* \"#utility.yul\":11714:11833   */\n    tag_508:\n        /* \"#utility.yul\":11872:11873   */\n      0x00\n        /* \"#utility.yul\":11897:11950   */\n      tag_510\n        /* \"#utility.yul\":11942:11949   */\n      dup7\n        /* \"#utility.yul\":11933:11939   */\n      dup3\n        /* \"#utility.yul\":11922:11931   */\n      dup8\n        /* \"#utility.yul\":11918:11940   */\n      add\n        /* \"#utility.yul\":11897:11950   */\n      tag_320\n      jump\t// in\n    tag_510:\n        /* \"#utility.yul\":11887:11950   */\n      swap4\n      pop\n        /* \"#utility.yul\":11843:11960   */\n      pop\n        /* \"#utility.yul\":11999:12001   */\n      0x20\n        /* \"#utility.yul\":12025:12078   */\n      tag_511\n        /* \"#utility.yul\":12070:12077   */\n      dup7\n        /* \"#utility.yul\":12061:12067   */\n      dup3\n        /* \"#utility.yul\":12050:12059   */\n      dup8\n        /* \"#utility.yul\":12046:12068   */\n      add\n        /* \"#utility.yul\":12025:12078   */\n      tag_317\n      jump\t// in\n    tag_511:\n        /* \"#utility.yul\":12015:12078   */\n      swap3\n      pop\n        /* \"#utility.yul\":11970:12088   */\n      pop\n        /* \"#utility.yul\":12127:12129   */\n      0x40\n        /* \"#utility.yul\":12153:12206   */\n      tag_512\n        /* \"#utility.yul\":12198:12205   */\n      dup7\n        /* \"#utility.yul\":12189:12195   */\n      dup3\n        /* \"#utility.yul\":12178:12187   */\n      dup8\n        /* \"#utility.yul\":12174:12196   */\n      add\n        /* \"#utility.yul\":12153:12206   */\n      tag_320\n      jump\t// in\n    tag_512:\n        /* \"#utility.yul\":12143:12206   */\n      swap2\n      pop\n        /* \"#utility.yul\":12098:12216   */\n      pop\n        /* \"#utility.yul\":11604:12223   */\n      swap3\n      pop\n      swap3\n      pop\n      swap3\n      jump\t// out\n        /* \"#utility.yul\":12229:12451   */\n    tag_98:\n        /* \"#utility.yul\":12322:12326   */\n      0x00\n        /* \"#utility.yul\":12360:12362   */\n      0x20\n        /* \"#utility.yul\":12349:12358   */\n      dup3\n        /* \"#utility.yul\":12345:12363   */\n      add\n        /* \"#utility.yul\":12337:12363   */\n      swap1\n      pop\n        /* \"#utility.yul\":12373:12444   */\n      tag_514\n        /* \"#utility.yul\":12441:12442   */\n      0x00\n        /* \"#utility.yul\":12430:12439   */\n      dup4\n        /* \"#utility.yul\":12426:12443   */\n      add\n        /* \"#utility.yul\":12417:12423   */\n      dup5\n        /* \"#utility.yul\":12373:12444   */\n      tag_321\n      jump\t// in\n    tag_514:\n        /* \"#utility.yul\":12229:12451   */\n      swap3\n      swap2\n      pop\n      pop\n      jump\t// out\n        /* \"#utility.yul\":12457:12931   */\n    tag_107:\n        /* \"#utility.yul\":12525:12531   */\n      0x00\n        /* \"#utility.yul\":12533:12539   */\n      dup1\n        /* \"#utility.yul\":12582:12584   */\n      0x40\n        /* \"#utility.yul\":12570:12579   */\n      dup4\n        /* \"#utility.yul\":12561:12568   */\n      dup6\n        /* \"#utility.yul\":12557:12580   */\n      sub\n        /* \"#utility.yul\":12553:12585   */\n      slt\n        /* \"#utility.yul\":12550:12669   */\n      iszero\n      tag_516\n      jumpi\n        /* \"#utility.yul\":12588:12667   */\n      tag_517\n      tag_298\n      jump\t// in\n    tag_517:\n        /* \"#utility.yul\":12550:12669   */\n    tag_516:\n        /* \"#utility.yul\":12708:12709   */\n      0x00\n        /* \"#utility.yul\":12733:12786   */\n      tag_518\n        /* \"#utility.yul\":12778:12785   */\n      dup6\n        /* \"#utility.yul\":12769:12775   */\n      dup3\n        /* \"#utility.yul\":12758:12767   */\n      dup7\n        /* \"#utility.yul\":12754:12776   */\n      add\n        /* \"#utility.yul\":12733:12786   */\n      tag_317\n      jump\t// in\n    tag_518:\n        /* \"#utility.yul\":12723:12786   */\n      swap3\n      pop\n        /* \"#utility.yul\":12679:12796   */\n      pop\n        /* \"#utility.yul\":12835:12837   */\n      0x20\n        /* \"#utility.yul\":12861:12914   */\n      tag_519\n        /* \"#utility.yul\":12906:12913   */\n      dup6\n        /* \"#utility.yul\":12897:12903   */\n      dup3\n        /* \"#utility.yul\":12886:12895   */\n      dup7\n        /* \"#utility.yul\":12882:12904   */\n      add\n        /* \"#utility.yul\":12861:12914   */\n      tag_317\n      jump\t// in\n    tag_519:\n        /* \"#utility.yul\":12851:12914   */\n      swap2\n      pop\n        /* \"#utility.yul\":12806:12924   */\n      pop\n        /* \"#utility.yul\":12457:12931   */\n      swap3\n      pop\n      swap3\n      swap1\n      pop\n      jump\t// out\n        /* \"#utility.yul\":12937:13106   */\n    tag_329:\n        /* \"#utility.yul\":13021:13032   */\n      0x00\n        /* \"#utility.yul\":13055:13061   */\n      dup3\n        /* \"#utility.yul\":13050:13053   */\n      dup3\n        /* \"#utility.yul\":13043:13062   */\n      mstore\n        /* \"#utility.yul\":13095:13099   */\n      0x20\n        /* \"#utility.yul\":13090:13093   */\n      dup3\n        /* \"#utility.yul\":13086:13100   */\n      add\n        /* \"#utility.yul\":13071:13100   */\n      swap1\n      pop\n        /* \"#utility.yul\":12937:13106   */\n      swap3\n      swap2\n      pop\n      pop\n      jump\t// out\n        /* \"#utility.yul\":13112:13346   */\n    tag_330:\n        /* \"#utility.yul\":13252:13286   */\n      0x416363657373436f6e74726f6c3a2063616e206f6e6c792072656e6f756e6365\n        /* \"#utility.yul\":13248:13249   */\n      0x00\n        /* \"#utility.yul\":13240:13246   */\n      dup3\n        /* \"#utility.yul\":13236:13250   */\n      add\n        /* \"#utility.yul\":13229:13287   */\n      mstore\n        /* \"#utility.yul\":13321:13338   */\n      0x20726f6c657320666f722073656c660000000000000000000000000000000000\n        /* \"#utility.yul\":13316:13318   */\n      0x20\n        /* \"#utility.yul\":13308:13314   */\n      dup3\n        /* \"#utility.yul\":13304:13319   */\n      add\n        /* \"#utility.yul\":13297:13339   */\n      mstore\n        /* \"#utility.yul\":13112:13346   */\n      pop\n      jump\t// out\n        /* \"#utility.yul\":13352:13718   */\n    tag_331:\n        /* \"#utility.yul\":13494:13497   */\n      0x00\n        /* \"#utility.yul\":13515:13582   */\n      tag_523\n        /* \"#utility.yul\":13579:13581   */\n      0x2f\n        /* \"#utility.yul\":13574:13577   */\n      dup4\n        /* \"#utility.yul\":13515:13582   */\n      tag_329\n      jump\t// in\n    tag_523:\n        /* \"#utility.yul\":13508:13582   */\n      swap2\n      pop\n        /* \"#utility.yul\":13591:13684   */\n      tag_524\n        /* \"#utility.yul\":13680:13683   */\n      dup3\n        /* \"#utility.yul\":13591:13684   */\n      tag_330\n      jump\t// in\n    tag_524:\n        /* \"#utility.yul\":13709:13711   */\n      0x40\n        /* \"#utility.yul\":13704:13707   */\n      dup3\n        /* \"#utility.yul\":13700:13712   */\n      add\n        /* \"#utility.yul\":13693:13712   */\n      swap1\n      pop\n        /* \"#utility.yul\":13352:13718   */\n      swap2\n      swap1\n      pop\n      jump\t// out\n        /* \"#utility.yul\":13724:14143   */\n    tag_135:\n        /* \"#utility.yul\":13890:13894   */\n      0x00\n        /* \"#utility.yul\":13928:13930   */\n      0x20\n        /* \"#utility.yul\":13917:13926   */\n      dup3\n        /* \"#utility.yul\":13913:13931   */\n      add\n        /* \"#utility.yul\":13905:13931   */\n      swap1\n      pop\n        /* \"#utility.yul\":13977:13986   */\n      dup2\n        /* \"#utility.yul\":13971:13975   */\n      dup2\n        /* \"#utility.yul\":13967:13987   */\n      sub\n        /* \"#utility.yul\":13963:13964   */\n      0x00\n        /* \"#utility.yul\":13952:13961   */\n      dup4\n        /* \"#utility.yul\":13948:13965   */\n      add\n        /* \"#utility.yul\":13941:13988   */\n      mstore\n        /* \"#utility.yul\":14005:14136   */\n      tag_526\n        /* \"#utility.yul\":14131:14135   */\n      dup2\n        /* \"#utility.yul\":14005:14136   */\n      tag_331\n      jump\t// in\n    tag_526:\n        /* \"#utility.yul\":13997:14136   */\n      swap1\n      pop\n        /* \"#utility.yul\":13724:14143   */\n      swap2\n      swap1\n      pop\n      jump\t// out\n        /* \"#utility.yul\":14149:14380   */\n    tag_332:\n        /* \"#utility.yul\":14289:14323   */\n      0x526563697069656e747320616e6420746f6b656e20616d6f756e7473206c656e\n        /* \"#utility.yul\":14285:14286   */\n      0x00\n        /* \"#utility.yul\":14277:14283   */\n      dup3\n        /* \"#utility.yul\":14273:14287   */\n      add\n        /* \"#utility.yul\":14266:14324   */\n      mstore\n        /* \"#utility.yul\":14358:14372   */\n      0x677468206d69736d617463680000000000000000000000000000000000000000\n        /* \"#utility.yul\":14353:14355   */\n      0x20\n        /* \"#utility.yul\":14345:14351   */\n      dup3\n        /* \"#utility.yul\":14341:14356   */\n      add\n        /* \"#utility.yul\":14334:14373   */\n      mstore\n        /* \"#utility.yul\":14149:14380   */\n      pop\n      jump\t// out\n        /* \"#utility.yul\":14386:14752   */\n    tag_333:\n        /* \"#utility.yul\":14528:14531   */\n      0x00\n        /* \"#utility.yul\":14549:14616   */\n      tag_529\n        /* \"#utility.yul\":14613:14615   */\n      0x2c\n        /* \"#utility.yul\":14608:14611   */\n      dup4\n        /* \"#utility.yul\":14549:14616   */\n      tag_329\n      jump\t// in\n    tag_529:\n        /* \"#utility.yul\":14542:14616   */\n      swap2\n      pop\n        /* \"#utility.yul\":14625:14718   */\n      tag_530\n        /* \"#utility.yul\":14714:14717   */\n      dup3\n        /* \"#utility.yul\":14625:14718   */\n      tag_332\n      jump\t// in\n    tag_530:\n        /* \"#utility.yul\":14743:14745   */\n      0x40\n        /* \"#utility.yul\":14738:14741   */\n      dup3\n        /* \"#utility.yul\":14734:14746   */\n      add\n        /* \"#utility.yul\":14727:14746   */\n      swap1\n      pop\n        /* \"#utility.yul\":14386:14752   */\n      swap2\n      swap1\n      pop\n      jump\t// out\n        /* \"#utility.yul\":14758:15177   */\n    tag_143:\n        /* \"#utility.yul\":14924:14928   */\n      0x00\n        /* \"#utility.yul\":14962:14964   */\n      0x20\n        /* \"#utility.yul\":14951:14960   */\n      dup3\n        /* \"#utility.yul\":14947:14965   */\n      add\n        /* \"#utility.yul\":14939:14965   */\n      swap1\n      pop\n        /* \"#utility.yul\":15011:15020   */\n      dup2\n        /* \"#utility.yul\":15005:15009   */\n      dup2\n        /* \"#utility.yul\":15001:15021   */\n      sub\n        /* \"#utility.yul\":14997:14998   */\n      0x00\n        /* \"#utility.yul\":14986:14995   */\n      dup4\n        /* \"#utility.yul\":14982:14999   */\n      add\n        /* \"#utility.yul\":14975:15022   */\n      mstore\n        /* \"#utility.yul\":15039:15170   */\n      tag_532\n        /* \"#utility.yul\":15165:15169   */\n      dup2\n        /* \"#utility.yul\":15039:15170   */\n      tag_333\n      jump\t// in\n    tag_532:\n        /* \"#utility.yul\":15031:15170   */\n      swap1\n      pop\n        /* \"#utility.yul\":14758:15177   */\n      swap2\n      swap1\n      pop\n      jump\t// out\n        /* \"#utility.yul\":15183:15363   */\n    tag_149:\n        /* \"#utility.yul\":15231:15308   */\n      0x4e487b7100000000000000000000000000000000000000000000000000000000\n        /* \"#utility.yul\":15228:15229   */\n      0x00\n        /* \"#utility.yul\":15221:15309   */\n      mstore\n        /* \"#utility.yul\":15328:15332   */\n      0x32\n        /* \"#utility.yul\":15325:15326   */\n      0x04\n        /* \"#utility.yul\":15318:15333   */\n      mstore\n        /* \"#utility.yul\":15352:15356   */\n      0x24\n        /* \"#utility.yul\":15349:15350   */\n      0x00\n        /* \"#utility.yul\":15342:15357   */\n      revert\n        /* \"#utility.yul\":15369:15487   */\n    tag_334:\n        /* \"#utility.yul\":15456:15480   */\n      tag_535\n        /* \"#utility.yul\":15474:15479   */\n      dup2\n        /* \"#utility.yul\":15456:15480   */\n      tag_315\n      jump\t// in\n    tag_535:\n        /* \"#utility.yul\":15451:15454   */\n      dup3\n        /* \"#utility.yul\":15444:15481   */\n      mstore\n        /* \"#utility.yul\":15369:15487   */\n      pop\n      pop\n      jump\t// out\n        /* \"#utility.yul\":15493:15825   */\n    tag_154:\n        /* \"#utility.yul\":15614:15618   */\n      0x00\n        /* \"#utility.yul\":15652:15654   */\n      0x40\n        /* \"#utility.yul\":15641:15650   */\n      dup3\n        /* \"#utility.yul\":15637:15655   */\n      add\n        /* \"#utility.yul\":15629:15655   */\n      swap1\n      pop\n        /* \"#utility.yul\":15665:15736   */\n      tag_537\n        /* \"#utility.yul\":15733:15734   */\n      0x00\n        /* \"#utility.yul\":15722:15731   */\n      dup4\n        /* \"#utility.yul\":15718:15735   */\n      add\n        /* \"#utility.yul\":15709:15715   */\n      dup6\n        /* \"#utility.yul\":15665:15736   */\n      tag_334\n      jump\t// in\n    tag_537:\n        /* \"#utility.yul\":15746:15818   */\n      tag_538\n        /* \"#utility.yul\":15814:15816   */\n      0x20\n        /* \"#utility.yul\":15803:15812   */\n      dup4\n        /* \"#utility.yul\":15799:15817   */\n      add\n        /* \"#utility.yul\":15790:15796   */\n      dup5\n        /* \"#utility.yul\":15746:15818   */\n      tag_321\n      jump\t// in\n    tag_538:\n        /* \"#utility.yul\":15493:15825   */\n      swap4\n      swap3\n      pop\n      pop\n      pop\n      jump\t// out\n        /* \"#utility.yul\":15831:15947   */\n    tag_335:\n        /* \"#utility.yul\":15901:15922   */\n      tag_540\n        /* \"#utility.yul\":15916:15921   */\n      dup2\n        /* \"#utility.yul\":15901:15922   */\n      tag_303\n      jump\t// in\n    tag_540:\n        /* \"#utility.yul\":15894:15899   */\n      dup2\n        /* \"#utility.yul\":15891:15923   */\n      eq\n        /* \"#utility.yul\":15881:15941   */\n      tag_541\n      jumpi\n        /* \"#utility.yul\":15937:15938   */\n      0x00\n        /* \"#utility.yul\":15934:15935   */\n      dup1\n        /* \"#utility.yul\":15927:15939   */\n      revert\n        /* \"#utility.yul\":15881:15941   */\n    tag_541:\n        /* \"#utility.yul\":15831:15947   */\n      pop\n      jump\t// out\n        /* \"#utility.yul\":15953:16090   */\n    tag_336:\n        /* \"#utility.yul\":16007:16012   */\n      0x00\n        /* \"#utility.yul\":16038:16044   */\n      dup2\n        /* \"#utility.yul\":16032:16045   */\n      mload\n        /* \"#utility.yul\":16023:16045   */\n      swap1\n      pop\n        /* \"#utility.yul\":16054:16084   */\n      tag_543\n        /* \"#utility.yul\":16078:16083   */\n      dup2\n        /* \"#utility.yul\":16054:16084   */\n      tag_335\n      jump\t// in\n    tag_543:\n        /* \"#utility.yul\":15953:16090   */\n      swap3\n      swap2\n      pop\n      pop\n      jump\t// out\n        /* \"#utility.yul\":16096:16441   */\n    tag_158:\n        /* \"#utility.yul\":16163:16169   */\n      0x00\n        /* \"#utility.yul\":16212:16214   */\n      0x20\n        /* \"#utility.yul\":16200:16209   */\n      dup3\n        /* \"#utility.yul\":16191:16198   */\n      dup5\n        /* \"#utility.yul\":16187:16210   */\n      sub\n        /* \"#utility.yul\":16183:16215   */\n      slt\n        /* \"#utility.yul\":16180:16299   */\n      iszero\n      tag_545\n      jumpi\n        /* \"#utility.yul\":16218:16297   */\n      tag_546\n      tag_298\n      jump\t// in\n    tag_546:\n        /* \"#utility.yul\":16180:16299   */\n    tag_545:\n        /* \"#utility.yul\":16338:16339   */\n      0x00\n        /* \"#utility.yul\":16363:16424   */\n      tag_547\n        /* \"#utility.yul\":16416:16423   */\n      dup5\n        /* \"#utility.yul\":16407:16413   */\n      dup3\n        /* \"#utility.yul\":16396:16405   */\n      dup6\n        /* \"#utility.yul\":16392:16414   */\n      add\n        /* \"#utility.yul\":16363:16424   */\n      tag_336\n      jump\t// in\n    tag_547:\n        /* \"#utility.yul\":16353:16424   */\n      swap2\n      pop\n        /* \"#utility.yul\":16309:16434   */\n      pop\n        /* \"#utility.yul\":16096:16441   */\n      swap3\n      swap2\n      pop\n      pop\n      jump\t// out\n        /* \"#utility.yul\":16447:16618   */\n    tag_337:\n        /* \"#utility.yul\":16587:16610   */\n      0x546f6b656e207472616e73666572206661696c65640000000000000000000000\n        /* \"#utility.yul\":16583:16584   */\n      0x00\n        /* \"#utility.yul\":16575:16581   */\n      dup3\n        /* \"#utility.yul\":16571:16585   */\n      add\n        /* \"#utility.yul\":16564:16611   */\n      mstore\n        /* \"#utility.yul\":16447:16618   */\n      pop\n      jump\t// out\n        /* \"#utility.yul\":16624:16990   */\n    tag_338:\n        /* \"#utility.yul\":16766:16769   */\n      0x00\n        /* \"#utility.yul\":16787:16854   */\n      tag_550\n        /* \"#utility.yul\":16851:16853   */\n      0x15\n        /* \"#utility.yul\":16846:16849   */\n      dup4\n        /* \"#utility.yul\":16787:16854   */\n      tag_329\n      jump\t// in\n    tag_550:\n        /* \"#utility.yul\":16780:16854   */\n      swap2\n      pop\n        /* \"#utility.yul\":16863:16956   */\n      tag_551\n        /* \"#utility.yul\":16952:16955   */\n      dup3\n        /* \"#utility.yul\":16863:16956   */\n      tag_337\n      jump\t// in\n    tag_551:\n        /* \"#utility.yul\":16981:16983   */\n      0x20\n        /* \"#utility.yul\":16976:16979   */\n      dup3\n        /* \"#utility.yul\":16972:16984   */\n      add\n        /* \"#utility.yul\":16965:16984   */\n      swap1\n      pop\n        /* \"#utility.yul\":16624:16990   */\n      swap2\n      swap1\n      pop\n      jump\t// out\n        /* \"#utility.yul\":16996:17415   */\n    tag_161:\n        /* \"#utility.yul\":17162:17166   */\n      0x00\n        /* \"#utility.yul\":17200:17202   */\n      0x20\n        /* \"#utility.yul\":17189:17198   */\n      dup3\n        /* \"#utility.yul\":17185:17203   */\n      add\n        /* \"#utility.yul\":17177:17203   */\n      swap1\n      pop\n        /* \"#utility.yul\":17249:17258   */\n      dup2\n        /* \"#utility.yul\":17243:17247   */\n      dup2\n        /* \"#utility.yul\":17239:17259   */\n      sub\n        /* \"#utility.yul\":17235:17236   */\n      0x00\n        /* \"#utility.yul\":17224:17233   */\n      dup4\n        /* \"#utility.yul\":17220:17237   */\n      add\n        /* \"#utility.yul\":17213:17260   */\n      mstore\n        /* \"#utility.yul\":17277:17408   */\n      tag_553\n        /* \"#utility.yul\":17403:17407   */\n      dup2\n        /* \"#utility.yul\":17277:17408   */\n      tag_338\n      jump\t// in\n    tag_553:\n        /* \"#utility.yul\":17269:17408   */\n      swap1\n      pop\n        /* \"#utility.yul\":16996:17415   */\n      swap2\n      swap1\n      pop\n      jump\t// out\n        /* \"#utility.yul\":17421:17605   */\n    tag_339:\n        /* \"#utility.yul\":17520:17531   */\n      0x00\n        /* \"#utility.yul\":17554:17560   */\n      dup3\n        /* \"#utility.yul\":17549:17552   */\n      dup3\n        /* \"#utility.yul\":17542:17561   */\n      mstore\n        /* \"#utility.yul\":17594:17598   */\n      0x20\n        /* \"#utility.yul\":17589:17592   */\n      dup3\n        /* \"#utility.yul\":17585:17599   */\n      add\n        /* \"#utility.yul\":17570:17599   */\n      swap1\n      pop\n        /* \"#utility.yul\":17421:17605   */\n      swap3\n      swap2\n      pop\n      pop\n      jump\t// out\n        /* \"#utility.yul\":17611:17713   */\n    tag_340:\n        /* \"#utility.yul\":17680:17684   */\n      0x00\n        /* \"#utility.yul\":17703:17706   */\n      dup2\n        /* \"#utility.yul\":17695:17706   */\n      swap1\n      pop\n        /* \"#utility.yul\":17611:17713   */\n      swap2\n      swap1\n      pop\n      jump\t// out\n        /* \"#utility.yul\":17719:17827   */\n    tag_341:\n        /* \"#utility.yul\":17796:17820   */\n      tag_557\n        /* \"#utility.yul\":17814:17819   */\n      dup2\n        /* \"#utility.yul\":17796:17820   */\n      tag_315\n      jump\t// in\n    tag_557:\n        /* \"#utility.yul\":17791:17794   */\n      dup3\n        /* \"#utility.yul\":17784:17821   */\n      mstore\n        /* \"#utility.yul\":17719:17827   */\n      pop\n      pop\n      jump\t// out\n        /* \"#utility.yul\":17833:18012   */\n    tag_342:\n        /* \"#utility.yul\":17902:17912   */\n      0x00\n        /* \"#utility.yul\":17923:17969   */\n      tag_559\n        /* \"#utility.yul\":17965:17968   */\n      dup4\n        /* \"#utility.yul\":17957:17963   */\n      dup4\n        /* \"#utility.yul\":17923:17969   */\n      tag_341\n      jump\t// in\n    tag_559:\n        /* \"#utility.yul\":18001:18005   */\n      0x20\n        /* \"#utility.yul\":17996:17999   */\n      dup4\n        /* \"#utility.yul\":17992:18006   */\n      add\n        /* \"#utility.yul\":17978:18006   */\n      swap1\n      pop\n        /* \"#utility.yul\":17833:18012   */\n      swap3\n      swap2\n      pop\n      pop\n      jump\t// out\n        /* \"#utility.yul\":18018:18140   */\n    tag_343:\n        /* \"#utility.yul\":18070:18075   */\n      0x00\n        /* \"#utility.yul\":18095:18134   */\n      tag_561\n        /* \"#utility.yul\":18130:18132   */\n      0x20\n        /* \"#utility.yul\":18125:18128   */\n      dup5\n        /* \"#utility.yul\":18121:18133   */\n      add\n        /* \"#utility.yul\":18116:18119   */\n      dup5\n        /* \"#utility.yul\":18095:18134   */\n      tag_317\n      jump\t// in\n    tag_561:\n        /* \"#utility.yul\":18086:18134   */\n      swap1\n      pop\n        /* \"#utility.yul\":18018:18140   */\n      swap3\n      swap2\n      pop\n      pop\n      jump\t// out\n        /* \"#utility.yul\":18146:18261   */\n    tag_344:\n        /* \"#utility.yul\":18218:18222   */\n      0x00\n        /* \"#utility.yul\":18250:18254   */\n      0x20\n        /* \"#utility.yul\":18245:18248   */\n      dup3\n        /* \"#utility.yul\":18241:18255   */\n      add\n        /* \"#utility.yul\":18233:18255   */\n      swap1\n      pop\n        /* \"#utility.yul\":18146:18261   */\n      swap2\n      swap1\n      pop\n      jump\t// out\n        /* \"#utility.yul\":18297:18996   */\n    tag_345:\n        /* \"#utility.yul\":18426:18429   */\n      0x00\n        /* \"#utility.yul\":18449:18535   */\n      tag_564\n        /* \"#utility.yul\":18528:18534   */\n      dup4\n        /* \"#utility.yul\":18523:18526   */\n      dup6\n        /* \"#utility.yul\":18449:18535   */\n      tag_339\n      jump\t// in\n    tag_564:\n        /* \"#utility.yul\":18442:18535   */\n      swap4\n      pop\n        /* \"#utility.yul\":18559:18617   */\n      tag_565\n        /* \"#utility.yul\":18611:18616   */\n      dup3\n        /* \"#utility.yul\":18559:18617   */\n      tag_340\n      jump\t// in\n    tag_565:\n        /* \"#utility.yul\":18640:18647   */\n      dup1\n        /* \"#utility.yul\":18671:18672   */\n      0x00\n        /* \"#utility.yul\":18656:18971   */\n    tag_566:\n        /* \"#utility.yul\":18681:18687   */\n      dup6\n        /* \"#utility.yul\":18678:18679   */\n      dup2\n        /* \"#utility.yul\":18675:18688   */\n      lt\n        /* \"#utility.yul\":18656:18971   */\n      iszero\n      tag_568\n      jumpi\n        /* \"#utility.yul\":18751:18793   */\n      tag_569\n        /* \"#utility.yul\":18786:18792   */\n      dup3\n        /* \"#utility.yul\":18777:18784   */\n      dup5\n        /* \"#utility.yul\":18751:18793   */\n      tag_343\n      jump\t// in\n    tag_569:\n        /* \"#utility.yul\":18813:18876   */\n      tag_570\n        /* \"#utility.yul\":18872:18875   */\n      dup9\n        /* \"#utility.yul\":18857:18870   */\n      dup3\n        /* \"#utility.yul\":18813:18876   */\n      tag_342\n      jump\t// in\n    tag_570:\n        /* \"#utility.yul\":18806:18876   */\n      swap8\n      pop\n        /* \"#utility.yul\":18899:18961   */\n      tag_571\n        /* \"#utility.yul\":18954:18960   */\n      dup4\n        /* \"#utility.yul\":18899:18961   */\n      tag_344\n      jump\t// in\n    tag_571:\n        /* \"#utility.yul\":18889:18961   */\n      swap3\n      pop\n        /* \"#utility.yul\":18716:18971   */\n      pop\n        /* \"#utility.yul\":18703:18704   */\n      0x01\n        /* \"#utility.yul\":18700:18701   */\n      dup2\n        /* \"#utility.yul\":18696:18705   */\n      add\n        /* \"#utility.yul\":18691:18705   */\n      swap1\n      pop\n        /* \"#utility.yul\":18656:18971   */\n      jump(tag_566)\n    tag_568:\n        /* \"#utility.yul\":18660:18674   */\n      pop\n        /* \"#utility.yul\":18987:18990   */\n      dup6\n        /* \"#utility.yul\":18980:18990   */\n      swap3\n      pop\n        /* \"#utility.yul\":18431:18996   */\n      pop\n      pop\n        /* \"#utility.yul\":18297:18996   */\n      swap4\n      swap3\n      pop\n      pop\n      pop\n      jump\t// out\n        /* \"#utility.yul\":19002:19186   */\n    tag_346:\n        /* \"#utility.yul\":19101:19112   */\n      0x00\n        /* \"#utility.yul\":19135:19141   */\n      dup3\n        /* \"#utility.yul\":19130:19133   */\n      dup3\n        /* \"#utility.yul\":19123:19142   */\n      mstore\n        /* \"#utility.yul\":19175:19179   */\n      0x20\n        /* \"#utility.yul\":19170:19173   */\n      dup3\n        /* \"#utility.yul\":19166:19180   */\n      add\n        /* \"#utility.yul\":19151:19180   */\n      swap1\n      pop\n        /* \"#utility.yul\":19002:19186   */\n      swap3\n      swap2\n      pop\n      pop\n      jump\t// out\n        /* \"#utility.yul\":19192:19309   */\n    tag_347:\n        /* \"#utility.yul\":19301:19302   */\n      0x00\n        /* \"#utility.yul\":19298:19299   */\n      dup1\n        /* \"#utility.yul\":19291:19303   */\n      revert\n        /* \"#utility.yul\":19315:19414   */\n    tag_348:\n        /* \"#utility.yul\":19400:19406   */\n      dup3\n        /* \"#utility.yul\":19395:19398   */\n      dup2\n        /* \"#utility.yul\":19390:19393   */\n      dup4\n        /* \"#utility.yul\":19377:19407   */\n      calldatacopy\n        /* \"#utility.yul\":19315:19414   */\n      pop\n      pop\n      pop\n      jump\t// out\n        /* \"#utility.yul\":19450:19987   */\n    tag_349:\n        /* \"#utility.yul\":19578:19581   */\n      0x00\n        /* \"#utility.yul\":19599:19685   */\n      tag_576\n        /* \"#utility.yul\":19678:19684   */\n      dup4\n        /* \"#utility.yul\":19673:19676   */\n      dup6\n        /* \"#utility.yul\":19599:19685   */\n      tag_346\n      jump\t// in\n    tag_576:\n        /* \"#utility.yul\":19592:19685   */\n      swap4\n      pop\n        /* \"#utility.yul\":19709:19775   */\n      0x07ffffffffffffffffffffffffffffffffffffffffffffffffffffffffffffff\n        /* \"#utility.yul\":19701:19707   */\n      dup4\n        /* \"#utility.yul\":19698:19776   */\n      gt\n        /* \"#utility.yul\":19695:19860   */\n      iszero\n      tag_577\n      jumpi\n        /* \"#utility.yul\":19779:19858   */\n      tag_578\n      tag_347\n      jump\t// in\n    tag_578:\n        /* \"#utility.yul\":19695:19860   */\n    tag_577:\n        /* \"#utility.yul\":19891:19895   */\n      0x20\n        /* \"#utility.yul\":19883:19889   */\n      dup4\n        /* \"#utility.yul\":19879:19896   */\n      mul\n        /* \"#utility.yul\":19869:19896   */\n      swap3\n      pop\n        /* \"#utility.yul\":19906:19949   */\n      tag_579\n        /* \"#utility.yul\":19942:19948   */\n      dup4\n        /* \"#utility.yul\":19937:19940   */\n      dup6\n        /* \"#utility.yul\":19930:19935   */\n      dup5\n        /* \"#utility.yul\":19906:19949   */\n      tag_348\n      jump\t// in\n    tag_579:\n        /* \"#utility.yul\":19974:19980   */\n      dup3\n        /* \"#utility.yul\":19969:19972   */\n      dup5\n        /* \"#utility.yul\":19965:19981   */\n      add\n        /* \"#utility.yul\":19958:19981   */\n      swap1\n      pop\n        /* \"#utility.yul\":19450:19987   */\n      swap4\n      swap3\n      pop\n      pop\n      pop\n      jump\t// out\n        /* \"#utility.yul\":19993:20667   */\n    tag_163:\n        /* \"#utility.yul\":20234:20238   */\n      0x00\n        /* \"#utility.yul\":20272:20274   */\n      0x40\n        /* \"#utility.yul\":20261:20270   */\n      dup3\n        /* \"#utility.yul\":20257:20275   */\n      add\n        /* \"#utility.yul\":20249:20275   */\n      swap1\n      pop\n        /* \"#utility.yul\":20321:20330   */\n      dup2\n        /* \"#utility.yul\":20315:20319   */\n      dup2\n        /* \"#utility.yul\":20311:20331   */\n      sub\n        /* \"#utility.yul\":20307:20308   */\n      0x00\n        /* \"#utility.yul\":20296:20305   */\n      dup4\n        /* \"#utility.yul\":20292:20309   */\n      add\n        /* \"#utility.yul\":20285:20332   */\n      mstore\n        /* \"#utility.yul\":20349:20467   */\n      tag_581\n        /* \"#utility.yul\":20462:20466   */\n      dup2\n        /* \"#utility.yul\":20453:20459   */\n      dup7\n        /* \"#utility.yul\":20445:20451   */\n      dup9\n        /* \"#utility.yul\":20349:20467   */\n      tag_345\n      jump\t// in\n    tag_581:\n        /* \"#utility.yul\":20341:20467   */\n      swap1\n      pop\n        /* \"#utility.yul\":20514:20523   */\n      dup2\n        /* \"#utility.yul\":20508:20512   */\n      dup2\n        /* \"#utility.yul\":20504:20524   */\n      sub\n        /* \"#utility.yul\":20499:20501   */\n      0x20\n        /* \"#utility.yul\":20488:20497   */\n      dup4\n        /* \"#utility.yul\":20484:20502   */\n      add\n        /* \"#utility.yul\":20477:20525   */\n      mstore\n        /* \"#utility.yul\":20542:20660   */\n      tag_582\n        /* \"#utility.yul\":20655:20659   */\n      dup2\n        /* \"#utility.yul\":20646:20652   */\n      dup5\n        /* \"#utility.yul\":20638:20644   */\n      dup7\n        /* \"#utility.yul\":20542:20660   */\n      tag_349\n      jump\t// in\n    tag_582:\n        /* \"#utility.yul\":20534:20660   */\n      swap1\n      pop\n        /* \"#utility.yul\":19993:20667   */\n      swap6\n      swap5\n      pop\n      pop\n      pop\n      pop\n      pop\n      jump\t// out\n        /* \"#utility.yul\":20673:20844   */\n    tag_350:\n        /* \"#utility.yul\":20813:20836   */\n      0x4d656d62657220646f6573206e6f742065786973740000000000000000000000\n        /* \"#utility.yul\":20809:20810   */\n      0x00\n        /* \"#utility.yul\":20801:20807   */\n      dup3\n        /* \"#utility.yul\":20797:20811   */\n      add\n        /* \"#utility.yul\":20790:20837   */\n      mstore\n        /* \"#utility.yul\":20673:20844   */\n      pop\n      jump\t// out\n        /* \"#utility.yul\":20850:21216   */\n    tag_351:\n        /* \"#utility.yul\":20992:20995   */\n      0x00\n        /* \"#utility.yul\":21013:21080   */\n      tag_585\n        /* \"#utility.yul\":21077:21079   */\n      0x15\n        /* \"#utility.yul\":21072:21075   */\n      dup4\n        /* \"#utility.yul\":21013:21080   */\n      tag_329\n      jump\t// in\n    tag_585:\n        /* \"#utility.yul\":21006:21080   */\n      swap2\n      pop\n        /* \"#utility.yul\":21089:21182   */\n      tag_586\n        /* \"#utility.yul\":21178:21181   */\n      dup3\n        /* \"#utility.yul\":21089:21182   */\n      tag_350\n      jump\t// in\n    tag_586:\n        /* \"#utility.yul\":21207:21209   */\n      0x20\n        /* \"#utility.yul\":21202:21205   */\n      dup3\n        /* \"#utility.yul\":21198:21210   */\n      add\n        /* \"#utility.yul\":21191:21210   */\n      swap1\n      pop\n        /* \"#utility.yul\":20850:21216   */\n      swap2\n      swap1\n      pop\n      jump\t// out\n        /* \"#utility.yul\":21222:21641   */\n    tag_181:\n        /* \"#utility.yul\":21388:21392   */\n      0x00\n        /* \"#utility.yul\":21426:21428   */\n      0x20\n        /* \"#utility.yul\":21415:21424   */\n      dup3\n        /* \"#utility.yul\":21411:21429   */\n      add\n        /* \"#utility.yul\":21403:21429   */\n      swap1\n      pop\n        /* \"#utility.yul\":21475:21484   */\n      dup2\n        /* \"#utility.yul\":21469:21473   */\n      dup2\n        /* \"#utility.yul\":21465:21485   */\n      sub\n        /* \"#utility.yul\":21461:21462   */\n      0x00\n        /* \"#utility.yul\":21450:21459   */\n      dup4\n        /* \"#utility.yul\":21446:21463   */\n      add\n        /* \"#utility.yul\":21439:21486   */\n      mstore\n        /* \"#utility.yul\":21503:21634   */\n      tag_588\n        /* \"#utility.yul\":21629:21633   */\n      dup2\n        /* \"#utility.yul\":21503:21634   */\n      tag_351\n      jump\t// in\n    tag_588:\n        /* \"#utility.yul\":21495:21634   */\n      swap1\n      pop\n        /* \"#utility.yul\":21222:21641   */\n      swap2\n      swap1\n      pop\n      jump\t// out\n        /* \"#utility.yul\":21647:21822   */\n    tag_352:\n        /* \"#utility.yul\":21787:21814   */\n      0x4d656d62657220616c7265616479207265676973746572656400000000000000\n        /* \"#utility.yul\":21783:21784   */\n      0x00\n        /* \"#utility.yul\":21775:21781   */\n      dup3\n        /* \"#utility.yul\":21771:21785   */\n      add\n        /* \"#utility.yul\":21764:21815   */\n      mstore\n        /* \"#utility.yul\":21647:21822   */\n      pop\n      jump\t// out\n        /* \"#utility.yul\":21828:22194   */\n    tag_353:\n        /* \"#utility.yul\":21970:21973   */\n      0x00\n        /* \"#utility.yul\":21991:22058   */\n      tag_591\n        /* \"#utility.yul\":22055:22057   */\n      0x19\n        /* \"#utility.yul\":22050:22053   */\n      dup4\n        /* \"#utility.yul\":21991:22058   */\n      tag_329\n      jump\t// in\n    tag_591:\n        /* \"#utility.yul\":21984:22058   */\n      swap2\n      pop\n        /* \"#utility.yul\":22067:22160   */\n      tag_592\n        /* \"#utility.yul\":22156:22159   */\n      dup3\n        /* \"#utility.yul\":22067:22160   */\n      tag_352\n      jump\t// in\n    tag_592:\n        /* \"#utility.yul\":22185:22187   */\n      0x20\n        /* \"#utility.yul\":22180:22183   */\n      dup3\n        /* \"#utility.yul\":22176:22188   */\n      add\n        /* \"#utility.yul\":22169:22188   */\n      swap1\n      pop\n        /* \"#utility.yul\":21828:22194   */\n      swap2\n      swap1\n      pop\n      jump\t// out\n        /* \"#utility.yul\":22200:22619   */\n    tag_187:\n        /* \"#utility.yul\":22366:22370   */\n      0x00\n        /* \"#utility.yul\":22404:22406   */\n      0x20\n        /* \"#utility.yul\":22393:22402   */\n      dup3\n        /* \"#utility.yul\":22389:22407   */\n      add\n        /* \"#utility.yul\":22381:22407   */\n      swap1\n      pop\n        /* \"#utility.yul\":22453:22462   */\n      dup2\n        /* \"#utility.yul\":22447:22451   */\n      dup2\n        /* \"#utility.yul\":22443:22463   */\n      sub\n        /* \"#utility.yul\":22439:22440   */\n      0x00\n        /* \"#utility.yul\":22428:22437   */\n      dup4\n        /* \"#utility.yul\":22424:22441   */\n      add\n        /* \"#utility.yul\":22417:22464   */\n      mstore\n        /* \"#utility.yul\":22481:22612   */\n      tag_594\n        /* \"#utility.yul\":22607:22611   */\n      dup2\n        /* \"#utility.yul\":22481:22612   */\n      tag_353\n      jump\t// in\n    tag_594:\n        /* \"#utility.yul\":22473:22612   */\n      swap1\n      pop\n        /* \"#utility.yul\":22200:22619   */\n      swap2\n      swap1\n      pop\n      jump\t// out\n        /* \"#utility.yul\":22625:22957   */\n    tag_193:\n        /* \"#utility.yul\":22746:22750   */\n      0x00\n        /* \"#utility.yul\":22784:22786   */\n      0x40\n        /* \"#utility.yul\":22773:22782   */\n      dup3\n        /* \"#utility.yul\":22769:22787   */\n      add\n        /* \"#utility.yul\":22761:22787   */\n      swap1\n      pop\n        /* \"#utility.yul\":22797:22868   */\n      tag_596\n        /* \"#utility.yul\":22865:22866   */\n      0x00\n        /* \"#utility.yul\":22854:22863   */\n      dup4\n        /* \"#utility.yul\":22850:22867   */\n      add\n        /* \"#utility.yul\":22841:22847   */\n      dup6\n        /* \"#utility.yul\":22797:22868   */\n      tag_321\n      jump\t// in\n    tag_596:\n        /* \"#utility.yul\":22878:22950   */\n      tag_597\n        /* \"#utility.yul\":22946:22948   */\n      0x20\n        /* \"#utility.yul\":22935:22944   */\n      dup4\n        /* \"#utility.yul\":22931:22949   */\n      add\n        /* \"#utility.yul\":22922:22928   */\n      dup5\n        /* \"#utility.yul\":22878:22950   */\n      tag_321\n      jump\t// in\n    tag_597:\n        /* \"#utility.yul\":22625:22957   */\n      swap4\n      swap3\n      pop\n      pop\n      pop\n      jump\t// out\n        /* \"#utility.yul\":22963:23206   */\n    tag_354:\n        /* \"#utility.yul\":23103:23137   */\n      0x4368616c6c656e676520616c72656164792065786973747320666f7220746869\n        /* \"#utility.yul\":23099:23100   */\n      0x00\n        /* \"#utility.yul\":23091:23097   */\n      dup3\n        /* \"#utility.yul\":23087:23101   */\n      add\n        /* \"#utility.yul\":23080:23138   */\n      mstore\n        /* \"#utility.yul\":23172:23198   */\n      0x73206d656d6265722c20646174652c20616e642067616d650000000000000000\n        /* \"#utility.yul\":23167:23169   */\n      0x20\n        /* \"#utility.yul\":23159:23165   */\n      dup3\n        /* \"#utility.yul\":23155:23170   */\n      add\n        /* \"#utility.yul\":23148:23199   */\n      mstore\n        /* \"#utility.yul\":22963:23206   */\n      pop\n      jump\t// out\n        /* \"#utility.yul\":23212:23578   */\n    tag_355:\n        /* \"#utility.yul\":23354:23357   */\n      0x00\n        /* \"#utility.yul\":23375:23442   */\n      tag_600\n        /* \"#utility.yul\":23439:23441   */\n      0x38\n        /* \"#utility.yul\":23434:23437   */\n      dup4\n        /* \"#utility.yul\":23375:23442   */\n      tag_329\n      jump\t// in\n    tag_600:\n        /* \"#utility.yul\":23368:23442   */\n      swap2\n      pop\n        /* \"#utility.yul\":23451:23544   */\n      tag_601\n        /* \"#utility.yul\":23540:23543   */\n      dup3\n        /* \"#utility.yul\":23451:23544   */\n      tag_354\n      jump\t// in\n    tag_601:\n        /* \"#utility.yul\":23569:23571   */\n      0x40\n        /* \"#utility.yul\":23564:23567   */\n      dup3\n        /* \"#utility.yul\":23560:23572   */\n      add\n        /* \"#utility.yul\":23553:23572   */\n      swap1\n      pop\n        /* \"#utility.yul\":23212:23578   */\n      swap2\n      swap1\n      pop\n      jump\t// out\n        /* \"#utility.yul\":23584:24003   */\n    tag_201:\n        /* \"#utility.yul\":23750:23754   */\n      0x00\n        /* \"#utility.yul\":23788:23790   */\n      0x20\n        /* \"#utility.yul\":23777:23786   */\n      dup3\n        /* \"#utility.yul\":23773:23791   */\n      add\n        /* \"#utility.yul\":23765:23791   */\n      swap1\n      pop\n        /* \"#utility.yul\":23837:23846   */\n      dup2\n        /* \"#utility.yul\":23831:23835   */\n      dup2\n        /* \"#utility.yul\":23827:23847   */\n      sub\n        /* \"#utility.yul\":23823:23824   */\n      0x00\n        /* \"#utility.yul\":23812:23821   */\n      dup4\n        /* \"#utility.yul\":23808:23825   */\n      add\n        /* \"#utility.yul\":23801:23848   */\n      mstore\n        /* \"#utility.yul\":23865:23996   */\n      tag_603\n        /* \"#utility.yul\":23991:23995   */\n      dup2\n        /* \"#utility.yul\":23865:23996   */\n      tag_355\n      jump\t// in\n    tag_603:\n        /* \"#utility.yul\":23857:23996   */\n      swap1\n      pop\n        /* \"#utility.yul\":23584:24003   */\n      swap2\n      swap1\n      pop\n      jump\t// out\n        /* \"#utility.yul\":24009:24341   */\n    tag_203:\n        /* \"#utility.yul\":24130:24134   */\n      0x00\n        /* \"#utility.yul\":24168:24170   */\n      0x40\n        /* \"#utility.yul\":24157:24166   */\n      dup3\n        /* \"#utility.yul\":24153:24171   */\n      add\n        /* \"#utility.yul\":24145:24171   */\n      swap1\n      pop\n        /* \"#utility.yul\":24181:24252   */\n      tag_605\n        /* \"#utility.yul\":24249:24250   */\n      0x00\n        /* \"#utility.yul\":24238:24247   */\n      dup4\n        /* \"#utility.yul\":24234:24251   */\n      add\n        /* \"#utility.yul\":24225:24231   */\n      dup6\n        /* \"#utility.yul\":24181:24252   */\n      tag_334\n      jump\t// in\n    tag_605:\n        /* \"#utility.yul\":24262:24334   */\n      tag_606\n        /* \"#utility.yul\":24330:24332   */\n      0x20\n        /* \"#utility.yul\":24319:24328   */\n      dup4\n        /* \"#utility.yul\":24315:24333   */\n      add\n        /* \"#utility.yul\":24306:24312   */\n      dup5\n        /* \"#utility.yul\":24262:24334   */\n      tag_334\n      jump\t// in\n    tag_606:\n        /* \"#utility.yul\":24009:24341   */\n      swap4\n      swap3\n      pop\n      pop\n      pop\n      jump\t// out\n        /* \"#utility.yul\":24347:24490   */\n    tag_356:\n        /* \"#utility.yul\":24404:24409   */\n      0x00\n        /* \"#utility.yul\":24435:24441   */\n      dup2\n        /* \"#utility.yul\":24429:24442   */\n      mload\n        /* \"#utility.yul\":24420:24442   */\n      swap1\n      pop\n        /* \"#utility.yul\":24451:24484   */\n      tag_608\n        /* \"#utility.yul\":24478:24483   */\n      dup2\n        /* \"#utility.yul\":24451:24484   */\n      tag_319\n      jump\t// in\n    tag_608:\n        /* \"#utility.yul\":24347:24490   */\n      swap3\n      swap2\n      pop\n      pop\n      jump\t// out\n        /* \"#utility.yul\":24496:24847   */\n    tag_207:\n        /* \"#utility.yul\":24566:24572   */\n      0x00\n        /* \"#utility.yul\":24615:24617   */\n      0x20\n        /* \"#utility.yul\":24603:24612   */\n      dup3\n        /* \"#utility.yul\":24594:24601   */\n      dup5\n        /* \"#utility.yul\":24590:24613   */\n      sub\n        /* \"#utility.yul\":24586:24618   */\n      slt\n        /* \"#utility.yul\":24583:24702   */\n      iszero\n      tag_610\n      jumpi\n        /* \"#utility.yul\":24621:24700   */\n      tag_611\n      tag_298\n      jump\t// in\n    tag_611:\n        /* \"#utility.yul\":24583:24702   */\n    tag_610:\n        /* \"#utility.yul\":24741:24742   */\n      0x00\n        /* \"#utility.yul\":24766:24830   */\n      tag_612\n        /* \"#utility.yul\":24822:24829   */\n      dup5\n        /* \"#utility.yul\":24813:24819   */\n      dup3\n        /* \"#utility.yul\":24802:24811   */\n      dup6\n        /* \"#utility.yul\":24798:24820   */\n      add\n        /* \"#utility.yul\":24766:24830   */\n      tag_356\n      jump\t// in\n    tag_612:\n        /* \"#utility.yul\":24756:24830   */\n      swap2\n      pop\n        /* \"#utility.yul\":24712:24840   */\n      pop\n        /* \"#utility.yul\":24496:24847   */\n      swap3\n      swap2\n      pop\n      pop\n      jump\t// out\n        /* \"#utility.yul\":24853:25031   */\n    tag_357:\n        /* \"#utility.yul\":24993:25023   */\n      0x496e73756666696369656e7420746f6b656e20616c6c6f77616e636500000000\n        /* \"#utility.yul\":24989:24990   */\n      0x00\n        /* \"#utility.yul\":24981:24987   */\n      dup3\n        /* \"#utility.yul\":24977:24991   */\n      add\n        /* \"#utility.yul\":24970:25024   */\n      mstore\n        /* \"#utility.yul\":24853:25031   */\n      pop\n      jump\t// out\n        /* \"#utility.yul\":25037:25403   */\n    tag_358:\n        /* \"#utility.yul\":25179:25182   */\n      0x00\n        /* \"#utility.yul\":25200:25267   */\n      tag_615\n        /* \"#utility.yul\":25264:25266   */\n      0x1c\n        /* \"#utility.yul\":25259:25262   */\n      dup4\n        /* \"#utility.yul\":25200:25267   */\n      tag_329\n      jump\t// in\n    tag_615:\n        /* \"#utility.yul\":25193:25267   */\n      swap2\n      pop\n        /* \"#utility.yul\":25276:25369   */\n      tag_616\n        /* \"#utility.yul\":25365:25368   */\n      dup3\n        /* \"#utility.yul\":25276:25369   */\n      tag_357\n      jump\t// in\n    tag_616:\n        /* \"#utility.yul\":25394:25396   */\n      0x20\n        /* \"#utility.yul\":25389:25392   */\n      dup3\n        /* \"#utility.yul\":25385:25397   */\n      add\n        /* \"#utility.yul\":25378:25397   */\n      swap1\n      pop\n        /* \"#utility.yul\":25037:25403   */\n      swap2\n      swap1\n      pop\n      jump\t// out\n        /* \"#utility.yul\":25409:25828   */\n    tag_210:\n        /* \"#utility.yul\":25575:25579   */\n      0x00\n        /* \"#utility.yul\":25613:25615   */\n      0x20\n        /* \"#utility.yul\":25602:25611   */\n      dup3\n        /* \"#utility.yul\":25598:25616   */\n      add\n        /* \"#utility.yul\":25590:25616   */\n      swap1\n      pop\n        /* \"#utility.yul\":25662:25671   */\n      dup2\n        /* \"#utility.yul\":25656:25660   */\n      dup2\n        /* \"#utility.yul\":25652:25672   */\n      sub\n        /* \"#utility.yul\":25648:25649   */\n      0x00\n        /* \"#utility.yul\":25637:25646   */\n      dup4\n        /* \"#utility.yul\":25633:25650   */\n      add\n        /* \"#utility.yul\":25626:25673   */\n      mstore\n        /* \"#utility.yul\":25690:25821   */\n      tag_618\n        /* \"#utility.yul\":25816:25820   */\n      dup2\n        /* \"#utility.yul\":25690:25821   */\n      tag_358\n      jump\t// in\n    tag_618:\n        /* \"#utility.yul\":25682:25821   */\n      swap1\n      pop\n        /* \"#utility.yul\":25409:25828   */\n      swap2\n      swap1\n      pop\n      jump\t// out\n        /* \"#utility.yul\":25834:26056   */\n    tag_212:\n        /* \"#utility.yul\":25927:25931   */\n      0x00\n        /* \"#utility.yul\":25965:25967   */\n      0x20\n        /* \"#utility.yul\":25954:25963   */\n      dup3\n        /* \"#utility.yul\":25950:25968   */\n      add\n        /* \"#utility.yul\":25942:25968   */\n      swap1\n      pop\n        /* \"#utility.yul\":25978:26049   */\n      tag_620\n        /* \"#utility.yul\":26046:26047   */\n      0x00\n        /* \"#utility.yul\":26035:26044   */\n      dup4\n        /* \"#utility.yul\":26031:26048   */\n      add\n        /* \"#utility.yul\":26022:26028   */\n      dup5\n        /* \"#utility.yul\":25978:26049   */\n      tag_334\n      jump\t// in\n    tag_620:\n        /* \"#utility.yul\":25834:26056   */\n      swap3\n      swap2\n      pop\n      pop\n      jump\t// out\n        /* \"#utility.yul\":26062:26238   */\n    tag_359:\n        /* \"#utility.yul\":26202:26230   */\n      0x496e73756666696369656e7420746f6b656e2062616c616e6365000000000000\n        /* \"#utility.yul\":26198:26199   */\n      0x00\n        /* \"#utility.yul\":26190:26196   */\n      dup3\n        /* \"#utility.yul\":26186:26200   */\n      add\n        /* \"#utility.yul\":26179:26231   */\n      mstore\n        /* \"#utility.yul\":26062:26238   */\n      pop\n      jump\t// out\n        /* \"#utility.yul\":26244:26610   */\n    tag_360:\n        /* \"#utility.yul\":26386:26389   */\n      0x00\n        /* \"#utility.yul\":26407:26474   */\n      tag_623\n        /* \"#utility.yul\":26471:26473   */\n      0x1a\n        /* \"#utility.yul\":26466:26469   */\n      dup4\n        /* \"#utility.yul\":26407:26474   */\n      tag_329\n      jump\t// in\n    tag_623:\n        /* \"#utility.yul\":26400:26474   */\n      swap2\n      pop\n        /* \"#utility.yul\":26483:26576   */\n      tag_624\n        /* \"#utility.yul\":26572:26575   */\n      dup3\n        /* \"#utility.yul\":26483:26576   */\n      tag_359\n      jump\t// in\n    tag_624:\n        /* \"#utility.yul\":26601:26603   */\n      0x20\n        /* \"#utility.yul\":26596:26599   */\n      dup3\n        /* \"#utility.yul\":26592:26604   */\n      add\n        /* \"#utility.yul\":26585:26604   */\n      swap1\n      pop\n        /* \"#utility.yul\":26244:26610   */\n      swap2\n      swap1\n      pop\n      jump\t// out\n        /* \"#utility.yul\":26616:27035   */\n    tag_218:\n        /* \"#utility.yul\":26782:26786   */\n      0x00\n        /* \"#utility.yul\":26820:26822   */\n      0x20\n        /* \"#utility.yul\":26809:26818   */\n      dup3\n        /* \"#utility.yul\":26805:26823   */\n      add\n        /* \"#utility.yul\":26797:26823   */\n      swap1\n      pop\n        /* \"#utility.yul\":26869:26878   */\n      dup2\n        /* \"#utility.yul\":26863:26867   */\n      dup2\n        /* \"#utility.yul\":26859:26879   */\n      sub\n        /* \"#utility.yul\":26855:26856   */\n      0x00\n        /* \"#utility.yul\":26844:26853   */\n      dup4\n        /* \"#utility.yul\":26840:26857   */\n      add\n        /* \"#utility.yul\":26833:26880   */\n      mstore\n        /* \"#utility.yul\":26897:27028   */\n      tag_626\n        /* \"#utility.yul\":27023:27027   */\n      dup2\n        /* \"#utility.yul\":26897:27028   */\n      tag_360\n      jump\t// in\n    tag_626:\n        /* \"#utility.yul\":26889:27028   */\n      swap1\n      pop\n        /* \"#utility.yul\":26616:27035   */\n      swap2\n      swap1\n      pop\n      jump\t// out\n        /* \"#utility.yul\":27041:27483   */\n    tag_220:\n        /* \"#utility.yul\":27190:27194   */\n      0x00\n        /* \"#utility.yul\":27228:27230   */\n      0x60\n        /* \"#utility.yul\":27217:27226   */\n      dup3\n        /* \"#utility.yul\":27213:27231   */\n      add\n        /* \"#utility.yul\":27205:27231   */\n      swap1\n      pop\n        /* \"#utility.yul\":27241:27312   */\n      tag_628\n        /* \"#utility.yul\":27309:27310   */\n      0x00\n        /* \"#utility.yul\":27298:27307   */\n      dup4\n        /* \"#utility.yul\":27294:27311   */\n      add\n        /* \"#utility.yul\":27285:27291   */\n      dup7\n        /* \"#utility.yul\":27241:27312   */\n      tag_334\n      jump\t// in\n    tag_628:\n        /* \"#utility.yul\":27322:27394   */\n      tag_629\n        /* \"#utility.yul\":27390:27392   */\n      0x20\n        /* \"#utility.yul\":27379:27388   */\n      dup4\n        /* \"#utility.yul\":27375:27393   */\n      add\n        /* \"#utility.yul\":27366:27372   */\n      dup6\n        /* \"#utility.yul\":27322:27394   */\n      tag_334\n      jump\t// in\n    tag_629:\n        /* \"#utility.yul\":27404:27476   */\n      tag_630\n        /* \"#utility.yul\":27472:27474   */\n      0x40\n        /* \"#utility.yul\":27461:27470   */\n      dup4\n        /* \"#utility.yul\":27457:27475   */\n      add\n        /* \"#utility.yul\":27448:27454   */\n      dup5\n        /* \"#utility.yul\":27404:27476   */\n      tag_321\n      jump\t// in\n    tag_630:\n        /* \"#utility.yul\":27041:27483   */\n      swap5\n      swap4\n      pop\n      pop\n      pop\n      pop\n      jump\t// out\n        /* \"#utility.yul\":27489:27663   */\n    tag_361:\n        /* \"#utility.yul\":27629:27655   */\n      0x4368616c6c656e676520646f6573206e6f742065786973740000000000000000\n        /* \"#utility.yul\":27625:27626   */\n      0x00\n        /* \"#utility.yul\":27617:27623   */\n      dup3\n        /* \"#utility.yul\":27613:27627   */\n      add\n        /* \"#utility.yul\":27606:27656   */\n      mstore\n        /* \"#utility.yul\":27489:27663   */\n      pop\n      jump\t// out\n        /* \"#utility.yul\":27669:28035   */\n    tag_362:\n        /* \"#utility.yul\":27811:27814   */\n      0x00\n        /* \"#utility.yul\":27832:27899   */\n      tag_633\n        /* \"#utility.yul\":27896:27898   */\n      0x18\n        /* \"#utility.yul\":27891:27894   */\n      dup4\n        /* \"#utility.yul\":27832:27899   */\n      tag_329\n      jump\t// in\n    tag_633:\n        /* \"#utility.yul\":27825:27899   */\n      swap2\n      pop\n        /* \"#utility.yul\":27908:28001   */\n      tag_634\n        /* \"#utility.yul\":27997:28000   */\n      dup3\n        /* \"#utility.yul\":27908:28001   */\n      tag_361\n      jump\t// in\n    tag_634:\n        /* \"#utility.yul\":28026:28028   */\n      0x20\n        /* \"#utility.yul\":28021:28024   */\n      dup3\n        /* \"#utility.yul\":28017:28029   */\n      add\n        /* \"#utility.yul\":28010:28029   */\n      swap1\n      pop\n        /* \"#utility.yul\":27669:28035   */\n      swap2\n      swap1\n      pop\n      jump\t// out\n        /* \"#utility.yul\":28041:28460   */\n    tag_240:\n        /* \"#utility.yul\":28207:28211   */\n      0x00\n        /* \"#utility.yul\":28245:28247   */\n      0x20\n        /* \"#utility.yul\":28234:28243   */\n      dup3\n        /* \"#utility.yul\":28230:28248   */\n      add\n        /* \"#utility.yul\":28222:28248   */\n      swap1\n      pop\n        /* \"#utility.yul\":28294:28303   */\n      dup2\n        /* \"#utility.yul\":28288:28292   */\n      dup2\n        /* \"#utility.yul\":28284:28304   */\n      sub\n        /* \"#utility.yul\":28280:28281   */\n      0x00\n        /* \"#utility.yul\":28269:28278   */\n      dup4\n        /* \"#utility.yul\":28265:28282   */\n      add\n        /* \"#utility.yul\":28258:28305   */\n      mstore\n        /* \"#utility.yul\":28322:28453   */\n      tag_636\n        /* \"#utility.yul\":28448:28452   */\n      dup2\n        /* \"#utility.yul\":28322:28453   */\n      tag_362\n      jump\t// in\n    tag_636:\n        /* \"#utility.yul\":28314:28453   */\n      swap1\n      pop\n        /* \"#utility.yul\":28041:28460   */\n      swap2\n      swap1\n      pop\n      jump\t// out\n        /* \"#utility.yul\":28466:28614   */\n    tag_363:\n        /* \"#utility.yul\":28568:28579   */\n      0x00\n        /* \"#utility.yul\":28605:28608   */\n      dup2\n        /* \"#utility.yul\":28590:28608   */\n      swap1\n      pop\n        /* \"#utility.yul\":28466:28614   */\n      swap3\n      swap2\n      pop\n      pop\n      jump\t// out\n        /* \"#utility.yul\":28620:28793   */\n    tag_364:\n        /* \"#utility.yul\":28760:28785   */\n      0x416363657373436f6e74726f6c3a206163636f756e7420000000000000000000\n        /* \"#utility.yul\":28756:28757   */\n      0x00\n        /* \"#utility.yul\":28748:28754   */\n      dup3\n        /* \"#utility.yul\":28744:28758   */\n      add\n        /* \"#utility.yul\":28737:28786   */\n      mstore\n        /* \"#utility.yul\":28620:28793   */\n      pop\n      jump\t// out\n        /* \"#utility.yul\":28799:29201   */\n    tag_365:\n        /* \"#utility.yul\":28959:28962   */\n      0x00\n        /* \"#utility.yul\":28980:29065   */\n      tag_640\n        /* \"#utility.yul\":29062:29064   */\n      0x17\n        /* \"#utility.yul\":29057:29060   */\n      dup4\n        /* \"#utility.yul\":28980:29065   */\n      tag_363\n      jump\t// in\n    tag_640:\n        /* \"#utility.yul\":28973:29065   */\n      swap2\n      pop\n        /* \"#utility.yul\":29074:29167   */\n      tag_641\n        /* \"#utility.yul\":29163:29166   */\n      dup3\n        /* \"#utility.yul\":29074:29167   */\n      tag_364\n      jump\t// in\n    tag_641:\n        /* \"#utility.yul\":29192:29194   */\n      0x17\n        /* \"#utility.yul\":29187:29190   */\n      dup3\n        /* \"#utility.yul\":29183:29195   */\n      add\n        /* \"#utility.yul\":29176:29195   */\n      swap1\n      pop\n        /* \"#utility.yul\":28799:29201   */\n      swap2\n      swap1\n      pop\n      jump\t// out\n        /* \"#utility.yul\":29207:29306   */\n    tag_366:\n        /* \"#utility.yul\":29259:29265   */\n      0x00\n        /* \"#utility.yul\":29293:29298   */\n      dup2\n        /* \"#utility.yul\":29287:29299   */\n      mload\n        /* \"#utility.yul\":29277:29299   */\n      swap1\n      pop\n        /* \"#utility.yul\":29207:29306   */\n      swap2\n      swap1\n      pop\n      jump\t// out\n        /* \"#utility.yul\":29312:29451   */\n    tag_367:\n        /* \"#utility.yul\":29401:29407   */\n      dup3\n        /* \"#utility.yul\":29396:29399   */\n      dup2\n        /* \"#utility.yul\":29391:29394   */\n      dup4\n        /* \"#utility.yul\":29385:29408   */\n      mcopy\n        /* \"#utility.yul\":29442:29443   */\n      0x00\n        /* \"#utility.yul\":29433:29439   */\n      dup4\n        /* \"#utility.yul\":29428:29431   */\n      dup4\n        /* \"#utility.yul\":29424:29440   */\n      add\n        /* \"#utility.yul\":29417:29444   */\n      mstore\n        /* \"#utility.yul\":29312:29451   */\n      pop\n      pop\n      pop\n      jump\t// out\n        /* \"#utility.yul\":29457:29847   */\n    tag_368:\n        /* \"#utility.yul\":29563:29566   */\n      0x00\n        /* \"#utility.yul\":29591:29630   */\n      tag_645\n        /* \"#utility.yul\":29624:29629   */\n      dup3\n        /* \"#utility.yul\":29591:29630   */\n      tag_366\n      jump\t// in\n    tag_645:\n        /* \"#utility.yul\":29646:29735   */\n      tag_646\n        /* \"#utility.yul\":29728:29734   */\n      dup2\n        /* \"#utility.yul\":29723:29726   */\n      dup6\n        /* \"#utility.yul\":29646:29735   */\n      tag_363\n      jump\t// in\n    tag_646:\n        /* \"#utility.yul\":29639:29735   */\n      swap4\n      pop\n        /* \"#utility.yul\":29744:29809   */\n      tag_647\n        /* \"#utility.yul\":29802:29808   */\n      dup2\n        /* \"#utility.yul\":29797:29800   */\n      dup6\n        /* \"#utility.yul\":29790:29794   */\n      0x20\n        /* \"#utility.yul\":29783:29788   */\n      dup7\n        /* \"#utility.yul\":29779:29795   */\n      add\n        /* \"#utility.yul\":29744:29809   */\n      tag_367\n      jump\t// in\n    tag_647:\n        /* \"#utility.yul\":29834:29840   */\n      dup1\n        /* \"#utility.yul\":29829:29832   */\n      dup5\n        /* \"#utility.yul\":29825:29841   */\n      add\n        /* \"#utility.yul\":29818:29841   */\n      swap2\n      pop\n        /* \"#utility.yul\":29567:29847   */\n      pop\n        /* \"#utility.yul\":29457:29847   */\n      swap3\n      swap2\n      pop\n      pop\n      jump\t// out\n        /* \"#utility.yul\":29853:30020   */\n    tag_369:\n        /* \"#utility.yul\":29993:30012   */\n      0x206973206d697373696e6720726f6c6520000000000000000000000000000000\n        /* \"#utility.yul\":29989:29990   */\n      0x00\n        /* \"#utility.yul\":29981:29987   */\n      dup3\n        /* \"#utility.yul\":29977:29991   */\n      add\n        /* \"#utility.yul\":29970:30013   */\n      mstore\n        /* \"#utility.yul\":29853:30020   */\n      pop\n      jump\t// out\n        /* \"#utility.yul\":30026:30428   */\n    tag_370:\n        /* \"#utility.yul\":30186:30189   */\n      0x00\n        /* \"#utility.yul\":30207:30292   */\n      tag_650\n        /* \"#utility.yul\":30289:30291   */\n      0x11\n        /* \"#utility.yul\":30284:30287   */\n      dup4\n        /* \"#utility.yul\":30207:30292   */\n      tag_363\n      jump\t// in\n    tag_650:\n        /* \"#utility.yul\":30200:30292   */\n      swap2\n      pop\n        /* \"#utility.yul\":30301:30394   */\n      tag_651\n        /* \"#utility.yul\":30390:30393   */\n      dup3\n        /* \"#utility.yul\":30301:30394   */\n      tag_369\n      jump\t// in\n    tag_651:\n        /* \"#utility.yul\":30419:30421   */\n      0x11\n        /* \"#utility.yul\":30414:30417   */\n      dup3\n        /* \"#utility.yul\":30410:30422   */\n      add\n        /* \"#utility.yul\":30403:30422   */\n      swap1\n      pop\n        /* \"#utility.yul\":30026:30428   */\n      swap2\n      swap1\n      pop\n      jump\t// out\n        /* \"#utility.yul\":30434:31401   */\n    tag_265:\n        /* \"#utility.yul\":30816:30819   */\n      0x00\n        /* \"#utility.yul\":30838:30986   */\n      tag_653\n        /* \"#utility.yul\":30982:30985   */\n      dup3\n        /* \"#utility.yul\":30838:30986   */\n      tag_365\n      jump\t// in\n    tag_653:\n        /* \"#utility.yul\":30831:30986   */\n      swap2\n      pop\n        /* \"#utility.yul\":31003:31098   */\n      tag_654\n        /* \"#utility.yul\":31094:31097   */\n      dup3\n        /* \"#utility.yul\":31085:31091   */\n      dup6\n        /* \"#utility.yul\":31003:31098   */\n      tag_368\n      jump\t// in\n    tag_654:\n        /* \"#utility.yul\":30996:31098   */\n      swap2\n      pop\n        /* \"#utility.yul\":31115:31263   */\n      tag_655\n        /* \"#utility.yul\":31259:31262   */\n      dup3\n        /* \"#utility.yul\":31115:31263   */\n      tag_370\n      jump\t// in\n    tag_655:\n        /* \"#utility.yul\":31108:31263   */\n      swap2\n      pop\n        /* \"#utility.yul\":31280:31375   */\n      tag_656\n        /* \"#utility.yul\":31371:31374   */\n      dup3\n        /* \"#utility.yul\":31362:31368   */\n      dup5\n        /* \"#utility.yul\":31280:31375   */\n      tag_368\n      jump\t// in\n    tag_656:\n        /* \"#utility.yul\":31273:31375   */\n      swap2\n      pop\n        /* \"#utility.yul\":31392:31395   */\n      dup2\n        /* \"#utility.yul\":31385:31395   */\n      swap1\n      pop\n        /* \"#utility.yul\":30434:31401   */\n      swap4\n      swap3\n      pop\n      pop\n      pop\n      jump\t// out\n        /* \"#utility.yul\":31407:31509   */\n    tag_371:\n        /* \"#utility.yul\":31448:31454   */\n      0x00\n        /* \"#utility.yul\":31499:31501   */\n      0x1f\n        /* \"#utility.yul\":31495:31502   */\n      not\n        /* \"#utility.yul\":31490:31492   */\n      0x1f\n        /* \"#utility.yul\":31483:31488   */\n      dup4\n        /* \"#utility.yul\":31479:31493   */\n      add\n        /* \"#utility.yul\":31475:31503   */\n      and\n        /* \"#utility.yul\":31465:31503   */\n      swap1\n      pop\n        /* \"#utility.yul\":31407:31509   */\n      swap2\n      swap1\n      pop\n      jump\t// out\n        /* \"#utility.yul\":31515:31892   */\n    tag_372:\n        /* \"#utility.yul\":31603:31606   */\n      0x00\n        /* \"#utility.yul\":31631:31670   */\n      tag_659\n        /* \"#utility.yul\":31664:31669   */\n      dup3\n        /* \"#utility.yul\":31631:31670   */\n      tag_366\n      jump\t// in\n    tag_659:\n        /* \"#utility.yul\":31686:31757   */\n      tag_660\n        /* \"#utility.yul\":31750:31756   */\n      dup2\n        /* \"#utility.yul\":31745:31748   */\n      dup6\n        /* \"#utility.yul\":31686:31757   */\n      tag_329\n      jump\t// in\n    tag_660:\n        /* \"#utility.yul\":31679:31757   */\n      swap4\n      pop\n        /* \"#utility.yul\":31766:31831   */\n      tag_661\n        /* \"#utility.yul\":31824:31830   */\n      dup2\n        /* \"#utility.yul\":31819:31822   */\n      dup6\n        /* \"#utility.yul\":31812:31816   */\n      0x20\n        /* \"#utility.yul\":31805:31810   */\n      dup7\n        /* \"#utility.yul\":31801:31817   */\n      add\n        /* \"#utility.yul\":31766:31831   */\n      tag_367\n      jump\t// in\n    tag_661:\n        /* \"#utility.yul\":31856:31885   */\n      tag_662\n        /* \"#utility.yul\":31878:31884   */\n      dup2\n        /* \"#utility.yul\":31856:31885   */\n      tag_371\n      jump\t// in\n    tag_662:\n        /* \"#utility.yul\":31851:31854   */\n      dup5\n        /* \"#utility.yul\":31847:31886   */\n      add\n        /* \"#utility.yul\":31840:31886   */\n      swap2\n      pop\n        /* \"#utility.yul\":31607:31892   */\n      pop\n        /* \"#utility.yul\":31515:31892   */\n      swap3\n      swap2\n      pop\n      pop\n      jump\t// out\n        /* \"#utility.yul\":31898:32211   */\n    tag_267:\n        /* \"#utility.yul\":32011:32015   */\n      0x00\n        /* \"#utility.yul\":32049:32051   */\n      0x20\n        /* \"#utility.yul\":32038:32047   */\n      dup3\n        /* \"#utility.yul\":32034:32052   */\n      add\n        /* \"#utility.yul\":32026:32052   */\n      swap1\n      pop\n        /* \"#utility.yul\":32098:32107   */\n      dup2\n        /* \"#utility.yul\":32092:32096   */\n      dup2\n        /* \"#utility.yul\":32088:32108   */\n      sub\n        /* \"#utility.yul\":32084:32085   */\n      0x00\n        /* \"#utility.yul\":32073:32082   */\n      dup4\n        /* \"#utility.yul\":32069:32086   */\n      add\n        /* \"#utility.yul\":32062:32109   */\n      mstore\n        /* \"#utility.yul\":32126:32204   */\n      tag_664\n        /* \"#utility.yul\":32199:32203   */\n      dup2\n        /* \"#utility.yul\":32190:32196   */\n      dup5\n        /* \"#utility.yul\":32126:32204   */\n      tag_372\n      jump\t// in\n    tag_664:\n        /* \"#utility.yul\":32118:32204   */\n      swap1\n      pop\n        /* \"#utility.yul\":31898:32211   */\n      swap3\n      swap2\n      pop\n      pop\n      jump\t// out\n        /* \"#utility.yul\":32217:32397   */\n    tag_373:\n        /* \"#utility.yul\":32265:32342   */\n      0x4e487b7100000000000000000000000000000000000000000000000000000000\n        /* \"#utility.yul\":32262:32263   */\n      0x00\n        /* \"#utility.yul\":32255:32343   */\n      mstore\n        /* \"#utility.yul\":32362:32366   */\n      0x11\n        /* \"#utility.yul\":32359:32360   */\n      0x04\n        /* \"#utility.yul\":32352:32367   */\n      mstore\n        /* \"#utility.yul\":32386:32390   */\n      0x24\n        /* \"#utility.yul\":32383:32384   */\n      0x00\n        /* \"#utility.yul\":32376:32391   */\n      revert\n        /* \"#utility.yul\":32403:32813   */\n    tag_272:\n        /* \"#utility.yul\":32443:32450   */\n      0x00\n        /* \"#utility.yul\":32466:32486   */\n      tag_667\n        /* \"#utility.yul\":32484:32485   */\n      dup3\n        /* \"#utility.yul\":32466:32486   */\n      tag_318\n      jump\t// in\n    tag_667:\n        /* \"#utility.yul\":32461:32486   */\n      swap2\n      pop\n        /* \"#utility.yul\":32500:32520   */\n      tag_668\n        /* \"#utility.yul\":32518:32519   */\n      dup4\n        /* \"#utility.yul\":32500:32520   */\n      tag_318\n      jump\t// in\n    tag_668:\n        /* \"#utility.yul\":32495:32520   */\n      swap3\n      pop\n        /* \"#utility.yul\":32555:32556   */\n      dup3\n        /* \"#utility.yul\":32552:32553   */\n      dup3\n        /* \"#utility.yul\":32548:32557   */\n      mul\n        /* \"#utility.yul\":32577:32607   */\n      tag_669\n        /* \"#utility.yul\":32595:32606   */\n      dup2\n        /* \"#utility.yul\":32577:32607   */\n      tag_318\n      jump\t// in\n    tag_669:\n        /* \"#utility.yul\":32566:32607   */\n      swap2\n      pop\n        /* \"#utility.yul\":32756:32757   */\n      dup3\n        /* \"#utility.yul\":32747:32754   */\n      dup3\n        /* \"#utility.yul\":32743:32758   */\n      div\n        /* \"#utility.yul\":32740:32741   */\n      dup5\n        /* \"#utility.yul\":32737:32759   */\n      eq\n        /* \"#utility.yul\":32717:32718   */\n      dup4\n        /* \"#utility.yul\":32710:32719   */\n      iszero\n        /* \"#utility.yul\":32690:32773   */\n      or\n        /* \"#utility.yul\":32667:32806   */\n      tag_670\n      jumpi\n        /* \"#utility.yul\":32786:32804   */\n      tag_671\n      tag_373\n      jump\t// in\n    tag_671:\n        /* \"#utility.yul\":32667:32806   */\n    tag_670:\n        /* \"#utility.yul\":32451:32813   */\n      pop\n        /* \"#utility.yul\":32403:32813   */\n      swap3\n      swap2\n      pop\n      pop\n      jump\t// out\n        /* \"#utility.yul\":32819:33010   */\n    tag_274:\n        /* \"#utility.yul\":32859:32862   */\n      0x00\n        /* \"#utility.yul\":32878:32898   */\n      tag_673\n        /* \"#utility.yul\":32896:32897   */\n      dup3\n        /* \"#utility.yul\":32878:32898   */\n      tag_318\n      jump\t// in\n    tag_673:\n        /* \"#utility.yul\":32873:32898   */\n      swap2\n      pop\n        /* \"#utility.yul\":32912:32932   */\n      tag_674\n        /* \"#utility.yul\":32930:32931   */\n      dup4\n        /* \"#utility.yul\":32912:32932   */\n      tag_318\n      jump\t// in\n    tag_674:\n        /* \"#utility.yul\":32907:32932   */\n      swap3\n      pop\n        /* \"#utility.yul\":32955:32956   */\n      dup3\n        /* \"#utility.yul\":32952:32953   */\n      dup3\n        /* \"#utility.yul\":32948:32957   */\n      add\n        /* \"#utility.yul\":32941:32957   */\n      swap1\n      pop\n        /* \"#utility.yul\":32976:32979   */\n      dup1\n        /* \"#utility.yul\":32973:32974   */\n      dup3\n        /* \"#utility.yul\":32970:32980   */\n      gt\n        /* \"#utility.yul\":32967:33003   */\n      iszero\n      tag_675\n      jumpi\n        /* \"#utility.yul\":32983:33001   */\n      tag_676\n      tag_373\n      jump\t// in\n    tag_676:\n        /* \"#utility.yul\":32967:33003   */\n    tag_675:\n        /* \"#utility.yul\":32819:33010   */\n      swap3\n      swap2\n      pop\n      pop\n      jump\t// out\n        /* \"#utility.yul\":33016:33196   */\n    tag_277:\n        /* \"#utility.yul\":33064:33141   */\n      0x4e487b7100000000000000000000000000000000000000000000000000000000\n        /* \"#utility.yul\":33061:33062   */\n      0x00\n        /* \"#utility.yul\":33054:33142   */\n      mstore\n        /* \"#utility.yul\":33161:33165   */\n      0x41\n        /* \"#utility.yul\":33158:33159   */\n      0x04\n        /* \"#utility.yul\":33151:33166   */\n      mstore\n        /* \"#utility.yul\":33185:33189   */\n      0x24\n        /* \"#utility.yul\":33182:33183   */\n      0x00\n        /* \"#utility.yul\":33175:33190   */\n      revert\n        /* \"#utility.yul\":33202:33373   */\n    tag_293:\n        /* \"#utility.yul\":33241:33244   */\n      0x00\n        /* \"#utility.yul\":33264:33288   */\n      tag_679\n        /* \"#utility.yul\":33282:33287   */\n      dup3\n        /* \"#utility.yul\":33264:33288   */\n      tag_318\n      jump\t// in\n    tag_679:\n        /* \"#utility.yul\":33255:33288   */\n      swap2\n      pop\n        /* \"#utility.yul\":33310:33314   */\n      0x00\n        /* \"#utility.yul\":33303:33308   */\n      dup3\n        /* \"#utility.yul\":33300:33315   */\n      sub\n        /* \"#utility.yul\":33297:33338   */\n      tag_680\n      jumpi\n        /* \"#utility.yul\":33318:33336   */\n      tag_681\n      tag_373\n      jump\t// in\n    tag_681:\n        /* \"#utility.yul\":33297:33338   */\n    tag_680:\n        /* \"#utility.yul\":33365:33366   */\n      0x01\n        /* \"#utility.yul\":33358:33363   */\n      dup3\n        /* \"#utility.yul\":33354:33367   */\n      sub\n        /* \"#utility.yul\":33347:33367   */\n      swap1\n      pop\n        /* \"#utility.yul\":33202:33373   */\n      swap2\n      swap1\n      pop\n      jump\t// out\n        /* \"#utility.yul\":33379:33561   */\n    tag_374:\n        /* \"#utility.yul\":33519:33553   */\n      0x537472696e67733a20686578206c656e67746820696e73756666696369656e74\n        /* \"#utility.yul\":33515:33516   */\n      0x00\n        /* \"#utility.yul\":33507:33513   */\n      dup3\n        /* \"#utility.yul\":33503:33517   */\n      add\n        /* \"#utility.yul\":33496:33554   */\n      mstore\n        /* \"#utility.yul\":33379:33561   */\n      pop\n      jump\t// out\n        /* \"#utility.yul\":33567:33933   */\n    tag_375:\n        /* \"#utility.yul\":33709:33712   */\n      0x00\n        /* \"#utility.yul\":33730:33797   */\n      tag_684\n        /* \"#utility.yul\":33794:33796   */\n      0x20\n        /* \"#utility.yul\":33789:33792   */\n      dup4\n        /* \"#utility.yul\":33730:33797   */\n      tag_329\n      jump\t// in\n    tag_684:\n        /* \"#utility.yul\":33723:33797   */\n      swap2\n      pop\n        /* \"#utility.yul\":33806:33899   */\n      tag_685\n        /* \"#utility.yul\":33895:33898   */\n      dup3\n        /* \"#utility.yul\":33806:33899   */\n      tag_374\n      jump\t// in\n    tag_685:\n        /* \"#utility.yul\":33924:33926   */\n      0x20\n        /* \"#utility.yul\":33919:33922   */\n      dup3\n        /* \"#utility.yul\":33915:33927   */\n      add\n        /* \"#utility.yul\":33908:33927   */\n      swap1\n      pop\n        /* \"#utility.yul\":33567:33933   */\n      swap2\n      swap1\n      pop\n      jump\t// out\n        /* \"#utility.yul\":33939:34358   */\n    tag_296:\n        /* \"#utility.yul\":34105:34109   */\n      0x00\n        /* \"#utility.yul\":34143:34145   */\n      0x20\n        /* \"#utility.yul\":34132:34141   */\n      dup3\n        /* \"#utility.yul\":34128:34146   */\n      add\n        /* \"#utility.yul\":34120:34146   */\n      swap1\n      pop\n        /* \"#utility.yul\":34192:34201   */\n      dup2\n        /* \"#utility.yul\":34186:34190   */\n      dup2\n        /* \"#utility.yul\":34182:34202   */\n      sub\n        /* \"#utility.yul\":34178:34179   */\n      0x00\n        /* \"#utility.yul\":34167:34176   */\n      dup4\n        /* \"#utility.yul\":34163:34180   */\n      add\n        /* \"#utility.yul\":34156:34203   */\n      mstore\n        /* \"#utility.yul\":34220:34351   */\n      tag_687\n        /* \"#utility.yul\":34346:34350   */\n      dup2\n        /* \"#utility.yul\":34220:34351   */\n      tag_375\n      jump\t// in\n    tag_687:\n        /* \"#utility.yul\":34212:34351   */\n      swap1\n      pop\n        /* \"#utility.yul\":33939:34358   */\n      swap2\n      swap1\n      pop\n      jump\t// out\n\n    auxdata: 0xa26469706673582212206c62edbec63cb36c372fded08dff2e893d4019b28437584487f54055d0b541f064736f6c634300081a0033\n}\n",
				"bytecode": {
					"linkReferences": {},
					"object": "608060405234801561000f575f80fd5b50604051612c14380380612c14833981810160405281019061003191906102bc565b8160015f6101000a81548173ffffffffffffffffffffffffffffffffffffffff021916908373ffffffffffffffffffffffffffffffffffffffff1602179055508060025f6101000a81548173ffffffffffffffffffffffffffffffffffffffff021916908373ffffffffffffffffffffffffffffffffffffffff1602179055506100c35f801b336100fa60201b60201c565b6100f37fa49807205ce4d355092ef5a8a18f56e8913cf4a201fbe287825b095693c21775336100fa60201b60201c565b50506102fa565b61010a828261010e60201b60201c565b5050565b61011e82826101f460201b60201c565b6101f05760015f808481526020019081526020015f205f015f8373ffffffffffffffffffffffffffffffffffffffff1673ffffffffffffffffffffffffffffffffffffffff1681526020019081526020015f205f6101000a81548160ff02191690831515021790555061019561025760201b60201c565b73ffffffffffffffffffffffffffffffffffffffff168173ffffffffffffffffffffffffffffffffffffffff16837f2f8788117e7eff1d82e926ec794901d17c78024a50270940304540a733656f0d60405160405180910390a45b5050565b5f805f8481526020019081526020015f205f015f8373ffffffffffffffffffffffffffffffffffffffff1673ffffffffffffffffffffffffffffffffffffffff1681526020019081526020015f205f9054906101000a900460ff16905092915050565b5f33905090565b5f80fd5b5f73ffffffffffffffffffffffffffffffffffffffff82169050919050565b5f61028b82610262565b9050919050565b61029b81610281565b81146102a5575f80fd5b50565b5f815190506102b681610292565b92915050565b5f80604083850312156102d2576102d161025e565b5b5f6102df858286016102a8565b92505060206102f0858286016102a8565b9150509250929050565b61290d806103075f395ff3fe608060405234801561000f575f80fd5b5060043610610140575f3560e01c80639a19c7b0116100b6578063c634b78e1161007a578063c634b78e1461039d578063ca1c996f146103b9578063cbc7854e146103d5578063d547741f146103f1578063dd0c80821461040d578063dd7d2b9f1461042b57610140565b80639a19c7b0146102e7578063a217fddf14610303578063ae99aa3c14610321578063aea0873414610351578063bb10ab0f1461036d57610140565b806336568abe1161010857806336568abe14610212578063406a378a1461022e57806375b238fc1461024a5780638525ea16146102685780638afac6701461028457806391d14854146102b757610140565b806301ffc9a7146101445780631b72fa3a14610174578063248a9ca3146101925780632f2ff15d146101c2578063355b9d3f146101de575b5f80fd5b61015e600480360381019061015991906118dc565b610447565b60405161016b9190611921565b60405180910390f35b61017c6104c0565b60405161018991906119b4565b60405180910390f35b6101ac60048036038101906101a79190611a00565b6104e5565b6040516101b99190611a3a565b60405180910390f35b6101dc60048036038101906101d79190611a8e565b610501565b005b6101f860048036038101906101f39190611aff565b610522565b604051610209959493929190611b5e565b60405180910390f35b61022c60048036038101906102279190611a8e565b610576565b005b61024860048036038101906102439190611c65565b6105f9565b005b6102526107e5565b60405161025f9190611a3a565b60405180910390f35b610282600480360381019061027d9190611ce3565b610809565b005b61029e60048036038101906102999190611aff565b6109c0565b6040516102ae9493929190611d47565b60405180910390f35b6102d160048036038101906102cc9190611a8e565b610a0e565b6040516102de9190611921565b60405180910390f35b61030160048036038101906102fc9190611d8a565b610a71565b005b61030b610aab565b6040516103189190611a3a565b60405180910390f35b61033b60048036038101906103369190611db5565b610ab1565b6040516103489190611e09565b60405180910390f35b61036b60048036038101906103669190611e22565b610b3a565b005b61038760048036038101906103829190611db5565b610cac565b6040516103949190611e72565b60405180910390f35b6103b760048036038101906103b29190611d8a565b610cc6565b005b6103d360048036038101906103ce9190611ce3565b610d00565b005b6103ef60048036038101906103ea9190611e8b565b6110ff565b005b61040b60048036038101906104069190611a8e565b6111ae565b005b6104156111cf565b60405161042291906119b4565b60405180910390f35b61044560048036038101906104409190611ce3565b6111f4565b005b5f7f7965db0b000000000000000000000000000000000000000000000000000000007bffffffffffffffffffffffffffffffffffffffffffffffffffffffff1916827bffffffffffffffffffffffffffffffffffffffffffffffffffffffff191614806104b957506104b88261134f565b5b9050919050565b60025f9054906101000a900473ffffffffffffffffffffffffffffffffffffffff1681565b5f805f8381526020019081526020015f20600101549050919050565b61050a826104e5565b610513816113b8565b61051d83836113cc565b505050565b6005602052825f5260405f20602052815f5260405f20602052805f5260405f205f925092505050805f015490806001015490806002015490806003015490806004015f9054906101000a900460ff16905085565b61057e6114a6565b73ffffffffffffffffffffffffffffffffffffffff168173ffffffffffffffffffffffffffffffffffffffff16146105eb576040517f08c379a00000000000000000000000000000000000000000000000000000000081526004016105e290611f49565b60405180910390fd5b6105f582826114ad565b5050565b7fa49807205ce4d355092ef5a8a18f56e8913cf4a201fbe287825b095693c21775610623816113b8565b82829050858590501461066b576040517f08c379a000000000000000000000000000000000000000000000000000000000815260040161066290611fd7565b60405180910390fd5b5f5b858590508110156107a05760025f9054906101000a900473ffffffffffffffffffffffffffffffffffffffff1673ffffffffffffffffffffffffffffffffffffffff1663a9059cbb8787848181106106c8576106c7611ff5565b5b90506020020160208101906106dd9190611d8a565b8686858181106106f0576106ef611ff5565b5b905060200201356040518363ffffffff1660e01b8152600401610714929190612031565b6020604051808303815f875af1158015610730573d5f803e3d5ffd5b505050506040513d601f19601f820116820180604052508101906107549190612082565b610793576040517f08c379a000000000000000000000000000000000000000000000000000000000815260040161078a906120f7565b60405180910390fd5b808060010191505061066d565b507ffa3b7284ecb3a03e8f238b69b61f5645294c15019ea509bd4aaee604d60fdc34858585856040516107d69493929190612249565b60405180910390a15050505050565b7fa49807205ce4d355092ef5a8a18f56e8913cf4a201fbe287825b095693c2177581565b7fa49807205ce4d355092ef5a8a18f56e8913cf4a201fbe287825b095693c21775610833816113b8565b60045f8681526020019081526020015f205f8581526020019081526020015f205f8481526020019081526020015f206003015f9054906101000a900460ff1661090c5760405180608001604052808581526020018481526020015f81526020016001151581525060045f8781526020019081526020015f205f8681526020019081526020015f205f8581526020019081526020015f205f820151815f015560208201518160010155604082015181600201556060820151816003015f6101000a81548160ff02191690831515021790555090505061097f565b60045f8681526020019081526020015f205f8581526020019081526020015f205f8481526020019081526020015f206002015482111561097e578160045f8781526020019081526020015f205f8681526020019081526020015f205f8581526020019081526020015f20600201819055505b5b8284867fa8f9cf476e5bcc627f5ed22b5ba54bd7fff333cd851bc754d924fe3eb28752fb856040516109b19190611e72565b60405180910390a45050505050565b6004602052825f5260405f20602052815f5260405f20602052805f5260405f205f925092505050805f015490806001015490806002015490806003015f9054906101000a900460ff16905084565b5f805f8481526020019081526020015f205f015f8373ffffffffffffffffffffffffffffffffffffffff1673ffffffffffffffffffffffffffffffffffffffff1681526020019081526020015f205f9054906101000a900460ff16905092915050565b5f801b610a7d816113b8565b610aa77fa49807205ce4d355092ef5a8a18f56e8913cf4a201fbe287825b095693c21775836111ae565b5050565b5f801b81565b610ab961186d565b5f60035f8481526020019081526020015f205f015411610b0e576040517f08c379a0000000000000000000000000000000000000000000000000000000008152600401610b05906122cc565b60405180910390fd5b60035f8381526020019081526020015f206040518060200160405290815f820154815250509050919050565b7fa49807205ce4d355092ef5a8a18f56e8913cf4a201fbe287825b095693c21775610b64816113b8565b5f60035f8681526020019081526020015f205f015414610bb9576040517f08c379a0000000000000000000000000000000000000000000000000000000008152600401610bb090612334565b60405180910390fd5b60405180602001604052808581525060035f8681526020019081526020015f205f820151815f015590505060015f9054906101000a900473ffffffffffffffffffffffffffffffffffffffff1673ffffffffffffffffffffffffffffffffffffffff166340c10f1984846040518363ffffffff1660e01b8152600401610c40929190612031565b5f604051808303815f87803b158015610c57575f80fd5b505af1158015610c69573d5f803e3d5ffd5b505050507f5a92c2530f207992057b9c3e544108ffce3beda4a63719f316967c49bf6159d28483604051610c9e929190612352565b60405180910390a150505050565b6003602052805f5260405f205f91509050805f0154905081565b5f801b610cd2816113b8565b610cfc7fa49807205ce4d355092ef5a8a18f56e8913cf4a201fbe287825b095693c2177583610501565b5050565b60055f8581526020019081526020015f205f8481526020019081526020015f205f8381526020019081526020015f206004015f9054906101000a900460ff1615610d7f576040517f08c379a0000000000000000000000000000000000000000000000000000000008152600401610d76906123e9565b60405180910390fd5b5f60015f9054906101000a900473ffffffffffffffffffffffffffffffffffffffff1673ffffffffffffffffffffffffffffffffffffffff1663dd62ed3e33306040518363ffffffff1660e01b8152600401610ddc929190612407565b602060405180830381865afa158015610df7573d5f803e3d5ffd5b505050506040513d601f19601f82011682018060405250810190610e1b9190612442565b905081811015610e60576040517f08c379a0000000000000000000000000000000000000000000000000000000008152600401610e57906124b7565b60405180910390fd5b5f60015f9054906101000a900473ffffffffffffffffffffffffffffffffffffffff1673ffffffffffffffffffffffffffffffffffffffff166370a08231336040518263ffffffff1660e01b8152600401610ebb91906124d5565b602060405180830381865afa158015610ed6573d5f803e3d5ffd5b505050506040513d601f19601f82011682018060405250810190610efa9190612442565b905082811015610f3f576040517f08c379a0000000000000000000000000000000000000000000000000000000008152600401610f3690612538565b60405180910390fd5b60015f9054906101000a900473ffffffffffffffffffffffffffffffffffffffff1673ffffffffffffffffffffffffffffffffffffffff166323b872dd3330866040518463ffffffff1660e01b8152600401610f9d93929190612556565b6020604051808303815f875af1158015610fb9573d5f803e3d5ffd5b505050506040513d601f19601f82011682018060405250810190610fdd9190612082565b61101c576040517f08c379a0000000000000000000000000000000000000000000000000000000008152600401611013906120f7565b60405180910390fd5b6040518060a001604052808681526020018581526020018481526020015f81526020016001151581525060055f8881526020019081526020015f205f8781526020019081526020015f205f8681526020019081526020015f205f820151815f01556020820151816001015560408201518160020155606082015181600301556080820151816004015f6101000a81548160ff0219169083151502179055509050508385877f7bbca5efeebbed029b1684066d1a6e0ade8efe8c578ab0890d4b223e6ec5e50e866040516110ef9190611e72565b60405180910390a4505050505050565b7fa49807205ce4d355092ef5a8a18f56e8913cf4a201fbe287825b095693c21775611129816113b8565b8260015f6101000a81548173ffffffffffffffffffffffffffffffffffffffff021916908373ffffffffffffffffffffffffffffffffffffffff1602179055508160025f6101000a81548173ffffffffffffffffffffffffffffffffffffffff021916908373ffffffffffffffffffffffffffffffffffffffff160217905550505050565b6111b7826104e5565b6111c0816113b8565b6111ca83836114ad565b505050565b60015f9054906101000a900473ffffffffffffffffffffffffffffffffffffffff1681565b7fa49807205ce4d355092ef5a8a18f56e8913cf4a201fbe287825b095693c2177561121e816113b8565b60055f8681526020019081526020015f205f8581526020019081526020015f205f8481526020019081526020015f206004015f9054906101000a900460ff1661129c576040517f08c379a0000000000000000000000000000000000000000000000000000000008152600401611293906125d5565b60405180910390fd5b60055f8681526020019081526020015f205f8581526020019081526020015f205f8481526020019081526020015f206003015482111561130e578160055f8781526020019081526020015f205f8681526020019081526020015f205f8581526020019081526020015f20600301819055505b8284867f2bbc9ad1871f4b99168aa3febe254b9069558ff96ed7746d1677869afa38243f856040516113409190611e72565b60405180910390a45050505050565b5f7f01ffc9a7000000000000000000000000000000000000000000000000000000007bffffffffffffffffffffffffffffffffffffffffffffffffffffffff1916827bffffffffffffffffffffffffffffffffffffffffffffffffffffffff1916149050919050565b6113c9816113c46114a6565b611587565b50565b6113d68282610a0e565b6114a25760015f808481526020019081526020015f205f015f8373ffffffffffffffffffffffffffffffffffffffff1673ffffffffffffffffffffffffffffffffffffffff1681526020019081526020015f205f6101000a81548160ff0219169083151502179055506114476114a6565b73ffffffffffffffffffffffffffffffffffffffff168173ffffffffffffffffffffffffffffffffffffffff16837f2f8788117e7eff1d82e926ec794901d17c78024a50270940304540a733656f0d60405160405180910390a45b5050565b5f33905090565b6114b78282610a0e565b15611583575f805f8481526020019081526020015f205f015f8373ffffffffffffffffffffffffffffffffffffffff1673ffffffffffffffffffffffffffffffffffffffff1681526020019081526020015f205f6101000a81548160ff0219169083151502179055506115286114a6565b73ffffffffffffffffffffffffffffffffffffffff168173ffffffffffffffffffffffffffffffffffffffff16837ff6391f5c32d9c69d2a47ea670b442974b53935d1edc7fd64eb21e047a839171b60405160405180910390a45b5050565b6115918282610a0e565b6116075761159e8161160b565b6115ab835f1c6020611638565b6040516020016115bc9291906126d9565b6040516020818303038152906040526040517f08c379a00000000000000000000000000000000000000000000000000000000081526004016115fe919061275a565b60405180910390fd5b5050565b60606116318273ffffffffffffffffffffffffffffffffffffffff16601460ff16611638565b9050919050565b60605f600283600261164a91906127a7565b61165491906127e8565b67ffffffffffffffff81111561166d5761166c61281b565b5b6040519080825280601f01601f19166020018201604052801561169f5781602001600182028036833780820191505090505b5090507f3000000000000000000000000000000000000000000000000000000000000000815f815181106116d6576116d5611ff5565b5b60200101907effffffffffffffffffffffffffffffffffffffffffffffffffffffffffffff191690815f1a9053507f78000000000000000000000000000000000000000000000000000000000000008160018151811061173957611738611ff5565b5b60200101907effffffffffffffffffffffffffffffffffffffffffffffffffffffffffffff191690815f1a9053505f600184600261177791906127a7565b61178191906127e8565b90505b6001811115611820577f3031323334353637383961626364656600000000000000000000000000000000600f8616601081106117c3576117c2611ff5565b5b1a60f81b8282815181106117da576117d9611ff5565b5b60200101907effffffffffffffffffffffffffffffffffffffffffffffffffffffffffffff191690815f1a905350600485901c94508061181990612848565b9050611784565b505f8414611863576040517f08c379a000000000000000000000000000000000000000000000000000000000815260040161185a906128b9565b60405180910390fd5b8091505092915050565b60405180602001604052805f81525090565b5f80fd5b5f80fd5b5f7fffffffff0000000000000000000000000000000000000000000000000000000082169050919050565b6118bb81611887565b81146118c5575f80fd5b50565b5f813590506118d6816118b2565b92915050565b5f602082840312156118f1576118f061187f565b5b5f6118fe848285016118c8565b91505092915050565b5f8115159050919050565b61191b81611907565b82525050565b5f6020820190506119345f830184611912565b92915050565b5f73ffffffffffffffffffffffffffffffffffffffff82169050919050565b5f819050919050565b5f61197c6119776119728461193a565b611959565b61193a565b9050919050565b5f61198d82611962565b9050919050565b5f61199e82611983565b9050919050565b6119ae81611994565b82525050565b5f6020820190506119c75f8301846119a5565b92915050565b5f819050919050565b6119df816119cd565b81146119e9575f80fd5b50565b5f813590506119fa816119d6565b92915050565b5f60208284031215611a1557611a1461187f565b5b5f611a22848285016119ec565b91505092915050565b611a34816119cd565b82525050565b5f602082019050611a4d5f830184611a2b565b92915050565b5f611a5d8261193a565b9050919050565b611a6d81611a53565b8114611a77575f80fd5b50565b5f81359050611a8881611a64565b92915050565b5f8060408385031215611aa457611aa361187f565b5b5f611ab1858286016119ec565b9250506020611ac285828601611a7a565b9150509250929050565b5f819050919050565b611ade81611acc565b8114611ae8575f80fd5b50565b5f81359050611af981611ad5565b92915050565b5f805f60608486031215611b1657611b1561187f565b5b5f611b2386828701611aeb565b9350506020611b3486828701611aeb565b9250506040611b4586828701611aeb565b9150509250925092565b611b5881611acc565b82525050565b5f60a082019050611b715f830188611b4f565b611b7e6020830187611b4f565b611b8b6040830186611b4f565b611b986060830185611b4f565b611ba56080830184611912565b9695505050505050565b5f80fd5b5f80fd5b5f80fd5b5f8083601f840112611bd057611bcf611baf565b5b8235905067ffffffffffffffff811115611bed57611bec611bb3565b5b602083019150836020820283011115611c0957611c08611bb7565b5b9250929050565b5f8083601f840112611c2557611c24611baf565b5b8235905067ffffffffffffffff811115611c4257611c41611bb3565b5b602083019150836020820283011115611c5e57611c5d611bb7565b5b9250929050565b5f805f8060408587031215611c7d57611c7c61187f565b5b5f85013567ffffffffffffffff811115611c9a57611c99611883565b5b611ca687828801611bbb565b9450945050602085013567ffffffffffffffff811115611cc957611cc8611883565b5b611cd587828801611c10565b925092505092959194509250565b5f805f8060808587031215611cfb57611cfa61187f565b5b5f611d0887828801611aeb565b9450506020611d1987828801611aeb565b9350506040611d2a87828801611aeb565b9250506060611d3b87828801611aeb565b91505092959194509250565b5f608082019050611d5a5f830187611b4f565b611d676020830186611b4f565b611d746040830185611b4f565b611d816060830184611912565b95945050505050565b5f60208284031215611d9f57611d9e61187f565b5b5f611dac84828501611a7a565b91505092915050565b5f60208284031215611dca57611dc961187f565b5b5f611dd784828501611aeb565b91505092915050565b611de981611acc565b82525050565b602082015f820151611e035f850182611de0565b50505050565b5f602082019050611e1c5f830184611def565b92915050565b5f805f60608486031215611e3957611e3861187f565b5b5f611e4686828701611aeb565b9350506020611e5786828701611a7a565b9250506040611e6886828701611aeb565b9150509250925092565b5f602082019050611e855f830184611b4f565b92915050565b5f8060408385031215611ea157611ea061187f565b5b5f611eae85828601611a7a565b9250506020611ebf85828601611a7a565b9150509250929050565b5f82825260208201905092915050565b7f416363657373436f6e74726f6c3a2063616e206f6e6c792072656e6f756e63655f8201527f20726f6c657320666f722073656c660000000000000000000000000000000000602082015250565b5f611f33602f83611ec9565b9150611f3e82611ed9565b604082019050919050565b5f6020820190508181035f830152611f6081611f27565b9050919050565b7f526563697069656e747320616e6420746f6b656e20616d6f756e7473206c656e5f8201527f677468206d69736d617463680000000000000000000000000000000000000000602082015250565b5f611fc1602c83611ec9565b9150611fcc82611f67565b604082019050919050565b5f6020820190508181035f830152611fee81611fb5565b9050919050565b7f4e487b71000000000000000000000000000000000000000000000000000000005f52603260045260245ffd5b61202b81611a53565b82525050565b5f6040820190506120445f830185612022565b6120516020830184611b4f565b9392505050565b61206181611907565b811461206b575f80fd5b50565b5f8151905061207c81612058565b92915050565b5f602082840312156120975761209661187f565b5b5f6120a48482850161206e565b91505092915050565b7f546f6b656e207472616e73666572206661696c656400000000000000000000005f82015250565b5f6120e1601583611ec9565b91506120ec826120ad565b602082019050919050565b5f6020820190508181035f83015261210e816120d5565b9050919050565b5f82825260208201905092915050565b5f819050919050565b61213781611a53565b82525050565b5f612148838361212e565b60208301905092915050565b5f6121626020840184611a7a565b905092915050565b5f602082019050919050565b5f6121818385612115565b935061218c82612125565b805f5b858110156121c4576121a18284612154565b6121ab888261213d565b97506121b68361216a565b92505060018101905061218f565b5085925050509392505050565b5f82825260208201905092915050565b5f80fd5b82818337505050565b5f6121f983856121d1565b93507f07ffffffffffffffffffffffffffffffffffffffffffffffffffffffffffffff83111561222c5761222b6121e1565b5b60208302925061223d8385846121e5565b82840190509392505050565b5f6040820190508181035f830152612262818688612176565b905081810360208301526122778184866121ee565b905095945050505050565b7f4d656d62657220646f6573206e6f7420657869737400000000000000000000005f82015250565b5f6122b6601583611ec9565b91506122c182612282565b602082019050919050565b5f6020820190508181035f8301526122e3816122aa565b9050919050565b7f4d656d62657220616c72656164792072656769737465726564000000000000005f82015250565b5f61231e601983611ec9565b9150612329826122ea565b602082019050919050565b5f6020820190508181035f83015261234b81612312565b9050919050565b5f6040820190506123655f830185611b4f565b6123726020830184611b4f565b9392505050565b7f4368616c6c656e676520616c72656164792065786973747320666f72207468695f8201527f73206d656d6265722c20646174652c20616e642067616d650000000000000000602082015250565b5f6123d3603883611ec9565b91506123de82612379565b604082019050919050565b5f6020820190508181035f830152612400816123c7565b9050919050565b5f60408201905061241a5f830185612022565b6124276020830184612022565b9392505050565b5f8151905061243c81611ad5565b92915050565b5f602082840312156124575761245661187f565b5b5f6124648482850161242e565b91505092915050565b7f496e73756666696369656e7420746f6b656e20616c6c6f77616e6365000000005f82015250565b5f6124a1601c83611ec9565b91506124ac8261246d565b602082019050919050565b5f6020820190508181035f8301526124ce81612495565b9050919050565b5f6020820190506124e85f830184612022565b92915050565b7f496e73756666696369656e7420746f6b656e2062616c616e63650000000000005f82015250565b5f612522601a83611ec9565b915061252d826124ee565b602082019050919050565b5f6020820190508181035f83015261254f81612516565b9050919050565b5f6060820190506125695f830186612022565b6125766020830185612022565b6125836040830184611b4f565b949350505050565b7f4368616c6c656e676520646f6573206e6f7420657869737400000000000000005f82015250565b5f6125bf601883611ec9565b91506125ca8261258b565b602082019050919050565b5f6020820190508181035f8301526125ec816125b3565b9050919050565b5f81905092915050565b7f416363657373436f6e74726f6c3a206163636f756e74200000000000000000005f82015250565b5f6126316017836125f3565b915061263c826125fd565b601782019050919050565b5f81519050919050565b8281835e5f83830152505050565b5f61266982612647565b61267381856125f3565b9350612683818560208601612651565b80840191505092915050565b7f206973206d697373696e6720726f6c65200000000000000000000000000000005f82015250565b5f6126c36011836125f3565b91506126ce8261268f565b601182019050919050565b5f6126e382612625565b91506126ef828561265f565b91506126fa826126b7565b9150612706828461265f565b91508190509392505050565b5f601f19601f8301169050919050565b5f61272c82612647565b6127368185611ec9565b9350612746818560208601612651565b61274f81612712565b840191505092915050565b5f6020820190508181035f8301526127728184612722565b905092915050565b7f4e487b71000000000000000000000000000000000000000000000000000000005f52601160045260245ffd5b5f6127b182611acc565b91506127bc83611acc565b92508282026127ca81611acc565b915082820484148315176127e1576127e061277a565b5b5092915050565b5f6127f282611acc565b91506127fd83611acc565b92508282019050808211156128155761281461277a565b5b92915050565b7f4e487b71000000000000000000000000000000000000000000000000000000005f52604160045260245ffd5b5f61285282611acc565b91505f82036128645761286361277a565b5b600182039050919050565b7f537472696e67733a20686578206c656e67746820696e73756666696369656e745f82015250565b5f6128a3602083611ec9565b91506128ae8261286f565b602082019050919050565b5f6020820190508181035f8301526128d081612897565b905091905056fea26469706673582212206c62edbec63cb36c372fded08dff2e893d4019b28437584487f54055d0b541f064736f6c634300081a0033",
					"opcodes": "PUSH1 0x80 PUSH1 0x40 MSTORE CALLVALUE DUP1 ISZERO PUSH2 0xF JUMPI PUSH0 DUP1 REVERT JUMPDEST POP PUSH1 0x40 MLOAD PUSH2 0x2C14 CODESIZE SUB DUP1 PUSH2 0x2C14 DUP4 CODECOPY DUP2 DUP2 ADD PUSH1 0x40 MSTORE DUP2 ADD SWAP1 PUSH2 0x31 SWAP2 SWAP1 PUSH2 0x2BC JUMP JUMPDEST DUP2 PUSH1 0x1 PUSH0 PUSH2 0x100 EXP DUP2 SLOAD DUP2 PUSH20 0xFFFFFFFFFFFFFFFFFFFFFFFFFFFFFFFFFFFFFFFF MUL NOT AND SWAP1 DUP4 PUSH20 0xFFFFFFFFFFFFFFFFFFFFFFFFFFFFFFFFFFFFFFFF AND MUL OR SWAP1 SSTORE POP DUP1 PUSH1 0x2 PUSH0 PUSH2 0x100 EXP DUP2 SLOAD DUP2 PUSH20 0xFFFFFFFFFFFFFFFFFFFFFFFFFFFFFFFFFFFFFFFF MUL NOT AND SWAP1 DUP4 PUSH20 0xFFFFFFFFFFFFFFFFFFFFFFFFFFFFFFFFFFFFFFFF AND MUL OR SWAP1 SSTORE POP PUSH2 0xC3 PUSH0 DUP1 SHL CALLER PUSH2 0xFA PUSH1 0x20 SHL PUSH1 0x20 SHR JUMP JUMPDEST PUSH2 0xF3 PUSH32 0xA49807205CE4D355092EF5A8A18F56E8913CF4A201FBE287825B095693C21775 CALLER PUSH2 0xFA PUSH1 0x20 SHL PUSH1 0x20 SHR JUMP JUMPDEST POP POP PUSH2 0x2FA JUMP JUMPDEST PUSH2 0x10A DUP3 DUP3 PUSH2 0x10E PUSH1 0x20 SHL PUSH1 0x20 SHR JUMP JUMPDEST POP POP JUMP JUMPDEST PUSH2 0x11E DUP3 DUP3 PUSH2 0x1F4 PUSH1 0x20 SHL PUSH1 0x20 SHR JUMP JUMPDEST PUSH2 0x1F0 JUMPI PUSH1 0x1 PUSH0 DUP1 DUP5 DUP2 MSTORE PUSH1 0x20 ADD SWAP1 DUP2 MSTORE PUSH1 0x20 ADD PUSH0 KECCAK256 PUSH0 ADD PUSH0 DUP4 PUSH20 0xFFFFFFFFFFFFFFFFFFFFFFFFFFFFFFFFFFFFFFFF AND PUSH20 0xFFFFFFFFFFFFFFFFFFFFFFFFFFFFFFFFFFFFFFFF AND DUP2 MSTORE PUSH1 0x20 ADD SWAP1 DUP2 MSTORE PUSH1 0x20 ADD PUSH0 KECCAK256 PUSH0 PUSH2 0x100 EXP DUP2 SLOAD DUP2 PUSH1 0xFF MUL NOT AND SWAP1 DUP4 ISZERO ISZERO MUL OR SWAP1 SSTORE POP PUSH2 0x195 PUSH2 0x257 PUSH1 0x20 SHL PUSH1 0x20 SHR JUMP JUMPDEST PUSH20 0xFFFFFFFFFFFFFFFFFFFFFFFFFFFFFFFFFFFFFFFF AND DUP2 PUSH20 0xFFFFFFFFFFFFFFFFFFFFFFFFFFFFFFFFFFFFFFFF AND DUP4 PUSH32 0x2F8788117E7EFF1D82E926EC794901D17C78024A50270940304540A733656F0D PUSH1 0x40 MLOAD PUSH1 0x40 MLOAD DUP1 SWAP2 SUB SWAP1 LOG4 JUMPDEST POP POP JUMP JUMPDEST PUSH0 DUP1 PUSH0 DUP5 DUP2 MSTORE PUSH1 0x20 ADD SWAP1 DUP2 MSTORE PUSH1 0x20 ADD PUSH0 KECCAK256 PUSH0 ADD PUSH0 DUP4 PUSH20 0xFFFFFFFFFFFFFFFFFFFFFFFFFFFFFFFFFFFFFFFF AND PUSH20 0xFFFFFFFFFFFFFFFFFFFFFFFFFFFFFFFFFFFFFFFF AND DUP2 MSTORE PUSH1 0x20 ADD SWAP1 DUP2 MSTORE PUSH1 0x20 ADD PUSH0 KECCAK256 PUSH0 SWAP1 SLOAD SWAP1 PUSH2 0x100 EXP SWAP1 DIV PUSH1 0xFF AND SWAP1 POP SWAP3 SWAP2 POP POP JUMP JUMPDEST PUSH0 CALLER SWAP1 POP SWAP1 JUMP JUMPDEST PUSH0 DUP1 REVERT JUMPDEST PUSH0 PUSH20 0xFFFFFFFFFFFFFFFFFFFFFFFFFFFFFFFFFFFFFFFF DUP3 AND SWAP1 POP SWAP2 SWAP1 POP JUMP JUMPDEST PUSH0 PUSH2 0x28B DUP3 PUSH2 0x262 JUMP JUMPDEST SWAP1 POP SWAP2 SWAP1 POP JUMP JUMPDEST PUSH2 0x29B DUP2 PUSH2 0x281 JUMP JUMPDEST DUP2 EQ PUSH2 0x2A5 JUMPI PUSH0 DUP1 REVERT JUMPDEST POP JUMP JUMPDEST PUSH0 DUP2 MLOAD SWAP1 POP PUSH2 0x2B6 DUP2 PUSH2 0x292 JUMP JUMPDEST SWAP3 SWAP2 POP POP JUMP JUMPDEST PUSH0 DUP1 PUSH1 0x40 DUP4 DUP6 SUB SLT ISZERO PUSH2 0x2D2 JUMPI PUSH2 0x2D1 PUSH2 0x25E JUMP JUMPDEST JUMPDEST PUSH0 PUSH2 0x2DF DUP6 DUP3 DUP7 ADD PUSH2 0x2A8 JUMP JUMPDEST SWAP3 POP POP PUSH1 0x20 PUSH2 0x2F0 DUP6 DUP3 DUP7 ADD PUSH2 0x2A8 JUMP JUMPDEST SWAP2 POP POP SWAP3 POP SWAP3 SWAP1 POP JUMP JUMPDEST PUSH2 0x290D DUP1 PUSH2 0x307 PUSH0 CODECOPY PUSH0 RETURN INVALID PUSH1 0x80 PUSH1 0x40 MSTORE CALLVALUE DUP1 ISZERO PUSH2 0xF JUMPI PUSH0 DUP1 REVERT JUMPDEST POP PUSH1 0x4 CALLDATASIZE LT PUSH2 0x140 JUMPI PUSH0 CALLDATALOAD PUSH1 0xE0 SHR DUP1 PUSH4 0x9A19C7B0 GT PUSH2 0xB6 JUMPI DUP1 PUSH4 0xC634B78E GT PUSH2 0x7A JUMPI DUP1 PUSH4 0xC634B78E EQ PUSH2 0x39D JUMPI DUP1 PUSH4 0xCA1C996F EQ PUSH2 0x3B9 JUMPI DUP1 PUSH4 0xCBC7854E EQ PUSH2 0x3D5 JUMPI DUP1 PUSH4 0xD547741F EQ PUSH2 0x3F1 JUMPI DUP1 PUSH4 0xDD0C8082 EQ PUSH2 0x40D JUMPI DUP1 PUSH4 0xDD7D2B9F EQ PUSH2 0x42B JUMPI PUSH2 0x140 JUMP JUMPDEST DUP1 PUSH4 0x9A19C7B0 EQ PUSH2 0x2E7 JUMPI DUP1 PUSH4 0xA217FDDF EQ PUSH2 0x303 JUMPI DUP1 PUSH4 0xAE99AA3C EQ PUSH2 0x321 JUMPI DUP1 PUSH4 0xAEA08734 EQ PUSH2 0x351 JUMPI DUP1 PUSH4 0xBB10AB0F EQ PUSH2 0x36D JUMPI PUSH2 0x140 JUMP JUMPDEST DUP1 PUSH4 0x36568ABE GT PUSH2 0x108 JUMPI DUP1 PUSH4 0x36568ABE EQ PUSH2 0x212 JUMPI DUP1 PUSH4 0x406A378A EQ PUSH2 0x22E JUMPI DUP1 PUSH4 0x75B238FC EQ PUSH2 0x24A JUMPI DUP1 PUSH4 0x8525EA16 EQ PUSH2 0x268 JUMPI DUP1 PUSH4 0x8AFAC670 EQ PUSH2 0x284 JUMPI DUP1 PUSH4 0x91D14854 EQ PUSH2 0x2B7 JUMPI PUSH2 0x140 JUMP JUMPDEST DUP1 PUSH4 0x1FFC9A7 EQ PUSH2 0x144 JUMPI DUP1 PUSH4 0x1B72FA3A EQ PUSH2 0x174 JUMPI DUP1 PUSH4 0x248A9CA3 EQ PUSH2 0x192 JUMPI DUP1 PUSH4 0x2F2FF15D EQ PUSH2 0x1C2 JUMPI DUP1 PUSH4 0x355B9D3F EQ PUSH2 0x1DE JUMPI JUMPDEST PUSH0 DUP1 REVERT JUMPDEST PUSH2 0x15E PUSH1 0x4 DUP1 CALLDATASIZE SUB DUP2 ADD SWAP1 PUSH2 0x159 SWAP2 SWAP1 PUSH2 0x18DC JUMP JUMPDEST PUSH2 0x447 JUMP JUMPDEST PUSH1 0x40 MLOAD PUSH2 0x16B SWAP2 SWAP1 PUSH2 0x1921 JUMP JUMPDEST PUSH1 0x40 MLOAD DUP1 SWAP2 SUB SWAP1 RETURN JUMPDEST PUSH2 0x17C PUSH2 0x4C0 JUMP JUMPDEST PUSH1 0x40 MLOAD PUSH2 0x189 SWAP2 SWAP1 PUSH2 0x19B4 JUMP JUMPDEST PUSH1 0x40 MLOAD DUP1 SWAP2 SUB SWAP1 RETURN JUMPDEST PUSH2 0x1AC PUSH1 0x4 DUP1 CALLDATASIZE SUB DUP2 ADD SWAP1 PUSH2 0x1A7 SWAP2 SWAP1 PUSH2 0x1A00 JUMP JUMPDEST PUSH2 0x4E5 JUMP JUMPDEST PUSH1 0x40 MLOAD PUSH2 0x1B9 SWAP2 SWAP1 PUSH2 0x1A3A JUMP JUMPDEST PUSH1 0x40 MLOAD DUP1 SWAP2 SUB SWAP1 RETURN JUMPDEST PUSH2 0x1DC PUSH1 0x4 DUP1 CALLDATASIZE SUB DUP2 ADD SWAP1 PUSH2 0x1D7 SWAP2 SWAP1 PUSH2 0x1A8E JUMP JUMPDEST PUSH2 0x501 JUMP JUMPDEST STOP JUMPDEST PUSH2 0x1F8 PUSH1 0x4 DUP1 CALLDATASIZE SUB DUP2 ADD SWAP1 PUSH2 0x1F3 SWAP2 SWAP1 PUSH2 0x1AFF JUMP JUMPDEST PUSH2 0x522 JUMP JUMPDEST PUSH1 0x40 MLOAD PUSH2 0x209 SWAP6 SWAP5 SWAP4 SWAP3 SWAP2 SWAP1 PUSH2 0x1B5E JUMP JUMPDEST PUSH1 0x40 MLOAD DUP1 SWAP2 SUB SWAP1 RETURN JUMPDEST PUSH2 0x22C PUSH1 0x4 DUP1 CALLDATASIZE SUB DUP2 ADD SWAP1 PUSH2 0x227 SWAP2 SWAP1 PUSH2 0x1A8E JUMP JUMPDEST PUSH2 0x576 JUMP JUMPDEST STOP JUMPDEST PUSH2 0x248 PUSH1 0x4 DUP1 CALLDATASIZE SUB DUP2 ADD SWAP1 PUSH2 0x243 SWAP2 SWAP1 PUSH2 0x1C65 JUMP JUMPDEST PUSH2 0x5F9 JUMP JUMPDEST STOP JUMPDEST PUSH2 0x252 PUSH2 0x7E5 JUMP JUMPDEST PUSH1 0x40 MLOAD PUSH2 0x25F SWAP2 SWAP1 PUSH2 0x1A3A JUMP JUMPDEST PUSH1 0x40 MLOAD DUP1 SWAP2 SUB SWAP1 RETURN JUMPDEST PUSH2 0x282 PUSH1 0x4 DUP1 CALLDATASIZE SUB DUP2 ADD SWAP1 PUSH2 0x27D SWAP2 SWAP1 PUSH2 0x1CE3 JUMP JUMPDEST PUSH2 0x809 JUMP JUMPDEST STOP JUMPDEST PUSH2 0x29E PUSH1 0x4 DUP1 CALLDATASIZE SUB DUP2 ADD SWAP1 PUSH2 0x299 SWAP2 SWAP1 PUSH2 0x1AFF JUMP JUMPDEST PUSH2 0x9C0 JUMP JUMPDEST PUSH1 0x40 MLOAD PUSH2 0x2AE SWAP5 SWAP4 SWAP3 SWAP2 SWAP1 PUSH2 0x1D47 JUMP JUMPDEST PUSH1 0x40 MLOAD DUP1 SWAP2 SUB SWAP1 RETURN JUMPDEST PUSH2 0x2D1 PUSH1 0x4 DUP1 CALLDATASIZE SUB DUP2 ADD SWAP1 PUSH2 0x2CC SWAP2 SWAP1 PUSH2 0x1A8E JUMP JUMPDEST PUSH2 0xA0E JUMP JUMPDEST PUSH1 0x40 MLOAD PUSH2 0x2DE SWAP2 SWAP1 PUSH2 0x1921 JUMP JUMPDEST PUSH1 0x40 MLOAD DUP1 SWAP2 SUB SWAP1 RETURN JUMPDEST PUSH2 0x301 PUSH1 0x4 DUP1 CALLDATASIZE SUB DUP2 ADD SWAP1 PUSH2 0x2FC SWAP2 SWAP1 PUSH2 0x1D8A JUMP JUMPDEST PUSH2 0xA71 JUMP JUMPDEST STOP JUMPDEST PUSH2 0x30B PUSH2 0xAAB JUMP JUMPDEST PUSH1 0x40 MLOAD PUSH2 0x318 SWAP2 SWAP1 PUSH2 0x1A3A JUMP JUMPDEST PUSH1 0x40 MLOAD DUP1 SWAP2 SUB SWAP1 RETURN JUMPDEST PUSH2 0x33B PUSH1 0x4 DUP1 CALLDATASIZE SUB DUP2 ADD SWAP1 PUSH2 0x336 SWAP2 SWAP1 PUSH2 0x1DB5 JUMP JUMPDEST PUSH2 0xAB1 JUMP JUMPDEST PUSH1 0x40 MLOAD PUSH2 0x348 SWAP2 SWAP1 PUSH2 0x1E09 JUMP JUMPDEST PUSH1 0x40 MLOAD DUP1 SWAP2 SUB SWAP1 RETURN JUMPDEST PUSH2 0x36B PUSH1 0x4 DUP1 CALLDATASIZE SUB DUP2 ADD SWAP1 PUSH2 0x366 SWAP2 SWAP1 PUSH2 0x1E22 JUMP JUMPDEST PUSH2 0xB3A JUMP JUMPDEST STOP JUMPDEST PUSH2 0x387 PUSH1 0x4 DUP1 CALLDATASIZE SUB DUP2 ADD SWAP1 PUSH2 0x382 SWAP2 SWAP1 PUSH2 0x1DB5 JUMP JUMPDEST PUSH2 0xCAC JUMP JUMPDEST PUSH1 0x40 MLOAD PUSH2 0x394 SWAP2 SWAP1 PUSH2 0x1E72 JUMP JUMPDEST PUSH1 0x40 MLOAD DUP1 SWAP2 SUB SWAP1 RETURN JUMPDEST PUSH2 0x3B7 PUSH1 0x4 DUP1 CALLDATASIZE SUB DUP2 ADD SWAP1 PUSH2 0x3B2 SWAP2 SWAP1 PUSH2 0x1D8A JUMP JUMPDEST PUSH2 0xCC6 JUMP JUMPDEST STOP JUMPDEST PUSH2 0x3D3 PUSH1 0x4 DUP1 CALLDATASIZE SUB DUP2 ADD SWAP1 PUSH2 0x3CE SWAP2 SWAP1 PUSH2 0x1CE3 JUMP JUMPDEST PUSH2 0xD00 JUMP JUMPDEST STOP JUMPDEST PUSH2 0x3EF PUSH1 0x4 DUP1 CALLDATASIZE SUB DUP2 ADD SWAP1 PUSH2 0x3EA SWAP2 SWAP1 PUSH2 0x1E8B JUMP JUMPDEST PUSH2 0x10FF JUMP JUMPDEST STOP JUMPDEST PUSH2 0x40B PUSH1 0x4 DUP1 CALLDATASIZE SUB DUP2 ADD SWAP1 PUSH2 0x406 SWAP2 SWAP1 PUSH2 0x1A8E JUMP JUMPDEST PUSH2 0x11AE JUMP JUMPDEST STOP JUMPDEST PUSH2 0x415 PUSH2 0x11CF JUMP JUMPDEST PUSH1 0x40 MLOAD PUSH2 0x422 SWAP2 SWAP1 PUSH2 0x19B4 JUMP JUMPDEST PUSH1 0x40 MLOAD DUP1 SWAP2 SUB SWAP1 RETURN JUMPDEST PUSH2 0x445 PUSH1 0x4 DUP1 CALLDATASIZE SUB DUP2 ADD SWAP1 PUSH2 0x440 SWAP2 SWAP1 PUSH2 0x1CE3 JUMP JUMPDEST PUSH2 0x11F4 JUMP JUMPDEST STOP JUMPDEST PUSH0 PUSH32 0x7965DB0B00000000000000000000000000000000000000000000000000000000 PUSH28 0xFFFFFFFFFFFFFFFFFFFFFFFFFFFFFFFFFFFFFFFFFFFFFFFFFFFFFFFF NOT AND DUP3 PUSH28 0xFFFFFFFFFFFFFFFFFFFFFFFFFFFFFFFFFFFFFFFFFFFFFFFFFFFFFFFF NOT AND EQ DUP1 PUSH2 0x4B9 JUMPI POP PUSH2 0x4B8 DUP3 PUSH2 0x134F JUMP JUMPDEST JUMPDEST SWAP1 POP SWAP2 SWAP1 POP JUMP JUMPDEST PUSH1 0x2 PUSH0 SWAP1 SLOAD SWAP1 PUSH2 0x100 EXP SWAP1 DIV PUSH20 0xFFFFFFFFFFFFFFFFFFFFFFFFFFFFFFFFFFFFFFFF AND DUP2 JUMP JUMPDEST PUSH0 DUP1 PUSH0 DUP4 DUP2 MSTORE PUSH1 0x20 ADD SWAP1 DUP2 MSTORE PUSH1 0x20 ADD PUSH0 KECCAK256 PUSH1 0x1 ADD SLOAD SWAP1 POP SWAP2 SWAP1 POP JUMP JUMPDEST PUSH2 0x50A DUP3 PUSH2 0x4E5 JUMP JUMPDEST PUSH2 0x513 DUP2 PUSH2 0x13B8 JUMP JUMPDEST PUSH2 0x51D DUP4 DUP4 PUSH2 0x13CC JUMP JUMPDEST POP POP POP JUMP JUMPDEST PUSH1 0x5 PUSH1 0x20 MSTORE DUP3 PUSH0 MSTORE PUSH1 0x40 PUSH0 KECCAK256 PUSH1 0x20 MSTORE DUP2 PUSH0 MSTORE PUSH1 0x40 PUSH0 KECCAK256 PUSH1 0x20 MSTORE DUP1 PUSH0 MSTORE PUSH1 0x40 PUSH0 KECCAK256 PUSH0 SWAP3 POP SWAP3 POP POP POP DUP1 PUSH0 ADD SLOAD SWAP1 DUP1 PUSH1 0x1 ADD SLOAD SWAP1 DUP1 PUSH1 0x2 ADD SLOAD SWAP1 DUP1 PUSH1 0x3 ADD SLOAD SWAP1 DUP1 PUSH1 0x4 ADD PUSH0 SWAP1 SLOAD SWAP1 PUSH2 0x100 EXP SWAP1 DIV PUSH1 0xFF AND SWAP1 POP DUP6 JUMP JUMPDEST PUSH2 0x57E PUSH2 0x14A6 JUMP JUMPDEST PUSH20 0xFFFFFFFFFFFFFFFFFFFFFFFFFFFFFFFFFFFFFFFF AND DUP2 PUSH20 0xFFFFFFFFFFFFFFFFFFFFFFFFFFFFFFFFFFFFFFFF AND EQ PUSH2 0x5EB JUMPI PUSH1 0x40 MLOAD PUSH32 0x8C379A000000000000000000000000000000000000000000000000000000000 DUP2 MSTORE PUSH1 0x4 ADD PUSH2 0x5E2 SWAP1 PUSH2 0x1F49 JUMP JUMPDEST PUSH1 0x40 MLOAD DUP1 SWAP2 SUB SWAP1 REVERT JUMPDEST PUSH2 0x5F5 DUP3 DUP3 PUSH2 0x14AD JUMP JUMPDEST POP POP JUMP JUMPDEST PUSH32 0xA49807205CE4D355092EF5A8A18F56E8913CF4A201FBE287825B095693C21775 PUSH2 0x623 DUP2 PUSH2 0x13B8 JUMP JUMPDEST DUP3 DUP3 SWAP1 POP DUP6 DUP6 SWAP1 POP EQ PUSH2 0x66B JUMPI PUSH1 0x40 MLOAD PUSH32 0x8C379A000000000000000000000000000000000000000000000000000000000 DUP2 MSTORE PUSH1 0x4 ADD PUSH2 0x662 SWAP1 PUSH2 0x1FD7 JUMP JUMPDEST PUSH1 0x40 MLOAD DUP1 SWAP2 SUB SWAP1 REVERT JUMPDEST PUSH0 JUMPDEST DUP6 DUP6 SWAP1 POP DUP2 LT ISZERO PUSH2 0x7A0 JUMPI PUSH1 0x2 PUSH0 SWAP1 SLOAD SWAP1 PUSH2 0x100 EXP SWAP1 DIV PUSH20 0xFFFFFFFFFFFFFFFFFFFFFFFFFFFFFFFFFFFFFFFF AND PUSH20 0xFFFFFFFFFFFFFFFFFFFFFFFFFFFFFFFFFFFFFFFF AND PUSH4 0xA9059CBB DUP8 DUP8 DUP5 DUP2 DUP2 LT PUSH2 0x6C8 JUMPI PUSH2 0x6C7 PUSH2 0x1FF5 JUMP JUMPDEST JUMPDEST SWAP1 POP PUSH1 0x20 MUL ADD PUSH1 0x20 DUP2 ADD SWAP1 PUSH2 0x6DD SWAP2 SWAP1 PUSH2 0x1D8A JUMP JUMPDEST DUP7 DUP7 DUP6 DUP2 DUP2 LT PUSH2 0x6F0 JUMPI PUSH2 0x6EF PUSH2 0x1FF5 JUMP JUMPDEST JUMPDEST SWAP1 POP PUSH1 0x20 MUL ADD CALLDATALOAD PUSH1 0x40 MLOAD DUP4 PUSH4 0xFFFFFFFF AND PUSH1 0xE0 SHL DUP2 MSTORE PUSH1 0x4 ADD PUSH2 0x714 SWAP3 SWAP2 SWAP1 PUSH2 0x2031 JUMP JUMPDEST PUSH1 0x20 PUSH1 0x40 MLOAD DUP1 DUP4 SUB DUP2 PUSH0 DUP8 GAS CALL ISZERO DUP1 ISZERO PUSH2 0x730 JUMPI RETURNDATASIZE PUSH0 DUP1 RETURNDATACOPY RETURNDATASIZE PUSH0 REVERT JUMPDEST POP POP POP POP PUSH1 0x40 MLOAD RETURNDATASIZE PUSH1 0x1F NOT PUSH1 0x1F DUP3 ADD AND DUP3 ADD DUP1 PUSH1 0x40 MSTORE POP DUP2 ADD SWAP1 PUSH2 0x754 SWAP2 SWAP1 PUSH2 0x2082 JUMP JUMPDEST PUSH2 0x793 JUMPI PUSH1 0x40 MLOAD PUSH32 0x8C379A000000000000000000000000000000000000000000000000000000000 DUP2 MSTORE PUSH1 0x4 ADD PUSH2 0x78A SWAP1 PUSH2 0x20F7 JUMP JUMPDEST PUSH1 0x40 MLOAD DUP1 SWAP2 SUB SWAP1 REVERT JUMPDEST DUP1 DUP1 PUSH1 0x1 ADD SWAP2 POP POP PUSH2 0x66D JUMP JUMPDEST POP PUSH32 0xFA3B7284ECB3A03E8F238B69B61F5645294C15019EA509BD4AAEE604D60FDC34 DUP6 DUP6 DUP6 DUP6 PUSH1 0x40 MLOAD PUSH2 0x7D6 SWAP5 SWAP4 SWAP3 SWAP2 SWAP1 PUSH2 0x2249 JUMP JUMPDEST PUSH1 0x40 MLOAD DUP1 SWAP2 SUB SWAP1 LOG1 POP POP POP POP POP JUMP JUMPDEST PUSH32 0xA49807205CE4D355092EF5A8A18F56E8913CF4A201FBE287825B095693C21775 DUP2 JUMP JUMPDEST PUSH32 0xA49807205CE4D355092EF5A8A18F56E8913CF4A201FBE287825B095693C21775 PUSH2 0x833 DUP2 PUSH2 0x13B8 JUMP JUMPDEST PUSH1 0x4 PUSH0 DUP7 DUP2 MSTORE PUSH1 0x20 ADD SWAP1 DUP2 MSTORE PUSH1 0x20 ADD PUSH0 KECCAK256 PUSH0 DUP6 DUP2 MSTORE PUSH1 0x20 ADD SWAP1 DUP2 MSTORE PUSH1 0x20 ADD PUSH0 KECCAK256 PUSH0 DUP5 DUP2 MSTORE PUSH1 0x20 ADD SWAP1 DUP2 MSTORE PUSH1 0x20 ADD PUSH0 KECCAK256 PUSH1 0x3 ADD PUSH0 SWAP1 SLOAD SWAP1 PUSH2 0x100 EXP SWAP1 DIV PUSH1 0xFF AND PUSH2 0x90C JUMPI PUSH1 0x40 MLOAD DUP1 PUSH1 0x80 ADD PUSH1 0x40 MSTORE DUP1 DUP6 DUP2 MSTORE PUSH1 0x20 ADD DUP5 DUP2 MSTORE PUSH1 0x20 ADD PUSH0 DUP2 MSTORE PUSH1 0x20 ADD PUSH1 0x1 ISZERO ISZERO DUP2 MSTORE POP PUSH1 0x4 PUSH0 DUP8 DUP2 MSTORE PUSH1 0x20 ADD SWAP1 DUP2 MSTORE PUSH1 0x20 ADD PUSH0 KECCAK256 PUSH0 DUP7 DUP2 MSTORE PUSH1 0x20 ADD SWAP1 DUP2 MSTORE PUSH1 0x20 ADD PUSH0 KECCAK256 PUSH0 DUP6 DUP2 MSTORE PUSH1 0x20 ADD SWAP1 DUP2 MSTORE PUSH1 0x20 ADD PUSH0 KECCAK256 PUSH0 DUP3 ADD MLOAD DUP2 PUSH0 ADD SSTORE PUSH1 0x20 DUP3 ADD MLOAD DUP2 PUSH1 0x1 ADD SSTORE PUSH1 0x40 DUP3 ADD MLOAD DUP2 PUSH1 0x2 ADD SSTORE PUSH1 0x60 DUP3 ADD MLOAD DUP2 PUSH1 0x3 ADD PUSH0 PUSH2 0x100 EXP DUP2 SLOAD DUP2 PUSH1 0xFF MUL NOT AND SWAP1 DUP4 ISZERO ISZERO MUL OR SWAP1 SSTORE POP SWAP1 POP POP PUSH2 0x97F JUMP JUMPDEST PUSH1 0x4 PUSH0 DUP7 DUP2 MSTORE PUSH1 0x20 ADD SWAP1 DUP2 MSTORE PUSH1 0x20 ADD PUSH0 KECCAK256 PUSH0 DUP6 DUP2 MSTORE PUSH1 0x20 ADD SWAP1 DUP2 MSTORE PUSH1 0x20 ADD PUSH0 KECCAK256 PUSH0 DUP5 DUP2 MSTORE PUSH1 0x20 ADD SWAP1 DUP2 MSTORE PUSH1 0x20 ADD PUSH0 KECCAK256 PUSH1 0x2 ADD SLOAD DUP3 GT ISZERO PUSH2 0x97E JUMPI DUP2 PUSH1 0x4 PUSH0 DUP8 DUP2 MSTORE PUSH1 0x20 ADD SWAP1 DUP2 MSTORE PUSH1 0x20 ADD PUSH0 KECCAK256 PUSH0 DUP7 DUP2 MSTORE PUSH1 0x20 ADD SWAP1 DUP2 MSTORE PUSH1 0x20 ADD PUSH0 KECCAK256 PUSH0 DUP6 DUP2 MSTORE PUSH1 0x20 ADD SWAP1 DUP2 MSTORE PUSH1 0x20 ADD PUSH0 KECCAK256 PUSH1 0x2 ADD DUP2 SWAP1 SSTORE POP JUMPDEST JUMPDEST DUP3 DUP5 DUP7 PUSH32 0xA8F9CF476E5BCC627F5ED22B5BA54BD7FFF333CD851BC754D924FE3EB28752FB DUP6 PUSH1 0x40 MLOAD PUSH2 0x9B1 SWAP2 SWAP1 PUSH2 0x1E72 JUMP JUMPDEST PUSH1 0x40 MLOAD DUP1 SWAP2 SUB SWAP1 LOG4 POP POP POP POP POP JUMP JUMPDEST PUSH1 0x4 PUSH1 0x20 MSTORE DUP3 PUSH0 MSTORE PUSH1 0x40 PUSH0 KECCAK256 PUSH1 0x20 MSTORE DUP2 PUSH0 MSTORE PUSH1 0x40 PUSH0 KECCAK256 PUSH1 0x20 MSTORE DUP1 PUSH0 MSTORE PUSH1 0x40 PUSH0 KECCAK256 PUSH0 SWAP3 POP SWAP3 POP POP POP DUP1 PUSH0 ADD SLOAD SWAP1 DUP1 PUSH1 0x1 ADD SLOAD SWAP1 DUP1 PUSH1 0x2 ADD SLOAD SWAP1 DUP1 PUSH1 0x3 ADD PUSH0 SWAP1 SLOAD SWAP1 PUSH2 0x100 EXP SWAP1 DIV PUSH1 0xFF AND SWAP1 POP DUP5 JUMP JUMPDEST PUSH0 DUP1 PUSH0 DUP5 DUP2 MSTORE PUSH1 0x20 ADD SWAP1 DUP2 MSTORE PUSH1 0x20 ADD PUSH0 KECCAK256 PUSH0 ADD PUSH0 DUP4 PUSH20 0xFFFFFFFFFFFFFFFFFFFFFFFFFFFFFFFFFFFFFFFF AND PUSH20 0xFFFFFFFFFFFFFFFFFFFFFFFFFFFFFFFFFFFFFFFF AND DUP2 MSTORE PUSH1 0x20 ADD SWAP1 DUP2 MSTORE PUSH1 0x20 ADD PUSH0 KECCAK256 PUSH0 SWAP1 SLOAD SWAP1 PUSH2 0x100 EXP SWAP1 DIV PUSH1 0xFF AND SWAP1 POP SWAP3 SWAP2 POP POP JUMP JUMPDEST PUSH0 DUP1 SHL PUSH2 0xA7D DUP2 PUSH2 0x13B8 JUMP JUMPDEST PUSH2 0xAA7 PUSH32 0xA49807205CE4D355092EF5A8A18F56E8913CF4A201FBE287825B095693C21775 DUP4 PUSH2 0x11AE JUMP JUMPDEST POP POP JUMP JUMPDEST PUSH0 DUP1 SHL DUP2 JUMP JUMPDEST PUSH2 0xAB9 PUSH2 0x186D JUMP JUMPDEST PUSH0 PUSH1 0x3 PUSH0 DUP5 DUP2 MSTORE PUSH1 0x20 ADD SWAP1 DUP2 MSTORE PUSH1 0x20 ADD PUSH0 KECCAK256 PUSH0 ADD SLOAD GT PUSH2 0xB0E JUMPI PUSH1 0x40 MLOAD PUSH32 0x8C379A000000000000000000000000000000000000000000000000000000000 DUP2 MSTORE PUSH1 0x4 ADD PUSH2 0xB05 SWAP1 PUSH2 0x22CC JUMP JUMPDEST PUSH1 0x40 MLOAD DUP1 SWAP2 SUB SWAP1 REVERT JUMPDEST PUSH1 0x3 PUSH0 DUP4 DUP2 MSTORE PUSH1 0x20 ADD SWAP1 DUP2 MSTORE PUSH1 0x20 ADD PUSH0 KECCAK256 PUSH1 0x40 MLOAD DUP1 PUSH1 0x20 ADD PUSH1 0x40 MSTORE SWAP1 DUP2 PUSH0 DUP3 ADD SLOAD DUP2 MSTORE POP POP SWAP1 POP SWAP2 SWAP1 POP JUMP JUMPDEST PUSH32 0xA49807205CE4D355092EF5A8A18F56E8913CF4A201FBE287825B095693C21775 PUSH2 0xB64 DUP2 PUSH2 0x13B8 JUMP JUMPDEST PUSH0 PUSH1 0x3 PUSH0 DUP7 DUP2 MSTORE PUSH1 0x20 ADD SWAP1 DUP2 MSTORE PUSH1 0x20 ADD PUSH0 KECCAK256 PUSH0 ADD SLOAD EQ PUSH2 0xBB9 JUMPI PUSH1 0x40 MLOAD PUSH32 0x8C379A000000000000000000000000000000000000000000000000000000000 DUP2 MSTORE PUSH1 0x4 ADD PUSH2 0xBB0 SWAP1 PUSH2 0x2334 JUMP JUMPDEST PUSH1 0x40 MLOAD DUP1 SWAP2 SUB SWAP1 REVERT JUMPDEST PUSH1 0x40 MLOAD DUP1 PUSH1 0x20 ADD PUSH1 0x40 MSTORE DUP1 DUP6 DUP2 MSTORE POP PUSH1 0x3 PUSH0 DUP7 DUP2 MSTORE PUSH1 0x20 ADD SWAP1 DUP2 MSTORE PUSH1 0x20 ADD PUSH0 KECCAK256 PUSH0 DUP3 ADD MLOAD DUP2 PUSH0 ADD SSTORE SWAP1 POP POP PUSH1 0x1 PUSH0 SWAP1 SLOAD SWAP1 PUSH2 0x100 EXP SWAP1 DIV PUSH20 0xFFFFFFFFFFFFFFFFFFFFFFFFFFFFFFFFFFFFFFFF AND PUSH20 0xFFFFFFFFFFFFFFFFFFFFFFFFFFFFFFFFFFFFFFFF AND PUSH4 0x40C10F19 DUP5 DUP5 PUSH1 0x40 MLOAD DUP4 PUSH4 0xFFFFFFFF AND PUSH1 0xE0 SHL DUP2 MSTORE PUSH1 0x4 ADD PUSH2 0xC40 SWAP3 SWAP2 SWAP1 PUSH2 0x2031 JUMP JUMPDEST PUSH0 PUSH1 0x40 MLOAD DUP1 DUP4 SUB DUP2 PUSH0 DUP8 DUP1 EXTCODESIZE ISZERO DUP1 ISZERO PUSH2 0xC57 JUMPI PUSH0 DUP1 REVERT JUMPDEST POP GAS CALL ISZERO DUP1 ISZERO PUSH2 0xC69 JUMPI RETURNDATASIZE PUSH0 DUP1 RETURNDATACOPY RETURNDATASIZE PUSH0 REVERT JUMPDEST POP POP POP POP PUSH32 0x5A92C2530F207992057B9C3E544108FFCE3BEDA4A63719F316967C49BF6159D2 DUP5 DUP4 PUSH1 0x40 MLOAD PUSH2 0xC9E SWAP3 SWAP2 SWAP1 PUSH2 0x2352 JUMP JUMPDEST PUSH1 0x40 MLOAD DUP1 SWAP2 SUB SWAP1 LOG1 POP POP POP POP JUMP JUMPDEST PUSH1 0x3 PUSH1 0x20 MSTORE DUP1 PUSH0 MSTORE PUSH1 0x40 PUSH0 KECCAK256 PUSH0 SWAP2 POP SWAP1 POP DUP1 PUSH0 ADD SLOAD SWAP1 POP DUP2 JUMP JUMPDEST PUSH0 DUP1 SHL PUSH2 0xCD2 DUP2 PUSH2 0x13B8 JUMP JUMPDEST PUSH2 0xCFC PUSH32 0xA49807205CE4D355092EF5A8A18F56E8913CF4A201FBE287825B095693C21775 DUP4 PUSH2 0x501 JUMP JUMPDEST POP POP JUMP JUMPDEST PUSH1 0x5 PUSH0 DUP6 DUP2 MSTORE PUSH1 0x20 ADD SWAP1 DUP2 MSTORE PUSH1 0x20 ADD PUSH0 KECCAK256 PUSH0 DUP5 DUP2 MSTORE PUSH1 0x20 ADD SWAP1 DUP2 MSTORE PUSH1 0x20 ADD PUSH0 KECCAK256 PUSH0 DUP4 DUP2 MSTORE PUSH1 0x20 ADD SWAP1 DUP2 MSTORE PUSH1 0x20 ADD PUSH0 KECCAK256 PUSH1 0x4 ADD PUSH0 SWAP1 SLOAD SWAP1 PUSH2 0x100 EXP SWAP1 DIV PUSH1 0xFF AND ISZERO PUSH2 0xD7F JUMPI PUSH1 0x40 MLOAD PUSH32 0x8C379A000000000000000000000000000000000000000000000000000000000 DUP2 MSTORE PUSH1 0x4 ADD PUSH2 0xD76 SWAP1 PUSH2 0x23E9 JUMP JUMPDEST PUSH1 0x40 MLOAD DUP1 SWAP2 SUB SWAP1 REVERT JUMPDEST PUSH0 PUSH1 0x1 PUSH0 SWAP1 SLOAD SWAP1 PUSH2 0x100 EXP SWAP1 DIV PUSH20 0xFFFFFFFFFFFFFFFFFFFFFFFFFFFFFFFFFFFFFFFF AND PUSH20 0xFFFFFFFFFFFFFFFFFFFFFFFFFFFFFFFFFFFFFFFF AND PUSH4 0xDD62ED3E CALLER ADDRESS PUSH1 0x40 MLOAD DUP4 PUSH4 0xFFFFFFFF AND PUSH1 0xE0 SHL DUP2 MSTORE PUSH1 0x4 ADD PUSH2 0xDDC SWAP3 SWAP2 SWAP1 PUSH2 0x2407 JUMP JUMPDEST PUSH1 0x20 PUSH1 0x40 MLOAD DUP1 DUP4 SUB DUP2 DUP7 GAS STATICCALL ISZERO DUP1 ISZERO PUSH2 0xDF7 JUMPI RETURNDATASIZE PUSH0 DUP1 RETURNDATACOPY RETURNDATASIZE PUSH0 REVERT JUMPDEST POP POP POP POP PUSH1 0x40 MLOAD RETURNDATASIZE PUSH1 0x1F NOT PUSH1 0x1F DUP3 ADD AND DUP3 ADD DUP1 PUSH1 0x40 MSTORE POP DUP2 ADD SWAP1 PUSH2 0xE1B SWAP2 SWAP1 PUSH2 0x2442 JUMP JUMPDEST SWAP1 POP DUP2 DUP2 LT ISZERO PUSH2 0xE60 JUMPI PUSH1 0x40 MLOAD PUSH32 0x8C379A000000000000000000000000000000000000000000000000000000000 DUP2 MSTORE PUSH1 0x4 ADD PUSH2 0xE57 SWAP1 PUSH2 0x24B7 JUMP JUMPDEST PUSH1 0x40 MLOAD DUP1 SWAP2 SUB SWAP1 REVERT JUMPDEST PUSH0 PUSH1 0x1 PUSH0 SWAP1 SLOAD SWAP1 PUSH2 0x100 EXP SWAP1 DIV PUSH20 0xFFFFFFFFFFFFFFFFFFFFFFFFFFFFFFFFFFFFFFFF AND PUSH20 0xFFFFFFFFFFFFFFFFFFFFFFFFFFFFFFFFFFFFFFFF AND PUSH4 0x70A08231 CALLER PUSH1 0x40 MLOAD DUP3 PUSH4 0xFFFFFFFF AND PUSH1 0xE0 SHL DUP2 MSTORE PUSH1 0x4 ADD PUSH2 0xEBB SWAP2 SWAP1 PUSH2 0x24D5 JUMP JUMPDEST PUSH1 0x20 PUSH1 0x40 MLOAD DUP1 DUP4 SUB DUP2 DUP7 GAS STATICCALL ISZERO DUP1 ISZERO PUSH2 0xED6 JUMPI RETURNDATASIZE PUSH0 DUP1 RETURNDATACOPY RETURNDATASIZE PUSH0 REVERT JUMPDEST POP POP POP POP PUSH1 0x40 MLOAD RETURNDATASIZE PUSH1 0x1F NOT PUSH1 0x1F DUP3 ADD AND DUP3 ADD DUP1 PUSH1 0x40 MSTORE POP DUP2 ADD SWAP1 PUSH2 0xEFA SWAP2 SWAP1 PUSH2 0x2442 JUMP JUMPDEST SWAP1 POP DUP3 DUP2 LT ISZERO PUSH2 0xF3F JUMPI PUSH1 0x40 MLOAD PUSH32 0x8C379A000000000000000000000000000000000000000000000000000000000 DUP2 MSTORE PUSH1 0x4 ADD PUSH2 0xF36 SWAP1 PUSH2 0x2538 JUMP JUMPDEST PUSH1 0x40 MLOAD DUP1 SWAP2 SUB SWAP1 REVERT JUMPDEST PUSH1 0x1 PUSH0 SWAP1 SLOAD SWAP1 PUSH2 0x100 EXP SWAP1 DIV PUSH20 0xFFFFFFFFFFFFFFFFFFFFFFFFFFFFFFFFFFFFFFFF AND PUSH20 0xFFFFFFFFFFFFFFFFFFFFFFFFFFFFFFFFFFFFFFFF AND PUSH4 0x23B872DD CALLER ADDRESS DUP7 PUSH1 0x40 MLOAD DUP5 PUSH4 0xFFFFFFFF AND PUSH1 0xE0 SHL DUP2 MSTORE PUSH1 0x4 ADD PUSH2 0xF9D SWAP4 SWAP3 SWAP2 SWAP1 PUSH2 0x2556 JUMP JUMPDEST PUSH1 0x20 PUSH1 0x40 MLOAD DUP1 DUP4 SUB DUP2 PUSH0 DUP8 GAS CALL ISZERO DUP1 ISZERO PUSH2 0xFB9 JUMPI RETURNDATASIZE PUSH0 DUP1 RETURNDATACOPY RETURNDATASIZE PUSH0 REVERT JUMPDEST POP POP POP POP PUSH1 0x40 MLOAD RETURNDATASIZE PUSH1 0x1F NOT PUSH1 0x1F DUP3 ADD AND DUP3 ADD DUP1 PUSH1 0x40 MSTORE POP DUP2 ADD SWAP1 PUSH2 0xFDD SWAP2 SWAP1 PUSH2 0x2082 JUMP JUMPDEST PUSH2 0x101C JUMPI PUSH1 0x40 MLOAD PUSH32 0x8C379A000000000000000000000000000000000000000000000000000000000 DUP2 MSTORE PUSH1 0x4 ADD PUSH2 0x1013 SWAP1 PUSH2 0x20F7 JUMP JUMPDEST PUSH1 0x40 MLOAD DUP1 SWAP2 SUB SWAP1 REVERT JUMPDEST PUSH1 0x40 MLOAD DUP1 PUSH1 0xA0 ADD PUSH1 0x40 MSTORE DUP1 DUP7 DUP2 MSTORE PUSH1 0x20 ADD DUP6 DUP2 MSTORE PUSH1 0x20 ADD DUP5 DUP2 MSTORE PUSH1 0x20 ADD PUSH0 DUP2 MSTORE PUSH1 0x20 ADD PUSH1 0x1 ISZERO ISZERO DUP2 MSTORE POP PUSH1 0x5 PUSH0 DUP9 DUP2 MSTORE PUSH1 0x20 ADD SWAP1 DUP2 MSTORE PUSH1 0x20 ADD PUSH0 KECCAK256 PUSH0 DUP8 DUP2 MSTORE PUSH1 0x20 ADD SWAP1 DUP2 MSTORE PUSH1 0x20 ADD PUSH0 KECCAK256 PUSH0 DUP7 DUP2 MSTORE PUSH1 0x20 ADD SWAP1 DUP2 MSTORE PUSH1 0x20 ADD PUSH0 KECCAK256 PUSH0 DUP3 ADD MLOAD DUP2 PUSH0 ADD SSTORE PUSH1 0x20 DUP3 ADD MLOAD DUP2 PUSH1 0x1 ADD SSTORE PUSH1 0x40 DUP3 ADD MLOAD DUP2 PUSH1 0x2 ADD SSTORE PUSH1 0x60 DUP3 ADD MLOAD DUP2 PUSH1 0x3 ADD SSTORE PUSH1 0x80 DUP3 ADD MLOAD DUP2 PUSH1 0x4 ADD PUSH0 PUSH2 0x100 EXP DUP2 SLOAD DUP2 PUSH1 0xFF MUL NOT AND SWAP1 DUP4 ISZERO ISZERO MUL OR SWAP1 SSTORE POP SWAP1 POP POP DUP4 DUP6 DUP8 PUSH32 0x7BBCA5EFEEBBED029B1684066D1A6E0ADE8EFE8C578AB0890D4B223E6EC5E50E DUP7 PUSH1 0x40 MLOAD PUSH2 0x10EF SWAP2 SWAP1 PUSH2 0x1E72 JUMP JUMPDEST PUSH1 0x40 MLOAD DUP1 SWAP2 SUB SWAP1 LOG4 POP POP POP POP POP POP JUMP JUMPDEST PUSH32 0xA49807205CE4D355092EF5A8A18F56E8913CF4A201FBE287825B095693C21775 PUSH2 0x1129 DUP2 PUSH2 0x13B8 JUMP JUMPDEST DUP3 PUSH1 0x1 PUSH0 PUSH2 0x100 EXP DUP2 SLOAD DUP2 PUSH20 0xFFFFFFFFFFFFFFFFFFFFFFFFFFFFFFFFFFFFFFFF MUL NOT AND SWAP1 DUP4 PUSH20 0xFFFFFFFFFFFFFFFFFFFFFFFFFFFFFFFFFFFFFFFF AND MUL OR SWAP1 SSTORE POP DUP2 PUSH1 0x2 PUSH0 PUSH2 0x100 EXP DUP2 SLOAD DUP2 PUSH20 0xFFFFFFFFFFFFFFFFFFFFFFFFFFFFFFFFFFFFFFFF MUL NOT AND SWAP1 DUP4 PUSH20 0xFFFFFFFFFFFFFFFFFFFFFFFFFFFFFFFFFFFFFFFF AND MUL OR SWAP1 SSTORE POP POP POP POP JUMP JUMPDEST PUSH2 0x11B7 DUP3 PUSH2 0x4E5 JUMP JUMPDEST PUSH2 0x11C0 DUP2 PUSH2 0x13B8 JUMP JUMPDEST PUSH2 0x11CA DUP4 DUP4 PUSH2 0x14AD JUMP JUMPDEST POP POP POP JUMP JUMPDEST PUSH1 0x1 PUSH0 SWAP1 SLOAD SWAP1 PUSH2 0x100 EXP SWAP1 DIV PUSH20 0xFFFFFFFFFFFFFFFFFFFFFFFFFFFFFFFFFFFFFFFF AND DUP2 JUMP JUMPDEST PUSH32 0xA49807205CE4D355092EF5A8A18F56E8913CF4A201FBE287825B095693C21775 PUSH2 0x121E DUP2 PUSH2 0x13B8 JUMP JUMPDEST PUSH1 0x5 PUSH0 DUP7 DUP2 MSTORE PUSH1 0x20 ADD SWAP1 DUP2 MSTORE PUSH1 0x20 ADD PUSH0 KECCAK256 PUSH0 DUP6 DUP2 MSTORE PUSH1 0x20 ADD SWAP1 DUP2 MSTORE PUSH1 0x20 ADD PUSH0 KECCAK256 PUSH0 DUP5 DUP2 MSTORE PUSH1 0x20 ADD SWAP1 DUP2 MSTORE PUSH1 0x20 ADD PUSH0 KECCAK256 PUSH1 0x4 ADD PUSH0 SWAP1 SLOAD SWAP1 PUSH2 0x100 EXP SWAP1 DIV PUSH1 0xFF AND PUSH2 0x129C JUMPI PUSH1 0x40 MLOAD PUSH32 0x8C379A000000000000000000000000000000000000000000000000000000000 DUP2 MSTORE PUSH1 0x4 ADD PUSH2 0x1293 SWAP1 PUSH2 0x25D5 JUMP JUMPDEST PUSH1 0x40 MLOAD DUP1 SWAP2 SUB SWAP1 REVERT JUMPDEST PUSH1 0x5 PUSH0 DUP7 DUP2 MSTORE PUSH1 0x20 ADD SWAP1 DUP2 MSTORE PUSH1 0x20 ADD PUSH0 KECCAK256 PUSH0 DUP6 DUP2 MSTORE PUSH1 0x20 ADD SWAP1 DUP2 MSTORE PUSH1 0x20 ADD PUSH0 KECCAK256 PUSH0 DUP5 DUP2 MSTORE PUSH1 0x20 ADD SWAP1 DUP2 MSTORE PUSH1 0x20 ADD PUSH0 KECCAK256 PUSH1 0x3 ADD SLOAD DUP3 GT ISZERO PUSH2 0x130E JUMPI DUP2 PUSH1 0x5 PUSH0 DUP8 DUP2 MSTORE PUSH1 0x20 ADD SWAP1 DUP2 MSTORE PUSH1 0x20 ADD PUSH0 KECCAK256 PUSH0 DUP7 DUP2 MSTORE PUSH1 0x20 ADD SWAP1 DUP2 MSTORE PUSH1 0x20 ADD PUSH0 KECCAK256 PUSH0 DUP6 DUP2 MSTORE PUSH1 0x20 ADD SWAP1 DUP2 MSTORE PUSH1 0x20 ADD PUSH0 KECCAK256 PUSH1 0x3 ADD DUP2 SWAP1 SSTORE POP JUMPDEST DUP3 DUP5 DUP7 PUSH32 0x2BBC9AD1871F4B99168AA3FEBE254B9069558FF96ED7746D1677869AFA38243F DUP6 PUSH1 0x40 MLOAD PUSH2 0x1340 SWAP2 SWAP1 PUSH2 0x1E72 JUMP JUMPDEST PUSH1 0x40 MLOAD DUP1 SWAP2 SUB SWAP1 LOG4 POP POP POP POP POP JUMP JUMPDEST PUSH0 PUSH32 0x1FFC9A700000000000000000000000000000000000000000000000000000000 PUSH28 0xFFFFFFFFFFFFFFFFFFFFFFFFFFFFFFFFFFFFFFFFFFFFFFFFFFFFFFFF NOT AND DUP3 PUSH28 0xFFFFFFFFFFFFFFFFFFFFFFFFFFFFFFFFFFFFFFFFFFFFFFFFFFFFFFFF NOT AND EQ SWAP1 POP SWAP2 SWAP1 POP JUMP JUMPDEST PUSH2 0x13C9 DUP2 PUSH2 0x13C4 PUSH2 0x14A6 JUMP JUMPDEST PUSH2 0x1587 JUMP JUMPDEST POP JUMP JUMPDEST PUSH2 0x13D6 DUP3 DUP3 PUSH2 0xA0E JUMP JUMPDEST PUSH2 0x14A2 JUMPI PUSH1 0x1 PUSH0 DUP1 DUP5 DUP2 MSTORE PUSH1 0x20 ADD SWAP1 DUP2 MSTORE PUSH1 0x20 ADD PUSH0 KECCAK256 PUSH0 ADD PUSH0 DUP4 PUSH20 0xFFFFFFFFFFFFFFFFFFFFFFFFFFFFFFFFFFFFFFFF AND PUSH20 0xFFFFFFFFFFFFFFFFFFFFFFFFFFFFFFFFFFFFFFFF AND DUP2 MSTORE PUSH1 0x20 ADD SWAP1 DUP2 MSTORE PUSH1 0x20 ADD PUSH0 KECCAK256 PUSH0 PUSH2 0x100 EXP DUP2 SLOAD DUP2 PUSH1 0xFF MUL NOT AND SWAP1 DUP4 ISZERO ISZERO MUL OR SWAP1 SSTORE POP PUSH2 0x1447 PUSH2 0x14A6 JUMP JUMPDEST PUSH20 0xFFFFFFFFFFFFFFFFFFFFFFFFFFFFFFFFFFFFFFFF AND DUP2 PUSH20 0xFFFFFFFFFFFFFFFFFFFFFFFFFFFFFFFFFFFFFFFF AND DUP4 PUSH32 0x2F8788117E7EFF1D82E926EC794901D17C78024A50270940304540A733656F0D PUSH1 0x40 MLOAD PUSH1 0x40 MLOAD DUP1 SWAP2 SUB SWAP1 LOG4 JUMPDEST POP POP JUMP JUMPDEST PUSH0 CALLER SWAP1 POP SWAP1 JUMP JUMPDEST PUSH2 0x14B7 DUP3 DUP3 PUSH2 0xA0E JUMP JUMPDEST ISZERO PUSH2 0x1583 JUMPI PUSH0 DUP1 PUSH0 DUP5 DUP2 MSTORE PUSH1 0x20 ADD SWAP1 DUP2 MSTORE PUSH1 0x20 ADD PUSH0 KECCAK256 PUSH0 ADD PUSH0 DUP4 PUSH20 0xFFFFFFFFFFFFFFFFFFFFFFFFFFFFFFFFFFFFFFFF AND PUSH20 0xFFFFFFFFFFFFFFFFFFFFFFFFFFFFFFFFFFFFFFFF AND DUP2 MSTORE PUSH1 0x20 ADD SWAP1 DUP2 MSTORE PUSH1 0x20 ADD PUSH0 KECCAK256 PUSH0 PUSH2 0x100 EXP DUP2 SLOAD DUP2 PUSH1 0xFF MUL NOT AND SWAP1 DUP4 ISZERO ISZERO MUL OR SWAP1 SSTORE POP PUSH2 0x1528 PUSH2 0x14A6 JUMP JUMPDEST PUSH20 0xFFFFFFFFFFFFFFFFFFFFFFFFFFFFFFFFFFFFFFFF AND DUP2 PUSH20 0xFFFFFFFFFFFFFFFFFFFFFFFFFFFFFFFFFFFFFFFF AND DUP4 PUSH32 0xF6391F5C32D9C69D2A47EA670B442974B53935D1EDC7FD64EB21E047A839171B PUSH1 0x40 MLOAD PUSH1 0x40 MLOAD DUP1 SWAP2 SUB SWAP1 LOG4 JUMPDEST POP POP JUMP JUMPDEST PUSH2 0x1591 DUP3 DUP3 PUSH2 0xA0E JUMP JUMPDEST PUSH2 0x1607 JUMPI PUSH2 0x159E DUP2 PUSH2 0x160B JUMP JUMPDEST PUSH2 0x15AB DUP4 PUSH0 SHR PUSH1 0x20 PUSH2 0x1638 JUMP JUMPDEST PUSH1 0x40 MLOAD PUSH1 0x20 ADD PUSH2 0x15BC SWAP3 SWAP2 SWAP1 PUSH2 0x26D9 JUMP JUMPDEST PUSH1 0x40 MLOAD PUSH1 0x20 DUP2 DUP4 SUB SUB DUP2 MSTORE SWAP1 PUSH1 0x40 MSTORE PUSH1 0x40 MLOAD PUSH32 0x8C379A000000000000000000000000000000000000000000000000000000000 DUP2 MSTORE PUSH1 0x4 ADD PUSH2 0x15FE SWAP2 SWAP1 PUSH2 0x275A JUMP JUMPDEST PUSH1 0x40 MLOAD DUP1 SWAP2 SUB SWAP1 REVERT JUMPDEST POP POP JUMP JUMPDEST PUSH1 0x60 PUSH2 0x1631 DUP3 PUSH20 0xFFFFFFFFFFFFFFFFFFFFFFFFFFFFFFFFFFFFFFFF AND PUSH1 0x14 PUSH1 0xFF AND PUSH2 0x1638 JUMP JUMPDEST SWAP1 POP SWAP2 SWAP1 POP JUMP JUMPDEST PUSH1 0x60 PUSH0 PUSH1 0x2 DUP4 PUSH1 0x2 PUSH2 0x164A SWAP2 SWAP1 PUSH2 0x27A7 JUMP JUMPDEST PUSH2 0x1654 SWAP2 SWAP1 PUSH2 0x27E8 JUMP JUMPDEST PUSH8 0xFFFFFFFFFFFFFFFF DUP2 GT ISZERO PUSH2 0x166D JUMPI PUSH2 0x166C PUSH2 0x281B JUMP JUMPDEST JUMPDEST PUSH1 0x40 MLOAD SWAP1 DUP1 DUP3 MSTORE DUP1 PUSH1 0x1F ADD PUSH1 0x1F NOT AND PUSH1 0x20 ADD DUP3 ADD PUSH1 0x40 MSTORE DUP1 ISZERO PUSH2 0x169F JUMPI DUP2 PUSH1 0x20 ADD PUSH1 0x1 DUP3 MUL DUP1 CALLDATASIZE DUP4 CALLDATACOPY DUP1 DUP3 ADD SWAP2 POP POP SWAP1 POP JUMPDEST POP SWAP1 POP PUSH32 0x3000000000000000000000000000000000000000000000000000000000000000 DUP2 PUSH0 DUP2 MLOAD DUP2 LT PUSH2 0x16D6 JUMPI PUSH2 0x16D5 PUSH2 0x1FF5 JUMP JUMPDEST JUMPDEST PUSH1 0x20 ADD ADD SWAP1 PUSH31 0xFFFFFFFFFFFFFFFFFFFFFFFFFFFFFFFFFFFFFFFFFFFFFFFFFFFFFFFFFFFFFF NOT AND SWAP1 DUP2 PUSH0 BYTE SWAP1 MSTORE8 POP PUSH32 0x7800000000000000000000000000000000000000000000000000000000000000 DUP2 PUSH1 0x1 DUP2 MLOAD DUP2 LT PUSH2 0x1739 JUMPI PUSH2 0x1738 PUSH2 0x1FF5 JUMP JUMPDEST JUMPDEST PUSH1 0x20 ADD ADD SWAP1 PUSH31 0xFFFFFFFFFFFFFFFFFFFFFFFFFFFFFFFFFFFFFFFFFFFFFFFFFFFFFFFFFFFFFF NOT AND SWAP1 DUP2 PUSH0 BYTE SWAP1 MSTORE8 POP PUSH0 PUSH1 0x1 DUP5 PUSH1 0x2 PUSH2 0x1777 SWAP2 SWAP1 PUSH2 0x27A7 JUMP JUMPDEST PUSH2 0x1781 SWAP2 SWAP1 PUSH2 0x27E8 JUMP JUMPDEST SWAP1 POP JUMPDEST PUSH1 0x1 DUP2 GT ISZERO PUSH2 0x1820 JUMPI PUSH32 0x3031323334353637383961626364656600000000000000000000000000000000 PUSH1 0xF DUP7 AND PUSH1 0x10 DUP2 LT PUSH2 0x17C3 JUMPI PUSH2 0x17C2 PUSH2 0x1FF5 JUMP JUMPDEST JUMPDEST BYTE PUSH1 0xF8 SHL DUP3 DUP3 DUP2 MLOAD DUP2 LT PUSH2 0x17DA JUMPI PUSH2 0x17D9 PUSH2 0x1FF5 JUMP JUMPDEST JUMPDEST PUSH1 0x20 ADD ADD SWAP1 PUSH31 0xFFFFFFFFFFFFFFFFFFFFFFFFFFFFFFFFFFFFFFFFFFFFFFFFFFFFFFFFFFFFFF NOT AND SWAP1 DUP2 PUSH0 BYTE SWAP1 MSTORE8 POP PUSH1 0x4 DUP6 SWAP1 SHR SWAP5 POP DUP1 PUSH2 0x1819 SWAP1 PUSH2 0x2848 JUMP JUMPDEST SWAP1 POP PUSH2 0x1784 JUMP JUMPDEST POP PUSH0 DUP5 EQ PUSH2 0x1863 JUMPI PUSH1 0x40 MLOAD PUSH32 0x8C379A000000000000000000000000000000000000000000000000000000000 DUP2 MSTORE PUSH1 0x4 ADD PUSH2 0x185A SWAP1 PUSH2 0x28B9 JUMP JUMPDEST PUSH1 0x40 MLOAD DUP1 SWAP2 SUB SWAP1 REVERT JUMPDEST DUP1 SWAP2 POP POP SWAP3 SWAP2 POP POP JUMP JUMPDEST PUSH1 0x40 MLOAD DUP1 PUSH1 0x20 ADD PUSH1 0x40 MSTORE DUP1 PUSH0 DUP2 MSTORE POP SWAP1 JUMP JUMPDEST PUSH0 DUP1 REVERT JUMPDEST PUSH0 DUP1 REVERT JUMPDEST PUSH0 PUSH32 0xFFFFFFFF00000000000000000000000000000000000000000000000000000000 DUP3 AND SWAP1 POP SWAP2 SWAP1 POP JUMP JUMPDEST PUSH2 0x18BB DUP2 PUSH2 0x1887 JUMP JUMPDEST DUP2 EQ PUSH2 0x18C5 JUMPI PUSH0 DUP1 REVERT JUMPDEST POP JUMP JUMPDEST PUSH0 DUP2 CALLDATALOAD SWAP1 POP PUSH2 0x18D6 DUP2 PUSH2 0x18B2 JUMP JUMPDEST SWAP3 SWAP2 POP POP JUMP JUMPDEST PUSH0 PUSH1 0x20 DUP3 DUP5 SUB SLT ISZERO PUSH2 0x18F1 JUMPI PUSH2 0x18F0 PUSH2 0x187F JUMP JUMPDEST JUMPDEST PUSH0 PUSH2 0x18FE DUP5 DUP3 DUP6 ADD PUSH2 0x18C8 JUMP JUMPDEST SWAP2 POP POP SWAP3 SWAP2 POP POP JUMP JUMPDEST PUSH0 DUP2 ISZERO ISZERO SWAP1 POP SWAP2 SWAP1 POP JUMP JUMPDEST PUSH2 0x191B DUP2 PUSH2 0x1907 JUMP JUMPDEST DUP3 MSTORE POP POP JUMP JUMPDEST PUSH0 PUSH1 0x20 DUP3 ADD SWAP1 POP PUSH2 0x1934 PUSH0 DUP4 ADD DUP5 PUSH2 0x1912 JUMP JUMPDEST SWAP3 SWAP2 POP POP JUMP JUMPDEST PUSH0 PUSH20 0xFFFFFFFFFFFFFFFFFFFFFFFFFFFFFFFFFFFFFFFF DUP3 AND SWAP1 POP SWAP2 SWAP1 POP JUMP JUMPDEST PUSH0 DUP2 SWAP1 POP SWAP2 SWAP1 POP JUMP JUMPDEST PUSH0 PUSH2 0x197C PUSH2 0x1977 PUSH2 0x1972 DUP5 PUSH2 0x193A JUMP JUMPDEST PUSH2 0x1959 JUMP JUMPDEST PUSH2 0x193A JUMP JUMPDEST SWAP1 POP SWAP2 SWAP1 POP JUMP JUMPDEST PUSH0 PUSH2 0x198D DUP3 PUSH2 0x1962 JUMP JUMPDEST SWAP1 POP SWAP2 SWAP1 POP JUMP JUMPDEST PUSH0 PUSH2 0x199E DUP3 PUSH2 0x1983 JUMP JUMPDEST SWAP1 POP SWAP2 SWAP1 POP JUMP JUMPDEST PUSH2 0x19AE DUP2 PUSH2 0x1994 JUMP JUMPDEST DUP3 MSTORE POP POP JUMP JUMPDEST PUSH0 PUSH1 0x20 DUP3 ADD SWAP1 POP PUSH2 0x19C7 PUSH0 DUP4 ADD DUP5 PUSH2 0x19A5 JUMP JUMPDEST SWAP3 SWAP2 POP POP JUMP JUMPDEST PUSH0 DUP2 SWAP1 POP SWAP2 SWAP1 POP JUMP JUMPDEST PUSH2 0x19DF DUP2 PUSH2 0x19CD JUMP JUMPDEST DUP2 EQ PUSH2 0x19E9 JUMPI PUSH0 DUP1 REVERT JUMPDEST POP JUMP JUMPDEST PUSH0 DUP2 CALLDATALOAD SWAP1 POP PUSH2 0x19FA DUP2 PUSH2 0x19D6 JUMP JUMPDEST SWAP3 SWAP2 POP POP JUMP JUMPDEST PUSH0 PUSH1 0x20 DUP3 DUP5 SUB SLT ISZERO PUSH2 0x1A15 JUMPI PUSH2 0x1A14 PUSH2 0x187F JUMP JUMPDEST JUMPDEST PUSH0 PUSH2 0x1A22 DUP5 DUP3 DUP6 ADD PUSH2 0x19EC JUMP JUMPDEST SWAP2 POP POP SWAP3 SWAP2 POP POP JUMP JUMPDEST PUSH2 0x1A34 DUP2 PUSH2 0x19CD JUMP JUMPDEST DUP3 MSTORE POP POP JUMP JUMPDEST PUSH0 PUSH1 0x20 DUP3 ADD SWAP1 POP PUSH2 0x1A4D PUSH0 DUP4 ADD DUP5 PUSH2 0x1A2B JUMP JUMPDEST SWAP3 SWAP2 POP POP JUMP JUMPDEST PUSH0 PUSH2 0x1A5D DUP3 PUSH2 0x193A JUMP JUMPDEST SWAP1 POP SWAP2 SWAP1 POP JUMP JUMPDEST PUSH2 0x1A6D DUP2 PUSH2 0x1A53 JUMP JUMPDEST DUP2 EQ PUSH2 0x1A77 JUMPI PUSH0 DUP1 REVERT JUMPDEST POP JUMP JUMPDEST PUSH0 DUP2 CALLDATALOAD SWAP1 POP PUSH2 0x1A88 DUP2 PUSH2 0x1A64 JUMP JUMPDEST SWAP3 SWAP2 POP POP JUMP JUMPDEST PUSH0 DUP1 PUSH1 0x40 DUP4 DUP6 SUB SLT ISZERO PUSH2 0x1AA4 JUMPI PUSH2 0x1AA3 PUSH2 0x187F JUMP JUMPDEST JUMPDEST PUSH0 PUSH2 0x1AB1 DUP6 DUP3 DUP7 ADD PUSH2 0x19EC JUMP JUMPDEST SWAP3 POP POP PUSH1 0x20 PUSH2 0x1AC2 DUP6 DUP3 DUP7 ADD PUSH2 0x1A7A JUMP JUMPDEST SWAP2 POP POP SWAP3 POP SWAP3 SWAP1 POP JUMP JUMPDEST PUSH0 DUP2 SWAP1 POP SWAP2 SWAP1 POP JUMP JUMPDEST PUSH2 0x1ADE DUP2 PUSH2 0x1ACC JUMP JUMPDEST DUP2 EQ PUSH2 0x1AE8 JUMPI PUSH0 DUP1 REVERT JUMPDEST POP JUMP JUMPDEST PUSH0 DUP2 CALLDATALOAD SWAP1 POP PUSH2 0x1AF9 DUP2 PUSH2 0x1AD5 JUMP JUMPDEST SWAP3 SWAP2 POP POP JUMP JUMPDEST PUSH0 DUP1 PUSH0 PUSH1 0x60 DUP5 DUP7 SUB SLT ISZERO PUSH2 0x1B16 JUMPI PUSH2 0x1B15 PUSH2 0x187F JUMP JUMPDEST JUMPDEST PUSH0 PUSH2 0x1B23 DUP7 DUP3 DUP8 ADD PUSH2 0x1AEB JUMP JUMPDEST SWAP4 POP POP PUSH1 0x20 PUSH2 0x1B34 DUP7 DUP3 DUP8 ADD PUSH2 0x1AEB JUMP JUMPDEST SWAP3 POP POP PUSH1 0x40 PUSH2 0x1B45 DUP7 DUP3 DUP8 ADD PUSH2 0x1AEB JUMP JUMPDEST SWAP2 POP POP SWAP3 POP SWAP3 POP SWAP3 JUMP JUMPDEST PUSH2 0x1B58 DUP2 PUSH2 0x1ACC JUMP JUMPDEST DUP3 MSTORE POP POP JUMP JUMPDEST PUSH0 PUSH1 0xA0 DUP3 ADD SWAP1 POP PUSH2 0x1B71 PUSH0 DUP4 ADD DUP9 PUSH2 0x1B4F JUMP JUMPDEST PUSH2 0x1B7E PUSH1 0x20 DUP4 ADD DUP8 PUSH2 0x1B4F JUMP JUMPDEST PUSH2 0x1B8B PUSH1 0x40 DUP4 ADD DUP7 PUSH2 0x1B4F JUMP JUMPDEST PUSH2 0x1B98 PUSH1 0x60 DUP4 ADD DUP6 PUSH2 0x1B4F JUMP JUMPDEST PUSH2 0x1BA5 PUSH1 0x80 DUP4 ADD DUP5 PUSH2 0x1912 JUMP JUMPDEST SWAP7 SWAP6 POP POP POP POP POP POP JUMP JUMPDEST PUSH0 DUP1 REVERT JUMPDEST PUSH0 DUP1 REVERT JUMPDEST PUSH0 DUP1 REVERT JUMPDEST PUSH0 DUP1 DUP4 PUSH1 0x1F DUP5 ADD SLT PUSH2 0x1BD0 JUMPI PUSH2 0x1BCF PUSH2 0x1BAF JUMP JUMPDEST JUMPDEST DUP3 CALLDATALOAD SWAP1 POP PUSH8 0xFFFFFFFFFFFFFFFF DUP2 GT ISZERO PUSH2 0x1BED JUMPI PUSH2 0x1BEC PUSH2 0x1BB3 JUMP JUMPDEST JUMPDEST PUSH1 0x20 DUP4 ADD SWAP2 POP DUP4 PUSH1 0x20 DUP3 MUL DUP4 ADD GT ISZERO PUSH2 0x1C09 JUMPI PUSH2 0x1C08 PUSH2 0x1BB7 JUMP JUMPDEST JUMPDEST SWAP3 POP SWAP3 SWAP1 POP JUMP JUMPDEST PUSH0 DUP1 DUP4 PUSH1 0x1F DUP5 ADD SLT PUSH2 0x1C25 JUMPI PUSH2 0x1C24 PUSH2 0x1BAF JUMP JUMPDEST JUMPDEST DUP3 CALLDATALOAD SWAP1 POP PUSH8 0xFFFFFFFFFFFFFFFF DUP2 GT ISZERO PUSH2 0x1C42 JUMPI PUSH2 0x1C41 PUSH2 0x1BB3 JUMP JUMPDEST JUMPDEST PUSH1 0x20 DUP4 ADD SWAP2 POP DUP4 PUSH1 0x20 DUP3 MUL DUP4 ADD GT ISZERO PUSH2 0x1C5E JUMPI PUSH2 0x1C5D PUSH2 0x1BB7 JUMP JUMPDEST JUMPDEST SWAP3 POP SWAP3 SWAP1 POP JUMP JUMPDEST PUSH0 DUP1 PUSH0 DUP1 PUSH1 0x40 DUP6 DUP8 SUB SLT ISZERO PUSH2 0x1C7D JUMPI PUSH2 0x1C7C PUSH2 0x187F JUMP JUMPDEST JUMPDEST PUSH0 DUP6 ADD CALLDATALOAD PUSH8 0xFFFFFFFFFFFFFFFF DUP2 GT ISZERO PUSH2 0x1C9A JUMPI PUSH2 0x1C99 PUSH2 0x1883 JUMP JUMPDEST JUMPDEST PUSH2 0x1CA6 DUP8 DUP3 DUP9 ADD PUSH2 0x1BBB JUMP JUMPDEST SWAP5 POP SWAP5 POP POP PUSH1 0x20 DUP6 ADD CALLDATALOAD PUSH8 0xFFFFFFFFFFFFFFFF DUP2 GT ISZERO PUSH2 0x1CC9 JUMPI PUSH2 0x1CC8 PUSH2 0x1883 JUMP JUMPDEST JUMPDEST PUSH2 0x1CD5 DUP8 DUP3 DUP9 ADD PUSH2 0x1C10 JUMP JUMPDEST SWAP3 POP SWAP3 POP POP SWAP3 SWAP6 SWAP2 SWAP5 POP SWAP3 POP JUMP JUMPDEST PUSH0 DUP1 PUSH0 DUP1 PUSH1 0x80 DUP6 DUP8 SUB SLT ISZERO PUSH2 0x1CFB JUMPI PUSH2 0x1CFA PUSH2 0x187F JUMP JUMPDEST JUMPDEST PUSH0 PUSH2 0x1D08 DUP8 DUP3 DUP9 ADD PUSH2 0x1AEB JUMP JUMPDEST SWAP5 POP POP PUSH1 0x20 PUSH2 0x1D19 DUP8 DUP3 DUP9 ADD PUSH2 0x1AEB JUMP JUMPDEST SWAP4 POP POP PUSH1 0x40 PUSH2 0x1D2A DUP8 DUP3 DUP9 ADD PUSH2 0x1AEB JUMP JUMPDEST SWAP3 POP POP PUSH1 0x60 PUSH2 0x1D3B DUP8 DUP3 DUP9 ADD PUSH2 0x1AEB JUMP JUMPDEST SWAP2 POP POP SWAP3 SWAP6 SWAP2 SWAP5 POP SWAP3 POP JUMP JUMPDEST PUSH0 PUSH1 0x80 DUP3 ADD SWAP1 POP PUSH2 0x1D5A PUSH0 DUP4 ADD DUP8 PUSH2 0x1B4F JUMP JUMPDEST PUSH2 0x1D67 PUSH1 0x20 DUP4 ADD DUP7 PUSH2 0x1B4F JUMP JUMPDEST PUSH2 0x1D74 PUSH1 0x40 DUP4 ADD DUP6 PUSH2 0x1B4F JUMP JUMPDEST PUSH2 0x1D81 PUSH1 0x60 DUP4 ADD DUP5 PUSH2 0x1912 JUMP JUMPDEST SWAP6 SWAP5 POP POP POP POP POP JUMP JUMPDEST PUSH0 PUSH1 0x20 DUP3 DUP5 SUB SLT ISZERO PUSH2 0x1D9F JUMPI PUSH2 0x1D9E PUSH2 0x187F JUMP JUMPDEST JUMPDEST PUSH0 PUSH2 0x1DAC DUP5 DUP3 DUP6 ADD PUSH2 0x1A7A JUMP JUMPDEST SWAP2 POP POP SWAP3 SWAP2 POP POP JUMP JUMPDEST PUSH0 PUSH1 0x20 DUP3 DUP5 SUB SLT ISZERO PUSH2 0x1DCA JUMPI PUSH2 0x1DC9 PUSH2 0x187F JUMP JUMPDEST JUMPDEST PUSH0 PUSH2 0x1DD7 DUP5 DUP3 DUP6 ADD PUSH2 0x1AEB JUMP JUMPDEST SWAP2 POP POP SWAP3 SWAP2 POP POP JUMP JUMPDEST PUSH2 0x1DE9 DUP2 PUSH2 0x1ACC JUMP JUMPDEST DUP3 MSTORE POP POP JUMP JUMPDEST PUSH1 0x20 DUP3 ADD PUSH0 DUP3 ADD MLOAD PUSH2 0x1E03 PUSH0 DUP6 ADD DUP3 PUSH2 0x1DE0 JUMP JUMPDEST POP POP POP POP JUMP JUMPDEST PUSH0 PUSH1 0x20 DUP3 ADD SWAP1 POP PUSH2 0x1E1C PUSH0 DUP4 ADD DUP5 PUSH2 0x1DEF JUMP JUMPDEST SWAP3 SWAP2 POP POP JUMP JUMPDEST PUSH0 DUP1 PUSH0 PUSH1 0x60 DUP5 DUP7 SUB SLT ISZERO PUSH2 0x1E39 JUMPI PUSH2 0x1E38 PUSH2 0x187F JUMP JUMPDEST JUMPDEST PUSH0 PUSH2 0x1E46 DUP7 DUP3 DUP8 ADD PUSH2 0x1AEB JUMP JUMPDEST SWAP4 POP POP PUSH1 0x20 PUSH2 0x1E57 DUP7 DUP3 DUP8 ADD PUSH2 0x1A7A JUMP JUMPDEST SWAP3 POP POP PUSH1 0x40 PUSH2 0x1E68 DUP7 DUP3 DUP8 ADD PUSH2 0x1AEB JUMP JUMPDEST SWAP2 POP POP SWAP3 POP SWAP3 POP SWAP3 JUMP JUMPDEST PUSH0 PUSH1 0x20 DUP3 ADD SWAP1 POP PUSH2 0x1E85 PUSH0 DUP4 ADD DUP5 PUSH2 0x1B4F JUMP JUMPDEST SWAP3 SWAP2 POP POP JUMP JUMPDEST PUSH0 DUP1 PUSH1 0x40 DUP4 DUP6 SUB SLT ISZERO PUSH2 0x1EA1 JUMPI PUSH2 0x1EA0 PUSH2 0x187F JUMP JUMPDEST JUMPDEST PUSH0 PUSH2 0x1EAE DUP6 DUP3 DUP7 ADD PUSH2 0x1A7A JUMP JUMPDEST SWAP3 POP POP PUSH1 0x20 PUSH2 0x1EBF DUP6 DUP3 DUP7 ADD PUSH2 0x1A7A JUMP JUMPDEST SWAP2 POP POP SWAP3 POP SWAP3 SWAP1 POP JUMP JUMPDEST PUSH0 DUP3 DUP3 MSTORE PUSH1 0x20 DUP3 ADD SWAP1 POP SWAP3 SWAP2 POP POP JUMP JUMPDEST PUSH32 0x416363657373436F6E74726F6C3A2063616E206F6E6C792072656E6F756E6365 PUSH0 DUP3 ADD MSTORE PUSH32 0x20726F6C657320666F722073656C660000000000000000000000000000000000 PUSH1 0x20 DUP3 ADD MSTORE POP JUMP JUMPDEST PUSH0 PUSH2 0x1F33 PUSH1 0x2F DUP4 PUSH2 0x1EC9 JUMP JUMPDEST SWAP2 POP PUSH2 0x1F3E DUP3 PUSH2 0x1ED9 JUMP JUMPDEST PUSH1 0x40 DUP3 ADD SWAP1 POP SWAP2 SWAP1 POP JUMP JUMPDEST PUSH0 PUSH1 0x20 DUP3 ADD SWAP1 POP DUP2 DUP2 SUB PUSH0 DUP4 ADD MSTORE PUSH2 0x1F60 DUP2 PUSH2 0x1F27 JUMP JUMPDEST SWAP1 POP SWAP2 SWAP1 POP JUMP JUMPDEST PUSH32 0x526563697069656E747320616E6420746F6B656E20616D6F756E7473206C656E PUSH0 DUP3 ADD MSTORE PUSH32 0x677468206D69736D617463680000000000000000000000000000000000000000 PUSH1 0x20 DUP3 ADD MSTORE POP JUMP JUMPDEST PUSH0 PUSH2 0x1FC1 PUSH1 0x2C DUP4 PUSH2 0x1EC9 JUMP JUMPDEST SWAP2 POP PUSH2 0x1FCC DUP3 PUSH2 0x1F67 JUMP JUMPDEST PUSH1 0x40 DUP3 ADD SWAP1 POP SWAP2 SWAP1 POP JUMP JUMPDEST PUSH0 PUSH1 0x20 DUP3 ADD SWAP1 POP DUP2 DUP2 SUB PUSH0 DUP4 ADD MSTORE PUSH2 0x1FEE DUP2 PUSH2 0x1FB5 JUMP JUMPDEST SWAP1 POP SWAP2 SWAP1 POP JUMP JUMPDEST PUSH32 0x4E487B7100000000000000000000000000000000000000000000000000000000 PUSH0 MSTORE PUSH1 0x32 PUSH1 0x4 MSTORE PUSH1 0x24 PUSH0 REVERT JUMPDEST PUSH2 0x202B DUP2 PUSH2 0x1A53 JUMP JUMPDEST DUP3 MSTORE POP POP JUMP JUMPDEST PUSH0 PUSH1 0x40 DUP3 ADD SWAP1 POP PUSH2 0x2044 PUSH0 DUP4 ADD DUP6 PUSH2 0x2022 JUMP JUMPDEST PUSH2 0x2051 PUSH1 0x20 DUP4 ADD DUP5 PUSH2 0x1B4F JUMP JUMPDEST SWAP4 SWAP3 POP POP POP JUMP JUMPDEST PUSH2 0x2061 DUP2 PUSH2 0x1907 JUMP JUMPDEST DUP2 EQ PUSH2 0x206B JUMPI PUSH0 DUP1 REVERT JUMPDEST POP JUMP JUMPDEST PUSH0 DUP2 MLOAD SWAP1 POP PUSH2 0x207C DUP2 PUSH2 0x2058 JUMP JUMPDEST SWAP3 SWAP2 POP POP JUMP JUMPDEST PUSH0 PUSH1 0x20 DUP3 DUP5 SUB SLT ISZERO PUSH2 0x2097 JUMPI PUSH2 0x2096 PUSH2 0x187F JUMP JUMPDEST JUMPDEST PUSH0 PUSH2 0x20A4 DUP5 DUP3 DUP6 ADD PUSH2 0x206E JUMP JUMPDEST SWAP2 POP POP SWAP3 SWAP2 POP POP JUMP JUMPDEST PUSH32 0x546F6B656E207472616E73666572206661696C65640000000000000000000000 PUSH0 DUP3 ADD MSTORE POP JUMP JUMPDEST PUSH0 PUSH2 0x20E1 PUSH1 0x15 DUP4 PUSH2 0x1EC9 JUMP JUMPDEST SWAP2 POP PUSH2 0x20EC DUP3 PUSH2 0x20AD JUMP JUMPDEST PUSH1 0x20 DUP3 ADD SWAP1 POP SWAP2 SWAP1 POP JUMP JUMPDEST PUSH0 PUSH1 0x20 DUP3 ADD SWAP1 POP DUP2 DUP2 SUB PUSH0 DUP4 ADD MSTORE PUSH2 0x210E DUP2 PUSH2 0x20D5 JUMP JUMPDEST SWAP1 POP SWAP2 SWAP1 POP JUMP JUMPDEST PUSH0 DUP3 DUP3 MSTORE PUSH1 0x20 DUP3 ADD SWAP1 POP SWAP3 SWAP2 POP POP JUMP JUMPDEST PUSH0 DUP2 SWAP1 POP SWAP2 SWAP1 POP JUMP JUMPDEST PUSH2 0x2137 DUP2 PUSH2 0x1A53 JUMP JUMPDEST DUP3 MSTORE POP POP JUMP JUMPDEST PUSH0 PUSH2 0x2148 DUP4 DUP4 PUSH2 0x212E JUMP JUMPDEST PUSH1 0x20 DUP4 ADD SWAP1 POP SWAP3 SWAP2 POP POP JUMP JUMPDEST PUSH0 PUSH2 0x2162 PUSH1 0x20 DUP5 ADD DUP5 PUSH2 0x1A7A JUMP JUMPDEST SWAP1 POP SWAP3 SWAP2 POP POP JUMP JUMPDEST PUSH0 PUSH1 0x20 DUP3 ADD SWAP1 POP SWAP2 SWAP1 POP JUMP JUMPDEST PUSH0 PUSH2 0x2181 DUP4 DUP6 PUSH2 0x2115 JUMP JUMPDEST SWAP4 POP PUSH2 0x218C DUP3 PUSH2 0x2125 JUMP JUMPDEST DUP1 PUSH0 JUMPDEST DUP6 DUP2 LT ISZERO PUSH2 0x21C4 JUMPI PUSH2 0x21A1 DUP3 DUP5 PUSH2 0x2154 JUMP JUMPDEST PUSH2 0x21AB DUP9 DUP3 PUSH2 0x213D JUMP JUMPDEST SWAP8 POP PUSH2 0x21B6 DUP4 PUSH2 0x216A JUMP JUMPDEST SWAP3 POP POP PUSH1 0x1 DUP2 ADD SWAP1 POP PUSH2 0x218F JUMP JUMPDEST POP DUP6 SWAP3 POP POP POP SWAP4 SWAP3 POP POP POP JUMP JUMPDEST PUSH0 DUP3 DUP3 MSTORE PUSH1 0x20 DUP3 ADD SWAP1 POP SWAP3 SWAP2 POP POP JUMP JUMPDEST PUSH0 DUP1 REVERT JUMPDEST DUP3 DUP2 DUP4 CALLDATACOPY POP POP POP JUMP JUMPDEST PUSH0 PUSH2 0x21F9 DUP4 DUP6 PUSH2 0x21D1 JUMP JUMPDEST SWAP4 POP PUSH32 0x7FFFFFFFFFFFFFFFFFFFFFFFFFFFFFFFFFFFFFFFFFFFFFFFFFFFFFFFFFFFFFF DUP4 GT ISZERO PUSH2 0x222C JUMPI PUSH2 0x222B PUSH2 0x21E1 JUMP JUMPDEST JUMPDEST PUSH1 0x20 DUP4 MUL SWAP3 POP PUSH2 0x223D DUP4 DUP6 DUP5 PUSH2 0x21E5 JUMP JUMPDEST DUP3 DUP5 ADD SWAP1 POP SWAP4 SWAP3 POP POP POP JUMP JUMPDEST PUSH0 PUSH1 0x40 DUP3 ADD SWAP1 POP DUP2 DUP2 SUB PUSH0 DUP4 ADD MSTORE PUSH2 0x2262 DUP2 DUP7 DUP9 PUSH2 0x2176 JUMP JUMPDEST SWAP1 POP DUP2 DUP2 SUB PUSH1 0x20 DUP4 ADD MSTORE PUSH2 0x2277 DUP2 DUP5 DUP7 PUSH2 0x21EE JUMP JUMPDEST SWAP1 POP SWAP6 SWAP5 POP POP POP POP POP JUMP JUMPDEST PUSH32 0x4D656D62657220646F6573206E6F742065786973740000000000000000000000 PUSH0 DUP3 ADD MSTORE POP JUMP JUMPDEST PUSH0 PUSH2 0x22B6 PUSH1 0x15 DUP4 PUSH2 0x1EC9 JUMP JUMPDEST SWAP2 POP PUSH2 0x22C1 DUP3 PUSH2 0x2282 JUMP JUMPDEST PUSH1 0x20 DUP3 ADD SWAP1 POP SWAP2 SWAP1 POP JUMP JUMPDEST PUSH0 PUSH1 0x20 DUP3 ADD SWAP1 POP DUP2 DUP2 SUB PUSH0 DUP4 ADD MSTORE PUSH2 0x22E3 DUP2 PUSH2 0x22AA JUMP JUMPDEST SWAP1 POP SWAP2 SWAP1 POP JUMP JUMPDEST PUSH32 0x4D656D62657220616C7265616479207265676973746572656400000000000000 PUSH0 DUP3 ADD MSTORE POP JUMP JUMPDEST PUSH0 PUSH2 0x231E PUSH1 0x19 DUP4 PUSH2 0x1EC9 JUMP JUMPDEST SWAP2 POP PUSH2 0x2329 DUP3 PUSH2 0x22EA JUMP JUMPDEST PUSH1 0x20 DUP3 ADD SWAP1 POP SWAP2 SWAP1 POP JUMP JUMPDEST PUSH0 PUSH1 0x20 DUP3 ADD SWAP1 POP DUP2 DUP2 SUB PUSH0 DUP4 ADD MSTORE PUSH2 0x234B DUP2 PUSH2 0x2312 JUMP JUMPDEST SWAP1 POP SWAP2 SWAP1 POP JUMP JUMPDEST PUSH0 PUSH1 0x40 DUP3 ADD SWAP1 POP PUSH2 0x2365 PUSH0 DUP4 ADD DUP6 PUSH2 0x1B4F JUMP JUMPDEST PUSH2 0x2372 PUSH1 0x20 DUP4 ADD DUP5 PUSH2 0x1B4F JUMP JUMPDEST SWAP4 SWAP3 POP POP POP JUMP JUMPDEST PUSH32 0x4368616C6C656E676520616C72656164792065786973747320666F7220746869 PUSH0 DUP3 ADD MSTORE PUSH32 0x73206D656D6265722C20646174652C20616E642067616D650000000000000000 PUSH1 0x20 DUP3 ADD MSTORE POP JUMP JUMPDEST PUSH0 PUSH2 0x23D3 PUSH1 0x38 DUP4 PUSH2 0x1EC9 JUMP JUMPDEST SWAP2 POP PUSH2 0x23DE DUP3 PUSH2 0x2379 JUMP JUMPDEST PUSH1 0x40 DUP3 ADD SWAP1 POP SWAP2 SWAP1 POP JUMP JUMPDEST PUSH0 PUSH1 0x20 DUP3 ADD SWAP1 POP DUP2 DUP2 SUB PUSH0 DUP4 ADD MSTORE PUSH2 0x2400 DUP2 PUSH2 0x23C7 JUMP JUMPDEST SWAP1 POP SWAP2 SWAP1 POP JUMP JUMPDEST PUSH0 PUSH1 0x40 DUP3 ADD SWAP1 POP PUSH2 0x241A PUSH0 DUP4 ADD DUP6 PUSH2 0x2022 JUMP JUMPDEST PUSH2 0x2427 PUSH1 0x20 DUP4 ADD DUP5 PUSH2 0x2022 JUMP JUMPDEST SWAP4 SWAP3 POP POP POP JUMP JUMPDEST PUSH0 DUP2 MLOAD SWAP1 POP PUSH2 0x243C DUP2 PUSH2 0x1AD5 JUMP JUMPDEST SWAP3 SWAP2 POP POP JUMP JUMPDEST PUSH0 PUSH1 0x20 DUP3 DUP5 SUB SLT ISZERO PUSH2 0x2457 JUMPI PUSH2 0x2456 PUSH2 0x187F JUMP JUMPDEST JUMPDEST PUSH0 PUSH2 0x2464 DUP5 DUP3 DUP6 ADD PUSH2 0x242E JUMP JUMPDEST SWAP2 POP POP SWAP3 SWAP2 POP POP JUMP JUMPDEST PUSH32 0x496E73756666696369656E7420746F6B656E20616C6C6F77616E636500000000 PUSH0 DUP3 ADD MSTORE POP JUMP JUMPDEST PUSH0 PUSH2 0x24A1 PUSH1 0x1C DUP4 PUSH2 0x1EC9 JUMP JUMPDEST SWAP2 POP PUSH2 0x24AC DUP3 PUSH2 0x246D JUMP JUMPDEST PUSH1 0x20 DUP3 ADD SWAP1 POP SWAP2 SWAP1 POP JUMP JUMPDEST PUSH0 PUSH1 0x20 DUP3 ADD SWAP1 POP DUP2 DUP2 SUB PUSH0 DUP4 ADD MSTORE PUSH2 0x24CE DUP2 PUSH2 0x2495 JUMP JUMPDEST SWAP1 POP SWAP2 SWAP1 POP JUMP JUMPDEST PUSH0 PUSH1 0x20 DUP3 ADD SWAP1 POP PUSH2 0x24E8 PUSH0 DUP4 ADD DUP5 PUSH2 0x2022 JUMP JUMPDEST SWAP3 SWAP2 POP POP JUMP JUMPDEST PUSH32 0x496E73756666696369656E7420746F6B656E2062616C616E6365000000000000 PUSH0 DUP3 ADD MSTORE POP JUMP JUMPDEST PUSH0 PUSH2 0x2522 PUSH1 0x1A DUP4 PUSH2 0x1EC9 JUMP JUMPDEST SWAP2 POP PUSH2 0x252D DUP3 PUSH2 0x24EE JUMP JUMPDEST PUSH1 0x20 DUP3 ADD SWAP1 POP SWAP2 SWAP1 POP JUMP JUMPDEST PUSH0 PUSH1 0x20 DUP3 ADD SWAP1 POP DUP2 DUP2 SUB PUSH0 DUP4 ADD MSTORE PUSH2 0x254F DUP2 PUSH2 0x2516 JUMP JUMPDEST SWAP1 POP SWAP2 SWAP1 POP JUMP JUMPDEST PUSH0 PUSH1 0x60 DUP3 ADD SWAP1 POP PUSH2 0x2569 PUSH0 DUP4 ADD DUP7 PUSH2 0x2022 JUMP JUMPDEST PUSH2 0x2576 PUSH1 0x20 DUP4 ADD DUP6 PUSH2 0x2022 JUMP JUMPDEST PUSH2 0x2583 PUSH1 0x40 DUP4 ADD DUP5 PUSH2 0x1B4F JUMP JUMPDEST SWAP5 SWAP4 POP POP POP POP JUMP JUMPDEST PUSH32 0x4368616C6C656E676520646F6573206E6F742065786973740000000000000000 PUSH0 DUP3 ADD MSTORE POP JUMP JUMPDEST PUSH0 PUSH2 0x25BF PUSH1 0x18 DUP4 PUSH2 0x1EC9 JUMP JUMPDEST SWAP2 POP PUSH2 0x25CA DUP3 PUSH2 0x258B JUMP JUMPDEST PUSH1 0x20 DUP3 ADD SWAP1 POP SWAP2 SWAP1 POP JUMP JUMPDEST PUSH0 PUSH1 0x20 DUP3 ADD SWAP1 POP DUP2 DUP2 SUB PUSH0 DUP4 ADD MSTORE PUSH2 0x25EC DUP2 PUSH2 0x25B3 JUMP JUMPDEST SWAP1 POP SWAP2 SWAP1 POP JUMP JUMPDEST PUSH0 DUP2 SWAP1 POP SWAP3 SWAP2 POP POP JUMP JUMPDEST PUSH32 0x416363657373436F6E74726F6C3A206163636F756E7420000000000000000000 PUSH0 DUP3 ADD MSTORE POP JUMP JUMPDEST PUSH0 PUSH2 0x2631 PUSH1 0x17 DUP4 PUSH2 0x25F3 JUMP JUMPDEST SWAP2 POP PUSH2 0x263C DUP3 PUSH2 0x25FD JUMP JUMPDEST PUSH1 0x17 DUP3 ADD SWAP1 POP SWAP2 SWAP1 POP JUMP JUMPDEST PUSH0 DUP2 MLOAD SWAP1 POP SWAP2 SWAP1 POP JUMP JUMPDEST DUP3 DUP2 DUP4 MCOPY PUSH0 DUP4 DUP4 ADD MSTORE POP POP POP JUMP JUMPDEST PUSH0 PUSH2 0x2669 DUP3 PUSH2 0x2647 JUMP JUMPDEST PUSH2 0x2673 DUP2 DUP6 PUSH2 0x25F3 JUMP JUMPDEST SWAP4 POP PUSH2 0x2683 DUP2 DUP6 PUSH1 0x20 DUP7 ADD PUSH2 0x2651 JUMP JUMPDEST DUP1 DUP5 ADD SWAP2 POP POP SWAP3 SWAP2 POP POP JUMP JUMPDEST PUSH32 0x206973206D697373696E6720726F6C6520000000000000000000000000000000 PUSH0 DUP3 ADD MSTORE POP JUMP JUMPDEST PUSH0 PUSH2 0x26C3 PUSH1 0x11 DUP4 PUSH2 0x25F3 JUMP JUMPDEST SWAP2 POP PUSH2 0x26CE DUP3 PUSH2 0x268F JUMP JUMPDEST PUSH1 0x11 DUP3 ADD SWAP1 POP SWAP2 SWAP1 POP JUMP JUMPDEST PUSH0 PUSH2 0x26E3 DUP3 PUSH2 0x2625 JUMP JUMPDEST SWAP2 POP PUSH2 0x26EF DUP3 DUP6 PUSH2 0x265F JUMP JUMPDEST SWAP2 POP PUSH2 0x26FA DUP3 PUSH2 0x26B7 JUMP JUMPDEST SWAP2 POP PUSH2 0x2706 DUP3 DUP5 PUSH2 0x265F JUMP JUMPDEST SWAP2 POP DUP2 SWAP1 POP SWAP4 SWAP3 POP POP POP JUMP JUMPDEST PUSH0 PUSH1 0x1F NOT PUSH1 0x1F DUP4 ADD AND SWAP1 POP SWAP2 SWAP1 POP JUMP JUMPDEST PUSH0 PUSH2 0x272C DUP3 PUSH2 0x2647 JUMP JUMPDEST PUSH2 0x2736 DUP2 DUP6 PUSH2 0x1EC9 JUMP JUMPDEST SWAP4 POP PUSH2 0x2746 DUP2 DUP6 PUSH1 0x20 DUP7 ADD PUSH2 0x2651 JUMP JUMPDEST PUSH2 0x274F DUP2 PUSH2 0x2712 JUMP JUMPDEST DUP5 ADD SWAP2 POP POP SWAP3 SWAP2 POP POP JUMP JUMPDEST PUSH0 PUSH1 0x20 DUP3 ADD SWAP1 POP DUP2 DUP2 SUB PUSH0 DUP4 ADD MSTORE PUSH2 0x2772 DUP2 DUP5 PUSH2 0x2722 JUMP JUMPDEST SWAP1 POP SWAP3 SWAP2 POP POP JUMP JUMPDEST PUSH32 0x4E487B7100000000000000000000000000000000000000000000000000000000 PUSH0 MSTORE PUSH1 0x11 PUSH1 0x4 MSTORE PUSH1 0x24 PUSH0 REVERT JUMPDEST PUSH0 PUSH2 0x27B1 DUP3 PUSH2 0x1ACC JUMP JUMPDEST SWAP2 POP PUSH2 0x27BC DUP4 PUSH2 0x1ACC JUMP JUMPDEST SWAP3 POP DUP3 DUP3 MUL PUSH2 0x27CA DUP2 PUSH2 0x1ACC JUMP JUMPDEST SWAP2 POP DUP3 DUP3 DIV DUP5 EQ DUP4 ISZERO OR PUSH2 0x27E1 JUMPI PUSH2 0x27E0 PUSH2 0x277A JUMP JUMPDEST JUMPDEST POP SWAP3 SWAP2 POP POP JUMP JUMPDEST PUSH0 PUSH2 0x27F2 DUP3 PUSH2 0x1ACC JUMP JUMPDEST SWAP2 POP PUSH2 0x27FD DUP4 PUSH2 0x1ACC JUMP JUMPDEST SWAP3 POP DUP3 DUP3 ADD SWAP1 POP DUP1 DUP3 GT ISZERO PUSH2 0x2815 JUMPI PUSH2 0x2814 PUSH2 0x277A JUMP JUMPDEST JUMPDEST SWAP3 SWAP2 POP POP JUMP JUMPDEST PUSH32 0x4E487B7100000000000000000000000000000000000000000000000000000000 PUSH0 MSTORE PUSH1 0x41 PUSH1 0x4 MSTORE PUSH1 0x24 PUSH0 REVERT JUMPDEST PUSH0 PUSH2 0x2852 DUP3 PUSH2 0x1ACC JUMP JUMPDEST SWAP2 POP PUSH0 DUP3 SUB PUSH2 0x2864 JUMPI PUSH2 0x2863 PUSH2 0x277A JUMP JUMPDEST JUMPDEST PUSH1 0x1 DUP3 SUB SWAP1 POP SWAP2 SWAP1 POP JUMP JUMPDEST PUSH32 0x537472696E67733A20686578206C656E67746820696E73756666696369656E74 PUSH0 DUP3 ADD MSTORE POP JUMP JUMPDEST PUSH0 PUSH2 0x28A3 PUSH1 0x20 DUP4 PUSH2 0x1EC9 JUMP JUMPDEST SWAP2 POP PUSH2 0x28AE DUP3 PUSH2 0x286F JUMP JUMPDEST PUSH1 0x20 DUP3 ADD SWAP1 POP SWAP2 SWAP1 POP JUMP JUMPDEST PUSH0 PUSH1 0x20 DUP3 ADD SWAP1 POP DUP2 DUP2 SUB PUSH0 DUP4 ADD MSTORE PUSH2 0x28D0 DUP2 PUSH2 0x2897 JUMP JUMPDEST SWAP1 POP SWAP2 SWAP1 POP JUMP INVALID LOG2 PUSH5 0x6970667358 0x22 SLT KECCAK256 PUSH13 0x62EDBEC63CB36C372FDED08DFF 0x2E DUP10 RETURNDATASIZE BLOCKHASH NOT 0xB2 DUP5 CALLDATACOPY PC PREVRANDAO DUP8 CREATE2 BLOCKHASH SSTORE 0xD0 0xB5 COINBASE CREATE PUSH5 0x736F6C6343 STOP ADDMOD BYTE STOP CALLER "
				},
				"gasEstimates": {
					"creation": {
						"codeDepositCost": "2101800",
						"executionCost": "infinite",
						"totalCost": "infinite"
					},
					"external": {
						"ADMIN_ROLE()": "392",
						"DEFAULT_ADMIN_ROLE()": "375",
						"challengeRegister(uint256,uint256,uint256,uint256)": "infinite",
						"challengeScores(uint256,uint256,uint256)": "infinite",
						"distributePrizes(address[],uint256[])": "infinite",
						"entToken()": "infinite",
						"getMemberInfo(uint256)": "infinite",
						"getRoleAdmin(bytes32)": "infinite",
						"grantAdminRole(address)": "infinite",
						"grantRole(bytes32,address)": "infinite",
						"hasRole(bytes32,address)": "3255",
						"memberInfos(uint256)": "infinite",
						"memberRegister(uint256,address,uint256)": "infinite",
						"normalScores(uint256,uint256,uint256)": "infinite",
						"rankScoreUpdateChallenge(uint256,uint256,uint256,uint256)": "infinite",
						"rankScoreUpdateNormal(uint256,uint256,uint256,uint256)": "infinite",
						"renounceRole(bytes32,address)": "infinite",
						"revokeAdminRole(address)": "infinite",
						"revokeRole(bytes32,address)": "infinite",
						"rptToken()": "infinite",
						"setTokens(address,address)": "infinite",
						"supportsInterface(bytes4)": "741"
					}
				},
				"methodIdentifiers": {
					"ADMIN_ROLE()": "75b238fc",
					"DEFAULT_ADMIN_ROLE()": "a217fddf",
					"challengeRegister(uint256,uint256,uint256,uint256)": "ca1c996f",
					"challengeScores(uint256,uint256,uint256)": "355b9d3f",
					"distributePrizes(address[],uint256[])": "406a378a",
					"entToken()": "dd0c8082",
					"getMemberInfo(uint256)": "ae99aa3c",
					"getRoleAdmin(bytes32)": "248a9ca3",
					"grantAdminRole(address)": "c634b78e",
					"grantRole(bytes32,address)": "2f2ff15d",
					"hasRole(bytes32,address)": "91d14854",
					"memberInfos(uint256)": "bb10ab0f",
					"memberRegister(uint256,address,uint256)": "aea08734",
					"normalScores(uint256,uint256,uint256)": "8afac670",
					"rankScoreUpdateChallenge(uint256,uint256,uint256,uint256)": "dd7d2b9f",
					"rankScoreUpdateNormal(uint256,uint256,uint256,uint256)": "8525ea16",
					"renounceRole(bytes32,address)": "36568abe",
					"revokeAdminRole(address)": "9a19c7b0",
					"revokeRole(bytes32,address)": "d547741f",
					"rptToken()": "1b72fa3a",
					"setTokens(address,address)": "cbc7854e",
					"supportsInterface(bytes4)": "01ffc9a7"
				}
			},
			"storageLayout": {
				"storage": [
					{
						"astId": 568,
						"contract": "contracts/v2/TikTrixEscrow.sol:TikTrixEscrow",
						"label": "_roles",
						"offset": 0,
						"slot": "0",
						"type": "t_mapping(t_bytes32,t_struct(RoleData)563_storage)"
					},
					{
						"astId": 23,
						"contract": "contracts/v2/TikTrixEscrow.sol:TikTrixEscrow",
						"label": "entToken",
						"offset": 0,
						"slot": "1",
						"type": "t_contract(IERC20Mintable)13"
					},
					{
						"astId": 26,
						"contract": "contracts/v2/TikTrixEscrow.sol:TikTrixEscrow",
						"label": "rptToken",
						"offset": 0,
						"slot": "2",
						"type": "t_contract(IERC20Mintable)13"
					},
					{
						"astId": 54,
						"contract": "contracts/v2/TikTrixEscrow.sol:TikTrixEscrow",
						"label": "memberInfos",
						"offset": 0,
						"slot": "3",
						"type": "t_mapping(t_uint256,t_struct(MemberInfo)29_storage)"
					},
					{
						"astId": 63,
						"contract": "contracts/v2/TikTrixEscrow.sol:TikTrixEscrow",
						"label": "normalScores",
						"offset": 0,
						"slot": "4",
						"type": "t_mapping(t_uint256,t_mapping(t_uint256,t_mapping(t_uint256,t_struct(NormalScore)38_storage)))"
					},
					{
						"astId": 72,
						"contract": "contracts/v2/TikTrixEscrow.sol:TikTrixEscrow",
						"label": "challengeScores",
						"offset": 0,
						"slot": "5",
						"type": "t_mapping(t_uint256,t_mapping(t_uint256,t_mapping(t_uint256,t_struct(ChallengeScore)49_storage)))"
					}
				],
				"types": {
					"t_address": {
						"encoding": "inplace",
						"label": "address",
						"numberOfBytes": "20"
					},
					"t_bool": {
						"encoding": "inplace",
						"label": "bool",
						"numberOfBytes": "1"
					},
					"t_bytes32": {
						"encoding": "inplace",
						"label": "bytes32",
						"numberOfBytes": "32"
					},
					"t_contract(IERC20Mintable)13": {
						"encoding": "inplace",
						"label": "contract IERC20Mintable",
						"numberOfBytes": "20"
					},
					"t_mapping(t_address,t_bool)": {
						"encoding": "mapping",
						"key": "t_address",
						"label": "mapping(address => bool)",
						"numberOfBytes": "32",
						"value": "t_bool"
					},
					"t_mapping(t_bytes32,t_struct(RoleData)563_storage)": {
						"encoding": "mapping",
						"key": "t_bytes32",
						"label": "mapping(bytes32 => struct AccessControl.RoleData)",
						"numberOfBytes": "32",
						"value": "t_struct(RoleData)563_storage"
					},
					"t_mapping(t_uint256,t_mapping(t_uint256,t_mapping(t_uint256,t_struct(ChallengeScore)49_storage)))": {
						"encoding": "mapping",
						"key": "t_uint256",
						"label": "mapping(uint256 => mapping(uint256 => mapping(uint256 => struct TikTrixEscrow.ChallengeScore)))",
						"numberOfBytes": "32",
						"value": "t_mapping(t_uint256,t_mapping(t_uint256,t_struct(ChallengeScore)49_storage))"
					},
					"t_mapping(t_uint256,t_mapping(t_uint256,t_mapping(t_uint256,t_struct(NormalScore)38_storage)))": {
						"encoding": "mapping",
						"key": "t_uint256",
						"label": "mapping(uint256 => mapping(uint256 => mapping(uint256 => struct TikTrixEscrow.NormalScore)))",
						"numberOfBytes": "32",
						"value": "t_mapping(t_uint256,t_mapping(t_uint256,t_struct(NormalScore)38_storage))"
					},
					"t_mapping(t_uint256,t_mapping(t_uint256,t_struct(ChallengeScore)49_storage))": {
						"encoding": "mapping",
						"key": "t_uint256",
						"label": "mapping(uint256 => mapping(uint256 => struct TikTrixEscrow.ChallengeScore))",
						"numberOfBytes": "32",
						"value": "t_mapping(t_uint256,t_struct(ChallengeScore)49_storage)"
					},
					"t_mapping(t_uint256,t_mapping(t_uint256,t_struct(NormalScore)38_storage))": {
						"encoding": "mapping",
						"key": "t_uint256",
						"label": "mapping(uint256 => mapping(uint256 => struct TikTrixEscrow.NormalScore))",
						"numberOfBytes": "32",
						"value": "t_mapping(t_uint256,t_struct(NormalScore)38_storage)"
					},
					"t_mapping(t_uint256,t_struct(ChallengeScore)49_storage)": {
						"encoding": "mapping",
						"key": "t_uint256",
						"label": "mapping(uint256 => struct TikTrixEscrow.ChallengeScore)",
						"numberOfBytes": "32",
						"value": "t_struct(ChallengeScore)49_storage"
					},
					"t_mapping(t_uint256,t_struct(MemberInfo)29_storage)": {
						"encoding": "mapping",
						"key": "t_uint256",
						"label": "mapping(uint256 => struct TikTrixEscrow.MemberInfo)",
						"numberOfBytes": "32",
						"value": "t_struct(MemberInfo)29_storage"
					},
					"t_mapping(t_uint256,t_struct(NormalScore)38_storage)": {
						"encoding": "mapping",
						"key": "t_uint256",
						"label": "mapping(uint256 => struct TikTrixEscrow.NormalScore)",
						"numberOfBytes": "32",
						"value": "t_struct(NormalScore)38_storage"
					},
					"t_struct(ChallengeScore)49_storage": {
						"encoding": "inplace",
						"label": "struct TikTrixEscrow.ChallengeScore",
						"members": [
							{
								"astId": 40,
								"contract": "contracts/v2/TikTrixEscrow.sol:TikTrixEscrow",
								"label": "gameSeq",
								"offset": 0,
								"slot": "0",
								"type": "t_uint256"
							},
							{
								"astId": 42,
								"contract": "contracts/v2/TikTrixEscrow.sol:TikTrixEscrow",
								"label": "memberSeq",
								"offset": 0,
								"slot": "1",
								"type": "t_uint256"
							},
							{
								"astId": 44,
								"contract": "contracts/v2/TikTrixEscrow.sol:TikTrixEscrow",
								"label": "tokenAmount",
								"offset": 0,
								"slot": "2",
								"type": "t_uint256"
							},
							{
								"astId": 46,
								"contract": "contracts/v2/TikTrixEscrow.sol:TikTrixEscrow",
								"label": "score",
								"offset": 0,
								"slot": "3",
								"type": "t_uint256"
							},
							{
								"astId": 48,
								"contract": "contracts/v2/TikTrixEscrow.sol:TikTrixEscrow",
								"label": "exists",
								"offset": 0,
								"slot": "4",
								"type": "t_bool"
							}
						],
						"numberOfBytes": "160"
					},
					"t_struct(MemberInfo)29_storage": {
						"encoding": "inplace",
						"label": "struct TikTrixEscrow.MemberInfo",
						"members": [
							{
								"astId": 28,
								"contract": "contracts/v2/TikTrixEscrow.sol:TikTrixEscrow",
								"label": "memberSeq",
								"offset": 0,
								"slot": "0",
								"type": "t_uint256"
							}
						],
						"numberOfBytes": "32"
					},
					"t_struct(NormalScore)38_storage": {
						"encoding": "inplace",
						"label": "struct TikTrixEscrow.NormalScore",
						"members": [
							{
								"astId": 31,
								"contract": "contracts/v2/TikTrixEscrow.sol:TikTrixEscrow",
								"label": "gameSeq",
								"offset": 0,
								"slot": "0",
								"type": "t_uint256"
							},
							{
								"astId": 33,
								"contract": "contracts/v2/TikTrixEscrow.sol:TikTrixEscrow",
								"label": "memberSeq",
								"offset": 0,
								"slot": "1",
								"type": "t_uint256"
							},
							{
								"astId": 35,
								"contract": "contracts/v2/TikTrixEscrow.sol:TikTrixEscrow",
								"label": "score",
								"offset": 0,
								"slot": "2",
								"type": "t_uint256"
							},
							{
								"astId": 37,
								"contract": "contracts/v2/TikTrixEscrow.sol:TikTrixEscrow",
								"label": "exists",
								"offset": 0,
								"slot": "3",
								"type": "t_bool"
							}
						],
						"numberOfBytes": "128"
					},
					"t_struct(RoleData)563_storage": {
						"encoding": "inplace",
						"label": "struct AccessControl.RoleData",
						"members": [
							{
								"astId": 560,
								"contract": "contracts/v2/TikTrixEscrow.sol:TikTrixEscrow",
								"label": "members",
								"offset": 0,
								"slot": "0",
								"type": "t_mapping(t_address,t_bool)"
							},
							{
								"astId": 562,
								"contract": "contracts/v2/TikTrixEscrow.sol:TikTrixEscrow",
								"label": "adminRole",
								"offset": 0,
								"slot": "1",
								"type": "t_bytes32"
							}
						],
						"numberOfBytes": "64"
					},
					"t_uint256": {
						"encoding": "inplace",
						"label": "uint256",
						"numberOfBytes": "32"
					}
				}
			},
			"userdoc": {
				"kind": "user",
				"methods": {},
				"version": 1
			}
		}
	}
}