{
	"data": {
		"bytecode": {
			"linkReferences": {},
			"object": "608060405234801561000f575f80fd5b506100225f801b3361005760201b60201c565b6100527fa49807205ce4d355092ef5a8a18f56e8913cf4a201fbe287825b095693c217753361005760201b60201c565b6101bb565b610067828261006b60201b60201c565b5050565b61007b828261015160201b60201c565b61014d5760015f808481526020019081526020015f205f015f8373ffffffffffffffffffffffffffffffffffffffff1673ffffffffffffffffffffffffffffffffffffffff1681526020019081526020015f205f6101000a81548160ff0219169083151502179055506100f26101b460201b60201c565b73ffffffffffffffffffffffffffffffffffffffff168173ffffffffffffffffffffffffffffffffffffffff16837f2f8788117e7eff1d82e926ec794901d17c78024a50270940304540a733656f0d60405160405180910390a45b5050565b5f805f8481526020019081526020015f205f015f8373ffffffffffffffffffffffffffffffffffffffff1673ffffffffffffffffffffffffffffffffffffffff1681526020019081526020015f205f9054906101000a900460ff16905092915050565b5f33905090565b6110e2806101c85f395ff3fe608060405234801561000f575f80fd5b50600436106100cd575f3560e01c80639a19c7b01161008a578063c02725f011610064578063c02725f01461020d578063c634b78e14610229578063d547741f14610245578063f58ee35414610261576100cd565b80639a19c7b0146101b7578063a217fddf146101d3578063aac2094a146101f1576100cd565b806301ffc9a7146100d1578063248a9ca3146101015780632f2ff15d1461013157806336568abe1461014d57806375b238fc1461016957806391d1485414610187575b5f80fd5b6100eb60048036038101906100e69190610ae5565b61027d565b6040516100f89190610b2a565b60405180910390f35b61011b60048036038101906101169190610b76565b6102f6565b6040516101289190610bb0565b60405180910390f35b61014b60048036038101906101469190610c23565b610312565b005b61016760048036038101906101629190610c23565b610333565b005b6101716103b6565b60405161017e9190610bb0565b60405180910390f35b6101a1600480360381019061019c9190610c23565b6103da565b6040516101ae9190610b2a565b60405180910390f35b6101d160048036038101906101cc9190610c61565b61043d565b005b6101db610477565b6040516101e89190610bb0565b60405180910390f35b61020b60048036038101906102069190610cbf565b61047d565b005b61022760048036038101906102229190610cbf565b6104af565b005b610243600480360381019061023e9190610c61565b6104e1565b005b61025f600480360381019061025a9190610c23565b61051b565b005b61027b60048036038101906102769190610cbf565b61053c565b005b5f7f7965db0b000000000000000000000000000000000000000000000000000000007bffffffffffffffffffffffffffffffffffffffffffffffffffffffff1916827bffffffffffffffffffffffffffffffffffffffffffffffffffffffff191614806102ef57506102ee8261056e565b5b9050919050565b5f805f8381526020019081526020015f20600101549050919050565b61031b826102f6565b610324816105d7565b61032e83836105eb565b505050565b61033b6106c5565b73ffffffffffffffffffffffffffffffffffffffff168173ffffffffffffffffffffffffffffffffffffffff16146103a8576040517f08c379a000000000000000000000000000000000000000000000000000000000815260040161039f90610d7d565b60405180910390fd5b6103b282826106cc565b5050565b7fa49807205ce4d355092ef5a8a18f56e8913cf4a201fbe287825b095693c2177581565b5f805f8481526020019081526020015f205f015f8373ffffffffffffffffffffffffffffffffffffffff1673ffffffffffffffffffffffffffffffffffffffff1681526020019081526020015f205f9054906101000a900460ff16905092915050565b5f801b610449816105d7565b6104737fa49807205ce4d355092ef5a8a18f56e8913cf4a201fbe287825b095693c217758361051b565b5050565b5f801b81565b80827f4c4660db760944215f41e957066d756ad5fd0eed1b4640632322eb06f77b034d60405160405180910390a35050565b80827fcccca5c37cd734d94742d46e24d5fcdc3e6ef8dd90dda510dae0e35530add4a260405160405180910390a35050565b5f801b6104ed816105d7565b6105177fa49807205ce4d355092ef5a8a18f56e8913cf4a201fbe287825b095693c2177583610312565b5050565b610524826102f6565b61052d816105d7565b61053783836106cc565b505050565b80827f51dbb46f6f6d290ac0b2b3fb0b015e2065756f1b9ec382651fe728757bf362fe60405160405180910390a35050565b5f7f01ffc9a7000000000000000000000000000000000000000000000000000000007bffffffffffffffffffffffffffffffffffffffffffffffffffffffff1916827bffffffffffffffffffffffffffffffffffffffffffffffffffffffff1916149050919050565b6105e8816105e36106c5565b6107a6565b50565b6105f582826103da565b6106c15760015f808481526020019081526020015f205f015f8373ffffffffffffffffffffffffffffffffffffffff1673ffffffffffffffffffffffffffffffffffffffff1681526020019081526020015f205f6101000a81548160ff0219169083151502179055506106666106c5565b73ffffffffffffffffffffffffffffffffffffffff168173ffffffffffffffffffffffffffffffffffffffff16837f2f8788117e7eff1d82e926ec794901d17c78024a50270940304540a733656f0d60405160405180910390a45b5050565b5f33905090565b6106d682826103da565b156107a2575f805f8481526020019081526020015f205f015f8373ffffffffffffffffffffffffffffffffffffffff1673ffffffffffffffffffffffffffffffffffffffff1681526020019081526020015f205f6101000a81548160ff0219169083151502179055506107476106c5565b73ffffffffffffffffffffffffffffffffffffffff168173ffffffffffffffffffffffffffffffffffffffff16837ff6391f5c32d9c69d2a47ea670b442974b53935d1edc7fd64eb21e047a839171b60405160405180910390a45b5050565b6107b082826103da565b610826576107bd8161082a565b6107ca835f1c6020610857565b6040516020016107db929190610e81565b6040516020818303038152906040526040517f08c379a000000000000000000000000000000000000000000000000000000000815260040161081d9190610f02565b60405180910390fd5b5050565b60606108508273ffffffffffffffffffffffffffffffffffffffff16601460ff16610857565b9050919050565b60605f60028360026108699190610f4f565b6108739190610f90565b67ffffffffffffffff81111561088c5761088b610fc3565b5b6040519080825280601f01601f1916602001820160405280156108be5781602001600182028036833780820191505090505b5090507f3000000000000000000000000000000000000000000000000000000000000000815f815181106108f5576108f4610ff0565b5b60200101907effffffffffffffffffffffffffffffffffffffffffffffffffffffffffffff191690815f1a9053507f78000000000000000000000000000000000000000000000000000000000000008160018151811061095857610957610ff0565b5b60200101907effffffffffffffffffffffffffffffffffffffffffffffffffffffffffffff191690815f1a9053505f60018460026109969190610f4f565b6109a09190610f90565b90505b6001811115610a3f577f3031323334353637383961626364656600000000000000000000000000000000600f8616601081106109e2576109e1610ff0565b5b1a60f81b8282815181106109f9576109f8610ff0565b5b60200101907effffffffffffffffffffffffffffffffffffffffffffffffffffffffffffff191690815f1a905350600485901c945080610a389061101d565b90506109a3565b505f8414610a82576040517f08c379a0000000000000000000000000000000000000000000000000000000008152600401610a799061108e565b60405180910390fd5b8091505092915050565b5f80fd5b5f7fffffffff0000000000000000000000000000000000000000000000000000000082169050919050565b610ac481610a90565b8114610ace575f80fd5b50565b5f81359050610adf81610abb565b92915050565b5f60208284031215610afa57610af9610a8c565b5b5f610b0784828501610ad1565b91505092915050565b5f8115159050919050565b610b2481610b10565b82525050565b5f602082019050610b3d5f830184610b1b565b92915050565b5f819050919050565b610b5581610b43565b8114610b5f575f80fd5b50565b5f81359050610b7081610b4c565b92915050565b5f60208284031215610b8b57610b8a610a8c565b5b5f610b9884828501610b62565b91505092915050565b610baa81610b43565b82525050565b5f602082019050610bc35f830184610ba1565b92915050565b5f73ffffffffffffffffffffffffffffffffffffffff82169050919050565b5f610bf282610bc9565b9050919050565b610c0281610be8565b8114610c0c575f80fd5b50565b5f81359050610c1d81610bf9565b92915050565b5f8060408385031215610c3957610c38610a8c565b5b5f610c4685828601610b62565b9250506020610c5785828601610c0f565b9150509250929050565b5f60208284031215610c7657610c75610a8c565b5b5f610c8384828501610c0f565b91505092915050565b5f819050919050565b610c9e81610c8c565b8114610ca8575f80fd5b50565b5f81359050610cb981610c95565b92915050565b5f8060408385031215610cd557610cd4610a8c565b5b5f610ce285828601610cab565b9250506020610cf385828601610cab565b9150509250929050565b5f82825260208201905092915050565b7f416363657373436f6e74726f6c3a2063616e206f6e6c792072656e6f756e63655f8201527f20726f6c657320666f722073656c660000000000000000000000000000000000602082015250565b5f610d67602f83610cfd565b9150610d7282610d0d565b604082019050919050565b5f6020820190508181035f830152610d9481610d5b565b9050919050565b5f81905092915050565b7f416363657373436f6e74726f6c3a206163636f756e74200000000000000000005f82015250565b5f610dd9601783610d9b565b9150610de482610da5565b601782019050919050565b5f81519050919050565b8281835e5f83830152505050565b5f610e1182610def565b610e1b8185610d9b565b9350610e2b818560208601610df9565b80840191505092915050565b7f206973206d697373696e6720726f6c65200000000000000000000000000000005f82015250565b5f610e6b601183610d9b565b9150610e7682610e37565b601182019050919050565b5f610e8b82610dcd565b9150610e978285610e07565b9150610ea282610e5f565b9150610eae8284610e07565b91508190509392505050565b5f601f19601f8301169050919050565b5f610ed482610def565b610ede8185610cfd565b9350610eee818560208601610df9565b610ef781610eba565b840191505092915050565b5f6020820190508181035f830152610f1a8184610eca565b905092915050565b7f4e487b71000000000000000000000000000000000000000000000000000000005f52601160045260245ffd5b5f610f5982610c8c565b9150610f6483610c8c565b9250828202610f7281610c8c565b91508282048414831517610f8957610f88610f22565b5b5092915050565b5f610f9a82610c8c565b9150610fa583610c8c565b9250828201905080821115610fbd57610fbc610f22565b5b92915050565b7f4e487b71000000000000000000000000000000000000000000000000000000005f52604160045260245ffd5b7f4e487b71000000000000000000000000000000000000000000000000000000005f52603260045260245ffd5b5f61102782610c8c565b91505f820361103957611038610f22565b5b600182039050919050565b7f537472696e67733a20686578206c656e67746820696e73756666696369656e745f82015250565b5f611078602083610cfd565b915061108382611044565b602082019050919050565b5f6020820190508181035f8301526110a58161106c565b905091905056fea2646970667358221220b9ca4acf1d32f4ae795e6f1afffb5f998e1cc2cf7ff242c6d924264c8c91c33064736f6c634300081a0033",
			"opcodes": "PUSH1 0x80 PUSH1 0x40 MSTORE CALLVALUE DUP1 ISZERO PUSH2 0xF JUMPI PUSH0 DUP1 REVERT JUMPDEST POP PUSH2 0x22 PUSH0 DUP1 SHL CALLER PUSH2 0x57 PUSH1 0x20 SHL PUSH1 0x20 SHR JUMP JUMPDEST PUSH2 0x52 PUSH32 0xA49807205CE4D355092EF5A8A18F56E8913CF4A201FBE287825B095693C21775 CALLER PUSH2 0x57 PUSH1 0x20 SHL PUSH1 0x20 SHR JUMP JUMPDEST PUSH2 0x1BB JUMP JUMPDEST PUSH2 0x67 DUP3 DUP3 PUSH2 0x6B PUSH1 0x20 SHL PUSH1 0x20 SHR JUMP JUMPDEST POP POP JUMP JUMPDEST PUSH2 0x7B DUP3 DUP3 PUSH2 0x151 PUSH1 0x20 SHL PUSH1 0x20 SHR JUMP JUMPDEST PUSH2 0x14D JUMPI PUSH1 0x1 PUSH0 DUP1 DUP5 DUP2 MSTORE PUSH1 0x20 ADD SWAP1 DUP2 MSTORE PUSH1 0x20 ADD PUSH0 KECCAK256 PUSH0 ADD PUSH0 DUP4 PUSH20 0xFFFFFFFFFFFFFFFFFFFFFFFFFFFFFFFFFFFFFFFF AND PUSH20 0xFFFFFFFFFFFFFFFFFFFFFFFFFFFFFFFFFFFFFFFF AND DUP2 MSTORE PUSH1 0x20 ADD SWAP1 DUP2 MSTORE PUSH1 0x20 ADD PUSH0 KECCAK256 PUSH0 PUSH2 0x100 EXP DUP2 SLOAD DUP2 PUSH1 0xFF MUL NOT AND SWAP1 DUP4 ISZERO ISZERO MUL OR SWAP1 SSTORE POP PUSH2 0xF2 PUSH2 0x1B4 PUSH1 0x20 SHL PUSH1 0x20 SHR JUMP JUMPDEST PUSH20 0xFFFFFFFFFFFFFFFFFFFFFFFFFFFFFFFFFFFFFFFF AND DUP2 PUSH20 0xFFFFFFFFFFFFFFFFFFFFFFFFFFFFFFFFFFFFFFFF AND DUP4 PUSH32 0x2F8788117E7EFF1D82E926EC794901D17C78024A50270940304540A733656F0D PUSH1 0x40 MLOAD PUSH1 0x40 MLOAD DUP1 SWAP2 SUB SWAP1 LOG4 JUMPDEST POP POP JUMP JUMPDEST PUSH0 DUP1 PUSH0 DUP5 DUP2 MSTORE PUSH1 0x20 ADD SWAP1 DUP2 MSTORE PUSH1 0x20 ADD PUSH0 KECCAK256 PUSH0 ADD PUSH0 DUP4 PUSH20 0xFFFFFFFFFFFFFFFFFFFFFFFFFFFFFFFFFFFFFFFF AND PUSH20 0xFFFFFFFFFFFFFFFFFFFFFFFFFFFFFFFFFFFFFFFF AND DUP2 MSTORE PUSH1 0x20 ADD SWAP1 DUP2 MSTORE PUSH1 0x20 ADD PUSH0 KECCAK256 PUSH0 SWAP1 SLOAD SWAP1 PUSH2 0x100 EXP SWAP1 DIV PUSH1 0xFF AND SWAP1 POP SWAP3 SWAP2 POP POP JUMP JUMPDEST PUSH0 CALLER SWAP1 POP SWAP1 JUMP JUMPDEST PUSH2 0x10E2 DUP1 PUSH2 0x1C8 PUSH0 CODECOPY PUSH0 RETURN INVALID PUSH1 0x80 PUSH1 0x40 MSTORE CALLVALUE DUP1 ISZERO PUSH2 0xF JUMPI PUSH0 DUP1 REVERT JUMPDEST POP PUSH1 0x4 CALLDATASIZE LT PUSH2 0xCD JUMPI PUSH0 CALLDATALOAD PUSH1 0xE0 SHR DUP1 PUSH4 0x9A19C7B0 GT PUSH2 0x8A JUMPI DUP1 PUSH4 0xC02725F0 GT PUSH2 0x64 JUMPI DUP1 PUSH4 0xC02725F0 EQ PUSH2 0x20D JUMPI DUP1 PUSH4 0xC634B78E EQ PUSH2 0x229 JUMPI DUP1 PUSH4 0xD547741F EQ PUSH2 0x245 JUMPI DUP1 PUSH4 0xF58EE354 EQ PUSH2 0x261 JUMPI PUSH2 0xCD JUMP JUMPDEST DUP1 PUSH4 0x9A19C7B0 EQ PUSH2 0x1B7 JUMPI DUP1 PUSH4 0xA217FDDF EQ PUSH2 0x1D3 JUMPI DUP1 PUSH4 0xAAC2094A EQ PUSH2 0x1F1 JUMPI PUSH2 0xCD JUMP JUMPDEST DUP1 PUSH4 0x1FFC9A7 EQ PUSH2 0xD1 JUMPI DUP1 PUSH4 0x248A9CA3 EQ PUSH2 0x101 JUMPI DUP1 PUSH4 0x2F2FF15D EQ PUSH2 0x131 JUMPI DUP1 PUSH4 0x36568ABE EQ PUSH2 0x14D JUMPI DUP1 PUSH4 0x75B238FC EQ PUSH2 0x169 JUMPI DUP1 PUSH4 0x91D14854 EQ PUSH2 0x187 JUMPI JUMPDEST PUSH0 DUP1 REVERT JUMPDEST PUSH2 0xEB PUSH1 0x4 DUP1 CALLDATASIZE SUB DUP2 ADD SWAP1 PUSH2 0xE6 SWAP2 SWAP1 PUSH2 0xAE5 JUMP JUMPDEST PUSH2 0x27D JUMP JUMPDEST PUSH1 0x40 MLOAD PUSH2 0xF8 SWAP2 SWAP1 PUSH2 0xB2A JUMP JUMPDEST PUSH1 0x40 MLOAD DUP1 SWAP2 SUB SWAP1 RETURN JUMPDEST PUSH2 0x11B PUSH1 0x4 DUP1 CALLDATASIZE SUB DUP2 ADD SWAP1 PUSH2 0x116 SWAP2 SWAP1 PUSH2 0xB76 JUMP JUMPDEST PUSH2 0x2F6 JUMP JUMPDEST PUSH1 0x40 MLOAD PUSH2 0x128 SWAP2 SWAP1 PUSH2 0xBB0 JUMP JUMPDEST PUSH1 0x40 MLOAD DUP1 SWAP2 SUB SWAP1 RETURN JUMPDEST PUSH2 0x14B PUSH1 0x4 DUP1 CALLDATASIZE SUB DUP2 ADD SWAP1 PUSH2 0x146 SWAP2 SWAP1 PUSH2 0xC23 JUMP JUMPDEST PUSH2 0x312 JUMP JUMPDEST STOP JUMPDEST PUSH2 0x167 PUSH1 0x4 DUP1 CALLDATASIZE SUB DUP2 ADD SWAP1 PUSH2 0x162 SWAP2 SWAP1 PUSH2 0xC23 JUMP JUMPDEST PUSH2 0x333 JUMP JUMPDEST STOP JUMPDEST PUSH2 0x171 PUSH2 0x3B6 JUMP JUMPDEST PUSH1 0x40 MLOAD PUSH2 0x17E SWAP2 SWAP1 PUSH2 0xBB0 JUMP JUMPDEST PUSH1 0x40 MLOAD DUP1 SWAP2 SUB SWAP1 RETURN JUMPDEST PUSH2 0x1A1 PUSH1 0x4 DUP1 CALLDATASIZE SUB DUP2 ADD SWAP1 PUSH2 0x19C SWAP2 SWAP1 PUSH2 0xC23 JUMP JUMPDEST PUSH2 0x3DA JUMP JUMPDEST PUSH1 0x40 MLOAD PUSH2 0x1AE SWAP2 SWAP1 PUSH2 0xB2A JUMP JUMPDEST PUSH1 0x40 MLOAD DUP1 SWAP2 SUB SWAP1 RETURN JUMPDEST PUSH2 0x1D1 PUSH1 0x4 DUP1 CALLDATASIZE SUB DUP2 ADD SWAP1 PUSH2 0x1CC SWAP2 SWAP1 PUSH2 0xC61 JUMP JUMPDEST PUSH2 0x43D JUMP JUMPDEST STOP JUMPDEST PUSH2 0x1DB PUSH2 0x477 JUMP JUMPDEST PUSH1 0x40 MLOAD PUSH2 0x1E8 SWAP2 SWAP1 PUSH2 0xBB0 JUMP JUMPDEST PUSH1 0x40 MLOAD DUP1 SWAP2 SUB SWAP1 RETURN JUMPDEST PUSH2 0x20B PUSH1 0x4 DUP1 CALLDATASIZE SUB DUP2 ADD SWAP1 PUSH2 0x206 SWAP2 SWAP1 PUSH2 0xCBF JUMP JUMPDEST PUSH2 0x47D JUMP JUMPDEST STOP JUMPDEST PUSH2 0x227 PUSH1 0x4 DUP1 CALLDATASIZE SUB DUP2 ADD SWAP1 PUSH2 0x222 SWAP2 SWAP1 PUSH2 0xCBF JUMP JUMPDEST PUSH2 0x4AF JUMP JUMPDEST STOP JUMPDEST PUSH2 0x243 PUSH1 0x4 DUP1 CALLDATASIZE SUB DUP2 ADD SWAP1 PUSH2 0x23E SWAP2 SWAP1 PUSH2 0xC61 JUMP JUMPDEST PUSH2 0x4E1 JUMP JUMPDEST STOP JUMPDEST PUSH2 0x25F PUSH1 0x4 DUP1 CALLDATASIZE SUB DUP2 ADD SWAP1 PUSH2 0x25A SWAP2 SWAP1 PUSH2 0xC23 JUMP JUMPDEST PUSH2 0x51B JUMP JUMPDEST STOP JUMPDEST PUSH2 0x27B PUSH1 0x4 DUP1 CALLDATASIZE SUB DUP2 ADD SWAP1 PUSH2 0x276 SWAP2 SWAP1 PUSH2 0xCBF JUMP JUMPDEST PUSH2 0x53C JUMP JUMPDEST STOP JUMPDEST PUSH0 PUSH32 0x7965DB0B00000000000000000000000000000000000000000000000000000000 PUSH28 0xFFFFFFFFFFFFFFFFFFFFFFFFFFFFFFFFFFFFFFFFFFFFFFFFFFFFFFFF NOT AND DUP3 PUSH28 0xFFFFFFFFFFFFFFFFFFFFFFFFFFFFFFFFFFFFFFFFFFFFFFFFFFFFFFFF NOT AND EQ DUP1 PUSH2 0x2EF JUMPI POP PUSH2 0x2EE DUP3 PUSH2 0x56E JUMP JUMPDEST JUMPDEST SWAP1 POP SWAP2 SWAP1 POP JUMP JUMPDEST PUSH0 DUP1 PUSH0 DUP4 DUP2 MSTORE PUSH1 0x20 ADD SWAP1 DUP2 MSTORE PUSH1 0x20 ADD PUSH0 KECCAK256 PUSH1 0x1 ADD SLOAD SWAP1 POP SWAP2 SWAP1 POP JUMP JUMPDEST PUSH2 0x31B DUP3 PUSH2 0x2F6 JUMP JUMPDEST PUSH2 0x324 DUP2 PUSH2 0x5D7 JUMP JUMPDEST PUSH2 0x32E DUP4 DUP4 PUSH2 0x5EB JUMP JUMPDEST POP POP POP JUMP JUMPDEST PUSH2 0x33B PUSH2 0x6C5 JUMP JUMPDEST PUSH20 0xFFFFFFFFFFFFFFFFFFFFFFFFFFFFFFFFFFFFFFFF AND DUP2 PUSH20 0xFFFFFFFFFFFFFFFFFFFFFFFFFFFFFFFFFFFFFFFF AND EQ PUSH2 0x3A8 JUMPI PUSH1 0x40 MLOAD PUSH32 0x8C379A000000000000000000000000000000000000000000000000000000000 DUP2 MSTORE PUSH1 0x4 ADD PUSH2 0x39F SWAP1 PUSH2 0xD7D JUMP JUMPDEST PUSH1 0x40 MLOAD DUP1 SWAP2 SUB SWAP1 REVERT JUMPDEST PUSH2 0x3B2 DUP3 DUP3 PUSH2 0x6CC JUMP JUMPDEST POP POP JUMP JUMPDEST PUSH32 0xA49807205CE4D355092EF5A8A18F56E8913CF4A201FBE287825B095693C21775 DUP2 JUMP JUMPDEST PUSH0 DUP1 PUSH0 DUP5 DUP2 MSTORE PUSH1 0x20 ADD SWAP1 DUP2 MSTORE PUSH1 0x20 ADD PUSH0 KECCAK256 PUSH0 ADD PUSH0 DUP4 PUSH20 0xFFFFFFFFFFFFFFFFFFFFFFFFFFFFFFFFFFFFFFFF AND PUSH20 0xFFFFFFFFFFFFFFFFFFFFFFFFFFFFFFFFFFFFFFFF AND DUP2 MSTORE PUSH1 0x20 ADD SWAP1 DUP2 MSTORE PUSH1 0x20 ADD PUSH0 KECCAK256 PUSH0 SWAP1 SLOAD SWAP1 PUSH2 0x100 EXP SWAP1 DIV PUSH1 0xFF AND SWAP1 POP SWAP3 SWAP2 POP POP JUMP JUMPDEST PUSH0 DUP1 SHL PUSH2 0x449 DUP2 PUSH2 0x5D7 JUMP JUMPDEST PUSH2 0x473 PUSH32 0xA49807205CE4D355092EF5A8A18F56E8913CF4A201FBE287825B095693C21775 DUP4 PUSH2 0x51B JUMP JUMPDEST POP POP JUMP JUMPDEST PUSH0 DUP1 SHL DUP2 JUMP JUMPDEST DUP1 DUP3 PUSH32 0x4C4660DB760944215F41E957066D756AD5FD0EED1B4640632322EB06F77B034D PUSH1 0x40 MLOAD PUSH1 0x40 MLOAD DUP1 SWAP2 SUB SWAP1 LOG3 POP POP JUMP JUMPDEST DUP1 DUP3 PUSH32 0xCCCCA5C37CD734D94742D46E24D5FCDC3E6EF8DD90DDA510DAE0E35530ADD4A2 PUSH1 0x40 MLOAD PUSH1 0x40 MLOAD DUP1 SWAP2 SUB SWAP1 LOG3 POP POP JUMP JUMPDEST PUSH0 DUP1 SHL PUSH2 0x4ED DUP2 PUSH2 0x5D7 JUMP JUMPDEST PUSH2 0x517 PUSH32 0xA49807205CE4D355092EF5A8A18F56E8913CF4A201FBE287825B095693C21775 DUP4 PUSH2 0x312 JUMP JUMPDEST POP POP JUMP JUMPDEST PUSH2 0x524 DUP3 PUSH2 0x2F6 JUMP JUMPDEST PUSH2 0x52D DUP2 PUSH2 0x5D7 JUMP JUMPDEST PUSH2 0x537 DUP4 DUP4 PUSH2 0x6CC JUMP JUMPDEST POP POP POP JUMP JUMPDEST DUP1 DUP3 PUSH32 0x51DBB46F6F6D290AC0B2B3FB0B015E2065756F1B9EC382651FE728757BF362FE PUSH1 0x40 MLOAD PUSH1 0x40 MLOAD DUP1 SWAP2 SUB SWAP1 LOG3 POP POP JUMP JUMPDEST PUSH0 PUSH32 0x1FFC9A700000000000000000000000000000000000000000000000000000000 PUSH28 0xFFFFFFFFFFFFFFFFFFFFFFFFFFFFFFFFFFFFFFFFFFFFFFFFFFFFFFFF NOT AND DUP3 PUSH28 0xFFFFFFFFFFFFFFFFFFFFFFFFFFFFFFFFFFFFFFFFFFFFFFFFFFFFFFFF NOT AND EQ SWAP1 POP SWAP2 SWAP1 POP JUMP JUMPDEST PUSH2 0x5E8 DUP2 PUSH2 0x5E3 PUSH2 0x6C5 JUMP JUMPDEST PUSH2 0x7A6 JUMP JUMPDEST POP JUMP JUMPDEST PUSH2 0x5F5 DUP3 DUP3 PUSH2 0x3DA JUMP JUMPDEST PUSH2 0x6C1 JUMPI PUSH1 0x1 PUSH0 DUP1 DUP5 DUP2 MSTORE PUSH1 0x20 ADD SWAP1 DUP2 MSTORE PUSH1 0x20 ADD PUSH0 KECCAK256 PUSH0 ADD PUSH0 DUP4 PUSH20 0xFFFFFFFFFFFFFFFFFFFFFFFFFFFFFFFFFFFFFFFF AND PUSH20 0xFFFFFFFFFFFFFFFFFFFFFFFFFFFFFFFFFFFFFFFF AND DUP2 MSTORE PUSH1 0x20 ADD SWAP1 DUP2 MSTORE PUSH1 0x20 ADD PUSH0 KECCAK256 PUSH0 PUSH2 0x100 EXP DUP2 SLOAD DUP2 PUSH1 0xFF MUL NOT AND SWAP1 DUP4 ISZERO ISZERO MUL OR SWAP1 SSTORE POP PUSH2 0x666 PUSH2 0x6C5 JUMP JUMPDEST PUSH20 0xFFFFFFFFFFFFFFFFFFFFFFFFFFFFFFFFFFFFFFFF AND DUP2 PUSH20 0xFFFFFFFFFFFFFFFFFFFFFFFFFFFFFFFFFFFFFFFF AND DUP4 PUSH32 0x2F8788117E7EFF1D82E926EC794901D17C78024A50270940304540A733656F0D PUSH1 0x40 MLOAD PUSH1 0x40 MLOAD DUP1 SWAP2 SUB SWAP1 LOG4 JUMPDEST POP POP JUMP JUMPDEST PUSH0 CALLER SWAP1 POP SWAP1 JUMP JUMPDEST PUSH2 0x6D6 DUP3 DUP3 PUSH2 0x3DA JUMP JUMPDEST ISZERO PUSH2 0x7A2 JUMPI PUSH0 DUP1 PUSH0 DUP5 DUP2 MSTORE PUSH1 0x20 ADD SWAP1 DUP2 MSTORE PUSH1 0x20 ADD PUSH0 KECCAK256 PUSH0 ADD PUSH0 DUP4 PUSH20 0xFFFFFFFFFFFFFFFFFFFFFFFFFFFFFFFFFFFFFFFF AND PUSH20 0xFFFFFFFFFFFFFFFFFFFFFFFFFFFFFFFFFFFFFFFF AND DUP2 MSTORE PUSH1 0x20 ADD SWAP1 DUP2 MSTORE PUSH1 0x20 ADD PUSH0 KECCAK256 PUSH0 PUSH2 0x100 EXP DUP2 SLOAD DUP2 PUSH1 0xFF MUL NOT AND SWAP1 DUP4 ISZERO ISZERO MUL OR SWAP1 SSTORE POP PUSH2 0x747 PUSH2 0x6C5 JUMP JUMPDEST PUSH20 0xFFFFFFFFFFFFFFFFFFFFFFFFFFFFFFFFFFFFFFFF AND DUP2 PUSH20 0xFFFFFFFFFFFFFFFFFFFFFFFFFFFFFFFFFFFFFFFF AND DUP4 PUSH32 0xF6391F5C32D9C69D2A47EA670B442974B53935D1EDC7FD64EB21E047A839171B PUSH1 0x40 MLOAD PUSH1 0x40 MLOAD DUP1 SWAP2 SUB SWAP1 LOG4 JUMPDEST POP POP JUMP JUMPDEST PUSH2 0x7B0 DUP3 DUP3 PUSH2 0x3DA JUMP JUMPDEST PUSH2 0x826 JUMPI PUSH2 0x7BD DUP2 PUSH2 0x82A JUMP JUMPDEST PUSH2 0x7CA DUP4 PUSH0 SHR PUSH1 0x20 PUSH2 0x857 JUMP JUMPDEST PUSH1 0x40 MLOAD PUSH1 0x20 ADD PUSH2 0x7DB SWAP3 SWAP2 SWAP1 PUSH2 0xE81 JUMP JUMPDEST PUSH1 0x40 MLOAD PUSH1 0x20 DUP2 DUP4 SUB SUB DUP2 MSTORE SWAP1 PUSH1 0x40 MSTORE PUSH1 0x40 MLOAD PUSH32 0x8C379A000000000000000000000000000000000000000000000000000000000 DUP2 MSTORE PUSH1 0x4 ADD PUSH2 0x81D SWAP2 SWAP1 PUSH2 0xF02 JUMP JUMPDEST PUSH1 0x40 MLOAD DUP1 SWAP2 SUB SWAP1 REVERT JUMPDEST POP POP JUMP JUMPDEST PUSH1 0x60 PUSH2 0x850 DUP3 PUSH20 0xFFFFFFFFFFFFFFFFFFFFFFFFFFFFFFFFFFFFFFFF AND PUSH1 0x14 PUSH1 0xFF AND PUSH2 0x857 JUMP JUMPDEST SWAP1 POP SWAP2 SWAP1 POP JUMP JUMPDEST PUSH1 0x60 PUSH0 PUSH1 0x2 DUP4 PUSH1 0x2 PUSH2 0x869 SWAP2 SWAP1 PUSH2 0xF4F JUMP JUMPDEST PUSH2 0x873 SWAP2 SWAP1 PUSH2 0xF90 JUMP JUMPDEST PUSH8 0xFFFFFFFFFFFFFFFF DUP2 GT ISZERO PUSH2 0x88C JUMPI PUSH2 0x88B PUSH2 0xFC3 JUMP JUMPDEST JUMPDEST PUSH1 0x40 MLOAD SWAP1 DUP1 DUP3 MSTORE DUP1 PUSH1 0x1F ADD PUSH1 0x1F NOT AND PUSH1 0x20 ADD DUP3 ADD PUSH1 0x40 MSTORE DUP1 ISZERO PUSH2 0x8BE JUMPI DUP2 PUSH1 0x20 ADD PUSH1 0x1 DUP3 MUL DUP1 CALLDATASIZE DUP4 CALLDATACOPY DUP1 DUP3 ADD SWAP2 POP POP SWAP1 POP JUMPDEST POP SWAP1 POP PUSH32 0x3000000000000000000000000000000000000000000000000000000000000000 DUP2 PUSH0 DUP2 MLOAD DUP2 LT PUSH2 0x8F5 JUMPI PUSH2 0x8F4 PUSH2 0xFF0 JUMP JUMPDEST JUMPDEST PUSH1 0x20 ADD ADD SWAP1 PUSH31 0xFFFFFFFFFFFFFFFFFFFFFFFFFFFFFFFFFFFFFFFFFFFFFFFFFFFFFFFFFFFFFF NOT AND SWAP1 DUP2 PUSH0 BYTE SWAP1 MSTORE8 POP PUSH32 0x7800000000000000000000000000000000000000000000000000000000000000 DUP2 PUSH1 0x1 DUP2 MLOAD DUP2 LT PUSH2 0x958 JUMPI PUSH2 0x957 PUSH2 0xFF0 JUMP JUMPDEST JUMPDEST PUSH1 0x20 ADD ADD SWAP1 PUSH31 0xFFFFFFFFFFFFFFFFFFFFFFFFFFFFFFFFFFFFFFFFFFFFFFFFFFFFFFFFFFFFFF NOT AND SWAP1 DUP2 PUSH0 BYTE SWAP1 MSTORE8 POP PUSH0 PUSH1 0x1 DUP5 PUSH1 0x2 PUSH2 0x996 SWAP2 SWAP1 PUSH2 0xF4F JUMP JUMPDEST PUSH2 0x9A0 SWAP2 SWAP1 PUSH2 0xF90 JUMP JUMPDEST SWAP1 POP JUMPDEST PUSH1 0x1 DUP2 GT ISZERO PUSH2 0xA3F JUMPI PUSH32 0x3031323334353637383961626364656600000000000000000000000000000000 PUSH1 0xF DUP7 AND PUSH1 0x10 DUP2 LT PUSH2 0x9E2 JUMPI PUSH2 0x9E1 PUSH2 0xFF0 JUMP JUMPDEST JUMPDEST BYTE PUSH1 0xF8 SHL DUP3 DUP3 DUP2 MLOAD DUP2 LT PUSH2 0x9F9 JUMPI PUSH2 0x9F8 PUSH2 0xFF0 JUMP JUMPDEST JUMPDEST PUSH1 0x20 ADD ADD SWAP1 PUSH31 0xFFFFFFFFFFFFFFFFFFFFFFFFFFFFFFFFFFFFFFFFFFFFFFFFFFFFFFFFFFFFFF NOT AND SWAP1 DUP2 PUSH0 BYTE SWAP1 MSTORE8 POP PUSH1 0x4 DUP6 SWAP1 SHR SWAP5 POP DUP1 PUSH2 0xA38 SWAP1 PUSH2 0x101D JUMP JUMPDEST SWAP1 POP PUSH2 0x9A3 JUMP JUMPDEST POP PUSH0 DUP5 EQ PUSH2 0xA82 JUMPI PUSH1 0x40 MLOAD PUSH32 0x8C379A000000000000000000000000000000000000000000000000000000000 DUP2 MSTORE PUSH1 0x4 ADD PUSH2 0xA79 SWAP1 PUSH2 0x108E JUMP JUMPDEST PUSH1 0x40 MLOAD DUP1 SWAP2 SUB SWAP1 REVERT JUMPDEST DUP1 SWAP2 POP POP SWAP3 SWAP2 POP POP JUMP JUMPDEST PUSH0 DUP1 REVERT JUMPDEST PUSH0 PUSH32 0xFFFFFFFF00000000000000000000000000000000000000000000000000000000 DUP3 AND SWAP1 POP SWAP2 SWAP1 POP JUMP JUMPDEST PUSH2 0xAC4 DUP2 PUSH2 0xA90 JUMP JUMPDEST DUP2 EQ PUSH2 0xACE JUMPI PUSH0 DUP1 REVERT JUMPDEST POP JUMP JUMPDEST PUSH0 DUP2 CALLDATALOAD SWAP1 POP PUSH2 0xADF DUP2 PUSH2 0xABB JUMP JUMPDEST SWAP3 SWAP2 POP POP JUMP JUMPDEST PUSH0 PUSH1 0x20 DUP3 DUP5 SUB SLT ISZERO PUSH2 0xAFA JUMPI PUSH2 0xAF9 PUSH2 0xA8C JUMP JUMPDEST JUMPDEST PUSH0 PUSH2 0xB07 DUP5 DUP3 DUP6 ADD PUSH2 0xAD1 JUMP JUMPDEST SWAP2 POP POP SWAP3 SWAP2 POP POP JUMP JUMPDEST PUSH0 DUP2 ISZERO ISZERO SWAP1 POP SWAP2 SWAP1 POP JUMP JUMPDEST PUSH2 0xB24 DUP2 PUSH2 0xB10 JUMP JUMPDEST DUP3 MSTORE POP POP JUMP JUMPDEST PUSH0 PUSH1 0x20 DUP3 ADD SWAP1 POP PUSH2 0xB3D PUSH0 DUP4 ADD DUP5 PUSH2 0xB1B JUMP JUMPDEST SWAP3 SWAP2 POP POP JUMP JUMPDEST PUSH0 DUP2 SWAP1 POP SWAP2 SWAP1 POP JUMP JUMPDEST PUSH2 0xB55 DUP2 PUSH2 0xB43 JUMP JUMPDEST DUP2 EQ PUSH2 0xB5F JUMPI PUSH0 DUP1 REVERT JUMPDEST POP JUMP JUMPDEST PUSH0 DUP2 CALLDATALOAD SWAP1 POP PUSH2 0xB70 DUP2 PUSH2 0xB4C JUMP JUMPDEST SWAP3 SWAP2 POP POP JUMP JUMPDEST PUSH0 PUSH1 0x20 DUP3 DUP5 SUB SLT ISZERO PUSH2 0xB8B JUMPI PUSH2 0xB8A PUSH2 0xA8C JUMP JUMPDEST JUMPDEST PUSH0 PUSH2 0xB98 DUP5 DUP3 DUP6 ADD PUSH2 0xB62 JUMP JUMPDEST SWAP2 POP POP SWAP3 SWAP2 POP POP JUMP JUMPDEST PUSH2 0xBAA DUP2 PUSH2 0xB43 JUMP JUMPDEST DUP3 MSTORE POP POP JUMP JUMPDEST PUSH0 PUSH1 0x20 DUP3 ADD SWAP1 POP PUSH2 0xBC3 PUSH0 DUP4 ADD DUP5 PUSH2 0xBA1 JUMP JUMPDEST SWAP3 SWAP2 POP POP JUMP JUMPDEST PUSH0 PUSH20 0xFFFFFFFFFFFFFFFFFFFFFFFFFFFFFFFFFFFFFFFF DUP3 AND SWAP1 POP SWAP2 SWAP1 POP JUMP JUMPDEST PUSH0 PUSH2 0xBF2 DUP3 PUSH2 0xBC9 JUMP JUMPDEST SWAP1 POP SWAP2 SWAP1 POP JUMP JUMPDEST PUSH2 0xC02 DUP2 PUSH2 0xBE8 JUMP JUMPDEST DUP2 EQ PUSH2 0xC0C JUMPI PUSH0 DUP1 REVERT JUMPDEST POP JUMP JUMPDEST PUSH0 DUP2 CALLDATALOAD SWAP1 POP PUSH2 0xC1D DUP2 PUSH2 0xBF9 JUMP JUMPDEST SWAP3 SWAP2 POP POP JUMP JUMPDEST PUSH0 DUP1 PUSH1 0x40 DUP4 DUP6 SUB SLT ISZERO PUSH2 0xC39 JUMPI PUSH2 0xC38 PUSH2 0xA8C JUMP JUMPDEST JUMPDEST PUSH0 PUSH2 0xC46 DUP6 DUP3 DUP7 ADD PUSH2 0xB62 JUMP JUMPDEST SWAP3 POP POP PUSH1 0x20 PUSH2 0xC57 DUP6 DUP3 DUP7 ADD PUSH2 0xC0F JUMP JUMPDEST SWAP2 POP POP SWAP3 POP SWAP3 SWAP1 POP JUMP JUMPDEST PUSH0 PUSH1 0x20 DUP3 DUP5 SUB SLT ISZERO PUSH2 0xC76 JUMPI PUSH2 0xC75 PUSH2 0xA8C JUMP JUMPDEST JUMPDEST PUSH0 PUSH2 0xC83 DUP5 DUP3 DUP6 ADD PUSH2 0xC0F JUMP JUMPDEST SWAP2 POP POP SWAP3 SWAP2 POP POP JUMP JUMPDEST PUSH0 DUP2 SWAP1 POP SWAP2 SWAP1 POP JUMP JUMPDEST PUSH2 0xC9E DUP2 PUSH2 0xC8C JUMP JUMPDEST DUP2 EQ PUSH2 0xCA8 JUMPI PUSH0 DUP1 REVERT JUMPDEST POP JUMP JUMPDEST PUSH0 DUP2 CALLDATALOAD SWAP1 POP PUSH2 0xCB9 DUP2 PUSH2 0xC95 JUMP JUMPDEST SWAP3 SWAP2 POP POP JUMP JUMPDEST PUSH0 DUP1 PUSH1 0x40 DUP4 DUP6 SUB SLT ISZERO PUSH2 0xCD5 JUMPI PUSH2 0xCD4 PUSH2 0xA8C JUMP JUMPDEST JUMPDEST PUSH0 PUSH2 0xCE2 DUP6 DUP3 DUP7 ADD PUSH2 0xCAB JUMP JUMPDEST SWAP3 POP POP PUSH1 0x20 PUSH2 0xCF3 DUP6 DUP3 DUP7 ADD PUSH2 0xCAB JUMP JUMPDEST SWAP2 POP POP SWAP3 POP SWAP3 SWAP1 POP JUMP JUMPDEST PUSH0 DUP3 DUP3 MSTORE PUSH1 0x20 DUP3 ADD SWAP1 POP SWAP3 SWAP2 POP POP JUMP JUMPDEST PUSH32 0x416363657373436F6E74726F6C3A2063616E206F6E6C792072656E6F756E6365 PUSH0 DUP3 ADD MSTORE PUSH32 0x20726F6C657320666F722073656C660000000000000000000000000000000000 PUSH1 0x20 DUP3 ADD MSTORE POP JUMP JUMPDEST PUSH0 PUSH2 0xD67 PUSH1 0x2F DUP4 PUSH2 0xCFD JUMP JUMPDEST SWAP2 POP PUSH2 0xD72 DUP3 PUSH2 0xD0D JUMP JUMPDEST PUSH1 0x40 DUP3 ADD SWAP1 POP SWAP2 SWAP1 POP JUMP JUMPDEST PUSH0 PUSH1 0x20 DUP3 ADD SWAP1 POP DUP2 DUP2 SUB PUSH0 DUP4 ADD MSTORE PUSH2 0xD94 DUP2 PUSH2 0xD5B JUMP JUMPDEST SWAP1 POP SWAP2 SWAP1 POP JUMP JUMPDEST PUSH0 DUP2 SWAP1 POP SWAP3 SWAP2 POP POP JUMP JUMPDEST PUSH32 0x416363657373436F6E74726F6C3A206163636F756E7420000000000000000000 PUSH0 DUP3 ADD MSTORE POP JUMP JUMPDEST PUSH0 PUSH2 0xDD9 PUSH1 0x17 DUP4 PUSH2 0xD9B JUMP JUMPDEST SWAP2 POP PUSH2 0xDE4 DUP3 PUSH2 0xDA5 JUMP JUMPDEST PUSH1 0x17 DUP3 ADD SWAP1 POP SWAP2 SWAP1 POP JUMP JUMPDEST PUSH0 DUP2 MLOAD SWAP1 POP SWAP2 SWAP1 POP JUMP JUMPDEST DUP3 DUP2 DUP4 MCOPY PUSH0 DUP4 DUP4 ADD MSTORE POP POP POP JUMP JUMPDEST PUSH0 PUSH2 0xE11 DUP3 PUSH2 0xDEF JUMP JUMPDEST PUSH2 0xE1B DUP2 DUP6 PUSH2 0xD9B JUMP JUMPDEST SWAP4 POP PUSH2 0xE2B DUP2 DUP6 PUSH1 0x20 DUP7 ADD PUSH2 0xDF9 JUMP JUMPDEST DUP1 DUP5 ADD SWAP2 POP POP SWAP3 SWAP2 POP POP JUMP JUMPDEST PUSH32 0x206973206D697373696E6720726F6C6520000000000000000000000000000000 PUSH0 DUP3 ADD MSTORE POP JUMP JUMPDEST PUSH0 PUSH2 0xE6B PUSH1 0x11 DUP4 PUSH2 0xD9B JUMP JUMPDEST SWAP2 POP PUSH2 0xE76 DUP3 PUSH2 0xE37 JUMP JUMPDEST PUSH1 0x11 DUP3 ADD SWAP1 POP SWAP2 SWAP1 POP JUMP JUMPDEST PUSH0 PUSH2 0xE8B DUP3 PUSH2 0xDCD JUMP JUMPDEST SWAP2 POP PUSH2 0xE97 DUP3 DUP6 PUSH2 0xE07 JUMP JUMPDEST SWAP2 POP PUSH2 0xEA2 DUP3 PUSH2 0xE5F JUMP JUMPDEST SWAP2 POP PUSH2 0xEAE DUP3 DUP5 PUSH2 0xE07 JUMP JUMPDEST SWAP2 POP DUP2 SWAP1 POP SWAP4 SWAP3 POP POP POP JUMP JUMPDEST PUSH0 PUSH1 0x1F NOT PUSH1 0x1F DUP4 ADD AND SWAP1 POP SWAP2 SWAP1 POP JUMP JUMPDEST PUSH0 PUSH2 0xED4 DUP3 PUSH2 0xDEF JUMP JUMPDEST PUSH2 0xEDE DUP2 DUP6 PUSH2 0xCFD JUMP JUMPDEST SWAP4 POP PUSH2 0xEEE DUP2 DUP6 PUSH1 0x20 DUP7 ADD PUSH2 0xDF9 JUMP JUMPDEST PUSH2 0xEF7 DUP2 PUSH2 0xEBA JUMP JUMPDEST DUP5 ADD SWAP2 POP POP SWAP3 SWAP2 POP POP JUMP JUMPDEST PUSH0 PUSH1 0x20 DUP3 ADD SWAP1 POP DUP2 DUP2 SUB PUSH0 DUP4 ADD MSTORE PUSH2 0xF1A DUP2 DUP5 PUSH2 0xECA JUMP JUMPDEST SWAP1 POP SWAP3 SWAP2 POP POP JUMP JUMPDEST PUSH32 0x4E487B7100000000000000000000000000000000000000000000000000000000 PUSH0 MSTORE PUSH1 0x11 PUSH1 0x4 MSTORE PUSH1 0x24 PUSH0 REVERT JUMPDEST PUSH0 PUSH2 0xF59 DUP3 PUSH2 0xC8C JUMP JUMPDEST SWAP2 POP PUSH2 0xF64 DUP4 PUSH2 0xC8C JUMP JUMPDEST SWAP3 POP DUP3 DUP3 MUL PUSH2 0xF72 DUP2 PUSH2 0xC8C JUMP JUMPDEST SWAP2 POP DUP3 DUP3 DIV DUP5 EQ DUP4 ISZERO OR PUSH2 0xF89 JUMPI PUSH2 0xF88 PUSH2 0xF22 JUMP JUMPDEST JUMPDEST POP SWAP3 SWAP2 POP POP JUMP JUMPDEST PUSH0 PUSH2 0xF9A DUP3 PUSH2 0xC8C JUMP JUMPDEST SWAP2 POP PUSH2 0xFA5 DUP4 PUSH2 0xC8C JUMP JUMPDEST SWAP3 POP DUP3 DUP3 ADD SWAP1 POP DUP1 DUP3 GT ISZERO PUSH2 0xFBD JUMPI PUSH2 0xFBC PUSH2 0xF22 JUMP JUMPDEST JUMPDEST SWAP3 SWAP2 POP POP JUMP JUMPDEST PUSH32 0x4E487B7100000000000000000000000000000000000000000000000000000000 PUSH0 MSTORE PUSH1 0x41 PUSH1 0x4 MSTORE PUSH1 0x24 PUSH0 REVERT JUMPDEST PUSH32 0x4E487B7100000000000000000000000000000000000000000000000000000000 PUSH0 MSTORE PUSH1 0x32 PUSH1 0x4 MSTORE PUSH1 0x24 PUSH0 REVERT JUMPDEST PUSH0 PUSH2 0x1027 DUP3 PUSH2 0xC8C JUMP JUMPDEST SWAP2 POP PUSH0 DUP3 SUB PUSH2 0x1039 JUMPI PUSH2 0x1038 PUSH2 0xF22 JUMP JUMPDEST JUMPDEST PUSH1 0x1 DUP3 SUB SWAP1 POP SWAP2 SWAP1 POP JUMP JUMPDEST PUSH32 0x537472696E67733A20686578206C656E67746820696E73756666696369656E74 PUSH0 DUP3 ADD MSTORE POP JUMP JUMPDEST PUSH0 PUSH2 0x1078 PUSH1 0x20 DUP4 PUSH2 0xCFD JUMP JUMPDEST SWAP2 POP PUSH2 0x1083 DUP3 PUSH2 0x1044 JUMP JUMPDEST PUSH1 0x20 DUP3 ADD SWAP1 POP SWAP2 SWAP1 POP JUMP JUMPDEST PUSH0 PUSH1 0x20 DUP3 ADD SWAP1 POP DUP2 DUP2 SUB PUSH0 DUP4 ADD MSTORE PUSH2 0x10A5 DUP2 PUSH2 0x106C JUMP JUMPDEST SWAP1 POP SWAP2 SWAP1 POP JUMP INVALID LOG2 PUSH5 0x6970667358 0x22 SLT KECCAK256 0xB9 0xCA BLOBBASEFEE 0xCF SAR ORIGIN DELEGATECALL 0xAE PUSH26 0x5E6F1AFFFB5F998E1CC2CF7FF242C6D924264C8C91C33064736F PUSH13 0x634300081A0033000000000000 "
		},
		"gasEstimates": {
			"creation": {
				"codeDepositCost": "864400",
				"executionCost": "infinite",
				"totalCost": "infinite"
			},
			"external": {
				"ADMIN_ROLE()": "414",
				"DEFAULT_ADMIN_ROLE()": "375",
				"gameEnd(uint256,uint256)": "infinite",
				"gameLike(uint256,uint256)": "infinite",
				"gamePlay(uint256,uint256)": "infinite",
				"getRoleAdmin(bytes32)": "infinite",
				"grantAdminRole(address)": "infinite",
				"grantRole(bytes32,address)": "infinite",
				"hasRole(bytes32,address)": "3233",
				"renounceRole(bytes32,address)": "infinite",
				"revokeAdminRole(address)": "infinite",
				"revokeRole(bytes32,address)": "infinite",
				"supportsInterface(bytes4)": "718"
			}
		},
		"methodIdentifiers": {
			"ADMIN_ROLE()": "75b238fc",
			"DEFAULT_ADMIN_ROLE()": "a217fddf",
			"gameEnd(uint256,uint256)": "aac2094a",
			"gameLike(uint256,uint256)": "f58ee354",
			"gamePlay(uint256,uint256)": "c02725f0",
			"getRoleAdmin(bytes32)": "248a9ca3",
			"grantAdminRole(address)": "c634b78e",
			"grantRole(bytes32,address)": "2f2ff15d",
			"hasRole(bytes32,address)": "91d14854",
			"renounceRole(bytes32,address)": "36568abe",
			"revokeAdminRole(address)": "9a19c7b0",
			"revokeRole(bytes32,address)": "d547741f",
			"supportsInterface(bytes4)": "01ffc9a7"
		}
	},
	"abi": [
		{
			"inputs": [],
			"stateMutability": "nonpayable",
			"type": "constructor"
		},
		{
			"anonymous": false,
			"inputs": [
				{
					"indexed": true,
					"internalType": "uint256",
					"name": "gameSeq",
					"type": "uint256"
				},
				{
					"indexed": true,
					"internalType": "uint256",
					"name": "memberSeq",
					"type": "uint256"
				}
			],
			"name": "GameEnded",
			"type": "event"
		},
		{
			"anonymous": false,
			"inputs": [
				{
					"indexed": true,
					"internalType": "uint256",
					"name": "gameSeq",
					"type": "uint256"
				},
				{
					"indexed": true,
					"internalType": "uint256",
					"name": "memberSeq",
					"type": "uint256"
				}
			],
			"name": "GameLiked",
			"type": "event"
		},
		{
			"anonymous": false,
			"inputs": [
				{
					"indexed": true,
					"internalType": "uint256",
					"name": "gameSeq",
					"type": "uint256"
				},
				{
					"indexed": true,
					"internalType": "uint256",
					"name": "memberSeq",
					"type": "uint256"
				}
			],
			"name": "GamePlayed",
			"type": "event"
		},
		{
			"anonymous": false,
			"inputs": [
				{
					"indexed": true,
					"internalType": "bytes32",
					"name": "role",
					"type": "bytes32"
				},
				{
					"indexed": true,
					"internalType": "bytes32",
					"name": "previousAdminRole",
					"type": "bytes32"
				},
				{
					"indexed": true,
					"internalType": "bytes32",
					"name": "newAdminRole",
					"type": "bytes32"
				}
			],
			"name": "RoleAdminChanged",
			"type": "event"
		},
		{
			"anonymous": false,
			"inputs": [
				{
					"indexed": true,
					"internalType": "bytes32",
					"name": "role",
					"type": "bytes32"
				},
				{
					"indexed": true,
					"internalType": "address",
					"name": "account",
					"type": "address"
				},
				{
					"indexed": true,
					"internalType": "address",
					"name": "sender",
					"type": "address"
				}
			],
			"name": "RoleGranted",
			"type": "event"
		},
		{
			"anonymous": false,
			"inputs": [
				{
					"indexed": true,
					"internalType": "bytes32",
					"name": "role",
					"type": "bytes32"
				},
				{
					"indexed": true,
					"internalType": "address",
					"name": "account",
					"type": "address"
				},
				{
					"indexed": true,
					"internalType": "address",
					"name": "sender",
					"type": "address"
				}
			],
			"name": "RoleRevoked",
			"type": "event"
		},
		{
			"inputs": [],
			"name": "ADMIN_ROLE",
			"outputs": [
				{
					"internalType": "bytes32",
					"name": "",
					"type": "bytes32"
				}
			],
			"stateMutability": "view",
			"type": "function"
		},
		{
			"inputs": [],
			"name": "DEFAULT_ADMIN_ROLE",
			"outputs": [
				{
					"internalType": "bytes32",
					"name": "",
					"type": "bytes32"
				}
			],
			"stateMutability": "view",
			"type": "function"
		},
		{
			"inputs": [
				{
					"internalType": "uint256",
					"name": "gameSeq",
					"type": "uint256"
				},
				{
					"internalType": "uint256",
					"name": "memberSeq",
					"type": "uint256"
				}
			],
			"name": "gameEnd",
			"outputs": [],
			"stateMutability": "nonpayable",
			"type": "function"
		},
		{
			"inputs": [
				{
					"internalType": "uint256",
					"name": "gameSeq",
					"type": "uint256"
				},
				{
					"internalType": "uint256",
					"name": "memberSeq",
					"type": "uint256"
				}
			],
			"name": "gameLike",
			"outputs": [],
			"stateMutability": "nonpayable",
			"type": "function"
		},
		{
			"inputs": [
				{
					"internalType": "uint256",
					"name": "gameSeq",
					"type": "uint256"
				},
				{
					"internalType": "uint256",
					"name": "memberSeq",
					"type": "uint256"
				}
			],
			"name": "gamePlay",
			"outputs": [],
			"stateMutability": "nonpayable",
			"type": "function"
		},
		{
			"inputs": [
				{
					"internalType": "bytes32",
					"name": "role",
					"type": "bytes32"
				}
			],
			"name": "getRoleAdmin",
			"outputs": [
				{
					"internalType": "bytes32",
					"name": "",
					"type": "bytes32"
				}
			],
			"stateMutability": "view",
			"type": "function"
		},
		{
			"inputs": [
				{
					"internalType": "address",
					"name": "account",
					"type": "address"
				}
			],
			"name": "grantAdminRole",
			"outputs": [],
			"stateMutability": "nonpayable",
			"type": "function"
		},
		{
			"inputs": [
				{
					"internalType": "bytes32",
					"name": "role",
					"type": "bytes32"
				},
				{
					"internalType": "address",
					"name": "account",
					"type": "address"
				}
			],
			"name": "grantRole",
			"outputs": [],
			"stateMutability": "nonpayable",
			"type": "function"
		},
		{
			"inputs": [
				{
					"internalType": "bytes32",
					"name": "role",
					"type": "bytes32"
				},
				{
					"internalType": "address",
					"name": "account",
					"type": "address"
				}
			],
			"name": "hasRole",
			"outputs": [
				{
					"internalType": "bool",
					"name": "",
					"type": "bool"
				}
			],
			"stateMutability": "view",
			"type": "function"
		},
		{
			"inputs": [
				{
					"internalType": "bytes32",
					"name": "role",
					"type": "bytes32"
				},
				{
					"internalType": "address",
					"name": "account",
					"type": "address"
				}
			],
			"name": "renounceRole",
			"outputs": [],
			"stateMutability": "nonpayable",
			"type": "function"
		},
		{
			"inputs": [
				{
					"internalType": "address",
					"name": "account",
					"type": "address"
				}
			],
			"name": "revokeAdminRole",
			"outputs": [],
			"stateMutability": "nonpayable",
			"type": "function"
		},
		{
			"inputs": [
				{
					"internalType": "bytes32",
					"name": "role",
					"type": "bytes32"
				},
				{
					"internalType": "address",
					"name": "account",
					"type": "address"
				}
			],
			"name": "revokeRole",
			"outputs": [],
			"stateMutability": "nonpayable",
			"type": "function"
		},
		{
			"inputs": [
				{
					"internalType": "bytes4",
					"name": "interfaceId",
					"type": "bytes4"
				}
			],
			"name": "supportsInterface",
			"outputs": [
				{
					"internalType": "bool",
					"name": "",
					"type": "bool"
				}
			],
			"stateMutability": "view",
			"type": "function"
		}
	]
}