{
	"data": {
		"bytecode": {
			"linkReferences": {},
			"object": "608060405234801561000f575f80fd5b50604051612d31380380612d31833981810160405281019061003191906102bc565b8160015f6101000a81548173ffffffffffffffffffffffffffffffffffffffff021916908373ffffffffffffffffffffffffffffffffffffffff1602179055508060025f6101000a81548173ffffffffffffffffffffffffffffffffffffffff021916908373ffffffffffffffffffffffffffffffffffffffff1602179055506100c35f801b336100fa60201b60201c565b6100f37fa49807205ce4d355092ef5a8a18f56e8913cf4a201fbe287825b095693c21775336100fa60201b60201c565b50506102fa565b61010a828261010e60201b60201c565b5050565b61011e82826101f460201b60201c565b6101f05760015f808481526020019081526020015f205f015f8373ffffffffffffffffffffffffffffffffffffffff1673ffffffffffffffffffffffffffffffffffffffff1681526020019081526020015f205f6101000a81548160ff02191690831515021790555061019561025760201b60201c565b73ffffffffffffffffffffffffffffffffffffffff168173ffffffffffffffffffffffffffffffffffffffff16837f2f8788117e7eff1d82e926ec794901d17c78024a50270940304540a733656f0d60405160405180910390a45b5050565b5f805f8481526020019081526020015f205f015f8373ffffffffffffffffffffffffffffffffffffffff1673ffffffffffffffffffffffffffffffffffffffff1681526020019081526020015f205f9054906101000a900460ff16905092915050565b5f33905090565b5f80fd5b5f73ffffffffffffffffffffffffffffffffffffffff82169050919050565b5f61028b82610262565b9050919050565b61029b81610281565b81146102a5575f80fd5b50565b5f815190506102b681610292565b92915050565b5f80604083850312156102d2576102d161025e565b5b5f6102df858286016102a8565b92505060206102f0858286016102a8565b9150509250929050565b612a2a806103075f395ff3fe608060405234801561000f575f80fd5b506004361061014b575f3560e01c80639a19c7b0116100c1578063c634b78e1161007a578063c634b78e146103d5578063ca1c996f146103f1578063cbc7854e1461040d578063d547741f14610429578063dd0c808214610445578063dd7d2b9f146104635761014b565b80639a19c7b0146102ef578063a217fddf1461030b578063ae99aa3c14610329578063aea0873414610359578063b5b0e48a14610375578063bb10ab0f146103a55761014b565b8063355b9d3f11610113578063355b9d3f1461021957806336568abe1461024d578063406a378a1461026957806375b238fc146102855780638525ea16146102a357806391d14854146102bf5761014b565b806301ffc9a71461014f5780631b72fa3a1461017f5780631fd3c85b1461019d578063248a9ca3146101cd5780632f2ff15d146101fd575b5f80fd5b610169600480360381019061016491906118de565b61047f565b6040516101769190611923565b60405180910390f35b6101876104f8565b60405161019491906119b6565b60405180910390f35b6101b760048036038101906101b29190611a02565b61051d565b6040516101c49190611a3c565b60405180910390f35b6101e760048036038101906101e29190611a88565b61053d565b6040516101f49190611ac2565b60405180910390f35b61021760048036038101906102129190611b16565b610559565b005b610233600480360381019061022e9190611b54565b61057a565b604051610244959493929190611ba4565b60405180910390f35b61026760048036038101906102629190611b16565b6105ce565b005b610283600480360381019061027e9190611cab565b610651565b005b61028d610825565b60405161029a9190611ac2565b60405180910390f35b6102bd60048036038101906102b89190611d29565b610849565b005b6102d960048036038101906102d49190611b16565b6108b4565b6040516102e69190611923565b60405180910390f35b61030960048036038101906103049190611d8d565b610917565b005b610313610951565b6040516103209190611ac2565b60405180910390f35b610343600480360381019061033e9190611a02565b610957565b6040516103509190611de1565b60405180910390f35b610373600480360381019061036e9190611dfa565b6109e0565b005b61038f600480360381019061038a9190611b54565b610b78565b60405161039c9190611ebf565b60405180910390f35b6103bf60048036038101906103ba9190611a02565b610c82565b6040516103cc9190611a3c565b60405180910390f35b6103ef60048036038101906103ea9190611d8d565b610c9c565b005b61040b60048036038101906104069190611d29565b610cd6565b005b61042760048036038101906104229190611ed8565b6110d5565b005b610443600480360381019061043e9190611b16565b611184565b005b61044d6111a5565b60405161045a91906119b6565b60405180910390f35b61047d60048036038101906104789190611d29565b6111ca565b005b5f7f7965db0b000000000000000000000000000000000000000000000000000000007bffffffffffffffffffffffffffffffffffffffffffffffffffffffff1916827bffffffffffffffffffffffffffffffffffffffffffffffffffffffff191614806104f157506104f082611325565b5b9050919050565b60025f9054906101000a900473ffffffffffffffffffffffffffffffffffffffff1681565b6004818154811061052c575f80fd5b905f5260205f20015f915090505481565b5f805f8381526020019081526020015f20600101549050919050565b6105628261053d565b61056b8161138e565b61057583836113a2565b505050565b6005602052825f5260405f20602052815f5260405f20602052805f5260405f205f925092505050805f015490806001015490806002015490806003015490806004015f9054906101000a900460ff16905085565b6105d661147c565b73ffffffffffffffffffffffffffffffffffffffff168173ffffffffffffffffffffffffffffffffffffffff1614610643576040517f08c379a000000000000000000000000000000000000000000000000000000000815260040161063a90611f96565b60405180910390fd5b61064d8282611483565b5050565b7fa49807205ce4d355092ef5a8a18f56e8913cf4a201fbe287825b095693c2177561067b8161138e565b8282905085859050146106c3576040517f08c379a00000000000000000000000000000000000000000000000000000000081526004016106ba90612024565b60405180910390fd5b5f5b858590508110156107e05760025f9054906101000a900473ffffffffffffffffffffffffffffffffffffffff1673ffffffffffffffffffffffffffffffffffffffff166340c10f198787848181106107205761071f612042565b5b90506020020160208101906107359190611d8d565b86868581811061074857610747612042565b5b905060200201356040518363ffffffff1660e01b815260040161076c92919061207e565b5f604051808303815f87803b158015610783575f80fd5b505af1925050508015610794575060015b6107d3576040517f08c379a00000000000000000000000000000000000000000000000000000000081526004016107ca906120ef565b60405180910390fd5b80806001019150506106c5565b507ffa3b7284ecb3a03e8f238b69b61f5645294c15019ea509bd4aaee604d60fdc34858585856040516108169493929190612241565b60405180910390a15050505050565b7fa49807205ce4d355092ef5a8a18f56e8913cf4a201fbe287825b095693c2177581565b7fa49807205ce4d355092ef5a8a18f56e8913cf4a201fbe287825b095693c217756108738161138e565b8284867f056253fe63ca8b57ba2974cd5dd75f8d5f4f4bc99e0798022a4773599cbfc362856040516108a59190611a3c565b60405180910390a45050505050565b5f805f8481526020019081526020015f205f015f8373ffffffffffffffffffffffffffffffffffffffff1673ffffffffffffffffffffffffffffffffffffffff1681526020019081526020015f205f9054906101000a900460ff16905092915050565b5f801b6109238161138e565b61094d7fa49807205ce4d355092ef5a8a18f56e8913cf4a201fbe287825b095693c2177583611184565b5050565b5f801b81565b61095f611843565b5f60035f8481526020019081526020015f205f0154116109b4576040517f08c379a00000000000000000000000000000000000000000000000000000000081526004016109ab906122c4565b60405180910390fd5b60035f8381526020019081526020015f206040518060200160405290815f820154815250509050919050565b7fa49807205ce4d355092ef5a8a18f56e8913cf4a201fbe287825b095693c21775610a0a8161138e565b5f60035f8681526020019081526020015f205f015414610a5f576040517f08c379a0000000000000000000000000000000000000000000000000000000008152600401610a569061232c565b60405180910390fd5b60405180602001604052808581525060035f8681526020019081526020015f205f820151815f0155905050600484908060018154018082558091505060019003905f5260205f20015f909190919091505560015f9054906101000a900473ffffffffffffffffffffffffffffffffffffffff1673ffffffffffffffffffffffffffffffffffffffff166340c10f1984846040518363ffffffff1660e01b8152600401610b0c92919061207e565b5f604051808303815f87803b158015610b23575f80fd5b505af1158015610b35573d5f803e3d5ffd5b505050507f5a92c2530f207992057b9c3e544108ffce3beda4a63719f316967c49bf6159d28483604051610b6a92919061234a565b60405180910390a150505050565b610b80611855565b60055f8581526020019081526020015f205f8481526020019081526020015f205f8381526020019081526020015f206004015f9054906101000a900460ff16610bfe576040517f08c379a0000000000000000000000000000000000000000000000000000000008152600401610bf5906123bb565b60405180910390fd5b60055f8581526020019081526020015f205f8481526020019081526020015f205f8381526020019081526020015f206040518060a00160405290815f8201548152602001600182015481526020016002820154815260200160038201548152602001600482015f9054906101000a900460ff16151515158152505090509392505050565b6003602052805f5260405f205f91509050805f0154905081565b5f801b610ca88161138e565b610cd27fa49807205ce4d355092ef5a8a18f56e8913cf4a201fbe287825b095693c2177583610559565b5050565b60055f8581526020019081526020015f205f8481526020019081526020015f205f8381526020019081526020015f206004015f9054906101000a900460ff1615610d55576040517f08c379a0000000000000000000000000000000000000000000000000000000008152600401610d4c90612449565b60405180910390fd5b5f60015f9054906101000a900473ffffffffffffffffffffffffffffffffffffffff1673ffffffffffffffffffffffffffffffffffffffff1663dd62ed3e33306040518363ffffffff1660e01b8152600401610db2929190612467565b602060405180830381865afa158015610dcd573d5f803e3d5ffd5b505050506040513d601f19601f82011682018060405250810190610df191906124a2565b905081811015610e36576040517f08c379a0000000000000000000000000000000000000000000000000000000008152600401610e2d90612517565b60405180910390fd5b5f60015f9054906101000a900473ffffffffffffffffffffffffffffffffffffffff1673ffffffffffffffffffffffffffffffffffffffff166370a08231336040518263ffffffff1660e01b8152600401610e919190612535565b602060405180830381865afa158015610eac573d5f803e3d5ffd5b505050506040513d601f19601f82011682018060405250810190610ed091906124a2565b905082811015610f15576040517f08c379a0000000000000000000000000000000000000000000000000000000008152600401610f0c90612598565b60405180910390fd5b60015f9054906101000a900473ffffffffffffffffffffffffffffffffffffffff1673ffffffffffffffffffffffffffffffffffffffff166323b872dd3330866040518463ffffffff1660e01b8152600401610f73939291906125b6565b6020604051808303815f875af1158015610f8f573d5f803e3d5ffd5b505050506040513d601f19601f82011682018060405250810190610fb39190612615565b610ff2576040517f08c379a0000000000000000000000000000000000000000000000000000000008152600401610fe99061268a565b60405180910390fd5b6040518060a001604052808681526020018581526020018481526020015f81526020016001151581525060055f8881526020019081526020015f205f8781526020019081526020015f205f8681526020019081526020015f205f820151815f01556020820151816001015560408201518160020155606082015181600301556080820151816004015f6101000a81548160ff0219169083151502179055509050508385877f12b60ec834dbe4f634b415a94d1638892226674971f72a0fb5e7893d8379c274866040516110c59190611a3c565b60405180910390a4505050505050565b7fa49807205ce4d355092ef5a8a18f56e8913cf4a201fbe287825b095693c217756110ff8161138e565b8260015f6101000a81548173ffffffffffffffffffffffffffffffffffffffff021916908373ffffffffffffffffffffffffffffffffffffffff1602179055508160025f6101000a81548173ffffffffffffffffffffffffffffffffffffffff021916908373ffffffffffffffffffffffffffffffffffffffff160217905550505050565b61118d8261053d565b6111968161138e565b6111a08383611483565b505050565b60015f9054906101000a900473ffffffffffffffffffffffffffffffffffffffff1681565b7fa49807205ce4d355092ef5a8a18f56e8913cf4a201fbe287825b095693c217756111f48161138e565b60055f8681526020019081526020015f205f8581526020019081526020015f205f8481526020019081526020015f206004015f9054906101000a900460ff16611272576040517f08c379a0000000000000000000000000000000000000000000000000000000008152600401611269906126f2565b60405180910390fd5b60055f8681526020019081526020015f205f8581526020019081526020015f205f8481526020019081526020015f20600301548211156112e4578160055f8781526020019081526020015f205f8681526020019081526020015f205f8581526020019081526020015f20600301819055505b8284867f2bbc9ad1871f4b99168aa3febe254b9069558ff96ed7746d1677869afa38243f856040516113169190611a3c565b60405180910390a45050505050565b5f7f01ffc9a7000000000000000000000000000000000000000000000000000000007bffffffffffffffffffffffffffffffffffffffffffffffffffffffff1916827bffffffffffffffffffffffffffffffffffffffffffffffffffffffff1916149050919050565b61139f8161139a61147c565b61155d565b50565b6113ac82826108b4565b6114785760015f808481526020019081526020015f205f015f8373ffffffffffffffffffffffffffffffffffffffff1673ffffffffffffffffffffffffffffffffffffffff1681526020019081526020015f205f6101000a81548160ff02191690831515021790555061141d61147c565b73ffffffffffffffffffffffffffffffffffffffff168173ffffffffffffffffffffffffffffffffffffffff16837f2f8788117e7eff1d82e926ec794901d17c78024a50270940304540a733656f0d60405160405180910390a45b5050565b5f33905090565b61148d82826108b4565b15611559575f805f8481526020019081526020015f205f015f8373ffffffffffffffffffffffffffffffffffffffff1673ffffffffffffffffffffffffffffffffffffffff1681526020019081526020015f205f6101000a81548160ff0219169083151502179055506114fe61147c565b73ffffffffffffffffffffffffffffffffffffffff168173ffffffffffffffffffffffffffffffffffffffff16837ff6391f5c32d9c69d2a47ea670b442974b53935d1edc7fd64eb21e047a839171b60405160405180910390a45b5050565b61156782826108b4565b6115dd57611574816115e1565b611581835f1c602061160e565b6040516020016115929291906127f6565b6040516020818303038152906040526040517f08c379a00000000000000000000000000000000000000000000000000000000081526004016115d49190612877565b60405180910390fd5b5050565b60606116078273ffffffffffffffffffffffffffffffffffffffff16601460ff1661160e565b9050919050565b60605f600283600261162091906128c4565b61162a9190612905565b67ffffffffffffffff81111561164357611642612938565b5b6040519080825280601f01601f1916602001820160405280156116755781602001600182028036833780820191505090505b5090507f3000000000000000000000000000000000000000000000000000000000000000815f815181106116ac576116ab612042565b5b60200101907effffffffffffffffffffffffffffffffffffffffffffffffffffffffffffff191690815f1a9053507f78000000000000000000000000000000000000000000000000000000000000008160018151811061170f5761170e612042565b5b60200101907effffffffffffffffffffffffffffffffffffffffffffffffffffffffffffff191690815f1a9053505f600184600261174d91906128c4565b6117579190612905565b90505b60018111156117f6577f3031323334353637383961626364656600000000000000000000000000000000600f86166010811061179957611798612042565b5b1a60f81b8282815181106117b0576117af612042565b5b60200101907effffffffffffffffffffffffffffffffffffffffffffffffffffffffffffff191690815f1a905350600485901c9450806117ef90612965565b905061175a565b505f8414611839576040517f08c379a0000000000000000000000000000000000000000000000000000000008152600401611830906129d6565b60405180910390fd5b8091505092915050565b60405180602001604052805f81525090565b6040518060a001604052805f81526020015f81526020015f81526020015f81526020015f151581525090565b5f80fd5b5f80fd5b5f7fffffffff0000000000000000000000000000000000000000000000000000000082169050919050565b6118bd81611889565b81146118c7575f80fd5b50565b5f813590506118d8816118b4565b92915050565b5f602082840312156118f3576118f2611881565b5b5f611900848285016118ca565b91505092915050565b5f8115159050919050565b61191d81611909565b82525050565b5f6020820190506119365f830184611914565b92915050565b5f73ffffffffffffffffffffffffffffffffffffffff82169050919050565b5f819050919050565b5f61197e6119796119748461193c565b61195b565b61193c565b9050919050565b5f61198f82611964565b9050919050565b5f6119a082611985565b9050919050565b6119b081611996565b82525050565b5f6020820190506119c95f8301846119a7565b92915050565b5f819050919050565b6119e1816119cf565b81146119eb575f80fd5b50565b5f813590506119fc816119d8565b92915050565b5f60208284031215611a1757611a16611881565b5b5f611a24848285016119ee565b91505092915050565b611a36816119cf565b82525050565b5f602082019050611a4f5f830184611a2d565b92915050565b5f819050919050565b611a6781611a55565b8114611a71575f80fd5b50565b5f81359050611a8281611a5e565b92915050565b5f60208284031215611a9d57611a9c611881565b5b5f611aaa84828501611a74565b91505092915050565b611abc81611a55565b82525050565b5f602082019050611ad55f830184611ab3565b92915050565b5f611ae58261193c565b9050919050565b611af581611adb565b8114611aff575f80fd5b50565b5f81359050611b1081611aec565b92915050565b5f8060408385031215611b2c57611b2b611881565b5b5f611b3985828601611a74565b9250506020611b4a85828601611b02565b9150509250929050565b5f805f60608486031215611b6b57611b6a611881565b5b5f611b78868287016119ee565b9350506020611b89868287016119ee565b9250506040611b9a868287016119ee565b9150509250925092565b5f60a082019050611bb75f830188611a2d565b611bc46020830187611a2d565b611bd16040830186611a2d565b611bde6060830185611a2d565b611beb6080830184611914565b9695505050505050565b5f80fd5b5f80fd5b5f80fd5b5f8083601f840112611c1657611c15611bf5565b5b8235905067ffffffffffffffff811115611c3357611c32611bf9565b5b602083019150836020820283011115611c4f57611c4e611bfd565b5b9250929050565b5f8083601f840112611c6b57611c6a611bf5565b5b8235905067ffffffffffffffff811115611c8857611c87611bf9565b5b602083019150836020820283011115611ca457611ca3611bfd565b5b9250929050565b5f805f8060408587031215611cc357611cc2611881565b5b5f85013567ffffffffffffffff811115611ce057611cdf611885565b5b611cec87828801611c01565b9450945050602085013567ffffffffffffffff811115611d0f57611d0e611885565b5b611d1b87828801611c56565b925092505092959194509250565b5f805f8060808587031215611d4157611d40611881565b5b5f611d4e878288016119ee565b9450506020611d5f878288016119ee565b9350506040611d70878288016119ee565b9250506060611d81878288016119ee565b91505092959194509250565b5f60208284031215611da257611da1611881565b5b5f611daf84828501611b02565b91505092915050565b611dc1816119cf565b82525050565b602082015f820151611ddb5f850182611db8565b50505050565b5f602082019050611df45f830184611dc7565b92915050565b5f805f60608486031215611e1157611e10611881565b5b5f611e1e868287016119ee565b9350506020611e2f86828701611b02565b9250506040611e40868287016119ee565b9150509250925092565b611e5381611909565b82525050565b60a082015f820151611e6d5f850182611db8565b506020820151611e806020850182611db8565b506040820151611e936040850182611db8565b506060820151611ea66060850182611db8565b506080820151611eb96080850182611e4a565b50505050565b5f60a082019050611ed25f830184611e59565b92915050565b5f8060408385031215611eee57611eed611881565b5b5f611efb85828601611b02565b9250506020611f0c85828601611b02565b9150509250929050565b5f82825260208201905092915050565b7f416363657373436f6e74726f6c3a2063616e206f6e6c792072656e6f756e63655f8201527f20726f6c657320666f722073656c660000000000000000000000000000000000602082015250565b5f611f80602f83611f16565b9150611f8b82611f26565b604082019050919050565b5f6020820190508181035f830152611fad81611f74565b9050919050565b7f526563697069656e747320616e6420746f6b656e20616d6f756e7473206c656e5f8201527f677468206d69736d617463680000000000000000000000000000000000000000602082015250565b5f61200e602c83611f16565b915061201982611fb4565b604082019050919050565b5f6020820190508181035f83015261203b81612002565b9050919050565b7f4e487b71000000000000000000000000000000000000000000000000000000005f52603260045260245ffd5b61207881611adb565b82525050565b5f6040820190506120915f83018561206f565b61209e6020830184611a2d565b9392505050565b7f4d696e74696e67206661696c656420666f7220726563697069656e74000000005f82015250565b5f6120d9601c83611f16565b91506120e4826120a5565b602082019050919050565b5f6020820190508181035f830152612106816120cd565b9050919050565b5f82825260208201905092915050565b5f819050919050565b61212f81611adb565b82525050565b5f6121408383612126565b60208301905092915050565b5f61215a6020840184611b02565b905092915050565b5f602082019050919050565b5f612179838561210d565b93506121848261211d565b805f5b858110156121bc57612199828461214c565b6121a38882612135565b97506121ae83612162565b925050600181019050612187565b5085925050509392505050565b5f82825260208201905092915050565b5f80fd5b82818337505050565b5f6121f183856121c9565b93507f07ffffffffffffffffffffffffffffffffffffffffffffffffffffffffffffff831115612224576122236121d9565b5b6020830292506122358385846121dd565b82840190509392505050565b5f6040820190508181035f83015261225a81868861216e565b9050818103602083015261226f8184866121e6565b905095945050505050565b7f4d656d62657220646f6573206e6f7420657869737400000000000000000000005f82015250565b5f6122ae601583611f16565b91506122b98261227a565b602082019050919050565b5f6020820190508181035f8301526122db816122a2565b9050919050565b7f4d656d62657220616c72656164792072656769737465726564000000000000005f82015250565b5f612316601983611f16565b9150612321826122e2565b602082019050919050565b5f6020820190508181035f8301526123438161230a565b9050919050565b5f60408201905061235d5f830185611a2d565b61236a6020830184611a2d565b9392505050565b7f4368616c6c656e67652073636f726520646f6573206e6f7420657869737400005f82015250565b5f6123a5601e83611f16565b91506123b082612371565b602082019050919050565b5f6020820190508181035f8301526123d281612399565b9050919050565b7f4368616c6c656e676520616c72656164792065786973747320666f72207468695f8201527f73206d656d6265722c20646174652c20616e642067616d650000000000000000602082015250565b5f612433603883611f16565b915061243e826123d9565b604082019050919050565b5f6020820190508181035f83015261246081612427565b9050919050565b5f60408201905061247a5f83018561206f565b612487602083018461206f565b9392505050565b5f8151905061249c816119d8565b92915050565b5f602082840312156124b7576124b6611881565b5b5f6124c48482850161248e565b91505092915050565b7f496e73756666696369656e7420746f6b656e20616c6c6f77616e6365000000005f82015250565b5f612501601c83611f16565b915061250c826124cd565b602082019050919050565b5f6020820190508181035f83015261252e816124f5565b9050919050565b5f6020820190506125485f83018461206f565b92915050565b7f496e73756666696369656e7420746f6b656e2062616c616e63650000000000005f82015250565b5f612582601a83611f16565b915061258d8261254e565b602082019050919050565b5f6020820190508181035f8301526125af81612576565b9050919050565b5f6060820190506125c95f83018661206f565b6125d6602083018561206f565b6125e36040830184611a2d565b949350505050565b6125f481611909565b81146125fe575f80fd5b50565b5f8151905061260f816125eb565b92915050565b5f6020828403121561262a57612629611881565b5b5f61263784828501612601565b91505092915050565b7f546f6b656e207472616e73666572206661696c656400000000000000000000005f82015250565b5f612674601583611f16565b915061267f82612640565b602082019050919050565b5f6020820190508181035f8301526126a181612668565b9050919050565b7f4368616c6c656e676520646f6573206e6f7420657869737400000000000000005f82015250565b5f6126dc601883611f16565b91506126e7826126a8565b602082019050919050565b5f6020820190508181035f830152612709816126d0565b9050919050565b5f81905092915050565b7f416363657373436f6e74726f6c3a206163636f756e74200000000000000000005f82015250565b5f61274e601783612710565b91506127598261271a565b601782019050919050565b5f81519050919050565b8281835e5f83830152505050565b5f61278682612764565b6127908185612710565b93506127a081856020860161276e565b80840191505092915050565b7f206973206d697373696e6720726f6c65200000000000000000000000000000005f82015250565b5f6127e0601183612710565b91506127eb826127ac565b601182019050919050565b5f61280082612742565b915061280c828561277c565b9150612817826127d4565b9150612823828461277c565b91508190509392505050565b5f601f19601f8301169050919050565b5f61284982612764565b6128538185611f16565b935061286381856020860161276e565b61286c8161282f565b840191505092915050565b5f6020820190508181035f83015261288f818461283f565b905092915050565b7f4e487b71000000000000000000000000000000000000000000000000000000005f52601160045260245ffd5b5f6128ce826119cf565b91506128d9836119cf565b92508282026128e7816119cf565b915082820484148315176128fe576128fd612897565b5b5092915050565b5f61290f826119cf565b915061291a836119cf565b925082820190508082111561293257612931612897565b5b92915050565b7f4e487b71000000000000000000000000000000000000000000000000000000005f52604160045260245ffd5b5f61296f826119cf565b91505f820361298157612980612897565b5b600182039050919050565b7f537472696e67733a20686578206c656e67746820696e73756666696369656e745f82015250565b5f6129c0602083611f16565b91506129cb8261298c565b602082019050919050565b5f6020820190508181035f8301526129ed816129b4565b905091905056fea26469706673582212205943d815dbe1ec7cb165c80c50455a9c069eb5a03dcdaff5c6fbb957b63937e664736f6c634300081a0033",
			"opcodes": "PUSH1 0x80 PUSH1 0x40 MSTORE CALLVALUE DUP1 ISZERO PUSH2 0xF JUMPI PUSH0 DUP1 REVERT JUMPDEST POP PUSH1 0x40 MLOAD PUSH2 0x2D31 CODESIZE SUB DUP1 PUSH2 0x2D31 DUP4 CODECOPY DUP2 DUP2 ADD PUSH1 0x40 MSTORE DUP2 ADD SWAP1 PUSH2 0x31 SWAP2 SWAP1 PUSH2 0x2BC JUMP JUMPDEST DUP2 PUSH1 0x1 PUSH0 PUSH2 0x100 EXP DUP2 SLOAD DUP2 PUSH20 0xFFFFFFFFFFFFFFFFFFFFFFFFFFFFFFFFFFFFFFFF MUL NOT AND SWAP1 DUP4 PUSH20 0xFFFFFFFFFFFFFFFFFFFFFFFFFFFFFFFFFFFFFFFF AND MUL OR SWAP1 SSTORE POP DUP1 PUSH1 0x2 PUSH0 PUSH2 0x100 EXP DUP2 SLOAD DUP2 PUSH20 0xFFFFFFFFFFFFFFFFFFFFFFFFFFFFFFFFFFFFFFFF MUL NOT AND SWAP1 DUP4 PUSH20 0xFFFFFFFFFFFFFFFFFFFFFFFFFFFFFFFFFFFFFFFF AND MUL OR SWAP1 SSTORE POP PUSH2 0xC3 PUSH0 DUP1 SHL CALLER PUSH2 0xFA PUSH1 0x20 SHL PUSH1 0x20 SHR JUMP JUMPDEST PUSH2 0xF3 PUSH32 0xA49807205CE4D355092EF5A8A18F56E8913CF4A201FBE287825B095693C21775 CALLER PUSH2 0xFA PUSH1 0x20 SHL PUSH1 0x20 SHR JUMP JUMPDEST POP POP PUSH2 0x2FA JUMP JUMPDEST PUSH2 0x10A DUP3 DUP3 PUSH2 0x10E PUSH1 0x20 SHL PUSH1 0x20 SHR JUMP JUMPDEST POP POP JUMP JUMPDEST PUSH2 0x11E DUP3 DUP3 PUSH2 0x1F4 PUSH1 0x20 SHL PUSH1 0x20 SHR JUMP JUMPDEST PUSH2 0x1F0 JUMPI PUSH1 0x1 PUSH0 DUP1 DUP5 DUP2 MSTORE PUSH1 0x20 ADD SWAP1 DUP2 MSTORE PUSH1 0x20 ADD PUSH0 KECCAK256 PUSH0 ADD PUSH0 DUP4 PUSH20 0xFFFFFFFFFFFFFFFFFFFFFFFFFFFFFFFFFFFFFFFF AND PUSH20 0xFFFFFFFFFFFFFFFFFFFFFFFFFFFFFFFFFFFFFFFF AND DUP2 MSTORE PUSH1 0x20 ADD SWAP1 DUP2 MSTORE PUSH1 0x20 ADD PUSH0 KECCAK256 PUSH0 PUSH2 0x100 EXP DUP2 SLOAD DUP2 PUSH1 0xFF MUL NOT AND SWAP1 DUP4 ISZERO ISZERO MUL OR SWAP1 SSTORE POP PUSH2 0x195 PUSH2 0x257 PUSH1 0x20 SHL PUSH1 0x20 SHR JUMP JUMPDEST PUSH20 0xFFFFFFFFFFFFFFFFFFFFFFFFFFFFFFFFFFFFFFFF AND DUP2 PUSH20 0xFFFFFFFFFFFFFFFFFFFFFFFFFFFFFFFFFFFFFFFF AND DUP4 PUSH32 0x2F8788117E7EFF1D82E926EC794901D17C78024A50270940304540A733656F0D PUSH1 0x40 MLOAD PUSH1 0x40 MLOAD DUP1 SWAP2 SUB SWAP1 LOG4 JUMPDEST POP POP JUMP JUMPDEST PUSH0 DUP1 PUSH0 DUP5 DUP2 MSTORE PUSH1 0x20 ADD SWAP1 DUP2 MSTORE PUSH1 0x20 ADD PUSH0 KECCAK256 PUSH0 ADD PUSH0 DUP4 PUSH20 0xFFFFFFFFFFFFFFFFFFFFFFFFFFFFFFFFFFFFFFFF AND PUSH20 0xFFFFFFFFFFFFFFFFFFFFFFFFFFFFFFFFFFFFFFFF AND DUP2 MSTORE PUSH1 0x20 ADD SWAP1 DUP2 MSTORE PUSH1 0x20 ADD PUSH0 KECCAK256 PUSH0 SWAP1 SLOAD SWAP1 PUSH2 0x100 EXP SWAP1 DIV PUSH1 0xFF AND SWAP1 POP SWAP3 SWAP2 POP POP JUMP JUMPDEST PUSH0 CALLER SWAP1 POP SWAP1 JUMP JUMPDEST PUSH0 DUP1 REVERT JUMPDEST PUSH0 PUSH20 0xFFFFFFFFFFFFFFFFFFFFFFFFFFFFFFFFFFFFFFFF DUP3 AND SWAP1 POP SWAP2 SWAP1 POP JUMP JUMPDEST PUSH0 PUSH2 0x28B DUP3 PUSH2 0x262 JUMP JUMPDEST SWAP1 POP SWAP2 SWAP1 POP JUMP JUMPDEST PUSH2 0x29B DUP2 PUSH2 0x281 JUMP JUMPDEST DUP2 EQ PUSH2 0x2A5 JUMPI PUSH0 DUP1 REVERT JUMPDEST POP JUMP JUMPDEST PUSH0 DUP2 MLOAD SWAP1 POP PUSH2 0x2B6 DUP2 PUSH2 0x292 JUMP JUMPDEST SWAP3 SWAP2 POP POP JUMP JUMPDEST PUSH0 DUP1 PUSH1 0x40 DUP4 DUP6 SUB SLT ISZERO PUSH2 0x2D2 JUMPI PUSH2 0x2D1 PUSH2 0x25E JUMP JUMPDEST JUMPDEST PUSH0 PUSH2 0x2DF DUP6 DUP3 DUP7 ADD PUSH2 0x2A8 JUMP JUMPDEST SWAP3 POP POP PUSH1 0x20 PUSH2 0x2F0 DUP6 DUP3 DUP7 ADD PUSH2 0x2A8 JUMP JUMPDEST SWAP2 POP POP SWAP3 POP SWAP3 SWAP1 POP JUMP JUMPDEST PUSH2 0x2A2A DUP1 PUSH2 0x307 PUSH0 CODECOPY PUSH0 RETURN INVALID PUSH1 0x80 PUSH1 0x40 MSTORE CALLVALUE DUP1 ISZERO PUSH2 0xF JUMPI PUSH0 DUP1 REVERT JUMPDEST POP PUSH1 0x4 CALLDATASIZE LT PUSH2 0x14B JUMPI PUSH0 CALLDATALOAD PUSH1 0xE0 SHR DUP1 PUSH4 0x9A19C7B0 GT PUSH2 0xC1 JUMPI DUP1 PUSH4 0xC634B78E GT PUSH2 0x7A JUMPI DUP1 PUSH4 0xC634B78E EQ PUSH2 0x3D5 JUMPI DUP1 PUSH4 0xCA1C996F EQ PUSH2 0x3F1 JUMPI DUP1 PUSH4 0xCBC7854E EQ PUSH2 0x40D JUMPI DUP1 PUSH4 0xD547741F EQ PUSH2 0x429 JUMPI DUP1 PUSH4 0xDD0C8082 EQ PUSH2 0x445 JUMPI DUP1 PUSH4 0xDD7D2B9F EQ PUSH2 0x463 JUMPI PUSH2 0x14B JUMP JUMPDEST DUP1 PUSH4 0x9A19C7B0 EQ PUSH2 0x2EF JUMPI DUP1 PUSH4 0xA217FDDF EQ PUSH2 0x30B JUMPI DUP1 PUSH4 0xAE99AA3C EQ PUSH2 0x329 JUMPI DUP1 PUSH4 0xAEA08734 EQ PUSH2 0x359 JUMPI DUP1 PUSH4 0xB5B0E48A EQ PUSH2 0x375 JUMPI DUP1 PUSH4 0xBB10AB0F EQ PUSH2 0x3A5 JUMPI PUSH2 0x14B JUMP JUMPDEST DUP1 PUSH4 0x355B9D3F GT PUSH2 0x113 JUMPI DUP1 PUSH4 0x355B9D3F EQ PUSH2 0x219 JUMPI DUP1 PUSH4 0x36568ABE EQ PUSH2 0x24D JUMPI DUP1 PUSH4 0x406A378A EQ PUSH2 0x269 JUMPI DUP1 PUSH4 0x75B238FC EQ PUSH2 0x285 JUMPI DUP1 PUSH4 0x8525EA16 EQ PUSH2 0x2A3 JUMPI DUP1 PUSH4 0x91D14854 EQ PUSH2 0x2BF JUMPI PUSH2 0x14B JUMP JUMPDEST DUP1 PUSH4 0x1FFC9A7 EQ PUSH2 0x14F JUMPI DUP1 PUSH4 0x1B72FA3A EQ PUSH2 0x17F JUMPI DUP1 PUSH4 0x1FD3C85B EQ PUSH2 0x19D JUMPI DUP1 PUSH4 0x248A9CA3 EQ PUSH2 0x1CD JUMPI DUP1 PUSH4 0x2F2FF15D EQ PUSH2 0x1FD JUMPI JUMPDEST PUSH0 DUP1 REVERT JUMPDEST PUSH2 0x169 PUSH1 0x4 DUP1 CALLDATASIZE SUB DUP2 ADD SWAP1 PUSH2 0x164 SWAP2 SWAP1 PUSH2 0x18DE JUMP JUMPDEST PUSH2 0x47F JUMP JUMPDEST PUSH1 0x40 MLOAD PUSH2 0x176 SWAP2 SWAP1 PUSH2 0x1923 JUMP JUMPDEST PUSH1 0x40 MLOAD DUP1 SWAP2 SUB SWAP1 RETURN JUMPDEST PUSH2 0x187 PUSH2 0x4F8 JUMP JUMPDEST PUSH1 0x40 MLOAD PUSH2 0x194 SWAP2 SWAP1 PUSH2 0x19B6 JUMP JUMPDEST PUSH1 0x40 MLOAD DUP1 SWAP2 SUB SWAP1 RETURN JUMPDEST PUSH2 0x1B7 PUSH1 0x4 DUP1 CALLDATASIZE SUB DUP2 ADD SWAP1 PUSH2 0x1B2 SWAP2 SWAP1 PUSH2 0x1A02 JUMP JUMPDEST PUSH2 0x51D JUMP JUMPDEST PUSH1 0x40 MLOAD PUSH2 0x1C4 SWAP2 SWAP1 PUSH2 0x1A3C JUMP JUMPDEST PUSH1 0x40 MLOAD DUP1 SWAP2 SUB SWAP1 RETURN JUMPDEST PUSH2 0x1E7 PUSH1 0x4 DUP1 CALLDATASIZE SUB DUP2 ADD SWAP1 PUSH2 0x1E2 SWAP2 SWAP1 PUSH2 0x1A88 JUMP JUMPDEST PUSH2 0x53D JUMP JUMPDEST PUSH1 0x40 MLOAD PUSH2 0x1F4 SWAP2 SWAP1 PUSH2 0x1AC2 JUMP JUMPDEST PUSH1 0x40 MLOAD DUP1 SWAP2 SUB SWAP1 RETURN JUMPDEST PUSH2 0x217 PUSH1 0x4 DUP1 CALLDATASIZE SUB DUP2 ADD SWAP1 PUSH2 0x212 SWAP2 SWAP1 PUSH2 0x1B16 JUMP JUMPDEST PUSH2 0x559 JUMP JUMPDEST STOP JUMPDEST PUSH2 0x233 PUSH1 0x4 DUP1 CALLDATASIZE SUB DUP2 ADD SWAP1 PUSH2 0x22E SWAP2 SWAP1 PUSH2 0x1B54 JUMP JUMPDEST PUSH2 0x57A JUMP JUMPDEST PUSH1 0x40 MLOAD PUSH2 0x244 SWAP6 SWAP5 SWAP4 SWAP3 SWAP2 SWAP1 PUSH2 0x1BA4 JUMP JUMPDEST PUSH1 0x40 MLOAD DUP1 SWAP2 SUB SWAP1 RETURN JUMPDEST PUSH2 0x267 PUSH1 0x4 DUP1 CALLDATASIZE SUB DUP2 ADD SWAP1 PUSH2 0x262 SWAP2 SWAP1 PUSH2 0x1B16 JUMP JUMPDEST PUSH2 0x5CE JUMP JUMPDEST STOP JUMPDEST PUSH2 0x283 PUSH1 0x4 DUP1 CALLDATASIZE SUB DUP2 ADD SWAP1 PUSH2 0x27E SWAP2 SWAP1 PUSH2 0x1CAB JUMP JUMPDEST PUSH2 0x651 JUMP JUMPDEST STOP JUMPDEST PUSH2 0x28D PUSH2 0x825 JUMP JUMPDEST PUSH1 0x40 MLOAD PUSH2 0x29A SWAP2 SWAP1 PUSH2 0x1AC2 JUMP JUMPDEST PUSH1 0x40 MLOAD DUP1 SWAP2 SUB SWAP1 RETURN JUMPDEST PUSH2 0x2BD PUSH1 0x4 DUP1 CALLDATASIZE SUB DUP2 ADD SWAP1 PUSH2 0x2B8 SWAP2 SWAP1 PUSH2 0x1D29 JUMP JUMPDEST PUSH2 0x849 JUMP JUMPDEST STOP JUMPDEST PUSH2 0x2D9 PUSH1 0x4 DUP1 CALLDATASIZE SUB DUP2 ADD SWAP1 PUSH2 0x2D4 SWAP2 SWAP1 PUSH2 0x1B16 JUMP JUMPDEST PUSH2 0x8B4 JUMP JUMPDEST PUSH1 0x40 MLOAD PUSH2 0x2E6 SWAP2 SWAP1 PUSH2 0x1923 JUMP JUMPDEST PUSH1 0x40 MLOAD DUP1 SWAP2 SUB SWAP1 RETURN JUMPDEST PUSH2 0x309 PUSH1 0x4 DUP1 CALLDATASIZE SUB DUP2 ADD SWAP1 PUSH2 0x304 SWAP2 SWAP1 PUSH2 0x1D8D JUMP JUMPDEST PUSH2 0x917 JUMP JUMPDEST STOP JUMPDEST PUSH2 0x313 PUSH2 0x951 JUMP JUMPDEST PUSH1 0x40 MLOAD PUSH2 0x320 SWAP2 SWAP1 PUSH2 0x1AC2 JUMP JUMPDEST PUSH1 0x40 MLOAD DUP1 SWAP2 SUB SWAP1 RETURN JUMPDEST PUSH2 0x343 PUSH1 0x4 DUP1 CALLDATASIZE SUB DUP2 ADD SWAP1 PUSH2 0x33E SWAP2 SWAP1 PUSH2 0x1A02 JUMP JUMPDEST PUSH2 0x957 JUMP JUMPDEST PUSH1 0x40 MLOAD PUSH2 0x350 SWAP2 SWAP1 PUSH2 0x1DE1 JUMP JUMPDEST PUSH1 0x40 MLOAD DUP1 SWAP2 SUB SWAP1 RETURN JUMPDEST PUSH2 0x373 PUSH1 0x4 DUP1 CALLDATASIZE SUB DUP2 ADD SWAP1 PUSH2 0x36E SWAP2 SWAP1 PUSH2 0x1DFA JUMP JUMPDEST PUSH2 0x9E0 JUMP JUMPDEST STOP JUMPDEST PUSH2 0x38F PUSH1 0x4 DUP1 CALLDATASIZE SUB DUP2 ADD SWAP1 PUSH2 0x38A SWAP2 SWAP1 PUSH2 0x1B54 JUMP JUMPDEST PUSH2 0xB78 JUMP JUMPDEST PUSH1 0x40 MLOAD PUSH2 0x39C SWAP2 SWAP1 PUSH2 0x1EBF JUMP JUMPDEST PUSH1 0x40 MLOAD DUP1 SWAP2 SUB SWAP1 RETURN JUMPDEST PUSH2 0x3BF PUSH1 0x4 DUP1 CALLDATASIZE SUB DUP2 ADD SWAP1 PUSH2 0x3BA SWAP2 SWAP1 PUSH2 0x1A02 JUMP JUMPDEST PUSH2 0xC82 JUMP JUMPDEST PUSH1 0x40 MLOAD PUSH2 0x3CC SWAP2 SWAP1 PUSH2 0x1A3C JUMP JUMPDEST PUSH1 0x40 MLOAD DUP1 SWAP2 SUB SWAP1 RETURN JUMPDEST PUSH2 0x3EF PUSH1 0x4 DUP1 CALLDATASIZE SUB DUP2 ADD SWAP1 PUSH2 0x3EA SWAP2 SWAP1 PUSH2 0x1D8D JUMP JUMPDEST PUSH2 0xC9C JUMP JUMPDEST STOP JUMPDEST PUSH2 0x40B PUSH1 0x4 DUP1 CALLDATASIZE SUB DUP2 ADD SWAP1 PUSH2 0x406 SWAP2 SWAP1 PUSH2 0x1D29 JUMP JUMPDEST PUSH2 0xCD6 JUMP JUMPDEST STOP JUMPDEST PUSH2 0x427 PUSH1 0x4 DUP1 CALLDATASIZE SUB DUP2 ADD SWAP1 PUSH2 0x422 SWAP2 SWAP1 PUSH2 0x1ED8 JUMP JUMPDEST PUSH2 0x10D5 JUMP JUMPDEST STOP JUMPDEST PUSH2 0x443 PUSH1 0x4 DUP1 CALLDATASIZE SUB DUP2 ADD SWAP1 PUSH2 0x43E SWAP2 SWAP1 PUSH2 0x1B16 JUMP JUMPDEST PUSH2 0x1184 JUMP JUMPDEST STOP JUMPDEST PUSH2 0x44D PUSH2 0x11A5 JUMP JUMPDEST PUSH1 0x40 MLOAD PUSH2 0x45A SWAP2 SWAP1 PUSH2 0x19B6 JUMP JUMPDEST PUSH1 0x40 MLOAD DUP1 SWAP2 SUB SWAP1 RETURN JUMPDEST PUSH2 0x47D PUSH1 0x4 DUP1 CALLDATASIZE SUB DUP2 ADD SWAP1 PUSH2 0x478 SWAP2 SWAP1 PUSH2 0x1D29 JUMP JUMPDEST PUSH2 0x11CA JUMP JUMPDEST STOP JUMPDEST PUSH0 PUSH32 0x7965DB0B00000000000000000000000000000000000000000000000000000000 PUSH28 0xFFFFFFFFFFFFFFFFFFFFFFFFFFFFFFFFFFFFFFFFFFFFFFFFFFFFFFFF NOT AND DUP3 PUSH28 0xFFFFFFFFFFFFFFFFFFFFFFFFFFFFFFFFFFFFFFFFFFFFFFFFFFFFFFFF NOT AND EQ DUP1 PUSH2 0x4F1 JUMPI POP PUSH2 0x4F0 DUP3 PUSH2 0x1325 JUMP JUMPDEST JUMPDEST SWAP1 POP SWAP2 SWAP1 POP JUMP JUMPDEST PUSH1 0x2 PUSH0 SWAP1 SLOAD SWAP1 PUSH2 0x100 EXP SWAP1 DIV PUSH20 0xFFFFFFFFFFFFFFFFFFFFFFFFFFFFFFFFFFFFFFFF AND DUP2 JUMP JUMPDEST PUSH1 0x4 DUP2 DUP2 SLOAD DUP2 LT PUSH2 0x52C JUMPI PUSH0 DUP1 REVERT JUMPDEST SWAP1 PUSH0 MSTORE PUSH1 0x20 PUSH0 KECCAK256 ADD PUSH0 SWAP2 POP SWAP1 POP SLOAD DUP2 JUMP JUMPDEST PUSH0 DUP1 PUSH0 DUP4 DUP2 MSTORE PUSH1 0x20 ADD SWAP1 DUP2 MSTORE PUSH1 0x20 ADD PUSH0 KECCAK256 PUSH1 0x1 ADD SLOAD SWAP1 POP SWAP2 SWAP1 POP JUMP JUMPDEST PUSH2 0x562 DUP3 PUSH2 0x53D JUMP JUMPDEST PUSH2 0x56B DUP2 PUSH2 0x138E JUMP JUMPDEST PUSH2 0x575 DUP4 DUP4 PUSH2 0x13A2 JUMP JUMPDEST POP POP POP JUMP JUMPDEST PUSH1 0x5 PUSH1 0x20 MSTORE DUP3 PUSH0 MSTORE PUSH1 0x40 PUSH0 KECCAK256 PUSH1 0x20 MSTORE DUP2 PUSH0 MSTORE PUSH1 0x40 PUSH0 KECCAK256 PUSH1 0x20 MSTORE DUP1 PUSH0 MSTORE PUSH1 0x40 PUSH0 KECCAK256 PUSH0 SWAP3 POP SWAP3 POP POP POP DUP1 PUSH0 ADD SLOAD SWAP1 DUP1 PUSH1 0x1 ADD SLOAD SWAP1 DUP1 PUSH1 0x2 ADD SLOAD SWAP1 DUP1 PUSH1 0x3 ADD SLOAD SWAP1 DUP1 PUSH1 0x4 ADD PUSH0 SWAP1 SLOAD SWAP1 PUSH2 0x100 EXP SWAP1 DIV PUSH1 0xFF AND SWAP1 POP DUP6 JUMP JUMPDEST PUSH2 0x5D6 PUSH2 0x147C JUMP JUMPDEST PUSH20 0xFFFFFFFFFFFFFFFFFFFFFFFFFFFFFFFFFFFFFFFF AND DUP2 PUSH20 0xFFFFFFFFFFFFFFFFFFFFFFFFFFFFFFFFFFFFFFFF AND EQ PUSH2 0x643 JUMPI PUSH1 0x40 MLOAD PUSH32 0x8C379A000000000000000000000000000000000000000000000000000000000 DUP2 MSTORE PUSH1 0x4 ADD PUSH2 0x63A SWAP1 PUSH2 0x1F96 JUMP JUMPDEST PUSH1 0x40 MLOAD DUP1 SWAP2 SUB SWAP1 REVERT JUMPDEST PUSH2 0x64D DUP3 DUP3 PUSH2 0x1483 JUMP JUMPDEST POP POP JUMP JUMPDEST PUSH32 0xA49807205CE4D355092EF5A8A18F56E8913CF4A201FBE287825B095693C21775 PUSH2 0x67B DUP2 PUSH2 0x138E JUMP JUMPDEST DUP3 DUP3 SWAP1 POP DUP6 DUP6 SWAP1 POP EQ PUSH2 0x6C3 JUMPI PUSH1 0x40 MLOAD PUSH32 0x8C379A000000000000000000000000000000000000000000000000000000000 DUP2 MSTORE PUSH1 0x4 ADD PUSH2 0x6BA SWAP1 PUSH2 0x2024 JUMP JUMPDEST PUSH1 0x40 MLOAD DUP1 SWAP2 SUB SWAP1 REVERT JUMPDEST PUSH0 JUMPDEST DUP6 DUP6 SWAP1 POP DUP2 LT ISZERO PUSH2 0x7E0 JUMPI PUSH1 0x2 PUSH0 SWAP1 SLOAD SWAP1 PUSH2 0x100 EXP SWAP1 DIV PUSH20 0xFFFFFFFFFFFFFFFFFFFFFFFFFFFFFFFFFFFFFFFF AND PUSH20 0xFFFFFFFFFFFFFFFFFFFFFFFFFFFFFFFFFFFFFFFF AND PUSH4 0x40C10F19 DUP8 DUP8 DUP5 DUP2 DUP2 LT PUSH2 0x720 JUMPI PUSH2 0x71F PUSH2 0x2042 JUMP JUMPDEST JUMPDEST SWAP1 POP PUSH1 0x20 MUL ADD PUSH1 0x20 DUP2 ADD SWAP1 PUSH2 0x735 SWAP2 SWAP1 PUSH2 0x1D8D JUMP JUMPDEST DUP7 DUP7 DUP6 DUP2 DUP2 LT PUSH2 0x748 JUMPI PUSH2 0x747 PUSH2 0x2042 JUMP JUMPDEST JUMPDEST SWAP1 POP PUSH1 0x20 MUL ADD CALLDATALOAD PUSH1 0x40 MLOAD DUP4 PUSH4 0xFFFFFFFF AND PUSH1 0xE0 SHL DUP2 MSTORE PUSH1 0x4 ADD PUSH2 0x76C SWAP3 SWAP2 SWAP1 PUSH2 0x207E JUMP JUMPDEST PUSH0 PUSH1 0x40 MLOAD DUP1 DUP4 SUB DUP2 PUSH0 DUP8 DUP1 EXTCODESIZE ISZERO DUP1 ISZERO PUSH2 0x783 JUMPI PUSH0 DUP1 REVERT JUMPDEST POP GAS CALL SWAP3 POP POP POP DUP1 ISZERO PUSH2 0x794 JUMPI POP PUSH1 0x1 JUMPDEST PUSH2 0x7D3 JUMPI PUSH1 0x40 MLOAD PUSH32 0x8C379A000000000000000000000000000000000000000000000000000000000 DUP2 MSTORE PUSH1 0x4 ADD PUSH2 0x7CA SWAP1 PUSH2 0x20EF JUMP JUMPDEST PUSH1 0x40 MLOAD DUP1 SWAP2 SUB SWAP1 REVERT JUMPDEST DUP1 DUP1 PUSH1 0x1 ADD SWAP2 POP POP PUSH2 0x6C5 JUMP JUMPDEST POP PUSH32 0xFA3B7284ECB3A03E8F238B69B61F5645294C15019EA509BD4AAEE604D60FDC34 DUP6 DUP6 DUP6 DUP6 PUSH1 0x40 MLOAD PUSH2 0x816 SWAP5 SWAP4 SWAP3 SWAP2 SWAP1 PUSH2 0x2241 JUMP JUMPDEST PUSH1 0x40 MLOAD DUP1 SWAP2 SUB SWAP1 LOG1 POP POP POP POP POP JUMP JUMPDEST PUSH32 0xA49807205CE4D355092EF5A8A18F56E8913CF4A201FBE287825B095693C21775 DUP2 JUMP JUMPDEST PUSH32 0xA49807205CE4D355092EF5A8A18F56E8913CF4A201FBE287825B095693C21775 PUSH2 0x873 DUP2 PUSH2 0x138E JUMP JUMPDEST DUP3 DUP5 DUP7 PUSH32 0x56253FE63CA8B57BA2974CD5DD75F8D5F4F4BC99E0798022A4773599CBFC362 DUP6 PUSH1 0x40 MLOAD PUSH2 0x8A5 SWAP2 SWAP1 PUSH2 0x1A3C JUMP JUMPDEST PUSH1 0x40 MLOAD DUP1 SWAP2 SUB SWAP1 LOG4 POP POP POP POP POP JUMP JUMPDEST PUSH0 DUP1 PUSH0 DUP5 DUP2 MSTORE PUSH1 0x20 ADD SWAP1 DUP2 MSTORE PUSH1 0x20 ADD PUSH0 KECCAK256 PUSH0 ADD PUSH0 DUP4 PUSH20 0xFFFFFFFFFFFFFFFFFFFFFFFFFFFFFFFFFFFFFFFF AND PUSH20 0xFFFFFFFFFFFFFFFFFFFFFFFFFFFFFFFFFFFFFFFF AND DUP2 MSTORE PUSH1 0x20 ADD SWAP1 DUP2 MSTORE PUSH1 0x20 ADD PUSH0 KECCAK256 PUSH0 SWAP1 SLOAD SWAP1 PUSH2 0x100 EXP SWAP1 DIV PUSH1 0xFF AND SWAP1 POP SWAP3 SWAP2 POP POP JUMP JUMPDEST PUSH0 DUP1 SHL PUSH2 0x923 DUP2 PUSH2 0x138E JUMP JUMPDEST PUSH2 0x94D PUSH32 0xA49807205CE4D355092EF5A8A18F56E8913CF4A201FBE287825B095693C21775 DUP4 PUSH2 0x1184 JUMP JUMPDEST POP POP JUMP JUMPDEST PUSH0 DUP1 SHL DUP2 JUMP JUMPDEST PUSH2 0x95F PUSH2 0x1843 JUMP JUMPDEST PUSH0 PUSH1 0x3 PUSH0 DUP5 DUP2 MSTORE PUSH1 0x20 ADD SWAP1 DUP2 MSTORE PUSH1 0x20 ADD PUSH0 KECCAK256 PUSH0 ADD SLOAD GT PUSH2 0x9B4 JUMPI PUSH1 0x40 MLOAD PUSH32 0x8C379A000000000000000000000000000000000000000000000000000000000 DUP2 MSTORE PUSH1 0x4 ADD PUSH2 0x9AB SWAP1 PUSH2 0x22C4 JUMP JUMPDEST PUSH1 0x40 MLOAD DUP1 SWAP2 SUB SWAP1 REVERT JUMPDEST PUSH1 0x3 PUSH0 DUP4 DUP2 MSTORE PUSH1 0x20 ADD SWAP1 DUP2 MSTORE PUSH1 0x20 ADD PUSH0 KECCAK256 PUSH1 0x40 MLOAD DUP1 PUSH1 0x20 ADD PUSH1 0x40 MSTORE SWAP1 DUP2 PUSH0 DUP3 ADD SLOAD DUP2 MSTORE POP POP SWAP1 POP SWAP2 SWAP1 POP JUMP JUMPDEST PUSH32 0xA49807205CE4D355092EF5A8A18F56E8913CF4A201FBE287825B095693C21775 PUSH2 0xA0A DUP2 PUSH2 0x138E JUMP JUMPDEST PUSH0 PUSH1 0x3 PUSH0 DUP7 DUP2 MSTORE PUSH1 0x20 ADD SWAP1 DUP2 MSTORE PUSH1 0x20 ADD PUSH0 KECCAK256 PUSH0 ADD SLOAD EQ PUSH2 0xA5F JUMPI PUSH1 0x40 MLOAD PUSH32 0x8C379A000000000000000000000000000000000000000000000000000000000 DUP2 MSTORE PUSH1 0x4 ADD PUSH2 0xA56 SWAP1 PUSH2 0x232C JUMP JUMPDEST PUSH1 0x40 MLOAD DUP1 SWAP2 SUB SWAP1 REVERT JUMPDEST PUSH1 0x40 MLOAD DUP1 PUSH1 0x20 ADD PUSH1 0x40 MSTORE DUP1 DUP6 DUP2 MSTORE POP PUSH1 0x3 PUSH0 DUP7 DUP2 MSTORE PUSH1 0x20 ADD SWAP1 DUP2 MSTORE PUSH1 0x20 ADD PUSH0 KECCAK256 PUSH0 DUP3 ADD MLOAD DUP2 PUSH0 ADD SSTORE SWAP1 POP POP PUSH1 0x4 DUP5 SWAP1 DUP1 PUSH1 0x1 DUP2 SLOAD ADD DUP1 DUP3 SSTORE DUP1 SWAP2 POP POP PUSH1 0x1 SWAP1 SUB SWAP1 PUSH0 MSTORE PUSH1 0x20 PUSH0 KECCAK256 ADD PUSH0 SWAP1 SWAP2 SWAP1 SWAP2 SWAP1 SWAP2 POP SSTORE PUSH1 0x1 PUSH0 SWAP1 SLOAD SWAP1 PUSH2 0x100 EXP SWAP1 DIV PUSH20 0xFFFFFFFFFFFFFFFFFFFFFFFFFFFFFFFFFFFFFFFF AND PUSH20 0xFFFFFFFFFFFFFFFFFFFFFFFFFFFFFFFFFFFFFFFF AND PUSH4 0x40C10F19 DUP5 DUP5 PUSH1 0x40 MLOAD DUP4 PUSH4 0xFFFFFFFF AND PUSH1 0xE0 SHL DUP2 MSTORE PUSH1 0x4 ADD PUSH2 0xB0C SWAP3 SWAP2 SWAP1 PUSH2 0x207E JUMP JUMPDEST PUSH0 PUSH1 0x40 MLOAD DUP1 DUP4 SUB DUP2 PUSH0 DUP8 DUP1 EXTCODESIZE ISZERO DUP1 ISZERO PUSH2 0xB23 JUMPI PUSH0 DUP1 REVERT JUMPDEST POP GAS CALL ISZERO DUP1 ISZERO PUSH2 0xB35 JUMPI RETURNDATASIZE PUSH0 DUP1 RETURNDATACOPY RETURNDATASIZE PUSH0 REVERT JUMPDEST POP POP POP POP PUSH32 0x5A92C2530F207992057B9C3E544108FFCE3BEDA4A63719F316967C49BF6159D2 DUP5 DUP4 PUSH1 0x40 MLOAD PUSH2 0xB6A SWAP3 SWAP2 SWAP1 PUSH2 0x234A JUMP JUMPDEST PUSH1 0x40 MLOAD DUP1 SWAP2 SUB SWAP1 LOG1 POP POP POP POP JUMP JUMPDEST PUSH2 0xB80 PUSH2 0x1855 JUMP JUMPDEST PUSH1 0x5 PUSH0 DUP6 DUP2 MSTORE PUSH1 0x20 ADD SWAP1 DUP2 MSTORE PUSH1 0x20 ADD PUSH0 KECCAK256 PUSH0 DUP5 DUP2 MSTORE PUSH1 0x20 ADD SWAP1 DUP2 MSTORE PUSH1 0x20 ADD PUSH0 KECCAK256 PUSH0 DUP4 DUP2 MSTORE PUSH1 0x20 ADD SWAP1 DUP2 MSTORE PUSH1 0x20 ADD PUSH0 KECCAK256 PUSH1 0x4 ADD PUSH0 SWAP1 SLOAD SWAP1 PUSH2 0x100 EXP SWAP1 DIV PUSH1 0xFF AND PUSH2 0xBFE JUMPI PUSH1 0x40 MLOAD PUSH32 0x8C379A000000000000000000000000000000000000000000000000000000000 DUP2 MSTORE PUSH1 0x4 ADD PUSH2 0xBF5 SWAP1 PUSH2 0x23BB JUMP JUMPDEST PUSH1 0x40 MLOAD DUP1 SWAP2 SUB SWAP1 REVERT JUMPDEST PUSH1 0x5 PUSH0 DUP6 DUP2 MSTORE PUSH1 0x20 ADD SWAP1 DUP2 MSTORE PUSH1 0x20 ADD PUSH0 KECCAK256 PUSH0 DUP5 DUP2 MSTORE PUSH1 0x20 ADD SWAP1 DUP2 MSTORE PUSH1 0x20 ADD PUSH0 KECCAK256 PUSH0 DUP4 DUP2 MSTORE PUSH1 0x20 ADD SWAP1 DUP2 MSTORE PUSH1 0x20 ADD PUSH0 KECCAK256 PUSH1 0x40 MLOAD DUP1 PUSH1 0xA0 ADD PUSH1 0x40 MSTORE SWAP1 DUP2 PUSH0 DUP3 ADD SLOAD DUP2 MSTORE PUSH1 0x20 ADD PUSH1 0x1 DUP3 ADD SLOAD DUP2 MSTORE PUSH1 0x20 ADD PUSH1 0x2 DUP3 ADD SLOAD DUP2 MSTORE PUSH1 0x20 ADD PUSH1 0x3 DUP3 ADD SLOAD DUP2 MSTORE PUSH1 0x20 ADD PUSH1 0x4 DUP3 ADD PUSH0 SWAP1 SLOAD SWAP1 PUSH2 0x100 EXP SWAP1 DIV PUSH1 0xFF AND ISZERO ISZERO ISZERO ISZERO DUP2 MSTORE POP POP SWAP1 POP SWAP4 SWAP3 POP POP POP JUMP JUMPDEST PUSH1 0x3 PUSH1 0x20 MSTORE DUP1 PUSH0 MSTORE PUSH1 0x40 PUSH0 KECCAK256 PUSH0 SWAP2 POP SWAP1 POP DUP1 PUSH0 ADD SLOAD SWAP1 POP DUP2 JUMP JUMPDEST PUSH0 DUP1 SHL PUSH2 0xCA8 DUP2 PUSH2 0x138E JUMP JUMPDEST PUSH2 0xCD2 PUSH32 0xA49807205CE4D355092EF5A8A18F56E8913CF4A201FBE287825B095693C21775 DUP4 PUSH2 0x559 JUMP JUMPDEST POP POP JUMP JUMPDEST PUSH1 0x5 PUSH0 DUP6 DUP2 MSTORE PUSH1 0x20 ADD SWAP1 DUP2 MSTORE PUSH1 0x20 ADD PUSH0 KECCAK256 PUSH0 DUP5 DUP2 MSTORE PUSH1 0x20 ADD SWAP1 DUP2 MSTORE PUSH1 0x20 ADD PUSH0 KECCAK256 PUSH0 DUP4 DUP2 MSTORE PUSH1 0x20 ADD SWAP1 DUP2 MSTORE PUSH1 0x20 ADD PUSH0 KECCAK256 PUSH1 0x4 ADD PUSH0 SWAP1 SLOAD SWAP1 PUSH2 0x100 EXP SWAP1 DIV PUSH1 0xFF AND ISZERO PUSH2 0xD55 JUMPI PUSH1 0x40 MLOAD PUSH32 0x8C379A000000000000000000000000000000000000000000000000000000000 DUP2 MSTORE PUSH1 0x4 ADD PUSH2 0xD4C SWAP1 PUSH2 0x2449 JUMP JUMPDEST PUSH1 0x40 MLOAD DUP1 SWAP2 SUB SWAP1 REVERT JUMPDEST PUSH0 PUSH1 0x1 PUSH0 SWAP1 SLOAD SWAP1 PUSH2 0x100 EXP SWAP1 DIV PUSH20 0xFFFFFFFFFFFFFFFFFFFFFFFFFFFFFFFFFFFFFFFF AND PUSH20 0xFFFFFFFFFFFFFFFFFFFFFFFFFFFFFFFFFFFFFFFF AND PUSH4 0xDD62ED3E CALLER ADDRESS PUSH1 0x40 MLOAD DUP4 PUSH4 0xFFFFFFFF AND PUSH1 0xE0 SHL DUP2 MSTORE PUSH1 0x4 ADD PUSH2 0xDB2 SWAP3 SWAP2 SWAP1 PUSH2 0x2467 JUMP JUMPDEST PUSH1 0x20 PUSH1 0x40 MLOAD DUP1 DUP4 SUB DUP2 DUP7 GAS STATICCALL ISZERO DUP1 ISZERO PUSH2 0xDCD JUMPI RETURNDATASIZE PUSH0 DUP1 RETURNDATACOPY RETURNDATASIZE PUSH0 REVERT JUMPDEST POP POP POP POP PUSH1 0x40 MLOAD RETURNDATASIZE PUSH1 0x1F NOT PUSH1 0x1F DUP3 ADD AND DUP3 ADD DUP1 PUSH1 0x40 MSTORE POP DUP2 ADD SWAP1 PUSH2 0xDF1 SWAP2 SWAP1 PUSH2 0x24A2 JUMP JUMPDEST SWAP1 POP DUP2 DUP2 LT ISZERO PUSH2 0xE36 JUMPI PUSH1 0x40 MLOAD PUSH32 0x8C379A000000000000000000000000000000000000000000000000000000000 DUP2 MSTORE PUSH1 0x4 ADD PUSH2 0xE2D SWAP1 PUSH2 0x2517 JUMP JUMPDEST PUSH1 0x40 MLOAD DUP1 SWAP2 SUB SWAP1 REVERT JUMPDEST PUSH0 PUSH1 0x1 PUSH0 SWAP1 SLOAD SWAP1 PUSH2 0x100 EXP SWAP1 DIV PUSH20 0xFFFFFFFFFFFFFFFFFFFFFFFFFFFFFFFFFFFFFFFF AND PUSH20 0xFFFFFFFFFFFFFFFFFFFFFFFFFFFFFFFFFFFFFFFF AND PUSH4 0x70A08231 CALLER PUSH1 0x40 MLOAD DUP3 PUSH4 0xFFFFFFFF AND PUSH1 0xE0 SHL DUP2 MSTORE PUSH1 0x4 ADD PUSH2 0xE91 SWAP2 SWAP1 PUSH2 0x2535 JUMP JUMPDEST PUSH1 0x20 PUSH1 0x40 MLOAD DUP1 DUP4 SUB DUP2 DUP7 GAS STATICCALL ISZERO DUP1 ISZERO PUSH2 0xEAC JUMPI RETURNDATASIZE PUSH0 DUP1 RETURNDATACOPY RETURNDATASIZE PUSH0 REVERT JUMPDEST POP POP POP POP PUSH1 0x40 MLOAD RETURNDATASIZE PUSH1 0x1F NOT PUSH1 0x1F DUP3 ADD AND DUP3 ADD DUP1 PUSH1 0x40 MSTORE POP DUP2 ADD SWAP1 PUSH2 0xED0 SWAP2 SWAP1 PUSH2 0x24A2 JUMP JUMPDEST SWAP1 POP DUP3 DUP2 LT ISZERO PUSH2 0xF15 JUMPI PUSH1 0x40 MLOAD PUSH32 0x8C379A000000000000000000000000000000000000000000000000000000000 DUP2 MSTORE PUSH1 0x4 ADD PUSH2 0xF0C SWAP1 PUSH2 0x2598 JUMP JUMPDEST PUSH1 0x40 MLOAD DUP1 SWAP2 SUB SWAP1 REVERT JUMPDEST PUSH1 0x1 PUSH0 SWAP1 SLOAD SWAP1 PUSH2 0x100 EXP SWAP1 DIV PUSH20 0xFFFFFFFFFFFFFFFFFFFFFFFFFFFFFFFFFFFFFFFF AND PUSH20 0xFFFFFFFFFFFFFFFFFFFFFFFFFFFFFFFFFFFFFFFF AND PUSH4 0x23B872DD CALLER ADDRESS DUP7 PUSH1 0x40 MLOAD DUP5 PUSH4 0xFFFFFFFF AND PUSH1 0xE0 SHL DUP2 MSTORE PUSH1 0x4 ADD PUSH2 0xF73 SWAP4 SWAP3 SWAP2 SWAP1 PUSH2 0x25B6 JUMP JUMPDEST PUSH1 0x20 PUSH1 0x40 MLOAD DUP1 DUP4 SUB DUP2 PUSH0 DUP8 GAS CALL ISZERO DUP1 ISZERO PUSH2 0xF8F JUMPI RETURNDATASIZE PUSH0 DUP1 RETURNDATACOPY RETURNDATASIZE PUSH0 REVERT JUMPDEST POP POP POP POP PUSH1 0x40 MLOAD RETURNDATASIZE PUSH1 0x1F NOT PUSH1 0x1F DUP3 ADD AND DUP3 ADD DUP1 PUSH1 0x40 MSTORE POP DUP2 ADD SWAP1 PUSH2 0xFB3 SWAP2 SWAP1 PUSH2 0x2615 JUMP JUMPDEST PUSH2 0xFF2 JUMPI PUSH1 0x40 MLOAD PUSH32 0x8C379A000000000000000000000000000000000000000000000000000000000 DUP2 MSTORE PUSH1 0x4 ADD PUSH2 0xFE9 SWAP1 PUSH2 0x268A JUMP JUMPDEST PUSH1 0x40 MLOAD DUP1 SWAP2 SUB SWAP1 REVERT JUMPDEST PUSH1 0x40 MLOAD DUP1 PUSH1 0xA0 ADD PUSH1 0x40 MSTORE DUP1 DUP7 DUP2 MSTORE PUSH1 0x20 ADD DUP6 DUP2 MSTORE PUSH1 0x20 ADD DUP5 DUP2 MSTORE PUSH1 0x20 ADD PUSH0 DUP2 MSTORE PUSH1 0x20 ADD PUSH1 0x1 ISZERO ISZERO DUP2 MSTORE POP PUSH1 0x5 PUSH0 DUP9 DUP2 MSTORE PUSH1 0x20 ADD SWAP1 DUP2 MSTORE PUSH1 0x20 ADD PUSH0 KECCAK256 PUSH0 DUP8 DUP2 MSTORE PUSH1 0x20 ADD SWAP1 DUP2 MSTORE PUSH1 0x20 ADD PUSH0 KECCAK256 PUSH0 DUP7 DUP2 MSTORE PUSH1 0x20 ADD SWAP1 DUP2 MSTORE PUSH1 0x20 ADD PUSH0 KECCAK256 PUSH0 DUP3 ADD MLOAD DUP2 PUSH0 ADD SSTORE PUSH1 0x20 DUP3 ADD MLOAD DUP2 PUSH1 0x1 ADD SSTORE PUSH1 0x40 DUP3 ADD MLOAD DUP2 PUSH1 0x2 ADD SSTORE PUSH1 0x60 DUP3 ADD MLOAD DUP2 PUSH1 0x3 ADD SSTORE PUSH1 0x80 DUP3 ADD MLOAD DUP2 PUSH1 0x4 ADD PUSH0 PUSH2 0x100 EXP DUP2 SLOAD DUP2 PUSH1 0xFF MUL NOT AND SWAP1 DUP4 ISZERO ISZERO MUL OR SWAP1 SSTORE POP SWAP1 POP POP DUP4 DUP6 DUP8 PUSH32 0x12B60EC834DBE4F634B415A94D1638892226674971F72A0FB5E7893D8379C274 DUP7 PUSH1 0x40 MLOAD PUSH2 0x10C5 SWAP2 SWAP1 PUSH2 0x1A3C JUMP JUMPDEST PUSH1 0x40 MLOAD DUP1 SWAP2 SUB SWAP1 LOG4 POP POP POP POP POP POP JUMP JUMPDEST PUSH32 0xA49807205CE4D355092EF5A8A18F56E8913CF4A201FBE287825B095693C21775 PUSH2 0x10FF DUP2 PUSH2 0x138E JUMP JUMPDEST DUP3 PUSH1 0x1 PUSH0 PUSH2 0x100 EXP DUP2 SLOAD DUP2 PUSH20 0xFFFFFFFFFFFFFFFFFFFFFFFFFFFFFFFFFFFFFFFF MUL NOT AND SWAP1 DUP4 PUSH20 0xFFFFFFFFFFFFFFFFFFFFFFFFFFFFFFFFFFFFFFFF AND MUL OR SWAP1 SSTORE POP DUP2 PUSH1 0x2 PUSH0 PUSH2 0x100 EXP DUP2 SLOAD DUP2 PUSH20 0xFFFFFFFFFFFFFFFFFFFFFFFFFFFFFFFFFFFFFFFF MUL NOT AND SWAP1 DUP4 PUSH20 0xFFFFFFFFFFFFFFFFFFFFFFFFFFFFFFFFFFFFFFFF AND MUL OR SWAP1 SSTORE POP POP POP POP JUMP JUMPDEST PUSH2 0x118D DUP3 PUSH2 0x53D JUMP JUMPDEST PUSH2 0x1196 DUP2 PUSH2 0x138E JUMP JUMPDEST PUSH2 0x11A0 DUP4 DUP4 PUSH2 0x1483 JUMP JUMPDEST POP POP POP JUMP JUMPDEST PUSH1 0x1 PUSH0 SWAP1 SLOAD SWAP1 PUSH2 0x100 EXP SWAP1 DIV PUSH20 0xFFFFFFFFFFFFFFFFFFFFFFFFFFFFFFFFFFFFFFFF AND DUP2 JUMP JUMPDEST PUSH32 0xA49807205CE4D355092EF5A8A18F56E8913CF4A201FBE287825B095693C21775 PUSH2 0x11F4 DUP2 PUSH2 0x138E JUMP JUMPDEST PUSH1 0x5 PUSH0 DUP7 DUP2 MSTORE PUSH1 0x20 ADD SWAP1 DUP2 MSTORE PUSH1 0x20 ADD PUSH0 KECCAK256 PUSH0 DUP6 DUP2 MSTORE PUSH1 0x20 ADD SWAP1 DUP2 MSTORE PUSH1 0x20 ADD PUSH0 KECCAK256 PUSH0 DUP5 DUP2 MSTORE PUSH1 0x20 ADD SWAP1 DUP2 MSTORE PUSH1 0x20 ADD PUSH0 KECCAK256 PUSH1 0x4 ADD PUSH0 SWAP1 SLOAD SWAP1 PUSH2 0x100 EXP SWAP1 DIV PUSH1 0xFF AND PUSH2 0x1272 JUMPI PUSH1 0x40 MLOAD PUSH32 0x8C379A000000000000000000000000000000000000000000000000000000000 DUP2 MSTORE PUSH1 0x4 ADD PUSH2 0x1269 SWAP1 PUSH2 0x26F2 JUMP JUMPDEST PUSH1 0x40 MLOAD DUP1 SWAP2 SUB SWAP1 REVERT JUMPDEST PUSH1 0x5 PUSH0 DUP7 DUP2 MSTORE PUSH1 0x20 ADD SWAP1 DUP2 MSTORE PUSH1 0x20 ADD PUSH0 KECCAK256 PUSH0 DUP6 DUP2 MSTORE PUSH1 0x20 ADD SWAP1 DUP2 MSTORE PUSH1 0x20 ADD PUSH0 KECCAK256 PUSH0 DUP5 DUP2 MSTORE PUSH1 0x20 ADD SWAP1 DUP2 MSTORE PUSH1 0x20 ADD PUSH0 KECCAK256 PUSH1 0x3 ADD SLOAD DUP3 GT ISZERO PUSH2 0x12E4 JUMPI DUP2 PUSH1 0x5 PUSH0 DUP8 DUP2 MSTORE PUSH1 0x20 ADD SWAP1 DUP2 MSTORE PUSH1 0x20 ADD PUSH0 KECCAK256 PUSH0 DUP7 DUP2 MSTORE PUSH1 0x20 ADD SWAP1 DUP2 MSTORE PUSH1 0x20 ADD PUSH0 KECCAK256 PUSH0 DUP6 DUP2 MSTORE PUSH1 0x20 ADD SWAP1 DUP2 MSTORE PUSH1 0x20 ADD PUSH0 KECCAK256 PUSH1 0x3 ADD DUP2 SWAP1 SSTORE POP JUMPDEST DUP3 DUP5 DUP7 PUSH32 0x2BBC9AD1871F4B99168AA3FEBE254B9069558FF96ED7746D1677869AFA38243F DUP6 PUSH1 0x40 MLOAD PUSH2 0x1316 SWAP2 SWAP1 PUSH2 0x1A3C JUMP JUMPDEST PUSH1 0x40 MLOAD DUP1 SWAP2 SUB SWAP1 LOG4 POP POP POP POP POP JUMP JUMPDEST PUSH0 PUSH32 0x1FFC9A700000000000000000000000000000000000000000000000000000000 PUSH28 0xFFFFFFFFFFFFFFFFFFFFFFFFFFFFFFFFFFFFFFFFFFFFFFFFFFFFFFFF NOT AND DUP3 PUSH28 0xFFFFFFFFFFFFFFFFFFFFFFFFFFFFFFFFFFFFFFFFFFFFFFFFFFFFFFFF NOT AND EQ SWAP1 POP SWAP2 SWAP1 POP JUMP JUMPDEST PUSH2 0x139F DUP2 PUSH2 0x139A PUSH2 0x147C JUMP JUMPDEST PUSH2 0x155D JUMP JUMPDEST POP JUMP JUMPDEST PUSH2 0x13AC DUP3 DUP3 PUSH2 0x8B4 JUMP JUMPDEST PUSH2 0x1478 JUMPI PUSH1 0x1 PUSH0 DUP1 DUP5 DUP2 MSTORE PUSH1 0x20 ADD SWAP1 DUP2 MSTORE PUSH1 0x20 ADD PUSH0 KECCAK256 PUSH0 ADD PUSH0 DUP4 PUSH20 0xFFFFFFFFFFFFFFFFFFFFFFFFFFFFFFFFFFFFFFFF AND PUSH20 0xFFFFFFFFFFFFFFFFFFFFFFFFFFFFFFFFFFFFFFFF AND DUP2 MSTORE PUSH1 0x20 ADD SWAP1 DUP2 MSTORE PUSH1 0x20 ADD PUSH0 KECCAK256 PUSH0 PUSH2 0x100 EXP DUP2 SLOAD DUP2 PUSH1 0xFF MUL NOT AND SWAP1 DUP4 ISZERO ISZERO MUL OR SWAP1 SSTORE POP PUSH2 0x141D PUSH2 0x147C JUMP JUMPDEST PUSH20 0xFFFFFFFFFFFFFFFFFFFFFFFFFFFFFFFFFFFFFFFF AND DUP2 PUSH20 0xFFFFFFFFFFFFFFFFFFFFFFFFFFFFFFFFFFFFFFFF AND DUP4 PUSH32 0x2F8788117E7EFF1D82E926EC794901D17C78024A50270940304540A733656F0D PUSH1 0x40 MLOAD PUSH1 0x40 MLOAD DUP1 SWAP2 SUB SWAP1 LOG4 JUMPDEST POP POP JUMP JUMPDEST PUSH0 CALLER SWAP1 POP SWAP1 JUMP JUMPDEST PUSH2 0x148D DUP3 DUP3 PUSH2 0x8B4 JUMP JUMPDEST ISZERO PUSH2 0x1559 JUMPI PUSH0 DUP1 PUSH0 DUP5 DUP2 MSTORE PUSH1 0x20 ADD SWAP1 DUP2 MSTORE PUSH1 0x20 ADD PUSH0 KECCAK256 PUSH0 ADD PUSH0 DUP4 PUSH20 0xFFFFFFFFFFFFFFFFFFFFFFFFFFFFFFFFFFFFFFFF AND PUSH20 0xFFFFFFFFFFFFFFFFFFFFFFFFFFFFFFFFFFFFFFFF AND DUP2 MSTORE PUSH1 0x20 ADD SWAP1 DUP2 MSTORE PUSH1 0x20 ADD PUSH0 KECCAK256 PUSH0 PUSH2 0x100 EXP DUP2 SLOAD DUP2 PUSH1 0xFF MUL NOT AND SWAP1 DUP4 ISZERO ISZERO MUL OR SWAP1 SSTORE POP PUSH2 0x14FE PUSH2 0x147C JUMP JUMPDEST PUSH20 0xFFFFFFFFFFFFFFFFFFFFFFFFFFFFFFFFFFFFFFFF AND DUP2 PUSH20 0xFFFFFFFFFFFFFFFFFFFFFFFFFFFFFFFFFFFFFFFF AND DUP4 PUSH32 0xF6391F5C32D9C69D2A47EA670B442974B53935D1EDC7FD64EB21E047A839171B PUSH1 0x40 MLOAD PUSH1 0x40 MLOAD DUP1 SWAP2 SUB SWAP1 LOG4 JUMPDEST POP POP JUMP JUMPDEST PUSH2 0x1567 DUP3 DUP3 PUSH2 0x8B4 JUMP JUMPDEST PUSH2 0x15DD JUMPI PUSH2 0x1574 DUP2 PUSH2 0x15E1 JUMP JUMPDEST PUSH2 0x1581 DUP4 PUSH0 SHR PUSH1 0x20 PUSH2 0x160E JUMP JUMPDEST PUSH1 0x40 MLOAD PUSH1 0x20 ADD PUSH2 0x1592 SWAP3 SWAP2 SWAP1 PUSH2 0x27F6 JUMP JUMPDEST PUSH1 0x40 MLOAD PUSH1 0x20 DUP2 DUP4 SUB SUB DUP2 MSTORE SWAP1 PUSH1 0x40 MSTORE PUSH1 0x40 MLOAD PUSH32 0x8C379A000000000000000000000000000000000000000000000000000000000 DUP2 MSTORE PUSH1 0x4 ADD PUSH2 0x15D4 SWAP2 SWAP1 PUSH2 0x2877 JUMP JUMPDEST PUSH1 0x40 MLOAD DUP1 SWAP2 SUB SWAP1 REVERT JUMPDEST POP POP JUMP JUMPDEST PUSH1 0x60 PUSH2 0x1607 DUP3 PUSH20 0xFFFFFFFFFFFFFFFFFFFFFFFFFFFFFFFFFFFFFFFF AND PUSH1 0x14 PUSH1 0xFF AND PUSH2 0x160E JUMP JUMPDEST SWAP1 POP SWAP2 SWAP1 POP JUMP JUMPDEST PUSH1 0x60 PUSH0 PUSH1 0x2 DUP4 PUSH1 0x2 PUSH2 0x1620 SWAP2 SWAP1 PUSH2 0x28C4 JUMP JUMPDEST PUSH2 0x162A SWAP2 SWAP1 PUSH2 0x2905 JUMP JUMPDEST PUSH8 0xFFFFFFFFFFFFFFFF DUP2 GT ISZERO PUSH2 0x1643 JUMPI PUSH2 0x1642 PUSH2 0x2938 JUMP JUMPDEST JUMPDEST PUSH1 0x40 MLOAD SWAP1 DUP1 DUP3 MSTORE DUP1 PUSH1 0x1F ADD PUSH1 0x1F NOT AND PUSH1 0x20 ADD DUP3 ADD PUSH1 0x40 MSTORE DUP1 ISZERO PUSH2 0x1675 JUMPI DUP2 PUSH1 0x20 ADD PUSH1 0x1 DUP3 MUL DUP1 CALLDATASIZE DUP4 CALLDATACOPY DUP1 DUP3 ADD SWAP2 POP POP SWAP1 POP JUMPDEST POP SWAP1 POP PUSH32 0x3000000000000000000000000000000000000000000000000000000000000000 DUP2 PUSH0 DUP2 MLOAD DUP2 LT PUSH2 0x16AC JUMPI PUSH2 0x16AB PUSH2 0x2042 JUMP JUMPDEST JUMPDEST PUSH1 0x20 ADD ADD SWAP1 PUSH31 0xFFFFFFFFFFFFFFFFFFFFFFFFFFFFFFFFFFFFFFFFFFFFFFFFFFFFFFFFFFFFFF NOT AND SWAP1 DUP2 PUSH0 BYTE SWAP1 MSTORE8 POP PUSH32 0x7800000000000000000000000000000000000000000000000000000000000000 DUP2 PUSH1 0x1 DUP2 MLOAD DUP2 LT PUSH2 0x170F JUMPI PUSH2 0x170E PUSH2 0x2042 JUMP JUMPDEST JUMPDEST PUSH1 0x20 ADD ADD SWAP1 PUSH31 0xFFFFFFFFFFFFFFFFFFFFFFFFFFFFFFFFFFFFFFFFFFFFFFFFFFFFFFFFFFFFFF NOT AND SWAP1 DUP2 PUSH0 BYTE SWAP1 MSTORE8 POP PUSH0 PUSH1 0x1 DUP5 PUSH1 0x2 PUSH2 0x174D SWAP2 SWAP1 PUSH2 0x28C4 JUMP JUMPDEST PUSH2 0x1757 SWAP2 SWAP1 PUSH2 0x2905 JUMP JUMPDEST SWAP1 POP JUMPDEST PUSH1 0x1 DUP2 GT ISZERO PUSH2 0x17F6 JUMPI PUSH32 0x3031323334353637383961626364656600000000000000000000000000000000 PUSH1 0xF DUP7 AND PUSH1 0x10 DUP2 LT PUSH2 0x1799 JUMPI PUSH2 0x1798 PUSH2 0x2042 JUMP JUMPDEST JUMPDEST BYTE PUSH1 0xF8 SHL DUP3 DUP3 DUP2 MLOAD DUP2 LT PUSH2 0x17B0 JUMPI PUSH2 0x17AF PUSH2 0x2042 JUMP JUMPDEST JUMPDEST PUSH1 0x20 ADD ADD SWAP1 PUSH31 0xFFFFFFFFFFFFFFFFFFFFFFFFFFFFFFFFFFFFFFFFFFFFFFFFFFFFFFFFFFFFFF NOT AND SWAP1 DUP2 PUSH0 BYTE SWAP1 MSTORE8 POP PUSH1 0x4 DUP6 SWAP1 SHR SWAP5 POP DUP1 PUSH2 0x17EF SWAP1 PUSH2 0x2965 JUMP JUMPDEST SWAP1 POP PUSH2 0x175A JUMP JUMPDEST POP PUSH0 DUP5 EQ PUSH2 0x1839 JUMPI PUSH1 0x40 MLOAD PUSH32 0x8C379A000000000000000000000000000000000000000000000000000000000 DUP2 MSTORE PUSH1 0x4 ADD PUSH2 0x1830 SWAP1 PUSH2 0x29D6 JUMP JUMPDEST PUSH1 0x40 MLOAD DUP1 SWAP2 SUB SWAP1 REVERT JUMPDEST DUP1 SWAP2 POP POP SWAP3 SWAP2 POP POP JUMP JUMPDEST PUSH1 0x40 MLOAD DUP1 PUSH1 0x20 ADD PUSH1 0x40 MSTORE DUP1 PUSH0 DUP2 MSTORE POP SWAP1 JUMP JUMPDEST PUSH1 0x40 MLOAD DUP1 PUSH1 0xA0 ADD PUSH1 0x40 MSTORE DUP1 PUSH0 DUP2 MSTORE PUSH1 0x20 ADD PUSH0 DUP2 MSTORE PUSH1 0x20 ADD PUSH0 DUP2 MSTORE PUSH1 0x20 ADD PUSH0 DUP2 MSTORE PUSH1 0x20 ADD PUSH0 ISZERO ISZERO DUP2 MSTORE POP SWAP1 JUMP JUMPDEST PUSH0 DUP1 REVERT JUMPDEST PUSH0 DUP1 REVERT JUMPDEST PUSH0 PUSH32 0xFFFFFFFF00000000000000000000000000000000000000000000000000000000 DUP3 AND SWAP1 POP SWAP2 SWAP1 POP JUMP JUMPDEST PUSH2 0x18BD DUP2 PUSH2 0x1889 JUMP JUMPDEST DUP2 EQ PUSH2 0x18C7 JUMPI PUSH0 DUP1 REVERT JUMPDEST POP JUMP JUMPDEST PUSH0 DUP2 CALLDATALOAD SWAP1 POP PUSH2 0x18D8 DUP2 PUSH2 0x18B4 JUMP JUMPDEST SWAP3 SWAP2 POP POP JUMP JUMPDEST PUSH0 PUSH1 0x20 DUP3 DUP5 SUB SLT ISZERO PUSH2 0x18F3 JUMPI PUSH2 0x18F2 PUSH2 0x1881 JUMP JUMPDEST JUMPDEST PUSH0 PUSH2 0x1900 DUP5 DUP3 DUP6 ADD PUSH2 0x18CA JUMP JUMPDEST SWAP2 POP POP SWAP3 SWAP2 POP POP JUMP JUMPDEST PUSH0 DUP2 ISZERO ISZERO SWAP1 POP SWAP2 SWAP1 POP JUMP JUMPDEST PUSH2 0x191D DUP2 PUSH2 0x1909 JUMP JUMPDEST DUP3 MSTORE POP POP JUMP JUMPDEST PUSH0 PUSH1 0x20 DUP3 ADD SWAP1 POP PUSH2 0x1936 PUSH0 DUP4 ADD DUP5 PUSH2 0x1914 JUMP JUMPDEST SWAP3 SWAP2 POP POP JUMP JUMPDEST PUSH0 PUSH20 0xFFFFFFFFFFFFFFFFFFFFFFFFFFFFFFFFFFFFFFFF DUP3 AND SWAP1 POP SWAP2 SWAP1 POP JUMP JUMPDEST PUSH0 DUP2 SWAP1 POP SWAP2 SWAP1 POP JUMP JUMPDEST PUSH0 PUSH2 0x197E PUSH2 0x1979 PUSH2 0x1974 DUP5 PUSH2 0x193C JUMP JUMPDEST PUSH2 0x195B JUMP JUMPDEST PUSH2 0x193C JUMP JUMPDEST SWAP1 POP SWAP2 SWAP1 POP JUMP JUMPDEST PUSH0 PUSH2 0x198F DUP3 PUSH2 0x1964 JUMP JUMPDEST SWAP1 POP SWAP2 SWAP1 POP JUMP JUMPDEST PUSH0 PUSH2 0x19A0 DUP3 PUSH2 0x1985 JUMP JUMPDEST SWAP1 POP SWAP2 SWAP1 POP JUMP JUMPDEST PUSH2 0x19B0 DUP2 PUSH2 0x1996 JUMP JUMPDEST DUP3 MSTORE POP POP JUMP JUMPDEST PUSH0 PUSH1 0x20 DUP3 ADD SWAP1 POP PUSH2 0x19C9 PUSH0 DUP4 ADD DUP5 PUSH2 0x19A7 JUMP JUMPDEST SWAP3 SWAP2 POP POP JUMP JUMPDEST PUSH0 DUP2 SWAP1 POP SWAP2 SWAP1 POP JUMP JUMPDEST PUSH2 0x19E1 DUP2 PUSH2 0x19CF JUMP JUMPDEST DUP2 EQ PUSH2 0x19EB JUMPI PUSH0 DUP1 REVERT JUMPDEST POP JUMP JUMPDEST PUSH0 DUP2 CALLDATALOAD SWAP1 POP PUSH2 0x19FC DUP2 PUSH2 0x19D8 JUMP JUMPDEST SWAP3 SWAP2 POP POP JUMP JUMPDEST PUSH0 PUSH1 0x20 DUP3 DUP5 SUB SLT ISZERO PUSH2 0x1A17 JUMPI PUSH2 0x1A16 PUSH2 0x1881 JUMP JUMPDEST JUMPDEST PUSH0 PUSH2 0x1A24 DUP5 DUP3 DUP6 ADD PUSH2 0x19EE JUMP JUMPDEST SWAP2 POP POP SWAP3 SWAP2 POP POP JUMP JUMPDEST PUSH2 0x1A36 DUP2 PUSH2 0x19CF JUMP JUMPDEST DUP3 MSTORE POP POP JUMP JUMPDEST PUSH0 PUSH1 0x20 DUP3 ADD SWAP1 POP PUSH2 0x1A4F PUSH0 DUP4 ADD DUP5 PUSH2 0x1A2D JUMP JUMPDEST SWAP3 SWAP2 POP POP JUMP JUMPDEST PUSH0 DUP2 SWAP1 POP SWAP2 SWAP1 POP JUMP JUMPDEST PUSH2 0x1A67 DUP2 PUSH2 0x1A55 JUMP JUMPDEST DUP2 EQ PUSH2 0x1A71 JUMPI PUSH0 DUP1 REVERT JUMPDEST POP JUMP JUMPDEST PUSH0 DUP2 CALLDATALOAD SWAP1 POP PUSH2 0x1A82 DUP2 PUSH2 0x1A5E JUMP JUMPDEST SWAP3 SWAP2 POP POP JUMP JUMPDEST PUSH0 PUSH1 0x20 DUP3 DUP5 SUB SLT ISZERO PUSH2 0x1A9D JUMPI PUSH2 0x1A9C PUSH2 0x1881 JUMP JUMPDEST JUMPDEST PUSH0 PUSH2 0x1AAA DUP5 DUP3 DUP6 ADD PUSH2 0x1A74 JUMP JUMPDEST SWAP2 POP POP SWAP3 SWAP2 POP POP JUMP JUMPDEST PUSH2 0x1ABC DUP2 PUSH2 0x1A55 JUMP JUMPDEST DUP3 MSTORE POP POP JUMP JUMPDEST PUSH0 PUSH1 0x20 DUP3 ADD SWAP1 POP PUSH2 0x1AD5 PUSH0 DUP4 ADD DUP5 PUSH2 0x1AB3 JUMP JUMPDEST SWAP3 SWAP2 POP POP JUMP JUMPDEST PUSH0 PUSH2 0x1AE5 DUP3 PUSH2 0x193C JUMP JUMPDEST SWAP1 POP SWAP2 SWAP1 POP JUMP JUMPDEST PUSH2 0x1AF5 DUP2 PUSH2 0x1ADB JUMP JUMPDEST DUP2 EQ PUSH2 0x1AFF JUMPI PUSH0 DUP1 REVERT JUMPDEST POP JUMP JUMPDEST PUSH0 DUP2 CALLDATALOAD SWAP1 POP PUSH2 0x1B10 DUP2 PUSH2 0x1AEC JUMP JUMPDEST SWAP3 SWAP2 POP POP JUMP JUMPDEST PUSH0 DUP1 PUSH1 0x40 DUP4 DUP6 SUB SLT ISZERO PUSH2 0x1B2C JUMPI PUSH2 0x1B2B PUSH2 0x1881 JUMP JUMPDEST JUMPDEST PUSH0 PUSH2 0x1B39 DUP6 DUP3 DUP7 ADD PUSH2 0x1A74 JUMP JUMPDEST SWAP3 POP POP PUSH1 0x20 PUSH2 0x1B4A DUP6 DUP3 DUP7 ADD PUSH2 0x1B02 JUMP JUMPDEST SWAP2 POP POP SWAP3 POP SWAP3 SWAP1 POP JUMP JUMPDEST PUSH0 DUP1 PUSH0 PUSH1 0x60 DUP5 DUP7 SUB SLT ISZERO PUSH2 0x1B6B JUMPI PUSH2 0x1B6A PUSH2 0x1881 JUMP JUMPDEST JUMPDEST PUSH0 PUSH2 0x1B78 DUP7 DUP3 DUP8 ADD PUSH2 0x19EE JUMP JUMPDEST SWAP4 POP POP PUSH1 0x20 PUSH2 0x1B89 DUP7 DUP3 DUP8 ADD PUSH2 0x19EE JUMP JUMPDEST SWAP3 POP POP PUSH1 0x40 PUSH2 0x1B9A DUP7 DUP3 DUP8 ADD PUSH2 0x19EE JUMP JUMPDEST SWAP2 POP POP SWAP3 POP SWAP3 POP SWAP3 JUMP JUMPDEST PUSH0 PUSH1 0xA0 DUP3 ADD SWAP1 POP PUSH2 0x1BB7 PUSH0 DUP4 ADD DUP9 PUSH2 0x1A2D JUMP JUMPDEST PUSH2 0x1BC4 PUSH1 0x20 DUP4 ADD DUP8 PUSH2 0x1A2D JUMP JUMPDEST PUSH2 0x1BD1 PUSH1 0x40 DUP4 ADD DUP7 PUSH2 0x1A2D JUMP JUMPDEST PUSH2 0x1BDE PUSH1 0x60 DUP4 ADD DUP6 PUSH2 0x1A2D JUMP JUMPDEST PUSH2 0x1BEB PUSH1 0x80 DUP4 ADD DUP5 PUSH2 0x1914 JUMP JUMPDEST SWAP7 SWAP6 POP POP POP POP POP POP JUMP JUMPDEST PUSH0 DUP1 REVERT JUMPDEST PUSH0 DUP1 REVERT JUMPDEST PUSH0 DUP1 REVERT JUMPDEST PUSH0 DUP1 DUP4 PUSH1 0x1F DUP5 ADD SLT PUSH2 0x1C16 JUMPI PUSH2 0x1C15 PUSH2 0x1BF5 JUMP JUMPDEST JUMPDEST DUP3 CALLDATALOAD SWAP1 POP PUSH8 0xFFFFFFFFFFFFFFFF DUP2 GT ISZERO PUSH2 0x1C33 JUMPI PUSH2 0x1C32 PUSH2 0x1BF9 JUMP JUMPDEST JUMPDEST PUSH1 0x20 DUP4 ADD SWAP2 POP DUP4 PUSH1 0x20 DUP3 MUL DUP4 ADD GT ISZERO PUSH2 0x1C4F JUMPI PUSH2 0x1C4E PUSH2 0x1BFD JUMP JUMPDEST JUMPDEST SWAP3 POP SWAP3 SWAP1 POP JUMP JUMPDEST PUSH0 DUP1 DUP4 PUSH1 0x1F DUP5 ADD SLT PUSH2 0x1C6B JUMPI PUSH2 0x1C6A PUSH2 0x1BF5 JUMP JUMPDEST JUMPDEST DUP3 CALLDATALOAD SWAP1 POP PUSH8 0xFFFFFFFFFFFFFFFF DUP2 GT ISZERO PUSH2 0x1C88 JUMPI PUSH2 0x1C87 PUSH2 0x1BF9 JUMP JUMPDEST JUMPDEST PUSH1 0x20 DUP4 ADD SWAP2 POP DUP4 PUSH1 0x20 DUP3 MUL DUP4 ADD GT ISZERO PUSH2 0x1CA4 JUMPI PUSH2 0x1CA3 PUSH2 0x1BFD JUMP JUMPDEST JUMPDEST SWAP3 POP SWAP3 SWAP1 POP JUMP JUMPDEST PUSH0 DUP1 PUSH0 DUP1 PUSH1 0x40 DUP6 DUP8 SUB SLT ISZERO PUSH2 0x1CC3 JUMPI PUSH2 0x1CC2 PUSH2 0x1881 JUMP JUMPDEST JUMPDEST PUSH0 DUP6 ADD CALLDATALOAD PUSH8 0xFFFFFFFFFFFFFFFF DUP2 GT ISZERO PUSH2 0x1CE0 JUMPI PUSH2 0x1CDF PUSH2 0x1885 JUMP JUMPDEST JUMPDEST PUSH2 0x1CEC DUP8 DUP3 DUP9 ADD PUSH2 0x1C01 JUMP JUMPDEST SWAP5 POP SWAP5 POP POP PUSH1 0x20 DUP6 ADD CALLDATALOAD PUSH8 0xFFFFFFFFFFFFFFFF DUP2 GT ISZERO PUSH2 0x1D0F JUMPI PUSH2 0x1D0E PUSH2 0x1885 JUMP JUMPDEST JUMPDEST PUSH2 0x1D1B DUP8 DUP3 DUP9 ADD PUSH2 0x1C56 JUMP JUMPDEST SWAP3 POP SWAP3 POP POP SWAP3 SWAP6 SWAP2 SWAP5 POP SWAP3 POP JUMP JUMPDEST PUSH0 DUP1 PUSH0 DUP1 PUSH1 0x80 DUP6 DUP8 SUB SLT ISZERO PUSH2 0x1D41 JUMPI PUSH2 0x1D40 PUSH2 0x1881 JUMP JUMPDEST JUMPDEST PUSH0 PUSH2 0x1D4E DUP8 DUP3 DUP9 ADD PUSH2 0x19EE JUMP JUMPDEST SWAP5 POP POP PUSH1 0x20 PUSH2 0x1D5F DUP8 DUP3 DUP9 ADD PUSH2 0x19EE JUMP JUMPDEST SWAP4 POP POP PUSH1 0x40 PUSH2 0x1D70 DUP8 DUP3 DUP9 ADD PUSH2 0x19EE JUMP JUMPDEST SWAP3 POP POP PUSH1 0x60 PUSH2 0x1D81 DUP8 DUP3 DUP9 ADD PUSH2 0x19EE JUMP JUMPDEST SWAP2 POP POP SWAP3 SWAP6 SWAP2 SWAP5 POP SWAP3 POP JUMP JUMPDEST PUSH0 PUSH1 0x20 DUP3 DUP5 SUB SLT ISZERO PUSH2 0x1DA2 JUMPI PUSH2 0x1DA1 PUSH2 0x1881 JUMP JUMPDEST JUMPDEST PUSH0 PUSH2 0x1DAF DUP5 DUP3 DUP6 ADD PUSH2 0x1B02 JUMP JUMPDEST SWAP2 POP POP SWAP3 SWAP2 POP POP JUMP JUMPDEST PUSH2 0x1DC1 DUP2 PUSH2 0x19CF JUMP JUMPDEST DUP3 MSTORE POP POP JUMP JUMPDEST PUSH1 0x20 DUP3 ADD PUSH0 DUP3 ADD MLOAD PUSH2 0x1DDB PUSH0 DUP6 ADD DUP3 PUSH2 0x1DB8 JUMP JUMPDEST POP POP POP POP JUMP JUMPDEST PUSH0 PUSH1 0x20 DUP3 ADD SWAP1 POP PUSH2 0x1DF4 PUSH0 DUP4 ADD DUP5 PUSH2 0x1DC7 JUMP JUMPDEST SWAP3 SWAP2 POP POP JUMP JUMPDEST PUSH0 DUP1 PUSH0 PUSH1 0x60 DUP5 DUP7 SUB SLT ISZERO PUSH2 0x1E11 JUMPI PUSH2 0x1E10 PUSH2 0x1881 JUMP JUMPDEST JUMPDEST PUSH0 PUSH2 0x1E1E DUP7 DUP3 DUP8 ADD PUSH2 0x19EE JUMP JUMPDEST SWAP4 POP POP PUSH1 0x20 PUSH2 0x1E2F DUP7 DUP3 DUP8 ADD PUSH2 0x1B02 JUMP JUMPDEST SWAP3 POP POP PUSH1 0x40 PUSH2 0x1E40 DUP7 DUP3 DUP8 ADD PUSH2 0x19EE JUMP JUMPDEST SWAP2 POP POP SWAP3 POP SWAP3 POP SWAP3 JUMP JUMPDEST PUSH2 0x1E53 DUP2 PUSH2 0x1909 JUMP JUMPDEST DUP3 MSTORE POP POP JUMP JUMPDEST PUSH1 0xA0 DUP3 ADD PUSH0 DUP3 ADD MLOAD PUSH2 0x1E6D PUSH0 DUP6 ADD DUP3 PUSH2 0x1DB8 JUMP JUMPDEST POP PUSH1 0x20 DUP3 ADD MLOAD PUSH2 0x1E80 PUSH1 0x20 DUP6 ADD DUP3 PUSH2 0x1DB8 JUMP JUMPDEST POP PUSH1 0x40 DUP3 ADD MLOAD PUSH2 0x1E93 PUSH1 0x40 DUP6 ADD DUP3 PUSH2 0x1DB8 JUMP JUMPDEST POP PUSH1 0x60 DUP3 ADD MLOAD PUSH2 0x1EA6 PUSH1 0x60 DUP6 ADD DUP3 PUSH2 0x1DB8 JUMP JUMPDEST POP PUSH1 0x80 DUP3 ADD MLOAD PUSH2 0x1EB9 PUSH1 0x80 DUP6 ADD DUP3 PUSH2 0x1E4A JUMP JUMPDEST POP POP POP POP JUMP JUMPDEST PUSH0 PUSH1 0xA0 DUP3 ADD SWAP1 POP PUSH2 0x1ED2 PUSH0 DUP4 ADD DUP5 PUSH2 0x1E59 JUMP JUMPDEST SWAP3 SWAP2 POP POP JUMP JUMPDEST PUSH0 DUP1 PUSH1 0x40 DUP4 DUP6 SUB SLT ISZERO PUSH2 0x1EEE JUMPI PUSH2 0x1EED PUSH2 0x1881 JUMP JUMPDEST JUMPDEST PUSH0 PUSH2 0x1EFB DUP6 DUP3 DUP7 ADD PUSH2 0x1B02 JUMP JUMPDEST SWAP3 POP POP PUSH1 0x20 PUSH2 0x1F0C DUP6 DUP3 DUP7 ADD PUSH2 0x1B02 JUMP JUMPDEST SWAP2 POP POP SWAP3 POP SWAP3 SWAP1 POP JUMP JUMPDEST PUSH0 DUP3 DUP3 MSTORE PUSH1 0x20 DUP3 ADD SWAP1 POP SWAP3 SWAP2 POP POP JUMP JUMPDEST PUSH32 0x416363657373436F6E74726F6C3A2063616E206F6E6C792072656E6F756E6365 PUSH0 DUP3 ADD MSTORE PUSH32 0x20726F6C657320666F722073656C660000000000000000000000000000000000 PUSH1 0x20 DUP3 ADD MSTORE POP JUMP JUMPDEST PUSH0 PUSH2 0x1F80 PUSH1 0x2F DUP4 PUSH2 0x1F16 JUMP JUMPDEST SWAP2 POP PUSH2 0x1F8B DUP3 PUSH2 0x1F26 JUMP JUMPDEST PUSH1 0x40 DUP3 ADD SWAP1 POP SWAP2 SWAP1 POP JUMP JUMPDEST PUSH0 PUSH1 0x20 DUP3 ADD SWAP1 POP DUP2 DUP2 SUB PUSH0 DUP4 ADD MSTORE PUSH2 0x1FAD DUP2 PUSH2 0x1F74 JUMP JUMPDEST SWAP1 POP SWAP2 SWAP1 POP JUMP JUMPDEST PUSH32 0x526563697069656E747320616E6420746F6B656E20616D6F756E7473206C656E PUSH0 DUP3 ADD MSTORE PUSH32 0x677468206D69736D617463680000000000000000000000000000000000000000 PUSH1 0x20 DUP3 ADD MSTORE POP JUMP JUMPDEST PUSH0 PUSH2 0x200E PUSH1 0x2C DUP4 PUSH2 0x1F16 JUMP JUMPDEST SWAP2 POP PUSH2 0x2019 DUP3 PUSH2 0x1FB4 JUMP JUMPDEST PUSH1 0x40 DUP3 ADD SWAP1 POP SWAP2 SWAP1 POP JUMP JUMPDEST PUSH0 PUSH1 0x20 DUP3 ADD SWAP1 POP DUP2 DUP2 SUB PUSH0 DUP4 ADD MSTORE PUSH2 0x203B DUP2 PUSH2 0x2002 JUMP JUMPDEST SWAP1 POP SWAP2 SWAP1 POP JUMP JUMPDEST PUSH32 0x4E487B7100000000000000000000000000000000000000000000000000000000 PUSH0 MSTORE PUSH1 0x32 PUSH1 0x4 MSTORE PUSH1 0x24 PUSH0 REVERT JUMPDEST PUSH2 0x2078 DUP2 PUSH2 0x1ADB JUMP JUMPDEST DUP3 MSTORE POP POP JUMP JUMPDEST PUSH0 PUSH1 0x40 DUP3 ADD SWAP1 POP PUSH2 0x2091 PUSH0 DUP4 ADD DUP6 PUSH2 0x206F JUMP JUMPDEST PUSH2 0x209E PUSH1 0x20 DUP4 ADD DUP5 PUSH2 0x1A2D JUMP JUMPDEST SWAP4 SWAP3 POP POP POP JUMP JUMPDEST PUSH32 0x4D696E74696E67206661696C656420666F7220726563697069656E7400000000 PUSH0 DUP3 ADD MSTORE POP JUMP JUMPDEST PUSH0 PUSH2 0x20D9 PUSH1 0x1C DUP4 PUSH2 0x1F16 JUMP JUMPDEST SWAP2 POP PUSH2 0x20E4 DUP3 PUSH2 0x20A5 JUMP JUMPDEST PUSH1 0x20 DUP3 ADD SWAP1 POP SWAP2 SWAP1 POP JUMP JUMPDEST PUSH0 PUSH1 0x20 DUP3 ADD SWAP1 POP DUP2 DUP2 SUB PUSH0 DUP4 ADD MSTORE PUSH2 0x2106 DUP2 PUSH2 0x20CD JUMP JUMPDEST SWAP1 POP SWAP2 SWAP1 POP JUMP JUMPDEST PUSH0 DUP3 DUP3 MSTORE PUSH1 0x20 DUP3 ADD SWAP1 POP SWAP3 SWAP2 POP POP JUMP JUMPDEST PUSH0 DUP2 SWAP1 POP SWAP2 SWAP1 POP JUMP JUMPDEST PUSH2 0x212F DUP2 PUSH2 0x1ADB JUMP JUMPDEST DUP3 MSTORE POP POP JUMP JUMPDEST PUSH0 PUSH2 0x2140 DUP4 DUP4 PUSH2 0x2126 JUMP JUMPDEST PUSH1 0x20 DUP4 ADD SWAP1 POP SWAP3 SWAP2 POP POP JUMP JUMPDEST PUSH0 PUSH2 0x215A PUSH1 0x20 DUP5 ADD DUP5 PUSH2 0x1B02 JUMP JUMPDEST SWAP1 POP SWAP3 SWAP2 POP POP JUMP JUMPDEST PUSH0 PUSH1 0x20 DUP3 ADD SWAP1 POP SWAP2 SWAP1 POP JUMP JUMPDEST PUSH0 PUSH2 0x2179 DUP4 DUP6 PUSH2 0x210D JUMP JUMPDEST SWAP4 POP PUSH2 0x2184 DUP3 PUSH2 0x211D JUMP JUMPDEST DUP1 PUSH0 JUMPDEST DUP6 DUP2 LT ISZERO PUSH2 0x21BC JUMPI PUSH2 0x2199 DUP3 DUP5 PUSH2 0x214C JUMP JUMPDEST PUSH2 0x21A3 DUP9 DUP3 PUSH2 0x2135 JUMP JUMPDEST SWAP8 POP PUSH2 0x21AE DUP4 PUSH2 0x2162 JUMP JUMPDEST SWAP3 POP POP PUSH1 0x1 DUP2 ADD SWAP1 POP PUSH2 0x2187 JUMP JUMPDEST POP DUP6 SWAP3 POP POP POP SWAP4 SWAP3 POP POP POP JUMP JUMPDEST PUSH0 DUP3 DUP3 MSTORE PUSH1 0x20 DUP3 ADD SWAP1 POP SWAP3 SWAP2 POP POP JUMP JUMPDEST PUSH0 DUP1 REVERT JUMPDEST DUP3 DUP2 DUP4 CALLDATACOPY POP POP POP JUMP JUMPDEST PUSH0 PUSH2 0x21F1 DUP4 DUP6 PUSH2 0x21C9 JUMP JUMPDEST SWAP4 POP PUSH32 0x7FFFFFFFFFFFFFFFFFFFFFFFFFFFFFFFFFFFFFFFFFFFFFFFFFFFFFFFFFFFFFF DUP4 GT ISZERO PUSH2 0x2224 JUMPI PUSH2 0x2223 PUSH2 0x21D9 JUMP JUMPDEST JUMPDEST PUSH1 0x20 DUP4 MUL SWAP3 POP PUSH2 0x2235 DUP4 DUP6 DUP5 PUSH2 0x21DD JUMP JUMPDEST DUP3 DUP5 ADD SWAP1 POP SWAP4 SWAP3 POP POP POP JUMP JUMPDEST PUSH0 PUSH1 0x40 DUP3 ADD SWAP1 POP DUP2 DUP2 SUB PUSH0 DUP4 ADD MSTORE PUSH2 0x225A DUP2 DUP7 DUP9 PUSH2 0x216E JUMP JUMPDEST SWAP1 POP DUP2 DUP2 SUB PUSH1 0x20 DUP4 ADD MSTORE PUSH2 0x226F DUP2 DUP5 DUP7 PUSH2 0x21E6 JUMP JUMPDEST SWAP1 POP SWAP6 SWAP5 POP POP POP POP POP JUMP JUMPDEST PUSH32 0x4D656D62657220646F6573206E6F742065786973740000000000000000000000 PUSH0 DUP3 ADD MSTORE POP JUMP JUMPDEST PUSH0 PUSH2 0x22AE PUSH1 0x15 DUP4 PUSH2 0x1F16 JUMP JUMPDEST SWAP2 POP PUSH2 0x22B9 DUP3 PUSH2 0x227A JUMP JUMPDEST PUSH1 0x20 DUP3 ADD SWAP1 POP SWAP2 SWAP1 POP JUMP JUMPDEST PUSH0 PUSH1 0x20 DUP3 ADD SWAP1 POP DUP2 DUP2 SUB PUSH0 DUP4 ADD MSTORE PUSH2 0x22DB DUP2 PUSH2 0x22A2 JUMP JUMPDEST SWAP1 POP SWAP2 SWAP1 POP JUMP JUMPDEST PUSH32 0x4D656D62657220616C7265616479207265676973746572656400000000000000 PUSH0 DUP3 ADD MSTORE POP JUMP JUMPDEST PUSH0 PUSH2 0x2316 PUSH1 0x19 DUP4 PUSH2 0x1F16 JUMP JUMPDEST SWAP2 POP PUSH2 0x2321 DUP3 PUSH2 0x22E2 JUMP JUMPDEST PUSH1 0x20 DUP3 ADD SWAP1 POP SWAP2 SWAP1 POP JUMP JUMPDEST PUSH0 PUSH1 0x20 DUP3 ADD SWAP1 POP DUP2 DUP2 SUB PUSH0 DUP4 ADD MSTORE PUSH2 0x2343 DUP2 PUSH2 0x230A JUMP JUMPDEST SWAP1 POP SWAP2 SWAP1 POP JUMP JUMPDEST PUSH0 PUSH1 0x40 DUP3 ADD SWAP1 POP PUSH2 0x235D PUSH0 DUP4 ADD DUP6 PUSH2 0x1A2D JUMP JUMPDEST PUSH2 0x236A PUSH1 0x20 DUP4 ADD DUP5 PUSH2 0x1A2D JUMP JUMPDEST SWAP4 SWAP3 POP POP POP JUMP JUMPDEST PUSH32 0x4368616C6C656E67652073636F726520646F6573206E6F742065786973740000 PUSH0 DUP3 ADD MSTORE POP JUMP JUMPDEST PUSH0 PUSH2 0x23A5 PUSH1 0x1E DUP4 PUSH2 0x1F16 JUMP JUMPDEST SWAP2 POP PUSH2 0x23B0 DUP3 PUSH2 0x2371 JUMP JUMPDEST PUSH1 0x20 DUP3 ADD SWAP1 POP SWAP2 SWAP1 POP JUMP JUMPDEST PUSH0 PUSH1 0x20 DUP3 ADD SWAP1 POP DUP2 DUP2 SUB PUSH0 DUP4 ADD MSTORE PUSH2 0x23D2 DUP2 PUSH2 0x2399 JUMP JUMPDEST SWAP1 POP SWAP2 SWAP1 POP JUMP JUMPDEST PUSH32 0x4368616C6C656E676520616C72656164792065786973747320666F7220746869 PUSH0 DUP3 ADD MSTORE PUSH32 0x73206D656D6265722C20646174652C20616E642067616D650000000000000000 PUSH1 0x20 DUP3 ADD MSTORE POP JUMP JUMPDEST PUSH0 PUSH2 0x2433 PUSH1 0x38 DUP4 PUSH2 0x1F16 JUMP JUMPDEST SWAP2 POP PUSH2 0x243E DUP3 PUSH2 0x23D9 JUMP JUMPDEST PUSH1 0x40 DUP3 ADD SWAP1 POP SWAP2 SWAP1 POP JUMP JUMPDEST PUSH0 PUSH1 0x20 DUP3 ADD SWAP1 POP DUP2 DUP2 SUB PUSH0 DUP4 ADD MSTORE PUSH2 0x2460 DUP2 PUSH2 0x2427 JUMP JUMPDEST SWAP1 POP SWAP2 SWAP1 POP JUMP JUMPDEST PUSH0 PUSH1 0x40 DUP3 ADD SWAP1 POP PUSH2 0x247A PUSH0 DUP4 ADD DUP6 PUSH2 0x206F JUMP JUMPDEST PUSH2 0x2487 PUSH1 0x20 DUP4 ADD DUP5 PUSH2 0x206F JUMP JUMPDEST SWAP4 SWAP3 POP POP POP JUMP JUMPDEST PUSH0 DUP2 MLOAD SWAP1 POP PUSH2 0x249C DUP2 PUSH2 0x19D8 JUMP JUMPDEST SWAP3 SWAP2 POP POP JUMP JUMPDEST PUSH0 PUSH1 0x20 DUP3 DUP5 SUB SLT ISZERO PUSH2 0x24B7 JUMPI PUSH2 0x24B6 PUSH2 0x1881 JUMP JUMPDEST JUMPDEST PUSH0 PUSH2 0x24C4 DUP5 DUP3 DUP6 ADD PUSH2 0x248E JUMP JUMPDEST SWAP2 POP POP SWAP3 SWAP2 POP POP JUMP JUMPDEST PUSH32 0x496E73756666696369656E7420746F6B656E20616C6C6F77616E636500000000 PUSH0 DUP3 ADD MSTORE POP JUMP JUMPDEST PUSH0 PUSH2 0x2501 PUSH1 0x1C DUP4 PUSH2 0x1F16 JUMP JUMPDEST SWAP2 POP PUSH2 0x250C DUP3 PUSH2 0x24CD JUMP JUMPDEST PUSH1 0x20 DUP3 ADD SWAP1 POP SWAP2 SWAP1 POP JUMP JUMPDEST PUSH0 PUSH1 0x20 DUP3 ADD SWAP1 POP DUP2 DUP2 SUB PUSH0 DUP4 ADD MSTORE PUSH2 0x252E DUP2 PUSH2 0x24F5 JUMP JUMPDEST SWAP1 POP SWAP2 SWAP1 POP JUMP JUMPDEST PUSH0 PUSH1 0x20 DUP3 ADD SWAP1 POP PUSH2 0x2548 PUSH0 DUP4 ADD DUP5 PUSH2 0x206F JUMP JUMPDEST SWAP3 SWAP2 POP POP JUMP JUMPDEST PUSH32 0x496E73756666696369656E7420746F6B656E2062616C616E6365000000000000 PUSH0 DUP3 ADD MSTORE POP JUMP JUMPDEST PUSH0 PUSH2 0x2582 PUSH1 0x1A DUP4 PUSH2 0x1F16 JUMP JUMPDEST SWAP2 POP PUSH2 0x258D DUP3 PUSH2 0x254E JUMP JUMPDEST PUSH1 0x20 DUP3 ADD SWAP1 POP SWAP2 SWAP1 POP JUMP JUMPDEST PUSH0 PUSH1 0x20 DUP3 ADD SWAP1 POP DUP2 DUP2 SUB PUSH0 DUP4 ADD MSTORE PUSH2 0x25AF DUP2 PUSH2 0x2576 JUMP JUMPDEST SWAP1 POP SWAP2 SWAP1 POP JUMP JUMPDEST PUSH0 PUSH1 0x60 DUP3 ADD SWAP1 POP PUSH2 0x25C9 PUSH0 DUP4 ADD DUP7 PUSH2 0x206F JUMP JUMPDEST PUSH2 0x25D6 PUSH1 0x20 DUP4 ADD DUP6 PUSH2 0x206F JUMP JUMPDEST PUSH2 0x25E3 PUSH1 0x40 DUP4 ADD DUP5 PUSH2 0x1A2D JUMP JUMPDEST SWAP5 SWAP4 POP POP POP POP JUMP JUMPDEST PUSH2 0x25F4 DUP2 PUSH2 0x1909 JUMP JUMPDEST DUP2 EQ PUSH2 0x25FE JUMPI PUSH0 DUP1 REVERT JUMPDEST POP JUMP JUMPDEST PUSH0 DUP2 MLOAD SWAP1 POP PUSH2 0x260F DUP2 PUSH2 0x25EB JUMP JUMPDEST SWAP3 SWAP2 POP POP JUMP JUMPDEST PUSH0 PUSH1 0x20 DUP3 DUP5 SUB SLT ISZERO PUSH2 0x262A JUMPI PUSH2 0x2629 PUSH2 0x1881 JUMP JUMPDEST JUMPDEST PUSH0 PUSH2 0x2637 DUP5 DUP3 DUP6 ADD PUSH2 0x2601 JUMP JUMPDEST SWAP2 POP POP SWAP3 SWAP2 POP POP JUMP JUMPDEST PUSH32 0x546F6B656E207472616E73666572206661696C65640000000000000000000000 PUSH0 DUP3 ADD MSTORE POP JUMP JUMPDEST PUSH0 PUSH2 0x2674 PUSH1 0x15 DUP4 PUSH2 0x1F16 JUMP JUMPDEST SWAP2 POP PUSH2 0x267F DUP3 PUSH2 0x2640 JUMP JUMPDEST PUSH1 0x20 DUP3 ADD SWAP1 POP SWAP2 SWAP1 POP JUMP JUMPDEST PUSH0 PUSH1 0x20 DUP3 ADD SWAP1 POP DUP2 DUP2 SUB PUSH0 DUP4 ADD MSTORE PUSH2 0x26A1 DUP2 PUSH2 0x2668 JUMP JUMPDEST SWAP1 POP SWAP2 SWAP1 POP JUMP JUMPDEST PUSH32 0x4368616C6C656E676520646F6573206E6F742065786973740000000000000000 PUSH0 DUP3 ADD MSTORE POP JUMP JUMPDEST PUSH0 PUSH2 0x26DC PUSH1 0x18 DUP4 PUSH2 0x1F16 JUMP JUMPDEST SWAP2 POP PUSH2 0x26E7 DUP3 PUSH2 0x26A8 JUMP JUMPDEST PUSH1 0x20 DUP3 ADD SWAP1 POP SWAP2 SWAP1 POP JUMP JUMPDEST PUSH0 PUSH1 0x20 DUP3 ADD SWAP1 POP DUP2 DUP2 SUB PUSH0 DUP4 ADD MSTORE PUSH2 0x2709 DUP2 PUSH2 0x26D0 JUMP JUMPDEST SWAP1 POP SWAP2 SWAP1 POP JUMP JUMPDEST PUSH0 DUP2 SWAP1 POP SWAP3 SWAP2 POP POP JUMP JUMPDEST PUSH32 0x416363657373436F6E74726F6C3A206163636F756E7420000000000000000000 PUSH0 DUP3 ADD MSTORE POP JUMP JUMPDEST PUSH0 PUSH2 0x274E PUSH1 0x17 DUP4 PUSH2 0x2710 JUMP JUMPDEST SWAP2 POP PUSH2 0x2759 DUP3 PUSH2 0x271A JUMP JUMPDEST PUSH1 0x17 DUP3 ADD SWAP1 POP SWAP2 SWAP1 POP JUMP JUMPDEST PUSH0 DUP2 MLOAD SWAP1 POP SWAP2 SWAP1 POP JUMP JUMPDEST DUP3 DUP2 DUP4 MCOPY PUSH0 DUP4 DUP4 ADD MSTORE POP POP POP JUMP JUMPDEST PUSH0 PUSH2 0x2786 DUP3 PUSH2 0x2764 JUMP JUMPDEST PUSH2 0x2790 DUP2 DUP6 PUSH2 0x2710 JUMP JUMPDEST SWAP4 POP PUSH2 0x27A0 DUP2 DUP6 PUSH1 0x20 DUP7 ADD PUSH2 0x276E JUMP JUMPDEST DUP1 DUP5 ADD SWAP2 POP POP SWAP3 SWAP2 POP POP JUMP JUMPDEST PUSH32 0x206973206D697373696E6720726F6C6520000000000000000000000000000000 PUSH0 DUP3 ADD MSTORE POP JUMP JUMPDEST PUSH0 PUSH2 0x27E0 PUSH1 0x11 DUP4 PUSH2 0x2710 JUMP JUMPDEST SWAP2 POP PUSH2 0x27EB DUP3 PUSH2 0x27AC JUMP JUMPDEST PUSH1 0x11 DUP3 ADD SWAP1 POP SWAP2 SWAP1 POP JUMP JUMPDEST PUSH0 PUSH2 0x2800 DUP3 PUSH2 0x2742 JUMP JUMPDEST SWAP2 POP PUSH2 0x280C DUP3 DUP6 PUSH2 0x277C JUMP JUMPDEST SWAP2 POP PUSH2 0x2817 DUP3 PUSH2 0x27D4 JUMP JUMPDEST SWAP2 POP PUSH2 0x2823 DUP3 DUP5 PUSH2 0x277C JUMP JUMPDEST SWAP2 POP DUP2 SWAP1 POP SWAP4 SWAP3 POP POP POP JUMP JUMPDEST PUSH0 PUSH1 0x1F NOT PUSH1 0x1F DUP4 ADD AND SWAP1 POP SWAP2 SWAP1 POP JUMP JUMPDEST PUSH0 PUSH2 0x2849 DUP3 PUSH2 0x2764 JUMP JUMPDEST PUSH2 0x2853 DUP2 DUP6 PUSH2 0x1F16 JUMP JUMPDEST SWAP4 POP PUSH2 0x2863 DUP2 DUP6 PUSH1 0x20 DUP7 ADD PUSH2 0x276E JUMP JUMPDEST PUSH2 0x286C DUP2 PUSH2 0x282F JUMP JUMPDEST DUP5 ADD SWAP2 POP POP SWAP3 SWAP2 POP POP JUMP JUMPDEST PUSH0 PUSH1 0x20 DUP3 ADD SWAP1 POP DUP2 DUP2 SUB PUSH0 DUP4 ADD MSTORE PUSH2 0x288F DUP2 DUP5 PUSH2 0x283F JUMP JUMPDEST SWAP1 POP SWAP3 SWAP2 POP POP JUMP JUMPDEST PUSH32 0x4E487B7100000000000000000000000000000000000000000000000000000000 PUSH0 MSTORE PUSH1 0x11 PUSH1 0x4 MSTORE PUSH1 0x24 PUSH0 REVERT JUMPDEST PUSH0 PUSH2 0x28CE DUP3 PUSH2 0x19CF JUMP JUMPDEST SWAP2 POP PUSH2 0x28D9 DUP4 PUSH2 0x19CF JUMP JUMPDEST SWAP3 POP DUP3 DUP3 MUL PUSH2 0x28E7 DUP2 PUSH2 0x19CF JUMP JUMPDEST SWAP2 POP DUP3 DUP3 DIV DUP5 EQ DUP4 ISZERO OR PUSH2 0x28FE JUMPI PUSH2 0x28FD PUSH2 0x2897 JUMP JUMPDEST JUMPDEST POP SWAP3 SWAP2 POP POP JUMP JUMPDEST PUSH0 PUSH2 0x290F DUP3 PUSH2 0x19CF JUMP JUMPDEST SWAP2 POP PUSH2 0x291A DUP4 PUSH2 0x19CF JUMP JUMPDEST SWAP3 POP DUP3 DUP3 ADD SWAP1 POP DUP1 DUP3 GT ISZERO PUSH2 0x2932 JUMPI PUSH2 0x2931 PUSH2 0x2897 JUMP JUMPDEST JUMPDEST SWAP3 SWAP2 POP POP JUMP JUMPDEST PUSH32 0x4E487B7100000000000000000000000000000000000000000000000000000000 PUSH0 MSTORE PUSH1 0x41 PUSH1 0x4 MSTORE PUSH1 0x24 PUSH0 REVERT JUMPDEST PUSH0 PUSH2 0x296F DUP3 PUSH2 0x19CF JUMP JUMPDEST SWAP2 POP PUSH0 DUP3 SUB PUSH2 0x2981 JUMPI PUSH2 0x2980 PUSH2 0x2897 JUMP JUMPDEST JUMPDEST PUSH1 0x1 DUP3 SUB SWAP1 POP SWAP2 SWAP1 POP JUMP JUMPDEST PUSH32 0x537472696E67733A20686578206C656E67746820696E73756666696369656E74 PUSH0 DUP3 ADD MSTORE POP JUMP JUMPDEST PUSH0 PUSH2 0x29C0 PUSH1 0x20 DUP4 PUSH2 0x1F16 JUMP JUMPDEST SWAP2 POP PUSH2 0x29CB DUP3 PUSH2 0x298C JUMP JUMPDEST PUSH1 0x20 DUP3 ADD SWAP1 POP SWAP2 SWAP1 POP JUMP JUMPDEST PUSH0 PUSH1 0x20 DUP3 ADD SWAP1 POP DUP2 DUP2 SUB PUSH0 DUP4 ADD MSTORE PUSH2 0x29ED DUP2 PUSH2 0x29B4 JUMP JUMPDEST SWAP1 POP SWAP2 SWAP1 POP JUMP INVALID LOG2 PUSH5 0x6970667358 0x22 SLT KECCAK256 MSIZE NUMBER 0xD8 ISZERO 0xDB 0xE1 0xEC PUSH29 0xB165C80C50455A9C069EB5A03DCDAFF5C6FBB957B63937E664736F6C63 NUMBER STOP ADDMOD BYTE STOP CALLER "
		},
		"gasEstimates": {
			"creation": {
				"codeDepositCost": "2158800",
				"executionCost": "infinite",
				"totalCost": "infinite"
			},
			"external": {
				"ADMIN_ROLE()": "414",
				"DEFAULT_ADMIN_ROLE()": "375",
				"challengeRegister(uint256,uint256,uint256,uint256)": "infinite",
				"challengeScores(uint256,uint256,uint256)": "infinite",
				"distributePrizes(address[],uint256[])": "infinite",
				"entToken()": "infinite",
				"getChallengeScore(uint256,uint256,uint256)": "infinite",
				"getMemberInfo(uint256)": "infinite",
				"getRoleAdmin(bytes32)": "infinite",
				"grantAdminRole(address)": "infinite",
				"grantRole(bytes32,address)": "infinite",
				"hasRole(bytes32,address)": "3255",
				"memberIds(uint256)": "infinite",
				"memberInfos(uint256)": "infinite",
				"memberRegister(uint256,address,uint256)": "infinite",
				"rankScoreUpdateChallenge(uint256,uint256,uint256,uint256)": "infinite",
				"rankScoreUpdateNormal(uint256,uint256,uint256,uint256)": "infinite",
				"renounceRole(bytes32,address)": "infinite",
				"revokeAdminRole(address)": "infinite",
				"revokeRole(bytes32,address)": "infinite",
				"rptToken()": "infinite",
				"setTokens(address,address)": "infinite",
				"supportsInterface(bytes4)": "741"
			}
		},
		"methodIdentifiers": {
			"ADMIN_ROLE()": "75b238fc",
			"DEFAULT_ADMIN_ROLE()": "a217fddf",
			"challengeRegister(uint256,uint256,uint256,uint256)": "ca1c996f",
			"challengeScores(uint256,uint256,uint256)": "355b9d3f",
			"distributePrizes(address[],uint256[])": "406a378a",
			"entToken()": "dd0c8082",
			"getChallengeScore(uint256,uint256,uint256)": "b5b0e48a",
			"getMemberInfo(uint256)": "ae99aa3c",
			"getRoleAdmin(bytes32)": "248a9ca3",
			"grantAdminRole(address)": "c634b78e",
			"grantRole(bytes32,address)": "2f2ff15d",
			"hasRole(bytes32,address)": "91d14854",
			"memberIds(uint256)": "1fd3c85b",
			"memberInfos(uint256)": "bb10ab0f",
			"memberRegister(uint256,address,uint256)": "aea08734",
			"rankScoreUpdateChallenge(uint256,uint256,uint256,uint256)": "dd7d2b9f",
			"rankScoreUpdateNormal(uint256,uint256,uint256,uint256)": "8525ea16",
			"renounceRole(bytes32,address)": "36568abe",
			"revokeAdminRole(address)": "9a19c7b0",
			"revokeRole(bytes32,address)": "d547741f",
			"rptToken()": "1b72fa3a",
			"setTokens(address,address)": "cbc7854e",
			"supportsInterface(bytes4)": "01ffc9a7"
		}
	},
	"abi": [
		{
			"inputs": [
				{
					"internalType": "address",
					"name": "entTokenAddress",
					"type": "address"
				},
				{
					"internalType": "address",
					"name": "rptTokenAddress",
					"type": "address"
				}
			],
			"stateMutability": "nonpayable",
			"type": "constructor"
		},
		{
			"anonymous": false,
			"inputs": [
				{
					"indexed": true,
					"internalType": "uint256",
					"name": "yyyymmdd",
					"type": "uint256"
				},
				{
					"indexed": true,
					"internalType": "uint256",
					"name": "gameSeq",
					"type": "uint256"
				},
				{
					"indexed": true,
					"internalType": "uint256",
					"name": "memberSeq",
					"type": "uint256"
				},
				{
					"indexed": false,
					"internalType": "uint256",
					"name": "tokenAmount",
					"type": "uint256"
				}
			],
			"name": "ChallengeRegisterd",
			"type": "event"
		},
		{
			"anonymous": false,
			"inputs": [
				{
					"indexed": false,
					"internalType": "uint256",
					"name": "memberSeq",
					"type": "uint256"
				},
				{
					"indexed": false,
					"internalType": "uint256",
					"name": "tokenAmount",
					"type": "uint256"
				}
			],
			"name": "MemberRegistered",
			"type": "event"
		},
		{
			"anonymous": false,
			"inputs": [
				{
					"indexed": false,
					"internalType": "address[]",
					"name": "recipients",
					"type": "address[]"
				},
				{
					"indexed": false,
					"internalType": "uint256[]",
					"name": "tokenAmounts",
					"type": "uint256[]"
				}
			],
			"name": "PrizesDistributed",
			"type": "event"
		},
		{
			"anonymous": false,
			"inputs": [
				{
					"indexed": true,
					"internalType": "uint256",
					"name": "yyyymmdd",
					"type": "uint256"
				},
				{
					"indexed": true,
					"internalType": "uint256",
					"name": "gameSeq",
					"type": "uint256"
				},
				{
					"indexed": true,
					"internalType": "uint256",
					"name": "memberSeq",
					"type": "uint256"
				},
				{
					"indexed": false,
					"internalType": "uint256",
					"name": "newScore",
					"type": "uint256"
				}
			],
			"name": "RankScoreUpdateChallenge",
			"type": "event"
		},
		{
			"anonymous": false,
			"inputs": [
				{
					"indexed": true,
					"internalType": "uint256",
					"name": "yyyymmdd",
					"type": "uint256"
				},
				{
					"indexed": true,
					"internalType": "uint256",
					"name": "gameSeq",
					"type": "uint256"
				},
				{
					"indexed": true,
					"internalType": "uint256",
					"name": "memberSeq",
					"type": "uint256"
				},
				{
					"indexed": false,
					"internalType": "uint256",
					"name": "newScore",
					"type": "uint256"
				}
			],
			"name": "RankScoreUpdateNormal",
			"type": "event"
		},
		{
			"anonymous": false,
			"inputs": [
				{
					"indexed": true,
					"internalType": "bytes32",
					"name": "role",
					"type": "bytes32"
				},
				{
					"indexed": true,
					"internalType": "bytes32",
					"name": "previousAdminRole",
					"type": "bytes32"
				},
				{
					"indexed": true,
					"internalType": "bytes32",
					"name": "newAdminRole",
					"type": "bytes32"
				}
			],
			"name": "RoleAdminChanged",
			"type": "event"
		},
		{
			"anonymous": false,
			"inputs": [
				{
					"indexed": true,
					"internalType": "bytes32",
					"name": "role",
					"type": "bytes32"
				},
				{
					"indexed": true,
					"internalType": "address",
					"name": "account",
					"type": "address"
				},
				{
					"indexed": true,
					"internalType": "address",
					"name": "sender",
					"type": "address"
				}
			],
			"name": "RoleGranted",
			"type": "event"
		},
		{
			"anonymous": false,
			"inputs": [
				{
					"indexed": true,
					"internalType": "bytes32",
					"name": "role",
					"type": "bytes32"
				},
				{
					"indexed": true,
					"internalType": "address",
					"name": "account",
					"type": "address"
				},
				{
					"indexed": true,
					"internalType": "address",
					"name": "sender",
					"type": "address"
				}
			],
			"name": "RoleRevoked",
			"type": "event"
		},
		{
			"inputs": [],
			"name": "ADMIN_ROLE",
			"outputs": [
				{
					"internalType": "bytes32",
					"name": "",
					"type": "bytes32"
				}
			],
			"stateMutability": "view",
			"type": "function"
		},
		{
			"inputs": [],
			"name": "DEFAULT_ADMIN_ROLE",
			"outputs": [
				{
					"internalType": "bytes32",
					"name": "",
					"type": "bytes32"
				}
			],
			"stateMutability": "view",
			"type": "function"
		},
		{
			"inputs": [
				{
					"internalType": "uint256",
					"name": "yyyymmdd",
					"type": "uint256"
				},
				{
					"internalType": "uint256",
					"name": "gameSeq",
					"type": "uint256"
				},
				{
					"internalType": "uint256",
					"name": "memberSeq",
					"type": "uint256"
				},
				{
					"internalType": "uint256",
					"name": "tokenAmount",
					"type": "uint256"
				}
			],
			"name": "challengeRegister",
			"outputs": [],
			"stateMutability": "nonpayable",
			"type": "function"
		},
		{
			"inputs": [
				{
					"internalType": "uint256",
					"name": "",
					"type": "uint256"
				},
				{
					"internalType": "uint256",
					"name": "",
					"type": "uint256"
				},
				{
					"internalType": "uint256",
					"name": "",
					"type": "uint256"
				}
			],
			"name": "challengeScores",
			"outputs": [
				{
					"internalType": "uint256",
					"name": "gameSeq",
					"type": "uint256"
				},
				{
					"internalType": "uint256",
					"name": "memberSeq",
					"type": "uint256"
				},
				{
					"internalType": "uint256",
					"name": "tokenAmount",
					"type": "uint256"
				},
				{
					"internalType": "uint256",
					"name": "score",
					"type": "uint256"
				},
				{
					"internalType": "bool",
					"name": "exists",
					"type": "bool"
				}
			],
			"stateMutability": "view",
			"type": "function"
		},
		{
			"inputs": [
				{
					"internalType": "address[]",
					"name": "recipients",
					"type": "address[]"
				},
				{
					"internalType": "uint256[]",
					"name": "tokenAmounts",
					"type": "uint256[]"
				}
			],
			"name": "distributePrizes",
			"outputs": [],
			"stateMutability": "nonpayable",
			"type": "function"
		},
		{
			"inputs": [],
			"name": "entToken",
			"outputs": [
				{
					"internalType": "contract IERC20Mintable",
					"name": "",
					"type": "address"
				}
			],
			"stateMutability": "view",
			"type": "function"
		},
		{
			"inputs": [
				{
					"internalType": "uint256",
					"name": "yyyymmdd",
					"type": "uint256"
				},
				{
					"internalType": "uint256",
					"name": "gameSeq",
					"type": "uint256"
				},
				{
					"internalType": "uint256",
					"name": "memberSeq",
					"type": "uint256"
				}
			],
			"name": "getChallengeScore",
			"outputs": [
				{
					"components": [
						{
							"internalType": "uint256",
							"name": "gameSeq",
							"type": "uint256"
						},
						{
							"internalType": "uint256",
							"name": "memberSeq",
							"type": "uint256"
						},
						{
							"internalType": "uint256",
							"name": "tokenAmount",
							"type": "uint256"
						},
						{
							"internalType": "uint256",
							"name": "score",
							"type": "uint256"
						},
						{
							"internalType": "bool",
							"name": "exists",
							"type": "bool"
						}
					],
					"internalType": "struct TikTrixEscrow.ChallengeScore",
					"name": "",
					"type": "tuple"
				}
			],
			"stateMutability": "view",
			"type": "function"
		},
		{
			"inputs": [
				{
					"internalType": "uint256",
					"name": "memberSeq",
					"type": "uint256"
				}
			],
			"name": "getMemberInfo",
			"outputs": [
				{
					"components": [
						{
							"internalType": "uint256",
							"name": "memberSeq",
							"type": "uint256"
						}
					],
					"internalType": "struct TikTrixEscrow.MemberInfo",
					"name": "",
					"type": "tuple"
				}
			],
			"stateMutability": "view",
			"type": "function"
		},
		{
			"inputs": [
				{
					"internalType": "bytes32",
					"name": "role",
					"type": "bytes32"
				}
			],
			"name": "getRoleAdmin",
			"outputs": [
				{
					"internalType": "bytes32",
					"name": "",
					"type": "bytes32"
				}
			],
			"stateMutability": "view",
			"type": "function"
		},
		{
			"inputs": [
				{
					"internalType": "address",
					"name": "account",
					"type": "address"
				}
			],
			"name": "grantAdminRole",
			"outputs": [],
			"stateMutability": "nonpayable",
			"type": "function"
		},
		{
			"inputs": [
				{
					"internalType": "bytes32",
					"name": "role",
					"type": "bytes32"
				},
				{
					"internalType": "address",
					"name": "account",
					"type": "address"
				}
			],
			"name": "grantRole",
			"outputs": [],
			"stateMutability": "nonpayable",
			"type": "function"
		},
		{
			"inputs": [
				{
					"internalType": "bytes32",
					"name": "role",
					"type": "bytes32"
				},
				{
					"internalType": "address",
					"name": "account",
					"type": "address"
				}
			],
			"name": "hasRole",
			"outputs": [
				{
					"internalType": "bool",
					"name": "",
					"type": "bool"
				}
			],
			"stateMutability": "view",
			"type": "function"
		},
		{
			"inputs": [
				{
					"internalType": "uint256",
					"name": "",
					"type": "uint256"
				}
			],
			"name": "memberIds",
			"outputs": [
				{
					"internalType": "uint256",
					"name": "",
					"type": "uint256"
				}
			],
			"stateMutability": "view",
			"type": "function"
		},
		{
			"inputs": [
				{
					"internalType": "uint256",
					"name": "",
					"type": "uint256"
				}
			],
			"name": "memberInfos",
			"outputs": [
				{
					"internalType": "uint256",
					"name": "memberSeq",
					"type": "uint256"
				}
			],
			"stateMutability": "view",
			"type": "function"
		},
		{
			"inputs": [
				{
					"internalType": "uint256",
					"name": "memberSeq",
					"type": "uint256"
				},
				{
					"internalType": "address",
					"name": "mintAddress",
					"type": "address"
				},
				{
					"internalType": "uint256",
					"name": "tokenAmount",
					"type": "uint256"
				}
			],
			"name": "memberRegister",
			"outputs": [],
			"stateMutability": "nonpayable",
			"type": "function"
		},
		{
			"inputs": [
				{
					"internalType": "uint256",
					"name": "yyyymmdd",
					"type": "uint256"
				},
				{
					"internalType": "uint256",
					"name": "gameSeq",
					"type": "uint256"
				},
				{
					"internalType": "uint256",
					"name": "memberSeq",
					"type": "uint256"
				},
				{
					"internalType": "uint256",
					"name": "newScore",
					"type": "uint256"
				}
			],
			"name": "rankScoreUpdateChallenge",
			"outputs": [],
			"stateMutability": "nonpayable",
			"type": "function"
		},
		{
			"inputs": [
				{
					"internalType": "uint256",
					"name": "yyyymmdd",
					"type": "uint256"
				},
				{
					"internalType": "uint256",
					"name": "gameSeq",
					"type": "uint256"
				},
				{
					"internalType": "uint256",
					"name": "memberSeq",
					"type": "uint256"
				},
				{
					"internalType": "uint256",
					"name": "newScore",
					"type": "uint256"
				}
			],
			"name": "rankScoreUpdateNormal",
			"outputs": [],
			"stateMutability": "nonpayable",
			"type": "function"
		},
		{
			"inputs": [
				{
					"internalType": "bytes32",
					"name": "role",
					"type": "bytes32"
				},
				{
					"internalType": "address",
					"name": "account",
					"type": "address"
				}
			],
			"name": "renounceRole",
			"outputs": [],
			"stateMutability": "nonpayable",
			"type": "function"
		},
		{
			"inputs": [
				{
					"internalType": "address",
					"name": "account",
					"type": "address"
				}
			],
			"name": "revokeAdminRole",
			"outputs": [],
			"stateMutability": "nonpayable",
			"type": "function"
		},
		{
			"inputs": [
				{
					"internalType": "bytes32",
					"name": "role",
					"type": "bytes32"
				},
				{
					"internalType": "address",
					"name": "account",
					"type": "address"
				}
			],
			"name": "revokeRole",
			"outputs": [],
			"stateMutability": "nonpayable",
			"type": "function"
		},
		{
			"inputs": [],
			"name": "rptToken",
			"outputs": [
				{
					"internalType": "contract IERC20Mintable",
					"name": "",
					"type": "address"
				}
			],
			"stateMutability": "view",
			"type": "function"
		},
		{
			"inputs": [
				{
					"internalType": "address",
					"name": "entTokenAddress",
					"type": "address"
				},
				{
					"internalType": "address",
					"name": "rptTokenAddress",
					"type": "address"
				}
			],
			"name": "setTokens",
			"outputs": [],
			"stateMutability": "nonpayable",
			"type": "function"
		},
		{
			"inputs": [
				{
					"internalType": "bytes4",
					"name": "interfaceId",
					"type": "bytes4"
				}
			],
			"name": "supportsInterface",
			"outputs": [
				{
					"internalType": "bool",
					"name": "",
					"type": "bool"
				}
			],
			"stateMutability": "view",
			"type": "function"
		}
	]
}