{
	"contracts/TikTrixGame.sol": {
		"TikTrixGame": {
			"abi": [
				{
					"inputs": [],
					"stateMutability": "nonpayable",
					"type": "constructor"
				},
				{
					"inputs": [
						{
							"internalType": "address",
							"name": "sender",
							"type": "address"
						},
						{
							"internalType": "uint256",
							"name": "tokenId",
							"type": "uint256"
						},
						{
							"internalType": "address",
							"name": "owner",
							"type": "address"
						}
					],
					"name": "ERC721IncorrectOwner",
					"type": "error"
				},
				{
					"inputs": [
						{
							"internalType": "address",
							"name": "operator",
							"type": "address"
						},
						{
							"internalType": "uint256",
							"name": "tokenId",
							"type": "uint256"
						}
					],
					"name": "ERC721InsufficientApproval",
					"type": "error"
				},
				{
					"inputs": [
						{
							"internalType": "address",
							"name": "approver",
							"type": "address"
						}
					],
					"name": "ERC721InvalidApprover",
					"type": "error"
				},
				{
					"inputs": [
						{
							"internalType": "address",
							"name": "operator",
							"type": "address"
						}
					],
					"name": "ERC721InvalidOperator",
					"type": "error"
				},
				{
					"inputs": [
						{
							"internalType": "address",
							"name": "owner",
							"type": "address"
						}
					],
					"name": "ERC721InvalidOwner",
					"type": "error"
				},
				{
					"inputs": [
						{
							"internalType": "address",
							"name": "receiver",
							"type": "address"
						}
					],
					"name": "ERC721InvalidReceiver",
					"type": "error"
				},
				{
					"inputs": [
						{
							"internalType": "address",
							"name": "sender",
							"type": "address"
						}
					],
					"name": "ERC721InvalidSender",
					"type": "error"
				},
				{
					"inputs": [
						{
							"internalType": "uint256",
							"name": "tokenId",
							"type": "uint256"
						}
					],
					"name": "ERC721NonexistentToken",
					"type": "error"
				},
				{
					"inputs": [
						{
							"internalType": "address",
							"name": "owner",
							"type": "address"
						}
					],
					"name": "OwnableInvalidOwner",
					"type": "error"
				},
				{
					"inputs": [
						{
							"internalType": "address",
							"name": "account",
							"type": "address"
						}
					],
					"name": "OwnableUnauthorizedAccount",
					"type": "error"
				},
				{
					"anonymous": false,
					"inputs": [
						{
							"indexed": true,
							"internalType": "address",
							"name": "owner",
							"type": "address"
						},
						{
							"indexed": true,
							"internalType": "address",
							"name": "approved",
							"type": "address"
						},
						{
							"indexed": true,
							"internalType": "uint256",
							"name": "tokenId",
							"type": "uint256"
						}
					],
					"name": "Approval",
					"type": "event"
				},
				{
					"anonymous": false,
					"inputs": [
						{
							"indexed": true,
							"internalType": "address",
							"name": "owner",
							"type": "address"
						},
						{
							"indexed": true,
							"internalType": "address",
							"name": "operator",
							"type": "address"
						},
						{
							"indexed": false,
							"internalType": "bool",
							"name": "approved",
							"type": "bool"
						}
					],
					"name": "ApprovalForAll",
					"type": "event"
				},
				{
					"anonymous": false,
					"inputs": [
						{
							"indexed": false,
							"internalType": "uint256",
							"name": "tokenId",
							"type": "uint256"
						},
						{
							"indexed": false,
							"internalType": "uint256",
							"name": "developerSeq",
							"type": "uint256"
						},
						{
							"indexed": false,
							"internalType": "uint256",
							"name": "gameSeq",
							"type": "uint256"
						},
						{
							"indexed": false,
							"internalType": "string",
							"name": "title",
							"type": "string"
						}
					],
					"name": "GameRegistered",
					"type": "event"
				},
				{
					"anonymous": false,
					"inputs": [
						{
							"indexed": true,
							"internalType": "address",
							"name": "previousOwner",
							"type": "address"
						},
						{
							"indexed": true,
							"internalType": "address",
							"name": "newOwner",
							"type": "address"
						}
					],
					"name": "OwnershipTransferred",
					"type": "event"
				},
				{
					"anonymous": false,
					"inputs": [
						{
							"indexed": true,
							"internalType": "address",
							"name": "from",
							"type": "address"
						},
						{
							"indexed": true,
							"internalType": "address",
							"name": "to",
							"type": "address"
						},
						{
							"indexed": true,
							"internalType": "uint256",
							"name": "tokenId",
							"type": "uint256"
						}
					],
					"name": "Transfer",
					"type": "event"
				},
				{
					"inputs": [
						{
							"internalType": "address",
							"name": "to",
							"type": "address"
						},
						{
							"internalType": "uint256",
							"name": "tokenId",
							"type": "uint256"
						}
					],
					"name": "approve",
					"outputs": [],
					"stateMutability": "nonpayable",
					"type": "function"
				},
				{
					"inputs": [
						{
							"internalType": "address",
							"name": "owner",
							"type": "address"
						}
					],
					"name": "balanceOf",
					"outputs": [
						{
							"internalType": "uint256",
							"name": "",
							"type": "uint256"
						}
					],
					"stateMutability": "view",
					"type": "function"
				},
				{
					"inputs": [
						{
							"internalType": "uint256",
							"name": "tokenId",
							"type": "uint256"
						}
					],
					"name": "getApproved",
					"outputs": [
						{
							"internalType": "address",
							"name": "",
							"type": "address"
						}
					],
					"stateMutability": "view",
					"type": "function"
				},
				{
					"inputs": [
						{
							"internalType": "uint256",
							"name": "tokenId",
							"type": "uint256"
						}
					],
					"name": "getInfo",
					"outputs": [
						{
							"internalType": "uint256",
							"name": "developerSeq",
							"type": "uint256"
						},
						{
							"internalType": "uint256",
							"name": "gameSeq",
							"type": "uint256"
						},
						{
							"internalType": "string",
							"name": "title",
							"type": "string"
						}
					],
					"stateMutability": "view",
					"type": "function"
				},
				{
					"inputs": [
						{
							"internalType": "address",
							"name": "owner",
							"type": "address"
						},
						{
							"internalType": "address",
							"name": "operator",
							"type": "address"
						}
					],
					"name": "isApprovedForAll",
					"outputs": [
						{
							"internalType": "bool",
							"name": "",
							"type": "bool"
						}
					],
					"stateMutability": "view",
					"type": "function"
				},
				{
					"inputs": [],
					"name": "name",
					"outputs": [
						{
							"internalType": "string",
							"name": "",
							"type": "string"
						}
					],
					"stateMutability": "view",
					"type": "function"
				},
				{
					"inputs": [],
					"name": "owner",
					"outputs": [
						{
							"internalType": "address",
							"name": "",
							"type": "address"
						}
					],
					"stateMutability": "view",
					"type": "function"
				},
				{
					"inputs": [
						{
							"internalType": "uint256",
							"name": "tokenId",
							"type": "uint256"
						}
					],
					"name": "ownerOf",
					"outputs": [
						{
							"internalType": "address",
							"name": "",
							"type": "address"
						}
					],
					"stateMutability": "view",
					"type": "function"
				},
				{
					"inputs": [
						{
							"internalType": "uint256",
							"name": "developerSeq",
							"type": "uint256"
						},
						{
							"internalType": "uint256",
							"name": "gameSeq",
							"type": "uint256"
						},
						{
							"internalType": "string",
							"name": "title",
							"type": "string"
						}
					],
					"name": "register",
					"outputs": [
						{
							"internalType": "uint256",
							"name": "",
							"type": "uint256"
						}
					],
					"stateMutability": "nonpayable",
					"type": "function"
				},
				{
					"inputs": [],
					"name": "renounceOwnership",
					"outputs": [],
					"stateMutability": "nonpayable",
					"type": "function"
				},
				{
					"inputs": [
						{
							"internalType": "address",
							"name": "from",
							"type": "address"
						},
						{
							"internalType": "address",
							"name": "to",
							"type": "address"
						},
						{
							"internalType": "uint256",
							"name": "tokenId",
							"type": "uint256"
						}
					],
					"name": "safeTransferFrom",
					"outputs": [],
					"stateMutability": "nonpayable",
					"type": "function"
				},
				{
					"inputs": [
						{
							"internalType": "address",
							"name": "from",
							"type": "address"
						},
						{
							"internalType": "address",
							"name": "to",
							"type": "address"
						},
						{
							"internalType": "uint256",
							"name": "tokenId",
							"type": "uint256"
						},
						{
							"internalType": "bytes",
							"name": "data",
							"type": "bytes"
						}
					],
					"name": "safeTransferFrom",
					"outputs": [],
					"stateMutability": "nonpayable",
					"type": "function"
				},
				{
					"inputs": [
						{
							"internalType": "address",
							"name": "operator",
							"type": "address"
						},
						{
							"internalType": "bool",
							"name": "approved",
							"type": "bool"
						}
					],
					"name": "setApprovalForAll",
					"outputs": [],
					"stateMutability": "nonpayable",
					"type": "function"
				},
				{
					"inputs": [
						{
							"internalType": "bytes4",
							"name": "interfaceId",
							"type": "bytes4"
						}
					],
					"name": "supportsInterface",
					"outputs": [
						{
							"internalType": "bool",
							"name": "",
							"type": "bool"
						}
					],
					"stateMutability": "view",
					"type": "function"
				},
				{
					"inputs": [],
					"name": "symbol",
					"outputs": [
						{
							"internalType": "string",
							"name": "",
							"type": "string"
						}
					],
					"stateMutability": "view",
					"type": "function"
				},
				{
					"inputs": [
						{
							"internalType": "uint256",
							"name": "tokenId",
							"type": "uint256"
						}
					],
					"name": "tokenURI",
					"outputs": [
						{
							"internalType": "string",
							"name": "",
							"type": "string"
						}
					],
					"stateMutability": "view",
					"type": "function"
				},
				{
					"inputs": [
						{
							"internalType": "address",
							"name": "from",
							"type": "address"
						},
						{
							"internalType": "address",
							"name": "to",
							"type": "address"
						},
						{
							"internalType": "uint256",
							"name": "tokenId",
							"type": "uint256"
						}
					],
					"name": "transferFrom",
					"outputs": [],
					"stateMutability": "nonpayable",
					"type": "function"
				},
				{
					"inputs": [
						{
							"internalType": "address",
							"name": "newOwner",
							"type": "address"
						}
					],
					"name": "transferOwnership",
					"outputs": [],
					"stateMutability": "nonpayable",
					"type": "function"
				}
			],
			"devdoc": {
				"errors": {
					"ERC721IncorrectOwner(address,uint256,address)": [
						{
							"details": "Indicates an error related to the ownership over a particular token. Used in transfers.",
							"params": {
								"owner": "Address of the current owner of a token.",
								"sender": "Address whose tokens are being transferred.",
								"tokenId": "Identifier number of a token."
							}
						}
					],
					"ERC721InsufficientApproval(address,uint256)": [
						{
							"details": "Indicates a failure with the `operator`’s approval. Used in transfers.",
							"params": {
								"operator": "Address that may be allowed to operate on tokens without being their owner.",
								"tokenId": "Identifier number of a token."
							}
						}
					],
					"ERC721InvalidApprover(address)": [
						{
							"details": "Indicates a failure with the `approver` of a token to be approved. Used in approvals.",
							"params": {
								"approver": "Address initiating an approval operation."
							}
						}
					],
					"ERC721InvalidOperator(address)": [
						{
							"details": "Indicates a failure with the `operator` to be approved. Used in approvals.",
							"params": {
								"operator": "Address that may be allowed to operate on tokens without being their owner."
							}
						}
					],
					"ERC721InvalidOwner(address)": [
						{
							"details": "Indicates that an address can't be an owner. For example, `address(0)` is a forbidden owner in EIP-20. Used in balance queries.",
							"params": {
								"owner": "Address of the current owner of a token."
							}
						}
					],
					"ERC721InvalidReceiver(address)": [
						{
							"details": "Indicates a failure with the token `receiver`. Used in transfers.",
							"params": {
								"receiver": "Address to which tokens are being transferred."
							}
						}
					],
					"ERC721InvalidSender(address)": [
						{
							"details": "Indicates a failure with the token `sender`. Used in transfers.",
							"params": {
								"sender": "Address whose tokens are being transferred."
							}
						}
					],
					"ERC721NonexistentToken(uint256)": [
						{
							"details": "Indicates a `tokenId` whose `owner` is the zero address.",
							"params": {
								"tokenId": "Identifier number of a token."
							}
						}
					],
					"OwnableInvalidOwner(address)": [
						{
							"details": "The owner is not a valid owner account. (eg. `address(0)`)"
						}
					],
					"OwnableUnauthorizedAccount(address)": [
						{
							"details": "The caller account is not authorized to perform an operation."
						}
					]
				},
				"events": {
					"Approval(address,address,uint256)": {
						"details": "Emitted when `owner` enables `approved` to manage the `tokenId` token."
					},
					"ApprovalForAll(address,address,bool)": {
						"details": "Emitted when `owner` enables or disables (`approved`) `operator` to manage all of its assets."
					},
					"Transfer(address,address,uint256)": {
						"details": "Emitted when `tokenId` token is transferred from `from` to `to`."
					}
				},
				"kind": "dev",
				"methods": {
					"approve(address,uint256)": {
						"details": "See {IERC721-approve}."
					},
					"balanceOf(address)": {
						"details": "See {IERC721-balanceOf}."
					},
					"getApproved(uint256)": {
						"details": "See {IERC721-getApproved}."
					},
					"isApprovedForAll(address,address)": {
						"details": "See {IERC721-isApprovedForAll}."
					},
					"name()": {
						"details": "See {IERC721Metadata-name}."
					},
					"owner()": {
						"details": "Returns the address of the current owner."
					},
					"ownerOf(uint256)": {
						"details": "See {IERC721-ownerOf}."
					},
					"renounceOwnership()": {
						"details": "Leaves the contract without owner. It will not be possible to call `onlyOwner` functions. Can only be called by the current owner. NOTE: Renouncing ownership will leave the contract without an owner, thereby disabling any functionality that is only available to the owner."
					},
					"safeTransferFrom(address,address,uint256)": {
						"details": "See {IERC721-safeTransferFrom}."
					},
					"safeTransferFrom(address,address,uint256,bytes)": {
						"details": "See {IERC721-safeTransferFrom}."
					},
					"setApprovalForAll(address,bool)": {
						"details": "See {IERC721-setApprovalForAll}."
					},
					"supportsInterface(bytes4)": {
						"details": "See {IERC165-supportsInterface}."
					},
					"symbol()": {
						"details": "See {IERC721Metadata-symbol}."
					},
					"tokenURI(uint256)": {
						"details": "See {IERC721Metadata-tokenURI}."
					},
					"transferFrom(address,address,uint256)": {
						"details": "See {IERC721-transferFrom}."
					},
					"transferOwnership(address)": {
						"details": "Transfers ownership of the contract to a new account (`newOwner`). Can only be called by the current owner."
					}
				},
				"version": 1
			},
			"evm": {
				"assembly": "    /* \"contracts/TikTrixGame.sol\":169:1846  contract TikTrixGame is ERC721, Ownable {... */\n  mstore(0x40, 0x80)\n    /* \"contracts/TikTrixGame.sol\":590:591  0 */\n  0x00\n    /* \"contracts/TikTrixGame.sol\":557:591  uint256 private currentTokenId = 0 */\n  0x08\n  sstore\n    /* \"contracts/TikTrixGame.sol\":809:882  constructor() ERC721(\"TikTrixGame\", \"TIKTRIXGAME\") Ownable(msg.sender) {} */\n  callvalue\n  dup1\n  iszero\n  tag_1\n  jumpi\n  0x00\n  dup1\n  revert\ntag_1:\n  pop\n    /* \"contracts/TikTrixGame.sol\":868:878  msg.sender */\n  caller\n    /* \"@openzeppelin/contracts/token/ERC721/ERC721.sol\":1381:1494  constructor(string memory name_, string memory symbol_) {... */\n  mload(0x40)\n  dup1\n  0x40\n  add\n  0x40\n  mstore\n  dup1\n  0x0b\n  dup2\n  mstore\n  0x20\n  add\n  0x54696b5472697847616d65000000000000000000000000000000000000000000\n  dup2\n  mstore\n  pop\n  mload(0x40)\n  dup1\n  0x40\n  add\n  0x40\n  mstore\n  dup1\n  0x0b\n  dup2\n  mstore\n  0x20\n  add\n  0x54494b5452495847414d45000000000000000000000000000000000000000000\n  dup2\n  mstore\n  pop\n    /* \"@openzeppelin/contracts/token/ERC721/ERC721.sol\":1455:1460  name_ */\n  dup2\n    /* \"@openzeppelin/contracts/token/ERC721/ERC721.sol\":1447:1452  _name */\n  0x00\n    /* \"@openzeppelin/contracts/token/ERC721/ERC721.sol\":1447:1460  _name = name_ */\n  swap1\n  dup2\n  tag_6\n  swap2\n  swap1\n  tag_7\n  jump\t// in\ntag_6:\n  pop\n    /* \"@openzeppelin/contracts/token/ERC721/ERC721.sol\":1480:1487  symbol_ */\n  dup1\n    /* \"@openzeppelin/contracts/token/ERC721/ERC721.sol\":1470:1477  _symbol */\n  0x01\n    /* \"@openzeppelin/contracts/token/ERC721/ERC721.sol\":1470:1487  _symbol = symbol_ */\n  swap1\n  dup2\n  tag_8\n  swap2\n  swap1\n  tag_7\n  jump\t// in\ntag_8:\n  pop\n    /* \"@openzeppelin/contracts/token/ERC721/ERC721.sol\":1381:1494  constructor(string memory name_, string memory symbol_) {... */\n  pop\n  pop\n    /* \"@openzeppelin/contracts/access/Ownable.sol\":1297:1298  0 */\n  0x00\n    /* \"@openzeppelin/contracts/access/Ownable.sol\":1273:1299  initialOwner == address(0) */\n  0xffffffffffffffffffffffffffffffffffffffff\n  and\n    /* \"@openzeppelin/contracts/access/Ownable.sol\":1273:1285  initialOwner */\n  dup2\n    /* \"@openzeppelin/contracts/access/Ownable.sol\":1273:1299  initialOwner == address(0) */\n  0xffffffffffffffffffffffffffffffffffffffff\n  and\n  sub\n    /* \"@openzeppelin/contracts/access/Ownable.sol\":1269:1364  if (initialOwner == address(0)) {... */\n  tag_10\n  jumpi\n    /* \"@openzeppelin/contracts/access/Ownable.sol\":1350:1351  0 */\n  0x00\n    /* \"@openzeppelin/contracts/access/Ownable.sol\":1322:1353  OwnableInvalidOwner(address(0)) */\n  mload(0x40)\n  0x1e4fbdf700000000000000000000000000000000000000000000000000000000\n  dup2\n  mstore\n  0x04\n  add\n  tag_11\n  swap2\n  swap1\n  tag_12\n  jump\t// in\ntag_11:\n  mload(0x40)\n  dup1\n  swap2\n  sub\n  swap1\n  revert\n    /* \"@openzeppelin/contracts/access/Ownable.sol\":1269:1364  if (initialOwner == address(0)) {... */\ntag_10:\n    /* \"@openzeppelin/contracts/access/Ownable.sol\":1373:1405  _transferOwnership(initialOwner) */\n  tag_13\n    /* \"@openzeppelin/contracts/access/Ownable.sol\":1392:1404  initialOwner */\n  dup2\n    /* \"@openzeppelin/contracts/access/Ownable.sol\":1373:1391  _transferOwnership */\n  shl(0x20, tag_14)\n    /* \"@openzeppelin/contracts/access/Ownable.sol\":1373:1405  _transferOwnership(initialOwner) */\n  0x20\n  shr\n  jump\t// in\ntag_13:\n    /* \"@openzeppelin/contracts/access/Ownable.sol\":1225:1412  constructor(address initialOwner) {... */\n  pop\n    /* \"contracts/TikTrixGame.sol\":169:1846  contract TikTrixGame is ERC721, Ownable {... */\n  jump(tag_16)\n    /* \"@openzeppelin/contracts/access/Ownable.sol\":2912:3099  function _transferOwnership(address newOwner) internal virtual {... */\ntag_14:\n    /* \"@openzeppelin/contracts/access/Ownable.sol\":2985:3001  address oldOwner */\n  0x00\n    /* \"@openzeppelin/contracts/access/Ownable.sol\":3004:3010  _owner */\n  0x06\n  0x00\n  swap1\n  sload\n  swap1\n  0x0100\n  exp\n  swap1\n  div\n  0xffffffffffffffffffffffffffffffffffffffff\n  and\n    /* \"@openzeppelin/contracts/access/Ownable.sol\":2985:3010  address oldOwner = _owner */\n  swap1\n  pop\n    /* \"@openzeppelin/contracts/access/Ownable.sol\":3029:3037  newOwner */\n  dup2\n    /* \"@openzeppelin/contracts/access/Ownable.sol\":3020:3026  _owner */\n  0x06\n  0x00\n    /* \"@openzeppelin/contracts/access/Ownable.sol\":3020:3037  _owner = newOwner */\n  0x0100\n  exp\n  dup2\n  sload\n  dup2\n  0xffffffffffffffffffffffffffffffffffffffff\n  mul\n  not\n  and\n  swap1\n  dup4\n  0xffffffffffffffffffffffffffffffffffffffff\n  and\n  mul\n  or\n  swap1\n  sstore\n  pop\n    /* \"@openzeppelin/contracts/access/Ownable.sol\":3083:3091  newOwner */\n  dup2\n    /* \"@openzeppelin/contracts/access/Ownable.sol\":3052:3092  OwnershipTransferred(oldOwner, newOwner) */\n  0xffffffffffffffffffffffffffffffffffffffff\n  and\n    /* \"@openzeppelin/contracts/access/Ownable.sol\":3073:3081  oldOwner */\n  dup2\n    /* \"@openzeppelin/contracts/access/Ownable.sol\":3052:3092  OwnershipTransferred(oldOwner, newOwner) */\n  0xffffffffffffffffffffffffffffffffffffffff\n  and\n  0x8be0079c531659141344cd1fd0a4f28419497f9722a3daafe3b4186f6b6457e0\n  mload(0x40)\n  mload(0x40)\n  dup1\n  swap2\n  sub\n  swap1\n  log3\n    /* \"@openzeppelin/contracts/access/Ownable.sol\":2975:3099  {... */\n  pop\n    /* \"@openzeppelin/contracts/access/Ownable.sol\":2912:3099  function _transferOwnership(address newOwner) internal virtual {... */\n  pop\n  jump\t// out\n    /* \"#utility.yul\":7:106   */\ntag_18:\n    /* \"#utility.yul\":59:65   */\n  0x00\n    /* \"#utility.yul\":93:98   */\n  dup2\n    /* \"#utility.yul\":87:99   */\n  mload\n    /* \"#utility.yul\":77:99   */\n  swap1\n  pop\n    /* \"#utility.yul\":7:106   */\n  swap2\n  swap1\n  pop\n  jump\t// out\n    /* \"#utility.yul\":112:292   */\ntag_19:\n    /* \"#utility.yul\":160:237   */\n  0x4e487b7100000000000000000000000000000000000000000000000000000000\n    /* \"#utility.yul\":157:158   */\n  0x00\n    /* \"#utility.yul\":150:238   */\n  mstore\n    /* \"#utility.yul\":257:261   */\n  0x41\n    /* \"#utility.yul\":254:255   */\n  0x04\n    /* \"#utility.yul\":247:262   */\n  mstore\n    /* \"#utility.yul\":281:285   */\n  0x24\n    /* \"#utility.yul\":278:279   */\n  0x00\n    /* \"#utility.yul\":271:286   */\n  revert\n    /* \"#utility.yul\":298:478   */\ntag_20:\n    /* \"#utility.yul\":346:423   */\n  0x4e487b7100000000000000000000000000000000000000000000000000000000\n    /* \"#utility.yul\":343:344   */\n  0x00\n    /* \"#utility.yul\":336:424   */\n  mstore\n    /* \"#utility.yul\":443:447   */\n  0x22\n    /* \"#utility.yul\":440:441   */\n  0x04\n    /* \"#utility.yul\":433:448   */\n  mstore\n    /* \"#utility.yul\":467:471   */\n  0x24\n    /* \"#utility.yul\":464:465   */\n  0x00\n    /* \"#utility.yul\":457:472   */\n  revert\n    /* \"#utility.yul\":484:804   */\ntag_21:\n    /* \"#utility.yul\":528:534   */\n  0x00\n    /* \"#utility.yul\":565:566   */\n  0x02\n    /* \"#utility.yul\":559:563   */\n  dup3\n    /* \"#utility.yul\":555:567   */\n  div\n    /* \"#utility.yul\":545:567   */\n  swap1\n  pop\n    /* \"#utility.yul\":612:613   */\n  0x01\n    /* \"#utility.yul\":606:610   */\n  dup3\n    /* \"#utility.yul\":602:614   */\n  and\n    /* \"#utility.yul\":633:651   */\n  dup1\n    /* \"#utility.yul\":623:704   */\n  tag_46\n  jumpi\n    /* \"#utility.yul\":689:693   */\n  0x7f\n    /* \"#utility.yul\":681:687   */\n  dup3\n    /* \"#utility.yul\":677:694   */\n  and\n    /* \"#utility.yul\":667:694   */\n  swap2\n  pop\n    /* \"#utility.yul\":623:704   */\ntag_46:\n    /* \"#utility.yul\":751:753   */\n  0x20\n    /* \"#utility.yul\":743:749   */\n  dup3\n    /* \"#utility.yul\":740:754   */\n  lt\n    /* \"#utility.yul\":720:738   */\n  dup2\n    /* \"#utility.yul\":717:755   */\n  sub\n    /* \"#utility.yul\":714:798   */\n  tag_47\n  jumpi\n    /* \"#utility.yul\":770:788   */\n  tag_48\n  tag_20\n  jump\t// in\ntag_48:\n    /* \"#utility.yul\":714:798   */\ntag_47:\n    /* \"#utility.yul\":535:804   */\n  pop\n    /* \"#utility.yul\":484:804   */\n  swap2\n  swap1\n  pop\n  jump\t// out\n    /* \"#utility.yul\":810:951   */\ntag_22:\n    /* \"#utility.yul\":859:863   */\n  0x00\n    /* \"#utility.yul\":882:885   */\n  dup2\n    /* \"#utility.yul\":874:885   */\n  swap1\n  pop\n    /* \"#utility.yul\":905:908   */\n  dup2\n    /* \"#utility.yul\":902:903   */\n  0x00\n    /* \"#utility.yul\":895:909   */\n  mstore\n    /* \"#utility.yul\":939:943   */\n  0x20\n    /* \"#utility.yul\":936:937   */\n  0x00\n    /* \"#utility.yul\":926:944   */\n  keccak256\n    /* \"#utility.yul\":918:944   */\n  swap1\n  pop\n    /* \"#utility.yul\":810:951   */\n  swap2\n  swap1\n  pop\n  jump\t// out\n    /* \"#utility.yul\":957:1050   */\ntag_23:\n    /* \"#utility.yul\":994:1000   */\n  0x00\n    /* \"#utility.yul\":1041:1043   */\n  0x20\n    /* \"#utility.yul\":1036:1038   */\n  0x1f\n    /* \"#utility.yul\":1029:1034   */\n  dup4\n    /* \"#utility.yul\":1025:1039   */\n  add\n    /* \"#utility.yul\":1021:1044   */\n  div\n    /* \"#utility.yul\":1011:1044   */\n  swap1\n  pop\n    /* \"#utility.yul\":957:1050   */\n  swap2\n  swap1\n  pop\n  jump\t// out\n    /* \"#utility.yul\":1056:1163   */\ntag_24:\n    /* \"#utility.yul\":1100:1108   */\n  0x00\n    /* \"#utility.yul\":1150:1155   */\n  dup3\n    /* \"#utility.yul\":1144:1148   */\n  dup3\n    /* \"#utility.yul\":1140:1156   */\n  shl\n    /* \"#utility.yul\":1119:1156   */\n  swap1\n  pop\n    /* \"#utility.yul\":1056:1163   */\n  swap3\n  swap2\n  pop\n  pop\n  jump\t// out\n    /* \"#utility.yul\":1169:1562   */\ntag_25:\n    /* \"#utility.yul\":1238:1244   */\n  0x00\n    /* \"#utility.yul\":1288:1289   */\n  0x08\n    /* \"#utility.yul\":1276:1286   */\n  dup4\n    /* \"#utility.yul\":1272:1290   */\n  mul\n    /* \"#utility.yul\":1311:1408   */\n  tag_53\n    /* \"#utility.yul\":1341:1407   */\n  0xffffffffffffffffffffffffffffffffffffffffffffffffffffffffffffffff\n    /* \"#utility.yul\":1330:1339   */\n  dup3\n    /* \"#utility.yul\":1311:1408   */\n  tag_24\n  jump\t// in\ntag_53:\n    /* \"#utility.yul\":1429:1468   */\n  tag_54\n    /* \"#utility.yul\":1459:1467   */\n  dup7\n    /* \"#utility.yul\":1448:1457   */\n  dup4\n    /* \"#utility.yul\":1429:1468   */\n  tag_24\n  jump\t// in\ntag_54:\n    /* \"#utility.yul\":1417:1468   */\n  swap6\n  pop\n    /* \"#utility.yul\":1501:1505   */\n  dup1\n    /* \"#utility.yul\":1497:1506   */\n  not\n    /* \"#utility.yul\":1490:1495   */\n  dup5\n    /* \"#utility.yul\":1486:1507   */\n  and\n    /* \"#utility.yul\":1477:1507   */\n  swap4\n  pop\n    /* \"#utility.yul\":1550:1554   */\n  dup1\n    /* \"#utility.yul\":1540:1548   */\n  dup7\n    /* \"#utility.yul\":1536:1555   */\n  and\n    /* \"#utility.yul\":1529:1534   */\n  dup5\n    /* \"#utility.yul\":1526:1556   */\n  or\n    /* \"#utility.yul\":1516:1556   */\n  swap3\n  pop\n    /* \"#utility.yul\":1245:1562   */\n  pop\n  pop\n    /* \"#utility.yul\":1169:1562   */\n  swap4\n  swap3\n  pop\n  pop\n  pop\n  jump\t// out\n    /* \"#utility.yul\":1568:1645   */\ntag_26:\n    /* \"#utility.yul\":1605:1612   */\n  0x00\n    /* \"#utility.yul\":1634:1639   */\n  dup2\n    /* \"#utility.yul\":1623:1639   */\n  swap1\n  pop\n    /* \"#utility.yul\":1568:1645   */\n  swap2\n  swap1\n  pop\n  jump\t// out\n    /* \"#utility.yul\":1651:1711   */\ntag_27:\n    /* \"#utility.yul\":1679:1682   */\n  0x00\n    /* \"#utility.yul\":1700:1705   */\n  dup2\n    /* \"#utility.yul\":1693:1705   */\n  swap1\n  pop\n    /* \"#utility.yul\":1651:1711   */\n  swap2\n  swap1\n  pop\n  jump\t// out\n    /* \"#utility.yul\":1717:1859   */\ntag_28:\n    /* \"#utility.yul\":1767:1776   */\n  0x00\n    /* \"#utility.yul\":1800:1853   */\n  tag_58\n    /* \"#utility.yul\":1818:1852   */\n  tag_59\n    /* \"#utility.yul\":1827:1851   */\n  tag_60\n    /* \"#utility.yul\":1845:1850   */\n  dup5\n    /* \"#utility.yul\":1827:1851   */\n  tag_26\n  jump\t// in\ntag_60:\n    /* \"#utility.yul\":1818:1852   */\n  tag_27\n  jump\t// in\ntag_59:\n    /* \"#utility.yul\":1800:1853   */\n  tag_26\n  jump\t// in\ntag_58:\n    /* \"#utility.yul\":1787:1853   */\n  swap1\n  pop\n    /* \"#utility.yul\":1717:1859   */\n  swap2\n  swap1\n  pop\n  jump\t// out\n    /* \"#utility.yul\":1865:1940   */\ntag_29:\n    /* \"#utility.yul\":1908:1911   */\n  0x00\n    /* \"#utility.yul\":1929:1934   */\n  dup2\n    /* \"#utility.yul\":1922:1934   */\n  swap1\n  pop\n    /* \"#utility.yul\":1865:1940   */\n  swap2\n  swap1\n  pop\n  jump\t// out\n    /* \"#utility.yul\":1946:2215   */\ntag_30:\n    /* \"#utility.yul\":2056:2095   */\n  tag_63\n    /* \"#utility.yul\":2087:2094   */\n  dup4\n    /* \"#utility.yul\":2056:2095   */\n  tag_28\n  jump\t// in\ntag_63:\n    /* \"#utility.yul\":2117:2208   */\n  tag_64\n    /* \"#utility.yul\":2166:2207   */\n  tag_65\n    /* \"#utility.yul\":2190:2206   */\n  dup3\n    /* \"#utility.yul\":2166:2207   */\n  tag_29\n  jump\t// in\ntag_65:\n    /* \"#utility.yul\":2158:2164   */\n  dup5\n    /* \"#utility.yul\":2151:2155   */\n  dup5\n    /* \"#utility.yul\":2145:2156   */\n  sload\n    /* \"#utility.yul\":2117:2208   */\n  tag_25\n  jump\t// in\ntag_64:\n    /* \"#utility.yul\":2111:2115   */\n  dup3\n    /* \"#utility.yul\":2104:2209   */\n  sstore\n    /* \"#utility.yul\":2022:2215   */\n  pop\n    /* \"#utility.yul\":1946:2215   */\n  pop\n  pop\n  pop\n  jump\t// out\n    /* \"#utility.yul\":2221:2294   */\ntag_31:\n    /* \"#utility.yul\":2266:2269   */\n  0x00\n    /* \"#utility.yul\":2221:2294   */\n  swap1\n  jump\t// out\n    /* \"#utility.yul\":2300:2489   */\ntag_32:\n    /* \"#utility.yul\":2377:2409   */\n  tag_68\n  tag_31\n  jump\t// in\ntag_68:\n    /* \"#utility.yul\":2418:2483   */\n  tag_69\n    /* \"#utility.yul\":2476:2482   */\n  dup2\n    /* \"#utility.yul\":2468:2474   */\n  dup5\n    /* \"#utility.yul\":2462:2466   */\n  dup5\n    /* \"#utility.yul\":2418:2483   */\n  tag_30\n  jump\t// in\ntag_69:\n    /* \"#utility.yul\":2353:2489   */\n  pop\n    /* \"#utility.yul\":2300:2489   */\n  pop\n  pop\n  jump\t// out\n    /* \"#utility.yul\":2495:2681   */\ntag_33:\n    /* \"#utility.yul\":2555:2675   */\ntag_71:\n    /* \"#utility.yul\":2572:2575   */\n  dup2\n    /* \"#utility.yul\":2565:2570   */\n  dup2\n    /* \"#utility.yul\":2562:2576   */\n  lt\n    /* \"#utility.yul\":2555:2675   */\n  iszero\n  tag_73\n  jumpi\n    /* \"#utility.yul\":2626:2665   */\n  tag_74\n    /* \"#utility.yul\":2663:2664   */\n  0x00\n    /* \"#utility.yul\":2656:2661   */\n  dup3\n    /* \"#utility.yul\":2626:2665   */\n  tag_32\n  jump\t// in\ntag_74:\n    /* \"#utility.yul\":2599:2600   */\n  0x01\n    /* \"#utility.yul\":2592:2597   */\n  dup2\n    /* \"#utility.yul\":2588:2601   */\n  add\n    /* \"#utility.yul\":2579:2601   */\n  swap1\n  pop\n    /* \"#utility.yul\":2555:2675   */\n  jump(tag_71)\ntag_73:\n    /* \"#utility.yul\":2495:2681   */\n  pop\n  pop\n  jump\t// out\n    /* \"#utility.yul\":2687:3230   */\ntag_34:\n    /* \"#utility.yul\":2788:2790   */\n  0x1f\n    /* \"#utility.yul\":2783:2786   */\n  dup3\n    /* \"#utility.yul\":2780:2791   */\n  gt\n    /* \"#utility.yul\":2777:3223   */\n  iszero\n  tag_76\n  jumpi\n    /* \"#utility.yul\":2822:2860   */\n  tag_77\n    /* \"#utility.yul\":2854:2859   */\n  dup2\n    /* \"#utility.yul\":2822:2860   */\n  tag_22\n  jump\t// in\ntag_77:\n    /* \"#utility.yul\":2906:2935   */\n  tag_78\n    /* \"#utility.yul\":2924:2934   */\n  dup5\n    /* \"#utility.yul\":2906:2935   */\n  tag_23\n  jump\t// in\ntag_78:\n    /* \"#utility.yul\":2896:2904   */\n  dup2\n    /* \"#utility.yul\":2892:2936   */\n  add\n    /* \"#utility.yul\":3089:3091   */\n  0x20\n    /* \"#utility.yul\":3077:3087   */\n  dup6\n    /* \"#utility.yul\":3074:3092   */\n  lt\n    /* \"#utility.yul\":3071:3120   */\n  iszero\n  tag_79\n  jumpi\n    /* \"#utility.yul\":3110:3118   */\n  dup2\n    /* \"#utility.yul\":3095:3118   */\n  swap1\n  pop\n    /* \"#utility.yul\":3071:3120   */\ntag_79:\n    /* \"#utility.yul\":3133:3213   */\n  tag_80\n    /* \"#utility.yul\":3189:3211   */\n  tag_81\n    /* \"#utility.yul\":3207:3210   */\n  dup6\n    /* \"#utility.yul\":3189:3211   */\n  tag_23\n  jump\t// in\ntag_81:\n    /* \"#utility.yul\":3179:3187   */\n  dup4\n    /* \"#utility.yul\":3175:3212   */\n  add\n    /* \"#utility.yul\":3162:3173   */\n  dup3\n    /* \"#utility.yul\":3133:3213   */\n  tag_33\n  jump\t// in\ntag_80:\n    /* \"#utility.yul\":2792:3223   */\n  pop\n  pop\n    /* \"#utility.yul\":2777:3223   */\ntag_76:\n    /* \"#utility.yul\":2687:3230   */\n  pop\n  pop\n  pop\n  jump\t// out\n    /* \"#utility.yul\":3236:3353   */\ntag_35:\n    /* \"#utility.yul\":3290:3298   */\n  0x00\n    /* \"#utility.yul\":3340:3345   */\n  dup3\n    /* \"#utility.yul\":3334:3338   */\n  dup3\n    /* \"#utility.yul\":3330:3346   */\n  shr\n    /* \"#utility.yul\":3309:3346   */\n  swap1\n  pop\n    /* \"#utility.yul\":3236:3353   */\n  swap3\n  swap2\n  pop\n  pop\n  jump\t// out\n    /* \"#utility.yul\":3359:3528   */\ntag_36:\n    /* \"#utility.yul\":3403:3409   */\n  0x00\n    /* \"#utility.yul\":3436:3487   */\n  tag_84\n    /* \"#utility.yul\":3484:3485   */\n  0x00\n    /* \"#utility.yul\":3480:3486   */\n  not\n    /* \"#utility.yul\":3472:3477   */\n  dup5\n    /* \"#utility.yul\":3469:3470   */\n  0x08\n    /* \"#utility.yul\":3465:3478   */\n  mul\n    /* \"#utility.yul\":3436:3487   */\n  tag_35\n  jump\t// in\ntag_84:\n    /* \"#utility.yul\":3432:3488   */\n  not\n    /* \"#utility.yul\":3517:3521   */\n  dup1\n    /* \"#utility.yul\":3511:3515   */\n  dup4\n    /* \"#utility.yul\":3507:3522   */\n  and\n    /* \"#utility.yul\":3497:3522   */\n  swap2\n  pop\n    /* \"#utility.yul\":3410:3528   */\n  pop\n    /* \"#utility.yul\":3359:3528   */\n  swap3\n  swap2\n  pop\n  pop\n  jump\t// out\n    /* \"#utility.yul\":3533:3828   */\ntag_37:\n    /* \"#utility.yul\":3609:3613   */\n  0x00\n    /* \"#utility.yul\":3755:3784   */\n  tag_86\n    /* \"#utility.yul\":3780:3783   */\n  dup4\n    /* \"#utility.yul\":3774:3778   */\n  dup4\n    /* \"#utility.yul\":3755:3784   */\n  tag_36\n  jump\t// in\ntag_86:\n    /* \"#utility.yul\":3747:3784   */\n  swap2\n  pop\n    /* \"#utility.yul\":3817:3820   */\n  dup3\n    /* \"#utility.yul\":3814:3815   */\n  0x02\n    /* \"#utility.yul\":3810:3821   */\n  mul\n    /* \"#utility.yul\":3804:3808   */\n  dup3\n    /* \"#utility.yul\":3801:3822   */\n  or\n    /* \"#utility.yul\":3793:3822   */\n  swap1\n  pop\n    /* \"#utility.yul\":3533:3828   */\n  swap3\n  swap2\n  pop\n  pop\n  jump\t// out\n    /* \"#utility.yul\":3833:5228   */\ntag_7:\n    /* \"#utility.yul\":3950:3987   */\n  tag_88\n    /* \"#utility.yul\":3983:3986   */\n  dup3\n    /* \"#utility.yul\":3950:3987   */\n  tag_18\n  jump\t// in\ntag_88:\n    /* \"#utility.yul\":4052:4070   */\n  0xffffffffffffffff\n    /* \"#utility.yul\":4044:4050   */\n  dup2\n    /* \"#utility.yul\":4041:4071   */\n  gt\n    /* \"#utility.yul\":4038:4094   */\n  iszero\n  tag_89\n  jumpi\n    /* \"#utility.yul\":4074:4092   */\n  tag_90\n  tag_19\n  jump\t// in\ntag_90:\n    /* \"#utility.yul\":4038:4094   */\ntag_89:\n    /* \"#utility.yul\":4118:4156   */\n  tag_91\n    /* \"#utility.yul\":4150:4154   */\n  dup3\n    /* \"#utility.yul\":4144:4155   */\n  sload\n    /* \"#utility.yul\":4118:4156   */\n  tag_21\n  jump\t// in\ntag_91:\n    /* \"#utility.yul\":4203:4270   */\n  tag_92\n    /* \"#utility.yul\":4263:4269   */\n  dup3\n    /* \"#utility.yul\":4255:4261   */\n  dup3\n    /* \"#utility.yul\":4249:4253   */\n  dup6\n    /* \"#utility.yul\":4203:4270   */\n  tag_34\n  jump\t// in\ntag_92:\n    /* \"#utility.yul\":4297:4298   */\n  0x00\n    /* \"#utility.yul\":4321:4325   */\n  0x20\n    /* \"#utility.yul\":4308:4325   */\n  swap1\n  pop\n    /* \"#utility.yul\":4353:4355   */\n  0x1f\n    /* \"#utility.yul\":4345:4351   */\n  dup4\n    /* \"#utility.yul\":4342:4356   */\n  gt\n    /* \"#utility.yul\":4370:4371   */\n  0x01\n    /* \"#utility.yul\":4365:4983   */\n  dup2\n  eq\n  tag_94\n  jumpi\n    /* \"#utility.yul\":5027:5028   */\n  0x00\n    /* \"#utility.yul\":5044:5050   */\n  dup5\n    /* \"#utility.yul\":5041:5118   */\n  iszero\n  tag_95\n  jumpi\n    /* \"#utility.yul\":5093:5102   */\n  dup3\n    /* \"#utility.yul\":5088:5091   */\n  dup8\n    /* \"#utility.yul\":5084:5103   */\n  add\n    /* \"#utility.yul\":5078:5104   */\n  mload\n    /* \"#utility.yul\":5069:5104   */\n  swap1\n  pop\n    /* \"#utility.yul\":5041:5118   */\ntag_95:\n    /* \"#utility.yul\":5144:5211   */\n  tag_96\n    /* \"#utility.yul\":5204:5210   */\n  dup6\n    /* \"#utility.yul\":5197:5202   */\n  dup3\n    /* \"#utility.yul\":5144:5211   */\n  tag_37\n  jump\t// in\ntag_96:\n    /* \"#utility.yul\":5138:5142   */\n  dup7\n    /* \"#utility.yul\":5131:5212   */\n  sstore\n    /* \"#utility.yul\":5000:5222   */\n  pop\n    /* \"#utility.yul\":4335:5222   */\n  jump(tag_93)\n    /* \"#utility.yul\":4365:4983   */\ntag_94:\n    /* \"#utility.yul\":4417:4421   */\n  0x1f\n    /* \"#utility.yul\":4413:4422   */\n  not\n    /* \"#utility.yul\":4405:4411   */\n  dup5\n    /* \"#utility.yul\":4401:4423   */\n  and\n    /* \"#utility.yul\":4451:4488   */\n  tag_97\n    /* \"#utility.yul\":4483:4487   */\n  dup7\n    /* \"#utility.yul\":4451:4488   */\n  tag_22\n  jump\t// in\ntag_97:\n    /* \"#utility.yul\":4510:4511   */\n  0x00\n    /* \"#utility.yul\":4524:4732   */\ntag_98:\n    /* \"#utility.yul\":4538:4545   */\n  dup3\n    /* \"#utility.yul\":4535:4536   */\n  dup2\n    /* \"#utility.yul\":4532:4546   */\n  lt\n    /* \"#utility.yul\":4524:4732   */\n  iszero\n  tag_100\n  jumpi\n    /* \"#utility.yul\":4617:4626   */\n  dup5\n    /* \"#utility.yul\":4612:4615   */\n  dup10\n    /* \"#utility.yul\":4608:4627   */\n  add\n    /* \"#utility.yul\":4602:4628   */\n  mload\n    /* \"#utility.yul\":4594:4600   */\n  dup3\n    /* \"#utility.yul\":4587:4629   */\n  sstore\n    /* \"#utility.yul\":4668:4669   */\n  0x01\n    /* \"#utility.yul\":4660:4666   */\n  dup3\n    /* \"#utility.yul\":4656:4670   */\n  add\n    /* \"#utility.yul\":4646:4670   */\n  swap2\n  pop\n    /* \"#utility.yul\":4715:4717   */\n  0x20\n    /* \"#utility.yul\":4704:4713   */\n  dup6\n    /* \"#utility.yul\":4700:4718   */\n  add\n    /* \"#utility.yul\":4687:4718   */\n  swap5\n  pop\n    /* \"#utility.yul\":4561:4565   */\n  0x20\n    /* \"#utility.yul\":4558:4559   */\n  dup2\n    /* \"#utility.yul\":4554:4566   */\n  add\n    /* \"#utility.yul\":4549:4566   */\n  swap1\n  pop\n    /* \"#utility.yul\":4524:4732   */\n  jump(tag_98)\ntag_100:\n    /* \"#utility.yul\":4760:4766   */\n  dup7\n    /* \"#utility.yul\":4751:4758   */\n  dup4\n    /* \"#utility.yul\":4748:4767   */\n  lt\n    /* \"#utility.yul\":4745:4924   */\n  iszero\n  tag_101\n  jumpi\n    /* \"#utility.yul\":4818:4827   */\n  dup5\n    /* \"#utility.yul\":4813:4816   */\n  dup10\n    /* \"#utility.yul\":4809:4828   */\n  add\n    /* \"#utility.yul\":4803:4829   */\n  mload\n    /* \"#utility.yul\":4861:4909   */\n  tag_102\n    /* \"#utility.yul\":4903:4907   */\n  0x1f\n    /* \"#utility.yul\":4895:4901   */\n  dup10\n    /* \"#utility.yul\":4891:4908   */\n  and\n    /* \"#utility.yul\":4880:4889   */\n  dup3\n    /* \"#utility.yul\":4861:4909   */\n  tag_36\n  jump\t// in\ntag_102:\n    /* \"#utility.yul\":4853:4859   */\n  dup4\n    /* \"#utility.yul\":4846:4910   */\n  sstore\n    /* \"#utility.yul\":4768:4924   */\n  pop\n    /* \"#utility.yul\":4745:4924   */\ntag_101:\n    /* \"#utility.yul\":4970:4971   */\n  0x01\n    /* \"#utility.yul\":4966:4967   */\n  0x02\n    /* \"#utility.yul\":4958:4964   */\n  dup9\n    /* \"#utility.yul\":4954:4968   */\n  mul\n    /* \"#utility.yul\":4950:4972   */\n  add\n    /* \"#utility.yul\":4944:4948   */\n  dup9\n    /* \"#utility.yul\":4937:4973   */\n  sstore\n    /* \"#utility.yul\":4372:4983   */\n  pop\n  pop\n  pop\n    /* \"#utility.yul\":4335:5222   */\ntag_93:\n  pop\n    /* \"#utility.yul\":3925:5228   */\n  pop\n  pop\n  pop\n    /* \"#utility.yul\":3833:5228   */\n  pop\n  pop\n  jump\t// out\n    /* \"#utility.yul\":5234:5360   */\ntag_38:\n    /* \"#utility.yul\":5271:5278   */\n  0x00\n    /* \"#utility.yul\":5311:5353   */\n  0xffffffffffffffffffffffffffffffffffffffff\n    /* \"#utility.yul\":5304:5309   */\n  dup3\n    /* \"#utility.yul\":5300:5354   */\n  and\n    /* \"#utility.yul\":5289:5354   */\n  swap1\n  pop\n    /* \"#utility.yul\":5234:5360   */\n  swap2\n  swap1\n  pop\n  jump\t// out\n    /* \"#utility.yul\":5366:5462   */\ntag_39:\n    /* \"#utility.yul\":5403:5410   */\n  0x00\n    /* \"#utility.yul\":5432:5456   */\n  tag_105\n    /* \"#utility.yul\":5450:5455   */\n  dup3\n    /* \"#utility.yul\":5432:5456   */\n  tag_38\n  jump\t// in\ntag_105:\n    /* \"#utility.yul\":5421:5456   */\n  swap1\n  pop\n    /* \"#utility.yul\":5366:5462   */\n  swap2\n  swap1\n  pop\n  jump\t// out\n    /* \"#utility.yul\":5468:5586   */\ntag_40:\n    /* \"#utility.yul\":5555:5579   */\n  tag_107\n    /* \"#utility.yul\":5573:5578   */\n  dup2\n    /* \"#utility.yul\":5555:5579   */\n  tag_39\n  jump\t// in\ntag_107:\n    /* \"#utility.yul\":5550:5553   */\n  dup3\n    /* \"#utility.yul\":5543:5580   */\n  mstore\n    /* \"#utility.yul\":5468:5586   */\n  pop\n  pop\n  jump\t// out\n    /* \"#utility.yul\":5592:5814   */\ntag_12:\n    /* \"#utility.yul\":5685:5689   */\n  0x00\n    /* \"#utility.yul\":5723:5725   */\n  0x20\n    /* \"#utility.yul\":5712:5721   */\n  dup3\n    /* \"#utility.yul\":5708:5726   */\n  add\n    /* \"#utility.yul\":5700:5726   */\n  swap1\n  pop\n    /* \"#utility.yul\":5736:5807   */\n  tag_109\n    /* \"#utility.yul\":5804:5805   */\n  0x00\n    /* \"#utility.yul\":5793:5802   */\n  dup4\n    /* \"#utility.yul\":5789:5806   */\n  add\n    /* \"#utility.yul\":5780:5786   */\n  dup5\n    /* \"#utility.yul\":5736:5807   */\n  tag_40\n  jump\t// in\ntag_109:\n    /* \"#utility.yul\":5592:5814   */\n  swap3\n  swap2\n  pop\n  pop\n  jump\t// out\n    /* \"contracts/TikTrixGame.sol\":169:1846  contract TikTrixGame is ERC721, Ownable {... */\ntag_16:\n  dataSize(sub_0)\n  dup1\n  dataOffset(sub_0)\n  0x00\n  codecopy\n  0x00\n  return\nstop\n\nsub_0: assembly {\n        /* \"contracts/TikTrixGame.sol\":169:1846  contract TikTrixGame is ERC721, Ownable {... */\n      mstore(0x40, 0x80)\n      callvalue\n      dup1\n      iszero\n      tag_1\n      jumpi\n      0x00\n      dup1\n      revert\n    tag_1:\n      pop\n      jumpi(tag_2, lt(calldatasize, 0x04))\n      shr(0xe0, calldataload(0x00))\n      dup1\n      0x70a08231\n      gt\n      tag_21\n      jumpi\n      dup1\n      0xa22cb465\n      gt\n      tag_22\n      jumpi\n      dup1\n      0xa22cb465\n      eq\n      tag_16\n      jumpi\n      dup1\n      0xb88d4fde\n      eq\n      tag_17\n      jumpi\n      dup1\n      0xc87b56dd\n      eq\n      tag_18\n      jumpi\n      dup1\n      0xe985e9c5\n      eq\n      tag_19\n      jumpi\n      dup1\n      0xf2fde38b\n      eq\n      tag_20\n      jumpi\n      jump(tag_2)\n    tag_22:\n      dup1\n      0x70a08231\n      eq\n      tag_12\n      jumpi\n      dup1\n      0x715018a6\n      eq\n      tag_13\n      jumpi\n      dup1\n      0x8da5cb5b\n      eq\n      tag_14\n      jumpi\n      dup1\n      0x95d89b41\n      eq\n      tag_15\n      jumpi\n      jump(tag_2)\n    tag_21:\n      dup1\n      0x1a3cd59a\n      gt\n      tag_23\n      jumpi\n      dup1\n      0x1a3cd59a\n      eq\n      tag_7\n      jumpi\n      dup1\n      0x23b872dd\n      eq\n      tag_8\n      jumpi\n      dup1\n      0x42842e0e\n      eq\n      tag_9\n      jumpi\n      dup1\n      0x61420e8c\n      eq\n      tag_10\n      jumpi\n      dup1\n      0x6352211e\n      eq\n      tag_11\n      jumpi\n      jump(tag_2)\n    tag_23:\n      dup1\n      0x01ffc9a7\n      eq\n      tag_3\n      jumpi\n      dup1\n      0x06fdde03\n      eq\n      tag_4\n      jumpi\n      dup1\n      0x081812fc\n      eq\n      tag_5\n      jumpi\n      dup1\n      0x095ea7b3\n      eq\n      tag_6\n      jumpi\n    tag_2:\n      0x00\n      dup1\n      revert\n        /* \"@openzeppelin/contracts/token/ERC721/ERC721.sol\":1561:1861  function supportsInterface(bytes4 interfaceId) public view virtual override(ERC165, IERC165) returns (bool) {... */\n    tag_3:\n      tag_24\n      0x04\n      dup1\n      calldatasize\n      sub\n      dup2\n      add\n      swap1\n      tag_25\n      swap2\n      swap1\n      tag_26\n      jump\t// in\n    tag_25:\n      tag_27\n      jump\t// in\n    tag_24:\n      mload(0x40)\n      tag_28\n      swap2\n      swap1\n      tag_29\n      jump\t// in\n    tag_28:\n      mload(0x40)\n      dup1\n      swap2\n      sub\n      swap1\n      return\n        /* \"@openzeppelin/contracts/token/ERC721/ERC721.sol\":2365:2454  function name() public view virtual returns (string memory) {... */\n    tag_4:\n      tag_30\n      tag_31\n      jump\t// in\n    tag_30:\n      mload(0x40)\n      tag_32\n      swap2\n      swap1\n      tag_33\n      jump\t// in\n    tag_32:\n      mload(0x40)\n      dup1\n      swap2\n      sub\n      swap1\n      return\n        /* \"@openzeppelin/contracts/token/ERC721/ERC721.sol\":3497:3651  function getApproved(uint256 tokenId) public view virtual returns (address) {... */\n    tag_5:\n      tag_34\n      0x04\n      dup1\n      calldatasize\n      sub\n      dup2\n      add\n      swap1\n      tag_35\n      swap2\n      swap1\n      tag_36\n      jump\t// in\n    tag_35:\n      tag_37\n      jump\t// in\n    tag_34:\n      mload(0x40)\n      tag_38\n      swap2\n      swap1\n      tag_39\n      jump\t// in\n    tag_38:\n      mload(0x40)\n      dup1\n      swap2\n      sub\n      swap1\n      return\n        /* \"@openzeppelin/contracts/token/ERC721/ERC721.sol\":3323:3436  function approve(address to, uint256 tokenId) public virtual {... */\n    tag_6:\n      tag_40\n      0x04\n      dup1\n      calldatasize\n      sub\n      dup2\n      add\n      swap1\n      tag_41\n      swap2\n      swap1\n      tag_42\n      jump\t// in\n    tag_41:\n      tag_43\n      jump\t// in\n    tag_40:\n      stop\n        /* \"contracts/TikTrixGame.sol\":1502:1844  function getInfo(uint256 tokenId) public view returns (uint256 developerSeq, uint256 gameSeq, string memory title) {... */\n    tag_7:\n      tag_44\n      0x04\n      dup1\n      calldatasize\n      sub\n      dup2\n      add\n      swap1\n      tag_45\n      swap2\n      swap1\n      tag_36\n      jump\t// in\n    tag_45:\n      tag_46\n      jump\t// in\n    tag_44:\n      mload(0x40)\n      tag_47\n      swap4\n      swap3\n      swap2\n      swap1\n      tag_48\n      jump\t// in\n    tag_47:\n      mload(0x40)\n      dup1\n      swap2\n      sub\n      swap1\n      return\n        /* \"@openzeppelin/contracts/token/ERC721/ERC721.sol\":4143:4721  function transferFrom(address from, address to, uint256 tokenId) public virtual {... */\n    tag_8:\n      tag_49\n      0x04\n      dup1\n      calldatasize\n      sub\n      dup2\n      add\n      swap1\n      tag_50\n      swap2\n      swap1\n      tag_51\n      jump\t// in\n    tag_50:\n      tag_52\n      jump\t// in\n    tag_49:\n      stop\n        /* \"@openzeppelin/contracts/token/ERC721/ERC721.sol\":4787:4919  function safeTransferFrom(address from, address to, uint256 tokenId) public {... */\n    tag_9:\n      tag_53\n      0x04\n      dup1\n      calldatasize\n      sub\n      dup2\n      add\n      swap1\n      tag_54\n      swap2\n      swap1\n      tag_51\n      jump\t// in\n    tag_54:\n      tag_55\n      jump\t// in\n    tag_53:\n      stop\n        /* \"contracts/TikTrixGame.sol\":916:1461  function register(uint256 developerSeq, uint256 gameSeq, string memory title) public onlyOwner returns (uint256) {... */\n    tag_10:\n      tag_56\n      0x04\n      dup1\n      calldatasize\n      sub\n      dup2\n      add\n      swap1\n      tag_57\n      swap2\n      swap1\n      tag_58\n      jump\t// in\n    tag_57:\n      tag_59\n      jump\t// in\n    tag_56:\n      mload(0x40)\n      tag_60\n      swap2\n      swap1\n      tag_61\n      jump\t// in\n    tag_60:\n      mload(0x40)\n      dup1\n      swap2\n      sub\n      swap1\n      return\n        /* \"@openzeppelin/contracts/token/ERC721/ERC721.sol\":2185:2303  function ownerOf(uint256 tokenId) public view virtual returns (address) {... */\n    tag_11:\n      tag_62\n      0x04\n      dup1\n      calldatasize\n      sub\n      dup2\n      add\n      swap1\n      tag_63\n      swap2\n      swap1\n      tag_36\n      jump\t// in\n    tag_63:\n      tag_64\n      jump\t// in\n    tag_62:\n      mload(0x40)\n      tag_65\n      swap2\n      swap1\n      tag_39\n      jump\t// in\n    tag_65:\n      mload(0x40)\n      dup1\n      swap2\n      sub\n      swap1\n      return\n        /* \"@openzeppelin/contracts/token/ERC721/ERC721.sol\":1920:2128  function balanceOf(address owner) public view virtual returns (uint256) {... */\n    tag_12:\n      tag_66\n      0x04\n      dup1\n      calldatasize\n      sub\n      dup2\n      add\n      swap1\n      tag_67\n      swap2\n      swap1\n      tag_68\n      jump\t// in\n    tag_67:\n      tag_69\n      jump\t// in\n    tag_66:\n      mload(0x40)\n      tag_70\n      swap2\n      swap1\n      tag_61\n      jump\t// in\n    tag_70:\n      mload(0x40)\n      dup1\n      swap2\n      sub\n      swap1\n      return\n        /* \"@openzeppelin/contracts/access/Ownable.sol\":2293:2394  function renounceOwnership() public virtual onlyOwner {... */\n    tag_13:\n      tag_71\n      tag_72\n      jump\t// in\n    tag_71:\n      stop\n        /* \"@openzeppelin/contracts/access/Ownable.sol\":1638:1723  function owner() public view virtual returns (address) {... */\n    tag_14:\n      tag_73\n      tag_74\n      jump\t// in\n    tag_73:\n      mload(0x40)\n      tag_75\n      swap2\n      swap1\n      tag_39\n      jump\t// in\n    tag_75:\n      mload(0x40)\n      dup1\n      swap2\n      sub\n      swap1\n      return\n        /* \"@openzeppelin/contracts/token/ERC721/ERC721.sol\":2518:2611  function symbol() public view virtual returns (string memory) {... */\n    tag_15:\n      tag_76\n      tag_77\n      jump\t// in\n    tag_76:\n      mload(0x40)\n      tag_78\n      swap2\n      swap1\n      tag_33\n      jump\t// in\n    tag_78:\n      mload(0x40)\n      dup1\n      swap2\n      sub\n      swap1\n      return\n        /* \"@openzeppelin/contracts/token/ERC721/ERC721.sol\":3718:3862  function setApprovalForAll(address operator, bool approved) public virtual {... */\n    tag_16:\n      tag_79\n      0x04\n      dup1\n      calldatasize\n      sub\n      dup2\n      add\n      swap1\n      tag_80\n      swap2\n      swap1\n      tag_81\n      jump\t// in\n    tag_80:\n      tag_82\n      jump\t// in\n    tag_79:\n      stop\n        /* \"@openzeppelin/contracts/token/ERC721/ERC721.sol\":4985:5193  function safeTransferFrom(address from, address to, uint256 tokenId, bytes memory data) public virtual {... */\n    tag_17:\n      tag_83\n      0x04\n      dup1\n      calldatasize\n      sub\n      dup2\n      add\n      swap1\n      tag_84\n      swap2\n      swap1\n      tag_85\n      jump\t// in\n    tag_84:\n      tag_86\n      jump\t// in\n    tag_83:\n      stop\n        /* \"@openzeppelin/contracts/token/ERC721/ERC721.sol\":2677:2932  function tokenURI(uint256 tokenId) public view virtual returns (string memory) {... */\n    tag_18:\n      tag_87\n      0x04\n      dup1\n      calldatasize\n      sub\n      dup2\n      add\n      swap1\n      tag_88\n      swap2\n      swap1\n      tag_36\n      jump\t// in\n    tag_88:\n      tag_89\n      jump\t// in\n    tag_87:\n      mload(0x40)\n      tag_90\n      swap2\n      swap1\n      tag_33\n      jump\t// in\n    tag_90:\n      mload(0x40)\n      dup1\n      swap2\n      sub\n      swap1\n      return\n        /* \"@openzeppelin/contracts/token/ERC721/ERC721.sol\":3928:4081  function isApprovedForAll(address owner, address operator) public view virtual returns (bool) {... */\n    tag_19:\n      tag_91\n      0x04\n      dup1\n      calldatasize\n      sub\n      dup2\n      add\n      swap1\n      tag_92\n      swap2\n      swap1\n      tag_93\n      jump\t// in\n    tag_92:\n      tag_94\n      jump\t// in\n    tag_91:\n      mload(0x40)\n      tag_95\n      swap2\n      swap1\n      tag_29\n      jump\t// in\n    tag_95:\n      mload(0x40)\n      dup1\n      swap2\n      sub\n      swap1\n      return\n        /* \"@openzeppelin/contracts/access/Ownable.sol\":2543:2758  function transferOwnership(address newOwner) public virtual onlyOwner {... */\n    tag_20:\n      tag_96\n      0x04\n      dup1\n      calldatasize\n      sub\n      dup2\n      add\n      swap1\n      tag_97\n      swap2\n      swap1\n      tag_68\n      jump\t// in\n    tag_97:\n      tag_98\n      jump\t// in\n    tag_96:\n      stop\n        /* \"@openzeppelin/contracts/token/ERC721/ERC721.sol\":1561:1861  function supportsInterface(bytes4 interfaceId) public view virtual override(ERC165, IERC165) returns (bool) {... */\n    tag_27:\n        /* \"@openzeppelin/contracts/token/ERC721/ERC721.sol\":1663:1667  bool */\n      0x00\n        /* \"@openzeppelin/contracts/token/ERC721/ERC721.sol\":1713:1738  type(IERC721).interfaceId */\n      0x80ac58cd00000000000000000000000000000000000000000000000000000000\n        /* \"@openzeppelin/contracts/token/ERC721/ERC721.sol\":1698:1738  interfaceId == type(IERC721).interfaceId */\n      not(0xffffffffffffffffffffffffffffffffffffffffffffffffffffffff)\n      and\n        /* \"@openzeppelin/contracts/token/ERC721/ERC721.sol\":1698:1709  interfaceId */\n      dup3\n        /* \"@openzeppelin/contracts/token/ERC721/ERC721.sol\":1698:1738  interfaceId == type(IERC721).interfaceId */\n      not(0xffffffffffffffffffffffffffffffffffffffffffffffffffffffff)\n      and\n      eq\n        /* \"@openzeppelin/contracts/token/ERC721/ERC721.sol\":1698:1802  interfaceId == type(IERC721).interfaceId ||... */\n      dup1\n      tag_100\n      jumpi\n      pop\n        /* \"@openzeppelin/contracts/token/ERC721/ERC721.sol\":1769:1802  type(IERC721Metadata).interfaceId */\n      0x5b5e139f00000000000000000000000000000000000000000000000000000000\n        /* \"@openzeppelin/contracts/token/ERC721/ERC721.sol\":1754:1802  interfaceId == type(IERC721Metadata).interfaceId */\n      not(0xffffffffffffffffffffffffffffffffffffffffffffffffffffffff)\n      and\n        /* \"@openzeppelin/contracts/token/ERC721/ERC721.sol\":1754:1765  interfaceId */\n      dup3\n        /* \"@openzeppelin/contracts/token/ERC721/ERC721.sol\":1754:1802  interfaceId == type(IERC721Metadata).interfaceId */\n      not(0xffffffffffffffffffffffffffffffffffffffffffffffffffffffff)\n      and\n      eq\n        /* \"@openzeppelin/contracts/token/ERC721/ERC721.sol\":1698:1802  interfaceId == type(IERC721).interfaceId ||... */\n    tag_100:\n        /* \"@openzeppelin/contracts/token/ERC721/ERC721.sol\":1698:1854  interfaceId == type(IERC721).interfaceId ||... */\n      dup1\n      tag_101\n      jumpi\n      pop\n        /* \"@openzeppelin/contracts/token/ERC721/ERC721.sol\":1818:1854  super.supportsInterface(interfaceId) */\n      tag_102\n        /* \"@openzeppelin/contracts/token/ERC721/ERC721.sol\":1842:1853  interfaceId */\n      dup3\n        /* \"@openzeppelin/contracts/token/ERC721/ERC721.sol\":1818:1841  super.supportsInterface */\n      tag_103\n        /* \"@openzeppelin/contracts/token/ERC721/ERC721.sol\":1818:1854  super.supportsInterface(interfaceId) */\n      jump\t// in\n    tag_102:\n        /* \"@openzeppelin/contracts/token/ERC721/ERC721.sol\":1698:1854  interfaceId == type(IERC721).interfaceId ||... */\n    tag_101:\n        /* \"@openzeppelin/contracts/token/ERC721/ERC721.sol\":1679:1854  return... */\n      swap1\n      pop\n        /* \"@openzeppelin/contracts/token/ERC721/ERC721.sol\":1561:1861  function supportsInterface(bytes4 interfaceId) public view virtual override(ERC165, IERC165) returns (bool) {... */\n      swap2\n      swap1\n      pop\n      jump\t// out\n        /* \"@openzeppelin/contracts/token/ERC721/ERC721.sol\":2365:2454  function name() public view virtual returns (string memory) {... */\n    tag_31:\n        /* \"@openzeppelin/contracts/token/ERC721/ERC721.sol\":2410:2423  string memory */\n      0x60\n        /* \"@openzeppelin/contracts/token/ERC721/ERC721.sol\":2442:2447  _name */\n      0x00\n        /* \"@openzeppelin/contracts/token/ERC721/ERC721.sol\":2435:2447  return _name */\n      dup1\n      sload\n      tag_105\n      swap1\n      tag_106\n      jump\t// in\n    tag_105:\n      dup1\n      0x1f\n      add\n      0x20\n      dup1\n      swap2\n      div\n      mul\n      0x20\n      add\n      mload(0x40)\n      swap1\n      dup2\n      add\n      0x40\n      mstore\n      dup1\n      swap3\n      swap2\n      swap1\n      dup2\n      dup2\n      mstore\n      0x20\n      add\n      dup3\n      dup1\n      sload\n      tag_107\n      swap1\n      tag_106\n      jump\t// in\n    tag_107:\n      dup1\n      iszero\n      tag_108\n      jumpi\n      dup1\n      0x1f\n      lt\n      tag_109\n      jumpi\n      0x0100\n      dup1\n      dup4\n      sload\n      div\n      mul\n      dup4\n      mstore\n      swap2\n      0x20\n      add\n      swap2\n      jump(tag_108)\n    tag_109:\n      dup3\n      add\n      swap2\n      swap1\n      0x00\n      mstore\n      keccak256(0x00, 0x20)\n      swap1\n    tag_110:\n      dup2\n      sload\n      dup2\n      mstore\n      swap1\n      0x01\n      add\n      swap1\n      0x20\n      add\n      dup1\n      dup4\n      gt\n      tag_110\n      jumpi\n      dup3\n      swap1\n      sub\n      0x1f\n      and\n      dup3\n      add\n      swap2\n    tag_108:\n      pop\n      pop\n      pop\n      pop\n      pop\n      swap1\n      pop\n        /* \"@openzeppelin/contracts/token/ERC721/ERC721.sol\":2365:2454  function name() public view virtual returns (string memory) {... */\n      swap1\n      jump\t// out\n        /* \"@openzeppelin/contracts/token/ERC721/ERC721.sol\":3497:3651  function getApproved(uint256 tokenId) public view virtual returns (address) {... */\n    tag_37:\n        /* \"@openzeppelin/contracts/token/ERC721/ERC721.sol\":3564:3571  address */\n      0x00\n        /* \"@openzeppelin/contracts/token/ERC721/ERC721.sol\":3583:3605  _requireOwned(tokenId) */\n      tag_112\n        /* \"@openzeppelin/contracts/token/ERC721/ERC721.sol\":3597:3604  tokenId */\n      dup3\n        /* \"@openzeppelin/contracts/token/ERC721/ERC721.sol\":3583:3596  _requireOwned */\n      tag_113\n        /* \"@openzeppelin/contracts/token/ERC721/ERC721.sol\":3583:3605  _requireOwned(tokenId) */\n      jump\t// in\n    tag_112:\n      pop\n        /* \"@openzeppelin/contracts/token/ERC721/ERC721.sol\":3623:3644  _getApproved(tokenId) */\n      tag_114\n        /* \"@openzeppelin/contracts/token/ERC721/ERC721.sol\":3636:3643  tokenId */\n      dup3\n        /* \"@openzeppelin/contracts/token/ERC721/ERC721.sol\":3623:3635  _getApproved */\n      tag_115\n        /* \"@openzeppelin/contracts/token/ERC721/ERC721.sol\":3623:3644  _getApproved(tokenId) */\n      jump\t// in\n    tag_114:\n        /* \"@openzeppelin/contracts/token/ERC721/ERC721.sol\":3616:3644  return _getApproved(tokenId) */\n      swap1\n      pop\n        /* \"@openzeppelin/contracts/token/ERC721/ERC721.sol\":3497:3651  function getApproved(uint256 tokenId) public view virtual returns (address) {... */\n      swap2\n      swap1\n      pop\n      jump\t// out\n        /* \"@openzeppelin/contracts/token/ERC721/ERC721.sol\":3323:3436  function approve(address to, uint256 tokenId) public virtual {... */\n    tag_43:\n        /* \"@openzeppelin/contracts/token/ERC721/ERC721.sol\":3394:3429  _approve(to, tokenId, _msgSender()) */\n      tag_117\n        /* \"@openzeppelin/contracts/token/ERC721/ERC721.sol\":3403:3405  to */\n      dup3\n        /* \"@openzeppelin/contracts/token/ERC721/ERC721.sol\":3407:3414  tokenId */\n      dup3\n        /* \"@openzeppelin/contracts/token/ERC721/ERC721.sol\":3416:3428  _msgSender() */\n      tag_118\n        /* \"@openzeppelin/contracts/token/ERC721/ERC721.sol\":3416:3426  _msgSender */\n      tag_119\n        /* \"@openzeppelin/contracts/token/ERC721/ERC721.sol\":3416:3428  _msgSender() */\n      jump\t// in\n    tag_118:\n        /* \"@openzeppelin/contracts/token/ERC721/ERC721.sol\":3394:3402  _approve */\n      tag_120\n        /* \"@openzeppelin/contracts/token/ERC721/ERC721.sol\":3394:3429  _approve(to, tokenId, _msgSender()) */\n      jump\t// in\n    tag_117:\n        /* \"@openzeppelin/contracts/token/ERC721/ERC721.sol\":3323:3436  function approve(address to, uint256 tokenId) public virtual {... */\n      pop\n      pop\n      jump\t// out\n        /* \"contracts/TikTrixGame.sol\":1502:1844  function getInfo(uint256 tokenId) public view returns (uint256 developerSeq, uint256 gameSeq, string memory title) {... */\n    tag_46:\n        /* \"contracts/TikTrixGame.sol\":1557:1577  uint256 developerSeq */\n      0x00\n        /* \"contracts/TikTrixGame.sol\":1579:1594  uint256 gameSeq */\n      dup1\n        /* \"contracts/TikTrixGame.sol\":1596:1615  string memory title */\n      0x60\n        /* \"contracts/TikTrixGame.sol\":1676:1677  0 */\n      0x00\n        /* \"contracts/TikTrixGame.sol\":1641:1650  gameInfos */\n      0x07\n        /* \"contracts/TikTrixGame.sol\":1641:1659  gameInfos[tokenId] */\n      0x00\n        /* \"contracts/TikTrixGame.sol\":1651:1658  tokenId */\n      dup7\n        /* \"contracts/TikTrixGame.sol\":1641:1659  gameInfos[tokenId] */\n      dup2\n      mstore\n      0x20\n      add\n      swap1\n      dup2\n      mstore\n      0x20\n      add\n      0x00\n      keccak256\n        /* \"contracts/TikTrixGame.sol\":1641:1665  gameInfos[tokenId].title */\n      0x02\n      add\n        /* \"contracts/TikTrixGame.sol\":1635:1673  bytes(gameInfos[tokenId].title).length */\n      dup1\n      sload\n      tag_122\n      swap1\n      tag_106\n      jump\t// in\n    tag_122:\n      swap1\n      pop\n        /* \"contracts/TikTrixGame.sol\":1635:1677  bytes(gameInfos[tokenId].title).length > 0 */\n      gt\n        /* \"contracts/TikTrixGame.sol\":1627:1723  require(bytes(gameInfos[tokenId].title).length > 0, \"GameRegistry: Query for nonexistent token\") */\n      tag_123\n      jumpi\n      mload(0x40)\n      0x08c379a000000000000000000000000000000000000000000000000000000000\n      dup2\n      mstore\n      0x04\n      add\n      tag_124\n      swap1\n      tag_125\n      jump\t// in\n    tag_124:\n      mload(0x40)\n      dup1\n      swap2\n      sub\n      swap1\n      revert\n    tag_123:\n        /* \"contracts/TikTrixGame.sol\":1734:1754  GameInfo memory game */\n      0x00\n        /* \"contracts/TikTrixGame.sol\":1757:1766  gameInfos */\n      0x07\n        /* \"contracts/TikTrixGame.sol\":1757:1775  gameInfos[tokenId] */\n      0x00\n        /* \"contracts/TikTrixGame.sol\":1767:1774  tokenId */\n      dup7\n        /* \"contracts/TikTrixGame.sol\":1757:1775  gameInfos[tokenId] */\n      dup2\n      mstore\n      0x20\n      add\n      swap1\n      dup2\n      mstore\n      0x20\n      add\n      0x00\n      keccak256\n        /* \"contracts/TikTrixGame.sol\":1734:1775  GameInfo memory game = gameInfos[tokenId] */\n      mload(0x40)\n      dup1\n      0x60\n      add\n      0x40\n      mstore\n      swap1\n      dup2\n      0x00\n      dup3\n      add\n      sload\n      dup2\n      mstore\n      0x20\n      add\n      0x01\n      dup3\n      add\n      sload\n      dup2\n      mstore\n      0x20\n      add\n      0x02\n      dup3\n      add\n      dup1\n      sload\n      tag_126\n      swap1\n      tag_106\n      jump\t// in\n    tag_126:\n      dup1\n      0x1f\n      add\n      0x20\n      dup1\n      swap2\n      div\n      mul\n      0x20\n      add\n      mload(0x40)\n      swap1\n      dup2\n      add\n      0x40\n      mstore\n      dup1\n      swap3\n      swap2\n      swap1\n      dup2\n      dup2\n      mstore\n      0x20\n      add\n      dup3\n      dup1\n      sload\n      tag_127\n      swap1\n      tag_106\n      jump\t// in\n    tag_127:\n      dup1\n      iszero\n      tag_128\n      jumpi\n      dup1\n      0x1f\n      lt\n      tag_129\n      jumpi\n      0x0100\n      dup1\n      dup4\n      sload\n      div\n      mul\n      dup4\n      mstore\n      swap2\n      0x20\n      add\n      swap2\n      jump(tag_128)\n    tag_129:\n      dup3\n      add\n      swap2\n      swap1\n      0x00\n      mstore\n      keccak256(0x00, 0x20)\n      swap1\n    tag_130:\n      dup2\n      sload\n      dup2\n      mstore\n      swap1\n      0x01\n      add\n      swap1\n      0x20\n      add\n      dup1\n      dup4\n      gt\n      tag_130\n      jumpi\n      dup3\n      swap1\n      sub\n      0x1f\n      and\n      dup3\n      add\n      swap2\n    tag_128:\n      pop\n      pop\n      pop\n      pop\n      pop\n      dup2\n      mstore\n      pop\n      pop\n      swap1\n      pop\n        /* \"contracts/TikTrixGame.sol\":1793:1797  game */\n      dup1\n        /* \"contracts/TikTrixGame.sol\":1793:1810  game.developerSeq */\n      0x00\n      add\n      mload\n        /* \"contracts/TikTrixGame.sol\":1812:1816  game */\n      dup2\n        /* \"contracts/TikTrixGame.sol\":1812:1824  game.gameSeq */\n      0x20\n      add\n      mload\n        /* \"contracts/TikTrixGame.sol\":1826:1830  game */\n      dup3\n        /* \"contracts/TikTrixGame.sol\":1826:1836  game.title */\n      0x40\n      add\n      mload\n        /* \"contracts/TikTrixGame.sol\":1785:1837  return (game.developerSeq, game.gameSeq, game.title) */\n      swap4\n      pop\n      swap4\n      pop\n      swap4\n      pop\n      pop\n        /* \"contracts/TikTrixGame.sol\":1502:1844  function getInfo(uint256 tokenId) public view returns (uint256 developerSeq, uint256 gameSeq, string memory title) {... */\n      swap2\n      swap4\n      swap1\n      swap3\n      pop\n      jump\t// out\n        /* \"@openzeppelin/contracts/token/ERC721/ERC721.sol\":4143:4721  function transferFrom(address from, address to, uint256 tokenId) public virtual {... */\n    tag_52:\n        /* \"@openzeppelin/contracts/token/ERC721/ERC721.sol\":4251:4252  0 */\n      0x00\n        /* \"@openzeppelin/contracts/token/ERC721/ERC721.sol\":4237:4253  to == address(0) */\n      0xffffffffffffffffffffffffffffffffffffffff\n      and\n        /* \"@openzeppelin/contracts/token/ERC721/ERC721.sol\":4237:4239  to */\n      dup3\n        /* \"@openzeppelin/contracts/token/ERC721/ERC721.sol\":4237:4253  to == address(0) */\n      0xffffffffffffffffffffffffffffffffffffffff\n      and\n      sub\n        /* \"@openzeppelin/contracts/token/ERC721/ERC721.sol\":4233:4320  if (to == address(0)) {... */\n      tag_132\n      jumpi\n        /* \"@openzeppelin/contracts/token/ERC721/ERC721.sol\":4306:4307  0 */\n      0x00\n        /* \"@openzeppelin/contracts/token/ERC721/ERC721.sol\":4276:4309  ERC721InvalidReceiver(address(0)) */\n      mload(0x40)\n      0x64a0ae9200000000000000000000000000000000000000000000000000000000\n      dup2\n      mstore\n      0x04\n      add\n      tag_133\n      swap2\n      swap1\n      tag_39\n      jump\t// in\n    tag_133:\n      mload(0x40)\n      dup1\n      swap2\n      sub\n      swap1\n      revert\n        /* \"@openzeppelin/contracts/token/ERC721/ERC721.sol\":4233:4320  if (to == address(0)) {... */\n    tag_132:\n        /* \"@openzeppelin/contracts/token/ERC721/ERC721.sol\":4538:4559  address previousOwner */\n      0x00\n        /* \"@openzeppelin/contracts/token/ERC721/ERC721.sol\":4562:4596  _update(to, tokenId, _msgSender()) */\n      tag_134\n        /* \"@openzeppelin/contracts/token/ERC721/ERC721.sol\":4570:4572  to */\n      dup4\n        /* \"@openzeppelin/contracts/token/ERC721/ERC721.sol\":4574:4581  tokenId */\n      dup4\n        /* \"@openzeppelin/contracts/token/ERC721/ERC721.sol\":4583:4595  _msgSender() */\n      tag_135\n        /* \"@openzeppelin/contracts/token/ERC721/ERC721.sol\":4583:4593  _msgSender */\n      tag_119\n        /* \"@openzeppelin/contracts/token/ERC721/ERC721.sol\":4583:4595  _msgSender() */\n      jump\t// in\n    tag_135:\n        /* \"@openzeppelin/contracts/token/ERC721/ERC721.sol\":4562:4569  _update */\n      tag_136\n        /* \"@openzeppelin/contracts/token/ERC721/ERC721.sol\":4562:4596  _update(to, tokenId, _msgSender()) */\n      jump\t// in\n    tag_134:\n        /* \"@openzeppelin/contracts/token/ERC721/ERC721.sol\":4538:4596  address previousOwner = _update(to, tokenId, _msgSender()) */\n      swap1\n      pop\n        /* \"@openzeppelin/contracts/token/ERC721/ERC721.sol\":4627:4631  from */\n      dup4\n        /* \"@openzeppelin/contracts/token/ERC721/ERC721.sol\":4610:4631  previousOwner != from */\n      0xffffffffffffffffffffffffffffffffffffffff\n      and\n        /* \"@openzeppelin/contracts/token/ERC721/ERC721.sol\":4610:4623  previousOwner */\n      dup2\n        /* \"@openzeppelin/contracts/token/ERC721/ERC721.sol\":4610:4631  previousOwner != from */\n      0xffffffffffffffffffffffffffffffffffffffff\n      and\n      eq\n        /* \"@openzeppelin/contracts/token/ERC721/ERC721.sol\":4606:4715  if (previousOwner != from) {... */\n      tag_137\n      jumpi\n        /* \"@openzeppelin/contracts/token/ERC721/ERC721.sol\":4675:4679  from */\n      dup4\n        /* \"@openzeppelin/contracts/token/ERC721/ERC721.sol\":4681:4688  tokenId */\n      dup3\n        /* \"@openzeppelin/contracts/token/ERC721/ERC721.sol\":4690:4703  previousOwner */\n      dup3\n        /* \"@openzeppelin/contracts/token/ERC721/ERC721.sol\":4654:4704  ERC721IncorrectOwner(from, tokenId, previousOwner) */\n      mload(0x40)\n      0x64283d7b00000000000000000000000000000000000000000000000000000000\n      dup2\n      mstore\n      0x04\n      add\n      tag_138\n      swap4\n      swap3\n      swap2\n      swap1\n      tag_139\n      jump\t// in\n    tag_138:\n      mload(0x40)\n      dup1\n      swap2\n      sub\n      swap1\n      revert\n        /* \"@openzeppelin/contracts/token/ERC721/ERC721.sol\":4606:4715  if (previousOwner != from) {... */\n    tag_137:\n        /* \"@openzeppelin/contracts/token/ERC721/ERC721.sol\":4223:4721  {... */\n      pop\n        /* \"@openzeppelin/contracts/token/ERC721/ERC721.sol\":4143:4721  function transferFrom(address from, address to, uint256 tokenId) public virtual {... */\n      pop\n      pop\n      pop\n      jump\t// out\n        /* \"@openzeppelin/contracts/token/ERC721/ERC721.sol\":4787:4919  function safeTransferFrom(address from, address to, uint256 tokenId) public {... */\n    tag_55:\n        /* \"@openzeppelin/contracts/token/ERC721/ERC721.sol\":4873:4912  safeTransferFrom(from, to, tokenId, \"\") */\n      tag_141\n        /* \"@openzeppelin/contracts/token/ERC721/ERC721.sol\":4890:4894  from */\n      dup4\n        /* \"@openzeppelin/contracts/token/ERC721/ERC721.sol\":4896:4898  to */\n      dup4\n        /* \"@openzeppelin/contracts/token/ERC721/ERC721.sol\":4900:4907  tokenId */\n      dup4\n        /* \"@openzeppelin/contracts/token/ERC721/ERC721.sol\":4873:4912  safeTransferFrom(from, to, tokenId, \"\") */\n      mload(0x40)\n      dup1\n      0x20\n      add\n      0x40\n      mstore\n      dup1\n      0x00\n      dup2\n      mstore\n      pop\n        /* \"@openzeppelin/contracts/token/ERC721/ERC721.sol\":4873:4889  safeTransferFrom */\n      tag_86\n        /* \"@openzeppelin/contracts/token/ERC721/ERC721.sol\":4873:4912  safeTransferFrom(from, to, tokenId, \"\") */\n      jump\t// in\n    tag_141:\n        /* \"@openzeppelin/contracts/token/ERC721/ERC721.sol\":4787:4919  function safeTransferFrom(address from, address to, uint256 tokenId) public {... */\n      pop\n      pop\n      pop\n      jump\t// out\n        /* \"contracts/TikTrixGame.sol\":916:1461  function register(uint256 developerSeq, uint256 gameSeq, string memory title) public onlyOwner returns (uint256) {... */\n    tag_59:\n        /* \"contracts/TikTrixGame.sol\":1020:1027  uint256 */\n      0x00\n        /* \"@openzeppelin/contracts/access/Ownable.sol\":1531:1544  _checkOwner() */\n      tag_143\n        /* \"@openzeppelin/contracts/access/Ownable.sol\":1531:1542  _checkOwner */\n      tag_144\n        /* \"@openzeppelin/contracts/access/Ownable.sol\":1531:1544  _checkOwner() */\n      jump\t// in\n    tag_143:\n        /* \"contracts/TikTrixGame.sol\":1039:1053  currentTokenId */\n      0x08\n      0x00\n        /* \"contracts/TikTrixGame.sol\":1039:1055  currentTokenId++ */\n      dup2\n      sload\n      dup1\n      swap3\n      swap2\n      swap1\n      tag_146\n      swap1\n      tag_147\n      jump\t// in\n    tag_146:\n      swap2\n      swap1\n      pop\n      sstore\n      pop\n        /* \"contracts/TikTrixGame.sol\":1126:1242  GameInfo({... */\n      mload(0x40)\n      dup1\n      0x60\n      add\n      0x40\n      mstore\n      dup1\n        /* \"contracts/TikTrixGame.sol\":1163:1175  developerSeq */\n      dup6\n        /* \"contracts/TikTrixGame.sol\":1126:1242  GameInfo({... */\n      dup2\n      mstore\n      0x20\n      add\n        /* \"contracts/TikTrixGame.sol\":1198:1205  gameSeq */\n      dup5\n        /* \"contracts/TikTrixGame.sol\":1126:1242  GameInfo({... */\n      dup2\n      mstore\n      0x20\n      add\n        /* \"contracts/TikTrixGame.sol\":1226:1231  title */\n      dup4\n        /* \"contracts/TikTrixGame.sol\":1126:1242  GameInfo({... */\n      dup2\n      mstore\n      pop\n        /* \"contracts/TikTrixGame.sol\":1098:1107  gameInfos */\n      0x07\n        /* \"contracts/TikTrixGame.sol\":1098:1123  gameInfos[currentTokenId] */\n      0x00\n        /* \"contracts/TikTrixGame.sol\":1108:1122  currentTokenId */\n      sload(0x08)\n        /* \"contracts/TikTrixGame.sol\":1098:1123  gameInfos[currentTokenId] */\n      dup2\n      mstore\n      0x20\n      add\n      swap1\n      dup2\n      mstore\n      0x20\n      add\n      0x00\n      keccak256\n        /* \"contracts/TikTrixGame.sol\":1098:1242  gameInfos[currentTokenId] = GameInfo({... */\n      0x00\n      dup3\n      add\n      mload\n      dup2\n      0x00\n      add\n      sstore\n      0x20\n      dup3\n      add\n      mload\n      dup2\n      0x01\n      add\n      sstore\n      0x40\n      dup3\n      add\n      mload\n      dup2\n      0x02\n      add\n      swap1\n      dup2\n      tag_148\n      swap2\n      swap1\n      tag_149\n      jump\t// in\n    tag_148:\n      pop\n      swap1\n      pop\n      pop\n        /* \"contracts/TikTrixGame.sol\":1285:1318  _mint(msg.sender, currentTokenId) */\n      tag_150\n        /* \"contracts/TikTrixGame.sol\":1291:1301  msg.sender */\n      caller\n        /* \"contracts/TikTrixGame.sol\":1303:1317  currentTokenId */\n      sload(0x08)\n        /* \"contracts/TikTrixGame.sol\":1285:1290  _mint */\n      tag_151\n        /* \"contracts/TikTrixGame.sol\":1285:1318  _mint(msg.sender, currentTokenId) */\n      jump\t// in\n    tag_150:\n        /* \"contracts/TikTrixGame.sol\":1362:1422  GameRegistered(currentTokenId, developerSeq, gameSeq, title) */\n      0x813bea0b43372a62c6bf828f8c0493583a52baac12d64f2929d960937874866f\n        /* \"contracts/TikTrixGame.sol\":1377:1391  currentTokenId */\n      sload(0x08)\n        /* \"contracts/TikTrixGame.sol\":1393:1405  developerSeq */\n      dup6\n        /* \"contracts/TikTrixGame.sol\":1407:1414  gameSeq */\n      dup6\n        /* \"contracts/TikTrixGame.sol\":1416:1421  title */\n      dup6\n        /* \"contracts/TikTrixGame.sol\":1362:1422  GameRegistered(currentTokenId, developerSeq, gameSeq, title) */\n      mload(0x40)\n      tag_152\n      swap5\n      swap4\n      swap3\n      swap2\n      swap1\n      tag_153\n      jump\t// in\n    tag_152:\n      mload(0x40)\n      dup1\n      swap2\n      sub\n      swap1\n      log1\n        /* \"contracts/TikTrixGame.sol\":1440:1454  currentTokenId */\n      sload(0x08)\n        /* \"contracts/TikTrixGame.sol\":1433:1454  return currentTokenId */\n      swap1\n      pop\n        /* \"contracts/TikTrixGame.sol\":916:1461  function register(uint256 developerSeq, uint256 gameSeq, string memory title) public onlyOwner returns (uint256) {... */\n      swap4\n      swap3\n      pop\n      pop\n      pop\n      jump\t// out\n        /* \"@openzeppelin/contracts/token/ERC721/ERC721.sol\":2185:2303  function ownerOf(uint256 tokenId) public view virtual returns (address) {... */\n    tag_64:\n        /* \"@openzeppelin/contracts/token/ERC721/ERC721.sol\":2248:2255  address */\n      0x00\n        /* \"@openzeppelin/contracts/token/ERC721/ERC721.sol\":2274:2296  _requireOwned(tokenId) */\n      tag_155\n        /* \"@openzeppelin/contracts/token/ERC721/ERC721.sol\":2288:2295  tokenId */\n      dup3\n        /* \"@openzeppelin/contracts/token/ERC721/ERC721.sol\":2274:2287  _requireOwned */\n      tag_113\n        /* \"@openzeppelin/contracts/token/ERC721/ERC721.sol\":2274:2296  _requireOwned(tokenId) */\n      jump\t// in\n    tag_155:\n        /* \"@openzeppelin/contracts/token/ERC721/ERC721.sol\":2267:2296  return _requireOwned(tokenId) */\n      swap1\n      pop\n        /* \"@openzeppelin/contracts/token/ERC721/ERC721.sol\":2185:2303  function ownerOf(uint256 tokenId) public view virtual returns (address) {... */\n      swap2\n      swap1\n      pop\n      jump\t// out\n        /* \"@openzeppelin/contracts/token/ERC721/ERC721.sol\":1920:2128  function balanceOf(address owner) public view virtual returns (uint256) {... */\n    tag_69:\n        /* \"@openzeppelin/contracts/token/ERC721/ERC721.sol\":1983:1990  uint256 */\n      0x00\n        /* \"@openzeppelin/contracts/token/ERC721/ERC721.sol\":2023:2024  0 */\n      dup1\n        /* \"@openzeppelin/contracts/token/ERC721/ERC721.sol\":2006:2025  owner == address(0) */\n      0xffffffffffffffffffffffffffffffffffffffff\n      and\n        /* \"@openzeppelin/contracts/token/ERC721/ERC721.sol\":2006:2011  owner */\n      dup3\n        /* \"@openzeppelin/contracts/token/ERC721/ERC721.sol\":2006:2025  owner == address(0) */\n      0xffffffffffffffffffffffffffffffffffffffff\n      and\n      sub\n        /* \"@openzeppelin/contracts/token/ERC721/ERC721.sol\":2002:2089  if (owner == address(0)) {... */\n      tag_157\n      jumpi\n        /* \"@openzeppelin/contracts/token/ERC721/ERC721.sol\":2075:2076  0 */\n      0x00\n        /* \"@openzeppelin/contracts/token/ERC721/ERC721.sol\":2048:2078  ERC721InvalidOwner(address(0)) */\n      mload(0x40)\n      0x89c62b6400000000000000000000000000000000000000000000000000000000\n      dup2\n      mstore\n      0x04\n      add\n      tag_158\n      swap2\n      swap1\n      tag_39\n      jump\t// in\n    tag_158:\n      mload(0x40)\n      dup1\n      swap2\n      sub\n      swap1\n      revert\n        /* \"@openzeppelin/contracts/token/ERC721/ERC721.sol\":2002:2089  if (owner == address(0)) {... */\n    tag_157:\n        /* \"@openzeppelin/contracts/token/ERC721/ERC721.sol\":2105:2114  _balances */\n      0x03\n        /* \"@openzeppelin/contracts/token/ERC721/ERC721.sol\":2105:2121  _balances[owner] */\n      0x00\n        /* \"@openzeppelin/contracts/token/ERC721/ERC721.sol\":2115:2120  owner */\n      dup4\n        /* \"@openzeppelin/contracts/token/ERC721/ERC721.sol\":2105:2121  _balances[owner] */\n      0xffffffffffffffffffffffffffffffffffffffff\n      and\n      0xffffffffffffffffffffffffffffffffffffffff\n      and\n      dup2\n      mstore\n      0x20\n      add\n      swap1\n      dup2\n      mstore\n      0x20\n      add\n      0x00\n      keccak256\n      sload\n        /* \"@openzeppelin/contracts/token/ERC721/ERC721.sol\":2098:2121  return _balances[owner] */\n      swap1\n      pop\n        /* \"@openzeppelin/contracts/token/ERC721/ERC721.sol\":1920:2128  function balanceOf(address owner) public view virtual returns (uint256) {... */\n      swap2\n      swap1\n      pop\n      jump\t// out\n        /* \"@openzeppelin/contracts/access/Ownable.sol\":2293:2394  function renounceOwnership() public virtual onlyOwner {... */\n    tag_72:\n        /* \"@openzeppelin/contracts/access/Ownable.sol\":1531:1544  _checkOwner() */\n      tag_160\n        /* \"@openzeppelin/contracts/access/Ownable.sol\":1531:1542  _checkOwner */\n      tag_144\n        /* \"@openzeppelin/contracts/access/Ownable.sol\":1531:1544  _checkOwner() */\n      jump\t// in\n    tag_160:\n        /* \"@openzeppelin/contracts/access/Ownable.sol\":2357:2387  _transferOwnership(address(0)) */\n      tag_162\n        /* \"@openzeppelin/contracts/access/Ownable.sol\":2384:2385  0 */\n      0x00\n        /* \"@openzeppelin/contracts/access/Ownable.sol\":2357:2375  _transferOwnership */\n      tag_163\n        /* \"@openzeppelin/contracts/access/Ownable.sol\":2357:2387  _transferOwnership(address(0)) */\n      jump\t// in\n    tag_162:\n        /* \"@openzeppelin/contracts/access/Ownable.sol\":2293:2394  function renounceOwnership() public virtual onlyOwner {... */\n      jump\t// out\n        /* \"@openzeppelin/contracts/access/Ownable.sol\":1638:1723  function owner() public view virtual returns (address) {... */\n    tag_74:\n        /* \"@openzeppelin/contracts/access/Ownable.sol\":1684:1691  address */\n      0x00\n        /* \"@openzeppelin/contracts/access/Ownable.sol\":1710:1716  _owner */\n      0x06\n      0x00\n      swap1\n      sload\n      swap1\n      0x0100\n      exp\n      swap1\n      div\n      0xffffffffffffffffffffffffffffffffffffffff\n      and\n        /* \"@openzeppelin/contracts/access/Ownable.sol\":1703:1716  return _owner */\n      swap1\n      pop\n        /* \"@openzeppelin/contracts/access/Ownable.sol\":1638:1723  function owner() public view virtual returns (address) {... */\n      swap1\n      jump\t// out\n        /* \"@openzeppelin/contracts/token/ERC721/ERC721.sol\":2518:2611  function symbol() public view virtual returns (string memory) {... */\n    tag_77:\n        /* \"@openzeppelin/contracts/token/ERC721/ERC721.sol\":2565:2578  string memory */\n      0x60\n        /* \"@openzeppelin/contracts/token/ERC721/ERC721.sol\":2597:2604  _symbol */\n      0x01\n        /* \"@openzeppelin/contracts/token/ERC721/ERC721.sol\":2590:2604  return _symbol */\n      dup1\n      sload\n      tag_166\n      swap1\n      tag_106\n      jump\t// in\n    tag_166:\n      dup1\n      0x1f\n      add\n      0x20\n      dup1\n      swap2\n      div\n      mul\n      0x20\n      add\n      mload(0x40)\n      swap1\n      dup2\n      add\n      0x40\n      mstore\n      dup1\n      swap3\n      swap2\n      swap1\n      dup2\n      dup2\n      mstore\n      0x20\n      add\n      dup3\n      dup1\n      sload\n      tag_167\n      swap1\n      tag_106\n      jump\t// in\n    tag_167:\n      dup1\n      iszero\n      tag_168\n      jumpi\n      dup1\n      0x1f\n      lt\n      tag_169\n      jumpi\n      0x0100\n      dup1\n      dup4\n      sload\n      div\n      mul\n      dup4\n      mstore\n      swap2\n      0x20\n      add\n      swap2\n      jump(tag_168)\n    tag_169:\n      dup3\n      add\n      swap2\n      swap1\n      0x00\n      mstore\n      keccak256(0x00, 0x20)\n      swap1\n    tag_170:\n      dup2\n      sload\n      dup2\n      mstore\n      swap1\n      0x01\n      add\n      swap1\n      0x20\n      add\n      dup1\n      dup4\n      gt\n      tag_170\n      jumpi\n      dup3\n      swap1\n      sub\n      0x1f\n      and\n      dup3\n      add\n      swap2\n    tag_168:\n      pop\n      pop\n      pop\n      pop\n      pop\n      swap1\n      pop\n        /* \"@openzeppelin/contracts/token/ERC721/ERC721.sol\":2518:2611  function symbol() public view virtual returns (string memory) {... */\n      swap1\n      jump\t// out\n        /* \"@openzeppelin/contracts/token/ERC721/ERC721.sol\":3718:3862  function setApprovalForAll(address operator, bool approved) public virtual {... */\n    tag_82:\n        /* \"@openzeppelin/contracts/token/ERC721/ERC721.sol\":3803:3855  _setApprovalForAll(_msgSender(), operator, approved) */\n      tag_172\n        /* \"@openzeppelin/contracts/token/ERC721/ERC721.sol\":3822:3834  _msgSender() */\n      tag_173\n        /* \"@openzeppelin/contracts/token/ERC721/ERC721.sol\":3822:3832  _msgSender */\n      tag_119\n        /* \"@openzeppelin/contracts/token/ERC721/ERC721.sol\":3822:3834  _msgSender() */\n      jump\t// in\n    tag_173:\n        /* \"@openzeppelin/contracts/token/ERC721/ERC721.sol\":3836:3844  operator */\n      dup4\n        /* \"@openzeppelin/contracts/token/ERC721/ERC721.sol\":3846:3854  approved */\n      dup4\n        /* \"@openzeppelin/contracts/token/ERC721/ERC721.sol\":3803:3821  _setApprovalForAll */\n      tag_174\n        /* \"@openzeppelin/contracts/token/ERC721/ERC721.sol\":3803:3855  _setApprovalForAll(_msgSender(), operator, approved) */\n      jump\t// in\n    tag_172:\n        /* \"@openzeppelin/contracts/token/ERC721/ERC721.sol\":3718:3862  function setApprovalForAll(address operator, bool approved) public virtual {... */\n      pop\n      pop\n      jump\t// out\n        /* \"@openzeppelin/contracts/token/ERC721/ERC721.sol\":4985:5193  function safeTransferFrom(address from, address to, uint256 tokenId, bytes memory data) public virtual {... */\n    tag_86:\n        /* \"@openzeppelin/contracts/token/ERC721/ERC721.sol\":5098:5129  transferFrom(from, to, tokenId) */\n      tag_176\n        /* \"@openzeppelin/contracts/token/ERC721/ERC721.sol\":5111:5115  from */\n      dup5\n        /* \"@openzeppelin/contracts/token/ERC721/ERC721.sol\":5117:5119  to */\n      dup5\n        /* \"@openzeppelin/contracts/token/ERC721/ERC721.sol\":5121:5128  tokenId */\n      dup5\n        /* \"@openzeppelin/contracts/token/ERC721/ERC721.sol\":5098:5110  transferFrom */\n      tag_52\n        /* \"@openzeppelin/contracts/token/ERC721/ERC721.sol\":5098:5129  transferFrom(from, to, tokenId) */\n      jump\t// in\n    tag_176:\n        /* \"@openzeppelin/contracts/token/ERC721/ERC721.sol\":5139:5186  _checkOnERC721Received(from, to, tokenId, data) */\n      tag_177\n        /* \"@openzeppelin/contracts/token/ERC721/ERC721.sol\":5162:5166  from */\n      dup5\n        /* \"@openzeppelin/contracts/token/ERC721/ERC721.sol\":5168:5170  to */\n      dup5\n        /* \"@openzeppelin/contracts/token/ERC721/ERC721.sol\":5172:5179  tokenId */\n      dup5\n        /* \"@openzeppelin/contracts/token/ERC721/ERC721.sol\":5181:5185  data */\n      dup5\n        /* \"@openzeppelin/contracts/token/ERC721/ERC721.sol\":5139:5161  _checkOnERC721Received */\n      tag_178\n        /* \"@openzeppelin/contracts/token/ERC721/ERC721.sol\":5139:5186  _checkOnERC721Received(from, to, tokenId, data) */\n      jump\t// in\n    tag_177:\n        /* \"@openzeppelin/contracts/token/ERC721/ERC721.sol\":4985:5193  function safeTransferFrom(address from, address to, uint256 tokenId, bytes memory data) public virtual {... */\n      pop\n      pop\n      pop\n      pop\n      jump\t// out\n        /* \"@openzeppelin/contracts/token/ERC721/ERC721.sol\":2677:2932  function tokenURI(uint256 tokenId) public view virtual returns (string memory) {... */\n    tag_89:\n        /* \"@openzeppelin/contracts/token/ERC721/ERC721.sol\":2741:2754  string memory */\n      0x60\n        /* \"@openzeppelin/contracts/token/ERC721/ERC721.sol\":2766:2788  _requireOwned(tokenId) */\n      tag_180\n        /* \"@openzeppelin/contracts/token/ERC721/ERC721.sol\":2780:2787  tokenId */\n      dup3\n        /* \"@openzeppelin/contracts/token/ERC721/ERC721.sol\":2766:2779  _requireOwned */\n      tag_113\n        /* \"@openzeppelin/contracts/token/ERC721/ERC721.sol\":2766:2788  _requireOwned(tokenId) */\n      jump\t// in\n    tag_180:\n      pop\n        /* \"@openzeppelin/contracts/token/ERC721/ERC721.sol\":2799:2820  string memory baseURI */\n      0x00\n        /* \"@openzeppelin/contracts/token/ERC721/ERC721.sol\":2823:2833  _baseURI() */\n      tag_181\n        /* \"@openzeppelin/contracts/token/ERC721/ERC721.sol\":2823:2831  _baseURI */\n      tag_182\n        /* \"@openzeppelin/contracts/token/ERC721/ERC721.sol\":2823:2833  _baseURI() */\n      jump\t// in\n    tag_181:\n        /* \"@openzeppelin/contracts/token/ERC721/ERC721.sol\":2799:2833  string memory baseURI = _baseURI() */\n      swap1\n      pop\n        /* \"@openzeppelin/contracts/token/ERC721/ERC721.sol\":2874:2875  0 */\n      0x00\n        /* \"@openzeppelin/contracts/token/ERC721/ERC721.sol\":2856:2863  baseURI */\n      dup2\n        /* \"@openzeppelin/contracts/token/ERC721/ERC721.sol\":2850:2871  bytes(baseURI).length */\n      mload\n        /* \"@openzeppelin/contracts/token/ERC721/ERC721.sol\":2850:2875  bytes(baseURI).length > 0 */\n      gt\n        /* \"@openzeppelin/contracts/token/ERC721/ERC721.sol\":2850:2925  bytes(baseURI).length > 0 ? string.concat(baseURI, tokenId.toString()) : \"\" */\n      tag_183\n      jumpi\n      mload(0x40)\n      dup1\n      0x20\n      add\n      0x40\n      mstore\n      dup1\n      0x00\n      dup2\n      mstore\n      pop\n      jump(tag_184)\n    tag_183:\n        /* \"@openzeppelin/contracts/token/ERC721/ERC721.sol\":2892:2899  baseURI */\n      dup1\n        /* \"@openzeppelin/contracts/token/ERC721/ERC721.sol\":2901:2919  tokenId.toString() */\n      tag_185\n        /* \"@openzeppelin/contracts/token/ERC721/ERC721.sol\":2901:2908  tokenId */\n      dup5\n        /* \"@openzeppelin/contracts/token/ERC721/ERC721.sol\":2901:2917  tokenId.toString */\n      tag_186\n        /* \"@openzeppelin/contracts/token/ERC721/ERC721.sol\":2901:2919  tokenId.toString() */\n      jump\t// in\n    tag_185:\n        /* \"@openzeppelin/contracts/token/ERC721/ERC721.sol\":2878:2920  string.concat(baseURI, tokenId.toString()) */\n      add(0x20, mload(0x40))\n      tag_187\n      swap3\n      swap2\n      swap1\n      tag_188\n      jump\t// in\n    tag_187:\n      mload(0x40)\n      0x20\n      dup2\n      dup4\n      sub\n      sub\n      dup2\n      mstore\n      swap1\n      0x40\n      mstore\n        /* \"@openzeppelin/contracts/token/ERC721/ERC721.sol\":2850:2925  bytes(baseURI).length > 0 ? string.concat(baseURI, tokenId.toString()) : \"\" */\n    tag_184:\n        /* \"@openzeppelin/contracts/token/ERC721/ERC721.sol\":2843:2925  return bytes(baseURI).length > 0 ? string.concat(baseURI, tokenId.toString()) : \"\" */\n      swap2\n      pop\n      pop\n        /* \"@openzeppelin/contracts/token/ERC721/ERC721.sol\":2677:2932  function tokenURI(uint256 tokenId) public view virtual returns (string memory) {... */\n      swap2\n      swap1\n      pop\n      jump\t// out\n        /* \"@openzeppelin/contracts/token/ERC721/ERC721.sol\":3928:4081  function isApprovedForAll(address owner, address operator) public view virtual returns (bool) {... */\n    tag_94:\n        /* \"@openzeppelin/contracts/token/ERC721/ERC721.sol\":4016:4020  bool */\n      0x00\n        /* \"@openzeppelin/contracts/token/ERC721/ERC721.sol\":4039:4057  _operatorApprovals */\n      0x05\n        /* \"@openzeppelin/contracts/token/ERC721/ERC721.sol\":4039:4064  _operatorApprovals[owner] */\n      0x00\n        /* \"@openzeppelin/contracts/token/ERC721/ERC721.sol\":4058:4063  owner */\n      dup5\n        /* \"@openzeppelin/contracts/token/ERC721/ERC721.sol\":4039:4064  _operatorApprovals[owner] */\n      0xffffffffffffffffffffffffffffffffffffffff\n      and\n      0xffffffffffffffffffffffffffffffffffffffff\n      and\n      dup2\n      mstore\n      0x20\n      add\n      swap1\n      dup2\n      mstore\n      0x20\n      add\n      0x00\n      keccak256\n        /* \"@openzeppelin/contracts/token/ERC721/ERC721.sol\":4039:4074  _operatorApprovals[owner][operator] */\n      0x00\n        /* \"@openzeppelin/contracts/token/ERC721/ERC721.sol\":4065:4073  operator */\n      dup4\n        /* \"@openzeppelin/contracts/token/ERC721/ERC721.sol\":4039:4074  _operatorApprovals[owner][operator] */\n      0xffffffffffffffffffffffffffffffffffffffff\n      and\n      0xffffffffffffffffffffffffffffffffffffffff\n      and\n      dup2\n      mstore\n      0x20\n      add\n      swap1\n      dup2\n      mstore\n      0x20\n      add\n      0x00\n      keccak256\n      0x00\n      swap1\n      sload\n      swap1\n      0x0100\n      exp\n      swap1\n      div\n      0xff\n      and\n        /* \"@openzeppelin/contracts/token/ERC721/ERC721.sol\":4032:4074  return _operatorApprovals[owner][operator] */\n      swap1\n      pop\n        /* \"@openzeppelin/contracts/token/ERC721/ERC721.sol\":3928:4081  function isApprovedForAll(address owner, address operator) public view virtual returns (bool) {... */\n      swap3\n      swap2\n      pop\n      pop\n      jump\t// out\n        /* \"@openzeppelin/contracts/access/Ownable.sol\":2543:2758  function transferOwnership(address newOwner) public virtual onlyOwner {... */\n    tag_98:\n        /* \"@openzeppelin/contracts/access/Ownable.sol\":1531:1544  _checkOwner() */\n      tag_191\n        /* \"@openzeppelin/contracts/access/Ownable.sol\":1531:1542  _checkOwner */\n      tag_144\n        /* \"@openzeppelin/contracts/access/Ownable.sol\":1531:1544  _checkOwner() */\n      jump\t// in\n    tag_191:\n        /* \"@openzeppelin/contracts/access/Ownable.sol\":2647:2648  0 */\n      0x00\n        /* \"@openzeppelin/contracts/access/Ownable.sol\":2627:2649  newOwner == address(0) */\n      0xffffffffffffffffffffffffffffffffffffffff\n      and\n        /* \"@openzeppelin/contracts/access/Ownable.sol\":2627:2635  newOwner */\n      dup2\n        /* \"@openzeppelin/contracts/access/Ownable.sol\":2627:2649  newOwner == address(0) */\n      0xffffffffffffffffffffffffffffffffffffffff\n      and\n      sub\n        /* \"@openzeppelin/contracts/access/Ownable.sol\":2623:2714  if (newOwner == address(0)) {... */\n      tag_193\n      jumpi\n        /* \"@openzeppelin/contracts/access/Ownable.sol\":2700:2701  0 */\n      0x00\n        /* \"@openzeppelin/contracts/access/Ownable.sol\":2672:2703  OwnableInvalidOwner(address(0)) */\n      mload(0x40)\n      0x1e4fbdf700000000000000000000000000000000000000000000000000000000\n      dup2\n      mstore\n      0x04\n      add\n      tag_194\n      swap2\n      swap1\n      tag_39\n      jump\t// in\n    tag_194:\n      mload(0x40)\n      dup1\n      swap2\n      sub\n      swap1\n      revert\n        /* \"@openzeppelin/contracts/access/Ownable.sol\":2623:2714  if (newOwner == address(0)) {... */\n    tag_193:\n        /* \"@openzeppelin/contracts/access/Ownable.sol\":2723:2751  _transferOwnership(newOwner) */\n      tag_195\n        /* \"@openzeppelin/contracts/access/Ownable.sol\":2742:2750  newOwner */\n      dup2\n        /* \"@openzeppelin/contracts/access/Ownable.sol\":2723:2741  _transferOwnership */\n      tag_163\n        /* \"@openzeppelin/contracts/access/Ownable.sol\":2723:2751  _transferOwnership(newOwner) */\n      jump\t// in\n    tag_195:\n        /* \"@openzeppelin/contracts/access/Ownable.sol\":2543:2758  function transferOwnership(address newOwner) public virtual onlyOwner {... */\n      pop\n      jump\t// out\n        /* \"@openzeppelin/contracts/utils/introspection/ERC165.sol\":762:908  function supportsInterface(bytes4 interfaceId) public view virtual returns (bool) {... */\n    tag_103:\n        /* \"@openzeppelin/contracts/utils/introspection/ERC165.sol\":838:842  bool */\n      0x00\n        /* \"@openzeppelin/contracts/utils/introspection/ERC165.sol\":876:901  type(IERC165).interfaceId */\n      0x01ffc9a700000000000000000000000000000000000000000000000000000000\n        /* \"@openzeppelin/contracts/utils/introspection/ERC165.sol\":861:901  interfaceId == type(IERC165).interfaceId */\n      not(0xffffffffffffffffffffffffffffffffffffffffffffffffffffffff)\n      and\n        /* \"@openzeppelin/contracts/utils/introspection/ERC165.sol\":861:872  interfaceId */\n      dup3\n        /* \"@openzeppelin/contracts/utils/introspection/ERC165.sol\":861:901  interfaceId == type(IERC165).interfaceId */\n      not(0xffffffffffffffffffffffffffffffffffffffffffffffffffffffff)\n      and\n      eq\n        /* \"@openzeppelin/contracts/utils/introspection/ERC165.sol\":854:901  return interfaceId == type(IERC165).interfaceId */\n      swap1\n      pop\n        /* \"@openzeppelin/contracts/utils/introspection/ERC165.sol\":762:908  function supportsInterface(bytes4 interfaceId) public view virtual returns (bool) {... */\n      swap2\n      swap1\n      pop\n      jump\t// out\n        /* \"@openzeppelin/contracts/token/ERC721/ERC721.sol\":16138:16379  function _requireOwned(uint256 tokenId) internal view returns (address) {... */\n    tag_113:\n        /* \"@openzeppelin/contracts/token/ERC721/ERC721.sol\":16201:16208  address */\n      0x00\n        /* \"@openzeppelin/contracts/token/ERC721/ERC721.sol\":16220:16233  address owner */\n      dup1\n        /* \"@openzeppelin/contracts/token/ERC721/ERC721.sol\":16236:16253  _ownerOf(tokenId) */\n      tag_198\n        /* \"@openzeppelin/contracts/token/ERC721/ERC721.sol\":16245:16252  tokenId */\n      dup4\n        /* \"@openzeppelin/contracts/token/ERC721/ERC721.sol\":16236:16244  _ownerOf */\n      tag_199\n        /* \"@openzeppelin/contracts/token/ERC721/ERC721.sol\":16236:16253  _ownerOf(tokenId) */\n      jump\t// in\n    tag_198:\n        /* \"@openzeppelin/contracts/token/ERC721/ERC721.sol\":16220:16253  address owner = _ownerOf(tokenId) */\n      swap1\n      pop\n        /* \"@openzeppelin/contracts/token/ERC721/ERC721.sol\":16284:16285  0 */\n      0x00\n        /* \"@openzeppelin/contracts/token/ERC721/ERC721.sol\":16267:16286  owner == address(0) */\n      0xffffffffffffffffffffffffffffffffffffffff\n      and\n        /* \"@openzeppelin/contracts/token/ERC721/ERC721.sol\":16267:16272  owner */\n      dup2\n        /* \"@openzeppelin/contracts/token/ERC721/ERC721.sol\":16267:16286  owner == address(0) */\n      0xffffffffffffffffffffffffffffffffffffffff\n      and\n      sub\n        /* \"@openzeppelin/contracts/token/ERC721/ERC721.sol\":16263:16351  if (owner == address(0)) {... */\n      tag_200\n      jumpi\n        /* \"@openzeppelin/contracts/token/ERC721/ERC721.sol\":16332:16339  tokenId */\n      dup3\n        /* \"@openzeppelin/contracts/token/ERC721/ERC721.sol\":16309:16340  ERC721NonexistentToken(tokenId) */\n      mload(0x40)\n      0x7e27328900000000000000000000000000000000000000000000000000000000\n      dup2\n      mstore\n      0x04\n      add\n      tag_201\n      swap2\n      swap1\n      tag_61\n      jump\t// in\n    tag_201:\n      mload(0x40)\n      dup1\n      swap2\n      sub\n      swap1\n      revert\n        /* \"@openzeppelin/contracts/token/ERC721/ERC721.sol\":16263:16351  if (owner == address(0)) {... */\n    tag_200:\n        /* \"@openzeppelin/contracts/token/ERC721/ERC721.sol\":16367:16372  owner */\n      dup1\n        /* \"@openzeppelin/contracts/token/ERC721/ERC721.sol\":16360:16372  return owner */\n      swap2\n      pop\n      pop\n        /* \"@openzeppelin/contracts/token/ERC721/ERC721.sol\":16138:16379  function _requireOwned(uint256 tokenId) internal view returns (address) {... */\n      swap2\n      swap1\n      pop\n      jump\t// out\n        /* \"@openzeppelin/contracts/token/ERC721/ERC721.sol\":5938:6065  function _getApproved(uint256 tokenId) internal view virtual returns (address) {... */\n    tag_115:\n        /* \"@openzeppelin/contracts/token/ERC721/ERC721.sol\":6008:6015  address */\n      0x00\n        /* \"@openzeppelin/contracts/token/ERC721/ERC721.sol\":6034:6049  _tokenApprovals */\n      0x04\n        /* \"@openzeppelin/contracts/token/ERC721/ERC721.sol\":6034:6058  _tokenApprovals[tokenId] */\n      0x00\n        /* \"@openzeppelin/contracts/token/ERC721/ERC721.sol\":6050:6057  tokenId */\n      dup4\n        /* \"@openzeppelin/contracts/token/ERC721/ERC721.sol\":6034:6058  _tokenApprovals[tokenId] */\n      dup2\n      mstore\n      0x20\n      add\n      swap1\n      dup2\n      mstore\n      0x20\n      add\n      0x00\n      keccak256\n      0x00\n      swap1\n      sload\n      swap1\n      0x0100\n      exp\n      swap1\n      div\n      0xffffffffffffffffffffffffffffffffffffffff\n      and\n        /* \"@openzeppelin/contracts/token/ERC721/ERC721.sol\":6027:6058  return _tokenApprovals[tokenId] */\n      swap1\n      pop\n        /* \"@openzeppelin/contracts/token/ERC721/ERC721.sol\":5938:6065  function _getApproved(uint256 tokenId) internal view virtual returns (address) {... */\n      swap2\n      swap1\n      pop\n      jump\t// out\n        /* \"@openzeppelin/contracts/utils/Context.sol\":656:752  function _msgSender() internal view virtual returns (address) {... */\n    tag_119:\n        /* \"@openzeppelin/contracts/utils/Context.sol\":709:716  address */\n      0x00\n        /* \"@openzeppelin/contracts/utils/Context.sol\":735:745  msg.sender */\n      caller\n        /* \"@openzeppelin/contracts/utils/Context.sol\":728:745  return msg.sender */\n      swap1\n      pop\n        /* \"@openzeppelin/contracts/utils/Context.sol\":656:752  function _msgSender() internal view virtual returns (address) {... */\n      swap1\n      jump\t// out\n        /* \"@openzeppelin/contracts/token/ERC721/ERC721.sol\":14418:14538  function _approve(address to, uint256 tokenId, address auth) internal {... */\n    tag_120:\n        /* \"@openzeppelin/contracts/token/ERC721/ERC721.sol\":14498:14531  _approve(to, tokenId, auth, true) */\n      tag_205\n        /* \"@openzeppelin/contracts/token/ERC721/ERC721.sol\":14507:14509  to */\n      dup4\n        /* \"@openzeppelin/contracts/token/ERC721/ERC721.sol\":14511:14518  tokenId */\n      dup4\n        /* \"@openzeppelin/contracts/token/ERC721/ERC721.sol\":14520:14524  auth */\n      dup4\n        /* \"@openzeppelin/contracts/token/ERC721/ERC721.sol\":14526:14530  true */\n      0x01\n        /* \"@openzeppelin/contracts/token/ERC721/ERC721.sol\":14498:14506  _approve */\n      tag_206\n        /* \"@openzeppelin/contracts/token/ERC721/ERC721.sol\":14498:14531  _approve(to, tokenId, auth, true) */\n      jump\t// in\n    tag_205:\n        /* \"@openzeppelin/contracts/token/ERC721/ERC721.sol\":14418:14538  function _approve(address to, uint256 tokenId, address auth) internal {... */\n      pop\n      pop\n      pop\n      jump\t// out\n        /* \"@openzeppelin/contracts/token/ERC721/ERC721.sol\":8838:9633  function _update(address to, uint256 tokenId, address auth) internal virtual returns (address) {... */\n    tag_136:\n        /* \"@openzeppelin/contracts/token/ERC721/ERC721.sol\":8924:8931  address */\n      0x00\n        /* \"@openzeppelin/contracts/token/ERC721/ERC721.sol\":8943:8955  address from */\n      dup1\n        /* \"@openzeppelin/contracts/token/ERC721/ERC721.sol\":8958:8975  _ownerOf(tokenId) */\n      tag_208\n        /* \"@openzeppelin/contracts/token/ERC721/ERC721.sol\":8967:8974  tokenId */\n      dup5\n        /* \"@openzeppelin/contracts/token/ERC721/ERC721.sol\":8958:8966  _ownerOf */\n      tag_199\n        /* \"@openzeppelin/contracts/token/ERC721/ERC721.sol\":8958:8975  _ownerOf(tokenId) */\n      jump\t// in\n    tag_208:\n        /* \"@openzeppelin/contracts/token/ERC721/ERC721.sol\":8943:8975  address from = _ownerOf(tokenId) */\n      swap1\n      pop\n        /* \"@openzeppelin/contracts/token/ERC721/ERC721.sol\":9051:9052  0 */\n      0x00\n        /* \"@openzeppelin/contracts/token/ERC721/ERC721.sol\":9035:9053  auth != address(0) */\n      0xffffffffffffffffffffffffffffffffffffffff\n      and\n        /* \"@openzeppelin/contracts/token/ERC721/ERC721.sol\":9035:9039  auth */\n      dup4\n        /* \"@openzeppelin/contracts/token/ERC721/ERC721.sol\":9035:9053  auth != address(0) */\n      0xffffffffffffffffffffffffffffffffffffffff\n      and\n      eq\n        /* \"@openzeppelin/contracts/token/ERC721/ERC721.sol\":9031:9117  if (auth != address(0)) {... */\n      tag_209\n      jumpi\n        /* \"@openzeppelin/contracts/token/ERC721/ERC721.sol\":9069:9106  _checkAuthorized(from, auth, tokenId) */\n      tag_210\n        /* \"@openzeppelin/contracts/token/ERC721/ERC721.sol\":9086:9090  from */\n      dup2\n        /* \"@openzeppelin/contracts/token/ERC721/ERC721.sol\":9092:9096  auth */\n      dup5\n        /* \"@openzeppelin/contracts/token/ERC721/ERC721.sol\":9098:9105  tokenId */\n      dup7\n        /* \"@openzeppelin/contracts/token/ERC721/ERC721.sol\":9069:9085  _checkAuthorized */\n      tag_211\n        /* \"@openzeppelin/contracts/token/ERC721/ERC721.sol\":9069:9106  _checkAuthorized(from, auth, tokenId) */\n      jump\t// in\n    tag_210:\n        /* \"@openzeppelin/contracts/token/ERC721/ERC721.sol\":9031:9117  if (auth != address(0)) {... */\n    tag_209:\n        /* \"@openzeppelin/contracts/token/ERC721/ERC721.sol\":9177:9178  0 */\n      0x00\n        /* \"@openzeppelin/contracts/token/ERC721/ERC721.sol\":9161:9179  from != address(0) */\n      0xffffffffffffffffffffffffffffffffffffffff\n      and\n        /* \"@openzeppelin/contracts/token/ERC721/ERC721.sol\":9161:9165  from */\n      dup2\n        /* \"@openzeppelin/contracts/token/ERC721/ERC721.sol\":9161:9179  from != address(0) */\n      0xffffffffffffffffffffffffffffffffffffffff\n      and\n      eq\n        /* \"@openzeppelin/contracts/token/ERC721/ERC721.sol\":9157:9413  if (from != address(0)) {... */\n      tag_212\n      jumpi\n        /* \"@openzeppelin/contracts/token/ERC721/ERC721.sol\":9277:9325  _approve(address(0), tokenId, address(0), false) */\n      tag_213\n        /* \"@openzeppelin/contracts/token/ERC721/ERC721.sol\":9294:9295  0 */\n      0x00\n        /* \"@openzeppelin/contracts/token/ERC721/ERC721.sol\":9298:9305  tokenId */\n      dup6\n        /* \"@openzeppelin/contracts/token/ERC721/ERC721.sol\":9315:9316  0 */\n      0x00\n        /* \"@openzeppelin/contracts/token/ERC721/ERC721.sol\":9319:9324  false */\n      dup1\n        /* \"@openzeppelin/contracts/token/ERC721/ERC721.sol\":9277:9285  _approve */\n      tag_206\n        /* \"@openzeppelin/contracts/token/ERC721/ERC721.sol\":9277:9325  _approve(address(0), tokenId, address(0), false) */\n      jump\t// in\n    tag_213:\n        /* \"@openzeppelin/contracts/token/ERC721/ERC721.sol\":9387:9388  1 */\n      0x01\n        /* \"@openzeppelin/contracts/token/ERC721/ERC721.sol\":9368:9377  _balances */\n      0x03\n        /* \"@openzeppelin/contracts/token/ERC721/ERC721.sol\":9368:9383  _balances[from] */\n      0x00\n        /* \"@openzeppelin/contracts/token/ERC721/ERC721.sol\":9378:9382  from */\n      dup4\n        /* \"@openzeppelin/contracts/token/ERC721/ERC721.sol\":9368:9383  _balances[from] */\n      0xffffffffffffffffffffffffffffffffffffffff\n      and\n      0xffffffffffffffffffffffffffffffffffffffff\n      and\n      dup2\n      mstore\n      0x20\n      add\n      swap1\n      dup2\n      mstore\n      0x20\n      add\n      0x00\n      keccak256\n      0x00\n        /* \"@openzeppelin/contracts/token/ERC721/ERC721.sol\":9368:9388  _balances[from] -= 1 */\n      dup3\n      dup3\n      sload\n      sub\n      swap3\n      pop\n      pop\n      dup2\n      swap1\n      sstore\n      pop\n        /* \"@openzeppelin/contracts/token/ERC721/ERC721.sol\":9157:9413  if (from != address(0)) {... */\n    tag_212:\n        /* \"@openzeppelin/contracts/token/ERC721/ERC721.sol\":9441:9442  0 */\n      0x00\n        /* \"@openzeppelin/contracts/token/ERC721/ERC721.sol\":9427:9443  to != address(0) */\n      0xffffffffffffffffffffffffffffffffffffffff\n      and\n        /* \"@openzeppelin/contracts/token/ERC721/ERC721.sol\":9427:9429  to */\n      dup6\n        /* \"@openzeppelin/contracts/token/ERC721/ERC721.sol\":9427:9443  to != address(0) */\n      0xffffffffffffffffffffffffffffffffffffffff\n      and\n      eq\n        /* \"@openzeppelin/contracts/token/ERC721/ERC721.sol\":9423:9530  if (to != address(0)) {... */\n      tag_214\n      jumpi\n        /* \"@openzeppelin/contracts/token/ERC721/ERC721.sol\":9504:9505  1 */\n      0x01\n        /* \"@openzeppelin/contracts/token/ERC721/ERC721.sol\":9487:9496  _balances */\n      0x03\n        /* \"@openzeppelin/contracts/token/ERC721/ERC721.sol\":9487:9500  _balances[to] */\n      0x00\n        /* \"@openzeppelin/contracts/token/ERC721/ERC721.sol\":9497:9499  to */\n      dup8\n        /* \"@openzeppelin/contracts/token/ERC721/ERC721.sol\":9487:9500  _balances[to] */\n      0xffffffffffffffffffffffffffffffffffffffff\n      and\n      0xffffffffffffffffffffffffffffffffffffffff\n      and\n      dup2\n      mstore\n      0x20\n      add\n      swap1\n      dup2\n      mstore\n      0x20\n      add\n      0x00\n      keccak256\n      0x00\n        /* \"@openzeppelin/contracts/token/ERC721/ERC721.sol\":9487:9505  _balances[to] += 1 */\n      dup3\n      dup3\n      sload\n      add\n      swap3\n      pop\n      pop\n      dup2\n      swap1\n      sstore\n      pop\n        /* \"@openzeppelin/contracts/token/ERC721/ERC721.sol\":9423:9530  if (to != address(0)) {... */\n    tag_214:\n        /* \"@openzeppelin/contracts/token/ERC721/ERC721.sol\":9559:9561  to */\n      dup5\n        /* \"@openzeppelin/contracts/token/ERC721/ERC721.sol\":9540:9547  _owners */\n      0x02\n        /* \"@openzeppelin/contracts/token/ERC721/ERC721.sol\":9540:9556  _owners[tokenId] */\n      0x00\n        /* \"@openzeppelin/contracts/token/ERC721/ERC721.sol\":9548:9555  tokenId */\n      dup7\n        /* \"@openzeppelin/contracts/token/ERC721/ERC721.sol\":9540:9556  _owners[tokenId] */\n      dup2\n      mstore\n      0x20\n      add\n      swap1\n      dup2\n      mstore\n      0x20\n      add\n      0x00\n      keccak256\n      0x00\n        /* \"@openzeppelin/contracts/token/ERC721/ERC721.sol\":9540:9561  _owners[tokenId] = to */\n      0x0100\n      exp\n      dup2\n      sload\n      dup2\n      0xffffffffffffffffffffffffffffffffffffffff\n      mul\n      not\n      and\n      swap1\n      dup4\n      0xffffffffffffffffffffffffffffffffffffffff\n      and\n      mul\n      or\n      swap1\n      sstore\n      pop\n        /* \"@openzeppelin/contracts/token/ERC721/ERC721.sol\":9596:9603  tokenId */\n      dup4\n        /* \"@openzeppelin/contracts/token/ERC721/ERC721.sol\":9592:9594  to */\n      dup6\n        /* \"@openzeppelin/contracts/token/ERC721/ERC721.sol\":9577:9604  Transfer(from, to, tokenId) */\n      0xffffffffffffffffffffffffffffffffffffffff\n      and\n        /* \"@openzeppelin/contracts/token/ERC721/ERC721.sol\":9586:9590  from */\n      dup3\n        /* \"@openzeppelin/contracts/token/ERC721/ERC721.sol\":9577:9604  Transfer(from, to, tokenId) */\n      0xffffffffffffffffffffffffffffffffffffffff\n      and\n      0xddf252ad1be2c89b69c2b068fc378daa952ba7f163c4a11628f55a4df523b3ef\n      mload(0x40)\n      mload(0x40)\n      dup1\n      swap2\n      sub\n      swap1\n      log4\n        /* \"@openzeppelin/contracts/token/ERC721/ERC721.sol\":9622:9626  from */\n      dup1\n        /* \"@openzeppelin/contracts/token/ERC721/ERC721.sol\":9615:9626  return from */\n      swap2\n      pop\n      pop\n        /* \"@openzeppelin/contracts/token/ERC721/ERC721.sol\":8838:9633  function _update(address to, uint256 tokenId, address auth) internal virtual returns (address) {... */\n      swap4\n      swap3\n      pop\n      pop\n      pop\n      jump\t// out\n        /* \"@openzeppelin/contracts/access/Ownable.sol\":1796:1958  function _checkOwner() internal view virtual {... */\n    tag_144:\n        /* \"@openzeppelin/contracts/access/Ownable.sol\":1866:1878  _msgSender() */\n      tag_216\n        /* \"@openzeppelin/contracts/access/Ownable.sol\":1866:1876  _msgSender */\n      tag_119\n        /* \"@openzeppelin/contracts/access/Ownable.sol\":1866:1878  _msgSender() */\n      jump\t// in\n    tag_216:\n        /* \"@openzeppelin/contracts/access/Ownable.sol\":1855:1878  owner() != _msgSender() */\n      0xffffffffffffffffffffffffffffffffffffffff\n      and\n        /* \"@openzeppelin/contracts/access/Ownable.sol\":1855:1862  owner() */\n      tag_217\n        /* \"@openzeppelin/contracts/access/Ownable.sol\":1855:1860  owner */\n      tag_74\n        /* \"@openzeppelin/contracts/access/Ownable.sol\":1855:1862  owner() */\n      jump\t// in\n    tag_217:\n        /* \"@openzeppelin/contracts/access/Ownable.sol\":1855:1878  owner() != _msgSender() */\n      0xffffffffffffffffffffffffffffffffffffffff\n      and\n      eq\n        /* \"@openzeppelin/contracts/access/Ownable.sol\":1851:1952  if (owner() != _msgSender()) {... */\n      tag_218\n      jumpi\n        /* \"@openzeppelin/contracts/access/Ownable.sol\":1928:1940  _msgSender() */\n      tag_219\n        /* \"@openzeppelin/contracts/access/Ownable.sol\":1928:1938  _msgSender */\n      tag_119\n        /* \"@openzeppelin/contracts/access/Ownable.sol\":1928:1940  _msgSender() */\n      jump\t// in\n    tag_219:\n        /* \"@openzeppelin/contracts/access/Ownable.sol\":1901:1941  OwnableUnauthorizedAccount(_msgSender()) */\n      mload(0x40)\n      0x118cdaa700000000000000000000000000000000000000000000000000000000\n      dup2\n      mstore\n      0x04\n      add\n      tag_220\n      swap2\n      swap1\n      tag_39\n      jump\t// in\n    tag_220:\n      mload(0x40)\n      dup1\n      swap2\n      sub\n      swap1\n      revert\n        /* \"@openzeppelin/contracts/access/Ownable.sol\":1851:1952  if (owner() != _msgSender()) {... */\n    tag_218:\n        /* \"@openzeppelin/contracts/access/Ownable.sol\":1796:1958  function _checkOwner() internal view virtual {... */\n      jump\t// out\n        /* \"@openzeppelin/contracts/token/ERC721/ERC721.sol\":9955:10282  function _mint(address to, uint256 tokenId) internal {... */\n    tag_151:\n        /* \"@openzeppelin/contracts/token/ERC721/ERC721.sol\":10036:10037  0 */\n      0x00\n        /* \"@openzeppelin/contracts/token/ERC721/ERC721.sol\":10022:10038  to == address(0) */\n      0xffffffffffffffffffffffffffffffffffffffff\n      and\n        /* \"@openzeppelin/contracts/token/ERC721/ERC721.sol\":10022:10024  to */\n      dup3\n        /* \"@openzeppelin/contracts/token/ERC721/ERC721.sol\":10022:10038  to == address(0) */\n      0xffffffffffffffffffffffffffffffffffffffff\n      and\n      sub\n        /* \"@openzeppelin/contracts/token/ERC721/ERC721.sol\":10018:10105  if (to == address(0)) {... */\n      tag_222\n      jumpi\n        /* \"@openzeppelin/contracts/token/ERC721/ERC721.sol\":10091:10092  0 */\n      0x00\n        /* \"@openzeppelin/contracts/token/ERC721/ERC721.sol\":10061:10094  ERC721InvalidReceiver(address(0)) */\n      mload(0x40)\n      0x64a0ae9200000000000000000000000000000000000000000000000000000000\n      dup2\n      mstore\n      0x04\n      add\n      tag_223\n      swap2\n      swap1\n      tag_39\n      jump\t// in\n    tag_223:\n      mload(0x40)\n      dup1\n      swap2\n      sub\n      swap1\n      revert\n        /* \"@openzeppelin/contracts/token/ERC721/ERC721.sol\":10018:10105  if (to == address(0)) {... */\n    tag_222:\n        /* \"@openzeppelin/contracts/token/ERC721/ERC721.sol\":10114:10135  address previousOwner */\n      0x00\n        /* \"@openzeppelin/contracts/token/ERC721/ERC721.sol\":10138:10170  _update(to, tokenId, address(0)) */\n      tag_224\n        /* \"@openzeppelin/contracts/token/ERC721/ERC721.sol\":10146:10148  to */\n      dup4\n        /* \"@openzeppelin/contracts/token/ERC721/ERC721.sol\":10150:10157  tokenId */\n      dup4\n        /* \"@openzeppelin/contracts/token/ERC721/ERC721.sol\":10167:10168  0 */\n      0x00\n        /* \"@openzeppelin/contracts/token/ERC721/ERC721.sol\":10138:10145  _update */\n      tag_136\n        /* \"@openzeppelin/contracts/token/ERC721/ERC721.sol\":10138:10170  _update(to, tokenId, address(0)) */\n      jump\t// in\n    tag_224:\n        /* \"@openzeppelin/contracts/token/ERC721/ERC721.sol\":10114:10170  address previousOwner = _update(to, tokenId, address(0)) */\n      swap1\n      pop\n        /* \"@openzeppelin/contracts/token/ERC721/ERC721.sol\":10209:10210  0 */\n      0x00\n        /* \"@openzeppelin/contracts/token/ERC721/ERC721.sol\":10184:10211  previousOwner != address(0) */\n      0xffffffffffffffffffffffffffffffffffffffff\n      and\n        /* \"@openzeppelin/contracts/token/ERC721/ERC721.sol\":10184:10197  previousOwner */\n      dup2\n        /* \"@openzeppelin/contracts/token/ERC721/ERC721.sol\":10184:10211  previousOwner != address(0) */\n      0xffffffffffffffffffffffffffffffffffffffff\n      and\n      eq\n        /* \"@openzeppelin/contracts/token/ERC721/ERC721.sol\":10180:10276  if (previousOwner != address(0)) {... */\n      tag_225\n      jumpi\n        /* \"@openzeppelin/contracts/token/ERC721/ERC721.sol\":10262:10263  0 */\n      0x00\n        /* \"@openzeppelin/contracts/token/ERC721/ERC721.sol\":10234:10265  ERC721InvalidSender(address(0)) */\n      mload(0x40)\n      0x73c6ac6e00000000000000000000000000000000000000000000000000000000\n      dup2\n      mstore\n      0x04\n      add\n      tag_226\n      swap2\n      swap1\n      tag_39\n      jump\t// in\n    tag_226:\n      mload(0x40)\n      dup1\n      swap2\n      sub\n      swap1\n      revert\n        /* \"@openzeppelin/contracts/token/ERC721/ERC721.sol\":10180:10276  if (previousOwner != address(0)) {... */\n    tag_225:\n        /* \"@openzeppelin/contracts/token/ERC721/ERC721.sol\":10008:10282  {... */\n      pop\n        /* \"@openzeppelin/contracts/token/ERC721/ERC721.sol\":9955:10282  function _mint(address to, uint256 tokenId) internal {... */\n      pop\n      pop\n      jump\t// out\n        /* \"@openzeppelin/contracts/access/Ownable.sol\":2912:3099  function _transferOwnership(address newOwner) internal virtual {... */\n    tag_163:\n        /* \"@openzeppelin/contracts/access/Ownable.sol\":2985:3001  address oldOwner */\n      0x00\n        /* \"@openzeppelin/contracts/access/Ownable.sol\":3004:3010  _owner */\n      0x06\n      0x00\n      swap1\n      sload\n      swap1\n      0x0100\n      exp\n      swap1\n      div\n      0xffffffffffffffffffffffffffffffffffffffff\n      and\n        /* \"@openzeppelin/contracts/access/Ownable.sol\":2985:3010  address oldOwner = _owner */\n      swap1\n      pop\n        /* \"@openzeppelin/contracts/access/Ownable.sol\":3029:3037  newOwner */\n      dup2\n        /* \"@openzeppelin/contracts/access/Ownable.sol\":3020:3026  _owner */\n      0x06\n      0x00\n        /* \"@openzeppelin/contracts/access/Ownable.sol\":3020:3037  _owner = newOwner */\n      0x0100\n      exp\n      dup2\n      sload\n      dup2\n      0xffffffffffffffffffffffffffffffffffffffff\n      mul\n      not\n      and\n      swap1\n      dup4\n      0xffffffffffffffffffffffffffffffffffffffff\n      and\n      mul\n      or\n      swap1\n      sstore\n      pop\n        /* \"@openzeppelin/contracts/access/Ownable.sol\":3083:3091  newOwner */\n      dup2\n        /* \"@openzeppelin/contracts/access/Ownable.sol\":3052:3092  OwnershipTransferred(oldOwner, newOwner) */\n      0xffffffffffffffffffffffffffffffffffffffff\n      and\n        /* \"@openzeppelin/contracts/access/Ownable.sol\":3073:3081  oldOwner */\n      dup2\n        /* \"@openzeppelin/contracts/access/Ownable.sol\":3052:3092  OwnershipTransferred(oldOwner, newOwner) */\n      0xffffffffffffffffffffffffffffffffffffffff\n      and\n      0x8be0079c531659141344cd1fd0a4f28419497f9722a3daafe3b4186f6b6457e0\n      mload(0x40)\n      mload(0x40)\n      dup1\n      swap2\n      sub\n      swap1\n      log3\n        /* \"@openzeppelin/contracts/access/Ownable.sol\":2975:3099  {... */\n      pop\n        /* \"@openzeppelin/contracts/access/Ownable.sol\":2912:3099  function _transferOwnership(address newOwner) internal virtual {... */\n      pop\n      jump\t// out\n        /* \"@openzeppelin/contracts/token/ERC721/ERC721.sol\":15591:15903  function _setApprovalForAll(address owner, address operator, bool approved) internal virtual {... */\n    tag_174:\n        /* \"@openzeppelin/contracts/token/ERC721/ERC721.sol\":15718:15719  0 */\n      0x00\n        /* \"@openzeppelin/contracts/token/ERC721/ERC721.sol\":15698:15720  operator == address(0) */\n      0xffffffffffffffffffffffffffffffffffffffff\n      and\n        /* \"@openzeppelin/contracts/token/ERC721/ERC721.sol\":15698:15706  operator */\n      dup3\n        /* \"@openzeppelin/contracts/token/ERC721/ERC721.sol\":15698:15720  operator == address(0) */\n      0xffffffffffffffffffffffffffffffffffffffff\n      and\n      sub\n        /* \"@openzeppelin/contracts/token/ERC721/ERC721.sol\":15694:15785  if (operator == address(0)) {... */\n      tag_229\n      jumpi\n        /* \"@openzeppelin/contracts/token/ERC721/ERC721.sol\":15765:15773  operator */\n      dup2\n        /* \"@openzeppelin/contracts/token/ERC721/ERC721.sol\":15743:15774  ERC721InvalidOperator(operator) */\n      mload(0x40)\n      0x5b08ba1800000000000000000000000000000000000000000000000000000000\n      dup2\n      mstore\n      0x04\n      add\n      tag_230\n      swap2\n      swap1\n      tag_39\n      jump\t// in\n    tag_230:\n      mload(0x40)\n      dup1\n      swap2\n      sub\n      swap1\n      revert\n        /* \"@openzeppelin/contracts/token/ERC721/ERC721.sol\":15694:15785  if (operator == address(0)) {... */\n    tag_229:\n        /* \"@openzeppelin/contracts/token/ERC721/ERC721.sol\":15832:15840  approved */\n      dup1\n        /* \"@openzeppelin/contracts/token/ERC721/ERC721.sol\":15794:15812  _operatorApprovals */\n      0x05\n        /* \"@openzeppelin/contracts/token/ERC721/ERC721.sol\":15794:15819  _operatorApprovals[owner] */\n      0x00\n        /* \"@openzeppelin/contracts/token/ERC721/ERC721.sol\":15813:15818  owner */\n      dup6\n        /* \"@openzeppelin/contracts/token/ERC721/ERC721.sol\":15794:15819  _operatorApprovals[owner] */\n      0xffffffffffffffffffffffffffffffffffffffff\n      and\n      0xffffffffffffffffffffffffffffffffffffffff\n      and\n      dup2\n      mstore\n      0x20\n      add\n      swap1\n      dup2\n      mstore\n      0x20\n      add\n      0x00\n      keccak256\n        /* \"@openzeppelin/contracts/token/ERC721/ERC721.sol\":15794:15829  _operatorApprovals[owner][operator] */\n      0x00\n        /* \"@openzeppelin/contracts/token/ERC721/ERC721.sol\":15820:15828  operator */\n      dup5\n        /* \"@openzeppelin/contracts/token/ERC721/ERC721.sol\":15794:15829  _operatorApprovals[owner][operator] */\n      0xffffffffffffffffffffffffffffffffffffffff\n      and\n      0xffffffffffffffffffffffffffffffffffffffff\n      and\n      dup2\n      mstore\n      0x20\n      add\n      swap1\n      dup2\n      mstore\n      0x20\n      add\n      0x00\n      keccak256\n      0x00\n        /* \"@openzeppelin/contracts/token/ERC721/ERC721.sol\":15794:15840  _operatorApprovals[owner][operator] = approved */\n      0x0100\n      exp\n      dup2\n      sload\n      dup2\n      0xff\n      mul\n      not\n      and\n      swap1\n      dup4\n      iszero\n      iszero\n      mul\n      or\n      swap1\n      sstore\n      pop\n        /* \"@openzeppelin/contracts/token/ERC721/ERC721.sol\":15877:15885  operator */\n      dup2\n        /* \"@openzeppelin/contracts/token/ERC721/ERC721.sol\":15855:15896  ApprovalForAll(owner, operator, approved) */\n      0xffffffffffffffffffffffffffffffffffffffff\n      and\n        /* \"@openzeppelin/contracts/token/ERC721/ERC721.sol\":15870:15875  owner */\n      dup4\n        /* \"@openzeppelin/contracts/token/ERC721/ERC721.sol\":15855:15896  ApprovalForAll(owner, operator, approved) */\n      0xffffffffffffffffffffffffffffffffffffffff\n      and\n      0x17307eab39ab6107e8899845ad3d59bd9653f200f220920489ca2b5937696c31\n        /* \"@openzeppelin/contracts/token/ERC721/ERC721.sol\":15887:15895  approved */\n      dup4\n        /* \"@openzeppelin/contracts/token/ERC721/ERC721.sol\":15855:15896  ApprovalForAll(owner, operator, approved) */\n      mload(0x40)\n      tag_231\n      swap2\n      swap1\n      tag_29\n      jump\t// in\n    tag_231:\n      mload(0x40)\n      dup1\n      swap2\n      sub\n      swap1\n      log3\n        /* \"@openzeppelin/contracts/token/ERC721/ERC721.sol\":15591:15903  function _setApprovalForAll(address owner, address operator, bool approved) internal virtual {... */\n      pop\n      pop\n      pop\n      jump\t// out\n        /* \"@openzeppelin/contracts/token/ERC721/ERC721.sol\":16918:17700  function _checkOnERC721Received(address from, address to, uint256 tokenId, bytes memory data) private {... */\n    tag_178:\n        /* \"@openzeppelin/contracts/token/ERC721/ERC721.sol\":17051:17052  0 */\n      0x00\n        /* \"@openzeppelin/contracts/token/ERC721/ERC721.sol\":17034:17036  to */\n      dup4\n        /* \"@openzeppelin/contracts/token/ERC721/ERC721.sol\":17034:17048  to.code.length */\n      0xffffffffffffffffffffffffffffffffffffffff\n      and\n      extcodesize\n        /* \"@openzeppelin/contracts/token/ERC721/ERC721.sol\":17034:17052  to.code.length > 0 */\n      gt\n        /* \"@openzeppelin/contracts/token/ERC721/ERC721.sol\":17030:17694  if (to.code.length > 0) {... */\n      iszero\n      tag_233\n      jumpi\n        /* \"@openzeppelin/contracts/token/ERC721/ERC721.sol\":17088:17090  to */\n      dup3\n        /* \"@openzeppelin/contracts/token/ERC721/ERC721.sol\":17072:17108  IERC721Receiver(to).onERC721Received */\n      0xffffffffffffffffffffffffffffffffffffffff\n      and\n      0x150b7a02\n        /* \"@openzeppelin/contracts/token/ERC721/ERC721.sol\":17109:17121  _msgSender() */\n      tag_234\n        /* \"@openzeppelin/contracts/token/ERC721/ERC721.sol\":17109:17119  _msgSender */\n      tag_119\n        /* \"@openzeppelin/contracts/token/ERC721/ERC721.sol\":17109:17121  _msgSender() */\n      jump\t// in\n    tag_234:\n        /* \"@openzeppelin/contracts/token/ERC721/ERC721.sol\":17123:17127  from */\n      dup7\n        /* \"@openzeppelin/contracts/token/ERC721/ERC721.sol\":17129:17136  tokenId */\n      dup6\n        /* \"@openzeppelin/contracts/token/ERC721/ERC721.sol\":17138:17142  data */\n      dup6\n        /* \"@openzeppelin/contracts/token/ERC721/ERC721.sol\":17072:17143  IERC721Receiver(to).onERC721Received(_msgSender(), from, tokenId, data) */\n      mload(0x40)\n      dup6\n      0xffffffff\n      and\n      0xe0\n      shl\n      dup2\n      mstore\n      0x04\n      add\n      tag_235\n      swap5\n      swap4\n      swap3\n      swap2\n      swap1\n      tag_236\n      jump\t// in\n    tag_235:\n      0x20\n      mload(0x40)\n      dup1\n      dup4\n      sub\n      dup2\n      0x00\n      dup8\n      gas\n      call\n      swap3\n      pop\n      pop\n      pop\n      dup1\n      iszero\n      tag_237\n      jumpi\n      pop\n      mload(0x40)\n      returndatasize\n      not(0x1f)\n      0x1f\n      dup3\n      add\n      and\n      dup3\n      add\n      dup1\n      0x40\n      mstore\n      pop\n      dup2\n      add\n      swap1\n      tag_238\n      swap2\n      swap1\n      tag_239\n      jump\t// in\n    tag_238:\n      0x01\n    tag_237:\n        /* \"@openzeppelin/contracts/token/ERC721/ERC721.sol\":17068:17684  try IERC721Receiver(to).onERC721Received(_msgSender(), from, tokenId, data) returns (bytes4 retval) {... */\n      tag_240\n      jumpi\n      returndatasize\n      dup1\n      0x00\n      dup2\n      eq\n      tag_245\n      jumpi\n      mload(0x40)\n      swap2\n      pop\n      and(add(returndatasize, 0x3f), not(0x1f))\n      dup3\n      add\n      0x40\n      mstore\n      returndatasize\n      dup3\n      mstore\n      returndatasize\n      0x00\n      0x20\n      dup5\n      add\n      returndatacopy\n      jump(tag_244)\n    tag_245:\n      0x60\n      swap2\n      pop\n    tag_244:\n      pop\n        /* \"@openzeppelin/contracts/token/ERC721/ERC721.sol\":17398:17399  0 */\n      0x00\n        /* \"@openzeppelin/contracts/token/ERC721/ERC721.sol\":17381:17387  reason */\n      dup2\n        /* \"@openzeppelin/contracts/token/ERC721/ERC721.sol\":17381:17394  reason.length */\n      mload\n        /* \"@openzeppelin/contracts/token/ERC721/ERC721.sol\":17381:17399  reason.length == 0 */\n      sub\n        /* \"@openzeppelin/contracts/token/ERC721/ERC721.sol\":17377:17670  if (reason.length == 0) {... */\n      tag_246\n      jumpi\n        /* \"@openzeppelin/contracts/token/ERC721/ERC721.sol\":17452:17454  to */\n      dup4\n        /* \"@openzeppelin/contracts/token/ERC721/ERC721.sol\":17430:17455  ERC721InvalidReceiver(to) */\n      mload(0x40)\n      0x64a0ae9200000000000000000000000000000000000000000000000000000000\n      dup2\n      mstore\n      0x04\n      add\n      tag_247\n      swap2\n      swap1\n      tag_39\n      jump\t// in\n    tag_247:\n      mload(0x40)\n      dup1\n      swap2\n      sub\n      swap1\n      revert\n        /* \"@openzeppelin/contracts/token/ERC721/ERC721.sol\":17377:17670  if (reason.length == 0) {... */\n    tag_246:\n        /* \"@openzeppelin/contracts/token/ERC721/ERC721.sol\":17622:17628  reason */\n      dup1\n        /* \"@openzeppelin/contracts/token/ERC721/ERC721.sol\":17616:17629  mload(reason) */\n      mload\n        /* \"@openzeppelin/contracts/token/ERC721/ERC721.sol\":17607:17613  reason */\n      dup2\n        /* \"@openzeppelin/contracts/token/ERC721/ERC721.sol\":17603:17605  32 */\n      0x20\n        /* \"@openzeppelin/contracts/token/ERC721/ERC721.sol\":17599:17614  add(32, reason) */\n      add\n        /* \"@openzeppelin/contracts/token/ERC721/ERC721.sol\":17592:17630  revert(add(32, reason), mload(reason)) */\n      revert\n        /* \"@openzeppelin/contracts/token/ERC721/ERC721.sol\":17068:17684  try IERC721Receiver(to).onERC721Received(_msgSender(), from, tokenId, data) returns (bytes4 retval) {... */\n    tag_240:\n        /* \"@openzeppelin/contracts/token/ERC721/ERC721.sol\":17200:17241  IERC721Receiver.onERC721Received.selector */\n      shl(0xe0, 0x150b7a02)\n        /* \"@openzeppelin/contracts/token/ERC721/ERC721.sol\":17190:17241  retval != IERC721Receiver.onERC721Received.selector */\n      not(0xffffffffffffffffffffffffffffffffffffffffffffffffffffffff)\n      and\n        /* \"@openzeppelin/contracts/token/ERC721/ERC721.sol\":17190:17196  retval */\n      dup2\n        /* \"@openzeppelin/contracts/token/ERC721/ERC721.sol\":17190:17241  retval != IERC721Receiver.onERC721Received.selector */\n      not(0xffffffffffffffffffffffffffffffffffffffffffffffffffffffff)\n      and\n      eq\n        /* \"@openzeppelin/contracts/token/ERC721/ERC721.sol\":17186:17316  if (retval != IERC721Receiver.onERC721Received.selector) {... */\n      tag_250\n      jumpi\n        /* \"@openzeppelin/contracts/token/ERC721/ERC721.sol\":17294:17296  to */\n      dup4\n        /* \"@openzeppelin/contracts/token/ERC721/ERC721.sol\":17272:17297  ERC721InvalidReceiver(to) */\n      mload(0x40)\n      0x64a0ae9200000000000000000000000000000000000000000000000000000000\n      dup2\n      mstore\n      0x04\n      add\n      tag_251\n      swap2\n      swap1\n      tag_39\n      jump\t// in\n    tag_251:\n      mload(0x40)\n      dup1\n      swap2\n      sub\n      swap1\n      revert\n        /* \"@openzeppelin/contracts/token/ERC721/ERC721.sol\":17186:17316  if (retval != IERC721Receiver.onERC721Received.selector) {... */\n    tag_250:\n        /* \"@openzeppelin/contracts/token/ERC721/ERC721.sol\":17144:17330  returns (bytes4 retval) {... */\n      pop\n        /* \"@openzeppelin/contracts/token/ERC721/ERC721.sol\":17030:17694  if (to.code.length > 0) {... */\n    tag_233:\n        /* \"@openzeppelin/contracts/token/ERC721/ERC721.sol\":16918:17700  function _checkOnERC721Received(address from, address to, uint256 tokenId, bytes memory data) private {... */\n      pop\n      pop\n      pop\n      pop\n      jump\t// out\n        /* \"@openzeppelin/contracts/token/ERC721/ERC721.sol\":3174:3266  function _baseURI() internal view virtual returns (string memory) {... */\n    tag_182:\n        /* \"@openzeppelin/contracts/token/ERC721/ERC721.sol\":3225:3238  string memory */\n      0x60\n        /* \"@openzeppelin/contracts/token/ERC721/ERC721.sol\":3250:3259  return \"\" */\n      mload(0x40)\n      dup1\n      0x20\n      add\n      0x40\n      mstore\n      dup1\n      0x00\n      dup2\n      mstore\n      pop\n      swap1\n      pop\n        /* \"@openzeppelin/contracts/token/ERC721/ERC721.sol\":3174:3266  function _baseURI() internal view virtual returns (string memory) {... */\n      swap1\n      jump\t// out\n        /* \"@openzeppelin/contracts/utils/Strings.sol\":637:1335  function toString(uint256 value) internal pure returns (string memory) {... */\n    tag_186:\n        /* \"@openzeppelin/contracts/utils/Strings.sol\":693:706  string memory */\n      0x60\n        /* \"@openzeppelin/contracts/utils/Strings.sol\":742:756  uint256 length */\n      0x00\n        /* \"@openzeppelin/contracts/utils/Strings.sol\":779:780  1 */\n      0x01\n        /* \"@openzeppelin/contracts/utils/Strings.sol\":759:776  Math.log10(value) */\n      tag_254\n        /* \"@openzeppelin/contracts/utils/Strings.sol\":770:775  value */\n      dup5\n        /* \"@openzeppelin/contracts/utils/Strings.sol\":759:769  Math.log10 */\n      tag_255\n        /* \"@openzeppelin/contracts/utils/Strings.sol\":759:776  Math.log10(value) */\n      jump\t// in\n    tag_254:\n        /* \"@openzeppelin/contracts/utils/Strings.sol\":759:780  Math.log10(value) + 1 */\n      add\n        /* \"@openzeppelin/contracts/utils/Strings.sol\":742:780  uint256 length = Math.log10(value) + 1 */\n      swap1\n      pop\n        /* \"@openzeppelin/contracts/utils/Strings.sol\":794:814  string memory buffer */\n      0x00\n        /* \"@openzeppelin/contracts/utils/Strings.sol\":828:834  length */\n      dup2\n        /* \"@openzeppelin/contracts/utils/Strings.sol\":817:835  new string(length) */\n      0xffffffffffffffff\n      dup2\n      gt\n      iszero\n      tag_256\n      jumpi\n      tag_257\n      tag_258\n      jump\t// in\n    tag_257:\n    tag_256:\n      mload(0x40)\n      swap1\n      dup1\n      dup3\n      mstore\n      dup1\n      0x1f\n      add\n      not(0x1f)\n      and\n      0x20\n      add\n      dup3\n      add\n      0x40\n      mstore\n      dup1\n      iszero\n      tag_259\n      jumpi\n      dup2\n      0x20\n      add\n      0x01\n      dup3\n      mul\n      dup1\n      calldatasize\n      dup4\n      calldatacopy\n      dup1\n      dup3\n      add\n      swap2\n      pop\n      pop\n      swap1\n      pop\n    tag_259:\n      pop\n        /* \"@openzeppelin/contracts/utils/Strings.sol\":794:835  string memory buffer = new string(length) */\n      swap1\n      pop\n        /* \"@openzeppelin/contracts/utils/Strings.sol\":849:860  uint256 ptr */\n      0x00\n        /* \"@openzeppelin/contracts/utils/Strings.sol\":975:981  length */\n      dup3\n        /* \"@openzeppelin/contracts/utils/Strings.sol\":971:973  32 */\n      0x20\n        /* \"@openzeppelin/contracts/utils/Strings.sol\":967:982  add(32, length) */\n      add\n        /* \"@openzeppelin/contracts/utils/Strings.sol\":959:965  buffer */\n      dup3\n        /* \"@openzeppelin/contracts/utils/Strings.sol\":955:983  add(buffer, add(32, length)) */\n      add\n        /* \"@openzeppelin/contracts/utils/Strings.sol\":948:983  ptr := add(buffer, add(32, length)) */\n      swap1\n      pop\n        /* \"@openzeppelin/contracts/utils/Strings.sol\":1010:1292  while (true) {... */\n    tag_260:\n        /* \"@openzeppelin/contracts/utils/Strings.sol\":1017:1021  true */\n      0x01\n        /* \"@openzeppelin/contracts/utils/Strings.sol\":1010:1292  while (true) {... */\n      iszero\n      tag_261\n      jumpi\n        /* \"@openzeppelin/contracts/utils/Strings.sol\":1041:1046  ptr-- */\n      dup1\n      dup1\n      0x01\n      swap1\n      sub\n      swap2\n      pop\n      pop\n        /* \"@openzeppelin/contracts/utils/Strings.sol\":1180:1190  HEX_DIGITS */\n      0x3031323334353637383961626364656600000000000000000000000000000000\n        /* \"@openzeppelin/contracts/utils/Strings.sol\":1175:1177  10 */\n      0x0a\n        /* \"@openzeppelin/contracts/utils/Strings.sol\":1168:1173  value */\n      dup7\n        /* \"@openzeppelin/contracts/utils/Strings.sol\":1164:1178  mod(value, 10) */\n      mod\n        /* \"@openzeppelin/contracts/utils/Strings.sol\":1159:1191  byte(mod(value, 10), HEX_DIGITS) */\n      byte\n        /* \"@openzeppelin/contracts/utils/Strings.sol\":1154:1157  ptr */\n      dup2\n        /* \"@openzeppelin/contracts/utils/Strings.sol\":1146:1192  mstore8(ptr, byte(mod(value, 10), HEX_DIGITS)) */\n      mstore8\n        /* \"@openzeppelin/contracts/utils/Strings.sol\":1236:1238  10 */\n      0x0a\n        /* \"@openzeppelin/contracts/utils/Strings.sol\":1227:1238  value /= 10 */\n      dup6\n      dup2\n      tag_262\n      jumpi\n      tag_263\n      tag_264\n      jump\t// in\n    tag_263:\n    tag_262:\n      div\n      swap5\n      pop\n        /* \"@openzeppelin/contracts/utils/Strings.sol\":1269:1270  0 */\n      0x00\n        /* \"@openzeppelin/contracts/utils/Strings.sol\":1260:1265  value */\n      dup6\n        /* \"@openzeppelin/contracts/utils/Strings.sol\":1260:1270  value == 0 */\n      sub\n        /* \"@openzeppelin/contracts/utils/Strings.sol\":1010:1292  while (true) {... */\n      tag_260\n        /* \"@openzeppelin/contracts/utils/Strings.sol\":1256:1277  if (value == 0) break */\n      jumpi\n        /* \"@openzeppelin/contracts/utils/Strings.sol\":1010:1292  while (true) {... */\n    tag_261:\n        /* \"@openzeppelin/contracts/utils/Strings.sol\":1312:1318  buffer */\n      dup2\n        /* \"@openzeppelin/contracts/utils/Strings.sol\":1305:1318  return buffer */\n      swap4\n      pop\n      pop\n      pop\n      pop\n        /* \"@openzeppelin/contracts/utils/Strings.sol\":637:1335  function toString(uint256 value) internal pure returns (string memory) {... */\n      swap2\n      swap1\n      pop\n      jump\t// out\n        /* \"@openzeppelin/contracts/token/ERC721/ERC721.sol\":5707:5822  function _ownerOf(uint256 tokenId) internal view virtual returns (address) {... */\n    tag_199:\n        /* \"@openzeppelin/contracts/token/ERC721/ERC721.sol\":5773:5780  address */\n      0x00\n        /* \"@openzeppelin/contracts/token/ERC721/ERC721.sol\":5799:5806  _owners */\n      0x02\n        /* \"@openzeppelin/contracts/token/ERC721/ERC721.sol\":5799:5815  _owners[tokenId] */\n      0x00\n        /* \"@openzeppelin/contracts/token/ERC721/ERC721.sol\":5807:5814  tokenId */\n      dup4\n        /* \"@openzeppelin/contracts/token/ERC721/ERC721.sol\":5799:5815  _owners[tokenId] */\n      dup2\n      mstore\n      0x20\n      add\n      swap1\n      dup2\n      mstore\n      0x20\n      add\n      0x00\n      keccak256\n      0x00\n      swap1\n      sload\n      swap1\n      0x0100\n      exp\n      swap1\n      div\n      0xffffffffffffffffffffffffffffffffffffffff\n      and\n        /* \"@openzeppelin/contracts/token/ERC721/ERC721.sol\":5792:5815  return _owners[tokenId] */\n      swap1\n      pop\n        /* \"@openzeppelin/contracts/token/ERC721/ERC721.sol\":5707:5822  function _ownerOf(uint256 tokenId) internal view virtual returns (address) {... */\n      swap2\n      swap1\n      pop\n      jump\t// out\n        /* \"@openzeppelin/contracts/token/ERC721/ERC721.sol\":14720:15382  function _approve(address to, uint256 tokenId, address auth, bool emitEvent) internal virtual {... */\n    tag_206:\n        /* \"@openzeppelin/contracts/token/ERC721/ERC721.sol\":14880:14889  emitEvent */\n      dup1\n        /* \"@openzeppelin/contracts/token/ERC721/ERC721.sol\":14880:14911  emitEvent || auth != address(0) */\n      dup1\n      tag_268\n      jumpi\n      pop\n        /* \"@openzeppelin/contracts/token/ERC721/ERC721.sol\":14909:14910  0 */\n      0x00\n        /* \"@openzeppelin/contracts/token/ERC721/ERC721.sol\":14893:14911  auth != address(0) */\n      0xffffffffffffffffffffffffffffffffffffffff\n      and\n        /* \"@openzeppelin/contracts/token/ERC721/ERC721.sol\":14893:14897  auth */\n      dup3\n        /* \"@openzeppelin/contracts/token/ERC721/ERC721.sol\":14893:14911  auth != address(0) */\n      0xffffffffffffffffffffffffffffffffffffffff\n      and\n      eq\n      iszero\n        /* \"@openzeppelin/contracts/token/ERC721/ERC721.sol\":14880:14911  emitEvent || auth != address(0) */\n    tag_268:\n        /* \"@openzeppelin/contracts/token/ERC721/ERC721.sol\":14876:15336  if (emitEvent || auth != address(0)) {... */\n      iszero\n      tag_269\n      jumpi\n        /* \"@openzeppelin/contracts/token/ERC721/ERC721.sol\":14927:14940  address owner */\n      0x00\n        /* \"@openzeppelin/contracts/token/ERC721/ERC721.sol\":14943:14965  _requireOwned(tokenId) */\n      tag_270\n        /* \"@openzeppelin/contracts/token/ERC721/ERC721.sol\":14957:14964  tokenId */\n      dup5\n        /* \"@openzeppelin/contracts/token/ERC721/ERC721.sol\":14943:14956  _requireOwned */\n      tag_113\n        /* \"@openzeppelin/contracts/token/ERC721/ERC721.sol\":14943:14965  _requireOwned(tokenId) */\n      jump\t// in\n    tag_270:\n        /* \"@openzeppelin/contracts/token/ERC721/ERC721.sol\":14927:14965  address owner = _requireOwned(tokenId) */\n      swap1\n      pop\n        /* \"@openzeppelin/contracts/token/ERC721/ERC721.sol\":15109:15110  0 */\n      0x00\n        /* \"@openzeppelin/contracts/token/ERC721/ERC721.sol\":15093:15111  auth != address(0) */\n      0xffffffffffffffffffffffffffffffffffffffff\n      and\n        /* \"@openzeppelin/contracts/token/ERC721/ERC721.sol\":15093:15097  auth */\n      dup4\n        /* \"@openzeppelin/contracts/token/ERC721/ERC721.sol\":15093:15111  auth != address(0) */\n      0xffffffffffffffffffffffffffffffffffffffff\n      and\n      eq\n      iszero\n        /* \"@openzeppelin/contracts/token/ERC721/ERC721.sol\":15093:15128  auth != address(0) && owner != auth */\n      dup1\n      iszero\n      tag_271\n      jumpi\n      pop\n        /* \"@openzeppelin/contracts/token/ERC721/ERC721.sol\":15124:15128  auth */\n      dup3\n        /* \"@openzeppelin/contracts/token/ERC721/ERC721.sol\":15115:15128  owner != auth */\n      0xffffffffffffffffffffffffffffffffffffffff\n      and\n        /* \"@openzeppelin/contracts/token/ERC721/ERC721.sol\":15115:15120  owner */\n      dup2\n        /* \"@openzeppelin/contracts/token/ERC721/ERC721.sol\":15115:15128  owner != auth */\n      0xffffffffffffffffffffffffffffffffffffffff\n      and\n      eq\n      iszero\n        /* \"@openzeppelin/contracts/token/ERC721/ERC721.sol\":15093:15128  auth != address(0) && owner != auth */\n    tag_271:\n        /* \"@openzeppelin/contracts/token/ERC721/ERC721.sol\":15093:15162  auth != address(0) && owner != auth && !isApprovedForAll(owner, auth) */\n      dup1\n      iszero\n      tag_272\n      jumpi\n      pop\n        /* \"@openzeppelin/contracts/token/ERC721/ERC721.sol\":15133:15162  isApprovedForAll(owner, auth) */\n      tag_273\n        /* \"@openzeppelin/contracts/token/ERC721/ERC721.sol\":15150:15155  owner */\n      dup2\n        /* \"@openzeppelin/contracts/token/ERC721/ERC721.sol\":15157:15161  auth */\n      dup5\n        /* \"@openzeppelin/contracts/token/ERC721/ERC721.sol\":15133:15149  isApprovedForAll */\n      tag_94\n        /* \"@openzeppelin/contracts/token/ERC721/ERC721.sol\":15133:15162  isApprovedForAll(owner, auth) */\n      jump\t// in\n    tag_273:\n        /* \"@openzeppelin/contracts/token/ERC721/ERC721.sol\":15132:15162  !isApprovedForAll(owner, auth) */\n      iszero\n        /* \"@openzeppelin/contracts/token/ERC721/ERC721.sol\":15093:15162  auth != address(0) && owner != auth && !isApprovedForAll(owner, auth) */\n    tag_272:\n        /* \"@openzeppelin/contracts/token/ERC721/ERC721.sol\":15089:15231  if (auth != address(0) && owner != auth && !isApprovedForAll(owner, auth)) {... */\n      iszero\n      tag_274\n      jumpi\n        /* \"@openzeppelin/contracts/token/ERC721/ERC721.sol\":15211:15215  auth */\n      dup3\n        /* \"@openzeppelin/contracts/token/ERC721/ERC721.sol\":15189:15216  ERC721InvalidApprover(auth) */\n      mload(0x40)\n      0xa9fbf51f00000000000000000000000000000000000000000000000000000000\n      dup2\n      mstore\n      0x04\n      add\n      tag_275\n      swap2\n      swap1\n      tag_39\n      jump\t// in\n    tag_275:\n      mload(0x40)\n      dup1\n      swap2\n      sub\n      swap1\n      revert\n        /* \"@openzeppelin/contracts/token/ERC721/ERC721.sol\":15089:15231  if (auth != address(0) && owner != auth && !isApprovedForAll(owner, auth)) {... */\n    tag_274:\n        /* \"@openzeppelin/contracts/token/ERC721/ERC721.sol\":15249:15258  emitEvent */\n      dup2\n        /* \"@openzeppelin/contracts/token/ERC721/ERC721.sol\":15245:15326  if (emitEvent) {... */\n      iszero\n      tag_276\n      jumpi\n        /* \"@openzeppelin/contracts/token/ERC721/ERC721.sol\":15303:15310  tokenId */\n      dup4\n        /* \"@openzeppelin/contracts/token/ERC721/ERC721.sol\":15299:15301  to */\n      dup6\n        /* \"@openzeppelin/contracts/token/ERC721/ERC721.sol\":15283:15311  Approval(owner, to, tokenId) */\n      0xffffffffffffffffffffffffffffffffffffffff\n      and\n        /* \"@openzeppelin/contracts/token/ERC721/ERC721.sol\":15292:15297  owner */\n      dup3\n        /* \"@openzeppelin/contracts/token/ERC721/ERC721.sol\":15283:15311  Approval(owner, to, tokenId) */\n      0xffffffffffffffffffffffffffffffffffffffff\n      and\n      0x8c5be1e5ebec7d5bd14f71427d1e84f3dd0314c0f7b2291e5b200ac8c7c3b925\n      mload(0x40)\n      mload(0x40)\n      dup1\n      swap2\n      sub\n      swap1\n      log4\n        /* \"@openzeppelin/contracts/token/ERC721/ERC721.sol\":15245:15326  if (emitEvent) {... */\n    tag_276:\n        /* \"@openzeppelin/contracts/token/ERC721/ERC721.sol\":14913:15336  {... */\n      pop\n        /* \"@openzeppelin/contracts/token/ERC721/ERC721.sol\":14876:15336  if (emitEvent || auth != address(0)) {... */\n    tag_269:\n        /* \"@openzeppelin/contracts/token/ERC721/ERC721.sol\":15373:15375  to */\n      dup4\n        /* \"@openzeppelin/contracts/token/ERC721/ERC721.sol\":15346:15361  _tokenApprovals */\n      0x04\n        /* \"@openzeppelin/contracts/token/ERC721/ERC721.sol\":15346:15370  _tokenApprovals[tokenId] */\n      0x00\n        /* \"@openzeppelin/contracts/token/ERC721/ERC721.sol\":15362:15369  tokenId */\n      dup6\n        /* \"@openzeppelin/contracts/token/ERC721/ERC721.sol\":15346:15370  _tokenApprovals[tokenId] */\n      dup2\n      mstore\n      0x20\n      add\n      swap1\n      dup2\n      mstore\n      0x20\n      add\n      0x00\n      keccak256\n      0x00\n        /* \"@openzeppelin/contracts/token/ERC721/ERC721.sol\":15346:15375  _tokenApprovals[tokenId] = to */\n      0x0100\n      exp\n      dup2\n      sload\n      dup2\n      0xffffffffffffffffffffffffffffffffffffffff\n      mul\n      not\n      and\n      swap1\n      dup4\n      0xffffffffffffffffffffffffffffffffffffffff\n      and\n      mul\n      or\n      swap1\n      sstore\n      pop\n        /* \"@openzeppelin/contracts/token/ERC721/ERC721.sol\":14720:15382  function _approve(address to, uint256 tokenId, address auth, bool emitEvent) internal virtual {... */\n      pop\n      pop\n      pop\n      pop\n      jump\t// out\n        /* \"@openzeppelin/contracts/token/ERC721/ERC721.sol\":7082:7450  function _checkAuthorized(address owner, address spender, uint256 tokenId) internal view virtual {... */\n    tag_211:\n        /* \"@openzeppelin/contracts/token/ERC721/ERC721.sol\":7194:7232  _isAuthorized(owner, spender, tokenId) */\n      tag_278\n        /* \"@openzeppelin/contracts/token/ERC721/ERC721.sol\":7208:7213  owner */\n      dup4\n        /* \"@openzeppelin/contracts/token/ERC721/ERC721.sol\":7215:7222  spender */\n      dup4\n        /* \"@openzeppelin/contracts/token/ERC721/ERC721.sol\":7224:7231  tokenId */\n      dup4\n        /* \"@openzeppelin/contracts/token/ERC721/ERC721.sol\":7194:7207  _isAuthorized */\n      tag_279\n        /* \"@openzeppelin/contracts/token/ERC721/ERC721.sol\":7194:7232  _isAuthorized(owner, spender, tokenId) */\n      jump\t// in\n    tag_278:\n        /* \"@openzeppelin/contracts/token/ERC721/ERC721.sol\":7189:7444  if (!_isAuthorized(owner, spender, tokenId)) {... */\n      tag_280\n      jumpi\n        /* \"@openzeppelin/contracts/token/ERC721/ERC721.sol\":7269:7270  0 */\n      0x00\n        /* \"@openzeppelin/contracts/token/ERC721/ERC721.sol\":7252:7271  owner == address(0) */\n      0xffffffffffffffffffffffffffffffffffffffff\n      and\n        /* \"@openzeppelin/contracts/token/ERC721/ERC721.sol\":7252:7257  owner */\n      dup4\n        /* \"@openzeppelin/contracts/token/ERC721/ERC721.sol\":7252:7271  owner == address(0) */\n      0xffffffffffffffffffffffffffffffffffffffff\n      and\n      sub\n        /* \"@openzeppelin/contracts/token/ERC721/ERC721.sol\":7248:7434  if (owner == address(0)) {... */\n      tag_281\n      jumpi\n        /* \"@openzeppelin/contracts/token/ERC721/ERC721.sol\":7321:7328  tokenId */\n      dup1\n        /* \"@openzeppelin/contracts/token/ERC721/ERC721.sol\":7298:7329  ERC721NonexistentToken(tokenId) */\n      mload(0x40)\n      0x7e27328900000000000000000000000000000000000000000000000000000000\n      dup2\n      mstore\n      0x04\n      add\n      tag_282\n      swap2\n      swap1\n      tag_61\n      jump\t// in\n    tag_282:\n      mload(0x40)\n      dup1\n      swap2\n      sub\n      swap1\n      revert\n        /* \"@openzeppelin/contracts/token/ERC721/ERC721.sol\":7248:7434  if (owner == address(0)) {... */\n    tag_281:\n        /* \"@openzeppelin/contracts/token/ERC721/ERC721.sol\":7402:7409  spender */\n      dup2\n        /* \"@openzeppelin/contracts/token/ERC721/ERC721.sol\":7411:7418  tokenId */\n      dup2\n        /* \"@openzeppelin/contracts/token/ERC721/ERC721.sol\":7375:7419  ERC721InsufficientApproval(spender, tokenId) */\n      mload(0x40)\n      0x177e802f00000000000000000000000000000000000000000000000000000000\n      dup2\n      mstore\n      0x04\n      add\n      tag_284\n      swap3\n      swap2\n      swap1\n      tag_285\n      jump\t// in\n    tag_284:\n      mload(0x40)\n      dup1\n      swap2\n      sub\n      swap1\n      revert\n        /* \"@openzeppelin/contracts/token/ERC721/ERC721.sol\":7189:7444  if (!_isAuthorized(owner, spender, tokenId)) {... */\n    tag_280:\n        /* \"@openzeppelin/contracts/token/ERC721/ERC721.sol\":7082:7450  function _checkAuthorized(address owner, address spender, uint256 tokenId) internal view virtual {... */\n      pop\n      pop\n      pop\n      jump\t// out\n        /* \"@openzeppelin/contracts/utils/math/Math.sol\":12214:13130  function log10(uint256 value) internal pure returns (uint256) {... */\n    tag_255:\n        /* \"@openzeppelin/contracts/utils/math/Math.sol\":12267:12274  uint256 */\n      0x00\n        /* \"@openzeppelin/contracts/utils/math/Math.sol\":12286:12300  uint256 result */\n      dup1\n        /* \"@openzeppelin/contracts/utils/math/Math.sol\":12303:12304  0 */\n      0x00\n        /* \"@openzeppelin/contracts/utils/math/Math.sol\":12286:12304  uint256 result = 0 */\n      swap1\n      pop\n        /* \"@openzeppelin/contracts/utils/math/Math.sol\":12351:12359  10 ** 64 */\n      0x184f03e93ff9f4daa797ed6e38ed64bf6a1f010000000000000000\n        /* \"@openzeppelin/contracts/utils/math/Math.sol\":12342:12347  value */\n      dup4\n        /* \"@openzeppelin/contracts/utils/math/Math.sol\":12342:12359  value >= 10 ** 64 */\n      lt\n        /* \"@openzeppelin/contracts/utils/math/Math.sol\":12338:12441  if (value >= 10 ** 64) {... */\n      tag_287\n      jumpi\n        /* \"@openzeppelin/contracts/utils/math/Math.sol\":12388:12396  10 ** 64 */\n      0x184f03e93ff9f4daa797ed6e38ed64bf6a1f010000000000000000\n        /* \"@openzeppelin/contracts/utils/math/Math.sol\":12379:12396  value /= 10 ** 64 */\n      dup4\n      dup2\n      tag_288\n      jumpi\n      tag_289\n      tag_264\n      jump\t// in\n    tag_289:\n    tag_288:\n      div\n      swap3\n      pop\n        /* \"@openzeppelin/contracts/utils/math/Math.sol\":12424:12426  64 */\n      0x40\n        /* \"@openzeppelin/contracts/utils/math/Math.sol\":12414:12426  result += 64 */\n      dup2\n      add\n      swap1\n      pop\n        /* \"@openzeppelin/contracts/utils/math/Math.sol\":12338:12441  if (value >= 10 ** 64) {... */\n    tag_287:\n        /* \"@openzeppelin/contracts/utils/math/Math.sol\":12467:12475  10 ** 32 */\n      0x04ee2d6d415b85acef8100000000\n        /* \"@openzeppelin/contracts/utils/math/Math.sol\":12458:12463  value */\n      dup4\n        /* \"@openzeppelin/contracts/utils/math/Math.sol\":12458:12475  value >= 10 ** 32 */\n      lt\n        /* \"@openzeppelin/contracts/utils/math/Math.sol\":12454:12557  if (value >= 10 ** 32) {... */\n      tag_290\n      jumpi\n        /* \"@openzeppelin/contracts/utils/math/Math.sol\":12504:12512  10 ** 32 */\n      0x04ee2d6d415b85acef8100000000\n        /* \"@openzeppelin/contracts/utils/math/Math.sol\":12495:12512  value /= 10 ** 32 */\n      dup4\n      dup2\n      tag_291\n      jumpi\n      tag_292\n      tag_264\n      jump\t// in\n    tag_292:\n    tag_291:\n      div\n      swap3\n      pop\n        /* \"@openzeppelin/contracts/utils/math/Math.sol\":12540:12542  32 */\n      0x20\n        /* \"@openzeppelin/contracts/utils/math/Math.sol\":12530:12542  result += 32 */\n      dup2\n      add\n      swap1\n      pop\n        /* \"@openzeppelin/contracts/utils/math/Math.sol\":12454:12557  if (value >= 10 ** 32) {... */\n    tag_290:\n        /* \"@openzeppelin/contracts/utils/math/Math.sol\":12583:12591  10 ** 16 */\n      0x2386f26fc10000\n        /* \"@openzeppelin/contracts/utils/math/Math.sol\":12574:12579  value */\n      dup4\n        /* \"@openzeppelin/contracts/utils/math/Math.sol\":12574:12591  value >= 10 ** 16 */\n      lt\n        /* \"@openzeppelin/contracts/utils/math/Math.sol\":12570:12673  if (value >= 10 ** 16) {... */\n      tag_293\n      jumpi\n        /* \"@openzeppelin/contracts/utils/math/Math.sol\":12620:12628  10 ** 16 */\n      0x2386f26fc10000\n        /* \"@openzeppelin/contracts/utils/math/Math.sol\":12611:12628  value /= 10 ** 16 */\n      dup4\n      dup2\n      tag_294\n      jumpi\n      tag_295\n      tag_264\n      jump\t// in\n    tag_295:\n    tag_294:\n      div\n      swap3\n      pop\n        /* \"@openzeppelin/contracts/utils/math/Math.sol\":12656:12658  16 */\n      0x10\n        /* \"@openzeppelin/contracts/utils/math/Math.sol\":12646:12658  result += 16 */\n      dup2\n      add\n      swap1\n      pop\n        /* \"@openzeppelin/contracts/utils/math/Math.sol\":12570:12673  if (value >= 10 ** 16) {... */\n    tag_293:\n        /* \"@openzeppelin/contracts/utils/math/Math.sol\":12699:12706  10 ** 8 */\n      0x05f5e100\n        /* \"@openzeppelin/contracts/utils/math/Math.sol\":12690:12695  value */\n      dup4\n        /* \"@openzeppelin/contracts/utils/math/Math.sol\":12690:12706  value >= 10 ** 8 */\n      lt\n        /* \"@openzeppelin/contracts/utils/math/Math.sol\":12686:12786  if (value >= 10 ** 8) {... */\n      tag_296\n      jumpi\n        /* \"@openzeppelin/contracts/utils/math/Math.sol\":12735:12742  10 ** 8 */\n      0x05f5e100\n        /* \"@openzeppelin/contracts/utils/math/Math.sol\":12726:12742  value /= 10 ** 8 */\n      dup4\n      dup2\n      tag_297\n      jumpi\n      tag_298\n      tag_264\n      jump\t// in\n    tag_298:\n    tag_297:\n      div\n      swap3\n      pop\n        /* \"@openzeppelin/contracts/utils/math/Math.sol\":12770:12771  8 */\n      0x08\n        /* \"@openzeppelin/contracts/utils/math/Math.sol\":12760:12771  result += 8 */\n      dup2\n      add\n      swap1\n      pop\n        /* \"@openzeppelin/contracts/utils/math/Math.sol\":12686:12786  if (value >= 10 ** 8) {... */\n    tag_296:\n        /* \"@openzeppelin/contracts/utils/math/Math.sol\":12812:12819  10 ** 4 */\n      0x2710\n        /* \"@openzeppelin/contracts/utils/math/Math.sol\":12803:12808  value */\n      dup4\n        /* \"@openzeppelin/contracts/utils/math/Math.sol\":12803:12819  value >= 10 ** 4 */\n      lt\n        /* \"@openzeppelin/contracts/utils/math/Math.sol\":12799:12899  if (value >= 10 ** 4) {... */\n      tag_299\n      jumpi\n        /* \"@openzeppelin/contracts/utils/math/Math.sol\":12848:12855  10 ** 4 */\n      0x2710\n        /* \"@openzeppelin/contracts/utils/math/Math.sol\":12839:12855  value /= 10 ** 4 */\n      dup4\n      dup2\n      tag_300\n      jumpi\n      tag_301\n      tag_264\n      jump\t// in\n    tag_301:\n    tag_300:\n      div\n      swap3\n      pop\n        /* \"@openzeppelin/contracts/utils/math/Math.sol\":12883:12884  4 */\n      0x04\n        /* \"@openzeppelin/contracts/utils/math/Math.sol\":12873:12884  result += 4 */\n      dup2\n      add\n      swap1\n      pop\n        /* \"@openzeppelin/contracts/utils/math/Math.sol\":12799:12899  if (value >= 10 ** 4) {... */\n    tag_299:\n        /* \"@openzeppelin/contracts/utils/math/Math.sol\":12925:12932  10 ** 2 */\n      0x64\n        /* \"@openzeppelin/contracts/utils/math/Math.sol\":12916:12921  value */\n      dup4\n        /* \"@openzeppelin/contracts/utils/math/Math.sol\":12916:12932  value >= 10 ** 2 */\n      lt\n        /* \"@openzeppelin/contracts/utils/math/Math.sol\":12912:13012  if (value >= 10 ** 2) {... */\n      tag_302\n      jumpi\n        /* \"@openzeppelin/contracts/utils/math/Math.sol\":12961:12968  10 ** 2 */\n      0x64\n        /* \"@openzeppelin/contracts/utils/math/Math.sol\":12952:12968  value /= 10 ** 2 */\n      dup4\n      dup2\n      tag_303\n      jumpi\n      tag_304\n      tag_264\n      jump\t// in\n    tag_304:\n    tag_303:\n      div\n      swap3\n      pop\n        /* \"@openzeppelin/contracts/utils/math/Math.sol\":12996:12997  2 */\n      0x02\n        /* \"@openzeppelin/contracts/utils/math/Math.sol\":12986:12997  result += 2 */\n      dup2\n      add\n      swap1\n      pop\n        /* \"@openzeppelin/contracts/utils/math/Math.sol\":12912:13012  if (value >= 10 ** 2) {... */\n    tag_302:\n        /* \"@openzeppelin/contracts/utils/math/Math.sol\":13038:13045  10 ** 1 */\n      0x0a\n        /* \"@openzeppelin/contracts/utils/math/Math.sol\":13029:13034  value */\n      dup4\n        /* \"@openzeppelin/contracts/utils/math/Math.sol\":13029:13045  value >= 10 ** 1 */\n      lt\n        /* \"@openzeppelin/contracts/utils/math/Math.sol\":13025:13091  if (value >= 10 ** 1) {... */\n      tag_305\n      jumpi\n        /* \"@openzeppelin/contracts/utils/math/Math.sol\":13075:13076  1 */\n      0x01\n        /* \"@openzeppelin/contracts/utils/math/Math.sol\":13065:13076  result += 1 */\n      dup2\n      add\n      swap1\n      pop\n        /* \"@openzeppelin/contracts/utils/math/Math.sol\":13025:13091  if (value >= 10 ** 1) {... */\n    tag_305:\n        /* \"@openzeppelin/contracts/utils/math/Math.sol\":13117:13123  result */\n      dup1\n        /* \"@openzeppelin/contracts/utils/math/Math.sol\":13110:13123  return result */\n      swap2\n      pop\n      pop\n        /* \"@openzeppelin/contracts/utils/math/Math.sol\":12214:13130  function log10(uint256 value) internal pure returns (uint256) {... */\n      swap2\n      swap1\n      pop\n      jump\t// out\n        /* \"@openzeppelin/contracts/token/ERC721/ERC721.sol\":6376:6648  function _isAuthorized(address owner, address spender, uint256 tokenId) internal view virtual returns (bool) {... */\n    tag_279:\n        /* \"@openzeppelin/contracts/token/ERC721/ERC721.sol\":6479:6483  bool */\n      0x00\n        /* \"@openzeppelin/contracts/token/ERC721/ERC721.sol\":6533:6534  0 */\n      dup1\n        /* \"@openzeppelin/contracts/token/ERC721/ERC721.sol\":6514:6535  spender != address(0) */\n      0xffffffffffffffffffffffffffffffffffffffff\n      and\n        /* \"@openzeppelin/contracts/token/ERC721/ERC721.sol\":6514:6521  spender */\n      dup4\n        /* \"@openzeppelin/contracts/token/ERC721/ERC721.sol\":6514:6535  spender != address(0) */\n      0xffffffffffffffffffffffffffffffffffffffff\n      and\n      eq\n      iszero\n        /* \"@openzeppelin/contracts/token/ERC721/ERC721.sol\":6514:6641  spender != address(0) &&... */\n      dup1\n      iszero\n      tag_307\n      jumpi\n      pop\n        /* \"@openzeppelin/contracts/token/ERC721/ERC721.sol\":6561:6568  spender */\n      dup3\n        /* \"@openzeppelin/contracts/token/ERC721/ERC721.sol\":6552:6568  owner == spender */\n      0xffffffffffffffffffffffffffffffffffffffff\n      and\n        /* \"@openzeppelin/contracts/token/ERC721/ERC721.sol\":6552:6557  owner */\n      dup5\n        /* \"@openzeppelin/contracts/token/ERC721/ERC721.sol\":6552:6568  owner == spender */\n      0xffffffffffffffffffffffffffffffffffffffff\n      and\n      eq\n        /* \"@openzeppelin/contracts/token/ERC721/ERC721.sol\":6552:6604  owner == spender || isApprovedForAll(owner, spender) */\n      dup1\n      tag_308\n      jumpi\n      pop\n        /* \"@openzeppelin/contracts/token/ERC721/ERC721.sol\":6572:6604  isApprovedForAll(owner, spender) */\n      tag_309\n        /* \"@openzeppelin/contracts/token/ERC721/ERC721.sol\":6589:6594  owner */\n      dup5\n        /* \"@openzeppelin/contracts/token/ERC721/ERC721.sol\":6596:6603  spender */\n      dup5\n        /* \"@openzeppelin/contracts/token/ERC721/ERC721.sol\":6572:6588  isApprovedForAll */\n      tag_94\n        /* \"@openzeppelin/contracts/token/ERC721/ERC721.sol\":6572:6604  isApprovedForAll(owner, spender) */\n      jump\t// in\n    tag_309:\n        /* \"@openzeppelin/contracts/token/ERC721/ERC721.sol\":6552:6604  owner == spender || isApprovedForAll(owner, spender) */\n    tag_308:\n        /* \"@openzeppelin/contracts/token/ERC721/ERC721.sol\":6552:6640  owner == spender || isApprovedForAll(owner, spender) || _getApproved(tokenId) == spender */\n      dup1\n      tag_310\n      jumpi\n      pop\n        /* \"@openzeppelin/contracts/token/ERC721/ERC721.sol\":6633:6640  spender */\n      dup3\n        /* \"@openzeppelin/contracts/token/ERC721/ERC721.sol\":6608:6640  _getApproved(tokenId) == spender */\n      0xffffffffffffffffffffffffffffffffffffffff\n      and\n        /* \"@openzeppelin/contracts/token/ERC721/ERC721.sol\":6608:6629  _getApproved(tokenId) */\n      tag_311\n        /* \"@openzeppelin/contracts/token/ERC721/ERC721.sol\":6621:6628  tokenId */\n      dup4\n        /* \"@openzeppelin/contracts/token/ERC721/ERC721.sol\":6608:6620  _getApproved */\n      tag_115\n        /* \"@openzeppelin/contracts/token/ERC721/ERC721.sol\":6608:6629  _getApproved(tokenId) */\n      jump\t// in\n    tag_311:\n        /* \"@openzeppelin/contracts/token/ERC721/ERC721.sol\":6608:6640  _getApproved(tokenId) == spender */\n      0xffffffffffffffffffffffffffffffffffffffff\n      and\n      eq\n        /* \"@openzeppelin/contracts/token/ERC721/ERC721.sol\":6552:6640  owner == spender || isApprovedForAll(owner, spender) || _getApproved(tokenId) == spender */\n    tag_310:\n        /* \"@openzeppelin/contracts/token/ERC721/ERC721.sol\":6514:6641  spender != address(0) &&... */\n    tag_307:\n        /* \"@openzeppelin/contracts/token/ERC721/ERC721.sol\":6495:6641  return... */\n      swap1\n      pop\n        /* \"@openzeppelin/contracts/token/ERC721/ERC721.sol\":6376:6648  function _isAuthorized(address owner, address spender, uint256 tokenId) internal view virtual returns (bool) {... */\n      swap4\n      swap3\n      pop\n      pop\n      pop\n      jump\t// out\n        /* \"#utility.yul\":7:82   */\n    tag_312:\n        /* \"#utility.yul\":40:46   */\n      0x00\n        /* \"#utility.yul\":73:75   */\n      0x40\n        /* \"#utility.yul\":67:76   */\n      mload\n        /* \"#utility.yul\":57:76   */\n      swap1\n      pop\n        /* \"#utility.yul\":7:82   */\n      swap1\n      jump\t// out\n        /* \"#utility.yul\":88:205   */\n    tag_313:\n        /* \"#utility.yul\":197:198   */\n      0x00\n        /* \"#utility.yul\":194:195   */\n      dup1\n        /* \"#utility.yul\":187:199   */\n      revert\n        /* \"#utility.yul\":211:328   */\n    tag_314:\n        /* \"#utility.yul\":320:321   */\n      0x00\n        /* \"#utility.yul\":317:318   */\n      dup1\n        /* \"#utility.yul\":310:322   */\n      revert\n        /* \"#utility.yul\":334:483   */\n    tag_315:\n        /* \"#utility.yul\":370:377   */\n      0x00\n        /* \"#utility.yul\":410:476   */\n      0xffffffff00000000000000000000000000000000000000000000000000000000\n        /* \"#utility.yul\":403:408   */\n      dup3\n        /* \"#utility.yul\":399:477   */\n      and\n        /* \"#utility.yul\":388:477   */\n      swap1\n      pop\n        /* \"#utility.yul\":334:483   */\n      swap2\n      swap1\n      pop\n      jump\t// out\n        /* \"#utility.yul\":489:609   */\n    tag_316:\n        /* \"#utility.yul\":561:584   */\n      tag_378\n        /* \"#utility.yul\":578:583   */\n      dup2\n        /* \"#utility.yul\":561:584   */\n      tag_315\n      jump\t// in\n    tag_378:\n        /* \"#utility.yul\":554:559   */\n      dup2\n        /* \"#utility.yul\":551:585   */\n      eq\n        /* \"#utility.yul\":541:603   */\n      tag_379\n      jumpi\n        /* \"#utility.yul\":599:600   */\n      0x00\n        /* \"#utility.yul\":596:597   */\n      dup1\n        /* \"#utility.yul\":589:601   */\n      revert\n        /* \"#utility.yul\":541:603   */\n    tag_379:\n        /* \"#utility.yul\":489:609   */\n      pop\n      jump\t// out\n        /* \"#utility.yul\":615:752   */\n    tag_317:\n        /* \"#utility.yul\":660:665   */\n      0x00\n        /* \"#utility.yul\":698:704   */\n      dup2\n        /* \"#utility.yul\":685:705   */\n      calldataload\n        /* \"#utility.yul\":676:705   */\n      swap1\n      pop\n        /* \"#utility.yul\":714:746   */\n      tag_381\n        /* \"#utility.yul\":740:745   */\n      dup2\n        /* \"#utility.yul\":714:746   */\n      tag_316\n      jump\t// in\n    tag_381:\n        /* \"#utility.yul\":615:752   */\n      swap3\n      swap2\n      pop\n      pop\n      jump\t// out\n        /* \"#utility.yul\":758:1085   */\n    tag_26:\n        /* \"#utility.yul\":816:822   */\n      0x00\n        /* \"#utility.yul\":865:867   */\n      0x20\n        /* \"#utility.yul\":853:862   */\n      dup3\n        /* \"#utility.yul\":844:851   */\n      dup5\n        /* \"#utility.yul\":840:863   */\n      sub\n        /* \"#utility.yul\":836:868   */\n      slt\n        /* \"#utility.yul\":833:952   */\n      iszero\n      tag_383\n      jumpi\n        /* \"#utility.yul\":871:950   */\n      tag_384\n      tag_313\n      jump\t// in\n    tag_384:\n        /* \"#utility.yul\":833:952   */\n    tag_383:\n        /* \"#utility.yul\":991:992   */\n      0x00\n        /* \"#utility.yul\":1016:1068   */\n      tag_385\n        /* \"#utility.yul\":1060:1067   */\n      dup5\n        /* \"#utility.yul\":1051:1057   */\n      dup3\n        /* \"#utility.yul\":1040:1049   */\n      dup6\n        /* \"#utility.yul\":1036:1058   */\n      add\n        /* \"#utility.yul\":1016:1068   */\n      tag_317\n      jump\t// in\n    tag_385:\n        /* \"#utility.yul\":1006:1068   */\n      swap2\n      pop\n        /* \"#utility.yul\":962:1078   */\n      pop\n        /* \"#utility.yul\":758:1085   */\n      swap3\n      swap2\n      pop\n      pop\n      jump\t// out\n        /* \"#utility.yul\":1091:1181   */\n    tag_318:\n        /* \"#utility.yul\":1125:1132   */\n      0x00\n        /* \"#utility.yul\":1168:1173   */\n      dup2\n        /* \"#utility.yul\":1161:1174   */\n      iszero\n        /* \"#utility.yul\":1154:1175   */\n      iszero\n        /* \"#utility.yul\":1143:1175   */\n      swap1\n      pop\n        /* \"#utility.yul\":1091:1181   */\n      swap2\n      swap1\n      pop\n      jump\t// out\n        /* \"#utility.yul\":1187:1296   */\n    tag_319:\n        /* \"#utility.yul\":1268:1289   */\n      tag_388\n        /* \"#utility.yul\":1283:1288   */\n      dup2\n        /* \"#utility.yul\":1268:1289   */\n      tag_318\n      jump\t// in\n    tag_388:\n        /* \"#utility.yul\":1263:1266   */\n      dup3\n        /* \"#utility.yul\":1256:1290   */\n      mstore\n        /* \"#utility.yul\":1187:1296   */\n      pop\n      pop\n      jump\t// out\n        /* \"#utility.yul\":1302:1512   */\n    tag_29:\n        /* \"#utility.yul\":1389:1393   */\n      0x00\n        /* \"#utility.yul\":1427:1429   */\n      0x20\n        /* \"#utility.yul\":1416:1425   */\n      dup3\n        /* \"#utility.yul\":1412:1430   */\n      add\n        /* \"#utility.yul\":1404:1430   */\n      swap1\n      pop\n        /* \"#utility.yul\":1440:1505   */\n      tag_390\n        /* \"#utility.yul\":1502:1503   */\n      0x00\n        /* \"#utility.yul\":1491:1500   */\n      dup4\n        /* \"#utility.yul\":1487:1504   */\n      add\n        /* \"#utility.yul\":1478:1484   */\n      dup5\n        /* \"#utility.yul\":1440:1505   */\n      tag_319\n      jump\t// in\n    tag_390:\n        /* \"#utility.yul\":1302:1512   */\n      swap3\n      swap2\n      pop\n      pop\n      jump\t// out\n        /* \"#utility.yul\":1518:1617   */\n    tag_320:\n        /* \"#utility.yul\":1570:1576   */\n      0x00\n        /* \"#utility.yul\":1604:1609   */\n      dup2\n        /* \"#utility.yul\":1598:1610   */\n      mload\n        /* \"#utility.yul\":1588:1610   */\n      swap1\n      pop\n        /* \"#utility.yul\":1518:1617   */\n      swap2\n      swap1\n      pop\n      jump\t// out\n        /* \"#utility.yul\":1623:1792   */\n    tag_321:\n        /* \"#utility.yul\":1707:1718   */\n      0x00\n        /* \"#utility.yul\":1741:1747   */\n      dup3\n        /* \"#utility.yul\":1736:1739   */\n      dup3\n        /* \"#utility.yul\":1729:1748   */\n      mstore\n        /* \"#utility.yul\":1781:1785   */\n      0x20\n        /* \"#utility.yul\":1776:1779   */\n      dup3\n        /* \"#utility.yul\":1772:1786   */\n      add\n        /* \"#utility.yul\":1757:1786   */\n      swap1\n      pop\n        /* \"#utility.yul\":1623:1792   */\n      swap3\n      swap2\n      pop\n      pop\n      jump\t// out\n        /* \"#utility.yul\":1798:1937   */\n    tag_322:\n        /* \"#utility.yul\":1887:1893   */\n      dup3\n        /* \"#utility.yul\":1882:1885   */\n      dup2\n        /* \"#utility.yul\":1877:1880   */\n      dup4\n        /* \"#utility.yul\":1871:1894   */\n      mcopy\n        /* \"#utility.yul\":1928:1929   */\n      0x00\n        /* \"#utility.yul\":1919:1925   */\n      dup4\n        /* \"#utility.yul\":1914:1917   */\n      dup4\n        /* \"#utility.yul\":1910:1926   */\n      add\n        /* \"#utility.yul\":1903:1930   */\n      mstore\n        /* \"#utility.yul\":1798:1937   */\n      pop\n      pop\n      pop\n      jump\t// out\n        /* \"#utility.yul\":1943:2045   */\n    tag_323:\n        /* \"#utility.yul\":1984:1990   */\n      0x00\n        /* \"#utility.yul\":2035:2037   */\n      0x1f\n        /* \"#utility.yul\":2031:2038   */\n      not\n        /* \"#utility.yul\":2026:2028   */\n      0x1f\n        /* \"#utility.yul\":2019:2024   */\n      dup4\n        /* \"#utility.yul\":2015:2029   */\n      add\n        /* \"#utility.yul\":2011:2039   */\n      and\n        /* \"#utility.yul\":2001:2039   */\n      swap1\n      pop\n        /* \"#utility.yul\":1943:2045   */\n      swap2\n      swap1\n      pop\n      jump\t// out\n        /* \"#utility.yul\":2051:2428   */\n    tag_324:\n        /* \"#utility.yul\":2139:2142   */\n      0x00\n        /* \"#utility.yul\":2167:2206   */\n      tag_396\n        /* \"#utility.yul\":2200:2205   */\n      dup3\n        /* \"#utility.yul\":2167:2206   */\n      tag_320\n      jump\t// in\n    tag_396:\n        /* \"#utility.yul\":2222:2293   */\n      tag_397\n        /* \"#utility.yul\":2286:2292   */\n      dup2\n        /* \"#utility.yul\":2281:2284   */\n      dup6\n        /* \"#utility.yul\":2222:2293   */\n      tag_321\n      jump\t// in\n    tag_397:\n        /* \"#utility.yul\":2215:2293   */\n      swap4\n      pop\n        /* \"#utility.yul\":2302:2367   */\n      tag_398\n        /* \"#utility.yul\":2360:2366   */\n      dup2\n        /* \"#utility.yul\":2355:2358   */\n      dup6\n        /* \"#utility.yul\":2348:2352   */\n      0x20\n        /* \"#utility.yul\":2341:2346   */\n      dup7\n        /* \"#utility.yul\":2337:2353   */\n      add\n        /* \"#utility.yul\":2302:2367   */\n      tag_322\n      jump\t// in\n    tag_398:\n        /* \"#utility.yul\":2392:2421   */\n      tag_399\n        /* \"#utility.yul\":2414:2420   */\n      dup2\n        /* \"#utility.yul\":2392:2421   */\n      tag_323\n      jump\t// in\n    tag_399:\n        /* \"#utility.yul\":2387:2390   */\n      dup5\n        /* \"#utility.yul\":2383:2422   */\n      add\n        /* \"#utility.yul\":2376:2422   */\n      swap2\n      pop\n        /* \"#utility.yul\":2143:2428   */\n      pop\n        /* \"#utility.yul\":2051:2428   */\n      swap3\n      swap2\n      pop\n      pop\n      jump\t// out\n        /* \"#utility.yul\":2434:2747   */\n    tag_33:\n        /* \"#utility.yul\":2547:2551   */\n      0x00\n        /* \"#utility.yul\":2585:2587   */\n      0x20\n        /* \"#utility.yul\":2574:2583   */\n      dup3\n        /* \"#utility.yul\":2570:2588   */\n      add\n        /* \"#utility.yul\":2562:2588   */\n      swap1\n      pop\n        /* \"#utility.yul\":2634:2643   */\n      dup2\n        /* \"#utility.yul\":2628:2632   */\n      dup2\n        /* \"#utility.yul\":2624:2644   */\n      sub\n        /* \"#utility.yul\":2620:2621   */\n      0x00\n        /* \"#utility.yul\":2609:2618   */\n      dup4\n        /* \"#utility.yul\":2605:2622   */\n      add\n        /* \"#utility.yul\":2598:2645   */\n      mstore\n        /* \"#utility.yul\":2662:2740   */\n      tag_401\n        /* \"#utility.yul\":2735:2739   */\n      dup2\n        /* \"#utility.yul\":2726:2732   */\n      dup5\n        /* \"#utility.yul\":2662:2740   */\n      tag_324\n      jump\t// in\n    tag_401:\n        /* \"#utility.yul\":2654:2740   */\n      swap1\n      pop\n        /* \"#utility.yul\":2434:2747   */\n      swap3\n      swap2\n      pop\n      pop\n      jump\t// out\n        /* \"#utility.yul\":2753:2830   */\n    tag_325:\n        /* \"#utility.yul\":2790:2797   */\n      0x00\n        /* \"#utility.yul\":2819:2824   */\n      dup2\n        /* \"#utility.yul\":2808:2824   */\n      swap1\n      pop\n        /* \"#utility.yul\":2753:2830   */\n      swap2\n      swap1\n      pop\n      jump\t// out\n        /* \"#utility.yul\":2836:2958   */\n    tag_326:\n        /* \"#utility.yul\":2909:2933   */\n      tag_404\n        /* \"#utility.yul\":2927:2932   */\n      dup2\n        /* \"#utility.yul\":2909:2933   */\n      tag_325\n      jump\t// in\n    tag_404:\n        /* \"#utility.yul\":2902:2907   */\n      dup2\n        /* \"#utility.yul\":2899:2934   */\n      eq\n        /* \"#utility.yul\":2889:2952   */\n      tag_405\n      jumpi\n        /* \"#utility.yul\":2948:2949   */\n      0x00\n        /* \"#utility.yul\":2945:2946   */\n      dup1\n        /* \"#utility.yul\":2938:2950   */\n      revert\n        /* \"#utility.yul\":2889:2952   */\n    tag_405:\n        /* \"#utility.yul\":2836:2958   */\n      pop\n      jump\t// out\n        /* \"#utility.yul\":2964:3103   */\n    tag_327:\n        /* \"#utility.yul\":3010:3015   */\n      0x00\n        /* \"#utility.yul\":3048:3054   */\n      dup2\n        /* \"#utility.yul\":3035:3055   */\n      calldataload\n        /* \"#utility.yul\":3026:3055   */\n      swap1\n      pop\n        /* \"#utility.yul\":3064:3097   */\n      tag_407\n        /* \"#utility.yul\":3091:3096   */\n      dup2\n        /* \"#utility.yul\":3064:3097   */\n      tag_326\n      jump\t// in\n    tag_407:\n        /* \"#utility.yul\":2964:3103   */\n      swap3\n      swap2\n      pop\n      pop\n      jump\t// out\n        /* \"#utility.yul\":3109:3438   */\n    tag_36:\n        /* \"#utility.yul\":3168:3174   */\n      0x00\n        /* \"#utility.yul\":3217:3219   */\n      0x20\n        /* \"#utility.yul\":3205:3214   */\n      dup3\n        /* \"#utility.yul\":3196:3203   */\n      dup5\n        /* \"#utility.yul\":3192:3215   */\n      sub\n        /* \"#utility.yul\":3188:3220   */\n      slt\n        /* \"#utility.yul\":3185:3304   */\n      iszero\n      tag_409\n      jumpi\n        /* \"#utility.yul\":3223:3302   */\n      tag_410\n      tag_313\n      jump\t// in\n    tag_410:\n        /* \"#utility.yul\":3185:3304   */\n    tag_409:\n        /* \"#utility.yul\":3343:3344   */\n      0x00\n        /* \"#utility.yul\":3368:3421   */\n      tag_411\n        /* \"#utility.yul\":3413:3420   */\n      dup5\n        /* \"#utility.yul\":3404:3410   */\n      dup3\n        /* \"#utility.yul\":3393:3402   */\n      dup6\n        /* \"#utility.yul\":3389:3411   */\n      add\n        /* \"#utility.yul\":3368:3421   */\n      tag_327\n      jump\t// in\n    tag_411:\n        /* \"#utility.yul\":3358:3421   */\n      swap2\n      pop\n        /* \"#utility.yul\":3314:3431   */\n      pop\n        /* \"#utility.yul\":3109:3438   */\n      swap3\n      swap2\n      pop\n      pop\n      jump\t// out\n        /* \"#utility.yul\":3444:3570   */\n    tag_328:\n        /* \"#utility.yul\":3481:3488   */\n      0x00\n        /* \"#utility.yul\":3521:3563   */\n      0xffffffffffffffffffffffffffffffffffffffff\n        /* \"#utility.yul\":3514:3519   */\n      dup3\n        /* \"#utility.yul\":3510:3564   */\n      and\n        /* \"#utility.yul\":3499:3564   */\n      swap1\n      pop\n        /* \"#utility.yul\":3444:3570   */\n      swap2\n      swap1\n      pop\n      jump\t// out\n        /* \"#utility.yul\":3576:3672   */\n    tag_329:\n        /* \"#utility.yul\":3613:3620   */\n      0x00\n        /* \"#utility.yul\":3642:3666   */\n      tag_414\n        /* \"#utility.yul\":3660:3665   */\n      dup3\n        /* \"#utility.yul\":3642:3666   */\n      tag_328\n      jump\t// in\n    tag_414:\n        /* \"#utility.yul\":3631:3666   */\n      swap1\n      pop\n        /* \"#utility.yul\":3576:3672   */\n      swap2\n      swap1\n      pop\n      jump\t// out\n        /* \"#utility.yul\":3678:3796   */\n    tag_330:\n        /* \"#utility.yul\":3765:3789   */\n      tag_416\n        /* \"#utility.yul\":3783:3788   */\n      dup2\n        /* \"#utility.yul\":3765:3789   */\n      tag_329\n      jump\t// in\n    tag_416:\n        /* \"#utility.yul\":3760:3763   */\n      dup3\n        /* \"#utility.yul\":3753:3790   */\n      mstore\n        /* \"#utility.yul\":3678:3796   */\n      pop\n      pop\n      jump\t// out\n        /* \"#utility.yul\":3802:4024   */\n    tag_39:\n        /* \"#utility.yul\":3895:3899   */\n      0x00\n        /* \"#utility.yul\":3933:3935   */\n      0x20\n        /* \"#utility.yul\":3922:3931   */\n      dup3\n        /* \"#utility.yul\":3918:3936   */\n      add\n        /* \"#utility.yul\":3910:3936   */\n      swap1\n      pop\n        /* \"#utility.yul\":3946:4017   */\n      tag_418\n        /* \"#utility.yul\":4014:4015   */\n      0x00\n        /* \"#utility.yul\":4003:4012   */\n      dup4\n        /* \"#utility.yul\":3999:4016   */\n      add\n        /* \"#utility.yul\":3990:3996   */\n      dup5\n        /* \"#utility.yul\":3946:4017   */\n      tag_330\n      jump\t// in\n    tag_418:\n        /* \"#utility.yul\":3802:4024   */\n      swap3\n      swap2\n      pop\n      pop\n      jump\t// out\n        /* \"#utility.yul\":4030:4152   */\n    tag_331:\n        /* \"#utility.yul\":4103:4127   */\n      tag_420\n        /* \"#utility.yul\":4121:4126   */\n      dup2\n        /* \"#utility.yul\":4103:4127   */\n      tag_329\n      jump\t// in\n    tag_420:\n        /* \"#utility.yul\":4096:4101   */\n      dup2\n        /* \"#utility.yul\":4093:4128   */\n      eq\n        /* \"#utility.yul\":4083:4146   */\n      tag_421\n      jumpi\n        /* \"#utility.yul\":4142:4143   */\n      0x00\n        /* \"#utility.yul\":4139:4140   */\n      dup1\n        /* \"#utility.yul\":4132:4144   */\n      revert\n        /* \"#utility.yul\":4083:4146   */\n    tag_421:\n        /* \"#utility.yul\":4030:4152   */\n      pop\n      jump\t// out\n        /* \"#utility.yul\":4158:4297   */\n    tag_332:\n        /* \"#utility.yul\":4204:4209   */\n      0x00\n        /* \"#utility.yul\":4242:4248   */\n      dup2\n        /* \"#utility.yul\":4229:4249   */\n      calldataload\n        /* \"#utility.yul\":4220:4249   */\n      swap1\n      pop\n        /* \"#utility.yul\":4258:4291   */\n      tag_423\n        /* \"#utility.yul\":4285:4290   */\n      dup2\n        /* \"#utility.yul\":4258:4291   */\n      tag_331\n      jump\t// in\n    tag_423:\n        /* \"#utility.yul\":4158:4297   */\n      swap3\n      swap2\n      pop\n      pop\n      jump\t// out\n        /* \"#utility.yul\":4303:4777   */\n    tag_42:\n        /* \"#utility.yul\":4371:4377   */\n      0x00\n        /* \"#utility.yul\":4379:4385   */\n      dup1\n        /* \"#utility.yul\":4428:4430   */\n      0x40\n        /* \"#utility.yul\":4416:4425   */\n      dup4\n        /* \"#utility.yul\":4407:4414   */\n      dup6\n        /* \"#utility.yul\":4403:4426   */\n      sub\n        /* \"#utility.yul\":4399:4431   */\n      slt\n        /* \"#utility.yul\":4396:4515   */\n      iszero\n      tag_425\n      jumpi\n        /* \"#utility.yul\":4434:4513   */\n      tag_426\n      tag_313\n      jump\t// in\n    tag_426:\n        /* \"#utility.yul\":4396:4515   */\n    tag_425:\n        /* \"#utility.yul\":4554:4555   */\n      0x00\n        /* \"#utility.yul\":4579:4632   */\n      tag_427\n        /* \"#utility.yul\":4624:4631   */\n      dup6\n        /* \"#utility.yul\":4615:4621   */\n      dup3\n        /* \"#utility.yul\":4604:4613   */\n      dup7\n        /* \"#utility.yul\":4600:4622   */\n      add\n        /* \"#utility.yul\":4579:4632   */\n      tag_332\n      jump\t// in\n    tag_427:\n        /* \"#utility.yul\":4569:4632   */\n      swap3\n      pop\n        /* \"#utility.yul\":4525:4642   */\n      pop\n        /* \"#utility.yul\":4681:4683   */\n      0x20\n        /* \"#utility.yul\":4707:4760   */\n      tag_428\n        /* \"#utility.yul\":4752:4759   */\n      dup6\n        /* \"#utility.yul\":4743:4749   */\n      dup3\n        /* \"#utility.yul\":4732:4741   */\n      dup7\n        /* \"#utility.yul\":4728:4750   */\n      add\n        /* \"#utility.yul\":4707:4760   */\n      tag_327\n      jump\t// in\n    tag_428:\n        /* \"#utility.yul\":4697:4760   */\n      swap2\n      pop\n        /* \"#utility.yul\":4652:4770   */\n      pop\n        /* \"#utility.yul\":4303:4777   */\n      swap3\n      pop\n      swap3\n      swap1\n      pop\n      jump\t// out\n        /* \"#utility.yul\":4783:4901   */\n    tag_333:\n        /* \"#utility.yul\":4870:4894   */\n      tag_430\n        /* \"#utility.yul\":4888:4893   */\n      dup2\n        /* \"#utility.yul\":4870:4894   */\n      tag_325\n      jump\t// in\n    tag_430:\n        /* \"#utility.yul\":4865:4868   */\n      dup3\n        /* \"#utility.yul\":4858:4895   */\n      mstore\n        /* \"#utility.yul\":4783:4901   */\n      pop\n      pop\n      jump\t// out\n        /* \"#utility.yul\":4907:5440   */\n    tag_48:\n        /* \"#utility.yul\":5076:5080   */\n      0x00\n        /* \"#utility.yul\":5114:5116   */\n      0x60\n        /* \"#utility.yul\":5103:5112   */\n      dup3\n        /* \"#utility.yul\":5099:5117   */\n      add\n        /* \"#utility.yul\":5091:5117   */\n      swap1\n      pop\n        /* \"#utility.yul\":5127:5198   */\n      tag_432\n        /* \"#utility.yul\":5195:5196   */\n      0x00\n        /* \"#utility.yul\":5184:5193   */\n      dup4\n        /* \"#utility.yul\":5180:5197   */\n      add\n        /* \"#utility.yul\":5171:5177   */\n      dup7\n        /* \"#utility.yul\":5127:5198   */\n      tag_333\n      jump\t// in\n    tag_432:\n        /* \"#utility.yul\":5208:5280   */\n      tag_433\n        /* \"#utility.yul\":5276:5278   */\n      0x20\n        /* \"#utility.yul\":5265:5274   */\n      dup4\n        /* \"#utility.yul\":5261:5279   */\n      add\n        /* \"#utility.yul\":5252:5258   */\n      dup6\n        /* \"#utility.yul\":5208:5280   */\n      tag_333\n      jump\t// in\n    tag_433:\n        /* \"#utility.yul\":5327:5336   */\n      dup2\n        /* \"#utility.yul\":5321:5325   */\n      dup2\n        /* \"#utility.yul\":5317:5337   */\n      sub\n        /* \"#utility.yul\":5312:5314   */\n      0x40\n        /* \"#utility.yul\":5301:5310   */\n      dup4\n        /* \"#utility.yul\":5297:5315   */\n      add\n        /* \"#utility.yul\":5290:5338   */\n      mstore\n        /* \"#utility.yul\":5355:5433   */\n      tag_434\n        /* \"#utility.yul\":5428:5432   */\n      dup2\n        /* \"#utility.yul\":5419:5425   */\n      dup5\n        /* \"#utility.yul\":5355:5433   */\n      tag_324\n      jump\t// in\n    tag_434:\n        /* \"#utility.yul\":5347:5433   */\n      swap1\n      pop\n        /* \"#utility.yul\":4907:5440   */\n      swap5\n      swap4\n      pop\n      pop\n      pop\n      pop\n      jump\t// out\n        /* \"#utility.yul\":5446:6065   */\n    tag_51:\n        /* \"#utility.yul\":5523:5529   */\n      0x00\n        /* \"#utility.yul\":5531:5537   */\n      dup1\n        /* \"#utility.yul\":5539:5545   */\n      0x00\n        /* \"#utility.yul\":5588:5590   */\n      0x60\n        /* \"#utility.yul\":5576:5585   */\n      dup5\n        /* \"#utility.yul\":5567:5574   */\n      dup7\n        /* \"#utility.yul\":5563:5586   */\n      sub\n        /* \"#utility.yul\":5559:5591   */\n      slt\n        /* \"#utility.yul\":5556:5675   */\n      iszero\n      tag_436\n      jumpi\n        /* \"#utility.yul\":5594:5673   */\n      tag_437\n      tag_313\n      jump\t// in\n    tag_437:\n        /* \"#utility.yul\":5556:5675   */\n    tag_436:\n        /* \"#utility.yul\":5714:5715   */\n      0x00\n        /* \"#utility.yul\":5739:5792   */\n      tag_438\n        /* \"#utility.yul\":5784:5791   */\n      dup7\n        /* \"#utility.yul\":5775:5781   */\n      dup3\n        /* \"#utility.yul\":5764:5773   */\n      dup8\n        /* \"#utility.yul\":5760:5782   */\n      add\n        /* \"#utility.yul\":5739:5792   */\n      tag_332\n      jump\t// in\n    tag_438:\n        /* \"#utility.yul\":5729:5792   */\n      swap4\n      pop\n        /* \"#utility.yul\":5685:5802   */\n      pop\n        /* \"#utility.yul\":5841:5843   */\n      0x20\n        /* \"#utility.yul\":5867:5920   */\n      tag_439\n        /* \"#utility.yul\":5912:5919   */\n      dup7\n        /* \"#utility.yul\":5903:5909   */\n      dup3\n        /* \"#utility.yul\":5892:5901   */\n      dup8\n        /* \"#utility.yul\":5888:5910   */\n      add\n        /* \"#utility.yul\":5867:5920   */\n      tag_332\n      jump\t// in\n    tag_439:\n        /* \"#utility.yul\":5857:5920   */\n      swap3\n      pop\n        /* \"#utility.yul\":5812:5930   */\n      pop\n        /* \"#utility.yul\":5969:5971   */\n      0x40\n        /* \"#utility.yul\":5995:6048   */\n      tag_440\n        /* \"#utility.yul\":6040:6047   */\n      dup7\n        /* \"#utility.yul\":6031:6037   */\n      dup3\n        /* \"#utility.yul\":6020:6029   */\n      dup8\n        /* \"#utility.yul\":6016:6038   */\n      add\n        /* \"#utility.yul\":5995:6048   */\n      tag_327\n      jump\t// in\n    tag_440:\n        /* \"#utility.yul\":5985:6048   */\n      swap2\n      pop\n        /* \"#utility.yul\":5940:6058   */\n      pop\n        /* \"#utility.yul\":5446:6065   */\n      swap3\n      pop\n      swap3\n      pop\n      swap3\n      jump\t// out\n        /* \"#utility.yul\":6071:6188   */\n    tag_334:\n        /* \"#utility.yul\":6180:6181   */\n      0x00\n        /* \"#utility.yul\":6177:6178   */\n      dup1\n        /* \"#utility.yul\":6170:6182   */\n      revert\n        /* \"#utility.yul\":6194:6311   */\n    tag_335:\n        /* \"#utility.yul\":6303:6304   */\n      0x00\n        /* \"#utility.yul\":6300:6301   */\n      dup1\n        /* \"#utility.yul\":6293:6305   */\n      revert\n        /* \"#utility.yul\":6317:6497   */\n    tag_258:\n        /* \"#utility.yul\":6365:6442   */\n      0x4e487b7100000000000000000000000000000000000000000000000000000000\n        /* \"#utility.yul\":6362:6363   */\n      0x00\n        /* \"#utility.yul\":6355:6443   */\n      mstore\n        /* \"#utility.yul\":6462:6466   */\n      0x41\n        /* \"#utility.yul\":6459:6460   */\n      0x04\n        /* \"#utility.yul\":6452:6467   */\n      mstore\n        /* \"#utility.yul\":6486:6490   */\n      0x24\n        /* \"#utility.yul\":6483:6484   */\n      0x00\n        /* \"#utility.yul\":6476:6491   */\n      revert\n        /* \"#utility.yul\":6503:6784   */\n    tag_336:\n        /* \"#utility.yul\":6586:6613   */\n      tag_445\n        /* \"#utility.yul\":6608:6612   */\n      dup3\n        /* \"#utility.yul\":6586:6613   */\n      tag_323\n      jump\t// in\n    tag_445:\n        /* \"#utility.yul\":6578:6584   */\n      dup2\n        /* \"#utility.yul\":6574:6614   */\n      add\n        /* \"#utility.yul\":6716:6722   */\n      dup2\n        /* \"#utility.yul\":6704:6714   */\n      dup2\n        /* \"#utility.yul\":6701:6723   */\n      lt\n        /* \"#utility.yul\":6680:6698   */\n      0xffffffffffffffff\n        /* \"#utility.yul\":6668:6678   */\n      dup3\n        /* \"#utility.yul\":6665:6699   */\n      gt\n        /* \"#utility.yul\":6662:6724   */\n      or\n        /* \"#utility.yul\":6659:6747   */\n      iszero\n      tag_446\n      jumpi\n        /* \"#utility.yul\":6727:6745   */\n      tag_447\n      tag_258\n      jump\t// in\n    tag_447:\n        /* \"#utility.yul\":6659:6747   */\n    tag_446:\n        /* \"#utility.yul\":6767:6777   */\n      dup1\n        /* \"#utility.yul\":6763:6765   */\n      0x40\n        /* \"#utility.yul\":6756:6778   */\n      mstore\n        /* \"#utility.yul\":6546:6784   */\n      pop\n        /* \"#utility.yul\":6503:6784   */\n      pop\n      pop\n      jump\t// out\n        /* \"#utility.yul\":6790:6919   */\n    tag_337:\n        /* \"#utility.yul\":6824:6830   */\n      0x00\n        /* \"#utility.yul\":6851:6871   */\n      tag_449\n      tag_312\n      jump\t// in\n    tag_449:\n        /* \"#utility.yul\":6841:6871   */\n      swap1\n      pop\n        /* \"#utility.yul\":6880:6913   */\n      tag_450\n        /* \"#utility.yul\":6908:6912   */\n      dup3\n        /* \"#utility.yul\":6900:6906   */\n      dup3\n        /* \"#utility.yul\":6880:6913   */\n      tag_336\n      jump\t// in\n    tag_450:\n        /* \"#utility.yul\":6790:6919   */\n      swap2\n      swap1\n      pop\n      jump\t// out\n        /* \"#utility.yul\":6925:7233   */\n    tag_338:\n        /* \"#utility.yul\":6987:6991   */\n      0x00\n        /* \"#utility.yul\":7077:7095   */\n      0xffffffffffffffff\n        /* \"#utility.yul\":7069:7075   */\n      dup3\n        /* \"#utility.yul\":7066:7096   */\n      gt\n        /* \"#utility.yul\":7063:7119   */\n      iszero\n      tag_452\n      jumpi\n        /* \"#utility.yul\":7099:7117   */\n      tag_453\n      tag_258\n      jump\t// in\n    tag_453:\n        /* \"#utility.yul\":7063:7119   */\n    tag_452:\n        /* \"#utility.yul\":7137:7166   */\n      tag_454\n        /* \"#utility.yul\":7159:7165   */\n      dup3\n        /* \"#utility.yul\":7137:7166   */\n      tag_323\n      jump\t// in\n    tag_454:\n        /* \"#utility.yul\":7129:7166   */\n      swap1\n      pop\n        /* \"#utility.yul\":7221:7225   */\n      0x20\n        /* \"#utility.yul\":7215:7219   */\n      dup2\n        /* \"#utility.yul\":7211:7226   */\n      add\n        /* \"#utility.yul\":7203:7226   */\n      swap1\n      pop\n        /* \"#utility.yul\":6925:7233   */\n      swap2\n      swap1\n      pop\n      jump\t// out\n        /* \"#utility.yul\":7239:7387   */\n    tag_339:\n        /* \"#utility.yul\":7337:7343   */\n      dup3\n        /* \"#utility.yul\":7332:7335   */\n      dup2\n        /* \"#utility.yul\":7327:7330   */\n      dup4\n        /* \"#utility.yul\":7314:7344   */\n      calldatacopy\n        /* \"#utility.yul\":7378:7379   */\n      0x00\n        /* \"#utility.yul\":7369:7375   */\n      dup4\n        /* \"#utility.yul\":7364:7367   */\n      dup4\n        /* \"#utility.yul\":7360:7376   */\n      add\n        /* \"#utility.yul\":7353:7380   */\n      mstore\n        /* \"#utility.yul\":7239:7387   */\n      pop\n      pop\n      pop\n      jump\t// out\n        /* \"#utility.yul\":7393:7818   */\n    tag_340:\n        /* \"#utility.yul\":7471:7476   */\n      0x00\n        /* \"#utility.yul\":7496:7562   */\n      tag_457\n        /* \"#utility.yul\":7512:7561   */\n      tag_458\n        /* \"#utility.yul\":7554:7560   */\n      dup5\n        /* \"#utility.yul\":7512:7561   */\n      tag_338\n      jump\t// in\n    tag_458:\n        /* \"#utility.yul\":7496:7562   */\n      tag_337\n      jump\t// in\n    tag_457:\n        /* \"#utility.yul\":7487:7562   */\n      swap1\n      pop\n        /* \"#utility.yul\":7585:7591   */\n      dup3\n        /* \"#utility.yul\":7578:7583   */\n      dup2\n        /* \"#utility.yul\":7571:7592   */\n      mstore\n        /* \"#utility.yul\":7623:7627   */\n      0x20\n        /* \"#utility.yul\":7616:7621   */\n      dup2\n        /* \"#utility.yul\":7612:7628   */\n      add\n        /* \"#utility.yul\":7661:7664   */\n      dup5\n        /* \"#utility.yul\":7652:7658   */\n      dup5\n        /* \"#utility.yul\":7647:7650   */\n      dup5\n        /* \"#utility.yul\":7643:7659   */\n      add\n        /* \"#utility.yul\":7640:7665   */\n      gt\n        /* \"#utility.yul\":7637:7749   */\n      iszero\n      tag_459\n      jumpi\n        /* \"#utility.yul\":7668:7747   */\n      tag_460\n      tag_335\n      jump\t// in\n    tag_460:\n        /* \"#utility.yul\":7637:7749   */\n    tag_459:\n        /* \"#utility.yul\":7758:7812   */\n      tag_461\n        /* \"#utility.yul\":7805:7811   */\n      dup5\n        /* \"#utility.yul\":7800:7803   */\n      dup3\n        /* \"#utility.yul\":7795:7798   */\n      dup6\n        /* \"#utility.yul\":7758:7812   */\n      tag_339\n      jump\t// in\n    tag_461:\n        /* \"#utility.yul\":7477:7818   */\n      pop\n        /* \"#utility.yul\":7393:7818   */\n      swap4\n      swap3\n      pop\n      pop\n      pop\n      jump\t// out\n        /* \"#utility.yul\":7838:8178   */\n    tag_341:\n        /* \"#utility.yul\":7894:7899   */\n      0x00\n        /* \"#utility.yul\":7943:7946   */\n      dup3\n        /* \"#utility.yul\":7936:7940   */\n      0x1f\n        /* \"#utility.yul\":7928:7934   */\n      dup4\n        /* \"#utility.yul\":7924:7941   */\n      add\n        /* \"#utility.yul\":7920:7947   */\n      slt\n        /* \"#utility.yul\":7910:8032   */\n      tag_463\n      jumpi\n        /* \"#utility.yul\":7951:8030   */\n      tag_464\n      tag_334\n      jump\t// in\n    tag_464:\n        /* \"#utility.yul\":7910:8032   */\n    tag_463:\n        /* \"#utility.yul\":8068:8074   */\n      dup2\n        /* \"#utility.yul\":8055:8075   */\n      calldataload\n        /* \"#utility.yul\":8093:8172   */\n      tag_465\n        /* \"#utility.yul\":8168:8171   */\n      dup5\n        /* \"#utility.yul\":8160:8166   */\n      dup3\n        /* \"#utility.yul\":8153:8157   */\n      0x20\n        /* \"#utility.yul\":8145:8151   */\n      dup7\n        /* \"#utility.yul\":8141:8158   */\n      add\n        /* \"#utility.yul\":8093:8172   */\n      tag_340\n      jump\t// in\n    tag_465:\n        /* \"#utility.yul\":8084:8172   */\n      swap2\n      pop\n        /* \"#utility.yul\":7900:8178   */\n      pop\n        /* \"#utility.yul\":7838:8178   */\n      swap3\n      swap2\n      pop\n      pop\n      jump\t// out\n        /* \"#utility.yul\":8184:8983   */\n    tag_58:\n        /* \"#utility.yul\":8271:8277   */\n      0x00\n        /* \"#utility.yul\":8279:8285   */\n      dup1\n        /* \"#utility.yul\":8287:8293   */\n      0x00\n        /* \"#utility.yul\":8336:8338   */\n      0x60\n        /* \"#utility.yul\":8324:8333   */\n      dup5\n        /* \"#utility.yul\":8315:8322   */\n      dup7\n        /* \"#utility.yul\":8311:8334   */\n      sub\n        /* \"#utility.yul\":8307:8339   */\n      slt\n        /* \"#utility.yul\":8304:8423   */\n      iszero\n      tag_467\n      jumpi\n        /* \"#utility.yul\":8342:8421   */\n      tag_468\n      tag_313\n      jump\t// in\n    tag_468:\n        /* \"#utility.yul\":8304:8423   */\n    tag_467:\n        /* \"#utility.yul\":8462:8463   */\n      0x00\n        /* \"#utility.yul\":8487:8540   */\n      tag_469\n        /* \"#utility.yul\":8532:8539   */\n      dup7\n        /* \"#utility.yul\":8523:8529   */\n      dup3\n        /* \"#utility.yul\":8512:8521   */\n      dup8\n        /* \"#utility.yul\":8508:8530   */\n      add\n        /* \"#utility.yul\":8487:8540   */\n      tag_327\n      jump\t// in\n    tag_469:\n        /* \"#utility.yul\":8477:8540   */\n      swap4\n      pop\n        /* \"#utility.yul\":8433:8550   */\n      pop\n        /* \"#utility.yul\":8589:8591   */\n      0x20\n        /* \"#utility.yul\":8615:8668   */\n      tag_470\n        /* \"#utility.yul\":8660:8667   */\n      dup7\n        /* \"#utility.yul\":8651:8657   */\n      dup3\n        /* \"#utility.yul\":8640:8649   */\n      dup8\n        /* \"#utility.yul\":8636:8658   */\n      add\n        /* \"#utility.yul\":8615:8668   */\n      tag_327\n      jump\t// in\n    tag_470:\n        /* \"#utility.yul\":8605:8668   */\n      swap3\n      pop\n        /* \"#utility.yul\":8560:8678   */\n      pop\n        /* \"#utility.yul\":8745:8747   */\n      0x40\n        /* \"#utility.yul\":8734:8743   */\n      dup5\n        /* \"#utility.yul\":8730:8748   */\n      add\n        /* \"#utility.yul\":8717:8749   */\n      calldataload\n        /* \"#utility.yul\":8776:8794   */\n      0xffffffffffffffff\n        /* \"#utility.yul\":8768:8774   */\n      dup2\n        /* \"#utility.yul\":8765:8795   */\n      gt\n        /* \"#utility.yul\":8762:8879   */\n      iszero\n      tag_471\n      jumpi\n        /* \"#utility.yul\":8798:8877   */\n      tag_472\n      tag_314\n      jump\t// in\n    tag_472:\n        /* \"#utility.yul\":8762:8879   */\n    tag_471:\n        /* \"#utility.yul\":8903:8966   */\n      tag_473\n        /* \"#utility.yul\":8958:8965   */\n      dup7\n        /* \"#utility.yul\":8949:8955   */\n      dup3\n        /* \"#utility.yul\":8938:8947   */\n      dup8\n        /* \"#utility.yul\":8934:8956   */\n      add\n        /* \"#utility.yul\":8903:8966   */\n      tag_341\n      jump\t// in\n    tag_473:\n        /* \"#utility.yul\":8893:8966   */\n      swap2\n      pop\n        /* \"#utility.yul\":8688:8976   */\n      pop\n        /* \"#utility.yul\":8184:8983   */\n      swap3\n      pop\n      swap3\n      pop\n      swap3\n      jump\t// out\n        /* \"#utility.yul\":8989:9211   */\n    tag_61:\n        /* \"#utility.yul\":9082:9086   */\n      0x00\n        /* \"#utility.yul\":9120:9122   */\n      0x20\n        /* \"#utility.yul\":9109:9118   */\n      dup3\n        /* \"#utility.yul\":9105:9123   */\n      add\n        /* \"#utility.yul\":9097:9123   */\n      swap1\n      pop\n        /* \"#utility.yul\":9133:9204   */\n      tag_475\n        /* \"#utility.yul\":9201:9202   */\n      0x00\n        /* \"#utility.yul\":9190:9199   */\n      dup4\n        /* \"#utility.yul\":9186:9203   */\n      add\n        /* \"#utility.yul\":9177:9183   */\n      dup5\n        /* \"#utility.yul\":9133:9204   */\n      tag_333\n      jump\t// in\n    tag_475:\n        /* \"#utility.yul\":8989:9211   */\n      swap3\n      swap2\n      pop\n      pop\n      jump\t// out\n        /* \"#utility.yul\":9217:9546   */\n    tag_68:\n        /* \"#utility.yul\":9276:9282   */\n      0x00\n        /* \"#utility.yul\":9325:9327   */\n      0x20\n        /* \"#utility.yul\":9313:9322   */\n      dup3\n        /* \"#utility.yul\":9304:9311   */\n      dup5\n        /* \"#utility.yul\":9300:9323   */\n      sub\n        /* \"#utility.yul\":9296:9328   */\n      slt\n        /* \"#utility.yul\":9293:9412   */\n      iszero\n      tag_477\n      jumpi\n        /* \"#utility.yul\":9331:9410   */\n      tag_478\n      tag_313\n      jump\t// in\n    tag_478:\n        /* \"#utility.yul\":9293:9412   */\n    tag_477:\n        /* \"#utility.yul\":9451:9452   */\n      0x00\n        /* \"#utility.yul\":9476:9529   */\n      tag_479\n        /* \"#utility.yul\":9521:9528   */\n      dup5\n        /* \"#utility.yul\":9512:9518   */\n      dup3\n        /* \"#utility.yul\":9501:9510   */\n      dup6\n        /* \"#utility.yul\":9497:9519   */\n      add\n        /* \"#utility.yul\":9476:9529   */\n      tag_332\n      jump\t// in\n    tag_479:\n        /* \"#utility.yul\":9466:9529   */\n      swap2\n      pop\n        /* \"#utility.yul\":9422:9539   */\n      pop\n        /* \"#utility.yul\":9217:9546   */\n      swap3\n      swap2\n      pop\n      pop\n      jump\t// out\n        /* \"#utility.yul\":9552:9668   */\n    tag_342:\n        /* \"#utility.yul\":9622:9643   */\n      tag_481\n        /* \"#utility.yul\":9637:9642   */\n      dup2\n        /* \"#utility.yul\":9622:9643   */\n      tag_318\n      jump\t// in\n    tag_481:\n        /* \"#utility.yul\":9615:9620   */\n      dup2\n        /* \"#utility.yul\":9612:9644   */\n      eq\n        /* \"#utility.yul\":9602:9662   */\n      tag_482\n      jumpi\n        /* \"#utility.yul\":9658:9659   */\n      0x00\n        /* \"#utility.yul\":9655:9656   */\n      dup1\n        /* \"#utility.yul\":9648:9660   */\n      revert\n        /* \"#utility.yul\":9602:9662   */\n    tag_482:\n        /* \"#utility.yul\":9552:9668   */\n      pop\n      jump\t// out\n        /* \"#utility.yul\":9674:9807   */\n    tag_343:\n        /* \"#utility.yul\":9717:9722   */\n      0x00\n        /* \"#utility.yul\":9755:9761   */\n      dup2\n        /* \"#utility.yul\":9742:9762   */\n      calldataload\n        /* \"#utility.yul\":9733:9762   */\n      swap1\n      pop\n        /* \"#utility.yul\":9771:9801   */\n      tag_484\n        /* \"#utility.yul\":9795:9800   */\n      dup2\n        /* \"#utility.yul\":9771:9801   */\n      tag_342\n      jump\t// in\n    tag_484:\n        /* \"#utility.yul\":9674:9807   */\n      swap3\n      swap2\n      pop\n      pop\n      jump\t// out\n        /* \"#utility.yul\":9813:10281   */\n    tag_81:\n        /* \"#utility.yul\":9878:9884   */\n      0x00\n        /* \"#utility.yul\":9886:9892   */\n      dup1\n        /* \"#utility.yul\":9935:9937   */\n      0x40\n        /* \"#utility.yul\":9923:9932   */\n      dup4\n        /* \"#utility.yul\":9914:9921   */\n      dup6\n        /* \"#utility.yul\":9910:9933   */\n      sub\n        /* \"#utility.yul\":9906:9938   */\n      slt\n        /* \"#utility.yul\":9903:10022   */\n      iszero\n      tag_486\n      jumpi\n        /* \"#utility.yul\":9941:10020   */\n      tag_487\n      tag_313\n      jump\t// in\n    tag_487:\n        /* \"#utility.yul\":9903:10022   */\n    tag_486:\n        /* \"#utility.yul\":10061:10062   */\n      0x00\n        /* \"#utility.yul\":10086:10139   */\n      tag_488\n        /* \"#utility.yul\":10131:10138   */\n      dup6\n        /* \"#utility.yul\":10122:10128   */\n      dup3\n        /* \"#utility.yul\":10111:10120   */\n      dup7\n        /* \"#utility.yul\":10107:10129   */\n      add\n        /* \"#utility.yul\":10086:10139   */\n      tag_332\n      jump\t// in\n    tag_488:\n        /* \"#utility.yul\":10076:10139   */\n      swap3\n      pop\n        /* \"#utility.yul\":10032:10149   */\n      pop\n        /* \"#utility.yul\":10188:10190   */\n      0x20\n        /* \"#utility.yul\":10214:10264   */\n      tag_489\n        /* \"#utility.yul\":10256:10263   */\n      dup6\n        /* \"#utility.yul\":10247:10253   */\n      dup3\n        /* \"#utility.yul\":10236:10245   */\n      dup7\n        /* \"#utility.yul\":10232:10254   */\n      add\n        /* \"#utility.yul\":10214:10264   */\n      tag_343\n      jump\t// in\n    tag_489:\n        /* \"#utility.yul\":10204:10264   */\n      swap2\n      pop\n        /* \"#utility.yul\":10159:10274   */\n      pop\n        /* \"#utility.yul\":9813:10281   */\n      swap3\n      pop\n      swap3\n      swap1\n      pop\n      jump\t// out\n        /* \"#utility.yul\":10287:10594   */\n    tag_344:\n        /* \"#utility.yul\":10348:10352   */\n      0x00\n        /* \"#utility.yul\":10438:10456   */\n      0xffffffffffffffff\n        /* \"#utility.yul\":10430:10436   */\n      dup3\n        /* \"#utility.yul\":10427:10457   */\n      gt\n        /* \"#utility.yul\":10424:10480   */\n      iszero\n      tag_491\n      jumpi\n        /* \"#utility.yul\":10460:10478   */\n      tag_492\n      tag_258\n      jump\t// in\n    tag_492:\n        /* \"#utility.yul\":10424:10480   */\n    tag_491:\n        /* \"#utility.yul\":10498:10527   */\n      tag_493\n        /* \"#utility.yul\":10520:10526   */\n      dup3\n        /* \"#utility.yul\":10498:10527   */\n      tag_323\n      jump\t// in\n    tag_493:\n        /* \"#utility.yul\":10490:10527   */\n      swap1\n      pop\n        /* \"#utility.yul\":10582:10586   */\n      0x20\n        /* \"#utility.yul\":10576:10580   */\n      dup2\n        /* \"#utility.yul\":10572:10587   */\n      add\n        /* \"#utility.yul\":10564:10587   */\n      swap1\n      pop\n        /* \"#utility.yul\":10287:10594   */\n      swap2\n      swap1\n      pop\n      jump\t// out\n        /* \"#utility.yul\":10600:11023   */\n    tag_345:\n        /* \"#utility.yul\":10677:10682   */\n      0x00\n        /* \"#utility.yul\":10702:10767   */\n      tag_495\n        /* \"#utility.yul\":10718:10766   */\n      tag_496\n        /* \"#utility.yul\":10759:10765   */\n      dup5\n        /* \"#utility.yul\":10718:10766   */\n      tag_344\n      jump\t// in\n    tag_496:\n        /* \"#utility.yul\":10702:10767   */\n      tag_337\n      jump\t// in\n    tag_495:\n        /* \"#utility.yul\":10693:10767   */\n      swap1\n      pop\n        /* \"#utility.yul\":10790:10796   */\n      dup3\n        /* \"#utility.yul\":10783:10788   */\n      dup2\n        /* \"#utility.yul\":10776:10797   */\n      mstore\n        /* \"#utility.yul\":10828:10832   */\n      0x20\n        /* \"#utility.yul\":10821:10826   */\n      dup2\n        /* \"#utility.yul\":10817:10833   */\n      add\n        /* \"#utility.yul\":10866:10869   */\n      dup5\n        /* \"#utility.yul\":10857:10863   */\n      dup5\n        /* \"#utility.yul\":10852:10855   */\n      dup5\n        /* \"#utility.yul\":10848:10864   */\n      add\n        /* \"#utility.yul\":10845:10870   */\n      gt\n        /* \"#utility.yul\":10842:10954   */\n      iszero\n      tag_497\n      jumpi\n        /* \"#utility.yul\":10873:10952   */\n      tag_498\n      tag_335\n      jump\t// in\n    tag_498:\n        /* \"#utility.yul\":10842:10954   */\n    tag_497:\n        /* \"#utility.yul\":10963:11017   */\n      tag_499\n        /* \"#utility.yul\":11010:11016   */\n      dup5\n        /* \"#utility.yul\":11005:11008   */\n      dup3\n        /* \"#utility.yul\":11000:11003   */\n      dup6\n        /* \"#utility.yul\":10963:11017   */\n      tag_339\n      jump\t// in\n    tag_499:\n        /* \"#utility.yul\":10683:11023   */\n      pop\n        /* \"#utility.yul\":10600:11023   */\n      swap4\n      swap3\n      pop\n      pop\n      pop\n      jump\t// out\n        /* \"#utility.yul\":11042:11380   */\n    tag_346:\n        /* \"#utility.yul\":11097:11102   */\n      0x00\n        /* \"#utility.yul\":11146:11149   */\n      dup3\n        /* \"#utility.yul\":11139:11143   */\n      0x1f\n        /* \"#utility.yul\":11131:11137   */\n      dup4\n        /* \"#utility.yul\":11127:11144   */\n      add\n        /* \"#utility.yul\":11123:11150   */\n      slt\n        /* \"#utility.yul\":11113:11235   */\n      tag_501\n      jumpi\n        /* \"#utility.yul\":11154:11233   */\n      tag_502\n      tag_334\n      jump\t// in\n    tag_502:\n        /* \"#utility.yul\":11113:11235   */\n    tag_501:\n        /* \"#utility.yul\":11271:11277   */\n      dup2\n        /* \"#utility.yul\":11258:11278   */\n      calldataload\n        /* \"#utility.yul\":11296:11374   */\n      tag_503\n        /* \"#utility.yul\":11370:11373   */\n      dup5\n        /* \"#utility.yul\":11362:11368   */\n      dup3\n        /* \"#utility.yul\":11355:11359   */\n      0x20\n        /* \"#utility.yul\":11347:11353   */\n      dup7\n        /* \"#utility.yul\":11343:11360   */\n      add\n        /* \"#utility.yul\":11296:11374   */\n      tag_345\n      jump\t// in\n    tag_503:\n        /* \"#utility.yul\":11287:11374   */\n      swap2\n      pop\n        /* \"#utility.yul\":11103:11380   */\n      pop\n        /* \"#utility.yul\":11042:11380   */\n      swap3\n      swap2\n      pop\n      pop\n      jump\t// out\n        /* \"#utility.yul\":11386:12329   */\n    tag_85:\n        /* \"#utility.yul\":11481:11487   */\n      0x00\n        /* \"#utility.yul\":11489:11495   */\n      dup1\n        /* \"#utility.yul\":11497:11503   */\n      0x00\n        /* \"#utility.yul\":11505:11511   */\n      dup1\n        /* \"#utility.yul\":11554:11557   */\n      0x80\n        /* \"#utility.yul\":11542:11551   */\n      dup6\n        /* \"#utility.yul\":11533:11540   */\n      dup8\n        /* \"#utility.yul\":11529:11552   */\n      sub\n        /* \"#utility.yul\":11525:11558   */\n      slt\n        /* \"#utility.yul\":11522:11642   */\n      iszero\n      tag_505\n      jumpi\n        /* \"#utility.yul\":11561:11640   */\n      tag_506\n      tag_313\n      jump\t// in\n    tag_506:\n        /* \"#utility.yul\":11522:11642   */\n    tag_505:\n        /* \"#utility.yul\":11681:11682   */\n      0x00\n        /* \"#utility.yul\":11706:11759   */\n      tag_507\n        /* \"#utility.yul\":11751:11758   */\n      dup8\n        /* \"#utility.yul\":11742:11748   */\n      dup3\n        /* \"#utility.yul\":11731:11740   */\n      dup9\n        /* \"#utility.yul\":11727:11749   */\n      add\n        /* \"#utility.yul\":11706:11759   */\n      tag_332\n      jump\t// in\n    tag_507:\n        /* \"#utility.yul\":11696:11759   */\n      swap5\n      pop\n        /* \"#utility.yul\":11652:11769   */\n      pop\n        /* \"#utility.yul\":11808:11810   */\n      0x20\n        /* \"#utility.yul\":11834:11887   */\n      tag_508\n        /* \"#utility.yul\":11879:11886   */\n      dup8\n        /* \"#utility.yul\":11870:11876   */\n      dup3\n        /* \"#utility.yul\":11859:11868   */\n      dup9\n        /* \"#utility.yul\":11855:11877   */\n      add\n        /* \"#utility.yul\":11834:11887   */\n      tag_332\n      jump\t// in\n    tag_508:\n        /* \"#utility.yul\":11824:11887   */\n      swap4\n      pop\n        /* \"#utility.yul\":11779:11897   */\n      pop\n        /* \"#utility.yul\":11936:11938   */\n      0x40\n        /* \"#utility.yul\":11962:12015   */\n      tag_509\n        /* \"#utility.yul\":12007:12014   */\n      dup8\n        /* \"#utility.yul\":11998:12004   */\n      dup3\n        /* \"#utility.yul\":11987:11996   */\n      dup9\n        /* \"#utility.yul\":11983:12005   */\n      add\n        /* \"#utility.yul\":11962:12015   */\n      tag_327\n      jump\t// in\n    tag_509:\n        /* \"#utility.yul\":11952:12015   */\n      swap3\n      pop\n        /* \"#utility.yul\":11907:12025   */\n      pop\n        /* \"#utility.yul\":12092:12094   */\n      0x60\n        /* \"#utility.yul\":12081:12090   */\n      dup6\n        /* \"#utility.yul\":12077:12095   */\n      add\n        /* \"#utility.yul\":12064:12096   */\n      calldataload\n        /* \"#utility.yul\":12123:12141   */\n      0xffffffffffffffff\n        /* \"#utility.yul\":12115:12121   */\n      dup2\n        /* \"#utility.yul\":12112:12142   */\n      gt\n        /* \"#utility.yul\":12109:12226   */\n      iszero\n      tag_510\n      jumpi\n        /* \"#utility.yul\":12145:12224   */\n      tag_511\n      tag_314\n      jump\t// in\n    tag_511:\n        /* \"#utility.yul\":12109:12226   */\n    tag_510:\n        /* \"#utility.yul\":12250:12312   */\n      tag_512\n        /* \"#utility.yul\":12304:12311   */\n      dup8\n        /* \"#utility.yul\":12295:12301   */\n      dup3\n        /* \"#utility.yul\":12284:12293   */\n      dup9\n        /* \"#utility.yul\":12280:12302   */\n      add\n        /* \"#utility.yul\":12250:12312   */\n      tag_346\n      jump\t// in\n    tag_512:\n        /* \"#utility.yul\":12240:12312   */\n      swap2\n      pop\n        /* \"#utility.yul\":12035:12322   */\n      pop\n        /* \"#utility.yul\":11386:12329   */\n      swap3\n      swap6\n      swap2\n      swap5\n      pop\n      swap3\n      pop\n      jump\t// out\n        /* \"#utility.yul\":12335:12809   */\n    tag_93:\n        /* \"#utility.yul\":12403:12409   */\n      0x00\n        /* \"#utility.yul\":12411:12417   */\n      dup1\n        /* \"#utility.yul\":12460:12462   */\n      0x40\n        /* \"#utility.yul\":12448:12457   */\n      dup4\n        /* \"#utility.yul\":12439:12446   */\n      dup6\n        /* \"#utility.yul\":12435:12458   */\n      sub\n        /* \"#utility.yul\":12431:12463   */\n      slt\n        /* \"#utility.yul\":12428:12547   */\n      iszero\n      tag_514\n      jumpi\n        /* \"#utility.yul\":12466:12545   */\n      tag_515\n      tag_313\n      jump\t// in\n    tag_515:\n        /* \"#utility.yul\":12428:12547   */\n    tag_514:\n        /* \"#utility.yul\":12586:12587   */\n      0x00\n        /* \"#utility.yul\":12611:12664   */\n      tag_516\n        /* \"#utility.yul\":12656:12663   */\n      dup6\n        /* \"#utility.yul\":12647:12653   */\n      dup3\n        /* \"#utility.yul\":12636:12645   */\n      dup7\n        /* \"#utility.yul\":12632:12654   */\n      add\n        /* \"#utility.yul\":12611:12664   */\n      tag_332\n      jump\t// in\n    tag_516:\n        /* \"#utility.yul\":12601:12664   */\n      swap3\n      pop\n        /* \"#utility.yul\":12557:12674   */\n      pop\n        /* \"#utility.yul\":12713:12715   */\n      0x20\n        /* \"#utility.yul\":12739:12792   */\n      tag_517\n        /* \"#utility.yul\":12784:12791   */\n      dup6\n        /* \"#utility.yul\":12775:12781   */\n      dup3\n        /* \"#utility.yul\":12764:12773   */\n      dup7\n        /* \"#utility.yul\":12760:12782   */\n      add\n        /* \"#utility.yul\":12739:12792   */\n      tag_332\n      jump\t// in\n    tag_517:\n        /* \"#utility.yul\":12729:12792   */\n      swap2\n      pop\n        /* \"#utility.yul\":12684:12802   */\n      pop\n        /* \"#utility.yul\":12335:12809   */\n      swap3\n      pop\n      swap3\n      swap1\n      pop\n      jump\t// out\n        /* \"#utility.yul\":12815:12995   */\n    tag_347:\n        /* \"#utility.yul\":12863:12940   */\n      0x4e487b7100000000000000000000000000000000000000000000000000000000\n        /* \"#utility.yul\":12860:12861   */\n      0x00\n        /* \"#utility.yul\":12853:12941   */\n      mstore\n        /* \"#utility.yul\":12960:12964   */\n      0x22\n        /* \"#utility.yul\":12957:12958   */\n      0x04\n        /* \"#utility.yul\":12950:12965   */\n      mstore\n        /* \"#utility.yul\":12984:12988   */\n      0x24\n        /* \"#utility.yul\":12981:12982   */\n      0x00\n        /* \"#utility.yul\":12974:12989   */\n      revert\n        /* \"#utility.yul\":13001:13321   */\n    tag_106:\n        /* \"#utility.yul\":13045:13051   */\n      0x00\n        /* \"#utility.yul\":13082:13083   */\n      0x02\n        /* \"#utility.yul\":13076:13080   */\n      dup3\n        /* \"#utility.yul\":13072:13084   */\n      div\n        /* \"#utility.yul\":13062:13084   */\n      swap1\n      pop\n        /* \"#utility.yul\":13129:13130   */\n      0x01\n        /* \"#utility.yul\":13123:13127   */\n      dup3\n        /* \"#utility.yul\":13119:13131   */\n      and\n        /* \"#utility.yul\":13150:13168   */\n      dup1\n        /* \"#utility.yul\":13140:13221   */\n      tag_520\n      jumpi\n        /* \"#utility.yul\":13206:13210   */\n      0x7f\n        /* \"#utility.yul\":13198:13204   */\n      dup3\n        /* \"#utility.yul\":13194:13211   */\n      and\n        /* \"#utility.yul\":13184:13211   */\n      swap2\n      pop\n        /* \"#utility.yul\":13140:13221   */\n    tag_520:\n        /* \"#utility.yul\":13268:13270   */\n      0x20\n        /* \"#utility.yul\":13260:13266   */\n      dup3\n        /* \"#utility.yul\":13257:13271   */\n      lt\n        /* \"#utility.yul\":13237:13255   */\n      dup2\n        /* \"#utility.yul\":13234:13272   */\n      sub\n        /* \"#utility.yul\":13231:13315   */\n      tag_521\n      jumpi\n        /* \"#utility.yul\":13287:13305   */\n      tag_522\n      tag_347\n      jump\t// in\n    tag_522:\n        /* \"#utility.yul\":13231:13315   */\n    tag_521:\n        /* \"#utility.yul\":13052:13321   */\n      pop\n        /* \"#utility.yul\":13001:13321   */\n      swap2\n      swap1\n      pop\n      jump\t// out\n        /* \"#utility.yul\":13327:13555   */\n    tag_348:\n        /* \"#utility.yul\":13467:13501   */\n      0x47616d6552656769737472793a20517565727920666f72206e6f6e6578697374\n        /* \"#utility.yul\":13463:13464   */\n      0x00\n        /* \"#utility.yul\":13455:13461   */\n      dup3\n        /* \"#utility.yul\":13451:13465   */\n      add\n        /* \"#utility.yul\":13444:13502   */\n      mstore\n        /* \"#utility.yul\":13536:13547   */\n      0x656e7420746f6b656e0000000000000000000000000000000000000000000000\n        /* \"#utility.yul\":13531:13533   */\n      0x20\n        /* \"#utility.yul\":13523:13529   */\n      dup3\n        /* \"#utility.yul\":13519:13534   */\n      add\n        /* \"#utility.yul\":13512:13548   */\n      mstore\n        /* \"#utility.yul\":13327:13555   */\n      pop\n      jump\t// out\n        /* \"#utility.yul\":13561:13927   */\n    tag_349:\n        /* \"#utility.yul\":13703:13706   */\n      0x00\n        /* \"#utility.yul\":13724:13791   */\n      tag_525\n        /* \"#utility.yul\":13788:13790   */\n      0x29\n        /* \"#utility.yul\":13783:13786   */\n      dup4\n        /* \"#utility.yul\":13724:13791   */\n      tag_321\n      jump\t// in\n    tag_525:\n        /* \"#utility.yul\":13717:13791   */\n      swap2\n      pop\n        /* \"#utility.yul\":13800:13893   */\n      tag_526\n        /* \"#utility.yul\":13889:13892   */\n      dup3\n        /* \"#utility.yul\":13800:13893   */\n      tag_348\n      jump\t// in\n    tag_526:\n        /* \"#utility.yul\":13918:13920   */\n      0x40\n        /* \"#utility.yul\":13913:13916   */\n      dup3\n        /* \"#utility.yul\":13909:13921   */\n      add\n        /* \"#utility.yul\":13902:13921   */\n      swap1\n      pop\n        /* \"#utility.yul\":13561:13927   */\n      swap2\n      swap1\n      pop\n      jump\t// out\n        /* \"#utility.yul\":13933:14352   */\n    tag_125:\n        /* \"#utility.yul\":14099:14103   */\n      0x00\n        /* \"#utility.yul\":14137:14139   */\n      0x20\n        /* \"#utility.yul\":14126:14135   */\n      dup3\n        /* \"#utility.yul\":14122:14140   */\n      add\n        /* \"#utility.yul\":14114:14140   */\n      swap1\n      pop\n        /* \"#utility.yul\":14186:14195   */\n      dup2\n        /* \"#utility.yul\":14180:14184   */\n      dup2\n        /* \"#utility.yul\":14176:14196   */\n      sub\n        /* \"#utility.yul\":14172:14173   */\n      0x00\n        /* \"#utility.yul\":14161:14170   */\n      dup4\n        /* \"#utility.yul\":14157:14174   */\n      add\n        /* \"#utility.yul\":14150:14197   */\n      mstore\n        /* \"#utility.yul\":14214:14345   */\n      tag_528\n        /* \"#utility.yul\":14340:14344   */\n      dup2\n        /* \"#utility.yul\":14214:14345   */\n      tag_349\n      jump\t// in\n    tag_528:\n        /* \"#utility.yul\":14206:14345   */\n      swap1\n      pop\n        /* \"#utility.yul\":13933:14352   */\n      swap2\n      swap1\n      pop\n      jump\t// out\n        /* \"#utility.yul\":14358:14800   */\n    tag_139:\n        /* \"#utility.yul\":14507:14511   */\n      0x00\n        /* \"#utility.yul\":14545:14547   */\n      0x60\n        /* \"#utility.yul\":14534:14543   */\n      dup3\n        /* \"#utility.yul\":14530:14548   */\n      add\n        /* \"#utility.yul\":14522:14548   */\n      swap1\n      pop\n        /* \"#utility.yul\":14558:14629   */\n      tag_530\n        /* \"#utility.yul\":14626:14627   */\n      0x00\n        /* \"#utility.yul\":14615:14624   */\n      dup4\n        /* \"#utility.yul\":14611:14628   */\n      add\n        /* \"#utility.yul\":14602:14608   */\n      dup7\n        /* \"#utility.yul\":14558:14629   */\n      tag_330\n      jump\t// in\n    tag_530:\n        /* \"#utility.yul\":14639:14711   */\n      tag_531\n        /* \"#utility.yul\":14707:14709   */\n      0x20\n        /* \"#utility.yul\":14696:14705   */\n      dup4\n        /* \"#utility.yul\":14692:14710   */\n      add\n        /* \"#utility.yul\":14683:14689   */\n      dup6\n        /* \"#utility.yul\":14639:14711   */\n      tag_333\n      jump\t// in\n    tag_531:\n        /* \"#utility.yul\":14721:14793   */\n      tag_532\n        /* \"#utility.yul\":14789:14791   */\n      0x40\n        /* \"#utility.yul\":14778:14787   */\n      dup4\n        /* \"#utility.yul\":14774:14792   */\n      add\n        /* \"#utility.yul\":14765:14771   */\n      dup5\n        /* \"#utility.yul\":14721:14793   */\n      tag_330\n      jump\t// in\n    tag_532:\n        /* \"#utility.yul\":14358:14800   */\n      swap5\n      swap4\n      pop\n      pop\n      pop\n      pop\n      jump\t// out\n        /* \"#utility.yul\":14806:14986   */\n    tag_350:\n        /* \"#utility.yul\":14854:14931   */\n      0x4e487b7100000000000000000000000000000000000000000000000000000000\n        /* \"#utility.yul\":14851:14852   */\n      0x00\n        /* \"#utility.yul\":14844:14932   */\n      mstore\n        /* \"#utility.yul\":14951:14955   */\n      0x11\n        /* \"#utility.yul\":14948:14949   */\n      0x04\n        /* \"#utility.yul\":14941:14956   */\n      mstore\n        /* \"#utility.yul\":14975:14979   */\n      0x24\n        /* \"#utility.yul\":14972:14973   */\n      0x00\n        /* \"#utility.yul\":14965:14980   */\n      revert\n        /* \"#utility.yul\":14992:15225   */\n    tag_147:\n        /* \"#utility.yul\":15031:15034   */\n      0x00\n        /* \"#utility.yul\":15054:15078   */\n      tag_535\n        /* \"#utility.yul\":15072:15077   */\n      dup3\n        /* \"#utility.yul\":15054:15078   */\n      tag_325\n      jump\t// in\n    tag_535:\n        /* \"#utility.yul\":15045:15078   */\n      swap2\n      pop\n        /* \"#utility.yul\":15100:15166   */\n      0xffffffffffffffffffffffffffffffffffffffffffffffffffffffffffffffff\n        /* \"#utility.yul\":15093:15098   */\n      dup3\n        /* \"#utility.yul\":15090:15167   */\n      sub\n        /* \"#utility.yul\":15087:15190   */\n      tag_536\n      jumpi\n        /* \"#utility.yul\":15170:15188   */\n      tag_537\n      tag_350\n      jump\t// in\n    tag_537:\n        /* \"#utility.yul\":15087:15190   */\n    tag_536:\n        /* \"#utility.yul\":15217:15218   */\n      0x01\n        /* \"#utility.yul\":15210:15215   */\n      dup3\n        /* \"#utility.yul\":15206:15219   */\n      add\n        /* \"#utility.yul\":15199:15219   */\n      swap1\n      pop\n        /* \"#utility.yul\":14992:15225   */\n      swap2\n      swap1\n      pop\n      jump\t// out\n        /* \"#utility.yul\":15231:15372   */\n    tag_351:\n        /* \"#utility.yul\":15280:15284   */\n      0x00\n        /* \"#utility.yul\":15303:15306   */\n      dup2\n        /* \"#utility.yul\":15295:15306   */\n      swap1\n      pop\n        /* \"#utility.yul\":15326:15329   */\n      dup2\n        /* \"#utility.yul\":15323:15324   */\n      0x00\n        /* \"#utility.yul\":15316:15330   */\n      mstore\n        /* \"#utility.yul\":15360:15364   */\n      0x20\n        /* \"#utility.yul\":15357:15358   */\n      0x00\n        /* \"#utility.yul\":15347:15365   */\n      keccak256\n        /* \"#utility.yul\":15339:15365   */\n      swap1\n      pop\n        /* \"#utility.yul\":15231:15372   */\n      swap2\n      swap1\n      pop\n      jump\t// out\n        /* \"#utility.yul\":15378:15471   */\n    tag_352:\n        /* \"#utility.yul\":15415:15421   */\n      0x00\n        /* \"#utility.yul\":15462:15464   */\n      0x20\n        /* \"#utility.yul\":15457:15459   */\n      0x1f\n        /* \"#utility.yul\":15450:15455   */\n      dup4\n        /* \"#utility.yul\":15446:15460   */\n      add\n        /* \"#utility.yul\":15442:15465   */\n      div\n        /* \"#utility.yul\":15432:15465   */\n      swap1\n      pop\n        /* \"#utility.yul\":15378:15471   */\n      swap2\n      swap1\n      pop\n      jump\t// out\n        /* \"#utility.yul\":15477:15584   */\n    tag_353:\n        /* \"#utility.yul\":15521:15529   */\n      0x00\n        /* \"#utility.yul\":15571:15576   */\n      dup3\n        /* \"#utility.yul\":15565:15569   */\n      dup3\n        /* \"#utility.yul\":15561:15577   */\n      shl\n        /* \"#utility.yul\":15540:15577   */\n      swap1\n      pop\n        /* \"#utility.yul\":15477:15584   */\n      swap3\n      swap2\n      pop\n      pop\n      jump\t// out\n        /* \"#utility.yul\":15590:15983   */\n    tag_354:\n        /* \"#utility.yul\":15659:15665   */\n      0x00\n        /* \"#utility.yul\":15709:15710   */\n      0x08\n        /* \"#utility.yul\":15697:15707   */\n      dup4\n        /* \"#utility.yul\":15693:15711   */\n      mul\n        /* \"#utility.yul\":15732:15829   */\n      tag_542\n        /* \"#utility.yul\":15762:15828   */\n      0xffffffffffffffffffffffffffffffffffffffffffffffffffffffffffffffff\n        /* \"#utility.yul\":15751:15760   */\n      dup3\n        /* \"#utility.yul\":15732:15829   */\n      tag_353\n      jump\t// in\n    tag_542:\n        /* \"#utility.yul\":15850:15889   */\n      tag_543\n        /* \"#utility.yul\":15880:15888   */\n      dup7\n        /* \"#utility.yul\":15869:15878   */\n      dup4\n        /* \"#utility.yul\":15850:15889   */\n      tag_353\n      jump\t// in\n    tag_543:\n        /* \"#utility.yul\":15838:15889   */\n      swap6\n      pop\n        /* \"#utility.yul\":15922:15926   */\n      dup1\n        /* \"#utility.yul\":15918:15927   */\n      not\n        /* \"#utility.yul\":15911:15916   */\n      dup5\n        /* \"#utility.yul\":15907:15928   */\n      and\n        /* \"#utility.yul\":15898:15928   */\n      swap4\n      pop\n        /* \"#utility.yul\":15971:15975   */\n      dup1\n        /* \"#utility.yul\":15961:15969   */\n      dup7\n        /* \"#utility.yul\":15957:15976   */\n      and\n        /* \"#utility.yul\":15950:15955   */\n      dup5\n        /* \"#utility.yul\":15947:15977   */\n      or\n        /* \"#utility.yul\":15937:15977   */\n      swap3\n      pop\n        /* \"#utility.yul\":15666:15983   */\n      pop\n      pop\n        /* \"#utility.yul\":15590:15983   */\n      swap4\n      swap3\n      pop\n      pop\n      pop\n      jump\t// out\n        /* \"#utility.yul\":15989:16049   */\n    tag_355:\n        /* \"#utility.yul\":16017:16020   */\n      0x00\n        /* \"#utility.yul\":16038:16043   */\n      dup2\n        /* \"#utility.yul\":16031:16043   */\n      swap1\n      pop\n        /* \"#utility.yul\":15989:16049   */\n      swap2\n      swap1\n      pop\n      jump\t// out\n        /* \"#utility.yul\":16055:16197   */\n    tag_356:\n        /* \"#utility.yul\":16105:16114   */\n      0x00\n        /* \"#utility.yul\":16138:16191   */\n      tag_546\n        /* \"#utility.yul\":16156:16190   */\n      tag_547\n        /* \"#utility.yul\":16165:16189   */\n      tag_548\n        /* \"#utility.yul\":16183:16188   */\n      dup5\n        /* \"#utility.yul\":16165:16189   */\n      tag_325\n      jump\t// in\n    tag_548:\n        /* \"#utility.yul\":16156:16190   */\n      tag_355\n      jump\t// in\n    tag_547:\n        /* \"#utility.yul\":16138:16191   */\n      tag_325\n      jump\t// in\n    tag_546:\n        /* \"#utility.yul\":16125:16191   */\n      swap1\n      pop\n        /* \"#utility.yul\":16055:16197   */\n      swap2\n      swap1\n      pop\n      jump\t// out\n        /* \"#utility.yul\":16203:16278   */\n    tag_357:\n        /* \"#utility.yul\":16246:16249   */\n      0x00\n        /* \"#utility.yul\":16267:16272   */\n      dup2\n        /* \"#utility.yul\":16260:16272   */\n      swap1\n      pop\n        /* \"#utility.yul\":16203:16278   */\n      swap2\n      swap1\n      pop\n      jump\t// out\n        /* \"#utility.yul\":16284:16553   */\n    tag_358:\n        /* \"#utility.yul\":16394:16433   */\n      tag_551\n        /* \"#utility.yul\":16425:16432   */\n      dup4\n        /* \"#utility.yul\":16394:16433   */\n      tag_356\n      jump\t// in\n    tag_551:\n        /* \"#utility.yul\":16455:16546   */\n      tag_552\n        /* \"#utility.yul\":16504:16545   */\n      tag_553\n        /* \"#utility.yul\":16528:16544   */\n      dup3\n        /* \"#utility.yul\":16504:16545   */\n      tag_357\n      jump\t// in\n    tag_553:\n        /* \"#utility.yul\":16496:16502   */\n      dup5\n        /* \"#utility.yul\":16489:16493   */\n      dup5\n        /* \"#utility.yul\":16483:16494   */\n      sload\n        /* \"#utility.yul\":16455:16546   */\n      tag_354\n      jump\t// in\n    tag_552:\n        /* \"#utility.yul\":16449:16453   */\n      dup3\n        /* \"#utility.yul\":16442:16547   */\n      sstore\n        /* \"#utility.yul\":16360:16553   */\n      pop\n        /* \"#utility.yul\":16284:16553   */\n      pop\n      pop\n      pop\n      jump\t// out\n        /* \"#utility.yul\":16559:16632   */\n    tag_359:\n        /* \"#utility.yul\":16604:16607   */\n      0x00\n        /* \"#utility.yul\":16559:16632   */\n      swap1\n      jump\t// out\n        /* \"#utility.yul\":16638:16827   */\n    tag_360:\n        /* \"#utility.yul\":16715:16747   */\n      tag_556\n      tag_359\n      jump\t// in\n    tag_556:\n        /* \"#utility.yul\":16756:16821   */\n      tag_557\n        /* \"#utility.yul\":16814:16820   */\n      dup2\n        /* \"#utility.yul\":16806:16812   */\n      dup5\n        /* \"#utility.yul\":16800:16804   */\n      dup5\n        /* \"#utility.yul\":16756:16821   */\n      tag_358\n      jump\t// in\n    tag_557:\n        /* \"#utility.yul\":16691:16827   */\n      pop\n        /* \"#utility.yul\":16638:16827   */\n      pop\n      pop\n      jump\t// out\n        /* \"#utility.yul\":16833:17019   */\n    tag_361:\n        /* \"#utility.yul\":16893:17013   */\n    tag_559:\n        /* \"#utility.yul\":16910:16913   */\n      dup2\n        /* \"#utility.yul\":16903:16908   */\n      dup2\n        /* \"#utility.yul\":16900:16914   */\n      lt\n        /* \"#utility.yul\":16893:17013   */\n      iszero\n      tag_561\n      jumpi\n        /* \"#utility.yul\":16964:17003   */\n      tag_562\n        /* \"#utility.yul\":17001:17002   */\n      0x00\n        /* \"#utility.yul\":16994:16999   */\n      dup3\n        /* \"#utility.yul\":16964:17003   */\n      tag_360\n      jump\t// in\n    tag_562:\n        /* \"#utility.yul\":16937:16938   */\n      0x01\n        /* \"#utility.yul\":16930:16935   */\n      dup2\n        /* \"#utility.yul\":16926:16939   */\n      add\n        /* \"#utility.yul\":16917:16939   */\n      swap1\n      pop\n        /* \"#utility.yul\":16893:17013   */\n      jump(tag_559)\n    tag_561:\n        /* \"#utility.yul\":16833:17019   */\n      pop\n      pop\n      jump\t// out\n        /* \"#utility.yul\":17025:17568   */\n    tag_362:\n        /* \"#utility.yul\":17126:17128   */\n      0x1f\n        /* \"#utility.yul\":17121:17124   */\n      dup3\n        /* \"#utility.yul\":17118:17129   */\n      gt\n        /* \"#utility.yul\":17115:17561   */\n      iszero\n      tag_564\n      jumpi\n        /* \"#utility.yul\":17160:17198   */\n      tag_565\n        /* \"#utility.yul\":17192:17197   */\n      dup2\n        /* \"#utility.yul\":17160:17198   */\n      tag_351\n      jump\t// in\n    tag_565:\n        /* \"#utility.yul\":17244:17273   */\n      tag_566\n        /* \"#utility.yul\":17262:17272   */\n      dup5\n        /* \"#utility.yul\":17244:17273   */\n      tag_352\n      jump\t// in\n    tag_566:\n        /* \"#utility.yul\":17234:17242   */\n      dup2\n        /* \"#utility.yul\":17230:17274   */\n      add\n        /* \"#utility.yul\":17427:17429   */\n      0x20\n        /* \"#utility.yul\":17415:17425   */\n      dup6\n        /* \"#utility.yul\":17412:17430   */\n      lt\n        /* \"#utility.yul\":17409:17458   */\n      iszero\n      tag_567\n      jumpi\n        /* \"#utility.yul\":17448:17456   */\n      dup2\n        /* \"#utility.yul\":17433:17456   */\n      swap1\n      pop\n        /* \"#utility.yul\":17409:17458   */\n    tag_567:\n        /* \"#utility.yul\":17471:17551   */\n      tag_568\n        /* \"#utility.yul\":17527:17549   */\n      tag_569\n        /* \"#utility.yul\":17545:17548   */\n      dup6\n        /* \"#utility.yul\":17527:17549   */\n      tag_352\n      jump\t// in\n    tag_569:\n        /* \"#utility.yul\":17517:17525   */\n      dup4\n        /* \"#utility.yul\":17513:17550   */\n      add\n        /* \"#utility.yul\":17500:17511   */\n      dup3\n        /* \"#utility.yul\":17471:17551   */\n      tag_361\n      jump\t// in\n    tag_568:\n        /* \"#utility.yul\":17130:17561   */\n      pop\n      pop\n        /* \"#utility.yul\":17115:17561   */\n    tag_564:\n        /* \"#utility.yul\":17025:17568   */\n      pop\n      pop\n      pop\n      jump\t// out\n        /* \"#utility.yul\":17574:17691   */\n    tag_363:\n        /* \"#utility.yul\":17628:17636   */\n      0x00\n        /* \"#utility.yul\":17678:17683   */\n      dup3\n        /* \"#utility.yul\":17672:17676   */\n      dup3\n        /* \"#utility.yul\":17668:17684   */\n      shr\n        /* \"#utility.yul\":17647:17684   */\n      swap1\n      pop\n        /* \"#utility.yul\":17574:17691   */\n      swap3\n      swap2\n      pop\n      pop\n      jump\t// out\n        /* \"#utility.yul\":17697:17866   */\n    tag_364:\n        /* \"#utility.yul\":17741:17747   */\n      0x00\n        /* \"#utility.yul\":17774:17825   */\n      tag_572\n        /* \"#utility.yul\":17822:17823   */\n      0x00\n        /* \"#utility.yul\":17818:17824   */\n      not\n        /* \"#utility.yul\":17810:17815   */\n      dup5\n        /* \"#utility.yul\":17807:17808   */\n      0x08\n        /* \"#utility.yul\":17803:17816   */\n      mul\n        /* \"#utility.yul\":17774:17825   */\n      tag_363\n      jump\t// in\n    tag_572:\n        /* \"#utility.yul\":17770:17826   */\n      not\n        /* \"#utility.yul\":17855:17859   */\n      dup1\n        /* \"#utility.yul\":17849:17853   */\n      dup4\n        /* \"#utility.yul\":17845:17860   */\n      and\n        /* \"#utility.yul\":17835:17860   */\n      swap2\n      pop\n        /* \"#utility.yul\":17748:17866   */\n      pop\n        /* \"#utility.yul\":17697:17866   */\n      swap3\n      swap2\n      pop\n      pop\n      jump\t// out\n        /* \"#utility.yul\":17871:18166   */\n    tag_365:\n        /* \"#utility.yul\":17947:17951   */\n      0x00\n        /* \"#utility.yul\":18093:18122   */\n      tag_574\n        /* \"#utility.yul\":18118:18121   */\n      dup4\n        /* \"#utility.yul\":18112:18116   */\n      dup4\n        /* \"#utility.yul\":18093:18122   */\n      tag_364\n      jump\t// in\n    tag_574:\n        /* \"#utility.yul\":18085:18122   */\n      swap2\n      pop\n        /* \"#utility.yul\":18155:18158   */\n      dup3\n        /* \"#utility.yul\":18152:18153   */\n      0x02\n        /* \"#utility.yul\":18148:18159   */\n      mul\n        /* \"#utility.yul\":18142:18146   */\n      dup3\n        /* \"#utility.yul\":18139:18160   */\n      or\n        /* \"#utility.yul\":18131:18160   */\n      swap1\n      pop\n        /* \"#utility.yul\":17871:18166   */\n      swap3\n      swap2\n      pop\n      pop\n      jump\t// out\n        /* \"#utility.yul\":18171:19566   */\n    tag_149:\n        /* \"#utility.yul\":18288:18325   */\n      tag_576\n        /* \"#utility.yul\":18321:18324   */\n      dup3\n        /* \"#utility.yul\":18288:18325   */\n      tag_320\n      jump\t// in\n    tag_576:\n        /* \"#utility.yul\":18390:18408   */\n      0xffffffffffffffff\n        /* \"#utility.yul\":18382:18388   */\n      dup2\n        /* \"#utility.yul\":18379:18409   */\n      gt\n        /* \"#utility.yul\":18376:18432   */\n      iszero\n      tag_577\n      jumpi\n        /* \"#utility.yul\":18412:18430   */\n      tag_578\n      tag_258\n      jump\t// in\n    tag_578:\n        /* \"#utility.yul\":18376:18432   */\n    tag_577:\n        /* \"#utility.yul\":18456:18494   */\n      tag_579\n        /* \"#utility.yul\":18488:18492   */\n      dup3\n        /* \"#utility.yul\":18482:18493   */\n      sload\n        /* \"#utility.yul\":18456:18494   */\n      tag_106\n      jump\t// in\n    tag_579:\n        /* \"#utility.yul\":18541:18608   */\n      tag_580\n        /* \"#utility.yul\":18601:18607   */\n      dup3\n        /* \"#utility.yul\":18593:18599   */\n      dup3\n        /* \"#utility.yul\":18587:18591   */\n      dup6\n        /* \"#utility.yul\":18541:18608   */\n      tag_362\n      jump\t// in\n    tag_580:\n        /* \"#utility.yul\":18635:18636   */\n      0x00\n        /* \"#utility.yul\":18659:18663   */\n      0x20\n        /* \"#utility.yul\":18646:18663   */\n      swap1\n      pop\n        /* \"#utility.yul\":18691:18693   */\n      0x1f\n        /* \"#utility.yul\":18683:18689   */\n      dup4\n        /* \"#utility.yul\":18680:18694   */\n      gt\n        /* \"#utility.yul\":18708:18709   */\n      0x01\n        /* \"#utility.yul\":18703:19321   */\n      dup2\n      eq\n      tag_582\n      jumpi\n        /* \"#utility.yul\":19365:19366   */\n      0x00\n        /* \"#utility.yul\":19382:19388   */\n      dup5\n        /* \"#utility.yul\":19379:19456   */\n      iszero\n      tag_583\n      jumpi\n        /* \"#utility.yul\":19431:19440   */\n      dup3\n        /* \"#utility.yul\":19426:19429   */\n      dup8\n        /* \"#utility.yul\":19422:19441   */\n      add\n        /* \"#utility.yul\":19416:19442   */\n      mload\n        /* \"#utility.yul\":19407:19442   */\n      swap1\n      pop\n        /* \"#utility.yul\":19379:19456   */\n    tag_583:\n        /* \"#utility.yul\":19482:19549   */\n      tag_584\n        /* \"#utility.yul\":19542:19548   */\n      dup6\n        /* \"#utility.yul\":19535:19540   */\n      dup3\n        /* \"#utility.yul\":19482:19549   */\n      tag_365\n      jump\t// in\n    tag_584:\n        /* \"#utility.yul\":19476:19480   */\n      dup7\n        /* \"#utility.yul\":19469:19550   */\n      sstore\n        /* \"#utility.yul\":19338:19560   */\n      pop\n        /* \"#utility.yul\":18673:19560   */\n      jump(tag_581)\n        /* \"#utility.yul\":18703:19321   */\n    tag_582:\n        /* \"#utility.yul\":18755:18759   */\n      0x1f\n        /* \"#utility.yul\":18751:18760   */\n      not\n        /* \"#utility.yul\":18743:18749   */\n      dup5\n        /* \"#utility.yul\":18739:18761   */\n      and\n        /* \"#utility.yul\":18789:18826   */\n      tag_585\n        /* \"#utility.yul\":18821:18825   */\n      dup7\n        /* \"#utility.yul\":18789:18826   */\n      tag_351\n      jump\t// in\n    tag_585:\n        /* \"#utility.yul\":18848:18849   */\n      0x00\n        /* \"#utility.yul\":18862:19070   */\n    tag_586:\n        /* \"#utility.yul\":18876:18883   */\n      dup3\n        /* \"#utility.yul\":18873:18874   */\n      dup2\n        /* \"#utility.yul\":18870:18884   */\n      lt\n        /* \"#utility.yul\":18862:19070   */\n      iszero\n      tag_588\n      jumpi\n        /* \"#utility.yul\":18955:18964   */\n      dup5\n        /* \"#utility.yul\":18950:18953   */\n      dup10\n        /* \"#utility.yul\":18946:18965   */\n      add\n        /* \"#utility.yul\":18940:18966   */\n      mload\n        /* \"#utility.yul\":18932:18938   */\n      dup3\n        /* \"#utility.yul\":18925:18967   */\n      sstore\n        /* \"#utility.yul\":19006:19007   */\n      0x01\n        /* \"#utility.yul\":18998:19004   */\n      dup3\n        /* \"#utility.yul\":18994:19008   */\n      add\n        /* \"#utility.yul\":18984:19008   */\n      swap2\n      pop\n        /* \"#utility.yul\":19053:19055   */\n      0x20\n        /* \"#utility.yul\":19042:19051   */\n      dup6\n        /* \"#utility.yul\":19038:19056   */\n      add\n        /* \"#utility.yul\":19025:19056   */\n      swap5\n      pop\n        /* \"#utility.yul\":18899:18903   */\n      0x20\n        /* \"#utility.yul\":18896:18897   */\n      dup2\n        /* \"#utility.yul\":18892:18904   */\n      add\n        /* \"#utility.yul\":18887:18904   */\n      swap1\n      pop\n        /* \"#utility.yul\":18862:19070   */\n      jump(tag_586)\n    tag_588:\n        /* \"#utility.yul\":19098:19104   */\n      dup7\n        /* \"#utility.yul\":19089:19096   */\n      dup4\n        /* \"#utility.yul\":19086:19105   */\n      lt\n        /* \"#utility.yul\":19083:19262   */\n      iszero\n      tag_589\n      jumpi\n        /* \"#utility.yul\":19156:19165   */\n      dup5\n        /* \"#utility.yul\":19151:19154   */\n      dup10\n        /* \"#utility.yul\":19147:19166   */\n      add\n        /* \"#utility.yul\":19141:19167   */\n      mload\n        /* \"#utility.yul\":19199:19247   */\n      tag_590\n        /* \"#utility.yul\":19241:19245   */\n      0x1f\n        /* \"#utility.yul\":19233:19239   */\n      dup10\n        /* \"#utility.yul\":19229:19246   */\n      and\n        /* \"#utility.yul\":19218:19227   */\n      dup3\n        /* \"#utility.yul\":19199:19247   */\n      tag_364\n      jump\t// in\n    tag_590:\n        /* \"#utility.yul\":19191:19197   */\n      dup4\n        /* \"#utility.yul\":19184:19248   */\n      sstore\n        /* \"#utility.yul\":19106:19262   */\n      pop\n        /* \"#utility.yul\":19083:19262   */\n    tag_589:\n        /* \"#utility.yul\":19308:19309   */\n      0x01\n        /* \"#utility.yul\":19304:19305   */\n      0x02\n        /* \"#utility.yul\":19296:19302   */\n      dup9\n        /* \"#utility.yul\":19292:19306   */\n      mul\n        /* \"#utility.yul\":19288:19310   */\n      add\n        /* \"#utility.yul\":19282:19286   */\n      dup9\n        /* \"#utility.yul\":19275:19311   */\n      sstore\n        /* \"#utility.yul\":18710:19321   */\n      pop\n      pop\n      pop\n        /* \"#utility.yul\":18673:19560   */\n    tag_581:\n      pop\n        /* \"#utility.yul\":18263:19566   */\n      pop\n      pop\n      pop\n        /* \"#utility.yul\":18171:19566   */\n      pop\n      pop\n      jump\t// out\n        /* \"#utility.yul\":19572:20216   */\n    tag_153:\n        /* \"#utility.yul\":19769:19773   */\n      0x00\n        /* \"#utility.yul\":19807:19810   */\n      0x80\n        /* \"#utility.yul\":19796:19805   */\n      dup3\n        /* \"#utility.yul\":19792:19811   */\n      add\n        /* \"#utility.yul\":19784:19811   */\n      swap1\n      pop\n        /* \"#utility.yul\":19821:19892   */\n      tag_592\n        /* \"#utility.yul\":19889:19890   */\n      0x00\n        /* \"#utility.yul\":19878:19887   */\n      dup4\n        /* \"#utility.yul\":19874:19891   */\n      add\n        /* \"#utility.yul\":19865:19871   */\n      dup8\n        /* \"#utility.yul\":19821:19892   */\n      tag_333\n      jump\t// in\n    tag_592:\n        /* \"#utility.yul\":19902:19974   */\n      tag_593\n        /* \"#utility.yul\":19970:19972   */\n      0x20\n        /* \"#utility.yul\":19959:19968   */\n      dup4\n        /* \"#utility.yul\":19955:19973   */\n      add\n        /* \"#utility.yul\":19946:19952   */\n      dup7\n        /* \"#utility.yul\":19902:19974   */\n      tag_333\n      jump\t// in\n    tag_593:\n        /* \"#utility.yul\":19984:20056   */\n      tag_594\n        /* \"#utility.yul\":20052:20054   */\n      0x40\n        /* \"#utility.yul\":20041:20050   */\n      dup4\n        /* \"#utility.yul\":20037:20055   */\n      add\n        /* \"#utility.yul\":20028:20034   */\n      dup6\n        /* \"#utility.yul\":19984:20056   */\n      tag_333\n      jump\t// in\n    tag_594:\n        /* \"#utility.yul\":20103:20112   */\n      dup2\n        /* \"#utility.yul\":20097:20101   */\n      dup2\n        /* \"#utility.yul\":20093:20113   */\n      sub\n        /* \"#utility.yul\":20088:20090   */\n      0x60\n        /* \"#utility.yul\":20077:20086   */\n      dup4\n        /* \"#utility.yul\":20073:20091   */\n      add\n        /* \"#utility.yul\":20066:20114   */\n      mstore\n        /* \"#utility.yul\":20131:20209   */\n      tag_595\n        /* \"#utility.yul\":20204:20208   */\n      dup2\n        /* \"#utility.yul\":20195:20201   */\n      dup5\n        /* \"#utility.yul\":20131:20209   */\n      tag_324\n      jump\t// in\n    tag_595:\n        /* \"#utility.yul\":20123:20209   */\n      swap1\n      pop\n        /* \"#utility.yul\":19572:20216   */\n      swap6\n      swap5\n      pop\n      pop\n      pop\n      pop\n      pop\n      jump\t// out\n        /* \"#utility.yul\":20222:20370   */\n    tag_366:\n        /* \"#utility.yul\":20324:20335   */\n      0x00\n        /* \"#utility.yul\":20361:20364   */\n      dup2\n        /* \"#utility.yul\":20346:20364   */\n      swap1\n      pop\n        /* \"#utility.yul\":20222:20370   */\n      swap3\n      swap2\n      pop\n      pop\n      jump\t// out\n        /* \"#utility.yul\":20376:20766   */\n    tag_367:\n        /* \"#utility.yul\":20482:20485   */\n      0x00\n        /* \"#utility.yul\":20510:20549   */\n      tag_598\n        /* \"#utility.yul\":20543:20548   */\n      dup3\n        /* \"#utility.yul\":20510:20549   */\n      tag_320\n      jump\t// in\n    tag_598:\n        /* \"#utility.yul\":20565:20654   */\n      tag_599\n        /* \"#utility.yul\":20647:20653   */\n      dup2\n        /* \"#utility.yul\":20642:20645   */\n      dup6\n        /* \"#utility.yul\":20565:20654   */\n      tag_366\n      jump\t// in\n    tag_599:\n        /* \"#utility.yul\":20558:20654   */\n      swap4\n      pop\n        /* \"#utility.yul\":20663:20728   */\n      tag_600\n        /* \"#utility.yul\":20721:20727   */\n      dup2\n        /* \"#utility.yul\":20716:20719   */\n      dup6\n        /* \"#utility.yul\":20709:20713   */\n      0x20\n        /* \"#utility.yul\":20702:20707   */\n      dup7\n        /* \"#utility.yul\":20698:20714   */\n      add\n        /* \"#utility.yul\":20663:20728   */\n      tag_322\n      jump\t// in\n    tag_600:\n        /* \"#utility.yul\":20753:20759   */\n      dup1\n        /* \"#utility.yul\":20748:20751   */\n      dup5\n        /* \"#utility.yul\":20744:20760   */\n      add\n        /* \"#utility.yul\":20737:20760   */\n      swap2\n      pop\n        /* \"#utility.yul\":20486:20766   */\n      pop\n        /* \"#utility.yul\":20376:20766   */\n      swap3\n      swap2\n      pop\n      pop\n      jump\t// out\n        /* \"#utility.yul\":20772:21207   */\n    tag_188:\n        /* \"#utility.yul\":20952:20955   */\n      0x00\n        /* \"#utility.yul\":20974:21069   */\n      tag_602\n        /* \"#utility.yul\":21065:21068   */\n      dup3\n        /* \"#utility.yul\":21056:21062   */\n      dup6\n        /* \"#utility.yul\":20974:21069   */\n      tag_367\n      jump\t// in\n    tag_602:\n        /* \"#utility.yul\":20967:21069   */\n      swap2\n      pop\n        /* \"#utility.yul\":21086:21181   */\n      tag_603\n        /* \"#utility.yul\":21177:21180   */\n      dup3\n        /* \"#utility.yul\":21168:21174   */\n      dup5\n        /* \"#utility.yul\":21086:21181   */\n      tag_367\n      jump\t// in\n    tag_603:\n        /* \"#utility.yul\":21079:21181   */\n      swap2\n      pop\n        /* \"#utility.yul\":21198:21201   */\n      dup2\n        /* \"#utility.yul\":21191:21201   */\n      swap1\n      pop\n        /* \"#utility.yul\":20772:21207   */\n      swap4\n      swap3\n      pop\n      pop\n      pop\n      jump\t// out\n        /* \"#utility.yul\":21213:21311   */\n    tag_368:\n        /* \"#utility.yul\":21264:21270   */\n      0x00\n        /* \"#utility.yul\":21298:21303   */\n      dup2\n        /* \"#utility.yul\":21292:21304   */\n      mload\n        /* \"#utility.yul\":21282:21304   */\n      swap1\n      pop\n        /* \"#utility.yul\":21213:21311   */\n      swap2\n      swap1\n      pop\n      jump\t// out\n        /* \"#utility.yul\":21317:21485   */\n    tag_369:\n        /* \"#utility.yul\":21400:21411   */\n      0x00\n        /* \"#utility.yul\":21434:21440   */\n      dup3\n        /* \"#utility.yul\":21429:21432   */\n      dup3\n        /* \"#utility.yul\":21422:21441   */\n      mstore\n        /* \"#utility.yul\":21474:21478   */\n      0x20\n        /* \"#utility.yul\":21469:21472   */\n      dup3\n        /* \"#utility.yul\":21465:21479   */\n      add\n        /* \"#utility.yul\":21450:21479   */\n      swap1\n      pop\n        /* \"#utility.yul\":21317:21485   */\n      swap3\n      swap2\n      pop\n      pop\n      jump\t// out\n        /* \"#utility.yul\":21491:21864   */\n    tag_370:\n        /* \"#utility.yul\":21577:21580   */\n      0x00\n        /* \"#utility.yul\":21605:21643   */\n      tag_607\n        /* \"#utility.yul\":21637:21642   */\n      dup3\n        /* \"#utility.yul\":21605:21643   */\n      tag_368\n      jump\t// in\n    tag_607:\n        /* \"#utility.yul\":21659:21729   */\n      tag_608\n        /* \"#utility.yul\":21722:21728   */\n      dup2\n        /* \"#utility.yul\":21717:21720   */\n      dup6\n        /* \"#utility.yul\":21659:21729   */\n      tag_369\n      jump\t// in\n    tag_608:\n        /* \"#utility.yul\":21652:21729   */\n      swap4\n      pop\n        /* \"#utility.yul\":21738:21803   */\n      tag_609\n        /* \"#utility.yul\":21796:21802   */\n      dup2\n        /* \"#utility.yul\":21791:21794   */\n      dup6\n        /* \"#utility.yul\":21784:21788   */\n      0x20\n        /* \"#utility.yul\":21777:21782   */\n      dup7\n        /* \"#utility.yul\":21773:21789   */\n      add\n        /* \"#utility.yul\":21738:21803   */\n      tag_322\n      jump\t// in\n    tag_609:\n        /* \"#utility.yul\":21828:21857   */\n      tag_610\n        /* \"#utility.yul\":21850:21856   */\n      dup2\n        /* \"#utility.yul\":21828:21857   */\n      tag_323\n      jump\t// in\n    tag_610:\n        /* \"#utility.yul\":21823:21826   */\n      dup5\n        /* \"#utility.yul\":21819:21858   */\n      add\n        /* \"#utility.yul\":21812:21858   */\n      swap2\n      pop\n        /* \"#utility.yul\":21581:21864   */\n      pop\n        /* \"#utility.yul\":21491:21864   */\n      swap3\n      swap2\n      pop\n      pop\n      jump\t// out\n        /* \"#utility.yul\":21870:22510   */\n    tag_236:\n        /* \"#utility.yul\":22065:22069   */\n      0x00\n        /* \"#utility.yul\":22103:22106   */\n      0x80\n        /* \"#utility.yul\":22092:22101   */\n      dup3\n        /* \"#utility.yul\":22088:22107   */\n      add\n        /* \"#utility.yul\":22080:22107   */\n      swap1\n      pop\n        /* \"#utility.yul\":22117:22188   */\n      tag_612\n        /* \"#utility.yul\":22185:22186   */\n      0x00\n        /* \"#utility.yul\":22174:22183   */\n      dup4\n        /* \"#utility.yul\":22170:22187   */\n      add\n        /* \"#utility.yul\":22161:22167   */\n      dup8\n        /* \"#utility.yul\":22117:22188   */\n      tag_330\n      jump\t// in\n    tag_612:\n        /* \"#utility.yul\":22198:22270   */\n      tag_613\n        /* \"#utility.yul\":22266:22268   */\n      0x20\n        /* \"#utility.yul\":22255:22264   */\n      dup4\n        /* \"#utility.yul\":22251:22269   */\n      add\n        /* \"#utility.yul\":22242:22248   */\n      dup7\n        /* \"#utility.yul\":22198:22270   */\n      tag_330\n      jump\t// in\n    tag_613:\n        /* \"#utility.yul\":22280:22352   */\n      tag_614\n        /* \"#utility.yul\":22348:22350   */\n      0x40\n        /* \"#utility.yul\":22337:22346   */\n      dup4\n        /* \"#utility.yul\":22333:22351   */\n      add\n        /* \"#utility.yul\":22324:22330   */\n      dup6\n        /* \"#utility.yul\":22280:22352   */\n      tag_333\n      jump\t// in\n    tag_614:\n        /* \"#utility.yul\":22399:22408   */\n      dup2\n        /* \"#utility.yul\":22393:22397   */\n      dup2\n        /* \"#utility.yul\":22389:22409   */\n      sub\n        /* \"#utility.yul\":22384:22386   */\n      0x60\n        /* \"#utility.yul\":22373:22382   */\n      dup4\n        /* \"#utility.yul\":22369:22387   */\n      add\n        /* \"#utility.yul\":22362:22410   */\n      mstore\n        /* \"#utility.yul\":22427:22503   */\n      tag_615\n        /* \"#utility.yul\":22498:22502   */\n      dup2\n        /* \"#utility.yul\":22489:22495   */\n      dup5\n        /* \"#utility.yul\":22427:22503   */\n      tag_370\n      jump\t// in\n    tag_615:\n        /* \"#utility.yul\":22419:22503   */\n      swap1\n      pop\n        /* \"#utility.yul\":21870:22510   */\n      swap6\n      swap5\n      pop\n      pop\n      pop\n      pop\n      pop\n      jump\t// out\n        /* \"#utility.yul\":22516:22657   */\n    tag_371:\n        /* \"#utility.yul\":22572:22577   */\n      0x00\n        /* \"#utility.yul\":22603:22609   */\n      dup2\n        /* \"#utility.yul\":22597:22610   */\n      mload\n        /* \"#utility.yul\":22588:22610   */\n      swap1\n      pop\n        /* \"#utility.yul\":22619:22651   */\n      tag_617\n        /* \"#utility.yul\":22645:22650   */\n      dup2\n        /* \"#utility.yul\":22619:22651   */\n      tag_316\n      jump\t// in\n    tag_617:\n        /* \"#utility.yul\":22516:22657   */\n      swap3\n      swap2\n      pop\n      pop\n      jump\t// out\n        /* \"#utility.yul\":22663:23012   */\n    tag_239:\n        /* \"#utility.yul\":22732:22738   */\n      0x00\n        /* \"#utility.yul\":22781:22783   */\n      0x20\n        /* \"#utility.yul\":22769:22778   */\n      dup3\n        /* \"#utility.yul\":22760:22767   */\n      dup5\n        /* \"#utility.yul\":22756:22779   */\n      sub\n        /* \"#utility.yul\":22752:22784   */\n      slt\n        /* \"#utility.yul\":22749:22868   */\n      iszero\n      tag_619\n      jumpi\n        /* \"#utility.yul\":22787:22866   */\n      tag_620\n      tag_313\n      jump\t// in\n    tag_620:\n        /* \"#utility.yul\":22749:22868   */\n    tag_619:\n        /* \"#utility.yul\":22907:22908   */\n      0x00\n        /* \"#utility.yul\":22932:22995   */\n      tag_621\n        /* \"#utility.yul\":22987:22994   */\n      dup5\n        /* \"#utility.yul\":22978:22984   */\n      dup3\n        /* \"#utility.yul\":22967:22976   */\n      dup6\n        /* \"#utility.yul\":22963:22985   */\n      add\n        /* \"#utility.yul\":22932:22995   */\n      tag_371\n      jump\t// in\n    tag_621:\n        /* \"#utility.yul\":22922:22995   */\n      swap2\n      pop\n        /* \"#utility.yul\":22878:23005   */\n      pop\n        /* \"#utility.yul\":22663:23012   */\n      swap3\n      swap2\n      pop\n      pop\n      jump\t// out\n        /* \"#utility.yul\":23018:23198   */\n    tag_264:\n        /* \"#utility.yul\":23066:23143   */\n      0x4e487b7100000000000000000000000000000000000000000000000000000000\n        /* \"#utility.yul\":23063:23064   */\n      0x00\n        /* \"#utility.yul\":23056:23144   */\n      mstore\n        /* \"#utility.yul\":23163:23167   */\n      0x12\n        /* \"#utility.yul\":23160:23161   */\n      0x04\n        /* \"#utility.yul\":23153:23168   */\n      mstore\n        /* \"#utility.yul\":23187:23191   */\n      0x24\n        /* \"#utility.yul\":23184:23185   */\n      0x00\n        /* \"#utility.yul\":23177:23192   */\n      revert\n        /* \"#utility.yul\":23204:23536   */\n    tag_285:\n        /* \"#utility.yul\":23325:23329   */\n      0x00\n        /* \"#utility.yul\":23363:23365   */\n      0x40\n        /* \"#utility.yul\":23352:23361   */\n      dup3\n        /* \"#utility.yul\":23348:23366   */\n      add\n        /* \"#utility.yul\":23340:23366   */\n      swap1\n      pop\n        /* \"#utility.yul\":23376:23447   */\n      tag_624\n        /* \"#utility.yul\":23444:23445   */\n      0x00\n        /* \"#utility.yul\":23433:23442   */\n      dup4\n        /* \"#utility.yul\":23429:23446   */\n      add\n        /* \"#utility.yul\":23420:23426   */\n      dup6\n        /* \"#utility.yul\":23376:23447   */\n      tag_330\n      jump\t// in\n    tag_624:\n        /* \"#utility.yul\":23457:23529   */\n      tag_625\n        /* \"#utility.yul\":23525:23527   */\n      0x20\n        /* \"#utility.yul\":23514:23523   */\n      dup4\n        /* \"#utility.yul\":23510:23528   */\n      add\n        /* \"#utility.yul\":23501:23507   */\n      dup5\n        /* \"#utility.yul\":23457:23529   */\n      tag_333\n      jump\t// in\n    tag_625:\n        /* \"#utility.yul\":23204:23536   */\n      swap4\n      swap3\n      pop\n      pop\n      pop\n      jump\t// out\n\n    auxdata: 0xa264697066735822122041871d085443fbc1346d03ffcf0a3e3698fb80c4f9f46d6d3c7576f47909272d64736f6c634300081a0033\n}\n",
				"bytecode": {
					"linkReferences": {},
					"object": "60806040525f600855348015610013575f80fd5b50336040518060400160405280600b81526020017f54696b5472697847616d650000000000000000000000000000000000000000008152506040518060400160405280600b81526020017f54494b5452495847414d45000000000000000000000000000000000000000000815250815f908161008f9190610424565b50806001908161009f9190610424565b5050505f73ffffffffffffffffffffffffffffffffffffffff168173ffffffffffffffffffffffffffffffffffffffff1603610112575f6040517f1e4fbdf70000000000000000000000000000000000000000000000000000000081526004016101099190610532565b60405180910390fd5b6101218161012760201b60201c565b5061054b565b5f60065f9054906101000a900473ffffffffffffffffffffffffffffffffffffffff1690508160065f6101000a81548173ffffffffffffffffffffffffffffffffffffffff021916908373ffffffffffffffffffffffffffffffffffffffff1602179055508173ffffffffffffffffffffffffffffffffffffffff168173ffffffffffffffffffffffffffffffffffffffff167f8be0079c531659141344cd1fd0a4f28419497f9722a3daafe3b4186f6b6457e060405160405180910390a35050565b5f81519050919050565b7f4e487b71000000000000000000000000000000000000000000000000000000005f52604160045260245ffd5b7f4e487b71000000000000000000000000000000000000000000000000000000005f52602260045260245ffd5b5f600282049050600182168061026557607f821691505b60208210810361027857610277610221565b5b50919050565b5f819050815f5260205f209050919050565b5f6020601f8301049050919050565b5f82821b905092915050565b5f600883026102da7fffffffffffffffffffffffffffffffffffffffffffffffffffffffffffffffff8261029f565b6102e4868361029f565b95508019841693508086168417925050509392505050565b5f819050919050565b5f819050919050565b5f61032861032361031e846102fc565b610305565b6102fc565b9050919050565b5f819050919050565b6103418361030e565b61035561034d8261032f565b8484546102ab565b825550505050565b5f90565b61036961035d565b610374818484610338565b505050565b5b818110156103975761038c5f82610361565b60018101905061037a565b5050565b601f8211156103dc576103ad8161027e565b6103b684610290565b810160208510156103c5578190505b6103d96103d185610290565b830182610379565b50505b505050565b5f82821c905092915050565b5f6103fc5f19846008026103e1565b1980831691505092915050565b5f61041483836103ed565b9150826002028217905092915050565b61042d826101ea565b67ffffffffffffffff811115610446576104456101f4565b5b610450825461024e565b61045b82828561039b565b5f60209050601f83116001811461048c575f841561047a578287015190505b6104848582610409565b8655506104eb565b601f19841661049a8661027e565b5f5b828110156104c15784890151825560018201915060208501945060208101905061049c565b868310156104de57848901516104da601f8916826103ed565b8355505b6001600288020188555050505b505050505050565b5f73ffffffffffffffffffffffffffffffffffffffff82169050919050565b5f61051c826104f3565b9050919050565b61052c81610512565b82525050565b5f6020820190506105455f830184610523565b92915050565b6126bf806105585f395ff3fe608060405234801561000f575f80fd5b5060043610610114575f3560e01c806370a08231116100a0578063a22cb4651161006f578063a22cb465146102f2578063b88d4fde1461030e578063c87b56dd1461032a578063e985e9c51461035a578063f2fde38b1461038a57610114565b806370a082311461027c578063715018a6146102ac5780638da5cb5b146102b657806395d89b41146102d457610114565b80631a3cd59a116100e75780631a3cd59a146101b257806323b872dd146101e457806342842e0e1461020057806361420e8c1461021c5780636352211e1461024c57610114565b806301ffc9a71461011857806306fdde0314610148578063081812fc14610166578063095ea7b314610196575b5f80fd5b610132600480360381019061012d9190611a6c565b6103a6565b60405161013f9190611ab1565b60405180910390f35b610150610487565b60405161015d9190611b3a565b60405180910390f35b610180600480360381019061017b9190611b8d565b610516565b60405161018d9190611bf7565b60405180910390f35b6101b060048036038101906101ab9190611c3a565b610531565b005b6101cc60048036038101906101c79190611b8d565b610547565b6040516101db93929190611c87565b60405180910390f35b6101fe60048036038101906101f99190611cc3565b61068b565b005b61021a60048036038101906102159190611cc3565b61078a565b005b61023660048036038101906102319190611e3f565b6107a9565b6040516102439190611eab565b60405180910390f35b61026660048036038101906102619190611b8d565b610879565b6040516102739190611bf7565b60405180910390f35b61029660048036038101906102919190611ec4565b61088a565b6040516102a39190611eab565b60405180910390f35b6102b4610940565b005b6102be610953565b6040516102cb9190611bf7565b60405180910390f35b6102dc61097b565b6040516102e99190611b3a565b60405180910390f35b61030c60048036038101906103079190611f19565b610a0b565b005b61032860048036038101906103239190611ff5565b610a21565b005b610344600480360381019061033f9190611b8d565b610a3e565b6040516103519190611b3a565b60405180910390f35b610374600480360381019061036f9190612075565b610aa4565b6040516103819190611ab1565b60405180910390f35b6103a4600480360381019061039f9190611ec4565b610b32565b005b5f7f80ac58cd000000000000000000000000000000000000000000000000000000007bffffffffffffffffffffffffffffffffffffffffffffffffffffffff1916827bffffffffffffffffffffffffffffffffffffffffffffffffffffffff1916148061047057507f5b5e139f000000000000000000000000000000000000000000000000000000007bffffffffffffffffffffffffffffffffffffffffffffffffffffffff1916827bffffffffffffffffffffffffffffffffffffffffffffffffffffffff1916145b80610480575061047f82610bb6565b5b9050919050565b60605f8054610495906120e0565b80601f01602080910402602001604051908101604052809291908181526020018280546104c1906120e0565b801561050c5780601f106104e35761010080835404028352916020019161050c565b820191905f5260205f20905b8154815290600101906020018083116104ef57829003601f168201915b5050505050905090565b5f61052082610c1f565b5061052a82610ca5565b9050919050565b610543828261053e610cde565b610ce5565b5050565b5f8060605f60075f8681526020019081526020015f20600201805461056b906120e0565b9050116105ad576040517f08c379a00000000000000000000000000000000000000000000000000000000081526004016105a490612180565b60405180910390fd5b5f60075f8681526020019081526020015f206040518060600160405290815f8201548152602001600182015481526020016002820180546105ed906120e0565b80601f0160208091040260200160405190810160405280929190818152602001828054610619906120e0565b80156106645780601f1061063b57610100808354040283529160200191610664565b820191905f5260205f20905b81548152906001019060200180831161064757829003601f168201915b5050505050815250509050805f015181602001518260400151935093509350509193909250565b5f73ffffffffffffffffffffffffffffffffffffffff168273ffffffffffffffffffffffffffffffffffffffff16036106fb575f6040517f64a0ae920000000000000000000000000000000000000000000000000000000081526004016106f29190611bf7565b60405180910390fd5b5f61070e8383610709610cde565b610cf7565b90508373ffffffffffffffffffffffffffffffffffffffff168173ffffffffffffffffffffffffffffffffffffffff1614610784578382826040517f64283d7b00000000000000000000000000000000000000000000000000000000815260040161077b9392919061219e565b60405180910390fd5b50505050565b6107a483838360405180602001604052805f815250610a21565b505050565b5f6107b2610f02565b60085f8154809291906107c490612200565b919050555060405180606001604052808581526020018481526020018381525060075f60085481526020019081526020015f205f820151815f015560208201518160010155604082015181600201908161081e91906123e4565b5090505061082e33600854610f89565b7f813bea0b43372a62c6bf828f8c0493583a52baac12d64f2929d960937874866f60085485858560405161086594939291906124b3565b60405180910390a160085490509392505050565b5f61088382610c1f565b9050919050565b5f8073ffffffffffffffffffffffffffffffffffffffff168273ffffffffffffffffffffffffffffffffffffffff16036108fb575f6040517f89c62b640000000000000000000000000000000000000000000000000000000081526004016108f29190611bf7565b60405180910390fd5b60035f8373ffffffffffffffffffffffffffffffffffffffff1673ffffffffffffffffffffffffffffffffffffffff1681526020019081526020015f20549050919050565b610948610f02565b6109515f61107c565b565b5f60065f9054906101000a900473ffffffffffffffffffffffffffffffffffffffff16905090565b60606001805461098a906120e0565b80601f01602080910402602001604051908101604052809291908181526020018280546109b6906120e0565b8015610a015780601f106109d857610100808354040283529160200191610a01565b820191905f5260205f20905b8154815290600101906020018083116109e457829003601f168201915b5050505050905090565b610a1d610a16610cde565b838361113f565b5050565b610a2c84848461068b565b610a38848484846112a8565b50505050565b6060610a4982610c1f565b505f610a5361145a565b90505f815111610a715760405180602001604052805f815250610a9c565b80610a7b84611470565b604051602001610a8c929190612537565b6040516020818303038152906040525b915050919050565b5f60055f8473ffffffffffffffffffffffffffffffffffffffff1673ffffffffffffffffffffffffffffffffffffffff1681526020019081526020015f205f8373ffffffffffffffffffffffffffffffffffffffff1673ffffffffffffffffffffffffffffffffffffffff1681526020019081526020015f205f9054906101000a900460ff16905092915050565b610b3a610f02565b5f73ffffffffffffffffffffffffffffffffffffffff168173ffffffffffffffffffffffffffffffffffffffff1603610baa575f6040517f1e4fbdf7000000000000000000000000000000000000000000000000000000008152600401610ba19190611bf7565b60405180910390fd5b610bb38161107c565b50565b5f7f01ffc9a7000000000000000000000000000000000000000000000000000000007bffffffffffffffffffffffffffffffffffffffffffffffffffffffff1916827bffffffffffffffffffffffffffffffffffffffffffffffffffffffff1916149050919050565b5f80610c2a8361153a565b90505f73ffffffffffffffffffffffffffffffffffffffff168173ffffffffffffffffffffffffffffffffffffffff1603610c9c57826040517f7e273289000000000000000000000000000000000000000000000000000000008152600401610c939190611eab565b60405180910390fd5b80915050919050565b5f60045f8381526020019081526020015f205f9054906101000a900473ffffffffffffffffffffffffffffffffffffffff169050919050565b5f33905090565b610cf28383836001611573565b505050565b5f80610d028461153a565b90505f73ffffffffffffffffffffffffffffffffffffffff168373ffffffffffffffffffffffffffffffffffffffff1614610d4357610d42818486611732565b5b5f73ffffffffffffffffffffffffffffffffffffffff168173ffffffffffffffffffffffffffffffffffffffff1614610dce57610d825f855f80611573565b600160035f8373ffffffffffffffffffffffffffffffffffffffff1673ffffffffffffffffffffffffffffffffffffffff1681526020019081526020015f205f82825403925050819055505b5f73ffffffffffffffffffffffffffffffffffffffff168573ffffffffffffffffffffffffffffffffffffffff1614610e4d57600160035f8773ffffffffffffffffffffffffffffffffffffffff1673ffffffffffffffffffffffffffffffffffffffff1681526020019081526020015f205f82825401925050819055505b8460025f8681526020019081526020015f205f6101000a81548173ffffffffffffffffffffffffffffffffffffffff021916908373ffffffffffffffffffffffffffffffffffffffff160217905550838573ffffffffffffffffffffffffffffffffffffffff168273ffffffffffffffffffffffffffffffffffffffff167fddf252ad1be2c89b69c2b068fc378daa952ba7f163c4a11628f55a4df523b3ef60405160405180910390a4809150509392505050565b610f0a610cde565b73ffffffffffffffffffffffffffffffffffffffff16610f28610953565b73ffffffffffffffffffffffffffffffffffffffff1614610f8757610f4b610cde565b6040517f118cdaa7000000000000000000000000000000000000000000000000000000008152600401610f7e9190611bf7565b60405180910390fd5b565b5f73ffffffffffffffffffffffffffffffffffffffff168273ffffffffffffffffffffffffffffffffffffffff1603610ff9575f6040517f64a0ae92000000000000000000000000000000000000000000000000000000008152600401610ff09190611bf7565b60405180910390fd5b5f61100583835f610cf7565b90505f73ffffffffffffffffffffffffffffffffffffffff168173ffffffffffffffffffffffffffffffffffffffff1614611077575f6040517f73c6ac6e00000000000000000000000000000000000000000000000000000000815260040161106e9190611bf7565b60405180910390fd5b505050565b5f60065f9054906101000a900473ffffffffffffffffffffffffffffffffffffffff1690508160065f6101000a81548173ffffffffffffffffffffffffffffffffffffffff021916908373ffffffffffffffffffffffffffffffffffffffff1602179055508173ffffffffffffffffffffffffffffffffffffffff168173ffffffffffffffffffffffffffffffffffffffff167f8be0079c531659141344cd1fd0a4f28419497f9722a3daafe3b4186f6b6457e060405160405180910390a35050565b5f73ffffffffffffffffffffffffffffffffffffffff168273ffffffffffffffffffffffffffffffffffffffff16036111af57816040517f5b08ba180000000000000000000000000000000000000000000000000000000081526004016111a69190611bf7565b60405180910390fd5b8060055f8573ffffffffffffffffffffffffffffffffffffffff1673ffffffffffffffffffffffffffffffffffffffff1681526020019081526020015f205f8473ffffffffffffffffffffffffffffffffffffffff1673ffffffffffffffffffffffffffffffffffffffff1681526020019081526020015f205f6101000a81548160ff0219169083151502179055508173ffffffffffffffffffffffffffffffffffffffff168373ffffffffffffffffffffffffffffffffffffffff167f17307eab39ab6107e8899845ad3d59bd9653f200f220920489ca2b5937696c318360405161129b9190611ab1565b60405180910390a3505050565b5f8373ffffffffffffffffffffffffffffffffffffffff163b1115611454578273ffffffffffffffffffffffffffffffffffffffff1663150b7a026112eb610cde565b8685856040518563ffffffff1660e01b815260040161130d94939291906125ac565b6020604051808303815f875af192505050801561134857506040513d601f19601f82011682018060405250810190611345919061260a565b60015b6113c9573d805f8114611376576040519150601f19603f3d011682016040523d82523d5f602084013e61137b565b606091505b505f8151036113c157836040517f64a0ae920000000000000000000000000000000000000000000000000000000081526004016113b89190611bf7565b60405180910390fd5b805181602001fd5b63150b7a0260e01b7bffffffffffffffffffffffffffffffffffffffffffffffffffffffff1916817bffffffffffffffffffffffffffffffffffffffffffffffffffffffff19161461145257836040517f64a0ae920000000000000000000000000000000000000000000000000000000081526004016114499190611bf7565b60405180910390fd5b505b50505050565b606060405180602001604052805f815250905090565b60605f600161147e846117f5565b0190505f8167ffffffffffffffff81111561149c5761149b611d1b565b5b6040519080825280601f01601f1916602001820160405280156114ce5781602001600182028036833780820191505090505b5090505f82602001820190505b60011561152f578080600190039150507f3031323334353637383961626364656600000000000000000000000000000000600a86061a8153600a858161152457611523612635565b5b0494505f85036114db575b819350505050919050565b5f60025f8381526020019081526020015f205f9054906101000a900473ffffffffffffffffffffffffffffffffffffffff169050919050565b80806115ab57505f73ffffffffffffffffffffffffffffffffffffffff168273ffffffffffffffffffffffffffffffffffffffff1614155b156116dd575f6115ba84610c1f565b90505f73ffffffffffffffffffffffffffffffffffffffff168373ffffffffffffffffffffffffffffffffffffffff161415801561162457508273ffffffffffffffffffffffffffffffffffffffff168173ffffffffffffffffffffffffffffffffffffffff1614155b801561163757506116358184610aa4565b155b1561167957826040517fa9fbf51f0000000000000000000000000000000000000000000000000000000081526004016116709190611bf7565b60405180910390fd5b81156116db57838573ffffffffffffffffffffffffffffffffffffffff168273ffffffffffffffffffffffffffffffffffffffff167f8c5be1e5ebec7d5bd14f71427d1e84f3dd0314c0f7b2291e5b200ac8c7c3b92560405160405180910390a45b505b8360045f8581526020019081526020015f205f6101000a81548173ffffffffffffffffffffffffffffffffffffffff021916908373ffffffffffffffffffffffffffffffffffffffff16021790555050505050565b61173d838383611946565b6117f0575f73ffffffffffffffffffffffffffffffffffffffff168373ffffffffffffffffffffffffffffffffffffffff16036117b157806040517f7e2732890000000000000000000000000000000000000000000000000000000081526004016117a89190611eab565b60405180910390fd5b81816040517f177e802f0000000000000000000000000000000000000000000000000000000081526004016117e7929190612662565b60405180910390fd5b505050565b5f805f90507a184f03e93ff9f4daa797ed6e38ed64bf6a1f0100000000000000008310611851577a184f03e93ff9f4daa797ed6e38ed64bf6a1f010000000000000000838161184757611846612635565b5b0492506040810190505b6d04ee2d6d415b85acef8100000000831061188e576d04ee2d6d415b85acef8100000000838161188457611883612635565b5b0492506020810190505b662386f26fc1000083106118bd57662386f26fc1000083816118b3576118b2612635565b5b0492506010810190505b6305f5e10083106118e6576305f5e10083816118dc576118db612635565b5b0492506008810190505b612710831061190b57612710838161190157611900612635565b5b0492506004810190505b6064831061192e576064838161192457611923612635565b5b0492506002810190505b600a831061193d576001810190505b80915050919050565b5f8073ffffffffffffffffffffffffffffffffffffffff168373ffffffffffffffffffffffffffffffffffffffff16141580156119fd57508273ffffffffffffffffffffffffffffffffffffffff168473ffffffffffffffffffffffffffffffffffffffff1614806119be57506119bd8484610aa4565b5b806119fc57508273ffffffffffffffffffffffffffffffffffffffff166119e483610ca5565b73ffffffffffffffffffffffffffffffffffffffff16145b5b90509392505050565b5f604051905090565b5f80fd5b5f80fd5b5f7fffffffff0000000000000000000000000000000000000000000000000000000082169050919050565b611a4b81611a17565b8114611a55575f80fd5b50565b5f81359050611a6681611a42565b92915050565b5f60208284031215611a8157611a80611a0f565b5b5f611a8e84828501611a58565b91505092915050565b5f8115159050919050565b611aab81611a97565b82525050565b5f602082019050611ac45f830184611aa2565b92915050565b5f81519050919050565b5f82825260208201905092915050565b8281835e5f83830152505050565b5f601f19601f8301169050919050565b5f611b0c82611aca565b611b168185611ad4565b9350611b26818560208601611ae4565b611b2f81611af2565b840191505092915050565b5f6020820190508181035f830152611b528184611b02565b905092915050565b5f819050919050565b611b6c81611b5a565b8114611b76575f80fd5b50565b5f81359050611b8781611b63565b92915050565b5f60208284031215611ba257611ba1611a0f565b5b5f611baf84828501611b79565b91505092915050565b5f73ffffffffffffffffffffffffffffffffffffffff82169050919050565b5f611be182611bb8565b9050919050565b611bf181611bd7565b82525050565b5f602082019050611c0a5f830184611be8565b92915050565b611c1981611bd7565b8114611c23575f80fd5b50565b5f81359050611c3481611c10565b92915050565b5f8060408385031215611c5057611c4f611a0f565b5b5f611c5d85828601611c26565b9250506020611c6e85828601611b79565b9150509250929050565b611c8181611b5a565b82525050565b5f606082019050611c9a5f830186611c78565b611ca76020830185611c78565b8181036040830152611cb98184611b02565b9050949350505050565b5f805f60608486031215611cda57611cd9611a0f565b5b5f611ce786828701611c26565b9350506020611cf886828701611c26565b9250506040611d0986828701611b79565b9150509250925092565b5f80fd5b5f80fd5b7f4e487b71000000000000000000000000000000000000000000000000000000005f52604160045260245ffd5b611d5182611af2565b810181811067ffffffffffffffff82111715611d7057611d6f611d1b565b5b80604052505050565b5f611d82611a06565b9050611d8e8282611d48565b919050565b5f67ffffffffffffffff821115611dad57611dac611d1b565b5b611db682611af2565b9050602081019050919050565b828183375f83830152505050565b5f611de3611dde84611d93565b611d79565b905082815260208101848484011115611dff57611dfe611d17565b5b611e0a848285611dc3565b509392505050565b5f82601f830112611e2657611e25611d13565b5b8135611e36848260208601611dd1565b91505092915050565b5f805f60608486031215611e5657611e55611a0f565b5b5f611e6386828701611b79565b9350506020611e7486828701611b79565b925050604084013567ffffffffffffffff811115611e9557611e94611a13565b5b611ea186828701611e12565b9150509250925092565b5f602082019050611ebe5f830184611c78565b92915050565b5f60208284031215611ed957611ed8611a0f565b5b5f611ee684828501611c26565b91505092915050565b611ef881611a97565b8114611f02575f80fd5b50565b5f81359050611f1381611eef565b92915050565b5f8060408385031215611f2f57611f2e611a0f565b5b5f611f3c85828601611c26565b9250506020611f4d85828601611f05565b9150509250929050565b5f67ffffffffffffffff821115611f7157611f70611d1b565b5b611f7a82611af2565b9050602081019050919050565b5f611f99611f9484611f57565b611d79565b905082815260208101848484011115611fb557611fb4611d17565b5b611fc0848285611dc3565b509392505050565b5f82601f830112611fdc57611fdb611d13565b5b8135611fec848260208601611f87565b91505092915050565b5f805f806080858703121561200d5761200c611a0f565b5b5f61201a87828801611c26565b945050602061202b87828801611c26565b935050604061203c87828801611b79565b925050606085013567ffffffffffffffff81111561205d5761205c611a13565b5b61206987828801611fc8565b91505092959194509250565b5f806040838503121561208b5761208a611a0f565b5b5f61209885828601611c26565b92505060206120a985828601611c26565b9150509250929050565b7f4e487b71000000000000000000000000000000000000000000000000000000005f52602260045260245ffd5b5f60028204905060018216806120f757607f821691505b60208210810361210a576121096120b3565b5b50919050565b7f47616d6552656769737472793a20517565727920666f72206e6f6e65786973745f8201527f656e7420746f6b656e0000000000000000000000000000000000000000000000602082015250565b5f61216a602983611ad4565b915061217582612110565b604082019050919050565b5f6020820190508181035f8301526121978161215e565b9050919050565b5f6060820190506121b15f830186611be8565b6121be6020830185611c78565b6121cb6040830184611be8565b949350505050565b7f4e487b71000000000000000000000000000000000000000000000000000000005f52601160045260245ffd5b5f61220a82611b5a565b91507fffffffffffffffffffffffffffffffffffffffffffffffffffffffffffffffff820361223c5761223b6121d3565b5b600182019050919050565b5f819050815f5260205f209050919050565b5f6020601f8301049050919050565b5f82821b905092915050565b5f600883026122a37fffffffffffffffffffffffffffffffffffffffffffffffffffffffffffffffff82612268565b6122ad8683612268565b95508019841693508086168417925050509392505050565b5f819050919050565b5f6122e86122e36122de84611b5a565b6122c5565b611b5a565b9050919050565b5f819050919050565b612301836122ce565b61231561230d826122ef565b848454612274565b825550505050565b5f90565b61232961231d565b6123348184846122f8565b505050565b5b818110156123575761234c5f82612321565b60018101905061233a565b5050565b601f82111561239c5761236d81612247565b61237684612259565b81016020851015612385578190505b61239961239185612259565b830182612339565b50505b505050565b5f82821c905092915050565b5f6123bc5f19846008026123a1565b1980831691505092915050565b5f6123d483836123ad565b9150826002028217905092915050565b6123ed82611aca565b67ffffffffffffffff81111561240657612405611d1b565b5b61241082546120e0565b61241b82828561235b565b5f60209050601f83116001811461244c575f841561243a578287015190505b61244485826123c9565b8655506124ab565b601f19841661245a86612247565b5f5b828110156124815784890151825560018201915060208501945060208101905061245c565b8683101561249e578489015161249a601f8916826123ad565b8355505b6001600288020188555050505b505050505050565b5f6080820190506124c65f830187611c78565b6124d36020830186611c78565b6124e06040830185611c78565b81810360608301526124f28184611b02565b905095945050505050565b5f81905092915050565b5f61251182611aca565b61251b81856124fd565b935061252b818560208601611ae4565b80840191505092915050565b5f6125428285612507565b915061254e8284612507565b91508190509392505050565b5f81519050919050565b5f82825260208201905092915050565b5f61257e8261255a565b6125888185612564565b9350612598818560208601611ae4565b6125a181611af2565b840191505092915050565b5f6080820190506125bf5f830187611be8565b6125cc6020830186611be8565b6125d96040830185611c78565b81810360608301526125eb8184612574565b905095945050505050565b5f8151905061260481611a42565b92915050565b5f6020828403121561261f5761261e611a0f565b5b5f61262c848285016125f6565b91505092915050565b7f4e487b71000000000000000000000000000000000000000000000000000000005f52601260045260245ffd5b5f6040820190506126755f830185611be8565b6126826020830184611c78565b939250505056fea264697066735822122041871d085443fbc1346d03ffcf0a3e3698fb80c4f9f46d6d3c7576f47909272d64736f6c634300081a0033",
					"opcodes": "PUSH1 0x80 PUSH1 0x40 MSTORE PUSH0 PUSH1 0x8 SSTORE CALLVALUE DUP1 ISZERO PUSH2 0x13 JUMPI PUSH0 DUP1 REVERT JUMPDEST POP CALLER PUSH1 0x40 MLOAD DUP1 PUSH1 0x40 ADD PUSH1 0x40 MSTORE DUP1 PUSH1 0xB DUP2 MSTORE PUSH1 0x20 ADD PUSH32 0x54696B5472697847616D65000000000000000000000000000000000000000000 DUP2 MSTORE POP PUSH1 0x40 MLOAD DUP1 PUSH1 0x40 ADD PUSH1 0x40 MSTORE DUP1 PUSH1 0xB DUP2 MSTORE PUSH1 0x20 ADD PUSH32 0x54494B5452495847414D45000000000000000000000000000000000000000000 DUP2 MSTORE POP DUP2 PUSH0 SWAP1 DUP2 PUSH2 0x8F SWAP2 SWAP1 PUSH2 0x424 JUMP JUMPDEST POP DUP1 PUSH1 0x1 SWAP1 DUP2 PUSH2 0x9F SWAP2 SWAP1 PUSH2 0x424 JUMP JUMPDEST POP POP POP PUSH0 PUSH20 0xFFFFFFFFFFFFFFFFFFFFFFFFFFFFFFFFFFFFFFFF AND DUP2 PUSH20 0xFFFFFFFFFFFFFFFFFFFFFFFFFFFFFFFFFFFFFFFF AND SUB PUSH2 0x112 JUMPI PUSH0 PUSH1 0x40 MLOAD PUSH32 0x1E4FBDF700000000000000000000000000000000000000000000000000000000 DUP2 MSTORE PUSH1 0x4 ADD PUSH2 0x109 SWAP2 SWAP1 PUSH2 0x532 JUMP JUMPDEST PUSH1 0x40 MLOAD DUP1 SWAP2 SUB SWAP1 REVERT JUMPDEST PUSH2 0x121 DUP2 PUSH2 0x127 PUSH1 0x20 SHL PUSH1 0x20 SHR JUMP JUMPDEST POP PUSH2 0x54B JUMP JUMPDEST PUSH0 PUSH1 0x6 PUSH0 SWAP1 SLOAD SWAP1 PUSH2 0x100 EXP SWAP1 DIV PUSH20 0xFFFFFFFFFFFFFFFFFFFFFFFFFFFFFFFFFFFFFFFF AND SWAP1 POP DUP2 PUSH1 0x6 PUSH0 PUSH2 0x100 EXP DUP2 SLOAD DUP2 PUSH20 0xFFFFFFFFFFFFFFFFFFFFFFFFFFFFFFFFFFFFFFFF MUL NOT AND SWAP1 DUP4 PUSH20 0xFFFFFFFFFFFFFFFFFFFFFFFFFFFFFFFFFFFFFFFF AND MUL OR SWAP1 SSTORE POP DUP2 PUSH20 0xFFFFFFFFFFFFFFFFFFFFFFFFFFFFFFFFFFFFFFFF AND DUP2 PUSH20 0xFFFFFFFFFFFFFFFFFFFFFFFFFFFFFFFFFFFFFFFF AND PUSH32 0x8BE0079C531659141344CD1FD0A4F28419497F9722A3DAAFE3B4186F6B6457E0 PUSH1 0x40 MLOAD PUSH1 0x40 MLOAD DUP1 SWAP2 SUB SWAP1 LOG3 POP POP JUMP JUMPDEST PUSH0 DUP2 MLOAD SWAP1 POP SWAP2 SWAP1 POP JUMP JUMPDEST PUSH32 0x4E487B7100000000000000000000000000000000000000000000000000000000 PUSH0 MSTORE PUSH1 0x41 PUSH1 0x4 MSTORE PUSH1 0x24 PUSH0 REVERT JUMPDEST PUSH32 0x4E487B7100000000000000000000000000000000000000000000000000000000 PUSH0 MSTORE PUSH1 0x22 PUSH1 0x4 MSTORE PUSH1 0x24 PUSH0 REVERT JUMPDEST PUSH0 PUSH1 0x2 DUP3 DIV SWAP1 POP PUSH1 0x1 DUP3 AND DUP1 PUSH2 0x265 JUMPI PUSH1 0x7F DUP3 AND SWAP2 POP JUMPDEST PUSH1 0x20 DUP3 LT DUP2 SUB PUSH2 0x278 JUMPI PUSH2 0x277 PUSH2 0x221 JUMP JUMPDEST JUMPDEST POP SWAP2 SWAP1 POP JUMP JUMPDEST PUSH0 DUP2 SWAP1 POP DUP2 PUSH0 MSTORE PUSH1 0x20 PUSH0 KECCAK256 SWAP1 POP SWAP2 SWAP1 POP JUMP JUMPDEST PUSH0 PUSH1 0x20 PUSH1 0x1F DUP4 ADD DIV SWAP1 POP SWAP2 SWAP1 POP JUMP JUMPDEST PUSH0 DUP3 DUP3 SHL SWAP1 POP SWAP3 SWAP2 POP POP JUMP JUMPDEST PUSH0 PUSH1 0x8 DUP4 MUL PUSH2 0x2DA PUSH32 0xFFFFFFFFFFFFFFFFFFFFFFFFFFFFFFFFFFFFFFFFFFFFFFFFFFFFFFFFFFFFFFFF DUP3 PUSH2 0x29F JUMP JUMPDEST PUSH2 0x2E4 DUP7 DUP4 PUSH2 0x29F JUMP JUMPDEST SWAP6 POP DUP1 NOT DUP5 AND SWAP4 POP DUP1 DUP7 AND DUP5 OR SWAP3 POP POP POP SWAP4 SWAP3 POP POP POP JUMP JUMPDEST PUSH0 DUP2 SWAP1 POP SWAP2 SWAP1 POP JUMP JUMPDEST PUSH0 DUP2 SWAP1 POP SWAP2 SWAP1 POP JUMP JUMPDEST PUSH0 PUSH2 0x328 PUSH2 0x323 PUSH2 0x31E DUP5 PUSH2 0x2FC JUMP JUMPDEST PUSH2 0x305 JUMP JUMPDEST PUSH2 0x2FC JUMP JUMPDEST SWAP1 POP SWAP2 SWAP1 POP JUMP JUMPDEST PUSH0 DUP2 SWAP1 POP SWAP2 SWAP1 POP JUMP JUMPDEST PUSH2 0x341 DUP4 PUSH2 0x30E JUMP JUMPDEST PUSH2 0x355 PUSH2 0x34D DUP3 PUSH2 0x32F JUMP JUMPDEST DUP5 DUP5 SLOAD PUSH2 0x2AB JUMP JUMPDEST DUP3 SSTORE POP POP POP POP JUMP JUMPDEST PUSH0 SWAP1 JUMP JUMPDEST PUSH2 0x369 PUSH2 0x35D JUMP JUMPDEST PUSH2 0x374 DUP2 DUP5 DUP5 PUSH2 0x338 JUMP JUMPDEST POP POP POP JUMP JUMPDEST JUMPDEST DUP2 DUP2 LT ISZERO PUSH2 0x397 JUMPI PUSH2 0x38C PUSH0 DUP3 PUSH2 0x361 JUMP JUMPDEST PUSH1 0x1 DUP2 ADD SWAP1 POP PUSH2 0x37A JUMP JUMPDEST POP POP JUMP JUMPDEST PUSH1 0x1F DUP3 GT ISZERO PUSH2 0x3DC JUMPI PUSH2 0x3AD DUP2 PUSH2 0x27E JUMP JUMPDEST PUSH2 0x3B6 DUP5 PUSH2 0x290 JUMP JUMPDEST DUP2 ADD PUSH1 0x20 DUP6 LT ISZERO PUSH2 0x3C5 JUMPI DUP2 SWAP1 POP JUMPDEST PUSH2 0x3D9 PUSH2 0x3D1 DUP6 PUSH2 0x290 JUMP JUMPDEST DUP4 ADD DUP3 PUSH2 0x379 JUMP JUMPDEST POP POP JUMPDEST POP POP POP JUMP JUMPDEST PUSH0 DUP3 DUP3 SHR SWAP1 POP SWAP3 SWAP2 POP POP JUMP JUMPDEST PUSH0 PUSH2 0x3FC PUSH0 NOT DUP5 PUSH1 0x8 MUL PUSH2 0x3E1 JUMP JUMPDEST NOT DUP1 DUP4 AND SWAP2 POP POP SWAP3 SWAP2 POP POP JUMP JUMPDEST PUSH0 PUSH2 0x414 DUP4 DUP4 PUSH2 0x3ED JUMP JUMPDEST SWAP2 POP DUP3 PUSH1 0x2 MUL DUP3 OR SWAP1 POP SWAP3 SWAP2 POP POP JUMP JUMPDEST PUSH2 0x42D DUP3 PUSH2 0x1EA JUMP JUMPDEST PUSH8 0xFFFFFFFFFFFFFFFF DUP2 GT ISZERO PUSH2 0x446 JUMPI PUSH2 0x445 PUSH2 0x1F4 JUMP JUMPDEST JUMPDEST PUSH2 0x450 DUP3 SLOAD PUSH2 0x24E JUMP JUMPDEST PUSH2 0x45B DUP3 DUP3 DUP6 PUSH2 0x39B JUMP JUMPDEST PUSH0 PUSH1 0x20 SWAP1 POP PUSH1 0x1F DUP4 GT PUSH1 0x1 DUP2 EQ PUSH2 0x48C JUMPI PUSH0 DUP5 ISZERO PUSH2 0x47A JUMPI DUP3 DUP8 ADD MLOAD SWAP1 POP JUMPDEST PUSH2 0x484 DUP6 DUP3 PUSH2 0x409 JUMP JUMPDEST DUP7 SSTORE POP PUSH2 0x4EB JUMP JUMPDEST PUSH1 0x1F NOT DUP5 AND PUSH2 0x49A DUP7 PUSH2 0x27E JUMP JUMPDEST PUSH0 JUMPDEST DUP3 DUP2 LT ISZERO PUSH2 0x4C1 JUMPI DUP5 DUP10 ADD MLOAD DUP3 SSTORE PUSH1 0x1 DUP3 ADD SWAP2 POP PUSH1 0x20 DUP6 ADD SWAP5 POP PUSH1 0x20 DUP2 ADD SWAP1 POP PUSH2 0x49C JUMP JUMPDEST DUP7 DUP4 LT ISZERO PUSH2 0x4DE JUMPI DUP5 DUP10 ADD MLOAD PUSH2 0x4DA PUSH1 0x1F DUP10 AND DUP3 PUSH2 0x3ED JUMP JUMPDEST DUP4 SSTORE POP JUMPDEST PUSH1 0x1 PUSH1 0x2 DUP9 MUL ADD DUP9 SSTORE POP POP POP JUMPDEST POP POP POP POP POP POP JUMP JUMPDEST PUSH0 PUSH20 0xFFFFFFFFFFFFFFFFFFFFFFFFFFFFFFFFFFFFFFFF DUP3 AND SWAP1 POP SWAP2 SWAP1 POP JUMP JUMPDEST PUSH0 PUSH2 0x51C DUP3 PUSH2 0x4F3 JUMP JUMPDEST SWAP1 POP SWAP2 SWAP1 POP JUMP JUMPDEST PUSH2 0x52C DUP2 PUSH2 0x512 JUMP JUMPDEST DUP3 MSTORE POP POP JUMP JUMPDEST PUSH0 PUSH1 0x20 DUP3 ADD SWAP1 POP PUSH2 0x545 PUSH0 DUP4 ADD DUP5 PUSH2 0x523 JUMP JUMPDEST SWAP3 SWAP2 POP POP JUMP JUMPDEST PUSH2 0x26BF DUP1 PUSH2 0x558 PUSH0 CODECOPY PUSH0 RETURN INVALID PUSH1 0x80 PUSH1 0x40 MSTORE CALLVALUE DUP1 ISZERO PUSH2 0xF JUMPI PUSH0 DUP1 REVERT JUMPDEST POP PUSH1 0x4 CALLDATASIZE LT PUSH2 0x114 JUMPI PUSH0 CALLDATALOAD PUSH1 0xE0 SHR DUP1 PUSH4 0x70A08231 GT PUSH2 0xA0 JUMPI DUP1 PUSH4 0xA22CB465 GT PUSH2 0x6F JUMPI DUP1 PUSH4 0xA22CB465 EQ PUSH2 0x2F2 JUMPI DUP1 PUSH4 0xB88D4FDE EQ PUSH2 0x30E JUMPI DUP1 PUSH4 0xC87B56DD EQ PUSH2 0x32A JUMPI DUP1 PUSH4 0xE985E9C5 EQ PUSH2 0x35A JUMPI DUP1 PUSH4 0xF2FDE38B EQ PUSH2 0x38A JUMPI PUSH2 0x114 JUMP JUMPDEST DUP1 PUSH4 0x70A08231 EQ PUSH2 0x27C JUMPI DUP1 PUSH4 0x715018A6 EQ PUSH2 0x2AC JUMPI DUP1 PUSH4 0x8DA5CB5B EQ PUSH2 0x2B6 JUMPI DUP1 PUSH4 0x95D89B41 EQ PUSH2 0x2D4 JUMPI PUSH2 0x114 JUMP JUMPDEST DUP1 PUSH4 0x1A3CD59A GT PUSH2 0xE7 JUMPI DUP1 PUSH4 0x1A3CD59A EQ PUSH2 0x1B2 JUMPI DUP1 PUSH4 0x23B872DD EQ PUSH2 0x1E4 JUMPI DUP1 PUSH4 0x42842E0E EQ PUSH2 0x200 JUMPI DUP1 PUSH4 0x61420E8C EQ PUSH2 0x21C JUMPI DUP1 PUSH4 0x6352211E EQ PUSH2 0x24C JUMPI PUSH2 0x114 JUMP JUMPDEST DUP1 PUSH4 0x1FFC9A7 EQ PUSH2 0x118 JUMPI DUP1 PUSH4 0x6FDDE03 EQ PUSH2 0x148 JUMPI DUP1 PUSH4 0x81812FC EQ PUSH2 0x166 JUMPI DUP1 PUSH4 0x95EA7B3 EQ PUSH2 0x196 JUMPI JUMPDEST PUSH0 DUP1 REVERT JUMPDEST PUSH2 0x132 PUSH1 0x4 DUP1 CALLDATASIZE SUB DUP2 ADD SWAP1 PUSH2 0x12D SWAP2 SWAP1 PUSH2 0x1A6C JUMP JUMPDEST PUSH2 0x3A6 JUMP JUMPDEST PUSH1 0x40 MLOAD PUSH2 0x13F SWAP2 SWAP1 PUSH2 0x1AB1 JUMP JUMPDEST PUSH1 0x40 MLOAD DUP1 SWAP2 SUB SWAP1 RETURN JUMPDEST PUSH2 0x150 PUSH2 0x487 JUMP JUMPDEST PUSH1 0x40 MLOAD PUSH2 0x15D SWAP2 SWAP1 PUSH2 0x1B3A JUMP JUMPDEST PUSH1 0x40 MLOAD DUP1 SWAP2 SUB SWAP1 RETURN JUMPDEST PUSH2 0x180 PUSH1 0x4 DUP1 CALLDATASIZE SUB DUP2 ADD SWAP1 PUSH2 0x17B SWAP2 SWAP1 PUSH2 0x1B8D JUMP JUMPDEST PUSH2 0x516 JUMP JUMPDEST PUSH1 0x40 MLOAD PUSH2 0x18D SWAP2 SWAP1 PUSH2 0x1BF7 JUMP JUMPDEST PUSH1 0x40 MLOAD DUP1 SWAP2 SUB SWAP1 RETURN JUMPDEST PUSH2 0x1B0 PUSH1 0x4 DUP1 CALLDATASIZE SUB DUP2 ADD SWAP1 PUSH2 0x1AB SWAP2 SWAP1 PUSH2 0x1C3A JUMP JUMPDEST PUSH2 0x531 JUMP JUMPDEST STOP JUMPDEST PUSH2 0x1CC PUSH1 0x4 DUP1 CALLDATASIZE SUB DUP2 ADD SWAP1 PUSH2 0x1C7 SWAP2 SWAP1 PUSH2 0x1B8D JUMP JUMPDEST PUSH2 0x547 JUMP JUMPDEST PUSH1 0x40 MLOAD PUSH2 0x1DB SWAP4 SWAP3 SWAP2 SWAP1 PUSH2 0x1C87 JUMP JUMPDEST PUSH1 0x40 MLOAD DUP1 SWAP2 SUB SWAP1 RETURN JUMPDEST PUSH2 0x1FE PUSH1 0x4 DUP1 CALLDATASIZE SUB DUP2 ADD SWAP1 PUSH2 0x1F9 SWAP2 SWAP1 PUSH2 0x1CC3 JUMP JUMPDEST PUSH2 0x68B JUMP JUMPDEST STOP JUMPDEST PUSH2 0x21A PUSH1 0x4 DUP1 CALLDATASIZE SUB DUP2 ADD SWAP1 PUSH2 0x215 SWAP2 SWAP1 PUSH2 0x1CC3 JUMP JUMPDEST PUSH2 0x78A JUMP JUMPDEST STOP JUMPDEST PUSH2 0x236 PUSH1 0x4 DUP1 CALLDATASIZE SUB DUP2 ADD SWAP1 PUSH2 0x231 SWAP2 SWAP1 PUSH2 0x1E3F JUMP JUMPDEST PUSH2 0x7A9 JUMP JUMPDEST PUSH1 0x40 MLOAD PUSH2 0x243 SWAP2 SWAP1 PUSH2 0x1EAB JUMP JUMPDEST PUSH1 0x40 MLOAD DUP1 SWAP2 SUB SWAP1 RETURN JUMPDEST PUSH2 0x266 PUSH1 0x4 DUP1 CALLDATASIZE SUB DUP2 ADD SWAP1 PUSH2 0x261 SWAP2 SWAP1 PUSH2 0x1B8D JUMP JUMPDEST PUSH2 0x879 JUMP JUMPDEST PUSH1 0x40 MLOAD PUSH2 0x273 SWAP2 SWAP1 PUSH2 0x1BF7 JUMP JUMPDEST PUSH1 0x40 MLOAD DUP1 SWAP2 SUB SWAP1 RETURN JUMPDEST PUSH2 0x296 PUSH1 0x4 DUP1 CALLDATASIZE SUB DUP2 ADD SWAP1 PUSH2 0x291 SWAP2 SWAP1 PUSH2 0x1EC4 JUMP JUMPDEST PUSH2 0x88A JUMP JUMPDEST PUSH1 0x40 MLOAD PUSH2 0x2A3 SWAP2 SWAP1 PUSH2 0x1EAB JUMP JUMPDEST PUSH1 0x40 MLOAD DUP1 SWAP2 SUB SWAP1 RETURN JUMPDEST PUSH2 0x2B4 PUSH2 0x940 JUMP JUMPDEST STOP JUMPDEST PUSH2 0x2BE PUSH2 0x953 JUMP JUMPDEST PUSH1 0x40 MLOAD PUSH2 0x2CB SWAP2 SWAP1 PUSH2 0x1BF7 JUMP JUMPDEST PUSH1 0x40 MLOAD DUP1 SWAP2 SUB SWAP1 RETURN JUMPDEST PUSH2 0x2DC PUSH2 0x97B JUMP JUMPDEST PUSH1 0x40 MLOAD PUSH2 0x2E9 SWAP2 SWAP1 PUSH2 0x1B3A JUMP JUMPDEST PUSH1 0x40 MLOAD DUP1 SWAP2 SUB SWAP1 RETURN JUMPDEST PUSH2 0x30C PUSH1 0x4 DUP1 CALLDATASIZE SUB DUP2 ADD SWAP1 PUSH2 0x307 SWAP2 SWAP1 PUSH2 0x1F19 JUMP JUMPDEST PUSH2 0xA0B JUMP JUMPDEST STOP JUMPDEST PUSH2 0x328 PUSH1 0x4 DUP1 CALLDATASIZE SUB DUP2 ADD SWAP1 PUSH2 0x323 SWAP2 SWAP1 PUSH2 0x1FF5 JUMP JUMPDEST PUSH2 0xA21 JUMP JUMPDEST STOP JUMPDEST PUSH2 0x344 PUSH1 0x4 DUP1 CALLDATASIZE SUB DUP2 ADD SWAP1 PUSH2 0x33F SWAP2 SWAP1 PUSH2 0x1B8D JUMP JUMPDEST PUSH2 0xA3E JUMP JUMPDEST PUSH1 0x40 MLOAD PUSH2 0x351 SWAP2 SWAP1 PUSH2 0x1B3A JUMP JUMPDEST PUSH1 0x40 MLOAD DUP1 SWAP2 SUB SWAP1 RETURN JUMPDEST PUSH2 0x374 PUSH1 0x4 DUP1 CALLDATASIZE SUB DUP2 ADD SWAP1 PUSH2 0x36F SWAP2 SWAP1 PUSH2 0x2075 JUMP JUMPDEST PUSH2 0xAA4 JUMP JUMPDEST PUSH1 0x40 MLOAD PUSH2 0x381 SWAP2 SWAP1 PUSH2 0x1AB1 JUMP JUMPDEST PUSH1 0x40 MLOAD DUP1 SWAP2 SUB SWAP1 RETURN JUMPDEST PUSH2 0x3A4 PUSH1 0x4 DUP1 CALLDATASIZE SUB DUP2 ADD SWAP1 PUSH2 0x39F SWAP2 SWAP1 PUSH2 0x1EC4 JUMP JUMPDEST PUSH2 0xB32 JUMP JUMPDEST STOP JUMPDEST PUSH0 PUSH32 0x80AC58CD00000000000000000000000000000000000000000000000000000000 PUSH28 0xFFFFFFFFFFFFFFFFFFFFFFFFFFFFFFFFFFFFFFFFFFFFFFFFFFFFFFFF NOT AND DUP3 PUSH28 0xFFFFFFFFFFFFFFFFFFFFFFFFFFFFFFFFFFFFFFFFFFFFFFFFFFFFFFFF NOT AND EQ DUP1 PUSH2 0x470 JUMPI POP PUSH32 0x5B5E139F00000000000000000000000000000000000000000000000000000000 PUSH28 0xFFFFFFFFFFFFFFFFFFFFFFFFFFFFFFFFFFFFFFFFFFFFFFFFFFFFFFFF NOT AND DUP3 PUSH28 0xFFFFFFFFFFFFFFFFFFFFFFFFFFFFFFFFFFFFFFFFFFFFFFFFFFFFFFFF NOT AND EQ JUMPDEST DUP1 PUSH2 0x480 JUMPI POP PUSH2 0x47F DUP3 PUSH2 0xBB6 JUMP JUMPDEST JUMPDEST SWAP1 POP SWAP2 SWAP1 POP JUMP JUMPDEST PUSH1 0x60 PUSH0 DUP1 SLOAD PUSH2 0x495 SWAP1 PUSH2 0x20E0 JUMP JUMPDEST DUP1 PUSH1 0x1F ADD PUSH1 0x20 DUP1 SWAP2 DIV MUL PUSH1 0x20 ADD PUSH1 0x40 MLOAD SWAP1 DUP2 ADD PUSH1 0x40 MSTORE DUP1 SWAP3 SWAP2 SWAP1 DUP2 DUP2 MSTORE PUSH1 0x20 ADD DUP3 DUP1 SLOAD PUSH2 0x4C1 SWAP1 PUSH2 0x20E0 JUMP JUMPDEST DUP1 ISZERO PUSH2 0x50C JUMPI DUP1 PUSH1 0x1F LT PUSH2 0x4E3 JUMPI PUSH2 0x100 DUP1 DUP4 SLOAD DIV MUL DUP4 MSTORE SWAP2 PUSH1 0x20 ADD SWAP2 PUSH2 0x50C JUMP JUMPDEST DUP3 ADD SWAP2 SWAP1 PUSH0 MSTORE PUSH1 0x20 PUSH0 KECCAK256 SWAP1 JUMPDEST DUP2 SLOAD DUP2 MSTORE SWAP1 PUSH1 0x1 ADD SWAP1 PUSH1 0x20 ADD DUP1 DUP4 GT PUSH2 0x4EF JUMPI DUP3 SWAP1 SUB PUSH1 0x1F AND DUP3 ADD SWAP2 JUMPDEST POP POP POP POP POP SWAP1 POP SWAP1 JUMP JUMPDEST PUSH0 PUSH2 0x520 DUP3 PUSH2 0xC1F JUMP JUMPDEST POP PUSH2 0x52A DUP3 PUSH2 0xCA5 JUMP JUMPDEST SWAP1 POP SWAP2 SWAP1 POP JUMP JUMPDEST PUSH2 0x543 DUP3 DUP3 PUSH2 0x53E PUSH2 0xCDE JUMP JUMPDEST PUSH2 0xCE5 JUMP JUMPDEST POP POP JUMP JUMPDEST PUSH0 DUP1 PUSH1 0x60 PUSH0 PUSH1 0x7 PUSH0 DUP7 DUP2 MSTORE PUSH1 0x20 ADD SWAP1 DUP2 MSTORE PUSH1 0x20 ADD PUSH0 KECCAK256 PUSH1 0x2 ADD DUP1 SLOAD PUSH2 0x56B SWAP1 PUSH2 0x20E0 JUMP JUMPDEST SWAP1 POP GT PUSH2 0x5AD JUMPI PUSH1 0x40 MLOAD PUSH32 0x8C379A000000000000000000000000000000000000000000000000000000000 DUP2 MSTORE PUSH1 0x4 ADD PUSH2 0x5A4 SWAP1 PUSH2 0x2180 JUMP JUMPDEST PUSH1 0x40 MLOAD DUP1 SWAP2 SUB SWAP1 REVERT JUMPDEST PUSH0 PUSH1 0x7 PUSH0 DUP7 DUP2 MSTORE PUSH1 0x20 ADD SWAP1 DUP2 MSTORE PUSH1 0x20 ADD PUSH0 KECCAK256 PUSH1 0x40 MLOAD DUP1 PUSH1 0x60 ADD PUSH1 0x40 MSTORE SWAP1 DUP2 PUSH0 DUP3 ADD SLOAD DUP2 MSTORE PUSH1 0x20 ADD PUSH1 0x1 DUP3 ADD SLOAD DUP2 MSTORE PUSH1 0x20 ADD PUSH1 0x2 DUP3 ADD DUP1 SLOAD PUSH2 0x5ED SWAP1 PUSH2 0x20E0 JUMP JUMPDEST DUP1 PUSH1 0x1F ADD PUSH1 0x20 DUP1 SWAP2 DIV MUL PUSH1 0x20 ADD PUSH1 0x40 MLOAD SWAP1 DUP2 ADD PUSH1 0x40 MSTORE DUP1 SWAP3 SWAP2 SWAP1 DUP2 DUP2 MSTORE PUSH1 0x20 ADD DUP3 DUP1 SLOAD PUSH2 0x619 SWAP1 PUSH2 0x20E0 JUMP JUMPDEST DUP1 ISZERO PUSH2 0x664 JUMPI DUP1 PUSH1 0x1F LT PUSH2 0x63B JUMPI PUSH2 0x100 DUP1 DUP4 SLOAD DIV MUL DUP4 MSTORE SWAP2 PUSH1 0x20 ADD SWAP2 PUSH2 0x664 JUMP JUMPDEST DUP3 ADD SWAP2 SWAP1 PUSH0 MSTORE PUSH1 0x20 PUSH0 KECCAK256 SWAP1 JUMPDEST DUP2 SLOAD DUP2 MSTORE SWAP1 PUSH1 0x1 ADD SWAP1 PUSH1 0x20 ADD DUP1 DUP4 GT PUSH2 0x647 JUMPI DUP3 SWAP1 SUB PUSH1 0x1F AND DUP3 ADD SWAP2 JUMPDEST POP POP POP POP POP DUP2 MSTORE POP POP SWAP1 POP DUP1 PUSH0 ADD MLOAD DUP2 PUSH1 0x20 ADD MLOAD DUP3 PUSH1 0x40 ADD MLOAD SWAP4 POP SWAP4 POP SWAP4 POP POP SWAP2 SWAP4 SWAP1 SWAP3 POP JUMP JUMPDEST PUSH0 PUSH20 0xFFFFFFFFFFFFFFFFFFFFFFFFFFFFFFFFFFFFFFFF AND DUP3 PUSH20 0xFFFFFFFFFFFFFFFFFFFFFFFFFFFFFFFFFFFFFFFF AND SUB PUSH2 0x6FB JUMPI PUSH0 PUSH1 0x40 MLOAD PUSH32 0x64A0AE9200000000000000000000000000000000000000000000000000000000 DUP2 MSTORE PUSH1 0x4 ADD PUSH2 0x6F2 SWAP2 SWAP1 PUSH2 0x1BF7 JUMP JUMPDEST PUSH1 0x40 MLOAD DUP1 SWAP2 SUB SWAP1 REVERT JUMPDEST PUSH0 PUSH2 0x70E DUP4 DUP4 PUSH2 0x709 PUSH2 0xCDE JUMP JUMPDEST PUSH2 0xCF7 JUMP JUMPDEST SWAP1 POP DUP4 PUSH20 0xFFFFFFFFFFFFFFFFFFFFFFFFFFFFFFFFFFFFFFFF AND DUP2 PUSH20 0xFFFFFFFFFFFFFFFFFFFFFFFFFFFFFFFFFFFFFFFF AND EQ PUSH2 0x784 JUMPI DUP4 DUP3 DUP3 PUSH1 0x40 MLOAD PUSH32 0x64283D7B00000000000000000000000000000000000000000000000000000000 DUP2 MSTORE PUSH1 0x4 ADD PUSH2 0x77B SWAP4 SWAP3 SWAP2 SWAP1 PUSH2 0x219E JUMP JUMPDEST PUSH1 0x40 MLOAD DUP1 SWAP2 SUB SWAP1 REVERT JUMPDEST POP POP POP POP JUMP JUMPDEST PUSH2 0x7A4 DUP4 DUP4 DUP4 PUSH1 0x40 MLOAD DUP1 PUSH1 0x20 ADD PUSH1 0x40 MSTORE DUP1 PUSH0 DUP2 MSTORE POP PUSH2 0xA21 JUMP JUMPDEST POP POP POP JUMP JUMPDEST PUSH0 PUSH2 0x7B2 PUSH2 0xF02 JUMP JUMPDEST PUSH1 0x8 PUSH0 DUP2 SLOAD DUP1 SWAP3 SWAP2 SWAP1 PUSH2 0x7C4 SWAP1 PUSH2 0x2200 JUMP JUMPDEST SWAP2 SWAP1 POP SSTORE POP PUSH1 0x40 MLOAD DUP1 PUSH1 0x60 ADD PUSH1 0x40 MSTORE DUP1 DUP6 DUP2 MSTORE PUSH1 0x20 ADD DUP5 DUP2 MSTORE PUSH1 0x20 ADD DUP4 DUP2 MSTORE POP PUSH1 0x7 PUSH0 PUSH1 0x8 SLOAD DUP2 MSTORE PUSH1 0x20 ADD SWAP1 DUP2 MSTORE PUSH1 0x20 ADD PUSH0 KECCAK256 PUSH0 DUP3 ADD MLOAD DUP2 PUSH0 ADD SSTORE PUSH1 0x20 DUP3 ADD MLOAD DUP2 PUSH1 0x1 ADD SSTORE PUSH1 0x40 DUP3 ADD MLOAD DUP2 PUSH1 0x2 ADD SWAP1 DUP2 PUSH2 0x81E SWAP2 SWAP1 PUSH2 0x23E4 JUMP JUMPDEST POP SWAP1 POP POP PUSH2 0x82E CALLER PUSH1 0x8 SLOAD PUSH2 0xF89 JUMP JUMPDEST PUSH32 0x813BEA0B43372A62C6BF828F8C0493583A52BAAC12D64F2929D960937874866F PUSH1 0x8 SLOAD DUP6 DUP6 DUP6 PUSH1 0x40 MLOAD PUSH2 0x865 SWAP5 SWAP4 SWAP3 SWAP2 SWAP1 PUSH2 0x24B3 JUMP JUMPDEST PUSH1 0x40 MLOAD DUP1 SWAP2 SUB SWAP1 LOG1 PUSH1 0x8 SLOAD SWAP1 POP SWAP4 SWAP3 POP POP POP JUMP JUMPDEST PUSH0 PUSH2 0x883 DUP3 PUSH2 0xC1F JUMP JUMPDEST SWAP1 POP SWAP2 SWAP1 POP JUMP JUMPDEST PUSH0 DUP1 PUSH20 0xFFFFFFFFFFFFFFFFFFFFFFFFFFFFFFFFFFFFFFFF AND DUP3 PUSH20 0xFFFFFFFFFFFFFFFFFFFFFFFFFFFFFFFFFFFFFFFF AND SUB PUSH2 0x8FB JUMPI PUSH0 PUSH1 0x40 MLOAD PUSH32 0x89C62B6400000000000000000000000000000000000000000000000000000000 DUP2 MSTORE PUSH1 0x4 ADD PUSH2 0x8F2 SWAP2 SWAP1 PUSH2 0x1BF7 JUMP JUMPDEST PUSH1 0x40 MLOAD DUP1 SWAP2 SUB SWAP1 REVERT JUMPDEST PUSH1 0x3 PUSH0 DUP4 PUSH20 0xFFFFFFFFFFFFFFFFFFFFFFFFFFFFFFFFFFFFFFFF AND PUSH20 0xFFFFFFFFFFFFFFFFFFFFFFFFFFFFFFFFFFFFFFFF AND DUP2 MSTORE PUSH1 0x20 ADD SWAP1 DUP2 MSTORE PUSH1 0x20 ADD PUSH0 KECCAK256 SLOAD SWAP1 POP SWAP2 SWAP1 POP JUMP JUMPDEST PUSH2 0x948 PUSH2 0xF02 JUMP JUMPDEST PUSH2 0x951 PUSH0 PUSH2 0x107C JUMP JUMPDEST JUMP JUMPDEST PUSH0 PUSH1 0x6 PUSH0 SWAP1 SLOAD SWAP1 PUSH2 0x100 EXP SWAP1 DIV PUSH20 0xFFFFFFFFFFFFFFFFFFFFFFFFFFFFFFFFFFFFFFFF AND SWAP1 POP SWAP1 JUMP JUMPDEST PUSH1 0x60 PUSH1 0x1 DUP1 SLOAD PUSH2 0x98A SWAP1 PUSH2 0x20E0 JUMP JUMPDEST DUP1 PUSH1 0x1F ADD PUSH1 0x20 DUP1 SWAP2 DIV MUL PUSH1 0x20 ADD PUSH1 0x40 MLOAD SWAP1 DUP2 ADD PUSH1 0x40 MSTORE DUP1 SWAP3 SWAP2 SWAP1 DUP2 DUP2 MSTORE PUSH1 0x20 ADD DUP3 DUP1 SLOAD PUSH2 0x9B6 SWAP1 PUSH2 0x20E0 JUMP JUMPDEST DUP1 ISZERO PUSH2 0xA01 JUMPI DUP1 PUSH1 0x1F LT PUSH2 0x9D8 JUMPI PUSH2 0x100 DUP1 DUP4 SLOAD DIV MUL DUP4 MSTORE SWAP2 PUSH1 0x20 ADD SWAP2 PUSH2 0xA01 JUMP JUMPDEST DUP3 ADD SWAP2 SWAP1 PUSH0 MSTORE PUSH1 0x20 PUSH0 KECCAK256 SWAP1 JUMPDEST DUP2 SLOAD DUP2 MSTORE SWAP1 PUSH1 0x1 ADD SWAP1 PUSH1 0x20 ADD DUP1 DUP4 GT PUSH2 0x9E4 JUMPI DUP3 SWAP1 SUB PUSH1 0x1F AND DUP3 ADD SWAP2 JUMPDEST POP POP POP POP POP SWAP1 POP SWAP1 JUMP JUMPDEST PUSH2 0xA1D PUSH2 0xA16 PUSH2 0xCDE JUMP JUMPDEST DUP4 DUP4 PUSH2 0x113F JUMP JUMPDEST POP POP JUMP JUMPDEST PUSH2 0xA2C DUP5 DUP5 DUP5 PUSH2 0x68B JUMP JUMPDEST PUSH2 0xA38 DUP5 DUP5 DUP5 DUP5 PUSH2 0x12A8 JUMP JUMPDEST POP POP POP POP JUMP JUMPDEST PUSH1 0x60 PUSH2 0xA49 DUP3 PUSH2 0xC1F JUMP JUMPDEST POP PUSH0 PUSH2 0xA53 PUSH2 0x145A JUMP JUMPDEST SWAP1 POP PUSH0 DUP2 MLOAD GT PUSH2 0xA71 JUMPI PUSH1 0x40 MLOAD DUP1 PUSH1 0x20 ADD PUSH1 0x40 MSTORE DUP1 PUSH0 DUP2 MSTORE POP PUSH2 0xA9C JUMP JUMPDEST DUP1 PUSH2 0xA7B DUP5 PUSH2 0x1470 JUMP JUMPDEST PUSH1 0x40 MLOAD PUSH1 0x20 ADD PUSH2 0xA8C SWAP3 SWAP2 SWAP1 PUSH2 0x2537 JUMP JUMPDEST PUSH1 0x40 MLOAD PUSH1 0x20 DUP2 DUP4 SUB SUB DUP2 MSTORE SWAP1 PUSH1 0x40 MSTORE JUMPDEST SWAP2 POP POP SWAP2 SWAP1 POP JUMP JUMPDEST PUSH0 PUSH1 0x5 PUSH0 DUP5 PUSH20 0xFFFFFFFFFFFFFFFFFFFFFFFFFFFFFFFFFFFFFFFF AND PUSH20 0xFFFFFFFFFFFFFFFFFFFFFFFFFFFFFFFFFFFFFFFF AND DUP2 MSTORE PUSH1 0x20 ADD SWAP1 DUP2 MSTORE PUSH1 0x20 ADD PUSH0 KECCAK256 PUSH0 DUP4 PUSH20 0xFFFFFFFFFFFFFFFFFFFFFFFFFFFFFFFFFFFFFFFF AND PUSH20 0xFFFFFFFFFFFFFFFFFFFFFFFFFFFFFFFFFFFFFFFF AND DUP2 MSTORE PUSH1 0x20 ADD SWAP1 DUP2 MSTORE PUSH1 0x20 ADD PUSH0 KECCAK256 PUSH0 SWAP1 SLOAD SWAP1 PUSH2 0x100 EXP SWAP1 DIV PUSH1 0xFF AND SWAP1 POP SWAP3 SWAP2 POP POP JUMP JUMPDEST PUSH2 0xB3A PUSH2 0xF02 JUMP JUMPDEST PUSH0 PUSH20 0xFFFFFFFFFFFFFFFFFFFFFFFFFFFFFFFFFFFFFFFF AND DUP2 PUSH20 0xFFFFFFFFFFFFFFFFFFFFFFFFFFFFFFFFFFFFFFFF AND SUB PUSH2 0xBAA JUMPI PUSH0 PUSH1 0x40 MLOAD PUSH32 0x1E4FBDF700000000000000000000000000000000000000000000000000000000 DUP2 MSTORE PUSH1 0x4 ADD PUSH2 0xBA1 SWAP2 SWAP1 PUSH2 0x1BF7 JUMP JUMPDEST PUSH1 0x40 MLOAD DUP1 SWAP2 SUB SWAP1 REVERT JUMPDEST PUSH2 0xBB3 DUP2 PUSH2 0x107C JUMP JUMPDEST POP JUMP JUMPDEST PUSH0 PUSH32 0x1FFC9A700000000000000000000000000000000000000000000000000000000 PUSH28 0xFFFFFFFFFFFFFFFFFFFFFFFFFFFFFFFFFFFFFFFFFFFFFFFFFFFFFFFF NOT AND DUP3 PUSH28 0xFFFFFFFFFFFFFFFFFFFFFFFFFFFFFFFFFFFFFFFFFFFFFFFFFFFFFFFF NOT AND EQ SWAP1 POP SWAP2 SWAP1 POP JUMP JUMPDEST PUSH0 DUP1 PUSH2 0xC2A DUP4 PUSH2 0x153A JUMP JUMPDEST SWAP1 POP PUSH0 PUSH20 0xFFFFFFFFFFFFFFFFFFFFFFFFFFFFFFFFFFFFFFFF AND DUP2 PUSH20 0xFFFFFFFFFFFFFFFFFFFFFFFFFFFFFFFFFFFFFFFF AND SUB PUSH2 0xC9C JUMPI DUP3 PUSH1 0x40 MLOAD PUSH32 0x7E27328900000000000000000000000000000000000000000000000000000000 DUP2 MSTORE PUSH1 0x4 ADD PUSH2 0xC93 SWAP2 SWAP1 PUSH2 0x1EAB JUMP JUMPDEST PUSH1 0x40 MLOAD DUP1 SWAP2 SUB SWAP1 REVERT JUMPDEST DUP1 SWAP2 POP POP SWAP2 SWAP1 POP JUMP JUMPDEST PUSH0 PUSH1 0x4 PUSH0 DUP4 DUP2 MSTORE PUSH1 0x20 ADD SWAP1 DUP2 MSTORE PUSH1 0x20 ADD PUSH0 KECCAK256 PUSH0 SWAP1 SLOAD SWAP1 PUSH2 0x100 EXP SWAP1 DIV PUSH20 0xFFFFFFFFFFFFFFFFFFFFFFFFFFFFFFFFFFFFFFFF AND SWAP1 POP SWAP2 SWAP1 POP JUMP JUMPDEST PUSH0 CALLER SWAP1 POP SWAP1 JUMP JUMPDEST PUSH2 0xCF2 DUP4 DUP4 DUP4 PUSH1 0x1 PUSH2 0x1573 JUMP JUMPDEST POP POP POP JUMP JUMPDEST PUSH0 DUP1 PUSH2 0xD02 DUP5 PUSH2 0x153A JUMP JUMPDEST SWAP1 POP PUSH0 PUSH20 0xFFFFFFFFFFFFFFFFFFFFFFFFFFFFFFFFFFFFFFFF AND DUP4 PUSH20 0xFFFFFFFFFFFFFFFFFFFFFFFFFFFFFFFFFFFFFFFF AND EQ PUSH2 0xD43 JUMPI PUSH2 0xD42 DUP2 DUP5 DUP7 PUSH2 0x1732 JUMP JUMPDEST JUMPDEST PUSH0 PUSH20 0xFFFFFFFFFFFFFFFFFFFFFFFFFFFFFFFFFFFFFFFF AND DUP2 PUSH20 0xFFFFFFFFFFFFFFFFFFFFFFFFFFFFFFFFFFFFFFFF AND EQ PUSH2 0xDCE JUMPI PUSH2 0xD82 PUSH0 DUP6 PUSH0 DUP1 PUSH2 0x1573 JUMP JUMPDEST PUSH1 0x1 PUSH1 0x3 PUSH0 DUP4 PUSH20 0xFFFFFFFFFFFFFFFFFFFFFFFFFFFFFFFFFFFFFFFF AND PUSH20 0xFFFFFFFFFFFFFFFFFFFFFFFFFFFFFFFFFFFFFFFF AND DUP2 MSTORE PUSH1 0x20 ADD SWAP1 DUP2 MSTORE PUSH1 0x20 ADD PUSH0 KECCAK256 PUSH0 DUP3 DUP3 SLOAD SUB SWAP3 POP POP DUP2 SWAP1 SSTORE POP JUMPDEST PUSH0 PUSH20 0xFFFFFFFFFFFFFFFFFFFFFFFFFFFFFFFFFFFFFFFF AND DUP6 PUSH20 0xFFFFFFFFFFFFFFFFFFFFFFFFFFFFFFFFFFFFFFFF AND EQ PUSH2 0xE4D JUMPI PUSH1 0x1 PUSH1 0x3 PUSH0 DUP8 PUSH20 0xFFFFFFFFFFFFFFFFFFFFFFFFFFFFFFFFFFFFFFFF AND PUSH20 0xFFFFFFFFFFFFFFFFFFFFFFFFFFFFFFFFFFFFFFFF AND DUP2 MSTORE PUSH1 0x20 ADD SWAP1 DUP2 MSTORE PUSH1 0x20 ADD PUSH0 KECCAK256 PUSH0 DUP3 DUP3 SLOAD ADD SWAP3 POP POP DUP2 SWAP1 SSTORE POP JUMPDEST DUP5 PUSH1 0x2 PUSH0 DUP7 DUP2 MSTORE PUSH1 0x20 ADD SWAP1 DUP2 MSTORE PUSH1 0x20 ADD PUSH0 KECCAK256 PUSH0 PUSH2 0x100 EXP DUP2 SLOAD DUP2 PUSH20 0xFFFFFFFFFFFFFFFFFFFFFFFFFFFFFFFFFFFFFFFF MUL NOT AND SWAP1 DUP4 PUSH20 0xFFFFFFFFFFFFFFFFFFFFFFFFFFFFFFFFFFFFFFFF AND MUL OR SWAP1 SSTORE POP DUP4 DUP6 PUSH20 0xFFFFFFFFFFFFFFFFFFFFFFFFFFFFFFFFFFFFFFFF AND DUP3 PUSH20 0xFFFFFFFFFFFFFFFFFFFFFFFFFFFFFFFFFFFFFFFF AND PUSH32 0xDDF252AD1BE2C89B69C2B068FC378DAA952BA7F163C4A11628F55A4DF523B3EF PUSH1 0x40 MLOAD PUSH1 0x40 MLOAD DUP1 SWAP2 SUB SWAP1 LOG4 DUP1 SWAP2 POP POP SWAP4 SWAP3 POP POP POP JUMP JUMPDEST PUSH2 0xF0A PUSH2 0xCDE JUMP JUMPDEST PUSH20 0xFFFFFFFFFFFFFFFFFFFFFFFFFFFFFFFFFFFFFFFF AND PUSH2 0xF28 PUSH2 0x953 JUMP JUMPDEST PUSH20 0xFFFFFFFFFFFFFFFFFFFFFFFFFFFFFFFFFFFFFFFF AND EQ PUSH2 0xF87 JUMPI PUSH2 0xF4B PUSH2 0xCDE JUMP JUMPDEST PUSH1 0x40 MLOAD PUSH32 0x118CDAA700000000000000000000000000000000000000000000000000000000 DUP2 MSTORE PUSH1 0x4 ADD PUSH2 0xF7E SWAP2 SWAP1 PUSH2 0x1BF7 JUMP JUMPDEST PUSH1 0x40 MLOAD DUP1 SWAP2 SUB SWAP1 REVERT JUMPDEST JUMP JUMPDEST PUSH0 PUSH20 0xFFFFFFFFFFFFFFFFFFFFFFFFFFFFFFFFFFFFFFFF AND DUP3 PUSH20 0xFFFFFFFFFFFFFFFFFFFFFFFFFFFFFFFFFFFFFFFF AND SUB PUSH2 0xFF9 JUMPI PUSH0 PUSH1 0x40 MLOAD PUSH32 0x64A0AE9200000000000000000000000000000000000000000000000000000000 DUP2 MSTORE PUSH1 0x4 ADD PUSH2 0xFF0 SWAP2 SWAP1 PUSH2 0x1BF7 JUMP JUMPDEST PUSH1 0x40 MLOAD DUP1 SWAP2 SUB SWAP1 REVERT JUMPDEST PUSH0 PUSH2 0x1005 DUP4 DUP4 PUSH0 PUSH2 0xCF7 JUMP JUMPDEST SWAP1 POP PUSH0 PUSH20 0xFFFFFFFFFFFFFFFFFFFFFFFFFFFFFFFFFFFFFFFF AND DUP2 PUSH20 0xFFFFFFFFFFFFFFFFFFFFFFFFFFFFFFFFFFFFFFFF AND EQ PUSH2 0x1077 JUMPI PUSH0 PUSH1 0x40 MLOAD PUSH32 0x73C6AC6E00000000000000000000000000000000000000000000000000000000 DUP2 MSTORE PUSH1 0x4 ADD PUSH2 0x106E SWAP2 SWAP1 PUSH2 0x1BF7 JUMP JUMPDEST PUSH1 0x40 MLOAD DUP1 SWAP2 SUB SWAP1 REVERT JUMPDEST POP POP POP JUMP JUMPDEST PUSH0 PUSH1 0x6 PUSH0 SWAP1 SLOAD SWAP1 PUSH2 0x100 EXP SWAP1 DIV PUSH20 0xFFFFFFFFFFFFFFFFFFFFFFFFFFFFFFFFFFFFFFFF AND SWAP1 POP DUP2 PUSH1 0x6 PUSH0 PUSH2 0x100 EXP DUP2 SLOAD DUP2 PUSH20 0xFFFFFFFFFFFFFFFFFFFFFFFFFFFFFFFFFFFFFFFF MUL NOT AND SWAP1 DUP4 PUSH20 0xFFFFFFFFFFFFFFFFFFFFFFFFFFFFFFFFFFFFFFFF AND MUL OR SWAP1 SSTORE POP DUP2 PUSH20 0xFFFFFFFFFFFFFFFFFFFFFFFFFFFFFFFFFFFFFFFF AND DUP2 PUSH20 0xFFFFFFFFFFFFFFFFFFFFFFFFFFFFFFFFFFFFFFFF AND PUSH32 0x8BE0079C531659141344CD1FD0A4F28419497F9722A3DAAFE3B4186F6B6457E0 PUSH1 0x40 MLOAD PUSH1 0x40 MLOAD DUP1 SWAP2 SUB SWAP1 LOG3 POP POP JUMP JUMPDEST PUSH0 PUSH20 0xFFFFFFFFFFFFFFFFFFFFFFFFFFFFFFFFFFFFFFFF AND DUP3 PUSH20 0xFFFFFFFFFFFFFFFFFFFFFFFFFFFFFFFFFFFFFFFF AND SUB PUSH2 0x11AF JUMPI DUP2 PUSH1 0x40 MLOAD PUSH32 0x5B08BA1800000000000000000000000000000000000000000000000000000000 DUP2 MSTORE PUSH1 0x4 ADD PUSH2 0x11A6 SWAP2 SWAP1 PUSH2 0x1BF7 JUMP JUMPDEST PUSH1 0x40 MLOAD DUP1 SWAP2 SUB SWAP1 REVERT JUMPDEST DUP1 PUSH1 0x5 PUSH0 DUP6 PUSH20 0xFFFFFFFFFFFFFFFFFFFFFFFFFFFFFFFFFFFFFFFF AND PUSH20 0xFFFFFFFFFFFFFFFFFFFFFFFFFFFFFFFFFFFFFFFF AND DUP2 MSTORE PUSH1 0x20 ADD SWAP1 DUP2 MSTORE PUSH1 0x20 ADD PUSH0 KECCAK256 PUSH0 DUP5 PUSH20 0xFFFFFFFFFFFFFFFFFFFFFFFFFFFFFFFFFFFFFFFF AND PUSH20 0xFFFFFFFFFFFFFFFFFFFFFFFFFFFFFFFFFFFFFFFF AND DUP2 MSTORE PUSH1 0x20 ADD SWAP1 DUP2 MSTORE PUSH1 0x20 ADD PUSH0 KECCAK256 PUSH0 PUSH2 0x100 EXP DUP2 SLOAD DUP2 PUSH1 0xFF MUL NOT AND SWAP1 DUP4 ISZERO ISZERO MUL OR SWAP1 SSTORE POP DUP2 PUSH20 0xFFFFFFFFFFFFFFFFFFFFFFFFFFFFFFFFFFFFFFFF AND DUP4 PUSH20 0xFFFFFFFFFFFFFFFFFFFFFFFFFFFFFFFFFFFFFFFF AND PUSH32 0x17307EAB39AB6107E8899845AD3D59BD9653F200F220920489CA2B5937696C31 DUP4 PUSH1 0x40 MLOAD PUSH2 0x129B SWAP2 SWAP1 PUSH2 0x1AB1 JUMP JUMPDEST PUSH1 0x40 MLOAD DUP1 SWAP2 SUB SWAP1 LOG3 POP POP POP JUMP JUMPDEST PUSH0 DUP4 PUSH20 0xFFFFFFFFFFFFFFFFFFFFFFFFFFFFFFFFFFFFFFFF AND EXTCODESIZE GT ISZERO PUSH2 0x1454 JUMPI DUP3 PUSH20 0xFFFFFFFFFFFFFFFFFFFFFFFFFFFFFFFFFFFFFFFF AND PUSH4 0x150B7A02 PUSH2 0x12EB PUSH2 0xCDE JUMP JUMPDEST DUP7 DUP6 DUP6 PUSH1 0x40 MLOAD DUP6 PUSH4 0xFFFFFFFF AND PUSH1 0xE0 SHL DUP2 MSTORE PUSH1 0x4 ADD PUSH2 0x130D SWAP5 SWAP4 SWAP3 SWAP2 SWAP1 PUSH2 0x25AC JUMP JUMPDEST PUSH1 0x20 PUSH1 0x40 MLOAD DUP1 DUP4 SUB DUP2 PUSH0 DUP8 GAS CALL SWAP3 POP POP POP DUP1 ISZERO PUSH2 0x1348 JUMPI POP PUSH1 0x40 MLOAD RETURNDATASIZE PUSH1 0x1F NOT PUSH1 0x1F DUP3 ADD AND DUP3 ADD DUP1 PUSH1 0x40 MSTORE POP DUP2 ADD SWAP1 PUSH2 0x1345 SWAP2 SWAP1 PUSH2 0x260A JUMP JUMPDEST PUSH1 0x1 JUMPDEST PUSH2 0x13C9 JUMPI RETURNDATASIZE DUP1 PUSH0 DUP2 EQ PUSH2 0x1376 JUMPI PUSH1 0x40 MLOAD SWAP2 POP PUSH1 0x1F NOT PUSH1 0x3F RETURNDATASIZE ADD AND DUP3 ADD PUSH1 0x40 MSTORE RETURNDATASIZE DUP3 MSTORE RETURNDATASIZE PUSH0 PUSH1 0x20 DUP5 ADD RETURNDATACOPY PUSH2 0x137B JUMP JUMPDEST PUSH1 0x60 SWAP2 POP JUMPDEST POP PUSH0 DUP2 MLOAD SUB PUSH2 0x13C1 JUMPI DUP4 PUSH1 0x40 MLOAD PUSH32 0x64A0AE9200000000000000000000000000000000000000000000000000000000 DUP2 MSTORE PUSH1 0x4 ADD PUSH2 0x13B8 SWAP2 SWAP1 PUSH2 0x1BF7 JUMP JUMPDEST PUSH1 0x40 MLOAD DUP1 SWAP2 SUB SWAP1 REVERT JUMPDEST DUP1 MLOAD DUP2 PUSH1 0x20 ADD REVERT JUMPDEST PUSH4 0x150B7A02 PUSH1 0xE0 SHL PUSH28 0xFFFFFFFFFFFFFFFFFFFFFFFFFFFFFFFFFFFFFFFFFFFFFFFFFFFFFFFF NOT AND DUP2 PUSH28 0xFFFFFFFFFFFFFFFFFFFFFFFFFFFFFFFFFFFFFFFFFFFFFFFFFFFFFFFF NOT AND EQ PUSH2 0x1452 JUMPI DUP4 PUSH1 0x40 MLOAD PUSH32 0x64A0AE9200000000000000000000000000000000000000000000000000000000 DUP2 MSTORE PUSH1 0x4 ADD PUSH2 0x1449 SWAP2 SWAP1 PUSH2 0x1BF7 JUMP JUMPDEST PUSH1 0x40 MLOAD DUP1 SWAP2 SUB SWAP1 REVERT JUMPDEST POP JUMPDEST POP POP POP POP JUMP JUMPDEST PUSH1 0x60 PUSH1 0x40 MLOAD DUP1 PUSH1 0x20 ADD PUSH1 0x40 MSTORE DUP1 PUSH0 DUP2 MSTORE POP SWAP1 POP SWAP1 JUMP JUMPDEST PUSH1 0x60 PUSH0 PUSH1 0x1 PUSH2 0x147E DUP5 PUSH2 0x17F5 JUMP JUMPDEST ADD SWAP1 POP PUSH0 DUP2 PUSH8 0xFFFFFFFFFFFFFFFF DUP2 GT ISZERO PUSH2 0x149C JUMPI PUSH2 0x149B PUSH2 0x1D1B JUMP JUMPDEST JUMPDEST PUSH1 0x40 MLOAD SWAP1 DUP1 DUP3 MSTORE DUP1 PUSH1 0x1F ADD PUSH1 0x1F NOT AND PUSH1 0x20 ADD DUP3 ADD PUSH1 0x40 MSTORE DUP1 ISZERO PUSH2 0x14CE JUMPI DUP2 PUSH1 0x20 ADD PUSH1 0x1 DUP3 MUL DUP1 CALLDATASIZE DUP4 CALLDATACOPY DUP1 DUP3 ADD SWAP2 POP POP SWAP1 POP JUMPDEST POP SWAP1 POP PUSH0 DUP3 PUSH1 0x20 ADD DUP3 ADD SWAP1 POP JUMPDEST PUSH1 0x1 ISZERO PUSH2 0x152F JUMPI DUP1 DUP1 PUSH1 0x1 SWAP1 SUB SWAP2 POP POP PUSH32 0x3031323334353637383961626364656600000000000000000000000000000000 PUSH1 0xA DUP7 MOD BYTE DUP2 MSTORE8 PUSH1 0xA DUP6 DUP2 PUSH2 0x1524 JUMPI PUSH2 0x1523 PUSH2 0x2635 JUMP JUMPDEST JUMPDEST DIV SWAP5 POP PUSH0 DUP6 SUB PUSH2 0x14DB JUMPI JUMPDEST DUP2 SWAP4 POP POP POP POP SWAP2 SWAP1 POP JUMP JUMPDEST PUSH0 PUSH1 0x2 PUSH0 DUP4 DUP2 MSTORE PUSH1 0x20 ADD SWAP1 DUP2 MSTORE PUSH1 0x20 ADD PUSH0 KECCAK256 PUSH0 SWAP1 SLOAD SWAP1 PUSH2 0x100 EXP SWAP1 DIV PUSH20 0xFFFFFFFFFFFFFFFFFFFFFFFFFFFFFFFFFFFFFFFF AND SWAP1 POP SWAP2 SWAP1 POP JUMP JUMPDEST DUP1 DUP1 PUSH2 0x15AB JUMPI POP PUSH0 PUSH20 0xFFFFFFFFFFFFFFFFFFFFFFFFFFFFFFFFFFFFFFFF AND DUP3 PUSH20 0xFFFFFFFFFFFFFFFFFFFFFFFFFFFFFFFFFFFFFFFF AND EQ ISZERO JUMPDEST ISZERO PUSH2 0x16DD JUMPI PUSH0 PUSH2 0x15BA DUP5 PUSH2 0xC1F JUMP JUMPDEST SWAP1 POP PUSH0 PUSH20 0xFFFFFFFFFFFFFFFFFFFFFFFFFFFFFFFFFFFFFFFF AND DUP4 PUSH20 0xFFFFFFFFFFFFFFFFFFFFFFFFFFFFFFFFFFFFFFFF AND EQ ISZERO DUP1 ISZERO PUSH2 0x1624 JUMPI POP DUP3 PUSH20 0xFFFFFFFFFFFFFFFFFFFFFFFFFFFFFFFFFFFFFFFF AND DUP2 PUSH20 0xFFFFFFFFFFFFFFFFFFFFFFFFFFFFFFFFFFFFFFFF AND EQ ISZERO JUMPDEST DUP1 ISZERO PUSH2 0x1637 JUMPI POP PUSH2 0x1635 DUP2 DUP5 PUSH2 0xAA4 JUMP JUMPDEST ISZERO JUMPDEST ISZERO PUSH2 0x1679 JUMPI DUP3 PUSH1 0x40 MLOAD PUSH32 0xA9FBF51F00000000000000000000000000000000000000000000000000000000 DUP2 MSTORE PUSH1 0x4 ADD PUSH2 0x1670 SWAP2 SWAP1 PUSH2 0x1BF7 JUMP JUMPDEST PUSH1 0x40 MLOAD DUP1 SWAP2 SUB SWAP1 REVERT JUMPDEST DUP2 ISZERO PUSH2 0x16DB JUMPI DUP4 DUP6 PUSH20 0xFFFFFFFFFFFFFFFFFFFFFFFFFFFFFFFFFFFFFFFF AND DUP3 PUSH20 0xFFFFFFFFFFFFFFFFFFFFFFFFFFFFFFFFFFFFFFFF AND PUSH32 0x8C5BE1E5EBEC7D5BD14F71427D1E84F3DD0314C0F7B2291E5B200AC8C7C3B925 PUSH1 0x40 MLOAD PUSH1 0x40 MLOAD DUP1 SWAP2 SUB SWAP1 LOG4 JUMPDEST POP JUMPDEST DUP4 PUSH1 0x4 PUSH0 DUP6 DUP2 MSTORE PUSH1 0x20 ADD SWAP1 DUP2 MSTORE PUSH1 0x20 ADD PUSH0 KECCAK256 PUSH0 PUSH2 0x100 EXP DUP2 SLOAD DUP2 PUSH20 0xFFFFFFFFFFFFFFFFFFFFFFFFFFFFFFFFFFFFFFFF MUL NOT AND SWAP1 DUP4 PUSH20 0xFFFFFFFFFFFFFFFFFFFFFFFFFFFFFFFFFFFFFFFF AND MUL OR SWAP1 SSTORE POP POP POP POP POP JUMP JUMPDEST PUSH2 0x173D DUP4 DUP4 DUP4 PUSH2 0x1946 JUMP JUMPDEST PUSH2 0x17F0 JUMPI PUSH0 PUSH20 0xFFFFFFFFFFFFFFFFFFFFFFFFFFFFFFFFFFFFFFFF AND DUP4 PUSH20 0xFFFFFFFFFFFFFFFFFFFFFFFFFFFFFFFFFFFFFFFF AND SUB PUSH2 0x17B1 JUMPI DUP1 PUSH1 0x40 MLOAD PUSH32 0x7E27328900000000000000000000000000000000000000000000000000000000 DUP2 MSTORE PUSH1 0x4 ADD PUSH2 0x17A8 SWAP2 SWAP1 PUSH2 0x1EAB JUMP JUMPDEST PUSH1 0x40 MLOAD DUP1 SWAP2 SUB SWAP1 REVERT JUMPDEST DUP2 DUP2 PUSH1 0x40 MLOAD PUSH32 0x177E802F00000000000000000000000000000000000000000000000000000000 DUP2 MSTORE PUSH1 0x4 ADD PUSH2 0x17E7 SWAP3 SWAP2 SWAP1 PUSH2 0x2662 JUMP JUMPDEST PUSH1 0x40 MLOAD DUP1 SWAP2 SUB SWAP1 REVERT JUMPDEST POP POP POP JUMP JUMPDEST PUSH0 DUP1 PUSH0 SWAP1 POP PUSH27 0x184F03E93FF9F4DAA797ED6E38ED64BF6A1F010000000000000000 DUP4 LT PUSH2 0x1851 JUMPI PUSH27 0x184F03E93FF9F4DAA797ED6E38ED64BF6A1F010000000000000000 DUP4 DUP2 PUSH2 0x1847 JUMPI PUSH2 0x1846 PUSH2 0x2635 JUMP JUMPDEST JUMPDEST DIV SWAP3 POP PUSH1 0x40 DUP2 ADD SWAP1 POP JUMPDEST PUSH14 0x4EE2D6D415B85ACEF8100000000 DUP4 LT PUSH2 0x188E JUMPI PUSH14 0x4EE2D6D415B85ACEF8100000000 DUP4 DUP2 PUSH2 0x1884 JUMPI PUSH2 0x1883 PUSH2 0x2635 JUMP JUMPDEST JUMPDEST DIV SWAP3 POP PUSH1 0x20 DUP2 ADD SWAP1 POP JUMPDEST PUSH7 0x2386F26FC10000 DUP4 LT PUSH2 0x18BD JUMPI PUSH7 0x2386F26FC10000 DUP4 DUP2 PUSH2 0x18B3 JUMPI PUSH2 0x18B2 PUSH2 0x2635 JUMP JUMPDEST JUMPDEST DIV SWAP3 POP PUSH1 0x10 DUP2 ADD SWAP1 POP JUMPDEST PUSH4 0x5F5E100 DUP4 LT PUSH2 0x18E6 JUMPI PUSH4 0x5F5E100 DUP4 DUP2 PUSH2 0x18DC JUMPI PUSH2 0x18DB PUSH2 0x2635 JUMP JUMPDEST JUMPDEST DIV SWAP3 POP PUSH1 0x8 DUP2 ADD SWAP1 POP JUMPDEST PUSH2 0x2710 DUP4 LT PUSH2 0x190B JUMPI PUSH2 0x2710 DUP4 DUP2 PUSH2 0x1901 JUMPI PUSH2 0x1900 PUSH2 0x2635 JUMP JUMPDEST JUMPDEST DIV SWAP3 POP PUSH1 0x4 DUP2 ADD SWAP1 POP JUMPDEST PUSH1 0x64 DUP4 LT PUSH2 0x192E JUMPI PUSH1 0x64 DUP4 DUP2 PUSH2 0x1924 JUMPI PUSH2 0x1923 PUSH2 0x2635 JUMP JUMPDEST JUMPDEST DIV SWAP3 POP PUSH1 0x2 DUP2 ADD SWAP1 POP JUMPDEST PUSH1 0xA DUP4 LT PUSH2 0x193D JUMPI PUSH1 0x1 DUP2 ADD SWAP1 POP JUMPDEST DUP1 SWAP2 POP POP SWAP2 SWAP1 POP JUMP JUMPDEST PUSH0 DUP1 PUSH20 0xFFFFFFFFFFFFFFFFFFFFFFFFFFFFFFFFFFFFFFFF AND DUP4 PUSH20 0xFFFFFFFFFFFFFFFFFFFFFFFFFFFFFFFFFFFFFFFF AND EQ ISZERO DUP1 ISZERO PUSH2 0x19FD JUMPI POP DUP3 PUSH20 0xFFFFFFFFFFFFFFFFFFFFFFFFFFFFFFFFFFFFFFFF AND DUP5 PUSH20 0xFFFFFFFFFFFFFFFFFFFFFFFFFFFFFFFFFFFFFFFF AND EQ DUP1 PUSH2 0x19BE JUMPI POP PUSH2 0x19BD DUP5 DUP5 PUSH2 0xAA4 JUMP JUMPDEST JUMPDEST DUP1 PUSH2 0x19FC JUMPI POP DUP3 PUSH20 0xFFFFFFFFFFFFFFFFFFFFFFFFFFFFFFFFFFFFFFFF AND PUSH2 0x19E4 DUP4 PUSH2 0xCA5 JUMP JUMPDEST PUSH20 0xFFFFFFFFFFFFFFFFFFFFFFFFFFFFFFFFFFFFFFFF AND EQ JUMPDEST JUMPDEST SWAP1 POP SWAP4 SWAP3 POP POP POP JUMP JUMPDEST PUSH0 PUSH1 0x40 MLOAD SWAP1 POP SWAP1 JUMP JUMPDEST PUSH0 DUP1 REVERT JUMPDEST PUSH0 DUP1 REVERT JUMPDEST PUSH0 PUSH32 0xFFFFFFFF00000000000000000000000000000000000000000000000000000000 DUP3 AND SWAP1 POP SWAP2 SWAP1 POP JUMP JUMPDEST PUSH2 0x1A4B DUP2 PUSH2 0x1A17 JUMP JUMPDEST DUP2 EQ PUSH2 0x1A55 JUMPI PUSH0 DUP1 REVERT JUMPDEST POP JUMP JUMPDEST PUSH0 DUP2 CALLDATALOAD SWAP1 POP PUSH2 0x1A66 DUP2 PUSH2 0x1A42 JUMP JUMPDEST SWAP3 SWAP2 POP POP JUMP JUMPDEST PUSH0 PUSH1 0x20 DUP3 DUP5 SUB SLT ISZERO PUSH2 0x1A81 JUMPI PUSH2 0x1A80 PUSH2 0x1A0F JUMP JUMPDEST JUMPDEST PUSH0 PUSH2 0x1A8E DUP5 DUP3 DUP6 ADD PUSH2 0x1A58 JUMP JUMPDEST SWAP2 POP POP SWAP3 SWAP2 POP POP JUMP JUMPDEST PUSH0 DUP2 ISZERO ISZERO SWAP1 POP SWAP2 SWAP1 POP JUMP JUMPDEST PUSH2 0x1AAB DUP2 PUSH2 0x1A97 JUMP JUMPDEST DUP3 MSTORE POP POP JUMP JUMPDEST PUSH0 PUSH1 0x20 DUP3 ADD SWAP1 POP PUSH2 0x1AC4 PUSH0 DUP4 ADD DUP5 PUSH2 0x1AA2 JUMP JUMPDEST SWAP3 SWAP2 POP POP JUMP JUMPDEST PUSH0 DUP2 MLOAD SWAP1 POP SWAP2 SWAP1 POP JUMP JUMPDEST PUSH0 DUP3 DUP3 MSTORE PUSH1 0x20 DUP3 ADD SWAP1 POP SWAP3 SWAP2 POP POP JUMP JUMPDEST DUP3 DUP2 DUP4 MCOPY PUSH0 DUP4 DUP4 ADD MSTORE POP POP POP JUMP JUMPDEST PUSH0 PUSH1 0x1F NOT PUSH1 0x1F DUP4 ADD AND SWAP1 POP SWAP2 SWAP1 POP JUMP JUMPDEST PUSH0 PUSH2 0x1B0C DUP3 PUSH2 0x1ACA JUMP JUMPDEST PUSH2 0x1B16 DUP2 DUP6 PUSH2 0x1AD4 JUMP JUMPDEST SWAP4 POP PUSH2 0x1B26 DUP2 DUP6 PUSH1 0x20 DUP7 ADD PUSH2 0x1AE4 JUMP JUMPDEST PUSH2 0x1B2F DUP2 PUSH2 0x1AF2 JUMP JUMPDEST DUP5 ADD SWAP2 POP POP SWAP3 SWAP2 POP POP JUMP JUMPDEST PUSH0 PUSH1 0x20 DUP3 ADD SWAP1 POP DUP2 DUP2 SUB PUSH0 DUP4 ADD MSTORE PUSH2 0x1B52 DUP2 DUP5 PUSH2 0x1B02 JUMP JUMPDEST SWAP1 POP SWAP3 SWAP2 POP POP JUMP JUMPDEST PUSH0 DUP2 SWAP1 POP SWAP2 SWAP1 POP JUMP JUMPDEST PUSH2 0x1B6C DUP2 PUSH2 0x1B5A JUMP JUMPDEST DUP2 EQ PUSH2 0x1B76 JUMPI PUSH0 DUP1 REVERT JUMPDEST POP JUMP JUMPDEST PUSH0 DUP2 CALLDATALOAD SWAP1 POP PUSH2 0x1B87 DUP2 PUSH2 0x1B63 JUMP JUMPDEST SWAP3 SWAP2 POP POP JUMP JUMPDEST PUSH0 PUSH1 0x20 DUP3 DUP5 SUB SLT ISZERO PUSH2 0x1BA2 JUMPI PUSH2 0x1BA1 PUSH2 0x1A0F JUMP JUMPDEST JUMPDEST PUSH0 PUSH2 0x1BAF DUP5 DUP3 DUP6 ADD PUSH2 0x1B79 JUMP JUMPDEST SWAP2 POP POP SWAP3 SWAP2 POP POP JUMP JUMPDEST PUSH0 PUSH20 0xFFFFFFFFFFFFFFFFFFFFFFFFFFFFFFFFFFFFFFFF DUP3 AND SWAP1 POP SWAP2 SWAP1 POP JUMP JUMPDEST PUSH0 PUSH2 0x1BE1 DUP3 PUSH2 0x1BB8 JUMP JUMPDEST SWAP1 POP SWAP2 SWAP1 POP JUMP JUMPDEST PUSH2 0x1BF1 DUP2 PUSH2 0x1BD7 JUMP JUMPDEST DUP3 MSTORE POP POP JUMP JUMPDEST PUSH0 PUSH1 0x20 DUP3 ADD SWAP1 POP PUSH2 0x1C0A PUSH0 DUP4 ADD DUP5 PUSH2 0x1BE8 JUMP JUMPDEST SWAP3 SWAP2 POP POP JUMP JUMPDEST PUSH2 0x1C19 DUP2 PUSH2 0x1BD7 JUMP JUMPDEST DUP2 EQ PUSH2 0x1C23 JUMPI PUSH0 DUP1 REVERT JUMPDEST POP JUMP JUMPDEST PUSH0 DUP2 CALLDATALOAD SWAP1 POP PUSH2 0x1C34 DUP2 PUSH2 0x1C10 JUMP JUMPDEST SWAP3 SWAP2 POP POP JUMP JUMPDEST PUSH0 DUP1 PUSH1 0x40 DUP4 DUP6 SUB SLT ISZERO PUSH2 0x1C50 JUMPI PUSH2 0x1C4F PUSH2 0x1A0F JUMP JUMPDEST JUMPDEST PUSH0 PUSH2 0x1C5D DUP6 DUP3 DUP7 ADD PUSH2 0x1C26 JUMP JUMPDEST SWAP3 POP POP PUSH1 0x20 PUSH2 0x1C6E DUP6 DUP3 DUP7 ADD PUSH2 0x1B79 JUMP JUMPDEST SWAP2 POP POP SWAP3 POP SWAP3 SWAP1 POP JUMP JUMPDEST PUSH2 0x1C81 DUP2 PUSH2 0x1B5A JUMP JUMPDEST DUP3 MSTORE POP POP JUMP JUMPDEST PUSH0 PUSH1 0x60 DUP3 ADD SWAP1 POP PUSH2 0x1C9A PUSH0 DUP4 ADD DUP7 PUSH2 0x1C78 JUMP JUMPDEST PUSH2 0x1CA7 PUSH1 0x20 DUP4 ADD DUP6 PUSH2 0x1C78 JUMP JUMPDEST DUP2 DUP2 SUB PUSH1 0x40 DUP4 ADD MSTORE PUSH2 0x1CB9 DUP2 DUP5 PUSH2 0x1B02 JUMP JUMPDEST SWAP1 POP SWAP5 SWAP4 POP POP POP POP JUMP JUMPDEST PUSH0 DUP1 PUSH0 PUSH1 0x60 DUP5 DUP7 SUB SLT ISZERO PUSH2 0x1CDA JUMPI PUSH2 0x1CD9 PUSH2 0x1A0F JUMP JUMPDEST JUMPDEST PUSH0 PUSH2 0x1CE7 DUP7 DUP3 DUP8 ADD PUSH2 0x1C26 JUMP JUMPDEST SWAP4 POP POP PUSH1 0x20 PUSH2 0x1CF8 DUP7 DUP3 DUP8 ADD PUSH2 0x1C26 JUMP JUMPDEST SWAP3 POP POP PUSH1 0x40 PUSH2 0x1D09 DUP7 DUP3 DUP8 ADD PUSH2 0x1B79 JUMP JUMPDEST SWAP2 POP POP SWAP3 POP SWAP3 POP SWAP3 JUMP JUMPDEST PUSH0 DUP1 REVERT JUMPDEST PUSH0 DUP1 REVERT JUMPDEST PUSH32 0x4E487B7100000000000000000000000000000000000000000000000000000000 PUSH0 MSTORE PUSH1 0x41 PUSH1 0x4 MSTORE PUSH1 0x24 PUSH0 REVERT JUMPDEST PUSH2 0x1D51 DUP3 PUSH2 0x1AF2 JUMP JUMPDEST DUP2 ADD DUP2 DUP2 LT PUSH8 0xFFFFFFFFFFFFFFFF DUP3 GT OR ISZERO PUSH2 0x1D70 JUMPI PUSH2 0x1D6F PUSH2 0x1D1B JUMP JUMPDEST JUMPDEST DUP1 PUSH1 0x40 MSTORE POP POP POP JUMP JUMPDEST PUSH0 PUSH2 0x1D82 PUSH2 0x1A06 JUMP JUMPDEST SWAP1 POP PUSH2 0x1D8E DUP3 DUP3 PUSH2 0x1D48 JUMP JUMPDEST SWAP2 SWAP1 POP JUMP JUMPDEST PUSH0 PUSH8 0xFFFFFFFFFFFFFFFF DUP3 GT ISZERO PUSH2 0x1DAD JUMPI PUSH2 0x1DAC PUSH2 0x1D1B JUMP JUMPDEST JUMPDEST PUSH2 0x1DB6 DUP3 PUSH2 0x1AF2 JUMP JUMPDEST SWAP1 POP PUSH1 0x20 DUP2 ADD SWAP1 POP SWAP2 SWAP1 POP JUMP JUMPDEST DUP3 DUP2 DUP4 CALLDATACOPY PUSH0 DUP4 DUP4 ADD MSTORE POP POP POP JUMP JUMPDEST PUSH0 PUSH2 0x1DE3 PUSH2 0x1DDE DUP5 PUSH2 0x1D93 JUMP JUMPDEST PUSH2 0x1D79 JUMP JUMPDEST SWAP1 POP DUP3 DUP2 MSTORE PUSH1 0x20 DUP2 ADD DUP5 DUP5 DUP5 ADD GT ISZERO PUSH2 0x1DFF JUMPI PUSH2 0x1DFE PUSH2 0x1D17 JUMP JUMPDEST JUMPDEST PUSH2 0x1E0A DUP5 DUP3 DUP6 PUSH2 0x1DC3 JUMP JUMPDEST POP SWAP4 SWAP3 POP POP POP JUMP JUMPDEST PUSH0 DUP3 PUSH1 0x1F DUP4 ADD SLT PUSH2 0x1E26 JUMPI PUSH2 0x1E25 PUSH2 0x1D13 JUMP JUMPDEST JUMPDEST DUP2 CALLDATALOAD PUSH2 0x1E36 DUP5 DUP3 PUSH1 0x20 DUP7 ADD PUSH2 0x1DD1 JUMP JUMPDEST SWAP2 POP POP SWAP3 SWAP2 POP POP JUMP JUMPDEST PUSH0 DUP1 PUSH0 PUSH1 0x60 DUP5 DUP7 SUB SLT ISZERO PUSH2 0x1E56 JUMPI PUSH2 0x1E55 PUSH2 0x1A0F JUMP JUMPDEST JUMPDEST PUSH0 PUSH2 0x1E63 DUP7 DUP3 DUP8 ADD PUSH2 0x1B79 JUMP JUMPDEST SWAP4 POP POP PUSH1 0x20 PUSH2 0x1E74 DUP7 DUP3 DUP8 ADD PUSH2 0x1B79 JUMP JUMPDEST SWAP3 POP POP PUSH1 0x40 DUP5 ADD CALLDATALOAD PUSH8 0xFFFFFFFFFFFFFFFF DUP2 GT ISZERO PUSH2 0x1E95 JUMPI PUSH2 0x1E94 PUSH2 0x1A13 JUMP JUMPDEST JUMPDEST PUSH2 0x1EA1 DUP7 DUP3 DUP8 ADD PUSH2 0x1E12 JUMP JUMPDEST SWAP2 POP POP SWAP3 POP SWAP3 POP SWAP3 JUMP JUMPDEST PUSH0 PUSH1 0x20 DUP3 ADD SWAP1 POP PUSH2 0x1EBE PUSH0 DUP4 ADD DUP5 PUSH2 0x1C78 JUMP JUMPDEST SWAP3 SWAP2 POP POP JUMP JUMPDEST PUSH0 PUSH1 0x20 DUP3 DUP5 SUB SLT ISZERO PUSH2 0x1ED9 JUMPI PUSH2 0x1ED8 PUSH2 0x1A0F JUMP JUMPDEST JUMPDEST PUSH0 PUSH2 0x1EE6 DUP5 DUP3 DUP6 ADD PUSH2 0x1C26 JUMP JUMPDEST SWAP2 POP POP SWAP3 SWAP2 POP POP JUMP JUMPDEST PUSH2 0x1EF8 DUP2 PUSH2 0x1A97 JUMP JUMPDEST DUP2 EQ PUSH2 0x1F02 JUMPI PUSH0 DUP1 REVERT JUMPDEST POP JUMP JUMPDEST PUSH0 DUP2 CALLDATALOAD SWAP1 POP PUSH2 0x1F13 DUP2 PUSH2 0x1EEF JUMP JUMPDEST SWAP3 SWAP2 POP POP JUMP JUMPDEST PUSH0 DUP1 PUSH1 0x40 DUP4 DUP6 SUB SLT ISZERO PUSH2 0x1F2F JUMPI PUSH2 0x1F2E PUSH2 0x1A0F JUMP JUMPDEST JUMPDEST PUSH0 PUSH2 0x1F3C DUP6 DUP3 DUP7 ADD PUSH2 0x1C26 JUMP JUMPDEST SWAP3 POP POP PUSH1 0x20 PUSH2 0x1F4D DUP6 DUP3 DUP7 ADD PUSH2 0x1F05 JUMP JUMPDEST SWAP2 POP POP SWAP3 POP SWAP3 SWAP1 POP JUMP JUMPDEST PUSH0 PUSH8 0xFFFFFFFFFFFFFFFF DUP3 GT ISZERO PUSH2 0x1F71 JUMPI PUSH2 0x1F70 PUSH2 0x1D1B JUMP JUMPDEST JUMPDEST PUSH2 0x1F7A DUP3 PUSH2 0x1AF2 JUMP JUMPDEST SWAP1 POP PUSH1 0x20 DUP2 ADD SWAP1 POP SWAP2 SWAP1 POP JUMP JUMPDEST PUSH0 PUSH2 0x1F99 PUSH2 0x1F94 DUP5 PUSH2 0x1F57 JUMP JUMPDEST PUSH2 0x1D79 JUMP JUMPDEST SWAP1 POP DUP3 DUP2 MSTORE PUSH1 0x20 DUP2 ADD DUP5 DUP5 DUP5 ADD GT ISZERO PUSH2 0x1FB5 JUMPI PUSH2 0x1FB4 PUSH2 0x1D17 JUMP JUMPDEST JUMPDEST PUSH2 0x1FC0 DUP5 DUP3 DUP6 PUSH2 0x1DC3 JUMP JUMPDEST POP SWAP4 SWAP3 POP POP POP JUMP JUMPDEST PUSH0 DUP3 PUSH1 0x1F DUP4 ADD SLT PUSH2 0x1FDC JUMPI PUSH2 0x1FDB PUSH2 0x1D13 JUMP JUMPDEST JUMPDEST DUP2 CALLDATALOAD PUSH2 0x1FEC DUP5 DUP3 PUSH1 0x20 DUP7 ADD PUSH2 0x1F87 JUMP JUMPDEST SWAP2 POP POP SWAP3 SWAP2 POP POP JUMP JUMPDEST PUSH0 DUP1 PUSH0 DUP1 PUSH1 0x80 DUP6 DUP8 SUB SLT ISZERO PUSH2 0x200D JUMPI PUSH2 0x200C PUSH2 0x1A0F JUMP JUMPDEST JUMPDEST PUSH0 PUSH2 0x201A DUP8 DUP3 DUP9 ADD PUSH2 0x1C26 JUMP JUMPDEST SWAP5 POP POP PUSH1 0x20 PUSH2 0x202B DUP8 DUP3 DUP9 ADD PUSH2 0x1C26 JUMP JUMPDEST SWAP4 POP POP PUSH1 0x40 PUSH2 0x203C DUP8 DUP3 DUP9 ADD PUSH2 0x1B79 JUMP JUMPDEST SWAP3 POP POP PUSH1 0x60 DUP6 ADD CALLDATALOAD PUSH8 0xFFFFFFFFFFFFFFFF DUP2 GT ISZERO PUSH2 0x205D JUMPI PUSH2 0x205C PUSH2 0x1A13 JUMP JUMPDEST JUMPDEST PUSH2 0x2069 DUP8 DUP3 DUP9 ADD PUSH2 0x1FC8 JUMP JUMPDEST SWAP2 POP POP SWAP3 SWAP6 SWAP2 SWAP5 POP SWAP3 POP JUMP JUMPDEST PUSH0 DUP1 PUSH1 0x40 DUP4 DUP6 SUB SLT ISZERO PUSH2 0x208B JUMPI PUSH2 0x208A PUSH2 0x1A0F JUMP JUMPDEST JUMPDEST PUSH0 PUSH2 0x2098 DUP6 DUP3 DUP7 ADD PUSH2 0x1C26 JUMP JUMPDEST SWAP3 POP POP PUSH1 0x20 PUSH2 0x20A9 DUP6 DUP3 DUP7 ADD PUSH2 0x1C26 JUMP JUMPDEST SWAP2 POP POP SWAP3 POP SWAP3 SWAP1 POP JUMP JUMPDEST PUSH32 0x4E487B7100000000000000000000000000000000000000000000000000000000 PUSH0 MSTORE PUSH1 0x22 PUSH1 0x4 MSTORE PUSH1 0x24 PUSH0 REVERT JUMPDEST PUSH0 PUSH1 0x2 DUP3 DIV SWAP1 POP PUSH1 0x1 DUP3 AND DUP1 PUSH2 0x20F7 JUMPI PUSH1 0x7F DUP3 AND SWAP2 POP JUMPDEST PUSH1 0x20 DUP3 LT DUP2 SUB PUSH2 0x210A JUMPI PUSH2 0x2109 PUSH2 0x20B3 JUMP JUMPDEST JUMPDEST POP SWAP2 SWAP1 POP JUMP JUMPDEST PUSH32 0x47616D6552656769737472793A20517565727920666F72206E6F6E6578697374 PUSH0 DUP3 ADD MSTORE PUSH32 0x656E7420746F6B656E0000000000000000000000000000000000000000000000 PUSH1 0x20 DUP3 ADD MSTORE POP JUMP JUMPDEST PUSH0 PUSH2 0x216A PUSH1 0x29 DUP4 PUSH2 0x1AD4 JUMP JUMPDEST SWAP2 POP PUSH2 0x2175 DUP3 PUSH2 0x2110 JUMP JUMPDEST PUSH1 0x40 DUP3 ADD SWAP1 POP SWAP2 SWAP1 POP JUMP JUMPDEST PUSH0 PUSH1 0x20 DUP3 ADD SWAP1 POP DUP2 DUP2 SUB PUSH0 DUP4 ADD MSTORE PUSH2 0x2197 DUP2 PUSH2 0x215E JUMP JUMPDEST SWAP1 POP SWAP2 SWAP1 POP JUMP JUMPDEST PUSH0 PUSH1 0x60 DUP3 ADD SWAP1 POP PUSH2 0x21B1 PUSH0 DUP4 ADD DUP7 PUSH2 0x1BE8 JUMP JUMPDEST PUSH2 0x21BE PUSH1 0x20 DUP4 ADD DUP6 PUSH2 0x1C78 JUMP JUMPDEST PUSH2 0x21CB PUSH1 0x40 DUP4 ADD DUP5 PUSH2 0x1BE8 JUMP JUMPDEST SWAP5 SWAP4 POP POP POP POP JUMP JUMPDEST PUSH32 0x4E487B7100000000000000000000000000000000000000000000000000000000 PUSH0 MSTORE PUSH1 0x11 PUSH1 0x4 MSTORE PUSH1 0x24 PUSH0 REVERT JUMPDEST PUSH0 PUSH2 0x220A DUP3 PUSH2 0x1B5A JUMP JUMPDEST SWAP2 POP PUSH32 0xFFFFFFFFFFFFFFFFFFFFFFFFFFFFFFFFFFFFFFFFFFFFFFFFFFFFFFFFFFFFFFFF DUP3 SUB PUSH2 0x223C JUMPI PUSH2 0x223B PUSH2 0x21D3 JUMP JUMPDEST JUMPDEST PUSH1 0x1 DUP3 ADD SWAP1 POP SWAP2 SWAP1 POP JUMP JUMPDEST PUSH0 DUP2 SWAP1 POP DUP2 PUSH0 MSTORE PUSH1 0x20 PUSH0 KECCAK256 SWAP1 POP SWAP2 SWAP1 POP JUMP JUMPDEST PUSH0 PUSH1 0x20 PUSH1 0x1F DUP4 ADD DIV SWAP1 POP SWAP2 SWAP1 POP JUMP JUMPDEST PUSH0 DUP3 DUP3 SHL SWAP1 POP SWAP3 SWAP2 POP POP JUMP JUMPDEST PUSH0 PUSH1 0x8 DUP4 MUL PUSH2 0x22A3 PUSH32 0xFFFFFFFFFFFFFFFFFFFFFFFFFFFFFFFFFFFFFFFFFFFFFFFFFFFFFFFFFFFFFFFF DUP3 PUSH2 0x2268 JUMP JUMPDEST PUSH2 0x22AD DUP7 DUP4 PUSH2 0x2268 JUMP JUMPDEST SWAP6 POP DUP1 NOT DUP5 AND SWAP4 POP DUP1 DUP7 AND DUP5 OR SWAP3 POP POP POP SWAP4 SWAP3 POP POP POP JUMP JUMPDEST PUSH0 DUP2 SWAP1 POP SWAP2 SWAP1 POP JUMP JUMPDEST PUSH0 PUSH2 0x22E8 PUSH2 0x22E3 PUSH2 0x22DE DUP5 PUSH2 0x1B5A JUMP JUMPDEST PUSH2 0x22C5 JUMP JUMPDEST PUSH2 0x1B5A JUMP JUMPDEST SWAP1 POP SWAP2 SWAP1 POP JUMP JUMPDEST PUSH0 DUP2 SWAP1 POP SWAP2 SWAP1 POP JUMP JUMPDEST PUSH2 0x2301 DUP4 PUSH2 0x22CE JUMP JUMPDEST PUSH2 0x2315 PUSH2 0x230D DUP3 PUSH2 0x22EF JUMP JUMPDEST DUP5 DUP5 SLOAD PUSH2 0x2274 JUMP JUMPDEST DUP3 SSTORE POP POP POP POP JUMP JUMPDEST PUSH0 SWAP1 JUMP JUMPDEST PUSH2 0x2329 PUSH2 0x231D JUMP JUMPDEST PUSH2 0x2334 DUP2 DUP5 DUP5 PUSH2 0x22F8 JUMP JUMPDEST POP POP POP JUMP JUMPDEST JUMPDEST DUP2 DUP2 LT ISZERO PUSH2 0x2357 JUMPI PUSH2 0x234C PUSH0 DUP3 PUSH2 0x2321 JUMP JUMPDEST PUSH1 0x1 DUP2 ADD SWAP1 POP PUSH2 0x233A JUMP JUMPDEST POP POP JUMP JUMPDEST PUSH1 0x1F DUP3 GT ISZERO PUSH2 0x239C JUMPI PUSH2 0x236D DUP2 PUSH2 0x2247 JUMP JUMPDEST PUSH2 0x2376 DUP5 PUSH2 0x2259 JUMP JUMPDEST DUP2 ADD PUSH1 0x20 DUP6 LT ISZERO PUSH2 0x2385 JUMPI DUP2 SWAP1 POP JUMPDEST PUSH2 0x2399 PUSH2 0x2391 DUP6 PUSH2 0x2259 JUMP JUMPDEST DUP4 ADD DUP3 PUSH2 0x2339 JUMP JUMPDEST POP POP JUMPDEST POP POP POP JUMP JUMPDEST PUSH0 DUP3 DUP3 SHR SWAP1 POP SWAP3 SWAP2 POP POP JUMP JUMPDEST PUSH0 PUSH2 0x23BC PUSH0 NOT DUP5 PUSH1 0x8 MUL PUSH2 0x23A1 JUMP JUMPDEST NOT DUP1 DUP4 AND SWAP2 POP POP SWAP3 SWAP2 POP POP JUMP JUMPDEST PUSH0 PUSH2 0x23D4 DUP4 DUP4 PUSH2 0x23AD JUMP JUMPDEST SWAP2 POP DUP3 PUSH1 0x2 MUL DUP3 OR SWAP1 POP SWAP3 SWAP2 POP POP JUMP JUMPDEST PUSH2 0x23ED DUP3 PUSH2 0x1ACA JUMP JUMPDEST PUSH8 0xFFFFFFFFFFFFFFFF DUP2 GT ISZERO PUSH2 0x2406 JUMPI PUSH2 0x2405 PUSH2 0x1D1B JUMP JUMPDEST JUMPDEST PUSH2 0x2410 DUP3 SLOAD PUSH2 0x20E0 JUMP JUMPDEST PUSH2 0x241B DUP3 DUP3 DUP6 PUSH2 0x235B JUMP JUMPDEST PUSH0 PUSH1 0x20 SWAP1 POP PUSH1 0x1F DUP4 GT PUSH1 0x1 DUP2 EQ PUSH2 0x244C JUMPI PUSH0 DUP5 ISZERO PUSH2 0x243A JUMPI DUP3 DUP8 ADD MLOAD SWAP1 POP JUMPDEST PUSH2 0x2444 DUP6 DUP3 PUSH2 0x23C9 JUMP JUMPDEST DUP7 SSTORE POP PUSH2 0x24AB JUMP JUMPDEST PUSH1 0x1F NOT DUP5 AND PUSH2 0x245A DUP7 PUSH2 0x2247 JUMP JUMPDEST PUSH0 JUMPDEST DUP3 DUP2 LT ISZERO PUSH2 0x2481 JUMPI DUP5 DUP10 ADD MLOAD DUP3 SSTORE PUSH1 0x1 DUP3 ADD SWAP2 POP PUSH1 0x20 DUP6 ADD SWAP5 POP PUSH1 0x20 DUP2 ADD SWAP1 POP PUSH2 0x245C JUMP JUMPDEST DUP7 DUP4 LT ISZERO PUSH2 0x249E JUMPI DUP5 DUP10 ADD MLOAD PUSH2 0x249A PUSH1 0x1F DUP10 AND DUP3 PUSH2 0x23AD JUMP JUMPDEST DUP4 SSTORE POP JUMPDEST PUSH1 0x1 PUSH1 0x2 DUP9 MUL ADD DUP9 SSTORE POP POP POP JUMPDEST POP POP POP POP POP POP JUMP JUMPDEST PUSH0 PUSH1 0x80 DUP3 ADD SWAP1 POP PUSH2 0x24C6 PUSH0 DUP4 ADD DUP8 PUSH2 0x1C78 JUMP JUMPDEST PUSH2 0x24D3 PUSH1 0x20 DUP4 ADD DUP7 PUSH2 0x1C78 JUMP JUMPDEST PUSH2 0x24E0 PUSH1 0x40 DUP4 ADD DUP6 PUSH2 0x1C78 JUMP JUMPDEST DUP2 DUP2 SUB PUSH1 0x60 DUP4 ADD MSTORE PUSH2 0x24F2 DUP2 DUP5 PUSH2 0x1B02 JUMP JUMPDEST SWAP1 POP SWAP6 SWAP5 POP POP POP POP POP JUMP JUMPDEST PUSH0 DUP2 SWAP1 POP SWAP3 SWAP2 POP POP JUMP JUMPDEST PUSH0 PUSH2 0x2511 DUP3 PUSH2 0x1ACA JUMP JUMPDEST PUSH2 0x251B DUP2 DUP6 PUSH2 0x24FD JUMP JUMPDEST SWAP4 POP PUSH2 0x252B DUP2 DUP6 PUSH1 0x20 DUP7 ADD PUSH2 0x1AE4 JUMP JUMPDEST DUP1 DUP5 ADD SWAP2 POP POP SWAP3 SWAP2 POP POP JUMP JUMPDEST PUSH0 PUSH2 0x2542 DUP3 DUP6 PUSH2 0x2507 JUMP JUMPDEST SWAP2 POP PUSH2 0x254E DUP3 DUP5 PUSH2 0x2507 JUMP JUMPDEST SWAP2 POP DUP2 SWAP1 POP SWAP4 SWAP3 POP POP POP JUMP JUMPDEST PUSH0 DUP2 MLOAD SWAP1 POP SWAP2 SWAP1 POP JUMP JUMPDEST PUSH0 DUP3 DUP3 MSTORE PUSH1 0x20 DUP3 ADD SWAP1 POP SWAP3 SWAP2 POP POP JUMP JUMPDEST PUSH0 PUSH2 0x257E DUP3 PUSH2 0x255A JUMP JUMPDEST PUSH2 0x2588 DUP2 DUP6 PUSH2 0x2564 JUMP JUMPDEST SWAP4 POP PUSH2 0x2598 DUP2 DUP6 PUSH1 0x20 DUP7 ADD PUSH2 0x1AE4 JUMP JUMPDEST PUSH2 0x25A1 DUP2 PUSH2 0x1AF2 JUMP JUMPDEST DUP5 ADD SWAP2 POP POP SWAP3 SWAP2 POP POP JUMP JUMPDEST PUSH0 PUSH1 0x80 DUP3 ADD SWAP1 POP PUSH2 0x25BF PUSH0 DUP4 ADD DUP8 PUSH2 0x1BE8 JUMP JUMPDEST PUSH2 0x25CC PUSH1 0x20 DUP4 ADD DUP7 PUSH2 0x1BE8 JUMP JUMPDEST PUSH2 0x25D9 PUSH1 0x40 DUP4 ADD DUP6 PUSH2 0x1C78 JUMP JUMPDEST DUP2 DUP2 SUB PUSH1 0x60 DUP4 ADD MSTORE PUSH2 0x25EB DUP2 DUP5 PUSH2 0x2574 JUMP JUMPDEST SWAP1 POP SWAP6 SWAP5 POP POP POP POP POP JUMP JUMPDEST PUSH0 DUP2 MLOAD SWAP1 POP PUSH2 0x2604 DUP2 PUSH2 0x1A42 JUMP JUMPDEST SWAP3 SWAP2 POP POP JUMP JUMPDEST PUSH0 PUSH1 0x20 DUP3 DUP5 SUB SLT ISZERO PUSH2 0x261F JUMPI PUSH2 0x261E PUSH2 0x1A0F JUMP JUMPDEST JUMPDEST PUSH0 PUSH2 0x262C DUP5 DUP3 DUP6 ADD PUSH2 0x25F6 JUMP JUMPDEST SWAP2 POP POP SWAP3 SWAP2 POP POP JUMP JUMPDEST PUSH32 0x4E487B7100000000000000000000000000000000000000000000000000000000 PUSH0 MSTORE PUSH1 0x12 PUSH1 0x4 MSTORE PUSH1 0x24 PUSH0 REVERT JUMPDEST PUSH0 PUSH1 0x40 DUP3 ADD SWAP1 POP PUSH2 0x2675 PUSH0 DUP4 ADD DUP6 PUSH2 0x1BE8 JUMP JUMPDEST PUSH2 0x2682 PUSH1 0x20 DUP4 ADD DUP5 PUSH2 0x1C78 JUMP JUMPDEST SWAP4 SWAP3 POP POP POP JUMP INVALID LOG2 PUSH5 0x6970667358 0x22 SLT KECCAK256 COINBASE DUP8 SAR ADDMOD SLOAD NUMBER 0xFB 0xC1 CALLVALUE PUSH14 0x3FFCF0A3E3698FB80C4F9F46D6D EXTCODECOPY PUSH22 0x76F47909272D64736F6C634300081A00330000000000 "
				},
				"gasEstimates": {
					"creation": {
						"codeDepositCost": "1983800",
						"executionCost": "infinite",
						"totalCost": "infinite"
					},
					"external": {
						"approve(address,uint256)": "infinite",
						"balanceOf(address)": "infinite",
						"getApproved(uint256)": "infinite",
						"getInfo(uint256)": "infinite",
						"isApprovedForAll(address,address)": "infinite",
						"name()": "infinite",
						"owner()": "2582",
						"ownerOf(uint256)": "infinite",
						"register(uint256,uint256,string)": "infinite",
						"renounceOwnership()": "infinite",
						"safeTransferFrom(address,address,uint256)": "infinite",
						"safeTransferFrom(address,address,uint256,bytes)": "infinite",
						"setApprovalForAll(address,bool)": "infinite",
						"supportsInterface(bytes4)": "787",
						"symbol()": "infinite",
						"tokenURI(uint256)": "infinite",
						"transferFrom(address,address,uint256)": "infinite",
						"transferOwnership(address)": "infinite"
					}
				},
				"methodIdentifiers": {
					"approve(address,uint256)": "095ea7b3",
					"balanceOf(address)": "70a08231",
					"getApproved(uint256)": "081812fc",
					"getInfo(uint256)": "1a3cd59a",
					"isApprovedForAll(address,address)": "e985e9c5",
					"name()": "06fdde03",
					"owner()": "8da5cb5b",
					"ownerOf(uint256)": "6352211e",
					"register(uint256,uint256,string)": "61420e8c",
					"renounceOwnership()": "715018a6",
					"safeTransferFrom(address,address,uint256)": "42842e0e",
					"safeTransferFrom(address,address,uint256,bytes)": "b88d4fde",
					"setApprovalForAll(address,bool)": "a22cb465",
					"supportsInterface(bytes4)": "01ffc9a7",
					"symbol()": "95d89b41",
					"tokenURI(uint256)": "c87b56dd",
					"transferFrom(address,address,uint256)": "23b872dd",
					"transferOwnership(address)": "f2fde38b"
				}
			},
			"storageLayout": {
				"storage": [
					{
						"astId": 317,
						"contract": "contracts/TikTrixGame.sol:TikTrixGame",
						"label": "_name",
						"offset": 0,
						"slot": "0",
						"type": "t_string_storage"
					},
					{
						"astId": 319,
						"contract": "contracts/TikTrixGame.sol:TikTrixGame",
						"label": "_symbol",
						"offset": 0,
						"slot": "1",
						"type": "t_string_storage"
					},
					{
						"astId": 323,
						"contract": "contracts/TikTrixGame.sol:TikTrixGame",
						"label": "_owners",
						"offset": 0,
						"slot": "2",
						"type": "t_mapping(t_uint256,t_address)"
					},
					{
						"astId": 327,
						"contract": "contracts/TikTrixGame.sol:TikTrixGame",
						"label": "_balances",
						"offset": 0,
						"slot": "3",
						"type": "t_mapping(t_address,t_uint256)"
					},
					{
						"astId": 331,
						"contract": "contracts/TikTrixGame.sol:TikTrixGame",
						"label": "_tokenApprovals",
						"offset": 0,
						"slot": "4",
						"type": "t_mapping(t_uint256,t_address)"
					},
					{
						"astId": 337,
						"contract": "contracts/TikTrixGame.sol:TikTrixGame",
						"label": "_operatorApprovals",
						"offset": 0,
						"slot": "5",
						"type": "t_mapping(t_address,t_mapping(t_address,t_bool))"
					},
					{
						"astId": 8,
						"contract": "contracts/TikTrixGame.sol:TikTrixGame",
						"label": "_owner",
						"offset": 0,
						"slot": "6",
						"type": "t_address"
					},
					{
						"astId": 2956,
						"contract": "contracts/TikTrixGame.sol:TikTrixGame",
						"label": "gameInfos",
						"offset": 0,
						"slot": "7",
						"type": "t_mapping(t_uint256,t_struct(GameInfo)2951_storage)"
					},
					{
						"astId": 2959,
						"contract": "contracts/TikTrixGame.sol:TikTrixGame",
						"label": "currentTokenId",
						"offset": 0,
						"slot": "8",
						"type": "t_uint256"
					}
				],
				"types": {
					"t_address": {
						"encoding": "inplace",
						"label": "address",
						"numberOfBytes": "20"
					},
					"t_bool": {
						"encoding": "inplace",
						"label": "bool",
						"numberOfBytes": "1"
					},
					"t_mapping(t_address,t_bool)": {
						"encoding": "mapping",
						"key": "t_address",
						"label": "mapping(address => bool)",
						"numberOfBytes": "32",
						"value": "t_bool"
					},
					"t_mapping(t_address,t_mapping(t_address,t_bool))": {
						"encoding": "mapping",
						"key": "t_address",
						"label": "mapping(address => mapping(address => bool))",
						"numberOfBytes": "32",
						"value": "t_mapping(t_address,t_bool)"
					},
					"t_mapping(t_address,t_uint256)": {
						"encoding": "mapping",
						"key": "t_address",
						"label": "mapping(address => uint256)",
						"numberOfBytes": "32",
						"value": "t_uint256"
					},
					"t_mapping(t_uint256,t_address)": {
						"encoding": "mapping",
						"key": "t_uint256",
						"label": "mapping(uint256 => address)",
						"numberOfBytes": "32",
						"value": "t_address"
					},
					"t_mapping(t_uint256,t_struct(GameInfo)2951_storage)": {
						"encoding": "mapping",
						"key": "t_uint256",
						"label": "mapping(uint256 => struct TikTrixGame.GameInfo)",
						"numberOfBytes": "32",
						"value": "t_struct(GameInfo)2951_storage"
					},
					"t_string_storage": {
						"encoding": "bytes",
						"label": "string",
						"numberOfBytes": "32"
					},
					"t_struct(GameInfo)2951_storage": {
						"encoding": "inplace",
						"label": "struct TikTrixGame.GameInfo",
						"members": [
							{
								"astId": 2946,
								"contract": "contracts/TikTrixGame.sol:TikTrixGame",
								"label": "developerSeq",
								"offset": 0,
								"slot": "0",
								"type": "t_uint256"
							},
							{
								"astId": 2948,
								"contract": "contracts/TikTrixGame.sol:TikTrixGame",
								"label": "gameSeq",
								"offset": 0,
								"slot": "1",
								"type": "t_uint256"
							},
							{
								"astId": 2950,
								"contract": "contracts/TikTrixGame.sol:TikTrixGame",
								"label": "title",
								"offset": 0,
								"slot": "2",
								"type": "t_string_storage"
							}
						],
						"numberOfBytes": "96"
					},
					"t_uint256": {
						"encoding": "inplace",
						"label": "uint256",
						"numberOfBytes": "32"
					}
				}
			},
			"userdoc": {
				"kind": "user",
				"methods": {},
				"version": 1
			}
		}
	}
}