{
	"data": {
		"bytecode": {
			"linkReferences": {},
			"object": "608060405234801561000f575f80fd5b506040516121db3803806121db833981810160405281019061003191906102bc565b8160015f6101000a81548173ffffffffffffffffffffffffffffffffffffffff021916908373ffffffffffffffffffffffffffffffffffffffff1602179055508060025f6101000a81548173ffffffffffffffffffffffffffffffffffffffff021916908373ffffffffffffffffffffffffffffffffffffffff1602179055506100c35f801b336100fa60201b60201c565b6100f37fa49807205ce4d355092ef5a8a18f56e8913cf4a201fbe287825b095693c21775336100fa60201b60201c565b50506102fa565b61010a828261010e60201b60201c565b5050565b61011e82826101f460201b60201c565b6101f05760015f808481526020019081526020015f205f015f8373ffffffffffffffffffffffffffffffffffffffff1673ffffffffffffffffffffffffffffffffffffffff1681526020019081526020015f205f6101000a81548160ff02191690831515021790555061019561025760201b60201c565b73ffffffffffffffffffffffffffffffffffffffff168173ffffffffffffffffffffffffffffffffffffffff16837f2f8788117e7eff1d82e926ec794901d17c78024a50270940304540a733656f0d60405160405180910390a45b5050565b5f805f8481526020019081526020015f205f015f8373ffffffffffffffffffffffffffffffffffffffff1673ffffffffffffffffffffffffffffffffffffffff1681526020019081526020015f205f9054906101000a900460ff16905092915050565b5f33905090565b5f80fd5b5f73ffffffffffffffffffffffffffffffffffffffff82169050919050565b5f61028b82610262565b9050919050565b61029b81610281565b81146102a5575f80fd5b50565b5f815190506102b681610292565b92915050565b5f80604083850312156102d2576102d161025e565b5b5f6102df858286016102a8565b92505060206102f0858286016102a8565b9150509250929050565b611ed4806103075f395ff3fe608060405234801561000f575f80fd5b5060043610610109575f3560e01c806375b238fc116100a0578063a217fddf1161006f578063a217fddf146102b5578063c634b78e146102d3578063cbc7854e146102ef578063d547741f1461030b578063dd0c80821461032757610109565b806375b238fc1461022f57806375ef7e511461024d57806391d14854146102695780639a19c7b01461029957610109565b806328b69262116100dc57806328b69262146101a75780632ecf5ddc146101db5780632f2ff15d146101f757806336568abe1461021357610109565b806301ffc9a71461010d5780631b72fa3a1461013d5780631bff90b71461015b578063248a9ca314610177575b5f80fd5b610127600480360381019061012291906112bc565b610345565b6040516101349190611301565b60405180910390f35b6101456103be565b6040516101529190611394565b60405180910390f35b610175600480360381019061017091906113e0565b6103e3565b005b610191600480360381019061018c9190611477565b6107a8565b60405161019e91906114b1565b60405180910390f35b6101c160048036038101906101bc91906114ca565b6107c4565b6040516101d2959493929190611529565b60405180910390f35b6101f560048036038101906101f091906113e0565b610818565b005b610211600480360381019061020c91906115b5565b6109ac565b005b61022d600480360381019061022891906115b5565b6109cd565b005b610237610a50565b60405161024491906114b1565b60405180910390f35b61026760048036038101906102629190611654565b610a74565b005b610283600480360381019061027e91906115b5565b610b6f565b6040516102909190611301565b60405180910390f35b6102b360048036038101906102ae91906116b1565b610bd2565b005b6102bd610c0c565b6040516102ca91906114b1565b60405180910390f35b6102ed60048036038101906102e891906116b1565b610c12565b005b610309600480360381019061030491906116dc565b610c4c565b005b610325600480360381019061032091906115b5565b610cfb565b005b61032f610d1c565b60405161033c9190611394565b60405180910390f35b5f7f7965db0b000000000000000000000000000000000000000000000000000000007bffffffffffffffffffffffffffffffffffffffffffffffffffffffff1916827bffffffffffffffffffffffffffffffffffffffffffffffffffffffff191614806103b757506103b682610d41565b5b9050919050565b60025f9054906101000a900473ffffffffffffffffffffffffffffffffffffffff1681565b60035f8581526020019081526020015f205f8481526020019081526020015f205f8381526020019081526020015f206004015f9054906101000a900460ff1615610462576040517f08c379a00000000000000000000000000000000000000000000000000000000081526004016104599061179a565b60405180910390fd5b5f60015f9054906101000a900473ffffffffffffffffffffffffffffffffffffffff1673ffffffffffffffffffffffffffffffffffffffff1663dd62ed3e33306040518363ffffffff1660e01b81526004016104bf9291906117c7565b602060405180830381865afa1580156104da573d5f803e3d5ffd5b505050506040513d601f19601f820116820180604052508101906104fe9190611802565b905081811015610543576040517f08c379a000000000000000000000000000000000000000000000000000000000815260040161053a90611877565b60405180910390fd5b5f60015f9054906101000a900473ffffffffffffffffffffffffffffffffffffffff1673ffffffffffffffffffffffffffffffffffffffff166370a08231336040518263ffffffff1660e01b815260040161059e9190611895565b602060405180830381865afa1580156105b9573d5f803e3d5ffd5b505050506040513d601f19601f820116820180604052508101906105dd9190611802565b905082811015610622576040517f08c379a0000000000000000000000000000000000000000000000000000000008152600401610619906118f8565b60405180910390fd5b60015f9054906101000a900473ffffffffffffffffffffffffffffffffffffffff1673ffffffffffffffffffffffffffffffffffffffff166323b872dd3330866040518463ffffffff1660e01b815260040161068093929190611916565b6020604051808303815f875af115801561069c573d5f803e3d5ffd5b505050506040513d601f19601f820116820180604052508101906106c09190611975565b6106ff576040517f08c379a00000000000000000000000000000000000000000000000000000000081526004016106f6906119ea565b60405180910390fd5b6040518060a001604052808681526020018581526020018481526020015f81526020016001151581525060035f8881526020019081526020015f205f8781526020019081526020015f205f8681526020019081526020015f205f820151815f01556020820151816001015560408201518160020155606082015181600301556080820151816004015f6101000a81548160ff021916908315150217905550905050505050505050565b5f805f8381526020019081526020015f20600101549050919050565b6003602052825f5260405f20602052815f5260405f20602052805f5260405f205f925092505050805f015490806001015490806002015490806003015490806004015f9054906101000a900460ff16905085565b7fa49807205ce4d355092ef5a8a18f56e8913cf4a201fbe287825b095693c2177561084281610daa565b60035f8681526020019081526020015f205f8581526020019081526020015f205f8481526020019081526020015f206004015f9054906101000a900460ff166108c0576040517f08c379a00000000000000000000000000000000000000000000000000000000081526004016108b790611a52565b60405180910390fd5b8360035f8781526020019081526020015f205f8681526020019081526020015f205f8581526020019081526020015f205f015414610933576040517f08c379a000000000000000000000000000000000000000000000000000000000815260040161092a90611aba565b60405180910390fd5b60035f8681526020019081526020015f205f8581526020019081526020015f205f8481526020019081526020015f20600301548211156109a5578160035f8781526020019081526020015f205f8681526020019081526020015f205f8581526020019081526020015f20600301819055505b5050505050565b6109b5826107a8565b6109be81610daa565b6109c88383610dbe565b505050565b6109d5610e98565b73ffffffffffffffffffffffffffffffffffffffff168173ffffffffffffffffffffffffffffffffffffffff1614610a42576040517f08c379a0000000000000000000000000000000000000000000000000000000008152600401610a3990611b48565b60405180910390fd5b610a4c8282610e9f565b5050565b7fa49807205ce4d355092ef5a8a18f56e8913cf4a201fbe287825b095693c2177581565b7fa49807205ce4d355092ef5a8a18f56e8913cf4a201fbe287825b095693c21775610a9e81610daa565b5f5b84849050811015610b685760025f9054906101000a900473ffffffffffffffffffffffffffffffffffffffff1673ffffffffffffffffffffffffffffffffffffffff166340c10f19868684818110610afb57610afa611b66565b5b9050602002016020810190610b1091906116b1565b856040518363ffffffff1660e01b8152600401610b2e929190611b93565b5f604051808303815f87803b158015610b45575f80fd5b505af1158015610b57573d5f803e3d5ffd5b505050508080600101915050610aa0565b5050505050565b5f805f8481526020019081526020015f205f015f8373ffffffffffffffffffffffffffffffffffffffff1673ffffffffffffffffffffffffffffffffffffffff1681526020019081526020015f205f9054906101000a900460ff16905092915050565b5f801b610bde81610daa565b610c087fa49807205ce4d355092ef5a8a18f56e8913cf4a201fbe287825b095693c2177583610cfb565b5050565b5f801b81565b5f801b610c1e81610daa565b610c487fa49807205ce4d355092ef5a8a18f56e8913cf4a201fbe287825b095693c21775836109ac565b5050565b7fa49807205ce4d355092ef5a8a18f56e8913cf4a201fbe287825b095693c21775610c7681610daa565b8260015f6101000a81548173ffffffffffffffffffffffffffffffffffffffff021916908373ffffffffffffffffffffffffffffffffffffffff1602179055508160025f6101000a81548173ffffffffffffffffffffffffffffffffffffffff021916908373ffffffffffffffffffffffffffffffffffffffff160217905550505050565b610d04826107a8565b610d0d81610daa565b610d178383610e9f565b505050565b60015f9054906101000a900473ffffffffffffffffffffffffffffffffffffffff1681565b5f7f01ffc9a7000000000000000000000000000000000000000000000000000000007bffffffffffffffffffffffffffffffffffffffffffffffffffffffff1916827bffffffffffffffffffffffffffffffffffffffffffffffffffffffff1916149050919050565b610dbb81610db6610e98565b610f79565b50565b610dc88282610b6f565b610e945760015f808481526020019081526020015f205f015f8373ffffffffffffffffffffffffffffffffffffffff1673ffffffffffffffffffffffffffffffffffffffff1681526020019081526020015f205f6101000a81548160ff021916908315150217905550610e39610e98565b73ffffffffffffffffffffffffffffffffffffffff168173ffffffffffffffffffffffffffffffffffffffff16837f2f8788117e7eff1d82e926ec794901d17c78024a50270940304540a733656f0d60405160405180910390a45b5050565b5f33905090565b610ea98282610b6f565b15610f75575f805f8481526020019081526020015f205f015f8373ffffffffffffffffffffffffffffffffffffffff1673ffffffffffffffffffffffffffffffffffffffff1681526020019081526020015f205f6101000a81548160ff021916908315150217905550610f1a610e98565b73ffffffffffffffffffffffffffffffffffffffff168173ffffffffffffffffffffffffffffffffffffffff16837ff6391f5c32d9c69d2a47ea670b442974b53935d1edc7fd64eb21e047a839171b60405160405180910390a45b5050565b610f838282610b6f565b610ff957610f9081610ffd565b610f9d835f1c602061102a565b604051602001610fae929190611ca0565b6040516020818303038152906040526040517f08c379a0000000000000000000000000000000000000000000000000000000008152600401610ff09190611d21565b60405180910390fd5b5050565b60606110238273ffffffffffffffffffffffffffffffffffffffff16601460ff1661102a565b9050919050565b60605f600283600261103c9190611d6e565b6110469190611daf565b67ffffffffffffffff81111561105f5761105e611de2565b5b6040519080825280601f01601f1916602001820160405280156110915781602001600182028036833780820191505090505b5090507f3000000000000000000000000000000000000000000000000000000000000000815f815181106110c8576110c7611b66565b5b60200101907effffffffffffffffffffffffffffffffffffffffffffffffffffffffffffff191690815f1a9053507f78000000000000000000000000000000000000000000000000000000000000008160018151811061112b5761112a611b66565b5b60200101907effffffffffffffffffffffffffffffffffffffffffffffffffffffffffffff191690815f1a9053505f60018460026111699190611d6e565b6111739190611daf565b90505b6001811115611212577f3031323334353637383961626364656600000000000000000000000000000000600f8616601081106111b5576111b4611b66565b5b1a60f81b8282815181106111cc576111cb611b66565b5b60200101907effffffffffffffffffffffffffffffffffffffffffffffffffffffffffffff191690815f1a905350600485901c94508061120b90611e0f565b9050611176565b505f8414611255576040517f08c379a000000000000000000000000000000000000000000000000000000000815260040161124c90611e80565b60405180910390fd5b8091505092915050565b5f80fd5b5f80fd5b5f7fffffffff0000000000000000000000000000000000000000000000000000000082169050919050565b61129b81611267565b81146112a5575f80fd5b50565b5f813590506112b681611292565b92915050565b5f602082840312156112d1576112d061125f565b5b5f6112de848285016112a8565b91505092915050565b5f8115159050919050565b6112fb816112e7565b82525050565b5f6020820190506113145f8301846112f2565b92915050565b5f73ffffffffffffffffffffffffffffffffffffffff82169050919050565b5f819050919050565b5f61135c6113576113528461131a565b611339565b61131a565b9050919050565b5f61136d82611342565b9050919050565b5f61137e82611363565b9050919050565b61138e81611374565b82525050565b5f6020820190506113a75f830184611385565b92915050565b5f819050919050565b6113bf816113ad565b81146113c9575f80fd5b50565b5f813590506113da816113b6565b92915050565b5f805f80608085870312156113f8576113f761125f565b5b5f611405878288016113cc565b9450506020611416878288016113cc565b9350506040611427878288016113cc565b9250506060611438878288016113cc565b91505092959194509250565b5f819050919050565b61145681611444565b8114611460575f80fd5b50565b5f813590506114718161144d565b92915050565b5f6020828403121561148c5761148b61125f565b5b5f61149984828501611463565b91505092915050565b6114ab81611444565b82525050565b5f6020820190506114c45f8301846114a2565b92915050565b5f805f606084860312156114e1576114e061125f565b5b5f6114ee868287016113cc565b93505060206114ff868287016113cc565b9250506040611510868287016113cc565b9150509250925092565b611523816113ad565b82525050565b5f60a08201905061153c5f83018861151a565b611549602083018761151a565b611556604083018661151a565b611563606083018561151a565b61157060808301846112f2565b9695505050505050565b5f6115848261131a565b9050919050565b6115948161157a565b811461159e575f80fd5b50565b5f813590506115af8161158b565b92915050565b5f80604083850312156115cb576115ca61125f565b5b5f6115d885828601611463565b92505060206115e9858286016115a1565b9150509250929050565b5f80fd5b5f80fd5b5f80fd5b5f8083601f840112611614576116136115f3565b5b8235905067ffffffffffffffff811115611631576116306115f7565b5b60208301915083602082028301111561164d5761164c6115fb565b5b9250929050565b5f805f6040848603121561166b5761166a61125f565b5b5f84013567ffffffffffffffff81111561168857611687611263565b5b611694868287016115ff565b935093505060206116a7868287016113cc565b9150509250925092565b5f602082840312156116c6576116c561125f565b5b5f6116d3848285016115a1565b91505092915050565b5f80604083850312156116f2576116f161125f565b5b5f6116ff858286016115a1565b9250506020611710858286016115a1565b9150509250929050565b5f82825260208201905092915050565b7f4368616c6c656e676520616c72656164792065786973747320666f72207468695f8201527f73206d656d6265722c20646174652c20616e642067616d650000000000000000602082015250565b5f61178460388361171a565b915061178f8261172a565b604082019050919050565b5f6020820190508181035f8301526117b181611778565b9050919050565b6117c18161157a565b82525050565b5f6040820190506117da5f8301856117b8565b6117e760208301846117b8565b9392505050565b5f815190506117fc816113b6565b92915050565b5f602082840312156118175761181661125f565b5b5f611824848285016117ee565b91505092915050565b7f496e73756666696369656e7420746f6b656e20616c6c6f77616e6365000000005f82015250565b5f611861601c8361171a565b915061186c8261182d565b602082019050919050565b5f6020820190508181035f83015261188e81611855565b9050919050565b5f6020820190506118a85f8301846117b8565b92915050565b7f496e73756666696369656e7420746f6b656e2062616c616e63650000000000005f82015250565b5f6118e2601a8361171a565b91506118ed826118ae565b602082019050919050565b5f6020820190508181035f83015261190f816118d6565b9050919050565b5f6060820190506119295f8301866117b8565b61193660208301856117b8565b611943604083018461151a565b949350505050565b611954816112e7565b811461195e575f80fd5b50565b5f8151905061196f8161194b565b92915050565b5f6020828403121561198a5761198961125f565b5b5f61199784828501611961565b91505092915050565b7f546f6b656e207472616e73666572206661696c656400000000000000000000005f82015250565b5f6119d460158361171a565b91506119df826119a0565b602082019050919050565b5f6020820190508181035f830152611a01816119c8565b9050919050565b7f4368616c6c656e676520646f6573206e6f7420657869737400000000000000005f82015250565b5f611a3c60188361171a565b9150611a4782611a08565b602082019050919050565b5f6020820190508181035f830152611a6981611a30565b9050919050565b7f47616d652073657175656e6365206d69736d61746368000000000000000000005f82015250565b5f611aa460168361171a565b9150611aaf82611a70565b602082019050919050565b5f6020820190508181035f830152611ad181611a98565b9050919050565b7f416363657373436f6e74726f6c3a2063616e206f6e6c792072656e6f756e63655f8201527f20726f6c657320666f722073656c660000000000000000000000000000000000602082015250565b5f611b32602f8361171a565b9150611b3d82611ad8565b604082019050919050565b5f6020820190508181035f830152611b5f81611b26565b9050919050565b7f4e487b71000000000000000000000000000000000000000000000000000000005f52603260045260245ffd5b5f604082019050611ba65f8301856117b8565b611bb3602083018461151a565b9392505050565b5f81905092915050565b7f416363657373436f6e74726f6c3a206163636f756e74200000000000000000005f82015250565b5f611bf8601783611bba565b9150611c0382611bc4565b601782019050919050565b5f81519050919050565b8281835e5f83830152505050565b5f611c3082611c0e565b611c3a8185611bba565b9350611c4a818560208601611c18565b80840191505092915050565b7f206973206d697373696e6720726f6c65200000000000000000000000000000005f82015250565b5f611c8a601183611bba565b9150611c9582611c56565b601182019050919050565b5f611caa82611bec565b9150611cb68285611c26565b9150611cc182611c7e565b9150611ccd8284611c26565b91508190509392505050565b5f601f19601f8301169050919050565b5f611cf382611c0e565b611cfd818561171a565b9350611d0d818560208601611c18565b611d1681611cd9565b840191505092915050565b5f6020820190508181035f830152611d398184611ce9565b905092915050565b7f4e487b71000000000000000000000000000000000000000000000000000000005f52601160045260245ffd5b5f611d78826113ad565b9150611d83836113ad565b9250828202611d91816113ad565b91508282048414831517611da857611da7611d41565b5b5092915050565b5f611db9826113ad565b9150611dc4836113ad565b9250828201905080821115611ddc57611ddb611d41565b5b92915050565b7f4e487b71000000000000000000000000000000000000000000000000000000005f52604160045260245ffd5b5f611e19826113ad565b91505f8203611e2b57611e2a611d41565b5b600182039050919050565b7f537472696e67733a20686578206c656e67746820696e73756666696369656e745f82015250565b5f611e6a60208361171a565b9150611e7582611e36565b602082019050919050565b5f6020820190508181035f830152611e9781611e5e565b905091905056fea26469706673582212207240244d46937933ddb99a4ab923edb64725db8d20c3948d44342264b1493c1164736f6c634300081a0033",
			"opcodes": "PUSH1 0x80 PUSH1 0x40 MSTORE CALLVALUE DUP1 ISZERO PUSH2 0xF JUMPI PUSH0 DUP1 REVERT JUMPDEST POP PUSH1 0x40 MLOAD PUSH2 0x21DB CODESIZE SUB DUP1 PUSH2 0x21DB DUP4 CODECOPY DUP2 DUP2 ADD PUSH1 0x40 MSTORE DUP2 ADD SWAP1 PUSH2 0x31 SWAP2 SWAP1 PUSH2 0x2BC JUMP JUMPDEST DUP2 PUSH1 0x1 PUSH0 PUSH2 0x100 EXP DUP2 SLOAD DUP2 PUSH20 0xFFFFFFFFFFFFFFFFFFFFFFFFFFFFFFFFFFFFFFFF MUL NOT AND SWAP1 DUP4 PUSH20 0xFFFFFFFFFFFFFFFFFFFFFFFFFFFFFFFFFFFFFFFF AND MUL OR SWAP1 SSTORE POP DUP1 PUSH1 0x2 PUSH0 PUSH2 0x100 EXP DUP2 SLOAD DUP2 PUSH20 0xFFFFFFFFFFFFFFFFFFFFFFFFFFFFFFFFFFFFFFFF MUL NOT AND SWAP1 DUP4 PUSH20 0xFFFFFFFFFFFFFFFFFFFFFFFFFFFFFFFFFFFFFFFF AND MUL OR SWAP1 SSTORE POP PUSH2 0xC3 PUSH0 DUP1 SHL CALLER PUSH2 0xFA PUSH1 0x20 SHL PUSH1 0x20 SHR JUMP JUMPDEST PUSH2 0xF3 PUSH32 0xA49807205CE4D355092EF5A8A18F56E8913CF4A201FBE287825B095693C21775 CALLER PUSH2 0xFA PUSH1 0x20 SHL PUSH1 0x20 SHR JUMP JUMPDEST POP POP PUSH2 0x2FA JUMP JUMPDEST PUSH2 0x10A DUP3 DUP3 PUSH2 0x10E PUSH1 0x20 SHL PUSH1 0x20 SHR JUMP JUMPDEST POP POP JUMP JUMPDEST PUSH2 0x11E DUP3 DUP3 PUSH2 0x1F4 PUSH1 0x20 SHL PUSH1 0x20 SHR JUMP JUMPDEST PUSH2 0x1F0 JUMPI PUSH1 0x1 PUSH0 DUP1 DUP5 DUP2 MSTORE PUSH1 0x20 ADD SWAP1 DUP2 MSTORE PUSH1 0x20 ADD PUSH0 KECCAK256 PUSH0 ADD PUSH0 DUP4 PUSH20 0xFFFFFFFFFFFFFFFFFFFFFFFFFFFFFFFFFFFFFFFF AND PUSH20 0xFFFFFFFFFFFFFFFFFFFFFFFFFFFFFFFFFFFFFFFF AND DUP2 MSTORE PUSH1 0x20 ADD SWAP1 DUP2 MSTORE PUSH1 0x20 ADD PUSH0 KECCAK256 PUSH0 PUSH2 0x100 EXP DUP2 SLOAD DUP2 PUSH1 0xFF MUL NOT AND SWAP1 DUP4 ISZERO ISZERO MUL OR SWAP1 SSTORE POP PUSH2 0x195 PUSH2 0x257 PUSH1 0x20 SHL PUSH1 0x20 SHR JUMP JUMPDEST PUSH20 0xFFFFFFFFFFFFFFFFFFFFFFFFFFFFFFFFFFFFFFFF AND DUP2 PUSH20 0xFFFFFFFFFFFFFFFFFFFFFFFFFFFFFFFFFFFFFFFF AND DUP4 PUSH32 0x2F8788117E7EFF1D82E926EC794901D17C78024A50270940304540A733656F0D PUSH1 0x40 MLOAD PUSH1 0x40 MLOAD DUP1 SWAP2 SUB SWAP1 LOG4 JUMPDEST POP POP JUMP JUMPDEST PUSH0 DUP1 PUSH0 DUP5 DUP2 MSTORE PUSH1 0x20 ADD SWAP1 DUP2 MSTORE PUSH1 0x20 ADD PUSH0 KECCAK256 PUSH0 ADD PUSH0 DUP4 PUSH20 0xFFFFFFFFFFFFFFFFFFFFFFFFFFFFFFFFFFFFFFFF AND PUSH20 0xFFFFFFFFFFFFFFFFFFFFFFFFFFFFFFFFFFFFFFFF AND DUP2 MSTORE PUSH1 0x20 ADD SWAP1 DUP2 MSTORE PUSH1 0x20 ADD PUSH0 KECCAK256 PUSH0 SWAP1 SLOAD SWAP1 PUSH2 0x100 EXP SWAP1 DIV PUSH1 0xFF AND SWAP1 POP SWAP3 SWAP2 POP POP JUMP JUMPDEST PUSH0 CALLER SWAP1 POP SWAP1 JUMP JUMPDEST PUSH0 DUP1 REVERT JUMPDEST PUSH0 PUSH20 0xFFFFFFFFFFFFFFFFFFFFFFFFFFFFFFFFFFFFFFFF DUP3 AND SWAP1 POP SWAP2 SWAP1 POP JUMP JUMPDEST PUSH0 PUSH2 0x28B DUP3 PUSH2 0x262 JUMP JUMPDEST SWAP1 POP SWAP2 SWAP1 POP JUMP JUMPDEST PUSH2 0x29B DUP2 PUSH2 0x281 JUMP JUMPDEST DUP2 EQ PUSH2 0x2A5 JUMPI PUSH0 DUP1 REVERT JUMPDEST POP JUMP JUMPDEST PUSH0 DUP2 MLOAD SWAP1 POP PUSH2 0x2B6 DUP2 PUSH2 0x292 JUMP JUMPDEST SWAP3 SWAP2 POP POP JUMP JUMPDEST PUSH0 DUP1 PUSH1 0x40 DUP4 DUP6 SUB SLT ISZERO PUSH2 0x2D2 JUMPI PUSH2 0x2D1 PUSH2 0x25E JUMP JUMPDEST JUMPDEST PUSH0 PUSH2 0x2DF DUP6 DUP3 DUP7 ADD PUSH2 0x2A8 JUMP JUMPDEST SWAP3 POP POP PUSH1 0x20 PUSH2 0x2F0 DUP6 DUP3 DUP7 ADD PUSH2 0x2A8 JUMP JUMPDEST SWAP2 POP POP SWAP3 POP SWAP3 SWAP1 POP JUMP JUMPDEST PUSH2 0x1ED4 DUP1 PUSH2 0x307 PUSH0 CODECOPY PUSH0 RETURN INVALID PUSH1 0x80 PUSH1 0x40 MSTORE CALLVALUE DUP1 ISZERO PUSH2 0xF JUMPI PUSH0 DUP1 REVERT JUMPDEST POP PUSH1 0x4 CALLDATASIZE LT PUSH2 0x109 JUMPI PUSH0 CALLDATALOAD PUSH1 0xE0 SHR DUP1 PUSH4 0x75B238FC GT PUSH2 0xA0 JUMPI DUP1 PUSH4 0xA217FDDF GT PUSH2 0x6F JUMPI DUP1 PUSH4 0xA217FDDF EQ PUSH2 0x2B5 JUMPI DUP1 PUSH4 0xC634B78E EQ PUSH2 0x2D3 JUMPI DUP1 PUSH4 0xCBC7854E EQ PUSH2 0x2EF JUMPI DUP1 PUSH4 0xD547741F EQ PUSH2 0x30B JUMPI DUP1 PUSH4 0xDD0C8082 EQ PUSH2 0x327 JUMPI PUSH2 0x109 JUMP JUMPDEST DUP1 PUSH4 0x75B238FC EQ PUSH2 0x22F JUMPI DUP1 PUSH4 0x75EF7E51 EQ PUSH2 0x24D JUMPI DUP1 PUSH4 0x91D14854 EQ PUSH2 0x269 JUMPI DUP1 PUSH4 0x9A19C7B0 EQ PUSH2 0x299 JUMPI PUSH2 0x109 JUMP JUMPDEST DUP1 PUSH4 0x28B69262 GT PUSH2 0xDC JUMPI DUP1 PUSH4 0x28B69262 EQ PUSH2 0x1A7 JUMPI DUP1 PUSH4 0x2ECF5DDC EQ PUSH2 0x1DB JUMPI DUP1 PUSH4 0x2F2FF15D EQ PUSH2 0x1F7 JUMPI DUP1 PUSH4 0x36568ABE EQ PUSH2 0x213 JUMPI PUSH2 0x109 JUMP JUMPDEST DUP1 PUSH4 0x1FFC9A7 EQ PUSH2 0x10D JUMPI DUP1 PUSH4 0x1B72FA3A EQ PUSH2 0x13D JUMPI DUP1 PUSH4 0x1BFF90B7 EQ PUSH2 0x15B JUMPI DUP1 PUSH4 0x248A9CA3 EQ PUSH2 0x177 JUMPI JUMPDEST PUSH0 DUP1 REVERT JUMPDEST PUSH2 0x127 PUSH1 0x4 DUP1 CALLDATASIZE SUB DUP2 ADD SWAP1 PUSH2 0x122 SWAP2 SWAP1 PUSH2 0x12BC JUMP JUMPDEST PUSH2 0x345 JUMP JUMPDEST PUSH1 0x40 MLOAD PUSH2 0x134 SWAP2 SWAP1 PUSH2 0x1301 JUMP JUMPDEST PUSH1 0x40 MLOAD DUP1 SWAP2 SUB SWAP1 RETURN JUMPDEST PUSH2 0x145 PUSH2 0x3BE JUMP JUMPDEST PUSH1 0x40 MLOAD PUSH2 0x152 SWAP2 SWAP1 PUSH2 0x1394 JUMP JUMPDEST PUSH1 0x40 MLOAD DUP1 SWAP2 SUB SWAP1 RETURN JUMPDEST PUSH2 0x175 PUSH1 0x4 DUP1 CALLDATASIZE SUB DUP2 ADD SWAP1 PUSH2 0x170 SWAP2 SWAP1 PUSH2 0x13E0 JUMP JUMPDEST PUSH2 0x3E3 JUMP JUMPDEST STOP JUMPDEST PUSH2 0x191 PUSH1 0x4 DUP1 CALLDATASIZE SUB DUP2 ADD SWAP1 PUSH2 0x18C SWAP2 SWAP1 PUSH2 0x1477 JUMP JUMPDEST PUSH2 0x7A8 JUMP JUMPDEST PUSH1 0x40 MLOAD PUSH2 0x19E SWAP2 SWAP1 PUSH2 0x14B1 JUMP JUMPDEST PUSH1 0x40 MLOAD DUP1 SWAP2 SUB SWAP1 RETURN JUMPDEST PUSH2 0x1C1 PUSH1 0x4 DUP1 CALLDATASIZE SUB DUP2 ADD SWAP1 PUSH2 0x1BC SWAP2 SWAP1 PUSH2 0x14CA JUMP JUMPDEST PUSH2 0x7C4 JUMP JUMPDEST PUSH1 0x40 MLOAD PUSH2 0x1D2 SWAP6 SWAP5 SWAP4 SWAP3 SWAP2 SWAP1 PUSH2 0x1529 JUMP JUMPDEST PUSH1 0x40 MLOAD DUP1 SWAP2 SUB SWAP1 RETURN JUMPDEST PUSH2 0x1F5 PUSH1 0x4 DUP1 CALLDATASIZE SUB DUP2 ADD SWAP1 PUSH2 0x1F0 SWAP2 SWAP1 PUSH2 0x13E0 JUMP JUMPDEST PUSH2 0x818 JUMP JUMPDEST STOP JUMPDEST PUSH2 0x211 PUSH1 0x4 DUP1 CALLDATASIZE SUB DUP2 ADD SWAP1 PUSH2 0x20C SWAP2 SWAP1 PUSH2 0x15B5 JUMP JUMPDEST PUSH2 0x9AC JUMP JUMPDEST STOP JUMPDEST PUSH2 0x22D PUSH1 0x4 DUP1 CALLDATASIZE SUB DUP2 ADD SWAP1 PUSH2 0x228 SWAP2 SWAP1 PUSH2 0x15B5 JUMP JUMPDEST PUSH2 0x9CD JUMP JUMPDEST STOP JUMPDEST PUSH2 0x237 PUSH2 0xA50 JUMP JUMPDEST PUSH1 0x40 MLOAD PUSH2 0x244 SWAP2 SWAP1 PUSH2 0x14B1 JUMP JUMPDEST PUSH1 0x40 MLOAD DUP1 SWAP2 SUB SWAP1 RETURN JUMPDEST PUSH2 0x267 PUSH1 0x4 DUP1 CALLDATASIZE SUB DUP2 ADD SWAP1 PUSH2 0x262 SWAP2 SWAP1 PUSH2 0x1654 JUMP JUMPDEST PUSH2 0xA74 JUMP JUMPDEST STOP JUMPDEST PUSH2 0x283 PUSH1 0x4 DUP1 CALLDATASIZE SUB DUP2 ADD SWAP1 PUSH2 0x27E SWAP2 SWAP1 PUSH2 0x15B5 JUMP JUMPDEST PUSH2 0xB6F JUMP JUMPDEST PUSH1 0x40 MLOAD PUSH2 0x290 SWAP2 SWAP1 PUSH2 0x1301 JUMP JUMPDEST PUSH1 0x40 MLOAD DUP1 SWAP2 SUB SWAP1 RETURN JUMPDEST PUSH2 0x2B3 PUSH1 0x4 DUP1 CALLDATASIZE SUB DUP2 ADD SWAP1 PUSH2 0x2AE SWAP2 SWAP1 PUSH2 0x16B1 JUMP JUMPDEST PUSH2 0xBD2 JUMP JUMPDEST STOP JUMPDEST PUSH2 0x2BD PUSH2 0xC0C JUMP JUMPDEST PUSH1 0x40 MLOAD PUSH2 0x2CA SWAP2 SWAP1 PUSH2 0x14B1 JUMP JUMPDEST PUSH1 0x40 MLOAD DUP1 SWAP2 SUB SWAP1 RETURN JUMPDEST PUSH2 0x2ED PUSH1 0x4 DUP1 CALLDATASIZE SUB DUP2 ADD SWAP1 PUSH2 0x2E8 SWAP2 SWAP1 PUSH2 0x16B1 JUMP JUMPDEST PUSH2 0xC12 JUMP JUMPDEST STOP JUMPDEST PUSH2 0x309 PUSH1 0x4 DUP1 CALLDATASIZE SUB DUP2 ADD SWAP1 PUSH2 0x304 SWAP2 SWAP1 PUSH2 0x16DC JUMP JUMPDEST PUSH2 0xC4C JUMP JUMPDEST STOP JUMPDEST PUSH2 0x325 PUSH1 0x4 DUP1 CALLDATASIZE SUB DUP2 ADD SWAP1 PUSH2 0x320 SWAP2 SWAP1 PUSH2 0x15B5 JUMP JUMPDEST PUSH2 0xCFB JUMP JUMPDEST STOP JUMPDEST PUSH2 0x32F PUSH2 0xD1C JUMP JUMPDEST PUSH1 0x40 MLOAD PUSH2 0x33C SWAP2 SWAP1 PUSH2 0x1394 JUMP JUMPDEST PUSH1 0x40 MLOAD DUP1 SWAP2 SUB SWAP1 RETURN JUMPDEST PUSH0 PUSH32 0x7965DB0B00000000000000000000000000000000000000000000000000000000 PUSH28 0xFFFFFFFFFFFFFFFFFFFFFFFFFFFFFFFFFFFFFFFFFFFFFFFFFFFFFFFF NOT AND DUP3 PUSH28 0xFFFFFFFFFFFFFFFFFFFFFFFFFFFFFFFFFFFFFFFFFFFFFFFFFFFFFFFF NOT AND EQ DUP1 PUSH2 0x3B7 JUMPI POP PUSH2 0x3B6 DUP3 PUSH2 0xD41 JUMP JUMPDEST JUMPDEST SWAP1 POP SWAP2 SWAP1 POP JUMP JUMPDEST PUSH1 0x2 PUSH0 SWAP1 SLOAD SWAP1 PUSH2 0x100 EXP SWAP1 DIV PUSH20 0xFFFFFFFFFFFFFFFFFFFFFFFFFFFFFFFFFFFFFFFF AND DUP2 JUMP JUMPDEST PUSH1 0x3 PUSH0 DUP6 DUP2 MSTORE PUSH1 0x20 ADD SWAP1 DUP2 MSTORE PUSH1 0x20 ADD PUSH0 KECCAK256 PUSH0 DUP5 DUP2 MSTORE PUSH1 0x20 ADD SWAP1 DUP2 MSTORE PUSH1 0x20 ADD PUSH0 KECCAK256 PUSH0 DUP4 DUP2 MSTORE PUSH1 0x20 ADD SWAP1 DUP2 MSTORE PUSH1 0x20 ADD PUSH0 KECCAK256 PUSH1 0x4 ADD PUSH0 SWAP1 SLOAD SWAP1 PUSH2 0x100 EXP SWAP1 DIV PUSH1 0xFF AND ISZERO PUSH2 0x462 JUMPI PUSH1 0x40 MLOAD PUSH32 0x8C379A000000000000000000000000000000000000000000000000000000000 DUP2 MSTORE PUSH1 0x4 ADD PUSH2 0x459 SWAP1 PUSH2 0x179A JUMP JUMPDEST PUSH1 0x40 MLOAD DUP1 SWAP2 SUB SWAP1 REVERT JUMPDEST PUSH0 PUSH1 0x1 PUSH0 SWAP1 SLOAD SWAP1 PUSH2 0x100 EXP SWAP1 DIV PUSH20 0xFFFFFFFFFFFFFFFFFFFFFFFFFFFFFFFFFFFFFFFF AND PUSH20 0xFFFFFFFFFFFFFFFFFFFFFFFFFFFFFFFFFFFFFFFF AND PUSH4 0xDD62ED3E CALLER ADDRESS PUSH1 0x40 MLOAD DUP4 PUSH4 0xFFFFFFFF AND PUSH1 0xE0 SHL DUP2 MSTORE PUSH1 0x4 ADD PUSH2 0x4BF SWAP3 SWAP2 SWAP1 PUSH2 0x17C7 JUMP JUMPDEST PUSH1 0x20 PUSH1 0x40 MLOAD DUP1 DUP4 SUB DUP2 DUP7 GAS STATICCALL ISZERO DUP1 ISZERO PUSH2 0x4DA JUMPI RETURNDATASIZE PUSH0 DUP1 RETURNDATACOPY RETURNDATASIZE PUSH0 REVERT JUMPDEST POP POP POP POP PUSH1 0x40 MLOAD RETURNDATASIZE PUSH1 0x1F NOT PUSH1 0x1F DUP3 ADD AND DUP3 ADD DUP1 PUSH1 0x40 MSTORE POP DUP2 ADD SWAP1 PUSH2 0x4FE SWAP2 SWAP1 PUSH2 0x1802 JUMP JUMPDEST SWAP1 POP DUP2 DUP2 LT ISZERO PUSH2 0x543 JUMPI PUSH1 0x40 MLOAD PUSH32 0x8C379A000000000000000000000000000000000000000000000000000000000 DUP2 MSTORE PUSH1 0x4 ADD PUSH2 0x53A SWAP1 PUSH2 0x1877 JUMP JUMPDEST PUSH1 0x40 MLOAD DUP1 SWAP2 SUB SWAP1 REVERT JUMPDEST PUSH0 PUSH1 0x1 PUSH0 SWAP1 SLOAD SWAP1 PUSH2 0x100 EXP SWAP1 DIV PUSH20 0xFFFFFFFFFFFFFFFFFFFFFFFFFFFFFFFFFFFFFFFF AND PUSH20 0xFFFFFFFFFFFFFFFFFFFFFFFFFFFFFFFFFFFFFFFF AND PUSH4 0x70A08231 CALLER PUSH1 0x40 MLOAD DUP3 PUSH4 0xFFFFFFFF AND PUSH1 0xE0 SHL DUP2 MSTORE PUSH1 0x4 ADD PUSH2 0x59E SWAP2 SWAP1 PUSH2 0x1895 JUMP JUMPDEST PUSH1 0x20 PUSH1 0x40 MLOAD DUP1 DUP4 SUB DUP2 DUP7 GAS STATICCALL ISZERO DUP1 ISZERO PUSH2 0x5B9 JUMPI RETURNDATASIZE PUSH0 DUP1 RETURNDATACOPY RETURNDATASIZE PUSH0 REVERT JUMPDEST POP POP POP POP PUSH1 0x40 MLOAD RETURNDATASIZE PUSH1 0x1F NOT PUSH1 0x1F DUP3 ADD AND DUP3 ADD DUP1 PUSH1 0x40 MSTORE POP DUP2 ADD SWAP1 PUSH2 0x5DD SWAP2 SWAP1 PUSH2 0x1802 JUMP JUMPDEST SWAP1 POP DUP3 DUP2 LT ISZERO PUSH2 0x622 JUMPI PUSH1 0x40 MLOAD PUSH32 0x8C379A000000000000000000000000000000000000000000000000000000000 DUP2 MSTORE PUSH1 0x4 ADD PUSH2 0x619 SWAP1 PUSH2 0x18F8 JUMP JUMPDEST PUSH1 0x40 MLOAD DUP1 SWAP2 SUB SWAP1 REVERT JUMPDEST PUSH1 0x1 PUSH0 SWAP1 SLOAD SWAP1 PUSH2 0x100 EXP SWAP1 DIV PUSH20 0xFFFFFFFFFFFFFFFFFFFFFFFFFFFFFFFFFFFFFFFF AND PUSH20 0xFFFFFFFFFFFFFFFFFFFFFFFFFFFFFFFFFFFFFFFF AND PUSH4 0x23B872DD CALLER ADDRESS DUP7 PUSH1 0x40 MLOAD DUP5 PUSH4 0xFFFFFFFF AND PUSH1 0xE0 SHL DUP2 MSTORE PUSH1 0x4 ADD PUSH2 0x680 SWAP4 SWAP3 SWAP2 SWAP1 PUSH2 0x1916 JUMP JUMPDEST PUSH1 0x20 PUSH1 0x40 MLOAD DUP1 DUP4 SUB DUP2 PUSH0 DUP8 GAS CALL ISZERO DUP1 ISZERO PUSH2 0x69C JUMPI RETURNDATASIZE PUSH0 DUP1 RETURNDATACOPY RETURNDATASIZE PUSH0 REVERT JUMPDEST POP POP POP POP PUSH1 0x40 MLOAD RETURNDATASIZE PUSH1 0x1F NOT PUSH1 0x1F DUP3 ADD AND DUP3 ADD DUP1 PUSH1 0x40 MSTORE POP DUP2 ADD SWAP1 PUSH2 0x6C0 SWAP2 SWAP1 PUSH2 0x1975 JUMP JUMPDEST PUSH2 0x6FF JUMPI PUSH1 0x40 MLOAD PUSH32 0x8C379A000000000000000000000000000000000000000000000000000000000 DUP2 MSTORE PUSH1 0x4 ADD PUSH2 0x6F6 SWAP1 PUSH2 0x19EA JUMP JUMPDEST PUSH1 0x40 MLOAD DUP1 SWAP2 SUB SWAP1 REVERT JUMPDEST PUSH1 0x40 MLOAD DUP1 PUSH1 0xA0 ADD PUSH1 0x40 MSTORE DUP1 DUP7 DUP2 MSTORE PUSH1 0x20 ADD DUP6 DUP2 MSTORE PUSH1 0x20 ADD DUP5 DUP2 MSTORE PUSH1 0x20 ADD PUSH0 DUP2 MSTORE PUSH1 0x20 ADD PUSH1 0x1 ISZERO ISZERO DUP2 MSTORE POP PUSH1 0x3 PUSH0 DUP9 DUP2 MSTORE PUSH1 0x20 ADD SWAP1 DUP2 MSTORE PUSH1 0x20 ADD PUSH0 KECCAK256 PUSH0 DUP8 DUP2 MSTORE PUSH1 0x20 ADD SWAP1 DUP2 MSTORE PUSH1 0x20 ADD PUSH0 KECCAK256 PUSH0 DUP7 DUP2 MSTORE PUSH1 0x20 ADD SWAP1 DUP2 MSTORE PUSH1 0x20 ADD PUSH0 KECCAK256 PUSH0 DUP3 ADD MLOAD DUP2 PUSH0 ADD SSTORE PUSH1 0x20 DUP3 ADD MLOAD DUP2 PUSH1 0x1 ADD SSTORE PUSH1 0x40 DUP3 ADD MLOAD DUP2 PUSH1 0x2 ADD SSTORE PUSH1 0x60 DUP3 ADD MLOAD DUP2 PUSH1 0x3 ADD SSTORE PUSH1 0x80 DUP3 ADD MLOAD DUP2 PUSH1 0x4 ADD PUSH0 PUSH2 0x100 EXP DUP2 SLOAD DUP2 PUSH1 0xFF MUL NOT AND SWAP1 DUP4 ISZERO ISZERO MUL OR SWAP1 SSTORE POP SWAP1 POP POP POP POP POP POP POP POP JUMP JUMPDEST PUSH0 DUP1 PUSH0 DUP4 DUP2 MSTORE PUSH1 0x20 ADD SWAP1 DUP2 MSTORE PUSH1 0x20 ADD PUSH0 KECCAK256 PUSH1 0x1 ADD SLOAD SWAP1 POP SWAP2 SWAP1 POP JUMP JUMPDEST PUSH1 0x3 PUSH1 0x20 MSTORE DUP3 PUSH0 MSTORE PUSH1 0x40 PUSH0 KECCAK256 PUSH1 0x20 MSTORE DUP2 PUSH0 MSTORE PUSH1 0x40 PUSH0 KECCAK256 PUSH1 0x20 MSTORE DUP1 PUSH0 MSTORE PUSH1 0x40 PUSH0 KECCAK256 PUSH0 SWAP3 POP SWAP3 POP POP POP DUP1 PUSH0 ADD SLOAD SWAP1 DUP1 PUSH1 0x1 ADD SLOAD SWAP1 DUP1 PUSH1 0x2 ADD SLOAD SWAP1 DUP1 PUSH1 0x3 ADD SLOAD SWAP1 DUP1 PUSH1 0x4 ADD PUSH0 SWAP1 SLOAD SWAP1 PUSH2 0x100 EXP SWAP1 DIV PUSH1 0xFF AND SWAP1 POP DUP6 JUMP JUMPDEST PUSH32 0xA49807205CE4D355092EF5A8A18F56E8913CF4A201FBE287825B095693C21775 PUSH2 0x842 DUP2 PUSH2 0xDAA JUMP JUMPDEST PUSH1 0x3 PUSH0 DUP7 DUP2 MSTORE PUSH1 0x20 ADD SWAP1 DUP2 MSTORE PUSH1 0x20 ADD PUSH0 KECCAK256 PUSH0 DUP6 DUP2 MSTORE PUSH1 0x20 ADD SWAP1 DUP2 MSTORE PUSH1 0x20 ADD PUSH0 KECCAK256 PUSH0 DUP5 DUP2 MSTORE PUSH1 0x20 ADD SWAP1 DUP2 MSTORE PUSH1 0x20 ADD PUSH0 KECCAK256 PUSH1 0x4 ADD PUSH0 SWAP1 SLOAD SWAP1 PUSH2 0x100 EXP SWAP1 DIV PUSH1 0xFF AND PUSH2 0x8C0 JUMPI PUSH1 0x40 MLOAD PUSH32 0x8C379A000000000000000000000000000000000000000000000000000000000 DUP2 MSTORE PUSH1 0x4 ADD PUSH2 0x8B7 SWAP1 PUSH2 0x1A52 JUMP JUMPDEST PUSH1 0x40 MLOAD DUP1 SWAP2 SUB SWAP1 REVERT JUMPDEST DUP4 PUSH1 0x3 PUSH0 DUP8 DUP2 MSTORE PUSH1 0x20 ADD SWAP1 DUP2 MSTORE PUSH1 0x20 ADD PUSH0 KECCAK256 PUSH0 DUP7 DUP2 MSTORE PUSH1 0x20 ADD SWAP1 DUP2 MSTORE PUSH1 0x20 ADD PUSH0 KECCAK256 PUSH0 DUP6 DUP2 MSTORE PUSH1 0x20 ADD SWAP1 DUP2 MSTORE PUSH1 0x20 ADD PUSH0 KECCAK256 PUSH0 ADD SLOAD EQ PUSH2 0x933 JUMPI PUSH1 0x40 MLOAD PUSH32 0x8C379A000000000000000000000000000000000000000000000000000000000 DUP2 MSTORE PUSH1 0x4 ADD PUSH2 0x92A SWAP1 PUSH2 0x1ABA JUMP JUMPDEST PUSH1 0x40 MLOAD DUP1 SWAP2 SUB SWAP1 REVERT JUMPDEST PUSH1 0x3 PUSH0 DUP7 DUP2 MSTORE PUSH1 0x20 ADD SWAP1 DUP2 MSTORE PUSH1 0x20 ADD PUSH0 KECCAK256 PUSH0 DUP6 DUP2 MSTORE PUSH1 0x20 ADD SWAP1 DUP2 MSTORE PUSH1 0x20 ADD PUSH0 KECCAK256 PUSH0 DUP5 DUP2 MSTORE PUSH1 0x20 ADD SWAP1 DUP2 MSTORE PUSH1 0x20 ADD PUSH0 KECCAK256 PUSH1 0x3 ADD SLOAD DUP3 GT ISZERO PUSH2 0x9A5 JUMPI DUP2 PUSH1 0x3 PUSH0 DUP8 DUP2 MSTORE PUSH1 0x20 ADD SWAP1 DUP2 MSTORE PUSH1 0x20 ADD PUSH0 KECCAK256 PUSH0 DUP7 DUP2 MSTORE PUSH1 0x20 ADD SWAP1 DUP2 MSTORE PUSH1 0x20 ADD PUSH0 KECCAK256 PUSH0 DUP6 DUP2 MSTORE PUSH1 0x20 ADD SWAP1 DUP2 MSTORE PUSH1 0x20 ADD PUSH0 KECCAK256 PUSH1 0x3 ADD DUP2 SWAP1 SSTORE POP JUMPDEST POP POP POP POP POP JUMP JUMPDEST PUSH2 0x9B5 DUP3 PUSH2 0x7A8 JUMP JUMPDEST PUSH2 0x9BE DUP2 PUSH2 0xDAA JUMP JUMPDEST PUSH2 0x9C8 DUP4 DUP4 PUSH2 0xDBE JUMP JUMPDEST POP POP POP JUMP JUMPDEST PUSH2 0x9D5 PUSH2 0xE98 JUMP JUMPDEST PUSH20 0xFFFFFFFFFFFFFFFFFFFFFFFFFFFFFFFFFFFFFFFF AND DUP2 PUSH20 0xFFFFFFFFFFFFFFFFFFFFFFFFFFFFFFFFFFFFFFFF AND EQ PUSH2 0xA42 JUMPI PUSH1 0x40 MLOAD PUSH32 0x8C379A000000000000000000000000000000000000000000000000000000000 DUP2 MSTORE PUSH1 0x4 ADD PUSH2 0xA39 SWAP1 PUSH2 0x1B48 JUMP JUMPDEST PUSH1 0x40 MLOAD DUP1 SWAP2 SUB SWAP1 REVERT JUMPDEST PUSH2 0xA4C DUP3 DUP3 PUSH2 0xE9F JUMP JUMPDEST POP POP JUMP JUMPDEST PUSH32 0xA49807205CE4D355092EF5A8A18F56E8913CF4A201FBE287825B095693C21775 DUP2 JUMP JUMPDEST PUSH32 0xA49807205CE4D355092EF5A8A18F56E8913CF4A201FBE287825B095693C21775 PUSH2 0xA9E DUP2 PUSH2 0xDAA JUMP JUMPDEST PUSH0 JUMPDEST DUP5 DUP5 SWAP1 POP DUP2 LT ISZERO PUSH2 0xB68 JUMPI PUSH1 0x2 PUSH0 SWAP1 SLOAD SWAP1 PUSH2 0x100 EXP SWAP1 DIV PUSH20 0xFFFFFFFFFFFFFFFFFFFFFFFFFFFFFFFFFFFFFFFF AND PUSH20 0xFFFFFFFFFFFFFFFFFFFFFFFFFFFFFFFFFFFFFFFF AND PUSH4 0x40C10F19 DUP7 DUP7 DUP5 DUP2 DUP2 LT PUSH2 0xAFB JUMPI PUSH2 0xAFA PUSH2 0x1B66 JUMP JUMPDEST JUMPDEST SWAP1 POP PUSH1 0x20 MUL ADD PUSH1 0x20 DUP2 ADD SWAP1 PUSH2 0xB10 SWAP2 SWAP1 PUSH2 0x16B1 JUMP JUMPDEST DUP6 PUSH1 0x40 MLOAD DUP4 PUSH4 0xFFFFFFFF AND PUSH1 0xE0 SHL DUP2 MSTORE PUSH1 0x4 ADD PUSH2 0xB2E SWAP3 SWAP2 SWAP1 PUSH2 0x1B93 JUMP JUMPDEST PUSH0 PUSH1 0x40 MLOAD DUP1 DUP4 SUB DUP2 PUSH0 DUP8 DUP1 EXTCODESIZE ISZERO DUP1 ISZERO PUSH2 0xB45 JUMPI PUSH0 DUP1 REVERT JUMPDEST POP GAS CALL ISZERO DUP1 ISZERO PUSH2 0xB57 JUMPI RETURNDATASIZE PUSH0 DUP1 RETURNDATACOPY RETURNDATASIZE PUSH0 REVERT JUMPDEST POP POP POP POP DUP1 DUP1 PUSH1 0x1 ADD SWAP2 POP POP PUSH2 0xAA0 JUMP JUMPDEST POP POP POP POP POP JUMP JUMPDEST PUSH0 DUP1 PUSH0 DUP5 DUP2 MSTORE PUSH1 0x20 ADD SWAP1 DUP2 MSTORE PUSH1 0x20 ADD PUSH0 KECCAK256 PUSH0 ADD PUSH0 DUP4 PUSH20 0xFFFFFFFFFFFFFFFFFFFFFFFFFFFFFFFFFFFFFFFF AND PUSH20 0xFFFFFFFFFFFFFFFFFFFFFFFFFFFFFFFFFFFFFFFF AND DUP2 MSTORE PUSH1 0x20 ADD SWAP1 DUP2 MSTORE PUSH1 0x20 ADD PUSH0 KECCAK256 PUSH0 SWAP1 SLOAD SWAP1 PUSH2 0x100 EXP SWAP1 DIV PUSH1 0xFF AND SWAP1 POP SWAP3 SWAP2 POP POP JUMP JUMPDEST PUSH0 DUP1 SHL PUSH2 0xBDE DUP2 PUSH2 0xDAA JUMP JUMPDEST PUSH2 0xC08 PUSH32 0xA49807205CE4D355092EF5A8A18F56E8913CF4A201FBE287825B095693C21775 DUP4 PUSH2 0xCFB JUMP JUMPDEST POP POP JUMP JUMPDEST PUSH0 DUP1 SHL DUP2 JUMP JUMPDEST PUSH0 DUP1 SHL PUSH2 0xC1E DUP2 PUSH2 0xDAA JUMP JUMPDEST PUSH2 0xC48 PUSH32 0xA49807205CE4D355092EF5A8A18F56E8913CF4A201FBE287825B095693C21775 DUP4 PUSH2 0x9AC JUMP JUMPDEST POP POP JUMP JUMPDEST PUSH32 0xA49807205CE4D355092EF5A8A18F56E8913CF4A201FBE287825B095693C21775 PUSH2 0xC76 DUP2 PUSH2 0xDAA JUMP JUMPDEST DUP3 PUSH1 0x1 PUSH0 PUSH2 0x100 EXP DUP2 SLOAD DUP2 PUSH20 0xFFFFFFFFFFFFFFFFFFFFFFFFFFFFFFFFFFFFFFFF MUL NOT AND SWAP1 DUP4 PUSH20 0xFFFFFFFFFFFFFFFFFFFFFFFFFFFFFFFFFFFFFFFF AND MUL OR SWAP1 SSTORE POP DUP2 PUSH1 0x2 PUSH0 PUSH2 0x100 EXP DUP2 SLOAD DUP2 PUSH20 0xFFFFFFFFFFFFFFFFFFFFFFFFFFFFFFFFFFFFFFFF MUL NOT AND SWAP1 DUP4 PUSH20 0xFFFFFFFFFFFFFFFFFFFFFFFFFFFFFFFFFFFFFFFF AND MUL OR SWAP1 SSTORE POP POP POP POP JUMP JUMPDEST PUSH2 0xD04 DUP3 PUSH2 0x7A8 JUMP JUMPDEST PUSH2 0xD0D DUP2 PUSH2 0xDAA JUMP JUMPDEST PUSH2 0xD17 DUP4 DUP4 PUSH2 0xE9F JUMP JUMPDEST POP POP POP JUMP JUMPDEST PUSH1 0x1 PUSH0 SWAP1 SLOAD SWAP1 PUSH2 0x100 EXP SWAP1 DIV PUSH20 0xFFFFFFFFFFFFFFFFFFFFFFFFFFFFFFFFFFFFFFFF AND DUP2 JUMP JUMPDEST PUSH0 PUSH32 0x1FFC9A700000000000000000000000000000000000000000000000000000000 PUSH28 0xFFFFFFFFFFFFFFFFFFFFFFFFFFFFFFFFFFFFFFFFFFFFFFFFFFFFFFFF NOT AND DUP3 PUSH28 0xFFFFFFFFFFFFFFFFFFFFFFFFFFFFFFFFFFFFFFFFFFFFFFFFFFFFFFFF NOT AND EQ SWAP1 POP SWAP2 SWAP1 POP JUMP JUMPDEST PUSH2 0xDBB DUP2 PUSH2 0xDB6 PUSH2 0xE98 JUMP JUMPDEST PUSH2 0xF79 JUMP JUMPDEST POP JUMP JUMPDEST PUSH2 0xDC8 DUP3 DUP3 PUSH2 0xB6F JUMP JUMPDEST PUSH2 0xE94 JUMPI PUSH1 0x1 PUSH0 DUP1 DUP5 DUP2 MSTORE PUSH1 0x20 ADD SWAP1 DUP2 MSTORE PUSH1 0x20 ADD PUSH0 KECCAK256 PUSH0 ADD PUSH0 DUP4 PUSH20 0xFFFFFFFFFFFFFFFFFFFFFFFFFFFFFFFFFFFFFFFF AND PUSH20 0xFFFFFFFFFFFFFFFFFFFFFFFFFFFFFFFFFFFFFFFF AND DUP2 MSTORE PUSH1 0x20 ADD SWAP1 DUP2 MSTORE PUSH1 0x20 ADD PUSH0 KECCAK256 PUSH0 PUSH2 0x100 EXP DUP2 SLOAD DUP2 PUSH1 0xFF MUL NOT AND SWAP1 DUP4 ISZERO ISZERO MUL OR SWAP1 SSTORE POP PUSH2 0xE39 PUSH2 0xE98 JUMP JUMPDEST PUSH20 0xFFFFFFFFFFFFFFFFFFFFFFFFFFFFFFFFFFFFFFFF AND DUP2 PUSH20 0xFFFFFFFFFFFFFFFFFFFFFFFFFFFFFFFFFFFFFFFF AND DUP4 PUSH32 0x2F8788117E7EFF1D82E926EC794901D17C78024A50270940304540A733656F0D PUSH1 0x40 MLOAD PUSH1 0x40 MLOAD DUP1 SWAP2 SUB SWAP1 LOG4 JUMPDEST POP POP JUMP JUMPDEST PUSH0 CALLER SWAP1 POP SWAP1 JUMP JUMPDEST PUSH2 0xEA9 DUP3 DUP3 PUSH2 0xB6F JUMP JUMPDEST ISZERO PUSH2 0xF75 JUMPI PUSH0 DUP1 PUSH0 DUP5 DUP2 MSTORE PUSH1 0x20 ADD SWAP1 DUP2 MSTORE PUSH1 0x20 ADD PUSH0 KECCAK256 PUSH0 ADD PUSH0 DUP4 PUSH20 0xFFFFFFFFFFFFFFFFFFFFFFFFFFFFFFFFFFFFFFFF AND PUSH20 0xFFFFFFFFFFFFFFFFFFFFFFFFFFFFFFFFFFFFFFFF AND DUP2 MSTORE PUSH1 0x20 ADD SWAP1 DUP2 MSTORE PUSH1 0x20 ADD PUSH0 KECCAK256 PUSH0 PUSH2 0x100 EXP DUP2 SLOAD DUP2 PUSH1 0xFF MUL NOT AND SWAP1 DUP4 ISZERO ISZERO MUL OR SWAP1 SSTORE POP PUSH2 0xF1A PUSH2 0xE98 JUMP JUMPDEST PUSH20 0xFFFFFFFFFFFFFFFFFFFFFFFFFFFFFFFFFFFFFFFF AND DUP2 PUSH20 0xFFFFFFFFFFFFFFFFFFFFFFFFFFFFFFFFFFFFFFFF AND DUP4 PUSH32 0xF6391F5C32D9C69D2A47EA670B442974B53935D1EDC7FD64EB21E047A839171B PUSH1 0x40 MLOAD PUSH1 0x40 MLOAD DUP1 SWAP2 SUB SWAP1 LOG4 JUMPDEST POP POP JUMP JUMPDEST PUSH2 0xF83 DUP3 DUP3 PUSH2 0xB6F JUMP JUMPDEST PUSH2 0xFF9 JUMPI PUSH2 0xF90 DUP2 PUSH2 0xFFD JUMP JUMPDEST PUSH2 0xF9D DUP4 PUSH0 SHR PUSH1 0x20 PUSH2 0x102A JUMP JUMPDEST PUSH1 0x40 MLOAD PUSH1 0x20 ADD PUSH2 0xFAE SWAP3 SWAP2 SWAP1 PUSH2 0x1CA0 JUMP JUMPDEST PUSH1 0x40 MLOAD PUSH1 0x20 DUP2 DUP4 SUB SUB DUP2 MSTORE SWAP1 PUSH1 0x40 MSTORE PUSH1 0x40 MLOAD PUSH32 0x8C379A000000000000000000000000000000000000000000000000000000000 DUP2 MSTORE PUSH1 0x4 ADD PUSH2 0xFF0 SWAP2 SWAP1 PUSH2 0x1D21 JUMP JUMPDEST PUSH1 0x40 MLOAD DUP1 SWAP2 SUB SWAP1 REVERT JUMPDEST POP POP JUMP JUMPDEST PUSH1 0x60 PUSH2 0x1023 DUP3 PUSH20 0xFFFFFFFFFFFFFFFFFFFFFFFFFFFFFFFFFFFFFFFF AND PUSH1 0x14 PUSH1 0xFF AND PUSH2 0x102A JUMP JUMPDEST SWAP1 POP SWAP2 SWAP1 POP JUMP JUMPDEST PUSH1 0x60 PUSH0 PUSH1 0x2 DUP4 PUSH1 0x2 PUSH2 0x103C SWAP2 SWAP1 PUSH2 0x1D6E JUMP JUMPDEST PUSH2 0x1046 SWAP2 SWAP1 PUSH2 0x1DAF JUMP JUMPDEST PUSH8 0xFFFFFFFFFFFFFFFF DUP2 GT ISZERO PUSH2 0x105F JUMPI PUSH2 0x105E PUSH2 0x1DE2 JUMP JUMPDEST JUMPDEST PUSH1 0x40 MLOAD SWAP1 DUP1 DUP3 MSTORE DUP1 PUSH1 0x1F ADD PUSH1 0x1F NOT AND PUSH1 0x20 ADD DUP3 ADD PUSH1 0x40 MSTORE DUP1 ISZERO PUSH2 0x1091 JUMPI DUP2 PUSH1 0x20 ADD PUSH1 0x1 DUP3 MUL DUP1 CALLDATASIZE DUP4 CALLDATACOPY DUP1 DUP3 ADD SWAP2 POP POP SWAP1 POP JUMPDEST POP SWAP1 POP PUSH32 0x3000000000000000000000000000000000000000000000000000000000000000 DUP2 PUSH0 DUP2 MLOAD DUP2 LT PUSH2 0x10C8 JUMPI PUSH2 0x10C7 PUSH2 0x1B66 JUMP JUMPDEST JUMPDEST PUSH1 0x20 ADD ADD SWAP1 PUSH31 0xFFFFFFFFFFFFFFFFFFFFFFFFFFFFFFFFFFFFFFFFFFFFFFFFFFFFFFFFFFFFFF NOT AND SWAP1 DUP2 PUSH0 BYTE SWAP1 MSTORE8 POP PUSH32 0x7800000000000000000000000000000000000000000000000000000000000000 DUP2 PUSH1 0x1 DUP2 MLOAD DUP2 LT PUSH2 0x112B JUMPI PUSH2 0x112A PUSH2 0x1B66 JUMP JUMPDEST JUMPDEST PUSH1 0x20 ADD ADD SWAP1 PUSH31 0xFFFFFFFFFFFFFFFFFFFFFFFFFFFFFFFFFFFFFFFFFFFFFFFFFFFFFFFFFFFFFF NOT AND SWAP1 DUP2 PUSH0 BYTE SWAP1 MSTORE8 POP PUSH0 PUSH1 0x1 DUP5 PUSH1 0x2 PUSH2 0x1169 SWAP2 SWAP1 PUSH2 0x1D6E JUMP JUMPDEST PUSH2 0x1173 SWAP2 SWAP1 PUSH2 0x1DAF JUMP JUMPDEST SWAP1 POP JUMPDEST PUSH1 0x1 DUP2 GT ISZERO PUSH2 0x1212 JUMPI PUSH32 0x3031323334353637383961626364656600000000000000000000000000000000 PUSH1 0xF DUP7 AND PUSH1 0x10 DUP2 LT PUSH2 0x11B5 JUMPI PUSH2 0x11B4 PUSH2 0x1B66 JUMP JUMPDEST JUMPDEST BYTE PUSH1 0xF8 SHL DUP3 DUP3 DUP2 MLOAD DUP2 LT PUSH2 0x11CC JUMPI PUSH2 0x11CB PUSH2 0x1B66 JUMP JUMPDEST JUMPDEST PUSH1 0x20 ADD ADD SWAP1 PUSH31 0xFFFFFFFFFFFFFFFFFFFFFFFFFFFFFFFFFFFFFFFFFFFFFFFFFFFFFFFFFFFFFF NOT AND SWAP1 DUP2 PUSH0 BYTE SWAP1 MSTORE8 POP PUSH1 0x4 DUP6 SWAP1 SHR SWAP5 POP DUP1 PUSH2 0x120B SWAP1 PUSH2 0x1E0F JUMP JUMPDEST SWAP1 POP PUSH2 0x1176 JUMP JUMPDEST POP PUSH0 DUP5 EQ PUSH2 0x1255 JUMPI PUSH1 0x40 MLOAD PUSH32 0x8C379A000000000000000000000000000000000000000000000000000000000 DUP2 MSTORE PUSH1 0x4 ADD PUSH2 0x124C SWAP1 PUSH2 0x1E80 JUMP JUMPDEST PUSH1 0x40 MLOAD DUP1 SWAP2 SUB SWAP1 REVERT JUMPDEST DUP1 SWAP2 POP POP SWAP3 SWAP2 POP POP JUMP JUMPDEST PUSH0 DUP1 REVERT JUMPDEST PUSH0 DUP1 REVERT JUMPDEST PUSH0 PUSH32 0xFFFFFFFF00000000000000000000000000000000000000000000000000000000 DUP3 AND SWAP1 POP SWAP2 SWAP1 POP JUMP JUMPDEST PUSH2 0x129B DUP2 PUSH2 0x1267 JUMP JUMPDEST DUP2 EQ PUSH2 0x12A5 JUMPI PUSH0 DUP1 REVERT JUMPDEST POP JUMP JUMPDEST PUSH0 DUP2 CALLDATALOAD SWAP1 POP PUSH2 0x12B6 DUP2 PUSH2 0x1292 JUMP JUMPDEST SWAP3 SWAP2 POP POP JUMP JUMPDEST PUSH0 PUSH1 0x20 DUP3 DUP5 SUB SLT ISZERO PUSH2 0x12D1 JUMPI PUSH2 0x12D0 PUSH2 0x125F JUMP JUMPDEST JUMPDEST PUSH0 PUSH2 0x12DE DUP5 DUP3 DUP6 ADD PUSH2 0x12A8 JUMP JUMPDEST SWAP2 POP POP SWAP3 SWAP2 POP POP JUMP JUMPDEST PUSH0 DUP2 ISZERO ISZERO SWAP1 POP SWAP2 SWAP1 POP JUMP JUMPDEST PUSH2 0x12FB DUP2 PUSH2 0x12E7 JUMP JUMPDEST DUP3 MSTORE POP POP JUMP JUMPDEST PUSH0 PUSH1 0x20 DUP3 ADD SWAP1 POP PUSH2 0x1314 PUSH0 DUP4 ADD DUP5 PUSH2 0x12F2 JUMP JUMPDEST SWAP3 SWAP2 POP POP JUMP JUMPDEST PUSH0 PUSH20 0xFFFFFFFFFFFFFFFFFFFFFFFFFFFFFFFFFFFFFFFF DUP3 AND SWAP1 POP SWAP2 SWAP1 POP JUMP JUMPDEST PUSH0 DUP2 SWAP1 POP SWAP2 SWAP1 POP JUMP JUMPDEST PUSH0 PUSH2 0x135C PUSH2 0x1357 PUSH2 0x1352 DUP5 PUSH2 0x131A JUMP JUMPDEST PUSH2 0x1339 JUMP JUMPDEST PUSH2 0x131A JUMP JUMPDEST SWAP1 POP SWAP2 SWAP1 POP JUMP JUMPDEST PUSH0 PUSH2 0x136D DUP3 PUSH2 0x1342 JUMP JUMPDEST SWAP1 POP SWAP2 SWAP1 POP JUMP JUMPDEST PUSH0 PUSH2 0x137E DUP3 PUSH2 0x1363 JUMP JUMPDEST SWAP1 POP SWAP2 SWAP1 POP JUMP JUMPDEST PUSH2 0x138E DUP2 PUSH2 0x1374 JUMP JUMPDEST DUP3 MSTORE POP POP JUMP JUMPDEST PUSH0 PUSH1 0x20 DUP3 ADD SWAP1 POP PUSH2 0x13A7 PUSH0 DUP4 ADD DUP5 PUSH2 0x1385 JUMP JUMPDEST SWAP3 SWAP2 POP POP JUMP JUMPDEST PUSH0 DUP2 SWAP1 POP SWAP2 SWAP1 POP JUMP JUMPDEST PUSH2 0x13BF DUP2 PUSH2 0x13AD JUMP JUMPDEST DUP2 EQ PUSH2 0x13C9 JUMPI PUSH0 DUP1 REVERT JUMPDEST POP JUMP JUMPDEST PUSH0 DUP2 CALLDATALOAD SWAP1 POP PUSH2 0x13DA DUP2 PUSH2 0x13B6 JUMP JUMPDEST SWAP3 SWAP2 POP POP JUMP JUMPDEST PUSH0 DUP1 PUSH0 DUP1 PUSH1 0x80 DUP6 DUP8 SUB SLT ISZERO PUSH2 0x13F8 JUMPI PUSH2 0x13F7 PUSH2 0x125F JUMP JUMPDEST JUMPDEST PUSH0 PUSH2 0x1405 DUP8 DUP3 DUP9 ADD PUSH2 0x13CC JUMP JUMPDEST SWAP5 POP POP PUSH1 0x20 PUSH2 0x1416 DUP8 DUP3 DUP9 ADD PUSH2 0x13CC JUMP JUMPDEST SWAP4 POP POP PUSH1 0x40 PUSH2 0x1427 DUP8 DUP3 DUP9 ADD PUSH2 0x13CC JUMP JUMPDEST SWAP3 POP POP PUSH1 0x60 PUSH2 0x1438 DUP8 DUP3 DUP9 ADD PUSH2 0x13CC JUMP JUMPDEST SWAP2 POP POP SWAP3 SWAP6 SWAP2 SWAP5 POP SWAP3 POP JUMP JUMPDEST PUSH0 DUP2 SWAP1 POP SWAP2 SWAP1 POP JUMP JUMPDEST PUSH2 0x1456 DUP2 PUSH2 0x1444 JUMP JUMPDEST DUP2 EQ PUSH2 0x1460 JUMPI PUSH0 DUP1 REVERT JUMPDEST POP JUMP JUMPDEST PUSH0 DUP2 CALLDATALOAD SWAP1 POP PUSH2 0x1471 DUP2 PUSH2 0x144D JUMP JUMPDEST SWAP3 SWAP2 POP POP JUMP JUMPDEST PUSH0 PUSH1 0x20 DUP3 DUP5 SUB SLT ISZERO PUSH2 0x148C JUMPI PUSH2 0x148B PUSH2 0x125F JUMP JUMPDEST JUMPDEST PUSH0 PUSH2 0x1499 DUP5 DUP3 DUP6 ADD PUSH2 0x1463 JUMP JUMPDEST SWAP2 POP POP SWAP3 SWAP2 POP POP JUMP JUMPDEST PUSH2 0x14AB DUP2 PUSH2 0x1444 JUMP JUMPDEST DUP3 MSTORE POP POP JUMP JUMPDEST PUSH0 PUSH1 0x20 DUP3 ADD SWAP1 POP PUSH2 0x14C4 PUSH0 DUP4 ADD DUP5 PUSH2 0x14A2 JUMP JUMPDEST SWAP3 SWAP2 POP POP JUMP JUMPDEST PUSH0 DUP1 PUSH0 PUSH1 0x60 DUP5 DUP7 SUB SLT ISZERO PUSH2 0x14E1 JUMPI PUSH2 0x14E0 PUSH2 0x125F JUMP JUMPDEST JUMPDEST PUSH0 PUSH2 0x14EE DUP7 DUP3 DUP8 ADD PUSH2 0x13CC JUMP JUMPDEST SWAP4 POP POP PUSH1 0x20 PUSH2 0x14FF DUP7 DUP3 DUP8 ADD PUSH2 0x13CC JUMP JUMPDEST SWAP3 POP POP PUSH1 0x40 PUSH2 0x1510 DUP7 DUP3 DUP8 ADD PUSH2 0x13CC JUMP JUMPDEST SWAP2 POP POP SWAP3 POP SWAP3 POP SWAP3 JUMP JUMPDEST PUSH2 0x1523 DUP2 PUSH2 0x13AD JUMP JUMPDEST DUP3 MSTORE POP POP JUMP JUMPDEST PUSH0 PUSH1 0xA0 DUP3 ADD SWAP1 POP PUSH2 0x153C PUSH0 DUP4 ADD DUP9 PUSH2 0x151A JUMP JUMPDEST PUSH2 0x1549 PUSH1 0x20 DUP4 ADD DUP8 PUSH2 0x151A JUMP JUMPDEST PUSH2 0x1556 PUSH1 0x40 DUP4 ADD DUP7 PUSH2 0x151A JUMP JUMPDEST PUSH2 0x1563 PUSH1 0x60 DUP4 ADD DUP6 PUSH2 0x151A JUMP JUMPDEST PUSH2 0x1570 PUSH1 0x80 DUP4 ADD DUP5 PUSH2 0x12F2 JUMP JUMPDEST SWAP7 SWAP6 POP POP POP POP POP POP JUMP JUMPDEST PUSH0 PUSH2 0x1584 DUP3 PUSH2 0x131A JUMP JUMPDEST SWAP1 POP SWAP2 SWAP1 POP JUMP JUMPDEST PUSH2 0x1594 DUP2 PUSH2 0x157A JUMP JUMPDEST DUP2 EQ PUSH2 0x159E JUMPI PUSH0 DUP1 REVERT JUMPDEST POP JUMP JUMPDEST PUSH0 DUP2 CALLDATALOAD SWAP1 POP PUSH2 0x15AF DUP2 PUSH2 0x158B JUMP JUMPDEST SWAP3 SWAP2 POP POP JUMP JUMPDEST PUSH0 DUP1 PUSH1 0x40 DUP4 DUP6 SUB SLT ISZERO PUSH2 0x15CB JUMPI PUSH2 0x15CA PUSH2 0x125F JUMP JUMPDEST JUMPDEST PUSH0 PUSH2 0x15D8 DUP6 DUP3 DUP7 ADD PUSH2 0x1463 JUMP JUMPDEST SWAP3 POP POP PUSH1 0x20 PUSH2 0x15E9 DUP6 DUP3 DUP7 ADD PUSH2 0x15A1 JUMP JUMPDEST SWAP2 POP POP SWAP3 POP SWAP3 SWAP1 POP JUMP JUMPDEST PUSH0 DUP1 REVERT JUMPDEST PUSH0 DUP1 REVERT JUMPDEST PUSH0 DUP1 REVERT JUMPDEST PUSH0 DUP1 DUP4 PUSH1 0x1F DUP5 ADD SLT PUSH2 0x1614 JUMPI PUSH2 0x1613 PUSH2 0x15F3 JUMP JUMPDEST JUMPDEST DUP3 CALLDATALOAD SWAP1 POP PUSH8 0xFFFFFFFFFFFFFFFF DUP2 GT ISZERO PUSH2 0x1631 JUMPI PUSH2 0x1630 PUSH2 0x15F7 JUMP JUMPDEST JUMPDEST PUSH1 0x20 DUP4 ADD SWAP2 POP DUP4 PUSH1 0x20 DUP3 MUL DUP4 ADD GT ISZERO PUSH2 0x164D JUMPI PUSH2 0x164C PUSH2 0x15FB JUMP JUMPDEST JUMPDEST SWAP3 POP SWAP3 SWAP1 POP JUMP JUMPDEST PUSH0 DUP1 PUSH0 PUSH1 0x40 DUP5 DUP7 SUB SLT ISZERO PUSH2 0x166B JUMPI PUSH2 0x166A PUSH2 0x125F JUMP JUMPDEST JUMPDEST PUSH0 DUP5 ADD CALLDATALOAD PUSH8 0xFFFFFFFFFFFFFFFF DUP2 GT ISZERO PUSH2 0x1688 JUMPI PUSH2 0x1687 PUSH2 0x1263 JUMP JUMPDEST JUMPDEST PUSH2 0x1694 DUP7 DUP3 DUP8 ADD PUSH2 0x15FF JUMP JUMPDEST SWAP4 POP SWAP4 POP POP PUSH1 0x20 PUSH2 0x16A7 DUP7 DUP3 DUP8 ADD PUSH2 0x13CC JUMP JUMPDEST SWAP2 POP POP SWAP3 POP SWAP3 POP SWAP3 JUMP JUMPDEST PUSH0 PUSH1 0x20 DUP3 DUP5 SUB SLT ISZERO PUSH2 0x16C6 JUMPI PUSH2 0x16C5 PUSH2 0x125F JUMP JUMPDEST JUMPDEST PUSH0 PUSH2 0x16D3 DUP5 DUP3 DUP6 ADD PUSH2 0x15A1 JUMP JUMPDEST SWAP2 POP POP SWAP3 SWAP2 POP POP JUMP JUMPDEST PUSH0 DUP1 PUSH1 0x40 DUP4 DUP6 SUB SLT ISZERO PUSH2 0x16F2 JUMPI PUSH2 0x16F1 PUSH2 0x125F JUMP JUMPDEST JUMPDEST PUSH0 PUSH2 0x16FF DUP6 DUP3 DUP7 ADD PUSH2 0x15A1 JUMP JUMPDEST SWAP3 POP POP PUSH1 0x20 PUSH2 0x1710 DUP6 DUP3 DUP7 ADD PUSH2 0x15A1 JUMP JUMPDEST SWAP2 POP POP SWAP3 POP SWAP3 SWAP1 POP JUMP JUMPDEST PUSH0 DUP3 DUP3 MSTORE PUSH1 0x20 DUP3 ADD SWAP1 POP SWAP3 SWAP2 POP POP JUMP JUMPDEST PUSH32 0x4368616C6C656E676520616C72656164792065786973747320666F7220746869 PUSH0 DUP3 ADD MSTORE PUSH32 0x73206D656D6265722C20646174652C20616E642067616D650000000000000000 PUSH1 0x20 DUP3 ADD MSTORE POP JUMP JUMPDEST PUSH0 PUSH2 0x1784 PUSH1 0x38 DUP4 PUSH2 0x171A JUMP JUMPDEST SWAP2 POP PUSH2 0x178F DUP3 PUSH2 0x172A JUMP JUMPDEST PUSH1 0x40 DUP3 ADD SWAP1 POP SWAP2 SWAP1 POP JUMP JUMPDEST PUSH0 PUSH1 0x20 DUP3 ADD SWAP1 POP DUP2 DUP2 SUB PUSH0 DUP4 ADD MSTORE PUSH2 0x17B1 DUP2 PUSH2 0x1778 JUMP JUMPDEST SWAP1 POP SWAP2 SWAP1 POP JUMP JUMPDEST PUSH2 0x17C1 DUP2 PUSH2 0x157A JUMP JUMPDEST DUP3 MSTORE POP POP JUMP JUMPDEST PUSH0 PUSH1 0x40 DUP3 ADD SWAP1 POP PUSH2 0x17DA PUSH0 DUP4 ADD DUP6 PUSH2 0x17B8 JUMP JUMPDEST PUSH2 0x17E7 PUSH1 0x20 DUP4 ADD DUP5 PUSH2 0x17B8 JUMP JUMPDEST SWAP4 SWAP3 POP POP POP JUMP JUMPDEST PUSH0 DUP2 MLOAD SWAP1 POP PUSH2 0x17FC DUP2 PUSH2 0x13B6 JUMP JUMPDEST SWAP3 SWAP2 POP POP JUMP JUMPDEST PUSH0 PUSH1 0x20 DUP3 DUP5 SUB SLT ISZERO PUSH2 0x1817 JUMPI PUSH2 0x1816 PUSH2 0x125F JUMP JUMPDEST JUMPDEST PUSH0 PUSH2 0x1824 DUP5 DUP3 DUP6 ADD PUSH2 0x17EE JUMP JUMPDEST SWAP2 POP POP SWAP3 SWAP2 POP POP JUMP JUMPDEST PUSH32 0x496E73756666696369656E7420746F6B656E20616C6C6F77616E636500000000 PUSH0 DUP3 ADD MSTORE POP JUMP JUMPDEST PUSH0 PUSH2 0x1861 PUSH1 0x1C DUP4 PUSH2 0x171A JUMP JUMPDEST SWAP2 POP PUSH2 0x186C DUP3 PUSH2 0x182D JUMP JUMPDEST PUSH1 0x20 DUP3 ADD SWAP1 POP SWAP2 SWAP1 POP JUMP JUMPDEST PUSH0 PUSH1 0x20 DUP3 ADD SWAP1 POP DUP2 DUP2 SUB PUSH0 DUP4 ADD MSTORE PUSH2 0x188E DUP2 PUSH2 0x1855 JUMP JUMPDEST SWAP1 POP SWAP2 SWAP1 POP JUMP JUMPDEST PUSH0 PUSH1 0x20 DUP3 ADD SWAP1 POP PUSH2 0x18A8 PUSH0 DUP4 ADD DUP5 PUSH2 0x17B8 JUMP JUMPDEST SWAP3 SWAP2 POP POP JUMP JUMPDEST PUSH32 0x496E73756666696369656E7420746F6B656E2062616C616E6365000000000000 PUSH0 DUP3 ADD MSTORE POP JUMP JUMPDEST PUSH0 PUSH2 0x18E2 PUSH1 0x1A DUP4 PUSH2 0x171A JUMP JUMPDEST SWAP2 POP PUSH2 0x18ED DUP3 PUSH2 0x18AE JUMP JUMPDEST PUSH1 0x20 DUP3 ADD SWAP1 POP SWAP2 SWAP1 POP JUMP JUMPDEST PUSH0 PUSH1 0x20 DUP3 ADD SWAP1 POP DUP2 DUP2 SUB PUSH0 DUP4 ADD MSTORE PUSH2 0x190F DUP2 PUSH2 0x18D6 JUMP JUMPDEST SWAP1 POP SWAP2 SWAP1 POP JUMP JUMPDEST PUSH0 PUSH1 0x60 DUP3 ADD SWAP1 POP PUSH2 0x1929 PUSH0 DUP4 ADD DUP7 PUSH2 0x17B8 JUMP JUMPDEST PUSH2 0x1936 PUSH1 0x20 DUP4 ADD DUP6 PUSH2 0x17B8 JUMP JUMPDEST PUSH2 0x1943 PUSH1 0x40 DUP4 ADD DUP5 PUSH2 0x151A JUMP JUMPDEST SWAP5 SWAP4 POP POP POP POP JUMP JUMPDEST PUSH2 0x1954 DUP2 PUSH2 0x12E7 JUMP JUMPDEST DUP2 EQ PUSH2 0x195E JUMPI PUSH0 DUP1 REVERT JUMPDEST POP JUMP JUMPDEST PUSH0 DUP2 MLOAD SWAP1 POP PUSH2 0x196F DUP2 PUSH2 0x194B JUMP JUMPDEST SWAP3 SWAP2 POP POP JUMP JUMPDEST PUSH0 PUSH1 0x20 DUP3 DUP5 SUB SLT ISZERO PUSH2 0x198A JUMPI PUSH2 0x1989 PUSH2 0x125F JUMP JUMPDEST JUMPDEST PUSH0 PUSH2 0x1997 DUP5 DUP3 DUP6 ADD PUSH2 0x1961 JUMP JUMPDEST SWAP2 POP POP SWAP3 SWAP2 POP POP JUMP JUMPDEST PUSH32 0x546F6B656E207472616E73666572206661696C65640000000000000000000000 PUSH0 DUP3 ADD MSTORE POP JUMP JUMPDEST PUSH0 PUSH2 0x19D4 PUSH1 0x15 DUP4 PUSH2 0x171A JUMP JUMPDEST SWAP2 POP PUSH2 0x19DF DUP3 PUSH2 0x19A0 JUMP JUMPDEST PUSH1 0x20 DUP3 ADD SWAP1 POP SWAP2 SWAP1 POP JUMP JUMPDEST PUSH0 PUSH1 0x20 DUP3 ADD SWAP1 POP DUP2 DUP2 SUB PUSH0 DUP4 ADD MSTORE PUSH2 0x1A01 DUP2 PUSH2 0x19C8 JUMP JUMPDEST SWAP1 POP SWAP2 SWAP1 POP JUMP JUMPDEST PUSH32 0x4368616C6C656E676520646F6573206E6F742065786973740000000000000000 PUSH0 DUP3 ADD MSTORE POP JUMP JUMPDEST PUSH0 PUSH2 0x1A3C PUSH1 0x18 DUP4 PUSH2 0x171A JUMP JUMPDEST SWAP2 POP PUSH2 0x1A47 DUP3 PUSH2 0x1A08 JUMP JUMPDEST PUSH1 0x20 DUP3 ADD SWAP1 POP SWAP2 SWAP1 POP JUMP JUMPDEST PUSH0 PUSH1 0x20 DUP3 ADD SWAP1 POP DUP2 DUP2 SUB PUSH0 DUP4 ADD MSTORE PUSH2 0x1A69 DUP2 PUSH2 0x1A30 JUMP JUMPDEST SWAP1 POP SWAP2 SWAP1 POP JUMP JUMPDEST PUSH32 0x47616D652073657175656E6365206D69736D6174636800000000000000000000 PUSH0 DUP3 ADD MSTORE POP JUMP JUMPDEST PUSH0 PUSH2 0x1AA4 PUSH1 0x16 DUP4 PUSH2 0x171A JUMP JUMPDEST SWAP2 POP PUSH2 0x1AAF DUP3 PUSH2 0x1A70 JUMP JUMPDEST PUSH1 0x20 DUP3 ADD SWAP1 POP SWAP2 SWAP1 POP JUMP JUMPDEST PUSH0 PUSH1 0x20 DUP3 ADD SWAP1 POP DUP2 DUP2 SUB PUSH0 DUP4 ADD MSTORE PUSH2 0x1AD1 DUP2 PUSH2 0x1A98 JUMP JUMPDEST SWAP1 POP SWAP2 SWAP1 POP JUMP JUMPDEST PUSH32 0x416363657373436F6E74726F6C3A2063616E206F6E6C792072656E6F756E6365 PUSH0 DUP3 ADD MSTORE PUSH32 0x20726F6C657320666F722073656C660000000000000000000000000000000000 PUSH1 0x20 DUP3 ADD MSTORE POP JUMP JUMPDEST PUSH0 PUSH2 0x1B32 PUSH1 0x2F DUP4 PUSH2 0x171A JUMP JUMPDEST SWAP2 POP PUSH2 0x1B3D DUP3 PUSH2 0x1AD8 JUMP JUMPDEST PUSH1 0x40 DUP3 ADD SWAP1 POP SWAP2 SWAP1 POP JUMP JUMPDEST PUSH0 PUSH1 0x20 DUP3 ADD SWAP1 POP DUP2 DUP2 SUB PUSH0 DUP4 ADD MSTORE PUSH2 0x1B5F DUP2 PUSH2 0x1B26 JUMP JUMPDEST SWAP1 POP SWAP2 SWAP1 POP JUMP JUMPDEST PUSH32 0x4E487B7100000000000000000000000000000000000000000000000000000000 PUSH0 MSTORE PUSH1 0x32 PUSH1 0x4 MSTORE PUSH1 0x24 PUSH0 REVERT JUMPDEST PUSH0 PUSH1 0x40 DUP3 ADD SWAP1 POP PUSH2 0x1BA6 PUSH0 DUP4 ADD DUP6 PUSH2 0x17B8 JUMP JUMPDEST PUSH2 0x1BB3 PUSH1 0x20 DUP4 ADD DUP5 PUSH2 0x151A JUMP JUMPDEST SWAP4 SWAP3 POP POP POP JUMP JUMPDEST PUSH0 DUP2 SWAP1 POP SWAP3 SWAP2 POP POP JUMP JUMPDEST PUSH32 0x416363657373436F6E74726F6C3A206163636F756E7420000000000000000000 PUSH0 DUP3 ADD MSTORE POP JUMP JUMPDEST PUSH0 PUSH2 0x1BF8 PUSH1 0x17 DUP4 PUSH2 0x1BBA JUMP JUMPDEST SWAP2 POP PUSH2 0x1C03 DUP3 PUSH2 0x1BC4 JUMP JUMPDEST PUSH1 0x17 DUP3 ADD SWAP1 POP SWAP2 SWAP1 POP JUMP JUMPDEST PUSH0 DUP2 MLOAD SWAP1 POP SWAP2 SWAP1 POP JUMP JUMPDEST DUP3 DUP2 DUP4 MCOPY PUSH0 DUP4 DUP4 ADD MSTORE POP POP POP JUMP JUMPDEST PUSH0 PUSH2 0x1C30 DUP3 PUSH2 0x1C0E JUMP JUMPDEST PUSH2 0x1C3A DUP2 DUP6 PUSH2 0x1BBA JUMP JUMPDEST SWAP4 POP PUSH2 0x1C4A DUP2 DUP6 PUSH1 0x20 DUP7 ADD PUSH2 0x1C18 JUMP JUMPDEST DUP1 DUP5 ADD SWAP2 POP POP SWAP3 SWAP2 POP POP JUMP JUMPDEST PUSH32 0x206973206D697373696E6720726F6C6520000000000000000000000000000000 PUSH0 DUP3 ADD MSTORE POP JUMP JUMPDEST PUSH0 PUSH2 0x1C8A PUSH1 0x11 DUP4 PUSH2 0x1BBA JUMP JUMPDEST SWAP2 POP PUSH2 0x1C95 DUP3 PUSH2 0x1C56 JUMP JUMPDEST PUSH1 0x11 DUP3 ADD SWAP1 POP SWAP2 SWAP1 POP JUMP JUMPDEST PUSH0 PUSH2 0x1CAA DUP3 PUSH2 0x1BEC JUMP JUMPDEST SWAP2 POP PUSH2 0x1CB6 DUP3 DUP6 PUSH2 0x1C26 JUMP JUMPDEST SWAP2 POP PUSH2 0x1CC1 DUP3 PUSH2 0x1C7E JUMP JUMPDEST SWAP2 POP PUSH2 0x1CCD DUP3 DUP5 PUSH2 0x1C26 JUMP JUMPDEST SWAP2 POP DUP2 SWAP1 POP SWAP4 SWAP3 POP POP POP JUMP JUMPDEST PUSH0 PUSH1 0x1F NOT PUSH1 0x1F DUP4 ADD AND SWAP1 POP SWAP2 SWAP1 POP JUMP JUMPDEST PUSH0 PUSH2 0x1CF3 DUP3 PUSH2 0x1C0E JUMP JUMPDEST PUSH2 0x1CFD DUP2 DUP6 PUSH2 0x171A JUMP JUMPDEST SWAP4 POP PUSH2 0x1D0D DUP2 DUP6 PUSH1 0x20 DUP7 ADD PUSH2 0x1C18 JUMP JUMPDEST PUSH2 0x1D16 DUP2 PUSH2 0x1CD9 JUMP JUMPDEST DUP5 ADD SWAP2 POP POP SWAP3 SWAP2 POP POP JUMP JUMPDEST PUSH0 PUSH1 0x20 DUP3 ADD SWAP1 POP DUP2 DUP2 SUB PUSH0 DUP4 ADD MSTORE PUSH2 0x1D39 DUP2 DUP5 PUSH2 0x1CE9 JUMP JUMPDEST SWAP1 POP SWAP3 SWAP2 POP POP JUMP JUMPDEST PUSH32 0x4E487B7100000000000000000000000000000000000000000000000000000000 PUSH0 MSTORE PUSH1 0x11 PUSH1 0x4 MSTORE PUSH1 0x24 PUSH0 REVERT JUMPDEST PUSH0 PUSH2 0x1D78 DUP3 PUSH2 0x13AD JUMP JUMPDEST SWAP2 POP PUSH2 0x1D83 DUP4 PUSH2 0x13AD JUMP JUMPDEST SWAP3 POP DUP3 DUP3 MUL PUSH2 0x1D91 DUP2 PUSH2 0x13AD JUMP JUMPDEST SWAP2 POP DUP3 DUP3 DIV DUP5 EQ DUP4 ISZERO OR PUSH2 0x1DA8 JUMPI PUSH2 0x1DA7 PUSH2 0x1D41 JUMP JUMPDEST JUMPDEST POP SWAP3 SWAP2 POP POP JUMP JUMPDEST PUSH0 PUSH2 0x1DB9 DUP3 PUSH2 0x13AD JUMP JUMPDEST SWAP2 POP PUSH2 0x1DC4 DUP4 PUSH2 0x13AD JUMP JUMPDEST SWAP3 POP DUP3 DUP3 ADD SWAP1 POP DUP1 DUP3 GT ISZERO PUSH2 0x1DDC JUMPI PUSH2 0x1DDB PUSH2 0x1D41 JUMP JUMPDEST JUMPDEST SWAP3 SWAP2 POP POP JUMP JUMPDEST PUSH32 0x4E487B7100000000000000000000000000000000000000000000000000000000 PUSH0 MSTORE PUSH1 0x41 PUSH1 0x4 MSTORE PUSH1 0x24 PUSH0 REVERT JUMPDEST PUSH0 PUSH2 0x1E19 DUP3 PUSH2 0x13AD JUMP JUMPDEST SWAP2 POP PUSH0 DUP3 SUB PUSH2 0x1E2B JUMPI PUSH2 0x1E2A PUSH2 0x1D41 JUMP JUMPDEST JUMPDEST PUSH1 0x1 DUP3 SUB SWAP1 POP SWAP2 SWAP1 POP JUMP JUMPDEST PUSH32 0x537472696E67733A20686578206C656E67746820696E73756666696369656E74 PUSH0 DUP3 ADD MSTORE POP JUMP JUMPDEST PUSH0 PUSH2 0x1E6A PUSH1 0x20 DUP4 PUSH2 0x171A JUMP JUMPDEST SWAP2 POP PUSH2 0x1E75 DUP3 PUSH2 0x1E36 JUMP JUMPDEST PUSH1 0x20 DUP3 ADD SWAP1 POP SWAP2 SWAP1 POP JUMP JUMPDEST PUSH0 PUSH1 0x20 DUP3 ADD SWAP1 POP DUP2 DUP2 SUB PUSH0 DUP4 ADD MSTORE PUSH2 0x1E97 DUP2 PUSH2 0x1E5E JUMP JUMPDEST SWAP1 POP SWAP2 SWAP1 POP JUMP INVALID LOG2 PUSH5 0x6970667358 0x22 SLT KECCAK256 PUSH19 0x40244D46937933DDB99A4AB923EDB64725DB8D KECCAK256 0xC3 SWAP5 DUP14 PREVRANDAO CALLVALUE 0x22 PUSH5 0xB1493C1164 PUSH20 0x6F6C634300081A00330000000000000000000000 "
		},
		"gasEstimates": {
			"creation": {
				"codeDepositCost": "1578400",
				"executionCost": "infinite",
				"totalCost": "infinite"
			},
			"external": {
				"ADMIN_ROLE()": "348",
				"DEFAULT_ADMIN_ROLE()": "352",
				"challenge(uint256,uint256,uint256,uint256)": "infinite",
				"challenges(uint256,uint256,uint256)": "infinite",
				"distributePrizes(address[],uint256)": "infinite",
				"entToken()": "infinite",
				"getRoleAdmin(bytes32)": "infinite",
				"grantAdminRole(address)": "infinite",
				"grantRole(bytes32,address)": "infinite",
				"hasRole(bytes32,address)": "3189",
				"registerScore(uint256,uint256,uint256,uint256)": "infinite",
				"renounceRole(bytes32,address)": "infinite",
				"revokeAdminRole(address)": "infinite",
				"revokeRole(bytes32,address)": "infinite",
				"rptToken()": "infinite",
				"setTokens(address,address)": "infinite",
				"supportsInterface(bytes4)": "741"
			}
		},
		"methodIdentifiers": {
			"ADMIN_ROLE()": "75b238fc",
			"DEFAULT_ADMIN_ROLE()": "a217fddf",
			"challenge(uint256,uint256,uint256,uint256)": "1bff90b7",
			"challenges(uint256,uint256,uint256)": "28b69262",
			"distributePrizes(address[],uint256)": "75ef7e51",
			"entToken()": "dd0c8082",
			"getRoleAdmin(bytes32)": "248a9ca3",
			"grantAdminRole(address)": "c634b78e",
			"grantRole(bytes32,address)": "2f2ff15d",
			"hasRole(bytes32,address)": "91d14854",
			"registerScore(uint256,uint256,uint256,uint256)": "2ecf5ddc",
			"renounceRole(bytes32,address)": "36568abe",
			"revokeAdminRole(address)": "9a19c7b0",
			"revokeRole(bytes32,address)": "d547741f",
			"rptToken()": "1b72fa3a",
			"setTokens(address,address)": "cbc7854e",
			"supportsInterface(bytes4)": "01ffc9a7"
		}
	},
	"abi": [
		{
			"inputs": [
				{
					"internalType": "address",
					"name": "entTokenAddress",
					"type": "address"
				},
				{
					"internalType": "address",
					"name": "rptTokenAddress",
					"type": "address"
				}
			],
			"stateMutability": "nonpayable",
			"type": "constructor"
		},
		{
			"anonymous": false,
			"inputs": [
				{
					"indexed": true,
					"internalType": "bytes32",
					"name": "role",
					"type": "bytes32"
				},
				{
					"indexed": true,
					"internalType": "bytes32",
					"name": "previousAdminRole",
					"type": "bytes32"
				},
				{
					"indexed": true,
					"internalType": "bytes32",
					"name": "newAdminRole",
					"type": "bytes32"
				}
			],
			"name": "RoleAdminChanged",
			"type": "event"
		},
		{
			"anonymous": false,
			"inputs": [
				{
					"indexed": true,
					"internalType": "bytes32",
					"name": "role",
					"type": "bytes32"
				},
				{
					"indexed": true,
					"internalType": "address",
					"name": "account",
					"type": "address"
				},
				{
					"indexed": true,
					"internalType": "address",
					"name": "sender",
					"type": "address"
				}
			],
			"name": "RoleGranted",
			"type": "event"
		},
		{
			"anonymous": false,
			"inputs": [
				{
					"indexed": true,
					"internalType": "bytes32",
					"name": "role",
					"type": "bytes32"
				},
				{
					"indexed": true,
					"internalType": "address",
					"name": "account",
					"type": "address"
				},
				{
					"indexed": true,
					"internalType": "address",
					"name": "sender",
					"type": "address"
				}
			],
			"name": "RoleRevoked",
			"type": "event"
		},
		{
			"inputs": [],
			"name": "ADMIN_ROLE",
			"outputs": [
				{
					"internalType": "bytes32",
					"name": "",
					"type": "bytes32"
				}
			],
			"stateMutability": "view",
			"type": "function"
		},
		{
			"inputs": [],
			"name": "DEFAULT_ADMIN_ROLE",
			"outputs": [
				{
					"internalType": "bytes32",
					"name": "",
					"type": "bytes32"
				}
			],
			"stateMutability": "view",
			"type": "function"
		},
		{
			"inputs": [
				{
					"internalType": "uint256",
					"name": "yyyymmdd",
					"type": "uint256"
				},
				{
					"internalType": "uint256",
					"name": "gameSeq",
					"type": "uint256"
				},
				{
					"internalType": "uint256",
					"name": "memberSeq",
					"type": "uint256"
				},
				{
					"internalType": "uint256",
					"name": "tokenAmount",
					"type": "uint256"
				}
			],
			"name": "challenge",
			"outputs": [],
			"stateMutability": "nonpayable",
			"type": "function"
		},
		{
			"inputs": [
				{
					"internalType": "uint256",
					"name": "",
					"type": "uint256"
				},
				{
					"internalType": "uint256",
					"name": "",
					"type": "uint256"
				},
				{
					"internalType": "uint256",
					"name": "",
					"type": "uint256"
				}
			],
			"name": "challenges",
			"outputs": [
				{
					"internalType": "uint256",
					"name": "gameSeq",
					"type": "uint256"
				},
				{
					"internalType": "uint256",
					"name": "memberSeq",
					"type": "uint256"
				},
				{
					"internalType": "uint256",
					"name": "tokenAmount",
					"type": "uint256"
				},
				{
					"internalType": "uint256",
					"name": "score",
					"type": "uint256"
				},
				{
					"internalType": "bool",
					"name": "exists",
					"type": "bool"
				}
			],
			"stateMutability": "view",
			"type": "function"
		},
		{
			"inputs": [
				{
					"internalType": "address[]",
					"name": "recipients",
					"type": "address[]"
				},
				{
					"internalType": "uint256",
					"name": "tokenAmount",
					"type": "uint256"
				}
			],
			"name": "distributePrizes",
			"outputs": [],
			"stateMutability": "nonpayable",
			"type": "function"
		},
		{
			"inputs": [],
			"name": "entToken",
			"outputs": [
				{
					"internalType": "contract IERC20",
					"name": "",
					"type": "address"
				}
			],
			"stateMutability": "view",
			"type": "function"
		},
		{
			"inputs": [
				{
					"internalType": "bytes32",
					"name": "role",
					"type": "bytes32"
				}
			],
			"name": "getRoleAdmin",
			"outputs": [
				{
					"internalType": "bytes32",
					"name": "",
					"type": "bytes32"
				}
			],
			"stateMutability": "view",
			"type": "function"
		},
		{
			"inputs": [
				{
					"internalType": "address",
					"name": "account",
					"type": "address"
				}
			],
			"name": "grantAdminRole",
			"outputs": [],
			"stateMutability": "nonpayable",
			"type": "function"
		},
		{
			"inputs": [
				{
					"internalType": "bytes32",
					"name": "role",
					"type": "bytes32"
				},
				{
					"internalType": "address",
					"name": "account",
					"type": "address"
				}
			],
			"name": "grantRole",
			"outputs": [],
			"stateMutability": "nonpayable",
			"type": "function"
		},
		{
			"inputs": [
				{
					"internalType": "bytes32",
					"name": "role",
					"type": "bytes32"
				},
				{
					"internalType": "address",
					"name": "account",
					"type": "address"
				}
			],
			"name": "hasRole",
			"outputs": [
				{
					"internalType": "bool",
					"name": "",
					"type": "bool"
				}
			],
			"stateMutability": "view",
			"type": "function"
		},
		{
			"inputs": [
				{
					"internalType": "uint256",
					"name": "yyyymmdd",
					"type": "uint256"
				},
				{
					"internalType": "uint256",
					"name": "gameSeq",
					"type": "uint256"
				},
				{
					"internalType": "uint256",
					"name": "memberSeq",
					"type": "uint256"
				},
				{
					"internalType": "uint256",
					"name": "newScore",
					"type": "uint256"
				}
			],
			"name": "registerScore",
			"outputs": [],
			"stateMutability": "nonpayable",
			"type": "function"
		},
		{
			"inputs": [
				{
					"internalType": "bytes32",
					"name": "role",
					"type": "bytes32"
				},
				{
					"internalType": "address",
					"name": "account",
					"type": "address"
				}
			],
			"name": "renounceRole",
			"outputs": [],
			"stateMutability": "nonpayable",
			"type": "function"
		},
		{
			"inputs": [
				{
					"internalType": "address",
					"name": "account",
					"type": "address"
				}
			],
			"name": "revokeAdminRole",
			"outputs": [],
			"stateMutability": "nonpayable",
			"type": "function"
		},
		{
			"inputs": [
				{
					"internalType": "bytes32",
					"name": "role",
					"type": "bytes32"
				},
				{
					"internalType": "address",
					"name": "account",
					"type": "address"
				}
			],
			"name": "revokeRole",
			"outputs": [],
			"stateMutability": "nonpayable",
			"type": "function"
		},
		{
			"inputs": [],
			"name": "rptToken",
			"outputs": [
				{
					"internalType": "contract IERC20",
					"name": "",
					"type": "address"
				}
			],
			"stateMutability": "view",
			"type": "function"
		},
		{
			"inputs": [
				{
					"internalType": "address",
					"name": "entTokenAddress",
					"type": "address"
				},
				{
					"internalType": "address",
					"name": "rptTokenAddress",
					"type": "address"
				}
			],
			"name": "setTokens",
			"outputs": [],
			"stateMutability": "nonpayable",
			"type": "function"
		},
		{
			"inputs": [
				{
					"internalType": "bytes4",
					"name": "interfaceId",
					"type": "bytes4"
				}
			],
			"name": "supportsInterface",
			"outputs": [
				{
					"internalType": "bool",
					"name": "",
					"type": "bool"
				}
			],
			"stateMutability": "view",
			"type": "function"
		}
	]
}