{
	"data": {
		"bytecode": {
			"linkReferences": {},
			"object": "608060405234801561000f575f80fd5b5060405161237a38038061237a833981810160405281019061003191906102bc565b8160015f6101000a81548173ffffffffffffffffffffffffffffffffffffffff021916908373ffffffffffffffffffffffffffffffffffffffff1602179055508060025f6101000a81548173ffffffffffffffffffffffffffffffffffffffff021916908373ffffffffffffffffffffffffffffffffffffffff1602179055506100c35f801b336100fa60201b60201c565b6100f37fa49807205ce4d355092ef5a8a18f56e8913cf4a201fbe287825b095693c21775336100fa60201b60201c565b50506102fa565b61010a828261010e60201b60201c565b5050565b61011e82826101f460201b60201c565b6101f05760015f808481526020019081526020015f205f015f8373ffffffffffffffffffffffffffffffffffffffff1673ffffffffffffffffffffffffffffffffffffffff1681526020019081526020015f205f6101000a81548160ff02191690831515021790555061019561025760201b60201c565b73ffffffffffffffffffffffffffffffffffffffff168173ffffffffffffffffffffffffffffffffffffffff16837f2f8788117e7eff1d82e926ec794901d17c78024a50270940304540a733656f0d60405160405180910390a45b5050565b5f805f8481526020019081526020015f205f015f8373ffffffffffffffffffffffffffffffffffffffff1673ffffffffffffffffffffffffffffffffffffffff1681526020019081526020015f205f9054906101000a900460ff16905092915050565b5f33905090565b5f80fd5b5f73ffffffffffffffffffffffffffffffffffffffff82169050919050565b5f61028b82610262565b9050919050565b61029b81610281565b81146102a5575f80fd5b50565b5f815190506102b681610292565b92915050565b5f80604083850312156102d2576102d161025e565b5b5f6102df858286016102a8565b92505060206102f0858286016102a8565b9150509250929050565b612073806103075f395ff3fe608060405234801561000f575f80fd5b5060043610610109575f3560e01c8063406a378a116100a0578063a217fddf1161006f578063a217fddf146102b5578063c634b78e146102d3578063cbc7854e146102ef578063d547741f1461030b578063dd0c80821461032757610109565b8063406a378a1461022f57806375b238fc1461024b57806391d14854146102695780639a19c7b01461029957610109565b806328b69262116100dc57806328b69262146101a75780632ecf5ddc146101db5780632f2ff15d146101f757806336568abe1461021357610109565b806301ffc9a71461010d5780631b72fa3a1461013d5780631bff90b71461015b578063248a9ca314610177575b5f80fd5b6101276004803603810190610122919061131e565b610345565b6040516101349190611363565b60405180910390f35b6101456103be565b60405161015291906113f6565b60405180910390f35b61017560048036038101906101709190611442565b6103e3565b005b610191600480360381019061018c91906114d9565b6107a8565b60405161019e9190611513565b60405180910390f35b6101c160048036038101906101bc919061152c565b6107c4565b6040516101d295949392919061158b565b60405180910390f35b6101f560048036038101906101f09190611442565b610818565b005b610211600480360381019061020c9190611617565b6109ac565b005b61022d60048036038101906102289190611617565b6109cd565b005b6102496004803603810190610244919061170b565b610a50565b005b610253610bad565b6040516102609190611513565b60405180910390f35b610283600480360381019061027e9190611617565b610bd1565b6040516102909190611363565b60405180910390f35b6102b360048036038101906102ae9190611789565b610c34565b005b6102bd610c6e565b6040516102ca9190611513565b60405180910390f35b6102ed60048036038101906102e89190611789565b610c74565b005b610309600480360381019061030491906117b4565b610cae565b005b61032560048036038101906103209190611617565b610d5d565b005b61032f610d7e565b60405161033c9190611812565b60405180910390f35b5f7f7965db0b000000000000000000000000000000000000000000000000000000007bffffffffffffffffffffffffffffffffffffffffffffffffffffffff1916827bffffffffffffffffffffffffffffffffffffffffffffffffffffffff191614806103b757506103b682610da3565b5b9050919050565b60025f9054906101000a900473ffffffffffffffffffffffffffffffffffffffff1681565b60035f8581526020019081526020015f205f8481526020019081526020015f205f8381526020019081526020015f206004015f9054906101000a900460ff1615610462576040517f08c379a0000000000000000000000000000000000000000000000000000000008152600401610459906118ab565b60405180910390fd5b5f60015f9054906101000a900473ffffffffffffffffffffffffffffffffffffffff1673ffffffffffffffffffffffffffffffffffffffff1663dd62ed3e33306040518363ffffffff1660e01b81526004016104bf9291906118d8565b602060405180830381865afa1580156104da573d5f803e3d5ffd5b505050506040513d601f19601f820116820180604052508101906104fe9190611913565b905081811015610543576040517f08c379a000000000000000000000000000000000000000000000000000000000815260040161053a90611988565b60405180910390fd5b5f60015f9054906101000a900473ffffffffffffffffffffffffffffffffffffffff1673ffffffffffffffffffffffffffffffffffffffff166370a08231336040518263ffffffff1660e01b815260040161059e91906119a6565b602060405180830381865afa1580156105b9573d5f803e3d5ffd5b505050506040513d601f19601f820116820180604052508101906105dd9190611913565b905082811015610622576040517f08c379a000000000000000000000000000000000000000000000000000000000815260040161061990611a09565b60405180910390fd5b60015f9054906101000a900473ffffffffffffffffffffffffffffffffffffffff1673ffffffffffffffffffffffffffffffffffffffff166323b872dd3330866040518463ffffffff1660e01b815260040161068093929190611a27565b6020604051808303815f875af115801561069c573d5f803e3d5ffd5b505050506040513d601f19601f820116820180604052508101906106c09190611a86565b6106ff576040517f08c379a00000000000000000000000000000000000000000000000000000000081526004016106f690611afb565b60405180910390fd5b6040518060a001604052808681526020018581526020018481526020015f81526020016001151581525060035f8881526020019081526020015f205f8781526020019081526020015f205f8681526020019081526020015f205f820151815f01556020820151816001015560408201518160020155606082015181600301556080820151816004015f6101000a81548160ff021916908315150217905550905050505050505050565b5f805f8381526020019081526020015f20600101549050919050565b6003602052825f5260405f20602052815f5260405f20602052805f5260405f205f925092505050805f015490806001015490806002015490806003015490806004015f9054906101000a900460ff16905085565b7fa49807205ce4d355092ef5a8a18f56e8913cf4a201fbe287825b095693c2177561084281610e0c565b60035f8681526020019081526020015f205f8581526020019081526020015f205f8481526020019081526020015f206004015f9054906101000a900460ff166108c0576040517f08c379a00000000000000000000000000000000000000000000000000000000081526004016108b790611b63565b60405180910390fd5b8360035f8781526020019081526020015f205f8681526020019081526020015f205f8581526020019081526020015f205f015414610933576040517f08c379a000000000000000000000000000000000000000000000000000000000815260040161092a90611bcb565b60405180910390fd5b60035f8681526020019081526020015f205f8581526020019081526020015f205f8481526020019081526020015f20600301548211156109a5578160035f8781526020019081526020015f205f8681526020019081526020015f205f8581526020019081526020015f20600301819055505b5050505050565b6109b5826107a8565b6109be81610e0c565b6109c88383610e20565b505050565b6109d5610efa565b73ffffffffffffffffffffffffffffffffffffffff168173ffffffffffffffffffffffffffffffffffffffff1614610a42576040517f08c379a0000000000000000000000000000000000000000000000000000000008152600401610a3990611c59565b60405180910390fd5b610a4c8282610f01565b5050565b7fa49807205ce4d355092ef5a8a18f56e8913cf4a201fbe287825b095693c21775610a7a81610e0c565b828290508585905014610ac2576040517f08c379a0000000000000000000000000000000000000000000000000000000008152600401610ab990611ce7565b60405180910390fd5b5f5b85859050811015610ba55760025f9054906101000a900473ffffffffffffffffffffffffffffffffffffffff1673ffffffffffffffffffffffffffffffffffffffff166340c10f19878784818110610b1f57610b1e611d05565b5b9050602002016020810190610b349190611789565b868685818110610b4757610b46611d05565b5b905060200201356040518363ffffffff1660e01b8152600401610b6b929190611d32565b5f604051808303815f87803b158015610b82575f80fd5b505af1158015610b94573d5f803e3d5ffd5b505050508080600101915050610ac4565b505050505050565b7fa49807205ce4d355092ef5a8a18f56e8913cf4a201fbe287825b095693c2177581565b5f805f8481526020019081526020015f205f015f8373ffffffffffffffffffffffffffffffffffffffff1673ffffffffffffffffffffffffffffffffffffffff1681526020019081526020015f205f9054906101000a900460ff16905092915050565b5f801b610c4081610e0c565b610c6a7fa49807205ce4d355092ef5a8a18f56e8913cf4a201fbe287825b095693c2177583610d5d565b5050565b5f801b81565b5f801b610c8081610e0c565b610caa7fa49807205ce4d355092ef5a8a18f56e8913cf4a201fbe287825b095693c21775836109ac565b5050565b7fa49807205ce4d355092ef5a8a18f56e8913cf4a201fbe287825b095693c21775610cd881610e0c565b8260015f6101000a81548173ffffffffffffffffffffffffffffffffffffffff021916908373ffffffffffffffffffffffffffffffffffffffff1602179055508160025f6101000a81548173ffffffffffffffffffffffffffffffffffffffff021916908373ffffffffffffffffffffffffffffffffffffffff160217905550505050565b610d66826107a8565b610d6f81610e0c565b610d798383610f01565b505050565b60015f9054906101000a900473ffffffffffffffffffffffffffffffffffffffff1681565b5f7f01ffc9a7000000000000000000000000000000000000000000000000000000007bffffffffffffffffffffffffffffffffffffffffffffffffffffffff1916827bffffffffffffffffffffffffffffffffffffffffffffffffffffffff1916149050919050565b610e1d81610e18610efa565b610fdb565b50565b610e2a8282610bd1565b610ef65760015f808481526020019081526020015f205f015f8373ffffffffffffffffffffffffffffffffffffffff1673ffffffffffffffffffffffffffffffffffffffff1681526020019081526020015f205f6101000a81548160ff021916908315150217905550610e9b610efa565b73ffffffffffffffffffffffffffffffffffffffff168173ffffffffffffffffffffffffffffffffffffffff16837f2f8788117e7eff1d82e926ec794901d17c78024a50270940304540a733656f0d60405160405180910390a45b5050565b5f33905090565b610f0b8282610bd1565b15610fd7575f805f8481526020019081526020015f205f015f8373ffffffffffffffffffffffffffffffffffffffff1673ffffffffffffffffffffffffffffffffffffffff1681526020019081526020015f205f6101000a81548160ff021916908315150217905550610f7c610efa565b73ffffffffffffffffffffffffffffffffffffffff168173ffffffffffffffffffffffffffffffffffffffff16837ff6391f5c32d9c69d2a47ea670b442974b53935d1edc7fd64eb21e047a839171b60405160405180910390a45b5050565b610fe58282610bd1565b61105b57610ff28161105f565b610fff835f1c602061108c565b604051602001611010929190611e3f565b6040516020818303038152906040526040517f08c379a00000000000000000000000000000000000000000000000000000000081526004016110529190611ec0565b60405180910390fd5b5050565b60606110858273ffffffffffffffffffffffffffffffffffffffff16601460ff1661108c565b9050919050565b60605f600283600261109e9190611f0d565b6110a89190611f4e565b67ffffffffffffffff8111156110c1576110c0611f81565b5b6040519080825280601f01601f1916602001820160405280156110f35781602001600182028036833780820191505090505b5090507f3000000000000000000000000000000000000000000000000000000000000000815f8151811061112a57611129611d05565b5b60200101907effffffffffffffffffffffffffffffffffffffffffffffffffffffffffffff191690815f1a9053507f78000000000000000000000000000000000000000000000000000000000000008160018151811061118d5761118c611d05565b5b60200101907effffffffffffffffffffffffffffffffffffffffffffffffffffffffffffff191690815f1a9053505f60018460026111cb9190611f0d565b6111d59190611f4e565b90505b6001811115611274577f3031323334353637383961626364656600000000000000000000000000000000600f86166010811061121757611216611d05565b5b1a60f81b82828151811061122e5761122d611d05565b5b60200101907effffffffffffffffffffffffffffffffffffffffffffffffffffffffffffff191690815f1a905350600485901c94508061126d90611fae565b90506111d8565b505f84146112b7576040517f08c379a00000000000000000000000000000000000000000000000000000000081526004016112ae9061201f565b60405180910390fd5b8091505092915050565b5f80fd5b5f80fd5b5f7fffffffff0000000000000000000000000000000000000000000000000000000082169050919050565b6112fd816112c9565b8114611307575f80fd5b50565b5f81359050611318816112f4565b92915050565b5f60208284031215611333576113326112c1565b5b5f6113408482850161130a565b91505092915050565b5f8115159050919050565b61135d81611349565b82525050565b5f6020820190506113765f830184611354565b92915050565b5f73ffffffffffffffffffffffffffffffffffffffff82169050919050565b5f819050919050565b5f6113be6113b96113b48461137c565b61139b565b61137c565b9050919050565b5f6113cf826113a4565b9050919050565b5f6113e0826113c5565b9050919050565b6113f0816113d6565b82525050565b5f6020820190506114095f8301846113e7565b92915050565b5f819050919050565b6114218161140f565b811461142b575f80fd5b50565b5f8135905061143c81611418565b92915050565b5f805f806080858703121561145a576114596112c1565b5b5f6114678782880161142e565b94505060206114788782880161142e565b93505060406114898782880161142e565b925050606061149a8782880161142e565b91505092959194509250565b5f819050919050565b6114b8816114a6565b81146114c2575f80fd5b50565b5f813590506114d3816114af565b92915050565b5f602082840312156114ee576114ed6112c1565b5b5f6114fb848285016114c5565b91505092915050565b61150d816114a6565b82525050565b5f6020820190506115265f830184611504565b92915050565b5f805f60608486031215611543576115426112c1565b5b5f6115508682870161142e565b93505060206115618682870161142e565b92505060406115728682870161142e565b9150509250925092565b6115858161140f565b82525050565b5f60a08201905061159e5f83018861157c565b6115ab602083018761157c565b6115b8604083018661157c565b6115c5606083018561157c565b6115d26080830184611354565b9695505050505050565b5f6115e68261137c565b9050919050565b6115f6816115dc565b8114611600575f80fd5b50565b5f81359050611611816115ed565b92915050565b5f806040838503121561162d5761162c6112c1565b5b5f61163a858286016114c5565b925050602061164b85828601611603565b9150509250929050565b5f80fd5b5f80fd5b5f80fd5b5f8083601f84011261167657611675611655565b5b8235905067ffffffffffffffff81111561169357611692611659565b5b6020830191508360208202830111156116af576116ae61165d565b5b9250929050565b5f8083601f8401126116cb576116ca611655565b5b8235905067ffffffffffffffff8111156116e8576116e7611659565b5b6020830191508360208202830111156117045761170361165d565b5b9250929050565b5f805f8060408587031215611723576117226112c1565b5b5f85013567ffffffffffffffff8111156117405761173f6112c5565b5b61174c87828801611661565b9450945050602085013567ffffffffffffffff81111561176f5761176e6112c5565b5b61177b878288016116b6565b925092505092959194509250565b5f6020828403121561179e5761179d6112c1565b5b5f6117ab84828501611603565b91505092915050565b5f80604083850312156117ca576117c96112c1565b5b5f6117d785828601611603565b92505060206117e885828601611603565b9150509250929050565b5f6117fc826113c5565b9050919050565b61180c816117f2565b82525050565b5f6020820190506118255f830184611803565b92915050565b5f82825260208201905092915050565b7f4368616c6c656e676520616c72656164792065786973747320666f72207468695f8201527f73206d656d6265722c20646174652c20616e642067616d650000000000000000602082015250565b5f61189560388361182b565b91506118a08261183b565b604082019050919050565b5f6020820190508181035f8301526118c281611889565b9050919050565b6118d2816115dc565b82525050565b5f6040820190506118eb5f8301856118c9565b6118f860208301846118c9565b9392505050565b5f8151905061190d81611418565b92915050565b5f60208284031215611928576119276112c1565b5b5f611935848285016118ff565b91505092915050565b7f496e73756666696369656e7420746f6b656e20616c6c6f77616e6365000000005f82015250565b5f611972601c8361182b565b915061197d8261193e565b602082019050919050565b5f6020820190508181035f83015261199f81611966565b9050919050565b5f6020820190506119b95f8301846118c9565b92915050565b7f496e73756666696369656e7420746f6b656e2062616c616e63650000000000005f82015250565b5f6119f3601a8361182b565b91506119fe826119bf565b602082019050919050565b5f6020820190508181035f830152611a20816119e7565b9050919050565b5f606082019050611a3a5f8301866118c9565b611a4760208301856118c9565b611a54604083018461157c565b949350505050565b611a6581611349565b8114611a6f575f80fd5b50565b5f81519050611a8081611a5c565b92915050565b5f60208284031215611a9b57611a9a6112c1565b5b5f611aa884828501611a72565b91505092915050565b7f546f6b656e207472616e73666572206661696c656400000000000000000000005f82015250565b5f611ae560158361182b565b9150611af082611ab1565b602082019050919050565b5f6020820190508181035f830152611b1281611ad9565b9050919050565b7f4368616c6c656e676520646f6573206e6f7420657869737400000000000000005f82015250565b5f611b4d60188361182b565b9150611b5882611b19565b602082019050919050565b5f6020820190508181035f830152611b7a81611b41565b9050919050565b7f47616d652073657175656e6365206d69736d61746368000000000000000000005f82015250565b5f611bb560168361182b565b9150611bc082611b81565b602082019050919050565b5f6020820190508181035f830152611be281611ba9565b9050919050565b7f416363657373436f6e74726f6c3a2063616e206f6e6c792072656e6f756e63655f8201527f20726f6c657320666f722073656c660000000000000000000000000000000000602082015250565b5f611c43602f8361182b565b9150611c4e82611be9565b604082019050919050565b5f6020820190508181035f830152611c7081611c37565b9050919050565b7f526563697069656e747320616e6420746f6b656e20616d6f756e7473206c656e5f8201527f677468206d69736d617463680000000000000000000000000000000000000000602082015250565b5f611cd1602c8361182b565b9150611cdc82611c77565b604082019050919050565b5f6020820190508181035f830152611cfe81611cc5565b9050919050565b7f4e487b71000000000000000000000000000000000000000000000000000000005f52603260045260245ffd5b5f604082019050611d455f8301856118c9565b611d52602083018461157c565b9392505050565b5f81905092915050565b7f416363657373436f6e74726f6c3a206163636f756e74200000000000000000005f82015250565b5f611d97601783611d59565b9150611da282611d63565b601782019050919050565b5f81519050919050565b8281835e5f83830152505050565b5f611dcf82611dad565b611dd98185611d59565b9350611de9818560208601611db7565b80840191505092915050565b7f206973206d697373696e6720726f6c65200000000000000000000000000000005f82015250565b5f611e29601183611d59565b9150611e3482611df5565b601182019050919050565b5f611e4982611d8b565b9150611e558285611dc5565b9150611e6082611e1d565b9150611e6c8284611dc5565b91508190509392505050565b5f601f19601f8301169050919050565b5f611e9282611dad565b611e9c818561182b565b9350611eac818560208601611db7565b611eb581611e78565b840191505092915050565b5f6020820190508181035f830152611ed88184611e88565b905092915050565b7f4e487b71000000000000000000000000000000000000000000000000000000005f52601160045260245ffd5b5f611f178261140f565b9150611f228361140f565b9250828202611f308161140f565b91508282048414831517611f4757611f46611ee0565b5b5092915050565b5f611f588261140f565b9150611f638361140f565b9250828201905080821115611f7b57611f7a611ee0565b5b92915050565b7f4e487b71000000000000000000000000000000000000000000000000000000005f52604160045260245ffd5b5f611fb88261140f565b91505f8203611fca57611fc9611ee0565b5b600182039050919050565b7f537472696e67733a20686578206c656e67746820696e73756666696369656e745f82015250565b5f61200960208361182b565b915061201482611fd5565b602082019050919050565b5f6020820190508181035f83015261203681611ffd565b905091905056fea264697066735822122065a3f4de6212b1bb3af4df32d0af9cf2e3c86113035be87fa712dd228c8ea7ba64736f6c634300081a0033",
			"opcodes": "PUSH1 0x80 PUSH1 0x40 MSTORE CALLVALUE DUP1 ISZERO PUSH2 0xF JUMPI PUSH0 DUP1 REVERT JUMPDEST POP PUSH1 0x40 MLOAD PUSH2 0x237A CODESIZE SUB DUP1 PUSH2 0x237A DUP4 CODECOPY DUP2 DUP2 ADD PUSH1 0x40 MSTORE DUP2 ADD SWAP1 PUSH2 0x31 SWAP2 SWAP1 PUSH2 0x2BC JUMP JUMPDEST DUP2 PUSH1 0x1 PUSH0 PUSH2 0x100 EXP DUP2 SLOAD DUP2 PUSH20 0xFFFFFFFFFFFFFFFFFFFFFFFFFFFFFFFFFFFFFFFF MUL NOT AND SWAP1 DUP4 PUSH20 0xFFFFFFFFFFFFFFFFFFFFFFFFFFFFFFFFFFFFFFFF AND MUL OR SWAP1 SSTORE POP DUP1 PUSH1 0x2 PUSH0 PUSH2 0x100 EXP DUP2 SLOAD DUP2 PUSH20 0xFFFFFFFFFFFFFFFFFFFFFFFFFFFFFFFFFFFFFFFF MUL NOT AND SWAP1 DUP4 PUSH20 0xFFFFFFFFFFFFFFFFFFFFFFFFFFFFFFFFFFFFFFFF AND MUL OR SWAP1 SSTORE POP PUSH2 0xC3 PUSH0 DUP1 SHL CALLER PUSH2 0xFA PUSH1 0x20 SHL PUSH1 0x20 SHR JUMP JUMPDEST PUSH2 0xF3 PUSH32 0xA49807205CE4D355092EF5A8A18F56E8913CF4A201FBE287825B095693C21775 CALLER PUSH2 0xFA PUSH1 0x20 SHL PUSH1 0x20 SHR JUMP JUMPDEST POP POP PUSH2 0x2FA JUMP JUMPDEST PUSH2 0x10A DUP3 DUP3 PUSH2 0x10E PUSH1 0x20 SHL PUSH1 0x20 SHR JUMP JUMPDEST POP POP JUMP JUMPDEST PUSH2 0x11E DUP3 DUP3 PUSH2 0x1F4 PUSH1 0x20 SHL PUSH1 0x20 SHR JUMP JUMPDEST PUSH2 0x1F0 JUMPI PUSH1 0x1 PUSH0 DUP1 DUP5 DUP2 MSTORE PUSH1 0x20 ADD SWAP1 DUP2 MSTORE PUSH1 0x20 ADD PUSH0 KECCAK256 PUSH0 ADD PUSH0 DUP4 PUSH20 0xFFFFFFFFFFFFFFFFFFFFFFFFFFFFFFFFFFFFFFFF AND PUSH20 0xFFFFFFFFFFFFFFFFFFFFFFFFFFFFFFFFFFFFFFFF AND DUP2 MSTORE PUSH1 0x20 ADD SWAP1 DUP2 MSTORE PUSH1 0x20 ADD PUSH0 KECCAK256 PUSH0 PUSH2 0x100 EXP DUP2 SLOAD DUP2 PUSH1 0xFF MUL NOT AND SWAP1 DUP4 ISZERO ISZERO MUL OR SWAP1 SSTORE POP PUSH2 0x195 PUSH2 0x257 PUSH1 0x20 SHL PUSH1 0x20 SHR JUMP JUMPDEST PUSH20 0xFFFFFFFFFFFFFFFFFFFFFFFFFFFFFFFFFFFFFFFF AND DUP2 PUSH20 0xFFFFFFFFFFFFFFFFFFFFFFFFFFFFFFFFFFFFFFFF AND DUP4 PUSH32 0x2F8788117E7EFF1D82E926EC794901D17C78024A50270940304540A733656F0D PUSH1 0x40 MLOAD PUSH1 0x40 MLOAD DUP1 SWAP2 SUB SWAP1 LOG4 JUMPDEST POP POP JUMP JUMPDEST PUSH0 DUP1 PUSH0 DUP5 DUP2 MSTORE PUSH1 0x20 ADD SWAP1 DUP2 MSTORE PUSH1 0x20 ADD PUSH0 KECCAK256 PUSH0 ADD PUSH0 DUP4 PUSH20 0xFFFFFFFFFFFFFFFFFFFFFFFFFFFFFFFFFFFFFFFF AND PUSH20 0xFFFFFFFFFFFFFFFFFFFFFFFFFFFFFFFFFFFFFFFF AND DUP2 MSTORE PUSH1 0x20 ADD SWAP1 DUP2 MSTORE PUSH1 0x20 ADD PUSH0 KECCAK256 PUSH0 SWAP1 SLOAD SWAP1 PUSH2 0x100 EXP SWAP1 DIV PUSH1 0xFF AND SWAP1 POP SWAP3 SWAP2 POP POP JUMP JUMPDEST PUSH0 CALLER SWAP1 POP SWAP1 JUMP JUMPDEST PUSH0 DUP1 REVERT JUMPDEST PUSH0 PUSH20 0xFFFFFFFFFFFFFFFFFFFFFFFFFFFFFFFFFFFFFFFF DUP3 AND SWAP1 POP SWAP2 SWAP1 POP JUMP JUMPDEST PUSH0 PUSH2 0x28B DUP3 PUSH2 0x262 JUMP JUMPDEST SWAP1 POP SWAP2 SWAP1 POP JUMP JUMPDEST PUSH2 0x29B DUP2 PUSH2 0x281 JUMP JUMPDEST DUP2 EQ PUSH2 0x2A5 JUMPI PUSH0 DUP1 REVERT JUMPDEST POP JUMP JUMPDEST PUSH0 DUP2 MLOAD SWAP1 POP PUSH2 0x2B6 DUP2 PUSH2 0x292 JUMP JUMPDEST SWAP3 SWAP2 POP POP JUMP JUMPDEST PUSH0 DUP1 PUSH1 0x40 DUP4 DUP6 SUB SLT ISZERO PUSH2 0x2D2 JUMPI PUSH2 0x2D1 PUSH2 0x25E JUMP JUMPDEST JUMPDEST PUSH0 PUSH2 0x2DF DUP6 DUP3 DUP7 ADD PUSH2 0x2A8 JUMP JUMPDEST SWAP3 POP POP PUSH1 0x20 PUSH2 0x2F0 DUP6 DUP3 DUP7 ADD PUSH2 0x2A8 JUMP JUMPDEST SWAP2 POP POP SWAP3 POP SWAP3 SWAP1 POP JUMP JUMPDEST PUSH2 0x2073 DUP1 PUSH2 0x307 PUSH0 CODECOPY PUSH0 RETURN INVALID PUSH1 0x80 PUSH1 0x40 MSTORE CALLVALUE DUP1 ISZERO PUSH2 0xF JUMPI PUSH0 DUP1 REVERT JUMPDEST POP PUSH1 0x4 CALLDATASIZE LT PUSH2 0x109 JUMPI PUSH0 CALLDATALOAD PUSH1 0xE0 SHR DUP1 PUSH4 0x406A378A GT PUSH2 0xA0 JUMPI DUP1 PUSH4 0xA217FDDF GT PUSH2 0x6F JUMPI DUP1 PUSH4 0xA217FDDF EQ PUSH2 0x2B5 JUMPI DUP1 PUSH4 0xC634B78E EQ PUSH2 0x2D3 JUMPI DUP1 PUSH4 0xCBC7854E EQ PUSH2 0x2EF JUMPI DUP1 PUSH4 0xD547741F EQ PUSH2 0x30B JUMPI DUP1 PUSH4 0xDD0C8082 EQ PUSH2 0x327 JUMPI PUSH2 0x109 JUMP JUMPDEST DUP1 PUSH4 0x406A378A EQ PUSH2 0x22F JUMPI DUP1 PUSH4 0x75B238FC EQ PUSH2 0x24B JUMPI DUP1 PUSH4 0x91D14854 EQ PUSH2 0x269 JUMPI DUP1 PUSH4 0x9A19C7B0 EQ PUSH2 0x299 JUMPI PUSH2 0x109 JUMP JUMPDEST DUP1 PUSH4 0x28B69262 GT PUSH2 0xDC JUMPI DUP1 PUSH4 0x28B69262 EQ PUSH2 0x1A7 JUMPI DUP1 PUSH4 0x2ECF5DDC EQ PUSH2 0x1DB JUMPI DUP1 PUSH4 0x2F2FF15D EQ PUSH2 0x1F7 JUMPI DUP1 PUSH4 0x36568ABE EQ PUSH2 0x213 JUMPI PUSH2 0x109 JUMP JUMPDEST DUP1 PUSH4 0x1FFC9A7 EQ PUSH2 0x10D JUMPI DUP1 PUSH4 0x1B72FA3A EQ PUSH2 0x13D JUMPI DUP1 PUSH4 0x1BFF90B7 EQ PUSH2 0x15B JUMPI DUP1 PUSH4 0x248A9CA3 EQ PUSH2 0x177 JUMPI JUMPDEST PUSH0 DUP1 REVERT JUMPDEST PUSH2 0x127 PUSH1 0x4 DUP1 CALLDATASIZE SUB DUP2 ADD SWAP1 PUSH2 0x122 SWAP2 SWAP1 PUSH2 0x131E JUMP JUMPDEST PUSH2 0x345 JUMP JUMPDEST PUSH1 0x40 MLOAD PUSH2 0x134 SWAP2 SWAP1 PUSH2 0x1363 JUMP JUMPDEST PUSH1 0x40 MLOAD DUP1 SWAP2 SUB SWAP1 RETURN JUMPDEST PUSH2 0x145 PUSH2 0x3BE JUMP JUMPDEST PUSH1 0x40 MLOAD PUSH2 0x152 SWAP2 SWAP1 PUSH2 0x13F6 JUMP JUMPDEST PUSH1 0x40 MLOAD DUP1 SWAP2 SUB SWAP1 RETURN JUMPDEST PUSH2 0x175 PUSH1 0x4 DUP1 CALLDATASIZE SUB DUP2 ADD SWAP1 PUSH2 0x170 SWAP2 SWAP1 PUSH2 0x1442 JUMP JUMPDEST PUSH2 0x3E3 JUMP JUMPDEST STOP JUMPDEST PUSH2 0x191 PUSH1 0x4 DUP1 CALLDATASIZE SUB DUP2 ADD SWAP1 PUSH2 0x18C SWAP2 SWAP1 PUSH2 0x14D9 JUMP JUMPDEST PUSH2 0x7A8 JUMP JUMPDEST PUSH1 0x40 MLOAD PUSH2 0x19E SWAP2 SWAP1 PUSH2 0x1513 JUMP JUMPDEST PUSH1 0x40 MLOAD DUP1 SWAP2 SUB SWAP1 RETURN JUMPDEST PUSH2 0x1C1 PUSH1 0x4 DUP1 CALLDATASIZE SUB DUP2 ADD SWAP1 PUSH2 0x1BC SWAP2 SWAP1 PUSH2 0x152C JUMP JUMPDEST PUSH2 0x7C4 JUMP JUMPDEST PUSH1 0x40 MLOAD PUSH2 0x1D2 SWAP6 SWAP5 SWAP4 SWAP3 SWAP2 SWAP1 PUSH2 0x158B JUMP JUMPDEST PUSH1 0x40 MLOAD DUP1 SWAP2 SUB SWAP1 RETURN JUMPDEST PUSH2 0x1F5 PUSH1 0x4 DUP1 CALLDATASIZE SUB DUP2 ADD SWAP1 PUSH2 0x1F0 SWAP2 SWAP1 PUSH2 0x1442 JUMP JUMPDEST PUSH2 0x818 JUMP JUMPDEST STOP JUMPDEST PUSH2 0x211 PUSH1 0x4 DUP1 CALLDATASIZE SUB DUP2 ADD SWAP1 PUSH2 0x20C SWAP2 SWAP1 PUSH2 0x1617 JUMP JUMPDEST PUSH2 0x9AC JUMP JUMPDEST STOP JUMPDEST PUSH2 0x22D PUSH1 0x4 DUP1 CALLDATASIZE SUB DUP2 ADD SWAP1 PUSH2 0x228 SWAP2 SWAP1 PUSH2 0x1617 JUMP JUMPDEST PUSH2 0x9CD JUMP JUMPDEST STOP JUMPDEST PUSH2 0x249 PUSH1 0x4 DUP1 CALLDATASIZE SUB DUP2 ADD SWAP1 PUSH2 0x244 SWAP2 SWAP1 PUSH2 0x170B JUMP JUMPDEST PUSH2 0xA50 JUMP JUMPDEST STOP JUMPDEST PUSH2 0x253 PUSH2 0xBAD JUMP JUMPDEST PUSH1 0x40 MLOAD PUSH2 0x260 SWAP2 SWAP1 PUSH2 0x1513 JUMP JUMPDEST PUSH1 0x40 MLOAD DUP1 SWAP2 SUB SWAP1 RETURN JUMPDEST PUSH2 0x283 PUSH1 0x4 DUP1 CALLDATASIZE SUB DUP2 ADD SWAP1 PUSH2 0x27E SWAP2 SWAP1 PUSH2 0x1617 JUMP JUMPDEST PUSH2 0xBD1 JUMP JUMPDEST PUSH1 0x40 MLOAD PUSH2 0x290 SWAP2 SWAP1 PUSH2 0x1363 JUMP JUMPDEST PUSH1 0x40 MLOAD DUP1 SWAP2 SUB SWAP1 RETURN JUMPDEST PUSH2 0x2B3 PUSH1 0x4 DUP1 CALLDATASIZE SUB DUP2 ADD SWAP1 PUSH2 0x2AE SWAP2 SWAP1 PUSH2 0x1789 JUMP JUMPDEST PUSH2 0xC34 JUMP JUMPDEST STOP JUMPDEST PUSH2 0x2BD PUSH2 0xC6E JUMP JUMPDEST PUSH1 0x40 MLOAD PUSH2 0x2CA SWAP2 SWAP1 PUSH2 0x1513 JUMP JUMPDEST PUSH1 0x40 MLOAD DUP1 SWAP2 SUB SWAP1 RETURN JUMPDEST PUSH2 0x2ED PUSH1 0x4 DUP1 CALLDATASIZE SUB DUP2 ADD SWAP1 PUSH2 0x2E8 SWAP2 SWAP1 PUSH2 0x1789 JUMP JUMPDEST PUSH2 0xC74 JUMP JUMPDEST STOP JUMPDEST PUSH2 0x309 PUSH1 0x4 DUP1 CALLDATASIZE SUB DUP2 ADD SWAP1 PUSH2 0x304 SWAP2 SWAP1 PUSH2 0x17B4 JUMP JUMPDEST PUSH2 0xCAE JUMP JUMPDEST STOP JUMPDEST PUSH2 0x325 PUSH1 0x4 DUP1 CALLDATASIZE SUB DUP2 ADD SWAP1 PUSH2 0x320 SWAP2 SWAP1 PUSH2 0x1617 JUMP JUMPDEST PUSH2 0xD5D JUMP JUMPDEST STOP JUMPDEST PUSH2 0x32F PUSH2 0xD7E JUMP JUMPDEST PUSH1 0x40 MLOAD PUSH2 0x33C SWAP2 SWAP1 PUSH2 0x1812 JUMP JUMPDEST PUSH1 0x40 MLOAD DUP1 SWAP2 SUB SWAP1 RETURN JUMPDEST PUSH0 PUSH32 0x7965DB0B00000000000000000000000000000000000000000000000000000000 PUSH28 0xFFFFFFFFFFFFFFFFFFFFFFFFFFFFFFFFFFFFFFFFFFFFFFFFFFFFFFFF NOT AND DUP3 PUSH28 0xFFFFFFFFFFFFFFFFFFFFFFFFFFFFFFFFFFFFFFFFFFFFFFFFFFFFFFFF NOT AND EQ DUP1 PUSH2 0x3B7 JUMPI POP PUSH2 0x3B6 DUP3 PUSH2 0xDA3 JUMP JUMPDEST JUMPDEST SWAP1 POP SWAP2 SWAP1 POP JUMP JUMPDEST PUSH1 0x2 PUSH0 SWAP1 SLOAD SWAP1 PUSH2 0x100 EXP SWAP1 DIV PUSH20 0xFFFFFFFFFFFFFFFFFFFFFFFFFFFFFFFFFFFFFFFF AND DUP2 JUMP JUMPDEST PUSH1 0x3 PUSH0 DUP6 DUP2 MSTORE PUSH1 0x20 ADD SWAP1 DUP2 MSTORE PUSH1 0x20 ADD PUSH0 KECCAK256 PUSH0 DUP5 DUP2 MSTORE PUSH1 0x20 ADD SWAP1 DUP2 MSTORE PUSH1 0x20 ADD PUSH0 KECCAK256 PUSH0 DUP4 DUP2 MSTORE PUSH1 0x20 ADD SWAP1 DUP2 MSTORE PUSH1 0x20 ADD PUSH0 KECCAK256 PUSH1 0x4 ADD PUSH0 SWAP1 SLOAD SWAP1 PUSH2 0x100 EXP SWAP1 DIV PUSH1 0xFF AND ISZERO PUSH2 0x462 JUMPI PUSH1 0x40 MLOAD PUSH32 0x8C379A000000000000000000000000000000000000000000000000000000000 DUP2 MSTORE PUSH1 0x4 ADD PUSH2 0x459 SWAP1 PUSH2 0x18AB JUMP JUMPDEST PUSH1 0x40 MLOAD DUP1 SWAP2 SUB SWAP1 REVERT JUMPDEST PUSH0 PUSH1 0x1 PUSH0 SWAP1 SLOAD SWAP1 PUSH2 0x100 EXP SWAP1 DIV PUSH20 0xFFFFFFFFFFFFFFFFFFFFFFFFFFFFFFFFFFFFFFFF AND PUSH20 0xFFFFFFFFFFFFFFFFFFFFFFFFFFFFFFFFFFFFFFFF AND PUSH4 0xDD62ED3E CALLER ADDRESS PUSH1 0x40 MLOAD DUP4 PUSH4 0xFFFFFFFF AND PUSH1 0xE0 SHL DUP2 MSTORE PUSH1 0x4 ADD PUSH2 0x4BF SWAP3 SWAP2 SWAP1 PUSH2 0x18D8 JUMP JUMPDEST PUSH1 0x20 PUSH1 0x40 MLOAD DUP1 DUP4 SUB DUP2 DUP7 GAS STATICCALL ISZERO DUP1 ISZERO PUSH2 0x4DA JUMPI RETURNDATASIZE PUSH0 DUP1 RETURNDATACOPY RETURNDATASIZE PUSH0 REVERT JUMPDEST POP POP POP POP PUSH1 0x40 MLOAD RETURNDATASIZE PUSH1 0x1F NOT PUSH1 0x1F DUP3 ADD AND DUP3 ADD DUP1 PUSH1 0x40 MSTORE POP DUP2 ADD SWAP1 PUSH2 0x4FE SWAP2 SWAP1 PUSH2 0x1913 JUMP JUMPDEST SWAP1 POP DUP2 DUP2 LT ISZERO PUSH2 0x543 JUMPI PUSH1 0x40 MLOAD PUSH32 0x8C379A000000000000000000000000000000000000000000000000000000000 DUP2 MSTORE PUSH1 0x4 ADD PUSH2 0x53A SWAP1 PUSH2 0x1988 JUMP JUMPDEST PUSH1 0x40 MLOAD DUP1 SWAP2 SUB SWAP1 REVERT JUMPDEST PUSH0 PUSH1 0x1 PUSH0 SWAP1 SLOAD SWAP1 PUSH2 0x100 EXP SWAP1 DIV PUSH20 0xFFFFFFFFFFFFFFFFFFFFFFFFFFFFFFFFFFFFFFFF AND PUSH20 0xFFFFFFFFFFFFFFFFFFFFFFFFFFFFFFFFFFFFFFFF AND PUSH4 0x70A08231 CALLER PUSH1 0x40 MLOAD DUP3 PUSH4 0xFFFFFFFF AND PUSH1 0xE0 SHL DUP2 MSTORE PUSH1 0x4 ADD PUSH2 0x59E SWAP2 SWAP1 PUSH2 0x19A6 JUMP JUMPDEST PUSH1 0x20 PUSH1 0x40 MLOAD DUP1 DUP4 SUB DUP2 DUP7 GAS STATICCALL ISZERO DUP1 ISZERO PUSH2 0x5B9 JUMPI RETURNDATASIZE PUSH0 DUP1 RETURNDATACOPY RETURNDATASIZE PUSH0 REVERT JUMPDEST POP POP POP POP PUSH1 0x40 MLOAD RETURNDATASIZE PUSH1 0x1F NOT PUSH1 0x1F DUP3 ADD AND DUP3 ADD DUP1 PUSH1 0x40 MSTORE POP DUP2 ADD SWAP1 PUSH2 0x5DD SWAP2 SWAP1 PUSH2 0x1913 JUMP JUMPDEST SWAP1 POP DUP3 DUP2 LT ISZERO PUSH2 0x622 JUMPI PUSH1 0x40 MLOAD PUSH32 0x8C379A000000000000000000000000000000000000000000000000000000000 DUP2 MSTORE PUSH1 0x4 ADD PUSH2 0x619 SWAP1 PUSH2 0x1A09 JUMP JUMPDEST PUSH1 0x40 MLOAD DUP1 SWAP2 SUB SWAP1 REVERT JUMPDEST PUSH1 0x1 PUSH0 SWAP1 SLOAD SWAP1 PUSH2 0x100 EXP SWAP1 DIV PUSH20 0xFFFFFFFFFFFFFFFFFFFFFFFFFFFFFFFFFFFFFFFF AND PUSH20 0xFFFFFFFFFFFFFFFFFFFFFFFFFFFFFFFFFFFFFFFF AND PUSH4 0x23B872DD CALLER ADDRESS DUP7 PUSH1 0x40 MLOAD DUP5 PUSH4 0xFFFFFFFF AND PUSH1 0xE0 SHL DUP2 MSTORE PUSH1 0x4 ADD PUSH2 0x680 SWAP4 SWAP3 SWAP2 SWAP1 PUSH2 0x1A27 JUMP JUMPDEST PUSH1 0x20 PUSH1 0x40 MLOAD DUP1 DUP4 SUB DUP2 PUSH0 DUP8 GAS CALL ISZERO DUP1 ISZERO PUSH2 0x69C JUMPI RETURNDATASIZE PUSH0 DUP1 RETURNDATACOPY RETURNDATASIZE PUSH0 REVERT JUMPDEST POP POP POP POP PUSH1 0x40 MLOAD RETURNDATASIZE PUSH1 0x1F NOT PUSH1 0x1F DUP3 ADD AND DUP3 ADD DUP1 PUSH1 0x40 MSTORE POP DUP2 ADD SWAP1 PUSH2 0x6C0 SWAP2 SWAP1 PUSH2 0x1A86 JUMP JUMPDEST PUSH2 0x6FF JUMPI PUSH1 0x40 MLOAD PUSH32 0x8C379A000000000000000000000000000000000000000000000000000000000 DUP2 MSTORE PUSH1 0x4 ADD PUSH2 0x6F6 SWAP1 PUSH2 0x1AFB JUMP JUMPDEST PUSH1 0x40 MLOAD DUP1 SWAP2 SUB SWAP1 REVERT JUMPDEST PUSH1 0x40 MLOAD DUP1 PUSH1 0xA0 ADD PUSH1 0x40 MSTORE DUP1 DUP7 DUP2 MSTORE PUSH1 0x20 ADD DUP6 DUP2 MSTORE PUSH1 0x20 ADD DUP5 DUP2 MSTORE PUSH1 0x20 ADD PUSH0 DUP2 MSTORE PUSH1 0x20 ADD PUSH1 0x1 ISZERO ISZERO DUP2 MSTORE POP PUSH1 0x3 PUSH0 DUP9 DUP2 MSTORE PUSH1 0x20 ADD SWAP1 DUP2 MSTORE PUSH1 0x20 ADD PUSH0 KECCAK256 PUSH0 DUP8 DUP2 MSTORE PUSH1 0x20 ADD SWAP1 DUP2 MSTORE PUSH1 0x20 ADD PUSH0 KECCAK256 PUSH0 DUP7 DUP2 MSTORE PUSH1 0x20 ADD SWAP1 DUP2 MSTORE PUSH1 0x20 ADD PUSH0 KECCAK256 PUSH0 DUP3 ADD MLOAD DUP2 PUSH0 ADD SSTORE PUSH1 0x20 DUP3 ADD MLOAD DUP2 PUSH1 0x1 ADD SSTORE PUSH1 0x40 DUP3 ADD MLOAD DUP2 PUSH1 0x2 ADD SSTORE PUSH1 0x60 DUP3 ADD MLOAD DUP2 PUSH1 0x3 ADD SSTORE PUSH1 0x80 DUP3 ADD MLOAD DUP2 PUSH1 0x4 ADD PUSH0 PUSH2 0x100 EXP DUP2 SLOAD DUP2 PUSH1 0xFF MUL NOT AND SWAP1 DUP4 ISZERO ISZERO MUL OR SWAP1 SSTORE POP SWAP1 POP POP POP POP POP POP POP POP JUMP JUMPDEST PUSH0 DUP1 PUSH0 DUP4 DUP2 MSTORE PUSH1 0x20 ADD SWAP1 DUP2 MSTORE PUSH1 0x20 ADD PUSH0 KECCAK256 PUSH1 0x1 ADD SLOAD SWAP1 POP SWAP2 SWAP1 POP JUMP JUMPDEST PUSH1 0x3 PUSH1 0x20 MSTORE DUP3 PUSH0 MSTORE PUSH1 0x40 PUSH0 KECCAK256 PUSH1 0x20 MSTORE DUP2 PUSH0 MSTORE PUSH1 0x40 PUSH0 KECCAK256 PUSH1 0x20 MSTORE DUP1 PUSH0 MSTORE PUSH1 0x40 PUSH0 KECCAK256 PUSH0 SWAP3 POP SWAP3 POP POP POP DUP1 PUSH0 ADD SLOAD SWAP1 DUP1 PUSH1 0x1 ADD SLOAD SWAP1 DUP1 PUSH1 0x2 ADD SLOAD SWAP1 DUP1 PUSH1 0x3 ADD SLOAD SWAP1 DUP1 PUSH1 0x4 ADD PUSH0 SWAP1 SLOAD SWAP1 PUSH2 0x100 EXP SWAP1 DIV PUSH1 0xFF AND SWAP1 POP DUP6 JUMP JUMPDEST PUSH32 0xA49807205CE4D355092EF5A8A18F56E8913CF4A201FBE287825B095693C21775 PUSH2 0x842 DUP2 PUSH2 0xE0C JUMP JUMPDEST PUSH1 0x3 PUSH0 DUP7 DUP2 MSTORE PUSH1 0x20 ADD SWAP1 DUP2 MSTORE PUSH1 0x20 ADD PUSH0 KECCAK256 PUSH0 DUP6 DUP2 MSTORE PUSH1 0x20 ADD SWAP1 DUP2 MSTORE PUSH1 0x20 ADD PUSH0 KECCAK256 PUSH0 DUP5 DUP2 MSTORE PUSH1 0x20 ADD SWAP1 DUP2 MSTORE PUSH1 0x20 ADD PUSH0 KECCAK256 PUSH1 0x4 ADD PUSH0 SWAP1 SLOAD SWAP1 PUSH2 0x100 EXP SWAP1 DIV PUSH1 0xFF AND PUSH2 0x8C0 JUMPI PUSH1 0x40 MLOAD PUSH32 0x8C379A000000000000000000000000000000000000000000000000000000000 DUP2 MSTORE PUSH1 0x4 ADD PUSH2 0x8B7 SWAP1 PUSH2 0x1B63 JUMP JUMPDEST PUSH1 0x40 MLOAD DUP1 SWAP2 SUB SWAP1 REVERT JUMPDEST DUP4 PUSH1 0x3 PUSH0 DUP8 DUP2 MSTORE PUSH1 0x20 ADD SWAP1 DUP2 MSTORE PUSH1 0x20 ADD PUSH0 KECCAK256 PUSH0 DUP7 DUP2 MSTORE PUSH1 0x20 ADD SWAP1 DUP2 MSTORE PUSH1 0x20 ADD PUSH0 KECCAK256 PUSH0 DUP6 DUP2 MSTORE PUSH1 0x20 ADD SWAP1 DUP2 MSTORE PUSH1 0x20 ADD PUSH0 KECCAK256 PUSH0 ADD SLOAD EQ PUSH2 0x933 JUMPI PUSH1 0x40 MLOAD PUSH32 0x8C379A000000000000000000000000000000000000000000000000000000000 DUP2 MSTORE PUSH1 0x4 ADD PUSH2 0x92A SWAP1 PUSH2 0x1BCB JUMP JUMPDEST PUSH1 0x40 MLOAD DUP1 SWAP2 SUB SWAP1 REVERT JUMPDEST PUSH1 0x3 PUSH0 DUP7 DUP2 MSTORE PUSH1 0x20 ADD SWAP1 DUP2 MSTORE PUSH1 0x20 ADD PUSH0 KECCAK256 PUSH0 DUP6 DUP2 MSTORE PUSH1 0x20 ADD SWAP1 DUP2 MSTORE PUSH1 0x20 ADD PUSH0 KECCAK256 PUSH0 DUP5 DUP2 MSTORE PUSH1 0x20 ADD SWAP1 DUP2 MSTORE PUSH1 0x20 ADD PUSH0 KECCAK256 PUSH1 0x3 ADD SLOAD DUP3 GT ISZERO PUSH2 0x9A5 JUMPI DUP2 PUSH1 0x3 PUSH0 DUP8 DUP2 MSTORE PUSH1 0x20 ADD SWAP1 DUP2 MSTORE PUSH1 0x20 ADD PUSH0 KECCAK256 PUSH0 DUP7 DUP2 MSTORE PUSH1 0x20 ADD SWAP1 DUP2 MSTORE PUSH1 0x20 ADD PUSH0 KECCAK256 PUSH0 DUP6 DUP2 MSTORE PUSH1 0x20 ADD SWAP1 DUP2 MSTORE PUSH1 0x20 ADD PUSH0 KECCAK256 PUSH1 0x3 ADD DUP2 SWAP1 SSTORE POP JUMPDEST POP POP POP POP POP JUMP JUMPDEST PUSH2 0x9B5 DUP3 PUSH2 0x7A8 JUMP JUMPDEST PUSH2 0x9BE DUP2 PUSH2 0xE0C JUMP JUMPDEST PUSH2 0x9C8 DUP4 DUP4 PUSH2 0xE20 JUMP JUMPDEST POP POP POP JUMP JUMPDEST PUSH2 0x9D5 PUSH2 0xEFA JUMP JUMPDEST PUSH20 0xFFFFFFFFFFFFFFFFFFFFFFFFFFFFFFFFFFFFFFFF AND DUP2 PUSH20 0xFFFFFFFFFFFFFFFFFFFFFFFFFFFFFFFFFFFFFFFF AND EQ PUSH2 0xA42 JUMPI PUSH1 0x40 MLOAD PUSH32 0x8C379A000000000000000000000000000000000000000000000000000000000 DUP2 MSTORE PUSH1 0x4 ADD PUSH2 0xA39 SWAP1 PUSH2 0x1C59 JUMP JUMPDEST PUSH1 0x40 MLOAD DUP1 SWAP2 SUB SWAP1 REVERT JUMPDEST PUSH2 0xA4C DUP3 DUP3 PUSH2 0xF01 JUMP JUMPDEST POP POP JUMP JUMPDEST PUSH32 0xA49807205CE4D355092EF5A8A18F56E8913CF4A201FBE287825B095693C21775 PUSH2 0xA7A DUP2 PUSH2 0xE0C JUMP JUMPDEST DUP3 DUP3 SWAP1 POP DUP6 DUP6 SWAP1 POP EQ PUSH2 0xAC2 JUMPI PUSH1 0x40 MLOAD PUSH32 0x8C379A000000000000000000000000000000000000000000000000000000000 DUP2 MSTORE PUSH1 0x4 ADD PUSH2 0xAB9 SWAP1 PUSH2 0x1CE7 JUMP JUMPDEST PUSH1 0x40 MLOAD DUP1 SWAP2 SUB SWAP1 REVERT JUMPDEST PUSH0 JUMPDEST DUP6 DUP6 SWAP1 POP DUP2 LT ISZERO PUSH2 0xBA5 JUMPI PUSH1 0x2 PUSH0 SWAP1 SLOAD SWAP1 PUSH2 0x100 EXP SWAP1 DIV PUSH20 0xFFFFFFFFFFFFFFFFFFFFFFFFFFFFFFFFFFFFFFFF AND PUSH20 0xFFFFFFFFFFFFFFFFFFFFFFFFFFFFFFFFFFFFFFFF AND PUSH4 0x40C10F19 DUP8 DUP8 DUP5 DUP2 DUP2 LT PUSH2 0xB1F JUMPI PUSH2 0xB1E PUSH2 0x1D05 JUMP JUMPDEST JUMPDEST SWAP1 POP PUSH1 0x20 MUL ADD PUSH1 0x20 DUP2 ADD SWAP1 PUSH2 0xB34 SWAP2 SWAP1 PUSH2 0x1789 JUMP JUMPDEST DUP7 DUP7 DUP6 DUP2 DUP2 LT PUSH2 0xB47 JUMPI PUSH2 0xB46 PUSH2 0x1D05 JUMP JUMPDEST JUMPDEST SWAP1 POP PUSH1 0x20 MUL ADD CALLDATALOAD PUSH1 0x40 MLOAD DUP4 PUSH4 0xFFFFFFFF AND PUSH1 0xE0 SHL DUP2 MSTORE PUSH1 0x4 ADD PUSH2 0xB6B SWAP3 SWAP2 SWAP1 PUSH2 0x1D32 JUMP JUMPDEST PUSH0 PUSH1 0x40 MLOAD DUP1 DUP4 SUB DUP2 PUSH0 DUP8 DUP1 EXTCODESIZE ISZERO DUP1 ISZERO PUSH2 0xB82 JUMPI PUSH0 DUP1 REVERT JUMPDEST POP GAS CALL ISZERO DUP1 ISZERO PUSH2 0xB94 JUMPI RETURNDATASIZE PUSH0 DUP1 RETURNDATACOPY RETURNDATASIZE PUSH0 REVERT JUMPDEST POP POP POP POP DUP1 DUP1 PUSH1 0x1 ADD SWAP2 POP POP PUSH2 0xAC4 JUMP JUMPDEST POP POP POP POP POP POP JUMP JUMPDEST PUSH32 0xA49807205CE4D355092EF5A8A18F56E8913CF4A201FBE287825B095693C21775 DUP2 JUMP JUMPDEST PUSH0 DUP1 PUSH0 DUP5 DUP2 MSTORE PUSH1 0x20 ADD SWAP1 DUP2 MSTORE PUSH1 0x20 ADD PUSH0 KECCAK256 PUSH0 ADD PUSH0 DUP4 PUSH20 0xFFFFFFFFFFFFFFFFFFFFFFFFFFFFFFFFFFFFFFFF AND PUSH20 0xFFFFFFFFFFFFFFFFFFFFFFFFFFFFFFFFFFFFFFFF AND DUP2 MSTORE PUSH1 0x20 ADD SWAP1 DUP2 MSTORE PUSH1 0x20 ADD PUSH0 KECCAK256 PUSH0 SWAP1 SLOAD SWAP1 PUSH2 0x100 EXP SWAP1 DIV PUSH1 0xFF AND SWAP1 POP SWAP3 SWAP2 POP POP JUMP JUMPDEST PUSH0 DUP1 SHL PUSH2 0xC40 DUP2 PUSH2 0xE0C JUMP JUMPDEST PUSH2 0xC6A PUSH32 0xA49807205CE4D355092EF5A8A18F56E8913CF4A201FBE287825B095693C21775 DUP4 PUSH2 0xD5D JUMP JUMPDEST POP POP JUMP JUMPDEST PUSH0 DUP1 SHL DUP2 JUMP JUMPDEST PUSH0 DUP1 SHL PUSH2 0xC80 DUP2 PUSH2 0xE0C JUMP JUMPDEST PUSH2 0xCAA PUSH32 0xA49807205CE4D355092EF5A8A18F56E8913CF4A201FBE287825B095693C21775 DUP4 PUSH2 0x9AC JUMP JUMPDEST POP POP JUMP JUMPDEST PUSH32 0xA49807205CE4D355092EF5A8A18F56E8913CF4A201FBE287825B095693C21775 PUSH2 0xCD8 DUP2 PUSH2 0xE0C JUMP JUMPDEST DUP3 PUSH1 0x1 PUSH0 PUSH2 0x100 EXP DUP2 SLOAD DUP2 PUSH20 0xFFFFFFFFFFFFFFFFFFFFFFFFFFFFFFFFFFFFFFFF MUL NOT AND SWAP1 DUP4 PUSH20 0xFFFFFFFFFFFFFFFFFFFFFFFFFFFFFFFFFFFFFFFF AND MUL OR SWAP1 SSTORE POP DUP2 PUSH1 0x2 PUSH0 PUSH2 0x100 EXP DUP2 SLOAD DUP2 PUSH20 0xFFFFFFFFFFFFFFFFFFFFFFFFFFFFFFFFFFFFFFFF MUL NOT AND SWAP1 DUP4 PUSH20 0xFFFFFFFFFFFFFFFFFFFFFFFFFFFFFFFFFFFFFFFF AND MUL OR SWAP1 SSTORE POP POP POP POP JUMP JUMPDEST PUSH2 0xD66 DUP3 PUSH2 0x7A8 JUMP JUMPDEST PUSH2 0xD6F DUP2 PUSH2 0xE0C JUMP JUMPDEST PUSH2 0xD79 DUP4 DUP4 PUSH2 0xF01 JUMP JUMPDEST POP POP POP JUMP JUMPDEST PUSH1 0x1 PUSH0 SWAP1 SLOAD SWAP1 PUSH2 0x100 EXP SWAP1 DIV PUSH20 0xFFFFFFFFFFFFFFFFFFFFFFFFFFFFFFFFFFFFFFFF AND DUP2 JUMP JUMPDEST PUSH0 PUSH32 0x1FFC9A700000000000000000000000000000000000000000000000000000000 PUSH28 0xFFFFFFFFFFFFFFFFFFFFFFFFFFFFFFFFFFFFFFFFFFFFFFFFFFFFFFFF NOT AND DUP3 PUSH28 0xFFFFFFFFFFFFFFFFFFFFFFFFFFFFFFFFFFFFFFFFFFFFFFFFFFFFFFFF NOT AND EQ SWAP1 POP SWAP2 SWAP1 POP JUMP JUMPDEST PUSH2 0xE1D DUP2 PUSH2 0xE18 PUSH2 0xEFA JUMP JUMPDEST PUSH2 0xFDB JUMP JUMPDEST POP JUMP JUMPDEST PUSH2 0xE2A DUP3 DUP3 PUSH2 0xBD1 JUMP JUMPDEST PUSH2 0xEF6 JUMPI PUSH1 0x1 PUSH0 DUP1 DUP5 DUP2 MSTORE PUSH1 0x20 ADD SWAP1 DUP2 MSTORE PUSH1 0x20 ADD PUSH0 KECCAK256 PUSH0 ADD PUSH0 DUP4 PUSH20 0xFFFFFFFFFFFFFFFFFFFFFFFFFFFFFFFFFFFFFFFF AND PUSH20 0xFFFFFFFFFFFFFFFFFFFFFFFFFFFFFFFFFFFFFFFF AND DUP2 MSTORE PUSH1 0x20 ADD SWAP1 DUP2 MSTORE PUSH1 0x20 ADD PUSH0 KECCAK256 PUSH0 PUSH2 0x100 EXP DUP2 SLOAD DUP2 PUSH1 0xFF MUL NOT AND SWAP1 DUP4 ISZERO ISZERO MUL OR SWAP1 SSTORE POP PUSH2 0xE9B PUSH2 0xEFA JUMP JUMPDEST PUSH20 0xFFFFFFFFFFFFFFFFFFFFFFFFFFFFFFFFFFFFFFFF AND DUP2 PUSH20 0xFFFFFFFFFFFFFFFFFFFFFFFFFFFFFFFFFFFFFFFF AND DUP4 PUSH32 0x2F8788117E7EFF1D82E926EC794901D17C78024A50270940304540A733656F0D PUSH1 0x40 MLOAD PUSH1 0x40 MLOAD DUP1 SWAP2 SUB SWAP1 LOG4 JUMPDEST POP POP JUMP JUMPDEST PUSH0 CALLER SWAP1 POP SWAP1 JUMP JUMPDEST PUSH2 0xF0B DUP3 DUP3 PUSH2 0xBD1 JUMP JUMPDEST ISZERO PUSH2 0xFD7 JUMPI PUSH0 DUP1 PUSH0 DUP5 DUP2 MSTORE PUSH1 0x20 ADD SWAP1 DUP2 MSTORE PUSH1 0x20 ADD PUSH0 KECCAK256 PUSH0 ADD PUSH0 DUP4 PUSH20 0xFFFFFFFFFFFFFFFFFFFFFFFFFFFFFFFFFFFFFFFF AND PUSH20 0xFFFFFFFFFFFFFFFFFFFFFFFFFFFFFFFFFFFFFFFF AND DUP2 MSTORE PUSH1 0x20 ADD SWAP1 DUP2 MSTORE PUSH1 0x20 ADD PUSH0 KECCAK256 PUSH0 PUSH2 0x100 EXP DUP2 SLOAD DUP2 PUSH1 0xFF MUL NOT AND SWAP1 DUP4 ISZERO ISZERO MUL OR SWAP1 SSTORE POP PUSH2 0xF7C PUSH2 0xEFA JUMP JUMPDEST PUSH20 0xFFFFFFFFFFFFFFFFFFFFFFFFFFFFFFFFFFFFFFFF AND DUP2 PUSH20 0xFFFFFFFFFFFFFFFFFFFFFFFFFFFFFFFFFFFFFFFF AND DUP4 PUSH32 0xF6391F5C32D9C69D2A47EA670B442974B53935D1EDC7FD64EB21E047A839171B PUSH1 0x40 MLOAD PUSH1 0x40 MLOAD DUP1 SWAP2 SUB SWAP1 LOG4 JUMPDEST POP POP JUMP JUMPDEST PUSH2 0xFE5 DUP3 DUP3 PUSH2 0xBD1 JUMP JUMPDEST PUSH2 0x105B JUMPI PUSH2 0xFF2 DUP2 PUSH2 0x105F JUMP JUMPDEST PUSH2 0xFFF DUP4 PUSH0 SHR PUSH1 0x20 PUSH2 0x108C JUMP JUMPDEST PUSH1 0x40 MLOAD PUSH1 0x20 ADD PUSH2 0x1010 SWAP3 SWAP2 SWAP1 PUSH2 0x1E3F JUMP JUMPDEST PUSH1 0x40 MLOAD PUSH1 0x20 DUP2 DUP4 SUB SUB DUP2 MSTORE SWAP1 PUSH1 0x40 MSTORE PUSH1 0x40 MLOAD PUSH32 0x8C379A000000000000000000000000000000000000000000000000000000000 DUP2 MSTORE PUSH1 0x4 ADD PUSH2 0x1052 SWAP2 SWAP1 PUSH2 0x1EC0 JUMP JUMPDEST PUSH1 0x40 MLOAD DUP1 SWAP2 SUB SWAP1 REVERT JUMPDEST POP POP JUMP JUMPDEST PUSH1 0x60 PUSH2 0x1085 DUP3 PUSH20 0xFFFFFFFFFFFFFFFFFFFFFFFFFFFFFFFFFFFFFFFF AND PUSH1 0x14 PUSH1 0xFF AND PUSH2 0x108C JUMP JUMPDEST SWAP1 POP SWAP2 SWAP1 POP JUMP JUMPDEST PUSH1 0x60 PUSH0 PUSH1 0x2 DUP4 PUSH1 0x2 PUSH2 0x109E SWAP2 SWAP1 PUSH2 0x1F0D JUMP JUMPDEST PUSH2 0x10A8 SWAP2 SWAP1 PUSH2 0x1F4E JUMP JUMPDEST PUSH8 0xFFFFFFFFFFFFFFFF DUP2 GT ISZERO PUSH2 0x10C1 JUMPI PUSH2 0x10C0 PUSH2 0x1F81 JUMP JUMPDEST JUMPDEST PUSH1 0x40 MLOAD SWAP1 DUP1 DUP3 MSTORE DUP1 PUSH1 0x1F ADD PUSH1 0x1F NOT AND PUSH1 0x20 ADD DUP3 ADD PUSH1 0x40 MSTORE DUP1 ISZERO PUSH2 0x10F3 JUMPI DUP2 PUSH1 0x20 ADD PUSH1 0x1 DUP3 MUL DUP1 CALLDATASIZE DUP4 CALLDATACOPY DUP1 DUP3 ADD SWAP2 POP POP SWAP1 POP JUMPDEST POP SWAP1 POP PUSH32 0x3000000000000000000000000000000000000000000000000000000000000000 DUP2 PUSH0 DUP2 MLOAD DUP2 LT PUSH2 0x112A JUMPI PUSH2 0x1129 PUSH2 0x1D05 JUMP JUMPDEST JUMPDEST PUSH1 0x20 ADD ADD SWAP1 PUSH31 0xFFFFFFFFFFFFFFFFFFFFFFFFFFFFFFFFFFFFFFFFFFFFFFFFFFFFFFFFFFFFFF NOT AND SWAP1 DUP2 PUSH0 BYTE SWAP1 MSTORE8 POP PUSH32 0x7800000000000000000000000000000000000000000000000000000000000000 DUP2 PUSH1 0x1 DUP2 MLOAD DUP2 LT PUSH2 0x118D JUMPI PUSH2 0x118C PUSH2 0x1D05 JUMP JUMPDEST JUMPDEST PUSH1 0x20 ADD ADD SWAP1 PUSH31 0xFFFFFFFFFFFFFFFFFFFFFFFFFFFFFFFFFFFFFFFFFFFFFFFFFFFFFFFFFFFFFF NOT AND SWAP1 DUP2 PUSH0 BYTE SWAP1 MSTORE8 POP PUSH0 PUSH1 0x1 DUP5 PUSH1 0x2 PUSH2 0x11CB SWAP2 SWAP1 PUSH2 0x1F0D JUMP JUMPDEST PUSH2 0x11D5 SWAP2 SWAP1 PUSH2 0x1F4E JUMP JUMPDEST SWAP1 POP JUMPDEST PUSH1 0x1 DUP2 GT ISZERO PUSH2 0x1274 JUMPI PUSH32 0x3031323334353637383961626364656600000000000000000000000000000000 PUSH1 0xF DUP7 AND PUSH1 0x10 DUP2 LT PUSH2 0x1217 JUMPI PUSH2 0x1216 PUSH2 0x1D05 JUMP JUMPDEST JUMPDEST BYTE PUSH1 0xF8 SHL DUP3 DUP3 DUP2 MLOAD DUP2 LT PUSH2 0x122E JUMPI PUSH2 0x122D PUSH2 0x1D05 JUMP JUMPDEST JUMPDEST PUSH1 0x20 ADD ADD SWAP1 PUSH31 0xFFFFFFFFFFFFFFFFFFFFFFFFFFFFFFFFFFFFFFFFFFFFFFFFFFFFFFFFFFFFFF NOT AND SWAP1 DUP2 PUSH0 BYTE SWAP1 MSTORE8 POP PUSH1 0x4 DUP6 SWAP1 SHR SWAP5 POP DUP1 PUSH2 0x126D SWAP1 PUSH2 0x1FAE JUMP JUMPDEST SWAP1 POP PUSH2 0x11D8 JUMP JUMPDEST POP PUSH0 DUP5 EQ PUSH2 0x12B7 JUMPI PUSH1 0x40 MLOAD PUSH32 0x8C379A000000000000000000000000000000000000000000000000000000000 DUP2 MSTORE PUSH1 0x4 ADD PUSH2 0x12AE SWAP1 PUSH2 0x201F JUMP JUMPDEST PUSH1 0x40 MLOAD DUP1 SWAP2 SUB SWAP1 REVERT JUMPDEST DUP1 SWAP2 POP POP SWAP3 SWAP2 POP POP JUMP JUMPDEST PUSH0 DUP1 REVERT JUMPDEST PUSH0 DUP1 REVERT JUMPDEST PUSH0 PUSH32 0xFFFFFFFF00000000000000000000000000000000000000000000000000000000 DUP3 AND SWAP1 POP SWAP2 SWAP1 POP JUMP JUMPDEST PUSH2 0x12FD DUP2 PUSH2 0x12C9 JUMP JUMPDEST DUP2 EQ PUSH2 0x1307 JUMPI PUSH0 DUP1 REVERT JUMPDEST POP JUMP JUMPDEST PUSH0 DUP2 CALLDATALOAD SWAP1 POP PUSH2 0x1318 DUP2 PUSH2 0x12F4 JUMP JUMPDEST SWAP3 SWAP2 POP POP JUMP JUMPDEST PUSH0 PUSH1 0x20 DUP3 DUP5 SUB SLT ISZERO PUSH2 0x1333 JUMPI PUSH2 0x1332 PUSH2 0x12C1 JUMP JUMPDEST JUMPDEST PUSH0 PUSH2 0x1340 DUP5 DUP3 DUP6 ADD PUSH2 0x130A JUMP JUMPDEST SWAP2 POP POP SWAP3 SWAP2 POP POP JUMP JUMPDEST PUSH0 DUP2 ISZERO ISZERO SWAP1 POP SWAP2 SWAP1 POP JUMP JUMPDEST PUSH2 0x135D DUP2 PUSH2 0x1349 JUMP JUMPDEST DUP3 MSTORE POP POP JUMP JUMPDEST PUSH0 PUSH1 0x20 DUP3 ADD SWAP1 POP PUSH2 0x1376 PUSH0 DUP4 ADD DUP5 PUSH2 0x1354 JUMP JUMPDEST SWAP3 SWAP2 POP POP JUMP JUMPDEST PUSH0 PUSH20 0xFFFFFFFFFFFFFFFFFFFFFFFFFFFFFFFFFFFFFFFF DUP3 AND SWAP1 POP SWAP2 SWAP1 POP JUMP JUMPDEST PUSH0 DUP2 SWAP1 POP SWAP2 SWAP1 POP JUMP JUMPDEST PUSH0 PUSH2 0x13BE PUSH2 0x13B9 PUSH2 0x13B4 DUP5 PUSH2 0x137C JUMP JUMPDEST PUSH2 0x139B JUMP JUMPDEST PUSH2 0x137C JUMP JUMPDEST SWAP1 POP SWAP2 SWAP1 POP JUMP JUMPDEST PUSH0 PUSH2 0x13CF DUP3 PUSH2 0x13A4 JUMP JUMPDEST SWAP1 POP SWAP2 SWAP1 POP JUMP JUMPDEST PUSH0 PUSH2 0x13E0 DUP3 PUSH2 0x13C5 JUMP JUMPDEST SWAP1 POP SWAP2 SWAP1 POP JUMP JUMPDEST PUSH2 0x13F0 DUP2 PUSH2 0x13D6 JUMP JUMPDEST DUP3 MSTORE POP POP JUMP JUMPDEST PUSH0 PUSH1 0x20 DUP3 ADD SWAP1 POP PUSH2 0x1409 PUSH0 DUP4 ADD DUP5 PUSH2 0x13E7 JUMP JUMPDEST SWAP3 SWAP2 POP POP JUMP JUMPDEST PUSH0 DUP2 SWAP1 POP SWAP2 SWAP1 POP JUMP JUMPDEST PUSH2 0x1421 DUP2 PUSH2 0x140F JUMP JUMPDEST DUP2 EQ PUSH2 0x142B JUMPI PUSH0 DUP1 REVERT JUMPDEST POP JUMP JUMPDEST PUSH0 DUP2 CALLDATALOAD SWAP1 POP PUSH2 0x143C DUP2 PUSH2 0x1418 JUMP JUMPDEST SWAP3 SWAP2 POP POP JUMP JUMPDEST PUSH0 DUP1 PUSH0 DUP1 PUSH1 0x80 DUP6 DUP8 SUB SLT ISZERO PUSH2 0x145A JUMPI PUSH2 0x1459 PUSH2 0x12C1 JUMP JUMPDEST JUMPDEST PUSH0 PUSH2 0x1467 DUP8 DUP3 DUP9 ADD PUSH2 0x142E JUMP JUMPDEST SWAP5 POP POP PUSH1 0x20 PUSH2 0x1478 DUP8 DUP3 DUP9 ADD PUSH2 0x142E JUMP JUMPDEST SWAP4 POP POP PUSH1 0x40 PUSH2 0x1489 DUP8 DUP3 DUP9 ADD PUSH2 0x142E JUMP JUMPDEST SWAP3 POP POP PUSH1 0x60 PUSH2 0x149A DUP8 DUP3 DUP9 ADD PUSH2 0x142E JUMP JUMPDEST SWAP2 POP POP SWAP3 SWAP6 SWAP2 SWAP5 POP SWAP3 POP JUMP JUMPDEST PUSH0 DUP2 SWAP1 POP SWAP2 SWAP1 POP JUMP JUMPDEST PUSH2 0x14B8 DUP2 PUSH2 0x14A6 JUMP JUMPDEST DUP2 EQ PUSH2 0x14C2 JUMPI PUSH0 DUP1 REVERT JUMPDEST POP JUMP JUMPDEST PUSH0 DUP2 CALLDATALOAD SWAP1 POP PUSH2 0x14D3 DUP2 PUSH2 0x14AF JUMP JUMPDEST SWAP3 SWAP2 POP POP JUMP JUMPDEST PUSH0 PUSH1 0x20 DUP3 DUP5 SUB SLT ISZERO PUSH2 0x14EE JUMPI PUSH2 0x14ED PUSH2 0x12C1 JUMP JUMPDEST JUMPDEST PUSH0 PUSH2 0x14FB DUP5 DUP3 DUP6 ADD PUSH2 0x14C5 JUMP JUMPDEST SWAP2 POP POP SWAP3 SWAP2 POP POP JUMP JUMPDEST PUSH2 0x150D DUP2 PUSH2 0x14A6 JUMP JUMPDEST DUP3 MSTORE POP POP JUMP JUMPDEST PUSH0 PUSH1 0x20 DUP3 ADD SWAP1 POP PUSH2 0x1526 PUSH0 DUP4 ADD DUP5 PUSH2 0x1504 JUMP JUMPDEST SWAP3 SWAP2 POP POP JUMP JUMPDEST PUSH0 DUP1 PUSH0 PUSH1 0x60 DUP5 DUP7 SUB SLT ISZERO PUSH2 0x1543 JUMPI PUSH2 0x1542 PUSH2 0x12C1 JUMP JUMPDEST JUMPDEST PUSH0 PUSH2 0x1550 DUP7 DUP3 DUP8 ADD PUSH2 0x142E JUMP JUMPDEST SWAP4 POP POP PUSH1 0x20 PUSH2 0x1561 DUP7 DUP3 DUP8 ADD PUSH2 0x142E JUMP JUMPDEST SWAP3 POP POP PUSH1 0x40 PUSH2 0x1572 DUP7 DUP3 DUP8 ADD PUSH2 0x142E JUMP JUMPDEST SWAP2 POP POP SWAP3 POP SWAP3 POP SWAP3 JUMP JUMPDEST PUSH2 0x1585 DUP2 PUSH2 0x140F JUMP JUMPDEST DUP3 MSTORE POP POP JUMP JUMPDEST PUSH0 PUSH1 0xA0 DUP3 ADD SWAP1 POP PUSH2 0x159E PUSH0 DUP4 ADD DUP9 PUSH2 0x157C JUMP JUMPDEST PUSH2 0x15AB PUSH1 0x20 DUP4 ADD DUP8 PUSH2 0x157C JUMP JUMPDEST PUSH2 0x15B8 PUSH1 0x40 DUP4 ADD DUP7 PUSH2 0x157C JUMP JUMPDEST PUSH2 0x15C5 PUSH1 0x60 DUP4 ADD DUP6 PUSH2 0x157C JUMP JUMPDEST PUSH2 0x15D2 PUSH1 0x80 DUP4 ADD DUP5 PUSH2 0x1354 JUMP JUMPDEST SWAP7 SWAP6 POP POP POP POP POP POP JUMP JUMPDEST PUSH0 PUSH2 0x15E6 DUP3 PUSH2 0x137C JUMP JUMPDEST SWAP1 POP SWAP2 SWAP1 POP JUMP JUMPDEST PUSH2 0x15F6 DUP2 PUSH2 0x15DC JUMP JUMPDEST DUP2 EQ PUSH2 0x1600 JUMPI PUSH0 DUP1 REVERT JUMPDEST POP JUMP JUMPDEST PUSH0 DUP2 CALLDATALOAD SWAP1 POP PUSH2 0x1611 DUP2 PUSH2 0x15ED JUMP JUMPDEST SWAP3 SWAP2 POP POP JUMP JUMPDEST PUSH0 DUP1 PUSH1 0x40 DUP4 DUP6 SUB SLT ISZERO PUSH2 0x162D JUMPI PUSH2 0x162C PUSH2 0x12C1 JUMP JUMPDEST JUMPDEST PUSH0 PUSH2 0x163A DUP6 DUP3 DUP7 ADD PUSH2 0x14C5 JUMP JUMPDEST SWAP3 POP POP PUSH1 0x20 PUSH2 0x164B DUP6 DUP3 DUP7 ADD PUSH2 0x1603 JUMP JUMPDEST SWAP2 POP POP SWAP3 POP SWAP3 SWAP1 POP JUMP JUMPDEST PUSH0 DUP1 REVERT JUMPDEST PUSH0 DUP1 REVERT JUMPDEST PUSH0 DUP1 REVERT JUMPDEST PUSH0 DUP1 DUP4 PUSH1 0x1F DUP5 ADD SLT PUSH2 0x1676 JUMPI PUSH2 0x1675 PUSH2 0x1655 JUMP JUMPDEST JUMPDEST DUP3 CALLDATALOAD SWAP1 POP PUSH8 0xFFFFFFFFFFFFFFFF DUP2 GT ISZERO PUSH2 0x1693 JUMPI PUSH2 0x1692 PUSH2 0x1659 JUMP JUMPDEST JUMPDEST PUSH1 0x20 DUP4 ADD SWAP2 POP DUP4 PUSH1 0x20 DUP3 MUL DUP4 ADD GT ISZERO PUSH2 0x16AF JUMPI PUSH2 0x16AE PUSH2 0x165D JUMP JUMPDEST JUMPDEST SWAP3 POP SWAP3 SWAP1 POP JUMP JUMPDEST PUSH0 DUP1 DUP4 PUSH1 0x1F DUP5 ADD SLT PUSH2 0x16CB JUMPI PUSH2 0x16CA PUSH2 0x1655 JUMP JUMPDEST JUMPDEST DUP3 CALLDATALOAD SWAP1 POP PUSH8 0xFFFFFFFFFFFFFFFF DUP2 GT ISZERO PUSH2 0x16E8 JUMPI PUSH2 0x16E7 PUSH2 0x1659 JUMP JUMPDEST JUMPDEST PUSH1 0x20 DUP4 ADD SWAP2 POP DUP4 PUSH1 0x20 DUP3 MUL DUP4 ADD GT ISZERO PUSH2 0x1704 JUMPI PUSH2 0x1703 PUSH2 0x165D JUMP JUMPDEST JUMPDEST SWAP3 POP SWAP3 SWAP1 POP JUMP JUMPDEST PUSH0 DUP1 PUSH0 DUP1 PUSH1 0x40 DUP6 DUP8 SUB SLT ISZERO PUSH2 0x1723 JUMPI PUSH2 0x1722 PUSH2 0x12C1 JUMP JUMPDEST JUMPDEST PUSH0 DUP6 ADD CALLDATALOAD PUSH8 0xFFFFFFFFFFFFFFFF DUP2 GT ISZERO PUSH2 0x1740 JUMPI PUSH2 0x173F PUSH2 0x12C5 JUMP JUMPDEST JUMPDEST PUSH2 0x174C DUP8 DUP3 DUP9 ADD PUSH2 0x1661 JUMP JUMPDEST SWAP5 POP SWAP5 POP POP PUSH1 0x20 DUP6 ADD CALLDATALOAD PUSH8 0xFFFFFFFFFFFFFFFF DUP2 GT ISZERO PUSH2 0x176F JUMPI PUSH2 0x176E PUSH2 0x12C5 JUMP JUMPDEST JUMPDEST PUSH2 0x177B DUP8 DUP3 DUP9 ADD PUSH2 0x16B6 JUMP JUMPDEST SWAP3 POP SWAP3 POP POP SWAP3 SWAP6 SWAP2 SWAP5 POP SWAP3 POP JUMP JUMPDEST PUSH0 PUSH1 0x20 DUP3 DUP5 SUB SLT ISZERO PUSH2 0x179E JUMPI PUSH2 0x179D PUSH2 0x12C1 JUMP JUMPDEST JUMPDEST PUSH0 PUSH2 0x17AB DUP5 DUP3 DUP6 ADD PUSH2 0x1603 JUMP JUMPDEST SWAP2 POP POP SWAP3 SWAP2 POP POP JUMP JUMPDEST PUSH0 DUP1 PUSH1 0x40 DUP4 DUP6 SUB SLT ISZERO PUSH2 0x17CA JUMPI PUSH2 0x17C9 PUSH2 0x12C1 JUMP JUMPDEST JUMPDEST PUSH0 PUSH2 0x17D7 DUP6 DUP3 DUP7 ADD PUSH2 0x1603 JUMP JUMPDEST SWAP3 POP POP PUSH1 0x20 PUSH2 0x17E8 DUP6 DUP3 DUP7 ADD PUSH2 0x1603 JUMP JUMPDEST SWAP2 POP POP SWAP3 POP SWAP3 SWAP1 POP JUMP JUMPDEST PUSH0 PUSH2 0x17FC DUP3 PUSH2 0x13C5 JUMP JUMPDEST SWAP1 POP SWAP2 SWAP1 POP JUMP JUMPDEST PUSH2 0x180C DUP2 PUSH2 0x17F2 JUMP JUMPDEST DUP3 MSTORE POP POP JUMP JUMPDEST PUSH0 PUSH1 0x20 DUP3 ADD SWAP1 POP PUSH2 0x1825 PUSH0 DUP4 ADD DUP5 PUSH2 0x1803 JUMP JUMPDEST SWAP3 SWAP2 POP POP JUMP JUMPDEST PUSH0 DUP3 DUP3 MSTORE PUSH1 0x20 DUP3 ADD SWAP1 POP SWAP3 SWAP2 POP POP JUMP JUMPDEST PUSH32 0x4368616C6C656E676520616C72656164792065786973747320666F7220746869 PUSH0 DUP3 ADD MSTORE PUSH32 0x73206D656D6265722C20646174652C20616E642067616D650000000000000000 PUSH1 0x20 DUP3 ADD MSTORE POP JUMP JUMPDEST PUSH0 PUSH2 0x1895 PUSH1 0x38 DUP4 PUSH2 0x182B JUMP JUMPDEST SWAP2 POP PUSH2 0x18A0 DUP3 PUSH2 0x183B JUMP JUMPDEST PUSH1 0x40 DUP3 ADD SWAP1 POP SWAP2 SWAP1 POP JUMP JUMPDEST PUSH0 PUSH1 0x20 DUP3 ADD SWAP1 POP DUP2 DUP2 SUB PUSH0 DUP4 ADD MSTORE PUSH2 0x18C2 DUP2 PUSH2 0x1889 JUMP JUMPDEST SWAP1 POP SWAP2 SWAP1 POP JUMP JUMPDEST PUSH2 0x18D2 DUP2 PUSH2 0x15DC JUMP JUMPDEST DUP3 MSTORE POP POP JUMP JUMPDEST PUSH0 PUSH1 0x40 DUP3 ADD SWAP1 POP PUSH2 0x18EB PUSH0 DUP4 ADD DUP6 PUSH2 0x18C9 JUMP JUMPDEST PUSH2 0x18F8 PUSH1 0x20 DUP4 ADD DUP5 PUSH2 0x18C9 JUMP JUMPDEST SWAP4 SWAP3 POP POP POP JUMP JUMPDEST PUSH0 DUP2 MLOAD SWAP1 POP PUSH2 0x190D DUP2 PUSH2 0x1418 JUMP JUMPDEST SWAP3 SWAP2 POP POP JUMP JUMPDEST PUSH0 PUSH1 0x20 DUP3 DUP5 SUB SLT ISZERO PUSH2 0x1928 JUMPI PUSH2 0x1927 PUSH2 0x12C1 JUMP JUMPDEST JUMPDEST PUSH0 PUSH2 0x1935 DUP5 DUP3 DUP6 ADD PUSH2 0x18FF JUMP JUMPDEST SWAP2 POP POP SWAP3 SWAP2 POP POP JUMP JUMPDEST PUSH32 0x496E73756666696369656E7420746F6B656E20616C6C6F77616E636500000000 PUSH0 DUP3 ADD MSTORE POP JUMP JUMPDEST PUSH0 PUSH2 0x1972 PUSH1 0x1C DUP4 PUSH2 0x182B JUMP JUMPDEST SWAP2 POP PUSH2 0x197D DUP3 PUSH2 0x193E JUMP JUMPDEST PUSH1 0x20 DUP3 ADD SWAP1 POP SWAP2 SWAP1 POP JUMP JUMPDEST PUSH0 PUSH1 0x20 DUP3 ADD SWAP1 POP DUP2 DUP2 SUB PUSH0 DUP4 ADD MSTORE PUSH2 0x199F DUP2 PUSH2 0x1966 JUMP JUMPDEST SWAP1 POP SWAP2 SWAP1 POP JUMP JUMPDEST PUSH0 PUSH1 0x20 DUP3 ADD SWAP1 POP PUSH2 0x19B9 PUSH0 DUP4 ADD DUP5 PUSH2 0x18C9 JUMP JUMPDEST SWAP3 SWAP2 POP POP JUMP JUMPDEST PUSH32 0x496E73756666696369656E7420746F6B656E2062616C616E6365000000000000 PUSH0 DUP3 ADD MSTORE POP JUMP JUMPDEST PUSH0 PUSH2 0x19F3 PUSH1 0x1A DUP4 PUSH2 0x182B JUMP JUMPDEST SWAP2 POP PUSH2 0x19FE DUP3 PUSH2 0x19BF JUMP JUMPDEST PUSH1 0x20 DUP3 ADD SWAP1 POP SWAP2 SWAP1 POP JUMP JUMPDEST PUSH0 PUSH1 0x20 DUP3 ADD SWAP1 POP DUP2 DUP2 SUB PUSH0 DUP4 ADD MSTORE PUSH2 0x1A20 DUP2 PUSH2 0x19E7 JUMP JUMPDEST SWAP1 POP SWAP2 SWAP1 POP JUMP JUMPDEST PUSH0 PUSH1 0x60 DUP3 ADD SWAP1 POP PUSH2 0x1A3A PUSH0 DUP4 ADD DUP7 PUSH2 0x18C9 JUMP JUMPDEST PUSH2 0x1A47 PUSH1 0x20 DUP4 ADD DUP6 PUSH2 0x18C9 JUMP JUMPDEST PUSH2 0x1A54 PUSH1 0x40 DUP4 ADD DUP5 PUSH2 0x157C JUMP JUMPDEST SWAP5 SWAP4 POP POP POP POP JUMP JUMPDEST PUSH2 0x1A65 DUP2 PUSH2 0x1349 JUMP JUMPDEST DUP2 EQ PUSH2 0x1A6F JUMPI PUSH0 DUP1 REVERT JUMPDEST POP JUMP JUMPDEST PUSH0 DUP2 MLOAD SWAP1 POP PUSH2 0x1A80 DUP2 PUSH2 0x1A5C JUMP JUMPDEST SWAP3 SWAP2 POP POP JUMP JUMPDEST PUSH0 PUSH1 0x20 DUP3 DUP5 SUB SLT ISZERO PUSH2 0x1A9B JUMPI PUSH2 0x1A9A PUSH2 0x12C1 JUMP JUMPDEST JUMPDEST PUSH0 PUSH2 0x1AA8 DUP5 DUP3 DUP6 ADD PUSH2 0x1A72 JUMP JUMPDEST SWAP2 POP POP SWAP3 SWAP2 POP POP JUMP JUMPDEST PUSH32 0x546F6B656E207472616E73666572206661696C65640000000000000000000000 PUSH0 DUP3 ADD MSTORE POP JUMP JUMPDEST PUSH0 PUSH2 0x1AE5 PUSH1 0x15 DUP4 PUSH2 0x182B JUMP JUMPDEST SWAP2 POP PUSH2 0x1AF0 DUP3 PUSH2 0x1AB1 JUMP JUMPDEST PUSH1 0x20 DUP3 ADD SWAP1 POP SWAP2 SWAP1 POP JUMP JUMPDEST PUSH0 PUSH1 0x20 DUP3 ADD SWAP1 POP DUP2 DUP2 SUB PUSH0 DUP4 ADD MSTORE PUSH2 0x1B12 DUP2 PUSH2 0x1AD9 JUMP JUMPDEST SWAP1 POP SWAP2 SWAP1 POP JUMP JUMPDEST PUSH32 0x4368616C6C656E676520646F6573206E6F742065786973740000000000000000 PUSH0 DUP3 ADD MSTORE POP JUMP JUMPDEST PUSH0 PUSH2 0x1B4D PUSH1 0x18 DUP4 PUSH2 0x182B JUMP JUMPDEST SWAP2 POP PUSH2 0x1B58 DUP3 PUSH2 0x1B19 JUMP JUMPDEST PUSH1 0x20 DUP3 ADD SWAP1 POP SWAP2 SWAP1 POP JUMP JUMPDEST PUSH0 PUSH1 0x20 DUP3 ADD SWAP1 POP DUP2 DUP2 SUB PUSH0 DUP4 ADD MSTORE PUSH2 0x1B7A DUP2 PUSH2 0x1B41 JUMP JUMPDEST SWAP1 POP SWAP2 SWAP1 POP JUMP JUMPDEST PUSH32 0x47616D652073657175656E6365206D69736D6174636800000000000000000000 PUSH0 DUP3 ADD MSTORE POP JUMP JUMPDEST PUSH0 PUSH2 0x1BB5 PUSH1 0x16 DUP4 PUSH2 0x182B JUMP JUMPDEST SWAP2 POP PUSH2 0x1BC0 DUP3 PUSH2 0x1B81 JUMP JUMPDEST PUSH1 0x20 DUP3 ADD SWAP1 POP SWAP2 SWAP1 POP JUMP JUMPDEST PUSH0 PUSH1 0x20 DUP3 ADD SWAP1 POP DUP2 DUP2 SUB PUSH0 DUP4 ADD MSTORE PUSH2 0x1BE2 DUP2 PUSH2 0x1BA9 JUMP JUMPDEST SWAP1 POP SWAP2 SWAP1 POP JUMP JUMPDEST PUSH32 0x416363657373436F6E74726F6C3A2063616E206F6E6C792072656E6F756E6365 PUSH0 DUP3 ADD MSTORE PUSH32 0x20726F6C657320666F722073656C660000000000000000000000000000000000 PUSH1 0x20 DUP3 ADD MSTORE POP JUMP JUMPDEST PUSH0 PUSH2 0x1C43 PUSH1 0x2F DUP4 PUSH2 0x182B JUMP JUMPDEST SWAP2 POP PUSH2 0x1C4E DUP3 PUSH2 0x1BE9 JUMP JUMPDEST PUSH1 0x40 DUP3 ADD SWAP1 POP SWAP2 SWAP1 POP JUMP JUMPDEST PUSH0 PUSH1 0x20 DUP3 ADD SWAP1 POP DUP2 DUP2 SUB PUSH0 DUP4 ADD MSTORE PUSH2 0x1C70 DUP2 PUSH2 0x1C37 JUMP JUMPDEST SWAP1 POP SWAP2 SWAP1 POP JUMP JUMPDEST PUSH32 0x526563697069656E747320616E6420746F6B656E20616D6F756E7473206C656E PUSH0 DUP3 ADD MSTORE PUSH32 0x677468206D69736D617463680000000000000000000000000000000000000000 PUSH1 0x20 DUP3 ADD MSTORE POP JUMP JUMPDEST PUSH0 PUSH2 0x1CD1 PUSH1 0x2C DUP4 PUSH2 0x182B JUMP JUMPDEST SWAP2 POP PUSH2 0x1CDC DUP3 PUSH2 0x1C77 JUMP JUMPDEST PUSH1 0x40 DUP3 ADD SWAP1 POP SWAP2 SWAP1 POP JUMP JUMPDEST PUSH0 PUSH1 0x20 DUP3 ADD SWAP1 POP DUP2 DUP2 SUB PUSH0 DUP4 ADD MSTORE PUSH2 0x1CFE DUP2 PUSH2 0x1CC5 JUMP JUMPDEST SWAP1 POP SWAP2 SWAP1 POP JUMP JUMPDEST PUSH32 0x4E487B7100000000000000000000000000000000000000000000000000000000 PUSH0 MSTORE PUSH1 0x32 PUSH1 0x4 MSTORE PUSH1 0x24 PUSH0 REVERT JUMPDEST PUSH0 PUSH1 0x40 DUP3 ADD SWAP1 POP PUSH2 0x1D45 PUSH0 DUP4 ADD DUP6 PUSH2 0x18C9 JUMP JUMPDEST PUSH2 0x1D52 PUSH1 0x20 DUP4 ADD DUP5 PUSH2 0x157C JUMP JUMPDEST SWAP4 SWAP3 POP POP POP JUMP JUMPDEST PUSH0 DUP2 SWAP1 POP SWAP3 SWAP2 POP POP JUMP JUMPDEST PUSH32 0x416363657373436F6E74726F6C3A206163636F756E7420000000000000000000 PUSH0 DUP3 ADD MSTORE POP JUMP JUMPDEST PUSH0 PUSH2 0x1D97 PUSH1 0x17 DUP4 PUSH2 0x1D59 JUMP JUMPDEST SWAP2 POP PUSH2 0x1DA2 DUP3 PUSH2 0x1D63 JUMP JUMPDEST PUSH1 0x17 DUP3 ADD SWAP1 POP SWAP2 SWAP1 POP JUMP JUMPDEST PUSH0 DUP2 MLOAD SWAP1 POP SWAP2 SWAP1 POP JUMP JUMPDEST DUP3 DUP2 DUP4 MCOPY PUSH0 DUP4 DUP4 ADD MSTORE POP POP POP JUMP JUMPDEST PUSH0 PUSH2 0x1DCF DUP3 PUSH2 0x1DAD JUMP JUMPDEST PUSH2 0x1DD9 DUP2 DUP6 PUSH2 0x1D59 JUMP JUMPDEST SWAP4 POP PUSH2 0x1DE9 DUP2 DUP6 PUSH1 0x20 DUP7 ADD PUSH2 0x1DB7 JUMP JUMPDEST DUP1 DUP5 ADD SWAP2 POP POP SWAP3 SWAP2 POP POP JUMP JUMPDEST PUSH32 0x206973206D697373696E6720726F6C6520000000000000000000000000000000 PUSH0 DUP3 ADD MSTORE POP JUMP JUMPDEST PUSH0 PUSH2 0x1E29 PUSH1 0x11 DUP4 PUSH2 0x1D59 JUMP JUMPDEST SWAP2 POP PUSH2 0x1E34 DUP3 PUSH2 0x1DF5 JUMP JUMPDEST PUSH1 0x11 DUP3 ADD SWAP1 POP SWAP2 SWAP1 POP JUMP JUMPDEST PUSH0 PUSH2 0x1E49 DUP3 PUSH2 0x1D8B JUMP JUMPDEST SWAP2 POP PUSH2 0x1E55 DUP3 DUP6 PUSH2 0x1DC5 JUMP JUMPDEST SWAP2 POP PUSH2 0x1E60 DUP3 PUSH2 0x1E1D JUMP JUMPDEST SWAP2 POP PUSH2 0x1E6C DUP3 DUP5 PUSH2 0x1DC5 JUMP JUMPDEST SWAP2 POP DUP2 SWAP1 POP SWAP4 SWAP3 POP POP POP JUMP JUMPDEST PUSH0 PUSH1 0x1F NOT PUSH1 0x1F DUP4 ADD AND SWAP1 POP SWAP2 SWAP1 POP JUMP JUMPDEST PUSH0 PUSH2 0x1E92 DUP3 PUSH2 0x1DAD JUMP JUMPDEST PUSH2 0x1E9C DUP2 DUP6 PUSH2 0x182B JUMP JUMPDEST SWAP4 POP PUSH2 0x1EAC DUP2 DUP6 PUSH1 0x20 DUP7 ADD PUSH2 0x1DB7 JUMP JUMPDEST PUSH2 0x1EB5 DUP2 PUSH2 0x1E78 JUMP JUMPDEST DUP5 ADD SWAP2 POP POP SWAP3 SWAP2 POP POP JUMP JUMPDEST PUSH0 PUSH1 0x20 DUP3 ADD SWAP1 POP DUP2 DUP2 SUB PUSH0 DUP4 ADD MSTORE PUSH2 0x1ED8 DUP2 DUP5 PUSH2 0x1E88 JUMP JUMPDEST SWAP1 POP SWAP3 SWAP2 POP POP JUMP JUMPDEST PUSH32 0x4E487B7100000000000000000000000000000000000000000000000000000000 PUSH0 MSTORE PUSH1 0x11 PUSH1 0x4 MSTORE PUSH1 0x24 PUSH0 REVERT JUMPDEST PUSH0 PUSH2 0x1F17 DUP3 PUSH2 0x140F JUMP JUMPDEST SWAP2 POP PUSH2 0x1F22 DUP4 PUSH2 0x140F JUMP JUMPDEST SWAP3 POP DUP3 DUP3 MUL PUSH2 0x1F30 DUP2 PUSH2 0x140F JUMP JUMPDEST SWAP2 POP DUP3 DUP3 DIV DUP5 EQ DUP4 ISZERO OR PUSH2 0x1F47 JUMPI PUSH2 0x1F46 PUSH2 0x1EE0 JUMP JUMPDEST JUMPDEST POP SWAP3 SWAP2 POP POP JUMP JUMPDEST PUSH0 PUSH2 0x1F58 DUP3 PUSH2 0x140F JUMP JUMPDEST SWAP2 POP PUSH2 0x1F63 DUP4 PUSH2 0x140F JUMP JUMPDEST SWAP3 POP DUP3 DUP3 ADD SWAP1 POP DUP1 DUP3 GT ISZERO PUSH2 0x1F7B JUMPI PUSH2 0x1F7A PUSH2 0x1EE0 JUMP JUMPDEST JUMPDEST SWAP3 SWAP2 POP POP JUMP JUMPDEST PUSH32 0x4E487B7100000000000000000000000000000000000000000000000000000000 PUSH0 MSTORE PUSH1 0x41 PUSH1 0x4 MSTORE PUSH1 0x24 PUSH0 REVERT JUMPDEST PUSH0 PUSH2 0x1FB8 DUP3 PUSH2 0x140F JUMP JUMPDEST SWAP2 POP PUSH0 DUP3 SUB PUSH2 0x1FCA JUMPI PUSH2 0x1FC9 PUSH2 0x1EE0 JUMP JUMPDEST JUMPDEST PUSH1 0x1 DUP3 SUB SWAP1 POP SWAP2 SWAP1 POP JUMP JUMPDEST PUSH32 0x537472696E67733A20686578206C656E67746820696E73756666696369656E74 PUSH0 DUP3 ADD MSTORE POP JUMP JUMPDEST PUSH0 PUSH2 0x2009 PUSH1 0x20 DUP4 PUSH2 0x182B JUMP JUMPDEST SWAP2 POP PUSH2 0x2014 DUP3 PUSH2 0x1FD5 JUMP JUMPDEST PUSH1 0x20 DUP3 ADD SWAP1 POP SWAP2 SWAP1 POP JUMP JUMPDEST PUSH0 PUSH1 0x20 DUP3 ADD SWAP1 POP DUP2 DUP2 SUB PUSH0 DUP4 ADD MSTORE PUSH2 0x2036 DUP2 PUSH2 0x1FFD JUMP JUMPDEST SWAP1 POP SWAP2 SWAP1 POP JUMP INVALID LOG2 PUSH5 0x6970667358 0x22 SLT KECCAK256 PUSH6 0xA3F4DE6212B1 0xBB GASPRICE DELEGATECALL 0xDF ORIGIN 0xD0 0xAF SWAP13 CALLCODE 0xE3 0xC8 PUSH2 0x1303 JUMPDEST 0xE8 PUSH32 0xA712DD228C8EA7BA64736F6C634300081A003300000000000000000000000000 "
		},
		"gasEstimates": {
			"creation": {
				"codeDepositCost": "1661400",
				"executionCost": "infinite",
				"totalCost": "infinite"
			},
			"external": {
				"ADMIN_ROLE()": "370",
				"DEFAULT_ADMIN_ROLE()": "352",
				"challenge(uint256,uint256,uint256,uint256)": "infinite",
				"challenges(uint256,uint256,uint256)": "infinite",
				"distributePrizes(address[],uint256[])": "infinite",
				"entToken()": "infinite",
				"getRoleAdmin(bytes32)": "infinite",
				"grantAdminRole(address)": "infinite",
				"grantRole(bytes32,address)": "infinite",
				"hasRole(bytes32,address)": "3189",
				"registerScore(uint256,uint256,uint256,uint256)": "infinite",
				"renounceRole(bytes32,address)": "infinite",
				"revokeAdminRole(address)": "infinite",
				"revokeRole(bytes32,address)": "infinite",
				"rptToken()": "infinite",
				"setTokens(address,address)": "infinite",
				"supportsInterface(bytes4)": "741"
			}
		},
		"methodIdentifiers": {
			"ADMIN_ROLE()": "75b238fc",
			"DEFAULT_ADMIN_ROLE()": "a217fddf",
			"challenge(uint256,uint256,uint256,uint256)": "1bff90b7",
			"challenges(uint256,uint256,uint256)": "28b69262",
			"distributePrizes(address[],uint256[])": "406a378a",
			"entToken()": "dd0c8082",
			"getRoleAdmin(bytes32)": "248a9ca3",
			"grantAdminRole(address)": "c634b78e",
			"grantRole(bytes32,address)": "2f2ff15d",
			"hasRole(bytes32,address)": "91d14854",
			"registerScore(uint256,uint256,uint256,uint256)": "2ecf5ddc",
			"renounceRole(bytes32,address)": "36568abe",
			"revokeAdminRole(address)": "9a19c7b0",
			"revokeRole(bytes32,address)": "d547741f",
			"rptToken()": "1b72fa3a",
			"setTokens(address,address)": "cbc7854e",
			"supportsInterface(bytes4)": "01ffc9a7"
		}
	},
	"abi": [
		{
			"inputs": [
				{
					"internalType": "address",
					"name": "entTokenAddress",
					"type": "address"
				},
				{
					"internalType": "address",
					"name": "rptTokenAddress",
					"type": "address"
				}
			],
			"stateMutability": "nonpayable",
			"type": "constructor"
		},
		{
			"anonymous": false,
			"inputs": [
				{
					"indexed": true,
					"internalType": "bytes32",
					"name": "role",
					"type": "bytes32"
				},
				{
					"indexed": true,
					"internalType": "bytes32",
					"name": "previousAdminRole",
					"type": "bytes32"
				},
				{
					"indexed": true,
					"internalType": "bytes32",
					"name": "newAdminRole",
					"type": "bytes32"
				}
			],
			"name": "RoleAdminChanged",
			"type": "event"
		},
		{
			"anonymous": false,
			"inputs": [
				{
					"indexed": true,
					"internalType": "bytes32",
					"name": "role",
					"type": "bytes32"
				},
				{
					"indexed": true,
					"internalType": "address",
					"name": "account",
					"type": "address"
				},
				{
					"indexed": true,
					"internalType": "address",
					"name": "sender",
					"type": "address"
				}
			],
			"name": "RoleGranted",
			"type": "event"
		},
		{
			"anonymous": false,
			"inputs": [
				{
					"indexed": true,
					"internalType": "bytes32",
					"name": "role",
					"type": "bytes32"
				},
				{
					"indexed": true,
					"internalType": "address",
					"name": "account",
					"type": "address"
				},
				{
					"indexed": true,
					"internalType": "address",
					"name": "sender",
					"type": "address"
				}
			],
			"name": "RoleRevoked",
			"type": "event"
		},
		{
			"inputs": [],
			"name": "ADMIN_ROLE",
			"outputs": [
				{
					"internalType": "bytes32",
					"name": "",
					"type": "bytes32"
				}
			],
			"stateMutability": "view",
			"type": "function"
		},
		{
			"inputs": [],
			"name": "DEFAULT_ADMIN_ROLE",
			"outputs": [
				{
					"internalType": "bytes32",
					"name": "",
					"type": "bytes32"
				}
			],
			"stateMutability": "view",
			"type": "function"
		},
		{
			"inputs": [
				{
					"internalType": "uint256",
					"name": "yyyymmdd",
					"type": "uint256"
				},
				{
					"internalType": "uint256",
					"name": "gameSeq",
					"type": "uint256"
				},
				{
					"internalType": "uint256",
					"name": "memberSeq",
					"type": "uint256"
				},
				{
					"internalType": "uint256",
					"name": "tokenAmount",
					"type": "uint256"
				}
			],
			"name": "challenge",
			"outputs": [],
			"stateMutability": "nonpayable",
			"type": "function"
		},
		{
			"inputs": [
				{
					"internalType": "uint256",
					"name": "",
					"type": "uint256"
				},
				{
					"internalType": "uint256",
					"name": "",
					"type": "uint256"
				},
				{
					"internalType": "uint256",
					"name": "",
					"type": "uint256"
				}
			],
			"name": "challenges",
			"outputs": [
				{
					"internalType": "uint256",
					"name": "gameSeq",
					"type": "uint256"
				},
				{
					"internalType": "uint256",
					"name": "memberSeq",
					"type": "uint256"
				},
				{
					"internalType": "uint256",
					"name": "tokenAmount",
					"type": "uint256"
				},
				{
					"internalType": "uint256",
					"name": "score",
					"type": "uint256"
				},
				{
					"internalType": "bool",
					"name": "exists",
					"type": "bool"
				}
			],
			"stateMutability": "view",
			"type": "function"
		},
		{
			"inputs": [
				{
					"internalType": "address[]",
					"name": "recipients",
					"type": "address[]"
				},
				{
					"internalType": "uint256[]",
					"name": "tokenAmounts",
					"type": "uint256[]"
				}
			],
			"name": "distributePrizes",
			"outputs": [],
			"stateMutability": "nonpayable",
			"type": "function"
		},
		{
			"inputs": [],
			"name": "entToken",
			"outputs": [
				{
					"internalType": "contract tENT",
					"name": "",
					"type": "address"
				}
			],
			"stateMutability": "view",
			"type": "function"
		},
		{
			"inputs": [
				{
					"internalType": "bytes32",
					"name": "role",
					"type": "bytes32"
				}
			],
			"name": "getRoleAdmin",
			"outputs": [
				{
					"internalType": "bytes32",
					"name": "",
					"type": "bytes32"
				}
			],
			"stateMutability": "view",
			"type": "function"
		},
		{
			"inputs": [
				{
					"internalType": "address",
					"name": "account",
					"type": "address"
				}
			],
			"name": "grantAdminRole",
			"outputs": [],
			"stateMutability": "nonpayable",
			"type": "function"
		},
		{
			"inputs": [
				{
					"internalType": "bytes32",
					"name": "role",
					"type": "bytes32"
				},
				{
					"internalType": "address",
					"name": "account",
					"type": "address"
				}
			],
			"name": "grantRole",
			"outputs": [],
			"stateMutability": "nonpayable",
			"type": "function"
		},
		{
			"inputs": [
				{
					"internalType": "bytes32",
					"name": "role",
					"type": "bytes32"
				},
				{
					"internalType": "address",
					"name": "account",
					"type": "address"
				}
			],
			"name": "hasRole",
			"outputs": [
				{
					"internalType": "bool",
					"name": "",
					"type": "bool"
				}
			],
			"stateMutability": "view",
			"type": "function"
		},
		{
			"inputs": [
				{
					"internalType": "uint256",
					"name": "yyyymmdd",
					"type": "uint256"
				},
				{
					"internalType": "uint256",
					"name": "gameSeq",
					"type": "uint256"
				},
				{
					"internalType": "uint256",
					"name": "memberSeq",
					"type": "uint256"
				},
				{
					"internalType": "uint256",
					"name": "newScore",
					"type": "uint256"
				}
			],
			"name": "registerScore",
			"outputs": [],
			"stateMutability": "nonpayable",
			"type": "function"
		},
		{
			"inputs": [
				{
					"internalType": "bytes32",
					"name": "role",
					"type": "bytes32"
				},
				{
					"internalType": "address",
					"name": "account",
					"type": "address"
				}
			],
			"name": "renounceRole",
			"outputs": [],
			"stateMutability": "nonpayable",
			"type": "function"
		},
		{
			"inputs": [
				{
					"internalType": "address",
					"name": "account",
					"type": "address"
				}
			],
			"name": "revokeAdminRole",
			"outputs": [],
			"stateMutability": "nonpayable",
			"type": "function"
		},
		{
			"inputs": [
				{
					"internalType": "bytes32",
					"name": "role",
					"type": "bytes32"
				},
				{
					"internalType": "address",
					"name": "account",
					"type": "address"
				}
			],
			"name": "revokeRole",
			"outputs": [],
			"stateMutability": "nonpayable",
			"type": "function"
		},
		{
			"inputs": [],
			"name": "rptToken",
			"outputs": [
				{
					"internalType": "contract tRPT",
					"name": "",
					"type": "address"
				}
			],
			"stateMutability": "view",
			"type": "function"
		},
		{
			"inputs": [
				{
					"internalType": "address",
					"name": "entTokenAddress",
					"type": "address"
				},
				{
					"internalType": "address",
					"name": "rptTokenAddress",
					"type": "address"
				}
			],
			"name": "setTokens",
			"outputs": [],
			"stateMutability": "nonpayable",
			"type": "function"
		},
		{
			"inputs": [
				{
					"internalType": "bytes4",
					"name": "interfaceId",
					"type": "bytes4"
				}
			],
			"name": "supportsInterface",
			"outputs": [
				{
					"internalType": "bool",
					"name": "",
					"type": "bool"
				}
			],
			"stateMutability": "view",
			"type": "function"
		}
	]
}